{
  "address": "0x4d92A613352E013943c4270295B72aF518A49ef5",
  "abi": [
    {
      "inputs": [
        {
          "internalType": "uint256",
          "name": "currentBalance",
          "type": "uint256"
        },
        {
          "internalType": "uint256",
          "name": "calculatedFees",
          "type": "uint256"
        }
      ],
      "name": "NotEnoughBalance",
      "type": "error"
    },
    {
      "anonymous": false,
      "inputs": [
        {
          "indexed": false,
          "internalType": "uint8",
          "name": "version",
          "type": "uint8"
        }
      ],
      "name": "Initialized",
      "type": "event"
    },
    {
      "anonymous": false,
      "inputs": [
        {
          "indexed": true,
          "internalType": "bytes32",
          "name": "messageId",
          "type": "bytes32"
        },
        {
          "indexed": true,
          "internalType": "uint64",
          "name": "destinationChainSelector",
          "type": "uint64"
        },
        {
          "indexed": false,
          "internalType": "address",
          "name": "receiver",
          "type": "address"
        },
        {
          "components": [
            {
              "internalType": "enum MessageType",
              "name": "messageType",
              "type": "uint8"
            },
            {
              "internalType": "bytes",
              "name": "data",
              "type": "bytes"
            }
          ],
          "indexed": false,
          "internalType": "struct ICommandData",
          "name": "data",
          "type": "tuple"
        },
        {
          "indexed": false,
          "internalType": "address",
          "name": "feeToken",
          "type": "address"
        },
        {
          "indexed": false,
          "internalType": "uint256",
          "name": "fees",
          "type": "uint256"
        }
      ],
      "name": "MessageSent",
      "type": "event"
    },
    {
      "anonymous": false,
      "inputs": [
        {
          "indexed": false,
          "internalType": "address",
          "name": "account",
          "type": "address"
        }
      ],
      "name": "Paused",
      "type": "event"
    },
    {
      "anonymous": false,
      "inputs": [
        {
          "indexed": true,
          "internalType": "bytes32",
          "name": "role",
          "type": "bytes32"
        },
        {
          "indexed": true,
          "internalType": "bytes32",
          "name": "previousAdminRole",
          "type": "bytes32"
        },
        {
          "indexed": true,
          "internalType": "bytes32",
          "name": "newAdminRole",
          "type": "bytes32"
        }
      ],
      "name": "RoleAdminChanged",
      "type": "event"
    },
    {
      "anonymous": false,
      "inputs": [
        {
          "indexed": true,
          "internalType": "bytes32",
          "name": "role",
          "type": "bytes32"
        },
        {
          "indexed": true,
          "internalType": "address",
          "name": "account",
          "type": "address"
        },
        {
          "indexed": true,
          "internalType": "address",
          "name": "sender",
          "type": "address"
        }
      ],
      "name": "RoleGranted",
      "type": "event"
    },
    {
      "anonymous": false,
      "inputs": [
        {
          "indexed": true,
          "internalType": "bytes32",
          "name": "role",
          "type": "bytes32"
        },
        {
          "indexed": true,
          "internalType": "address",
          "name": "account",
          "type": "address"
        },
        {
          "indexed": true,
          "internalType": "address",
          "name": "sender",
          "type": "address"
        }
      ],
      "name": "RoleRevoked",
      "type": "event"
    },
    {
      "anonymous": false,
      "inputs": [
        {
          "indexed": false,
          "internalType": "address",
          "name": "account",
          "type": "address"
        }
      ],
      "name": "Unpaused",
      "type": "event"
    },
    {
      "anonymous": false,
      "inputs": [
        {
          "indexed": true,
          "internalType": "enum MessageType",
          "name": "target",
          "type": "uint8"
        },
        {
          "indexed": true,
          "internalType": "bytes4",
          "name": "functionSignature",
          "type": "bytes4"
        },
        {
          "indexed": false,
          "internalType": "bool",
          "name": "isAllow",
          "type": "bool"
        }
      ],
      "name": "UpdateWhitelistSelector",
      "type": "event"
    },
    {
      "inputs": [],
      "name": "DEFAULT_ADMIN_ROLE",
      "outputs": [
        {
          "internalType": "bytes32",
          "name": "",
          "type": "bytes32"
        }
      ],
      "stateMutability": "view",
      "type": "function"
    },
    {
      "inputs": [],
      "name": "OWNER_ROLE",
      "outputs": [
        {
          "internalType": "bytes32",
          "name": "",
          "type": "bytes32"
        }
      ],
      "stateMutability": "view",
      "type": "function"
    },
    {
      "inputs": [
        {
          "internalType": "bytes32",
          "name": "role",
          "type": "bytes32"
        }
      ],
      "name": "getRoleAdmin",
      "outputs": [
        {
          "internalType": "bytes32",
          "name": "",
          "type": "bytes32"
        }
      ],
      "stateMutability": "view",
      "type": "function"
    },
    {
      "inputs": [
        {
          "internalType": "bytes32",
          "name": "role",
          "type": "bytes32"
        },
        {
          "internalType": "uint256",
          "name": "index",
          "type": "uint256"
        }
      ],
      "name": "getRoleMember",
      "outputs": [
        {
          "internalType": "address",
          "name": "",
          "type": "address"
        }
      ],
      "stateMutability": "view",
      "type": "function"
    },
    {
      "inputs": [
        {
          "internalType": "bytes32",
          "name": "role",
          "type": "bytes32"
        }
      ],
      "name": "getRoleMemberCount",
      "outputs": [
        {
          "internalType": "uint256",
          "name": "",
          "type": "uint256"
        }
      ],
      "stateMutability": "view",
      "type": "function"
    },
    {
      "inputs": [
        {
          "internalType": "bytes32",
          "name": "role",
          "type": "bytes32"
        },
        {
          "internalType": "address",
          "name": "account",
          "type": "address"
        }
      ],
      "name": "grantRole",
      "outputs": [],
      "stateMutability": "nonpayable",
      "type": "function"
    },
    {
      "inputs": [
        {
          "internalType": "bytes32",
          "name": "role",
          "type": "bytes32"
        },
        {
          "internalType": "address",
          "name": "account",
          "type": "address"
        }
      ],
      "name": "hasRole",
      "outputs": [
        {
          "internalType": "bool",
          "name": "",
          "type": "bool"
        }
      ],
      "stateMutability": "view",
      "type": "function"
    },
    {
      "inputs": [
        {
          "internalType": "contract IRouterClient",
          "name": "router_",
          "type": "address"
        },
        {
          "internalType": "contract LinkTokenInterface",
          "name": "link_",
          "type": "address"
        }
      ],
      "name": "initialize",
      "outputs": [],
      "stateMutability": "nonpayable",
      "type": "function"
    },
    {
      "inputs": [],
      "name": "linkToken",
      "outputs": [
        {
          "internalType": "contract LinkTokenInterface",
          "name": "",
          "type": "address"
        }
      ],
      "stateMutability": "view",
      "type": "function"
    },
    {
      "inputs": [],
      "name": "pause",
      "outputs": [],
      "stateMutability": "nonpayable",
      "type": "function"
    },
    {
      "inputs": [],
      "name": "paused",
      "outputs": [
        {
          "internalType": "bool",
          "name": "",
          "type": "bool"
        }
      ],
      "stateMutability": "view",
      "type": "function"
    },
    {
      "inputs": [
        {
          "internalType": "bytes32",
          "name": "role",
          "type": "bytes32"
        },
        {
          "internalType": "address",
          "name": "account",
          "type": "address"
        }
      ],
      "name": "renounceRole",
      "outputs": [],
      "stateMutability": "nonpayable",
      "type": "function"
    },
    {
      "inputs": [
        {
          "internalType": "bytes32",
          "name": "role",
          "type": "bytes32"
        },
        {
          "internalType": "address",
          "name": "account",
          "type": "address"
        }
      ],
      "name": "revokeRole",
      "outputs": [],
      "stateMutability": "nonpayable",
      "type": "function"
    },
    {
      "inputs": [],
      "name": "router",
      "outputs": [
        {
          "internalType": "contract IRouterClient",
          "name": "",
          "type": "address"
        }
      ],
      "stateMutability": "view",
      "type": "function"
    },
    {
      "inputs": [
        {
          "internalType": "uint64",
          "name": "destinationChainSelector",
          "type": "uint64"
        },
        {
          "internalType": "address",
          "name": "receiver",
          "type": "address"
        },
        {
          "components": [
            {
              "internalType": "enum MessageType",
              "name": "messageType",
              "type": "uint8"
            },
            {
              "internalType": "bytes",
              "name": "data",
              "type": "bytes"
            }
          ],
          "internalType": "struct ICommandData",
          "name": "data",
          "type": "tuple"
        },
        {
          "internalType": "uint256",
          "name": "gasLimit",
          "type": "uint256"
        }
      ],
      "name": "sendMessage",
      "outputs": [
        {
          "internalType": "bytes32",
          "name": "messageId",
          "type": "bytes32"
        }
      ],
      "stateMutability": "nonpayable",
      "type": "function"
    },
    {
      "inputs": [
        {
          "internalType": "bytes4",
          "name": "interfaceId",
          "type": "bytes4"
        }
      ],
      "name": "supportsInterface",
      "outputs": [
        {
          "internalType": "bool",
          "name": "",
          "type": "bool"
        }
      ],
      "stateMutability": "view",
      "type": "function"
    },
    {
      "inputs": [],
      "name": "unpause",
      "outputs": [],
      "stateMutability": "nonpayable",
      "type": "function"
    }
  ],
  "transactionHash": "0xf4f2e4b4b82941141dfb8f222d4ed80c047f7ebe376362a351533d62e1c3841d",
  "args": [],
  "numDeployments": 1,
  "solcInputHash": "82fa8d152c87b16504201ab9f5072a51",
  "bytecode": "0x608060405234801561001057600080fd5b50611f9a806100206000396000f3fe608060405234801561001057600080fd5b506004361061011b5760003560e01c80635c975abb116100b2578063a217fddf11610081578063d547741f11610066578063d547741f1461029c578063e58378bb146102af578063f887ea40146102d657600080fd5b8063a217fddf14610281578063ca15c8731461028957600080fd5b80635c975abb146102155780638456cb59146102205780639010d07c1461022857806391d148541461023b57600080fd5b806336568abe116100ee57806336568abe146101a15780633f4ba83a146101b4578063485cc955146101bc57806357970e93146101cf57600080fd5b806301ffc9a714610120578063248a9ca3146101485780632f2ff15d1461017957806331d249941461018e575b600080fd5b61013361012e36600461191a565b6102f7565b60405190151581526020015b60405180910390f35b61016b61015636600461195c565b600090815260c9602052604090206001015490565b60405190815260200161013f565b61018c610187366004611997565b610353565b005b61016b61019c3660046119c7565b61037d565b61018c6101af366004611997565b6108b9565b61018c61096c565b61018c6101ca366004611a41565b610982565b61012e546101f09073ffffffffffffffffffffffffffffffffffffffff1681565b60405173ffffffffffffffffffffffffffffffffffffffff909116815260200161013f565b60335460ff16610133565b61018c610b20565b6101f0610236366004611a6f565b610b33565b610133610249366004611997565b600091825260c96020908152604080842073ffffffffffffffffffffffffffffffffffffffff93909316845291905290205460ff1690565b61016b600081565b61016b61029736600461195c565b610b52565b61018c6102aa366004611997565b610b69565b61016b7fb19546dff01e856fb3f010c267a7b1c60363cf8a4664e21cc89c26224620214e81565b61012d546101f09073ffffffffffffffffffffffffffffffffffffffff1681565b60007fffffffff0000000000000000000000000000000000000000000000000000000082167f5a05180f00000000000000000000000000000000000000000000000000000000148061034d575061034d82610b8e565b92915050565b600082815260c9602052604090206001015461036e81610c25565b6103788383610c2f565b505050565b6040805160a0810190915273ffffffffffffffffffffffffffffffffffffffff841660c082015260009081908060e081016040516020818303038152906040528152602001856040516020016103d39190611b57565b604080517fffffffffffffffffffffffffffffffffffffffffffffffffffffffffffffffe08184030181529190528152602001600060405190808252806020026020018201604052801561044d57816020015b60408051808201909152600080825260208201528152602001906001900390816104265790505b50815261012e5473ffffffffffffffffffffffffffffffffffffffff16602080830191909152604080518082018252878152600090830190815281516024810189905290511515604480830191909152825180830390910181526064909101825291820180517bffffffffffffffffffffffffffffffffffffffffffffffffffffffff167f97a657c9000000000000000000000000000000000000000000000000000000001790529091015261012d546040517f20487ded00000000000000000000000000000000000000000000000000000000815291925060009173ffffffffffffffffffffffffffffffffffffffff909116906320487ded90610558908a908690600401611c13565b602060405180830381865afa158015610575573d6000803e3d6000fd5b505050506040513d601f19601f820116820180604052508101906105999190611d25565b61012e546040517f70a0823100000000000000000000000000000000000000000000000000000000815230600482015291925073ffffffffffffffffffffffffffffffffffffffff16906370a0823190602401602060405180830381865afa158015610609573d6000803e3d6000fd5b505050506040513d601f19601f8201168201806040525081019061062d9190611d25565b8111156107095761012e546040517f70a0823100000000000000000000000000000000000000000000000000000000815230600482015273ffffffffffffffffffffffffffffffffffffffff909116906370a0823190602401602060405180830381865afa1580156106a3573d6000803e3d6000fd5b505050506040513d601f19601f820116820180604052508101906106c79190611d25565b6040517f8f0f42060000000000000000000000000000000000000000000000000000000081526004810191909152602481018290526044015b60405180910390fd5b61012e5461012d546040517f095ea7b300000000000000000000000000000000000000000000000000000000815273ffffffffffffffffffffffffffffffffffffffff91821660048201526024810184905291169063095ea7b3906044016020604051808303816000875af1158015610786573d6000803e3d6000fd5b505050506040513d601f19601f820116820180604052508101906107aa9190611d3e565b5061012d546040517f96f4e9f900000000000000000000000000000000000000000000000000000000815273ffffffffffffffffffffffffffffffffffffffff909116906396f4e9f990610804908a908690600401611c13565b6020604051808303816000875af1158015610823573d6000803e3d6000fd5b505050506040513d601f19601f820116820180604052508101906108479190611d25565b61012e5460405191945067ffffffffffffffff89169185917ff2ba4508963e4c96546faff93e566246f92048164820c227dbef04ed3df3c8aa916108a7918b918b9173ffffffffffffffffffffffffffffffffffffffff16908890611d60565b60405180910390a35050949350505050565b73ffffffffffffffffffffffffffffffffffffffff8116331461095e576040517f08c379a000000000000000000000000000000000000000000000000000000000815260206004820152602f60248201527f416363657373436f6e74726f6c3a2063616e206f6e6c792072656e6f756e636560448201527f20726f6c657320666f722073656c6600000000000000000000000000000000006064820152608401610700565b6109688282610c51565b5050565b600061097781610c25565b61097f610c73565b50565b600054610100900460ff16158080156109a25750600054600160ff909116105b806109bc5750303b1580156109bc575060005460ff166001145b610a48576040517f08c379a000000000000000000000000000000000000000000000000000000000815260206004820152602e60248201527f496e697469616c697a61626c653a20636f6e747261637420697320616c72656160448201527f647920696e697469616c697a65640000000000000000000000000000000000006064820152608401610700565b600080547fffffffffffffffffffffffffffffffffffffffffffffffffffffffffffffff001660011790558015610aa657600080547fffffffffffffffffffffffffffffffffffffffffffffffffffffffffffff00ff166101001790555b610aaf33610cf0565b610ab98383610e1c565b801561037857600080547fffffffffffffffffffffffffffffffffffffffffffffffffffffffffffff00ff169055604051600181527f7f26b83ff96e1f2b6a682f133852f6798a09c465da95921460cefb38474024989060200160405180910390a1505050565b6000610b2b81610c25565b61097f610f08565b600082815260fb60205260408120610b4b9083610f63565b9392505050565b600081815260fb6020526040812061034d90610f6f565b600082815260c96020526040902060010154610b8481610c25565b6103788383610c51565b60007fffffffff0000000000000000000000000000000000000000000000000000000082167f7965db0b00000000000000000000000000000000000000000000000000000000148061034d57507f01ffc9a7000000000000000000000000000000000000000000000000000000007fffffffff0000000000000000000000000000000000000000000000000000000083161461034d565b61097f8133610f79565b610c398282611033565b600082815260fb602052604090206103789082611127565b610c5b8282611149565b600082815260fb602052604090206103789082611204565b610c7b611226565b603380547fffffffffffffffffffffffffffffffffffffffffffffffffffffffffffffff001690557f5db9ee0a495bf2e6ff9c91a7834c1ba4fdd244a5e8aa4e537bd38aeae4b073aa335b60405173ffffffffffffffffffffffffffffffffffffffff909116815260200160405180910390a1565b600054610100900460ff16610d87576040517f08c379a000000000000000000000000000000000000000000000000000000000815260206004820152602b60248201527f496e697469616c697a61626c653a20636f6e7472616374206973206e6f74206960448201527f6e697469616c697a696e670000000000000000000000000000000000000000006064820152608401610700565b610d8f611294565b610d97611355565b610d9f6113f3565b73ffffffffffffffffffffffffffffffffffffffff8116610dbd5750335b610dc860008261148a565b610df27fb19546dff01e856fb3f010c267a7b1c60363cf8a4664e21cc89c26224620214e8261148a565b61097f7fb19546dff01e856fb3f010c267a7b1c60363cf8a4664e21cc89c26224620214e80611494565b600054610100900460ff16610eb3576040517f08c379a000000000000000000000000000000000000000000000000000000000815260206004820152602b60248201527f496e697469616c697a61626c653a20636f6e7472616374206973206e6f74206960448201527f6e697469616c697a696e670000000000000000000000000000000000000000006064820152608401610700565b61012d805473ffffffffffffffffffffffffffffffffffffffff9384167fffffffffffffffffffffffff00000000000000000000000000000000000000009182161790915561012e8054929093169116179055565b610f106114df565b603380547fffffffffffffffffffffffffffffffffffffffffffffffffffffffffffffff001660011790557f62e78cea01bee320cd4e420270b5ea74000d11b0c9f74754ebdbfc544b05a258610cc63390565b6000610b4b838361154c565b600061034d825490565b600082815260c96020908152604080832073ffffffffffffffffffffffffffffffffffffffff8516845290915290205460ff1661096857610fb981611576565b610fc4836020611595565b604051602001610fd5929190611da2565b604080517fffffffffffffffffffffffffffffffffffffffffffffffffffffffffffffffe0818403018152908290527f08c379a000000000000000000000000000000000000000000000000000000000825261070091600401611e23565b600082815260c96020908152604080832073ffffffffffffffffffffffffffffffffffffffff8516845290915290205460ff1661096857600082815260c96020908152604080832073ffffffffffffffffffffffffffffffffffffffff85168452909152902080547fffffffffffffffffffffffffffffffffffffffffffffffffffffffffffffff001660011790556110c93390565b73ffffffffffffffffffffffffffffffffffffffff168173ffffffffffffffffffffffffffffffffffffffff16837f2f8788117e7eff1d82e926ec794901d17c78024a50270940304540a733656f0d60405160405180910390a45050565b6000610b4b8373ffffffffffffffffffffffffffffffffffffffff84166117d8565b600082815260c96020908152604080832073ffffffffffffffffffffffffffffffffffffffff8516845290915290205460ff161561096857600082815260c96020908152604080832073ffffffffffffffffffffffffffffffffffffffff8516808552925280832080547fffffffffffffffffffffffffffffffffffffffffffffffffffffffffffffff0016905551339285917ff6391f5c32d9c69d2a47ea670b442974b53935d1edc7fd64eb21e047a839171b9190a45050565b6000610b4b8373ffffffffffffffffffffffffffffffffffffffff8416611827565b60335460ff16611292576040517f08c379a000000000000000000000000000000000000000000000000000000000815260206004820152601460248201527f5061757361626c653a206e6f74207061757365640000000000000000000000006044820152606401610700565b565b600054610100900460ff1661132b576040517f08c379a000000000000000000000000000000000000000000000000000000000815260206004820152602b60248201527f496e697469616c697a61626c653a20636f6e7472616374206973206e6f74206960448201527f6e697469616c697a696e670000000000000000000000000000000000000000006064820152608401610700565b603380547fffffffffffffffffffffffffffffffffffffffffffffffffffffffffffffff00169055565b600054610100900460ff166113ec576040517f08c379a000000000000000000000000000000000000000000000000000000000815260206004820152602b60248201527f496e697469616c697a61626c653a20636f6e7472616374206973206e6f74206960448201527f6e697469616c697a696e670000000000000000000000000000000000000000006064820152608401610700565b6001606555565b600054610100900460ff16611292576040517f08c379a000000000000000000000000000000000000000000000000000000000815260206004820152602b60248201527f496e697469616c697a61626c653a20636f6e7472616374206973206e6f74206960448201527f6e697469616c697a696e670000000000000000000000000000000000000000006064820152608401610700565b6109688282610c2f565b600082815260c96020526040808220600101805490849055905190918391839186917fbd79b86ffe0ab8e8776151514217cd7cacd52c909f66475c3af44e129f0b00ff9190a4505050565b60335460ff1615611292576040517f08c379a000000000000000000000000000000000000000000000000000000000815260206004820152601060248201527f5061757361626c653a20706175736564000000000000000000000000000000006044820152606401610700565b600082600001828154811061156357611563611e36565b9060005260206000200154905092915050565b606061034d73ffffffffffffffffffffffffffffffffffffffff831660145b606060006115a4836002611e94565b6115af906002611ed1565b67ffffffffffffffff8111156115c7576115c7611b6a565b6040519080825280601f01601f1916602001820160405280156115f1576020820181803683370190505b5090507f30000000000000000000000000000000000000000000000000000000000000008160008151811061162857611628611e36565b60200101907effffffffffffffffffffffffffffffffffffffffffffffffffffffffffffff1916908160001a9053507f78000000000000000000000000000000000000000000000000000000000000008160018151811061168b5761168b611e36565b60200101907effffffffffffffffffffffffffffffffffffffffffffffffffffffffffffff1916908160001a90535060006116c7846002611e94565b6116d2906001611ed1565b90505b600181111561176f577f303132333435363738396162636465660000000000000000000000000000000085600f166010811061171357611713611e36565b1a60f81b82828151811061172957611729611e36565b60200101907effffffffffffffffffffffffffffffffffffffffffffffffffffffffffffff1916908160001a90535060049490941c9361176881611ee9565b90506116d5565b508315610b4b576040517f08c379a000000000000000000000000000000000000000000000000000000000815260206004820181905260248201527f537472696e67733a20686578206c656e67746820696e73756666696369656e746044820152606401610700565b600081815260018301602052604081205461181f5750815460018181018455600084815260208082209093018490558454848252828601909352604090209190915561034d565b50600061034d565b6000818152600183016020526040812054801561191057600061184b600183611f1e565b855490915060009061185f90600190611f1e565b90508181146118c457600086600001828154811061187f5761187f611e36565b90600052602060002001549050808760000184815481106118a2576118a2611e36565b6000918252602080832090910192909255918252600188019052604090208390555b85548690806118d5576118d5611f35565b60019003818190600052602060002001600090559055856001016000868152602001908152602001600020600090556001935050505061034d565b600091505061034d565b60006020828403121561192c57600080fd5b81357fffffffff0000000000000000000000000000000000000000000000000000000081168114610b4b57600080fd5b60006020828403121561196e57600080fd5b5035919050565b73ffffffffffffffffffffffffffffffffffffffff8116811461097f57600080fd5b600080604083850312156119aa57600080fd5b8235915060208301356119bc81611975565b809150509250929050565b600080600080608085870312156119dd57600080fd5b843567ffffffffffffffff80821682146119f657600080fd5b909450602086013590611a0882611975565b90935060408601359080821115611a1e57600080fd5b50850160408188031215611a3157600080fd5b9396929550929360600135925050565b60008060408385031215611a5457600080fd5b8235611a5f81611975565b915060208301356119bc81611975565b60008060408385031215611a8257600080fd5b50508035926020909101359150565b6000813560018110611aa257600080fd5b83526020820135368390037fffffffffffffffffffffffffffffffffffffffffffffffffffffffffffffffe1018112611ada57600080fd5b8201803567ffffffffffffffff811115611af357600080fd5b803603841315611b0257600080fd5b604060208601528060408601528060208301606087013760006060828701015260607fffffffffffffffffffffffffffffffffffffffffffffffffffffffffffffffe0601f8301168601019250505092915050565b602081526000610b4b6020830184611a91565b7f4e487b7100000000000000000000000000000000000000000000000000000000600052604160045260246000fd5b60005b83811015611bb4578181015183820152602001611b9c565b83811115611bc3576000848401525b50505050565b60008151808452611be1816020860160208601611b99565b601f017fffffffffffffffffffffffffffffffffffffffffffffffffffffffffffffffe0169290920160200192915050565b6000604067ffffffffffffffff8516835260208181850152845160a083860152611c4060e0860182611bc9565b9050818601517fffffffffffffffffffffffffffffffffffffffffffffffffffffffffffffffc080878403016060880152611c7b8383611bc9565b88860151888203830160808a01528051808352908601945060009350908501905b80841015611cdb578451805173ffffffffffffffffffffffffffffffffffffffff16835286015186830152938501936001939093019290860190611c9c565b50606089015173ffffffffffffffffffffffffffffffffffffffff1660a08901526080890151888203830160c08a01529550611d178187611bc9565b9a9950505050505050505050565b600060208284031215611d3757600080fd5b5051919050565b600060208284031215611d5057600080fd5b81518015158114610b4b57600080fd5b600073ffffffffffffffffffffffffffffffffffffffff808716835260806020840152611d906080840187611a91565b94166040830152506060015292915050565b7f416363657373436f6e74726f6c3a206163636f756e7420000000000000000000815260008351611dda816017850160208801611b99565b7f206973206d697373696e6720726f6c65200000000000000000000000000000006017918401918201528351611e17816028840160208801611b99565b01602801949350505050565b602081526000610b4b6020830184611bc9565b7f4e487b7100000000000000000000000000000000000000000000000000000000600052603260045260246000fd5b7f4e487b7100000000000000000000000000000000000000000000000000000000600052601160045260246000fd5b6000817fffffffffffffffffffffffffffffffffffffffffffffffffffffffffffffffff0483118215151615611ecc57611ecc611e65565b500290565b60008219821115611ee457611ee4611e65565b500190565b600081611ef857611ef8611e65565b507fffffffffffffffffffffffffffffffffffffffffffffffffffffffffffffffff0190565b600082821015611f3057611f30611e65565b500390565b7f4e487b7100000000000000000000000000000000000000000000000000000000600052603160045260246000fdfea2646970667358221220ebc254cc7f9a9a76de6c42439958018df7f4a5a88cbda24e6a7754f61193264164736f6c634300080d0033",
  "devdoc": {
    "kind": "dev",
    "methods": {
      "getRoleAdmin(bytes32)": {
        "details": "Returns the admin role that controls `role`. See {grantRole} and {revokeRole}. To change a role's admin, use {_setRoleAdmin}."
      },
      "getRoleMember(bytes32,uint256)": {
        "details": "Returns one of the accounts that have `role`. `index` must be a value between 0 and {getRoleMemberCount}, non-inclusive. Role bearers are not sorted in any particular way, and their ordering may change at any point. WARNING: When using {getRoleMember} and {getRoleMemberCount}, make sure you perform all queries on the same block. See the following https://forum.openzeppelin.com/t/iterating-over-elements-on-enumerableset-in-openzeppelin-contracts/2296[forum post] for more information."
      },
      "getRoleMemberCount(bytes32)": {
        "details": "Returns the number of accounts that have `role`. Can be used together with {getRoleMember} to enumerate all bearers of a role."
      },
      "grantRole(bytes32,address)": {
        "details": "Grants `role` to `account`. If `account` had not been already granted `role`, emits a {RoleGranted} event. Requirements: - the caller must have ``role``'s admin role. May emit a {RoleGranted} event."
      },
      "hasRole(bytes32,address)": {
        "details": "Returns `true` if `account` has been granted `role`."
      },
      "paused()": {
        "details": "Returns true if the contract is paused, and false otherwise."
      },
      "renounceRole(bytes32,address)": {
        "details": "Revokes `role` from the calling account. Roles are often managed via {grantRole} and {revokeRole}: this function's purpose is to provide a mechanism for accounts to lose their privileges if they are compromised (such as when a trusted device is misplaced). If the calling account had been revoked `role`, emits a {RoleRevoked} event. Requirements: - the caller must be `account`. May emit a {RoleRevoked} event."
      },
      "revokeRole(bytes32,address)": {
        "details": "Revokes `role` from `account`. If `account` had been granted `role`, emits a {RoleRevoked} event. Requirements: - the caller must have ``role``'s admin role. May emit a {RoleRevoked} event."
      },
      "supportsInterface(bytes4)": {
        "details": "See {IERC165-supportsInterface}."
      }
    },
    "version": 1
  },
  "userdoc": {
    "kind": "user",
    "methods": {},
    "version": 1
  },
  "storageLayout": {
    "storage": [
      {
        "astId": 1135,
        "contract": "contracts/protocol/ccip/UntangledSender.sol:UntangledSender",
        "label": "_initialized",
        "offset": 0,
        "slot": "0",
        "type": "t_uint8"
      },
      {
        "astId": 1138,
        "contract": "contracts/protocol/ccip/UntangledSender.sol:UntangledSender",
        "label": "_initializing",
        "offset": 1,
        "slot": "0",
        "type": "t_bool"
      },
      {
        "astId": 1879,
        "contract": "contracts/protocol/ccip/UntangledSender.sol:UntangledSender",
        "label": "__gap",
        "offset": 0,
        "slot": "1",
        "type": "t_array(t_uint256)50_storage"
      },
      {
        "astId": 1318,
        "contract": "contracts/protocol/ccip/UntangledSender.sol:UntangledSender",
        "label": "_paused",
        "offset": 0,
        "slot": "51",
        "type": "t_bool"
      },
      {
        "astId": 1423,
        "contract": "contracts/protocol/ccip/UntangledSender.sol:UntangledSender",
        "label": "__gap",
        "offset": 0,
        "slot": "52",
        "type": "t_array(t_uint256)49_storage"
      },
      {
        "astId": 1438,
        "contract": "contracts/protocol/ccip/UntangledSender.sol:UntangledSender",
        "label": "_status",
        "offset": 0,
        "slot": "101",
        "type": "t_uint256"
      },
      {
        "astId": 1507,
        "contract": "contracts/protocol/ccip/UntangledSender.sol:UntangledSender",
        "label": "__gap",
        "offset": 0,
        "slot": "102",
        "type": "t_array(t_uint256)49_storage"
      },
      {
        "astId": 2152,
        "contract": "contracts/protocol/ccip/UntangledSender.sol:UntangledSender",
        "label": "__gap",
        "offset": 0,
        "slot": "151",
        "type": "t_array(t_uint256)50_storage"
      },
      {
        "astId": 602,
        "contract": "contracts/protocol/ccip/UntangledSender.sol:UntangledSender",
        "label": "_roles",
        "offset": 0,
        "slot": "201",
        "type": "t_mapping(t_bytes32,t_struct(RoleData)597_storage)"
      },
      {
        "astId": 897,
        "contract": "contracts/protocol/ccip/UntangledSender.sol:UntangledSender",
        "label": "__gap",
        "offset": 0,
        "slot": "202",
        "type": "t_array(t_uint256)49_storage"
      },
      {
        "astId": 451,
        "contract": "contracts/protocol/ccip/UntangledSender.sol:UntangledSender",
        "label": "_roleMembers",
        "offset": 0,
        "slot": "251",
        "type": "t_mapping(t_bytes32,t_struct(AddressSet)3462_storage)"
      },
      {
        "astId": 561,
        "contract": "contracts/protocol/ccip/UntangledSender.sol:UntangledSender",
        "label": "__gap",
        "offset": 0,
        "slot": "252",
        "type": "t_array(t_uint256)49_storage"
      },
      {
        "astId": 4119,
        "contract": "contracts/protocol/ccip/UntangledSender.sol:UntangledSender",
        "label": "router",
        "offset": 0,
        "slot": "301",
        "type": "t_contract(IRouterClient)233"
      },
      {
        "astId": 4122,
        "contract": "contracts/protocol/ccip/UntangledSender.sol:UntangledSender",
        "label": "linkToken",
        "offset": 0,
        "slot": "302",
        "type": "t_contract(LinkTokenInterface)417"
      },
      {
        "astId": 4127,
        "contract": "contracts/protocol/ccip/UntangledSender.sol:UntangledSender",
        "label": "__gap",
        "offset": 0,
        "slot": "303",
        "type": "t_array(t_uint256)50_storage"
      }
    ],
    "types": {
      "t_address": {
        "encoding": "inplace",
        "label": "address",
        "numberOfBytes": "20"
      },
      "t_array(t_bytes32)dyn_storage": {
        "base": "t_bytes32",
        "encoding": "dynamic_array",
        "label": "bytes32[]",
        "numberOfBytes": "32"
      },
      "t_array(t_uint256)49_storage": {
        "base": "t_uint256",
        "encoding": "inplace",
        "label": "uint256[49]",
        "numberOfBytes": "1568"
      },
      "t_array(t_uint256)50_storage": {
        "base": "t_uint256",
        "encoding": "inplace",
        "label": "uint256[50]",
        "numberOfBytes": "1600"
      },
      "t_bool": {
        "encoding": "inplace",
        "label": "bool",
        "numberOfBytes": "1"
      },
      "t_bytes32": {
        "encoding": "inplace",
        "label": "bytes32",
        "numberOfBytes": "32"
      },
      "t_contract(IRouterClient)233": {
        "encoding": "inplace",
        "label": "contract IRouterClient",
        "numberOfBytes": "20"
      },
      "t_contract(LinkTokenInterface)417": {
        "encoding": "inplace",
        "label": "contract LinkTokenInterface",
        "numberOfBytes": "20"
      },
      "t_mapping(t_address,t_bool)": {
        "encoding": "mapping",
        "key": "t_address",
        "label": "mapping(address => bool)",
        "numberOfBytes": "32",
        "value": "t_bool"
      },
      "t_mapping(t_bytes32,t_struct(AddressSet)3462_storage)": {
        "encoding": "mapping",
        "key": "t_bytes32",
        "label": "mapping(bytes32 => struct EnumerableSetUpgradeable.AddressSet)",
        "numberOfBytes": "32",
        "value": "t_struct(AddressSet)3462_storage"
      },
      "t_mapping(t_bytes32,t_struct(RoleData)597_storage)": {
        "encoding": "mapping",
        "key": "t_bytes32",
        "label": "mapping(bytes32 => struct AccessControlUpgradeable.RoleData)",
        "numberOfBytes": "32",
        "value": "t_struct(RoleData)597_storage"
      },
      "t_mapping(t_bytes32,t_uint256)": {
        "encoding": "mapping",
        "key": "t_bytes32",
        "label": "mapping(bytes32 => uint256)",
        "numberOfBytes": "32",
        "value": "t_uint256"
      },
      "t_struct(AddressSet)3462_storage": {
        "encoding": "inplace",
        "label": "struct EnumerableSetUpgradeable.AddressSet",
        "members": [
          {
            "astId": 3461,
            "contract": "contracts/protocol/ccip/UntangledSender.sol:UntangledSender",
            "label": "_inner",
            "offset": 0,
            "slot": "0",
            "type": "t_struct(Set)3147_storage"
          }
        ],
        "numberOfBytes": "64"
      },
      "t_struct(RoleData)597_storage": {
        "encoding": "inplace",
        "label": "struct AccessControlUpgradeable.RoleData",
        "members": [
          {
            "astId": 594,
            "contract": "contracts/protocol/ccip/UntangledSender.sol:UntangledSender",
            "label": "members",
            "offset": 0,
            "slot": "0",
            "type": "t_mapping(t_address,t_bool)"
          },
          {
            "astId": 596,
            "contract": "contracts/protocol/ccip/UntangledSender.sol:UntangledSender",
            "label": "adminRole",
            "offset": 0,
            "slot": "1",
            "type": "t_bytes32"
          }
        ],
        "numberOfBytes": "64"
      },
      "t_struct(Set)3147_storage": {
        "encoding": "inplace",
        "label": "struct EnumerableSetUpgradeable.Set",
        "members": [
          {
            "astId": 3142,
            "contract": "contracts/protocol/ccip/UntangledSender.sol:UntangledSender",
            "label": "_values",
            "offset": 0,
            "slot": "0",
            "type": "t_array(t_bytes32)dyn_storage"
          },
          {
            "astId": 3146,
            "contract": "contracts/protocol/ccip/UntangledSender.sol:UntangledSender",
            "label": "_indexes",
            "offset": 0,
            "slot": "1",
            "type": "t_mapping(t_bytes32,t_uint256)"
          }
        ],
        "numberOfBytes": "64"
      },
      "t_uint256": {
        "encoding": "inplace",
        "label": "uint256",
        "numberOfBytes": "32"
      },
      "t_uint8": {
        "encoding": "inplace",
        "label": "uint8",
        "numberOfBytes": "1"
      }
    }
  }
}