{
  "address": "0x87192b01A37B3a970d363ac01C5316FC1aB2fdA4",
  "abi": [
    {
      "anonymous": false,
      "inputs": [
        {
          "indexed": true,
          "internalType": "address",
          "name": "owner",
          "type": "address"
        },
        {
          "indexed": true,
          "internalType": "address",
          "name": "approved",
          "type": "address"
        },
        {
          "indexed": true,
          "internalType": "uint256",
          "name": "tokenId",
          "type": "uint256"
        }
      ],
      "name": "Approval",
      "type": "event"
    },
    {
      "anonymous": false,
      "inputs": [
        {
          "indexed": true,
          "internalType": "address",
          "name": "owner",
          "type": "address"
        },
        {
          "indexed": true,
          "internalType": "address",
          "name": "operator",
          "type": "address"
        },
        {
          "indexed": false,
          "internalType": "bool",
          "name": "approved",
          "type": "bool"
        }
      ],
      "name": "ApprovalForAll",
      "type": "event"
    },
    {
      "anonymous": false,
      "inputs": [],
      "name": "EIP712DomainChanged",
      "type": "event"
    },
    {
      "anonymous": false,
      "inputs": [
        {
          "indexed": false,
          "internalType": "uint8",
          "name": "version",
          "type": "uint8"
        }
      ],
      "name": "Initialized",
      "type": "event"
    },
    {
      "anonymous": false,
      "inputs": [
        {
          "indexed": false,
          "internalType": "uint256",
          "name": "tokenId",
          "type": "uint256"
        },
        {
          "indexed": false,
          "internalType": "uint256",
          "name": "nonce",
          "type": "uint256"
        }
      ],
      "name": "NonceChanged",
      "type": "event"
    },
    {
      "anonymous": false,
      "inputs": [
        {
          "indexed": false,
          "internalType": "address",
          "name": "account",
          "type": "address"
        }
      ],
      "name": "Paused",
      "type": "event"
    },
    {
      "anonymous": false,
      "inputs": [
        {
          "indexed": true,
          "internalType": "bytes32",
          "name": "role",
          "type": "bytes32"
        },
        {
          "indexed": true,
          "internalType": "bytes32",
          "name": "previousAdminRole",
          "type": "bytes32"
        },
        {
          "indexed": true,
          "internalType": "bytes32",
          "name": "newAdminRole",
          "type": "bytes32"
        }
      ],
      "name": "RoleAdminChanged",
      "type": "event"
    },
    {
      "anonymous": false,
      "inputs": [
        {
          "indexed": true,
          "internalType": "bytes32",
          "name": "role",
          "type": "bytes32"
        },
        {
          "indexed": true,
          "internalType": "address",
          "name": "account",
          "type": "address"
        },
        {
          "indexed": true,
          "internalType": "address",
          "name": "sender",
          "type": "address"
        }
      ],
      "name": "RoleGranted",
      "type": "event"
    },
    {
      "anonymous": false,
      "inputs": [
        {
          "indexed": true,
          "internalType": "bytes32",
          "name": "role",
          "type": "bytes32"
        },
        {
          "indexed": true,
          "internalType": "address",
          "name": "account",
          "type": "address"
        },
        {
          "indexed": true,
          "internalType": "address",
          "name": "sender",
          "type": "address"
        }
      ],
      "name": "RoleRevoked",
      "type": "event"
    },
    {
      "anonymous": false,
      "inputs": [
        {
          "indexed": true,
          "internalType": "address",
          "name": "from",
          "type": "address"
        },
        {
          "indexed": true,
          "internalType": "address",
          "name": "to",
          "type": "address"
        },
        {
          "indexed": true,
          "internalType": "uint256",
          "name": "tokenId",
          "type": "uint256"
        }
      ],
      "name": "Transfer",
      "type": "event"
    },
    {
      "anonymous": false,
      "inputs": [
        {
          "indexed": false,
          "internalType": "address",
          "name": "account",
          "type": "address"
        }
      ],
      "name": "Unpaused",
      "type": "event"
    },
    {
      "inputs": [],
      "name": "DEFAULT_ADMIN_ROLE",
      "outputs": [
        {
          "internalType": "bytes32",
          "name": "",
          "type": "bytes32"
        }
      ],
      "stateMutability": "view",
      "type": "function"
    },
    {
      "inputs": [],
      "name": "MINTER_ROLE",
      "outputs": [
        {
          "internalType": "bytes32",
          "name": "",
          "type": "bytes32"
        }
      ],
      "stateMutability": "view",
      "type": "function"
    },
    {
      "inputs": [],
      "name": "PAUSER_ROLE",
      "outputs": [
        {
          "internalType": "bytes32",
          "name": "",
          "type": "bytes32"
        }
      ],
      "stateMutability": "view",
      "type": "function"
    },
    {
      "inputs": [
        {
          "internalType": "address",
          "name": "to",
          "type": "address"
        },
        {
          "internalType": "uint256",
          "name": "tokenId",
          "type": "uint256"
        }
      ],
      "name": "approve",
      "outputs": [],
      "stateMutability": "nonpayable",
      "type": "function"
    },
    {
      "inputs": [
        {
          "internalType": "address",
          "name": "owner",
          "type": "address"
        }
      ],
      "name": "balanceOf",
      "outputs": [
        {
          "internalType": "uint256",
          "name": "",
          "type": "uint256"
        }
      ],
      "stateMutability": "view",
      "type": "function"
    },
    {
      "inputs": [
        {
          "internalType": "uint256",
          "name": "tokenId",
          "type": "uint256"
        }
      ],
      "name": "burn",
      "outputs": [],
      "stateMutability": "nonpayable",
      "type": "function"
    },
    {
      "inputs": [],
      "name": "domainSeparatorV4",
      "outputs": [
        {
          "internalType": "bytes32",
          "name": "",
          "type": "bytes32"
        }
      ],
      "stateMutability": "view",
      "type": "function"
    },
    {
      "inputs": [],
      "name": "eip712Domain",
      "outputs": [
        {
          "internalType": "bytes1",
          "name": "fields",
          "type": "bytes1"
        },
        {
          "internalType": "string",
          "name": "name",
          "type": "string"
        },
        {
          "internalType": "string",
          "name": "version",
          "type": "string"
        },
        {
          "internalType": "uint256",
          "name": "chainId",
          "type": "uint256"
        },
        {
          "internalType": "address",
          "name": "verifyingContract",
          "type": "address"
        },
        {
          "internalType": "bytes32",
          "name": "salt",
          "type": "bytes32"
        },
        {
          "internalType": "uint256[]",
          "name": "extensions",
          "type": "uint256[]"
        }
      ],
      "stateMutability": "view",
      "type": "function"
    },
    {
      "inputs": [
        {
          "internalType": "uint256",
          "name": "tokenId",
          "type": "uint256"
        }
      ],
      "name": "getApproved",
      "outputs": [
        {
          "internalType": "address",
          "name": "",
          "type": "address"
        }
      ],
      "stateMutability": "view",
      "type": "function"
    },
    {
      "inputs": [
        {
          "internalType": "bytes32",
          "name": "role",
          "type": "bytes32"
        }
      ],
      "name": "getRoleAdmin",
      "outputs": [
        {
          "internalType": "bytes32",
          "name": "",
          "type": "bytes32"
        }
      ],
      "stateMutability": "view",
      "type": "function"
    },
    {
      "inputs": [
        {
          "internalType": "bytes32",
          "name": "role",
          "type": "bytes32"
        },
        {
          "internalType": "uint256",
          "name": "index",
          "type": "uint256"
        }
      ],
      "name": "getRoleMember",
      "outputs": [
        {
          "internalType": "address",
          "name": "",
          "type": "address"
        }
      ],
      "stateMutability": "view",
      "type": "function"
    },
    {
      "inputs": [
        {
          "internalType": "bytes32",
          "name": "role",
          "type": "bytes32"
        }
      ],
      "name": "getRoleMemberCount",
      "outputs": [
        {
          "internalType": "uint256",
          "name": "",
          "type": "uint256"
        }
      ],
      "stateMutability": "view",
      "type": "function"
    },
    {
      "inputs": [
        {
          "internalType": "bytes32",
          "name": "role",
          "type": "bytes32"
        },
        {
          "internalType": "address",
          "name": "account",
          "type": "address"
        }
      ],
      "name": "grantRole",
      "outputs": [],
      "stateMutability": "nonpayable",
      "type": "function"
    },
    {
      "inputs": [
        {
          "internalType": "bytes32",
          "name": "role",
          "type": "bytes32"
        },
        {
          "internalType": "address",
          "name": "account",
          "type": "address"
        }
      ],
      "name": "hasRole",
      "outputs": [
        {
          "internalType": "bool",
          "name": "",
          "type": "bool"
        }
      ],
      "stateMutability": "view",
      "type": "function"
    },
    {
      "inputs": [
        {
          "internalType": "contract Registry",
          "name": "_registry",
          "type": "address"
        },
        {
          "internalType": "string",
          "name": "name",
          "type": "string"
        },
        {
          "internalType": "string",
          "name": "symbol",
          "type": "string"
        },
        {
          "internalType": "string",
          "name": "baseTokenURI",
          "type": "string"
        }
      ],
      "name": "initialize",
      "outputs": [],
      "stateMutability": "nonpayable",
      "type": "function"
    },
    {
      "inputs": [
        {
          "internalType": "string",
          "name": "name",
          "type": "string"
        },
        {
          "internalType": "string",
          "name": "symbol",
          "type": "string"
        },
        {
          "internalType": "string",
          "name": "baseTokenURI",
          "type": "string"
        }
      ],
      "name": "initialize",
      "outputs": [],
      "stateMutability": "nonpayable",
      "type": "function"
    },
    {
      "inputs": [
        {
          "internalType": "address",
          "name": "owner",
          "type": "address"
        },
        {
          "internalType": "address",
          "name": "operator",
          "type": "address"
        }
      ],
      "name": "isApprovedForAll",
      "outputs": [
        {
          "internalType": "bool",
          "name": "",
          "type": "bool"
        }
      ],
      "stateMutability": "view",
      "type": "function"
    },
    {
      "inputs": [
        {
          "internalType": "address",
          "name": "sender",
          "type": "address"
        }
      ],
      "name": "isValidator",
      "outputs": [
        {
          "internalType": "bool",
          "name": "",
          "type": "bool"
        }
      ],
      "stateMutability": "view",
      "type": "function"
    },
    {
      "inputs": [
        {
          "internalType": "address",
          "name": "to",
          "type": "address"
        },
        {
          "internalType": "uint256",
          "name": "tokenId",
          "type": "uint256"
        }
      ],
      "name": "mint",
      "outputs": [],
      "stateMutability": "nonpayable",
      "type": "function"
    },
    {
      "inputs": [
        {
          "internalType": "address",
          "name": "to",
          "type": "address"
        }
      ],
      "name": "mint",
      "outputs": [],
      "stateMutability": "nonpayable",
      "type": "function"
    },
    {
      "inputs": [],
      "name": "name",
      "outputs": [
        {
          "internalType": "string",
          "name": "",
          "type": "string"
        }
      ],
      "stateMutability": "view",
      "type": "function"
    },
    {
      "inputs": [
        {
          "internalType": "uint256",
          "name": "tokenId",
          "type": "uint256"
        }
      ],
      "name": "nonce",
      "outputs": [
        {
          "internalType": "uint256",
          "name": "",
          "type": "uint256"
        }
      ],
      "stateMutability": "view",
      "type": "function"
    },
    {
      "inputs": [
        {
          "internalType": "uint256",
          "name": "tokenId",
          "type": "uint256"
        }
      ],
      "name": "ownerOf",
      "outputs": [
        {
          "internalType": "address",
          "name": "",
          "type": "address"
        }
      ],
      "stateMutability": "view",
      "type": "function"
    },
    {
      "inputs": [],
      "name": "pause",
      "outputs": [],
      "stateMutability": "nonpayable",
      "type": "function"
    },
    {
      "inputs": [],
      "name": "paused",
      "outputs": [
        {
          "internalType": "bool",
          "name": "",
          "type": "bool"
        }
      ],
      "stateMutability": "view",
      "type": "function"
    },
    {
      "inputs": [],
      "name": "registry",
      "outputs": [
        {
          "internalType": "contract Registry",
          "name": "",
          "type": "address"
        }
      ],
      "stateMutability": "view",
      "type": "function"
    },
    {
      "inputs": [
        {
          "internalType": "bytes32",
          "name": "role",
          "type": "bytes32"
        },
        {
          "internalType": "address",
          "name": "account",
          "type": "address"
        }
      ],
      "name": "renounceRole",
      "outputs": [],
      "stateMutability": "nonpayable",
      "type": "function"
    },
    {
      "inputs": [
        {
          "internalType": "bytes32",
          "name": "role",
          "type": "bytes32"
        },
        {
          "internalType": "address",
          "name": "account",
          "type": "address"
        }
      ],
      "name": "revokeRole",
      "outputs": [],
      "stateMutability": "nonpayable",
      "type": "function"
    },
    {
      "inputs": [
        {
          "internalType": "address",
          "name": "to",
          "type": "address"
        },
        {
          "internalType": "uint256",
          "name": "tokenId",
          "type": "uint256"
        }
      ],
      "name": "safeMint",
      "outputs": [],
      "stateMutability": "nonpayable",
      "type": "function"
    },
    {
      "inputs": [
        {
          "internalType": "address",
          "name": "creditor",
          "type": "address"
        },
        {
          "components": [
            {
              "internalType": "uint256[]",
              "name": "tokenIds",
              "type": "uint256[]"
            },
            {
              "internalType": "uint256[]",
              "name": "nonces",
              "type": "uint256[]"
            },
            {
              "internalType": "address",
              "name": "validator",
              "type": "address"
            },
            {
              "internalType": "bytes",
              "name": "validateSignature",
              "type": "bytes"
            }
          ],
          "internalType": "struct LoanAssetInfo",
          "name": "latInfo",
          "type": "tuple"
        }
      ],
      "name": "safeMint",
      "outputs": [],
      "stateMutability": "nonpayable",
      "type": "function"
    },
    {
      "inputs": [
        {
          "internalType": "address",
          "name": "from",
          "type": "address"
        },
        {
          "internalType": "address",
          "name": "to",
          "type": "address"
        },
        {
          "internalType": "uint256",
          "name": "tokenId",
          "type": "uint256"
        }
      ],
      "name": "safeTransferFrom",
      "outputs": [],
      "stateMutability": "nonpayable",
      "type": "function"
    },
    {
      "inputs": [
        {
          "internalType": "address",
          "name": "from",
          "type": "address"
        },
        {
          "internalType": "address",
          "name": "to",
          "type": "address"
        },
        {
          "internalType": "uint256",
          "name": "tokenId",
          "type": "uint256"
        },
        {
          "internalType": "bytes",
          "name": "data",
          "type": "bytes"
        }
      ],
      "name": "safeTransferFrom",
      "outputs": [],
      "stateMutability": "nonpayable",
      "type": "function"
    },
    {
      "inputs": [
        {
          "internalType": "address",
          "name": "operator",
          "type": "address"
        },
        {
          "internalType": "bool",
          "name": "approved",
          "type": "bool"
        }
      ],
      "name": "setApprovalForAll",
      "outputs": [],
      "stateMutability": "nonpayable",
      "type": "function"
    },
    {
      "inputs": [
        {
          "internalType": "string",
          "name": "baseTokenURI",
          "type": "string"
        }
      ],
      "name": "setBaseURI",
      "outputs": [],
      "stateMutability": "nonpayable",
      "type": "function"
    },
    {
      "inputs": [
        {
          "internalType": "bytes4",
          "name": "interfaceId",
          "type": "bytes4"
        }
      ],
      "name": "supportsInterface",
      "outputs": [
        {
          "internalType": "bool",
          "name": "",
          "type": "bool"
        }
      ],
      "stateMutability": "view",
      "type": "function"
    },
    {
      "inputs": [],
      "name": "symbol",
      "outputs": [
        {
          "internalType": "string",
          "name": "",
          "type": "string"
        }
      ],
      "stateMutability": "view",
      "type": "function"
    },
    {
      "inputs": [
        {
          "internalType": "uint256",
          "name": "index",
          "type": "uint256"
        }
      ],
      "name": "tokenByIndex",
      "outputs": [
        {
          "internalType": "uint256",
          "name": "",
          "type": "uint256"
        }
      ],
      "stateMutability": "view",
      "type": "function"
    },
    {
      "inputs": [
        {
          "internalType": "address",
          "name": "owner",
          "type": "address"
        },
        {
          "internalType": "uint256",
          "name": "index",
          "type": "uint256"
        }
      ],
      "name": "tokenOfOwnerByIndex",
      "outputs": [
        {
          "internalType": "uint256",
          "name": "",
          "type": "uint256"
        }
      ],
      "stateMutability": "view",
      "type": "function"
    },
    {
      "inputs": [
        {
          "internalType": "uint256",
          "name": "tokenId",
          "type": "uint256"
        }
      ],
      "name": "tokenURI",
      "outputs": [
        {
          "internalType": "string",
          "name": "",
          "type": "string"
        }
      ],
      "stateMutability": "view",
      "type": "function"
    },
    {
      "inputs": [],
      "name": "totalSupply",
      "outputs": [
        {
          "internalType": "uint256",
          "name": "",
          "type": "uint256"
        }
      ],
      "stateMutability": "view",
      "type": "function"
    },
    {
      "inputs": [
        {
          "internalType": "address",
          "name": "from",
          "type": "address"
        },
        {
          "internalType": "address",
          "name": "to",
          "type": "address"
        },
        {
          "internalType": "uint256",
          "name": "tokenId",
          "type": "uint256"
        }
      ],
      "name": "transferFrom",
      "outputs": [],
      "stateMutability": "nonpayable",
      "type": "function"
    },
    {
      "inputs": [],
      "name": "unpause",
      "outputs": [],
      "stateMutability": "nonpayable",
      "type": "function"
    }
  ],
  "transactionHash": "0x1f14445852a0bce31c7ec5d3bc696572b0b3a60713d4aadb85f49a72320c4579",
  "args": [],
  "numDeployments": 1,
  "solcInputHash": "4d6d44d4245a9cded6f107a77c147eb2",
  "bytecode": "0x608060405234801561001057600080fd5b50613ef7806100206000396000f3fe608060405234801561001057600080fd5b506004361061025e5760003560e01c806378e890ba11610146578063a6487c53116100c3578063d539139311610087578063d539139314610528578063d547741f1461053d578063e63ab1e914610550578063e985e9c514610565578063f0cb1d86146105a1578063facd743b146105b457600080fd5b8063a6487c53146104bb578063b88d4fde146104ce578063c87b56dd146104e1578063ca15c873146104f4578063ce03fdab1461050757600080fd5b806391d148541161010a57806391d148541461047257806395d89b4114610485578063a14481941461048d578063a217fddf146104a0578063a22cb465146104a857600080fd5b806378e890ba146104205780637b103999146104285780638456cb591461043c57806384b0196e146104445780639010d07c1461045f57600080fd5b80633f4ba83a116101df57806355f804b3116101a357806355f804b3146103b55780635c975abb146103c85780635f1e6f6d146103d45780636352211e146103e75780636a627842146103fa57806370a082311461040d57600080fd5b80633f4ba83a1461036157806340c10f191461036957806342842e0e1461037c57806342966c681461038f5780634f6ccce7146103a257600080fd5b806323b872dd1161022657806323b872dd146102f2578063248a9ca3146103055780632f2ff15d146103285780632f745c591461033b57806336568abe1461034e57600080fd5b806301ffc9a71461026357806306fdde031461028b578063081812fc146102a0578063095ea7b3146102cb57806318160ddd146102e0575b600080fd5b61027661027136600461336a565b6105c7565b60405190151581526020015b60405180910390f35b6102936105d8565b60405161028291906133d7565b6102b36102ae3660046133ea565b61066a565b6040516001600160a01b039091168152602001610282565b6102de6102d9366004613418565b610691565b005b60fd545b604051908152602001610282565b6102de610300366004613444565b6107ab565b6102e46103133660046133ea565b60009081526065602052604090206001015490565b6102de610336366004613485565b6107dd565b6102e4610349366004613418565b610802565b6102de61035c366004613485565b610898565b6102de610916565b6102de610377366004613418565b6109ac565b6102de61038a366004613444565b6109ce565b6102de61039d3660046133ea565b6109e9565b6102e46103b03660046133ea565b610a1a565b6102de6103c3366004613561565b610aad565b61015f5460ff16610276565b6102de6103e2366004613596565b610ac5565b6102b36103f53660046133ea565b610d80565b6102de610408366004613631565b610de0565b6102e461041b366004613631565b610e8c565b6102e4610f12565b6101f5546102b3906001600160a01b031681565b6102de610f21565b61044c610fb3565b604051610282979695949392919061364e565b6102b361046d3660046136e4565b611053565b610276610480366004613485565b611072565b61029361109d565b6102de61049b366004613418565b6110ac565b6102e4600081565b6102de6104b6366004613714565b6110ce565b6102de6104c9366004613742565b6110d9565b6102de6104dc3660046137ca565b6111a9565b6102936104ef3660046133ea565b6111db565b6102e46105023660046133ea565b61124b565b6102e46105153660046133ea565b600090815261028d602052604090205490565b6102e4600080516020613ea283398151915281565b6102de61054b366004613485565b611262565b6102e4600080516020613e8283398151915281565b61027661057336600461383e565b6001600160a01b03918216600090815260ce6020908152604080832093909416825291909152205460ff1690565b6102de6105af36600461386c565b611287565b6102766105c2366004613631565b611427565b60006105d282611453565b92915050565b606060c980546105e7906138b8565b80601f0160208091040260200160405190810160405280929190818152602001828054610613906138b8565b80156106605780601f1061063557610100808354040283529160200191610660565b820191906000526020600020905b81548152906001019060200180831161064357829003601f168201915b5050505050905090565b600061067582611478565b50600090815260cd60205260409020546001600160a01b031690565b600061069c82610d80565b9050806001600160a01b0316836001600160a01b03160361070e5760405162461bcd60e51b815260206004820152602160248201527f4552433732313a20617070726f76616c20746f2063757272656e74206f776e656044820152603960f91b60648201526084015b60405180910390fd5b336001600160a01b038216148061072a575061072a8133610573565b61079c5760405162461bcd60e51b815260206004820152603d60248201527f4552433732313a20617070726f76652063616c6c6572206973206e6f7420746f60448201527f6b656e206f776e6572206f7220617070726f76656420666f7220616c6c0000006064820152608401610705565b6107a683836114d7565b505050565b6107b6335b82611545565b6107d25760405162461bcd60e51b8152600401610705906138f2565b6107a68383836115c4565b6000828152606560205260409020600101546107f881611735565b6107a6838361173f565b600061080d83610e8c565b821061086f5760405162461bcd60e51b815260206004820152602b60248201527f455243373231456e756d657261626c653a206f776e657220696e646578206f7560448201526a74206f6620626f756e647360a81b6064820152608401610705565b506001600160a01b0391909116600090815260fb60209081526040808320938352929052205490565b6001600160a01b03811633146109085760405162461bcd60e51b815260206004820152602f60248201527f416363657373436f6e74726f6c3a2063616e206f6e6c792072656e6f756e636560448201526e103937b632b9903337b91039b2b63360891b6064820152608401610705565b6109128282611761565b5050565b61092e600080516020613e8283398151915233611072565b6109a2576040805162461bcd60e51b81526020600482015260248101919091527f4552433732315072657365744d696e7465725061757365724175746f49643a2060448201527f6d75737420686176652070617573657220726f6c6520746f20756e70617573656064820152608401610705565b6109aa611783565b565b600080516020613ea28339815191526109c481611735565b6107a683836117d6565b6107a6838383604051806020016040528060008152506111a9565b6109f2336107b0565b610a0e5760405162461bcd60e51b8152600401610705906138f2565b610a178161196f565b50565b6000610a2560fd5490565b8210610a885760405162461bcd60e51b815260206004820152602c60248201527f455243373231456e756d657261626c653a20676c6f62616c20696e646578206f60448201526b7574206f6620626f756e647360a01b6064820152608401610705565b60fd8281548110610a9b57610a9b61393f565b90600052602060002001549050919050565b6000610ab881611735565b6101f66107a6838261399b565b600054610100900460ff1615808015610ae55750600054600160ff909116105b80610aff5750303b158015610aff575060005460ff166001145b610b1b5760405162461bcd60e51b815260040161070590613a5b565b6000805460ff191660011790558015610b3e576000805461ff0019166101001790555b610b49848484611a12565b610b51611a44565b6101f580546001600160a01b0319166001600160a01b038716179055610b7d600033611acf565b611acf565b6101f554600090610b96906001600160a01b0316611ad9565b6001600160a01b031603610bfc5760405162461bcd60e51b815260206004820152602760248201527f53454355524954495a4154494f4e5f4d414e41474552206973207a65726f206160448201526632323932b9b99760c91b6064820152608401610705565b6101f554610c38907ffa3e63d5771fd4999b619dee634be9dbb03c309738cc2adaadd49c4f5595adb090610b78906001600160a01b0316611ad9565b610c827f21702c8af46127c7fa207f89d0b0a8441bb32959a0ac7df790e9ab1a25c989267ffa3e63d5771fd4999b619dee634be9dbb03c309738cc2adaadd49c4f5595adb0611ae6565b6101f554600090610c9b906001600160a01b0316611b31565b6001600160a01b031603610cf15760405162461bcd60e51b815260206004820152601c60248201527f4c4f414e5f4b45524e454c206973207a65726f20616464726573732e000000006044820152606401610705565b6101f554610d1b90600080516020613ea283398151915290610b78906001600160a01b0316611b31565b610d33600080516020613ea283398151915233611761565b8015610d79576000805461ff0019169055604051600181527f7f26b83ff96e1f2b6a682f133852f6798a09c465da95921460cefb38474024989060200160405180910390a15b5050505050565b600081815260cb60205260408120546001600160a01b0316806105d25760405162461bcd60e51b8152602060048201526018602482015277115490cdcc8c4e881a5b9d985b1a59081d1bdad95b88125160421b6044820152606401610705565b610df8600080516020613ea283398151915233611072565b610e6a5760405162461bcd60e51b815260206004820152603d60248201527f4552433732315072657365744d696e7465725061757365724175746f49643a2060448201527f6d7573742068617665206d696e74657220726f6c6520746f206d696e740000006064820152608401610705565b610e7d81610e786101c35490565b6117d6565b610a176101c380546001019055565b60006001600160a01b038216610ef65760405162461bcd60e51b815260206004820152602960248201527f4552433732313a2061646472657373207a65726f206973206e6f7420612076616044820152683634b21037bbb732b960b91b6064820152608401610705565b506001600160a01b0316600090815260cc602052604090205490565b6000610f1c611b3e565b905090565b610f39600080516020613e8283398151915233611072565b610fab5760405162461bcd60e51b815260206004820152603e60248201527f4552433732315072657365744d696e7465725061757365724175746f49643a2060448201527f6d75737420686176652070617573657220726f6c6520746f20706175736500006064820152608401610705565b6109aa611b48565b600060608060008060006060610259546000801b148015610fd5575061025a54155b6110195760405162461bcd60e51b81526020600482015260156024820152741152540dcc4c8e88155b9a5b9a5d1a585b1a5e9959605a1b6044820152606401610705565b611021611b86565b611029611b96565b60408051600080825260208201909252600f60f81b9b939a50919850469750309650945092509050565b600082815260976020526040812061106b9083611ba6565b9392505050565b60009182526065602090815260408084206001600160a01b0393909316845291905290205460ff1690565b606060ca80546105e7906138b8565b600080516020613ea28339815191526110c481611735565b6107a68383611bb2565b610912338383611bcc565b600054610100900460ff16158080156110f95750600054600160ff909116105b806111135750303b158015611113575060005460ff166001145b61112f5760405162461bcd60e51b815260040161070590613a5b565b6000805460ff191660011790558015611152576000805461ff0019166101001790555b61115d848484611c9a565b80156111a3576000805461ff0019169055604051600181527f7f26b83ff96e1f2b6a682f133852f6798a09c465da95921460cefb38474024989060200160405180910390a15b50505050565b6111b33383611545565b6111cf5760405162461bcd60e51b8152600401610705906138f2565b6111a384848484611cde565b60606111e682611478565b60006111f0611d11565b90506000815111611210576040518060200160405280600081525061106b565b8061121a84611d21565b61122346611d38565b60405160200161123593929190613aa9565b6040516020818303038152906040529392505050565b60008181526097602052604081206105d290611dcb565b60008281526065602052604090206001015461127d81611735565b6107a68383611761565b600080516020613ea283398151915261129f81611735565b8282816001600160a01b0316634020c8d16040518163ffffffff1660e01b8152600401602060405180830381865afa1580156112df573d6000803e3d6000fd5b505050506040513d601f19601f820116820180604052508101906113039190613b02565b156113d75761131181611dd5565b61131a81611fac565b6113785760405162461bcd60e51b815260206004820152602960248201527f4c415456616c696461746f723a20696e76616c69642076616c696461746f72206044820152687369676e617475726560b81b6064820152608401610705565b61138b6105c26060830160408401613631565b6113d75760405162461bcd60e51b815260206004820152601f60248201527f4c415456616c696461746f723a20696e76616c69642076616c696461746f72006044820152606401610705565b60005b6113e48580613b1f565b905081101561141f57611417866113fb8780613b1f565b8481811061140b5761140b61393f565b90506020020135611bb2565b6001016113da565b505050505050565b60006105d27f21702c8af46127c7fa207f89d0b0a8441bb32959a0ac7df790e9ab1a25c9892683611072565b60006001600160e01b0319821663780e9d6360e01b14806105d257506105d2826120f9565b600081815260cb60205260409020546001600160a01b0316610a175760405162461bcd60e51b8152602060048201526018602482015277115490cdcc8c4e881a5b9d985b1a59081d1bdad95b88125160421b6044820152606401610705565b600081815260cd6020526040902080546001600160a01b0319166001600160a01b038416908117909155819061150c82610d80565b6001600160a01b03167f8c5be1e5ebec7d5bd14f71427d1e84f3dd0314c0f7b2291e5b200ac8c7c3b92560405160405180910390a45050565b60008061155183610d80565b9050806001600160a01b0316846001600160a01b0316148061159857506001600160a01b03808216600090815260ce602090815260408083209388168352929052205460ff165b806115bc5750836001600160a01b03166115b18461066a565b6001600160a01b0316145b949350505050565b826001600160a01b03166115d782610d80565b6001600160a01b0316146115fd5760405162461bcd60e51b815260040161070590613b69565b6001600160a01b03821661165f5760405162461bcd60e51b8152602060048201526024808201527f4552433732313a207472616e7366657220746f20746865207a65726f206164646044820152637265737360e01b6064820152608401610705565b61166c8383836001612139565b826001600160a01b031661167f82610d80565b6001600160a01b0316146116a55760405162461bcd60e51b815260040161070590613b69565b600081815260cd6020908152604080832080546001600160a01b03199081169091556001600160a01b0387811680865260cc855283862080546000190190559087168086528386208054600101905586865260cb90945282852080549092168417909155905184937fddf252ad1be2c89b69c2b068fc378daa952ba7f163c4a11628f55a4df523b3ef91a4505050565b610a178133612145565b611749828261219e565b60008281526097602052604090206107a69082612224565b61176b8282612239565b60008281526097602052604090206107a690826122a0565b61178b6122b5565b61015f805460ff191690557f5db9ee0a495bf2e6ff9c91a7834c1ba4fdd244a5e8aa4e537bd38aeae4b073aa335b6040516001600160a01b03909116815260200160405180910390a1565b6001600160a01b03821661182c5760405162461bcd60e51b815260206004820181905260248201527f4552433732313a206d696e7420746f20746865207a65726f20616464726573736044820152606401610705565b600081815260cb60205260409020546001600160a01b0316156118915760405162461bcd60e51b815260206004820152601c60248201527f4552433732313a20746f6b656e20616c7265616479206d696e746564000000006044820152606401610705565b61189f600083836001612139565b600081815260cb60205260409020546001600160a01b0316156119045760405162461bcd60e51b815260206004820152601c60248201527f4552433732313a20746f6b656e20616c7265616479206d696e746564000000006044820152606401610705565b6001600160a01b038216600081815260cc602090815260408083208054600101905584835260cb90915280822080546001600160a01b0319168417905551839291907fddf252ad1be2c89b69c2b068fc378daa952ba7f163c4a11628f55a4df523b3ef908290a45050565b600061197a82610d80565b905061198a816000846001612139565b61199382610d80565b600083815260cd6020908152604080832080546001600160a01b03199081169091556001600160a01b03851680855260cc8452828520805460001901905587855260cb909352818420805490911690555192935084927fddf252ad1be2c89b69c2b068fc378daa952ba7f163c4a11628f55a4df523b3ef908390a45050565b600054610100900460ff16611a395760405162461bcd60e51b815260040161070590613bae565b6107a68383836122ff565b600054610100900460ff16611a6b5760405162461bcd60e51b815260040161070590613bae565b611ac76040518060400160405280601781526020017f556e74616e676c65644c6f616e4173736574546f6b656e00000000000000000081525060405180604001604052806005815260200164302e302e3160d81b81525061233f565b6109aa612392565b610912828261173f565b60006105d28260006123b9565b600082815260656020526040808220600101805490849055905190918391839186917fbd79b86ffe0ab8e8776151514217cd7cacd52c909f66475c3af44e129f0b00ff9190a4505050565b60006105d28260076123b9565b6000610f1c61243e565b611b506124b2565b61015f805460ff191660011790557f62e78cea01bee320cd4e420270b5ea74000d11b0c9f74754ebdbfc544b05a2586117b93390565b606061025b80546105e7906138b8565b606061025c80546105e7906138b8565b600061106b83836124f9565b610912828260405180602001604052806000815250612523565b816001600160a01b0316836001600160a01b031603611c2d5760405162461bcd60e51b815260206004820152601960248201527f4552433732313a20617070726f766520746f2063616c6c6572000000000000006044820152606401610705565b6001600160a01b03838116600081815260ce6020908152604080832094871680845294825291829020805460ff191686151590811790915591519182527f17307eab39ab6107e8899845ad3d59bd9653f200f220920489ca2b5937696c31910160405180910390a3505050565b600054610100900460ff16611cc15760405162461bcd60e51b815260040161070590613bae565b611ccb8383612556565b611cd3612596565b6107a68383836125ca565b611ce98484846115c4565b611cf58484848461263a565b6111a35760405162461bcd60e51b815260040161070590613bf9565b60606101f680546105e7906138b8565b60606105d282611d308461273b565b6001016127a5565b60606000611d4583612941565b600101905060008167ffffffffffffffff811115611d6557611d656134b5565b6040519080825280601f01601f191660200182016040528015611d8f576020820181803683370190505b5090508181016020015b600019016f181899199a1a9b1b9c1cb0b131b232b360811b600a86061a8153600a8504945084611d9957509392505050565b60006105d2825490565b60005b611de28280613b1f565b905081101561091257611df86020830183613b1f565b82818110611e0857611e0861393f565b6020029190910135905061028d6000611e218580613b1f565b85818110611e3157611e3161393f565b9050602002013581526020019081526020016000205414611e945760405162461bcd60e51b815260206004820152601b60248201527f4c415456616c696461746f723a20696e76616c6964206e6f6e636500000000006044820152606401610705565b61028d6000611ea38480613b1f565b84818110611eb357611eb361393f565b9050602002013581526020019081526020016000205460010161028d6000848060000190611ee19190613b1f565b85818110611ef157611ef161393f565b60209081029290920135835250810191909152604001600020557fb654334c51bba8d327a24d6f66ad0871ad4b777b6b9432176a0b95a358c1de5d611f368380613b1f565b83818110611f4657611f4661393f565b6020029190910135905061028d6000611f5f8680613b1f565b86818110611f6f57611f6f61393f565b90506020020135815260200190815260200160002054604051611f9c929190918252602082015260400190565b60405180910390a1600101611dd8565b6000806120917f24644e232f31121e461b536805a8b6f085e48f5bdc747891c42f909b887617e8611fdd8580613b1f565b604051602001611fee929190613c4b565b604051602081830303815290604052805190602001208580602001906120149190613b1f565b604051602001612025929190613c4b565b6040516020818303038152906040528051906020012086604001602081019061204e9190613631565b60408051602081019590955284019290925260608301526001600160a01b0316608082015260a00160405160208183030381529060405280519060200120612a19565b905061106b816120a46060860186613c74565b8080601f0160208091040260200160405190810160405280939291908181526020018383808284376000920191909152506120e9925050506060870160408801613631565b6001600160a01b03169190612a46565b60006001600160e01b031982166380ac58cd60e01b148061212a57506001600160e01b03198216635b5e139f60e01b145b806105d257506105d282612aa7565b6111a384848484612acc565b61214f8282611072565b6109125761215c81612b40565b612167836020612b52565b604051602001612178929190613cbb565b60408051601f198184030181529082905262461bcd60e51b8252610705916004016133d7565b6121a88282611072565b6109125760008281526065602090815260408083206001600160a01b03851684529091529020805460ff191660011790556121e03390565b6001600160a01b0316816001600160a01b0316837f2f8788117e7eff1d82e926ec794901d17c78024a50270940304540a733656f0d60405160405180910390a45050565b600061106b836001600160a01b038416612c9f565b6122438282611072565b156109125760008281526065602090815260408083206001600160a01b0385168085529252808320805460ff1916905551339285917ff6391f5c32d9c69d2a47ea670b442974b53935d1edc7fd64eb21e047a839171b9190a45050565b600061106b836001600160a01b038416612cee565b61015f5460ff166109aa5760405162461bcd60e51b815260206004820152601460248201527314185d5cd8589b194e881b9bdd081c185d5cd95960621b6044820152606401610705565b600054610100900460ff166123265760405162461bcd60e51b815260040161070590613bae565b6101f6612333828261399b565b506107a68383836125ca565b600054610100900460ff166123665760405162461bcd60e51b815260040161070590613bae565b61025b612373838261399b565b5061025c612381828261399b565b5050600061025981905561025a5550565b600054610100900460ff166109aa5760405162461bcd60e51b815260040161070590613bae565b6000826001600160a01b031663bcaa0c5583600a8111156123dc576123dc613d30565b6040516001600160e01b031960e084901b16815260ff9091166004820152602401602060405180830381865afa15801561241a573d6000803e3d6000fd5b505050506040513d601f19601f8201168201806040525081019061106b9190613d46565b60007f8b73c3c69bb8fe3d512ecc4cf759cc79239f7b179b0ffacaa9a75d522b39400f612469612de1565b612471612e3b565b60408051602081019490945283019190915260608201524660808201523060a082015260c00160405160208183030381529060405280519060200120905090565b61015f5460ff16156109aa5760405162461bcd60e51b815260206004820152601060248201526f14185d5cd8589b194e881c185d5cd95960821b6044820152606401610705565b60008260000182815481106125105761251061393f565b9060005260206000200154905092915050565b61252d83836117d6565b61253a600084848461263a565b6107a65760405162461bcd60e51b815260040161070590613bf9565b600054610100900460ff1661257d5760405162461bcd60e51b815260040161070590613bae565b60c9612589838261399b565b5060ca6107a6828261399b565b600054610100900460ff166125bd5760405162461bcd60e51b815260040161070590613bae565b61015f805460ff19169055565b600054610100900460ff166125f15760405162461bcd60e51b815260040161070590613bae565b6101c46125fe828261399b565b5061260a600033611acf565b612622600080516020613ea283398151915233611acf565b6107a6600080516020613e8283398151915233611acf565b60006001600160a01b0384163b1561273057604051630a85bd0160e11b81526001600160a01b0385169063150b7a029061267e903390899088908890600401613d63565b6020604051808303816000875af19250505080156126b9575060408051601f3d908101601f191682019092526126b691810190613d96565b60015b612716573d8080156126e7576040519150601f19603f3d011682016040523d82523d6000602084013e6126ec565b606091505b50805160000361270e5760405162461bcd60e51b815260040161070590613bf9565b805181602001fd5b6001600160e01b031916630a85bd0160e11b1490506115bc565b506001949350505050565b600080608083901c156127535760809290921c916010015b604083901c156127685760409290921c916008015b602083901c1561277d5760209290921c916004015b601083901c156127925760109290921c916002015b600883901c156105d25760010192915050565b606060006127b4836002613dc9565b6127bf906002613de0565b67ffffffffffffffff8111156127d7576127d76134b5565b6040519080825280601f01601f191660200182016040528015612801576020820181803683370190505b509050600360fc1b8160008151811061281c5761281c61393f565b60200101906001600160f81b031916908160001a905350600f60fb1b8160018151811061284b5761284b61393f565b60200101906001600160f81b031916908160001a905350600061286f846002613dc9565b61287a906001613de0565b90505b60018111156128f2576f181899199a1a9b1b9c1cb0b131b232b360811b85600f16601081106128ae576128ae61393f565b1a60f81b8282815181106128c4576128c461393f565b60200101906001600160f81b031916908160001a90535060049490941c936128eb81613df3565b905061287d565b50831561106b5760405162461bcd60e51b815260206004820181905260248201527f537472696e67733a20686578206c656e67746820696e73756666696369656e746044820152606401610705565b60008072184f03e93ff9f4daa797ed6e38ed64bf6a1f0160401b83106129805772184f03e93ff9f4daa797ed6e38ed64bf6a1f0160401b830492506040015b6d04ee2d6d415b85acef810000000083106129ac576d04ee2d6d415b85acef8100000000830492506020015b662386f26fc1000083106129ca57662386f26fc10000830492506010015b6305f5e10083106129e2576305f5e100830492506008015b61271083106129f657612710830492506004015b60648310612a08576064830492506002015b600a83106105d25760010192915050565b60006105d2612a26611b3e565b8360405161190160f01b8152600281019290925260228201526042902090565b6000806000612a558585612e6d565b90925090506000816004811115612a6e57612a6e613d30565b148015612a8c5750856001600160a01b0316826001600160a01b0316145b80612a9d5750612a9d868686612eb2565b9695505050505050565b60006001600160e01b03198216635a05180f60e01b14806105d257506105d282612f9e565b612ad884848484612fd3565b61015f5460ff16156111a35760405162461bcd60e51b815260206004820152602b60248201527f4552433732315061757361626c653a20746f6b656e207472616e73666572207760448201526a1a1a5b19481c185d5cd95960aa1b6064820152608401610705565b60606105d26001600160a01b03831660145b60606000612b61836002613dc9565b612b6c906002613de0565b67ffffffffffffffff811115612b8457612b846134b5565b6040519080825280601f01601f191660200182016040528015612bae576020820181803683370190505b509050600360fc1b81600081518110612bc957612bc961393f565b60200101906001600160f81b031916908160001a905350600f60fb1b81600181518110612bf857612bf861393f565b60200101906001600160f81b031916908160001a9053506000612c1c846002613dc9565b612c27906001613de0565b90505b60018111156128f2576f181899199a1a9b1b9c1cb0b131b232b360811b85600f1660108110612c5b57612c5b61393f565b1a60f81b828281518110612c7157612c7161393f565b60200101906001600160f81b031916908160001a90535060049490941c93612c9881613df3565b9050612c2a565b6000818152600183016020526040812054612ce6575081546001818101845560008481526020808220909301849055845484825282860190935260409020919091556105d2565b5060006105d2565b60008181526001830160205260408120548015612dd7576000612d12600183613e0a565b8554909150600090612d2690600190613e0a565b9050818114612d8b576000866000018281548110612d4657612d4661393f565b9060005260206000200154905080876000018481548110612d6957612d6961393f565b6000918252602080832090910192909255918252600188019052604090208390555b8554869080612d9c57612d9c613e1d565b6001900381819060005260206000200160009055905585600101600086815260200190815260200160002060009055600193505050506105d2565b60009150506105d2565b600080612dec611b86565b805190915015612e03578051602090910120919050565b610259548015612e135792915050565b7fc5d2460186f7233c927e7db2dcc703c0e500b653ca82273b7bfad8045d85a4709250505090565b600080612e46611b96565b805190915015612e5d578051602090910120919050565b61025a548015612e135792915050565b6000808251604103612ea35760208301516040840151606085015160001a612e9787828585613100565b94509450505050612eab565b506000905060025b9250929050565b6000806000856001600160a01b0316631626ba7e60e01b8686604051602401612edc929190613e33565b60408051601f198184030181529181526020820180516001600160e01b03166001600160e01b0319909416939093179092529051612f1a9190613e4c565b600060405180830381855afa9150503d8060008114612f55576040519150601f19603f3d011682016040523d82523d6000602084013e612f5a565b606091505b5091509150818015612f6e57506020815110155b8015612a9d57508051630b135d3f60e11b90612f939083016020908101908401613e68565b149695505050505050565b60006001600160e01b03198216637965db0b60e01b14806105d257506301ffc9a760e01b6001600160e01b03198316146105d2565b60018111156130425760405162461bcd60e51b815260206004820152603560248201527f455243373231456e756d657261626c653a20636f6e7365637574697665207472604482015274185b9cd9995c9cc81b9bdd081cdd5c1c1bdc9d1959605a1b6064820152608401610705565b816001600160a01b03851661309e576130998160fd8054600083815260fe60205260408120829055600182018355919091527f9346ac6dd7de6b96975fec380d4d994c4c12e6a8897544f22915316cc6cca2800155565b6130c1565b836001600160a01b0316856001600160a01b0316146130c1576130c185826131c4565b6001600160a01b0384166130dd576130d881613261565b610d79565b846001600160a01b0316846001600160a01b031614610d7957610d798482613310565b6000807f7fffffffffffffffffffffffffffffff5d576e7357a4501ddfe92f46681b20a083111561313757506000905060036131bb565b6040805160008082526020820180845289905260ff881692820192909252606081018690526080810185905260019060a0016020604051602081039080840390855afa15801561318b573d6000803e3d6000fd5b5050604051601f1901519150506001600160a01b0381166131b4576000600192509250506131bb565b9150600090505b94509492505050565b600060016131d184610e8c565b6131db9190613e0a565b600083815260fc602052604090205490915080821461322e576001600160a01b038416600090815260fb60209081526040808320858452825280832054848452818420819055835260fc90915290208190555b50600091825260fc602090815260408084208490556001600160a01b03909416835260fb81528383209183525290812055565b60fd5460009061327390600190613e0a565b600083815260fe602052604081205460fd805493945090928490811061329b5761329b61393f565b906000526020600020015490508060fd83815481106132bc576132bc61393f565b600091825260208083209091019290925582815260fe909152604080822084905585825281205560fd8054806132f4576132f4613e1d565b6001900381819060005260206000200160009055905550505050565b600061331b83610e8c565b6001600160a01b03909316600090815260fb60209081526040808320868452825280832085905593825260fc9052919091209190915550565b6001600160e01b031981168114610a1757600080fd5b60006020828403121561337c57600080fd5b813561106b81613354565b60005b838110156133a257818101518382015260200161338a565b50506000910152565b600081518084526133c3816020860160208601613387565b601f01601f19169290920160200192915050565b60208152600061106b60208301846133ab565b6000602082840312156133fc57600080fd5b5035919050565b6001600160a01b0381168114610a1757600080fd5b6000806040838503121561342b57600080fd5b823561343681613403565b946020939093013593505050565b60008060006060848603121561345957600080fd5b833561346481613403565b9250602084013561347481613403565b929592945050506040919091013590565b6000806040838503121561349857600080fd5b8235915060208301356134aa81613403565b809150509250929050565b634e487b7160e01b600052604160045260246000fd5b600067ffffffffffffffff808411156134e6576134e66134b5565b604051601f8501601f19908116603f0116810190828211818310171561350e5761350e6134b5565b8160405280935085815286868601111561352757600080fd5b858560208301376000602087830101525050509392505050565b600082601f83011261355257600080fd5b61106b838335602085016134cb565b60006020828403121561357357600080fd5b813567ffffffffffffffff81111561358a57600080fd5b6115bc84828501613541565b600080600080608085870312156135ac57600080fd5b84356135b781613403565b9350602085013567ffffffffffffffff808211156135d457600080fd5b6135e088838901613541565b945060408701359150808211156135f657600080fd5b61360288838901613541565b9350606087013591508082111561361857600080fd5b5061362587828801613541565b91505092959194509250565b60006020828403121561364357600080fd5b813561106b81613403565b60ff60f81b881681526000602060e08184015261366e60e084018a6133ab565b8381036040850152613680818a6133ab565b606085018990526001600160a01b038816608086015260a0850187905284810360c0860152855180825283870192509083019060005b818110156136d2578351835292840192918401916001016136b6565b50909c9b505050505050505050505050565b600080604083850312156136f757600080fd5b50508035926020909101359150565b8015158114610a1757600080fd5b6000806040838503121561372757600080fd5b823561373281613403565b915060208301356134aa81613706565b60008060006060848603121561375757600080fd5b833567ffffffffffffffff8082111561376f57600080fd5b61377b87838801613541565b9450602086013591508082111561379157600080fd5b61379d87838801613541565b935060408601359150808211156137b357600080fd5b506137c086828701613541565b9150509250925092565b600080600080608085870312156137e057600080fd5b84356137eb81613403565b935060208501356137fb81613403565b925060408501359150606085013567ffffffffffffffff81111561381e57600080fd5b8501601f8101871361382f57600080fd5b613625878235602084016134cb565b6000806040838503121561385157600080fd5b823561385c81613403565b915060208301356134aa81613403565b6000806040838503121561387f57600080fd5b823561388a81613403565b9150602083013567ffffffffffffffff8111156138a657600080fd5b8301608081860312156134aa57600080fd5b600181811c908216806138cc57607f821691505b6020821081036138ec57634e487b7160e01b600052602260045260246000fd5b50919050565b6020808252602d908201527f4552433732313a2063616c6c6572206973206e6f7420746f6b656e206f776e6560408201526c1c881bdc88185c1c1c9bdd9959609a1b606082015260800190565b634e487b7160e01b600052603260045260246000fd5b601f8211156107a657600081815260208120601f850160051c8101602086101561397c5750805b601f850160051c820191505b8181101561141f57828155600101613988565b815167ffffffffffffffff8111156139b5576139b56134b5565b6139c9816139c384546138b8565b84613955565b602080601f8311600181146139fe57600084156139e65750858301515b600019600386901b1c1916600185901b17855561141f565b600085815260208120601f198616915b82811015613a2d57888601518255948401946001909101908401613a0e565b5085821015613a4b5787850151600019600388901b60f8161c191681555b5050505050600190811b01905550565b6020808252602e908201527f496e697469616c697a61626c653a20636f6e747261637420697320616c72656160408201526d191e481a5b9a5d1a585b1a5e995960921b606082015260800190565b60008451613abb818460208901613387565b845190830190613acf818360208901613387565b693f636861696e5f69643d60b01b91019081528351613af581600a840160208801613387565b01600a0195945050505050565b600060208284031215613b1457600080fd5b815161106b81613706565b6000808335601e19843603018112613b3657600080fd5b83018035915067ffffffffffffffff821115613b5157600080fd5b6020019150600581901b3603821315612eab57600080fd5b60208082526025908201527f4552433732313a207472616e736665722066726f6d20696e636f72726563742060408201526437bbb732b960d91b606082015260800190565b6020808252602b908201527f496e697469616c697a61626c653a20636f6e7472616374206973206e6f74206960408201526a6e697469616c697a696e6760a81b606082015260800190565b60208082526032908201527f4552433732313a207472616e7366657220746f206e6f6e20455243373231526560408201527131b2b4bb32b91034b6b83632b6b2b73a32b960711b606082015260800190565b60006001600160fb1b03831115613c6157600080fd5b8260051b80858437919091019392505050565b6000808335601e19843603018112613c8b57600080fd5b83018035915067ffffffffffffffff821115613ca657600080fd5b602001915036819003821315612eab57600080fd5b7f416363657373436f6e74726f6c3a206163636f756e7420000000000000000000815260008351613cf3816017850160208801613387565b7001034b99036b4b9b9b4b733903937b6329607d1b6017918401918201528351613d24816028840160208801613387565b01602801949350505050565b634e487b7160e01b600052602160045260246000fd5b600060208284031215613d5857600080fd5b815161106b81613403565b6001600160a01b0385811682528416602082015260408101839052608060608201819052600090612a9d908301846133ab565b600060208284031215613da857600080fd5b815161106b81613354565b634e487b7160e01b600052601160045260246000fd5b80820281158282048414176105d2576105d2613db3565b808201808211156105d2576105d2613db3565b600081613e0257613e02613db3565b506000190190565b818103818111156105d2576105d2613db3565b634e487b7160e01b600052603160045260246000fd5b8281526040602082015260006115bc60408301846133ab565b60008251613e5e818460208701613387565b9190910192915050565b600060208284031215613e7a57600080fd5b505191905056fe65d7a28e3265b37a6474929f336521b332c1681b933f6cb9f3376673440d862a9f2df0fed2c77648de5860a4cc508cd0818c85b8b8a1ab4ceeef8d981c8956a6a26469706673582212202896b6237ef0e4abe34f49618f5847026103c2b5e87deda37340e23dbe18de4b64736f6c63430008130033",
  "devdoc": {
    "events": {
      "Approval(address,address,uint256)": {
        "details": "Emitted when `owner` enables `approved` to manage the `tokenId` token."
      },
      "ApprovalForAll(address,address,bool)": {
        "details": "Emitted when `owner` enables or disables (`approved`) `operator` to manage all of its assets."
      },
      "EIP712DomainChanged()": {
        "details": "MAY be emitted to signal that the domain could have changed."
      },
      "Initialized(uint8)": {
        "details": "Triggered when the contract has been initialized or reinitialized."
      },
      "Paused(address)": {
        "details": "Emitted when the pause is triggered by `account`."
      },
      "RoleAdminChanged(bytes32,bytes32,bytes32)": {
        "details": "Emitted when `newAdminRole` is set as ``role``'s admin role, replacing `previousAdminRole` `DEFAULT_ADMIN_ROLE` is the starting admin for all roles, despite {RoleAdminChanged} not being emitted signaling this. _Available since v3.1._"
      },
      "RoleGranted(bytes32,address,address)": {
        "details": "Emitted when `account` is granted `role`. `sender` is the account that originated the contract call, an admin role bearer except when using {AccessControl-_setupRole}."
      },
      "RoleRevoked(bytes32,address,address)": {
        "details": "Emitted when `account` is revoked `role`. `sender` is the account that originated the contract call:   - if using `revokeRole`, it is the admin role bearer   - if using `renounceRole`, it is the role bearer (i.e. `account`)"
      },
      "Transfer(address,address,uint256)": {
        "details": "Emitted when `tokenId` token is transferred from `from` to `to`."
      },
      "Unpaused(address)": {
        "details": "Emitted when the pause is lifted by `account`."
      }
    },
    "kind": "dev",
    "methods": {
      "approve(address,uint256)": {
        "details": "See {IERC721-approve}."
      },
      "balanceOf(address)": {
        "details": "See {IERC721-balanceOf}."
      },
      "burn(uint256)": {
        "details": "Burns `tokenId`. See {ERC721-_burn}. Requirements: - The caller must own `tokenId` or be an approved operator."
      },
      "eip712Domain()": {
        "details": "See {EIP-5267}. _Available since v4.9._"
      },
      "getApproved(uint256)": {
        "details": "See {IERC721-getApproved}."
      },
      "getRoleAdmin(bytes32)": {
        "details": "Returns the admin role that controls `role`. See {grantRole} and {revokeRole}. To change a role's admin, use {_setRoleAdmin}."
      },
      "getRoleMember(bytes32,uint256)": {
        "details": "Returns one of the accounts that have `role`. `index` must be a value between 0 and {getRoleMemberCount}, non-inclusive. Role bearers are not sorted in any particular way, and their ordering may change at any point. WARNING: When using {getRoleMember} and {getRoleMemberCount}, make sure you perform all queries on the same block. See the following https://forum.openzeppelin.com/t/iterating-over-elements-on-enumerableset-in-openzeppelin-contracts/2296[forum post] for more information."
      },
      "getRoleMemberCount(bytes32)": {
        "details": "Returns the number of accounts that have `role`. Can be used together with {getRoleMember} to enumerate all bearers of a role."
      },
      "grantRole(bytes32,address)": {
        "details": "Grants `role` to `account`. If `account` had not been already granted `role`, emits a {RoleGranted} event. Requirements: - the caller must have ``role``'s admin role. May emit a {RoleGranted} event."
      },
      "hasRole(bytes32,address)": {
        "details": "Returns `true` if `account` has been granted `role`."
      },
      "isApprovedForAll(address,address)": {
        "details": "See {IERC721-isApprovedForAll}."
      },
      "mint(address)": {
        "details": "Creates a new token for `to`. Its token ID will be automatically assigned (and available on the emitted {IERC721-Transfer} event), and the token URI autogenerated based on the base URI passed at construction. See {ERC721-_mint}. Requirements: - the caller must have the `MINTER_ROLE`."
      },
      "name()": {
        "details": "See {IERC721Metadata-name}."
      },
      "nonce(uint256)": {
        "params": {
          "tokenId": "The id of the NFT"
        },
        "returns": {
          "_0": "The nonce of the NFT"
        }
      },
      "ownerOf(uint256)": {
        "details": "See {IERC721-ownerOf}."
      },
      "pause()": {
        "details": "Pauses all token transfers. See {ERC721Pausable} and {Pausable-_pause}. Requirements: - the caller must have the `PAUSER_ROLE`."
      },
      "paused()": {
        "details": "Returns true if the contract is paused, and false otherwise."
      },
      "renounceRole(bytes32,address)": {
        "details": "Revokes `role` from the calling account. Roles are often managed via {grantRole} and {revokeRole}: this function's purpose is to provide a mechanism for accounts to lose their privileges if they are compromised (such as when a trusted device is misplaced). If the calling account had been revoked `role`, emits a {RoleRevoked} event. Requirements: - the caller must be `account`. May emit a {RoleRevoked} event."
      },
      "revokeRole(bytes32,address)": {
        "details": "Revokes `role` from `account`. If `account` had been granted `role`, emits a {RoleRevoked} event. Requirements: - the caller must have ``role``'s admin role. May emit a {RoleRevoked} event."
      },
      "safeTransferFrom(address,address,uint256)": {
        "details": "See {IERC721-safeTransferFrom}."
      },
      "safeTransferFrom(address,address,uint256,bytes)": {
        "details": "See {IERC721-safeTransferFrom}."
      },
      "setApprovalForAll(address,bool)": {
        "details": "See {IERC721-setApprovalForAll}."
      },
      "supportsInterface(bytes4)": {
        "details": "See {IERC165-supportsInterface}."
      },
      "symbol()": {
        "details": "See {IERC721Metadata-symbol}."
      },
      "tokenByIndex(uint256)": {
        "details": "See {IERC721Enumerable-tokenByIndex}."
      },
      "tokenOfOwnerByIndex(address,uint256)": {
        "details": "See {IERC721Enumerable-tokenOfOwnerByIndex}."
      },
      "tokenURI(uint256)": {
        "details": "See {IERC721Metadata-tokenURI}."
      },
      "totalSupply()": {
        "details": "See {IERC721Enumerable-totalSupply}."
      },
      "transferFrom(address,address,uint256)": {
        "details": "See {IERC721-transferFrom}."
      },
      "unpause()": {
        "details": "Unpauses all token transfers. See {ERC721Pausable} and {Pausable-_unpause}. Requirements: - the caller must have the `PAUSER_ROLE`."
      }
    },
    "version": 1
  },
  "userdoc": {
    "events": {
      "NonceChanged(uint256,uint256)": {
        "notice": "Emitted when the `nonce` of an NFT is changed"
      }
    },
    "kind": "user",
    "methods": {
      "initialize(address,string,string,string)": {
        "notice": "CONSTRUCTOR "
      },
      "nonce(uint256)": {
        "notice": "Get the nonce of an NFT Throws if `tokenId` is not a valid NFT"
      }
    },
    "notice": "LoanAssetToken: The representative for ownership of a Loan",
    "version": 1
  },
  "storageLayout": {
    "storage": [
      {
        "astId": 765,
        "contract": "contracts/tokens/ERC721/LoanAssetToken.sol:LoanAssetToken",
        "label": "_initialized",
        "offset": 0,
        "slot": "0",
        "type": "t_uint8"
      },
      {
        "astId": 768,
        "contract": "contracts/tokens/ERC721/LoanAssetToken.sol:LoanAssetToken",
        "label": "_initializing",
        "offset": 1,
        "slot": "0",
        "type": "t_bool"
      },
      {
        "astId": 4282,
        "contract": "contracts/tokens/ERC721/LoanAssetToken.sol:LoanAssetToken",
        "label": "__gap",
        "offset": 0,
        "slot": "1",
        "type": "t_array(t_uint256)50_storage"
      },
      {
        "astId": 5572,
        "contract": "contracts/tokens/ERC721/LoanAssetToken.sol:LoanAssetToken",
        "label": "__gap",
        "offset": 0,
        "slot": "51",
        "type": "t_array(t_uint256)50_storage"
      },
      {
        "astId": 184,
        "contract": "contracts/tokens/ERC721/LoanAssetToken.sol:LoanAssetToken",
        "label": "_roles",
        "offset": 0,
        "slot": "101",
        "type": "t_mapping(t_bytes32,t_struct(RoleData)179_storage)"
      },
      {
        "astId": 479,
        "contract": "contracts/tokens/ERC721/LoanAssetToken.sol:LoanAssetToken",
        "label": "__gap",
        "offset": 0,
        "slot": "102",
        "type": "t_array(t_uint256)49_storage"
      },
      {
        "astId": 33,
        "contract": "contracts/tokens/ERC721/LoanAssetToken.sol:LoanAssetToken",
        "label": "_roleMembers",
        "offset": 0,
        "slot": "151",
        "type": "t_mapping(t_bytes32,t_struct(AddressSet)6882_storage)"
      },
      {
        "astId": 143,
        "contract": "contracts/tokens/ERC721/LoanAssetToken.sol:LoanAssetToken",
        "label": "__gap",
        "offset": 0,
        "slot": "152",
        "type": "t_array(t_uint256)49_storage"
      },
      {
        "astId": 2068,
        "contract": "contracts/tokens/ERC721/LoanAssetToken.sol:LoanAssetToken",
        "label": "_name",
        "offset": 0,
        "slot": "201",
        "type": "t_string_storage"
      },
      {
        "astId": 2070,
        "contract": "contracts/tokens/ERC721/LoanAssetToken.sol:LoanAssetToken",
        "label": "_symbol",
        "offset": 0,
        "slot": "202",
        "type": "t_string_storage"
      },
      {
        "astId": 2074,
        "contract": "contracts/tokens/ERC721/LoanAssetToken.sol:LoanAssetToken",
        "label": "_owners",
        "offset": 0,
        "slot": "203",
        "type": "t_mapping(t_uint256,t_address)"
      },
      {
        "astId": 2078,
        "contract": "contracts/tokens/ERC721/LoanAssetToken.sol:LoanAssetToken",
        "label": "_balances",
        "offset": 0,
        "slot": "204",
        "type": "t_mapping(t_address,t_uint256)"
      },
      {
        "astId": 2082,
        "contract": "contracts/tokens/ERC721/LoanAssetToken.sol:LoanAssetToken",
        "label": "_tokenApprovals",
        "offset": 0,
        "slot": "205",
        "type": "t_mapping(t_uint256,t_address)"
      },
      {
        "astId": 2088,
        "contract": "contracts/tokens/ERC721/LoanAssetToken.sol:LoanAssetToken",
        "label": "_operatorApprovals",
        "offset": 0,
        "slot": "206",
        "type": "t_mapping(t_address,t_mapping(t_address,t_bool))"
      },
      {
        "astId": 2990,
        "contract": "contracts/tokens/ERC721/LoanAssetToken.sol:LoanAssetToken",
        "label": "__gap",
        "offset": 0,
        "slot": "207",
        "type": "t_array(t_uint256)44_storage"
      },
      {
        "astId": 3205,
        "contract": "contracts/tokens/ERC721/LoanAssetToken.sol:LoanAssetToken",
        "label": "_ownedTokens",
        "offset": 0,
        "slot": "251",
        "type": "t_mapping(t_address,t_mapping(t_uint256,t_uint256))"
      },
      {
        "astId": 3209,
        "contract": "contracts/tokens/ERC721/LoanAssetToken.sol:LoanAssetToken",
        "label": "_ownedTokensIndex",
        "offset": 0,
        "slot": "252",
        "type": "t_mapping(t_uint256,t_uint256)"
      },
      {
        "astId": 3212,
        "contract": "contracts/tokens/ERC721/LoanAssetToken.sol:LoanAssetToken",
        "label": "_allTokens",
        "offset": 0,
        "slot": "253",
        "type": "t_array(t_uint256)dyn_storage"
      },
      {
        "astId": 3216,
        "contract": "contracts/tokens/ERC721/LoanAssetToken.sol:LoanAssetToken",
        "label": "_allTokensIndex",
        "offset": 0,
        "slot": "254",
        "type": "t_mapping(t_uint256,t_uint256)"
      },
      {
        "astId": 3548,
        "contract": "contracts/tokens/ERC721/LoanAssetToken.sol:LoanAssetToken",
        "label": "__gap",
        "offset": 0,
        "slot": "255",
        "type": "t_array(t_uint256)46_storage"
      },
      {
        "astId": 3174,
        "contract": "contracts/tokens/ERC721/LoanAssetToken.sol:LoanAssetToken",
        "label": "__gap",
        "offset": 0,
        "slot": "301",
        "type": "t_array(t_uint256)50_storage"
      },
      {
        "astId": 948,
        "contract": "contracts/tokens/ERC721/LoanAssetToken.sol:LoanAssetToken",
        "label": "_paused",
        "offset": 0,
        "slot": "351",
        "type": "t_bool"
      },
      {
        "astId": 1053,
        "contract": "contracts/tokens/ERC721/LoanAssetToken.sol:LoanAssetToken",
        "label": "__gap",
        "offset": 0,
        "slot": "352",
        "type": "t_array(t_uint256)49_storage"
      },
      {
        "astId": 3611,
        "contract": "contracts/tokens/ERC721/LoanAssetToken.sol:LoanAssetToken",
        "label": "__gap",
        "offset": 0,
        "slot": "401",
        "type": "t_array(t_uint256)50_storage"
      },
      {
        "astId": 3728,
        "contract": "contracts/tokens/ERC721/LoanAssetToken.sol:LoanAssetToken",
        "label": "_tokenIdTracker",
        "offset": 0,
        "slot": "451",
        "type": "t_struct(Counter)4289_storage"
      },
      {
        "astId": 3730,
        "contract": "contracts/tokens/ERC721/LoanAssetToken.sol:LoanAssetToken",
        "label": "_baseTokenURI",
        "offset": 0,
        "slot": "452",
        "type": "t_string_storage"
      },
      {
        "astId": 3910,
        "contract": "contracts/tokens/ERC721/LoanAssetToken.sol:LoanAssetToken",
        "label": "__gap",
        "offset": 0,
        "slot": "453",
        "type": "t_array(t_uint256)48_storage"
      },
      {
        "astId": 31646,
        "contract": "contracts/tokens/ERC721/LoanAssetToken.sol:LoanAssetToken",
        "label": "registry",
        "offset": 0,
        "slot": "501",
        "type": "t_contract(Registry)31553"
      },
      {
        "astId": 31648,
        "contract": "contracts/tokens/ERC721/LoanAssetToken.sol:LoanAssetToken",
        "label": "_baseTokenURI",
        "offset": 0,
        "slot": "502",
        "type": "t_string_storage"
      },
      {
        "astId": 31791,
        "contract": "contracts/tokens/ERC721/LoanAssetToken.sol:LoanAssetToken",
        "label": "__gap",
        "offset": 0,
        "slot": "503",
        "type": "t_array(t_uint256)48_storage"
      },
      {
        "astId": 31635,
        "contract": "contracts/tokens/ERC721/LoanAssetToken.sol:LoanAssetToken",
        "label": "__gap",
        "offset": 0,
        "slot": "551",
        "type": "t_array(t_uint256)50_storage"
      },
      {
        "astId": 4970,
        "contract": "contracts/tokens/ERC721/LoanAssetToken.sol:LoanAssetToken",
        "label": "_hashedName",
        "offset": 0,
        "slot": "601",
        "type": "t_bytes32"
      },
      {
        "astId": 4973,
        "contract": "contracts/tokens/ERC721/LoanAssetToken.sol:LoanAssetToken",
        "label": "_hashedVersion",
        "offset": 0,
        "slot": "602",
        "type": "t_bytes32"
      },
      {
        "astId": 4975,
        "contract": "contracts/tokens/ERC721/LoanAssetToken.sol:LoanAssetToken",
        "label": "_name",
        "offset": 0,
        "slot": "603",
        "type": "t_string_storage"
      },
      {
        "astId": 4977,
        "contract": "contracts/tokens/ERC721/LoanAssetToken.sol:LoanAssetToken",
        "label": "_version",
        "offset": 0,
        "slot": "604",
        "type": "t_string_storage"
      },
      {
        "astId": 5235,
        "contract": "contracts/tokens/ERC721/LoanAssetToken.sol:LoanAssetToken",
        "label": "__gap",
        "offset": 0,
        "slot": "605",
        "type": "t_array(t_uint256)48_storage"
      },
      {
        "astId": 31837,
        "contract": "contracts/tokens/ERC721/LoanAssetToken.sol:LoanAssetToken",
        "label": "_nonces",
        "offset": 0,
        "slot": "653",
        "type": "t_mapping(t_uint256,t_uint256)"
      },
      {
        "astId": 32064,
        "contract": "contracts/tokens/ERC721/LoanAssetToken.sol:LoanAssetToken",
        "label": "__gap",
        "offset": 0,
        "slot": "654",
        "type": "t_array(t_uint256)50_storage"
      },
      {
        "astId": 32249,
        "contract": "contracts/tokens/ERC721/LoanAssetToken.sol:LoanAssetToken",
        "label": "__gap",
        "offset": 0,
        "slot": "704",
        "type": "t_array(t_uint256)50_storage"
      }
    ],
    "types": {
      "t_address": {
        "encoding": "inplace",
        "label": "address",
        "numberOfBytes": "20"
      },
      "t_array(t_bytes32)dyn_storage": {
        "base": "t_bytes32",
        "encoding": "dynamic_array",
        "label": "bytes32[]",
        "numberOfBytes": "32"
      },
      "t_array(t_uint256)44_storage": {
        "base": "t_uint256",
        "encoding": "inplace",
        "label": "uint256[44]",
        "numberOfBytes": "1408"
      },
      "t_array(t_uint256)46_storage": {
        "base": "t_uint256",
        "encoding": "inplace",
        "label": "uint256[46]",
        "numberOfBytes": "1472"
      },
      "t_array(t_uint256)48_storage": {
        "base": "t_uint256",
        "encoding": "inplace",
        "label": "uint256[48]",
        "numberOfBytes": "1536"
      },
      "t_array(t_uint256)49_storage": {
        "base": "t_uint256",
        "encoding": "inplace",
        "label": "uint256[49]",
        "numberOfBytes": "1568"
      },
      "t_array(t_uint256)50_storage": {
        "base": "t_uint256",
        "encoding": "inplace",
        "label": "uint256[50]",
        "numberOfBytes": "1600"
      },
      "t_array(t_uint256)dyn_storage": {
        "base": "t_uint256",
        "encoding": "dynamic_array",
        "label": "uint256[]",
        "numberOfBytes": "32"
      },
      "t_bool": {
        "encoding": "inplace",
        "label": "bool",
        "numberOfBytes": "1"
      },
      "t_bytes32": {
        "encoding": "inplace",
        "label": "bytes32",
        "numberOfBytes": "32"
      },
      "t_contract(Registry)31553": {
        "encoding": "inplace",
        "label": "contract Registry",
        "numberOfBytes": "20"
      },
      "t_mapping(t_address,t_bool)": {
        "encoding": "mapping",
        "key": "t_address",
        "label": "mapping(address => bool)",
        "numberOfBytes": "32",
        "value": "t_bool"
      },
      "t_mapping(t_address,t_mapping(t_address,t_bool))": {
        "encoding": "mapping",
        "key": "t_address",
        "label": "mapping(address => mapping(address => bool))",
        "numberOfBytes": "32",
        "value": "t_mapping(t_address,t_bool)"
      },
      "t_mapping(t_address,t_mapping(t_uint256,t_uint256))": {
        "encoding": "mapping",
        "key": "t_address",
        "label": "mapping(address => mapping(uint256 => uint256))",
        "numberOfBytes": "32",
        "value": "t_mapping(t_uint256,t_uint256)"
      },
      "t_mapping(t_address,t_uint256)": {
        "encoding": "mapping",
        "key": "t_address",
        "label": "mapping(address => uint256)",
        "numberOfBytes": "32",
        "value": "t_uint256"
      },
      "t_mapping(t_bytes32,t_struct(AddressSet)6882_storage)": {
        "encoding": "mapping",
        "key": "t_bytes32",
        "label": "mapping(bytes32 => struct EnumerableSetUpgradeable.AddressSet)",
        "numberOfBytes": "32",
        "value": "t_struct(AddressSet)6882_storage"
      },
      "t_mapping(t_bytes32,t_struct(RoleData)179_storage)": {
        "encoding": "mapping",
        "key": "t_bytes32",
        "label": "mapping(bytes32 => struct AccessControlUpgradeable.RoleData)",
        "numberOfBytes": "32",
        "value": "t_struct(RoleData)179_storage"
      },
      "t_mapping(t_bytes32,t_uint256)": {
        "encoding": "mapping",
        "key": "t_bytes32",
        "label": "mapping(bytes32 => uint256)",
        "numberOfBytes": "32",
        "value": "t_uint256"
      },
      "t_mapping(t_uint256,t_address)": {
        "encoding": "mapping",
        "key": "t_uint256",
        "label": "mapping(uint256 => address)",
        "numberOfBytes": "32",
        "value": "t_address"
      },
      "t_mapping(t_uint256,t_uint256)": {
        "encoding": "mapping",
        "key": "t_uint256",
        "label": "mapping(uint256 => uint256)",
        "numberOfBytes": "32",
        "value": "t_uint256"
      },
      "t_string_storage": {
        "encoding": "bytes",
        "label": "string",
        "numberOfBytes": "32"
      },
      "t_struct(AddressSet)6882_storage": {
        "encoding": "inplace",
        "label": "struct EnumerableSetUpgradeable.AddressSet",
        "members": [
          {
            "astId": 6881,
            "contract": "contracts/tokens/ERC721/LoanAssetToken.sol:LoanAssetToken",
            "label": "_inner",
            "offset": 0,
            "slot": "0",
            "type": "t_struct(Set)6567_storage"
          }
        ],
        "numberOfBytes": "64"
      },
      "t_struct(Counter)4289_storage": {
        "encoding": "inplace",
        "label": "struct CountersUpgradeable.Counter",
        "members": [
          {
            "astId": 4288,
            "contract": "contracts/tokens/ERC721/LoanAssetToken.sol:LoanAssetToken",
            "label": "_value",
            "offset": 0,
            "slot": "0",
            "type": "t_uint256"
          }
        ],
        "numberOfBytes": "32"
      },
      "t_struct(RoleData)179_storage": {
        "encoding": "inplace",
        "label": "struct AccessControlUpgradeable.RoleData",
        "members": [
          {
            "astId": 176,
            "contract": "contracts/tokens/ERC721/LoanAssetToken.sol:LoanAssetToken",
            "label": "members",
            "offset": 0,
            "slot": "0",
            "type": "t_mapping(t_address,t_bool)"
          },
          {
            "astId": 178,
            "contract": "contracts/tokens/ERC721/LoanAssetToken.sol:LoanAssetToken",
            "label": "adminRole",
            "offset": 0,
            "slot": "1",
            "type": "t_bytes32"
          }
        ],
        "numberOfBytes": "64"
      },
      "t_struct(Set)6567_storage": {
        "encoding": "inplace",
        "label": "struct EnumerableSetUpgradeable.Set",
        "members": [
          {
            "astId": 6562,
            "contract": "contracts/tokens/ERC721/LoanAssetToken.sol:LoanAssetToken",
            "label": "_values",
            "offset": 0,
            "slot": "0",
            "type": "t_array(t_bytes32)dyn_storage"
          },
          {
            "astId": 6566,
            "contract": "contracts/tokens/ERC721/LoanAssetToken.sol:LoanAssetToken",
            "label": "_indexes",
            "offset": 0,
            "slot": "1",
            "type": "t_mapping(t_bytes32,t_uint256)"
          }
        ],
        "numberOfBytes": "64"
      },
      "t_uint256": {
        "encoding": "inplace",
        "label": "uint256",
        "numberOfBytes": "32"
      },
      "t_uint8": {
        "encoding": "inplace",
        "label": "uint8",
        "numberOfBytes": "1"
      }
    }
  }
}