{
  "address": "0x65Db830fEa0d610F3Aae2D53Ef4Ca2A806B003a5",
  "abi": [
    {
      "anonymous": false,
      "inputs": [
        {
          "indexed": false,
          "internalType": "uint8",
          "name": "version",
          "type": "uint8"
        }
      ],
      "name": "Initialized",
      "type": "event"
    },
    {
      "anonymous": false,
      "inputs": [
        {
          "indexed": true,
          "internalType": "address",
          "name": "jotAddress",
          "type": "address"
        },
        {
          "indexed": false,
          "internalType": "address",
          "name": "tgeAddress",
          "type": "address"
        },
        {
          "indexed": false,
          "internalType": "address",
          "name": "poolAddress",
          "type": "address"
        }
      ],
      "name": "JotDeployed",
      "type": "event"
    },
    {
      "anonymous": false,
      "inputs": [
        {
          "indexed": true,
          "internalType": "address",
          "name": "instanceAddress",
          "type": "address"
        }
      ],
      "name": "NewNotesTokenCreated",
      "type": "event"
    },
    {
      "anonymous": false,
      "inputs": [
        {
          "indexed": true,
          "internalType": "address",
          "name": "instanceAddress",
          "type": "address"
        }
      ],
      "name": "NewPoolCreated",
      "type": "event"
    },
    {
      "anonymous": false,
      "inputs": [
        {
          "indexed": true,
          "internalType": "address",
          "name": "instanceAddress",
          "type": "address"
        }
      ],
      "name": "NewTGECreated",
      "type": "event"
    },
    {
      "anonymous": false,
      "inputs": [
        {
          "indexed": true,
          "internalType": "address",
          "name": "investor",
          "type": "address"
        },
        {
          "indexed": true,
          "internalType": "address",
          "name": "tgeAddress",
          "type": "address"
        },
        {
          "indexed": false,
          "internalType": "address",
          "name": "poolAddress",
          "type": "address"
        },
        {
          "indexed": false,
          "internalType": "uint256",
          "name": "amount",
          "type": "uint256"
        },
        {
          "indexed": false,
          "internalType": "uint256",
          "name": "tokenAmount",
          "type": "uint256"
        }
      ],
      "name": "NoteTokenPurchased",
      "type": "event"
    },
    {
      "anonymous": false,
      "inputs": [
        {
          "indexed": false,
          "internalType": "address",
          "name": "account",
          "type": "address"
        }
      ],
      "name": "Paused",
      "type": "event"
    },
    {
      "anonymous": false,
      "inputs": [
        {
          "indexed": true,
          "internalType": "bytes32",
          "name": "role",
          "type": "bytes32"
        },
        {
          "indexed": true,
          "internalType": "bytes32",
          "name": "previousAdminRole",
          "type": "bytes32"
        },
        {
          "indexed": true,
          "internalType": "bytes32",
          "name": "newAdminRole",
          "type": "bytes32"
        }
      ],
      "name": "RoleAdminChanged",
      "type": "event"
    },
    {
      "anonymous": false,
      "inputs": [
        {
          "indexed": true,
          "internalType": "bytes32",
          "name": "role",
          "type": "bytes32"
        },
        {
          "indexed": true,
          "internalType": "address",
          "name": "account",
          "type": "address"
        },
        {
          "indexed": true,
          "internalType": "address",
          "name": "sender",
          "type": "address"
        }
      ],
      "name": "RoleGranted",
      "type": "event"
    },
    {
      "anonymous": false,
      "inputs": [
        {
          "indexed": true,
          "internalType": "bytes32",
          "name": "role",
          "type": "bytes32"
        },
        {
          "indexed": true,
          "internalType": "address",
          "name": "account",
          "type": "address"
        },
        {
          "indexed": true,
          "internalType": "address",
          "name": "sender",
          "type": "address"
        }
      ],
      "name": "RoleRevoked",
      "type": "event"
    },
    {
      "anonymous": false,
      "inputs": [
        {
          "indexed": true,
          "internalType": "address",
          "name": "sotAddress",
          "type": "address"
        },
        {
          "indexed": false,
          "internalType": "address",
          "name": "tgeAddress",
          "type": "address"
        },
        {
          "indexed": false,
          "internalType": "address",
          "name": "poolAddress",
          "type": "address"
        }
      ],
      "name": "SotDeployed",
      "type": "event"
    },
    {
      "anonymous": false,
      "inputs": [
        {
          "indexed": true,
          "internalType": "address",
          "name": "investor",
          "type": "address"
        },
        {
          "indexed": true,
          "internalType": "address",
          "name": "tgeAddress",
          "type": "address"
        },
        {
          "indexed": false,
          "internalType": "uint256",
          "name": "amount",
          "type": "uint256"
        },
        {
          "indexed": false,
          "internalType": "uint256",
          "name": "tokenAmount",
          "type": "uint256"
        }
      ],
      "name": "TokensPurchased",
      "type": "event"
    },
    {
      "anonymous": false,
      "inputs": [
        {
          "indexed": false,
          "internalType": "address",
          "name": "account",
          "type": "address"
        }
      ],
      "name": "Unpaused",
      "type": "event"
    },
    {
      "anonymous": false,
      "inputs": [
        {
          "indexed": false,
          "internalType": "uint256[]",
          "name": "uids",
          "type": "uint256[]"
        }
      ],
      "name": "UpdateAllowedUIDTypes",
      "type": "event"
    },
    {
      "anonymous": false,
      "inputs": [
        {
          "indexed": true,
          "internalType": "address",
          "name": "pot",
          "type": "address"
        },
        {
          "indexed": true,
          "internalType": "address",
          "name": "pool",
          "type": "address"
        }
      ],
      "name": "UpdatePotToPool",
      "type": "event"
    },
    {
      "inputs": [],
      "name": "DEFAULT_ADMIN_ROLE",
      "outputs": [
        {
          "internalType": "bytes32",
          "name": "",
          "type": "bytes32"
        }
      ],
      "stateMutability": "view",
      "type": "function"
    },
    {
      "inputs": [],
      "name": "OWNER_ROLE",
      "outputs": [
        {
          "internalType": "bytes32",
          "name": "",
          "type": "bytes32"
        }
      ],
      "stateMutability": "view",
      "type": "function"
    },
    {
      "inputs": [],
      "name": "POOL_INIT_FUNC_SELECTOR",
      "outputs": [
        {
          "internalType": "bytes4",
          "name": "",
          "type": "bytes4"
        }
      ],
      "stateMutability": "view",
      "type": "function"
    },
    {
      "inputs": [
        {
          "internalType": "address",
          "name": "issuerTokenController",
          "type": "address"
        },
        {
          "internalType": "address",
          "name": "pool",
          "type": "address"
        },
        {
          "internalType": "uint8",
          "name": "saleType",
          "type": "uint8"
        },
        {
          "internalType": "bool",
          "name": "longSale",
          "type": "bool"
        },
        {
          "internalType": "string",
          "name": "ticker",
          "type": "string"
        }
      ],
      "name": "_initialTGEForJOT",
      "outputs": [
        {
          "internalType": "address",
          "name": "",
          "type": "address"
        }
      ],
      "stateMutability": "nonpayable",
      "type": "function"
    },
    {
      "inputs": [
        {
          "internalType": "uint256",
          "name": "",
          "type": "uint256"
        }
      ],
      "name": "allowedUIDTypes",
      "outputs": [
        {
          "internalType": "uint256",
          "name": "",
          "type": "uint256"
        }
      ],
      "stateMutability": "view",
      "type": "function"
    },
    {
      "inputs": [
        {
          "internalType": "address",
          "name": "tgeAddress",
          "type": "address"
        },
        {
          "internalType": "uint256",
          "name": "currencyAmount",
          "type": "uint256"
        }
      ],
      "name": "buyTokens",
      "outputs": [],
      "stateMutability": "nonpayable",
      "type": "function"
    },
    {
      "inputs": [],
      "name": "factoryAdmin",
      "outputs": [
        {
          "internalType": "address",
          "name": "",
          "type": "address"
        }
      ],
      "stateMutability": "view",
      "type": "function"
    },
    {
      "inputs": [],
      "name": "getInitializedVersion",
      "outputs": [
        {
          "internalType": "uint256",
          "name": "",
          "type": "uint256"
        }
      ],
      "stateMutability": "view",
      "type": "function"
    },
    {
      "inputs": [],
      "name": "getPoolsLength",
      "outputs": [
        {
          "internalType": "uint256",
          "name": "",
          "type": "uint256"
        }
      ],
      "stateMutability": "view",
      "type": "function"
    },
    {
      "inputs": [
        {
          "internalType": "bytes32",
          "name": "role",
          "type": "bytes32"
        }
      ],
      "name": "getRoleAdmin",
      "outputs": [
        {
          "internalType": "bytes32",
          "name": "",
          "type": "bytes32"
        }
      ],
      "stateMutability": "view",
      "type": "function"
    },
    {
      "inputs": [
        {
          "internalType": "bytes32",
          "name": "role",
          "type": "bytes32"
        },
        {
          "internalType": "uint256",
          "name": "index",
          "type": "uint256"
        }
      ],
      "name": "getRoleMember",
      "outputs": [
        {
          "internalType": "address",
          "name": "",
          "type": "address"
        }
      ],
      "stateMutability": "view",
      "type": "function"
    },
    {
      "inputs": [
        {
          "internalType": "bytes32",
          "name": "role",
          "type": "bytes32"
        }
      ],
      "name": "getRoleMemberCount",
      "outputs": [
        {
          "internalType": "uint256",
          "name": "",
          "type": "uint256"
        }
      ],
      "stateMutability": "view",
      "type": "function"
    },
    {
      "inputs": [
        {
          "internalType": "bytes32",
          "name": "role",
          "type": "bytes32"
        },
        {
          "internalType": "address",
          "name": "account",
          "type": "address"
        }
      ],
      "name": "grantRole",
      "outputs": [],
      "stateMutability": "nonpayable",
      "type": "function"
    },
    {
      "inputs": [
        {
          "internalType": "address",
          "name": "sender",
          "type": "address"
        }
      ],
      "name": "hasAllowedUID",
      "outputs": [
        {
          "internalType": "bool",
          "name": "",
          "type": "bool"
        }
      ],
      "stateMutability": "view",
      "type": "function"
    },
    {
      "inputs": [
        {
          "internalType": "bytes32",
          "name": "role",
          "type": "bytes32"
        },
        {
          "internalType": "address",
          "name": "account",
          "type": "address"
        }
      ],
      "name": "hasRole",
      "outputs": [
        {
          "internalType": "bool",
          "name": "",
          "type": "bool"
        }
      ],
      "stateMutability": "view",
      "type": "function"
    },
    {
      "inputs": [
        {
          "internalType": "address",
          "name": "issuerTokenController",
          "type": "address"
        },
        {
          "internalType": "address",
          "name": "pool",
          "type": "address"
        },
        {
          "internalType": "uint8",
          "name": "saleType",
          "type": "uint8"
        },
        {
          "internalType": "bool",
          "name": "longSale",
          "type": "bool"
        },
        {
          "internalType": "string",
          "name": "ticker",
          "type": "string"
        }
      ],
      "name": "initialTGEForJOT",
      "outputs": [
        {
          "internalType": "address",
          "name": "",
          "type": "address"
        }
      ],
      "stateMutability": "nonpayable",
      "type": "function"
    },
    {
      "inputs": [
        {
          "internalType": "address",
          "name": "issuerTokenController",
          "type": "address"
        },
        {
          "internalType": "address",
          "name": "pool",
          "type": "address"
        },
        {
          "internalType": "uint8",
          "name": "saleType",
          "type": "uint8"
        },
        {
          "internalType": "bool",
          "name": "longSale",
          "type": "bool"
        },
        {
          "internalType": "string",
          "name": "ticker",
          "type": "string"
        }
      ],
      "name": "initialTGEForSOT",
      "outputs": [
        {
          "internalType": "address",
          "name": "",
          "type": "address"
        }
      ],
      "stateMutability": "nonpayable",
      "type": "function"
    },
    {
      "inputs": [
        {
          "internalType": "contract Registry",
          "name": "_registry",
          "type": "address"
        },
        {
          "internalType": "address",
          "name": "_factoryAdmin",
          "type": "address"
        }
      ],
      "name": "initialize",
      "outputs": [],
      "stateMutability": "nonpayable",
      "type": "function"
    },
    {
      "inputs": [],
      "name": "isAdmin",
      "outputs": [
        {
          "internalType": "bool",
          "name": "",
          "type": "bool"
        }
      ],
      "stateMutability": "view",
      "type": "function"
    },
    {
      "inputs": [
        {
          "internalType": "address",
          "name": "",
          "type": "address"
        }
      ],
      "name": "isExistingPools",
      "outputs": [
        {
          "internalType": "bool",
          "name": "",
          "type": "bool"
        }
      ],
      "stateMutability": "view",
      "type": "function"
    },
    {
      "inputs": [
        {
          "internalType": "address",
          "name": "",
          "type": "address"
        }
      ],
      "name": "isExistingTGEs",
      "outputs": [
        {
          "internalType": "bool",
          "name": "",
          "type": "bool"
        }
      ],
      "stateMutability": "view",
      "type": "function"
    },
    {
      "inputs": [
        {
          "internalType": "bytes32",
          "name": "salt",
          "type": "bytes32"
        },
        {
          "internalType": "address",
          "name": "poolOwner",
          "type": "address"
        },
        {
          "internalType": "bytes",
          "name": "params",
          "type": "bytes"
        }
      ],
      "name": "newPoolInstance",
      "outputs": [
        {
          "internalType": "address",
          "name": "",
          "type": "address"
        }
      ],
      "stateMutability": "nonpayable",
      "type": "function"
    },
    {
      "inputs": [],
      "name": "pause",
      "outputs": [],
      "stateMutability": "nonpayable",
      "type": "function"
    },
    {
      "inputs": [],
      "name": "paused",
      "outputs": [
        {
          "internalType": "bool",
          "name": "",
          "type": "bool"
        }
      ],
      "stateMutability": "view",
      "type": "function"
    },
    {
      "inputs": [
        {
          "internalType": "uint256",
          "name": "",
          "type": "uint256"
        }
      ],
      "name": "pools",
      "outputs": [
        {
          "internalType": "address",
          "name": "",
          "type": "address"
        }
      ],
      "stateMutability": "view",
      "type": "function"
    },
    {
      "inputs": [
        {
          "internalType": "address",
          "name": "",
          "type": "address"
        }
      ],
      "name": "potToPool",
      "outputs": [
        {
          "internalType": "address",
          "name": "",
          "type": "address"
        }
      ],
      "stateMutability": "view",
      "type": "function"
    },
    {
      "inputs": [
        {
          "internalType": "address",
          "name": "pot",
          "type": "address"
        }
      ],
      "name": "registerPot",
      "outputs": [],
      "stateMutability": "nonpayable",
      "type": "function"
    },
    {
      "inputs": [
        {
          "internalType": "address",
          "name": "validator",
          "type": "address"
        }
      ],
      "name": "registerValidator",
      "outputs": [],
      "stateMutability": "nonpayable",
      "type": "function"
    },
    {
      "inputs": [],
      "name": "registry",
      "outputs": [
        {
          "internalType": "contract Registry",
          "name": "",
          "type": "address"
        }
      ],
      "stateMutability": "view",
      "type": "function"
    },
    {
      "inputs": [
        {
          "internalType": "bytes32",
          "name": "role",
          "type": "bytes32"
        },
        {
          "internalType": "address",
          "name": "account",
          "type": "address"
        }
      ],
      "name": "renounceRole",
      "outputs": [],
      "stateMutability": "nonpayable",
      "type": "function"
    },
    {
      "inputs": [
        {
          "internalType": "bytes32",
          "name": "role",
          "type": "bytes32"
        },
        {
          "internalType": "address",
          "name": "account",
          "type": "address"
        }
      ],
      "name": "revokeRole",
      "outputs": [],
      "stateMutability": "nonpayable",
      "type": "function"
    },
    {
      "inputs": [
        {
          "internalType": "uint256[]",
          "name": "ids",
          "type": "uint256[]"
        }
      ],
      "name": "setAllowedUIDTypes",
      "outputs": [],
      "stateMutability": "nonpayable",
      "type": "function"
    },
    {
      "inputs": [
        {
          "internalType": "address",
          "name": "_factoryAdmin",
          "type": "address"
        }
      ],
      "name": "setFactoryAdmin",
      "outputs": [],
      "stateMutability": "nonpayable",
      "type": "function"
    },
    {
      "inputs": [
        {
          "internalType": "bytes32",
          "name": "role",
          "type": "bytes32"
        },
        {
          "internalType": "bytes32",
          "name": "adminRole",
          "type": "bytes32"
        }
      ],
      "name": "setRoleAdmin",
      "outputs": [],
      "stateMutability": "nonpayable",
      "type": "function"
    },
    {
      "inputs": [
        {
          "components": [
            {
              "internalType": "address",
              "name": "issuerTokenController",
              "type": "address"
            },
            {
              "internalType": "address",
              "name": "pool",
              "type": "address"
            },
            {
              "internalType": "uint256",
              "name": "minBidAmount",
              "type": "uint256"
            },
            {
              "internalType": "bool",
              "name": "longSale",
              "type": "bool"
            },
            {
              "internalType": "string",
              "name": "ticker",
              "type": "string"
            },
            {
              "internalType": "uint8",
              "name": "saleType",
              "type": "uint8"
            }
          ],
          "internalType": "struct SecuritizationManager.TGEParam",
          "name": "tgeParam",
          "type": "tuple"
        },
        {
          "components": [
            {
              "internalType": "uint256",
              "name": "openingTime",
              "type": "uint256"
            },
            {
              "internalType": "uint256",
              "name": "closingTime",
              "type": "uint256"
            },
            {
              "internalType": "uint256",
              "name": "rate",
              "type": "uint256"
            },
            {
              "internalType": "uint256",
              "name": "cap",
              "type": "uint256"
            }
          ],
          "internalType": "struct SecuritizationManager.NewRoundSaleParam",
          "name": "saleParam",
          "type": "tuple"
        },
        {
          "internalType": "uint256",
          "name": "initialJOTAmount",
          "type": "uint256"
        }
      ],
      "name": "setUpTGEForJOT",
      "outputs": [],
      "stateMutability": "nonpayable",
      "type": "function"
    },
    {
      "inputs": [
        {
          "components": [
            {
              "internalType": "address",
              "name": "issuerTokenController",
              "type": "address"
            },
            {
              "internalType": "address",
              "name": "pool",
              "type": "address"
            },
            {
              "internalType": "uint256",
              "name": "minBidAmount",
              "type": "uint256"
            },
            {
              "internalType": "bool",
              "name": "longSale",
              "type": "bool"
            },
            {
              "internalType": "string",
              "name": "ticker",
              "type": "string"
            },
            {
              "internalType": "uint8",
              "name": "saleType",
              "type": "uint8"
            }
          ],
          "internalType": "struct SecuritizationManager.TGEParam",
          "name": "tgeParam",
          "type": "tuple"
        },
        {
          "components": [
            {
              "internalType": "uint256",
              "name": "openingTime",
              "type": "uint256"
            },
            {
              "internalType": "uint256",
              "name": "closingTime",
              "type": "uint256"
            },
            {
              "internalType": "uint256",
              "name": "rate",
              "type": "uint256"
            },
            {
              "internalType": "uint256",
              "name": "cap",
              "type": "uint256"
            }
          ],
          "internalType": "struct SecuritizationManager.NewRoundSaleParam",
          "name": "saleParam",
          "type": "tuple"
        },
        {
          "components": [
            {
              "internalType": "uint32",
              "name": "initialInterest",
              "type": "uint32"
            },
            {
              "internalType": "uint32",
              "name": "finalInterest",
              "type": "uint32"
            },
            {
              "internalType": "uint32",
              "name": "timeInterval",
              "type": "uint32"
            },
            {
              "internalType": "uint32",
              "name": "amountChangeEachInterval",
              "type": "uint32"
            }
          ],
          "internalType": "struct SecuritizationManager.IncreasingInterestParam",
          "name": "increasingInterestParam",
          "type": "tuple"
        }
      ],
      "name": "setUpTGEForSOT",
      "outputs": [],
      "stateMutability": "nonpayable",
      "type": "function"
    },
    {
      "inputs": [
        {
          "internalType": "bytes4",
          "name": "interfaceId",
          "type": "bytes4"
        }
      ],
      "name": "supportsInterface",
      "outputs": [
        {
          "internalType": "bool",
          "name": "",
          "type": "bool"
        }
      ],
      "stateMutability": "view",
      "type": "function"
    },
    {
      "inputs": [],
      "name": "unpause",
      "outputs": [],
      "stateMutability": "nonpayable",
      "type": "function"
    },
    {
      "inputs": [
        {
          "internalType": "address",
          "name": "validator",
          "type": "address"
        }
      ],
      "name": "unregisterValidator",
      "outputs": [],
      "stateMutability": "nonpayable",
      "type": "function"
    },
    {
      "inputs": [
        {
          "components": [
            {
              "internalType": "address",
              "name": "tgeAddress",
              "type": "address"
            },
            {
              "internalType": "uint256",
              "name": "totalCap",
              "type": "uint256"
            },
            {
              "internalType": "uint256",
              "name": "minBidAmount",
              "type": "uint256"
            }
          ],
          "internalType": "struct SecuritizationManager.TGEInfoParam[]",
          "name": "tgeInfos",
          "type": "tuple[]"
        }
      ],
      "name": "updateTgeInfo",
      "outputs": [],
      "stateMutability": "nonpayable",
      "type": "function"
    }
  ],
  "transactionHash": "0xc639ae4fa5f4fa5d23f705d63287e26065aa3d1a50f7101785fb8b84ee0c19d5",
  "args": [],
  "numDeployments": 2,
  "solcInputHash": "8bfececa265648ca73d9625701657f42",
  "bytecode": "0x608060405234801561001057600080fd5b506153d2806100206000396000f3fe60806040523480156200001157600080fd5b5060043610620002795760003560e01c80638456cb591162000155578063ca15c87311620000c7578063dc90f9fd1162000086578063dc90f9fd14620005f6578063e2a657f9146200060d578063e58378bb1462000624578063f94f5a12146200063b578063fa10cd63146200065257600080fd5b8063ca15c8731462000580578063ce883cdb1462000597578063d113058c14620005a1578063d547741f14620005c8578063d77501dd14620005df57600080fd5b8063ac4afa381162000114578063ac4afa381462000525578063b3c65015146200053c578063b6db75a01462000548578063b9317d861462000552578063c8174260146200056957600080fd5b80638456cb5914620004cd5780639010d07c14620004d757806391d1485414620004ee5780639fca51691462000505578063a217fddf146200051c57600080fd5b80633bffe1b411620001ef578063505861dd11620001ae578063505861dd146200046757806351f64d9f146200047e5780635b222f1b14620004955780635c975abb14620004ac5780637b10399914620004b857600080fd5b80633bffe1b414620003f15780633f4ba83a14620004085780634172f80a1462000412578063485cc95514620004395780634aaf3ea6146200045057600080fd5b8063248a9ca3116200023c578063248a9ca3146200031f5780632c9bdbe014620003545780632f2ff15d146200038157806336568abe14620003985780633773194414620003af57600080fd5b806301ffc9a7146200027e57806305dfd86f14620002aa5780630752881a14620002c357806317d8ec7f14620002da5780631e4e00911462000308575b600080fd5b620002956200028f366004620039ea565b62000669565b60405190151581526020015b60405180910390f35b620002c1620002bb36600462003a2c565b62000697565b005b620002c1620002d436600462003a4c565b620006b3565b61015f54620002ef906001600160a01b031681565b6040516001600160a01b039091168152602001620002a1565b620002c16200031936600462003a7b565b62000de0565b620003456200033036600462003a9e565b600090815260c9602052604090206001015490565b604051908152602001620002a1565b620002ef6200036536600462003a2c565b610195602052600090815260409020546001600160a01b031681565b620002c16200039236600462003ab8565b62000dfe565b620002c1620003a936600462003ab8565b62000e27565b620003d77fd1f578946981755ee8ffb900bf2e79846feedf4642746695df147d68656840a381565b6040516001600160e01b03199091168152602001620002a1565b620002c16200040236600462003d15565b62000ea5565b620002c16200112f565b620002956200042336600462003a2c565b6101966020526000908152604090205460ff1681565b620002c16200044a36600462003d73565b62001149565b620002ef6200046136600462003da6565b620012b7565b620002c16200047836600462003e3a565b6200130e565b620002ef6200048f36600462003da6565b620015ca565b620002c1620004a636600462003ec9565b62001ac6565b60335460ff1662000295565b61019254620002ef906001600160a01b031681565b620002c162001dad565b620002ef620004e836600462003a7b565b62001dc4565b62000295620004ff36600462003ab8565b62001de5565b620002c16200051636600462003a2c565b62001e10565b62000345600081565b620002ef6200053636600462003a9e565b62001f3e565b60005460ff1662000345565b6200029562001f6a565b620002c16200056336600462003f8e565b62001f8c565b620002c16200057a36600462003a2c565b62001fdc565b620003456200059136600462003a9e565b62002066565b6101945462000345565b62000295620005b236600462003a2c565b6101936020526000908152604090205460ff1681565b620002c1620005d936600462003ab8565b6200207f565b620002ef620005f036600462003da6565b620020a8565b620002c16200060736600462003a2c565b620020f4565b620003456200061e36600462003a9e565b62002253565b620003456000805160206200535d83398151915281565b620002956200064c36600462003a2c565b62002276565b620002ef6200066336600462003ff6565b62002306565b60006001600160e01b03198216635a05180f60e01b148062000691575062000691826200255b565b92915050565b6000620006a48162002592565b620006af826200259e565b5050565b620006bd620025c1565b620006c76200260b565b6001600160a01b0382166000908152610196602052604090205460ff16620007365760405162461bcd60e51b815260206004820152601d60248201527f534d503a204e6f74652073616c6520646f6573206e6f7420657869737400000060448201526064015b60405180910390fd5b620007413362002276565b6200079b5760405162461bcd60e51b815260206004820152602360248201527f556e617574686f72697a65642e204d757374206861766520636f72726563742060448201526215525160ea1b60648201526084016200072d565b336000818152610195602052604081205484926001600160a01b03918216929184169063dcefa538908415620007d25784620007d4565b335b6040516001600160e01b031960e085901b1681526001600160a01b03928316600482015291166024820152604481018790526064016020604051808303816000875af115801562000829573d6000803e3d6000fd5b505050506040513d601f19601f820116820180604052508101906200084f91906200406a565b90506000836001600160a01b03166316f0115b6040518163ffffffff1660e01b8152600401602060405180830381865afa15801562000892573d6000803e3d6000fd5b505050506040513d601f19601f82011682018060405250810190620008b8919062004084565b61019254909150620008d3906001600160a01b031662002666565b604051634ce9451960e01b81526001600160a01b0383811660048301529190911690634ce9451990602401602060405180830381865afa1580156200091c573d6000803e3d6000fd5b505050506040513d601f19601f82011682018060405250810190620009429190620040a4565b15620009885760405162461bcd60e51b815260206004820152601460248201527314d34e88109d5e481d1bdad95b881c185d5cd95960621b60448201526064016200072d565b6000846001600160a01b031663fc0c546a6040518163ffffffff1660e01b8152600401602060405180830381865afa158015620009c9573d6000803e3d6000fd5b505050506040513d601f19601f82011682018060405250810190620009ef919062004084565b9050600160ff16816001600160a01b031662b7f6816040518163ffffffff1660e01b8152600401602060405180830381865afa15801562000a34573d6000803e3d6000fd5b505050506040513d601f19601f8201168201806040525081019062000a5a9190620040da565b60ff160362000c0b57866001600160a01b031663fc1ed4376040518163ffffffff1660e01b8152600401602060405180830381865afa15801562000aa2573d6000803e3d6000fd5b505050506040513d601f19601f8201168201806040525081019062000ac891906200406a565b876001600160a01b031663998ba4fc6040518163ffffffff1660e01b8152600401602060405180830381865afa15801562000b07573d6000803e3d6000fd5b505050506040513d601f19601f8201168201806040525081019062000b2d91906200406a565b1062000c0b576000826001600160a01b0316636456a3ee6040518163ffffffff1660e01b8152600401602060405180830381865afa15801562000b74573d6000803e3d6000fd5b505050506040513d601f19601f8201168201806040525081019062000b9a919062004084565b90506001600160a01b0381161562000c095760405163ea7bb4bd60e01b8152600160048201526001600160a01b0382169063ea7bb4bd90602401600060405180830381600087803b15801562000bef57600080fd5b505af115801562000c04573d6000803e3d6000fd5b505050505b505b604051630fdfbe1f60e11b8152600481018790526001600160a01b03831690631fbf7c3e90602401600060405180830381600087803b15801562000c4e57600080fd5b505af115801562000c63573d6000803e3d6000fd5b505050506001600160a01b0384161562000d31576040516332c9832360e11b81526001600160a01b038281166004830152851690636593064690602401600060405180830381600087803b15801562000cbb57600080fd5b505af115801562000cd0573d6000803e3d6000fd5b505060405163bff8a36d60e01b8152600481018990526001600160a01b038716925063bff8a36d9150602401600060405180830381600087803b15801562000d1757600080fd5b505af115801562000d2c573d6000803e3d6000fd5b505050505b60408051878152602081018590526001600160a01b0389169133917f6faf93231a456e552dbc9961f58d9713ee4f2e69d15f1975b050ef0911053a7b910160405180910390a36001600160a01b03871633604080516001600160a01b038681168252602082018b90529181018790529116907fa3a7c380969641ab7502e2ee291d1a50a8178ff950a6f496415f5256483cc86e9060600160405180910390a35050505050620006af6001606555565b600062000ded8162002592565b62000df983836200267c565b505050565b600082815260c9602052604090206001015462000e1b8162002592565b62000df98383620026c7565b6001600160a01b038116331462000e995760405162461bcd60e51b815260206004820152602f60248201527f416363657373436f6e74726f6c3a2063616e206f6e6c792072656e6f756e636560448201526e103937b632b9903337b91039b2b63360891b60648201526084016200072d565b620006af8282620026ed565b60208301516001600160a01b0381166391d148546000805160206200535d833981519152336040516001600160e01b031960e085901b16815260048101929092526001600160a01b03166024820152604401602060405180830381865afa15801562000f15573d6000803e3d6000fd5b505050506040513d601f19601f8201168201806040525081019062000f3b9190620040a4565b62000f5a5760405162461bcd60e51b81526004016200072d90620040fa565b600062000f7f856000015186602001518760a0015188606001518960800151620015ca565b845160208601516040808801516060890151915163cda95d5560e01b8152600481019490945260248401929092526044830191909152606482015290915081906001600160a01b0382169063cda95d5590608401600060405180830381600087803b15801562000fee57600080fd5b505af115801562001003573d6000803e3d6000fd5b505060405163ea7bb4bd60e01b8152600160048201526001600160a01b038416925063ea7bb4bd9150602401600060405180830381600087803b1580156200104a57600080fd5b505af11580156200105f573d6000803e3d6000fd5b50505060408088015190516320bfeb5b60e11b81526001600160a01b038416925063417fd6b691620010979160040190815260200190565b600060405180830381600087803b158015620010b257600080fd5b505af1158015620010c7573d6000803e3d6000fd5b505060405163b0efc32960e01b8152600481018790526001600160a01b038416925063b0efc3299150602401600060405180830381600087803b1580156200110e57600080fd5b505af115801562001123573d6000803e3d6000fd5b50505050505050505050565b60006200113c8162002592565b6200114662002713565b50565b600054610100900460ff16158080156200116a5750600054600160ff909116105b80620011865750303b15801562001186575060005460ff166001145b620011eb5760405162461bcd60e51b815260206004820152602e60248201527f496e697469616c697a61626c653a20636f6e747261637420697320616c72656160448201526d191e481a5b9a5d1a585b1a5e995960921b60648201526084016200072d565b6000805460ff1916600117905580156200120f576000805461ff0019166101001790555b6200121a3362002767565b6200122582620027ba565b6200124f6000805160206200537d8339815191526000805160206200535d8339815191526200267c565b61019280546001600160a01b0319166001600160a01b038516179055801562000df9576000805461ff0019169055604051600181527f7f26b83ff96e1f2b6a682f133852f6798a09c465da95921460cefb3847402498906020015b60405180910390a1505050565b600084620012d56000805160206200537d8339815191523362001de5565b620012f45760405162461bcd60e51b81526004016200072d90620040fa565b620013038787878787620027ef565b979650505050505050565b60005b8181101562000df9578282828181106200132f576200132f62004157565b62001347926020606090920201908101915062003a2c565b6001600160a01b03166316f0115b6040518163ffffffff1660e01b8152600401602060405180830381865afa15801562001385573d6000803e3d6000fd5b505050506040513d601f19601f82011682018060405250810190620013ab919062004084565b6001600160a01b03166391d148546000805160206200535d833981519152336040516001600160e01b031960e085901b16815260048101929092526001600160a01b03166024820152604401602060405180830381865afa15801562001415573d6000803e3d6000fd5b505050506040513d601f19601f820116820180604052508101906200143b9190620040a4565b6200145a5760405162461bcd60e51b81526004016200072d90620040fa565b8282828181106200146f576200146f62004157565b62001487926020606090920201908101915062003a2c565b6001600160a01b031663e1884b0f848484818110620014aa57620014aa62004157565b905060600201602001356040518263ffffffff1660e01b8152600401620014d391815260200190565b600060405180830381600087803b158015620014ee57600080fd5b505af115801562001503573d6000803e3d6000fd5b505050508282828181106200151c576200151c62004157565b62001534926020606090920201908101915062003a2c565b6001600160a01b031663417fd6b684848481811062001557576200155762004157565b905060600201604001356040518263ffffffff1660e01b81526004016200158091815260200190565b600060405180830381600087803b1580156200159b57600080fd5b505af1158015620015b0573d6000803e3d6000fd5b505050508080620015c19062004183565b91505062001311565b6000620015d6620025c1565b620015e06200260b565b6001600160a01b03851660009081526101936020526040902054859060ff166200161e5760405162461bcd60e51b81526004016200072d906200419f565b8560006001600160a01b0316816001600160a01b0316632b71b4506040518163ffffffff1660e01b8152600401602060405180830381865afa15801562001669573d6000803e3d6000fd5b505050506040513d601f19601f820116820180604052508101906200168f919062004084565b6001600160a01b031614620016ff5760405162461bcd60e51b815260206004820152602f60248201527f53656375726974697a6174696f6e4d616e616765723a20416c7265616479206560448201526e3c34b9ba39902527aa103a37b5b2b760891b60648201526084016200072d565b610192546000906200171a906001600160a01b031662002dfd565b90506000886001600160a01b0316630bc6bffc6040518163ffffffff1660e01b8152600401602060405180830381865afa1580156200175d573d6000803e3d6000fd5b505050506040513d601f19601f8201168201806040525081019062001783919062004084565b90506000826001600160a01b031663841370828b6001856001600160a01b031663313ce5676040518163ffffffff1660e01b8152600401602060405180830381865afa158015620017d8573d6000803e3d6000fd5b505050506040513d601f19601f82011682018060405250810190620017fe9190620040da565b8b6040518563ffffffff1660e01b815260040162001820949392919062004260565b6020604051808303816000875af115801562001840573d6000803e3d6000fd5b505050506040513d601f19601f8201168201806040525081019062001866919062004084565b6101925490915060009062001884906001600160a01b031662002e0c565b604051635523f55560e11b81526001600160a01b038e811660048301528481166024830152858116604483015260ff8d1660648301528b15156084830152919091169063aa47eaaa9060a4016020604051808303816000875af1158015620018f0573d6000803e3d6000fd5b505050506040513d601f19601f8201168201806040525081019062001916919062004084565b604051630126845360e51b81526001600160a01b0384811660048301528083166024830152919250908516906324d08a6090604401600060405180830381600087803b1580156200196657600080fd5b505af11580156200197b573d6000803e3d6000fd5b5050604051630ecbe20360e21b81526001600160a01b038e169250633b2f880c9150620019b0908490600190600401620042a6565b600060405180830381600087803b158015620019cb57600080fd5b505af1158015620019e0573d6000803e3d6000fd5b5050506001600160a01b03821660008181526101966020526040808220805460ff19166001179055519192507f136c81d50f9a724932afc622825df705a12f946901cf278c2588cf0a2551fbe191a26040516001600160a01b038316907fb72ee7895f39878b95c106bbba666679c845610c2ab21efae9aa7414ae4ca20190600090a2604080516001600160a01b0383811682528d811660208301528416917f099bb66ed93be0b6b29cdbd0be5388839a28e27d0d39dc43072a19d8a71ed92391015b60405180910390a29550505050505062001abd6001606555565b95945050505050565b60208301516001600160a01b0381166391d148546000805160206200535d833981519152336040516001600160e01b031960e085901b16815260048101929092526001600160a01b03166024820152604401602060405180830381865afa15801562001b36573d6000803e3d6000fd5b505050506040513d601f19601f8201168201806040525081019062001b5c9190620040a4565b62001b7b5760405162461bcd60e51b81526004016200072d90620040fa565b600062001ba0856000015186602001518760a0015188606001518960800151620027ef565b60a0860151909150819060ff811662001c44578451602086015160408088015160608901519151631415de3b60e31b815263ffffffff94851660048201529284166024840152831660448301529190911660648201526001600160a01b0383169063a0aef1d890608401600060405180830381600087803b15801562001c2557600080fd5b505af115801562001c3a573d6000803e3d6000fd5b5050505062001cb9565b60011960ff82160162001cb9576020850151604051632fc2798160e11b815263ffffffff90911660048201526001600160a01b03841690635f84f30290602401600060405180830381600087803b15801562001c9f57600080fd5b505af115801562001cb4573d6000803e3d6000fd5b505050505b8551602087015160408089015160608a0151915163cda95d5560e01b815260048101949094526024840192909252604483019190915260648201526001600160a01b0383169063cda95d5590608401600060405180830381600087803b15801562001d2357600080fd5b505af115801562001d38573d6000803e3d6000fd5b50505060408089015190516320bfeb5b60e11b81526001600160a01b038516925063417fd6b69162001d709160040190815260200190565b600060405180830381600087803b15801562001d8b57600080fd5b505af115801562001da0573d6000803e3d6000fd5b5050505050505050505050565b600062001dba8162002592565b6200114662002e1b565b600082815260fb6020526040812062001dde908362002e5b565b9392505050565b600091825260c9602090815260408084206001600160a01b0393909316845291905290205460ff1690565b6000805160206200537d83398151915262001e2b8162002592565b6001600160a01b03821662001e9c5760405162461bcd60e51b815260206004820152603060248201527f53656375726974697a6174696f6e4d616e616765723a20496e76616c6964207660448201526f616c696461746f72206164647265737360801b60648201526084016200072d565b6101925462001eb4906001600160a01b031662002e69565b604051632f2ff15d60e01b81527f21702c8af46127c7fa207f89d0b0a8441bb32959a0ac7df790e9ab1a25c9892660048201526001600160a01b0384811660248301529190911690632f2ff15d906044015b600060405180830381600087803b15801562001f2157600080fd5b505af115801562001f36573d6000803e3d6000fd5b505050505050565b610194818154811062001f5057600080fd5b6000918252602090912001546001600160a01b0316905081565b600062001f876000805160206200535d8339815191523362001de5565b905090565b600062001f998162002592565b62001fa86101c3848462003975565b507f2567070ac9f6f65f8ca84dde489e75853a5bc36fb8044e0597a2f75eabee88308383604051620012aa929190620042c5565b6000805160206200537d83398151915262001ff78162002592565b610192546200200f906001600160a01b031662002e69565b60405163d547741f60e01b81527f21702c8af46127c7fa207f89d0b0a8441bb32959a0ac7df790e9ab1a25c9892660048201526001600160a01b038481166024830152919091169063d547741f9060440162001f06565b600081815260fb60205260408120620006919062002e78565b600082815260c960205260409020600101546200209c8162002592565b62000df98383620026ed565b600084620020c66000805160206200537d8339815191523362001de5565b620020e55760405162461bcd60e51b81526004016200072d90620040fa565b620013038787878787620015ca565b620020fe620025c1565b336000908152610193602052604090205460ff16620021775760405162461bcd60e51b815260206004820152602e60248201527f53656375726974697a6174696f6e4d616e616765723a204f6e6c79205365637560448201526d1c9a5d1a5e985d1a5bdb941bdbdb60921b60648201526084016200072d565b6001600160a01b03818116600090815261019560205260409020541615620021fb5760405162461bcd60e51b815260206004820152603060248201527f53656375726974697a6174696f6e4d616e616765723a20706f7420757365642060448201526f199bdc88185b9bdd1a195c881c1bdbdb60821b60648201526084016200072d565b6001600160a01b0381166000818152610195602052604080822080546001600160a01b0319163390811790915590519092917fc6dc08fde4be745ee1b3025914ee663853b06abf95b4a4d28ed10187d5d4841291a350565b6101c381815481106200226557600080fd5b600091825260209091200154905081565b6101925460009062002291906001600160a01b031662002e83565b6001600160a01b0316631852f200836101c36040518363ffffffff1660e01b8152600401620022c2929190620042ff565b602060405180830381865afa158015620022e0573d6000803e3d6000fd5b505050506040513d601f19601f82011682018060405250810190620006919190620040a4565b600062002312620025c1565b6000805160206200537d8339815191526200232d8162002592565b6101925460009062002348906001600160a01b031662002e92565b610192546040519192506000917fd1f578946981755ee8ffb900bf2e79846feedf4642746695df147d68656840a39162002393916001600160a01b039091169088906024016200435c565b60408051601f198184030181529190526020810180516001600160e01b03166001600160e01b03199093169290921790915290506000620023d683838a62002ea1565b6001600160a01b0381811660008181526101936020526040808220805460ff19166001908117909155610194805491820181559092527fa6f1ac7ad7b125ba5a5e1c96b00ad6914f90a503b1ac3d85a9dadbb4c639df9290910180546001600160a01b0319168317905551632f2ff15d60e01b81526000805160206200535d8339815191526004820152918a166024830152919250829190632f2ff15d90604401600060405180830381600087803b1580156200249257600080fd5b505af1158015620024a7573d6000803e3d6000fd5b5050604051631b2b455f60e11b81526000805160206200535d83398151915260048201523060248201526001600160a01b03841692506336568abe9150604401600060405180830381600087803b1580156200250257600080fd5b505af115801562002517573d6000803e3d6000fd5b50506040516001600160a01b03851692507f84beea356a8ed330e56f7d55aad6858501748effc667b5536021b83e1ca6bbf59150600090a250979650505050505050565b60006001600160e01b03198216637965db0b60e01b14806200069157506301ffc9a760e01b6001600160e01b031983161462000691565b62001146813362002fae565b61015f80546001600160a01b0319166001600160a01b0392909216919091179055565b60335460ff1615620026095760405162461bcd60e51b815260206004820152601060248201526f14185d5cd8589b194e881c185d5cd95960821b60448201526064016200072d565b565b6002606554036200265f5760405162461bcd60e51b815260206004820152601f60248201527f5265656e7472616e637947756172643a207265656e7472616e742063616c6c0060448201526064016200072d565b6002606555565b60006200069182600a62003012565b6001606555565b600082815260c96020526040808220600101805490849055905190918391839186917fbd79b86ffe0ab8e8776151514217cd7cacd52c909f66475c3af44e129f0b00ff9190a4505050565b620026d382826200309d565b600082815260fb6020526040902062000df9908262003127565b620026f982826200313e565b600082815260fb6020526040902062000df99082620031a8565b6200271d620031bf565b6033805460ff191690557f5db9ee0a495bf2e6ff9c91a7834c1ba4fdd244a5e8aa4e537bd38aeae4b073aa335b6040516001600160a01b03909116815260200160405180910390a1565b600054610100900460ff16620027915760405162461bcd60e51b81526004016200072d9062004382565b6200279b6200320a565b620027a562003240565b620027af6200326a565b620011468162003294565b600054610100900460ff16620027e45760405162461bcd60e51b81526004016200072d9062004382565b620011468162003313565b6000620027fb620025c1565b620028056200260b565b6001600160a01b03851660009081526101936020526040902054859060ff16620028435760405162461bcd60e51b81526004016200072d906200419f565b8560006001600160a01b0316816001600160a01b031663febd60186040518163ffffffff1660e01b8152600401602060405180830381865afa1580156200288e573d6000803e3d6000fd5b505050506040513d601f19601f82011682018060405250810190620028b4919062004084565b6001600160a01b031614620029245760405162461bcd60e51b815260206004820152602f60248201527f53656375726974697a6174696f6e4d616e616765723a20416c7265616479206560448201526e3c34b9ba399029a7aa103a37b5b2b760891b60648201526084016200072d565b610192546000906200293f906001600160a01b031662002dfd565b90506001600160a01b038116620029a75760405162461bcd60e51b815260206004820152602560248201527f4e6f746520546f6b656e20466163746f727920776173206e6f742072656769736044820152641d195c995960da1b60648201526084016200072d565b61019254600090620029c2906001600160a01b031662002e0c565b6001600160a01b03160362002a1a5760405162461bcd60e51b815260206004820152601e60248201527f54474520466163746f727920776173206e6f742072656769737465726564000060448201526064016200072d565b6000886001600160a01b0316630bc6bffc6040518163ffffffff1660e01b8152600401602060405180830381865afa15801562002a5b573d6000803e3d6000fd5b505050506040513d601f19601f8201168201806040525081019062002a81919062004084565b90506000826001600160a01b031663841370828b6000856001600160a01b031663313ce5676040518163ffffffff1660e01b8152600401602060405180830381865afa15801562002ad6573d6000803e3d6000fd5b505050506040513d601f19601f8201168201806040525081019062002afc9190620040da565b8b6040518563ffffffff1660e01b815260040162002b1e949392919062004260565b6020604051808303816000875af115801562002b3e573d6000803e3d6000fd5b505050506040513d601f19601f8201168201806040525081019062002b64919062004084565b90506001600160a01b03811662002bbe5760405162461bcd60e51b815260206004820152601960248201527f534f5420746f6b656e206d75737420626520637265617465640000000000000060448201526064016200072d565b6101925460009062002bd9906001600160a01b031662002e0c565b604051635523f55560e11b81526001600160a01b038e811660048301528481166024830152858116604483015260ff8d1660648301528b15156084830152919091169063aa47eaaa9060a4016020604051808303816000875af115801562002c45573d6000803e3d6000fd5b505050506040513d601f19601f8201168201806040525081019062002c6b919062004084565b604051630126845360e51b81526001600160a01b0384811660048301528083166024830152919250908516906324d08a6090604401600060405180830381600087803b15801562002cbb57600080fd5b505af115801562002cd0573d6000803e3d6000fd5b5050604051630ecbe20360e21b81526001600160a01b038e169250633b2f880c915062002d05908490600090600401620042a6565b600060405180830381600087803b15801562002d2057600080fd5b505af115801562002d35573d6000803e3d6000fd5b5050506001600160a01b03821660008181526101966020526040808220805460ff19166001179055519192507f136c81d50f9a724932afc622825df705a12f946901cf278c2588cf0a2551fbe191a26040516001600160a01b038316907fb72ee7895f39878b95c106bbba666679c845610c2ab21efae9aa7414ae4ca20190600090a2604080516001600160a01b0383811682528d811660208301528416917f9eb8080cc435d0abaf0670d0bc43c907e3459b6baa48729c998c397bafa91514910162001aa3565b60006200069182600262003012565b60006200069182600362003012565b62002e25620025c1565b6033805460ff191660011790557f62e78cea01bee320cd4e420270b5ea74000d11b0c9f74754ebdbfc544b05a2586200274a3390565b600062001dde83836200333d565b60006200069182600562003012565b600062000691825490565b60006200069182600962003012565b60006200069182600162003012565b60008062002f2b6000846040518060200162002ebd90620039c5565b601f1982820381018352601f9091011660408181526001600160a01b038b16602083015230908201526060808201526000608082015260a00160408051601f198184030181529082905262002f169291602001620043cd565b6040516020818303038152906040526200336a565b61015f546040516308f2839760e41b81526001600160a01b039182166004820152919250821690638f28397090602401600060405180830381600087803b15801562002f7657600080fd5b505af115801562002f8b573d6000803e3d6000fd5b5062002fa5925050506001600160a01b0382168562003474565b50949350505050565b62002fba828262001de5565b620006af5762002fca81620034ba565b62002fd7836020620034cd565b60405160200162002fea92919062004400565b60408051601f198184030181529082905262461bcd60e51b82526200072d9160040162004479565b6000826001600160a01b031663bcaa0c5583600a811115620030385762003038620040c4565b6040516001600160e01b031960e084901b16815260ff9091166004820152602401602060405180830381865afa15801562003077573d6000803e3d6000fd5b505050506040513d601f19601f8201168201806040525081019062001dde919062004084565b620030a9828262001de5565b620006af57600082815260c9602090815260408083206001600160a01b03851684529091529020805460ff19166001179055620030e33390565b6001600160a01b0316816001600160a01b0316837f2f8788117e7eff1d82e926ec794901d17c78024a50270940304540a733656f0d60405160405180910390a45050565b600062001dde836001600160a01b03841662003687565b6200314a828262001de5565b15620006af57600082815260c9602090815260408083206001600160a01b0385168085529252808320805460ff1916905551339285917ff6391f5c32d9c69d2a47ea670b442974b53935d1edc7fd64eb21e047a839171b9190a45050565b600062001dde836001600160a01b038416620036d9565b60335460ff16620026095760405162461bcd60e51b815260206004820152601460248201527314185d5cd8589b194e881b9bdd081c185d5cd95960621b60448201526064016200072d565b600054610100900460ff16620032345760405162461bcd60e51b81526004016200072d9062004382565b6033805460ff19169055565b600054610100900460ff16620026755760405162461bcd60e51b81526004016200072d9062004382565b600054610100900460ff16620026095760405162461bcd60e51b81526004016200072d9062004382565b600054610100900460ff16620032be5760405162461bcd60e51b81526004016200072d9062004382565b6001600160a01b038116620032d05750335b620032dd600033620037dd565b620032f86000805160206200535d83398151915282620037dd565b620011466000805160206200535d833981519152806200267c565b600054610100900460ff166200259e5760405162461bcd60e51b81526004016200072d9062004382565b600082600001828154811062003357576200335762004157565b9060005260206000200154905092915050565b600083471015620033be5760405162461bcd60e51b815260206004820152601d60248201527f437265617465323a20696e73756666696369656e742062616c616e636500000060448201526064016200072d565b8151600003620034115760405162461bcd60e51b815260206004820181905260248201527f437265617465323a2062797465636f6465206c656e677468206973207a65726f60448201526064016200072d565b8282516020840186f590506001600160a01b03811662001dde5760405162461bcd60e51b815260206004820152601960248201527f437265617465323a204661696c6564206f6e206465706c6f790000000000000060448201526064016200072d565b606062001dde838360006040518060400160405280601e81526020017f416464726573733a206c6f772d6c6576656c2063616c6c206661696c65640000815250620037e9565b6060620006916001600160a01b03831660145b60606000620034de8360026200448e565b620034eb906002620044a8565b67ffffffffffffffff81111562003506576200350662003aeb565b6040519080825280601f01601f19166020018201604052801562003531576020820181803683370190505b509050600360fc1b816000815181106200354f576200354f62004157565b60200101906001600160f81b031916908160001a905350600f60fb1b8160018151811062003581576200358162004157565b60200101906001600160f81b031916908160001a9053506000620035a78460026200448e565b620035b4906001620044a8565b90505b600181111562003636576f181899199a1a9b1b9c1cb0b131b232b360811b85600f1660108110620035ec57620035ec62004157565b1a60f81b82828151811062003605576200360562004157565b60200101906001600160f81b031916908160001a90535060049490941c936200362e81620044be565b9050620035b7565b50831562001dde5760405162461bcd60e51b815260206004820181905260248201527f537472696e67733a20686578206c656e67746820696e73756666696369656e7460448201526064016200072d565b6000818152600183016020526040812054620036d05750815460018181018455600084815260208082209093018490558454848252828601909352604090209190915562000691565b50600062000691565b60008181526001830160205260408120548015620037d257600062003700600183620044d8565b85549091506000906200371690600190620044d8565b9050818114620037825760008660000182815481106200373a576200373a62004157565b906000526020600020015490508087600001848154811062003760576200376062004157565b6000918252602080832090910192909255918252600188019052604090208390555b8554869080620037965762003796620044ee565b60019003818190600052602060002001600090559055856001016000868152602001908152602001600020600090556001935050505062000691565b600091505062000691565b620006af8282620026c7565b6060824710156200384c5760405162461bcd60e51b815260206004820152602660248201527f416464726573733a20696e73756666696369656e742062616c616e636520666f6044820152651c8818d85b1b60d21b60648201526084016200072d565b600080866001600160a01b031685876040516200386a919062004504565b60006040518083038185875af1925050503d8060008114620038a9576040519150601f19603f3d011682016040523d82523d6000602084013e620038ae565b606091505b5091509150620038c187838387620038ce565b925050505b949350505050565b60608315620039425782516000036200393a576001600160a01b0385163b6200393a5760405162461bcd60e51b815260206004820152601d60248201527f416464726573733a2063616c6c20746f206e6f6e2d636f6e747261637400000060448201526064016200072d565b5081620038c6565b620038c68383815115620039595781518083602001fd5b8060405162461bcd60e51b81526004016200072d919062004479565b828054828255906000526020600020908101928215620039b3579160200282015b82811115620039b357823582559160200191906001019062003996565b50620039c1929150620039d3565b5090565b610e3a806200452383390190565b5b80821115620039c15760008155600101620039d4565b600060208284031215620039fd57600080fd5b81356001600160e01b03198116811462001dde57600080fd5b6001600160a01b03811681146200114657600080fd5b60006020828403121562003a3f57600080fd5b813562001dde8162003a16565b6000806040838503121562003a6057600080fd5b823562003a6d8162003a16565b946020939093013593505050565b6000806040838503121562003a8f57600080fd5b50508035926020909101359150565b60006020828403121562003ab157600080fd5b5035919050565b6000806040838503121562003acc57600080fd5b82359150602083013562003ae08162003a16565b809150509250929050565b634e487b7160e01b600052604160045260246000fd5b6040516080810167ffffffffffffffff8111828210171562003b275762003b2762003aeb565b60405290565b80151581146200114657600080fd5b600067ffffffffffffffff8084111562003b5a5762003b5a62003aeb565b604051601f8501601f19908116603f0116810190828211818310171562003b855762003b8562003aeb565b8160405280935085815286868601111562003b9f57600080fd5b858560208301376000602087830101525050509392505050565b600082601f83011262003bcb57600080fd5b62001dde8383356020850162003b3c565b60ff811681146200114657600080fd5b803562003bf98162003bdc565b919050565b600060c0828403121562003c1157600080fd5b60405160c0810167ffffffffffffffff828210818311171562003c385762003c3862003aeb565b816040528293508435915062003c4e8262003a16565b90825260208401359062003c628262003a16565b816020840152604085013560408401526060850135915062003c848262003b2d565b816060840152608085013591508082111562003c9f57600080fd5b5062003cae8582860162003bb9565b60808301525062003cc260a0840162003bec565b60a08201525092915050565b60006080828403121562003ce157600080fd5b62003ceb62003b01565b90508135815260208201356020820152604082013560408201526060820135606082015292915050565b600080600060c0848603121562003d2b57600080fd5b833567ffffffffffffffff81111562003d4357600080fd5b62003d518682870162003bfe565b93505062003d63856020860162003cce565b915060a084013590509250925092565b6000806040838503121562003d8757600080fd5b823562003d948162003a16565b9150602083013562003ae08162003a16565b600080600080600060a0868803121562003dbf57600080fd5b853562003dcc8162003a16565b9450602086013562003dde8162003a16565b9350604086013562003df08162003bdc565b9250606086013562003e028162003b2d565b9150608086013567ffffffffffffffff81111562003e1f57600080fd5b62003e2d8882890162003bb9565b9150509295509295909350565b6000806020838503121562003e4e57600080fd5b823567ffffffffffffffff8082111562003e6757600080fd5b818501915085601f83011262003e7c57600080fd5b81358181111562003e8c57600080fd5b86602060608302850101111562003ea257600080fd5b60209290920196919550909350505050565b803563ffffffff8116811462003bf957600080fd5b600080600083850361012081121562003ee157600080fd5b843567ffffffffffffffff81111562003ef957600080fd5b62003f078782880162003bfe565b94505062003f19866020870162003cce565b92506080609f198201121562003f2e57600080fd5b5062003f3962003b01565b62003f4760a0860162003eb4565b815262003f5760c0860162003eb4565b602082015262003f6a60e0860162003eb4565b604082015262003f7e610100860162003eb4565b6060820152809150509250925092565b6000806020838503121562003fa257600080fd5b823567ffffffffffffffff8082111562003fbb57600080fd5b818501915085601f83011262003fd057600080fd5b81358181111562003fe057600080fd5b8660208260051b850101111562003ea257600080fd5b6000806000606084860312156200400c57600080fd5b833592506020840135620040208162003a16565b9150604084013567ffffffffffffffff8111156200403d57600080fd5b8401601f810186136200404f57600080fd5b620040608682356020840162003b3c565b9150509250925092565b6000602082840312156200407d57600080fd5b5051919050565b6000602082840312156200409757600080fd5b815162001dde8162003a16565b600060208284031215620040b757600080fd5b815162001dde8162003b2d565b634e487b7160e01b600052602160045260246000fd5b600060208284031215620040ed57600080fd5b815162001dde8162003bdc565b60208082526038908201527f53656375726974697a6174696f6e4d616e616765723a204e6f7420746865206360408201527f6f6e74726f6c6c6572206f66207468652070726f6a6563740000000000000000606082015260800190565b634e487b7160e01b600052603260045260246000fd5b634e487b7160e01b600052601160045260246000fd5b6000600182016200419857620041986200416d565b5060010190565b6020808252602a908201527f53656375726974697a6174696f6e4d616e616765723a20506f6f6c20646f6573604082015269081b9bdd08195e1a5cdd60b21b606082015260800190565b600281106200420857634e487b7160e01b600052602160045260246000fd5b9052565b60005b83811015620042295781810151838201526020016200420f565b50506000910152565b600081518084526200424c8160208601602086016200420c565b601f01601f19169290920160200192915050565b6001600160a01b03851681526200427b6020820185620041e9565b60ff831660408201526080606082015260006200429c608083018462004232565b9695505050505050565b6001600160a01b03831681526040810162001dde6020830184620041e9565b6020808252810182905260006001600160fb1b03831115620042e657600080fd5b8260051b80856040850137919091016040019392505050565b6001600160a01b0383168152604060208083018290528354918301829052600084815281812090929091906060850190845b818110156200434f5784548352600194850194928401920162004331565b5090979650505050505050565b6001600160a01b0383168152604060208201819052600090620038c69083018462004232565b6020808252602b908201527f496e697469616c697a61626c653a20636f6e7472616374206973206e6f74206960408201526a6e697469616c697a696e6760a81b606082015260800190565b60008351620043e18184602088016200420c565b835190830190620043f78183602088016200420c565b01949350505050565b7f416363657373436f6e74726f6c3a206163636f756e74200000000000000000008152600083516200443a8160178501602088016200420c565b7001034b99036b4b9b9b4b733903937b6329607d1b60179184019182015283516200446d8160288401602088016200420c565b01602801949350505050565b60208152600062001dde602083018462004232565b80820281158282048414176200069157620006916200416d565b808201808211156200069157620006916200416d565b600081620044d057620044d06200416d565b506000190190565b818103818111156200069157620006916200416d565b634e487b7160e01b600052603160045260246000fd5b60008251620045188184602087016200420c565b919091019291505056fe608060405260405162000e3a38038062000e3a833981016040819052620000269162000424565b828162000036828260006200004d565b50620000449050826200007f565b50505062000557565b6200005883620000f1565b600082511180620000665750805b156200007a5762000078838362000133565b505b505050565b7f7e644d79422f17c01e4894b5f4f588d331ebfa28653d42ae832dc59e38c9798f620000c160008051602062000df3833981519152546001600160a01b031690565b604080516001600160a01b03928316815291841660208301520160405180910390a1620000ee8162000162565b50565b620000fc8162000200565b6040516001600160a01b038216907fbc7cd75a20ee27fd9adebab32041f755214dbc6bffa90cc0225b39da2e5c2d3b90600090a250565b60606200015b838360405180606001604052806027815260200162000e136027913962000297565b9392505050565b6001600160a01b038116620001cd5760405162461bcd60e51b815260206004820152602660248201527f455243313936373a206e65772061646d696e20697320746865207a65726f206160448201526564647265737360d01b60648201526084015b60405180910390fd5b8060008051602062000df38339815191525b80546001600160a01b0319166001600160a01b039290921691909117905550565b6001600160a01b0381163b6200026f5760405162461bcd60e51b815260206004820152602d60248201527f455243313936373a206e657720696d706c656d656e746174696f6e206973206e60448201526c1bdd08184818dbdb9d1c9858dd609a1b6064820152608401620001c4565b807f360894a13ba1a3210667c828492db98dca3e2076cc3735a920a3ca505d382bbc620001df565b6060600080856001600160a01b031685604051620002b6919062000504565b600060405180830381855af49150503d8060008114620002f3576040519150601f19603f3d011682016040523d82523d6000602084013e620002f8565b606091505b5090925090506200030c8683838762000316565b9695505050505050565b606083156200038a57825160000362000382576001600160a01b0385163b620003825760405162461bcd60e51b815260206004820152601d60248201527f416464726573733a2063616c6c20746f206e6f6e2d636f6e74726163740000006044820152606401620001c4565b508162000396565b6200039683836200039e565b949350505050565b815115620003af5781518083602001fd5b8060405162461bcd60e51b8152600401620001c4919062000522565b80516001600160a01b0381168114620003e357600080fd5b919050565b634e487b7160e01b600052604160045260246000fd5b60005b838110156200041b57818101518382015260200162000401565b50506000910152565b6000806000606084860312156200043a57600080fd5b6200044584620003cb565b92506200045560208501620003cb565b60408501519092506001600160401b03808211156200047357600080fd5b818601915086601f8301126200048857600080fd5b8151818111156200049d576200049d620003e8565b604051601f8201601f19908116603f01168101908382118183101715620004c857620004c8620003e8565b81604052828152896020848701011115620004e257600080fd5b620004f5836020830160208801620003fe565b80955050505050509250925092565b6000825162000518818460208701620003fe565b9190910192915050565b602081526000825180602084015262000543816040850160208701620003fe565b601f01601f19169190910160400192915050565b61088c80620005676000396000f3fe60806040523661001357610011610017565b005b6100115b61001f610169565b6001600160a01b0316330361015f5760606001600160e01b0319600035166364d3180d60e11b810161005a5761005361019c565b9150610157565b63587086bd60e11b6001600160e01b031982160161007a576100536101f3565b63070d7c6960e41b6001600160e01b031982160161009a57610053610239565b621eb96f60e61b6001600160e01b03198216016100b95761005361026a565b63a39f25e560e01b6001600160e01b03198216016100d9576100536102aa565b60405162461bcd60e51b815260206004820152604260248201527f5472616e73706172656e745570677261646561626c6550726f78793a2061646d60448201527f696e2063616e6e6f742066616c6c6261636b20746f2070726f78792074617267606482015261195d60f21b608482015260a4015b60405180910390fd5b815160208301f35b6101676102be565b565b60007fb53127684a568b3173ae13b9f8a6016e243e63b6e8ee1178d6a717850b5d61035b546001600160a01b0316919050565b60606101a66102ce565b60006101b53660048184610683565b8101906101c291906106c9565b90506101df816040518060200160405280600081525060006102d9565b505060408051602081019091526000815290565b60606000806102053660048184610683565b81019061021291906106fa565b91509150610222828260016102d9565b604051806020016040528060008152509250505090565b60606102436102ce565b60006102523660048184610683565b81019061025f91906106c9565b90506101df81610305565b60606102746102ce565b600061027e610169565b604080516001600160a01b03831660208201529192500160405160208183030381529060405291505090565b60606102b46102ce565b600061027e61035c565b6101676102c961035c565b61036b565b341561016757600080fd5b6102e28361038f565b6000825111806102ef5750805b15610300576102fe83836103cf565b505b505050565b7f7e644d79422f17c01e4894b5f4f588d331ebfa28653d42ae832dc59e38c9798f61032e610169565b604080516001600160a01b03928316815291841660208301520160405180910390a1610359816103fb565b50565b60006103666104a4565b905090565b3660008037600080366000845af43d6000803e80801561038a573d6000f35b3d6000fd5b610398816104cc565b6040516001600160a01b038216907fbc7cd75a20ee27fd9adebab32041f755214dbc6bffa90cc0225b39da2e5c2d3b90600090a250565b60606103f4838360405180606001604052806027815260200161083060279139610560565b9392505050565b6001600160a01b0381166104605760405162461bcd60e51b815260206004820152602660248201527f455243313936373a206e65772061646d696e20697320746865207a65726f206160448201526564647265737360d01b606482015260840161014e565b807fb53127684a568b3173ae13b9f8a6016e243e63b6e8ee1178d6a717850b5d61035b80546001600160a01b0319166001600160a01b039290921691909117905550565b60007f360894a13ba1a3210667c828492db98dca3e2076cc3735a920a3ca505d382bbc61018d565b6001600160a01b0381163b6105395760405162461bcd60e51b815260206004820152602d60248201527f455243313936373a206e657720696d706c656d656e746174696f6e206973206e60448201526c1bdd08184818dbdb9d1c9858dd609a1b606482015260840161014e565b807f360894a13ba1a3210667c828492db98dca3e2076cc3735a920a3ca505d382bbc610483565b6060600080856001600160a01b03168560405161057d91906107e0565b600060405180830381855af49150503d80600081146105b8576040519150601f19603f3d011682016040523d82523d6000602084013e6105bd565b606091505b50915091506105ce868383876105d8565b9695505050505050565b60608315610647578251600003610640576001600160a01b0385163b6106405760405162461bcd60e51b815260206004820152601d60248201527f416464726573733a2063616c6c20746f206e6f6e2d636f6e7472616374000000604482015260640161014e565b5081610651565b6106518383610659565b949350505050565b8151156106695781518083602001fd5b8060405162461bcd60e51b815260040161014e91906107fc565b6000808585111561069357600080fd5b838611156106a057600080fd5b5050820193919092039150565b80356001600160a01b03811681146106c457600080fd5b919050565b6000602082840312156106db57600080fd5b6103f4826106ad565b634e487b7160e01b600052604160045260246000fd5b6000806040838503121561070d57600080fd5b610716836106ad565b9150602083013567ffffffffffffffff8082111561073357600080fd5b818501915085601f83011261074757600080fd5b813581811115610759576107596106e4565b604051601f8201601f19908116603f01168101908382118183101715610781576107816106e4565b8160405282815288602084870101111561079a57600080fd5b8260208601602083013760006020848301015280955050505050509250929050565b60005b838110156107d75781810151838201526020016107bf565b50506000910152565b600082516107f28184602087016107bc565b9190910192915050565b602081526000825180602084015261081b8160408501602087016107bc565b601f01601f1916919091016040019291505056fe416464726573733a206c6f772d6c6576656c2064656c65676174652063616c6c206661696c6564a26469706673582212203ee2f73ab410cffabdfe09f9ebcfce29461addacfddf586afaf2ba05c7d1b40864736f6c63430008130033b53127684a568b3173ae13b9f8a6016e243e63b6e8ee1178d6a717850b5d6103416464726573733a206c6f772d6c6576656c2064656c65676174652063616c6c206661696c6564b19546dff01e856fb3f010c267a7b1c60363cf8a4664e21cc89c26224620214e3e9c05fb0f9da4414e033bb9bf190a6e2072adf7e3077394fce683220513b8d7a2646970667358221220eeab0e4db527005c7a735883562f88d3a3a314ef5c9289c0185759c7c96091a564736f6c63430008130033",
  "devdoc": {
    "author": "Untangled Team",
    "events": {
      "Initialized(uint8)": {
        "details": "Triggered when the contract has been initialized or reinitialized."
      },
      "Paused(address)": {
        "details": "Emitted when the pause is triggered by `account`."
      },
      "RoleAdminChanged(bytes32,bytes32,bytes32)": {
        "details": "Emitted when `newAdminRole` is set as ``role``'s admin role, replacing `previousAdminRole` `DEFAULT_ADMIN_ROLE` is the starting admin for all roles, despite {RoleAdminChanged} not being emitted signaling this. _Available since v3.1._"
      },
      "RoleGranted(bytes32,address,address)": {
        "details": "Emitted when `account` is granted `role`. `sender` is the account that originated the contract call, an admin role bearer except when using {AccessControl-_setupRole}."
      },
      "RoleRevoked(bytes32,address,address)": {
        "details": "Emitted when `account` is revoked `role`. `sender` is the account that originated the contract call:   - if using `revokeRole`, it is the admin role bearer   - if using `renounceRole`, it is the role bearer (i.e. `account`)"
      },
      "Unpaused(address)": {
        "details": "Emitted when the pause is lifted by `account`."
      }
    },
    "kind": "dev",
    "methods": {
      "buyTokens(address,uint256)": {
        "params": {
          "currencyAmount": "Currency amount investor will pay",
          "tgeAddress": "SOT/JOT token sale instance"
        }
      },
      "getRoleAdmin(bytes32)": {
        "details": "Returns the admin role that controls `role`. See {grantRole} and {revokeRole}. To change a role's admin, use {_setRoleAdmin}."
      },
      "getRoleMember(bytes32,uint256)": {
        "details": "Returns one of the accounts that have `role`. `index` must be a value between 0 and {getRoleMemberCount}, non-inclusive. Role bearers are not sorted in any particular way, and their ordering may change at any point. WARNING: When using {getRoleMember} and {getRoleMemberCount}, make sure you perform all queries on the same block. See the following https://forum.openzeppelin.com/t/iterating-over-elements-on-enumerableset-in-openzeppelin-contracts/2296[forum post] for more information."
      },
      "getRoleMemberCount(bytes32)": {
        "details": "Returns the number of accounts that have `role`. Can be used together with {getRoleMember} to enumerate all bearers of a role."
      },
      "grantRole(bytes32,address)": {
        "details": "Grants `role` to `account`. If `account` had not been already granted `role`, emits a {RoleGranted} event. Requirements: - the caller must have ``role``'s admin role. May emit a {RoleGranted} event."
      },
      "hasRole(bytes32,address)": {
        "details": "Returns `true` if `account` has been granted `role`."
      },
      "initialTGEForJOT(address,address,uint8,bool,string)": {
        "params": {
          "issuerTokenController": "who acts as owner of note sale",
          "longSale": "Define this sale is long sale. Default true",
          "pool": "SecuritizationPool address where this sale belongs to",
          "saleType": "Contains sale type parameter",
          "ticker": "Prefix for note token symbol name. Ex: Saff_JOT"
        }
      },
      "initialTGEForSOT(address,address,uint8,bool,string)": {
        "params": {
          "issuerTokenController": "who acts as owner of note sale",
          "longSale": "Define this sale is long sale. Default true",
          "pool": "SecuritizationPool address where this sale belongs to",
          "saleType": "Contains sale type parameter",
          "ticker": "Prefix for note token symbol name. Ex: Saff_SOT"
        }
      },
      "newPoolInstance(bytes32,address,bytes)": {
        "details": "Creates a new instance of a securitization pool. Set msg sender as owner of the new pool",
        "params": {
          "params": "params data of the securitization pool"
        }
      },
      "paused()": {
        "details": "Returns true if the contract is paused, and false otherwise."
      },
      "registerPot(address)": {
        "details": "Register pot to pool instance",
        "params": {
          "pot": "Pool linked wallet"
        }
      },
      "renounceRole(bytes32,address)": {
        "details": "Revokes `role` from the calling account. Roles are often managed via {grantRole} and {revokeRole}: this function's purpose is to provide a mechanism for accounts to lose their privileges if they are compromised (such as when a trusted device is misplaced). If the calling account had been revoked `role`, emits a {RoleRevoked} event. Requirements: - the caller must be `account`. May emit a {RoleRevoked} event."
      },
      "revokeRole(bytes32,address)": {
        "details": "Revokes `role` from `account`. If `account` had been granted `role`, emits a {RoleRevoked} event. Requirements: - the caller must have ``role``'s admin role. May emit a {RoleRevoked} event."
      },
      "setUpTGEForJOT((address,address,uint256,bool,string,uint8),(uint256,uint256,uint256,uint256),uint256)": {
        "params": {
          "initialJOTAmount": "Minimum amount of JOT raised in currency before SOT can start",
          "saleParam": "Some parameters for new round token sale. Ex: openingTime, closeTime, totalCap...",
          "tgeParam": "Parameters for TGE"
        }
      },
      "setUpTGEForSOT((address,address,uint256,bool,string,uint8),(uint256,uint256,uint256,uint256),(uint32,uint32,uint32,uint32))": {
        "params": {
          "increasingInterestParam": "Increasing interest parameters",
          "saleParam": "Some parameters for new round token sale. Ex: openingTime, closeTime, totalCap...",
          "tgeParam": "TGE parameters"
        }
      },
      "supportsInterface(bytes4)": {
        "details": "See {IERC165-supportsInterface}."
      }
    },
    "title": "SecuritizationManager",
    "version": 1
  },
  "userdoc": {
    "kind": "user",
    "methods": {
      "buyTokens(address,uint256)": {
        "notice": "Investor bid for SOT or JOT token"
      },
      "hasAllowedUID(address)": {
        "notice": "Check if an user has valid UID type"
      },
      "initialTGEForJOT(address,address,uint8,bool,string)": {
        "notice": "sets up the initial token generation event (TGE) for the junior tranche (JOT) of a securitization pool"
      },
      "initialTGEForSOT(address,address,uint8,bool,string)": {
        "notice": "sets up the initial token generation event (TGE) for the junior tranche (SOT) of a securitization pool"
      },
      "newPoolInstance(bytes32,address,bytes)": {
        "notice": "Creates a new securitization pool"
      },
      "setUpTGEForJOT((address,address,uint256,bool,string,uint8),(uint256,uint256,uint256,uint256),uint256)": {
        "notice": "sets up the token generation event (TGE) for the junior tranche (JOT) of a securitization pool with additional configuration parameters"
      },
      "setUpTGEForSOT((address,address,uint256,bool,string,uint8),(uint256,uint256,uint256,uint256),(uint32,uint32,uint32,uint32))": {
        "notice": "Sets up the token generation event (TGE) for the senior tranche (SOT) of a securitization pool with additional configuration parameters"
      }
    },
    "notice": "You can use this contract for creating new pool, setting up note toke sale, buying note token",
    "version": 1
  },
  "storageLayout": {
    "storage": [
      {
        "astId": 720,
        "contract": "contracts/protocol/pool/SecuritizationManager.sol:SecuritizationManager",
        "label": "_initialized",
        "offset": 0,
        "slot": "0",
        "type": "t_uint8"
      },
      {
        "astId": 723,
        "contract": "contracts/protocol/pool/SecuritizationManager.sol:SecuritizationManager",
        "label": "_initializing",
        "offset": 1,
        "slot": "0",
        "type": "t_bool"
      },
      {
        "astId": 3561,
        "contract": "contracts/protocol/pool/SecuritizationManager.sol:SecuritizationManager",
        "label": "__gap",
        "offset": 0,
        "slot": "1",
        "type": "t_array(t_uint256)50_storage"
      },
      {
        "astId": 903,
        "contract": "contracts/protocol/pool/SecuritizationManager.sol:SecuritizationManager",
        "label": "_paused",
        "offset": 0,
        "slot": "51",
        "type": "t_bool"
      },
      {
        "astId": 1008,
        "contract": "contracts/protocol/pool/SecuritizationManager.sol:SecuritizationManager",
        "label": "__gap",
        "offset": 0,
        "slot": "52",
        "type": "t_array(t_uint256)49_storage"
      },
      {
        "astId": 1023,
        "contract": "contracts/protocol/pool/SecuritizationManager.sol:SecuritizationManager",
        "label": "_status",
        "offset": 0,
        "slot": "101",
        "type": "t_uint256"
      },
      {
        "astId": 1092,
        "contract": "contracts/protocol/pool/SecuritizationManager.sol:SecuritizationManager",
        "label": "__gap",
        "offset": 0,
        "slot": "102",
        "type": "t_array(t_uint256)49_storage"
      },
      {
        "astId": 3908,
        "contract": "contracts/protocol/pool/SecuritizationManager.sol:SecuritizationManager",
        "label": "__gap",
        "offset": 0,
        "slot": "151",
        "type": "t_array(t_uint256)50_storage"
      },
      {
        "astId": 184,
        "contract": "contracts/protocol/pool/SecuritizationManager.sol:SecuritizationManager",
        "label": "_roles",
        "offset": 0,
        "slot": "201",
        "type": "t_mapping(t_bytes32,t_struct(RoleData)179_storage)"
      },
      {
        "astId": 479,
        "contract": "contracts/protocol/pool/SecuritizationManager.sol:SecuritizationManager",
        "label": "__gap",
        "offset": 0,
        "slot": "202",
        "type": "t_array(t_uint256)49_storage"
      },
      {
        "astId": 33,
        "contract": "contracts/protocol/pool/SecuritizationManager.sol:SecuritizationManager",
        "label": "_roleMembers",
        "offset": 0,
        "slot": "251",
        "type": "t_mapping(t_bytes32,t_struct(AddressSet)5218_storage)"
      },
      {
        "astId": 143,
        "contract": "contracts/protocol/pool/SecuritizationManager.sol:SecuritizationManager",
        "label": "__gap",
        "offset": 0,
        "slot": "252",
        "type": "t_array(t_uint256)49_storage"
      },
      {
        "astId": 8433,
        "contract": "contracts/protocol/pool/SecuritizationManager.sol:SecuritizationManager",
        "label": "__gap",
        "offset": 0,
        "slot": "301",
        "type": "t_array(t_uint256)50_storage"
      },
      {
        "astId": 8172,
        "contract": "contracts/protocol/pool/SecuritizationManager.sol:SecuritizationManager",
        "label": "factoryAdmin",
        "offset": 0,
        "slot": "351",
        "type": "t_address"
      },
      {
        "astId": 8268,
        "contract": "contracts/protocol/pool/SecuritizationManager.sol:SecuritizationManager",
        "label": "__gap",
        "offset": 0,
        "slot": "352",
        "type": "t_array(t_uint256)50_storage"
      },
      {
        "astId": 13779,
        "contract": "contracts/protocol/pool/SecuritizationManager.sol:SecuritizationManager",
        "label": "registry",
        "offset": 0,
        "slot": "402",
        "type": "t_contract(Registry)15444"
      },
      {
        "astId": 13784,
        "contract": "contracts/protocol/pool/SecuritizationManager.sol:SecuritizationManager",
        "label": "isExistingPools",
        "offset": 0,
        "slot": "403",
        "type": "t_mapping(t_address,t_bool)"
      },
      {
        "astId": 13788,
        "contract": "contracts/protocol/pool/SecuritizationManager.sol:SecuritizationManager",
        "label": "pools",
        "offset": 0,
        "slot": "404",
        "type": "t_array(t_address)dyn_storage"
      },
      {
        "astId": 13793,
        "contract": "contracts/protocol/pool/SecuritizationManager.sol:SecuritizationManager",
        "label": "potToPool",
        "offset": 0,
        "slot": "405",
        "type": "t_mapping(t_address,t_address)"
      },
      {
        "astId": 13798,
        "contract": "contracts/protocol/pool/SecuritizationManager.sol:SecuritizationManager",
        "label": "isExistingTGEs",
        "offset": 0,
        "slot": "406",
        "type": "t_mapping(t_address,t_bool)"
      },
      {
        "astId": 13802,
        "contract": "contracts/protocol/pool/SecuritizationManager.sol:SecuritizationManager",
        "label": "__gap",
        "offset": 0,
        "slot": "407",
        "type": "t_array(t_uint256)44_storage"
      },
      {
        "astId": 13854,
        "contract": "contracts/protocol/pool/SecuritizationManager.sol:SecuritizationManager",
        "label": "allowedUIDTypes",
        "offset": 0,
        "slot": "451",
        "type": "t_array(t_uint256)dyn_storage"
      },
      {
        "astId": 15000,
        "contract": "contracts/protocol/pool/SecuritizationManager.sol:SecuritizationManager",
        "label": "__gap",
        "offset": 0,
        "slot": "452",
        "type": "t_array(t_uint256)49_storage"
      }
    ],
    "types": {
      "t_address": {
        "encoding": "inplace",
        "label": "address",
        "numberOfBytes": "20"
      },
      "t_array(t_address)dyn_storage": {
        "base": "t_address",
        "encoding": "dynamic_array",
        "label": "address[]",
        "numberOfBytes": "32"
      },
      "t_array(t_bytes32)dyn_storage": {
        "base": "t_bytes32",
        "encoding": "dynamic_array",
        "label": "bytes32[]",
        "numberOfBytes": "32"
      },
      "t_array(t_uint256)44_storage": {
        "base": "t_uint256",
        "encoding": "inplace",
        "label": "uint256[44]",
        "numberOfBytes": "1408"
      },
      "t_array(t_uint256)49_storage": {
        "base": "t_uint256",
        "encoding": "inplace",
        "label": "uint256[49]",
        "numberOfBytes": "1568"
      },
      "t_array(t_uint256)50_storage": {
        "base": "t_uint256",
        "encoding": "inplace",
        "label": "uint256[50]",
        "numberOfBytes": "1600"
      },
      "t_array(t_uint256)dyn_storage": {
        "base": "t_uint256",
        "encoding": "dynamic_array",
        "label": "uint256[]",
        "numberOfBytes": "32"
      },
      "t_bool": {
        "encoding": "inplace",
        "label": "bool",
        "numberOfBytes": "1"
      },
      "t_bytes32": {
        "encoding": "inplace",
        "label": "bytes32",
        "numberOfBytes": "32"
      },
      "t_contract(Registry)15444": {
        "encoding": "inplace",
        "label": "contract Registry",
        "numberOfBytes": "20"
      },
      "t_mapping(t_address,t_address)": {
        "encoding": "mapping",
        "key": "t_address",
        "label": "mapping(address => address)",
        "numberOfBytes": "32",
        "value": "t_address"
      },
      "t_mapping(t_address,t_bool)": {
        "encoding": "mapping",
        "key": "t_address",
        "label": "mapping(address => bool)",
        "numberOfBytes": "32",
        "value": "t_bool"
      },
      "t_mapping(t_bytes32,t_struct(AddressSet)5218_storage)": {
        "encoding": "mapping",
        "key": "t_bytes32",
        "label": "mapping(bytes32 => struct EnumerableSetUpgradeable.AddressSet)",
        "numberOfBytes": "32",
        "value": "t_struct(AddressSet)5218_storage"
      },
      "t_mapping(t_bytes32,t_struct(RoleData)179_storage)": {
        "encoding": "mapping",
        "key": "t_bytes32",
        "label": "mapping(bytes32 => struct AccessControlUpgradeable.RoleData)",
        "numberOfBytes": "32",
        "value": "t_struct(RoleData)179_storage"
      },
      "t_mapping(t_bytes32,t_uint256)": {
        "encoding": "mapping",
        "key": "t_bytes32",
        "label": "mapping(bytes32 => uint256)",
        "numberOfBytes": "32",
        "value": "t_uint256"
      },
      "t_struct(AddressSet)5218_storage": {
        "encoding": "inplace",
        "label": "struct EnumerableSetUpgradeable.AddressSet",
        "members": [
          {
            "astId": 5217,
            "contract": "contracts/protocol/pool/SecuritizationManager.sol:SecuritizationManager",
            "label": "_inner",
            "offset": 0,
            "slot": "0",
            "type": "t_struct(Set)4903_storage"
          }
        ],
        "numberOfBytes": "64"
      },
      "t_struct(RoleData)179_storage": {
        "encoding": "inplace",
        "label": "struct AccessControlUpgradeable.RoleData",
        "members": [
          {
            "astId": 176,
            "contract": "contracts/protocol/pool/SecuritizationManager.sol:SecuritizationManager",
            "label": "members",
            "offset": 0,
            "slot": "0",
            "type": "t_mapping(t_address,t_bool)"
          },
          {
            "astId": 178,
            "contract": "contracts/protocol/pool/SecuritizationManager.sol:SecuritizationManager",
            "label": "adminRole",
            "offset": 0,
            "slot": "1",
            "type": "t_bytes32"
          }
        ],
        "numberOfBytes": "64"
      },
      "t_struct(Set)4903_storage": {
        "encoding": "inplace",
        "label": "struct EnumerableSetUpgradeable.Set",
        "members": [
          {
            "astId": 4898,
            "contract": "contracts/protocol/pool/SecuritizationManager.sol:SecuritizationManager",
            "label": "_values",
            "offset": 0,
            "slot": "0",
            "type": "t_array(t_bytes32)dyn_storage"
          },
          {
            "astId": 4902,
            "contract": "contracts/protocol/pool/SecuritizationManager.sol:SecuritizationManager",
            "label": "_indexes",
            "offset": 0,
            "slot": "1",
            "type": "t_mapping(t_bytes32,t_uint256)"
          }
        ],
        "numberOfBytes": "64"
      },
      "t_uint256": {
        "encoding": "inplace",
        "label": "uint256",
        "numberOfBytes": "32"
      },
      "t_uint8": {
        "encoding": "inplace",
        "label": "uint8",
        "numberOfBytes": "1"
      }
    }
  }
}