{
  "address": "0xECd3009b34b5D5551ABA7326b5590ebc80cBc092",
  "abi": [
    {
      "anonymous": false,
      "inputs": [
        {
          "indexed": false,
          "internalType": "uint8",
          "name": "version",
          "type": "uint8"
        }
      ],
      "name": "Initialized",
      "type": "event"
    },
    {
      "anonymous": false,
      "inputs": [
        {
          "indexed": false,
          "internalType": "address",
          "name": "account",
          "type": "address"
        }
      ],
      "name": "Paused",
      "type": "event"
    },
    {
      "anonymous": false,
      "inputs": [
        {
          "indexed": true,
          "internalType": "bytes32",
          "name": "role",
          "type": "bytes32"
        },
        {
          "indexed": true,
          "internalType": "address",
          "name": "account",
          "type": "address"
        },
        {
          "indexed": true,
          "internalType": "address",
          "name": "sender",
          "type": "address"
        }
      ],
      "name": "RoleGranted",
      "type": "event"
    },
    {
      "anonymous": false,
      "inputs": [
        {
          "indexed": true,
          "internalType": "bytes32",
          "name": "role",
          "type": "bytes32"
        },
        {
          "indexed": true,
          "internalType": "address",
          "name": "account",
          "type": "address"
        },
        {
          "indexed": true,
          "internalType": "address",
          "name": "sender",
          "type": "address"
        }
      ],
      "name": "RoleRevoked",
      "type": "event"
    },
    {
      "anonymous": false,
      "inputs": [
        {
          "indexed": false,
          "internalType": "address",
          "name": "account",
          "type": "address"
        }
      ],
      "name": "Unpaused",
      "type": "event"
    },
    {
      "anonymous": false,
      "inputs": [
        {
          "indexed": false,
          "internalType": "uint256",
          "name": "_debtCeiling",
          "type": "uint256"
        }
      ],
      "name": "UpdateDebtCeiling",
      "type": "event"
    },
    {
      "anonymous": false,
      "inputs": [
        {
          "indexed": false,
          "internalType": "uint32",
          "name": "_interestRateSOT",
          "type": "uint32"
        }
      ],
      "name": "UpdateInterestRateSOT",
      "type": "event"
    },
    {
      "anonymous": false,
      "inputs": [
        {
          "indexed": false,
          "internalType": "uint32",
          "name": "_mintFirstLoss",
          "type": "uint32"
        }
      ],
      "name": "UpdateMintFirstLoss",
      "type": "event"
    },
    {
      "anonymous": false,
      "inputs": [
        {
          "indexed": false,
          "internalType": "uint256",
          "name": "newTimestamp",
          "type": "uint256"
        }
      ],
      "name": "UpdateOpeningBlockTimestamp",
      "type": "event"
    },
    {
      "anonymous": false,
      "inputs": [
        {
          "indexed": true,
          "internalType": "address",
          "name": "user",
          "type": "address"
        },
        {
          "indexed": false,
          "internalType": "uint256",
          "name": "currencyAmount",
          "type": "uint256"
        }
      ],
      "name": "UpdatePaidPrincipalAmountSOTByInvestor",
      "type": "event"
    },
    {
      "anonymous": false,
      "inputs": [
        {
          "indexed": false,
          "internalType": "address",
          "name": "registry",
          "type": "address"
        }
      ],
      "name": "UpdateRegistry",
      "type": "event"
    },
    {
      "anonymous": false,
      "inputs": [
        {
          "indexed": false,
          "internalType": "uint256",
          "name": "currencyAmount",
          "type": "uint256"
        }
      ],
      "name": "UpdateReserve",
      "type": "event"
    },
    {
      "anonymous": false,
      "inputs": [
        {
          "indexed": false,
          "internalType": "address",
          "name": "tge",
          "type": "address"
        },
        {
          "indexed": false,
          "internalType": "enum Configuration.NOTE_TOKEN_TYPE",
          "name": "noteType",
          "type": "uint8"
        }
      ],
      "name": "UpdateTGEAddress",
      "type": "event"
    },
    {
      "anonymous": false,
      "inputs": [
        {
          "indexed": false,
          "internalType": "address",
          "name": "originatorAddress",
          "type": "address"
        },
        {
          "indexed": false,
          "internalType": "uint256",
          "name": "amount",
          "type": "uint256"
        }
      ],
      "name": "Withdraw",
      "type": "event"
    },
    {
      "inputs": [],
      "name": "checkMinFirstLost",
      "outputs": [
        {
          "internalType": "bool",
          "name": "",
          "type": "bool"
        }
      ],
      "stateMutability": "view",
      "type": "function"
    },
    {
      "inputs": [
        {
          "internalType": "address",
          "name": "recipientWallet",
          "type": "address"
        }
      ],
      "name": "claimCashRemain",
      "outputs": [],
      "stateMutability": "nonpayable",
      "type": "function"
    },
    {
      "inputs": [],
      "name": "debtCeiling",
      "outputs": [
        {
          "internalType": "uint256",
          "name": "",
          "type": "uint256"
        }
      ],
      "stateMutability": "view",
      "type": "function"
    },
    {
      "inputs": [
        {
          "internalType": "uint256",
          "name": "currencyAmount",
          "type": "uint256"
        }
      ],
      "name": "decreaseReserve",
      "outputs": [],
      "stateMutability": "nonpayable",
      "type": "function"
    },
    {
      "inputs": [
        {
          "internalType": "address",
          "name": "usr",
          "type": "address"
        },
        {
          "internalType": "uint256",
          "name": "currencyAmount",
          "type": "uint256"
        }
      ],
      "name": "disburse",
      "outputs": [],
      "stateMutability": "nonpayable",
      "type": "function"
    },
    {
      "inputs": [],
      "name": "getFunctionSignatures",
      "outputs": [
        {
          "internalType": "bytes4[]",
          "name": "",
          "type": "bytes4[]"
        }
      ],
      "stateMutability": "view",
      "type": "function"
    },
    {
      "inputs": [
        {
          "internalType": "bytes32",
          "name": "role",
          "type": "bytes32"
        },
        {
          "internalType": "address",
          "name": "account",
          "type": "address"
        }
      ],
      "name": "grantRole",
      "outputs": [],
      "stateMutability": "nonpayable",
      "type": "function"
    },
    {
      "inputs": [],
      "name": "hasFinishedRedemption",
      "outputs": [
        {
          "internalType": "bool",
          "name": "",
          "type": "bool"
        }
      ],
      "stateMutability": "view",
      "type": "function"
    },
    {
      "inputs": [
        {
          "internalType": "bytes32",
          "name": "role",
          "type": "bytes32"
        },
        {
          "internalType": "address",
          "name": "account",
          "type": "address"
        }
      ],
      "name": "hasRole",
      "outputs": [
        {
          "internalType": "bool",
          "name": "",
          "type": "bool"
        }
      ],
      "stateMutability": "view",
      "type": "function"
    },
    {
      "inputs": [
        {
          "internalType": "uint256",
          "name": "currencyAmount",
          "type": "uint256"
        }
      ],
      "name": "increaseReserve",
      "outputs": [],
      "stateMutability": "nonpayable",
      "type": "function"
    },
    {
      "inputs": [
        {
          "internalType": "uint256",
          "name": "amount",
          "type": "uint256"
        }
      ],
      "name": "increaseTotalAssetRepaidCurrency",
      "outputs": [],
      "stateMutability": "nonpayable",
      "type": "function"
    },
    {
      "inputs": [
        {
          "internalType": "address",
          "name": "_tgeAddress",
          "type": "address"
        },
        {
          "internalType": "enum Configuration.NOTE_TOKEN_TYPE",
          "name": "_noteType",
          "type": "uint8"
        }
      ],
      "name": "injectTGEAddress",
      "outputs": [],
      "stateMutability": "nonpayable",
      "type": "function"
    },
    {
      "inputs": [
        {
          "internalType": "bytes",
          "name": "params",
          "type": "bytes"
        }
      ],
      "name": "installExtension",
      "outputs": [],
      "stateMutability": "nonpayable",
      "type": "function"
    },
    {
      "inputs": [],
      "name": "interestRateSOT",
      "outputs": [
        {
          "internalType": "uint32",
          "name": "",
          "type": "uint32"
        }
      ],
      "stateMutability": "view",
      "type": "function"
    },
    {
      "inputs": [],
      "name": "isClosedState",
      "outputs": [
        {
          "internalType": "bool",
          "name": "",
          "type": "bool"
        }
      ],
      "stateMutability": "view",
      "type": "function"
    },
    {
      "inputs": [],
      "name": "isDebtCeilingValid",
      "outputs": [
        {
          "internalType": "bool",
          "name": "",
          "type": "bool"
        }
      ],
      "stateMutability": "view",
      "type": "function"
    },
    {
      "inputs": [
        {
          "internalType": "address",
          "name": "account",
          "type": "address"
        }
      ],
      "name": "isOwner",
      "outputs": [
        {
          "internalType": "bool",
          "name": "",
          "type": "bool"
        }
      ],
      "stateMutability": "view",
      "type": "function"
    },
    {
      "inputs": [],
      "name": "jotToken",
      "outputs": [
        {
          "internalType": "address",
          "name": "",
          "type": "address"
        }
      ],
      "stateMutability": "view",
      "type": "function"
    },
    {
      "inputs": [],
      "name": "minFirstLossCushion",
      "outputs": [
        {
          "internalType": "uint32",
          "name": "",
          "type": "uint32"
        }
      ],
      "stateMutability": "view",
      "type": "function"
    },
    {
      "inputs": [],
      "name": "openingBlockTimestamp",
      "outputs": [
        {
          "internalType": "uint64",
          "name": "",
          "type": "uint64"
        }
      ],
      "stateMutability": "view",
      "type": "function"
    },
    {
      "inputs": [],
      "name": "paidPrincipalAmountSOT",
      "outputs": [
        {
          "internalType": "uint256",
          "name": "",
          "type": "uint256"
        }
      ],
      "stateMutability": "view",
      "type": "function"
    },
    {
      "inputs": [
        {
          "internalType": "address",
          "name": "user",
          "type": "address"
        }
      ],
      "name": "paidPrincipalAmountSOTByInvestor",
      "outputs": [
        {
          "internalType": "uint256",
          "name": "",
          "type": "uint256"
        }
      ],
      "stateMutability": "view",
      "type": "function"
    },
    {
      "inputs": [],
      "name": "pause",
      "outputs": [],
      "stateMutability": "nonpayable",
      "type": "function"
    },
    {
      "inputs": [],
      "name": "paused",
      "outputs": [
        {
          "internalType": "bool",
          "name": "",
          "type": "bool"
        }
      ],
      "stateMutability": "view",
      "type": "function"
    },
    {
      "inputs": [],
      "name": "pot",
      "outputs": [
        {
          "internalType": "address",
          "name": "",
          "type": "address"
        }
      ],
      "stateMutability": "view",
      "type": "function"
    },
    {
      "inputs": [],
      "name": "principalAmountSOT",
      "outputs": [
        {
          "internalType": "uint256",
          "name": "",
          "type": "uint256"
        }
      ],
      "stateMutability": "view",
      "type": "function"
    },
    {
      "inputs": [],
      "name": "registry",
      "outputs": [
        {
          "internalType": "contract Registry",
          "name": "",
          "type": "address"
        }
      ],
      "stateMutability": "view",
      "type": "function"
    },
    {
      "inputs": [
        {
          "internalType": "bytes32",
          "name": "role",
          "type": "bytes32"
        },
        {
          "internalType": "address",
          "name": "account",
          "type": "address"
        }
      ],
      "name": "renounceRole",
      "outputs": [],
      "stateMutability": "nonpayable",
      "type": "function"
    },
    {
      "inputs": [],
      "name": "reserve",
      "outputs": [
        {
          "internalType": "uint256",
          "name": "",
          "type": "uint256"
        }
      ],
      "stateMutability": "view",
      "type": "function"
    },
    {
      "inputs": [
        {
          "internalType": "bytes32",
          "name": "role",
          "type": "bytes32"
        },
        {
          "internalType": "address",
          "name": "account",
          "type": "address"
        }
      ],
      "name": "revokeRole",
      "outputs": [],
      "stateMutability": "nonpayable",
      "type": "function"
    },
    {
      "inputs": [],
      "name": "secondTGEAddress",
      "outputs": [
        {
          "internalType": "address",
          "name": "",
          "type": "address"
        }
      ],
      "stateMutability": "view",
      "type": "function"
    },
    {
      "inputs": [
        {
          "internalType": "uint256",
          "name": "_debtCeiling",
          "type": "uint256"
        }
      ],
      "name": "setDebtCeiling",
      "outputs": [],
      "stateMutability": "nonpayable",
      "type": "function"
    },
    {
      "inputs": [
        {
          "internalType": "uint32",
          "name": "_interestRateSOT",
          "type": "uint32"
        }
      ],
      "name": "setInterestRateForSOT",
      "outputs": [],
      "stateMutability": "nonpayable",
      "type": "function"
    },
    {
      "inputs": [
        {
          "internalType": "uint32",
          "name": "_minFirstLossCushion",
          "type": "uint32"
        }
      ],
      "name": "setMinFirstLossCushion",
      "outputs": [],
      "stateMutability": "nonpayable",
      "type": "function"
    },
    {
      "inputs": [
        {
          "internalType": "address",
          "name": "_pot",
          "type": "address"
        }
      ],
      "name": "setPot",
      "outputs": [],
      "stateMutability": "nonpayable",
      "type": "function"
    },
    {
      "inputs": [],
      "name": "sotToken",
      "outputs": [
        {
          "internalType": "address",
          "name": "",
          "type": "address"
        }
      ],
      "stateMutability": "view",
      "type": "function"
    },
    {
      "inputs": [
        {
          "internalType": "uint64",
          "name": "_termLengthInSeconds",
          "type": "uint64"
        },
        {
          "internalType": "uint256",
          "name": "_principalAmountForSOT",
          "type": "uint256"
        },
        {
          "internalType": "uint32",
          "name": "_interestRateForSOT",
          "type": "uint32"
        },
        {
          "internalType": "uint64",
          "name": "_timeStartEarningInterest",
          "type": "uint64"
        }
      ],
      "name": "startCycle",
      "outputs": [],
      "stateMutability": "nonpayable",
      "type": "function"
    },
    {
      "inputs": [],
      "name": "state",
      "outputs": [
        {
          "internalType": "enum ISecuritizationPoolStorage.CycleState",
          "name": "",
          "type": "uint8"
        }
      ],
      "stateMutability": "view",
      "type": "function"
    },
    {
      "inputs": [
        {
          "internalType": "bytes4",
          "name": "interfaceId",
          "type": "bytes4"
        }
      ],
      "name": "supportsInterface",
      "outputs": [
        {
          "internalType": "bool",
          "name": "",
          "type": "bool"
        }
      ],
      "stateMutability": "view",
      "type": "function"
    },
    {
      "inputs": [],
      "name": "termLengthInSeconds",
      "outputs": [
        {
          "internalType": "uint64",
          "name": "",
          "type": "uint64"
        }
      ],
      "stateMutability": "view",
      "type": "function"
    },
    {
      "inputs": [],
      "name": "tgeAddress",
      "outputs": [
        {
          "internalType": "address",
          "name": "",
          "type": "address"
        }
      ],
      "stateMutability": "view",
      "type": "function"
    },
    {
      "inputs": [],
      "name": "totalAssetRepaidCurrency",
      "outputs": [
        {
          "internalType": "uint256",
          "name": "",
          "type": "uint256"
        }
      ],
      "stateMutability": "view",
      "type": "function"
    },
    {
      "inputs": [],
      "name": "underlyingCurrency",
      "outputs": [
        {
          "internalType": "address",
          "name": "",
          "type": "address"
        }
      ],
      "stateMutability": "view",
      "type": "function"
    },
    {
      "inputs": [],
      "name": "unpause",
      "outputs": [],
      "stateMutability": "nonpayable",
      "type": "function"
    },
    {
      "inputs": [],
      "name": "validatorRequired",
      "outputs": [
        {
          "internalType": "bool",
          "name": "",
          "type": "bool"
        }
      ],
      "stateMutability": "view",
      "type": "function"
    },
    {
      "inputs": [
        {
          "internalType": "address",
          "name": "to",
          "type": "address"
        },
        {
          "internalType": "uint256",
          "name": "amount",
          "type": "uint256"
        }
      ],
      "name": "withdraw",
      "outputs": [],
      "stateMutability": "nonpayable",
      "type": "function"
    }
  ],
  "transactionHash": "0x298b713e3a53ca524c8fb0bc56174a8540dca10d294f4ba2767b1d0f1d0af68c",
  "args": [],
  "numDeployments": 1,
  "solcInputHash": "4d6d44d4245a9cded6f107a77c147eb2",
  "bytecode": "0x608060405234801561001057600080fd5b50613865806100206000396000f3fe608060405234801561001057600080fd5b506004361061028a5760003560e01c80637b1039991161015c578063b8cd9b00116100ce578063d547741f11610087578063d547741f1461051f578063dd688b0e14610532578063e1c84ea41461053a578063ed34889514610542578063f3fef3a314610555578063febd60181461056857600080fd5b8063b8cd9b00146104cc578063bff8a36d146104d4578063c19d93fb146104e7578063c6cb67a6146104fc578063cd3293de1461050f578063cee7b6a11461051757600080fd5b806390071cf31161012057806390071cf314610463578063901617051461047657806391d1485414610489578063ade0ea6d1461049c578063b09df36a146104a4578063b1511cc9146104b957600080fd5b80637b103999146104255780637f3bd56e1461042d578063815d6ddf146104405780638456cb59146104535780638fd6b71e1461045b57600080fd5b80633b2f880c116102005780635c975abb116101b95780635c975abb146103da5780636456a3ee146103f25780636ee44c4c146103fa57806373ffe3c71461040257806375b1bce71461041557806378d29d551461041d57600080fd5b80633b2f880c1461036d5780633f4ba83a146103805780633ffebce4146103885780634020c8d1146103a9578063477035d1146103b15780634ba2363a146103d257600080fd5b80632b71b450116102525780632b71b450146102fc5780632bb14ff0146103045780632f2ff15d146103215780632f54bf6e14610334578063326cd9701461034757806336568abe1461035a57600080fd5b806301ffc9a71461028f5780630bc6bffc146102b75780631fbf7c3e146102d7578063206c1765146102ec578063221dc593146102f4575b600080fd5b6102a261029d3660046132ab565b610570565b60405190151581526020015b60405180910390f35b6102bf61059b565b6040516001600160a01b0390911681526020016102ae565b6102ea6102e53660046132d5565b6105b7565b005b6102a2610760565b6102bf610801565b6102bf61081d565b61030c6108a8565b60405163ffffffff90911681526020016102ae565b6102ea61032f366004613303565b6108c1565b6102a2610342366004613333565b610955565b6102ea610355366004613366565b610981565b6102ea610368366004613303565b610a68565b6102ea61037b366004613417565b610ae2565b6102ea610d86565b61039b610396366004613333565b610dae565b6040519081526020016102ae565b6102a2610dda565b6103b9610ded565b60405167ffffffffffffffff90911681526020016102ae565b6102bf610e14565b6000805160206137f08339815191525460ff166102a2565b6102bf610e30565b6103b9610e4e565b6102ea61041036600461345b565b610e72565b6102a2610eb5565b6102a261106b565b6102bf61108e565b6102ea61043b366004613478565b6110bc565b6102ea61044e3660046134c1565b611238565b6102ea611706565b61030c611718565b6102ea610471366004613333565b611731565b6102ea6104843660046132d5565b6118ef565b6102a2610497366004613303565b61197d565b61039b6119b2565b6104ac6119c5565b6040516102ae9190613510565b6102ea6104c73660046132d5565b612061565b61039b6120a1565b6102ea6104e23660046132d5565b6120b4565b6104ef6121a8565b6040516102ae9190613574565b6102ea61050a36600461345b565b6121be565b61039b61229b565b61039b6122ae565b6102ea61052d366004613303565b6122c1565b6102a2612352565b61039b6124a2565b6102ea610550366004613333565b6124b5565b6102ea610563366004613478565b6126e6565b6102bf612a38565b60006001600160e01b03198216630b2e492b60e01b1480610595575061059582612a43565b92915050565b60006105a5612a86565b600901546001600160a01b0316919050565b6105bf612aaa565b6105d86105ca61108e565b6001600160a01b0316612afd565b6001600160a01b0316336001600160a01b03161480610620575061060b6105fd61108e565b6001600160a01b0316612b0a565b6001600160a01b0316336001600160a01b0316145b6106aa5760405162461bcd60e51b815260206004820152604a60248201527f53656375726974697a6174696f6e506f6f6c3a2043616c6c6572206d7573742060448201527f62652053656375726974697a6174696f6e4d616e61676572206f72204e6f7465606482015269151bdad95b95985d5b1d60b21b608482015260a4015b60405180910390fd5b60006106b4612a86565b90508181600a01546106c691906135a4565b600a8201556106d3610760565b61071f5760405162461bcd60e51b815260206004820152601d60248201527f4d696e46697273744c6f7373206973206e6f742073617469736669656400000060448201526064016106a1565b7fb2209630cc27a5f36fad66f0e873c886ed480b2fb7613885f5914d723acd747281600a015460405161075491815260200190565b60405180910390a15050565b60008061077c61076e61108e565b6001600160a01b0316612b17565b604051630129ecc560e61b81523060048201529091506001600160a01b03821690634a7b314090602401602060405180830381865afa1580156107c3573d6000803e3d6000fd5b505050506040513d601f19601f820116820180604052508101906107e791906135b7565b6107ef612a86565b600b015463ffffffff16111592915050565b600061080b612a86565b600601546001600160a01b0316919050565b600080610828610801565b90506001600160a01b03811661084057600091505090565b806001600160a01b031663fc0c546a6040518163ffffffff1660e01b8152600401602060405180830381865afa15801561087e573d6000803e3d6000fd5b505050506040513d601f19601f820116820180604052508101906108a291906135d0565b91505090565b60006108b2612a86565b600f015463ffffffff16919050565b336108cb81610955565b6108e75760405162461bcd60e51b81526004016106a1906135ed565b6001600160a01b038216600081815260008051602061381083398151915260208181526040808420888552909152808320805460ff191660011790555190923392909187917f2f8788117e7eff1d82e926ec794901d17c78024a50270940304540a733656f0d91a450505050565b60006105957fb19546dff01e856fb3f010c267a7b1c60363cf8a4664e21cc89c26224620214e8361197d565b6000309050306001600160a01b0316816001600160a01b03166346c715fa6040518163ffffffff1660e01b8152600401602060405180830381865afa1580156109ce573d6000803e3d6000fd5b505050506040513d601f19601f820116820180604052508101906109f291906135d0565b6001600160a01b031603610a485760405162461bcd60e51b815260206004820152601860248201527f4f6e6c792063616c6c20696e2074617267657420706f6f6c000000000000000060448201526064016106a1565b610a6482806020019051810190610a5f9190613642565b612b24565b5050565b6001600160a01b0381163314610ad85760405162461bcd60e51b815260206004820152602f60248201527f416363657373436f6e74726f6c3a2063616e206f6e6c792072656e6f756e636560448201526e103937b632b9903337b91039b2b63360891b60648201526084016106a1565b610a648282612bf2565b610aea612aaa565b6000610af46121a8565b90506002816003811115610b0a57610b0a61355e565b14158015610b2a57506003816003811115610b2757610b2761355e565b14155b610b765760405162461bcd60e51b815260206004820152601a60248201527f4e6f7420696e2069737375696e6720746f6b656e20737461676500000000000060448201526064016106a1565b610b9133610b8261108e565b6001600160a01b031690612c5c565b6001600160a01b038316610be75760405162461bcd60e51b815260206004820181905260248201527f53656375726974697a6174696f6e506f6f6c3a2041646472657373207a65726f60448201526064016106a1565b6000836001600160a01b031663fc0c546a6040518163ffffffff1660e01b8152600401602060405180830381865afa158015610c27573d6000803e3d6000fd5b505050506040513d601f19601f82011682018060405250810190610c4b91906135d0565b90506001600160a01b038116610ca35760405162461bcd60e51b815260206004820181905260248201527f53656375726974697a6174696f6e506f6f6c3a2041646472657373207a65726f60448201526064016106a1565b6000610cad612a86565b90506000846001811115610cc357610cc361355e565b03610d01576005810180546001600160a01b038088166001600160a01b03199283161790925560078301805492851692909116919091179055610d36565b6006810180546001600160a01b038088166001600160a01b031992831617909255600883018054928516929091169190911790555b60138101805460ff191660011790556040517fd7700ad439dd15338e0f5a60b6f9f3b5faa94c4302741db1afcdb7fa00041a5990610d7790879087906136bf565b60405180910390a15050505050565b610da430335b610d9461108e565b6001600160a01b03169190612cd1565b610dac612e60565b565b6000610db8612a86565b6001600160a01b03909216600090815260119290920160205250604090205490565b6000610de4612a86565b5460ff16919050565b600080610df8612a86565b600b0154640100000000900467ffffffffffffffff1692915050565b6000610e1e612a86565b600c01546001600160a01b0316919050565b600080610e3b612a86565b600501546001600160a01b031692915050565b6000610e58612a86565b600b0154600160601b900467ffffffffffffffff16919050565b610e7a612aaa565b610e8261106b565b15610e9f5760405162461bcd60e51b81526004016106a1906136ec565b610ea93033610d8c565b610eb281612ec0565b50565b600080610ec0612a38565b90506001600160a01b03811615610f8c57806001600160a01b03166318160ddd6040518163ffffffff1660e01b8152600401602060405180830381865afa158015610f0f573d6000803e3d6000fd5b505050506040513d601f19601f82011682018060405250810190610f3391906135b7565b15610f8c5760405162461bcd60e51b8152602060048201526024808201527f53656375726974697a6174696f6e506f6f6c3a20534f54207374696c6c20726560448201526336b0b4b760e11b60648201526084016106a1565b6000610f9661081d565b90506001600160a01b0381161561106257806001600160a01b03166318160ddd6040518163ffffffff1660e01b8152600401602060405180830381865afa158015610fe5573d6000803e3d6000fd5b505050506040513d601f19601f8201168201806040525081019061100991906135b7565b156110625760405162461bcd60e51b8152602060048201526024808201527f53656375726974697a6174696f6e506f6f6c3a204a4f54207374696c6c20726560448201526336b0b4b760e11b60648201526084016106a1565b60019250505090565b600060036110776121a8565b60038111156110885761108861355e565b14905090565b7f5f6bd0daaaf246715f06ec0ea7e99af4468b70381a38e1f10cb19776ed17ce00546001600160a01b031690565b60006110c6612a86565b90506110d36105fd61108e565b6001600160a01b0316336001600160a01b03161461114d5760405162461bcd60e51b815260206004820152603160248201527f53656375726974697a6174696f6e506f6f6c3a2043616c6c6572206d75737420604482015270189948139bdd19551bdad95b95985d5b1d607a1b60648201526084016106a1565b6009810154600c8201546040516323b872dd60e01b81526001600160a01b0391821660048201528582166024820152604481018590529116906323b872dd906064016020604051808303816000875af11580156111ae573d6000803e3d6000fd5b505050506040513d601f19601f820116820180604052508101906111d29190613734565b6112335760405162461bcd60e51b815260206004820152602c60248201527f53656375726974697a6174696f6e506f6f6c3a2063757272656e63792d74726160448201526b1b9cd9995c8b59985a5b195960a21b60648201526084016106a1565b505050565b611240612aaa565b611248612f9f565b3361125281610955565b61126e5760405162461bcd60e51b81526004016106a1906135ed565b60006112786121a8565b9050600281600381111561128e5761128e61355e565b141580156112ae575060038160038111156112ab576112ab61355e565b14155b6112fa5760405162461bcd60e51b815260206004820152601a60248201527f4e6f7420696e2069737375696e6720746f6b656e20737461676500000000000060448201526064016106a1565b60008667ffffffffffffffff16116113605760405162461bcd60e51b8152602060048201526024808201527f53656375726974697a6174696f6e506f6f6c3a205465726d206c656e677468206044820152630697320360e41b60648201526084016106a1565b600061136a612a86565b600b8101805467ffffffffffffffff8a16600160601b0267ffffffffffffffff60601b19909116179055600d810187905560138101805460ff1916600217905560058101549091506001600160a01b03161561159f5760058101546040516351c5295360e11b815263ffffffff8716600482015267ffffffffffffffff808a166024830152861660448201526001600160a01b0390911690819063a38a52a690606401600060405180830381600087803b15801561142757600080fd5b505af115801561143b573d6000803e3d6000fd5b50505060058301546040805163b3f05b9760e01b815290516001600160a01b03909216925063b3f05b979160048083019260209291908290030181865afa15801561148a573d6000803e3d6000fd5b505050506040513d601f19601f820116820180604052508101906114ae9190613734565b61151f576005820154600c830154604051632b8093bd60e01b8152600060048201526001600160a01b039182166024820152911690632b8093bd90604401600060405180830381600087803b15801561150657600080fd5b505af115801561151a573d6000803e3d6000fd5b505050505b806001600160a01b0316631f0b10c56040518163ffffffff1660e01b8152600401602060405180830381865afa15801561155d573d6000803e3d6000fd5b505050506040513d601f19601f82011682018060405250810190611581919061374f565b600f8301805463ffffffff191663ffffffff92909216919091179055505b60068101546001600160a01b0316156116f3576006810154600c820154604051632b8093bd60e01b8152600060048201526001600160a01b039182166024820152911690632b8093bd90604401600060405180830381600087803b15801561160657600080fd5b505af115801561161a573d6000803e3d6000fd5b50505060068201546040805163b3f05b9760e01b815290516001600160a01b03909216925063b3f05b979160048083019260209291908290030181865afa158015611669573d6000803e3d6000fd5b505050506040513d601f19601f8201168201806040525081019061168d9190613734565b6116f35760405162461bcd60e51b815260206004820152603160248201527f53656375726974697a6174696f6e506f6f6c3a207365636f6e642073616c65206044820152706973207374696c6c206f6e20676f696e6760781b60648201526084016106a1565b5050506117006001606555565b50505050565b6117103033610d8c565b610dac612ff8565b6000611722612a86565b600b015463ffffffff16919050565b611739612aaa565b3361174381610955565b61175f5760405162461bcd60e51b81526004016106a1906135ed565b611767610eb5565b6117cb5760405162461bcd60e51b815260206004820152602f60248201527f53656375726974697a6174696f6e506f6f6c3a20526564656d7074696f6e206860448201526e185cc81b9bdd08199a5b9a5cda1959608a1b60648201526084016106a1565b60006117d5612a86565b6009810154600c8201546040516370a0823160e01b81526001600160a01b039182166004820181905293945091169182916323b872dd9190879084906370a0823190602401602060405180830381865afa158015611837573d6000803e3d6000fd5b505050506040513d601f19601f8201168201806040525081019061185b91906135b7565b6040516001600160e01b031960e086901b1681526001600160a01b03938416600482015292909116602483015260448201526064016020604051808303816000875af11580156118af573d6000803e3d6000fd5b505050506040513d601f19601f820116820180604052508101906118d39190613734565b6117005760405162461bcd60e51b81526004016106a19061376c565b6118f7612aaa565b6119123361190361108e565b6001600160a01b031690613041565b600061191c612a86565b90508181600a015461192e91906135a4565b600a82015560108101546119439083906135a4565b6010820155600a8101546040519081527fb2209630cc27a5f36fad66f0e873c886ed480b2fb7613885f5914d723acd747290602001610754565b6001600160a01b0316600090815260008051602061381083398151915260209081526040808320938352929052205460ff1690565b60006119bc612a86565b600e0154905090565b60408051601e8082526103e0820190925260609160009190602082016103c080368337019050509050636ee44c4c60e01b81600081518110611a0957611a096137af565b6001600160e01b031990921660209283029190910190910152805163ed34889560e01b9082906001908110611a4057611a406137af565b6001600160e01b0319909216602092830291909101909101528051630fdfbe1f60e11b9082906002908110611a7757611a776137af565b6001600160e01b031990921660209283029190910190910152805163bff8a36d60e01b9082906003908110611aae57611aae6137af565b6001600160e01b0319909216602092830291909101909101528051631fd7ac0360e31b9082906004908110611ae557611ae56137af565b6001600160e01b03199092166020928302919091019091015280516302b71b4560e41b9082906005908110611b1c57611b1c6137af565b6001600160e01b03199092166020928302919091019091015280516302f1afff60e21b9082906006908110611b5357611b536137af565b6001600160e01b031990921660209283029190910190910152805163ade0ea6d60e01b9082906007908110611b8a57611b8a6137af565b6001600160e01b0319909216602092830291909101909101528051630fffaf3960e21b9082906008908110611bc157611bc16137af565b6001600160e01b031990921660209283029190910190910152805163669949ef60e11b9082906009908110611bf857611bf86137af565b6001600160e01b031990921660209283029190910190910152805162b8cd9b60e81b908290600a908110611c2e57611c2e6137af565b6001600160e01b03199092166020928302919091019091015280516302bb14ff60e41b908290600b908110611c6557611c656137af565b6001600160e01b03199092166020928302919091019091015280516347eb5b8f60e11b908290600c908110611c9c57611c9c6137af565b6001600160e01b031990921660209283029190910190910152805163cee7b6a160e01b908290600d908110611cd357611cd36137af565b6001600160e01b0319909216602092830291909101909101528051630ecbe20360e21b908290600e908110611d0a57611d0a6137af565b6001600160e01b0319909216602092830291909101909101528051639016170560e01b908290600f908110611d4157611d416137af565b6001600160e01b03199092166020928302919091019091015280516375b1bce760e01b9082906010908110611d7857611d786137af565b6001600160e01b0319909216602092830291909101909101528051636365b3d360e11b9082906011908110611daf57611daf6137af565b6001600160e01b03199092166020928302919091019091015280516390071cf360e01b9082906012908110611de657611de66137af565b6001600160e01b031990921660209283029190910190910152805163815d6ddf60e01b9082906013908110611e1d57611e1d6137af565b6001600160e01b031990921660209283029190910190910152805163f3fef3a360e01b9082906014908110611e5457611e546137af565b6001600160e01b03199092166020928302919091019091015280516301ffc9a760e01b9082906015908110611e8b57611e8b6137af565b6001600160e01b0319909216602092830291909101909101528051635c975abb60e01b9082906016908110611ec257611ec26137af565b6001600160e01b0319909216602092830291909101909101528051638456cb5960e01b9082906017908110611ef957611ef96137af565b6001600160e01b0319909216602092830291909101909101528051631fa5d41d60e11b9082906018908110611f3057611f306137af565b6001600160e01b0319909216602092830291909101909101528051636eb4458760e11b9082906019908110611f6757611f676137af565b6001600160e01b031990921660209283029190910190910152805163b1511cc960e01b908290601a908110611f9e57611f9e6137af565b6001600160e01b031990921660209283029190910190910152805163387213a960e21b908290601b908110611fd557611fd56137af565b6001600160e01b0319909216602092830291909101909101528051633f9deab760e11b908290601c90811061200c5761200c6137af565b6001600160e01b03199092166020928302919091019091015280516373ffe3c760e01b908290601d908110612043576120436137af565b6001600160e01b031990921660209283029190910190910152919050565b612069612aaa565b61207161106b565b1561208e5760405162461bcd60e51b81526004016106a1906136ec565b6120983033610d8c565b610eb2816130b5565b60006120ab612a86565b600d0154905090565b6120bc612aaa565b6120c76105ca61108e565b6001600160a01b0316336001600160a01b0316148061210157506120ec6105fd61108e565b6001600160a01b0316336001600160a01b0316145b61218c5760405162461bcd60e51b815260206004820152605060248201527f53656375726974697a6174696f6e506f6f6c3a2043616c6c6572206d7573742060448201527f62652053656375726974697a6174696f6e4d616e61676572206f72204469737460648201526f3934b13aba34b7b727b832b930ba37b960811b608482015260a4016106a1565b6000612196612a86565b90508181600a01546106c691906137c5565b60006121b2612a86565b6013015460ff16919050565b6121c6612aaa565b60006121d0612a86565b60058101549091506001600160a01b0316336001600160a01b0316146122515760405162461bcd60e51b815260206004820152603060248201527f53656375726974697a6174696f6e506f6f6c3a204f6e6c79207467652063616e60448201526f081d5c19185d19481a5b9d195c995cdd60821b60648201526084016106a1565b600f8101805463ffffffff191663ffffffff84169081179091556040519081527fe385e840d39f98b4644053fb8bba00d8b54f9bc4cdff1b3c4951aa22cb1fdb4790602001610754565b60006122a5612a86565b600a0154905090565b60006122b8612a86565b60100154905090565b336122cb81610955565b6122e75760405162461bcd60e51b81526004016106a1906135ed565b6001600160a01b038216600081815260008051602061381083398151915260208181526040808420888552909152808320805460ff191690555190923392909187917ff6391f5c32d9c69d2a47ea670b442974b53935d1edc7fd64eb21e047a839171b91a450505050565b60008061235d612a86565b60058101549091506000906001600160a01b0316156123fc578160050160009054906101000a90046001600160a01b03166001600160a01b031663998ba4fc6040518163ffffffff1660e01b8152600401602060405180830381865afa1580156123cb573d6000803e3d6000fd5b505050506040513d601f19601f820116820180604052508101906123ef91906135b7565b6123f990826135a4565b90505b60068201546001600160a01b031615612495578160060160009054906101000a90046001600160a01b03166001600160a01b031663998ba4fc6040518163ffffffff1660e01b8152600401602060405180830381865afa158015612464573d6000803e3d6000fd5b505050506040513d601f19601f8201168201806040525081019061248891906135b7565b61249290826135a4565b90505b6012909101541015919050565b60006124ac612a86565b60120154905090565b6124bd612aaa565b6124c5612f9f565b6124cd61106b565b156124ea5760405162461bcd60e51b81526004016106a1906136ec565b6124f43033610d8c565b60006124fe612a86565b600c8101549091506001600160a01b0380841691160361257a5760405162461bcd60e51b815260206004820152603160248201527f53656375726974697a6174696f6e506f6f6c3a2053616d652061646472657373604482015270081dda5d1a0818dd5c9c995b9d081c1bdd607a1b60648201526084016106a1565b600c810180546001600160a01b0319166001600160a01b03841690811790915530900361267357600981015460405163095ea7b360e01b81526001600160a01b03848116600483015260001960248301529091169063095ea7b3906044016020604051808303816000875af11580156125f7573d6000803e3d6000fd5b505050506040513d601f19601f8201168201806040525081019061261b9190613734565b6126735760405162461bcd60e51b8152602060048201526024808201527f53656375726974697a6174696f6e506f6f6c3a20506f74206e6f7420617070726044820152631bdd995960e21b60648201526084016106a1565b61267e6105ca61108e565b60405163dc90f9fd60e01b81526001600160a01b038481166004830152919091169063dc90f9fd90602401600060405180830381600087803b1580156126c357600080fd5b505af11580156126d7573d6000803e3d6000fd5b5050505050610eb26001606555565b6126ee612aaa565b612709336126fa61108e565b6001600160a01b0316906130f9565b6127337f59abfac6520ec36a6556b2a4dd949cc40007459bcd5cd2507f1e5cc77b6bc97e8361197d565b6127985760405162461bcd60e51b815260206004820152603060248201527f53656375726974697a6174696f6e506f6f6c3a204f6e6c79204f726967696e6160448201526f3a37b91031b0b710323930bbb237bbb760811b60648201526084016106a1565b6127a36105fd61108e565b604051634ce9451960e01b81523060048201526001600160a01b039190911690634ce9451990602401602060405180830381865afa1580156127e9573d6000803e3d6000fd5b505050506040513d601f19601f8201168201806040525081019061280d9190613734565b156128665760405162461bcd60e51b815260206004820152602360248201527f53656375726974697a6174696f6e506f6f6c3a207769746864726177207061756044820152621cd95960ea1b60648201526084016106a1565b6000612870612a86565b90508181600a015410156128d55760405162461bcd60e51b815260206004820152602660248201527f53656375726974697a6174696f6e506f6f6c3a206e6f7420656e6f756768207260448201526565736572766560d01b60648201526084016106a1565b8181600a01546128e591906137c5565b600a8201556128f2610760565b61293e5760405162461bcd60e51b815260206004820152601d60248201527f4d696e46697273744c6f7373206973206e6f742073617469736669656400000060448201526064016106a1565b61294661059b565b6001600160a01b03166323b872dd61295c610e14565b6040516001600160e01b031960e084901b1681526001600160a01b0391821660048201529086166024820152604481018590526064016020604051808303816000875af11580156129b1573d6000803e3d6000fd5b505050506040513d601f19601f820116820180604052508101906129d59190613734565b6129f15760405162461bcd60e51b81526004016106a19061376c565b604080516001600160a01b0385168152602081018490527f884edad9ce6fa2440d8a54cc123490eb96d2768479d49ff9c7366125a9424364910160405180910390a1505050565b600080610828610e30565b6000612a4e82613162565b80612a69575063b3f6a3e960e01b6001600160e01b03198316145b806105955750506001600160e01b031916634178950d60e11b1490565b7f42988f810f621c79bb2e8db2f913a015fc39ef8eac016043863c6a0d12adbf0090565b6000805160206137f08339815191525460ff1615610dac5760405162461bcd60e51b815260206004820152601060248201526f14185d5cd8589b194e881c185d5cd95960821b60448201526064016106a1565b60006105958260006131af565b600061059582600a6131af565b60006105958260086131af565b6000612b2e612a86565b600c810180546001600160a01b0319163017905560138101805460ff1916905582519091506001600160a01b0316612bb45760405162461bcd60e51b8152602060048201526024808201527f53656375726974697a6174696f6e506f6f6c3a20496e76616c69642063757272604482015263656e637960e01b60648201526084016106a1565b81516009820180546001600160a01b0319166001600160a01b039092169190911790556020820151612be590612ec0565b610a6482606001516130b5565b6001600160a01b038116600081815260008051602061381083398151915260208181526040808420878552909152808320805460ff191690555190923392909186917ff6391f5c32d9c69d2a47ea670b442974b53935d1edc7fd64eb21e047a839171b91a4505050565b612c6582612afd565b6001600160a01b0316816001600160a01b031614610a645760405162461bcd60e51b8152602060048201526024808201527f52656769737472793a204f6e6c792053656375726974697a6174696f6e4d616e60448201526330b3b2b960e11b60648201526084016106a1565b612cda83612afd565b604051632474521560e21b81527f3e9c05fb0f9da4414e033bb9bf190a6e2072adf7e3077394fce683220513b8d760048201526001600160a01b03838116602483015291909116906391d1485490604401602060405180830381865afa158015612d48573d6000803e3d6000fd5b505050506040513d601f19601f82011682018060405250810190612d6c9190613734565b80612e025750604051632474521560e21b81527fb19546dff01e856fb3f010c267a7b1c60363cf8a4664e21cc89c26224620214e60048201526001600160a01b0382811660248301528316906391d1485490604401602060405180830381865afa158015612dde573d6000803e3d6000fd5b505050506040513d601f19601f82011682018060405250810190612e029190613734565b6112335760405162461bcd60e51b815260206004820152602960248201527f52656769737472793a204e6f7420616e20706f6f6c2061646d696e206f72207060448201526837b7b61037bbb732b960b91b60648201526084016106a1565b612e6861323b565b6000805160206137f0833981519152805460ff191681557f5db9ee0a495bf2e6ff9c91a7834c1ba4fdd244a5e8aa4e537bd38aeae4b073aa335b6040516001600160a01b03909116815260200160405180910390a150565b612ecd61271060646137d8565b8163ffffffff161115612f485760405162461bcd60e51b815260206004820152603b60248201527f53656375726974697a6174696f6e506f6f6c3a206d696e46697273744c6f737360448201527f43757368696f6e2069732067726561746572207468616e20313030000000000060648201526084016106a1565b6000612f52612a86565b600b8101805463ffffffff191663ffffffff85169081179091556040519081529091507f3fb30b6090e6989c6819119c2885012949e75471ed4ce5e80c9be541ea0e2f3f90602001610754565b600260655403612ff15760405162461bcd60e51b815260206004820152601f60248201527f5265656e7472616e637947756172643a207265656e7472616e742063616c6c0060448201526064016106a1565b6002606555565b613000612aaa565b6000805160206137f0833981519152805460ff191660011781557f62e78cea01bee320cd4e420270b5ea74000d11b0c9f74754ebdbfc544b05a25833612ea2565b61304a82613291565b6001600160a01b0316816001600160a01b031614610a645760405162461bcd60e51b815260206004820152602260248201527f52656769737472793a204f6e6c79204c6f616e52657061796d656e74526f757460448201526132b960f11b60648201526084016106a1565b60006130bf612a86565b601281018390556040518381529091507f3fb30b6090e6989c6819119c2885012949e75471ed4ce5e80c9be541ea0e2f3f90602001610754565b6131028261329e565b6001600160a01b0316816001600160a01b031614610a645760405162461bcd60e51b815260206004820152601960248201527f52656769737472793a204f6e6c79204c6f616e4b65726e656c0000000000000060448201526064016106a1565b60006301ffc9a760e01b6001600160e01b031983161480612a69575063395dfc6360e11b6001600160e01b0319831614806105955750506001600160e01b031916634178950d60e11b1490565b6000826001600160a01b031663bcaa0c5583600a8111156131d2576131d261355e565b6040516001600160e01b031960e084901b16815260ff9091166004820152602401602060405180830381865afa158015613210573d6000803e3d6000fd5b505050506040513d601f19601f8201168201806040525081019061323491906135d0565b9392505050565b6000805160206137f08339815191525460ff16610dac5760405162461bcd60e51b815260206004820152601460248201527314185d5cd8589b194e881b9bdd081c185d5cd95960621b60448201526064016106a1565b60006105958260066131af565b60006105958260076131af565b6000602082840312156132bd57600080fd5b81356001600160e01b03198116811461323457600080fd5b6000602082840312156132e757600080fd5b5035919050565b6001600160a01b0381168114610eb257600080fd5b6000806040838503121561331657600080fd5b823591506020830135613328816132ee565b809150509250929050565b60006020828403121561334557600080fd5b8135613234816132ee565b634e487b7160e01b600052604160045260246000fd5b60006020828403121561337857600080fd5b813567ffffffffffffffff8082111561339057600080fd5b818401915084601f8301126133a457600080fd5b8135818111156133b6576133b6613350565b604051601f8201601f19908116603f011681019083821181831017156133de576133de613350565b816040528281528760208487010111156133f757600080fd5b826020860160208301376000928101602001929092525095945050505050565b6000806040838503121561342a57600080fd5b8235613435816132ee565b915060208301356002811061332857600080fd5b63ffffffff81168114610eb257600080fd5b60006020828403121561346d57600080fd5b813561323481613449565b6000806040838503121561348b57600080fd5b8235613496816132ee565b946020939093013593505050565b803567ffffffffffffffff811681146134bc57600080fd5b919050565b600080600080608085870312156134d757600080fd5b6134e0856134a4565b93506020850135925060408501356134f781613449565b9150613505606086016134a4565b905092959194509250565b6020808252825182820181905260009190848201906040850190845b818110156135525783516001600160e01b0319168352928401929184019160010161352c565b50909695505050505050565b634e487b7160e01b600052602160045260246000fd5b60208101600483106135885761358861355e565b91905290565b634e487b7160e01b600052601160045260246000fd5b808201808211156105955761059561358e565b6000602082840312156135c957600080fd5b5051919050565b6000602082840312156135e257600080fd5b8151613234816132ee565b60208082526025908201527f416363657373436f6e74726f6c3a2063616c6c6572206973206e6f7420616e2060408201526437bbb732b960d91b606082015260800190565b805180151581146134bc57600080fd5b60006080828403121561365457600080fd5b6040516080810181811067ffffffffffffffff8211171561367757613677613350565b6040528251613685816132ee565b8152602083015161369581613449565b60208201526136a660408401613632565b6040820152606083015160608201528091505092915050565b6001600160a01b038316815260408101600283106136df576136df61355e565b8260208301529392505050565b60208082526028908201527f53656375726974697a6174696f6e506f6f6c3a20506f6f6c20696e20636c6f73604082015267656420737461746560c01b606082015260800190565b60006020828403121561374657600080fd5b61323482613632565b60006020828403121561376157600080fd5b815161323481613449565b60208082526023908201527f53656375726974697a6174696f6e506f6f6c3a205472616e73666572206661696040820152621b195960ea1b606082015260800190565b634e487b7160e01b600052603260045260246000fd5b818103818111156105955761059561358e565b80820281158282048414176105955761059561358e56fecd5ed15c6e187e77e9aee88184c21f4f2182ab5827cb3b7e07fbedcd63f03300b38e00afe21f8bf8961a30ad85d453b5f474f19414b8973dee80c89fb0d97b00a2646970667358221220855878ac2faff72aded982eb3b6968e5b2e0f856c072c3c48a9badb9bb8e021d64736f6c63430008130033",
  "devdoc": {
    "events": {
      "Initialized(uint8)": {
        "details": "Triggered when the contract has been initialized or reinitialized."
      },
      "Paused(address)": {
        "details": "Emitted when the pause is triggered by `account`."
      },
      "RoleGranted(bytes32,address,address)": {
        "details": "Emitted when `account` is granted `role`. `sender` is the account that originated the contract call, an admin role bearer except when using {AccessControl-_setupRole}."
      },
      "RoleRevoked(bytes32,address,address)": {
        "details": "Emitted when `account` is revoked `role`. `sender` is the account that originated the contract call:   - if using `revokeRole`, it is the admin role bearer   - if using `renounceRole`, it is the role bearer (i.e. `account`)"
      },
      "Unpaused(address)": {
        "details": "Emitted when the pause is lifted by `account`."
      }
    },
    "kind": "dev",
    "methods": {
      "decreaseReserve(uint256)": {
        "details": "trigger update reserve"
      },
      "disburse(address,uint256)": {
        "details": "Disburses a specified amount of currency to the given user.",
        "params": {
          "currencyAmount": "The amount of currency to disburse.",
          "usr": "The address of the user to receive the currency."
        }
      },
      "increaseReserve(uint256)": {
        "details": "trigger update reserve when buy note token action happens"
      },
      "increaseTotalAssetRepaidCurrency(uint256)": {
        "details": "trigger update asset value repaid"
      },
      "paused()": {
        "details": "Returns true if the contract is paused, and false otherwise."
      }
    },
    "version": 1
  },
  "userdoc": {
    "kind": "user",
    "methods": {
      "hasFinishedRedemption()": {
        "notice": "checks if the redemption process has finished"
      },
      "injectTGEAddress(address,uint8)": {
        "notice": "injects the address of the Token Generation Event (TGE) and the associated token address"
      },
      "isClosedState()": {
        "notice": "checks if the contract is in a closed state"
      },
      "isDebtCeilingValid()": {
        "notice": "check current debt ceiling is valid"
      },
      "setDebtCeiling(uint256)": {
        "notice": "sets debt ceiling value"
      },
      "setInterestRateForSOT(uint32)": {
        "notice": "sets the interest rate for the senior tranche of tokens"
      },
      "setMinFirstLossCushion(uint32)": {
        "notice": "sets mint first loss value"
      },
      "setPot(address)": {
        "notice": "sets the pot address for the contract"
      },
      "withdraw(address,uint256)": {
        "notice": "allows the originator to withdraw from reserve"
      }
    },
    "version": 1
  },
  "storageLayout": {
    "storage": [
      {
        "astId": 765,
        "contract": "contracts/protocol/pool/SecuritizationTGE.sol:SecuritizationTGE",
        "label": "_initialized",
        "offset": 0,
        "slot": "0",
        "type": "t_uint8"
      },
      {
        "astId": 768,
        "contract": "contracts/protocol/pool/SecuritizationTGE.sol:SecuritizationTGE",
        "label": "_initializing",
        "offset": 1,
        "slot": "0",
        "type": "t_bool"
      },
      {
        "astId": 5572,
        "contract": "contracts/protocol/pool/SecuritizationTGE.sol:SecuritizationTGE",
        "label": "__gap",
        "offset": 0,
        "slot": "1",
        "type": "t_array(t_uint256)50_storage"
      },
      {
        "astId": 4282,
        "contract": "contracts/protocol/pool/SecuritizationTGE.sol:SecuritizationTGE",
        "label": "__gap",
        "offset": 0,
        "slot": "51",
        "type": "t_array(t_uint256)50_storage"
      },
      {
        "astId": 1068,
        "contract": "contracts/protocol/pool/SecuritizationTGE.sol:SecuritizationTGE",
        "label": "_status",
        "offset": 0,
        "slot": "101",
        "type": "t_uint256"
      },
      {
        "astId": 1137,
        "contract": "contracts/protocol/pool/SecuritizationTGE.sol:SecuritizationTGE",
        "label": "__gap",
        "offset": 0,
        "slot": "102",
        "type": "t_array(t_uint256)49_storage"
      }
    ],
    "types": {
      "t_array(t_uint256)49_storage": {
        "base": "t_uint256",
        "encoding": "inplace",
        "label": "uint256[49]",
        "numberOfBytes": "1568"
      },
      "t_array(t_uint256)50_storage": {
        "base": "t_uint256",
        "encoding": "inplace",
        "label": "uint256[50]",
        "numberOfBytes": "1600"
      },
      "t_bool": {
        "encoding": "inplace",
        "label": "bool",
        "numberOfBytes": "1"
      },
      "t_uint256": {
        "encoding": "inplace",
        "label": "uint256",
        "numberOfBytes": "32"
      },
      "t_uint8": {
        "encoding": "inplace",
        "label": "uint8",
        "numberOfBytes": "1"
      }
    }
  }
}