{
  "address": "0x84F20740010ed456149e4C2aa290e24A11a85a35",
  "abi": [
    {
      "anonymous": false,
      "inputs": [
        {
          "indexed": true,
          "internalType": "address",
          "name": "account",
          "type": "address"
        },
        {
          "indexed": true,
          "internalType": "address",
          "name": "operator",
          "type": "address"
        },
        {
          "indexed": false,
          "internalType": "bool",
          "name": "approved",
          "type": "bool"
        }
      ],
      "name": "ApprovalForAll",
      "type": "event"
    },
    {
      "anonymous": false,
      "inputs": [
        {
          "indexed": false,
          "internalType": "address",
          "name": "account",
          "type": "address"
        }
      ],
      "name": "Paused",
      "type": "event"
    },
    {
      "anonymous": false,
      "inputs": [
        {
          "indexed": true,
          "internalType": "bytes32",
          "name": "role",
          "type": "bytes32"
        },
        {
          "indexed": true,
          "internalType": "bytes32",
          "name": "previousAdminRole",
          "type": "bytes32"
        },
        {
          "indexed": true,
          "internalType": "bytes32",
          "name": "newAdminRole",
          "type": "bytes32"
        }
      ],
      "name": "RoleAdminChanged",
      "type": "event"
    },
    {
      "anonymous": false,
      "inputs": [
        {
          "indexed": true,
          "internalType": "bytes32",
          "name": "role",
          "type": "bytes32"
        },
        {
          "indexed": true,
          "internalType": "address",
          "name": "account",
          "type": "address"
        },
        {
          "indexed": true,
          "internalType": "address",
          "name": "sender",
          "type": "address"
        }
      ],
      "name": "RoleGranted",
      "type": "event"
    },
    {
      "anonymous": false,
      "inputs": [
        {
          "indexed": true,
          "internalType": "bytes32",
          "name": "role",
          "type": "bytes32"
        },
        {
          "indexed": true,
          "internalType": "address",
          "name": "account",
          "type": "address"
        },
        {
          "indexed": true,
          "internalType": "address",
          "name": "sender",
          "type": "address"
        }
      ],
      "name": "RoleRevoked",
      "type": "event"
    },
    {
      "anonymous": false,
      "inputs": [
        {
          "indexed": true,
          "internalType": "address",
          "name": "operator",
          "type": "address"
        },
        {
          "indexed": true,
          "internalType": "address",
          "name": "from",
          "type": "address"
        },
        {
          "indexed": true,
          "internalType": "address",
          "name": "to",
          "type": "address"
        },
        {
          "indexed": false,
          "internalType": "uint256[]",
          "name": "ids",
          "type": "uint256[]"
        },
        {
          "indexed": false,
          "internalType": "uint256[]",
          "name": "values",
          "type": "uint256[]"
        }
      ],
      "name": "TransferBatch",
      "type": "event"
    },
    {
      "anonymous": false,
      "inputs": [
        {
          "indexed": true,
          "internalType": "address",
          "name": "operator",
          "type": "address"
        },
        {
          "indexed": true,
          "internalType": "address",
          "name": "from",
          "type": "address"
        },
        {
          "indexed": true,
          "internalType": "address",
          "name": "to",
          "type": "address"
        },
        {
          "indexed": false,
          "internalType": "uint256",
          "name": "id",
          "type": "uint256"
        },
        {
          "indexed": false,
          "internalType": "uint256",
          "name": "value",
          "type": "uint256"
        }
      ],
      "name": "TransferSingle",
      "type": "event"
    },
    {
      "anonymous": false,
      "inputs": [
        {
          "indexed": false,
          "internalType": "string",
          "name": "value",
          "type": "string"
        },
        {
          "indexed": true,
          "internalType": "uint256",
          "name": "id",
          "type": "uint256"
        }
      ],
      "name": "URI",
      "type": "event"
    },
    {
      "anonymous": false,
      "inputs": [
        {
          "indexed": false,
          "internalType": "address",
          "name": "account",
          "type": "address"
        }
      ],
      "name": "Unpaused",
      "type": "event"
    },
    {
      "inputs": [],
      "name": "DEFAULT_ADMIN_ROLE",
      "outputs": [
        {
          "internalType": "bytes32",
          "name": "",
          "type": "bytes32"
        }
      ],
      "stateMutability": "view",
      "type": "function"
    },
    {
      "inputs": [],
      "name": "MINTER_ROLE",
      "outputs": [
        {
          "internalType": "bytes32",
          "name": "",
          "type": "bytes32"
        }
      ],
      "stateMutability": "view",
      "type": "function"
    },
    {
      "inputs": [],
      "name": "PAUSER_ROLE",
      "outputs": [
        {
          "internalType": "bytes32",
          "name": "",
          "type": "bytes32"
        }
      ],
      "stateMutability": "view",
      "type": "function"
    },
    {
      "inputs": [
        {
          "internalType": "address",
          "name": "account",
          "type": "address"
        },
        {
          "internalType": "uint256",
          "name": "id",
          "type": "uint256"
        }
      ],
      "name": "balanceOf",
      "outputs": [
        {
          "internalType": "uint256",
          "name": "",
          "type": "uint256"
        }
      ],
      "stateMutability": "view",
      "type": "function"
    },
    {
      "inputs": [
        {
          "internalType": "address[]",
          "name": "accounts",
          "type": "address[]"
        },
        {
          "internalType": "uint256[]",
          "name": "ids",
          "type": "uint256[]"
        }
      ],
      "name": "balanceOfBatch",
      "outputs": [
        {
          "internalType": "uint256[]",
          "name": "",
          "type": "uint256[]"
        }
      ],
      "stateMutability": "view",
      "type": "function"
    },
    {
      "inputs": [
        {
          "internalType": "address",
          "name": "_owner",
          "type": "address"
        },
        {
          "internalType": "uint256[]",
          "name": "_projectIds",
          "type": "uint256[]"
        }
      ],
      "name": "balanceOfProjects",
      "outputs": [
        {
          "internalType": "uint256[]",
          "name": "",
          "type": "uint256[]"
        }
      ],
      "stateMutability": "view",
      "type": "function"
    },
    {
      "inputs": [
        {
          "internalType": "address",
          "name": "account",
          "type": "address"
        },
        {
          "internalType": "uint256",
          "name": "id",
          "type": "uint256"
        },
        {
          "internalType": "uint256",
          "name": "value",
          "type": "uint256"
        }
      ],
      "name": "burn",
      "outputs": [],
      "stateMutability": "nonpayable",
      "type": "function"
    },
    {
      "inputs": [
        {
          "internalType": "address",
          "name": "account",
          "type": "address"
        },
        {
          "internalType": "uint256[]",
          "name": "ids",
          "type": "uint256[]"
        },
        {
          "internalType": "uint256[]",
          "name": "values",
          "type": "uint256[]"
        }
      ],
      "name": "burnBatch",
      "outputs": [],
      "stateMutability": "nonpayable",
      "type": "function"
    },
    {
      "inputs": [],
      "name": "decimals",
      "outputs": [
        {
          "internalType": "uint8",
          "name": "",
          "type": "uint8"
        }
      ],
      "stateMutability": "view",
      "type": "function"
    },
    {
      "inputs": [
        {
          "internalType": "uint256",
          "name": "id",
          "type": "uint256"
        }
      ],
      "name": "exists",
      "outputs": [
        {
          "internalType": "bool",
          "name": "",
          "type": "bool"
        }
      ],
      "stateMutability": "view",
      "type": "function"
    },
    {
      "inputs": [
        {
          "internalType": "bytes32",
          "name": "role",
          "type": "bytes32"
        }
      ],
      "name": "getRoleAdmin",
      "outputs": [
        {
          "internalType": "bytes32",
          "name": "",
          "type": "bytes32"
        }
      ],
      "stateMutability": "view",
      "type": "function"
    },
    {
      "inputs": [
        {
          "internalType": "bytes32",
          "name": "role",
          "type": "bytes32"
        },
        {
          "internalType": "uint256",
          "name": "index",
          "type": "uint256"
        }
      ],
      "name": "getRoleMember",
      "outputs": [
        {
          "internalType": "address",
          "name": "",
          "type": "address"
        }
      ],
      "stateMutability": "view",
      "type": "function"
    },
    {
      "inputs": [
        {
          "internalType": "bytes32",
          "name": "role",
          "type": "bytes32"
        }
      ],
      "name": "getRoleMemberCount",
      "outputs": [
        {
          "internalType": "uint256",
          "name": "",
          "type": "uint256"
        }
      ],
      "stateMutability": "view",
      "type": "function"
    },
    {
      "inputs": [
        {
          "internalType": "bytes32",
          "name": "role",
          "type": "bytes32"
        },
        {
          "internalType": "address",
          "name": "account",
          "type": "address"
        }
      ],
      "name": "grantRole",
      "outputs": [],
      "stateMutability": "nonpayable",
      "type": "function"
    },
    {
      "inputs": [
        {
          "internalType": "bytes32",
          "name": "role",
          "type": "bytes32"
        },
        {
          "internalType": "address",
          "name": "account",
          "type": "address"
        }
      ],
      "name": "hasRole",
      "outputs": [
        {
          "internalType": "bool",
          "name": "",
          "type": "bool"
        }
      ],
      "stateMutability": "view",
      "type": "function"
    },
    {
      "inputs": [
        {
          "internalType": "address",
          "name": "minter",
          "type": "address"
        },
        {
          "internalType": "string",
          "name": "name_",
          "type": "string"
        },
        {
          "internalType": "string",
          "name": "symbol_",
          "type": "string"
        },
        {
          "internalType": "uint8",
          "name": "decimals_",
          "type": "uint8"
        },
        {
          "internalType": "string",
          "name": "uri",
          "type": "string"
        }
      ],
      "name": "initialize",
      "outputs": [],
      "stateMutability": "nonpayable",
      "type": "function"
    },
    {
      "inputs": [
        {
          "internalType": "string",
          "name": "uri",
          "type": "string"
        }
      ],
      "name": "initialize",
      "outputs": [],
      "stateMutability": "nonpayable",
      "type": "function"
    },
    {
      "inputs": [
        {
          "internalType": "address",
          "name": "account",
          "type": "address"
        },
        {
          "internalType": "address",
          "name": "operator",
          "type": "address"
        }
      ],
      "name": "isApprovedForAll",
      "outputs": [
        {
          "internalType": "bool",
          "name": "",
          "type": "bool"
        }
      ],
      "stateMutability": "view",
      "type": "function"
    },
    {
      "inputs": [
        {
          "internalType": "address",
          "name": "to",
          "type": "address"
        },
        {
          "internalType": "uint256",
          "name": "id",
          "type": "uint256"
        },
        {
          "internalType": "uint256",
          "name": "amount",
          "type": "uint256"
        },
        {
          "internalType": "bytes",
          "name": "data",
          "type": "bytes"
        }
      ],
      "name": "mint",
      "outputs": [],
      "stateMutability": "nonpayable",
      "type": "function"
    },
    {
      "inputs": [
        {
          "internalType": "address",
          "name": "to",
          "type": "address"
        },
        {
          "internalType": "uint256[]",
          "name": "ids",
          "type": "uint256[]"
        },
        {
          "internalType": "uint256[]",
          "name": "amounts",
          "type": "uint256[]"
        },
        {
          "internalType": "bytes",
          "name": "data",
          "type": "bytes"
        }
      ],
      "name": "mintBatch",
      "outputs": [],
      "stateMutability": "nonpayable",
      "type": "function"
    },
    {
      "inputs": [],
      "name": "name",
      "outputs": [
        {
          "internalType": "string",
          "name": "",
          "type": "string"
        }
      ],
      "stateMutability": "view",
      "type": "function"
    },
    {
      "inputs": [],
      "name": "pause",
      "outputs": [],
      "stateMutability": "nonpayable",
      "type": "function"
    },
    {
      "inputs": [],
      "name": "paused",
      "outputs": [
        {
          "internalType": "bool",
          "name": "",
          "type": "bool"
        }
      ],
      "stateMutability": "view",
      "type": "function"
    },
    {
      "inputs": [
        {
          "internalType": "bytes32",
          "name": "role",
          "type": "bytes32"
        },
        {
          "internalType": "address",
          "name": "account",
          "type": "address"
        }
      ],
      "name": "renounceRole",
      "outputs": [],
      "stateMutability": "nonpayable",
      "type": "function"
    },
    {
      "inputs": [
        {
          "internalType": "bytes32",
          "name": "role",
          "type": "bytes32"
        },
        {
          "internalType": "address",
          "name": "account",
          "type": "address"
        }
      ],
      "name": "revokeRole",
      "outputs": [],
      "stateMutability": "nonpayable",
      "type": "function"
    },
    {
      "inputs": [
        {
          "internalType": "address",
          "name": "from",
          "type": "address"
        },
        {
          "internalType": "address",
          "name": "to",
          "type": "address"
        },
        {
          "internalType": "uint256[]",
          "name": "ids",
          "type": "uint256[]"
        },
        {
          "internalType": "uint256[]",
          "name": "amounts",
          "type": "uint256[]"
        },
        {
          "internalType": "bytes",
          "name": "data",
          "type": "bytes"
        }
      ],
      "name": "safeBatchTransferFrom",
      "outputs": [],
      "stateMutability": "nonpayable",
      "type": "function"
    },
    {
      "inputs": [
        {
          "internalType": "address",
          "name": "from",
          "type": "address"
        },
        {
          "internalType": "address",
          "name": "to",
          "type": "address"
        },
        {
          "internalType": "uint256",
          "name": "id",
          "type": "uint256"
        },
        {
          "internalType": "uint256",
          "name": "amount",
          "type": "uint256"
        },
        {
          "internalType": "bytes",
          "name": "data",
          "type": "bytes"
        }
      ],
      "name": "safeTransferFrom",
      "outputs": [],
      "stateMutability": "nonpayable",
      "type": "function"
    },
    {
      "inputs": [
        {
          "internalType": "address",
          "name": "operator",
          "type": "address"
        },
        {
          "internalType": "bool",
          "name": "approved",
          "type": "bool"
        }
      ],
      "name": "setApprovalForAll",
      "outputs": [],
      "stateMutability": "nonpayable",
      "type": "function"
    },
    {
      "inputs": [
        {
          "internalType": "bytes4",
          "name": "interfaceId",
          "type": "bytes4"
        }
      ],
      "name": "supportsInterface",
      "outputs": [
        {
          "internalType": "bool",
          "name": "",
          "type": "bool"
        }
      ],
      "stateMutability": "view",
      "type": "function"
    },
    {
      "inputs": [],
      "name": "symbol",
      "outputs": [
        {
          "internalType": "string",
          "name": "",
          "type": "string"
        }
      ],
      "stateMutability": "view",
      "type": "function"
    },
    {
      "inputs": [
        {
          "internalType": "uint256",
          "name": "id",
          "type": "uint256"
        }
      ],
      "name": "totalSupply",
      "outputs": [
        {
          "internalType": "uint256",
          "name": "",
          "type": "uint256"
        }
      ],
      "stateMutability": "view",
      "type": "function"
    },
    {
      "inputs": [
        {
          "internalType": "uint256[]",
          "name": "_ids",
          "type": "uint256[]"
        }
      ],
      "name": "totalSupplyOfBatch",
      "outputs": [
        {
          "internalType": "uint256[]",
          "name": "",
          "type": "uint256[]"
        }
      ],
      "stateMutability": "view",
      "type": "function"
    },
    {
      "inputs": [],
      "name": "unpause",
      "outputs": [],
      "stateMutability": "nonpayable",
      "type": "function"
    },
    {
      "inputs": [
        {
          "internalType": "uint256",
          "name": "",
          "type": "uint256"
        }
      ],
      "name": "uri",
      "outputs": [
        {
          "internalType": "string",
          "name": "",
          "type": "string"
        }
      ],
      "stateMutability": "view",
      "type": "function"
    }
  ],
  "transactionHash": "0x370951e2815bebfe0baefa28ec9a8c9b2af730980cd42d915d0f16b0139a8c0d",
  "args": [],
  "numDeployments": 1,
  "solcInputHash": "a985c02e370a06e44f17ed2bca4ecab7",
  "bytecode": "0x608060405234801561001057600080fd5b506146d8806100206000396000f3fe608060405234801561001057600080fd5b50600436106102255760003560e01c806388ff39071161012a578063bd85b039116100bd578063e63ab1e91161008c578063f242432a11610071578063f242432a1461055f578063f5298aca14610572578063f62d18881461058557600080fd5b8063e63ab1e9146104ef578063e985e9c51461051657600080fd5b8063bd85b03914610481578063ca15c873146104a2578063d5391393146104b5578063d547741f146104dc57600080fd5b8063a217fddf116100f9578063a217fddf14610440578063a22cb46514610448578063b356cdf31461045b578063ba91129e1461046e57600080fd5b806388ff3907146103a75780639010d07c146103ba57806391d14854146103f257806395d89b411461043857600080fd5b8063313ce567116101bd5780634f558e791161018c5780636b20c454116101715780636b20c45414610379578063731133e91461038c5780638456cb591461039f57600080fd5b80634f558e791461034a5780635c975abb1461036d57600080fd5b8063313ce567146102f957806336568abe1461030f5780633f4ba83a146103225780634e1273f41461032a57600080fd5b80631f7fdffa116101f95780631f7fdffa1461029b578063248a9ca3146102b05780632eb2c2d6146102d35780632f2ff15d146102e657600080fd5b8062fdd58e1461022a57806301ffc9a71461025057806306fdde03146102735780630e89341c14610288575b600080fd5b61023d6102383660046139bd565b610598565b6040519081526020015b60405180910390f35b61026361025e366004613a15565b61067a565b6040519015158152602001610247565b61027b610685565b6040516102479190613aa8565b61027b610296366004613abb565b610718565b6102ae6102a9366004613c75565b6107ac565b005b61023d6102be366004613abb565b60009081526065602052604090206001015490565b6102ae6102e1366004613d0e565b610874565b6102ae6102f4366004613db8565b61093d565b6101f75460405160ff9091168152602001610247565b6102ae61031d366004613db8565b610968565b6102ae610a1b565b61033d610338366004613de4565b610adb565b6040516102479190613eea565b610263610358366004613abb565b60009081526101c36020526040902054151590565b61012d5460ff16610263565b6102ae610387366004613efd565b610c33565b6102ae61039a366004613f71565b610cf3565b6102ae610db5565b61033d6103b5366004614012565b610e73565b6103cd6103c8366004614054565b610f25565b60405173ffffffffffffffffffffffffffffffffffffffff9091168152602001610247565b610263610400366004613db8565b600091825260656020908152604080842073ffffffffffffffffffffffffffffffffffffffff93909316845291905290205460ff1690565b61027b610f44565b61023d600081565b6102ae610456366004614076565b610f54565b61033d6104693660046140b2565b610f5f565b6102ae61047c366004614105565b61100d565b61023d61048f366004613abb565b60009081526101c3602052604090205490565b61023d6104b0366004613abb565b6111eb565b61023d7f9f2df0fed2c77648de5860a4cc508cd0818c85b8b8a1ab4ceeef8d981c8956a681565b6102ae6104ea366004613db8565b611202565b61023d7f65d7a28e3265b37a6474929f336521b332c1681b933f6cb9f3376673440d862a81565b61026361052436600461419f565b73ffffffffffffffffffffffffffffffffffffffff918216600090815260ca6020908152604080832093909416825291909152205460ff1690565b6102ae61056d3660046141c9565b611228565b6102ae61058036600461422e565b6112ea565b6102ae610593366004614261565b6113aa565b600073ffffffffffffffffffffffffffffffffffffffff8316610642576040517f08c379a000000000000000000000000000000000000000000000000000000000815260206004820152602b60248201527f455243313135353a2062616c616e636520717565727920666f7220746865207a60448201527f65726f206164647265737300000000000000000000000000000000000000000060648201526084015b60405180910390fd5b50600081815260c96020908152604080832073ffffffffffffffffffffffffffffffffffffffff861684529091529020545b92915050565b6000610674826114cf565b60606101f580546106959061429e565b80601f01602080910402602001604051908101604052809291908181526020018280546106c19061429e565b801561070e5780601f106106e35761010080835404028352916020019161070e565b820191906000526020600020905b8154815290600101906020018083116106f157829003601f168201915b5050505050905090565b606060cb80546107279061429e565b80601f01602080910402602001604051908101604052809291908181526020018280546107539061429e565b80156107a05780601f10610775576101008083540402835291602001916107a0565b820191906000526020600020905b81548152906001019060200180831161078357829003601f168201915b50505050509050919050565b6107d67f9f2df0fed2c77648de5860a4cc508cd0818c85b8b8a1ab4ceeef8d981c8956a633610400565b610862576040517f08c379a000000000000000000000000000000000000000000000000000000000815260206004820152603860248201527f455243313135355072657365744d696e7465725061757365723a206d7573742060448201527f68617665206d696e74657220726f6c6520746f206d696e7400000000000000006064820152608401610639565b61086e848484846114da565b50505050565b73ffffffffffffffffffffffffffffffffffffffff851633148061089d575061089d8533610524565b610929576040517f08c379a000000000000000000000000000000000000000000000000000000000815260206004820152603260248201527f455243313135353a207472616e736665722063616c6c6572206973206e6f742060448201527f6f776e6572206e6f7220617070726f76656400000000000000000000000000006064820152608401610639565b6109368585858585611763565b5050505050565b6000828152606560205260409020600101546109598133611aa6565b6109638383611b78565b505050565b73ffffffffffffffffffffffffffffffffffffffff81163314610a0d576040517f08c379a000000000000000000000000000000000000000000000000000000000815260206004820152602f60248201527f416363657373436f6e74726f6c3a2063616e206f6e6c792072656e6f756e636560448201527f20726f6c657320666f722073656c6600000000000000000000000000000000006064820152608401610639565b610a178282611b9a565b5050565b610a457f65d7a28e3265b37a6474929f336521b332c1681b933f6cb9f3376673440d862a33610400565b610ad1576040517f08c379a000000000000000000000000000000000000000000000000000000000815260206004820152603b60248201527f455243313135355072657365744d696e7465725061757365723a206d7573742060448201527f686176652070617573657220726f6c6520746f20756e706175736500000000006064820152608401610639565b610ad9611bbc565b565b60608151835114610b6e576040517f08c379a000000000000000000000000000000000000000000000000000000000815260206004820152602960248201527f455243313135353a206163636f756e747320616e6420696473206c656e67746860448201527f206d69736d6174636800000000000000000000000000000000000000000000006064820152608401610639565b6000835167ffffffffffffffff811115610b8a57610b8a613ad4565b604051908082528060200260200182016040528015610bb3578160200160208202803683370190505b50905060005b8451811015610c2b57610bfe858281518110610bd757610bd76142f1565b6020026020010151858381518110610bf157610bf16142f1565b6020026020010151610598565b828281518110610c1057610c106142f1565b6020908102919091010152610c248161434f565b9050610bb9565b509392505050565b73ffffffffffffffffffffffffffffffffffffffff8316331480610c5c5750610c5c8333610524565b610ce8576040517f08c379a000000000000000000000000000000000000000000000000000000000815260206004820152602960248201527f455243313135353a2063616c6c6572206973206e6f74206f776e6572206e6f7260448201527f20617070726f76656400000000000000000000000000000000000000000000006064820152608401610639565b610963838383611c9f565b610d1d7f9f2df0fed2c77648de5860a4cc508cd0818c85b8b8a1ab4ceeef8d981c8956a633610400565b610da9576040517f08c379a000000000000000000000000000000000000000000000000000000000815260206004820152603860248201527f455243313135355072657365744d696e7465725061757365723a206d7573742060448201527f68617665206d696e74657220726f6c6520746f206d696e7400000000000000006064820152608401610639565b61086e84848484611fcd565b610ddf7f65d7a28e3265b37a6474929f336521b332c1681b933f6cb9f3376673440d862a33610400565b610e6b576040517f08c379a000000000000000000000000000000000000000000000000000000000815260206004820152603960248201527f455243313135355072657365744d696e7465725061757365723a206d7573742060448201527f686176652070617573657220726f6c6520746f207061757365000000000000006064820152608401610639565b610ad961213c565b606060008267ffffffffffffffff811115610e9057610e90613ad4565b604051908082528060200260200182016040528015610eb9578160200160208202803683370190505b50905060005b83811015610c2b57610ef6858583818110610edc57610edc6142f1565b9050602002013560009081526101c3602052604090205490565b828281518110610f0857610f086142f1565b602090810291909101015280610f1d8161434f565b915050610ebf565b6000828152609760205260408120610f3d90836121fe565b9392505050565b60606101f680546106959061429e565b610a1733838361220a565b606060008267ffffffffffffffff811115610f7c57610f7c613ad4565b604051908082528060200260200182016040528015610fa5578160200160208202803683370190505b50905060005b8381101561100457610fd586868684818110610fc957610fc96142f1565b90506020020135610598565b828281518110610fe757610fe76142f1565b602090810291909101015280610ffc8161434f565b915050610fab565b50949350505050565b600054610100900460ff166110285760005460ff161561102c565b303b155b6110b8576040517f08c379a000000000000000000000000000000000000000000000000000000000815260206004820152602e60248201527f496e697469616c697a61626c653a20636f6e747261637420697320616c72656160448201527f647920696e697469616c697a65640000000000000000000000000000000000006064820152608401610639565b600054610100900460ff161580156110f757600080547fffffffffffffffffffffffffffffffffffffffffffffffffffffffffffff0000166101011790555b845161110b906101f59060208801906138fb565b508351611120906101f69060208701906138fb565b506101f780547fffffffffffffffffffffffffffffffffffffffffffffffffffffffffffffff001660ff85161790556111588261235d565b611160612411565b61118a7f9f2df0fed2c77648de5860a4cc508cd0818c85b8b8a1ab4ceeef8d981c8956a6876124a8565b6111b47f9f2df0fed2c77648de5860a4cc508cd0818c85b8b8a1ab4ceeef8d981c8956a633610968565b80156111e357600080547fffffffffffffffffffffffffffffffffffffffffffffffffffffffffffff00ff1690555b505050505050565b6000818152609760205260408120610674906124b2565b60008281526065602052604090206001015461121e8133611aa6565b6109638383611b9a565b73ffffffffffffffffffffffffffffffffffffffff851633148061125157506112518533610524565b6112dd576040517f08c379a000000000000000000000000000000000000000000000000000000000815260206004820152602960248201527f455243313135353a2063616c6c6572206973206e6f74206f776e6572206e6f7260448201527f20617070726f76656400000000000000000000000000000000000000000000006064820152608401610639565b61093685858585856124bc565b73ffffffffffffffffffffffffffffffffffffffff831633148061131357506113138333610524565b61139f576040517f08c379a000000000000000000000000000000000000000000000000000000000815260206004820152602960248201527f455243313135353a2063616c6c6572206973206e6f74206f776e6572206e6f7260448201527f20617070726f76656400000000000000000000000000000000000000000000006064820152608401610639565b6109638383836126f1565b600054610100900460ff166113c55760005460ff16156113c9565b303b155b611455576040517f08c379a000000000000000000000000000000000000000000000000000000000815260206004820152602e60248201527f496e697469616c697a61626c653a20636f6e747261637420697320616c72656160448201527f647920696e697469616c697a65640000000000000000000000000000000000006064820152608401610639565b600054610100900460ff1615801561149457600080547fffffffffffffffffffffffffffffffffffffffffffffffffffffffffffff0000166101011790555b61149d8261235d565b8015610a1757600080547fffffffffffffffffffffffffffffffffffffffffffffffffffffffffffff00ff1690555050565b6000610674826128fc565b73ffffffffffffffffffffffffffffffffffffffff841661157d576040517f08c379a000000000000000000000000000000000000000000000000000000000815260206004820152602160248201527f455243313135353a206d696e7420746f20746865207a65726f2061646472657360448201527f73000000000000000000000000000000000000000000000000000000000000006064820152608401610639565b815183511461160e576040517f08c379a000000000000000000000000000000000000000000000000000000000815260206004820152602860248201527f455243313135353a2069647320616e6420616d6f756e7473206c656e6774682060448201527f6d69736d617463680000000000000000000000000000000000000000000000006064820152608401610639565b3361161e8160008787878761299e565b60005b84518110156116d45783818151811061163c5761163c6142f1565b602002602001015160c9600087848151811061165a5761165a6142f1565b6020026020010151815260200190815260200160002060008873ffffffffffffffffffffffffffffffffffffffff1673ffffffffffffffffffffffffffffffffffffffff16815260200190815260200160002060008282546116bc9190614387565b909155508190506116cc8161434f565b915050611621565b508473ffffffffffffffffffffffffffffffffffffffff16600073ffffffffffffffffffffffffffffffffffffffff168273ffffffffffffffffffffffffffffffffffffffff167f4a39dc06d4c0dbc64b70af90fd698a233a518aa5d07e595d983b8c0526c8f7fb878760405161174c92919061439f565b60405180910390a4610936816000878787876129ac565b81518351146117f4576040517f08c379a000000000000000000000000000000000000000000000000000000000815260206004820152602860248201527f455243313135353a2069647320616e6420616d6f756e7473206c656e6774682060448201527f6d69736d617463680000000000000000000000000000000000000000000000006064820152608401610639565b73ffffffffffffffffffffffffffffffffffffffff8416611897576040517f08c379a000000000000000000000000000000000000000000000000000000000815260206004820152602560248201527f455243313135353a207472616e7366657220746f20746865207a65726f20616460448201527f64726573730000000000000000000000000000000000000000000000000000006064820152608401610639565b336118a681878787878761299e565b60005b8451811015611a195760008582815181106118c6576118c66142f1565b6020026020010151905060008583815181106118e4576118e46142f1565b602090810291909101810151600084815260c98352604080822073ffffffffffffffffffffffffffffffffffffffff8e1683529093529190912054909150818110156119b2576040517f08c379a000000000000000000000000000000000000000000000000000000000815260206004820152602a60248201527f455243313135353a20696e73756666696369656e742062616c616e636520666f60448201527f72207472616e73666572000000000000000000000000000000000000000000006064820152608401610639565b600083815260c96020908152604080832073ffffffffffffffffffffffffffffffffffffffff8e8116855292528083208585039055908b168252812080548492906119fe908490614387565b9250508190555050505080611a129061434f565b90506118a9565b508473ffffffffffffffffffffffffffffffffffffffff168673ffffffffffffffffffffffffffffffffffffffff168273ffffffffffffffffffffffffffffffffffffffff167f4a39dc06d4c0dbc64b70af90fd698a233a518aa5d07e595d983b8c0526c8f7fb8787604051611a9092919061439f565b60405180910390a46111e38187878787876129ac565b600082815260656020908152604080832073ffffffffffffffffffffffffffffffffffffffff8516845290915290205460ff16610a1757611afe8173ffffffffffffffffffffffffffffffffffffffff166014612c36565b611b09836020612c36565b604051602001611b1a9291906143cd565b604080517fffffffffffffffffffffffffffffffffffffffffffffffffffffffffffffffe0818403018152908290527f08c379a000000000000000000000000000000000000000000000000000000000825261063991600401613aa8565b611b828282612e79565b60008281526097602052604090206109639082612f6d565b611ba48282612f8f565b6000828152609760205260409020610963908261304a565b61012d5460ff16611c29576040517f08c379a000000000000000000000000000000000000000000000000000000000815260206004820152601460248201527f5061757361626c653a206e6f74207061757365640000000000000000000000006044820152606401610639565b61012d80547fffffffffffffffffffffffffffffffffffffffffffffffffffffffffffffff001690557f5db9ee0a495bf2e6ff9c91a7834c1ba4fdd244a5e8aa4e537bd38aeae4b073aa335b60405173ffffffffffffffffffffffffffffffffffffffff909116815260200160405180910390a1565b73ffffffffffffffffffffffffffffffffffffffff8316611d42576040517f08c379a000000000000000000000000000000000000000000000000000000000815260206004820152602360248201527f455243313135353a206275726e2066726f6d20746865207a65726f206164647260448201527f65737300000000000000000000000000000000000000000000000000000000006064820152608401610639565b8051825114611dd3576040517f08c379a000000000000000000000000000000000000000000000000000000000815260206004820152602860248201527f455243313135353a2069647320616e6420616d6f756e7473206c656e6774682060448201527f6d69736d617463680000000000000000000000000000000000000000000000006064820152608401610639565b6000339050611df68185600086866040518060200160405280600081525061299e565b60005b8351811015611f47576000848281518110611e1657611e166142f1565b602002602001015190506000848381518110611e3457611e346142f1565b602090810291909101810151600084815260c98352604080822073ffffffffffffffffffffffffffffffffffffffff8c168352909352919091205490915081811015611f01576040517f08c379a0000000000000000000000000000000000000000000000000000000008152602060048201526024808201527f455243313135353a206275726e20616d6f756e7420657863656564732062616c60448201527f616e6365000000000000000000000000000000000000000000000000000000006064820152608401610639565b600092835260c96020908152604080852073ffffffffffffffffffffffffffffffffffffffff8b1686529091529092209103905580611f3f8161434f565b915050611df9565b50600073ffffffffffffffffffffffffffffffffffffffff168473ffffffffffffffffffffffffffffffffffffffff168273ffffffffffffffffffffffffffffffffffffffff167f4a39dc06d4c0dbc64b70af90fd698a233a518aa5d07e595d983b8c0526c8f7fb8686604051611fbf92919061439f565b60405180910390a450505050565b73ffffffffffffffffffffffffffffffffffffffff8416612070576040517f08c379a000000000000000000000000000000000000000000000000000000000815260206004820152602160248201527f455243313135353a206d696e7420746f20746865207a65726f2061646472657360448201527f73000000000000000000000000000000000000000000000000000000000000006064820152608401610639565b33612090816000876120818861306c565b61208a8861306c565b8761299e565b600084815260c96020908152604080832073ffffffffffffffffffffffffffffffffffffffff89168452909152812080548592906120cf908490614387565b9091555050604080518581526020810185905273ffffffffffffffffffffffffffffffffffffffff80881692600092918516917fc3d58168c5ae7397731d063d5bbf3d657854427343f4c083240f7aacaa2d0f62910160405180910390a4610936816000878787876130b7565b61012d5460ff16156121aa576040517f08c379a000000000000000000000000000000000000000000000000000000000815260206004820152601060248201527f5061757361626c653a20706175736564000000000000000000000000000000006044820152606401610639565b61012d80547fffffffffffffffffffffffffffffffffffffffffffffffffffffffffffffff001660011790557f62e78cea01bee320cd4e420270b5ea74000d11b0c9f74754ebdbfc544b05a258611c753390565b6000610f3d8383613264565b8173ffffffffffffffffffffffffffffffffffffffff168373ffffffffffffffffffffffffffffffffffffffff16036122c5576040517f08c379a000000000000000000000000000000000000000000000000000000000815260206004820152602960248201527f455243313135353a2073657474696e6720617070726f76616c2073746174757360448201527f20666f722073656c6600000000000000000000000000000000000000000000006064820152608401610639565b73ffffffffffffffffffffffffffffffffffffffff838116600081815260ca602090815260408083209487168084529482529182902080547fffffffffffffffffffffffffffffffffffffffffffffffffffffffffffffff001686151590811790915591519182527f17307eab39ab6107e8899845ad3d59bd9653f200f220920489ca2b5937696c31910160405180910390a3505050565b600054610100900460ff166123f4576040517f08c379a000000000000000000000000000000000000000000000000000000000815260206004820152602b60248201527f496e697469616c697a61626c653a20636f6e7472616374206973206e6f74206960448201527f6e697469616c697a696e670000000000000000000000000000000000000000006064820152608401610639565b6123fd8161328e565b61240561332e565b61240e816133f0565b50565b600054610100900460ff16610ad9576040517f08c379a000000000000000000000000000000000000000000000000000000000815260206004820152602b60248201527f496e697469616c697a61626c653a20636f6e7472616374206973206e6f74206960448201527f6e697469616c697a696e670000000000000000000000000000000000000000006064820152608401610639565b610a178282611b78565b6000610674825490565b73ffffffffffffffffffffffffffffffffffffffff841661255f576040517f08c379a000000000000000000000000000000000000000000000000000000000815260206004820152602560248201527f455243313135353a207472616e7366657220746f20746865207a65726f20616460448201527f64726573730000000000000000000000000000000000000000000000000000006064820152608401610639565b3361256f8187876120818861306c565b600084815260c96020908152604080832073ffffffffffffffffffffffffffffffffffffffff8a1684529091529020548381101561262f576040517f08c379a000000000000000000000000000000000000000000000000000000000815260206004820152602a60248201527f455243313135353a20696e73756666696369656e742062616c616e636520666f60448201527f72207472616e73666572000000000000000000000000000000000000000000006064820152608401610639565b600085815260c96020908152604080832073ffffffffffffffffffffffffffffffffffffffff8b811685529252808320878503905590881682528120805486929061267b908490614387565b9091555050604080518681526020810186905273ffffffffffffffffffffffffffffffffffffffff808916928a821692918616917fc3d58168c5ae7397731d063d5bbf3d657854427343f4c083240f7aacaa2d0f62910160405180910390a46126e88288888888886130b7565b50505050505050565b73ffffffffffffffffffffffffffffffffffffffff8316612794576040517f08c379a000000000000000000000000000000000000000000000000000000000815260206004820152602360248201527f455243313135353a206275726e2066726f6d20746865207a65726f206164647260448201527f65737300000000000000000000000000000000000000000000000000000000006064820152608401610639565b336127c3818560006127a58761306c565b6127ae8761306c565b6040518060200160405280600081525061299e565b600083815260c96020908152604080832073ffffffffffffffffffffffffffffffffffffffff8816845290915290205482811015612882576040517f08c379a0000000000000000000000000000000000000000000000000000000008152602060048201526024808201527f455243313135353a206275726e20616d6f756e7420657863656564732062616c60448201527f616e6365000000000000000000000000000000000000000000000000000000006064820152608401610639565b600084815260c96020908152604080832073ffffffffffffffffffffffffffffffffffffffff898116808652918452828520888703905582518981529384018890529092908616917fc3d58168c5ae7397731d063d5bbf3d657854427343f4c083240f7aacaa2d0f62910160405180910390a45050505050565b60007fffffffff0000000000000000000000000000000000000000000000000000000082167fd9b67a2600000000000000000000000000000000000000000000000000000000148061298f57507fffffffff0000000000000000000000000000000000000000000000000000000082167f0e89341c00000000000000000000000000000000000000000000000000000000145b806106745750610674826134e6565b6111e386868686868661353c565b73ffffffffffffffffffffffffffffffffffffffff84163b156111e3576040517fbc197c8100000000000000000000000000000000000000000000000000000000815273ffffffffffffffffffffffffffffffffffffffff85169063bc197c8190612a23908990899088908890889060040161444e565b6020604051808303816000875af1925050508015612a7c575060408051601f3d9081017fffffffffffffffffffffffffffffffffffffffffffffffffffffffffffffffe0168201909252612a79918101906144b9565b60015b612b6557612a886144d6565b806308c379a003612adb5750612a9c6144f2565b80612aa75750612add565b806040517f08c379a00000000000000000000000000000000000000000000000000000000081526004016106399190613aa8565b505b6040517f08c379a000000000000000000000000000000000000000000000000000000000815260206004820152603460248201527f455243313135353a207472616e7366657220746f206e6f6e204552433131353560448201527f526563656976657220696d706c656d656e7465720000000000000000000000006064820152608401610639565b7fffffffff0000000000000000000000000000000000000000000000000000000081167fbc197c8100000000000000000000000000000000000000000000000000000000146126e8576040517f08c379a000000000000000000000000000000000000000000000000000000000815260206004820152602860248201527f455243313135353a204552433131353552656365697665722072656a6563746560448201527f6420746f6b656e730000000000000000000000000000000000000000000000006064820152608401610639565b60606000612c4583600261459a565b612c50906002614387565b67ffffffffffffffff811115612c6857612c68613ad4565b6040519080825280601f01601f191660200182016040528015612c92576020820181803683370190505b5090507f300000000000000000000000000000000000000000000000000000000000000081600081518110612cc957612cc96142f1565b60200101907effffffffffffffffffffffffffffffffffffffffffffffffffffffffffffff1916908160001a9053507f780000000000000000000000000000000000000000000000000000000000000081600181518110612d2c57612d2c6142f1565b60200101907effffffffffffffffffffffffffffffffffffffffffffffffffffffffffffff1916908160001a9053506000612d6884600261459a565b612d73906001614387565b90505b6001811115612e10577f303132333435363738396162636465660000000000000000000000000000000085600f1660108110612db457612db46142f1565b1a60f81b828281518110612dca57612dca6142f1565b60200101907effffffffffffffffffffffffffffffffffffffffffffffffffffffffffffff1916908160001a90535060049490941c93612e09816145d7565b9050612d76565b508315610f3d576040517f08c379a000000000000000000000000000000000000000000000000000000000815260206004820181905260248201527f537472696e67733a20686578206c656e67746820696e73756666696369656e746044820152606401610639565b600082815260656020908152604080832073ffffffffffffffffffffffffffffffffffffffff8516845290915290205460ff16610a1757600082815260656020908152604080832073ffffffffffffffffffffffffffffffffffffffff85168452909152902080547fffffffffffffffffffffffffffffffffffffffffffffffffffffffffffffff00166001179055612f0f3390565b73ffffffffffffffffffffffffffffffffffffffff168173ffffffffffffffffffffffffffffffffffffffff16837f2f8788117e7eff1d82e926ec794901d17c78024a50270940304540a733656f0d60405160405180910390a45050565b6000610f3d8373ffffffffffffffffffffffffffffffffffffffff8416613672565b600082815260656020908152604080832073ffffffffffffffffffffffffffffffffffffffff8516845290915290205460ff1615610a1757600082815260656020908152604080832073ffffffffffffffffffffffffffffffffffffffff8516808552925280832080547fffffffffffffffffffffffffffffffffffffffffffffffffffffffffffffff0016905551339285917ff6391f5c32d9c69d2a47ea670b442974b53935d1edc7fd64eb21e047a839171b9190a45050565b6000610f3d8373ffffffffffffffffffffffffffffffffffffffff84166136c1565b604080516001808252818301909252606091600091906020808301908036833701905050905082816000815181106130a6576130a66142f1565b602090810291909101015292915050565b73ffffffffffffffffffffffffffffffffffffffff84163b156111e3576040517ff23a6e6100000000000000000000000000000000000000000000000000000000815273ffffffffffffffffffffffffffffffffffffffff85169063f23a6e619061312e908990899088908890889060040161460c565b6020604051808303816000875af1925050508015613187575060408051601f3d9081017fffffffffffffffffffffffffffffffffffffffffffffffffffffffffffffffe0168201909252613184918101906144b9565b60015b61319357612a886144d6565b7fffffffff0000000000000000000000000000000000000000000000000000000081167ff23a6e6100000000000000000000000000000000000000000000000000000000146126e8576040517f08c379a000000000000000000000000000000000000000000000000000000000815260206004820152602860248201527f455243313135353a204552433131353552656365697665722072656a6563746560448201527f6420746f6b656e730000000000000000000000000000000000000000000000006064820152608401610639565b600082600001828154811061327b5761327b6142f1565b9060005260206000200154905092915050565b600054610100900460ff16613325576040517f08c379a000000000000000000000000000000000000000000000000000000000815260206004820152602b60248201527f496e697469616c697a61626c653a20636f6e7472616374206973206e6f74206960448201527f6e697469616c697a696e670000000000000000000000000000000000000000006064820152608401610639565b61240e816137b4565b600054610100900460ff166133c5576040517f08c379a000000000000000000000000000000000000000000000000000000000815260206004820152602b60248201527f496e697469616c697a61626c653a20636f6e7472616374206973206e6f74206960448201527f6e697469616c697a696e670000000000000000000000000000000000000000006064820152608401610639565b61012d80547fffffffffffffffffffffffffffffffffffffffffffffffffffffffffffffff00169055565b600054610100900460ff16613487576040517f08c379a000000000000000000000000000000000000000000000000000000000815260206004820152602b60248201527f496e697469616c697a61626c653a20636f6e7472616374206973206e6f74206960448201527f6e697469616c697a696e670000000000000000000000000000000000000000006064820152608401610639565b6134926000336124a8565b6134bc7f9f2df0fed2c77648de5860a4cc508cd0818c85b8b8a1ab4ceeef8d981c8956a6336124a8565b61240e7f65d7a28e3265b37a6474929f336521b332c1681b933f6cb9f3376673440d862a336124a8565b60007fffffffff0000000000000000000000000000000000000000000000000000000082167f5a05180f0000000000000000000000000000000000000000000000000000000014806106745750610674826137c7565b61354a86868686868661385e565b73ffffffffffffffffffffffffffffffffffffffff85166135df5760005b83518110156135dd57828181518110613583576135836142f1565b60200260200101516101c360008684815181106135a2576135a26142f1565b6020026020010151815260200190815260200160002060008282546135c79190614387565b909155506135d690508161434f565b9050613568565b505b73ffffffffffffffffffffffffffffffffffffffff84166111e35760005b83518110156126e857828181518110613618576136186142f1565b60200260200101516101c36000868481518110613637576136376142f1565b60200260200101518152602001908152602001600020600082825461365c919061465c565b9091555061366b90508161434f565b90506135fd565b60008181526001830160205260408120546136b957508154600181810184556000848152602080822090930184905584548482528286019093526040902091909155610674565b506000610674565b600081815260018301602052604081205480156137aa5760006136e560018361465c565b85549091506000906136f99060019061465c565b905081811461375e576000866000018281548110613719576137196142f1565b906000526020600020015490508087600001848154811061373c5761373c6142f1565b6000918252602080832090910192909255918252600188019052604090208390555b855486908061376f5761376f614673565b600190038181906000526020600020016000905590558560010160008681526020019081526020016000206000905560019350505050610674565b6000915050610674565b8051610a179060cb9060208401906138fb565b60007fffffffff0000000000000000000000000000000000000000000000000000000082167f7965db0b00000000000000000000000000000000000000000000000000000000148061067457507f01ffc9a7000000000000000000000000000000000000000000000000000000007fffffffff00000000000000000000000000000000000000000000000000000000831614610674565b6111e386868686868661012d5460ff16156111e3576040517f08c379a000000000000000000000000000000000000000000000000000000000815260206004820152602c60248201527f455243313135355061757361626c653a20746f6b656e207472616e736665722060448201527f7768696c652070617573656400000000000000000000000000000000000000006064820152608401610639565b8280546139079061429e565b90600052602060002090601f016020900481019282613929576000855561396f565b82601f1061394257805160ff191683800117855561396f565b8280016001018555821561396f579182015b8281111561396f578251825591602001919060010190613954565b5061397b92915061397f565b5090565b5b8082111561397b5760008155600101613980565b803573ffffffffffffffffffffffffffffffffffffffff811681146139b857600080fd5b919050565b600080604083850312156139d057600080fd5b6139d983613994565b946020939093013593505050565b7fffffffff000000000000000000000000000000000000000000000000000000008116811461240e57600080fd5b600060208284031215613a2757600080fd5b8135610f3d816139e7565b60005b83811015613a4d578181015183820152602001613a35565b8381111561086e5750506000910152565b60008151808452613a76816020860160208601613a32565b601f017fffffffffffffffffffffffffffffffffffffffffffffffffffffffffffffffe0169290920160200192915050565b602081526000610f3d6020830184613a5e565b600060208284031215613acd57600080fd5b5035919050565b7f4e487b7100000000000000000000000000000000000000000000000000000000600052604160045260246000fd5b7fffffffffffffffffffffffffffffffffffffffffffffffffffffffffffffffe0601f830116810181811067ffffffffffffffff82111715613b4757613b47613ad4565b6040525050565b600067ffffffffffffffff821115613b6857613b68613ad4565b5060051b60200190565b600082601f830112613b8357600080fd5b81356020613b9082613b4e565b604051613b9d8282613b03565b83815260059390931b8501820192828101915086841115613bbd57600080fd5b8286015b84811015613bd85780358352918301918301613bc1565b509695505050505050565b600082601f830112613bf457600080fd5b813567ffffffffffffffff811115613c0e57613c0e613ad4565b604051613c4360207fffffffffffffffffffffffffffffffffffffffffffffffffffffffffffffffe0601f8501160182613b03565b818152846020838601011115613c5857600080fd5b816020850160208301376000918101602001919091529392505050565b60008060008060808587031215613c8b57600080fd5b613c9485613994565b9350602085013567ffffffffffffffff80821115613cb157600080fd5b613cbd88838901613b72565b94506040870135915080821115613cd357600080fd5b613cdf88838901613b72565b93506060870135915080821115613cf557600080fd5b50613d0287828801613be3565b91505092959194509250565b600080600080600060a08688031215613d2657600080fd5b613d2f86613994565b9450613d3d60208701613994565b9350604086013567ffffffffffffffff80821115613d5a57600080fd5b613d6689838a01613b72565b94506060880135915080821115613d7c57600080fd5b613d8889838a01613b72565b93506080880135915080821115613d9e57600080fd5b50613dab88828901613be3565b9150509295509295909350565b60008060408385031215613dcb57600080fd5b82359150613ddb60208401613994565b90509250929050565b60008060408385031215613df757600080fd5b823567ffffffffffffffff80821115613e0f57600080fd5b818501915085601f830112613e2357600080fd5b81356020613e3082613b4e565b604051613e3d8282613b03565b83815260059390931b8501820192828101915089841115613e5d57600080fd5b948201945b83861015613e8257613e7386613994565b82529482019490820190613e62565b96505086013592505080821115613e9857600080fd5b50613ea585828601613b72565b9150509250929050565b600081518084526020808501945080840160005b83811015613edf57815187529582019590820190600101613ec3565b509495945050505050565b602081526000610f3d6020830184613eaf565b600080600060608486031215613f1257600080fd5b613f1b84613994565b9250602084013567ffffffffffffffff80821115613f3857600080fd5b613f4487838801613b72565b93506040860135915080821115613f5a57600080fd5b50613f6786828701613b72565b9150509250925092565b60008060008060808587031215613f8757600080fd5b613f9085613994565b93506020850135925060408501359150606085013567ffffffffffffffff811115613fba57600080fd5b613d0287828801613be3565b60008083601f840112613fd857600080fd5b50813567ffffffffffffffff811115613ff057600080fd5b6020830191508360208260051b850101111561400b57600080fd5b9250929050565b6000806020838503121561402557600080fd5b823567ffffffffffffffff81111561403c57600080fd5b61404885828601613fc6565b90969095509350505050565b6000806040838503121561406757600080fd5b50508035926020909101359150565b6000806040838503121561408957600080fd5b61409283613994565b9150602083013580151581146140a757600080fd5b809150509250929050565b6000806000604084860312156140c757600080fd5b6140d084613994565b9250602084013567ffffffffffffffff8111156140ec57600080fd5b6140f886828701613fc6565b9497909650939450505050565b600080600080600060a0868803121561411d57600080fd5b61412686613994565b9450602086013567ffffffffffffffff8082111561414357600080fd5b61414f89838a01613be3565b9550604088013591508082111561416557600080fd5b61417189838a01613be3565b94506060880135915060ff8216821461418957600080fd5b90925060808701359080821115613d9e57600080fd5b600080604083850312156141b257600080fd5b6141bb83613994565b9150613ddb60208401613994565b600080600080600060a086880312156141e157600080fd5b6141ea86613994565b94506141f860208701613994565b93506040860135925060608601359150608086013567ffffffffffffffff81111561422257600080fd5b613dab88828901613be3565b60008060006060848603121561424357600080fd5b61424c84613994565b95602085013595506040909401359392505050565b60006020828403121561427357600080fd5b813567ffffffffffffffff81111561428a57600080fd5b61429684828501613be3565b949350505050565b600181811c908216806142b257607f821691505b6020821081036142eb577f4e487b7100000000000000000000000000000000000000000000000000000000600052602260045260246000fd5b50919050565b7f4e487b7100000000000000000000000000000000000000000000000000000000600052603260045260246000fd5b7f4e487b7100000000000000000000000000000000000000000000000000000000600052601160045260246000fd5b60007fffffffffffffffffffffffffffffffffffffffffffffffffffffffffffffffff820361438057614380614320565b5060010190565b6000821982111561439a5761439a614320565b500190565b6040815260006143b26040830185613eaf565b82810360208401526143c48185613eaf565b95945050505050565b7f416363657373436f6e74726f6c3a206163636f756e7420000000000000000000815260008351614405816017850160208801613a32565b7f206973206d697373696e6720726f6c65200000000000000000000000000000006017918401918201528351614442816028840160208801613a32565b01602801949350505050565b600073ffffffffffffffffffffffffffffffffffffffff808816835280871660208401525060a0604083015261448760a0830186613eaf565b82810360608401526144998186613eaf565b905082810360808401526144ad8185613a5e565b98975050505050505050565b6000602082840312156144cb57600080fd5b8151610f3d816139e7565b600060033d11156144ef5760046000803e5060005160e01c5b90565b600060443d10156145005790565b6040517ffffffffffffffffffffffffffffffffffffffffffffffffffffffffffffffffc803d016004833e81513d67ffffffffffffffff816024840111818411171561454e57505050505090565b82850191508151818111156145665750505050505090565b843d87010160208285010111156145805750505050505090565b61458f60208286010187613b03565b509095945050505050565b6000817fffffffffffffffffffffffffffffffffffffffffffffffffffffffffffffffff04831182151516156145d2576145d2614320565b500290565b6000816145e6576145e6614320565b507fffffffffffffffffffffffffffffffffffffffffffffffffffffffffffffffff0190565b600073ffffffffffffffffffffffffffffffffffffffff808816835280871660208401525084604083015283606083015260a0608083015261465160a0830184613a5e565b979650505050505050565b60008282101561466e5761466e614320565b500390565b7f4e487b7100000000000000000000000000000000000000000000000000000000600052603160045260246000fdfea2646970667358221220963c8c3ac7231d38b5bd486aa8f8cb99d321c43e3fcb9e15b27c01a03660b22e64736f6c634300080d0033",
  "devdoc": {
    "kind": "dev",
    "methods": {
      "balanceOf(address,uint256)": {
        "details": "See {IERC1155-balanceOf}. Requirements: - `account` cannot be the zero address."
      },
      "balanceOfBatch(address[],uint256[])": {
        "details": "See {IERC1155-balanceOfBatch}. Requirements: - `accounts` and `ids` must have the same length."
      },
      "decimals()": {
        "details": "Returns the number of decimals used to get its user representation."
      },
      "exists(uint256)": {
        "details": "Indicates whether any token exist with a given id, or not."
      },
      "getRoleAdmin(bytes32)": {
        "details": "Returns the admin role that controls `role`. See {grantRole} and {revokeRole}. To change a role's admin, use {_setRoleAdmin}."
      },
      "getRoleMember(bytes32,uint256)": {
        "details": "Returns one of the accounts that have `role`. `index` must be a value between 0 and {getRoleMemberCount}, non-inclusive. Role bearers are not sorted in any particular way, and their ordering may change at any point. WARNING: When using {getRoleMember} and {getRoleMemberCount}, make sure you perform all queries on the same block. See the following https://forum.openzeppelin.com/t/iterating-over-elements-on-enumerableset-in-openzeppelin-contracts/2296[forum post] for more information."
      },
      "getRoleMemberCount(bytes32)": {
        "details": "Returns the number of accounts that have `role`. Can be used together with {getRoleMember} to enumerate all bearers of a role."
      },
      "grantRole(bytes32,address)": {
        "details": "Grants `role` to `account`. If `account` had not been already granted `role`, emits a {RoleGranted} event. Requirements: - the caller must have ``role``'s admin role."
      },
      "hasRole(bytes32,address)": {
        "details": "Returns `true` if `account` has been granted `role`."
      },
      "isApprovedForAll(address,address)": {
        "details": "See {IERC1155-isApprovedForAll}."
      },
      "mint(address,uint256,uint256,bytes)": {
        "details": "Creates `amount` new tokens for `to`, of token type `id`. See {ERC1155-_mint}. Requirements: - the caller must have the `MINTER_ROLE`."
      },
      "mintBatch(address,uint256[],uint256[],bytes)": {
        "details": "xref:ROOT:erc1155.adoc#batch-operations[Batched] variant of {mint}."
      },
      "name()": {
        "details": "Returns the name of the token."
      },
      "pause()": {
        "details": "Pauses all token transfers. See {ERC1155Pausable} and {Pausable-_pause}. Requirements: - the caller must have the `PAUSER_ROLE`."
      },
      "paused()": {
        "details": "Returns true if the contract is paused, and false otherwise."
      },
      "renounceRole(bytes32,address)": {
        "details": "Revokes `role` from the calling account. Roles are often managed via {grantRole} and {revokeRole}: this function's purpose is to provide a mechanism for accounts to lose their privileges if they are compromised (such as when a trusted device is misplaced). If the calling account had been revoked `role`, emits a {RoleRevoked} event. Requirements: - the caller must be `account`."
      },
      "revokeRole(bytes32,address)": {
        "details": "Revokes `role` from `account`. If `account` had been granted `role`, emits a {RoleRevoked} event. Requirements: - the caller must have ``role``'s admin role."
      },
      "safeBatchTransferFrom(address,address,uint256[],uint256[],bytes)": {
        "details": "See {IERC1155-safeBatchTransferFrom}."
      },
      "safeTransferFrom(address,address,uint256,uint256,bytes)": {
        "details": "See {IERC1155-safeTransferFrom}."
      },
      "setApprovalForAll(address,bool)": {
        "details": "See {IERC1155-setApprovalForAll}."
      },
      "supportsInterface(bytes4)": {
        "details": "See {IERC165-supportsInterface}."
      },
      "symbol()": {
        "details": "Returns the symbol of the token, usually a shorter version of the name."
      },
      "totalSupply(uint256)": {
        "details": "Total amount of tokens in with a given id."
      },
      "totalSupplyOfBatch(uint256[])": {
        "params": {
          "_ids": "ID of the Tokens"
        },
        "returns": {
          "_0": "The total supply of each liquidity token id provided in _ids"
        }
      },
      "unpause()": {
        "details": "Unpauses all token transfers. See {ERC1155Pausable} and {Pausable-_unpause}. Requirements: - the caller must have the `PAUSER_ROLE`."
      },
      "uri(uint256)": {
        "details": "See {IERC1155MetadataURI-uri}. This implementation returns the same URI for *all* token types. It relies on the token type ID substitution mechanism https://eips.ethereum.org/EIPS/eip-1155#metadata[defined in the EIP]. Clients calling this function must replace the `\\{id\\}` substring with the actual token type ID."
      }
    },
    "version": 1
  },
  "userdoc": {
    "kind": "user",
    "methods": {
      "totalSupplyOfBatch(uint256[])": {
        "notice": "Get total supply of liquidity tokens"
      }
    },
    "version": 1
  },
  "storageLayout": {
    "storage": [
      {
        "astId": 708,
        "contract": "contracts/tokens/ERC1155/CollateralManagementToken.sol:CollateralManagementToken",
        "label": "_initialized",
        "offset": 0,
        "slot": "0",
        "type": "t_bool"
      },
      {
        "astId": 711,
        "contract": "contracts/tokens/ERC1155/CollateralManagementToken.sol:CollateralManagementToken",
        "label": "_initializing",
        "offset": 1,
        "slot": "0",
        "type": "t_bool"
      },
      {
        "astId": 4917,
        "contract": "contracts/tokens/ERC1155/CollateralManagementToken.sol:CollateralManagementToken",
        "label": "__gap",
        "offset": 0,
        "slot": "1",
        "type": "t_array(t_uint256)50_storage"
      },
      {
        "astId": 5238,
        "contract": "contracts/tokens/ERC1155/CollateralManagementToken.sol:CollateralManagementToken",
        "label": "__gap",
        "offset": 0,
        "slot": "51",
        "type": "t_array(t_uint256)50_storage"
      },
      {
        "astId": 184,
        "contract": "contracts/tokens/ERC1155/CollateralManagementToken.sol:CollateralManagementToken",
        "label": "_roles",
        "offset": 0,
        "slot": "101",
        "type": "t_mapping(t_bytes32,t_struct(RoleData)179_storage)"
      },
      {
        "astId": 472,
        "contract": "contracts/tokens/ERC1155/CollateralManagementToken.sol:CollateralManagementToken",
        "label": "__gap",
        "offset": 0,
        "slot": "102",
        "type": "t_array(t_uint256)49_storage"
      },
      {
        "astId": 33,
        "contract": "contracts/tokens/ERC1155/CollateralManagementToken.sol:CollateralManagementToken",
        "label": "_roleMembers",
        "offset": 0,
        "slot": "151",
        "type": "t_mapping(t_bytes32,t_struct(AddressSet)5563_storage)"
      },
      {
        "astId": 143,
        "contract": "contracts/tokens/ERC1155/CollateralManagementToken.sol:CollateralManagementToken",
        "label": "__gap",
        "offset": 0,
        "slot": "152",
        "type": "t_array(t_uint256)49_storage"
      },
      {
        "astId": 974,
        "contract": "contracts/tokens/ERC1155/CollateralManagementToken.sol:CollateralManagementToken",
        "label": "_balances",
        "offset": 0,
        "slot": "201",
        "type": "t_mapping(t_uint256,t_mapping(t_address,t_uint256))"
      },
      {
        "astId": 980,
        "contract": "contracts/tokens/ERC1155/CollateralManagementToken.sol:CollateralManagementToken",
        "label": "_operatorApprovals",
        "offset": 0,
        "slot": "202",
        "type": "t_mapping(t_address,t_mapping(t_address,t_bool))"
      },
      {
        "astId": 982,
        "contract": "contracts/tokens/ERC1155/CollateralManagementToken.sol:CollateralManagementToken",
        "label": "_uri",
        "offset": 0,
        "slot": "203",
        "type": "t_string_storage"
      },
      {
        "astId": 2062,
        "contract": "contracts/tokens/ERC1155/CollateralManagementToken.sol:CollateralManagementToken",
        "label": "__gap",
        "offset": 0,
        "slot": "204",
        "type": "t_array(t_uint256)47_storage"
      },
      {
        "astId": 2314,
        "contract": "contracts/tokens/ERC1155/CollateralManagementToken.sol:CollateralManagementToken",
        "label": "__gap",
        "offset": 0,
        "slot": "251",
        "type": "t_array(t_uint256)50_storage"
      },
      {
        "astId": 796,
        "contract": "contracts/tokens/ERC1155/CollateralManagementToken.sol:CollateralManagementToken",
        "label": "_paused",
        "offset": 0,
        "slot": "301",
        "type": "t_bool"
      },
      {
        "astId": 885,
        "contract": "contracts/tokens/ERC1155/CollateralManagementToken.sol:CollateralManagementToken",
        "label": "__gap",
        "offset": 0,
        "slot": "302",
        "type": "t_array(t_uint256)49_storage"
      },
      {
        "astId": 2385,
        "contract": "contracts/tokens/ERC1155/CollateralManagementToken.sol:CollateralManagementToken",
        "label": "__gap",
        "offset": 0,
        "slot": "351",
        "type": "t_array(t_uint256)50_storage"
      },
      {
        "astId": 2789,
        "contract": "contracts/tokens/ERC1155/CollateralManagementToken.sol:CollateralManagementToken",
        "label": "__gap",
        "offset": 0,
        "slot": "401",
        "type": "t_array(t_uint256)50_storage"
      },
      {
        "astId": 2411,
        "contract": "contracts/tokens/ERC1155/CollateralManagementToken.sol:CollateralManagementToken",
        "label": "_totalSupply",
        "offset": 0,
        "slot": "451",
        "type": "t_mapping(t_uint256,t_uint256)"
      },
      {
        "astId": 2538,
        "contract": "contracts/tokens/ERC1155/CollateralManagementToken.sol:CollateralManagementToken",
        "label": "__gap",
        "offset": 0,
        "slot": "452",
        "type": "t_array(t_uint256)49_storage"
      },
      {
        "astId": 37199,
        "contract": "contracts/tokens/ERC1155/CollateralManagementToken.sol:CollateralManagementToken",
        "label": "_name",
        "offset": 0,
        "slot": "501",
        "type": "t_string_storage"
      },
      {
        "astId": 37201,
        "contract": "contracts/tokens/ERC1155/CollateralManagementToken.sol:CollateralManagementToken",
        "label": "_symbol",
        "offset": 0,
        "slot": "502",
        "type": "t_string_storage"
      },
      {
        "astId": 37203,
        "contract": "contracts/tokens/ERC1155/CollateralManagementToken.sol:CollateralManagementToken",
        "label": "_decimals",
        "offset": 0,
        "slot": "503",
        "type": "t_uint8"
      }
    ],
    "types": {
      "t_address": {
        "encoding": "inplace",
        "label": "address",
        "numberOfBytes": "20"
      },
      "t_array(t_bytes32)dyn_storage": {
        "base": "t_bytes32",
        "encoding": "dynamic_array",
        "label": "bytes32[]",
        "numberOfBytes": "32"
      },
      "t_array(t_uint256)47_storage": {
        "base": "t_uint256",
        "encoding": "inplace",
        "label": "uint256[47]",
        "numberOfBytes": "1504"
      },
      "t_array(t_uint256)49_storage": {
        "base": "t_uint256",
        "encoding": "inplace",
        "label": "uint256[49]",
        "numberOfBytes": "1568"
      },
      "t_array(t_uint256)50_storage": {
        "base": "t_uint256",
        "encoding": "inplace",
        "label": "uint256[50]",
        "numberOfBytes": "1600"
      },
      "t_bool": {
        "encoding": "inplace",
        "label": "bool",
        "numberOfBytes": "1"
      },
      "t_bytes32": {
        "encoding": "inplace",
        "label": "bytes32",
        "numberOfBytes": "32"
      },
      "t_mapping(t_address,t_bool)": {
        "encoding": "mapping",
        "key": "t_address",
        "label": "mapping(address => bool)",
        "numberOfBytes": "32",
        "value": "t_bool"
      },
      "t_mapping(t_address,t_mapping(t_address,t_bool))": {
        "encoding": "mapping",
        "key": "t_address",
        "label": "mapping(address => mapping(address => bool))",
        "numberOfBytes": "32",
        "value": "t_mapping(t_address,t_bool)"
      },
      "t_mapping(t_address,t_uint256)": {
        "encoding": "mapping",
        "key": "t_address",
        "label": "mapping(address => uint256)",
        "numberOfBytes": "32",
        "value": "t_uint256"
      },
      "t_mapping(t_bytes32,t_struct(AddressSet)5563_storage)": {
        "encoding": "mapping",
        "key": "t_bytes32",
        "label": "mapping(bytes32 => struct EnumerableSetUpgradeable.AddressSet)",
        "numberOfBytes": "32",
        "value": "t_struct(AddressSet)5563_storage"
      },
      "t_mapping(t_bytes32,t_struct(RoleData)179_storage)": {
        "encoding": "mapping",
        "key": "t_bytes32",
        "label": "mapping(bytes32 => struct AccessControlUpgradeable.RoleData)",
        "numberOfBytes": "32",
        "value": "t_struct(RoleData)179_storage"
      },
      "t_mapping(t_bytes32,t_uint256)": {
        "encoding": "mapping",
        "key": "t_bytes32",
        "label": "mapping(bytes32 => uint256)",
        "numberOfBytes": "32",
        "value": "t_uint256"
      },
      "t_mapping(t_uint256,t_mapping(t_address,t_uint256))": {
        "encoding": "mapping",
        "key": "t_uint256",
        "label": "mapping(uint256 => mapping(address => uint256))",
        "numberOfBytes": "32",
        "value": "t_mapping(t_address,t_uint256)"
      },
      "t_mapping(t_uint256,t_uint256)": {
        "encoding": "mapping",
        "key": "t_uint256",
        "label": "mapping(uint256 => uint256)",
        "numberOfBytes": "32",
        "value": "t_uint256"
      },
      "t_string_storage": {
        "encoding": "bytes",
        "label": "string",
        "numberOfBytes": "32"
      },
      "t_struct(AddressSet)5563_storage": {
        "encoding": "inplace",
        "label": "struct EnumerableSetUpgradeable.AddressSet",
        "members": [
          {
            "astId": 5562,
            "contract": "contracts/tokens/ERC1155/CollateralManagementToken.sol:CollateralManagementToken",
            "label": "_inner",
            "offset": 0,
            "slot": "0",
            "type": "t_struct(Set)5262_storage"
          }
        ],
        "numberOfBytes": "64"
      },
      "t_struct(RoleData)179_storage": {
        "encoding": "inplace",
        "label": "struct AccessControlUpgradeable.RoleData",
        "members": [
          {
            "astId": 176,
            "contract": "contracts/tokens/ERC1155/CollateralManagementToken.sol:CollateralManagementToken",
            "label": "members",
            "offset": 0,
            "slot": "0",
            "type": "t_mapping(t_address,t_bool)"
          },
          {
            "astId": 178,
            "contract": "contracts/tokens/ERC1155/CollateralManagementToken.sol:CollateralManagementToken",
            "label": "adminRole",
            "offset": 0,
            "slot": "1",
            "type": "t_bytes32"
          }
        ],
        "numberOfBytes": "64"
      },
      "t_struct(Set)5262_storage": {
        "encoding": "inplace",
        "label": "struct EnumerableSetUpgradeable.Set",
        "members": [
          {
            "astId": 5257,
            "contract": "contracts/tokens/ERC1155/CollateralManagementToken.sol:CollateralManagementToken",
            "label": "_values",
            "offset": 0,
            "slot": "0",
            "type": "t_array(t_bytes32)dyn_storage"
          },
          {
            "astId": 5261,
            "contract": "contracts/tokens/ERC1155/CollateralManagementToken.sol:CollateralManagementToken",
            "label": "_indexes",
            "offset": 0,
            "slot": "1",
            "type": "t_mapping(t_bytes32,t_uint256)"
          }
        ],
        "numberOfBytes": "64"
      },
      "t_uint256": {
        "encoding": "inplace",
        "label": "uint256",
        "numberOfBytes": "32"
      },
      "t_uint8": {
        "encoding": "inplace",
        "label": "uint8",
        "numberOfBytes": "1"
      }
    }
  }
}