{
  "address": "0x18A64aB9868d1173863943aA090457A2D47Bd300",
  "abi": [
    {
      "anonymous": false,
      "inputs": [
        {
          "indexed": true,
          "internalType": "address",
          "name": "account",
          "type": "address"
        },
        {
          "indexed": true,
          "internalType": "address",
          "name": "operator",
          "type": "address"
        },
        {
          "indexed": false,
          "internalType": "bool",
          "name": "approved",
          "type": "bool"
        }
      ],
      "name": "ApprovalForAll",
      "type": "event"
    },
    {
      "anonymous": false,
      "inputs": [
        {
          "indexed": false,
          "internalType": "address",
          "name": "account",
          "type": "address"
        }
      ],
      "name": "Paused",
      "type": "event"
    },
    {
      "anonymous": false,
      "inputs": [
        {
          "indexed": true,
          "internalType": "bytes32",
          "name": "role",
          "type": "bytes32"
        },
        {
          "indexed": true,
          "internalType": "bytes32",
          "name": "previousAdminRole",
          "type": "bytes32"
        },
        {
          "indexed": true,
          "internalType": "bytes32",
          "name": "newAdminRole",
          "type": "bytes32"
        }
      ],
      "name": "RoleAdminChanged",
      "type": "event"
    },
    {
      "anonymous": false,
      "inputs": [
        {
          "indexed": true,
          "internalType": "bytes32",
          "name": "role",
          "type": "bytes32"
        },
        {
          "indexed": true,
          "internalType": "address",
          "name": "account",
          "type": "address"
        },
        {
          "indexed": true,
          "internalType": "address",
          "name": "sender",
          "type": "address"
        }
      ],
      "name": "RoleGranted",
      "type": "event"
    },
    {
      "anonymous": false,
      "inputs": [
        {
          "indexed": true,
          "internalType": "bytes32",
          "name": "role",
          "type": "bytes32"
        },
        {
          "indexed": true,
          "internalType": "address",
          "name": "account",
          "type": "address"
        },
        {
          "indexed": true,
          "internalType": "address",
          "name": "sender",
          "type": "address"
        }
      ],
      "name": "RoleRevoked",
      "type": "event"
    },
    {
      "anonymous": false,
      "inputs": [
        {
          "indexed": true,
          "internalType": "address",
          "name": "operator",
          "type": "address"
        },
        {
          "indexed": true,
          "internalType": "address",
          "name": "from",
          "type": "address"
        },
        {
          "indexed": true,
          "internalType": "address",
          "name": "to",
          "type": "address"
        },
        {
          "indexed": false,
          "internalType": "uint256[]",
          "name": "ids",
          "type": "uint256[]"
        },
        {
          "indexed": false,
          "internalType": "uint256[]",
          "name": "values",
          "type": "uint256[]"
        }
      ],
      "name": "TransferBatch",
      "type": "event"
    },
    {
      "anonymous": false,
      "inputs": [
        {
          "indexed": true,
          "internalType": "address",
          "name": "operator",
          "type": "address"
        },
        {
          "indexed": true,
          "internalType": "address",
          "name": "from",
          "type": "address"
        },
        {
          "indexed": true,
          "internalType": "address",
          "name": "to",
          "type": "address"
        },
        {
          "indexed": false,
          "internalType": "uint256",
          "name": "id",
          "type": "uint256"
        },
        {
          "indexed": false,
          "internalType": "uint256",
          "name": "value",
          "type": "uint256"
        }
      ],
      "name": "TransferSingle",
      "type": "event"
    },
    {
      "anonymous": false,
      "inputs": [
        {
          "indexed": false,
          "internalType": "string",
          "name": "value",
          "type": "string"
        },
        {
          "indexed": true,
          "internalType": "uint256",
          "name": "id",
          "type": "uint256"
        }
      ],
      "name": "URI",
      "type": "event"
    },
    {
      "anonymous": false,
      "inputs": [
        {
          "indexed": false,
          "internalType": "address",
          "name": "account",
          "type": "address"
        }
      ],
      "name": "Unpaused",
      "type": "event"
    },
    {
      "inputs": [],
      "name": "DEFAULT_ADMIN_ROLE",
      "outputs": [
        {
          "internalType": "bytes32",
          "name": "",
          "type": "bytes32"
        }
      ],
      "stateMutability": "view",
      "type": "function"
    },
    {
      "inputs": [],
      "name": "MINTER_ROLE",
      "outputs": [
        {
          "internalType": "bytes32",
          "name": "",
          "type": "bytes32"
        }
      ],
      "stateMutability": "view",
      "type": "function"
    },
    {
      "inputs": [],
      "name": "PAUSER_ROLE",
      "outputs": [
        {
          "internalType": "bytes32",
          "name": "",
          "type": "bytes32"
        }
      ],
      "stateMutability": "view",
      "type": "function"
    },
    {
      "inputs": [
        {
          "internalType": "address",
          "name": "account",
          "type": "address"
        },
        {
          "internalType": "uint256",
          "name": "id",
          "type": "uint256"
        }
      ],
      "name": "balanceOf",
      "outputs": [
        {
          "internalType": "uint256",
          "name": "",
          "type": "uint256"
        }
      ],
      "stateMutability": "view",
      "type": "function"
    },
    {
      "inputs": [
        {
          "internalType": "address[]",
          "name": "accounts",
          "type": "address[]"
        },
        {
          "internalType": "uint256[]",
          "name": "ids",
          "type": "uint256[]"
        }
      ],
      "name": "balanceOfBatch",
      "outputs": [
        {
          "internalType": "uint256[]",
          "name": "",
          "type": "uint256[]"
        }
      ],
      "stateMutability": "view",
      "type": "function"
    },
    {
      "inputs": [
        {
          "internalType": "address",
          "name": "_owner",
          "type": "address"
        },
        {
          "internalType": "uint256[]",
          "name": "_projectIds",
          "type": "uint256[]"
        }
      ],
      "name": "balanceOfProjects",
      "outputs": [
        {
          "internalType": "uint256[]",
          "name": "",
          "type": "uint256[]"
        }
      ],
      "stateMutability": "view",
      "type": "function"
    },
    {
      "inputs": [
        {
          "internalType": "address",
          "name": "account",
          "type": "address"
        },
        {
          "internalType": "uint256",
          "name": "id",
          "type": "uint256"
        },
        {
          "internalType": "uint256",
          "name": "value",
          "type": "uint256"
        }
      ],
      "name": "burn",
      "outputs": [],
      "stateMutability": "nonpayable",
      "type": "function"
    },
    {
      "inputs": [
        {
          "internalType": "address",
          "name": "account",
          "type": "address"
        },
        {
          "internalType": "uint256[]",
          "name": "ids",
          "type": "uint256[]"
        },
        {
          "internalType": "uint256[]",
          "name": "values",
          "type": "uint256[]"
        }
      ],
      "name": "burnBatch",
      "outputs": [],
      "stateMutability": "nonpayable",
      "type": "function"
    },
    {
      "inputs": [
        {
          "internalType": "bytes32",
          "name": "role",
          "type": "bytes32"
        }
      ],
      "name": "getRoleAdmin",
      "outputs": [
        {
          "internalType": "bytes32",
          "name": "",
          "type": "bytes32"
        }
      ],
      "stateMutability": "view",
      "type": "function"
    },
    {
      "inputs": [
        {
          "internalType": "bytes32",
          "name": "role",
          "type": "bytes32"
        },
        {
          "internalType": "uint256",
          "name": "index",
          "type": "uint256"
        }
      ],
      "name": "getRoleMember",
      "outputs": [
        {
          "internalType": "address",
          "name": "",
          "type": "address"
        }
      ],
      "stateMutability": "view",
      "type": "function"
    },
    {
      "inputs": [
        {
          "internalType": "bytes32",
          "name": "role",
          "type": "bytes32"
        }
      ],
      "name": "getRoleMemberCount",
      "outputs": [
        {
          "internalType": "uint256",
          "name": "",
          "type": "uint256"
        }
      ],
      "stateMutability": "view",
      "type": "function"
    },
    {
      "inputs": [
        {
          "internalType": "bytes32",
          "name": "role",
          "type": "bytes32"
        },
        {
          "internalType": "address",
          "name": "account",
          "type": "address"
        }
      ],
      "name": "grantRole",
      "outputs": [],
      "stateMutability": "nonpayable",
      "type": "function"
    },
    {
      "inputs": [
        {
          "internalType": "bytes32",
          "name": "role",
          "type": "bytes32"
        },
        {
          "internalType": "address",
          "name": "account",
          "type": "address"
        }
      ],
      "name": "hasRole",
      "outputs": [
        {
          "internalType": "bool",
          "name": "",
          "type": "bool"
        }
      ],
      "stateMutability": "view",
      "type": "function"
    },
    {
      "inputs": [
        {
          "internalType": "address",
          "name": "minter",
          "type": "address"
        },
        {
          "internalType": "string",
          "name": "name",
          "type": "string"
        },
        {
          "internalType": "string",
          "name": "symbol",
          "type": "string"
        },
        {
          "internalType": "string",
          "name": "uri",
          "type": "string"
        }
      ],
      "name": "initialize",
      "outputs": [],
      "stateMutability": "nonpayable",
      "type": "function"
    },
    {
      "inputs": [
        {
          "internalType": "string",
          "name": "uri",
          "type": "string"
        }
      ],
      "name": "initialize",
      "outputs": [],
      "stateMutability": "nonpayable",
      "type": "function"
    },
    {
      "inputs": [
        {
          "internalType": "address",
          "name": "account",
          "type": "address"
        },
        {
          "internalType": "address",
          "name": "operator",
          "type": "address"
        }
      ],
      "name": "isApprovedForAll",
      "outputs": [
        {
          "internalType": "bool",
          "name": "",
          "type": "bool"
        }
      ],
      "stateMutability": "view",
      "type": "function"
    },
    {
      "inputs": [
        {
          "internalType": "address",
          "name": "to",
          "type": "address"
        },
        {
          "internalType": "uint256",
          "name": "id",
          "type": "uint256"
        },
        {
          "internalType": "uint256",
          "name": "amount",
          "type": "uint256"
        },
        {
          "internalType": "bytes",
          "name": "data",
          "type": "bytes"
        }
      ],
      "name": "mint",
      "outputs": [],
      "stateMutability": "nonpayable",
      "type": "function"
    },
    {
      "inputs": [
        {
          "internalType": "address",
          "name": "to",
          "type": "address"
        },
        {
          "internalType": "uint256[]",
          "name": "ids",
          "type": "uint256[]"
        },
        {
          "internalType": "uint256[]",
          "name": "amounts",
          "type": "uint256[]"
        },
        {
          "internalType": "bytes",
          "name": "data",
          "type": "bytes"
        }
      ],
      "name": "mintBatch",
      "outputs": [],
      "stateMutability": "nonpayable",
      "type": "function"
    },
    {
      "inputs": [],
      "name": "name",
      "outputs": [
        {
          "internalType": "string",
          "name": "",
          "type": "string"
        }
      ],
      "stateMutability": "view",
      "type": "function"
    },
    {
      "inputs": [],
      "name": "pause",
      "outputs": [],
      "stateMutability": "nonpayable",
      "type": "function"
    },
    {
      "inputs": [],
      "name": "paused",
      "outputs": [
        {
          "internalType": "bool",
          "name": "",
          "type": "bool"
        }
      ],
      "stateMutability": "view",
      "type": "function"
    },
    {
      "inputs": [
        {
          "internalType": "bytes32",
          "name": "role",
          "type": "bytes32"
        },
        {
          "internalType": "address",
          "name": "account",
          "type": "address"
        }
      ],
      "name": "renounceRole",
      "outputs": [],
      "stateMutability": "nonpayable",
      "type": "function"
    },
    {
      "inputs": [
        {
          "internalType": "bytes32",
          "name": "role",
          "type": "bytes32"
        },
        {
          "internalType": "address",
          "name": "account",
          "type": "address"
        }
      ],
      "name": "revokeRole",
      "outputs": [],
      "stateMutability": "nonpayable",
      "type": "function"
    },
    {
      "inputs": [
        {
          "internalType": "address",
          "name": "from",
          "type": "address"
        },
        {
          "internalType": "address",
          "name": "to",
          "type": "address"
        },
        {
          "internalType": "uint256[]",
          "name": "ids",
          "type": "uint256[]"
        },
        {
          "internalType": "uint256[]",
          "name": "amounts",
          "type": "uint256[]"
        },
        {
          "internalType": "bytes",
          "name": "data",
          "type": "bytes"
        }
      ],
      "name": "safeBatchTransferFrom",
      "outputs": [],
      "stateMutability": "nonpayable",
      "type": "function"
    },
    {
      "inputs": [
        {
          "internalType": "address",
          "name": "from",
          "type": "address"
        },
        {
          "internalType": "address",
          "name": "to",
          "type": "address"
        },
        {
          "internalType": "uint256",
          "name": "id",
          "type": "uint256"
        },
        {
          "internalType": "uint256",
          "name": "amount",
          "type": "uint256"
        },
        {
          "internalType": "bytes",
          "name": "data",
          "type": "bytes"
        }
      ],
      "name": "safeTransferFrom",
      "outputs": [],
      "stateMutability": "nonpayable",
      "type": "function"
    },
    {
      "inputs": [
        {
          "internalType": "address",
          "name": "operator",
          "type": "address"
        },
        {
          "internalType": "bool",
          "name": "approved",
          "type": "bool"
        }
      ],
      "name": "setApprovalForAll",
      "outputs": [],
      "stateMutability": "nonpayable",
      "type": "function"
    },
    {
      "inputs": [
        {
          "internalType": "bytes4",
          "name": "interfaceId",
          "type": "bytes4"
        }
      ],
      "name": "supportsInterface",
      "outputs": [
        {
          "internalType": "bool",
          "name": "",
          "type": "bool"
        }
      ],
      "stateMutability": "view",
      "type": "function"
    },
    {
      "inputs": [],
      "name": "symbol",
      "outputs": [
        {
          "internalType": "string",
          "name": "",
          "type": "string"
        }
      ],
      "stateMutability": "view",
      "type": "function"
    },
    {
      "inputs": [],
      "name": "unpause",
      "outputs": [],
      "stateMutability": "nonpayable",
      "type": "function"
    },
    {
      "inputs": [
        {
          "internalType": "uint256",
          "name": "",
          "type": "uint256"
        }
      ],
      "name": "uri",
      "outputs": [
        {
          "internalType": "string",
          "name": "",
          "type": "string"
        }
      ],
      "stateMutability": "view",
      "type": "function"
    }
  ],
  "transactionHash": "0x1a8b1bea19a20dd904a8a0cfbe57c7f6e40f7b48cc514227337cbb34f5013758",
  "args": [],
  "numDeployments": 1,
  "solcInputHash": "529c0b6cc6bac4bfe0551d9136cfc61b",
  "bytecode": "0x608060405234801561001057600080fd5b506142cd806100206000396000f3fe608060405234801561001057600080fd5b50600436106101d95760003560e01c80638456cb5911610104578063ca15c873116100a2578063e985e9c511610071578063e985e9c51461045d578063f242432a146104a6578063f5298aca146104b9578063f62d1888146104cc57600080fd5b8063ca15c873146103e9578063d5391393146103fc578063d547741f14610423578063e63ab1e91461043657600080fd5b806395d89b41116100de57806395d89b41146103b3578063a217fddf146103bb578063a22cb465146103c3578063b356cdf3146103d657600080fd5b80638456cb591461032d5780639010d07c1461033557806391d148541461036d57600080fd5b80632f2ff15d1161017c5780635c975abb1161014b5780635c975abb146102e85780635f1e6f6d146102f45780636b20c45414610307578063731133e91461031a57600080fd5b80632f2ff15d1461029a57806336568abe146102ad5780633f4ba83a146102c05780634e1273f4146102c857600080fd5b80630e89341c116101b85780630e89341c1461023c5780631f7fdffa1461024f578063248a9ca3146102645780632eb2c2d61461028757600080fd5b8062fdd58e146101de57806301ffc9a71461020457806306fdde0314610227575b600080fd5b6101f16101ec36600461363d565b6104df565b6040519081526020015b60405180910390f35b610217610212366004613695565b6105c1565b60405190151581526020016101fb565b61022f6105cc565b6040516101fb9190613728565b61022f61024a36600461373b565b61065f565b61026261025d3660046138f5565b6106f3565b005b6101f161027236600461373b565b60009081526065602052604090206001015490565b61026261029536600461398e565b6107bb565b6102626102a8366004613a38565b610884565b6102626102bb366004613a38565b6108af565b610262610962565b6102db6102d6366004613a64565b610a22565b6040516101fb9190613b6a565b61012d5460ff16610217565b610262610302366004613b7d565b610b7a565b610262610315366004613be7565b610d20565b610262610328366004613c5b565b610de0565b610262610ea2565b610348610343366004613cb0565b610f60565b60405173ffffffffffffffffffffffffffffffffffffffff90911681526020016101fb565b61021761037b366004613a38565b600091825260656020908152604080842073ffffffffffffffffffffffffffffffffffffffff93909316845291905290205460ff1690565b61022f610f7f565b6101f1600081565b6102626103d1366004613cd2565b610f8f565b6102db6103e4366004613d0e565b610f9a565b6101f16103f736600461373b565b611048565b6101f17f9f2df0fed2c77648de5860a4cc508cd0818c85b8b8a1ab4ceeef8d981c8956a681565b610262610431366004613a38565b61105f565b6101f17f65d7a28e3265b37a6474929f336521b332c1681b933f6cb9f3376673440d862a81565b61021761046b366004613d94565b73ffffffffffffffffffffffffffffffffffffffff918216600090815260ca6020908152604080832093909416825291909152205460ff1690565b6102626104b4366004613dbe565b611085565b6102626104c7366004613e23565b611147565b6102626104da366004613e56565b611207565b600073ffffffffffffffffffffffffffffffffffffffff8316610589576040517f08c379a000000000000000000000000000000000000000000000000000000000815260206004820152602b60248201527f455243313135353a2062616c616e636520717565727920666f7220746865207a60448201527f65726f206164647265737300000000000000000000000000000000000000000060648201526084015b60405180910390fd5b50600081815260c96020908152604080832073ffffffffffffffffffffffffffffffffffffffff861684529091529020545b92915050565b60006105bb8261132c565b60606101c380546105dc90613e93565b80601f016020809104026020016040519081016040528092919081815260200182805461060890613e93565b80156106555780601f1061062a57610100808354040283529160200191610655565b820191906000526020600020905b81548152906001019060200180831161063857829003601f168201915b5050505050905090565b606060cb805461066e90613e93565b80601f016020809104026020016040519081016040528092919081815260200182805461069a90613e93565b80156106e75780601f106106bc576101008083540402835291602001916106e7565b820191906000526020600020905b8154815290600101906020018083116106ca57829003601f168201915b50505050509050919050565b61071d7f9f2df0fed2c77648de5860a4cc508cd0818c85b8b8a1ab4ceeef8d981c8956a63361037b565b6107a9576040517f08c379a000000000000000000000000000000000000000000000000000000000815260206004820152603860248201527f455243313135355072657365744d696e7465725061757365723a206d7573742060448201527f68617665206d696e74657220726f6c6520746f206d696e7400000000000000006064820152608401610580565b6107b5848484846113ce565b50505050565b73ffffffffffffffffffffffffffffffffffffffff85163314806107e457506107e4853361046b565b610870576040517f08c379a000000000000000000000000000000000000000000000000000000000815260206004820152603260248201527f455243313135353a207472616e736665722063616c6c6572206973206e6f742060448201527f6f776e6572206e6f7220617070726f76656400000000000000000000000000006064820152608401610580565b61087d8585858585611657565b5050505050565b6000828152606560205260409020600101546108a081336119a2565b6108aa8383611a74565b505050565b73ffffffffffffffffffffffffffffffffffffffff81163314610954576040517f08c379a000000000000000000000000000000000000000000000000000000000815260206004820152602f60248201527f416363657373436f6e74726f6c3a2063616e206f6e6c792072656e6f756e636560448201527f20726f6c657320666f722073656c6600000000000000000000000000000000006064820152608401610580565b61095e8282611a96565b5050565b61098c7f65d7a28e3265b37a6474929f336521b332c1681b933f6cb9f3376673440d862a3361037b565b610a18576040517f08c379a000000000000000000000000000000000000000000000000000000000815260206004820152603b60248201527f455243313135355072657365744d696e7465725061757365723a206d7573742060448201527f686176652070617573657220726f6c6520746f20756e706175736500000000006064820152608401610580565b610a20611ab8565b565b60608151835114610ab5576040517f08c379a000000000000000000000000000000000000000000000000000000000815260206004820152602960248201527f455243313135353a206163636f756e747320616e6420696473206c656e67746860448201527f206d69736d6174636800000000000000000000000000000000000000000000006064820152608401610580565b6000835167ffffffffffffffff811115610ad157610ad1613754565b604051908082528060200260200182016040528015610afa578160200160208202803683370190505b50905060005b8451811015610b7257610b45858281518110610b1e57610b1e613ee6565b6020026020010151858381518110610b3857610b38613ee6565b60200260200101516104df565b828281518110610b5757610b57613ee6565b6020908102919091010152610b6b81613f44565b9050610b00565b509392505050565b600054610100900460ff16610b955760005460ff1615610b99565b303b155b610c25576040517f08c379a000000000000000000000000000000000000000000000000000000000815260206004820152602e60248201527f496e697469616c697a61626c653a20636f6e747261637420697320616c72656160448201527f647920696e697469616c697a65640000000000000000000000000000000000006064820152608401610580565b600054610100900460ff16158015610c6457600080547fffffffffffffffffffffffffffffffffffffffffffffffffffffffffffff0000166101011790555b8351610c78906101c390602087019061357b565b508251610c8d906101c490602086019061357b565b50610c9782611b9b565b610cc17f9f2df0fed2c77648de5860a4cc508cd0818c85b8b8a1ab4ceeef8d981c8956a686611c4f565b610ceb7f9f2df0fed2c77648de5860a4cc508cd0818c85b8b8a1ab4ceeef8d981c8956a6336108af565b801561087d57600080547fffffffffffffffffffffffffffffffffffffffffffffffffffffffffffff00ff1690555050505050565b73ffffffffffffffffffffffffffffffffffffffff8316331480610d495750610d49833361046b565b610dd5576040517f08c379a000000000000000000000000000000000000000000000000000000000815260206004820152602960248201527f455243313135353a2063616c6c6572206973206e6f74206f776e6572206e6f7260448201527f20617070726f76656400000000000000000000000000000000000000000000006064820152608401610580565b6108aa838383611c59565b610e0a7f9f2df0fed2c77648de5860a4cc508cd0818c85b8b8a1ab4ceeef8d981c8956a63361037b565b610e96576040517f08c379a000000000000000000000000000000000000000000000000000000000815260206004820152603860248201527f455243313135355072657365744d696e7465725061757365723a206d7573742060448201527f68617665206d696e74657220726f6c6520746f206d696e7400000000000000006064820152608401610580565b6107b584848484611f87565b610ecc7f65d7a28e3265b37a6474929f336521b332c1681b933f6cb9f3376673440d862a3361037b565b610f58576040517f08c379a000000000000000000000000000000000000000000000000000000000815260206004820152603960248201527f455243313135355072657365744d696e7465725061757365723a206d7573742060448201527f686176652070617573657220726f6c6520746f207061757365000000000000006064820152608401610580565b610a206120f6565b6000828152609760205260408120610f7890836121b8565b9392505050565b60606101c480546105dc90613e93565b61095e3383836121c4565b606060008267ffffffffffffffff811115610fb757610fb7613754565b604051908082528060200260200182016040528015610fe0578160200160208202803683370190505b50905060005b8381101561103f576110108686868481811061100457611004613ee6565b905060200201356104df565b82828151811061102257611022613ee6565b60209081029190910101528061103781613f44565b915050610fe6565b50949350505050565b60008181526097602052604081206105bb90612317565b60008281526065602052604090206001015461107b81336119a2565b6108aa8383611a96565b73ffffffffffffffffffffffffffffffffffffffff85163314806110ae57506110ae853361046b565b61113a576040517f08c379a000000000000000000000000000000000000000000000000000000000815260206004820152602960248201527f455243313135353a2063616c6c6572206973206e6f74206f776e6572206e6f7260448201527f20617070726f76656400000000000000000000000000000000000000000000006064820152608401610580565b61087d8585858585612321565b73ffffffffffffffffffffffffffffffffffffffff83163314806111705750611170833361046b565b6111fc576040517f08c379a000000000000000000000000000000000000000000000000000000000815260206004820152602960248201527f455243313135353a2063616c6c6572206973206e6f74206f776e6572206e6f7260448201527f20617070726f76656400000000000000000000000000000000000000000000006064820152608401610580565b6108aa838383612556565b600054610100900460ff166112225760005460ff1615611226565b303b155b6112b2576040517f08c379a000000000000000000000000000000000000000000000000000000000815260206004820152602e60248201527f496e697469616c697a61626c653a20636f6e747261637420697320616c72656160448201527f647920696e697469616c697a65640000000000000000000000000000000000006064820152608401610580565b600054610100900460ff161580156112f157600080547fffffffffffffffffffffffffffffffffffffffffffffffffffffffffffff0000166101011790555b6112fa82611b9b565b801561095e57600080547fffffffffffffffffffffffffffffffffffffffffffffffffffffffffffff00ff1690555050565b60007fffffffff0000000000000000000000000000000000000000000000000000000082167fd9b67a260000000000000000000000000000000000000000000000000000000014806113bf57507fffffffff0000000000000000000000000000000000000000000000000000000082167f0e89341c00000000000000000000000000000000000000000000000000000000145b806105bb57506105bb82612761565b73ffffffffffffffffffffffffffffffffffffffff8416611471576040517f08c379a000000000000000000000000000000000000000000000000000000000815260206004820152602160248201527f455243313135353a206d696e7420746f20746865207a65726f2061646472657360448201527f73000000000000000000000000000000000000000000000000000000000000006064820152608401610580565b8151835114611502576040517f08c379a000000000000000000000000000000000000000000000000000000000815260206004820152602860248201527f455243313135353a2069647320616e6420616d6f756e7473206c656e6774682060448201527f6d69736d617463680000000000000000000000000000000000000000000000006064820152608401610580565b33611512816000878787876127b7565b60005b84518110156115c85783818151811061153057611530613ee6565b602002602001015160c9600087848151811061154e5761154e613ee6565b6020026020010151815260200190815260200160002060008873ffffffffffffffffffffffffffffffffffffffff1673ffffffffffffffffffffffffffffffffffffffff16815260200190815260200160002060008282546115b09190613f7c565b909155508190506115c081613f44565b915050611515565b508473ffffffffffffffffffffffffffffffffffffffff16600073ffffffffffffffffffffffffffffffffffffffff168273ffffffffffffffffffffffffffffffffffffffff167f4a39dc06d4c0dbc64b70af90fd698a233a518aa5d07e595d983b8c0526c8f7fb8787604051611640929190613f94565b60405180910390a461087d816000878787876127c5565b81518351146116e8576040517f08c379a000000000000000000000000000000000000000000000000000000000815260206004820152602860248201527f455243313135353a2069647320616e6420616d6f756e7473206c656e6774682060448201527f6d69736d617463680000000000000000000000000000000000000000000000006064820152608401610580565b73ffffffffffffffffffffffffffffffffffffffff841661178b576040517f08c379a000000000000000000000000000000000000000000000000000000000815260206004820152602560248201527f455243313135353a207472616e7366657220746f20746865207a65726f20616460448201527f64726573730000000000000000000000000000000000000000000000000000006064820152608401610580565b3361179a8187878787876127b7565b60005b845181101561190d5760008582815181106117ba576117ba613ee6565b6020026020010151905060008583815181106117d8576117d8613ee6565b602090810291909101810151600084815260c98352604080822073ffffffffffffffffffffffffffffffffffffffff8e1683529093529190912054909150818110156118a6576040517f08c379a000000000000000000000000000000000000000000000000000000000815260206004820152602a60248201527f455243313135353a20696e73756666696369656e742062616c616e636520666f60448201527f72207472616e73666572000000000000000000000000000000000000000000006064820152608401610580565b600083815260c96020908152604080832073ffffffffffffffffffffffffffffffffffffffff8e8116855292528083208585039055908b168252812080548492906118f2908490613f7c565b925050819055505050508061190690613f44565b905061179d565b508473ffffffffffffffffffffffffffffffffffffffff168673ffffffffffffffffffffffffffffffffffffffff168273ffffffffffffffffffffffffffffffffffffffff167f4a39dc06d4c0dbc64b70af90fd698a233a518aa5d07e595d983b8c0526c8f7fb8787604051611984929190613f94565b60405180910390a461199a8187878787876127c5565b505050505050565b600082815260656020908152604080832073ffffffffffffffffffffffffffffffffffffffff8516845290915290205460ff1661095e576119fa8173ffffffffffffffffffffffffffffffffffffffff166014612a4f565b611a05836020612a4f565b604051602001611a16929190613fc2565b604080517fffffffffffffffffffffffffffffffffffffffffffffffffffffffffffffffe0818403018152908290527f08c379a000000000000000000000000000000000000000000000000000000000825261058091600401613728565b611a7e8282612c92565b60008281526097602052604090206108aa9082612d86565b611aa08282612da8565b60008281526097602052604090206108aa9082612e63565b61012d5460ff16611b25576040517f08c379a000000000000000000000000000000000000000000000000000000000815260206004820152601460248201527f5061757361626c653a206e6f74207061757365640000000000000000000000006044820152606401610580565b61012d80547fffffffffffffffffffffffffffffffffffffffffffffffffffffffffffffff001690557f5db9ee0a495bf2e6ff9c91a7834c1ba4fdd244a5e8aa4e537bd38aeae4b073aa335b60405173ffffffffffffffffffffffffffffffffffffffff909116815260200160405180910390a1565b600054610100900460ff16611c32576040517f08c379a000000000000000000000000000000000000000000000000000000000815260206004820152602b60248201527f496e697469616c697a61626c653a20636f6e7472616374206973206e6f74206960448201527f6e697469616c697a696e670000000000000000000000000000000000000000006064820152608401610580565b611c3b81612e85565b611c43612f25565b611c4c81612fe7565b50565b61095e8282611a74565b73ffffffffffffffffffffffffffffffffffffffff8316611cfc576040517f08c379a000000000000000000000000000000000000000000000000000000000815260206004820152602360248201527f455243313135353a206275726e2066726f6d20746865207a65726f206164647260448201527f65737300000000000000000000000000000000000000000000000000000000006064820152608401610580565b8051825114611d8d576040517f08c379a000000000000000000000000000000000000000000000000000000000815260206004820152602860248201527f455243313135353a2069647320616e6420616d6f756e7473206c656e6774682060448201527f6d69736d617463680000000000000000000000000000000000000000000000006064820152608401610580565b6000339050611db0818560008686604051806020016040528060008152506127b7565b60005b8351811015611f01576000848281518110611dd057611dd0613ee6565b602002602001015190506000848381518110611dee57611dee613ee6565b602090810291909101810151600084815260c98352604080822073ffffffffffffffffffffffffffffffffffffffff8c168352909352919091205490915081811015611ebb576040517f08c379a0000000000000000000000000000000000000000000000000000000008152602060048201526024808201527f455243313135353a206275726e20616d6f756e7420657863656564732062616c60448201527f616e6365000000000000000000000000000000000000000000000000000000006064820152608401610580565b600092835260c96020908152604080852073ffffffffffffffffffffffffffffffffffffffff8b1686529091529092209103905580611ef981613f44565b915050611db3565b50600073ffffffffffffffffffffffffffffffffffffffff168473ffffffffffffffffffffffffffffffffffffffff168273ffffffffffffffffffffffffffffffffffffffff167f4a39dc06d4c0dbc64b70af90fd698a233a518aa5d07e595d983b8c0526c8f7fb8686604051611f79929190613f94565b60405180910390a450505050565b73ffffffffffffffffffffffffffffffffffffffff841661202a576040517f08c379a000000000000000000000000000000000000000000000000000000000815260206004820152602160248201527f455243313135353a206d696e7420746f20746865207a65726f2061646472657360448201527f73000000000000000000000000000000000000000000000000000000000000006064820152608401610580565b3361204a8160008761203b886130dd565b612044886130dd565b876127b7565b600084815260c96020908152604080832073ffffffffffffffffffffffffffffffffffffffff8916845290915281208054859290612089908490613f7c565b9091555050604080518581526020810185905273ffffffffffffffffffffffffffffffffffffffff80881692600092918516917fc3d58168c5ae7397731d063d5bbf3d657854427343f4c083240f7aacaa2d0f62910160405180910390a461087d81600087878787613128565b61012d5460ff1615612164576040517f08c379a000000000000000000000000000000000000000000000000000000000815260206004820152601060248201527f5061757361626c653a20706175736564000000000000000000000000000000006044820152606401610580565b61012d80547fffffffffffffffffffffffffffffffffffffffffffffffffffffffffffffff001660011790557f62e78cea01bee320cd4e420270b5ea74000d11b0c9f74754ebdbfc544b05a258611b713390565b6000610f7883836132d5565b8173ffffffffffffffffffffffffffffffffffffffff168373ffffffffffffffffffffffffffffffffffffffff160361227f576040517f08c379a000000000000000000000000000000000000000000000000000000000815260206004820152602960248201527f455243313135353a2073657474696e6720617070726f76616c2073746174757360448201527f20666f722073656c6600000000000000000000000000000000000000000000006064820152608401610580565b73ffffffffffffffffffffffffffffffffffffffff838116600081815260ca602090815260408083209487168084529482529182902080547fffffffffffffffffffffffffffffffffffffffffffffffffffffffffffffff001686151590811790915591519182527f17307eab39ab6107e8899845ad3d59bd9653f200f220920489ca2b5937696c31910160405180910390a3505050565b60006105bb825490565b73ffffffffffffffffffffffffffffffffffffffff84166123c4576040517f08c379a000000000000000000000000000000000000000000000000000000000815260206004820152602560248201527f455243313135353a207472616e7366657220746f20746865207a65726f20616460448201527f64726573730000000000000000000000000000000000000000000000000000006064820152608401610580565b336123d481878761203b886130dd565b600084815260c96020908152604080832073ffffffffffffffffffffffffffffffffffffffff8a16845290915290205483811015612494576040517f08c379a000000000000000000000000000000000000000000000000000000000815260206004820152602a60248201527f455243313135353a20696e73756666696369656e742062616c616e636520666f60448201527f72207472616e73666572000000000000000000000000000000000000000000006064820152608401610580565b600085815260c96020908152604080832073ffffffffffffffffffffffffffffffffffffffff8b81168552925280832087850390559088168252812080548692906124e0908490613f7c565b9091555050604080518681526020810186905273ffffffffffffffffffffffffffffffffffffffff808916928a821692918616917fc3d58168c5ae7397731d063d5bbf3d657854427343f4c083240f7aacaa2d0f62910160405180910390a461254d828888888888613128565b50505050505050565b73ffffffffffffffffffffffffffffffffffffffff83166125f9576040517f08c379a000000000000000000000000000000000000000000000000000000000815260206004820152602360248201527f455243313135353a206275726e2066726f6d20746865207a65726f206164647260448201527f65737300000000000000000000000000000000000000000000000000000000006064820152608401610580565b336126288185600061260a876130dd565b612613876130dd565b604051806020016040528060008152506127b7565b600083815260c96020908152604080832073ffffffffffffffffffffffffffffffffffffffff88168452909152902054828110156126e7576040517f08c379a0000000000000000000000000000000000000000000000000000000008152602060048201526024808201527f455243313135353a206275726e20616d6f756e7420657863656564732062616c60448201527f616e6365000000000000000000000000000000000000000000000000000000006064820152608401610580565b600084815260c96020908152604080832073ffffffffffffffffffffffffffffffffffffffff898116808652918452828520888703905582518981529384018890529092908616917fc3d58168c5ae7397731d063d5bbf3d657854427343f4c083240f7aacaa2d0f62910160405180910390a45050505050565b60007fffffffff0000000000000000000000000000000000000000000000000000000082167f5a05180f0000000000000000000000000000000000000000000000000000000014806105bb57506105bb826132ff565b61199a868686868686613396565b73ffffffffffffffffffffffffffffffffffffffff84163b1561199a576040517fbc197c8100000000000000000000000000000000000000000000000000000000815273ffffffffffffffffffffffffffffffffffffffff85169063bc197c819061283c9089908990889088908890600401614043565b6020604051808303816000875af1925050508015612895575060408051601f3d9081017fffffffffffffffffffffffffffffffffffffffffffffffffffffffffffffffe0168201909252612892918101906140ae565b60015b61297e576128a16140cb565b806308c379a0036128f457506128b56140e7565b806128c057506128f6565b806040517f08c379a00000000000000000000000000000000000000000000000000000000081526004016105809190613728565b505b6040517f08c379a000000000000000000000000000000000000000000000000000000000815260206004820152603460248201527f455243313135353a207472616e7366657220746f206e6f6e204552433131353560448201527f526563656976657220696d706c656d656e7465720000000000000000000000006064820152608401610580565b7fffffffff0000000000000000000000000000000000000000000000000000000081167fbc197c81000000000000000000000000000000000000000000000000000000001461254d576040517f08c379a000000000000000000000000000000000000000000000000000000000815260206004820152602860248201527f455243313135353a204552433131353552656365697665722072656a6563746560448201527f6420746f6b656e730000000000000000000000000000000000000000000000006064820152608401610580565b60606000612a5e83600261418f565b612a69906002613f7c565b67ffffffffffffffff811115612a8157612a81613754565b6040519080825280601f01601f191660200182016040528015612aab576020820181803683370190505b5090507f300000000000000000000000000000000000000000000000000000000000000081600081518110612ae257612ae2613ee6565b60200101907effffffffffffffffffffffffffffffffffffffffffffffffffffffffffffff1916908160001a9053507f780000000000000000000000000000000000000000000000000000000000000081600181518110612b4557612b45613ee6565b60200101907effffffffffffffffffffffffffffffffffffffffffffffffffffffffffffff1916908160001a9053506000612b8184600261418f565b612b8c906001613f7c565b90505b6001811115612c29577f303132333435363738396162636465660000000000000000000000000000000085600f1660108110612bcd57612bcd613ee6565b1a60f81b828281518110612be357612be3613ee6565b60200101907effffffffffffffffffffffffffffffffffffffffffffffffffffffffffffff1916908160001a90535060049490941c93612c22816141cc565b9050612b8f565b508315610f78576040517f08c379a000000000000000000000000000000000000000000000000000000000815260206004820181905260248201527f537472696e67733a20686578206c656e67746820696e73756666696369656e746044820152606401610580565b600082815260656020908152604080832073ffffffffffffffffffffffffffffffffffffffff8516845290915290205460ff1661095e57600082815260656020908152604080832073ffffffffffffffffffffffffffffffffffffffff85168452909152902080547fffffffffffffffffffffffffffffffffffffffffffffffffffffffffffffff00166001179055612d283390565b73ffffffffffffffffffffffffffffffffffffffff168173ffffffffffffffffffffffffffffffffffffffff16837f2f8788117e7eff1d82e926ec794901d17c78024a50270940304540a733656f0d60405160405180910390a45050565b6000610f788373ffffffffffffffffffffffffffffffffffffffff841661342a565b600082815260656020908152604080832073ffffffffffffffffffffffffffffffffffffffff8516845290915290205460ff161561095e57600082815260656020908152604080832073ffffffffffffffffffffffffffffffffffffffff8516808552925280832080547fffffffffffffffffffffffffffffffffffffffffffffffffffffffffffffff0016905551339285917ff6391f5c32d9c69d2a47ea670b442974b53935d1edc7fd64eb21e047a839171b9190a45050565b6000610f788373ffffffffffffffffffffffffffffffffffffffff8416613479565b600054610100900460ff16612f1c576040517f08c379a000000000000000000000000000000000000000000000000000000000815260206004820152602b60248201527f496e697469616c697a61626c653a20636f6e7472616374206973206e6f74206960448201527f6e697469616c697a696e670000000000000000000000000000000000000000006064820152608401610580565b611c4c8161356c565b600054610100900460ff16612fbc576040517f08c379a000000000000000000000000000000000000000000000000000000000815260206004820152602b60248201527f496e697469616c697a61626c653a20636f6e7472616374206973206e6f74206960448201527f6e697469616c697a696e670000000000000000000000000000000000000000006064820152608401610580565b61012d80547fffffffffffffffffffffffffffffffffffffffffffffffffffffffffffffff00169055565b600054610100900460ff1661307e576040517f08c379a000000000000000000000000000000000000000000000000000000000815260206004820152602b60248201527f496e697469616c697a61626c653a20636f6e7472616374206973206e6f74206960448201527f6e697469616c697a696e670000000000000000000000000000000000000000006064820152608401610580565b613089600033611c4f565b6130b37f9f2df0fed2c77648de5860a4cc508cd0818c85b8b8a1ab4ceeef8d981c8956a633611c4f565b611c4c7f65d7a28e3265b37a6474929f336521b332c1681b933f6cb9f3376673440d862a33611c4f565b6040805160018082528183019092526060916000919060208083019080368337019050509050828160008151811061311757613117613ee6565b602090810291909101015292915050565b73ffffffffffffffffffffffffffffffffffffffff84163b1561199a576040517ff23a6e6100000000000000000000000000000000000000000000000000000000815273ffffffffffffffffffffffffffffffffffffffff85169063f23a6e619061319f9089908990889088908890600401614201565b6020604051808303816000875af19250505080156131f8575060408051601f3d9081017fffffffffffffffffffffffffffffffffffffffffffffffffffffffffffffffe01682019092526131f5918101906140ae565b60015b613204576128a16140cb565b7fffffffff0000000000000000000000000000000000000000000000000000000081167ff23a6e61000000000000000000000000000000000000000000000000000000001461254d576040517f08c379a000000000000000000000000000000000000000000000000000000000815260206004820152602860248201527f455243313135353a204552433131353552656365697665722072656a6563746560448201527f6420746f6b656e730000000000000000000000000000000000000000000000006064820152608401610580565b60008260000182815481106132ec576132ec613ee6565b9060005260206000200154905092915050565b60007fffffffff0000000000000000000000000000000000000000000000000000000082167f7965db0b0000000000000000000000000000000000000000000000000000000014806105bb57507f01ffc9a7000000000000000000000000000000000000000000000000000000007fffffffff000000000000000000000000000000000000000000000000000000008316146105bb565b61012d5460ff161561199a576040517f08c379a000000000000000000000000000000000000000000000000000000000815260206004820152602c60248201527f455243313135355061757361626c653a20746f6b656e207472616e736665722060448201527f7768696c652070617573656400000000000000000000000000000000000000006064820152608401610580565b6000818152600183016020526040812054613471575081546001818101845560008481526020808220909301849055845484825282860190935260409020919091556105bb565b5060006105bb565b6000818152600183016020526040812054801561356257600061349d600183614251565b85549091506000906134b190600190614251565b90508181146135165760008660000182815481106134d1576134d1613ee6565b90600052602060002001549050808760000184815481106134f4576134f4613ee6565b6000918252602080832090910192909255918252600188019052604090208390555b855486908061352757613527614268565b6001900381819060005260206000200160009055905585600101600086815260200190815260200160002060009055600193505050506105bb565b60009150506105bb565b805161095e9060cb9060208401905b82805461358790613e93565b90600052602060002090601f0160209004810192826135a957600085556135ef565b82601f106135c257805160ff19168380011785556135ef565b828001600101855582156135ef579182015b828111156135ef5782518255916020019190600101906135d4565b506135fb9291506135ff565b5090565b5b808211156135fb5760008155600101613600565b803573ffffffffffffffffffffffffffffffffffffffff8116811461363857600080fd5b919050565b6000806040838503121561365057600080fd5b61365983613614565b946020939093013593505050565b7fffffffff0000000000000000000000000000000000000000000000000000000081168114611c4c57600080fd5b6000602082840312156136a757600080fd5b8135610f7881613667565b60005b838110156136cd5781810151838201526020016136b5565b838111156107b55750506000910152565b600081518084526136f68160208601602086016136b2565b601f017fffffffffffffffffffffffffffffffffffffffffffffffffffffffffffffffe0169290920160200192915050565b602081526000610f7860208301846136de565b60006020828403121561374d57600080fd5b5035919050565b7f4e487b7100000000000000000000000000000000000000000000000000000000600052604160045260246000fd5b7fffffffffffffffffffffffffffffffffffffffffffffffffffffffffffffffe0601f830116810181811067ffffffffffffffff821117156137c7576137c7613754565b6040525050565b600067ffffffffffffffff8211156137e8576137e8613754565b5060051b60200190565b600082601f83011261380357600080fd5b81356020613810826137ce565b60405161381d8282613783565b83815260059390931b850182019282810191508684111561383d57600080fd5b8286015b848110156138585780358352918301918301613841565b509695505050505050565b600082601f83011261387457600080fd5b813567ffffffffffffffff81111561388e5761388e613754565b6040516138c360207fffffffffffffffffffffffffffffffffffffffffffffffffffffffffffffffe0601f8501160182613783565b8181528460208386010111156138d857600080fd5b816020850160208301376000918101602001919091529392505050565b6000806000806080858703121561390b57600080fd5b61391485613614565b9350602085013567ffffffffffffffff8082111561393157600080fd5b61393d888389016137f2565b9450604087013591508082111561395357600080fd5b61395f888389016137f2565b9350606087013591508082111561397557600080fd5b5061398287828801613863565b91505092959194509250565b600080600080600060a086880312156139a657600080fd5b6139af86613614565b94506139bd60208701613614565b9350604086013567ffffffffffffffff808211156139da57600080fd5b6139e689838a016137f2565b945060608801359150808211156139fc57600080fd5b613a0889838a016137f2565b93506080880135915080821115613a1e57600080fd5b50613a2b88828901613863565b9150509295509295909350565b60008060408385031215613a4b57600080fd5b82359150613a5b60208401613614565b90509250929050565b60008060408385031215613a7757600080fd5b823567ffffffffffffffff80821115613a8f57600080fd5b818501915085601f830112613aa357600080fd5b81356020613ab0826137ce565b604051613abd8282613783565b83815260059390931b8501820192828101915089841115613add57600080fd5b948201945b83861015613b0257613af386613614565b82529482019490820190613ae2565b96505086013592505080821115613b1857600080fd5b50613b25858286016137f2565b9150509250929050565b600081518084526020808501945080840160005b83811015613b5f57815187529582019590820190600101613b43565b509495945050505050565b602081526000610f786020830184613b2f565b60008060008060808587031215613b9357600080fd5b613b9c85613614565b9350602085013567ffffffffffffffff80821115613bb957600080fd5b613bc588838901613863565b94506040870135915080821115613bdb57600080fd5b61395f88838901613863565b600080600060608486031215613bfc57600080fd5b613c0584613614565b9250602084013567ffffffffffffffff80821115613c2257600080fd5b613c2e878388016137f2565b93506040860135915080821115613c4457600080fd5b50613c51868287016137f2565b9150509250925092565b60008060008060808587031215613c7157600080fd5b613c7a85613614565b93506020850135925060408501359150606085013567ffffffffffffffff811115613ca457600080fd5b61398287828801613863565b60008060408385031215613cc357600080fd5b50508035926020909101359150565b60008060408385031215613ce557600080fd5b613cee83613614565b915060208301358015158114613d0357600080fd5b809150509250929050565b600080600060408486031215613d2357600080fd5b613d2c84613614565b9250602084013567ffffffffffffffff80821115613d4957600080fd5b818601915086601f830112613d5d57600080fd5b813581811115613d6c57600080fd5b8760208260051b8501011115613d8157600080fd5b6020830194508093505050509250925092565b60008060408385031215613da757600080fd5b613db083613614565b9150613a5b60208401613614565b600080600080600060a08688031215613dd657600080fd5b613ddf86613614565b9450613ded60208701613614565b93506040860135925060608601359150608086013567ffffffffffffffff811115613e1757600080fd5b613a2b88828901613863565b600080600060608486031215613e3857600080fd5b613e4184613614565b95602085013595506040909401359392505050565b600060208284031215613e6857600080fd5b813567ffffffffffffffff811115613e7f57600080fd5b613e8b84828501613863565b949350505050565b600181811c90821680613ea757607f821691505b602082108103613ee0577f4e487b7100000000000000000000000000000000000000000000000000000000600052602260045260246000fd5b50919050565b7f4e487b7100000000000000000000000000000000000000000000000000000000600052603260045260246000fd5b7f4e487b7100000000000000000000000000000000000000000000000000000000600052601160045260246000fd5b60007fffffffffffffffffffffffffffffffffffffffffffffffffffffffffffffffff8203613f7557613f75613f15565b5060010190565b60008219821115613f8f57613f8f613f15565b500190565b604081526000613fa76040830185613b2f565b8281036020840152613fb98185613b2f565b95945050505050565b7f416363657373436f6e74726f6c3a206163636f756e7420000000000000000000815260008351613ffa8160178501602088016136b2565b7f206973206d697373696e6720726f6c652000000000000000000000000000000060179184019182015283516140378160288401602088016136b2565b01602801949350505050565b600073ffffffffffffffffffffffffffffffffffffffff808816835280871660208401525060a0604083015261407c60a0830186613b2f565b828103606084015261408e8186613b2f565b905082810360808401526140a281856136de565b98975050505050505050565b6000602082840312156140c057600080fd5b8151610f7881613667565b600060033d11156140e45760046000803e5060005160e01c5b90565b600060443d10156140f55790565b6040517ffffffffffffffffffffffffffffffffffffffffffffffffffffffffffffffffc803d016004833e81513d67ffffffffffffffff816024840111818411171561414357505050505090565b828501915081518181111561415b5750505050505090565b843d87010160208285010111156141755750505050505090565b61418460208286010187613783565b509095945050505050565b6000817fffffffffffffffffffffffffffffffffffffffffffffffffffffffffffffffff04831182151516156141c7576141c7613f15565b500290565b6000816141db576141db613f15565b507fffffffffffffffffffffffffffffffffffffffffffffffffffffffffffffffff0190565b600073ffffffffffffffffffffffffffffffffffffffff808816835280871660208401525084604083015283606083015260a0608083015261424660a08301846136de565b979650505050505050565b60008282101561426357614263613f15565b500390565b7f4e487b7100000000000000000000000000000000000000000000000000000000600052603160045260246000fdfea264697066735822122031a0357608703ab85464dc137404f5707cd78a15a9e22a024cb1a8930ea453e964736f6c634300080d0033",
  "devdoc": {
    "kind": "dev",
    "methods": {
      "balanceOf(address,uint256)": {
        "details": "See {IERC1155-balanceOf}. Requirements: - `account` cannot be the zero address."
      },
      "balanceOfBatch(address[],uint256[])": {
        "details": "See {IERC1155-balanceOfBatch}. Requirements: - `accounts` and `ids` must have the same length."
      },
      "getRoleAdmin(bytes32)": {
        "details": "Returns the admin role that controls `role`. See {grantRole} and {revokeRole}. To change a role's admin, use {_setRoleAdmin}."
      },
      "getRoleMember(bytes32,uint256)": {
        "details": "Returns one of the accounts that have `role`. `index` must be a value between 0 and {getRoleMemberCount}, non-inclusive. Role bearers are not sorted in any particular way, and their ordering may change at any point. WARNING: When using {getRoleMember} and {getRoleMemberCount}, make sure you perform all queries on the same block. See the following https://forum.openzeppelin.com/t/iterating-over-elements-on-enumerableset-in-openzeppelin-contracts/2296[forum post] for more information."
      },
      "getRoleMemberCount(bytes32)": {
        "details": "Returns the number of accounts that have `role`. Can be used together with {getRoleMember} to enumerate all bearers of a role."
      },
      "grantRole(bytes32,address)": {
        "details": "Grants `role` to `account`. If `account` had not been already granted `role`, emits a {RoleGranted} event. Requirements: - the caller must have ``role``'s admin role."
      },
      "hasRole(bytes32,address)": {
        "details": "Returns `true` if `account` has been granted `role`."
      },
      "isApprovedForAll(address,address)": {
        "details": "See {IERC1155-isApprovedForAll}."
      },
      "mint(address,uint256,uint256,bytes)": {
        "details": "Creates `amount` new tokens for `to`, of token type `id`. See {ERC1155-_mint}. Requirements: - the caller must have the `MINTER_ROLE`."
      },
      "mintBatch(address,uint256[],uint256[],bytes)": {
        "details": "xref:ROOT:erc1155.adoc#batch-operations[Batched] variant of {mint}."
      },
      "name()": {
        "details": "Returns the name of the token."
      },
      "pause()": {
        "details": "Pauses all token transfers. See {ERC1155Pausable} and {Pausable-_pause}. Requirements: - the caller must have the `PAUSER_ROLE`."
      },
      "paused()": {
        "details": "Returns true if the contract is paused, and false otherwise."
      },
      "renounceRole(bytes32,address)": {
        "details": "Revokes `role` from the calling account. Roles are often managed via {grantRole} and {revokeRole}: this function's purpose is to provide a mechanism for accounts to lose their privileges if they are compromised (such as when a trusted device is misplaced). If the calling account had been revoked `role`, emits a {RoleRevoked} event. Requirements: - the caller must be `account`."
      },
      "revokeRole(bytes32,address)": {
        "details": "Revokes `role` from `account`. If `account` had been granted `role`, emits a {RoleRevoked} event. Requirements: - the caller must have ``role``'s admin role."
      },
      "safeBatchTransferFrom(address,address,uint256[],uint256[],bytes)": {
        "details": "See {IERC1155-safeBatchTransferFrom}."
      },
      "safeTransferFrom(address,address,uint256,uint256,bytes)": {
        "details": "See {IERC1155-safeTransferFrom}."
      },
      "setApprovalForAll(address,bool)": {
        "details": "See {IERC1155-setApprovalForAll}."
      },
      "supportsInterface(bytes4)": {
        "details": "See {IERC165-supportsInterface}."
      },
      "symbol()": {
        "details": "Returns the symbol of the token, usually a shorter version of the name."
      },
      "unpause()": {
        "details": "Unpauses all token transfers. See {ERC1155Pausable} and {Pausable-_unpause}. Requirements: - the caller must have the `PAUSER_ROLE`."
      },
      "uri(uint256)": {
        "details": "See {IERC1155MetadataURI-uri}. This implementation returns the same URI for *all* token types. It relies on the token type ID substitution mechanism https://eips.ethereum.org/EIPS/eip-1155#metadata[defined in the EIP]. Clients calling this function must replace the `\\{id\\}` substring with the actual token type ID."
      }
    },
    "version": 1
  },
  "userdoc": {
    "kind": "user",
    "methods": {},
    "version": 1
  },
  "storageLayout": {
    "storage": [
      {
        "astId": 705,
        "contract": "contracts/tokens/ERC1155/CollateralManagementToken.sol:CollateralManagementToken",
        "label": "_initialized",
        "offset": 0,
        "slot": "0",
        "type": "t_bool"
      },
      {
        "astId": 708,
        "contract": "contracts/tokens/ERC1155/CollateralManagementToken.sol:CollateralManagementToken",
        "label": "_initializing",
        "offset": 1,
        "slot": "0",
        "type": "t_bool"
      },
      {
        "astId": 4707,
        "contract": "contracts/tokens/ERC1155/CollateralManagementToken.sol:CollateralManagementToken",
        "label": "__gap",
        "offset": 0,
        "slot": "1",
        "type": "t_array(t_uint256)50_storage"
      },
      {
        "astId": 5028,
        "contract": "contracts/tokens/ERC1155/CollateralManagementToken.sol:CollateralManagementToken",
        "label": "__gap",
        "offset": 0,
        "slot": "51",
        "type": "t_array(t_uint256)50_storage"
      },
      {
        "astId": 184,
        "contract": "contracts/tokens/ERC1155/CollateralManagementToken.sol:CollateralManagementToken",
        "label": "_roles",
        "offset": 0,
        "slot": "101",
        "type": "t_mapping(t_bytes32,t_struct(RoleData)179_storage)"
      },
      {
        "astId": 472,
        "contract": "contracts/tokens/ERC1155/CollateralManagementToken.sol:CollateralManagementToken",
        "label": "__gap",
        "offset": 0,
        "slot": "102",
        "type": "t_array(t_uint256)49_storage"
      },
      {
        "astId": 33,
        "contract": "contracts/tokens/ERC1155/CollateralManagementToken.sol:CollateralManagementToken",
        "label": "_roleMembers",
        "offset": 0,
        "slot": "151",
        "type": "t_mapping(t_bytes32,t_struct(AddressSet)5353_storage)"
      },
      {
        "astId": 143,
        "contract": "contracts/tokens/ERC1155/CollateralManagementToken.sol:CollateralManagementToken",
        "label": "__gap",
        "offset": 0,
        "slot": "152",
        "type": "t_array(t_uint256)49_storage"
      },
      {
        "astId": 971,
        "contract": "contracts/tokens/ERC1155/CollateralManagementToken.sol:CollateralManagementToken",
        "label": "_balances",
        "offset": 0,
        "slot": "201",
        "type": "t_mapping(t_uint256,t_mapping(t_address,t_uint256))"
      },
      {
        "astId": 977,
        "contract": "contracts/tokens/ERC1155/CollateralManagementToken.sol:CollateralManagementToken",
        "label": "_operatorApprovals",
        "offset": 0,
        "slot": "202",
        "type": "t_mapping(t_address,t_mapping(t_address,t_bool))"
      },
      {
        "astId": 979,
        "contract": "contracts/tokens/ERC1155/CollateralManagementToken.sol:CollateralManagementToken",
        "label": "_uri",
        "offset": 0,
        "slot": "203",
        "type": "t_string_storage"
      },
      {
        "astId": 2059,
        "contract": "contracts/tokens/ERC1155/CollateralManagementToken.sol:CollateralManagementToken",
        "label": "__gap",
        "offset": 0,
        "slot": "204",
        "type": "t_array(t_uint256)47_storage"
      },
      {
        "astId": 2311,
        "contract": "contracts/tokens/ERC1155/CollateralManagementToken.sol:CollateralManagementToken",
        "label": "__gap",
        "offset": 0,
        "slot": "251",
        "type": "t_array(t_uint256)50_storage"
      },
      {
        "astId": 793,
        "contract": "contracts/tokens/ERC1155/CollateralManagementToken.sol:CollateralManagementToken",
        "label": "_paused",
        "offset": 0,
        "slot": "301",
        "type": "t_bool"
      },
      {
        "astId": 882,
        "contract": "contracts/tokens/ERC1155/CollateralManagementToken.sol:CollateralManagementToken",
        "label": "__gap",
        "offset": 0,
        "slot": "302",
        "type": "t_array(t_uint256)49_storage"
      },
      {
        "astId": 2382,
        "contract": "contracts/tokens/ERC1155/CollateralManagementToken.sol:CollateralManagementToken",
        "label": "__gap",
        "offset": 0,
        "slot": "351",
        "type": "t_array(t_uint256)50_storage"
      },
      {
        "astId": 2633,
        "contract": "contracts/tokens/ERC1155/CollateralManagementToken.sol:CollateralManagementToken",
        "label": "__gap",
        "offset": 0,
        "slot": "401",
        "type": "t_array(t_uint256)50_storage"
      },
      {
        "astId": 21919,
        "contract": "contracts/tokens/ERC1155/CollateralManagementToken.sol:CollateralManagementToken",
        "label": "_name",
        "offset": 0,
        "slot": "451",
        "type": "t_string_storage"
      },
      {
        "astId": 21921,
        "contract": "contracts/tokens/ERC1155/CollateralManagementToken.sol:CollateralManagementToken",
        "label": "_symbol",
        "offset": 0,
        "slot": "452",
        "type": "t_string_storage"
      }
    ],
    "types": {
      "t_address": {
        "encoding": "inplace",
        "label": "address",
        "numberOfBytes": "20"
      },
      "t_array(t_bytes32)dyn_storage": {
        "base": "t_bytes32",
        "encoding": "dynamic_array",
        "label": "bytes32[]",
        "numberOfBytes": "32"
      },
      "t_array(t_uint256)47_storage": {
        "base": "t_uint256",
        "encoding": "inplace",
        "label": "uint256[47]",
        "numberOfBytes": "1504"
      },
      "t_array(t_uint256)49_storage": {
        "base": "t_uint256",
        "encoding": "inplace",
        "label": "uint256[49]",
        "numberOfBytes": "1568"
      },
      "t_array(t_uint256)50_storage": {
        "base": "t_uint256",
        "encoding": "inplace",
        "label": "uint256[50]",
        "numberOfBytes": "1600"
      },
      "t_bool": {
        "encoding": "inplace",
        "label": "bool",
        "numberOfBytes": "1"
      },
      "t_bytes32": {
        "encoding": "inplace",
        "label": "bytes32",
        "numberOfBytes": "32"
      },
      "t_mapping(t_address,t_bool)": {
        "encoding": "mapping",
        "key": "t_address",
        "label": "mapping(address => bool)",
        "numberOfBytes": "32",
        "value": "t_bool"
      },
      "t_mapping(t_address,t_mapping(t_address,t_bool))": {
        "encoding": "mapping",
        "key": "t_address",
        "label": "mapping(address => mapping(address => bool))",
        "numberOfBytes": "32",
        "value": "t_mapping(t_address,t_bool)"
      },
      "t_mapping(t_address,t_uint256)": {
        "encoding": "mapping",
        "key": "t_address",
        "label": "mapping(address => uint256)",
        "numberOfBytes": "32",
        "value": "t_uint256"
      },
      "t_mapping(t_bytes32,t_struct(AddressSet)5353_storage)": {
        "encoding": "mapping",
        "key": "t_bytes32",
        "label": "mapping(bytes32 => struct EnumerableSetUpgradeable.AddressSet)",
        "numberOfBytes": "32",
        "value": "t_struct(AddressSet)5353_storage"
      },
      "t_mapping(t_bytes32,t_struct(RoleData)179_storage)": {
        "encoding": "mapping",
        "key": "t_bytes32",
        "label": "mapping(bytes32 => struct AccessControlUpgradeable.RoleData)",
        "numberOfBytes": "32",
        "value": "t_struct(RoleData)179_storage"
      },
      "t_mapping(t_bytes32,t_uint256)": {
        "encoding": "mapping",
        "key": "t_bytes32",
        "label": "mapping(bytes32 => uint256)",
        "numberOfBytes": "32",
        "value": "t_uint256"
      },
      "t_mapping(t_uint256,t_mapping(t_address,t_uint256))": {
        "encoding": "mapping",
        "key": "t_uint256",
        "label": "mapping(uint256 => mapping(address => uint256))",
        "numberOfBytes": "32",
        "value": "t_mapping(t_address,t_uint256)"
      },
      "t_string_storage": {
        "encoding": "bytes",
        "label": "string",
        "numberOfBytes": "32"
      },
      "t_struct(AddressSet)5353_storage": {
        "encoding": "inplace",
        "label": "struct EnumerableSetUpgradeable.AddressSet",
        "members": [
          {
            "astId": 5352,
            "contract": "contracts/tokens/ERC1155/CollateralManagementToken.sol:CollateralManagementToken",
            "label": "_inner",
            "offset": 0,
            "slot": "0",
            "type": "t_struct(Set)5052_storage"
          }
        ],
        "numberOfBytes": "64"
      },
      "t_struct(RoleData)179_storage": {
        "encoding": "inplace",
        "label": "struct AccessControlUpgradeable.RoleData",
        "members": [
          {
            "astId": 176,
            "contract": "contracts/tokens/ERC1155/CollateralManagementToken.sol:CollateralManagementToken",
            "label": "members",
            "offset": 0,
            "slot": "0",
            "type": "t_mapping(t_address,t_bool)"
          },
          {
            "astId": 178,
            "contract": "contracts/tokens/ERC1155/CollateralManagementToken.sol:CollateralManagementToken",
            "label": "adminRole",
            "offset": 0,
            "slot": "1",
            "type": "t_bytes32"
          }
        ],
        "numberOfBytes": "64"
      },
      "t_struct(Set)5052_storage": {
        "encoding": "inplace",
        "label": "struct EnumerableSetUpgradeable.Set",
        "members": [
          {
            "astId": 5047,
            "contract": "contracts/tokens/ERC1155/CollateralManagementToken.sol:CollateralManagementToken",
            "label": "_values",
            "offset": 0,
            "slot": "0",
            "type": "t_array(t_bytes32)dyn_storage"
          },
          {
            "astId": 5051,
            "contract": "contracts/tokens/ERC1155/CollateralManagementToken.sol:CollateralManagementToken",
            "label": "_indexes",
            "offset": 0,
            "slot": "1",
            "type": "t_mapping(t_bytes32,t_uint256)"
          }
        ],
        "numberOfBytes": "64"
      },
      "t_uint256": {
        "encoding": "inplace",
        "label": "uint256",
        "numberOfBytes": "32"
      }
    }
  }
}