{
  "address": "0x313Fb4b9ebC9a28D44fE73c961E0DCf6d77C06C5",
  "abi": [
    {
      "anonymous": false,
      "inputs": [
        {
          "indexed": false,
          "internalType": "address",
          "name": "account",
          "type": "address"
        }
      ],
      "name": "Paused",
      "type": "event"
    },
    {
      "anonymous": false,
      "inputs": [
        {
          "indexed": true,
          "internalType": "bytes32",
          "name": "role",
          "type": "bytes32"
        },
        {
          "indexed": true,
          "internalType": "bytes32",
          "name": "previousAdminRole",
          "type": "bytes32"
        },
        {
          "indexed": true,
          "internalType": "bytes32",
          "name": "newAdminRole",
          "type": "bytes32"
        }
      ],
      "name": "RoleAdminChanged",
      "type": "event"
    },
    {
      "anonymous": false,
      "inputs": [
        {
          "indexed": true,
          "internalType": "bytes32",
          "name": "role",
          "type": "bytes32"
        },
        {
          "indexed": true,
          "internalType": "address",
          "name": "account",
          "type": "address"
        },
        {
          "indexed": true,
          "internalType": "address",
          "name": "sender",
          "type": "address"
        }
      ],
      "name": "RoleGranted",
      "type": "event"
    },
    {
      "anonymous": false,
      "inputs": [
        {
          "indexed": true,
          "internalType": "bytes32",
          "name": "role",
          "type": "bytes32"
        },
        {
          "indexed": true,
          "internalType": "address",
          "name": "account",
          "type": "address"
        },
        {
          "indexed": true,
          "internalType": "address",
          "name": "sender",
          "type": "address"
        }
      ],
      "name": "RoleRevoked",
      "type": "event"
    },
    {
      "anonymous": false,
      "inputs": [
        {
          "indexed": false,
          "internalType": "address",
          "name": "account",
          "type": "address"
        }
      ],
      "name": "Unpaused",
      "type": "event"
    },
    {
      "inputs": [],
      "name": "DAY_LENGTH_IN_SECONDS",
      "outputs": [
        {
          "internalType": "uint256",
          "name": "",
          "type": "uint256"
        }
      ],
      "stateMutability": "view",
      "type": "function"
    },
    {
      "inputs": [],
      "name": "DEFAULT_ADMIN_ROLE",
      "outputs": [
        {
          "internalType": "bytes32",
          "name": "",
          "type": "bytes32"
        }
      ],
      "stateMutability": "view",
      "type": "function"
    },
    {
      "inputs": [],
      "name": "HOUR_LENGTH_IN_SECONDS",
      "outputs": [
        {
          "internalType": "uint256",
          "name": "",
          "type": "uint256"
        }
      ],
      "stateMutability": "view",
      "type": "function"
    },
    {
      "inputs": [],
      "name": "INTEREST_RATE_SCALING_FACTOR_MULTIPLIER",
      "outputs": [
        {
          "internalType": "uint256",
          "name": "",
          "type": "uint256"
        }
      ],
      "stateMutability": "view",
      "type": "function"
    },
    {
      "inputs": [],
      "name": "INTEREST_RATE_SCALING_FACTOR_PERCENT",
      "outputs": [
        {
          "internalType": "uint256",
          "name": "",
          "type": "uint256"
        }
      ],
      "stateMutability": "view",
      "type": "function"
    },
    {
      "inputs": [],
      "name": "MINUTE_LENGTH_IN_SECONDS",
      "outputs": [
        {
          "internalType": "uint256",
          "name": "",
          "type": "uint256"
        }
      ],
      "stateMutability": "view",
      "type": "function"
    },
    {
      "inputs": [],
      "name": "OWNER_ROLE",
      "outputs": [
        {
          "internalType": "bytes32",
          "name": "",
          "type": "bytes32"
        }
      ],
      "stateMutability": "view",
      "type": "function"
    },
    {
      "inputs": [],
      "name": "YEAR_LENGTH_IN_DAYS",
      "outputs": [
        {
          "internalType": "uint256",
          "name": "",
          "type": "uint256"
        }
      ],
      "stateMutability": "view",
      "type": "function"
    },
    {
      "inputs": [],
      "name": "YEAR_LENGTH_IN_SECONDS",
      "outputs": [
        {
          "internalType": "uint256",
          "name": "",
          "type": "uint256"
        }
      ],
      "stateMutability": "view",
      "type": "function"
    },
    {
      "inputs": [
        {
          "internalType": "address",
          "name": "pool",
          "type": "address"
        },
        {
          "internalType": "address",
          "name": "tokenAddress",
          "type": "address"
        },
        {
          "internalType": "address[]",
          "name": "investors",
          "type": "address[]"
        }
      ],
      "name": "calcAssetValue",
      "outputs": [
        {
          "internalType": "uint256[]",
          "name": "principals",
          "type": "uint256[]"
        },
        {
          "internalType": "uint256[]",
          "name": "interests",
          "type": "uint256[]"
        }
      ],
      "stateMutability": "view",
      "type": "function"
    },
    {
      "inputs": [
        {
          "internalType": "address",
          "name": "pool",
          "type": "address"
        },
        {
          "internalType": "address",
          "name": "tokenAddress",
          "type": "address"
        },
        {
          "internalType": "address",
          "name": "investor",
          "type": "address"
        }
      ],
      "name": "calcAssetValue",
      "outputs": [
        {
          "internalType": "uint256",
          "name": "principal",
          "type": "uint256"
        },
        {
          "internalType": "uint256",
          "name": "interest",
          "type": "uint256"
        }
      ],
      "stateMutability": "view",
      "type": "function"
    },
    {
      "inputs": [
        {
          "internalType": "address",
          "name": "tokenAddress",
          "type": "address"
        },
        {
          "internalType": "address",
          "name": "investor",
          "type": "address"
        },
        {
          "internalType": "uint256",
          "name": "endTime",
          "type": "uint256"
        }
      ],
      "name": "calcCorrespondingAssetValue",
      "outputs": [
        {
          "internalType": "uint256",
          "name": "principal",
          "type": "uint256"
        },
        {
          "internalType": "uint256",
          "name": "interest",
          "type": "uint256"
        }
      ],
      "stateMutability": "view",
      "type": "function"
    },
    {
      "inputs": [
        {
          "internalType": "address",
          "name": "tokenAddress",
          "type": "address"
        },
        {
          "internalType": "address[]",
          "name": "investors",
          "type": "address[]"
        },
        {
          "internalType": "uint256",
          "name": "endTime",
          "type": "uint256"
        }
      ],
      "name": "calcCorrespondingAssetValue",
      "outputs": [
        {
          "internalType": "uint256[]",
          "name": "principals",
          "type": "uint256[]"
        },
        {
          "internalType": "uint256[]",
          "name": "interests",
          "type": "uint256[]"
        }
      ],
      "stateMutability": "view",
      "type": "function"
    },
    {
      "inputs": [
        {
          "internalType": "address",
          "name": "tokenAddress",
          "type": "address"
        },
        {
          "internalType": "address",
          "name": "investor",
          "type": "address"
        },
        {
          "internalType": "uint256",
          "name": "endTime",
          "type": "uint256"
        }
      ],
      "name": "calcCorrespondingTotalAssetValue",
      "outputs": [
        {
          "internalType": "uint256",
          "name": "",
          "type": "uint256"
        }
      ],
      "stateMutability": "view",
      "type": "function"
    },
    {
      "inputs": [
        {
          "internalType": "address",
          "name": "pool",
          "type": "address"
        },
        {
          "internalType": "uint256",
          "name": "timestamp",
          "type": "uint256"
        }
      ],
      "name": "calcSeniorAssetValue",
      "outputs": [
        {
          "internalType": "address",
          "name": "",
          "type": "address"
        },
        {
          "internalType": "uint256",
          "name": "",
          "type": "uint256"
        }
      ],
      "stateMutability": "view",
      "type": "function"
    },
    {
      "inputs": [
        {
          "internalType": "address",
          "name": "pool",
          "type": "address"
        },
        {
          "internalType": "address",
          "name": "tokenAddress",
          "type": "address"
        }
      ],
      "name": "calcTokenPrice",
      "outputs": [
        {
          "internalType": "uint256",
          "name": "",
          "type": "uint256"
        }
      ],
      "stateMutability": "view",
      "type": "function"
    },
    {
      "inputs": [
        {
          "internalType": "uint256",
          "name": "principalAmount",
          "type": "uint256"
        },
        {
          "internalType": "uint256",
          "name": "annualInterestRate",
          "type": "uint256"
        },
        {
          "internalType": "uint256",
          "name": "startTermTimestamp",
          "type": "uint256"
        },
        {
          "internalType": "uint256",
          "name": "timestamp",
          "type": "uint256"
        }
      ],
      "name": "chargeInterest",
      "outputs": [
        {
          "internalType": "uint256",
          "name": "",
          "type": "uint256"
        }
      ],
      "stateMutability": "pure",
      "type": "function"
    },
    {
      "inputs": [
        {
          "internalType": "uint256",
          "name": "_currentPrincipalAmount",
          "type": "uint256"
        },
        {
          "internalType": "uint256",
          "name": "_annualInterestRate",
          "type": "uint256"
        },
        {
          "internalType": "uint256",
          "name": "_startTermTimestamp",
          "type": "uint256"
        },
        {
          "internalType": "uint256",
          "name": "_timestamp",
          "type": "uint256"
        }
      ],
      "name": "chargeLendingInterest",
      "outputs": [
        {
          "internalType": "uint256",
          "name": "",
          "type": "uint256"
        }
      ],
      "stateMutability": "pure",
      "type": "function"
    },
    {
      "inputs": [
        {
          "internalType": "address",
          "name": "pool",
          "type": "address"
        }
      ],
      "name": "getCashBalance",
      "outputs": [
        {
          "internalType": "uint256",
          "name": "",
          "type": "uint256"
        }
      ],
      "stateMutability": "view",
      "type": "function"
    },
    {
      "inputs": [
        {
          "internalType": "contract ISecuritizationPool",
          "name": "securitizationPool",
          "type": "address"
        },
        {
          "internalType": "uint256",
          "name": "endTime",
          "type": "uint256"
        }
      ],
      "name": "getJOTTokenPrice",
      "outputs": [
        {
          "internalType": "uint256",
          "name": "",
          "type": "uint256"
        }
      ],
      "stateMutability": "view",
      "type": "function"
    },
    {
      "inputs": [
        {
          "internalType": "bytes32",
          "name": "role",
          "type": "bytes32"
        }
      ],
      "name": "getRoleAdmin",
      "outputs": [
        {
          "internalType": "bytes32",
          "name": "",
          "type": "bytes32"
        }
      ],
      "stateMutability": "view",
      "type": "function"
    },
    {
      "inputs": [
        {
          "internalType": "bytes32",
          "name": "role",
          "type": "bytes32"
        },
        {
          "internalType": "uint256",
          "name": "index",
          "type": "uint256"
        }
      ],
      "name": "getRoleMember",
      "outputs": [
        {
          "internalType": "address",
          "name": "",
          "type": "address"
        }
      ],
      "stateMutability": "view",
      "type": "function"
    },
    {
      "inputs": [
        {
          "internalType": "bytes32",
          "name": "role",
          "type": "bytes32"
        }
      ],
      "name": "getRoleMemberCount",
      "outputs": [
        {
          "internalType": "uint256",
          "name": "",
          "type": "uint256"
        }
      ],
      "stateMutability": "view",
      "type": "function"
    },
    {
      "inputs": [
        {
          "internalType": "address",
          "name": "pool",
          "type": "address"
        },
        {
          "internalType": "uint256",
          "name": "timestamp",
          "type": "uint256"
        }
      ],
      "name": "getSOTTokenPrice",
      "outputs": [
        {
          "internalType": "uint256",
          "name": "",
          "type": "uint256"
        }
      ],
      "stateMutability": "view",
      "type": "function"
    },
    {
      "inputs": [
        {
          "internalType": "bytes32",
          "name": "role",
          "type": "bytes32"
        },
        {
          "internalType": "address",
          "name": "account",
          "type": "address"
        }
      ],
      "name": "grantRole",
      "outputs": [],
      "stateMutability": "nonpayable",
      "type": "function"
    },
    {
      "inputs": [
        {
          "internalType": "bytes32",
          "name": "role",
          "type": "bytes32"
        },
        {
          "internalType": "address",
          "name": "account",
          "type": "address"
        }
      ],
      "name": "hasRole",
      "outputs": [
        {
          "internalType": "bool",
          "name": "",
          "type": "bool"
        }
      ],
      "stateMutability": "view",
      "type": "function"
    },
    {
      "inputs": [
        {
          "internalType": "contract Registry",
          "name": "_registry",
          "type": "address"
        }
      ],
      "name": "initialize",
      "outputs": [],
      "stateMutability": "nonpayable",
      "type": "function"
    },
    {
      "inputs": [],
      "name": "pause",
      "outputs": [],
      "stateMutability": "nonpayable",
      "type": "function"
    },
    {
      "inputs": [],
      "name": "paused",
      "outputs": [
        {
          "internalType": "bool",
          "name": "",
          "type": "bool"
        }
      ],
      "stateMutability": "view",
      "type": "function"
    },
    {
      "inputs": [],
      "name": "registry",
      "outputs": [
        {
          "internalType": "contract Registry",
          "name": "",
          "type": "address"
        }
      ],
      "stateMutability": "view",
      "type": "function"
    },
    {
      "inputs": [
        {
          "internalType": "bytes32",
          "name": "role",
          "type": "bytes32"
        },
        {
          "internalType": "address",
          "name": "account",
          "type": "address"
        }
      ],
      "name": "renounceRole",
      "outputs": [],
      "stateMutability": "nonpayable",
      "type": "function"
    },
    {
      "inputs": [
        {
          "internalType": "bytes32",
          "name": "role",
          "type": "bytes32"
        },
        {
          "internalType": "address",
          "name": "account",
          "type": "address"
        }
      ],
      "name": "revokeRole",
      "outputs": [],
      "stateMutability": "nonpayable",
      "type": "function"
    },
    {
      "inputs": [
        {
          "internalType": "bytes4",
          "name": "interfaceId",
          "type": "bytes4"
        }
      ],
      "name": "supportsInterface",
      "outputs": [
        {
          "internalType": "bool",
          "name": "",
          "type": "bool"
        }
      ],
      "stateMutability": "view",
      "type": "function"
    },
    {
      "inputs": [],
      "name": "unpause",
      "outputs": [],
      "stateMutability": "nonpayable",
      "type": "function"
    }
  ],
  "transactionHash": "0x3cfc767351c9ccf7ef730411e7a5c319e34b79bf24b834553a1f0a7863f0d569",
  "args": [],
  "numDeployments": 1,
  "solcInputHash": "593488225a0c18e9f1502b055efe47cb",
  "bytecode": "0x608060405234801561001057600080fd5b50613f52806100206000396000f3fe608060405234801561001057600080fd5b50600436106102265760003560e01c80638456cb591161012a578063ab15de52116100bd578063d547741f1161008c578063de53a13c11610071578063de53a13c146104f1578063e58378bb146104f9578063fd127a411461052057600080fd5b8063d547741f146104de578063dc949425146102c557600080fd5b8063ab15de521461049c578063c4d66de8146104a5578063ca15c873146104b8578063cefe0a73146104cb57600080fd5b806391d14854116100f957806391d148541461040657806393529cdf1461044c5780639708073114610455578063a217fddf1461049457600080fd5b80638456cb59146103c55780638ddf9f7e146103cd5780639010d07c146103e057806390656d1b146103f357600080fd5b806327f6ad99116101bd578063446d464f1161018c5780636f69c96f116101715780636f69c96f146103645780637b1039991461036c5780637f26468d146103b257600080fd5b8063446d464f146103465780635c975abb1461035957600080fd5b806327f6ad991461030e5780632f2ff15d1461031657806336568abe1461032b5780633f4ba83a1461033e57600080fd5b80631d693eff116101f95780631d693eff1461029d578063214b05ef146102c55780632416f5d1146102d8578063248a9ca3146102eb57600080fd5b806301ffc9a71461022b5780630776298214610253578063122919e0146102695780631b91b5651461028a575b600080fd5b61023e6102393660046136d3565b610528565b60405190151581526020015b60405180910390f35b61025b610584565b60405190815260200161024a565b61027c61027736600461377c565b61059d565b60405161024a92919061381c565b61025b61029836600461384a565b610a74565b6102b06102ab366004613876565b610e1b565b6040805192835260208301919091520161024a565b61025b6102d33660046138b7565b610e36565b61025b6102e63660046138e9565b610e4f565b61025b6102f9366004613906565b600090815260c9602052604090206001015490565b61025b603c81565b61032961032436600461391f565b61105b565b005b61032961033936600461391f565b611086565b610329611139565b61025b610354366004613876565b611150565b60335460ff1661023e565b61025b611179565b61012d5461038d9073ffffffffffffffffffffffffffffffffffffffff1681565b60405173ffffffffffffffffffffffffffffffffffffffff909116815260200161024a565b61025b6103c036600461394f565b611184565b6103296112f2565b6102b06103db36600461397d565b611306565b61038d6103ee3660046139c8565b611780565b61027c6104013660046139ea565b611798565b61023e61041436600461391f565b600091825260c96020908152604080842073ffffffffffffffffffffffffffffffffffffffff93909316845291905290205460ff1690565b61025b61271081565b61046861046336600461384a565b6118b7565b6040805173ffffffffffffffffffffffffffffffffffffffff909316835260208301919091520161024a565b61025b600081565b61025b61016d81565b6103296104b33660046138e9565b611a5b565b61025b6104c6366004613906565b611bc1565b61025b6104d936600461384a565b611bd8565b6103296104ec36600461391f565b611eb9565b61025b611edf565b61025b7fb19546dff01e856fb3f010c267a7b1c60363cf8a4664e21cc89c26224620214e81565b61025b611eec565b60007fffffffff0000000000000000000000000000000000000000000000000000000082167f5a05180f00000000000000000000000000000000000000000000000000000000148061057e575061057e82611f0f565b92915050565b61058f603c80613a75565b61059a906018613a75565b81565b6060808267ffffffffffffffff8111156105b9576105b9613ab2565b6040519080825280602002602001820160405280156105e2578160200160208202803683370190505b5091508267ffffffffffffffff8111156105fe576105fe613ab2565b604051908082528060200260200182016040528015610627578160200160208202803683370190505b509050600086905060008173ffffffffffffffffffffffffffffffffffffffff1663febd60186040518163ffffffff1660e01b8152600401602060405180830381865afa15801561067c573d6000803e3d6000fd5b505050506040513d601f19601f820116820180604052508101906106a09190613ae1565b905060008273ffffffffffffffffffffffffffffffffffffffff16632b71b4506040518163ffffffff1660e01b8152600401602060405180830381865afa1580156106ef573d6000803e3d6000fd5b505050506040513d601f19601f820116820180604052508101906107139190613ae1565b90508173ffffffffffffffffffffffffffffffffffffffff168873ffffffffffffffffffffffffffffffffffffffff16148061077a57508073ffffffffffffffffffffffffffffffffffffffff168873ffffffffffffffffffffffffffffffffffffffff16145b61080b576040517f08c379a000000000000000000000000000000000000000000000000000000000815260206004820152602d60248201527f446973747269627574696f6e4173736573736f723a20756e6b6e6f776e2d747260448201527f616e6368652d616464726573730000000000000000000000000000000000000060648201526084015b60405180910390fd5b60008373ffffffffffffffffffffffffffffffffffffffff1663477035d16040518163ffffffff1660e01b8152600401602060405180830381865afa158015610858573d6000803e3d6000fd5b505050506040513d601f19601f8201168201806040525081019061087c9190613afe565b67ffffffffffffffff1690508273ffffffffffffffffffffffffffffffffffffffff168973ffffffffffffffffffffffffffffffffffffffff16036109ce5760008473ffffffffffffffffffffffffffffffffffffffff16632bb14ff06040518163ffffffff1660e01b8152600401602060405180830381865afa158015610908573d6000803e3d6000fd5b505050506040513d601f19601f8201168201806040525081019061092c9190613b28565b905060005b888110156109c75760008061097088888e8e8781811061095357610953613b4e565b905060200201602081019061096891906138e9565b878942611fa6565b91509150818a848151811061098757610987613b4e565b602002602001018181525050808984815181106109a6576109a6613b4e565b602002602001018181525050505080806109bf90613b7d565b915050610931565b5050610a67565b60005b87811015610a6557600080610a0e8d868d8d878181106109f3576109f3613b4e565b9050602002016020810190610a0891906138e9565b42612108565b9150915081898481518110610a2557610a25613b4e565b60200260200101818152505080888481518110610a4457610a44613b4e565b60200260200101818152505050508080610a5d90613b7d565b9150506109d1565b505b5050505094509492505050565b6000808373ffffffffffffffffffffffffffffffffffffffff16632b71b4506040518163ffffffff1660e01b8152600401602060405180830381865afa158015610ac2573d6000803e3d6000fd5b505050506040513d601f19601f82011682018060405250810190610ae69190613ae1565b905060008173ffffffffffffffffffffffffffffffffffffffff166318160ddd6040518163ffffffff1660e01b8152600401602060405180830381865afa158015610b35573d6000803e3d6000fd5b505050506040513d601f19601f82011682018060405250810190610b599190613bb5565b905073ffffffffffffffffffffffffffffffffffffffff82161580610b7c575080155b15610b8c5760009250505061057e565b60008573ffffffffffffffffffffffffffffffffffffffff16630bc6bffc6040518163ffffffff1660e01b8152600401602060405180830381865afa158015610bd9573d6000803e3d6000fd5b505050506040513d601f19601f82011682018060405250810190610bfd9190613ae1565b73ffffffffffffffffffffffffffffffffffffffff1663313ce5676040518163ffffffff1660e01b8152600401602060405180830381865afa158015610c47573d6000803e3d6000fd5b505050506040513d601f19601f82011682018060405250810190610c6b9190613bce565b60ff16905060008373ffffffffffffffffffffffffffffffffffffffff1663313ce5676040518163ffffffff1660e01b8152600401602060405180830381865afa158015610cbd573d6000803e3d6000fd5b505050506040513d601f19601f82011682018060405250810190610ce19190613bce565b60ff1690506000610cf28888612210565b6040517f70d2f39900000000000000000000000000000000000000000000000000000000815273ffffffffffffffffffffffffffffffffffffffff87811660048301529192506000918a16906370d2f39990602401602060405180830381865afa158015610d64573d6000803e3d6000fd5b505050506040513d601f19601f82011682018060405250810190610d889190613bb5565b9050610d948186613bf1565b9450828411610dd95784612710610dab8686613bf1565b610db690600a613d28565b610dc09085613a75565b610dca9190613a75565b610dd49190613d34565b610e0e565b610de38385613bf1565b610dee90600a613d28565b610df89086613a75565b610e0461271084613a75565b610e0e9190613d34565b9998505050505050505050565b600080610e298585856123a0565b915091505b935093915050565b6000610e4485858585612638565b90505b949350505050565b6000808290508073ffffffffffffffffffffffffffffffffffffffff16637dfbdae26040518163ffffffff1660e01b8152600401602060405180830381865afa158015610ea0573d6000803e3d6000fd5b505050506040513d601f19601f82011682018060405250810190610ec49190613bb5565b8173ffffffffffffffffffffffffffffffffffffffff16630bc6bffc6040518163ffffffff1660e01b8152600401602060405180830381865afa158015610f0f573d6000803e3d6000fd5b505050506040513d601f19601f82011682018060405250810190610f339190613ae1565b73ffffffffffffffffffffffffffffffffffffffff166370a082318373ffffffffffffffffffffffffffffffffffffffff16634ba2363a6040518163ffffffff1660e01b8152600401602060405180830381865afa158015610f99573d6000803e3d6000fd5b505050506040513d601f19601f82011682018060405250810190610fbd9190613ae1565b6040517fffffffff0000000000000000000000000000000000000000000000000000000060e084901b16815273ffffffffffffffffffffffffffffffffffffffff9091166004820152602401602060405180830381865afa158015611026573d6000803e3d6000fd5b505050506040513d601f19601f8201168201806040525081019061104a9190613bb5565b6110549190613bf1565b9392505050565b600082815260c960205260409020600101546110778133612662565b6110818383612734565b505050565b73ffffffffffffffffffffffffffffffffffffffff8116331461112b576040517f08c379a000000000000000000000000000000000000000000000000000000000815260206004820152602f60248201527f416363657373436f6e74726f6c3a2063616e206f6e6c792072656e6f756e636560448201527f20726f6c657320666f722073656c6600000000000000000000000000000000006064820152608401610802565b6111358282612756565b5050565b60006111458133612662565b61114d612778565b50565b60008060006111608686866123a0565b909250905061116f8183613d6f565b9695505050505050565b61059a603c80613a75565b6000808390508073ffffffffffffffffffffffffffffffffffffffff1663febd60186040518163ffffffff1660e01b8152600401602060405180830381865afa1580156111d5573d6000803e3d6000fd5b505050506040513d601f19601f820116820180604052508101906111f99190613ae1565b73ffffffffffffffffffffffffffffffffffffffff168373ffffffffffffffffffffffffffffffffffffffff160361123d576112358142611bd8565b91505061057e565b8073ffffffffffffffffffffffffffffffffffffffff16632b71b4506040518163ffffffff1660e01b8152600401602060405180830381865afa158015611288573d6000803e3d6000fd5b505050506040513d601f19601f820116820180604052508101906112ac9190613ae1565b73ffffffffffffffffffffffffffffffffffffffff168373ffffffffffffffffffffffffffffffffffffffff16036112e8576112358142610a74565b5060009392505050565b60006112fe8133612662565b61114d612859565b600080600085905060008173ffffffffffffffffffffffffffffffffffffffff1663febd60186040518163ffffffff1660e01b8152600401602060405180830381865afa15801561135b573d6000803e3d6000fd5b505050506040513d601f19601f8201168201806040525081019061137f9190613ae1565b905060008273ffffffffffffffffffffffffffffffffffffffff16632b71b4506040518163ffffffff1660e01b8152600401602060405180830381865afa1580156113ce573d6000803e3d6000fd5b505050506040513d601f19601f820116820180604052508101906113f29190613ae1565b90508173ffffffffffffffffffffffffffffffffffffffff168773ffffffffffffffffffffffffffffffffffffffff16148061145957508073ffffffffffffffffffffffffffffffffffffffff168773ffffffffffffffffffffffffffffffffffffffff16145b6114e5576040517f08c379a000000000000000000000000000000000000000000000000000000000815260206004820152602d60248201527f446973747269627574696f6e4173736573736f723a20756e6b6e6f776e2d747260448201527f616e6368652d61646472657373000000000000000000000000000000000000006064820152608401610802565b60008373ffffffffffffffffffffffffffffffffffffffff1663477035d16040518163ffffffff1660e01b8152600401602060405180830381865afa158015611532573d6000803e3d6000fd5b505050506040513d601f19601f820116820180604052508101906115569190613afe565b67ffffffffffffffff1690508273ffffffffffffffffffffffffffffffffffffffff168873ffffffffffffffffffffffffffffffffffffffff16036117675760008473ffffffffffffffffffffffffffffffffffffffff16632bb14ff06040518163ffffffff1660e01b8152600401602060405180830381865afa1580156115e2573d6000803e3d6000fd5b505050506040513d601f19601f820116820180604052508101906116069190613b28565b6040517f70a0823100000000000000000000000000000000000000000000000000000000815273ffffffffffffffffffffffffffffffffffffffff8a811660048301529192506000918b16906370a0823190602401602060405180830381865afa158015611678573d6000803e3d6000fd5b505050506040513d601f19601f8201168201806040525081019061169c9190613bb5565b6040517fac2a6a3800000000000000000000000000000000000000000000000000000000815273ffffffffffffffffffffffffffffffffffffffff87811660048301528b8116602483015291925060009188169063ac2a6a3890604401602060405180830381865afa158015611716573d6000803e3d6000fd5b505050506040513d601f19601f8201168201806040525081019061173a9190613bb5565b90506117576117498284613bf1565b8463ffffffff168642612919565b9850985050505050505050610e2e565b61177389838942612108565b9550955050505050610e2e565b600082815260fb602052604081206110549083612933565b6060808367ffffffffffffffff8111156117b4576117b4613ab2565b6040519080825280602002602001820160405280156117dd578160200160208202803683370190505b5091508367ffffffffffffffff8111156117f9576117f9613ab2565b604051908082528060200260200182016040528015611822578160200160208202803683370190505b50905060005b848110156118ad576118618787878481811061184657611846613b4e565b905060200201602081019061185b91906138e9565b866123a0565b84838151811061187357611873613b4e565b6020026020010184848151811061188c5761188c613b4e565b602090810291909101019190915252806118a581613b7d565b915050611828565b5094509492505050565b600080600084905060008173ffffffffffffffffffffffffffffffffffffffff1663febd60186040518163ffffffff1660e01b8152600401602060405180830381865afa15801561190c573d6000803e3d6000fd5b505050506040513d601f19601f820116820180604052508101906119309190613ae1565b9050600061193e8387611bd8565b905060008273ffffffffffffffffffffffffffffffffffffffff166318160ddd6040518163ffffffff1660e01b8152600401602060405180830381865afa15801561198d573d6000803e3d6000fd5b505050506040513d601f19601f820116820180604052508101906119b19190613bb5565b905060008373ffffffffffffffffffffffffffffffffffffffff1663313ce5676040518163ffffffff1660e01b8152600401602060405180830381865afa158015611a00573d6000803e3d6000fd5b505050506040513d601f19601f82011682018060405250810190611a249190613bce565b611a329060ff16600a613d28565b90508381611a408486613a75565b611a4a9190613d34565b9650965050505050505b9250929050565b600054610100900460ff16611a765760005460ff1615611a7a565b303b155b611b06576040517f08c379a000000000000000000000000000000000000000000000000000000000815260206004820152602e60248201527f496e697469616c697a61626c653a20636f6e747261637420697320616c72656160448201527f647920696e697469616c697a65640000000000000000000000000000000000006064820152608401610802565b600054610100900460ff16158015611b4557600080547fffffffffffffffffffffffffffffffffffffffffffffffffffffffffffff0000166101011790555b611b4e3361293f565b61012d80547fffffffffffffffffffffffff00000000000000000000000000000000000000001673ffffffffffffffffffffffffffffffffffffffff8416179055801561113557600080547fffffffffffffffffffffffffffffffffffffffffffffffffffffffffffff00ff1690555050565b600081815260fb6020526040812061057e906129df565b60008083905060008173ffffffffffffffffffffffffffffffffffffffff1663febd60186040518163ffffffff1660e01b8152600401602060405180830381865afa158015611c2b573d6000803e3d6000fd5b505050506040513d601f19601f82011682018060405250810190611c4f9190613ae1565b905073ffffffffffffffffffffffffffffffffffffffff81161580611ce057508073ffffffffffffffffffffffffffffffffffffffff166318160ddd6040518163ffffffff1660e01b8152600401602060405180830381865afa158015611cba573d6000803e3d6000fd5b505050506040513d601f19601f82011682018060405250810190611cde9190613bb5565b155b15611cf05760009250505061057e565b6000611d8483838473ffffffffffffffffffffffffffffffffffffffff1663313ce5676040518163ffffffff1660e01b8152600401602060405180830381865afa158015611d42573d6000803e3d6000fd5b505050506040513d601f19601f82011682018060405250810190611d669190613bce565b611d749060ff16600a613d28565b611d7f906001613a75565b6129e9565b905060008373ffffffffffffffffffffffffffffffffffffffff1663477035d16040518163ffffffff1660e01b8152600401602060405180830381865afa158015611dd3573d6000803e3d6000fd5b505050506040513d601f19601f82011682018060405250810190611df79190613afe565b67ffffffffffffffff16905080861015611e165750925061057e915050565b60008473ffffffffffffffffffffffffffffffffffffffff16632bb14ff06040518163ffffffff1660e01b8152600401602060405180830381865afa158015611e63573d6000803e3d6000fd5b505050506040513d601f19601f82011682018060405250810190611e879190613b28565b9050611ea38363ffffffff8316611e9e858b613bf1565b612b8e565b611ead9084613d6f565b98975050505050505050565b600082815260c96020526040902060010154611ed58133612662565b6110818383612756565b61059a6127106064613a75565b61016d611efa603c80613a75565b611f05906018613a75565b61059a9190613a75565b60007fffffffff0000000000000000000000000000000000000000000000000000000082167f7965db0b00000000000000000000000000000000000000000000000000000000148061057e57507f01ffc9a7000000000000000000000000000000000000000000000000000000007fffffffff0000000000000000000000000000000000000000000000000000000083161461057e565b6040517fac2a6a3800000000000000000000000000000000000000000000000000000000815273ffffffffffffffffffffffffffffffffffffffff8681166004830152858116602483015260009182918291908a169063ac2a6a3890604401602060405180830381865afa158015612022573d6000803e3d6000fd5b505050506040513d601f19601f820116820180604052508101906120469190613bb5565b6040517f70a0823100000000000000000000000000000000000000000000000000000000815273ffffffffffffffffffffffffffffffffffffffff89811660048301529192506120f8918391908b16906370a0823190602401602060405180830381865afa1580156120bc573d6000803e3d6000fd5b505050506040513d601f19601f820116820180604052508101906120e09190613bb5565b6120ea9190613bf1565b8763ffffffff168787612919565b9250925050965096945050505050565b60008060006121178785610a74565b6040517f70a0823100000000000000000000000000000000000000000000000000000000815273ffffffffffffffffffffffffffffffffffffffff87811660048301529192506000918816906370a0823190602401602060405180830381865afa158015612189573d6000803e3d6000fd5b505050506040513d601f19601f820116820180604052508101906121ad9190613bb5565b90506127108211156121e75780806127106121c88583613a75565b6121d29190613d34565b6121dc9190613bf1565b935093505050612207565b6127106121f48383613a75565b6121fe9190613d34565b60009350935050505b94509492505050565b60008061221d84846118b7565b6040517f2416f5d100000000000000000000000000000000000000000000000000000000815273ffffffffffffffffffffffffffffffffffffffff87166004820152909250600091503090632416f5d190602401602060405180830381865afa15801561228e573d6000803e3d6000fd5b505050506040513d601f19601f820116820180604052508101906122b29190613bb5565b61012d546122d59073ffffffffffffffffffffffffffffffffffffffff16612c43565b6040517fe815323d00000000000000000000000000000000000000000000000000000000815273ffffffffffffffffffffffffffffffffffffffff888116600483015260248201889052919091169063e815323d90604401602060405180830381865afa15801561234a573d6000803e3d6000fd5b505050506040513d601f19601f8201168201806040525081019061236e9190613bb5565b6123789190613d6f565b9050818111156123955761238c8282613bf1565b9250505061057e565b506000949350505050565b600080600085905060008173ffffffffffffffffffffffffffffffffffffffff16631755ff216040518163ffffffff1660e01b8152600401602060405180830381865afa1580156123f5573d6000803e3d6000fd5b505050506040513d601f19601f820116820180604052508101906124199190613ae1565b905060008273ffffffffffffffffffffffffffffffffffffffff1662b7f6816040518163ffffffff1660e01b8152600401602060405180830381865afa158015612467573d6000803e3d6000fd5b505050506040513d601f19601f8201168201806040525081019061248b9190613bce565b60ff16600181111561249f5761249f613d87565b60018111156124b0576124b0613d87565b036125b35760008173ffffffffffffffffffffffffffffffffffffffff1663477035d16040518163ffffffff1660e01b8152600401602060405180830381865afa158015612502573d6000803e3d6000fd5b505050506040513d601f19601f820116820180604052508101906125269190613afe565b67ffffffffffffffff16905060008273ffffffffffffffffffffffffffffffffffffffff16632bb14ff06040518163ffffffff1660e01b8152600401602060405180830381865afa15801561257f573d6000803e3d6000fd5b505050506040513d601f19601f820116820180604052508101906125a39190613b28565b9050611773838a8a84868c611fa6565b61262d8273ffffffffffffffffffffffffffffffffffffffff16631755ff216040518163ffffffff1660e01b8152600401602060405180830381865afa158015612601573d6000803e3d6000fd5b505050506040513d601f19601f820116820180604052508101906126259190613ae1565b888888612108565b935093505050610e2e565b600082821161264957506000610e47565b60006126558484613bf1565b905061116f868683612b8e565b600082815260c96020908152604080832073ffffffffffffffffffffffffffffffffffffffff8516845290915290205460ff16611135576126ba8173ffffffffffffffffffffffffffffffffffffffff166014612c50565b6126c5836020612c50565b6040516020016126d6929190613de6565b604080517fffffffffffffffffffffffffffffffffffffffffffffffffffffffffffffffe0818403018152908290527f08c379a000000000000000000000000000000000000000000000000000000000825261080291600401613e67565b61273e8282612e93565b600082815260fb602052604090206110819082612f87565b6127608282612fa9565b600082815260fb602052604090206110819082613064565b60335460ff166127e4576040517f08c379a000000000000000000000000000000000000000000000000000000000815260206004820152601460248201527f5061757361626c653a206e6f74207061757365640000000000000000000000006044820152606401610802565b603380547fffffffffffffffffffffffffffffffffffffffffffffffffffffffffffffff001690557f5db9ee0a495bf2e6ff9c91a7834c1ba4fdd244a5e8aa4e537bd38aeae4b073aa335b60405173ffffffffffffffffffffffffffffffffffffffff909116815260200160405180910390a1565b60335460ff16156128c6576040517f08c379a000000000000000000000000000000000000000000000000000000000815260206004820152601060248201527f5061757361626c653a20706175736564000000000000000000000000000000006044820152606401610802565b603380547fffffffffffffffffffffffffffffffffffffffffffffffffffffffffffffff001660011790557f62e78cea01bee320cd4e420270b5ea74000d11b0c9f74754ebdbfc544b05a25861282f3390565b83600061292882868686610e36565b905094509492505050565b60006110548383613086565b600054610100900460ff166129d6576040517f08c379a000000000000000000000000000000000000000000000000000000000815260206004820152602b60248201527f496e697469616c697a61626c653a20636f6e7472616374206973206e6f74206960448201527f6e697469616c697a696e670000000000000000000000000000000000000000006064820152608401610802565b61114d816130b0565b600061057e825490565b6000808473ffffffffffffffffffffffffffffffffffffffff16630bc6bffc6040518163ffffffff1660e01b8152600401602060405180830381865afa158015612a37573d6000803e3d6000fd5b505050506040513d601f19601f82011682018060405250810190612a5b9190613ae1565b73ffffffffffffffffffffffffffffffffffffffff1663313ce5676040518163ffffffff1660e01b8152600401602060405180830381865afa158015612aa5573d6000803e3d6000fd5b505050506040513d601f19601f82011682018060405250810190612ac99190613bce565b60ff16905060008473ffffffffffffffffffffffffffffffffffffffff1663313ce5676040518163ffffffff1660e01b8152600401602060405180830381865afa158015612b1b573d6000803e3d6000fd5b505050506040513d601f19601f82011682018060405250810190612b3f9190613bce565b60ff169050808211612b6f57612b558282613bf1565b612b6090600a613d28565b612b6a9085613d34565b61116f565b612b798183613bf1565b612b8490600a613d28565b61116f9085613a75565b6000836b033b2e3c9fd0803ce8000000612c2561016d612baf603c80613a75565b612bba906018613a75565b612bc49190613a75565b6064612bde6127106b033b2e3c9fd0803ce8000000613d34565b612be89190613d34565b612bf29088613a75565b612bfc9190613d34565b612c12906b033b2e3c9fd0803ce8000000613d6f565b856b033b2e3c9fd0803ce80000006131dc565b612c2f9087613a75565b612c399190613d34565b610e479190613bf1565b600061057e82601061329a565b60606000612c5f836002613a75565b612c6a906002613d6f565b67ffffffffffffffff811115612c8257612c82613ab2565b6040519080825280601f01601f191660200182016040528015612cac576020820181803683370190505b5090507f300000000000000000000000000000000000000000000000000000000000000081600081518110612ce357612ce3613b4e565b60200101907effffffffffffffffffffffffffffffffffffffffffffffffffffffffffffff1916908160001a9053507f780000000000000000000000000000000000000000000000000000000000000081600181518110612d4657612d46613b4e565b60200101907effffffffffffffffffffffffffffffffffffffffffffffffffffffffffffff1916908160001a9053506000612d82846002613a75565b612d8d906001613d6f565b90505b6001811115612e2a577f303132333435363738396162636465660000000000000000000000000000000085600f1660108110612dce57612dce613b4e565b1a60f81b828281518110612de457612de4613b4e565b60200101907effffffffffffffffffffffffffffffffffffffffffffffffffffffffffffff1916908160001a90535060049490941c93612e2381613eb8565b9050612d90565b508315611054576040517f08c379a000000000000000000000000000000000000000000000000000000000815260206004820181905260248201527f537472696e67733a20686578206c656e67746820696e73756666696369656e746044820152606401610802565b600082815260c96020908152604080832073ffffffffffffffffffffffffffffffffffffffff8516845290915290205460ff1661113557600082815260c96020908152604080832073ffffffffffffffffffffffffffffffffffffffff85168452909152902080547fffffffffffffffffffffffffffffffffffffffffffffffffffffffffffffff00166001179055612f293390565b73ffffffffffffffffffffffffffffffffffffffff168173ffffffffffffffffffffffffffffffffffffffff16837f2f8788117e7eff1d82e926ec794901d17c78024a50270940304540a733656f0d60405160405180910390a45050565b60006110548373ffffffffffffffffffffffffffffffffffffffff8416613344565b600082815260c96020908152604080832073ffffffffffffffffffffffffffffffffffffffff8516845290915290205460ff161561113557600082815260c96020908152604080832073ffffffffffffffffffffffffffffffffffffffff8516808552925280832080547fffffffffffffffffffffffffffffffffffffffffffffffffffffffffffffff0016905551339285917ff6391f5c32d9c69d2a47ea670b442974b53935d1edc7fd64eb21e047a839171b9190a45050565b60006110548373ffffffffffffffffffffffffffffffffffffffff8416613393565b600082600001828154811061309d5761309d613b4e565b9060005260206000200154905092915050565b600054610100900460ff16613147576040517f08c379a000000000000000000000000000000000000000000000000000000000815260206004820152602b60248201527f496e697469616c697a61626c653a20636f6e7472616374206973206e6f74206960448201527f6e697469616c697a696e670000000000000000000000000000000000000000006064820152608401610802565b61314f613486565b613157613547565b61315f6135e5565b73ffffffffffffffffffffffffffffffffffffffff811661317d5750335b61318860008261367e565b6131b27fb19546dff01e856fb3f010c267a7b1c60363cf8a4664e21cc89c26224620214e8261367e565b61114d7fb19546dff01e856fb3f010c267a7b1c60363cf8a4664e21cc89c26224620214e80613688565b600083801561327c576001841680156131f7578592506131fb565b8392505b50600283046002850494505b841561327657858602868782041461321e57600080fd5b8181018181101561322e57600080fd5b859004965050600185161561326b57858302838782041415871515161561325457600080fd5b8181018181101561326457600080fd5b8590049350505b600285049450613207565b50613292565b83801561328c5760009250613290565b8392505b505b509392505050565b60008273ffffffffffffffffffffffffffffffffffffffff1663bcaa0c5583601e8111156132ca576132ca613d87565b6040517fffffffff0000000000000000000000000000000000000000000000000000000060e084901b16815260ff9091166004820152602401602060405180830381865afa158015613320573d6000803e3d6000fd5b505050506040513d601f19601f820116820180604052508101906110549190613ae1565b600081815260018301602052604081205461338b5750815460018181018455600084815260208082209093018490558454848252828601909352604090209190915561057e565b50600061057e565b6000818152600183016020526040812054801561347c5760006133b7600183613bf1565b85549091506000906133cb90600190613bf1565b90508181146134305760008660000182815481106133eb576133eb613b4e565b906000526020600020015490508087600001848154811061340e5761340e613b4e565b6000918252602080832090910192909255918252600188019052604090208390555b855486908061344157613441613eed565b60019003818190600052602060002001600090559055856001016000868152602001908152602001600020600090556001935050505061057e565b600091505061057e565b600054610100900460ff1661351d576040517f08c379a000000000000000000000000000000000000000000000000000000000815260206004820152602b60248201527f496e697469616c697a61626c653a20636f6e7472616374206973206e6f74206960448201527f6e697469616c697a696e670000000000000000000000000000000000000000006064820152608401610802565b603380547fffffffffffffffffffffffffffffffffffffffffffffffffffffffffffffff00169055565b600054610100900460ff166135de576040517f08c379a000000000000000000000000000000000000000000000000000000000815260206004820152602b60248201527f496e697469616c697a61626c653a20636f6e7472616374206973206e6f74206960448201527f6e697469616c697a696e670000000000000000000000000000000000000000006064820152608401610802565b6001606555565b600054610100900460ff1661367c576040517f08c379a000000000000000000000000000000000000000000000000000000000815260206004820152602b60248201527f496e697469616c697a61626c653a20636f6e7472616374206973206e6f74206960448201527f6e697469616c697a696e670000000000000000000000000000000000000000006064820152608401610802565b565b6111358282612734565b600082815260c96020526040808220600101805490849055905190918391839186917fbd79b86ffe0ab8e8776151514217cd7cacd52c909f66475c3af44e129f0b00ff9190a4505050565b6000602082840312156136e557600080fd5b81357fffffffff000000000000000000000000000000000000000000000000000000008116811461105457600080fd5b73ffffffffffffffffffffffffffffffffffffffff8116811461114d57600080fd5b60008083601f84011261374957600080fd5b50813567ffffffffffffffff81111561376157600080fd5b6020830191508360208260051b8501011115611a5457600080fd5b6000806000806060858703121561379257600080fd5b843561379d81613715565b935060208501356137ad81613715565b9250604085013567ffffffffffffffff8111156137c957600080fd5b6137d587828801613737565b95989497509550505050565b600081518084526020808501945080840160005b83811015613811578151875295820195908201906001016137f5565b509495945050505050565b60408152600061382f60408301856137e1565b828103602084015261384181856137e1565b95945050505050565b6000806040838503121561385d57600080fd5b823561386881613715565b946020939093013593505050565b60008060006060848603121561388b57600080fd5b833561389681613715565b925060208401356138a681613715565b929592945050506040919091013590565b600080600080608085870312156138cd57600080fd5b5050823594602084013594506040840135936060013592509050565b6000602082840312156138fb57600080fd5b813561105481613715565b60006020828403121561391857600080fd5b5035919050565b6000806040838503121561393257600080fd5b82359150602083013561394481613715565b809150509250929050565b6000806040838503121561396257600080fd5b823561396d81613715565b9150602083013561394481613715565b60008060006060848603121561399257600080fd5b833561399d81613715565b925060208401356139ad81613715565b915060408401356139bd81613715565b809150509250925092565b600080604083850312156139db57600080fd5b50508035926020909101359150565b60008060008060608587031215613a0057600080fd5b8435613a0b81613715565b9350602085013567ffffffffffffffff811115613a2757600080fd5b613a3387828801613737565b9598909750949560400135949350505050565b7f4e487b7100000000000000000000000000000000000000000000000000000000600052601160045260246000fd5b6000817fffffffffffffffffffffffffffffffffffffffffffffffffffffffffffffffff0483118215151615613aad57613aad613a46565b500290565b7f4e487b7100000000000000000000000000000000000000000000000000000000600052604160045260246000fd5b600060208284031215613af357600080fd5b815161105481613715565b600060208284031215613b1057600080fd5b815167ffffffffffffffff8116811461105457600080fd5b600060208284031215613b3a57600080fd5b815163ffffffff8116811461105457600080fd5b7f4e487b7100000000000000000000000000000000000000000000000000000000600052603260045260246000fd5b60007fffffffffffffffffffffffffffffffffffffffffffffffffffffffffffffffff8203613bae57613bae613a46565b5060010190565b600060208284031215613bc757600080fd5b5051919050565b600060208284031215613be057600080fd5b815160ff8116811461105457600080fd5b600082821015613c0357613c03613a46565b500390565b600181815b80851115613c6157817fffffffffffffffffffffffffffffffffffffffffffffffffffffffffffffffff04821115613c4757613c47613a46565b80851615613c5457918102915b93841c9390800290613c0d565b509250929050565b600082613c785750600161057e565b81613c855750600061057e565b8160018114613c9b5760028114613ca557613cc1565b600191505061057e565b60ff841115613cb657613cb6613a46565b50506001821b61057e565b5060208310610133831016604e8410600b8410161715613ce4575081810a61057e565b613cee8383613c08565b807fffffffffffffffffffffffffffffffffffffffffffffffffffffffffffffffff04821115613d2057613d20613a46565b029392505050565b60006110548383613c69565b600082613d6a577f4e487b7100000000000000000000000000000000000000000000000000000000600052601260045260246000fd5b500490565b60008219821115613d8257613d82613a46565b500190565b7f4e487b7100000000000000000000000000000000000000000000000000000000600052602160045260246000fd5b60005b83811015613dd1578181015183820152602001613db9565b83811115613de0576000848401525b50505050565b7f416363657373436f6e74726f6c3a206163636f756e7420000000000000000000815260008351613e1e816017850160208801613db6565b7f206973206d697373696e6720726f6c65200000000000000000000000000000006017918401918201528351613e5b816028840160208801613db6565b01602801949350505050565b6020815260008251806020840152613e86816040850160208701613db6565b601f017fffffffffffffffffffffffffffffffffffffffffffffffffffffffffffffffe0169190910160400192915050565b600081613ec757613ec7613a46565b507fffffffffffffffffffffffffffffffffffffffffffffffffffffffffffffffff0190565b7f4e487b7100000000000000000000000000000000000000000000000000000000600052603160045260246000fdfea2646970667358221220b4930788c40081d3f956330a26996945db890795b8e8363f9cb66743fb48497864736f6c634300080d0033",
  "devdoc": {
    "kind": "dev",
    "methods": {
      "getRoleAdmin(bytes32)": {
        "details": "Returns the admin role that controls `role`. See {grantRole} and {revokeRole}. To change a role's admin, use {_setRoleAdmin}."
      },
      "getRoleMember(bytes32,uint256)": {
        "details": "Returns one of the accounts that have `role`. `index` must be a value between 0 and {getRoleMemberCount}, non-inclusive. Role bearers are not sorted in any particular way, and their ordering may change at any point. WARNING: When using {getRoleMember} and {getRoleMemberCount}, make sure you perform all queries on the same block. See the following https://forum.openzeppelin.com/t/iterating-over-elements-on-enumerableset-in-openzeppelin-contracts/2296[forum post] for more information."
      },
      "getRoleMemberCount(bytes32)": {
        "details": "Returns the number of accounts that have `role`. Can be used together with {getRoleMember} to enumerate all bearers of a role."
      },
      "grantRole(bytes32,address)": {
        "details": "Grants `role` to `account`. If `account` had not been already granted `role`, emits a {RoleGranted} event. Requirements: - the caller must have ``role``'s admin role."
      },
      "hasRole(bytes32,address)": {
        "details": "Returns `true` if `account` has been granted `role`."
      },
      "paused()": {
        "details": "Returns true if the contract is paused, and false otherwise."
      },
      "renounceRole(bytes32,address)": {
        "details": "Revokes `role` from the calling account. Roles are often managed via {grantRole} and {revokeRole}: this function's purpose is to provide a mechanism for accounts to lose their privileges if they are compromised (such as when a trusted device is misplaced). If the calling account had been revoked `role`, emits a {RoleRevoked} event. Requirements: - the caller must be `account`."
      },
      "revokeRole(bytes32,address)": {
        "details": "Revokes `role` from `account`. If `account` had been granted `role`, emits a {RoleRevoked} event. Requirements: - the caller must have ``role``'s admin role."
      },
      "supportsInterface(bytes4)": {
        "details": "See {IERC165-supportsInterface}."
      }
    },
    "version": 1
  },
  "userdoc": {
    "kind": "user",
    "methods": {},
    "version": 1
  },
  "storageLayout": {
    "storage": [
      {
        "astId": 708,
        "contract": "contracts/protocol/pool/DistributionAssessor.sol:DistributionAssessor",
        "label": "_initialized",
        "offset": 0,
        "slot": "0",
        "type": "t_bool"
      },
      {
        "astId": 711,
        "contract": "contracts/protocol/pool/DistributionAssessor.sol:DistributionAssessor",
        "label": "_initializing",
        "offset": 1,
        "slot": "0",
        "type": "t_bool"
      },
      {
        "astId": 4917,
        "contract": "contracts/protocol/pool/DistributionAssessor.sol:DistributionAssessor",
        "label": "__gap",
        "offset": 0,
        "slot": "1",
        "type": "t_array(t_uint256)50_storage"
      },
      {
        "astId": 796,
        "contract": "contracts/protocol/pool/DistributionAssessor.sol:DistributionAssessor",
        "label": "_paused",
        "offset": 0,
        "slot": "51",
        "type": "t_bool"
      },
      {
        "astId": 885,
        "contract": "contracts/protocol/pool/DistributionAssessor.sol:DistributionAssessor",
        "label": "__gap",
        "offset": 0,
        "slot": "52",
        "type": "t_array(t_uint256)49_storage"
      },
      {
        "astId": 900,
        "contract": "contracts/protocol/pool/DistributionAssessor.sol:DistributionAssessor",
        "label": "_status",
        "offset": 0,
        "slot": "101",
        "type": "t_uint256"
      },
      {
        "astId": 944,
        "contract": "contracts/protocol/pool/DistributionAssessor.sol:DistributionAssessor",
        "label": "__gap",
        "offset": 0,
        "slot": "102",
        "type": "t_array(t_uint256)49_storage"
      },
      {
        "astId": 5238,
        "contract": "contracts/protocol/pool/DistributionAssessor.sol:DistributionAssessor",
        "label": "__gap",
        "offset": 0,
        "slot": "151",
        "type": "t_array(t_uint256)50_storage"
      },
      {
        "astId": 184,
        "contract": "contracts/protocol/pool/DistributionAssessor.sol:DistributionAssessor",
        "label": "_roles",
        "offset": 0,
        "slot": "201",
        "type": "t_mapping(t_bytes32,t_struct(RoleData)179_storage)"
      },
      {
        "astId": 472,
        "contract": "contracts/protocol/pool/DistributionAssessor.sol:DistributionAssessor",
        "label": "__gap",
        "offset": 0,
        "slot": "202",
        "type": "t_array(t_uint256)49_storage"
      },
      {
        "astId": 33,
        "contract": "contracts/protocol/pool/DistributionAssessor.sol:DistributionAssessor",
        "label": "_roleMembers",
        "offset": 0,
        "slot": "251",
        "type": "t_mapping(t_bytes32,t_struct(AddressSet)5563_storage)"
      },
      {
        "astId": 143,
        "contract": "contracts/protocol/pool/DistributionAssessor.sol:DistributionAssessor",
        "label": "__gap",
        "offset": 0,
        "slot": "252",
        "type": "t_array(t_uint256)49_storage"
      },
      {
        "astId": 36535,
        "contract": "contracts/protocol/pool/DistributionAssessor.sol:DistributionAssessor",
        "label": "registry",
        "offset": 0,
        "slot": "301",
        "type": "t_contract(Registry)37373"
      }
    ],
    "types": {
      "t_address": {
        "encoding": "inplace",
        "label": "address",
        "numberOfBytes": "20"
      },
      "t_array(t_bytes32)dyn_storage": {
        "base": "t_bytes32",
        "encoding": "dynamic_array",
        "label": "bytes32[]",
        "numberOfBytes": "32"
      },
      "t_array(t_uint256)49_storage": {
        "base": "t_uint256",
        "encoding": "inplace",
        "label": "uint256[49]",
        "numberOfBytes": "1568"
      },
      "t_array(t_uint256)50_storage": {
        "base": "t_uint256",
        "encoding": "inplace",
        "label": "uint256[50]",
        "numberOfBytes": "1600"
      },
      "t_bool": {
        "encoding": "inplace",
        "label": "bool",
        "numberOfBytes": "1"
      },
      "t_bytes32": {
        "encoding": "inplace",
        "label": "bytes32",
        "numberOfBytes": "32"
      },
      "t_contract(Registry)37373": {
        "encoding": "inplace",
        "label": "contract Registry",
        "numberOfBytes": "20"
      },
      "t_mapping(t_address,t_bool)": {
        "encoding": "mapping",
        "key": "t_address",
        "label": "mapping(address => bool)",
        "numberOfBytes": "32",
        "value": "t_bool"
      },
      "t_mapping(t_bytes32,t_struct(AddressSet)5563_storage)": {
        "encoding": "mapping",
        "key": "t_bytes32",
        "label": "mapping(bytes32 => struct EnumerableSetUpgradeable.AddressSet)",
        "numberOfBytes": "32",
        "value": "t_struct(AddressSet)5563_storage"
      },
      "t_mapping(t_bytes32,t_struct(RoleData)179_storage)": {
        "encoding": "mapping",
        "key": "t_bytes32",
        "label": "mapping(bytes32 => struct AccessControlUpgradeable.RoleData)",
        "numberOfBytes": "32",
        "value": "t_struct(RoleData)179_storage"
      },
      "t_mapping(t_bytes32,t_uint256)": {
        "encoding": "mapping",
        "key": "t_bytes32",
        "label": "mapping(bytes32 => uint256)",
        "numberOfBytes": "32",
        "value": "t_uint256"
      },
      "t_struct(AddressSet)5563_storage": {
        "encoding": "inplace",
        "label": "struct EnumerableSetUpgradeable.AddressSet",
        "members": [
          {
            "astId": 5562,
            "contract": "contracts/protocol/pool/DistributionAssessor.sol:DistributionAssessor",
            "label": "_inner",
            "offset": 0,
            "slot": "0",
            "type": "t_struct(Set)5262_storage"
          }
        ],
        "numberOfBytes": "64"
      },
      "t_struct(RoleData)179_storage": {
        "encoding": "inplace",
        "label": "struct AccessControlUpgradeable.RoleData",
        "members": [
          {
            "astId": 176,
            "contract": "contracts/protocol/pool/DistributionAssessor.sol:DistributionAssessor",
            "label": "members",
            "offset": 0,
            "slot": "0",
            "type": "t_mapping(t_address,t_bool)"
          },
          {
            "astId": 178,
            "contract": "contracts/protocol/pool/DistributionAssessor.sol:DistributionAssessor",
            "label": "adminRole",
            "offset": 0,
            "slot": "1",
            "type": "t_bytes32"
          }
        ],
        "numberOfBytes": "64"
      },
      "t_struct(Set)5262_storage": {
        "encoding": "inplace",
        "label": "struct EnumerableSetUpgradeable.Set",
        "members": [
          {
            "astId": 5257,
            "contract": "contracts/protocol/pool/DistributionAssessor.sol:DistributionAssessor",
            "label": "_values",
            "offset": 0,
            "slot": "0",
            "type": "t_array(t_bytes32)dyn_storage"
          },
          {
            "astId": 5261,
            "contract": "contracts/protocol/pool/DistributionAssessor.sol:DistributionAssessor",
            "label": "_indexes",
            "offset": 0,
            "slot": "1",
            "type": "t_mapping(t_bytes32,t_uint256)"
          }
        ],
        "numberOfBytes": "64"
      },
      "t_uint256": {
        "encoding": "inplace",
        "label": "uint256",
        "numberOfBytes": "32"
      }
    }
  }
}