{
  "address": "0x92889F19f0f261BC5f877042296f3e3ec15b0eeB",
  "abi": [
    {
      "anonymous": false,
      "inputs": [
        {
          "indexed": true,
          "internalType": "address",
          "name": "previousOwner",
          "type": "address"
        },
        {
          "indexed": true,
          "internalType": "address",
          "name": "newOwner",
          "type": "address"
        }
      ],
      "name": "OwnershipTransferred",
      "type": "event"
    },
    {
      "anonymous": false,
      "inputs": [
        {
          "indexed": false,
          "internalType": "address",
          "name": "account",
          "type": "address"
        }
      ],
      "name": "Paused",
      "type": "event"
    },
    {
      "anonymous": false,
      "inputs": [
        {
          "indexed": false,
          "internalType": "address",
          "name": "account",
          "type": "address"
        }
      ],
      "name": "Unpaused",
      "type": "event"
    },
    {
      "inputs": [
        {
          "internalType": "string",
          "name": "_tradeId",
          "type": "string"
        }
      ],
      "name": "contractAddressOf",
      "outputs": [
        {
          "internalType": "address",
          "name": "",
          "type": "address"
        }
      ],
      "stateMutability": "view",
      "type": "function"
    },
    {
      "inputs": [
        {
          "internalType": "address",
          "name": "",
          "type": "address"
        }
      ],
      "name": "existedTrade",
      "outputs": [
        {
          "internalType": "bool",
          "name": "",
          "type": "bool"
        }
      ],
      "stateMutability": "view",
      "type": "function"
    },
    {
      "inputs": [
        {
          "internalType": "address",
          "name": "_registry",
          "type": "address"
        }
      ],
      "name": "initialize",
      "outputs": [],
      "stateMutability": "nonpayable",
      "type": "function"
    },
    {
      "inputs": [
        {
          "internalType": "address",
          "name": "tradeAddress",
          "type": "address"
        }
      ],
      "name": "isExistedTrade",
      "outputs": [
        {
          "internalType": "bool",
          "name": "",
          "type": "bool"
        }
      ],
      "stateMutability": "view",
      "type": "function"
    },
    {
      "inputs": [
        {
          "internalType": "bytes32",
          "name": "",
          "type": "bytes32"
        }
      ],
      "name": "isExistingReferenceId",
      "outputs": [
        {
          "internalType": "bool",
          "name": "",
          "type": "bool"
        }
      ],
      "stateMutability": "view",
      "type": "function"
    },
    {
      "inputs": [
        {
          "internalType": "string",
          "name": "tradeId",
          "type": "string"
        },
        {
          "internalType": "address[3]",
          "name": "tradeAddresses",
          "type": "address[3]"
        },
        {
          "internalType": "uint256[2]",
          "name": "tradeTokenIndexs",
          "type": "uint256[2]"
        },
        {
          "internalType": "uint256[2]",
          "name": "tradeAmounts",
          "type": "uint256[2]"
        },
        {
          "internalType": "uint256",
          "name": "expirationTime",
          "type": "uint256"
        },
        {
          "internalType": "uint256[2]",
          "name": "loanAmounts",
          "type": "uint256[2]"
        }
      ],
      "name": "newContract",
      "outputs": [],
      "stateMutability": "nonpayable",
      "type": "function"
    },
    {
      "inputs": [],
      "name": "owner",
      "outputs": [
        {
          "internalType": "address",
          "name": "",
          "type": "address"
        }
      ],
      "stateMutability": "view",
      "type": "function"
    },
    {
      "inputs": [],
      "name": "pause",
      "outputs": [],
      "stateMutability": "nonpayable",
      "type": "function"
    },
    {
      "inputs": [],
      "name": "paused",
      "outputs": [
        {
          "internalType": "bool",
          "name": "",
          "type": "bool"
        }
      ],
      "stateMutability": "view",
      "type": "function"
    },
    {
      "inputs": [],
      "name": "registry",
      "outputs": [
        {
          "internalType": "address",
          "name": "",
          "type": "address"
        }
      ],
      "stateMutability": "view",
      "type": "function"
    },
    {
      "inputs": [],
      "name": "renounceOwnership",
      "outputs": [],
      "stateMutability": "nonpayable",
      "type": "function"
    },
    {
      "inputs": [
        {
          "internalType": "string",
          "name": "",
          "type": "string"
        }
      ],
      "name": "tradeContracts",
      "outputs": [
        {
          "internalType": "address",
          "name": "",
          "type": "address"
        }
      ],
      "stateMutability": "view",
      "type": "function"
    },
    {
      "inputs": [
        {
          "internalType": "address",
          "name": "newOwner",
          "type": "address"
        }
      ],
      "name": "transferOwnership",
      "outputs": [],
      "stateMutability": "nonpayable",
      "type": "function"
    },
    {
      "inputs": [],
      "name": "unpause",
      "outputs": [],
      "stateMutability": "nonpayable",
      "type": "function"
    }
  ],
  "transactionHash": "0x267d289c14d9843aa0c28da1bfa9c9fe05df45fe8fc8e7aba4bf9f9068e0ae94",
  "args": [],
  "numDeployments": 1,
  "solcInputHash": "a985c02e370a06e44f17ed2bca4ecab7",
  "bytecode": "0x608060405234801561001057600080fd5b50615f21806100206000396000f3fe608060405234801561001057600080fd5b50600436106100ea5760003560e01c80639572549c1161008c578063d9e1442a11610066578063d9e1442a14610212578063dc1c315014610225578063f2fde38b14610248578063f36a3f171461025b57600080fd5b80639572549c146101c95780639ab195c1146101ec578063c4d66de8146101ff57600080fd5b8063715018a6116100c8578063715018a61461017b5780637b103999146101835780638456cb59146101a35780638da5cb5b146101ab57600080fd5b80633f4ba83a146100ef57806344db04a7146100f95780635c975abb14610164575b600080fd5b6100f7610294565b005b61013a610107366004610fc0565b805160208183018101805160988252928201919093012091525473ffffffffffffffffffffffffffffffffffffffff1681565b60405173ffffffffffffffffffffffffffffffffffffffff90911681526020015b60405180910390f35b60335460ff165b604051901515815260200161015b565b6100f7610324565b60975461013a9073ffffffffffffffffffffffffffffffffffffffff1681565b6100f76103af565b60655473ffffffffffffffffffffffffffffffffffffffff1661013a565b61016b6101d736600461108f565b609a6020526000908152604090205460ff1681565b6100f76101fa366004611102565b610438565b6100f761020d36600461119e565b61092b565b61013a6102203660046111db565b610a98565b61016b61023336600461119e565b60996020526000908152604090205460ff1681565b6100f761025636600461119e565b610adb565b61016b61026936600461119e565b73ffffffffffffffffffffffffffffffffffffffff1660009081526099602052604090205460ff1690565b60655473ffffffffffffffffffffffffffffffffffffffff16331461031a576040517f08c379a000000000000000000000000000000000000000000000000000000000815260206004820181905260248201527f4f776e61626c653a2063616c6c6572206973206e6f7420746865206f776e657260448201526064015b60405180910390fd5b610322610c0b565b565b60655473ffffffffffffffffffffffffffffffffffffffff1633146103a5576040517f08c379a000000000000000000000000000000000000000000000000000000000815260206004820181905260248201527f4f776e61626c653a2063616c6c6572206973206e6f7420746865206f776e65726044820152606401610311565b6103226000610cec565b60655473ffffffffffffffffffffffffffffffffffffffff163314610430576040517f08c379a000000000000000000000000000000000000000000000000000000000815260206004820181905260248201527f4f776e61626c653a2063616c6c6572206973206e6f7420746865206f776e65726044820152606401610311565b610322610d63565b60335460ff16156104a5576040517f08c379a000000000000000000000000000000000000000000000000000000000815260206004820152601060248201527f5061757361626c653a20706175736564000000000000000000000000000000006044820152606401610311565b60655473ffffffffffffffffffffffffffffffffffffffff163314610526576040517f08c379a000000000000000000000000000000000000000000000000000000000815260206004820181905260248201527f4f776e61626c653a2063616c6c6572206973206e6f7420746865206f776e65726044820152606401610311565b86868080601f016020809104026020016040519081016040528093929190818152602001838380828437600092018290525060405190935061056e925084915060200161121d565b604080517fffffffffffffffffffffffffffffffffffffffffffffffffffffffffffffffe081840301815291815281516020928301206000818152609a90935291205490915060ff161561061e576040517f08c379a000000000000000000000000000000000000000000000000000000000815260206004820152601d60248201527f5265666572656e6365204964206973206e6f7420617661696c61626c650000006044820152606401610311565b61065b816000908152609a6020526040902080547fffffffffffffffffffffffffffffffffffffffffffffffffffffffffffffff00166001179055565b600060405180608001604052808960006003811061067b5761067b611258565b60200201602081019061068e919061119e565b73ffffffffffffffffffffffffffffffffffffffff1681526020908101906106bc9060408c01908c0161119e565b73ffffffffffffffffffffffffffffffffffffffff90811682526097541660208201526040908101906106f59060608c01908c0161119e565b73ffffffffffffffffffffffffffffffffffffffff169052604080518082018252883581526020808a01359082015290519192509060009061073690610f84565b604051809103906000f080158015610752573d6000803e3d6000fd5b506040517f0b12d2da00000000000000000000000000000000000000000000000000000000815290915073ffffffffffffffffffffffffffffffffffffffff821690630b12d2da906107b09086908d9087908d908d90600401611297565b600060405180830381600087803b1580156107ca57600080fd5b505af11580156107de573d6000803e3d6000fd5b505050508073ffffffffffffffffffffffffffffffffffffffff1663f2fde38b6108053390565b6040517fffffffff0000000000000000000000000000000000000000000000000000000060e084901b16815273ffffffffffffffffffffffffffffffffffffffff9091166004820152602401600060405180830381600087803b15801561086b57600080fd5b505af115801561087f573d6000803e3d6000fd5b505050508060988d8d60405161089692919061132e565b908152604080516020928190038301902080547fffffffffffffffffffffffff00000000000000000000000000000000000000001673ffffffffffffffffffffffffffffffffffffffff94851617905592909116600090815260999091522080547fffffffffffffffffffffffffffffffffffffffffffffffffffffffffffffff001660011790555050505050505050505050565b600054610100900460ff166109465760005460ff161561094a565b303b155b6109d6576040517f08c379a000000000000000000000000000000000000000000000000000000000815260206004820152602e60248201527f496e697469616c697a61626c653a20636f6e747261637420697320616c72656160448201527f647920696e697469616c697a65640000000000000000000000000000000000006064820152608401610311565b600054610100900460ff16158015610a1557600080547fffffffffffffffffffffffffffffffffffffffffffffffffffffffffffff0000166101011790555b610a1d610e23565b610a25610ee4565b609780547fffffffffffffffffffffffff00000000000000000000000000000000000000001673ffffffffffffffffffffffffffffffffffffffff84161790558015610a9457600080547fffffffffffffffffffffffffffffffffffffffffffffffffffffffffffff00ff1690555b5050565b600060988383604051610aac92919061132e565b9081526040519081900360200190205473ffffffffffffffffffffffffffffffffffffffff1690505b92915050565b60655473ffffffffffffffffffffffffffffffffffffffff163314610b5c576040517f08c379a000000000000000000000000000000000000000000000000000000000815260206004820181905260248201527f4f776e61626c653a2063616c6c6572206973206e6f7420746865206f776e65726044820152606401610311565b73ffffffffffffffffffffffffffffffffffffffff8116610bff576040517f08c379a000000000000000000000000000000000000000000000000000000000815260206004820152602660248201527f4f776e61626c653a206e6577206f776e657220697320746865207a65726f206160448201527f64647265737300000000000000000000000000000000000000000000000000006064820152608401610311565b610c0881610cec565b50565b60335460ff16610c77576040517f08c379a000000000000000000000000000000000000000000000000000000000815260206004820152601460248201527f5061757361626c653a206e6f74207061757365640000000000000000000000006044820152606401610311565b603380547fffffffffffffffffffffffffffffffffffffffffffffffffffffffffffffff001690557f5db9ee0a495bf2e6ff9c91a7834c1ba4fdd244a5e8aa4e537bd38aeae4b073aa335b60405173ffffffffffffffffffffffffffffffffffffffff909116815260200160405180910390a1565b6065805473ffffffffffffffffffffffffffffffffffffffff8381167fffffffffffffffffffffffff0000000000000000000000000000000000000000831681179093556040519116919082907f8be0079c531659141344cd1fd0a4f28419497f9722a3daafe3b4186f6b6457e090600090a35050565b60335460ff1615610dd0576040517f08c379a000000000000000000000000000000000000000000000000000000000815260206004820152601060248201527f5061757361626c653a20706175736564000000000000000000000000000000006044820152606401610311565b603380547fffffffffffffffffffffffffffffffffffffffffffffffffffffffffffffff001660011790557f62e78cea01bee320cd4e420270b5ea74000d11b0c9f74754ebdbfc544b05a258610cc23390565b600054610100900460ff16610eba576040517f08c379a000000000000000000000000000000000000000000000000000000000815260206004820152602b60248201527f496e697469616c697a61626c653a20636f6e7472616374206973206e6f74206960448201527f6e697469616c697a696e670000000000000000000000000000000000000000006064820152608401610311565b603380547fffffffffffffffffffffffffffffffffffffffffffffffffffffffffffffff00169055565b600054610100900460ff16610f7b576040517f08c379a000000000000000000000000000000000000000000000000000000000815260206004820152602b60248201527f496e697469616c697a61626c653a20636f6e7472616374206973206e6f74206960448201527f6e697469616c697a696e670000000000000000000000000000000000000000006064820152608401610311565b61032233610cec565b614bad8061133f83390190565b7f4e487b7100000000000000000000000000000000000000000000000000000000600052604160045260246000fd5b600060208284031215610fd257600080fd5b813567ffffffffffffffff80821115610fea57600080fd5b818401915084601f830112610ffe57600080fd5b81358181111561101057611010610f91565b604051601f82017fffffffffffffffffffffffffffffffffffffffffffffffffffffffffffffffe0908116603f0116810190838211818310171561105657611056610f91565b8160405282815287602084870101111561106f57600080fd5b826020860160208301376000928101602001929092525095945050505050565b6000602082840312156110a157600080fd5b5035919050565b60008083601f8401126110ba57600080fd5b50813567ffffffffffffffff8111156110d257600080fd5b6020830191508360208285010111156110ea57600080fd5b9250929050565b8060408101831015610ad557600080fd5b6000806000806000806000610160888a03121561111e57600080fd5b873567ffffffffffffffff81111561113557600080fd5b6111418a828b016110a8565b909850965050608088018981111561115857600080fd5b6020890195506111688a826110f1565b9450506111788960c08a016110f1565b92506101008801359150611190896101208a016110f1565b905092959891949750929550565b6000602082840312156111b057600080fd5b813573ffffffffffffffffffffffffffffffffffffffff811681146111d457600080fd5b9392505050565b600080602083850312156111ee57600080fd5b823567ffffffffffffffff81111561120557600080fd5b611211858286016110a8565b90969095509350505050565b6000825160005b8181101561123e5760208186018101518583015201611224565b8181111561124d576000828501525b509190910192915050565b7f4e487b7100000000000000000000000000000000000000000000000000000000600052603260045260246000fd5b6040818337506000604082015250565b6101608101818760005b60048110156112d657815173ffffffffffffffffffffffffffffffffffffffff168352602092830192909101906001016112a1565b5050506040866080840137600060c0830181815286915b600281101561130c5782518252602092830192909101906001016112ed565b50505083610100830152611324610120830184611287565b9695505050505050565b818382376000910190815291905056fe608060405260fb805460ff60a01b1916905534801561001d57600080fd5b50614b808061002d6000396000f3fe608060405234801561001057600080fd5b50600436106103a45760003560e01c80638456cb59116101e9578063c19d93fb1161010f578063dcf6176a116100ad578063f2fde38b1161007c578063f2fde38b14610a34578063f44d4b0c14610a47578063fa391c6414610a5a578063fcfab1ad14610a6257600080fd5b8063dcf6176a146109ae578063e1e281b7146109b8578063e310d7f6146109e8578063f23a6e61146109fb57600080fd5b8063d1346b3a116100e9578063d1346b3a146108fa578063d66940271461091e578063d8270dce1461099a578063da284dcc146109a457600080fd5b8063c19d93fb146108b2578063c2216dd3146108cd578063ca18816c146108d557600080fd5b8063a49a66ce11610187578063bc197c8111610156578063bc197c811461080d578063bc9e8f3314610879578063c0cc365d1461088c578063c14103cf1461089f57600080fd5b8063a49a66ce146107a2578063b13fdbd1146107c6578063b16d6905146107f2578063b34da699146107fa57600080fd5b80638ef4403c116101c35780638ef4403c146106f057806399ba9ac114610703578063a26b887014610760578063a3cbaa911461077357600080fd5b80638456cb59146106c25780638ae2aa5c146106ca5780638da5cb5b146106d257600080fd5b80634d1db8bd116102ce578063705539b61161026c5780637b1039991161023b5780637b1039991461066d5780637f4e48491461068d578063801806a1146106a75780638119c065146106ba57600080fd5b8063705539b61461059a578063715018a6146105be5780637150d8ae146105c657806373031113146105e757600080fd5b8063519b85be116102a8578063519b85be1461056a578063559998181461057d5780635c975abb146105855780635dc4b28c1461059057600080fd5b80634d1db8bd146105215780634fa7a7fb1461053457806350c0bf6c1461055757600080fd5b80632b6b84d2116103465780633a63c345116103155780633a63c345146104eb5780633f4ba83a146104fe57806346d50f99146105065780634ba264221461050e57600080fd5b80632b6b84d2146104a55780632f13b60c146104b85780632fc047fb146104c05780633a007c08146104e357600080fd5b806314a72dad1161038257806314a72dad1461042c578063161bccc41461044e57806317b9b95314610461578063196e74a71461049b57600080fd5b806301ffc9a7146103a957806308551a53146103d15780630b12d2da14610417575b600080fd5b6103bc6103b73660046140ed565b610a75565b60405190151581526020015b60405180910390f35b61010b546103f29073ffffffffffffffffffffffffffffffffffffffff1681565b60405173ffffffffffffffffffffffffffffffffffffffff90911681526020016103c8565b61042a610425366004614267565b610b0e565b005b61043f61043a366004614310565b610d63565b6040516103c893929190614368565b6103f261045c3660046143ea565b611049565b61048d61046f366004614403565b61010860209081526000928352604080842090915290825290205481565b6040519081526020016103c8565b61048d61010f5481565b61042a6104b336600461443c565b611080565b6103bc611117565b6103bc6104ce3660046143ea565b60fe6020526000908152604090205460ff1681565b61043f61113c565b61048d6104f93660046143ea565b611492565b61042a6114b3565b61048d61153e565b61042a61051c3660046143ea565b61155e565b61042a61052f3660046144bd565b6115f0565b6103bc610542366004614310565b60fc6020526000908152604090205460ff1681565b61042a610565366004614580565b61175d565b61042a6105783660046143ea565b611a33565b61042a611ba8565b60335460ff166103bc565b61048d6101115481565b6103bc6105a8366004614310565b6101046020526000908152604090205460ff1681565b61042a611caf565b61010c546103f29073ffffffffffffffffffffffffffffffffffffffff1681565b61063b6105f53660046145c2565b610106602090815260009283526040808420909152908252902080546001820154600290920154909173ffffffffffffffffffffffffffffffffffffffff908116911683565b6040805193845273ffffffffffffffffffffffffffffffffffffffff92831660208501529116908201526060016103c8565b60fb546103f29073ffffffffffffffffffffffffffffffffffffffff1681565b610695611d3a565b60405160ff90911681526020016103c8565b6103bc6106b5366004614310565b611d55565b61042a611e02565b61042a6123cb565b61042a612454565b60655473ffffffffffffffffffffffffffffffffffffffff166103f2565b6103f26106fe3660046143ea565b61245c565b61011354610114546101155461072e9273ffffffffffffffffffffffffffffffffffffffff16919083565b6040805173ffffffffffffffffffffffffffffffffffffffff90941684526020840192909252908201526060016103c8565b61042a61076e366004614310565b61246d565b6103bc6107813660046145c2565b61010760209081526000928352604080842090915290825290205460ff1681565b6103bc6107b0366004614310565b6101026020526000908152604090205460ff1681565b61048d6107d4366004614403565b61010960209081526000928352604080842090915290825290205481565b61042a612536565b61048d6108083660046143ea565b6126bf565b61084861081b36600461467c565b7fbc197c810000000000000000000000000000000000000000000000000000000098975050505050505050565b6040517fffffffff0000000000000000000000000000000000000000000000000000000090911681526020016103c8565b61042a6108873660046143ea565b6126d0565b61042a61089a3660046143ea565b612757565b61042a6108ad3660046143ea565b6127de565b610112546108c09060ff1681565b6040516103c8919061476a565b61042a61286d565b60fb546103bc9074010000000000000000000000000000000000000000900460ff1681565b6103bc6109083660046143ea565b6101006020526000908152604090205460ff1681565b61010b5461010c546101135461011454610115546101165461011754610118546040805173ffffffffffffffffffffffffffffffffffffffff998a168152978916602089015297909516968601969096526060850192909252608084015260a083015260c082019290925260e0810191909152610100016103c8565b61048d61010e5481565b61048d61010d5481565b61048d6101105481565b6101165461011754610118546109cd92919083565b604080519384526020840192909252908201526060016103c8565b6103f26109f63660046143ea565b61292e565b610848610a093660046147ab565b7ff23a6e61000000000000000000000000000000000000000000000000000000009695505050505050565b61042a610a42366004614310565b61293f565b61042a610a553660046143ea565b612a6c565b6103bc612b91565b61042a610a70366004614827565b612bb3565b60007fffffffff0000000000000000000000000000000000000000000000000000000082167f4e2312e0000000000000000000000000000000000000000000000000000000001480610b0857507f01ffc9a7000000000000000000000000000000000000000000000000000000007fffffffff000000000000000000000000000000000000000000000000000000008316145b92915050565b600054610100900460ff16610b295760005460ff1615610b2d565b303b155b610bbe576040517f08c379a000000000000000000000000000000000000000000000000000000000815260206004820152602e60248201527f496e697469616c697a61626c653a20636f6e747261637420697320616c72656160448201527f647920696e697469616c697a656400000000000000000000000000000000000060648201526084015b60405180910390fd5b600054610100900460ff16158015610bfd57600080547fffffffffffffffffffffffffffffffffffffffffffffffffffffffffffff0000166101011790555b610c05612c3b565b610c0d612cfc565b855161010b80547fffffffffffffffffffffffff000000000000000000000000000000000000000090811673ffffffffffffffffffffffffffffffffffffffff9384161790915560208089015161010c805484169185169190911790556040808a015160fb80548516918616919091179055805160608082018352808c015190951680825289518285018190526000928401839052610113805490961690911790945561011493909355610115839055805193840181528882015180855288830151858401819052949091018390526101165561011792909255610118554261010e55825161010f558201516101105561010d83905561011280547fffffffffffffffffffffffffffffffffffffffffffffffffffffffffffffff001690558015610d5b57600080547fffffffffffffffffffffffffffffffffffffffffffffffffffffffffffff00ff1690555b505050505050565b610103546060908190819060008167ffffffffffffffff811115610d8957610d8961412f565b604051908082528060200260200182016040528015610db2578160200160208202803683370190505b50905060008267ffffffffffffffff811115610dd057610dd061412f565b604051908082528060200260200182016040528015610df9578160200160208202803683370190505b50905060008367ffffffffffffffff811115610e1757610e1761412f565b604051908082528060200260200182016040528015610e40578160200160208202803683370190505b50905060005b8481101561103a576101038181548110610e6257610e6261485e565b9060005260206000200160009054906101000a900473ffffffffffffffffffffffffffffffffffffffff16848281518110610e9f57610e9f61485e565b602002602001019073ffffffffffffffffffffffffffffffffffffffff16908173ffffffffffffffffffffffffffffffffffffffff168152505061010860008a73ffffffffffffffffffffffffffffffffffffffff1673ffffffffffffffffffffffffffffffffffffffff16815260200190815260200160002060006101038381548110610f2f57610f2f61485e565b600091825260208083209091015473ffffffffffffffffffffffffffffffffffffffff1683528201929092526040019020548351849083908110610f7557610f7561485e565b60200260200101818152505061010960008a73ffffffffffffffffffffffffffffffffffffffff1673ffffffffffffffffffffffffffffffffffffffff16815260200190815260200160002060006101038381548110610fd757610fd761485e565b600091825260208083209091015473ffffffffffffffffffffffffffffffffffffffff168352820192909252604001902054825183908390811061101d5761101d61485e565b602090810291909101015280611032816148bc565b915050610e46565b50919790965090945092505050565b60fd818154811061105957600080fd5b60009182526020909120015473ffffffffffffffffffffffffffffffffffffffff16905081565b60655473ffffffffffffffffffffffffffffffffffffffff163314611101576040517f08c379a000000000000000000000000000000000000000000000000000000000815260206004820181905260248201527f4f776e61626c653a2063616c6c6572206973206e6f7420746865206f776e65726044820152606401610bb5565b61111085858585856000612d9c565b5050505050565b60006111264261010e54612ec1565b61010d5411156111365750600090565b50600190565b6060806060600061010380549050600161115691906148f4565b905060008167ffffffffffffffff8111156111735761117361412f565b60405190808252806020026020018201604052801561119c578160200160208202803683370190505b50905060008267ffffffffffffffff8111156111ba576111ba61412f565b6040519080825280602002602001820160405280156111e3578160200160208202803683370190505b50905060008367ffffffffffffffff8111156112015761120161412f565b60405190808252806020026020018201604052801561122a578160200160208202803683370190505b50905060005b610103548110156113da57610103818154811061124f5761124f61485e565b9060005260206000200160009054906101000a900473ffffffffffffffffffffffffffffffffffffffff1684828151811061128c5761128c61485e565b73ffffffffffffffffffffffffffffffffffffffff92831660209182029290920181019190915261010b549091166000908152610108909152604081206101038054919291849081106112e1576112e161485e565b600091825260208083209091015473ffffffffffffffffffffffffffffffffffffffff16835282019290925260400190205483518490839081106113275761132761485e565b60209081029190910181019190915261010b5473ffffffffffffffffffffffffffffffffffffffff166000908152610109909152604081206101038054919291849081106113775761137761485e565b600091825260208083209091015473ffffffffffffffffffffffffffffffffffffffff16835282019290925260400190205482518390839081106113bd576113bd61485e565b6020908102919091010152806113d2816148bc565b915050611230565b5060fb546113fd9073ffffffffffffffffffffffffffffffffffffffff16612ed4565b61010354845185919081106114145761141461485e565b73ffffffffffffffffffffffffffffffffffffffff909216602092830291909101909101526101175461010354835184919081106114545761145461485e565b602090810291909101015261011854610103548251839190811061147a5761147a61485e565b60209081029190910101529196909550909350915050565b60ff81815481106114a257600080fd5b600091825260209091200154905081565b60655473ffffffffffffffffffffffffffffffffffffffff163314611534576040517f08c379a000000000000000000000000000000000000000000000000000000000815260206004820181905260248201527f4f776e61626c653a2063616c6c6572206973206e6f7420746865206f776e65726044820152606401610bb5565b61153c612ee1565b565b600061155961010d546115544261010e54612ec1565b612ec1565b905090565b60655473ffffffffffffffffffffffffffffffffffffffff1633146115df576040517f08c379a000000000000000000000000000000000000000000000000000000000815260206004820181905260248201527f4f776e61626c653a2063616c6c6572206973206e6f7420746865206f776e65726044820152606401610bb5565b6101178190556115ed612fc2565b50565b60655473ffffffffffffffffffffffffffffffffffffffff163314611671576040517f08c379a000000000000000000000000000000000000000000000000000000000815260206004820181905260248201527f4f776e61626c653a2063616c6c6572206973206e6f7420746865206f776e65726044820152606401610bb5565b60fb546116939073ffffffffffffffffffffffffffffffffffffffff16613098565b61010c5461010f546040517f7f562c5000000000000000000000000000000000000000000000000000000000815273ffffffffffffffffffffffffffffffffffffffff93841693637f562c5093611703938f9392909116918e908e908e908e908e908e908e908e906004016149d3565b6020604051808303816000875af1158015611722573d6000803e3d6000fd5b505050506040513d601f19601f820116820180604052508101906117469190614aac565b61011155611752611e02565b505050505050505050565b60655473ffffffffffffffffffffffffffffffffffffffff1633146117de576040517f08c379a000000000000000000000000000000000000000000000000000000000815260206004820181905260248201527f4f776e61626c653a2063616c6c6572206973206e6f7420746865206f776e65726044820152606401610bb5565b73ffffffffffffffffffffffffffffffffffffffff8083166000908152610109602090815260408083209385168352929052205415611879576040517f08c379a000000000000000000000000000000000000000000000000000000000815260206004820152601a60248201527f506179657220616c7265616479207061696420666f72206665650000000000006044820152606401610bb5565b73ffffffffffffffffffffffffffffffffffffffff80831660008181526101066020908152604080832088845282528083208381556001810180547fffffffffffffffffffffffff00000000000000000000000000000000000000009081169091556002909101805490911690558383526101078252808320888452825280832080547fffffffffffffffffffffffffffffffffffffffffffffffffffffffffffffff009081169091559383526101088252808320948616835293815283822082905586825260fe9052918220805490911690555b60ff54811015611a2d578360001b60ff828154811061196f5761196f61485e565b906000526020600020015403611a1d57805b60ff5461199090600190614ac5565b8110156119f05760ff6119a48260016148f4565b815481106119b4576119b461485e565b906000526020600020015460ff82815481106119d2576119d261485e565b600091825260209091200155806119e8816148bc565b915050611981565b5060ff805480611a0257611a02614adc565b60019003818190600052602060002001600090559055611a2d565b611a26816148bc565b905061194e565b50505050565b611a3d60006130a5565b611aa3576040517f08c379a000000000000000000000000000000000000000000000000000000000815260206004820152601a60248201527f4f6e6c7920666f7220756e636f6d706c657465642074726164650000000000006044820152606401610bb5565b60fb54611ac59073ffffffffffffffffffffffffffffffffffffffff16612ed4565b61010b54610116546040517ff242432a00000000000000000000000000000000000000000000000000000000815273ffffffffffffffffffffffffffffffffffffffff928316600482015230602482015260448101919091526064810184905260a06084820152600360a48201527f307830000000000000000000000000000000000000000000000000000000000060c482015291169063f242432a9060e401600060405180830381600087803b158015611b7f57600080fd5b505af1158015611b93573d6000803e3d6000fd5b50505050611ba0816130d8565b6115ed612fc2565b60655473ffffffffffffffffffffffffffffffffffffffff163314611c29576040517f08c379a000000000000000000000000000000000000000000000000000000000815260206004820181905260248201527f4f776e61626c653a2063616c6c6572206973206e6f7420746865206f776e65726044820152606401610bb5565b611c3360046130a5565b80611c415750611c41611117565b611ca7576040517f08c379a000000000000000000000000000000000000000000000000000000000815260206004820152601660248201527f4f6e6c7920666f722065787069726564207472616465000000000000000000006044820152606401610bb5565b61153c6130ed565b60655473ffffffffffffffffffffffffffffffffffffffff163314611d30576040517f08c379a000000000000000000000000000000000000000000000000000000000815260206004820181905260248201527f4f776e61626c653a2063616c6c6572206973206e6f7420746865206f776e65726044820152606401610bb5565b61153c6000613298565b6101125460009060ff1660048111156115595761155961473b565b610103546000906001825b82811015611dfa57611ddb856101038381548110611d8057611d8061485e565b600091825260208083209091015473ffffffffffffffffffffffffffffffffffffffff938416808452610109835260408085209590921680855294835281842054908452610108835281842094845293909152902054111590565b611de85760009150611dfa565b80611df2816148bc565b915050611d60565b509392505050565b60655473ffffffffffffffffffffffffffffffffffffffff163314611e83576040517f08c379a000000000000000000000000000000000000000000000000000000000815260206004820181905260248201527f4f776e61626c653a2063616c6c6572206973206e6f7420746865206f776e65726044820152606401610bb5565b611e8d60016130a5565b611ef3576040517f08c379a000000000000000000000000000000000000000000000000000000000815260206004820152601560248201527f4e6f7420636f6d706c65746564207061796d656e7400000000000000000000006044820152606401610bb5565b61010f5461011354901580159173ffffffffffffffffffffffffffffffffffffffff1690611ffd5761010b546101105461010f546101145473ffffffffffffffffffffffffffffffffffffffff8086169463a9059cbb949116929091611f5991906148f4565b611f639190614ac5565b6040517fffffffff0000000000000000000000000000000000000000000000000000000060e085901b16815273ffffffffffffffffffffffffffffffffffffffff909216600483015260248201526044016020604051808303816000875af1158015611fd3573d6000803e3d6000fd5b505050506040513d601f19601f82011682018060405250810190611ff79190614b0b565b506120a2565b61010b54610114546040517fa9059cbb00000000000000000000000000000000000000000000000000000000815273ffffffffffffffffffffffffffffffffffffffff928316600482015260248101919091529082169063a9059cbb906044016020604051808303816000875af115801561207c573d6000803e3d6000fd5b505050506040513d601f19601f820116820180604052508101906120a09190614b0b565b505b6101145461011554111561217d5761010c54610114546101155473ffffffffffffffffffffffffffffffffffffffff8085169363a9059cbb939116916120e791612ec1565b6040517fffffffff0000000000000000000000000000000000000000000000000000000060e085901b16815273ffffffffffffffffffffffffffffffffffffffff909216600483015260248201526044016020604051808303816000875af1158015612157573d6000803e3d6000fd5b505050506040513d601f19601f8201168201806040525081019061217b9190614b0b565b505b60fb546000906121a29073ffffffffffffffffffffffffffffffffffffffff16612ed4565b90508261227f5761010c5461011654610117546040517ff242432a00000000000000000000000000000000000000000000000000000000815230600482015273ffffffffffffffffffffffffffffffffffffffff93841660248201526044810192909252606482015260a06084820152600360a48201527f307830000000000000000000000000000000000000000000000000000000000060c48201529082169063f242432a9060e401600060405180830381600087803b15801561226657600080fd5b505af115801561227a573d6000803e3d6000fd5b505050505b610117546101185411156123925761010b5461011654610117546101185473ffffffffffffffffffffffffffffffffffffffff8086169463f242432a94309491909216926122cc91612ec1565b6040517fffffffff0000000000000000000000000000000000000000000000000000000060e087901b16815273ffffffffffffffffffffffffffffffffffffffff94851660048201529390921660248401526044830152606482015260a06084820152600360a48201527f307830000000000000000000000000000000000000000000000000000000000060c482015260e401600060405180830381600087803b15801561237957600080fd5b505af115801561238d573d6000803e3d6000fd5b505050505b61239a61330f565b505061011280547fffffffffffffffffffffffffffffffffffffffffffffffffffffffffffffff0016600217905550565b60655473ffffffffffffffffffffffffffffffffffffffff16331461244c576040517f08c379a000000000000000000000000000000000000000000000000000000000815260206004820181905260248201527f4f776e61626c653a2063616c6c6572206973206e6f7420746865206f776e65726044820152606401610bb5565b61153c613339565b61153c612fc2565b610103818154811061105957600080fd5b60655473ffffffffffffffffffffffffffffffffffffffff1633146124ee576040517f08c379a000000000000000000000000000000000000000000000000000000000815260206004820181905260248201527f4f776e61626c653a2063616c6c6572206973206e6f7420746865206f776e65726044820152606401610bb5565b61011380547fffffffffffffffffffffffff00000000000000000000000000000000000000001673ffffffffffffffffffffffffffffffffffffffff92909216919091179055565b60655473ffffffffffffffffffffffffffffffffffffffff1633146125b7576040517f08c379a000000000000000000000000000000000000000000000000000000000815260206004820181905260248201527f4f776e61626c653a2063616c6c6572206973206e6f7420746865206f776e65726044820152606401610bb5565b60026101125460ff1660048111156125d1576125d161473b565b141580156125f7575060036101125460ff1660048111156125f4576125f461473b565b14155b801561261b575060046101125460ff1660048111156126185761261861473b565b14155b612681576040517f08c379a000000000000000000000000000000000000000000000000000000000815260206004820152601a60248201527f4f6e6c7920666f7220756e636f6d706c657465642074726164650000000000006044820152606401610bb5565b6126896130ed565b6101128054600391907fffffffffffffffffffffffffffffffffffffffffffffffffffffffffffffff00166001835b0217905550565b61010181815481106114a257600080fd5b60655473ffffffffffffffffffffffffffffffffffffffff163314612751576040517f08c379a000000000000000000000000000000000000000000000000000000000815260206004820181905260248201527f4f776e61626c653a2063616c6c6572206973206e6f7420746865206f776e65726044820152606401610bb5565b61011655565b60655473ffffffffffffffffffffffffffffffffffffffff1633146127d8576040517f08c379a000000000000000000000000000000000000000000000000000000000815260206004820181905260248201527f4f776e61626c653a2063616c6c6572206973206e6f7420746865206f776e65726044820152606401610bb5565b61010d55565b60655473ffffffffffffffffffffffffffffffffffffffff16331461285f576040517f08c379a000000000000000000000000000000000000000000000000000000000815260206004820181905260248201527f4f776e61626c653a2063616c6c6572206973206e6f7420746865206f776e65726044820152606401610bb5565b6101148190556115ed612fc2565b60655473ffffffffffffffffffffffffffffffffffffffff1633146128ee576040517f08c379a000000000000000000000000000000000000000000000000000000000815260206004820181905260248201527f4f776e61626c653a2063616c6c6572206973206e6f7420746865206f776e65726044820152606401610bb5565b6128f6611117565b1561153c576101128054600491907fffffffffffffffffffffffffffffffffffffffffffffffffffffffffffffff00166001836126b8565b610105818154811061105957600080fd5b60655473ffffffffffffffffffffffffffffffffffffffff1633146129c0576040517f08c379a000000000000000000000000000000000000000000000000000000000815260206004820181905260248201527f4f776e61626c653a2063616c6c6572206973206e6f7420746865206f776e65726044820152606401610bb5565b73ffffffffffffffffffffffffffffffffffffffff8116612a63576040517f08c379a000000000000000000000000000000000000000000000000000000000815260206004820152602660248201527f4f776e61626c653a206e6577206f776e657220697320746865207a65726f206160448201527f64647265737300000000000000000000000000000000000000000000000000006064820152608401610bb5565b6115ed81613298565b612a7660006130a5565b612adc576040517f08c379a000000000000000000000000000000000000000000000000000000000815260206004820152601a60248201527f4f6e6c7920666f7220756e636f6d706c657465642074726164650000000000006044820152606401610bb5565b6101135461010c546040517f23b872dd00000000000000000000000000000000000000000000000000000000815273ffffffffffffffffffffffffffffffffffffffff9182166004820152306024820152604481018490529116906323b872dd906064016020604051808303816000875af1158015612b5f573d6000803e3d6000fd5b505050506040513d601f19601f82011682018060405250810190612b839190614b0b565b15611ba057611ba0816133f9565b600060026101125460ff166004811115612bad57612bad61473b565b14905090565b612bbd60006130a5565b612c23576040517f08c379a000000000000000000000000000000000000000000000000000000000815260206004820152601a60248201527f4f6e6c7920666f7220756e636f6d706c657465642074726164650000000000006044820152606401610bb5565b612c2e83838361340e565b612c36612fc2565b505050565b600054610100900460ff16612cd2576040517f08c379a000000000000000000000000000000000000000000000000000000000815260206004820152602b60248201527f496e697469616c697a61626c653a20636f6e7472616374206973206e6f74206960448201527f6e697469616c697a696e670000000000000000000000000000000000000000006064820152608401610bb5565b603380547fffffffffffffffffffffffffffffffffffffffffffffffffffffffffffffff00169055565b600054610100900460ff16612d93576040517f08c379a000000000000000000000000000000000000000000000000000000000815260206004820152602b60248201527f496e697469616c697a61626c653a20636f6e7472616374206973206e6f74206960448201527f6e697469616c697a696e670000000000000000000000000000000000000000006064820152608401610bb5565b61153c33613298565b6040805160608101825285815273ffffffffffffffffffffffffffffffffffffffff80861660208084019182528683168486019081528a8416600081815261010684528781208e82528452878120875181559451600180870180549289167fffffffffffffffffffffffff00000000000000000000000000000000000000009384161790559351600290960180549690971695169490941790945592825261010781528482208b835290529290922080547fffffffffffffffffffffffffffffffffffffffffffffffffffffffffffffff0016909217909155612e7e866134cd565b612e87846135a4565b612e9286868661367e565b8115612eaf57612ea1876136fe565b612eaa84613782565b612eb8565b612eb88761385c565b50505050505050565b6000612ecd8284614ac5565b9392505050565b6000610b088260136138dd565b60335460ff16612f4d576040517f08c379a000000000000000000000000000000000000000000000000000000000815260206004820152601460248201527f5061757361626c653a206e6f74207061757365640000000000000000000000006044820152606401610bb5565b603380547fffffffffffffffffffffffffffffffffffffffffffffffffffffffffffffff001690557f5db9ee0a495bf2e6ff9c91a7834c1ba4fdd244a5e8aa4e537bd38aeae4b073aa335b60405173ffffffffffffffffffffffffffffffffffffffff909116815260200160405180910390a1565b610114546101155410801590612fde5750610117546101185410155b8015613008575061010b546130089073ffffffffffffffffffffffffffffffffffffffff16611d55565b8015613032575061010c546130329073ffffffffffffffffffffffffffffffffffffffff16611d55565b156130655761011280547fffffffffffffffffffffffffffffffffffffffffffffffffffffffffffffff00166001179055565b6101128054600091907fffffffffffffffffffffffffffffffffffffffffffffffffffffffffffffff00166001836126b8565b6000610b088260186138dd565b60008160048111156130b9576130b961473b565b6101125460ff1660048111156130d1576130d161473b565b1492915050565b610118546130e69082613987565b6101185550565b6101135461010c54610115546040517fa9059cbb00000000000000000000000000000000000000000000000000000000815273ffffffffffffffffffffffffffffffffffffffff9283166004820152602481019190915291169063a9059cbb906044016020604051808303816000875af115801561316f573d6000803e3d6000fd5b505050506040513d601f19601f820116820180604052508101906131939190614b0b565b5060fb546000906131b99073ffffffffffffffffffffffffffffffffffffffff16612ed4565b61010b5461011654610118546040517ff242432a00000000000000000000000000000000000000000000000000000000815230600482015273ffffffffffffffffffffffffffffffffffffffff93841660248201526044810192909252606482015260a06084820152600360a48201527f307830000000000000000000000000000000000000000000000000000000000060c482015291925082169063f242432a9060e401600060405180830381600087803b15801561327857600080fd5b505af115801561328c573d6000803e3d6000fd5b505050506115ed61330f565b6065805473ffffffffffffffffffffffffffffffffffffffff8381167fffffffffffffffffffffffff0000000000000000000000000000000000000000831681179093556040519116919082907f8be0079c531659141344cd1fd0a4f28419497f9722a3daafe3b4186f6b6457e090600090a35050565b60fb5474010000000000000000000000000000000000000000900460ff1661153c5761153c613993565b60335460ff16156133a6576040517f08c379a000000000000000000000000000000000000000000000000000000000815260206004820152601060248201527f5061757361626c653a20706175736564000000000000000000000000000000006044820152606401610bb5565b603380547fffffffffffffffffffffffffffffffffffffffffffffffffffffffffffffff001660011790557f62e78cea01bee320cd4e420270b5ea74000d11b0c9f74754ebdbfc544b05a258612f983390565b610115546134079082613987565b6101155550565b73ffffffffffffffffffffffffffffffffffffffff81166134b1576040517f08c379a000000000000000000000000000000000000000000000000000000000815260206004820152603a60248201527f4d756c7469706c654665657354726164696e673a20496e76616c696420746f6b60448201527f656e2061646472657373202d204e554c4c20616464726573732e0000000000006064820152608401610bb5565b6134bd81843085613e9f565b15612c3657612c36838383613f4d565b73ffffffffffffffffffffffffffffffffffffffff8116600090815260fc602052604090205460ff166115ed5760fd805460018181019092557f9346ac6dd7de6b96975fec380d4d994c4c12e6a8897544f22915316cc6cca28001805473ffffffffffffffffffffffffffffffffffffffff84167fffffffffffffffffffffffff00000000000000000000000000000000000000009091168117909155600090815260fc6020526040902080547fffffffffffffffffffffffffffffffffffffffffffffffffffffffffffffff0016909117905550565b73ffffffffffffffffffffffffffffffffffffffff81166000908152610102602052604090205460ff166115ed57610103805460018181019092557f02c297ab74aad0aede3a1895c857b1f2c71e6a203feb727bec95ac752998cb7801805473ffffffffffffffffffffffffffffffffffffffff84167fffffffffffffffffffffffff0000000000000000000000000000000000000000909116811790915560009081526101026020526040902080547fffffffffffffffffffffffffffffffffffffffffffffffffffffffffffffff0016909117905550565b73ffffffffffffffffffffffffffffffffffffffff8084166000908152610108602090815260408083209385168352929052908120546136be9084613987565b73ffffffffffffffffffffffffffffffffffffffff9485166000908152610108602090815260408083209590971682529390935293909120929092555050565b6000818152610100602052604090205460ff166115ed57610101805460018181019092557f109ea3cebb188b9c1b9fc5bb3920be60dfdc8699098dff92f3d80daaca7476890182905560008281526101006020526040902080547fffffffffffffffffffffffffffffffffffffffffffffffffffffffffffffff0016909117905550565b73ffffffffffffffffffffffffffffffffffffffff81166000908152610104602052604090205460ff166115ed57610105805460018181019092557ffc62abc8c0fc47c2d92f5aec99bf8b60f375828e14394d89345cae11a986737101805473ffffffffffffffffffffffffffffffffffffffff84167fffffffffffffffffffffffff0000000000000000000000000000000000000000909116811790915560009081526101046020526040902080547fffffffffffffffffffffffffffffffffffffffffffffffffffffffffffffff0016909117905550565b600081815260fe602052604090205460ff166115ed5760ff805460018181019092557fe08ec2af2cfc251225e1968fd6ca21e4044f129bffa95bac3503be8bdb30a36701829055600082815260fe6020526040902080547fffffffffffffffffffffffffffffffffffffffffffffffffffffffffffffff0016909117905550565b60008273ffffffffffffffffffffffffffffffffffffffff1663bcaa0c5583601e81111561390d5761390d61473b565b6040517fffffffff0000000000000000000000000000000000000000000000000000000060e084901b16815260ff9091166004820152602401602060405180830381865afa158015613963573d6000803e3d6000fd5b505050506040513d601f19601f82011682018060405250810190612ecd9190614b2d565b6000612ecd82846148f4565b60ff5460fd5460005b82811015612c365760005b82811015613e8c57610107600060fd83815481106139c7576139c761485e565b600091825260208083209091015473ffffffffffffffffffffffffffffffffffffffff168352820192909252604001812060ff805491929185908110613a0f57613a0f61485e565b6000918252602080832090910154835282019290925260400190205460ff1615613e7a576000610106600060fd8481548110613a4d57613a4d61485e565b600091825260208083209091015473ffffffffffffffffffffffffffffffffffffffff168352820192909252604001812060ff805491929186908110613a9557613a9561485e565b600091825260208083209091015483528281019390935260409182018120825160608101845281548152600182015473ffffffffffffffffffffffffffffffffffffffff908116958201959095526002909101549093169183019190915260fd805492935061010a9285908110613b0e57613b0e61485e565b9060005260206000200160009054906101000a900473ffffffffffffffffffffffffffffffffffffffff1673ffffffffffffffffffffffffffffffffffffffff1673ffffffffffffffffffffffffffffffffffffffff1681526020019081526020016000206000826020015173ffffffffffffffffffffffffffffffffffffffff1673ffffffffffffffffffffffffffffffffffffffff16815260200190815260200160002054610109600060fd8581548110613bcd57613bcd61485e565b600091825260208083209091015473ffffffffffffffffffffffffffffffffffffffff90811684528382019490945260409283018220868201519094168252929092529020541115613e78576000613d4161010a600060fd8681548110613c3657613c3661485e565b9060005260206000200160009054906101000a900473ffffffffffffffffffffffffffffffffffffffff1673ffffffffffffffffffffffffffffffffffffffff1673ffffffffffffffffffffffffffffffffffffffff1681526020019081526020016000206000846020015173ffffffffffffffffffffffffffffffffffffffff1673ffffffffffffffffffffffffffffffffffffffff16815260200190815260200160002054610109600060fd8781548110613cf557613cf561485e565b600091825260208083209091015473ffffffffffffffffffffffffffffffffffffffff908116845283820194909452604092830182208882015190941682529290925290205490612ec1565b8251909150811115613e2557613d9a60fd8481548110613d6357613d6361485e565b60009182526020918290200154845191850151604086015173ffffffffffffffffffffffffffffffffffffffff9092169291613fcd565b613e2060fd8481548110613db057613db061485e565b600091825260209091200154835173ffffffffffffffffffffffffffffffffffffffff90911690613de19084614ac5565b846020015160fd8781548110613df957613df961485e565b60009182526020909120015473ffffffffffffffffffffffffffffffffffffffff16613fcd565b613e76565b613e7660fd8481548110613e3b57613e3b61485e565b9060005260206000200160009054906101000a900473ffffffffffffffffffffffffffffffffffffffff168284602001518560400151613fcd565b505b505b80613e84816148bc565b9150506139a7565b5080613e97816148bc565b91505061399c565b6040517f23b872dd00000000000000000000000000000000000000000000000000000000815273ffffffffffffffffffffffffffffffffffffffff8481166004830152838116602483015260448201839052600091908616906323b872dd906064016020604051808303816000875af1158015613f20573d6000803e3d6000fd5b505050506040513d601f19601f82011682018060405250810190613f449190614b0b565b95945050505050565b73ffffffffffffffffffffffffffffffffffffffff808416600090815261010960209081526040808320938516835292905290812054613f8d9084613987565b73ffffffffffffffffffffffffffffffffffffffff9485166000908152610109602090815260408083209590971682529390935293909120929092555050565b6040517fa9059cbb00000000000000000000000000000000000000000000000000000000815273ffffffffffffffffffffffffffffffffffffffff82811660048301526024820185905283169063a9059cbb906044016020604051808303816000875af1158015614042573d6000803e3d6000fd5b505050506040513d601f19601f820116820180604052508101906140669190614b0b565b50611a2d84848473ffffffffffffffffffffffffffffffffffffffff808416600090815261010a602090815260408083209385168352929052908120546140ad9084613987565b73ffffffffffffffffffffffffffffffffffffffff948516600090815261010a602090815260408083209590971682529390935293909120929092555050565b6000602082840312156140ff57600080fd5b81357fffffffff0000000000000000000000000000000000000000000000000000000081168114612ecd57600080fd5b7f4e487b7100000000000000000000000000000000000000000000000000000000600052604160045260246000fd5b6040516080810167ffffffffffffffff811182821017156141a8577f4e487b7100000000000000000000000000000000000000000000000000000000600052604160045260246000fd5b60405290565b73ffffffffffffffffffffffffffffffffffffffff811681146115ed57600080fd5b600082601f8301126141e157600080fd5b6040516040810181811067ffffffffffffffff8211171561422b577f4e487b7100000000000000000000000000000000000000000000000000000000600052604160045260246000fd5b806040525080604084018581111561424257600080fd5b845b8181101561425c578035835260209283019201614244565b509195945050505050565b6000806000806000610160868803121561428057600080fd5b86601f87011261428f57600080fd5b61429761415e565b8060808801898111156142a957600080fd5b885b818110156142cc5780356142be816141ae565b8452602093840193016142ab565b508197506142da8a826141d0565b96505050506142ec8760c088016141d0565b925061010086013591506143048761012088016141d0565b90509295509295909350565b60006020828403121561432257600080fd5b8135612ecd816141ae565b600081518084526020808501945080840160005b8381101561435d57815187529582019590820190600101614341565b509495945050505050565b606080825284519082018190526000906020906080840190828801845b828110156143b757815173ffffffffffffffffffffffffffffffffffffffff1684529284019290840190600101614385565b505050838103828501526143cb818761432d565b91505082810360408401526143e0818561432d565b9695505050505050565b6000602082840312156143fc57600080fd5b5035919050565b6000806040838503121561441657600080fd5b8235614421816141ae565b91506020830135614431816141ae565b809150509250929050565b600080600080600060a0868803121561445457600080fd5b853594506020860135614466816141ae565b935060408601359250606086013561447d816141ae565b9150608086013561448d816141ae565b809150509295509295909350565b8060208101831015610b0857600080fd5b8060a08101831015610b0857600080fd5b60008060008060008060008060006104808a8c0312156144dc57600080fd5b89356144e7816141ae565b985060e08a018b8111156144fa57600080fd5b60208b0198506101c08b018c81111561451257600080fd5b81985061451f8d8261449b565b975050506145318b6101e08c0161449b565b94506145418b6102008c016144ac565b93506145518b6102a08c016144ac565b92506145618b6103408c016144ac565b91506145718b6103e08c016144ac565b90509295985092959850929598565b60008060006060848603121561459557600080fd5b8335925060208401356145a7816141ae565b915060408401356145b7816141ae565b809150509250925092565b600080604083850312156145d557600080fd5b82356145e0816141ae565b946020939093013593505050565b60008083601f84011261460057600080fd5b50813567ffffffffffffffff81111561461857600080fd5b6020830191508360208260051b850101111561463357600080fd5b9250929050565b60008083601f84011261464c57600080fd5b50813567ffffffffffffffff81111561466457600080fd5b60208301915083602082850101111561463357600080fd5b60008060008060008060008060a0898b03121561469857600080fd5b88356146a3816141ae565b975060208901356146b3816141ae565b9650604089013567ffffffffffffffff808211156146d057600080fd5b6146dc8c838d016145ee565b909850965060608b01359150808211156146f557600080fd5b6147018c838d016145ee565b909650945060808b013591508082111561471a57600080fd5b506147278b828c0161463a565b999c989b5096995094979396929594505050565b7f4e487b7100000000000000000000000000000000000000000000000000000000600052602160045260246000fd5b60208101600583106147a5577f4e487b7100000000000000000000000000000000000000000000000000000000600052602160045260246000fd5b91905290565b60008060008060008060a087890312156147c457600080fd5b86356147cf816141ae565b955060208701356147df816141ae565b94506040870135935060608701359250608087013567ffffffffffffffff81111561480957600080fd5b61481589828a0161463a565b979a9699509497509295939492505050565b60008060006060848603121561483c57600080fd5b8335614847816141ae565b92506020840135915060408401356145b7816141ae565b7f4e487b7100000000000000000000000000000000000000000000000000000000600052603260045260246000fd5b7f4e487b7100000000000000000000000000000000000000000000000000000000600052601160045260246000fd5b60007fffffffffffffffffffffffffffffffffffffffffffffffffffffffffffffffff82036148ed576148ed61488d565b5060010190565b600082198211156149075761490761488d565b500190565b60e081833750600060e082015250565b6020818337506000602082015250565b806000805b60018110156111105782357fffffffffffffffffffffffffffffffff00000000000000000000000000000000811680821461496a578384fd5b8652506020948501949290920191600101614931565b8060005b6005811015611a2d578135614998816141ae565b73ffffffffffffffffffffffffffffffffffffffff1684526020938401939190910190600101614984565b60a081833750600060a082015250565b60006104c08201905073ffffffffffffffffffffffffffffffffffffffff808e1683526020818e16818501528c6040850152606084018c60005b6006811015614a35578135614a21816141ae565b851683529183019190830190600101614a0d565b5050505050614a4861012083018a61490c565b614a5661020083018961491c565b614a6461022083018861492c565b614a72610240830187614980565b614a806102e0830186614980565b614a8e6103808301856149c3565b614a9c6104208301846149c3565b9c9b505050505050505050505050565b600060208284031215614abe57600080fd5b5051919050565b600082821015614ad757614ad761488d565b500390565b7f4e487b7100000000000000000000000000000000000000000000000000000000600052603160045260246000fd5b600060208284031215614b1d57600080fd5b81518015158114612ecd57600080fd5b600060208284031215614b3f57600080fd5b8151612ecd816141ae56fea26469706673582212201fb3fa14ce8ef8d1c21ddb5c3ba9e4b57483d79fd2de77bb21c2d3c4ec4c1cea64736f6c634300080d0033a26469706673582212206d01b457eb26f8b07ef870ffba88ce6b4b1a33ad6cee59975f8800242c36c6f564736f6c634300080d0033",
  "devdoc": {
    "kind": "dev",
    "methods": {
      "owner()": {
        "details": "Returns the address of the current owner."
      },
      "paused()": {
        "details": "Returns true if the contract is paused, and false otherwise."
      },
      "renounceOwnership()": {
        "details": "Leaves the contract without owner. It will not be possible to call `onlyOwner` functions anymore. Can only be called by the current owner. NOTE: Renouncing ownership will leave the contract without an owner, thereby removing any functionality that is only available to the owner."
      },
      "transferOwnership(address)": {
        "details": "Transfers ownership of the contract to a new account (`newOwner`). Can only be called by the current owner."
      }
    },
    "version": 1
  },
  "userdoc": {
    "kind": "user",
    "methods": {},
    "notice": "The Factory to create new E-Receipt Inventory Trade smart contract instance, Notice: This smart contract must be \"isTokenHolderManager\" of FBT token smart contracts, hence it can add new Holder for those tokens",
    "version": 1
  },
  "storageLayout": {
    "storage": [
      {
        "astId": 708,
        "contract": "contracts/trade/EReceiptInventoryTradeFactory.sol:EReceiptInventoryTradeFactory",
        "label": "_initialized",
        "offset": 0,
        "slot": "0",
        "type": "t_bool"
      },
      {
        "astId": 711,
        "contract": "contracts/trade/EReceiptInventoryTradeFactory.sol:EReceiptInventoryTradeFactory",
        "label": "_initializing",
        "offset": 1,
        "slot": "0",
        "type": "t_bool"
      },
      {
        "astId": 4917,
        "contract": "contracts/trade/EReceiptInventoryTradeFactory.sol:EReceiptInventoryTradeFactory",
        "label": "__gap",
        "offset": 0,
        "slot": "1",
        "type": "t_array(t_uint256)50_storage"
      },
      {
        "astId": 796,
        "contract": "contracts/trade/EReceiptInventoryTradeFactory.sol:EReceiptInventoryTradeFactory",
        "label": "_paused",
        "offset": 0,
        "slot": "51",
        "type": "t_bool"
      },
      {
        "astId": 885,
        "contract": "contracts/trade/EReceiptInventoryTradeFactory.sol:EReceiptInventoryTradeFactory",
        "label": "__gap",
        "offset": 0,
        "slot": "52",
        "type": "t_array(t_uint256)49_storage"
      },
      {
        "astId": 582,
        "contract": "contracts/trade/EReceiptInventoryTradeFactory.sol:EReceiptInventoryTradeFactory",
        "label": "_owner",
        "offset": 0,
        "slot": "101",
        "type": "t_address"
      },
      {
        "astId": 694,
        "contract": "contracts/trade/EReceiptInventoryTradeFactory.sol:EReceiptInventoryTradeFactory",
        "label": "__gap",
        "offset": 0,
        "slot": "102",
        "type": "t_array(t_uint256)49_storage"
      },
      {
        "astId": 41850,
        "contract": "contracts/trade/EReceiptInventoryTradeFactory.sol:EReceiptInventoryTradeFactory",
        "label": "registry",
        "offset": 0,
        "slot": "151",
        "type": "t_address"
      },
      {
        "astId": 41854,
        "contract": "contracts/trade/EReceiptInventoryTradeFactory.sol:EReceiptInventoryTradeFactory",
        "label": "tradeContracts",
        "offset": 0,
        "slot": "152",
        "type": "t_mapping(t_string_memory_ptr,t_address)"
      },
      {
        "astId": 41858,
        "contract": "contracts/trade/EReceiptInventoryTradeFactory.sol:EReceiptInventoryTradeFactory",
        "label": "existedTrade",
        "offset": 0,
        "slot": "153",
        "type": "t_mapping(t_address,t_bool)"
      },
      {
        "astId": 41862,
        "contract": "contracts/trade/EReceiptInventoryTradeFactory.sol:EReceiptInventoryTradeFactory",
        "label": "isExistingReferenceId",
        "offset": 0,
        "slot": "154",
        "type": "t_mapping(t_bytes32,t_bool)"
      }
    ],
    "types": {
      "t_address": {
        "encoding": "inplace",
        "label": "address",
        "numberOfBytes": "20"
      },
      "t_array(t_uint256)49_storage": {
        "base": "t_uint256",
        "encoding": "inplace",
        "label": "uint256[49]",
        "numberOfBytes": "1568"
      },
      "t_array(t_uint256)50_storage": {
        "base": "t_uint256",
        "encoding": "inplace",
        "label": "uint256[50]",
        "numberOfBytes": "1600"
      },
      "t_bool": {
        "encoding": "inplace",
        "label": "bool",
        "numberOfBytes": "1"
      },
      "t_bytes32": {
        "encoding": "inplace",
        "label": "bytes32",
        "numberOfBytes": "32"
      },
      "t_mapping(t_address,t_bool)": {
        "encoding": "mapping",
        "key": "t_address",
        "label": "mapping(address => bool)",
        "numberOfBytes": "32",
        "value": "t_bool"
      },
      "t_mapping(t_bytes32,t_bool)": {
        "encoding": "mapping",
        "key": "t_bytes32",
        "label": "mapping(bytes32 => bool)",
        "numberOfBytes": "32",
        "value": "t_bool"
      },
      "t_mapping(t_string_memory_ptr,t_address)": {
        "encoding": "mapping",
        "key": "t_string_memory_ptr",
        "label": "mapping(string => address)",
        "numberOfBytes": "32",
        "value": "t_address"
      },
      "t_string_memory_ptr": {
        "encoding": "bytes",
        "label": "string",
        "numberOfBytes": "32"
      },
      "t_uint256": {
        "encoding": "inplace",
        "label": "uint256",
        "numberOfBytes": "32"
      }
    }
  }
}