{
  "address": "0x337f584Afb60bAF24a7ce78B098d99D52aB643BF",
  "abi": [
    {
      "anonymous": false,
      "inputs": [
        {
          "indexed": true,
          "internalType": "bytes32",
          "name": "agreementId",
          "type": "bytes32"
        },
        {
          "indexed": false,
          "internalType": "uint256",
          "name": "previousCR",
          "type": "uint256"
        },
        {
          "indexed": false,
          "internalType": "uint256",
          "name": "latestCR",
          "type": "uint256"
        }
      ],
      "name": "CollateralRatioChanged",
      "type": "event"
    },
    {
      "anonymous": false,
      "inputs": [
        {
          "indexed": true,
          "internalType": "bytes32",
          "name": "agreementId",
          "type": "bytes32"
        },
        {
          "indexed": true,
          "internalType": "address",
          "name": "beneficiary",
          "type": "address"
        },
        {
          "indexed": false,
          "internalType": "address",
          "name": "termsContract",
          "type": "address"
        },
        {
          "indexed": false,
          "internalType": "bytes32",
          "name": "termsContractParameters",
          "type": "bytes32"
        }
      ],
      "name": "LogInsertEntry",
      "type": "event"
    },
    {
      "anonymous": false,
      "inputs": [
        {
          "indexed": true,
          "internalType": "bytes32",
          "name": "agreementId",
          "type": "bytes32"
        },
        {
          "indexed": true,
          "internalType": "address",
          "name": "previousBeneficiary",
          "type": "address"
        },
        {
          "indexed": true,
          "internalType": "address",
          "name": "newBeneficiary",
          "type": "address"
        }
      ],
      "name": "LogModifyEntryBeneficiary",
      "type": "event"
    },
    {
      "anonymous": false,
      "inputs": [
        {
          "indexed": false,
          "internalType": "address",
          "name": "account",
          "type": "address"
        }
      ],
      "name": "Paused",
      "type": "event"
    },
    {
      "anonymous": false,
      "inputs": [
        {
          "indexed": true,
          "internalType": "bytes32",
          "name": "role",
          "type": "bytes32"
        },
        {
          "indexed": true,
          "internalType": "bytes32",
          "name": "previousAdminRole",
          "type": "bytes32"
        },
        {
          "indexed": true,
          "internalType": "bytes32",
          "name": "newAdminRole",
          "type": "bytes32"
        }
      ],
      "name": "RoleAdminChanged",
      "type": "event"
    },
    {
      "anonymous": false,
      "inputs": [
        {
          "indexed": true,
          "internalType": "bytes32",
          "name": "role",
          "type": "bytes32"
        },
        {
          "indexed": true,
          "internalType": "address",
          "name": "account",
          "type": "address"
        },
        {
          "indexed": true,
          "internalType": "address",
          "name": "sender",
          "type": "address"
        }
      ],
      "name": "RoleGranted",
      "type": "event"
    },
    {
      "anonymous": false,
      "inputs": [
        {
          "indexed": true,
          "internalType": "bytes32",
          "name": "role",
          "type": "bytes32"
        },
        {
          "indexed": true,
          "internalType": "address",
          "name": "account",
          "type": "address"
        },
        {
          "indexed": true,
          "internalType": "address",
          "name": "sender",
          "type": "address"
        }
      ],
      "name": "RoleRevoked",
      "type": "event"
    },
    {
      "anonymous": false,
      "inputs": [
        {
          "indexed": false,
          "internalType": "address",
          "name": "account",
          "type": "address"
        }
      ],
      "name": "Unpaused",
      "type": "event"
    },
    {
      "inputs": [],
      "name": "COLLATERAL_PRECISION",
      "outputs": [
        {
          "internalType": "uint256",
          "name": "",
          "type": "uint256"
        }
      ],
      "stateMutability": "view",
      "type": "function"
    },
    {
      "inputs": [],
      "name": "CR_PRECISION",
      "outputs": [
        {
          "internalType": "uint256",
          "name": "",
          "type": "uint256"
        }
      ],
      "stateMutability": "view",
      "type": "function"
    },
    {
      "inputs": [],
      "name": "DEFAULT_ADMIN_ROLE",
      "outputs": [
        {
          "internalType": "bytes32",
          "name": "",
          "type": "bytes32"
        }
      ],
      "stateMutability": "view",
      "type": "function"
    },
    {
      "inputs": [],
      "name": "EDIT_CONTEXT",
      "outputs": [
        {
          "internalType": "string",
          "name": "",
          "type": "string"
        }
      ],
      "stateMutability": "view",
      "type": "function"
    },
    {
      "inputs": [],
      "name": "INSERT_CONTEXT",
      "outputs": [
        {
          "internalType": "string",
          "name": "",
          "type": "string"
        }
      ],
      "stateMutability": "view",
      "type": "function"
    },
    {
      "inputs": [],
      "name": "MAX_PRICE_TTL_IN_SECONDS",
      "outputs": [
        {
          "internalType": "uint256",
          "name": "",
          "type": "uint256"
        }
      ],
      "stateMutability": "view",
      "type": "function"
    },
    {
      "inputs": [],
      "name": "OWNER_ROLE",
      "outputs": [
        {
          "internalType": "bytes32",
          "name": "",
          "type": "bytes32"
        }
      ],
      "stateMutability": "view",
      "type": "function"
    },
    {
      "inputs": [],
      "name": "PRICE_PRECISION",
      "outputs": [
        {
          "internalType": "uint256",
          "name": "",
          "type": "uint256"
        }
      ],
      "stateMutability": "view",
      "type": "function"
    },
    {
      "inputs": [],
      "name": "PRINCIPAL_PRECISION",
      "outputs": [
        {
          "internalType": "uint256",
          "name": "",
          "type": "uint256"
        }
      ],
      "stateMutability": "view",
      "type": "function"
    },
    {
      "inputs": [
        {
          "internalType": "bytes32",
          "name": "agreementId",
          "type": "bytes32"
        }
      ],
      "name": "_getTotalInvoiceAmount",
      "outputs": [
        {
          "internalType": "uint256",
          "name": "amount",
          "type": "uint256"
        }
      ],
      "stateMutability": "view",
      "type": "function"
    },
    {
      "inputs": [
        {
          "internalType": "bytes32",
          "name": "agreementId",
          "type": "bytes32"
        },
        {
          "internalType": "uint256",
          "name": "repaidAmount",
          "type": "uint256"
        }
      ],
      "name": "addRepaidInterestAmount",
      "outputs": [],
      "stateMutability": "nonpayable",
      "type": "function"
    },
    {
      "inputs": [
        {
          "internalType": "bytes32",
          "name": "agreementId",
          "type": "bytes32"
        },
        {
          "internalType": "uint256",
          "name": "repaidAmount",
          "type": "uint256"
        }
      ],
      "name": "addRepaidPrincipalAmount",
      "outputs": [],
      "stateMutability": "nonpayable",
      "type": "function"
    },
    {
      "inputs": [
        {
          "internalType": "bytes32",
          "name": "",
          "type": "bytes32"
        }
      ],
      "name": "completedLoans",
      "outputs": [
        {
          "internalType": "bool",
          "name": "",
          "type": "bool"
        }
      ],
      "stateMutability": "view",
      "type": "function"
    },
    {
      "inputs": [
        {
          "internalType": "bytes32",
          "name": "",
          "type": "bytes32"
        }
      ],
      "name": "completedRepayment",
      "outputs": [
        {
          "internalType": "bool",
          "name": "",
          "type": "bool"
        }
      ],
      "stateMutability": "view",
      "type": "function"
    },
    {
      "inputs": [
        {
          "internalType": "bytes32",
          "name": "agreementId",
          "type": "bytes32"
        }
      ],
      "name": "doesEntryExist",
      "outputs": [
        {
          "internalType": "bool",
          "name": "",
          "type": "bool"
        }
      ],
      "stateMutability": "view",
      "type": "function"
    },
    {
      "inputs": [
        {
          "internalType": "bytes32",
          "name": "",
          "type": "bytes32"
        }
      ],
      "name": "entries",
      "outputs": [
        {
          "internalType": "address",
          "name": "version",
          "type": "address"
        },
        {
          "internalType": "address",
          "name": "beneficiary",
          "type": "address"
        },
        {
          "internalType": "address",
          "name": "debtor",
          "type": "address"
        },
        {
          "internalType": "address",
          "name": "termsContract",
          "type": "address"
        },
        {
          "internalType": "address",
          "name": "principalTokenAddress",
          "type": "address"
        },
        {
          "internalType": "bytes32",
          "name": "termsContractParameters",
          "type": "bytes32"
        },
        {
          "internalType": "bytes16",
          "name": "collateralInfoParameters",
          "type": "bytes16"
        },
        {
          "internalType": "uint256",
          "name": "issuanceBlockTimestamp",
          "type": "uint256"
        },
        {
          "internalType": "uint256",
          "name": "lastRepayTimestamp",
          "type": "uint256"
        },
        {
          "internalType": "uint256",
          "name": "expirationTimestamp",
          "type": "uint256"
        },
        {
          "components": [
            {
              "internalType": "address",
              "name": "priceFeedOperator",
              "type": "address"
            },
            {
              "internalType": "uint256",
              "name": "initCollateralRatio",
              "type": "uint256"
            },
            {
              "internalType": "uint256",
              "name": "lastCollateralRatio",
              "type": "uint256"
            },
            {
              "internalType": "uint256",
              "name": "minCollateralRatio",
              "type": "uint256"
            },
            {
              "internalType": "uint256",
              "name": "liquidationRatio",
              "type": "uint256"
            }
          ],
          "internalType": "struct InventoryLoanRegistry.CollateralRatioValues",
          "name": "collateralRatioValues",
          "type": "tuple"
        }
      ],
      "stateMutability": "view",
      "type": "function"
    },
    {
      "inputs": [
        {
          "internalType": "bytes32",
          "name": "agreementId",
          "type": "bytes32"
        },
        {
          "internalType": "uint256",
          "name": "price",
          "type": "uint256"
        },
        {
          "internalType": "uint256",
          "name": "_timestamp",
          "type": "uint256"
        }
      ],
      "name": "evaluateCollateralRatio",
      "outputs": [
        {
          "internalType": "bool",
          "name": "",
          "type": "bool"
        }
      ],
      "stateMutability": "nonpayable",
      "type": "function"
    },
    {
      "inputs": [
        {
          "internalType": "bytes32",
          "name": "agreementId",
          "type": "bytes32"
        }
      ],
      "name": "get",
      "outputs": [
        {
          "internalType": "address",
          "name": "",
          "type": "address"
        },
        {
          "internalType": "address",
          "name": "",
          "type": "address"
        },
        {
          "internalType": "address",
          "name": "",
          "type": "address"
        },
        {
          "internalType": "bytes32",
          "name": "",
          "type": "bytes32"
        },
        {
          "internalType": "uint256",
          "name": "",
          "type": "uint256"
        }
      ],
      "stateMutability": "view",
      "type": "function"
    },
    {
      "inputs": [
        {
          "internalType": "bytes32",
          "name": "agreementId",
          "type": "bytes32"
        }
      ],
      "name": "getAgreement",
      "outputs": [
        {
          "components": [
            {
              "internalType": "address",
              "name": "version",
              "type": "address"
            },
            {
              "internalType": "address",
              "name": "beneficiary",
              "type": "address"
            },
            {
              "internalType": "address",
              "name": "debtor",
              "type": "address"
            },
            {
              "internalType": "address",
              "name": "termsContract",
              "type": "address"
            },
            {
              "internalType": "address",
              "name": "principalTokenAddress",
              "type": "address"
            },
            {
              "internalType": "bytes32",
              "name": "termsContractParameters",
              "type": "bytes32"
            },
            {
              "internalType": "bytes16",
              "name": "collateralInfoParameters",
              "type": "bytes16"
            },
            {
              "internalType": "uint256",
              "name": "issuanceBlockTimestamp",
              "type": "uint256"
            },
            {
              "internalType": "uint256",
              "name": "lastRepayTimestamp",
              "type": "uint256"
            },
            {
              "internalType": "uint256",
              "name": "expirationTimestamp",
              "type": "uint256"
            },
            {
              "components": [
                {
                  "internalType": "address",
                  "name": "priceFeedOperator",
                  "type": "address"
                },
                {
                  "internalType": "uint256",
                  "name": "initCollateralRatio",
                  "type": "uint256"
                },
                {
                  "internalType": "uint256",
                  "name": "lastCollateralRatio",
                  "type": "uint256"
                },
                {
                  "internalType": "uint256",
                  "name": "minCollateralRatio",
                  "type": "uint256"
                },
                {
                  "internalType": "uint256",
                  "name": "liquidationRatio",
                  "type": "uint256"
                }
              ],
              "internalType": "struct InventoryLoanRegistry.CollateralRatioValues",
              "name": "collateralRatioValues",
              "type": "tuple"
            }
          ],
          "internalType": "struct InventoryLoanRegistry.Entry",
          "name": "",
          "type": "tuple"
        }
      ],
      "stateMutability": "view",
      "type": "function"
    },
    {
      "inputs": [
        {
          "internalType": "bytes32",
          "name": "agreementId",
          "type": "bytes32"
        }
      ],
      "name": "getBeneficiary",
      "outputs": [
        {
          "internalType": "address",
          "name": "",
          "type": "address"
        }
      ],
      "stateMutability": "view",
      "type": "function"
    },
    {
      "inputs": [
        {
          "internalType": "bytes32",
          "name": "agreementId",
          "type": "bytes32"
        }
      ],
      "name": "getCollateralInfoParameters",
      "outputs": [
        {
          "internalType": "uint256",
          "name": "collateralId",
          "type": "uint256"
        },
        {
          "internalType": "uint256",
          "name": "collateralAmount",
          "type": "uint256"
        }
      ],
      "stateMutability": "view",
      "type": "function"
    },
    {
      "inputs": [
        {
          "internalType": "bytes32",
          "name": "agreementId",
          "type": "bytes32"
        }
      ],
      "name": "getCollateralLastPrice",
      "outputs": [
        {
          "internalType": "uint256",
          "name": "",
          "type": "uint256"
        }
      ],
      "stateMutability": "view",
      "type": "function"
    },
    {
      "inputs": [
        {
          "internalType": "bytes32",
          "name": "agreementId",
          "type": "bytes32"
        }
      ],
      "name": "getDebtor",
      "outputs": [
        {
          "internalType": "address",
          "name": "",
          "type": "address"
        }
      ],
      "stateMutability": "view",
      "type": "function"
    },
    {
      "inputs": [
        {
          "internalType": "bytes32",
          "name": "agreementId",
          "type": "bytes32"
        }
      ],
      "name": "getExpirationTimestamp",
      "outputs": [
        {
          "internalType": "uint256",
          "name": "",
          "type": "uint256"
        }
      ],
      "stateMutability": "view",
      "type": "function"
    },
    {
      "inputs": [
        {
          "internalType": "bytes32",
          "name": "agreementId",
          "type": "bytes32"
        }
      ],
      "name": "getInitCollateralRatio",
      "outputs": [
        {
          "internalType": "uint256",
          "name": "",
          "type": "uint256"
        }
      ],
      "stateMutability": "view",
      "type": "function"
    },
    {
      "inputs": [
        {
          "internalType": "bytes32",
          "name": "agreementId",
          "type": "bytes32"
        }
      ],
      "name": "getInvoiceIds",
      "outputs": [
        {
          "internalType": "uint256[]",
          "name": "",
          "type": "uint256[]"
        }
      ],
      "stateMutability": "view",
      "type": "function"
    },
    {
      "inputs": [
        {
          "internalType": "bytes32",
          "name": "agreementId",
          "type": "bytes32"
        }
      ],
      "name": "getIssuanceBlockTimestamp",
      "outputs": [
        {
          "internalType": "uint256",
          "name": "timestamp",
          "type": "uint256"
        }
      ],
      "stateMutability": "view",
      "type": "function"
    },
    {
      "inputs": [
        {
          "internalType": "bytes32",
          "name": "agreementId",
          "type": "bytes32"
        }
      ],
      "name": "getLastRepaymentTimestamp",
      "outputs": [
        {
          "internalType": "uint256",
          "name": "timestamp",
          "type": "uint256"
        }
      ],
      "stateMutability": "view",
      "type": "function"
    },
    {
      "inputs": [
        {
          "internalType": "bytes32",
          "name": "agreementId",
          "type": "bytes32"
        }
      ],
      "name": "getLiquidationRatio",
      "outputs": [
        {
          "internalType": "uint256",
          "name": "",
          "type": "uint256"
        }
      ],
      "stateMutability": "view",
      "type": "function"
    },
    {
      "inputs": [
        {
          "internalType": "bytes32",
          "name": "agreementId",
          "type": "bytes32"
        }
      ],
      "name": "getManualInterestAmountLoan",
      "outputs": [
        {
          "internalType": "uint256",
          "name": "",
          "type": "uint256"
        }
      ],
      "stateMutability": "view",
      "type": "function"
    },
    {
      "inputs": [
        {
          "internalType": "bytes32",
          "name": "agreementId",
          "type": "bytes32"
        }
      ],
      "name": "getMinCollateralRatio",
      "outputs": [
        {
          "internalType": "uint256",
          "name": "",
          "type": "uint256"
        }
      ],
      "stateMutability": "view",
      "type": "function"
    },
    {
      "inputs": [
        {
          "internalType": "bytes32",
          "name": "agreementId",
          "type": "bytes32"
        }
      ],
      "name": "getRepaidInterestAmount",
      "outputs": [
        {
          "internalType": "uint256",
          "name": "",
          "type": "uint256"
        }
      ],
      "stateMutability": "view",
      "type": "function"
    },
    {
      "inputs": [
        {
          "internalType": "bytes32",
          "name": "agreementId",
          "type": "bytes32"
        }
      ],
      "name": "getRepaidPrincipalAmount",
      "outputs": [
        {
          "internalType": "uint256",
          "name": "",
          "type": "uint256"
        }
      ],
      "stateMutability": "view",
      "type": "function"
    },
    {
      "inputs": [
        {
          "internalType": "bytes32",
          "name": "role",
          "type": "bytes32"
        }
      ],
      "name": "getRoleAdmin",
      "outputs": [
        {
          "internalType": "bytes32",
          "name": "",
          "type": "bytes32"
        }
      ],
      "stateMutability": "view",
      "type": "function"
    },
    {
      "inputs": [
        {
          "internalType": "bytes32",
          "name": "role",
          "type": "bytes32"
        },
        {
          "internalType": "uint256",
          "name": "index",
          "type": "uint256"
        }
      ],
      "name": "getRoleMember",
      "outputs": [
        {
          "internalType": "address",
          "name": "",
          "type": "address"
        }
      ],
      "stateMutability": "view",
      "type": "function"
    },
    {
      "inputs": [
        {
          "internalType": "bytes32",
          "name": "role",
          "type": "bytes32"
        }
      ],
      "name": "getRoleMemberCount",
      "outputs": [
        {
          "internalType": "uint256",
          "name": "",
          "type": "uint256"
        }
      ],
      "stateMutability": "view",
      "type": "function"
    },
    {
      "inputs": [
        {
          "internalType": "bytes32",
          "name": "agreementId",
          "type": "bytes32"
        }
      ],
      "name": "getTerms",
      "outputs": [
        {
          "internalType": "address",
          "name": "",
          "type": "address"
        },
        {
          "internalType": "bytes32",
          "name": "",
          "type": "bytes32"
        },
        {
          "internalType": "bytes16",
          "name": "",
          "type": "bytes16"
        }
      ],
      "stateMutability": "view",
      "type": "function"
    },
    {
      "inputs": [
        {
          "internalType": "bytes32",
          "name": "agreementId",
          "type": "bytes32"
        }
      ],
      "name": "getTermsContract",
      "outputs": [
        {
          "internalType": "address",
          "name": "",
          "type": "address"
        }
      ],
      "stateMutability": "view",
      "type": "function"
    },
    {
      "inputs": [
        {
          "internalType": "bytes32",
          "name": "agreementId",
          "type": "bytes32"
        }
      ],
      "name": "getTermsContractParameters",
      "outputs": [
        {
          "internalType": "bytes32",
          "name": "",
          "type": "bytes32"
        }
      ],
      "stateMutability": "view",
      "type": "function"
    },
    {
      "inputs": [
        {
          "internalType": "bytes32",
          "name": "agreementId",
          "type": "bytes32"
        }
      ],
      "name": "getValueRepaidToDate",
      "outputs": [
        {
          "internalType": "uint256",
          "name": "",
          "type": "uint256"
        },
        {
          "internalType": "uint256",
          "name": "",
          "type": "uint256"
        }
      ],
      "stateMutability": "view",
      "type": "function"
    },
    {
      "inputs": [
        {
          "internalType": "bytes32",
          "name": "_agreementId",
          "type": "bytes32"
        },
        {
          "internalType": "bytes32",
          "name": "_sellId",
          "type": "bytes32"
        }
      ],
      "name": "getWaitingSellCollateral",
      "outputs": [
        {
          "internalType": "uint256",
          "name": "amountPayment",
          "type": "uint256"
        },
        {
          "internalType": "uint256",
          "name": "fiatTokenIndex",
          "type": "uint256"
        }
      ],
      "stateMutability": "view",
      "type": "function"
    },
    {
      "inputs": [
        {
          "internalType": "bytes32",
          "name": "role",
          "type": "bytes32"
        },
        {
          "internalType": "address",
          "name": "account",
          "type": "address"
        }
      ],
      "name": "grantRole",
      "outputs": [],
      "stateMutability": "nonpayable",
      "type": "function"
    },
    {
      "inputs": [
        {
          "internalType": "bytes32",
          "name": "role",
          "type": "bytes32"
        },
        {
          "internalType": "address",
          "name": "account",
          "type": "address"
        }
      ],
      "name": "hasRole",
      "outputs": [
        {
          "internalType": "bool",
          "name": "",
          "type": "bool"
        }
      ],
      "stateMutability": "view",
      "type": "function"
    },
    {
      "inputs": [
        {
          "internalType": "contract Registry",
          "name": "_registry",
          "type": "address"
        }
      ],
      "name": "initialize",
      "outputs": [],
      "stateMutability": "nonpayable",
      "type": "function"
    },
    {
      "inputs": [
        {
          "internalType": "address",
          "name": "_version",
          "type": "address"
        },
        {
          "internalType": "address",
          "name": "_beneficiary",
          "type": "address"
        },
        {
          "internalType": "address",
          "name": "_debtor",
          "type": "address"
        },
        {
          "internalType": "address",
          "name": "_termsContract",
          "type": "address"
        },
        {
          "internalType": "address",
          "name": "_priceFeedOperator",
          "type": "address"
        },
        {
          "internalType": "address",
          "name": "_principalTokenAddress",
          "type": "address"
        },
        {
          "internalType": "bytes32",
          "name": "_termsContractParameters",
          "type": "bytes32"
        },
        {
          "internalType": "bytes16",
          "name": "_collateralInfoParameters",
          "type": "bytes16"
        },
        {
          "internalType": "uint256[4]",
          "name": "values",
          "type": "uint256[4]"
        }
      ],
      "name": "insert",
      "outputs": [
        {
          "internalType": "bytes32",
          "name": "",
          "type": "bytes32"
        }
      ],
      "stateMutability": "nonpayable",
      "type": "function"
    },
    {
      "inputs": [
        {
          "internalType": "bytes32",
          "name": "agreementId",
          "type": "bytes32"
        },
        {
          "internalType": "uint256",
          "name": "invoiceTokenId",
          "type": "uint256"
        }
      ],
      "name": "insertInvoiceFinancedToInventoryLoan",
      "outputs": [],
      "stateMutability": "nonpayable",
      "type": "function"
    },
    {
      "inputs": [
        {
          "internalType": "bytes32",
          "name": "agreementId",
          "type": "bytes32"
        }
      ],
      "name": "isExpiredOrReadyForLiquidation",
      "outputs": [
        {
          "internalType": "bool",
          "name": "",
          "type": "bool"
        }
      ],
      "stateMutability": "view",
      "type": "function"
    },
    {
      "inputs": [
        {
          "internalType": "bytes32",
          "name": "agreementId",
          "type": "bytes32"
        }
      ],
      "name": "isReadyForLiquidation",
      "outputs": [
        {
          "internalType": "bool",
          "name": "",
          "type": "bool"
        }
      ],
      "stateMutability": "view",
      "type": "function"
    },
    {
      "inputs": [
        {
          "internalType": "address",
          "name": "signer",
          "type": "address"
        },
        {
          "internalType": "bytes32",
          "name": "hash",
          "type": "bytes32"
        },
        {
          "internalType": "uint8",
          "name": "v",
          "type": "uint8"
        },
        {
          "internalType": "bytes32",
          "name": "r",
          "type": "bytes32"
        },
        {
          "internalType": "bytes32",
          "name": "s",
          "type": "bytes32"
        }
      ],
      "name": "isValidSignature",
      "outputs": [
        {
          "internalType": "bool",
          "name": "valid",
          "type": "bool"
        }
      ],
      "stateMutability": "pure",
      "type": "function"
    },
    {
      "inputs": [
        {
          "internalType": "bytes32",
          "name": "agreementId",
          "type": "bytes32"
        },
        {
          "internalType": "bytes32",
          "name": "sellId",
          "type": "bytes32"
        }
      ],
      "name": "isWaitingSellCollateralExisted",
      "outputs": [
        {
          "internalType": "bool",
          "name": "",
          "type": "bool"
        }
      ],
      "stateMutability": "view",
      "type": "function"
    },
    {
      "inputs": [
        {
          "internalType": "bytes32",
          "name": "agreementId",
          "type": "bytes32"
        }
      ],
      "name": "latestCollateralRatio",
      "outputs": [
        {
          "internalType": "uint256",
          "name": "",
          "type": "uint256"
        }
      ],
      "stateMutability": "view",
      "type": "function"
    },
    {
      "inputs": [
        {
          "internalType": "bytes32",
          "name": "",
          "type": "bytes32"
        }
      ],
      "name": "liquidatedLoan",
      "outputs": [
        {
          "internalType": "bool",
          "name": "",
          "type": "bool"
        }
      ],
      "stateMutability": "view",
      "type": "function"
    },
    {
      "inputs": [
        {
          "internalType": "bytes32",
          "name": "",
          "type": "bytes32"
        }
      ],
      "name": "manualInterestLoan",
      "outputs": [
        {
          "internalType": "bool",
          "name": "",
          "type": "bool"
        }
      ],
      "stateMutability": "view",
      "type": "function"
    },
    {
      "inputs": [
        {
          "internalType": "bytes32",
          "name": "agreementId",
          "type": "bytes32"
        },
        {
          "internalType": "address",
          "name": "newBeneficiary",
          "type": "address"
        }
      ],
      "name": "modifyBeneficiary",
      "outputs": [],
      "stateMutability": "nonpayable",
      "type": "function"
    },
    {
      "inputs": [],
      "name": "pause",
      "outputs": [],
      "stateMutability": "nonpayable",
      "type": "function"
    },
    {
      "inputs": [],
      "name": "paused",
      "outputs": [
        {
          "internalType": "bool",
          "name": "",
          "type": "bool"
        }
      ],
      "stateMutability": "view",
      "type": "function"
    },
    {
      "inputs": [],
      "name": "registry",
      "outputs": [
        {
          "internalType": "contract Registry",
          "name": "",
          "type": "address"
        }
      ],
      "stateMutability": "view",
      "type": "function"
    },
    {
      "inputs": [
        {
          "internalType": "bytes32",
          "name": "",
          "type": "bytes32"
        },
        {
          "internalType": "uint256",
          "name": "",
          "type": "uint256"
        }
      ],
      "name": "registryToInvoice",
      "outputs": [
        {
          "internalType": "uint256",
          "name": "",
          "type": "uint256"
        }
      ],
      "stateMutability": "view",
      "type": "function"
    },
    {
      "inputs": [
        {
          "internalType": "bytes32",
          "name": "agreementId",
          "type": "bytes32"
        },
        {
          "internalType": "uint256",
          "name": "invoiceId",
          "type": "uint256"
        }
      ],
      "name": "removeInvoiceId",
      "outputs": [],
      "stateMutability": "nonpayable",
      "type": "function"
    },
    {
      "inputs": [
        {
          "internalType": "bytes32",
          "name": "agreementId",
          "type": "bytes32"
        }
      ],
      "name": "removeLiquidatedLoan",
      "outputs": [],
      "stateMutability": "nonpayable",
      "type": "function"
    },
    {
      "inputs": [
        {
          "internalType": "bytes32",
          "name": "role",
          "type": "bytes32"
        },
        {
          "internalType": "address",
          "name": "account",
          "type": "address"
        }
      ],
      "name": "renounceRole",
      "outputs": [],
      "stateMutability": "nonpayable",
      "type": "function"
    },
    {
      "inputs": [
        {
          "internalType": "bytes32",
          "name": "",
          "type": "bytes32"
        }
      ],
      "name": "repaidInterestAmount",
      "outputs": [
        {
          "internalType": "uint256",
          "name": "",
          "type": "uint256"
        }
      ],
      "stateMutability": "view",
      "type": "function"
    },
    {
      "inputs": [
        {
          "internalType": "bytes32",
          "name": "",
          "type": "bytes32"
        }
      ],
      "name": "repaidPrincipalAmount",
      "outputs": [
        {
          "internalType": "uint256",
          "name": "",
          "type": "uint256"
        }
      ],
      "stateMutability": "view",
      "type": "function"
    },
    {
      "inputs": [
        {
          "internalType": "bytes32",
          "name": "role",
          "type": "bytes32"
        },
        {
          "internalType": "address",
          "name": "account",
          "type": "address"
        }
      ],
      "name": "revokeRole",
      "outputs": [],
      "stateMutability": "nonpayable",
      "type": "function"
    },
    {
      "inputs": [
        {
          "internalType": "bytes32",
          "name": "agreementId",
          "type": "bytes32"
        }
      ],
      "name": "selfEvaluateCollateralRatio",
      "outputs": [
        {
          "internalType": "bool",
          "name": "",
          "type": "bool"
        }
      ],
      "stateMutability": "nonpayable",
      "type": "function"
    },
    {
      "inputs": [
        {
          "internalType": "bytes32",
          "name": "agreementId",
          "type": "bytes32"
        }
      ],
      "name": "setCompletedLoan",
      "outputs": [],
      "stateMutability": "nonpayable",
      "type": "function"
    },
    {
      "inputs": [
        {
          "internalType": "bytes32",
          "name": "agreementId",
          "type": "bytes32"
        }
      ],
      "name": "setCompletedRepayment",
      "outputs": [],
      "stateMutability": "nonpayable",
      "type": "function"
    },
    {
      "inputs": [
        {
          "internalType": "bytes32",
          "name": "agreementId",
          "type": "bytes32"
        },
        {
          "internalType": "uint256",
          "name": "liquidationRatio",
          "type": "uint256"
        }
      ],
      "name": "setLiquidationRatio",
      "outputs": [],
      "stateMutability": "nonpayable",
      "type": "function"
    },
    {
      "inputs": [
        {
          "internalType": "bytes32",
          "name": "agreementId",
          "type": "bytes32"
        }
      ],
      "name": "setLoanLiquidated",
      "outputs": [],
      "stateMutability": "nonpayable",
      "type": "function"
    },
    {
      "inputs": [
        {
          "internalType": "bytes32",
          "name": "agreementId",
          "type": "bytes32"
        },
        {
          "internalType": "uint256",
          "name": "interestAmount",
          "type": "uint256"
        }
      ],
      "name": "setManualInterestAmountLoan",
      "outputs": [],
      "stateMutability": "nonpayable",
      "type": "function"
    },
    {
      "inputs": [
        {
          "internalType": "bytes32",
          "name": "agreementId",
          "type": "bytes32"
        },
        {
          "internalType": "bool",
          "name": "isManualInterest",
          "type": "bool"
        }
      ],
      "name": "setManualInterestLoan",
      "outputs": [],
      "stateMutability": "nonpayable",
      "type": "function"
    },
    {
      "inputs": [
        {
          "internalType": "bytes32",
          "name": "agreementId",
          "type": "bytes32"
        },
        {
          "internalType": "uint256",
          "name": "minCollateralRatio",
          "type": "uint256"
        }
      ],
      "name": "setMinCollateralRatio",
      "outputs": [],
      "stateMutability": "nonpayable",
      "type": "function"
    },
    {
      "inputs": [
        {
          "internalType": "bytes32",
          "name": "agreementId",
          "type": "bytes32"
        },
        {
          "internalType": "uint256",
          "name": "repaidAmount",
          "type": "uint256"
        }
      ],
      "name": "setRepaidInterestAmount",
      "outputs": [],
      "stateMutability": "nonpayable",
      "type": "function"
    },
    {
      "inputs": [
        {
          "internalType": "bytes32",
          "name": "agreementId",
          "type": "bytes32"
        },
        {
          "internalType": "uint256",
          "name": "repaidAmount",
          "type": "uint256"
        }
      ],
      "name": "setRepaidPrincipalAmount",
      "outputs": [],
      "stateMutability": "nonpayable",
      "type": "function"
    },
    {
      "inputs": [
        {
          "internalType": "bytes32",
          "name": "agreementId",
          "type": "bytes32"
        },
        {
          "internalType": "bytes32",
          "name": "sellId",
          "type": "bytes32"
        },
        {
          "internalType": "uint256",
          "name": "amount",
          "type": "uint256"
        },
        {
          "internalType": "uint256",
          "name": "fiatTokenIndex",
          "type": "uint256"
        }
      ],
      "name": "setWaitingSellCollateral",
      "outputs": [],
      "stateMutability": "nonpayable",
      "type": "function"
    },
    {
      "inputs": [
        {
          "internalType": "bytes4",
          "name": "interfaceId",
          "type": "bytes4"
        }
      ],
      "name": "supportsInterface",
      "outputs": [
        {
          "internalType": "bool",
          "name": "",
          "type": "bool"
        }
      ],
      "stateMutability": "view",
      "type": "function"
    },
    {
      "inputs": [],
      "name": "unpause",
      "outputs": [],
      "stateMutability": "nonpayable",
      "type": "function"
    },
    {
      "inputs": [
        {
          "internalType": "bytes32",
          "name": "agreementId",
          "type": "bytes32"
        },
        {
          "internalType": "bytes16",
          "name": "newCollateralInfoParameters",
          "type": "bytes16"
        }
      ],
      "name": "updateCollateralInfoParameters",
      "outputs": [],
      "stateMutability": "nonpayable",
      "type": "function"
    },
    {
      "inputs": [
        {
          "internalType": "bytes32",
          "name": "agreementId",
          "type": "bytes32"
        },
        {
          "internalType": "uint256",
          "name": "newTimestamp",
          "type": "uint256"
        }
      ],
      "name": "updateLastRepaymentTimestamp",
      "outputs": [],
      "stateMutability": "nonpayable",
      "type": "function"
    },
    {
      "inputs": [
        {
          "internalType": "bytes32",
          "name": "agreementId",
          "type": "bytes32"
        },
        {
          "internalType": "bytes32",
          "name": "newLoanTermsParameters",
          "type": "bytes32"
        }
      ],
      "name": "updateLoanTermParameters",
      "outputs": [],
      "stateMutability": "nonpayable",
      "type": "function"
    },
    {
      "inputs": [
        {
          "internalType": "bytes32",
          "name": "",
          "type": "bytes32"
        },
        {
          "internalType": "bytes32",
          "name": "",
          "type": "bytes32"
        }
      ],
      "name": "waitingSellCollateral",
      "outputs": [
        {
          "internalType": "bytes32",
          "name": "agreementId",
          "type": "bytes32"
        },
        {
          "internalType": "uint256",
          "name": "amountPayment",
          "type": "uint256"
        },
        {
          "internalType": "uint256",
          "name": "fiatTokenIndex",
          "type": "uint256"
        }
      ],
      "stateMutability": "view",
      "type": "function"
    },
    {
      "inputs": [
        {
          "internalType": "bytes32",
          "name": "",
          "type": "bytes32"
        },
        {
          "internalType": "bytes32",
          "name": "",
          "type": "bytes32"
        }
      ],
      "name": "waitingSellCollateralExisted",
      "outputs": [
        {
          "internalType": "bool",
          "name": "",
          "type": "bool"
        }
      ],
      "stateMutability": "view",
      "type": "function"
    }
  ],
  "transactionHash": "0x5b4f60fd7d9be896bde0d1069767df65687e8f8141137722d80cdacfd3c2cc4f",
  "args": [],
  "numDeployments": 1,
  "solcInputHash": "e6e597156b9347e6812232a00aecd463",
  "bytecode": "0x6080604052600361012d55600261012e5534801561001c57600080fd5b50614a1c8061002c6000396000f3fe608060405234801561001057600080fd5b50600436106105965760003560e01c80638b7b8573116102e2578063b465723811610191578063d69dbf63116100ee578063ef7e23b3116100a2578063f6f494c91161007c578063f6f494c914611215578063fa8cc1ad14611228578063fc819e0c1461123b57600080fd5b8063ef7e23b3146111c7578063f20ed24c146111eb578063f42eb765146111f557600080fd5b8063dc3ea2dd116100d3578063dc3ea2dd14611169578063de3b4bc51461118d578063e58378bb146111a057600080fd5b8063d69dbf6314611116578063da165e061461112957600080fd5b8063c5dd98db11610145578063ca7312231161012a578063ca731223146110dd578063d3b6ab94146110f0578063d547741f1461110357600080fd5b8063c5dd98db14611082578063ca15c873146110ca57600080fd5b8063ba20dda411610176578063ba20dda41461102a578063c4d66de81461103d578063c59a01611461105057600080fd5b8063b465723814610fc2578063b79a366514610fe257600080fd5b806397a60c4d1161023f578063a5db113b116101f3578063ae9cd3b3116101d8578063ae9cd3b314610ee7578063af5b623e14610f0b578063b3cf3d6514610f2c57600080fd5b8063a5db113b14610e8f578063a9f0090214610e9757600080fd5b806399097f7a1161022457806399097f7a14610e3f5780639d49faac14610e63578063a217fddf14610e8757600080fd5b806397a60c4d14610e0857806397a991b814610e1b57600080fd5b8063917be9201161029657806395082d251161027b57806395082d2514610da357806396d922c014610dab5780639758af1e14610dcc57600080fd5b8063917be92014610d4a57806391d1485414610d5d57600080fd5b80638dadc81d116102c75780638dadc81d14610c5c5780638eaa6ac014610c985780639010d07c14610d3757600080fd5b80638b7b857314610beb5780638c420de514610c0f57600080fd5b8063328f7c48116104495780635ea2466b116103a657806370d36b0e1161035a5780638163681e116103345780638163681e14610baf5780638456cb5914610bc257806387a4481314610bca57600080fd5b806370d36b0e14610b645780637b10399914610b855780637c3ea9fc14610ba657600080fd5b8063630282191161038b5780636302821914610ad75780636be39bda14610aea5780636e0547d914610b5157600080fd5b80635ea2466b14610aa35780635f677b0114610ac457600080fd5b80634be13dcb116103fd5780635969549e116103e25780635969549e14610a615780635c975abb14610a745780635cac0ebb14610a7f57600080fd5b80634be13dcb14610a0557806354ca45cf14610a2957600080fd5b80633f4ba83a1161042e5780633f4ba83a146109c657806344d0c937146109ce578063494bd484146109f257600080fd5b8063328f7c48146109a957806336568abe146109b357600080fd5b8063248a9ca3116104f75780632be84c66116104ab5780632f2ff15d116104905780632f2ff15d14610956578063314a522e14610969578063324f58351461097c57600080fd5b80632be84c66146108ec5780632d46c73a1461093557600080fd5b806327080b58116104dc57806327080b581461088957806329e0abd8146108aa5780632a8e8470146108d957600080fd5b8063248a9ca314610786578063267b6922146107a957600080fd5b80631209dfa91161054e57806319c695541161053357806319c69554146106a3578063201efb56146106e8578063233787f71461073e57600080fd5b80631209dfa91461065e57806315e9586c1461067f57600080fd5b806303a896a11161057f57806303a896a1146105d85780630ea8f5831461061c5780630f0faa851461064b57600080fd5b806301f628371461059b57806301ffc9a7146105b0575b600080fd5b6105ae6105a9366004613fc5565b61125c565b005b6105c36105be366004613ff1565b6112c0565b60405190151581526020015b60405180910390f35b6106076105e6366004614033565b60009081526101376020908152604080832054610138909252909120549091565b604080519283526020830191909152016105cf565b6105c361062a36600461404c565b60009182526101346020908152604080842092845291905290205460ff1690565b6105ae61065936600461404c565b61131c565b61067161066c36600461404c565b61134d565b6040519081526020016105cf565b61067161068d366004614033565b600090815261013060205260409020600b015490565b6105ae6106b1366004614033565b60009081526101356020526040902080547fffffffffffffffffffffffffffffffffffffffffffffffffffffffffffffff00169055565b6107236106f636600461404c565b61013360209081526000928352604080842090915290825290208054600182015460029092015490919083565b604080519384526020840192909252908201526060016105cf565b6105ae61074c366004614033565b60009081526101356020526040902080547fffffffffffffffffffffffffffffffffffffffffffffffffffffffffffffff00166001179055565b610671610794366004614033565b600090815260c9602052604090206001015490565b6108726107b7366004614033565b6101306020908152600091825260409182902080546001820154600283015460038401546004850154600586015460068701546007880154600889015460098a01548c5160a081018e52600a8c015473ffffffffffffffffffffffffffffffffffffffff9081168252600b8d01549d82019d909d52600c8c01549d81019d909d52600d8b015460608e0152600e909a015460808d810191909152988b169b978b169a9687169995871698949096169692959190931b9390918b565b6040516105cf9b9a9998979695949392919061406e565b6105ae61089736600461404c565b6000918252610138602052604090912055565b6105c36108b836600461404c565b61013460209081526000928352604080842090915290825290205460ff1681565b6105ae6108e736600461404c565b61137f565b6109286040518060400160405280601b81526020017f636f6d6d6f646974792d646562742d656e74726965732d65646974000000000081525081565b6040516105cf919061417d565b610671610943366004614033565b6000908152610137602052604090205490565b6105ae6109643660046141f0565b611498565b610671610977366004614033565b6114be565b6105c361098a366004614033565b600090815261013060205260409020600c810154600e90910154101590565b61067161012d5481565b6105ae6109c13660046141f0565b611591565b6105ae611644565b6106716109dc366004614033565b600090815261013060205260409020600e015490565b610671610a00366004614033565b61165b565b6105c3610a13366004614033565b61013a6020526000908152604090205460ff1681565b610a3c610a37366004614033565b61172a565b60405173ffffffffffffffffffffffffffffffffffffffff90911681526020016105cf565b6105ae610a6f3660046141f0565b61180f565b60335460ff166105c3565b6105c3610a8d366004614033565b6101366020526000908152604090205460ff1681565b610671610ab1366004614033565b6101376020526000908152604090205481565b6105c3610ad2366004614033565b611a86565b610671610ae5366004614033565b611aa7565b610afd610af8366004614033565b611b76565b6040805173ffffffffffffffffffffffffffffffffffffffff909416845260208401929092527fffffffffffffffffffffffffffffffff0000000000000000000000000000000016908201526060016105cf565b6105ae610b5f36600461404c565b611c7f565b6105ae610b7236600461404c565b600091825261013b602052604090912055565b61012f54610a3c9073ffffffffffffffffffffffffffffffffffffffff1681565b61067161012c81565b6105c3610bbd366004614220565b611dcd565b6105ae611ee3565b6105ae610bd836600461404c565b6000918252610137602052604090912055565b6105c3610bf9366004614033565b6101356020526000908152604090205460ff1681565b6105ae610c1d366004614278565b600091825261013a602052604090912080547fffffffffffffffffffffffffffffffffffffffffffffffffffffffffffffff0016911515919091179055565b6109286040518060400160405280601d81526020017f636f6d6d6f646974792d646562742d656e74726965732d696e7365727400000081525081565b610cf1610ca6366004614033565b600090815261013060205260409020805460018201546003830154600584015460079094015473ffffffffffffffffffffffffffffffffffffffff9384169592841694939091169291565b6040805173ffffffffffffffffffffffffffffffffffffffff9687168152948616602086015292909416918301919091526060820152608081019190915260a0016105cf565b610a3c610d4536600461404c565b611ef7565b610671610d58366004614033565b611f16565b6105c3610d6b3660046141f0565b600091825260c96020908152604080842073ffffffffffffffffffffffffffffffffffffffff93909316845291905290205460ff1690565b610671600481565b610671610db9366004614033565b600090815261013b602052604090205490565b6105c3610dda366004614033565b6000908152610130602052604090206001015473ffffffffffffffffffffffffffffffffffffffff16151590565b6105c3610e16366004614033565b611fd5565b6105ae610e2936600461404c565b60009182526101306020526040909120600e0155565b6105ae610e4d36600461404c565b6000918252610130602052604090912060050155565b6105c3610e71366004614033565b6101396020526000908152604090205460ff1681565b610671600081565b610671600281565b610607610ea536600461404c565b60009182526101336020908152604080842092845291815291819020815160608101835281548152600182015493810184905260029091015491018190529091565b610671610ef5366004614033565b600090815261013060205260409020600c015490565b610671610f19366004614033565b6000908152610138602052604090205490565b6105ae610f3a3660046142a2565b60408051606081018252858152602080820194855281830193845260008781526101338252838120878252825283812092518355945160018084019190915593516002909201919091559483526101348552808320938352929093522080547fffffffffffffffffffffffffffffffffffffffffffffffffffffffffffffff00169091179055565b610fd5610fd0366004614033565b612019565b6040516105cf91906142d4565b6105ae610ff0366004614033565b60009081526101366020526040902080547fffffffffffffffffffffffffffffffffffffffffffffffffffffffffffffff00166001179055565b610a3c611038366004614033565b61207c565b6105ae61104b366004614318565b612161565b6105ae61105e36600461404c565b60009182526101316020908152604083208054600181018255908452922090910155565b6105ae611090366004614033565b60009081526101396020526040902080547fffffffffffffffffffffffffffffffffffffffffffffffffffffffffffffff00166001179055565b6106716110d8366004614033565b6122c7565b6105ae6110eb36600461404c565b6122de565b6106716110fe366004614033565b61230f565b6105ae6111113660046141f0565b612438565b610671611124366004614033565b61245e565b610607611137366004614033565b6000908152610130602052604090206006015463ffffffff606082901c16916bffffffffffffffffffffffff90911690565b610671611177366004614033565b600090815261013060205260409020600d015490565b6105c361119b366004614335565b61252d565b6106717fb19546dff01e856fb3f010c267a7b1c60363cf8a4664e21cc89c26224620214e81565b6105ae6111d536600461404c565b60009182526101306020526040909120600d0155565b61067161012e5481565b611208611203366004614033565b612690565b6040516105cf9190614361565b610a3c611223366004614033565b612829565b610671611236366004614504565b61290e565b610671611249366004614033565b6101386020526000908152604090205481565b60008281526101306020526040812060060180547fffffffffffffffffffffffffffffffff0000000000000000000000000000000016608084901c9081179091556bffffffffffffffffffffffff165b50505050565b60405180910390fd5b505050565b60007fffffffff0000000000000000000000000000000000000000000000000000000082167f5a05180f000000000000000000000000000000000000000000000000000000001480611316575061131682612f85565b92915050565b60008281526101386020526040902054611336908261301c565b600092835261013860205260409092209190915550565b610131602052816000526040600020818154811061136a57600080fd5b90600052602060002001600091509150505481565b61012f546113a29073ffffffffffffffffffffffffffffffffffffffff16613028565b73ffffffffffffffffffffffffffffffffffffffff163373ffffffffffffffffffffffffffffffffffffffff1614611482576040517f08c379a000000000000000000000000000000000000000000000000000000000815260206004820152604160248201527f496e76656e746f727920446562742052656769737472793a2053656e6465722060448201527f646f6573206e6f742068617665207065726d697373696f6e20746f206564697460648201527f2e00000000000000000000000000000000000000000000000000000000000000608482015260a4016112b2565b6000918252610130602052604090912060080155565b600082815260c960205260409020600101546114b48133613035565b6112bb8383613107565b60008181526101306020526040812060010154829073ffffffffffffffffffffffffffffffffffffffff16611575576040517f08c379a000000000000000000000000000000000000000000000000000000000815260206004820152603660248201527f496e76656e746f727920446562742052656769737472793a2041677265656d6560448201527f6e7420496420646f6573206e6f74206578697374732e0000000000000000000060648201526084016112b2565b6000838152610130602052604090206005015491505b50919050565b73ffffffffffffffffffffffffffffffffffffffff81163314611636576040517f08c379a000000000000000000000000000000000000000000000000000000000815260206004820152602f60248201527f416363657373436f6e74726f6c3a2063616e206f6e6c792072656e6f756e636560448201527f20726f6c657320666f722073656c66000000000000000000000000000000000060648201526084016112b2565b6116408282613129565b5050565b60006116508133613035565b61165861314b565b50565b60008181526101306020526040812060010154829073ffffffffffffffffffffffffffffffffffffffff16611712576040517f08c379a000000000000000000000000000000000000000000000000000000000815260206004820152603660248201527f496e76656e746f727920446562742052656769737472793a2041677265656d6560448201527f6e7420496420646f6573206e6f74206578697374732e0000000000000000000060648201526084016112b2565b50506000908152610130602052604090206008015490565b60008181526101306020526040812060010154829073ffffffffffffffffffffffffffffffffffffffff166117e1576040517f08c379a000000000000000000000000000000000000000000000000000000000815260206004820152603660248201527f496e76656e746f727920446562742052656769737472793a2041677265656d6560448201527f6e7420496420646f6573206e6f74206578697374732e0000000000000000000060648201526084016112b2565b50506000908152610130602052604090206002015473ffffffffffffffffffffffffffffffffffffffff1690565b60335460ff161561187c576040517f08c379a000000000000000000000000000000000000000000000000000000000815260206004820152601060248201527f5061757361626c653a207061757365640000000000000000000000000000000060448201526064016112b2565b60008281526101306020526040902060010154829073ffffffffffffffffffffffffffffffffffffffff16611933576040517f08c379a000000000000000000000000000000000000000000000000000000000815260206004820152603660248201527f496e76656e746f727920446562742052656769737472793a2041677265656d6560448201527f6e7420496420646f6573206e6f74206578697374732e0000000000000000000060648201526084016112b2565b8173ffffffffffffffffffffffffffffffffffffffff81166119fd576040517f08c379a000000000000000000000000000000000000000000000000000000000815260206004820152604660248201527f496e76656e746f727920446562742052656769737472793a2042656e6566696360448201527f69617279206d75737420626520646966666572656e742077697468206164647260648201527f65737320302e0000000000000000000000000000000000000000000000000000608482015260a4016112b2565b6000848152610130602052604080822060010180547fffffffffffffffffffffffff0000000000000000000000000000000000000000811673ffffffffffffffffffffffffffffffffffffffff8881169182179093559251911692839188917f7afbd1e661f2fdce6222afdac74cd28b1847177e232db3d0f0dcf3739e8d809491a45050505050565b600080611a9283611f16565b9050611a9e838261322c565b50600192915050565b60008181526101306020526040812060010154829073ffffffffffffffffffffffffffffffffffffffff16611b5e576040517f08c379a000000000000000000000000000000000000000000000000000000000815260206004820152603660248201527f496e76656e746f727920446562742052656769737472793a2041677265656d6560448201527f6e7420496420646f6573206e6f74206578697374732e0000000000000000000060648201526084016112b2565b50506000908152610130602052604090206009015490565b600080600083611bae816000908152610130602052604090206001015473ffffffffffffffffffffffffffffffffffffffff16151590565b611c3a576040517f08c379a000000000000000000000000000000000000000000000000000000000815260206004820152603660248201527f496e76656e746f727920446562742052656769737472793a2041677265656d6560448201527f6e7420496420646f6573206e6f74206578697374732e0000000000000000000060648201526084016112b2565b505050600091825250610130602052604090206003810154600582015460069092015473ffffffffffffffffffffffffffffffffffffffff9091169260809190911b90565b60008281526101316020526040902054156116405760005b600083815261013160205260409020548110156112bb57600083815261013160205260409020805483919083908110611cd257611cd2614611565b906000526020600020015403611dbd57805b60008481526101316020526040902054611d009060019061466f565b811015611d7f57600084815261013160205260409020611d21826001614686565b81548110611d3157611d31614611565b906000526020600020015461013160008681526020019081526020016000208281548110611d6157611d61614611565b60009182526020909120015580611d778161469e565b915050611ce4565b50600083815261013160205260409020805480611d9e57611d9e6146d6565b600190038181906000526020600020016000905590556112ac83611a86565b611dc68161469e565b9050611c97565b6000806040518060400160405280601c81526020017f19457468657265756d205369676e6564204d6573736167653a0a33320000000081525086604051602001611e18929190614705565b604080517fffffffffffffffffffffffffffffffffffffffffffffffffffffffffffffffe081840301815282825280516020918201206000845290830180835281905260ff8816918301919091526060820186905260808201859052915073ffffffffffffffffffffffffffffffffffffffff88169060019060a0016020604051602081039080840390855afa158015611eb6573d6000803e3d6000fd5b5050506020604051035173ffffffffffffffffffffffffffffffffffffffff161491505095945050505050565b6000611eef8133613035565b6116586133a3565b600082815260fb60205260408120611f0f9083613463565b9392505050565b60008181526101306020526040812060060154819060601c63ffffffff1661012f54909150611f5a9073ffffffffffffffffffffffffffffffffffffffff1661346f565b73ffffffffffffffffffffffffffffffffffffffff1663bb57b14d826040518263ffffffff1660e01b8152600401611f9491815260200190565b602060405180830381865afa158015611fb1573d6000803e3d6000fd5b505050506040513d601f19601f82011682018060405250810190611f0f9190614727565b60008181526101306020526040812060090154428111611ff85750600192915050565b600083815261013060205260409020600c810154600e909101541015611f0f565b6000818152610131602090815260409182902080548351818402810184019094528084526060939283018282801561207057602002820191906000526020600020905b81548152602001906001019080831161205c575b50505050509050919050565b60008181526101306020526040812060010154829073ffffffffffffffffffffffffffffffffffffffff16612133576040517f08c379a000000000000000000000000000000000000000000000000000000000815260206004820152603660248201527f496e76656e746f727920446562742052656769737472793a2041677265656d6560448201527f6e7420496420646f6573206e6f74206578697374732e0000000000000000000060648201526084016112b2565b50506000908152610130602052604090206001015473ffffffffffffffffffffffffffffffffffffffff1690565b600054610100900460ff1661217c5760005460ff1615612180565b303b155b61220c576040517f08c379a000000000000000000000000000000000000000000000000000000000815260206004820152602e60248201527f496e697469616c697a61626c653a20636f6e747261637420697320616c72656160448201527f647920696e697469616c697a656400000000000000000000000000000000000060648201526084016112b2565b600054610100900460ff1615801561224b57600080547fffffffffffffffffffffffffffffffffffffffffffffffffffffffffffff0000166101011790555b6122543361347c565b61012f80547fffffffffffffffffffffffff00000000000000000000000000000000000000001673ffffffffffffffffffffffffffffffffffffffff8416179055801561164057600080547fffffffffffffffffffffffffffffffffffffffffffffffffffffffffffff00ff1690555050565b600081815260fb60205260408120611316906135a8565b600082815261013760205260409020546122f8908261301c565b600092835261013760205260409092209190915550565b61012f5460009081906123379073ffffffffffffffffffffffffffffffffffffffff166135b2565b600084815261013160205260408120549093509091501561158b5760005b6000848152610131602052604090205481101561243157600084815261013160205260409020805473ffffffffffffffffffffffffffffffffffffffff841691634df8842791849081106123ab576123ab614611565b90600052602060002001546040518263ffffffff1660e01b81526004016123d491815260200190565b602060405180830381865afa1580156123f1573d6000803e3d6000fd5b505050506040513d601f19601f820116820180604052508101906124159190614727565b61241f9084614686565b925061242a8161469e565b9050612355565b5050919050565b600082815260c960205260409020600101546124548133613035565b6112bb8383613129565b60008181526101306020526040812060010154829073ffffffffffffffffffffffffffffffffffffffff16612515576040517f08c379a000000000000000000000000000000000000000000000000000000000815260206004820152603660248201527f496e76656e746f727920446562742052656769737472793a2041677265656d6560448201527f6e7420496420646f6573206e6f74206578697374732e0000000000000000000060648201526084016112b2565b50506000908152610130602052604090206007015490565b600083815261013060205260408120600a0154849073ffffffffffffffffffffffffffffffffffffffff1633146125e6576040517f08c379a000000000000000000000000000000000000000000000000000000000815260206004820152603860248201527f496e76656e746f727920446562742052656769737472793a204e6f742061757460448201527f686f72697a656420746f207570646174652070726963652e000000000000000060648201526084016112b2565b6125ef836135bf565b61267b576040517f08c379a000000000000000000000000000000000000000000000000000000000815260206004820152602c60248201527f496e76656e746f727920446562742052656769737472793a20496e76616c696460448201527f20707269636520646174612e000000000000000000000000000000000000000060648201526084016112b2565b612685858561322c565b506001949350505050565b6127106040805161016081018252600080825260208083018290528284018290526060808401839052608080850184905260a080860185905260c0860185905260e0860185905261010086018590526101208601859052865190810187528481529283018490529482018390528101829052928301529061014082015290565b5060009081526101306020908152604091829020825161016081018452815473ffffffffffffffffffffffffffffffffffffffff9081168252600183015481168285015260028301548116828601526003830154811660608084019190915260048401548216608080850191909152600585015460a0808601919091526006860154821b7fffffffffffffffffffffffffffffffff000000000000000000000000000000001660c0860152600786015460e08601526008860154610100860152600986015461012086015287519081018852600a8601549093168352600b85015495830195909552600c84015495820195909552600d83015494810194909452600e909101549183019190915261014081019190915290565b60008181526101306020526040812060010154829073ffffffffffffffffffffffffffffffffffffffff166128e0576040517f08c379a000000000000000000000000000000000000000000000000000000000815260206004820152603660248201527f496e76656e746f727920446562742052656769737472793a2041677265656d6560448201527f6e7420496420646f6573206e6f74206578697374732e0000000000000000000060648201526084016112b2565b50506000908152610130602052604090206003015473ffffffffffffffffffffffffffffffffffffffff1690565b600061291c60335460ff1690565b15612983576040517f08c379a000000000000000000000000000000000000000000000000000000000815260206004820152601060248201527f5061757361626c653a207061757365640000000000000000000000000000000060448201526064016112b2565b8873ffffffffffffffffffffffffffffffffffffffff8116612a4d576040517f08c379a000000000000000000000000000000000000000000000000000000000815260206004820152604660248201527f496e76656e746f727920446562742052656769737472793a2042656e6566696360448201527f69617279206d75737420626520646966666572656e742077697468206164647260648201527f65737320302e0000000000000000000000000000000000000000000000000000608482015260a4016112b2565b60006040518060a001604052808973ffffffffffffffffffffffffffffffffffffffff168152602001600081526020016000815260200185600060048110612a9757612a97614611565b6020020151815260200185600160048110612ab457612ab4614611565b6020020151815250905060006040518061016001604052808e73ffffffffffffffffffffffffffffffffffffffff1681526020018d73ffffffffffffffffffffffffffffffffffffffff1681526020018c73ffffffffffffffffffffffffffffffffffffffff1681526020018b73ffffffffffffffffffffffffffffffffffffffff1681526020018973ffffffffffffffffffffffffffffffffffffffff168152602001888152602001876fffffffffffffffffffffffffffffffff191681526020014281526020016000815260200186600260048110612b9757612b97614611565b602002015181526020018381525090506000612c47828d88600360048110612bc157612bc1614611565b6020020151825160608085015160a086015160405193831b7fffffffffffffffffffffffffffffffffffffffff000000000000000000000000908116602086015286841b811660348601529190921b166048830152605c820152607c8101829052600090609c016040516020818303038152906040528051906020012090509392505050565b6000818152610130602052604090206001015490915073ffffffffffffffffffffffffffffffffffffffff1615612d00576040517f08c379a000000000000000000000000000000000000000000000000000000000815260206004820152602360248201527f42656e6566696369617279206163636f756e7420616c7265616479206578697360448201527f74732e000000000000000000000000000000000000000000000000000000000060648201526084016112b2565b60008181526101306020908152604091829020845181547fffffffffffffffffffffffff000000000000000000000000000000000000000090811673ffffffffffffffffffffffffffffffffffffffff9283161783558684015160018401805483169184169190911790558685015160028401805483169184169190911790556060808801516003850180548416918516919091179055608080890151600486018054851691861691909117905560a0890151600586015560c08901516006860180547fffffffffffffffffffffffffffffffff000000000000000000000000000000001691831c91909117905560e08901516007860155610100890151600886015561012089015160098601556101408901518051600a8701805490951695169490941790925593820151600b84015593810151600c83015591820151600d820155910151600e90910155612e5581611a86565b506101306000828152602001908152602001600020600a01600201546101306000838152602001908152602001600020600a016001018190555061013260008d73ffffffffffffffffffffffffffffffffffffffff1673ffffffffffffffffffffffffffffffffffffffff168152602001908152602001600020819080600181540180825580915050600190039060005260206000200160009091909190915055816020015173ffffffffffffffffffffffffffffffffffffffff16817fcc14203510e370aca2dbc9c49a0e128176b2323f9c75ba5c04a7639f9063ee8784606001518560a00151604051612f6c92919073ffffffffffffffffffffffffffffffffffffffff929092168252602082015260400190565b60405180910390a39d9c50505050505050505050505050565b60007fffffffff0000000000000000000000000000000000000000000000000000000082167f7965db0b00000000000000000000000000000000000000000000000000000000148061131657507f01ffc9a7000000000000000000000000000000000000000000000000000000007fffffffff00000000000000000000000000000000000000000000000000000000831614611316565b6000611f0f8284614686565b60006113168260176135e1565b600082815260c96020908152604080832073ffffffffffffffffffffffffffffffffffffffff8516845290915290205460ff166116405761308d8173ffffffffffffffffffffffffffffffffffffffff16601461368b565b61309883602061368b565b6040516020016130a9929190614740565b604080517fffffffffffffffffffffffffffffffffffffffffffffffffffffffffffffffe0818403018152908290527f08c379a00000000000000000000000000000000000000000000000000000000082526112b29160040161417d565b61311182826138ce565b600082815260fb602052604090206112bb90826139c2565b61313382826139e4565b600082815260fb602052604090206112bb9082613a9f565b60335460ff166131b7576040517f08c379a000000000000000000000000000000000000000000000000000000000815260206004820152601460248201527f5061757361626c653a206e6f742070617573656400000000000000000000000060448201526064016112b2565b603380547fffffffffffffffffffffffffffffffffffffffffffffffffffffffffffffff001690557f5db9ee0a495bf2e6ff9c91a7834c1ba4fdd244a5e8aa4e537bd38aeae4b073aa335b60405173ffffffffffffffffffffffffffffffffffffffff909116815260200160405180910390a1565b600082815261013060205260408120600601546bffffffffffffffffffffffff16906132578461230f565b61012f5490915042906000906132829073ffffffffffffffffffffffffffffffffffffffff16613028565b6040517f6d050952000000000000000000000000000000000000000000000000000000008152600481018890526024810184905273ffffffffffffffffffffffffffffffffffffffff9190911690636d05095290604401602060405180830381865afa1580156132f6573d6000803e3d6000fd5b505050506040513d601f19601f8201168201806040525081019061331a9190614727565b9050600061332a85878685613ac1565b600088815261013060205260409020600c01549091508082146133995760008881526101306020908152604091829020600c01849055815183815290810184905289917fc1e54b482a38e18c50a336ba869802645dffa5308fa45bc24ac166583bb4dbcb910160405180910390a25b5050505050505050565b60335460ff1615613410576040517f08c379a000000000000000000000000000000000000000000000000000000000815260206004820152601060248201527f5061757361626c653a207061757365640000000000000000000000000000000060448201526064016112b2565b603380547fffffffffffffffffffffffffffffffffffffffffffffffffffffffffffffff001660011790557f62e78cea01bee320cd4e420270b5ea74000d11b0c9f74754ebdbfc544b05a2586132023390565b6000611f0f8383613bb3565b60006113168260146135e1565b600054610100900460ff16613513576040517f08c379a000000000000000000000000000000000000000000000000000000000815260206004820152602b60248201527f496e697469616c697a61626c653a20636f6e7472616374206973206e6f74206960448201527f6e697469616c697a696e6700000000000000000000000000000000000000000060648201526084016112b2565b61351b613bdd565b613523613c9e565b61352b613d3c565b73ffffffffffffffffffffffffffffffffffffffff81166135495750335b613554600082613dd5565b61357e7fb19546dff01e856fb3f010c267a7b1c60363cf8a4664e21cc89c26224620214e82613dd5565b6116587fb19546dff01e856fb3f010c267a7b1c60363cf8a4664e21cc89c26224620214e80613ddf565b6000611316825490565b60006113168260086135e1565b6000806135ce4261012c613e2a565b905080831015611a9e5750600092915050565b60008273ffffffffffffffffffffffffffffffffffffffff1663bcaa0c55836019811115613611576136116147c1565b6040517fffffffff0000000000000000000000000000000000000000000000000000000060e084901b16815260ff9091166004820152602401602060405180830381865afa158015613667573d6000803e3d6000fd5b505050506040513d601f19601f82011682018060405250810190611f0f91906147f0565b6060600061369a83600261480d565b6136a5906002614686565b67ffffffffffffffff8111156136bd576136bd6144d5565b6040519080825280601f01601f1916602001820160405280156136e7576020820181803683370190505b5090507f30000000000000000000000000000000000000000000000000000000000000008160008151811061371e5761371e614611565b60200101907effffffffffffffffffffffffffffffffffffffffffffffffffffffffffffff1916908160001a9053507f78000000000000000000000000000000000000000000000000000000000000008160018151811061378157613781614611565b60200101907effffffffffffffffffffffffffffffffffffffffffffffffffffffffffffff1916908160001a90535060006137bd84600261480d565b6137c8906001614686565b90505b6001811115613865577f303132333435363738396162636465660000000000000000000000000000000085600f166010811061380957613809614611565b1a60f81b82828151811061381f5761381f614611565b60200101907effffffffffffffffffffffffffffffffffffffffffffffffffffffffffffff1916908160001a90535060049490941c9361385e8161484a565b90506137cb565b508315611f0f576040517f08c379a000000000000000000000000000000000000000000000000000000000815260206004820181905260248201527f537472696e67733a20686578206c656e67746820696e73756666696369656e7460448201526064016112b2565b600082815260c96020908152604080832073ffffffffffffffffffffffffffffffffffffffff8516845290915290205460ff1661164057600082815260c96020908152604080832073ffffffffffffffffffffffffffffffffffffffff85168452909152902080547fffffffffffffffffffffffffffffffffffffffffffffffffffffffffffffff001660011790556139643390565b73ffffffffffffffffffffffffffffffffffffffff168173ffffffffffffffffffffffffffffffffffffffff16837f2f8788117e7eff1d82e926ec794901d17c78024a50270940304540a733656f0d60405160405180910390a45050565b6000611f0f8373ffffffffffffffffffffffffffffffffffffffff8416613e36565b600082815260c96020908152604080832073ffffffffffffffffffffffffffffffffffffffff8516845290915290205460ff161561164057600082815260c96020908152604080832073ffffffffffffffffffffffffffffffffffffffff8516808552925280832080547fffffffffffffffffffffffffffffffffffffffffffffffffffffffffffffff0016905551339285917ff6391f5c32d9c69d2a47ea670b442974b53935d1edc7fd64eb21e047a839171b9190a45050565b6000611f0f8373ffffffffffffffffffffffffffffffffffffffff8416613e85565b600081600003613af257507fffffffffffffffffffffffffffffffffffffffffffffffffffffffffffffffff613bab565b6000613b6d6064613b53613b086002600a61499f565b613b5361012e54600a613b1b919061499f565b613b5961012d54600a613b2e919061499f565b613b5361012e546004613b41919061466f565b613b4c90600a61499f565b8d90613f78565b90613f78565b613b638c8e613f78565b613b539190614686565b90506000613b9a613b806004600a61499f565b613b5361012d54600a613b93919061499f565b8790613f78565b9050613ba68282613f84565b925050505b949350505050565b6000826000018281548110613bca57613bca614611565b9060005260206000200154905092915050565b600054610100900460ff16613c74576040517f08c379a000000000000000000000000000000000000000000000000000000000815260206004820152602b60248201527f496e697469616c697a61626c653a20636f6e7472616374206973206e6f74206960448201527f6e697469616c697a696e6700000000000000000000000000000000000000000060648201526084016112b2565b603380547fffffffffffffffffffffffffffffffffffffffffffffffffffffffffffffff00169055565b600054610100900460ff16613d35576040517f08c379a000000000000000000000000000000000000000000000000000000000815260206004820152602b60248201527f496e697469616c697a61626c653a20636f6e7472616374206973206e6f74206960448201527f6e697469616c697a696e6700000000000000000000000000000000000000000060648201526084016112b2565b6001606555565b600054610100900460ff16613dd3576040517f08c379a000000000000000000000000000000000000000000000000000000000815260206004820152602b60248201527f496e697469616c697a61626c653a20636f6e7472616374206973206e6f74206960448201527f6e697469616c697a696e6700000000000000000000000000000000000000000060648201526084016112b2565b565b6116408282613107565b600082815260c96020526040808220600101805490849055905190918391839186917fbd79b86ffe0ab8e8776151514217cd7cacd52c909f66475c3af44e129f0b00ff9190a4505050565b6000611f0f828461466f565b6000818152600183016020526040812054613e7d57508154600181810184556000848152602080822090930184905584548482528286019093526040902091909155611316565b506000611316565b60008181526001830160205260408120548015613f6e576000613ea960018361466f565b8554909150600090613ebd9060019061466f565b9050818114613f22576000866000018281548110613edd57613edd614611565b9060005260206000200154905080876000018481548110613f0057613f00614611565b6000918252602080832090910192909255918252600188019052604090208390555b8554869080613f3357613f336146d6565b600190038181906000526020600020016000905590558560010160008681526020019081526020016000206000905560019350505050611316565b6000915050611316565b6000611f0f828461480d565b6000611f0f82846149ab565b80357fffffffffffffffffffffffffffffffff0000000000000000000000000000000081168114613fc057600080fd5b919050565b60008060408385031215613fd857600080fd5b82359150613fe860208401613f90565b90509250929050565b60006020828403121561400357600080fd5b81357fffffffff0000000000000000000000000000000000000000000000000000000081168114611f0f57600080fd5b60006020828403121561404557600080fd5b5035919050565b6000806040838503121561405f57600080fd5b50508035926020909101359150565b73ffffffffffffffffffffffffffffffffffffffff8c811682528b811660208301528a8116604083015289811660608301528816608082015260a081018790527fffffffffffffffffffffffffffffffff00000000000000000000000000000000861660c082015260e08101859052610100810184905261012081018390526101e0810161414161014083018473ffffffffffffffffffffffffffffffffffffffff8151168252602081015160208301526040810151604083015260608101516060830152608081015160808301525050565b9c9b505050505050505050505050565b60005b8381101561416c578181015183820152602001614154565b838111156112ac5750506000910152565b602081526000825180602084015261419c816040850160208701614151565b601f017fffffffffffffffffffffffffffffffffffffffffffffffffffffffffffffffe0169190910160400192915050565b73ffffffffffffffffffffffffffffffffffffffff8116811461165857600080fd5b6000806040838503121561420357600080fd5b823591506020830135614215816141ce565b809150509250929050565b600080600080600060a0868803121561423857600080fd5b8535614243816141ce565b945060208601359350604086013560ff8116811461426057600080fd5b94979396509394606081013594506080013592915050565b6000806040838503121561428b57600080fd5b823591506020830135801515811461421557600080fd5b600080600080608085870312156142b857600080fd5b5050823594602084013594506040840135936060013592509050565b6020808252825182820181905260009190848201906040850190845b8181101561430c578351835292840192918401916001016142f0565b50909695505050505050565b60006020828403121561432a57600080fd5b8135611f0f816141ce565b60008060006060848603121561434a57600080fd5b505081359360208301359350604090920135919050565b815173ffffffffffffffffffffffffffffffffffffffff1681526101e0810160208301516143a7602084018273ffffffffffffffffffffffffffffffffffffffff169052565b5060408301516143cf604084018273ffffffffffffffffffffffffffffffffffffffff169052565b5060608301516143f7606084018273ffffffffffffffffffffffffffffffffffffffff169052565b50608083015161441f608084018273ffffffffffffffffffffffffffffffffffffffff169052565b5060a083015160a083015260c083015161445d60c08401827fffffffffffffffffffffffffffffffff00000000000000000000000000000000169052565b5060e083810151908301526101008084015190830152610120808401519083015261014080840151805173ffffffffffffffffffffffffffffffffffffffff16828501526020810151610160850152604081015161018085015260608101516101a085015260808101516101c0850152505092915050565b7f4e487b7100000000000000000000000000000000000000000000000000000000600052604160045260246000fd5b6000806000806000806000806000610180808b8d03121561452457600080fd5b8a3561452f816141ce565b995060208b810135614540816141ce565b995060408c0135614550816141ce565b985060608c0135614560816141ce565b975060808c0135614570816141ce565b965060a08c0135614580816141ce565b955060c08c0135945061459560e08d01613f90565b93508c61011f8d01126145a757600080fd5b6040516080810181811067ffffffffffffffff821117156145ca576145ca6144d5565b604052918c0191808e8411156145df57600080fd5b6101008e015b848110156145fc57803582529083019083016145e5565b50508093505050509295985092959850929598565b7f4e487b7100000000000000000000000000000000000000000000000000000000600052603260045260246000fd5b7f4e487b7100000000000000000000000000000000000000000000000000000000600052601160045260246000fd5b60008282101561468157614681614640565b500390565b6000821982111561469957614699614640565b500190565b60007fffffffffffffffffffffffffffffffffffffffffffffffffffffffffffffffff82036146cf576146cf614640565b5060010190565b7f4e487b7100000000000000000000000000000000000000000000000000000000600052603160045260246000fd5b60008351614717818460208801614151565b9190910191825250602001919050565b60006020828403121561473957600080fd5b5051919050565b7f416363657373436f6e74726f6c3a206163636f756e7420000000000000000000815260008351614778816017850160208801614151565b7f206973206d697373696e6720726f6c652000000000000000000000000000000060179184019182015283516147b5816028840160208801614151565b01602801949350505050565b7f4e487b7100000000000000000000000000000000000000000000000000000000600052602160045260246000fd5b60006020828403121561480257600080fd5b8151611f0f816141ce565b6000817fffffffffffffffffffffffffffffffffffffffffffffffffffffffffffffffff048311821515161561484557614845614640565b500290565b60008161485957614859614640565b507fffffffffffffffffffffffffffffffffffffffffffffffffffffffffffffffff0190565b600181815b808511156148d857817fffffffffffffffffffffffffffffffffffffffffffffffffffffffffffffffff048211156148be576148be614640565b808516156148cb57918102915b93841c9390800290614884565b509250929050565b6000826148ef57506001611316565b816148fc57506000611316565b8160018114614912576002811461491c57614938565b6001915050611316565b60ff84111561492d5761492d614640565b50506001821b611316565b5060208310610133831016604e8410600b841016171561495b575081810a611316565b614965838361487f565b807fffffffffffffffffffffffffffffffffffffffffffffffffffffffffffffffff0482111561499757614997614640565b029392505050565b6000611f0f83836148e0565b6000826149e1577f4e487b7100000000000000000000000000000000000000000000000000000000600052601260045260246000fd5b50049056fea264697066735822122016eea02124a29020caba516784576eabb64e596d8cc3d8475bb30e5c2c526c7864736f6c634300080d0033",
  "devdoc": {
    "kind": "dev",
    "methods": {
      "getRoleAdmin(bytes32)": {
        "details": "Returns the admin role that controls `role`. See {grantRole} and {revokeRole}. To change a role's admin, use {_setRoleAdmin}."
      },
      "getRoleMember(bytes32,uint256)": {
        "details": "Returns one of the accounts that have `role`. `index` must be a value between 0 and {getRoleMemberCount}, non-inclusive. Role bearers are not sorted in any particular way, and their ordering may change at any point. WARNING: When using {getRoleMember} and {getRoleMemberCount}, make sure you perform all queries on the same block. See the following https://forum.openzeppelin.com/t/iterating-over-elements-on-enumerableset-in-openzeppelin-contracts/2296[forum post] for more information."
      },
      "getRoleMemberCount(bytes32)": {
        "details": "Returns the number of accounts that have `role`. Can be used together with {getRoleMember} to enumerate all bearers of a role."
      },
      "grantRole(bytes32,address)": {
        "details": "Grants `role` to `account`. If `account` had not been already granted `role`, emits a {RoleGranted} event. Requirements: - the caller must have ``role``'s admin role."
      },
      "hasRole(bytes32,address)": {
        "details": "Returns `true` if `account` has been granted `role`."
      },
      "paused()": {
        "details": "Returns true if the contract is paused, and false otherwise."
      },
      "renounceRole(bytes32,address)": {
        "details": "Revokes `role` from the calling account. Roles are often managed via {grantRole} and {revokeRole}: this function's purpose is to provide a mechanism for accounts to lose their privileges if they are compromised (such as when a trusted device is misplaced). If the calling account had been revoked `role`, emits a {RoleRevoked} event. Requirements: - the caller must be `account`."
      },
      "revokeRole(bytes32,address)": {
        "details": "Revokes `role` from `account`. If `account` had been granted `role`, emits a {RoleRevoked} event. Requirements: - the caller must have ``role``'s admin role."
      },
      "supportsInterface(bytes4)": {
        "details": "See {IERC165-supportsInterface}."
      },
      "updateCollateralInfoParameters(bytes32,bytes16)": {
        "details": "TODO: Security restriction"
      },
      "updateLoanTermParameters(bytes32,bytes32)": {
        "details": "TODO: Security restriction Restriction: only if terms parameters is validated"
      }
    },
    "version": 1
  },
  "userdoc": {
    "kind": "user",
    "methods": {
      "evaluateCollateralRatio(bytes32,uint256,uint256)": {
        "notice": "Price Feed Operator will call this function to evaluate the CR and update Liquidation satus"
      },
      "get(bytes32)": {
        "notice": "Returns the parameters of a debt issuance in the entries. TODO: protect this function with our `onlyExtantEntry` modifier once the restriction on the size of the call stack has been addressed."
      },
      "getBeneficiary(bytes32)": {
        "notice": "Returns the beneficiary of a given issuance"
      },
      "getIssuanceBlockTimestamp(bytes32)": {
        "notice": "Returns the timestamp of the block at which a debt agreement was issued."
      },
      "getTerms(bytes32)": {
        "notice": "Returns a tuple of the terms contract and its associated parameters for a given issuance"
      },
      "getTermsContract(bytes32)": {
        "notice": "Returns the terms contract address of a given issuance"
      },
      "getTermsContractParameters(bytes32)": {
        "notice": "Returns the terms contract parameters of a given issuance"
      },
      "insert(address,address,address,address,address,address,bytes32,bytes16,uint256[4])": {
        "notice": "TODO: Limitation for inserting Inserts a new entry into the entries, if the entry is valid and sender is authorized to make 'insert' mutations to the entries."
      },
      "modifyBeneficiary(bytes32,address)": {
        "notice": "Modifies the beneficiary of a debt issuance, if the sender is authorized to make 'modifyBeneficiary' mutations to the entries."
      }
    },
    "version": 1
  },
  "storageLayout": {
    "storage": [
      {
        "astId": 708,
        "contract": "contracts/protocol/loan/inventory/InventoryLoanRegistry.sol:InventoryLoanRegistry",
        "label": "_initialized",
        "offset": 0,
        "slot": "0",
        "type": "t_bool"
      },
      {
        "astId": 711,
        "contract": "contracts/protocol/loan/inventory/InventoryLoanRegistry.sol:InventoryLoanRegistry",
        "label": "_initializing",
        "offset": 1,
        "slot": "0",
        "type": "t_bool"
      },
      {
        "astId": 4863,
        "contract": "contracts/protocol/loan/inventory/InventoryLoanRegistry.sol:InventoryLoanRegistry",
        "label": "__gap",
        "offset": 0,
        "slot": "1",
        "type": "t_array(t_uint256)50_storage"
      },
      {
        "astId": 796,
        "contract": "contracts/protocol/loan/inventory/InventoryLoanRegistry.sol:InventoryLoanRegistry",
        "label": "_paused",
        "offset": 0,
        "slot": "51",
        "type": "t_bool"
      },
      {
        "astId": 885,
        "contract": "contracts/protocol/loan/inventory/InventoryLoanRegistry.sol:InventoryLoanRegistry",
        "label": "__gap",
        "offset": 0,
        "slot": "52",
        "type": "t_array(t_uint256)49_storage"
      },
      {
        "astId": 900,
        "contract": "contracts/protocol/loan/inventory/InventoryLoanRegistry.sol:InventoryLoanRegistry",
        "label": "_status",
        "offset": 0,
        "slot": "101",
        "type": "t_uint256"
      },
      {
        "astId": 944,
        "contract": "contracts/protocol/loan/inventory/InventoryLoanRegistry.sol:InventoryLoanRegistry",
        "label": "__gap",
        "offset": 0,
        "slot": "102",
        "type": "t_array(t_uint256)49_storage"
      },
      {
        "astId": 5184,
        "contract": "contracts/protocol/loan/inventory/InventoryLoanRegistry.sol:InventoryLoanRegistry",
        "label": "__gap",
        "offset": 0,
        "slot": "151",
        "type": "t_array(t_uint256)50_storage"
      },
      {
        "astId": 184,
        "contract": "contracts/protocol/loan/inventory/InventoryLoanRegistry.sol:InventoryLoanRegistry",
        "label": "_roles",
        "offset": 0,
        "slot": "201",
        "type": "t_mapping(t_bytes32,t_struct(RoleData)179_storage)"
      },
      {
        "astId": 472,
        "contract": "contracts/protocol/loan/inventory/InventoryLoanRegistry.sol:InventoryLoanRegistry",
        "label": "__gap",
        "offset": 0,
        "slot": "202",
        "type": "t_array(t_uint256)49_storage"
      },
      {
        "astId": 33,
        "contract": "contracts/protocol/loan/inventory/InventoryLoanRegistry.sol:InventoryLoanRegistry",
        "label": "_roleMembers",
        "offset": 0,
        "slot": "251",
        "type": "t_mapping(t_bytes32,t_struct(AddressSet)5509_storage)"
      },
      {
        "astId": 143,
        "contract": "contracts/protocol/loan/inventory/InventoryLoanRegistry.sol:InventoryLoanRegistry",
        "label": "__gap",
        "offset": 0,
        "slot": "252",
        "type": "t_array(t_uint256)49_storage"
      },
      {
        "astId": 17661,
        "contract": "contracts/protocol/loan/inventory/InventoryLoanRegistry.sol:InventoryLoanRegistry",
        "label": "COLLATERAL_PRECISION",
        "offset": 0,
        "slot": "301",
        "type": "t_uint256"
      },
      {
        "astId": 17664,
        "contract": "contracts/protocol/loan/inventory/InventoryLoanRegistry.sol:InventoryLoanRegistry",
        "label": "PRINCIPAL_PRECISION",
        "offset": 0,
        "slot": "302",
        "type": "t_uint256"
      },
      {
        "astId": 23038,
        "contract": "contracts/protocol/loan/inventory/InventoryLoanRegistry.sol:InventoryLoanRegistry",
        "label": "registry",
        "offset": 0,
        "slot": "303",
        "type": "t_contract(Registry)31497"
      },
      {
        "astId": 23078,
        "contract": "contracts/protocol/loan/inventory/InventoryLoanRegistry.sol:InventoryLoanRegistry",
        "label": "entries",
        "offset": 0,
        "slot": "304",
        "type": "t_mapping(t_bytes32,t_struct(Entry)23073_storage)"
      },
      {
        "astId": 23083,
        "contract": "contracts/protocol/loan/inventory/InventoryLoanRegistry.sol:InventoryLoanRegistry",
        "label": "registryToInvoice",
        "offset": 0,
        "slot": "305",
        "type": "t_mapping(t_bytes32,t_array(t_uint256)dyn_storage)"
      },
      {
        "astId": 23088,
        "contract": "contracts/protocol/loan/inventory/InventoryLoanRegistry.sol:InventoryLoanRegistry",
        "label": "debtorToDebts",
        "offset": 0,
        "slot": "306",
        "type": "t_mapping(t_address,t_array(t_bytes32)dyn_storage)"
      },
      {
        "astId": 23095,
        "contract": "contracts/protocol/loan/inventory/InventoryLoanRegistry.sol:InventoryLoanRegistry",
        "label": "waitingSellCollateral",
        "offset": 0,
        "slot": "307",
        "type": "t_mapping(t_bytes32,t_mapping(t_bytes32,t_struct(SellCollateralInfo)23136_storage))"
      },
      {
        "astId": 23101,
        "contract": "contracts/protocol/loan/inventory/InventoryLoanRegistry.sol:InventoryLoanRegistry",
        "label": "waitingSellCollateralExisted",
        "offset": 0,
        "slot": "308",
        "type": "t_mapping(t_bytes32,t_mapping(t_bytes32,t_bool))"
      },
      {
        "astId": 23105,
        "contract": "contracts/protocol/loan/inventory/InventoryLoanRegistry.sol:InventoryLoanRegistry",
        "label": "liquidatedLoan",
        "offset": 0,
        "slot": "309",
        "type": "t_mapping(t_bytes32,t_bool)"
      },
      {
        "astId": 23109,
        "contract": "contracts/protocol/loan/inventory/InventoryLoanRegistry.sol:InventoryLoanRegistry",
        "label": "completedRepayment",
        "offset": 0,
        "slot": "310",
        "type": "t_mapping(t_bytes32,t_bool)"
      },
      {
        "astId": 23113,
        "contract": "contracts/protocol/loan/inventory/InventoryLoanRegistry.sol:InventoryLoanRegistry",
        "label": "repaidPrincipalAmount",
        "offset": 0,
        "slot": "311",
        "type": "t_mapping(t_bytes32,t_uint256)"
      },
      {
        "astId": 23117,
        "contract": "contracts/protocol/loan/inventory/InventoryLoanRegistry.sol:InventoryLoanRegistry",
        "label": "repaidInterestAmount",
        "offset": 0,
        "slot": "312",
        "type": "t_mapping(t_bytes32,t_uint256)"
      },
      {
        "astId": 23121,
        "contract": "contracts/protocol/loan/inventory/InventoryLoanRegistry.sol:InventoryLoanRegistry",
        "label": "completedLoans",
        "offset": 0,
        "slot": "313",
        "type": "t_mapping(t_bytes32,t_bool)"
      },
      {
        "astId": 23125,
        "contract": "contracts/protocol/loan/inventory/InventoryLoanRegistry.sol:InventoryLoanRegistry",
        "label": "manualInterestLoan",
        "offset": 0,
        "slot": "314",
        "type": "t_mapping(t_bytes32,t_bool)"
      },
      {
        "astId": 23129,
        "contract": "contracts/protocol/loan/inventory/InventoryLoanRegistry.sol:InventoryLoanRegistry",
        "label": "manualInterestAmountLoan",
        "offset": 0,
        "slot": "315",
        "type": "t_mapping(t_bytes32,t_uint256)"
      }
    ],
    "types": {
      "t_address": {
        "encoding": "inplace",
        "label": "address",
        "numberOfBytes": "20"
      },
      "t_array(t_bytes32)dyn_storage": {
        "base": "t_bytes32",
        "encoding": "dynamic_array",
        "label": "bytes32[]",
        "numberOfBytes": "32"
      },
      "t_array(t_uint256)49_storage": {
        "base": "t_uint256",
        "encoding": "inplace",
        "label": "uint256[49]",
        "numberOfBytes": "1568"
      },
      "t_array(t_uint256)50_storage": {
        "base": "t_uint256",
        "encoding": "inplace",
        "label": "uint256[50]",
        "numberOfBytes": "1600"
      },
      "t_array(t_uint256)dyn_storage": {
        "base": "t_uint256",
        "encoding": "dynamic_array",
        "label": "uint256[]",
        "numberOfBytes": "32"
      },
      "t_bool": {
        "encoding": "inplace",
        "label": "bool",
        "numberOfBytes": "1"
      },
      "t_bytes16": {
        "encoding": "inplace",
        "label": "bytes16",
        "numberOfBytes": "16"
      },
      "t_bytes32": {
        "encoding": "inplace",
        "label": "bytes32",
        "numberOfBytes": "32"
      },
      "t_contract(Registry)31497": {
        "encoding": "inplace",
        "label": "contract Registry",
        "numberOfBytes": "20"
      },
      "t_mapping(t_address,t_array(t_bytes32)dyn_storage)": {
        "encoding": "mapping",
        "key": "t_address",
        "label": "mapping(address => bytes32[])",
        "numberOfBytes": "32",
        "value": "t_array(t_bytes32)dyn_storage"
      },
      "t_mapping(t_address,t_bool)": {
        "encoding": "mapping",
        "key": "t_address",
        "label": "mapping(address => bool)",
        "numberOfBytes": "32",
        "value": "t_bool"
      },
      "t_mapping(t_bytes32,t_array(t_uint256)dyn_storage)": {
        "encoding": "mapping",
        "key": "t_bytes32",
        "label": "mapping(bytes32 => uint256[])",
        "numberOfBytes": "32",
        "value": "t_array(t_uint256)dyn_storage"
      },
      "t_mapping(t_bytes32,t_bool)": {
        "encoding": "mapping",
        "key": "t_bytes32",
        "label": "mapping(bytes32 => bool)",
        "numberOfBytes": "32",
        "value": "t_bool"
      },
      "t_mapping(t_bytes32,t_mapping(t_bytes32,t_bool))": {
        "encoding": "mapping",
        "key": "t_bytes32",
        "label": "mapping(bytes32 => mapping(bytes32 => bool))",
        "numberOfBytes": "32",
        "value": "t_mapping(t_bytes32,t_bool)"
      },
      "t_mapping(t_bytes32,t_mapping(t_bytes32,t_struct(SellCollateralInfo)23136_storage))": {
        "encoding": "mapping",
        "key": "t_bytes32",
        "label": "mapping(bytes32 => mapping(bytes32 => struct InventoryLoanRegistry.SellCollateralInfo))",
        "numberOfBytes": "32",
        "value": "t_mapping(t_bytes32,t_struct(SellCollateralInfo)23136_storage)"
      },
      "t_mapping(t_bytes32,t_struct(AddressSet)5509_storage)": {
        "encoding": "mapping",
        "key": "t_bytes32",
        "label": "mapping(bytes32 => struct EnumerableSetUpgradeable.AddressSet)",
        "numberOfBytes": "32",
        "value": "t_struct(AddressSet)5509_storage"
      },
      "t_mapping(t_bytes32,t_struct(Entry)23073_storage)": {
        "encoding": "mapping",
        "key": "t_bytes32",
        "label": "mapping(bytes32 => struct InventoryLoanRegistry.Entry)",
        "numberOfBytes": "32",
        "value": "t_struct(Entry)23073_storage"
      },
      "t_mapping(t_bytes32,t_struct(RoleData)179_storage)": {
        "encoding": "mapping",
        "key": "t_bytes32",
        "label": "mapping(bytes32 => struct AccessControlUpgradeable.RoleData)",
        "numberOfBytes": "32",
        "value": "t_struct(RoleData)179_storage"
      },
      "t_mapping(t_bytes32,t_struct(SellCollateralInfo)23136_storage)": {
        "encoding": "mapping",
        "key": "t_bytes32",
        "label": "mapping(bytes32 => struct InventoryLoanRegistry.SellCollateralInfo)",
        "numberOfBytes": "32",
        "value": "t_struct(SellCollateralInfo)23136_storage"
      },
      "t_mapping(t_bytes32,t_uint256)": {
        "encoding": "mapping",
        "key": "t_bytes32",
        "label": "mapping(bytes32 => uint256)",
        "numberOfBytes": "32",
        "value": "t_uint256"
      },
      "t_struct(AddressSet)5509_storage": {
        "encoding": "inplace",
        "label": "struct EnumerableSetUpgradeable.AddressSet",
        "members": [
          {
            "astId": 5508,
            "contract": "contracts/protocol/loan/inventory/InventoryLoanRegistry.sol:InventoryLoanRegistry",
            "label": "_inner",
            "offset": 0,
            "slot": "0",
            "type": "t_struct(Set)5208_storage"
          }
        ],
        "numberOfBytes": "64"
      },
      "t_struct(CollateralRatioValues)23049_storage": {
        "encoding": "inplace",
        "label": "struct InventoryLoanRegistry.CollateralRatioValues",
        "members": [
          {
            "astId": 23040,
            "contract": "contracts/protocol/loan/inventory/InventoryLoanRegistry.sol:InventoryLoanRegistry",
            "label": "priceFeedOperator",
            "offset": 0,
            "slot": "0",
            "type": "t_address"
          },
          {
            "astId": 23042,
            "contract": "contracts/protocol/loan/inventory/InventoryLoanRegistry.sol:InventoryLoanRegistry",
            "label": "initCollateralRatio",
            "offset": 0,
            "slot": "1",
            "type": "t_uint256"
          },
          {
            "astId": 23044,
            "contract": "contracts/protocol/loan/inventory/InventoryLoanRegistry.sol:InventoryLoanRegistry",
            "label": "lastCollateralRatio",
            "offset": 0,
            "slot": "2",
            "type": "t_uint256"
          },
          {
            "astId": 23046,
            "contract": "contracts/protocol/loan/inventory/InventoryLoanRegistry.sol:InventoryLoanRegistry",
            "label": "minCollateralRatio",
            "offset": 0,
            "slot": "3",
            "type": "t_uint256"
          },
          {
            "astId": 23048,
            "contract": "contracts/protocol/loan/inventory/InventoryLoanRegistry.sol:InventoryLoanRegistry",
            "label": "liquidationRatio",
            "offset": 0,
            "slot": "4",
            "type": "t_uint256"
          }
        ],
        "numberOfBytes": "160"
      },
      "t_struct(Entry)23073_storage": {
        "encoding": "inplace",
        "label": "struct InventoryLoanRegistry.Entry",
        "members": [
          {
            "astId": 23051,
            "contract": "contracts/protocol/loan/inventory/InventoryLoanRegistry.sol:InventoryLoanRegistry",
            "label": "version",
            "offset": 0,
            "slot": "0",
            "type": "t_address"
          },
          {
            "astId": 23053,
            "contract": "contracts/protocol/loan/inventory/InventoryLoanRegistry.sol:InventoryLoanRegistry",
            "label": "beneficiary",
            "offset": 0,
            "slot": "1",
            "type": "t_address"
          },
          {
            "astId": 23055,
            "contract": "contracts/protocol/loan/inventory/InventoryLoanRegistry.sol:InventoryLoanRegistry",
            "label": "debtor",
            "offset": 0,
            "slot": "2",
            "type": "t_address"
          },
          {
            "astId": 23057,
            "contract": "contracts/protocol/loan/inventory/InventoryLoanRegistry.sol:InventoryLoanRegistry",
            "label": "termsContract",
            "offset": 0,
            "slot": "3",
            "type": "t_address"
          },
          {
            "astId": 23059,
            "contract": "contracts/protocol/loan/inventory/InventoryLoanRegistry.sol:InventoryLoanRegistry",
            "label": "principalTokenAddress",
            "offset": 0,
            "slot": "4",
            "type": "t_address"
          },
          {
            "astId": 23061,
            "contract": "contracts/protocol/loan/inventory/InventoryLoanRegistry.sol:InventoryLoanRegistry",
            "label": "termsContractParameters",
            "offset": 0,
            "slot": "5",
            "type": "t_bytes32"
          },
          {
            "astId": 23063,
            "contract": "contracts/protocol/loan/inventory/InventoryLoanRegistry.sol:InventoryLoanRegistry",
            "label": "collateralInfoParameters",
            "offset": 0,
            "slot": "6",
            "type": "t_bytes16"
          },
          {
            "astId": 23065,
            "contract": "contracts/protocol/loan/inventory/InventoryLoanRegistry.sol:InventoryLoanRegistry",
            "label": "issuanceBlockTimestamp",
            "offset": 0,
            "slot": "7",
            "type": "t_uint256"
          },
          {
            "astId": 23067,
            "contract": "contracts/protocol/loan/inventory/InventoryLoanRegistry.sol:InventoryLoanRegistry",
            "label": "lastRepayTimestamp",
            "offset": 0,
            "slot": "8",
            "type": "t_uint256"
          },
          {
            "astId": 23069,
            "contract": "contracts/protocol/loan/inventory/InventoryLoanRegistry.sol:InventoryLoanRegistry",
            "label": "expirationTimestamp",
            "offset": 0,
            "slot": "9",
            "type": "t_uint256"
          },
          {
            "astId": 23072,
            "contract": "contracts/protocol/loan/inventory/InventoryLoanRegistry.sol:InventoryLoanRegistry",
            "label": "collateralRatioValues",
            "offset": 0,
            "slot": "10",
            "type": "t_struct(CollateralRatioValues)23049_storage"
          }
        ],
        "numberOfBytes": "480"
      },
      "t_struct(RoleData)179_storage": {
        "encoding": "inplace",
        "label": "struct AccessControlUpgradeable.RoleData",
        "members": [
          {
            "astId": 176,
            "contract": "contracts/protocol/loan/inventory/InventoryLoanRegistry.sol:InventoryLoanRegistry",
            "label": "members",
            "offset": 0,
            "slot": "0",
            "type": "t_mapping(t_address,t_bool)"
          },
          {
            "astId": 178,
            "contract": "contracts/protocol/loan/inventory/InventoryLoanRegistry.sol:InventoryLoanRegistry",
            "label": "adminRole",
            "offset": 0,
            "slot": "1",
            "type": "t_bytes32"
          }
        ],
        "numberOfBytes": "64"
      },
      "t_struct(SellCollateralInfo)23136_storage": {
        "encoding": "inplace",
        "label": "struct InventoryLoanRegistry.SellCollateralInfo",
        "members": [
          {
            "astId": 23131,
            "contract": "contracts/protocol/loan/inventory/InventoryLoanRegistry.sol:InventoryLoanRegistry",
            "label": "agreementId",
            "offset": 0,
            "slot": "0",
            "type": "t_bytes32"
          },
          {
            "astId": 23133,
            "contract": "contracts/protocol/loan/inventory/InventoryLoanRegistry.sol:InventoryLoanRegistry",
            "label": "amountPayment",
            "offset": 0,
            "slot": "1",
            "type": "t_uint256"
          },
          {
            "astId": 23135,
            "contract": "contracts/protocol/loan/inventory/InventoryLoanRegistry.sol:InventoryLoanRegistry",
            "label": "fiatTokenIndex",
            "offset": 0,
            "slot": "2",
            "type": "t_uint256"
          }
        ],
        "numberOfBytes": "96"
      },
      "t_struct(Set)5208_storage": {
        "encoding": "inplace",
        "label": "struct EnumerableSetUpgradeable.Set",
        "members": [
          {
            "astId": 5203,
            "contract": "contracts/protocol/loan/inventory/InventoryLoanRegistry.sol:InventoryLoanRegistry",
            "label": "_values",
            "offset": 0,
            "slot": "0",
            "type": "t_array(t_bytes32)dyn_storage"
          },
          {
            "astId": 5207,
            "contract": "contracts/protocol/loan/inventory/InventoryLoanRegistry.sol:InventoryLoanRegistry",
            "label": "_indexes",
            "offset": 0,
            "slot": "1",
            "type": "t_mapping(t_bytes32,t_uint256)"
          }
        ],
        "numberOfBytes": "64"
      },
      "t_uint256": {
        "encoding": "inplace",
        "label": "uint256",
        "numberOfBytes": "32"
      }
    }
  }
}