{
  "address": "0x1cef91182C2c09548c0A61C47e03c57173cB1490",
  "abi": [
    {
      "anonymous": false,
      "inputs": [
        {
          "indexed": false,
          "internalType": "uint8",
          "name": "version",
          "type": "uint8"
        }
      ],
      "name": "Initialized",
      "type": "event"
    },
    {
      "anonymous": false,
      "inputs": [
        {
          "indexed": true,
          "internalType": "bytes32",
          "name": "agreementId",
          "type": "bytes32"
        },
        {
          "indexed": true,
          "internalType": "address",
          "name": "principalToken",
          "type": "address"
        },
        {
          "indexed": false,
          "internalType": "uint256",
          "name": "principalAmount",
          "type": "uint256"
        },
        {
          "indexed": false,
          "internalType": "uint256",
          "name": "interestRate",
          "type": "uint256"
        },
        {
          "indexed": true,
          "internalType": "uint256",
          "name": "amortizationUnitType",
          "type": "uint256"
        },
        {
          "indexed": false,
          "internalType": "uint256",
          "name": "termLengthInAmortizationUnits",
          "type": "uint256"
        }
      ],
      "name": "LogInterestTermStart",
      "type": "event"
    },
    {
      "anonymous": false,
      "inputs": [
        {
          "indexed": false,
          "internalType": "bytes32",
          "name": "agreementId",
          "type": "bytes32"
        }
      ],
      "name": "LogRegisterCompleteTerm",
      "type": "event"
    },
    {
      "anonymous": false,
      "inputs": [
        {
          "indexed": false,
          "internalType": "bytes32",
          "name": "agreementId",
          "type": "bytes32"
        },
        {
          "indexed": false,
          "internalType": "address",
          "name": "payer",
          "type": "address"
        },
        {
          "indexed": false,
          "internalType": "address",
          "name": "beneficiary",
          "type": "address"
        },
        {
          "indexed": false,
          "internalType": "uint256",
          "name": "unitsOfRepayment",
          "type": "uint256"
        },
        {
          "indexed": false,
          "internalType": "address",
          "name": "tokenAddress",
          "type": "address"
        }
      ],
      "name": "LogRegisterRepayment",
      "type": "event"
    },
    {
      "anonymous": false,
      "inputs": [
        {
          "indexed": false,
          "internalType": "address",
          "name": "account",
          "type": "address"
        }
      ],
      "name": "Paused",
      "type": "event"
    },
    {
      "anonymous": false,
      "inputs": [
        {
          "indexed": true,
          "internalType": "bytes32",
          "name": "role",
          "type": "bytes32"
        },
        {
          "indexed": true,
          "internalType": "bytes32",
          "name": "previousAdminRole",
          "type": "bytes32"
        },
        {
          "indexed": true,
          "internalType": "bytes32",
          "name": "newAdminRole",
          "type": "bytes32"
        }
      ],
      "name": "RoleAdminChanged",
      "type": "event"
    },
    {
      "anonymous": false,
      "inputs": [
        {
          "indexed": true,
          "internalType": "bytes32",
          "name": "role",
          "type": "bytes32"
        },
        {
          "indexed": true,
          "internalType": "address",
          "name": "account",
          "type": "address"
        },
        {
          "indexed": true,
          "internalType": "address",
          "name": "sender",
          "type": "address"
        }
      ],
      "name": "RoleGranted",
      "type": "event"
    },
    {
      "anonymous": false,
      "inputs": [
        {
          "indexed": true,
          "internalType": "bytes32",
          "name": "role",
          "type": "bytes32"
        },
        {
          "indexed": true,
          "internalType": "address",
          "name": "account",
          "type": "address"
        },
        {
          "indexed": true,
          "internalType": "address",
          "name": "sender",
          "type": "address"
        }
      ],
      "name": "RoleRevoked",
      "type": "event"
    },
    {
      "anonymous": false,
      "inputs": [
        {
          "indexed": false,
          "internalType": "address",
          "name": "account",
          "type": "address"
        }
      ],
      "name": "Unpaused",
      "type": "event"
    },
    {
      "inputs": [],
      "name": "DAY_LENGTH_IN_SECONDS",
      "outputs": [
        {
          "internalType": "uint256",
          "name": "",
          "type": "uint256"
        }
      ],
      "stateMutability": "view",
      "type": "function"
    },
    {
      "inputs": [],
      "name": "DEFAULT_ADMIN_ROLE",
      "outputs": [
        {
          "internalType": "bytes32",
          "name": "",
          "type": "bytes32"
        }
      ],
      "stateMutability": "view",
      "type": "function"
    },
    {
      "inputs": [],
      "name": "HOUR_LENGTH_IN_SECONDS",
      "outputs": [
        {
          "internalType": "uint256",
          "name": "",
          "type": "uint256"
        }
      ],
      "stateMutability": "view",
      "type": "function"
    },
    {
      "inputs": [],
      "name": "INTEREST_RATE_SCALING_FACTOR_MULTIPLIER",
      "outputs": [
        {
          "internalType": "uint256",
          "name": "",
          "type": "uint256"
        }
      ],
      "stateMutability": "view",
      "type": "function"
    },
    {
      "inputs": [],
      "name": "INTEREST_RATE_SCALING_FACTOR_PERCENT",
      "outputs": [
        {
          "internalType": "uint256",
          "name": "",
          "type": "uint256"
        }
      ],
      "stateMutability": "view",
      "type": "function"
    },
    {
      "inputs": [],
      "name": "MINUTE_LENGTH_IN_SECONDS",
      "outputs": [
        {
          "internalType": "uint256",
          "name": "",
          "type": "uint256"
        }
      ],
      "stateMutability": "view",
      "type": "function"
    },
    {
      "inputs": [],
      "name": "MONTH_LENGTH_IN_SECONDS",
      "outputs": [
        {
          "internalType": "uint256",
          "name": "",
          "type": "uint256"
        }
      ],
      "stateMutability": "view",
      "type": "function"
    },
    {
      "inputs": [],
      "name": "NUM_AMORTIZATION_UNIT_TYPES",
      "outputs": [
        {
          "internalType": "uint256",
          "name": "",
          "type": "uint256"
        }
      ],
      "stateMutability": "view",
      "type": "function"
    },
    {
      "inputs": [],
      "name": "OWNER_ROLE",
      "outputs": [
        {
          "internalType": "bytes32",
          "name": "",
          "type": "bytes32"
        }
      ],
      "stateMutability": "view",
      "type": "function"
    },
    {
      "inputs": [],
      "name": "WEEK_LENGTH_IN_SECONDS",
      "outputs": [
        {
          "internalType": "uint256",
          "name": "",
          "type": "uint256"
        }
      ],
      "stateMutability": "view",
      "type": "function"
    },
    {
      "inputs": [],
      "name": "YEAR_LENGTH_IN_DAYS",
      "outputs": [
        {
          "internalType": "uint256",
          "name": "",
          "type": "uint256"
        }
      ],
      "stateMutability": "view",
      "type": "function"
    },
    {
      "inputs": [],
      "name": "YEAR_LENGTH_IN_SECONDS",
      "outputs": [
        {
          "internalType": "uint256",
          "name": "",
          "type": "uint256"
        }
      ],
      "stateMutability": "view",
      "type": "function"
    },
    {
      "inputs": [
        {
          "internalType": "bytes32",
          "name": "",
          "type": "bytes32"
        }
      ],
      "name": "completedRepayment",
      "outputs": [
        {
          "internalType": "bool",
          "name": "",
          "type": "bool"
        }
      ],
      "stateMutability": "view",
      "type": "function"
    },
    {
      "inputs": [
        {
          "internalType": "bytes32",
          "name": "agreementId",
          "type": "bytes32"
        },
        {
          "internalType": "uint256",
          "name": "timestamp",
          "type": "uint256"
        }
      ],
      "name": "getExpectedRepaymentValues",
      "outputs": [
        {
          "internalType": "uint256",
          "name": "expectedPrincipal",
          "type": "uint256"
        },
        {
          "internalType": "uint256",
          "name": "expectedInterest",
          "type": "uint256"
        }
      ],
      "stateMutability": "view",
      "type": "function"
    },
    {
      "inputs": [],
      "name": "getInitializedVersion",
      "outputs": [
        {
          "internalType": "uint256",
          "name": "",
          "type": "uint256"
        }
      ],
      "stateMutability": "view",
      "type": "function"
    },
    {
      "inputs": [
        {
          "internalType": "bytes32",
          "name": "agreementId",
          "type": "bytes32"
        }
      ],
      "name": "getInterestRate",
      "outputs": [
        {
          "internalType": "uint256",
          "name": "",
          "type": "uint256"
        }
      ],
      "stateMutability": "view",
      "type": "function"
    },
    {
      "inputs": [
        {
          "internalType": "bytes32[]",
          "name": "agreementIds",
          "type": "bytes32[]"
        },
        {
          "internalType": "uint256",
          "name": "timestamp",
          "type": "uint256"
        }
      ],
      "name": "getMultiExpectedRepaymentValues",
      "outputs": [
        {
          "internalType": "uint256[]",
          "name": "",
          "type": "uint256[]"
        },
        {
          "internalType": "uint256[]",
          "name": "",
          "type": "uint256[]"
        }
      ],
      "stateMutability": "view",
      "type": "function"
    },
    {
      "inputs": [
        {
          "internalType": "bytes32",
          "name": "role",
          "type": "bytes32"
        }
      ],
      "name": "getRoleAdmin",
      "outputs": [
        {
          "internalType": "bytes32",
          "name": "",
          "type": "bytes32"
        }
      ],
      "stateMutability": "view",
      "type": "function"
    },
    {
      "inputs": [
        {
          "internalType": "bytes32",
          "name": "role",
          "type": "bytes32"
        },
        {
          "internalType": "uint256",
          "name": "index",
          "type": "uint256"
        }
      ],
      "name": "getRoleMember",
      "outputs": [
        {
          "internalType": "address",
          "name": "",
          "type": "address"
        }
      ],
      "stateMutability": "view",
      "type": "function"
    },
    {
      "inputs": [
        {
          "internalType": "bytes32",
          "name": "role",
          "type": "bytes32"
        }
      ],
      "name": "getRoleMemberCount",
      "outputs": [
        {
          "internalType": "uint256",
          "name": "",
          "type": "uint256"
        }
      ],
      "stateMutability": "view",
      "type": "function"
    },
    {
      "inputs": [
        {
          "internalType": "bytes32",
          "name": "agreementId",
          "type": "bytes32"
        }
      ],
      "name": "getValueRepaidToDate",
      "outputs": [
        {
          "internalType": "uint256",
          "name": "",
          "type": "uint256"
        },
        {
          "internalType": "uint256",
          "name": "",
          "type": "uint256"
        }
      ],
      "stateMutability": "view",
      "type": "function"
    },
    {
      "inputs": [
        {
          "internalType": "bytes32",
          "name": "role",
          "type": "bytes32"
        },
        {
          "internalType": "address",
          "name": "account",
          "type": "address"
        }
      ],
      "name": "grantRole",
      "outputs": [],
      "stateMutability": "nonpayable",
      "type": "function"
    },
    {
      "inputs": [
        {
          "internalType": "bytes32",
          "name": "role",
          "type": "bytes32"
        },
        {
          "internalType": "address",
          "name": "account",
          "type": "address"
        }
      ],
      "name": "hasRole",
      "outputs": [
        {
          "internalType": "bool",
          "name": "",
          "type": "bool"
        }
      ],
      "stateMutability": "view",
      "type": "function"
    },
    {
      "inputs": [
        {
          "internalType": "contract Registry",
          "name": "_registry",
          "type": "address"
        }
      ],
      "name": "initialize",
      "outputs": [],
      "stateMutability": "nonpayable",
      "type": "function"
    },
    {
      "inputs": [],
      "name": "isAdmin",
      "outputs": [
        {
          "internalType": "bool",
          "name": "",
          "type": "bool"
        }
      ],
      "stateMutability": "view",
      "type": "function"
    },
    {
      "inputs": [
        {
          "internalType": "bytes32[]",
          "name": "agreementIds",
          "type": "bytes32[]"
        }
      ],
      "name": "isCompletedRepayments",
      "outputs": [
        {
          "internalType": "bool[]",
          "name": "",
          "type": "bool[]"
        }
      ],
      "stateMutability": "view",
      "type": "function"
    },
    {
      "inputs": [],
      "name": "pause",
      "outputs": [],
      "stateMutability": "nonpayable",
      "type": "function"
    },
    {
      "inputs": [],
      "name": "paused",
      "outputs": [
        {
          "internalType": "bool",
          "name": "",
          "type": "bool"
        }
      ],
      "stateMutability": "view",
      "type": "function"
    },
    {
      "inputs": [
        {
          "internalType": "bytes32",
          "name": "agreementId",
          "type": "bytes32"
        }
      ],
      "name": "registerConcludeLoan",
      "outputs": [
        {
          "internalType": "bool",
          "name": "",
          "type": "bool"
        }
      ],
      "stateMutability": "nonpayable",
      "type": "function"
    },
    {
      "inputs": [
        {
          "internalType": "bytes32",
          "name": "agreementId",
          "type": "bytes32"
        },
        {
          "internalType": "address",
          "name": "payer",
          "type": "address"
        },
        {
          "internalType": "address",
          "name": "beneficiary",
          "type": "address"
        },
        {
          "internalType": "uint256",
          "name": "unitsOfRepayment",
          "type": "uint256"
        },
        {
          "internalType": "address",
          "name": "tokenAddress",
          "type": "address"
        }
      ],
      "name": "registerRepayment",
      "outputs": [
        {
          "internalType": "uint256",
          "name": "remains",
          "type": "uint256"
        }
      ],
      "stateMutability": "nonpayable",
      "type": "function"
    },
    {
      "inputs": [
        {
          "internalType": "bytes32",
          "name": "agreementId",
          "type": "bytes32"
        }
      ],
      "name": "registerTermStart",
      "outputs": [
        {
          "internalType": "bool",
          "name": "",
          "type": "bool"
        }
      ],
      "stateMutability": "nonpayable",
      "type": "function"
    },
    {
      "inputs": [],
      "name": "registry",
      "outputs": [
        {
          "internalType": "contract Registry",
          "name": "",
          "type": "address"
        }
      ],
      "stateMutability": "view",
      "type": "function"
    },
    {
      "inputs": [
        {
          "internalType": "bytes32",
          "name": "role",
          "type": "bytes32"
        },
        {
          "internalType": "address",
          "name": "account",
          "type": "address"
        }
      ],
      "name": "renounceRole",
      "outputs": [],
      "stateMutability": "nonpayable",
      "type": "function"
    },
    {
      "inputs": [
        {
          "internalType": "bytes32",
          "name": "",
          "type": "bytes32"
        }
      ],
      "name": "repaidInterestAmounts",
      "outputs": [
        {
          "internalType": "uint256",
          "name": "",
          "type": "uint256"
        }
      ],
      "stateMutability": "view",
      "type": "function"
    },
    {
      "inputs": [
        {
          "internalType": "bytes32",
          "name": "",
          "type": "bytes32"
        }
      ],
      "name": "repaidPrincipalAmounts",
      "outputs": [
        {
          "internalType": "uint256",
          "name": "",
          "type": "uint256"
        }
      ],
      "stateMutability": "view",
      "type": "function"
    },
    {
      "inputs": [
        {
          "internalType": "bytes32",
          "name": "role",
          "type": "bytes32"
        },
        {
          "internalType": "address",
          "name": "account",
          "type": "address"
        }
      ],
      "name": "revokeRole",
      "outputs": [],
      "stateMutability": "nonpayable",
      "type": "function"
    },
    {
      "inputs": [
        {
          "internalType": "bytes32",
          "name": "role",
          "type": "bytes32"
        },
        {
          "internalType": "bytes32",
          "name": "adminRole",
          "type": "bytes32"
        }
      ],
      "name": "setRoleAdmin",
      "outputs": [],
      "stateMutability": "nonpayable",
      "type": "function"
    },
    {
      "inputs": [
        {
          "internalType": "bytes32",
          "name": "",
          "type": "bytes32"
        }
      ],
      "name": "startedLoan",
      "outputs": [
        {
          "internalType": "bool",
          "name": "",
          "type": "bool"
        }
      ],
      "stateMutability": "view",
      "type": "function"
    },
    {
      "inputs": [
        {
          "internalType": "bytes4",
          "name": "interfaceId",
          "type": "bytes4"
        }
      ],
      "name": "supportsInterface",
      "outputs": [
        {
          "internalType": "bool",
          "name": "",
          "type": "bool"
        }
      ],
      "stateMutability": "view",
      "type": "function"
    },
    {
      "inputs": [
        {
          "internalType": "bytes32",
          "name": "agreementId",
          "type": "bytes32"
        }
      ],
      "name": "unpackParamsForAgreementID",
      "outputs": [
        {
          "components": [
            {
              "internalType": "uint256",
              "name": "principalAmount",
              "type": "uint256"
            },
            {
              "internalType": "uint256",
              "name": "termStartUnixTimestamp",
              "type": "uint256"
            },
            {
              "internalType": "uint256",
              "name": "termEndUnixTimestamp",
              "type": "uint256"
            },
            {
              "internalType": "enum UnpackLoanParamtersLib.AmortizationUnitType",
              "name": "amortizationUnitType",
              "type": "uint8"
            },
            {
              "internalType": "uint256",
              "name": "termLengthInAmortizationUnits",
              "type": "uint256"
            },
            {
              "internalType": "uint256",
              "name": "interestRate",
              "type": "uint256"
            }
          ],
          "internalType": "struct UnpackLoanParamtersLib.InterestParams",
          "name": "params",
          "type": "tuple"
        }
      ],
      "stateMutability": "view",
      "type": "function"
    },
    {
      "inputs": [],
      "name": "unpause",
      "outputs": [],
      "stateMutability": "nonpayable",
      "type": "function"
    }
  ],
  "transactionHash": "0x0653d312af54aa47aef915ae7671b34fdff2935b8786164a1fd63115a210a104",
  "args": [],
  "numDeployments": 1,
  "solcInputHash": "81f05bc4f158b068cd6774ae165361b6",
  "bytecode": "0x608060405234801561001057600080fd5b50612a0f806100206000396000f3fe608060405234801561001057600080fd5b50600436106102535760003560e01c80636d39868811610146578063ab15de52116100c3578063d547741f11610087578063d547741f14610533578063de53a13c14610546578063e58378bb1461054e578063e6774a0714610563578063f9750cb314610587578063fd127a411461059a57600080fd5b8063ab15de52146104f1578063b3c65015146104fa578063b6db75a014610505578063c4d66de81461050d578063ca15c8731461052057600080fd5b80639010d07c1161010a5780639010d07c1461049a57806391d14854146104ad57806393529cdf146104c05780639700c92b146104c9578063a217fddf146104e957600080fd5b80636d398688146104435780636f69c96f146104565780637b1039991461045e5780638456cb591461048a5780638b47e58a1461049257600080fd5b80632f2ff15d116101d4578063522000791161019857806352200079146103cd5780635c975abb146103ee5780635cac0ebb146103f95780635f0280ba1461041d57806366a9482c1461043057600080fd5b80632f2ff15d1461037657806336568abe146103895780633f4ba83a1461039c57806340018a0d146103a4578063403ffe7c146103ac57600080fd5b8063248a9ca31161021b578063248a9ca3146102f757806324ae27a11461031a578063267fd1cc1461033b57806327f6ad991461035b578063282b34051461036357600080fd5b806301ffc9a71461025857806303a896a11461028057806307762982146102c45780631e4e0091146102da57806320863894146102ef575b600080fd5b61026b610266366004612374565b6105a2565b60405190151581526020015b60405180910390f35b6102af61028e36600461239e565b60009081526101616020908152604080832054610162909252909120549091565b60408051928352602083019190915201610277565b6102cc6105cd565b604051908152602001610277565b6102ed6102e83660046123b7565b6105e6565b005b6102cc610600565b6102cc61030536600461239e565b600090815260c9602052604090206001015490565b6102cc61032836600461239e565b6101616020526000908152604090205481565b61034e61034936600461239e565b610621565b60405161027791906123ef565b6102cc603c81565b61026b61037136600461239e565b6107c4565b6102ed610384366004612468565b6108fa565b6102ed610397366004612468565b61091f565b6102ed61099d565b6102cc6109b3565b6102cc6103ba36600461239e565b6101626020526000908152604090205481565b6103e06103db366004612549565b6109d4565b6040516102779291906125c9565b60335460ff1661026b565b61026b61040736600461239e565b6101636020526000908152604090205460ff1681565b6102cc61042b3660046125ee565b610af3565b61026b61043e36600461239e565b610fb1565b6102af6104513660046123b7565b61109a565b6102cc611257565b61015f54610472906001600160a01b031681565b6040516001600160a01b039091168152602001610277565b6102ed611262565b6102cc600681565b6104726104a83660046123b7565b611275565b61026b6104bb366004612468565b611294565b6102cc61271081565b6104dc6104d736600461264d565b6112bf565b604051610277919061268a565b6102cc600081565b6102cc61016d81565b60005460ff166102cc565b61026b611385565b6102ed61051b3660046126d0565b6113a4565b6102cc61052e36600461239e565b6114d2565b6102ed610541366004612468565b6114e9565b6102cc61150e565b6102cc6000805160206129ba83398151915281565b61026b61057136600461239e565b6101606020526000908152604090205460ff1681565b6102cc61059536600461239e565b61151b565b6102cc611530565b60006001600160e01b03198216635a05180f60e01b14806105c757506105c782611553565b92915050565b6105d8603c80612703565b6105e3906018612703565b81565b60006105f181611588565b6105fb8383611592565b505050565b61060b603c80612703565b610616906018612703565b6105e390601e612703565b61062961232d565b61015f5460009081908190610646906001600160a01b03166115dd565b60405163d69dbf6360e01b8152600481018790529091506001600160a01b0382169063d69dbf6390602401602060405180830381865afa15801561068e573d6000803e3d6000fd5b505050506040513d601f19601f820116820180604052508101906106b2919061271a565b6040516318a5291760e11b8152600481018790529092506001600160a01b0382169063314a522e90602401602060405180830381865afa1580156106fa573d6000803e3d6000fd5b505050506040513d601f19601f8201168201806040525081019061071e919061271a565b92506000806000806000610731886115ea565b9398509196509450925090506000836005811115610751576107516123d9565b9050600061075e8261160d565b6107689085612703565b90506040518060c001604052808881526020018a81526020018a8361078d9190612733565b81526020018360058111156107a4576107a46123d9565b8152602001858152602001878152509a5050505050505050505050919050565b60006107ce61177a565b61015f546107e4906001600160a01b03166117c2565b6001600160a01b0316336001600160a01b0316146108615760405162461bcd60e51b815260206004820152602f60248201527f4c6f616e496e7465726573745465726d73436f6e74726163743a204f6e6c792060448201526e3337b9102637b0b725b2b93732b61760891b60648201526084015b60405180910390fd5b60008281526101606020526040902054829060ff16156108d85760405162461bcd60e51b815260206004820152602c60248201527f4c6f616e496e7465726573745465726d73436f6e74726163743a204c6f616e2060448201526b68617320737461727465642160a01b6064820152608401610858565b5050600090815261016060205260409020805460ff1916600190811790915590565b600082815260c9602052604090206001015461091581611588565b6105fb83836117cf565b6001600160a01b038116331461098f5760405162461bcd60e51b815260206004820152602f60248201527f416363657373436f6e74726f6c3a2063616e206f6e6c792072656e6f756e636560448201526e103937b632b9903337b91039b2b63360891b6064820152608401610858565b61099982826117f1565b5050565b60006109a881611588565b6109b0611813565b50565b6109be603c80612703565b6109c9906018612703565b6105e3906007612703565b6060806000845167ffffffffffffffff8111156109f3576109f3612498565b604051908082528060200260200182016040528015610a1c578160200160208202803683370190505b5090506000855167ffffffffffffffff811115610a3b57610a3b612498565b604051908082528060200260200182016040528015610a64578160200160208202803683370190505b50865190915060005b81811015610ae657600080610a9b8a8481518110610a8d57610a8d612746565b60200260200101518a61109a565b9150915081868481518110610ab257610ab2612746565b60200260200101818152505080858481518110610ad157610ad1612746565b60209081029190910101525050600101610a6d565b5091969095509350505050565b61015f54600090610b0c906001600160a01b0316611865565b6001600160a01b0316336001600160a01b031614610b8a5760405162461bcd60e51b815260206004820152603560248201527f4c6f616e496e7465726573745465726d73436f6e74726163743a204f6e6c79206044820152743337b9102932b830bcb6b2b73a102937baba32b91760591b6064820152608401610858565b61015f54600090610ba3906001600160a01b03166115dd565b60405163485f113960e11b8152600481018990529091506001600160a01b038216906390be227290602401602060405180830381865afa158015610beb573d6000803e3d6000fd5b505050506040513d601f19601f82011682018060405250810190610c0f919061275c565b6001600160a01b0316836001600160a01b031614610c875760405162461bcd60e51b815260206004820152602f60248201527f4c6f616e5465726d73436f6e74726163743a20496e76616c696420746f6b656e60448201526e103337b9103932b830bcb6b2b73a1760891b6064820152608401610858565b6040516327527eab60e21b8152600481018890526001600160a01b03821690639d49faac90602401602060405180830381865afa158015610ccc573d6000803e3d6000fd5b505050506040513d601f19601f82011682018060405250810190610cf09190612779565b15610d485760405162461bcd60e51b815260206004820152602260248201527f4c6f616e5465726d73436f6e74726163743a20436f6d706c65746564204c6f61604482015261371760f11b6064820152608401610858565b6000878152610160602052604090205460ff16610dbc5760405162461bcd60e51b815260206004820152602c60248201527f4c6f616e5465726d73436f6e74726163743a204c6f616e20686173206e6f742060448201526b39ba30b93a32b2103cb2ba1760a11b6064820152608401610858565b42600080610dca8a8461109a565b909250905080871015610e455760405162461bcd60e51b815260206004820152603760248201527f4c6f616e5465726d73436f6e74726163743a20457870656374656420696e746560448201527f7265737420616d6f756e74206973206d696e696d756d2e0000000000000000006064820152608401610858565b610e4f8183612733565b8710610ea457610e758a600090815261016360205260409020805460ff19166001179055565b610e7f8a82611872565b610e898a8361189a565b610e938183612733565b610e9d908861279b565b9450610eea565b80600003610ebb57610eb68a8861189a565b610eea565b610ec58a82611872565b6000610ed1828961279b565b1115610eea57610eea8a610ee5838a61279b565b61189a565b6040516302a8e84760e41b8152600481018b9052602481018490526001600160a01b03851690632a8e847090604401600060405180830381600087803b158015610f3357600080fd5b505af1158015610f47573d6000803e3d6000fd5b5050604080518d81526001600160a01b038d811660208301528c811682840152606082018c90528a16608082015290517ff1a888d220228f843ac3044ef257c80642e6434d1ddc7ebee0a2813cced3406c93509081900360a0019150a15050505095945050505050565b6000610fbb61177a565b610fc36118b9565b610fda3361015f546001600160a01b031690611912565b61015f54610ff0906001600160a01b03166115dd565b6001600160a01b031663c5dd98db836040518263ffffffff1660e01b815260040161101d91815260200190565b600060405180830381600087803b15801561103757600080fd5b505af115801561104b573d6000803e3d6000fd5b505050507ffb55162d7d75d304c4c34c49faf91903cfb0b57b3d5d73734574851314bc8db98260405161108091815260200190565b60405180910390a15060016110956001606555565b919050565b60008060006110a885610621565b61015f549091506000906110c4906001600160a01b03166115dd565b60008781526101616020908152604080832054610162909252808320549051631252f52160e21b8152600481018b905293945090929091906001600160a01b0385169063494bd48490602401602060405180830381865afa15801561112d573d6000803e3d6000fd5b505050506040513d601f19601f82011682018060405250810190611151919061271a565b604051634be13dcb60e01b8152600481018b90529091506000906001600160a01b03861690634be13dcb90602401602060405180830381865afa15801561119c573d6000803e3d6000fd5b505050506040513d601f19601f820116820180604052508101906111c09190612779565b90506000811561123657604051634659e94f60e01b8152600481018c90526001600160a01b03871690634659e94f90602401602060405180830381865afa15801561120f573d6000803e3d6000fd5b505050506040513d601f19601f82011682018060405250810190611233919061271a565b90505b61124587848c8888878761197b565b909c909b509950505050505050505050565b6105e3603c80612703565b600061126d81611588565b6109b06119d3565b600082815260fb6020526040812061128d9083611a10565b9392505050565b600091825260c9602090815260408084206001600160a01b0393909316845291905290205460ff1690565b60606000825167ffffffffffffffff8111156112dd576112dd612498565b604051908082528060200260200182016040528015611306578160200160208202803683370190505b50835190915060005b8181101561137c57610163600086838151811061132e5761132e612746565b6020026020010151815260200190815260200160002060009054906101000a900460ff1683828151811061136457611364612746565b9115156020928302919091019091015260010161130f565b50909392505050565b600061139f6000805160206129ba83398151915233611294565b905090565b600054610100900460ff16158080156113c45750600054600160ff909116105b806113de5750303b1580156113de575060005460ff166001145b6114415760405162461bcd60e51b815260206004820152602e60248201527f496e697469616c697a61626c653a20636f6e747261637420697320616c72656160448201526d191e481a5b9a5d1a585b1a5e995960921b6064820152608401610858565b6000805460ff191660011790558015611464576000805461ff0019166101001790555b61146d33611a1c565b61015f80546001600160a01b0319166001600160a01b0384161790558015610999576000805461ff0019169055604051600181527f7f26b83ff96e1f2b6a682f133852f6798a09c465da95921460cefb38474024989060200160405180910390a15050565b600081815260fb602052604081206105c790611ad3565b600082815260c9602052604090206001015461150481611588565b6105fb83836117f1565b6105e36127106064612703565b600061152682610621565b60a0015192915050565b61016d61153e603c80612703565b611549906018612703565b6105e39190612703565b60006001600160e01b03198216637965db0b60e01b14806105c757506301ffc9a760e01b6001600160e01b03198316146105c7565b6109b08133611add565b600082815260c96020526040808220600101805490849055905190918391839186917fbd79b86ffe0ab8e8776151514217cd7cacd52c909f66475c3af44e129f0b00ff9190a4505050565b60006105c782600a611b36565b60008060008060006115fb86611bbb565b939a9299509097509550909350915050565b600080826005811115611622576116226123d9565b0361162f5750603c919050565b6001826005811115611643576116436123d9565b03611653576105c7603c80612703565b6002826005811115611667576116676123d9565b0361168257611677603c80612703565b6105c7906018612703565b6003826005811115611696576116966123d9565b036116bc576116a6603c80612703565b6116b1906018612703565b6105c7906007612703565b60048260058111156116d0576116d06123d9565b036116f6576116e0603c80612703565b6116eb906018612703565b6105c790601e612703565b600582600581111561170a5761170a6123d9565b036117325761016d61171d603c80612703565b611728906018612703565b6105c79190612703565b60405162461bcd60e51b815260206004820152601f60248201527f556e6b6e6f776e20616d6f7274697a6174696f6e20756e697420747970652e006044820152606401610858565b60335460ff16156117c05760405162461bcd60e51b815260206004820152601060248201526f14185d5cd8589b194e881c185d5cd95960821b6044820152606401610858565b565b60006105c782600d611b36565b6117d98282611c4b565b600082815260fb602052604090206105fb9082611cd1565b6117fb8282611ce6565b600082815260fb602052604090206105fb9082611d4d565b61181b611d62565b6033805460ff191690557f5db9ee0a495bf2e6ff9c91a7834c1ba4fdd244a5e8aa4e537bd38aeae4b073aa335b6040516001600160a01b03909116815260200160405180910390a1565b60006105c782600c611b36565b6000828152610162602052604081208054839290611891908490612733565b90915550505050565b6000828152610161602052604081208054839290611891908490612733565b60026065540361190b5760405162461bcd60e51b815260206004820152601f60248201527f5265656e7472616e637947756172643a207265656e7472616e742063616c6c006044820152606401610858565b6002606555565b61191b826117c2565b6001600160a01b0316816001600160a01b0316146109995760405162461bcd60e51b815260206004820152601960248201527f52656769737472793a204f6e6c79204c6f616e4b65726e656c000000000000006044820152606401610858565b6000806000868a60000151611990919061279b565b905080925084156119a3578391506119c6565b6119c38a6000015182888d60a001518e602001518f604001518f8f611dab565b91505b5097509795505050505050565b6119db61177a565b6033805460ff191660011790557f62e78cea01bee320cd4e420270b5ea74000d11b0c9f74754ebdbfc544b05a2586118483390565b600061128d8383611e71565b600054610100900460ff16611a875760405162461bcd60e51b815260206004820152602b60248201527f496e697469616c697a61626c653a20636f6e7472616374206973206e6f74206960448201526a6e697469616c697a696e6760a81b6064820152608401610858565b6001600160a01b038116611a985750335b611aa3600033611e9b565b611abb6000805160206129ba83398151915282611e9b565b6109b06000805160206129ba83398151915280611592565b60006105c7825490565b611ae78282611294565b61099957611af481611ea5565b611aff836020611eb7565b604051602001611b109291906127d2565b60408051601f198184030181529082905262461bcd60e51b825261085891600401612847565b6000826001600160a01b031663bcaa0c5583601a811115611b5957611b596123d9565b6040516001600160e01b031960e084901b16815260ff9091166004820152602401602060405180830381865afa158015611b97573d6000803e3d6000fd5b505050506040513d601f19601f8201168201806040525081019061128d919061275c565b6000808080806bffffffffffffffffffffffff60981b861662ffffff60801b8716600f607c1b88166f0ffffffffffffffffffffffff00000008916630ff000008a16611c08856098612053565b611c13856080612053565b611c1e85607c612053565b611c2985601c612053565b611c34856014612053565b939f929e50909c509a509098509650505050505050565b611c558282611294565b61099957600082815260c9602090815260408083206001600160a01b03851684529091529020805460ff19166001179055611c8d3390565b6001600160a01b0316816001600160a01b0316837f2f8788117e7eff1d82e926ec794901d17c78024a50270940304540a733656f0d60405160405180910390a45050565b600061128d836001600160a01b03841661206a565b611cf08282611294565b1561099957600082815260c9602090815260408083206001600160a01b0385168085529252808320805460ff1916905551339285917ff6391f5c32d9c69d2a47ea670b442974b53935d1edc7fd64eb21e047a839171b9190a45050565b600061128d836001600160a01b0384166120b9565b60335460ff166117c05760405162461bcd60e51b815260206004820152601460248201527314185d5cd8589b194e881b9bdd081c185d5cd95960621b6044820152606401610858565b6000848211611dbc57506000611e65565b600080848410611dd557611dd0858561279b565b611dd8565b60005b90506000878510611df257611ded888661279b565b611df5565b60005b905086851015611e4057858511158015611e0f575060008a115b15611e1d5760009250611e5f565b8915611e3557611e2e8b8a846121ac565b9250611e5f565b611e2e8c8a836121ac565b8915611e5157611e2e8b8a846121ac565b611e5c8c8a836121ac565b92505b50909150505b98975050505050505050565b6000826000018281548110611e8857611e88612746565b9060005260206000200154905092915050565b61099982826117cf565b60606105c76001600160a01b03831660145b60606000611ec6836002612703565b611ed1906002612733565b67ffffffffffffffff811115611ee957611ee9612498565b6040519080825280601f01601f191660200182016040528015611f13576020820181803683370190505b509050600360fc1b81600081518110611f2e57611f2e612746565b60200101906001600160f81b031916908160001a905350600f60fb1b81600181518110611f5d57611f5d612746565b60200101906001600160f81b031916908160001a9053506000611f81846002612703565b611f8c906001612733565b90505b6001811115612004576f181899199a1a9b1b9c1cb0b131b232b360811b85600f1660108110611fc057611fc0612746565b1a60f81b828281518110611fd657611fd6612746565b60200101906001600160f81b031916908160001a90535060049490941c93611ffd8161287a565b9050611f8f565b50831561128d5760405162461bcd60e51b815260206004820181905260248201527f537472696e67733a20686578206c656e67746820696e73756666696369656e746044820152606401610858565b6000612060826002612975565b61128d9084612981565b60008181526001830160205260408120546120b1575081546001818101845560008481526020808220909301849055845484825282860190935260409020919091556105c7565b5060006105c7565b600081815260018301602052604081205480156121a25760006120dd60018361279b565b85549091506000906120f19060019061279b565b905081811461215657600086600001828154811061211157612111612746565b906000526020600020015490508087600001848154811061213457612134612746565b6000918252602080832090910192909255918252600188019052604090208390555b8554869080612167576121676129a3565b6001900381819060005260206000200160009055905585600101600086815260200190815260200160002060009055600193505050506105c7565b60009150506105c7565b60008061016d6121bd603c80612703565b6121c8906018612703565b6121d29190612703565b60646127106121ed6b033b2e3c9fd0803ce800000088612703565b6121f79190612981565b6122019190612981565b61220b9190612981565b612221906b033b2e3c9fd0803ce8000000612733565b9050846b033b2e3c9fd0803ce800000061224883866b033b2e3c9fd0803ce800000061226f565b6122529088612703565b61225c9190612981565b612266919061279b565b95945050505050565b600083801561230f5760018416801561228a5785925061228e565b8392505b50600283046002850494505b84156123095785860286878204146122b157600080fd5b818101818110156122c157600080fd5b85900496505060018516156122fe5785830283878204141587151516156122e757600080fd5b818101818110156122f757600080fd5b8590049350505b60028504945061229a565b50612325565b83801561231f5760009250612323565b8392505b505b509392505050565b6040518060c0016040528060008152602001600081526020016000815260200160006005811115612360576123606123d9565b815260200160008152602001600081525090565b60006020828403121561238657600080fd5b81356001600160e01b03198116811461128d57600080fd5b6000602082840312156123b057600080fd5b5035919050565b600080604083850312156123ca57600080fd5b50508035926020909101359150565b634e487b7160e01b600052602160045260246000fd5b600060c08201905082518252602083015160208301526040830151604083015260608301516006811061243257634e487b7160e01b600052602160045260246000fd5b806060840152506080830151608083015260a083015160a083015292915050565b6001600160a01b03811681146109b057600080fd5b6000806040838503121561247b57600080fd5b82359150602083013561248d81612453565b809150509250929050565b634e487b7160e01b600052604160045260246000fd5b600082601f8301126124bf57600080fd5b8135602067ffffffffffffffff808311156124dc576124dc612498565b8260051b604051601f19603f8301168101818110848211171561250157612501612498565b60405293845285810183019383810192508785111561251f57600080fd5b83870191505b8482101561253e57813583529183019190830190612525565b979650505050505050565b6000806040838503121561255c57600080fd5b823567ffffffffffffffff81111561257357600080fd5b61257f858286016124ae565b95602094909401359450505050565b600081518084526020808501945080840160005b838110156125be578151875295820195908201906001016125a2565b509495945050505050565b6040815260006125dc604083018561258e565b8281036020840152612266818561258e565b600080600080600060a0868803121561260657600080fd5b85359450602086013561261881612453565b9350604086013561262881612453565b925060608601359150608086013561263f81612453565b809150509295509295909350565b60006020828403121561265f57600080fd5b813567ffffffffffffffff81111561267657600080fd5b612682848285016124ae565b949350505050565b6020808252825182820181905260009190848201906040850190845b818110156126c45783511515835292840192918401916001016126a6565b50909695505050505050565b6000602082840312156126e257600080fd5b813561128d81612453565b634e487b7160e01b600052601160045260246000fd5b80820281158282048414176105c7576105c76126ed565b60006020828403121561272c57600080fd5b5051919050565b808201808211156105c7576105c76126ed565b634e487b7160e01b600052603260045260246000fd5b60006020828403121561276e57600080fd5b815161128d81612453565b60006020828403121561278b57600080fd5b8151801515811461128d57600080fd5b818103818111156105c7576105c76126ed565b60005b838110156127c95781810151838201526020016127b1565b50506000910152565b7f416363657373436f6e74726f6c3a206163636f756e742000000000000000000081526000835161280a8160178501602088016127ae565b7001034b99036b4b9b9b4b733903937b6329607d1b601791840191820152835161283b8160288401602088016127ae565b01602801949350505050565b60208152600082518060208401526128668160408501602087016127ae565b601f01601f19169190910160400192915050565b600081612889576128896126ed565b506000190190565b600181815b808511156128cc5781600019048211156128b2576128b26126ed565b808516156128bf57918102915b93841c9390800290612896565b509250929050565b6000826128e3575060016105c7565b816128f0575060006105c7565b816001811461290657600281146129105761292c565b60019150506105c7565b60ff841115612921576129216126ed565b50506001821b6105c7565b5060208310610133831016604e8410600b841016171561294f575081810a6105c7565b6129598383612891565b806000190482111561296d5761296d6126ed565b029392505050565b600061128d83836128d4565b60008261299e57634e487b7160e01b600052601260045260246000fd5b500490565b634e487b7160e01b600052603160045260246000fdfeb19546dff01e856fb3f010c267a7b1c60363cf8a4664e21cc89c26224620214ea2646970667358221220e67a9afcb5c457aa58312735bc63c260d0a135bc1526baa65b09e6c28e19a07f64736f6c63430008130033",
  "devdoc": {
    "author": "Untangled Team",
    "details": "Upload loan and conclude loan",
    "events": {
      "Initialized(uint8)": {
        "details": "Triggered when the contract has been initialized or reinitialized."
      },
      "Paused(address)": {
        "details": "Emitted when the pause is triggered by `account`."
      },
      "RoleAdminChanged(bytes32,bytes32,bytes32)": {
        "details": "Emitted when `newAdminRole` is set as ``role``'s admin role, replacing `previousAdminRole` `DEFAULT_ADMIN_ROLE` is the starting admin for all roles, despite {RoleAdminChanged} not being emitted signaling this. _Available since v3.1._"
      },
      "RoleGranted(bytes32,address,address)": {
        "details": "Emitted when `account` is granted `role`. `sender` is the account that originated the contract call, an admin role bearer except when using {AccessControl-_setupRole}."
      },
      "RoleRevoked(bytes32,address,address)": {
        "details": "Emitted when `account` is revoked `role`. `sender` is the account that originated the contract call:   - if using `revokeRole`, it is the admin role bearer   - if using `renounceRole`, it is the role bearer (i.e. `account`)"
      },
      "Unpaused(address)": {
        "details": "Emitted when the pause is lifted by `account`."
      }
    },
    "kind": "dev",
    "methods": {
      "getExpectedRepaymentValues(bytes32,uint256)": {
        "params": {
          "agreementId": "loan asset token in bytes32 format",
          "timestamp": "unix timestamp"
        },
        "returns": {
          "expectedInterest": "interest value at a specific time",
          "expectedPrincipal": "value of loan at a specific time"
        }
      },
      "getInterestRate(bytes32)": {
        "params": {
          "agreementId": "bytes32. The agreement id (issuance hash) of the debt agreement to which this pertains."
        }
      },
      "getRoleAdmin(bytes32)": {
        "details": "Returns the admin role that controls `role`. See {grantRole} and {revokeRole}. To change a role's admin, use {_setRoleAdmin}."
      },
      "getRoleMember(bytes32,uint256)": {
        "details": "Returns one of the accounts that have `role`. `index` must be a value between 0 and {getRoleMemberCount}, non-inclusive. Role bearers are not sorted in any particular way, and their ordering may change at any point. WARNING: When using {getRoleMember} and {getRoleMemberCount}, make sure you perform all queries on the same block. See the following https://forum.openzeppelin.com/t/iterating-over-elements-on-enumerableset-in-openzeppelin-contracts/2296[forum post] for more information."
      },
      "getRoleMemberCount(bytes32)": {
        "details": "Returns the number of accounts that have `role`. Can be used together with {getRoleMember} to enumerate all bearers of a role."
      },
      "grantRole(bytes32,address)": {
        "details": "Grants `role` to `account`. If `account` had not been already granted `role`, emits a {RoleGranted} event. Requirements: - the caller must have ``role``'s admin role. May emit a {RoleGranted} event."
      },
      "hasRole(bytes32,address)": {
        "details": "Returns `true` if `account` has been granted `role`."
      },
      "paused()": {
        "details": "Returns true if the contract is paused, and false otherwise."
      },
      "registerConcludeLoan(bytes32)": {
        "details": "set loan as repaid"
      },
      "registerRepayment(bytes32,address,address,uint256,address)": {
        "params": {
          "agreementId": "bytes32. The agreement id (issuance hash) of the debt agreement to which this pertains.",
          "beneficiary": "address. The address of the payment's beneficiary.",
          "payer": "address. The address of the payer.",
          "tokenAddress": "address. The address of the token with which the repayment transaction was executed.",
          "unitsOfRepayment": "uint. The units-of-value repaid in the transaction."
        }
      },
      "renounceRole(bytes32,address)": {
        "details": "Revokes `role` from the calling account. Roles are often managed via {grantRole} and {revokeRole}: this function's purpose is to provide a mechanism for accounts to lose their privileges if they are compromised (such as when a trusted device is misplaced). If the calling account had been revoked `role`, emits a {RoleRevoked} event. Requirements: - the caller must be `account`. May emit a {RoleRevoked} event."
      },
      "revokeRole(bytes32,address)": {
        "details": "Revokes `role` from `account`. If `account` had been granted `role`, emits a {RoleRevoked} event. Requirements: - the caller must have ``role``'s admin role. May emit a {RoleRevoked} event."
      },
      "supportsInterface(bytes4)": {
        "details": "See {IERC165-supportsInterface}."
      }
    },
    "stateVariables": {
      "MINUTE_LENGTH_IN_SECONDS": {
        "details": "Represents the number of seconds in a minute"
      },
      "YEAR_LENGTH_IN_DAYS": {
        "details": "Represents the number of days in a year"
      }
    },
    "title": "LoanKernel",
    "version": 1
  },
  "userdoc": {
    "kind": "user",
    "methods": {
      "getExpectedRepaymentValues(bytes32,uint256)": {
        "notice": "calculates the expected repayment values (principal and interest) for a given loan agreement and timestamp"
      },
      "getInterestRate(bytes32)": {
        "notice": "the interest rate for a given loan agreement"
      },
      "getMultiExpectedRepaymentValues(bytes32[],uint256)": {
        "notice": "calculates the expected repayment values (principal and interest) for a batch of loan agreements and a given timestamp"
      },
      "getValueRepaidToDate(bytes32)": {
        "notice": "the total amount of principal and interest repaid for a given loan agreement"
      },
      "isCompletedRepayments(bytes32[])": {
        "notice": "checks whether the repayments for a batch of loan agreements have been completed"
      },
      "registerRepayment(bytes32,address,address,uint256,address)": {
        "notice": "When called, the registerRepayment function records the debtor's  repayment, as well as any auxiliary metadata needed by the contract  to determine ex post facto the value repaid (e.g. current USD  exchange rate)"
      },
      "registerTermStart(bytes32)": {
        "notice": "register the start of a loan term"
      },
      "unpackParamsForAgreementID(bytes32)": {
        "notice": "Get parameters by Agreement ID (commitment hash)"
      }
    },
    "version": 1
  },
  "storageLayout": {
    "storage": [
      {
        "astId": 1196,
        "contract": "contracts/protocol/loan/LoanInterestTermsContract.sol:LoanInterestTermsContract",
        "label": "_initialized",
        "offset": 0,
        "slot": "0",
        "type": "t_uint8"
      },
      {
        "astId": 1199,
        "contract": "contracts/protocol/loan/LoanInterestTermsContract.sol:LoanInterestTermsContract",
        "label": "_initializing",
        "offset": 1,
        "slot": "0",
        "type": "t_bool"
      },
      {
        "astId": 6325,
        "contract": "contracts/protocol/loan/LoanInterestTermsContract.sol:LoanInterestTermsContract",
        "label": "__gap",
        "offset": 0,
        "slot": "1",
        "type": "t_array(t_uint256)50_storage"
      },
      {
        "astId": 1379,
        "contract": "contracts/protocol/loan/LoanInterestTermsContract.sol:LoanInterestTermsContract",
        "label": "_paused",
        "offset": 0,
        "slot": "51",
        "type": "t_bool"
      },
      {
        "astId": 1484,
        "contract": "contracts/protocol/loan/LoanInterestTermsContract.sol:LoanInterestTermsContract",
        "label": "__gap",
        "offset": 0,
        "slot": "52",
        "type": "t_array(t_uint256)49_storage"
      },
      {
        "astId": 1499,
        "contract": "contracts/protocol/loan/LoanInterestTermsContract.sol:LoanInterestTermsContract",
        "label": "_status",
        "offset": 0,
        "slot": "101",
        "type": "t_uint256"
      },
      {
        "astId": 1568,
        "contract": "contracts/protocol/loan/LoanInterestTermsContract.sol:LoanInterestTermsContract",
        "label": "__gap",
        "offset": 0,
        "slot": "102",
        "type": "t_array(t_uint256)49_storage"
      },
      {
        "astId": 7615,
        "contract": "contracts/protocol/loan/LoanInterestTermsContract.sol:LoanInterestTermsContract",
        "label": "__gap",
        "offset": 0,
        "slot": "151",
        "type": "t_array(t_uint256)50_storage"
      },
      {
        "astId": 615,
        "contract": "contracts/protocol/loan/LoanInterestTermsContract.sol:LoanInterestTermsContract",
        "label": "_roles",
        "offset": 0,
        "slot": "201",
        "type": "t_mapping(t_bytes32,t_struct(RoleData)610_storage)"
      },
      {
        "astId": 910,
        "contract": "contracts/protocol/loan/LoanInterestTermsContract.sol:LoanInterestTermsContract",
        "label": "__gap",
        "offset": 0,
        "slot": "202",
        "type": "t_array(t_uint256)49_storage"
      },
      {
        "astId": 464,
        "contract": "contracts/protocol/loan/LoanInterestTermsContract.sol:LoanInterestTermsContract",
        "label": "_roleMembers",
        "offset": 0,
        "slot": "251",
        "type": "t_mapping(t_bytes32,t_struct(AddressSet)8925_storage)"
      },
      {
        "astId": 574,
        "contract": "contracts/protocol/loan/LoanInterestTermsContract.sol:LoanInterestTermsContract",
        "label": "__gap",
        "offset": 0,
        "slot": "252",
        "type": "t_array(t_uint256)49_storage"
      },
      {
        "astId": 12824,
        "contract": "contracts/protocol/loan/LoanInterestTermsContract.sol:LoanInterestTermsContract",
        "label": "__gap",
        "offset": 0,
        "slot": "301",
        "type": "t_array(t_uint256)50_storage"
      },
      {
        "astId": 15417,
        "contract": "contracts/protocol/loan/LoanInterestTermsContract.sol:LoanInterestTermsContract",
        "label": "registry",
        "offset": 0,
        "slot": "351",
        "type": "t_contract(Registry)36005"
      },
      {
        "astId": 15421,
        "contract": "contracts/protocol/loan/LoanInterestTermsContract.sol:LoanInterestTermsContract",
        "label": "startedLoan",
        "offset": 0,
        "slot": "352",
        "type": "t_mapping(t_bytes32,t_bool)"
      },
      {
        "astId": 15425,
        "contract": "contracts/protocol/loan/LoanInterestTermsContract.sol:LoanInterestTermsContract",
        "label": "repaidPrincipalAmounts",
        "offset": 0,
        "slot": "353",
        "type": "t_mapping(t_bytes32,t_uint256)"
      },
      {
        "astId": 15429,
        "contract": "contracts/protocol/loan/LoanInterestTermsContract.sol:LoanInterestTermsContract",
        "label": "repaidInterestAmounts",
        "offset": 0,
        "slot": "354",
        "type": "t_mapping(t_bytes32,t_uint256)"
      },
      {
        "astId": 15433,
        "contract": "contracts/protocol/loan/LoanInterestTermsContract.sol:LoanInterestTermsContract",
        "label": "completedRepayment",
        "offset": 0,
        "slot": "355",
        "type": "t_mapping(t_bytes32,t_bool)"
      },
      {
        "astId": 15532,
        "contract": "contracts/protocol/loan/LoanInterestTermsContract.sol:LoanInterestTermsContract",
        "label": "__gap",
        "offset": 0,
        "slot": "356",
        "type": "t_array(t_uint256)46_storage"
      },
      {
        "astId": 17058,
        "contract": "contracts/protocol/loan/LoanInterestTermsContract.sol:LoanInterestTermsContract",
        "label": "__gap",
        "offset": 0,
        "slot": "402",
        "type": "t_array(t_uint256)50_storage"
      }
    ],
    "types": {
      "t_address": {
        "encoding": "inplace",
        "label": "address",
        "numberOfBytes": "20"
      },
      "t_array(t_bytes32)dyn_storage": {
        "base": "t_bytes32",
        "encoding": "dynamic_array",
        "label": "bytes32[]",
        "numberOfBytes": "32"
      },
      "t_array(t_uint256)46_storage": {
        "base": "t_uint256",
        "encoding": "inplace",
        "label": "uint256[46]",
        "numberOfBytes": "1472"
      },
      "t_array(t_uint256)49_storage": {
        "base": "t_uint256",
        "encoding": "inplace",
        "label": "uint256[49]",
        "numberOfBytes": "1568"
      },
      "t_array(t_uint256)50_storage": {
        "base": "t_uint256",
        "encoding": "inplace",
        "label": "uint256[50]",
        "numberOfBytes": "1600"
      },
      "t_bool": {
        "encoding": "inplace",
        "label": "bool",
        "numberOfBytes": "1"
      },
      "t_bytes32": {
        "encoding": "inplace",
        "label": "bytes32",
        "numberOfBytes": "32"
      },
      "t_contract(Registry)36005": {
        "encoding": "inplace",
        "label": "contract Registry",
        "numberOfBytes": "20"
      },
      "t_mapping(t_address,t_bool)": {
        "encoding": "mapping",
        "key": "t_address",
        "label": "mapping(address => bool)",
        "numberOfBytes": "32",
        "value": "t_bool"
      },
      "t_mapping(t_bytes32,t_bool)": {
        "encoding": "mapping",
        "key": "t_bytes32",
        "label": "mapping(bytes32 => bool)",
        "numberOfBytes": "32",
        "value": "t_bool"
      },
      "t_mapping(t_bytes32,t_struct(AddressSet)8925_storage)": {
        "encoding": "mapping",
        "key": "t_bytes32",
        "label": "mapping(bytes32 => struct EnumerableSetUpgradeable.AddressSet)",
        "numberOfBytes": "32",
        "value": "t_struct(AddressSet)8925_storage"
      },
      "t_mapping(t_bytes32,t_struct(RoleData)610_storage)": {
        "encoding": "mapping",
        "key": "t_bytes32",
        "label": "mapping(bytes32 => struct AccessControlUpgradeable.RoleData)",
        "numberOfBytes": "32",
        "value": "t_struct(RoleData)610_storage"
      },
      "t_mapping(t_bytes32,t_uint256)": {
        "encoding": "mapping",
        "key": "t_bytes32",
        "label": "mapping(bytes32 => uint256)",
        "numberOfBytes": "32",
        "value": "t_uint256"
      },
      "t_struct(AddressSet)8925_storage": {
        "encoding": "inplace",
        "label": "struct EnumerableSetUpgradeable.AddressSet",
        "members": [
          {
            "astId": 8924,
            "contract": "contracts/protocol/loan/LoanInterestTermsContract.sol:LoanInterestTermsContract",
            "label": "_inner",
            "offset": 0,
            "slot": "0",
            "type": "t_struct(Set)8610_storage"
          }
        ],
        "numberOfBytes": "64"
      },
      "t_struct(RoleData)610_storage": {
        "encoding": "inplace",
        "label": "struct AccessControlUpgradeable.RoleData",
        "members": [
          {
            "astId": 607,
            "contract": "contracts/protocol/loan/LoanInterestTermsContract.sol:LoanInterestTermsContract",
            "label": "members",
            "offset": 0,
            "slot": "0",
            "type": "t_mapping(t_address,t_bool)"
          },
          {
            "astId": 609,
            "contract": "contracts/protocol/loan/LoanInterestTermsContract.sol:LoanInterestTermsContract",
            "label": "adminRole",
            "offset": 0,
            "slot": "1",
            "type": "t_bytes32"
          }
        ],
        "numberOfBytes": "64"
      },
      "t_struct(Set)8610_storage": {
        "encoding": "inplace",
        "label": "struct EnumerableSetUpgradeable.Set",
        "members": [
          {
            "astId": 8605,
            "contract": "contracts/protocol/loan/LoanInterestTermsContract.sol:LoanInterestTermsContract",
            "label": "_values",
            "offset": 0,
            "slot": "0",
            "type": "t_array(t_bytes32)dyn_storage"
          },
          {
            "astId": 8609,
            "contract": "contracts/protocol/loan/LoanInterestTermsContract.sol:LoanInterestTermsContract",
            "label": "_indexes",
            "offset": 0,
            "slot": "1",
            "type": "t_mapping(t_bytes32,t_uint256)"
          }
        ],
        "numberOfBytes": "64"
      },
      "t_uint256": {
        "encoding": "inplace",
        "label": "uint256",
        "numberOfBytes": "32"
      },
      "t_uint8": {
        "encoding": "inplace",
        "label": "uint8",
        "numberOfBytes": "1"
      }
    }
  }
}