{
  "address": "0xEd5540d31340a30eA9289c0580921Ac3947639B9",
  "abi": [
    {
      "anonymous": false,
      "inputs": [
        {
          "indexed": false,
          "internalType": "uint8",
          "name": "version",
          "type": "uint8"
        }
      ],
      "name": "Initialized",
      "type": "event"
    },
    {
      "anonymous": false,
      "inputs": [
        {
          "indexed": false,
          "internalType": "address[]",
          "name": "debtor",
          "type": "address[]"
        },
        {
          "indexed": false,
          "internalType": "uint256[]",
          "name": "loanTokenIds",
          "type": "uint256[]"
        }
      ],
      "name": "IssuedNewInputLoans",
      "type": "event"
    },
    {
      "anonymous": false,
      "inputs": [
        {
          "indexed": true,
          "internalType": "uint8",
          "name": "_errorId",
          "type": "uint8"
        },
        {
          "indexed": true,
          "internalType": "bytes32",
          "name": "_orderHash",
          "type": "bytes32"
        },
        {
          "indexed": false,
          "internalType": "string",
          "name": "desc",
          "type": "string"
        }
      ],
      "name": "LogDebtKernelError",
      "type": "event"
    },
    {
      "anonymous": false,
      "inputs": [
        {
          "indexed": false,
          "internalType": "bytes32",
          "name": "_agreementId",
          "type": "bytes32"
        },
        {
          "indexed": false,
          "internalType": "uint256",
          "name": "_principal",
          "type": "uint256"
        },
        {
          "indexed": false,
          "internalType": "address",
          "name": "_principalToken",
          "type": "address"
        }
      ],
      "name": "LogDebtOrderFilled",
      "type": "event"
    },
    {
      "anonymous": false,
      "inputs": [
        {
          "indexed": true,
          "internalType": "address",
          "name": "payer",
          "type": "address"
        },
        {
          "indexed": false,
          "internalType": "address",
          "name": "token",
          "type": "address"
        },
        {
          "indexed": false,
          "internalType": "uint256",
          "name": "amount",
          "type": "uint256"
        },
        {
          "indexed": true,
          "internalType": "address",
          "name": "beneficiary",
          "type": "address"
        }
      ],
      "name": "LogFeeTransfer",
      "type": "event"
    },
    {
      "anonymous": false,
      "inputs": [
        {
          "indexed": false,
          "internalType": "address",
          "name": "account",
          "type": "address"
        }
      ],
      "name": "Paused",
      "type": "event"
    },
    {
      "anonymous": false,
      "inputs": [
        {
          "indexed": true,
          "internalType": "bytes32",
          "name": "role",
          "type": "bytes32"
        },
        {
          "indexed": true,
          "internalType": "bytes32",
          "name": "previousAdminRole",
          "type": "bytes32"
        },
        {
          "indexed": true,
          "internalType": "bytes32",
          "name": "newAdminRole",
          "type": "bytes32"
        }
      ],
      "name": "RoleAdminChanged",
      "type": "event"
    },
    {
      "anonymous": false,
      "inputs": [
        {
          "indexed": true,
          "internalType": "bytes32",
          "name": "role",
          "type": "bytes32"
        },
        {
          "indexed": true,
          "internalType": "address",
          "name": "account",
          "type": "address"
        },
        {
          "indexed": true,
          "internalType": "address",
          "name": "sender",
          "type": "address"
        }
      ],
      "name": "RoleGranted",
      "type": "event"
    },
    {
      "anonymous": false,
      "inputs": [
        {
          "indexed": true,
          "internalType": "bytes32",
          "name": "role",
          "type": "bytes32"
        },
        {
          "indexed": true,
          "internalType": "address",
          "name": "account",
          "type": "address"
        },
        {
          "indexed": true,
          "internalType": "address",
          "name": "sender",
          "type": "address"
        }
      ],
      "name": "RoleRevoked",
      "type": "event"
    },
    {
      "anonymous": false,
      "inputs": [
        {
          "indexed": false,
          "internalType": "address",
          "name": "account",
          "type": "address"
        }
      ],
      "name": "Unpaused",
      "type": "event"
    },
    {
      "inputs": [],
      "name": "DEFAULT_ADMIN_ROLE",
      "outputs": [
        {
          "internalType": "bytes32",
          "name": "",
          "type": "bytes32"
        }
      ],
      "stateMutability": "view",
      "type": "function"
    },
    {
      "inputs": [],
      "name": "NULL_ADDRESS",
      "outputs": [
        {
          "internalType": "address",
          "name": "",
          "type": "address"
        }
      ],
      "stateMutability": "view",
      "type": "function"
    },
    {
      "inputs": [],
      "name": "NULL_COLLATERAL_INFO_HASH",
      "outputs": [
        {
          "internalType": "bytes16",
          "name": "",
          "type": "bytes16"
        }
      ],
      "stateMutability": "view",
      "type": "function"
    },
    {
      "inputs": [],
      "name": "NULL_ISSUANCE_HASH",
      "outputs": [
        {
          "internalType": "bytes32",
          "name": "",
          "type": "bytes32"
        }
      ],
      "stateMutability": "view",
      "type": "function"
    },
    {
      "inputs": [],
      "name": "OWNER_ROLE",
      "outputs": [
        {
          "internalType": "bytes32",
          "name": "",
          "type": "bytes32"
        }
      ],
      "stateMutability": "view",
      "type": "function"
    },
    {
      "inputs": [
        {
          "internalType": "address",
          "name": "creditor",
          "type": "address"
        },
        {
          "internalType": "bytes32",
          "name": "agreementId",
          "type": "bytes32"
        }
      ],
      "name": "concludeLoan",
      "outputs": [],
      "stateMutability": "nonpayable",
      "type": "function"
    },
    {
      "inputs": [
        {
          "internalType": "address[]",
          "name": "creditors",
          "type": "address[]"
        },
        {
          "internalType": "bytes32[]",
          "name": "agreementIds",
          "type": "bytes32[]"
        }
      ],
      "name": "concludeLoans",
      "outputs": [],
      "stateMutability": "nonpayable",
      "type": "function"
    },
    {
      "inputs": [
        {
          "internalType": "bytes32",
          "name": "",
          "type": "bytes32"
        }
      ],
      "name": "debtOrderCancelled",
      "outputs": [
        {
          "internalType": "bool",
          "name": "",
          "type": "bool"
        }
      ],
      "stateMutability": "view",
      "type": "function"
    },
    {
      "inputs": [
        {
          "internalType": "bytes32",
          "name": "",
          "type": "bytes32"
        }
      ],
      "name": "debtOrderCompleted",
      "outputs": [
        {
          "internalType": "bool",
          "name": "",
          "type": "bool"
        }
      ],
      "stateMutability": "view",
      "type": "function"
    },
    {
      "inputs": [
        {
          "components": [
            {
              "internalType": "address[]",
              "name": "orderAddresses",
              "type": "address[]"
            },
            {
              "internalType": "uint256[]",
              "name": "orderValues",
              "type": "uint256[]"
            },
            {
              "internalType": "bytes32[]",
              "name": "termsContractParameters",
              "type": "bytes32[]"
            },
            {
              "components": [
                {
                  "internalType": "uint256[]",
                  "name": "tokenIds",
                  "type": "uint256[]"
                },
                {
                  "internalType": "uint256[]",
                  "name": "nonces",
                  "type": "uint256[]"
                },
                {
                  "internalType": "address",
                  "name": "validator",
                  "type": "address"
                },
                {
                  "internalType": "bytes",
                  "name": "validateSignature",
                  "type": "bytes"
                }
              ],
              "internalType": "struct LoanAssetInfo[]",
              "name": "latInfo",
              "type": "tuple[]"
            }
          ],
          "internalType": "struct ILoanKernel.FillDebtOrderParam",
          "name": "fillDebtOrderParam",
          "type": "tuple"
        }
      ],
      "name": "fillDebtOrder",
      "outputs": [],
      "stateMutability": "nonpayable",
      "type": "function"
    },
    {
      "inputs": [],
      "name": "getInitializedVersion",
      "outputs": [
        {
          "internalType": "uint256",
          "name": "",
          "type": "uint256"
        }
      ],
      "stateMutability": "view",
      "type": "function"
    },
    {
      "inputs": [
        {
          "internalType": "bytes32",
          "name": "role",
          "type": "bytes32"
        }
      ],
      "name": "getRoleAdmin",
      "outputs": [
        {
          "internalType": "bytes32",
          "name": "",
          "type": "bytes32"
        }
      ],
      "stateMutability": "view",
      "type": "function"
    },
    {
      "inputs": [
        {
          "internalType": "bytes32",
          "name": "role",
          "type": "bytes32"
        },
        {
          "internalType": "uint256",
          "name": "index",
          "type": "uint256"
        }
      ],
      "name": "getRoleMember",
      "outputs": [
        {
          "internalType": "address",
          "name": "",
          "type": "address"
        }
      ],
      "stateMutability": "view",
      "type": "function"
    },
    {
      "inputs": [
        {
          "internalType": "bytes32",
          "name": "role",
          "type": "bytes32"
        }
      ],
      "name": "getRoleMemberCount",
      "outputs": [
        {
          "internalType": "uint256",
          "name": "",
          "type": "uint256"
        }
      ],
      "stateMutability": "view",
      "type": "function"
    },
    {
      "inputs": [
        {
          "internalType": "bytes32",
          "name": "role",
          "type": "bytes32"
        },
        {
          "internalType": "address",
          "name": "account",
          "type": "address"
        }
      ],
      "name": "grantRole",
      "outputs": [],
      "stateMutability": "nonpayable",
      "type": "function"
    },
    {
      "inputs": [
        {
          "internalType": "bytes32",
          "name": "role",
          "type": "bytes32"
        },
        {
          "internalType": "address",
          "name": "account",
          "type": "address"
        }
      ],
      "name": "hasRole",
      "outputs": [
        {
          "internalType": "bool",
          "name": "",
          "type": "bool"
        }
      ],
      "stateMutability": "view",
      "type": "function"
    },
    {
      "inputs": [
        {
          "internalType": "contract Registry",
          "name": "_registry",
          "type": "address"
        }
      ],
      "name": "initialize",
      "outputs": [],
      "stateMutability": "nonpayable",
      "type": "function"
    },
    {
      "inputs": [],
      "name": "isAdmin",
      "outputs": [
        {
          "internalType": "bool",
          "name": "",
          "type": "bool"
        }
      ],
      "stateMutability": "view",
      "type": "function"
    },
    {
      "inputs": [
        {
          "internalType": "bytes32",
          "name": "",
          "type": "bytes32"
        }
      ],
      "name": "issuanceCancelled",
      "outputs": [
        {
          "internalType": "bool",
          "name": "",
          "type": "bool"
        }
      ],
      "stateMutability": "view",
      "type": "function"
    },
    {
      "inputs": [],
      "name": "pause",
      "outputs": [],
      "stateMutability": "nonpayable",
      "type": "function"
    },
    {
      "inputs": [],
      "name": "paused",
      "outputs": [
        {
          "internalType": "bool",
          "name": "",
          "type": "bool"
        }
      ],
      "stateMutability": "view",
      "type": "function"
    },
    {
      "inputs": [],
      "name": "registry",
      "outputs": [
        {
          "internalType": "contract Registry",
          "name": "",
          "type": "address"
        }
      ],
      "stateMutability": "view",
      "type": "function"
    },
    {
      "inputs": [
        {
          "internalType": "bytes32",
          "name": "role",
          "type": "bytes32"
        },
        {
          "internalType": "address",
          "name": "account",
          "type": "address"
        }
      ],
      "name": "renounceRole",
      "outputs": [],
      "stateMutability": "nonpayable",
      "type": "function"
    },
    {
      "inputs": [
        {
          "internalType": "bytes32",
          "name": "role",
          "type": "bytes32"
        },
        {
          "internalType": "address",
          "name": "account",
          "type": "address"
        }
      ],
      "name": "revokeRole",
      "outputs": [],
      "stateMutability": "nonpayable",
      "type": "function"
    },
    {
      "inputs": [
        {
          "internalType": "bytes32",
          "name": "role",
          "type": "bytes32"
        },
        {
          "internalType": "bytes32",
          "name": "adminRole",
          "type": "bytes32"
        }
      ],
      "name": "setRoleAdmin",
      "outputs": [],
      "stateMutability": "nonpayable",
      "type": "function"
    },
    {
      "inputs": [
        {
          "internalType": "bytes4",
          "name": "interfaceId",
          "type": "bytes4"
        }
      ],
      "name": "supportsInterface",
      "outputs": [
        {
          "internalType": "bool",
          "name": "",
          "type": "bool"
        }
      ],
      "stateMutability": "view",
      "type": "function"
    },
    {
      "inputs": [],
      "name": "unpause",
      "outputs": [],
      "stateMutability": "nonpayable",
      "type": "function"
    }
  ],
  "transactionHash": "0xb19f400ec3bec2266cbc9d6199a46bb816d34993d5b9553139e8ea27a9c27461",
  "args": [],
  "numDeployments": 2,
  "solcInputHash": "822819141616103cbec0f35442f60b7f",
  "bytecode": "0x608060405234801561001057600080fd5b50612b5b806100206000396000f3fe608060405234801561001057600080fd5b50600436106101a95760003560e01c80639010d07c116100f9578063c4d66de811610097578063de0ce17d11610071578063de0ce17d146103b8578063e283040d14610354578063e58378bb146103c0578063fd3b1ebe146103d557600080fd5b8063c4d66de81461037f578063ca15c87314610392578063d547741f146103a557600080fd5b8063a217fddf116100d3578063a217fddf14610354578063a525beda1461035c578063b3c650151461036f578063b6db75a01461037757600080fd5b80639010d07c1461031b578063915512651461032e57806391d148541461034157600080fd5b806344b29a141161016657806376456ff31161014057806376456ff3146102a25780637b103999146102c55780638456cb59146102f05780638591b2ad146102f857600080fd5b806344b29a141461024a5780635428368f146102745780635c975abb1461029757600080fd5b806301ffc9a7146101ae5780631e4e0091146101d6578063248a9ca3146101eb5780632f2ff15d1461021c57806336568abe1461022f5780633f4ba83a14610242575b600080fd5b6101c16101bc366004612494565b6103e8565b60405190151581526020015b60405180910390f35b6101e96101e43660046124be565b610413565b005b61020e6101f93660046124e0565b600090815260cd602052604090206001015490565b6040519081526020016101cd565b6101e961022a36600461250e565b61042d565b6101e961023d36600461250e565b610452565b6101e96104d5565b610252600081565b6040516fffffffffffffffffffffffffffffffff1990911681526020016101cd565b6101c16102823660046124e0565b60026020526000908152604090205460ff1681565b60375460ff166101c1565b6101c16102b03660046124e0565b60036020526000908152604090205460ff1681565b6000546102d8906001600160a01b031681565b6040516001600160a01b0390911681526020016101cd565b6101e96104eb565b6101c16103063660046124e0565b60016020526000908152604090205460ff1681565b6102d86103293660046124be565b6104fe565b6101e961033c36600461253e565b61051d565b6101c161034f36600461250e565b610eb3565b61020e600081565b6101e961036a3660046125c3565b610ede565b61020e610f5c565b6101c1610f72565b6101e961038d36600461262e565b610f91565b61020e6103a03660046124e0565b6110be565b6101e96103b336600461250e565b6110d5565b6102d8600081565b61020e600080516020612b0683398151915281565b6101e96103e336600461264b565b6110fa565b60006001600160e01b03198216635a05180f60e01b148061040d575061040d82611273565b92915050565b600061041e816112a8565b61042883836112b2565b505050565b600082815260cd6020526040902060010154610448816112a8565b61042883836112fd565b6001600160a01b03811633146104c75760405162461bcd60e51b815260206004820152602f60248201527f416363657373436f6e74726f6c3a2063616e206f6e6c792072656e6f756e636560448201526e103937b632b9903337b91039b2b63360891b60648201526084015b60405180910390fd5b6104d1828261131f565b5050565b60006104e0816112a8565b6104e8611341565b50565b60006104f6816112a8565b6104e8611393565b600082815260ff6020526040812061051690836113d0565b9392505050565b6105256113dc565b61052d611424565b6105378180612677565b808060200260200160405190810160405280939291908181526020018383602002808284376000920182905250845190935084925083915061057b5761057b6126d6565b60200260200101516001600160a01b0316036105e55760405162461bcd60e51b8152602060048201526024808201527f53454355524954495a4154494f4e5f504f4f4c206973207a65726f206164647260448201526332b9b99760e11b60648201526084016104be565b600081600260ff16815181106105fd576105fd6126d6565b60200260200101516001600160a01b0316036106655760405162461bcd60e51b815260206004820152602160248201527f52455041594d454e545f524f55544552206973207a65726f20616464726573736044820152601760f91b60648201526084016104be565b600081600160ff168151811061067d5761067d6126d6565b60200260200101516001600160a01b0316036106ec5760405162461bcd60e51b815260206004820152602860248201527f5052494e434950414c5f544f4b454e5f41444452455353206973207a65726f2060448201526730b2323932b9b99760c11b60648201526084016104be565b60006106f88380612677565b600081610707576107076126d6565b905060200201602081019061071c919061262e565b9050600061072d6040850185612677565b90501161078d5760405162461bcd60e51b815260206004820152602860248201527f4c6f616e4b65726e656c3a20496e76616c6964205465726d20436f6e747261636044820152677420706172616d7360c01b60648201526084016104be565b60006107e561079f6020860186612677565b808060200260200160405190810160405280939291908181526020018383602002808284376000920191909152506107de925050506040870187612677565b905061147d565b9050600061090061083f6107f98780612677565b80806020026020016040519081016040528093929190818152602001838360200280828437600092019190915250610838925050506040890189612677565b9050611565565b6108498780612677565b80806020026020016040519081016040528093929190818152602001838360200280828437600092019190915250610888925050506020890189612677565b808060200260200160405190810160405280939291908181526020018383602002808284376000920191909152506108c79250505060408a018a612677565b8080602002602001604051908101604052809392919081815260200183836020028082843760009201919091525089925061161b915050565b905060008060005b6109156060890189612677565b9050811015610e3257600054610933906001600160a01b031661174d565b6001600160a01b031663f0cb1d868761094f60608c018c612677565b8581811061095f5761095f6126d6565b905060200281019061097191906126ec565b6040518363ffffffff1660e01b815260040161098e9291906127af565b600060405180830381600087803b1580156109a857600080fd5b505af11580156109bc573d6000803e3d6000fd5b50600092506109d191505060608a018a612677565b838181106109e1576109e16126d6565b90506020028101906109f391906126ec565b6109fd9080612677565b90506001600160401b03811115610a1657610a1661288f565b604051908082528060200260200182016040528015610a8c57816020015b610a796040805161010081018252600080825260208201819052918101829052606081018290526080810182905260a0810182905260c081018290529060e082015290565b815260200190600190039081610a345790505b50905060005b610a9f60608b018b612677565b84818110610aaf57610aaf6126d6565b9050602002810190610ac191906126ec565b610acb9080612677565b9050811015610d7257610ae160608b018b612677565b84818110610af157610af16126d6565b9050602002810190610b0391906126ec565b610b0d9080612677565b82818110610b1d57610b1d6126d6565b9050602002013560001b8660000151606001518681518110610b4157610b416126d6565b602002602001015114610b965760405162461bcd60e51b815260206004820181905260248201527f4c6f616e4b65726e656c3a20496e76616c6964204c415420546f6b656e20496460448201526064016104be565b60006040518061010001604052808860000151602001518881518110610bbe57610bbe6126d6565b60200260200101516001600160a01b0316815260200188602001516001600160a01b031681526020018c8060400190610bf79190612677565b89818110610c0757610c076126d6565b905060200201358152602001898881518110610c2557610c256126d6565b6020026020010151815260200142815260200188608001518881518110610c4e57610c4e6126d6565b602002602001015181526020018860c001518881518110610c7157610c716126d6565b602002602001015160ff1681526020018860e0015160ff166001811115610c9a57610c9a6126c0565b6001811115610cab57610cab6126c0565b815250905080838381518110610cc357610cc36126d6565b60200260200101819052507f35052fc031e1d582dbedcc1c20c33022daebf8f113245f510ecf7b9a09e1dfb28760000151606001518781518110610d0957610d096126d6565b602002602001015188604001518881518110610d2757610d276126d6565b60200260200101518960200151604051610d5d9392919092835260208301919091526001600160a01b0316604082015260600190565b60405180910390a15060019485019401610a92565b506001600160a01b0387166333944357610d8f60608c018c612677565b85818110610d9f57610d9f6126d6565b9050602002810190610db191906126ec565b610dbb9080612677565b846040518463ffffffff1660e01b8152600401610dda939291906128c7565b6020604051808303816000875af1158015610df9573d6000803e3d6000fd5b505050506040513d601f19601f82011682018060405250810190610e1d9190612983565b610e2790846129b2565b925050600101610908565b506001600160a01b03851663f3fef3a3336040516001600160e01b031960e084901b1681526001600160a01b03909116600482015260248101849052604401600060405180830381600087803b158015610e8b57600080fd5b505af1158015610e9f573d6000803e3d6000fd5b505050505050505050506104e86001606955565b600091825260cd602090815260408084206001600160a01b0393909316845291905290205460ff1690565b610ee66113dc565b610eee611424565b8260005b81811015610f4a57610f42868683818110610f0f57610f0f6126d6565b9050602002016020810190610f24919061262e565b858584818110610f3657610f366126d6565b905060200201356110fa565b600101610ef2565b5050610f566001606955565b50505050565b6000610f6a60045460ff1690565b60ff16905090565b6000610f8c600080516020612b0683398151915233610eb3565b905090565b600454610100900460ff1615808015610fb15750600454600160ff909116105b80610fcb5750303b158015610fcb575060045460ff166001145b61102e5760405162461bcd60e51b815260206004820152602e60248201527f496e697469616c697a61626c653a20636f6e747261637420697320616c72656160448201526d191e481a5b9a5d1a585b1a5e995960921b60648201526084016104be565b6004805460ff191660011790558015611051576004805461ff0019166101001790555b61105a3361175a565b600080546001600160a01b0319166001600160a01b03841617905580156104d1576004805461ff0019169055604051600181527f7f26b83ff96e1f2b6a682f133852f6798a09c465da95921460cefb38474024989060200160405180910390a15050565b600081815260ff6020526040812061040d90611811565b600082815260cd60205260409020600101546110f0816112a8565b610428838361131f565b6111026113dc565b600054611117906001600160a01b031661181b565b6001600160a01b0316336001600160a01b0316146111835760405162461bcd60e51b8152602060048201526024808201527f4c6f616e4b65726e656c3a204f6e6c79204c6f616e52657061796d656e74526f6044820152633aba32b960e11b60648201526084016104be565b6001600160a01b0382166111d95760405162461bcd60e51b815260206004820152601960248201527f496e76616c6964206372656469746f72206163636f756e742e0000000000000060448201526064016104be565b8061121e5760405162461bcd60e51b815260206004820152601560248201527424b73b30b634b21030b3b932b2b6b2b73a1034b21760591b60448201526064016104be565b61122781611828565b61126a5760405162461bcd60e51b81526020600482015260146024820152734465627420646f6573206e6f742065787369747360601b60448201526064016104be565b6104d1816118bc565b60006001600160e01b03198216637965db0b60e01b148061040d57506301ffc9a760e01b6001600160e01b031983161461040d565b6104e88133611930565b600082815260cd6020526040808220600101805490849055905190918391839186917fbd79b86ffe0ab8e8776151514217cd7cacd52c909f66475c3af44e129f0b00ff9190a4505050565b6113078282611989565b600082815260ff602052604090206104289082611a0f565b6113298282611a24565b600082815260ff602052604090206104289082611a8b565b611349611aa0565b6037805460ff191690557f5db9ee0a495bf2e6ff9c91a7834c1ba4fdd244a5e8aa4e537bd38aeae4b073aa335b6040516001600160a01b03909116815260200160405180910390a1565b61139b6113dc565b6037805460ff191660011790557f62e78cea01bee320cd4e420270b5ea74000d11b0c9f74754ebdbfc544b05a2586113763390565b60006105168383611ae9565b60375460ff16156114225760405162461bcd60e51b815260206004820152601060248201526f14185d5cd8589b194e881c185d5cd95960821b60448201526064016104be565b565b6002606954036114765760405162461bcd60e51b815260206004820152601f60248201527f5265656e7472616e637947756172643a207265656e7472616e742063616c6c0060448201526064016104be565b6002606955565b60606000826001600160401b038111156114995761149961288f565b6040519080825280602002602001820160405280156114c2578160200160208202803683370190505b50905060006114d28460026129c5565b6114dd9060026129b2565b90505b6114eb8460036129c5565b6114f69060026129b2565b81101561155d5784818151811061150f5761150f6126d6565b60200260200101518285600261152591906129c5565b6115306002856129dc565b61153a91906129dc565b8151811061154a5761154a6126d6565b60209081029190910101526001016114e0565b509392505050565b60606000826001600160401b038111156115815761158161288f565b6040519080825280602002602001820160405280156115aa578160200160208202803683370190505b50905060035b6115bb8460036129b2565b81101561155d578481815181106115d4576115d46126d6565b6020026020010151826003836115ea91906129dc565b815181106115fa576115fa6126d6565b6001600160a01b0392909216602092830291909101909101526001016115b0565b611623612405565b600086516001600160401b0381111561163e5761163e61288f565b604051908082528060200260200182016040528015611667578160200160208202803683370190505b5090506000604051806101000160405280611684898b8989611b13565b815260200188600160ff168151811061169f5761169f6126d6565b60200260200101516001600160a01b031681526020016116c0888851611bae565b815260200187600060ff16815181106116db576116db6126d6565b602002602001015181526020016116f3888851611c56565b8152602001838152602001611709888851611d21565b815260200187600160ff1681518110611724576117246126d6565b602002602001015160ff16815250905061173d81611e09565b60a0820152979650505050505050565b600061040d826005611f51565b600454610100900460ff166117c55760405162461bcd60e51b815260206004820152602b60248201527f496e697469616c697a61626c653a20636f6e7472616374206973206e6f74206960448201526a6e697469616c697a696e6760a81b60648201526084016104be565b6001600160a01b0381166117d65750335b6117e1600033611fd6565b6117f9600080516020612b0683398151915282611fd6565b6104e8600080516020612b06833981519152806112b2565b600061040d825490565b600061040d826006611f51565b600080548190611840906001600160a01b031661174d565b6040516331a9108f60e11b8152600481018590526001600160a01b039190911690636352211e90602401602060405180830381865afa158015611887573d6000803e3d6000fd5b505050506040513d601f19601f820116820180604052508101906118ab91906129ef565b6001600160a01b0316141592915050565b6000546118d1906001600160a01b031661174d565b604051630852cd8d60e31b8152600481018390526001600160a01b0391909116906342966c6890602401600060405180830381600087803b15801561191557600080fd5b505af1158015611929573d6000803e3d6000fd5b5050505050565b61193a8282610eb3565b6104d15761194781611fe0565b611952836020611ff2565b604051602001611963929190612a30565b60408051601f198184030181529082905262461bcd60e51b82526104be91600401612aa5565b6119938282610eb3565b6104d157600082815260cd602090815260408083206001600160a01b03851684529091529020805460ff191660011790556119cb3390565b6001600160a01b0316816001600160a01b0316837f2f8788117e7eff1d82e926ec794901d17c78024a50270940304540a733656f0d60405160405180910390a45050565b6000610516836001600160a01b03841661218d565b611a2e8282610eb3565b156104d157600082815260cd602090815260408083206001600160a01b0385168085529252808320805460ff1916905551339285917ff6391f5c32d9c69d2a47ea670b442974b53935d1edc7fd64eb21e047a839171b9190a45050565b6000610516836001600160a01b0384166121dc565b60375460ff166114225760405162461bcd60e51b815260206004820152601460248201527314185d5cd8589b194e881b9bdd081c185d5cd95960621b60448201526064016104be565b6000826000018281548110611b0057611b006126d6565b9060005260206000200154905092915050565b611b1b61245c565b6040805160a081019091526000908087600260ff1681518110611b4057611b406126d6565b60200260200101516001600160a01b03168152602001868152602001858152602001611b9b88600280811115611b7857611b786126c0565b60ff1681518110611b8b57611b8b6126d6565b60200260200101518888886122cf565b8152602001849052915050949350505050565b60606000826001600160401b03811115611bca57611bca61288f565b604051908082528060200260200182016040528015611bf3578160200160208202803683370190505b50905060025b611c048460026129b2565b81101561155d57848181518110611c1d57611c1d6126d6565b602002602001015182600283611c3391906129dc565b81518110611c4357611c436126d6565b6020908102919091010152600101611bf9565b60606000826001600160401b03811115611c7257611c7261288f565b604051908082528060200260200182016040528015611c9b578160200160208202803683370190505b5090506000611cab8460026129b2565b90505b611cb98460026129c5565b611cc49060026129b2565b81101561155d57848181518110611cdd57611cdd6126d6565b60200260200101518285600284611cf491906129dc565b611cfe91906129dc565b81518110611d0e57611d0e6126d6565b6020908102919091010152600101611cae565b60606000826001600160401b03811115611d3d57611d3d61288f565b604051908082528060200260200182016040528015611d66578160200160208202803683370190505b5090506000611d768460036129c5565b611d819060026129b2565b90505b611d8f8460046129c5565b611d9a9060026129b2565b81101561155d57848181518110611db357611db36126d6565b602002602001015182856003611dc991906129c5565b611dd46002856129dc565b611dde91906129dc565b81518110611dee57611dee6126d6565b60ff9290921660209283029190910190910152600101611d84565b805160200151516060906000816001600160401b03811115611e2d57611e2d61288f565b604051908082528060200260200182016040528015611e56578160200160208202803683370190505b50905060005b8281101561155d57611f2c8560000151606001518281518110611e8157611e816126d6565b602002602001015186604001518381518110611e9f57611e9f6126d6565b6020026020010151876020015188608001518581518110611ec257611ec26126d6565b60200260200101516040516bffffffffffffffffffffffff1930606090811b82166020840152603483018790526054830186905284901b1660748201526088810182905260009060a801604051602081830303815290604052805190602001209050949350505050565b828281518110611f3e57611f3e6126d6565b6020908102919091010152600101611e5c565b6000826001600160a01b031663bcaa0c5583600a811115611f7457611f746126c0565b6040516001600160e01b031960e084901b16815260ff9091166004820152602401602060405180830381865afa158015611fb2573d6000803e3d6000fd5b505050506040513d601f19601f8201168201806040525081019061051691906129ef565b6104d182826112fd565b606061040d6001600160a01b03831660145b606060006120018360026129c5565b61200c9060026129b2565b6001600160401b038111156120235761202361288f565b6040519080825280601f01601f19166020018201604052801561204d576020820181803683370190505b509050600360fc1b81600081518110612068576120686126d6565b60200101906001600160f81b031916908160001a905350600f60fb1b81600181518110612097576120976126d6565b60200101906001600160f81b031916908160001a90535060006120bb8460026129c5565b6120c69060016129b2565b90505b600181111561213e576f181899199a1a9b1b9c1cb0b131b232b360811b85600f16601081106120fa576120fa6126d6565b1a60f81b828281518110612110576121106126d6565b60200101906001600160f81b031916908160001a90535060049490941c9361213781612ad8565b90506120c9565b5083156105165760405162461bcd60e51b815260206004820181905260248201527f537472696e67733a20686578206c656e67746820696e73756666696369656e7460448201526064016104be565b60008181526001830160205260408120546121d45750815460018181018455600084815260208082209093018490558454848252828601909352604090209190915561040d565b50600061040d565b600081815260018301602052604081205480156122c55760006122006001836129dc565b8554909150600090612214906001906129dc565b9050818114612279576000866000018281548110612234576122346126d6565b9060005260206000200154905080876000018481548110612257576122576126d6565b6000918252602080832090910192909255918252600188019052604090208390555b855486908061228a5761228a612aef565b60019003818190600052602060002001600090559055856001016000868152602001908152602001600020600090556001935050505061040d565b600091505061040d565b6060600082516001600160401b038111156122ec576122ec61288f565b604051908082528060200260200182016040528015612315578160200160208202803683370190505b50905060005b83516123289060006129b2565b8110156123fb5786868281518110612342576123426126d6565b602002602001015186838151811061235c5761235c6126d6565b6020026020010151868481518110612376576123766126d6565b60200260200101516040516020016123c09493929190606094851b6bffffffffffffffffffffffff1990811682529390941b90921660148401526028830152604882015260680190565b604051602081830303815290604052805190602001208282815181106123e8576123e86126d6565b602090810291909101015260010161231b565b5095945050505050565b60405180610100016040528061241961245c565b815260200160006001600160a01b031681526020016060815260200160008152602001606081526020016060815260200160608152602001600060ff1681525090565b6040518060a0016040528060006001600160a01b03168152602001606081526020016060815260200160608152602001606081525090565b6000602082840312156124a657600080fd5b81356001600160e01b03198116811461051657600080fd5b600080604083850312156124d157600080fd5b50508035926020909101359150565b6000602082840312156124f257600080fd5b5035919050565b6001600160a01b03811681146104e857600080fd5b6000806040838503121561252157600080fd5b823591506020830135612533816124f9565b809150509250929050565b60006020828403121561255057600080fd5b81356001600160401b0381111561256657600080fd5b82016080818503121561051657600080fd5b60008083601f84011261258a57600080fd5b5081356001600160401b038111156125a157600080fd5b6020830191508360208260051b85010111156125bc57600080fd5b9250929050565b600080600080604085870312156125d957600080fd5b84356001600160401b03808211156125f057600080fd5b6125fc88838901612578565b9096509450602087013591508082111561261557600080fd5b5061262287828801612578565b95989497509550505050565b60006020828403121561264057600080fd5b8135610516816124f9565b6000806040838503121561265e57600080fd5b8235612669816124f9565b946020939093013593505050565b6000808335601e1984360301811261268e57600080fd5b8301803591506001600160401b038211156126a857600080fd5b6020019150600581901b36038213156125bc57600080fd5b634e487b7160e01b600052602160045260246000fd5b634e487b7160e01b600052603260045260246000fd5b60008235607e1983360301811261270257600080fd5b9190910192915050565b6000808335601e1984360301811261272357600080fd5b83016020810192503590506001600160401b0381111561274257600080fd5b8060051b36038213156125bc57600080fd5b81835260006001600160fb1b0383111561276d57600080fd5b8260051b80836020870137939093016020019392505050565b81835281816020850137506000828201602090810191909152601f909101601f19169091010190565b6001600160a01b038381168252604060208301526000906127d0848061270c565b608060408601526127e560c086018284612754565b9150506127f5602086018661270c565b603f198087850301606088015261280d848385612754565b93506040880135925061281f836124f9565b938216608087015260608701359336889003601e1901851261284057600080fd5b6020948801948501943592506001600160401b0383111561286057600080fd5b82360385131561286f57600080fd5b8684030160a087015250612884828285612786565b979650505050505050565b634e487b7160e01b600052604160045260246000fd5b600281106128c357634e487b7160e01b600052602160045260246000fd5b9052565b600060408083526128db8184018688612754565b83810360208581019190915285518083528682019282019060005b8181101561297457845180516001600160a01b0390811685528582015116858501528681015187850152606080820151908501526080808201519085015260a0808201519085015260c08082015160ff169085015260e0908101519061295e818601836128a5565b50509383019361010092909201916001016128f6565b50909998505050505050505050565b60006020828403121561299557600080fd5b5051919050565b634e487b7160e01b600052601160045260246000fd5b8082018082111561040d5761040d61299c565b808202811582820484141761040d5761040d61299c565b8181038181111561040d5761040d61299c565b600060208284031215612a0157600080fd5b8151610516816124f9565b60005b83811015612a27578181015183820152602001612a0f565b50506000910152565b7f416363657373436f6e74726f6c3a206163636f756e7420000000000000000000815260008351612a68816017850160208801612a0c565b7001034b99036b4b9b9b4b733903937b6329607d1b6017918401918201528351612a99816028840160208801612a0c565b01602801949350505050565b6020815260008251806020840152612ac4816040850160208701612a0c565b601f01601f19169190910160400192915050565b600081612ae757612ae761299c565b506000190190565b634e487b7160e01b600052603160045260246000fdfeb19546dff01e856fb3f010c267a7b1c60363cf8a4664e21cc89c26224620214ea2646970667358221220d7324bad1a873f0e0fd9a57af58210977c71903d3649ada6c21b714c5d1ef82c64736f6c63430008130033",
  "devdoc": {
    "author": "Untangled Team",
    "events": {
      "Initialized(uint8)": {
        "details": "Triggered when the contract has been initialized or reinitialized."
      },
      "Paused(address)": {
        "details": "Emitted when the pause is triggered by `account`."
      },
      "RoleAdminChanged(bytes32,bytes32,bytes32)": {
        "details": "Emitted when `newAdminRole` is set as ``role``'s admin role, replacing `previousAdminRole` `DEFAULT_ADMIN_ROLE` is the starting admin for all roles, despite {RoleAdminChanged} not being emitted signaling this. _Available since v3.1._"
      },
      "RoleGranted(bytes32,address,address)": {
        "details": "Emitted when `account` is granted `role`. `sender` is the account that originated the contract call, an admin role bearer except when using {AccessControl-_setupRole}."
      },
      "RoleRevoked(bytes32,address,address)": {
        "details": "Emitted when `account` is revoked `role`. `sender` is the account that originated the contract call:   - if using `revokeRole`, it is the admin role bearer   - if using `renounceRole`, it is the role bearer (i.e. `account`)"
      },
      "Unpaused(address)": {
        "details": "Emitted when the pause is lifted by `account`."
      }
    },
    "kind": "dev",
    "methods": {
      "concludeLoan(address,bytes32)": {
        "details": "A loan, stop lending/loan terms or allow the loan loss"
      },
      "getRoleAdmin(bytes32)": {
        "details": "Returns the admin role that controls `role`. See {grantRole} and {revokeRole}. To change a role's admin, use {_setRoleAdmin}."
      },
      "getRoleMember(bytes32,uint256)": {
        "details": "Returns one of the accounts that have `role`. `index` must be a value between 0 and {getRoleMemberCount}, non-inclusive. Role bearers are not sorted in any particular way, and their ordering may change at any point. WARNING: When using {getRoleMember} and {getRoleMemberCount}, make sure you perform all queries on the same block. See the following https://forum.openzeppelin.com/t/iterating-over-elements-on-enumerableset-in-openzeppelin-contracts/2296[forum post] for more information."
      },
      "getRoleMemberCount(bytes32)": {
        "details": "Returns the number of accounts that have `role`. Can be used together with {getRoleMember} to enumerate all bearers of a role."
      },
      "grantRole(bytes32,address)": {
        "details": "Grants `role` to `account`. If `account` had not been already granted `role`, emits a {RoleGranted} event. Requirements: - the caller must have ``role``'s admin role. May emit a {RoleGranted} event."
      },
      "hasRole(bytes32,address)": {
        "details": "Returns `true` if `account` has been granted `role`."
      },
      "paused()": {
        "details": "Returns true if the contract is paused, and false otherwise."
      },
      "renounceRole(bytes32,address)": {
        "details": "Revokes `role` from the calling account. Roles are often managed via {grantRole} and {revokeRole}: this function's purpose is to provide a mechanism for accounts to lose their privileges if they are compromised (such as when a trusted device is misplaced). If the calling account had been revoked `role`, emits a {RoleRevoked} event. Requirements: - the caller must be `account`. May emit a {RoleRevoked} event."
      },
      "revokeRole(bytes32,address)": {
        "details": "Revokes `role` from `account`. If `account` had been granted `role`, emits a {RoleRevoked} event. Requirements: - the caller must have ``role``'s admin role. May emit a {RoleRevoked} event."
      },
      "supportsInterface(bytes4)": {
        "details": "See {IERC165-supportsInterface}."
      }
    },
    "title": "LoanKernel",
    "version": 1
  },
  "userdoc": {
    "kind": "user",
    "methods": {
      "concludeLoan(address,bytes32)": {
        "notice": "conclude a loan by stopping lending/loan terms or allowing the loan loss. It takes the creditor, agreement ID, and term contract as input"
      },
      "fillDebtOrder((address[],uint256[],bytes32[],(uint256[],uint256[],address,bytes)[]))": {
        "notice": "Filling new Debt Order Notice: - All Debt Order must to have same:   + TermContract   + Creditor Fee   + Debtor Fee"
      }
    },
    "notice": "Upload loan and conclude loan",
    "version": 1
  },
  "storageLayout": {
    "storage": [
      {
        "astId": 11938,
        "contract": "contracts/protocol/loan/LoanKernel.sol:LoanKernel",
        "label": "registry",
        "offset": 0,
        "slot": "0",
        "type": "t_contract(Registry)31401"
      },
      {
        "astId": 12052,
        "contract": "contracts/protocol/loan/LoanKernel.sol:LoanKernel",
        "label": "issuanceCancelled",
        "offset": 0,
        "slot": "1",
        "type": "t_mapping(t_bytes32,t_bool)"
      },
      {
        "astId": 12056,
        "contract": "contracts/protocol/loan/LoanKernel.sol:LoanKernel",
        "label": "debtOrderCancelled",
        "offset": 0,
        "slot": "2",
        "type": "t_mapping(t_bytes32,t_bool)"
      },
      {
        "astId": 12060,
        "contract": "contracts/protocol/loan/LoanKernel.sol:LoanKernel",
        "label": "debtOrderCompleted",
        "offset": 0,
        "slot": "3",
        "type": "t_mapping(t_bytes32,t_bool)"
      },
      {
        "astId": 765,
        "contract": "contracts/protocol/loan/LoanKernel.sol:LoanKernel",
        "label": "_initialized",
        "offset": 0,
        "slot": "4",
        "type": "t_uint8"
      },
      {
        "astId": 768,
        "contract": "contracts/protocol/loan/LoanKernel.sol:LoanKernel",
        "label": "_initializing",
        "offset": 1,
        "slot": "4",
        "type": "t_bool"
      },
      {
        "astId": 4282,
        "contract": "contracts/protocol/loan/LoanKernel.sol:LoanKernel",
        "label": "__gap",
        "offset": 0,
        "slot": "5",
        "type": "t_array(t_uint256)50_storage"
      },
      {
        "astId": 948,
        "contract": "contracts/protocol/loan/LoanKernel.sol:LoanKernel",
        "label": "_paused",
        "offset": 0,
        "slot": "55",
        "type": "t_bool"
      },
      {
        "astId": 1053,
        "contract": "contracts/protocol/loan/LoanKernel.sol:LoanKernel",
        "label": "__gap",
        "offset": 0,
        "slot": "56",
        "type": "t_array(t_uint256)49_storage"
      },
      {
        "astId": 1068,
        "contract": "contracts/protocol/loan/LoanKernel.sol:LoanKernel",
        "label": "_status",
        "offset": 0,
        "slot": "105",
        "type": "t_uint256"
      },
      {
        "astId": 1137,
        "contract": "contracts/protocol/loan/LoanKernel.sol:LoanKernel",
        "label": "__gap",
        "offset": 0,
        "slot": "106",
        "type": "t_array(t_uint256)49_storage"
      },
      {
        "astId": 5572,
        "contract": "contracts/protocol/loan/LoanKernel.sol:LoanKernel",
        "label": "__gap",
        "offset": 0,
        "slot": "155",
        "type": "t_array(t_uint256)50_storage"
      },
      {
        "astId": 184,
        "contract": "contracts/protocol/loan/LoanKernel.sol:LoanKernel",
        "label": "_roles",
        "offset": 0,
        "slot": "205",
        "type": "t_mapping(t_bytes32,t_struct(RoleData)179_storage)"
      },
      {
        "astId": 479,
        "contract": "contracts/protocol/loan/LoanKernel.sol:LoanKernel",
        "label": "__gap",
        "offset": 0,
        "slot": "206",
        "type": "t_array(t_uint256)49_storage"
      },
      {
        "astId": 33,
        "contract": "contracts/protocol/loan/LoanKernel.sol:LoanKernel",
        "label": "_roleMembers",
        "offset": 0,
        "slot": "255",
        "type": "t_mapping(t_bytes32,t_struct(AddressSet)6882_storage)"
      },
      {
        "astId": 143,
        "contract": "contracts/protocol/loan/LoanKernel.sol:LoanKernel",
        "label": "__gap",
        "offset": 0,
        "slot": "256",
        "type": "t_array(t_uint256)49_storage"
      },
      {
        "astId": 10866,
        "contract": "contracts/protocol/loan/LoanKernel.sol:LoanKernel",
        "label": "__gap",
        "offset": 0,
        "slot": "305",
        "type": "t_array(t_uint256)50_storage"
      },
      {
        "astId": 13288,
        "contract": "contracts/protocol/loan/LoanKernel.sol:LoanKernel",
        "label": "__gap",
        "offset": 0,
        "slot": "355",
        "type": "t_array(t_uint256)50_storage"
      }
    ],
    "types": {
      "t_address": {
        "encoding": "inplace",
        "label": "address",
        "numberOfBytes": "20"
      },
      "t_array(t_bytes32)dyn_storage": {
        "base": "t_bytes32",
        "encoding": "dynamic_array",
        "label": "bytes32[]",
        "numberOfBytes": "32"
      },
      "t_array(t_uint256)49_storage": {
        "base": "t_uint256",
        "encoding": "inplace",
        "label": "uint256[49]",
        "numberOfBytes": "1568"
      },
      "t_array(t_uint256)50_storage": {
        "base": "t_uint256",
        "encoding": "inplace",
        "label": "uint256[50]",
        "numberOfBytes": "1600"
      },
      "t_bool": {
        "encoding": "inplace",
        "label": "bool",
        "numberOfBytes": "1"
      },
      "t_bytes32": {
        "encoding": "inplace",
        "label": "bytes32",
        "numberOfBytes": "32"
      },
      "t_contract(Registry)31401": {
        "encoding": "inplace",
        "label": "contract Registry",
        "numberOfBytes": "20"
      },
      "t_mapping(t_address,t_bool)": {
        "encoding": "mapping",
        "key": "t_address",
        "label": "mapping(address => bool)",
        "numberOfBytes": "32",
        "value": "t_bool"
      },
      "t_mapping(t_bytes32,t_bool)": {
        "encoding": "mapping",
        "key": "t_bytes32",
        "label": "mapping(bytes32 => bool)",
        "numberOfBytes": "32",
        "value": "t_bool"
      },
      "t_mapping(t_bytes32,t_struct(AddressSet)6882_storage)": {
        "encoding": "mapping",
        "key": "t_bytes32",
        "label": "mapping(bytes32 => struct EnumerableSetUpgradeable.AddressSet)",
        "numberOfBytes": "32",
        "value": "t_struct(AddressSet)6882_storage"
      },
      "t_mapping(t_bytes32,t_struct(RoleData)179_storage)": {
        "encoding": "mapping",
        "key": "t_bytes32",
        "label": "mapping(bytes32 => struct AccessControlUpgradeable.RoleData)",
        "numberOfBytes": "32",
        "value": "t_struct(RoleData)179_storage"
      },
      "t_mapping(t_bytes32,t_uint256)": {
        "encoding": "mapping",
        "key": "t_bytes32",
        "label": "mapping(bytes32 => uint256)",
        "numberOfBytes": "32",
        "value": "t_uint256"
      },
      "t_struct(AddressSet)6882_storage": {
        "encoding": "inplace",
        "label": "struct EnumerableSetUpgradeable.AddressSet",
        "members": [
          {
            "astId": 6881,
            "contract": "contracts/protocol/loan/LoanKernel.sol:LoanKernel",
            "label": "_inner",
            "offset": 0,
            "slot": "0",
            "type": "t_struct(Set)6567_storage"
          }
        ],
        "numberOfBytes": "64"
      },
      "t_struct(RoleData)179_storage": {
        "encoding": "inplace",
        "label": "struct AccessControlUpgradeable.RoleData",
        "members": [
          {
            "astId": 176,
            "contract": "contracts/protocol/loan/LoanKernel.sol:LoanKernel",
            "label": "members",
            "offset": 0,
            "slot": "0",
            "type": "t_mapping(t_address,t_bool)"
          },
          {
            "astId": 178,
            "contract": "contracts/protocol/loan/LoanKernel.sol:LoanKernel",
            "label": "adminRole",
            "offset": 0,
            "slot": "1",
            "type": "t_bytes32"
          }
        ],
        "numberOfBytes": "64"
      },
      "t_struct(Set)6567_storage": {
        "encoding": "inplace",
        "label": "struct EnumerableSetUpgradeable.Set",
        "members": [
          {
            "astId": 6562,
            "contract": "contracts/protocol/loan/LoanKernel.sol:LoanKernel",
            "label": "_values",
            "offset": 0,
            "slot": "0",
            "type": "t_array(t_bytes32)dyn_storage"
          },
          {
            "astId": 6566,
            "contract": "contracts/protocol/loan/LoanKernel.sol:LoanKernel",
            "label": "_indexes",
            "offset": 0,
            "slot": "1",
            "type": "t_mapping(t_bytes32,t_uint256)"
          }
        ],
        "numberOfBytes": "64"
      },
      "t_uint256": {
        "encoding": "inplace",
        "label": "uint256",
        "numberOfBytes": "32"
      },
      "t_uint8": {
        "encoding": "inplace",
        "label": "uint8",
        "numberOfBytes": "1"
      }
    }
  }
}