{
  "address": "0x32680917eE5bbDA1e2A2F906693DEa99ebDBeB88",
  "abi": [
    {
      "anonymous": false,
      "inputs": [
        {
          "indexed": true,
          "internalType": "address",
          "name": "owner",
          "type": "address"
        },
        {
          "indexed": true,
          "internalType": "address",
          "name": "approved",
          "type": "address"
        },
        {
          "indexed": true,
          "internalType": "uint256",
          "name": "tokenId",
          "type": "uint256"
        }
      ],
      "name": "Approval",
      "type": "event"
    },
    {
      "anonymous": false,
      "inputs": [
        {
          "indexed": true,
          "internalType": "address",
          "name": "owner",
          "type": "address"
        },
        {
          "indexed": true,
          "internalType": "address",
          "name": "operator",
          "type": "address"
        },
        {
          "indexed": false,
          "internalType": "bool",
          "name": "approved",
          "type": "bool"
        }
      ],
      "name": "ApprovalForAll",
      "type": "event"
    },
    {
      "anonymous": false,
      "inputs": [],
      "name": "EIP712DomainChanged",
      "type": "event"
    },
    {
      "anonymous": false,
      "inputs": [
        {
          "indexed": false,
          "internalType": "uint8",
          "name": "version",
          "type": "uint8"
        }
      ],
      "name": "Initialized",
      "type": "event"
    },
    {
      "anonymous": false,
      "inputs": [
        {
          "indexed": false,
          "internalType": "uint256",
          "name": "tokenId",
          "type": "uint256"
        },
        {
          "indexed": false,
          "internalType": "uint256",
          "name": "nonce",
          "type": "uint256"
        }
      ],
      "name": "NonceChanged",
      "type": "event"
    },
    {
      "anonymous": false,
      "inputs": [
        {
          "indexed": false,
          "internalType": "address",
          "name": "account",
          "type": "address"
        }
      ],
      "name": "Paused",
      "type": "event"
    },
    {
      "anonymous": false,
      "inputs": [
        {
          "indexed": true,
          "internalType": "bytes32",
          "name": "role",
          "type": "bytes32"
        },
        {
          "indexed": true,
          "internalType": "bytes32",
          "name": "previousAdminRole",
          "type": "bytes32"
        },
        {
          "indexed": true,
          "internalType": "bytes32",
          "name": "newAdminRole",
          "type": "bytes32"
        }
      ],
      "name": "RoleAdminChanged",
      "type": "event"
    },
    {
      "anonymous": false,
      "inputs": [
        {
          "indexed": true,
          "internalType": "bytes32",
          "name": "role",
          "type": "bytes32"
        },
        {
          "indexed": true,
          "internalType": "address",
          "name": "account",
          "type": "address"
        },
        {
          "indexed": true,
          "internalType": "address",
          "name": "sender",
          "type": "address"
        }
      ],
      "name": "RoleGranted",
      "type": "event"
    },
    {
      "anonymous": false,
      "inputs": [
        {
          "indexed": true,
          "internalType": "bytes32",
          "name": "role",
          "type": "bytes32"
        },
        {
          "indexed": true,
          "internalType": "address",
          "name": "account",
          "type": "address"
        },
        {
          "indexed": true,
          "internalType": "address",
          "name": "sender",
          "type": "address"
        }
      ],
      "name": "RoleRevoked",
      "type": "event"
    },
    {
      "anonymous": false,
      "inputs": [
        {
          "indexed": true,
          "internalType": "address",
          "name": "from",
          "type": "address"
        },
        {
          "indexed": true,
          "internalType": "address",
          "name": "to",
          "type": "address"
        },
        {
          "indexed": true,
          "internalType": "uint256",
          "name": "tokenId",
          "type": "uint256"
        }
      ],
      "name": "Transfer",
      "type": "event"
    },
    {
      "anonymous": false,
      "inputs": [
        {
          "indexed": false,
          "internalType": "address",
          "name": "account",
          "type": "address"
        }
      ],
      "name": "Unpaused",
      "type": "event"
    },
    {
      "inputs": [],
      "name": "DEFAULT_ADMIN_ROLE",
      "outputs": [
        {
          "internalType": "bytes32",
          "name": "",
          "type": "bytes32"
        }
      ],
      "stateMutability": "view",
      "type": "function"
    },
    {
      "inputs": [],
      "name": "MINTER_ROLE",
      "outputs": [
        {
          "internalType": "bytes32",
          "name": "",
          "type": "bytes32"
        }
      ],
      "stateMutability": "view",
      "type": "function"
    },
    {
      "inputs": [],
      "name": "PAUSER_ROLE",
      "outputs": [
        {
          "internalType": "bytes32",
          "name": "",
          "type": "bytes32"
        }
      ],
      "stateMutability": "view",
      "type": "function"
    },
    {
      "inputs": [
        {
          "internalType": "address",
          "name": "to",
          "type": "address"
        },
        {
          "internalType": "uint256",
          "name": "tokenId",
          "type": "uint256"
        }
      ],
      "name": "approve",
      "outputs": [],
      "stateMutability": "nonpayable",
      "type": "function"
    },
    {
      "inputs": [
        {
          "internalType": "address",
          "name": "owner",
          "type": "address"
        }
      ],
      "name": "balanceOf",
      "outputs": [
        {
          "internalType": "uint256",
          "name": "",
          "type": "uint256"
        }
      ],
      "stateMutability": "view",
      "type": "function"
    },
    {
      "inputs": [
        {
          "internalType": "uint256",
          "name": "tokenId",
          "type": "uint256"
        }
      ],
      "name": "burn",
      "outputs": [],
      "stateMutability": "nonpayable",
      "type": "function"
    },
    {
      "inputs": [],
      "name": "domainSeparatorV4",
      "outputs": [
        {
          "internalType": "bytes32",
          "name": "",
          "type": "bytes32"
        }
      ],
      "stateMutability": "view",
      "type": "function"
    },
    {
      "inputs": [],
      "name": "eip712Domain",
      "outputs": [
        {
          "internalType": "bytes1",
          "name": "fields",
          "type": "bytes1"
        },
        {
          "internalType": "string",
          "name": "name",
          "type": "string"
        },
        {
          "internalType": "string",
          "name": "version",
          "type": "string"
        },
        {
          "internalType": "uint256",
          "name": "chainId",
          "type": "uint256"
        },
        {
          "internalType": "address",
          "name": "verifyingContract",
          "type": "address"
        },
        {
          "internalType": "bytes32",
          "name": "salt",
          "type": "bytes32"
        },
        {
          "internalType": "uint256[]",
          "name": "extensions",
          "type": "uint256[]"
        }
      ],
      "stateMutability": "view",
      "type": "function"
    },
    {
      "inputs": [
        {
          "internalType": "uint256",
          "name": "tokenId",
          "type": "uint256"
        }
      ],
      "name": "getApproved",
      "outputs": [
        {
          "internalType": "address",
          "name": "",
          "type": "address"
        }
      ],
      "stateMutability": "view",
      "type": "function"
    },
    {
      "inputs": [
        {
          "internalType": "uint256",
          "name": "_tokenId",
          "type": "uint256"
        }
      ],
      "name": "getAssetPurpose",
      "outputs": [
        {
          "internalType": "enum Configuration.ASSET_PURPOSE",
          "name": "",
          "type": "uint8"
        }
      ],
      "stateMutability": "view",
      "type": "function"
    },
    {
      "inputs": [
        {
          "internalType": "uint256",
          "name": "tokenId",
          "type": "uint256"
        },
        {
          "internalType": "uint256",
          "name": "timestamp",
          "type": "uint256"
        }
      ],
      "name": "getExpectedRepaymentValues",
      "outputs": [
        {
          "internalType": "uint256",
          "name": "expectedPrincipal",
          "type": "uint256"
        },
        {
          "internalType": "uint256",
          "name": "expectedInterest",
          "type": "uint256"
        }
      ],
      "stateMutability": "view",
      "type": "function"
    },
    {
      "inputs": [
        {
          "internalType": "uint256",
          "name": "_tokenId",
          "type": "uint256"
        }
      ],
      "name": "getExpirationTimestamp",
      "outputs": [
        {
          "internalType": "uint256",
          "name": "",
          "type": "uint256"
        }
      ],
      "stateMutability": "view",
      "type": "function"
    },
    {
      "inputs": [
        {
          "internalType": "uint256",
          "name": "_tokenId",
          "type": "uint256"
        }
      ],
      "name": "getInterestRate",
      "outputs": [
        {
          "internalType": "uint256",
          "name": "beneficiary",
          "type": "uint256"
        }
      ],
      "stateMutability": "view",
      "type": "function"
    },
    {
      "inputs": [
        {
          "internalType": "uint256",
          "name": "_tokenId",
          "type": "uint256"
        }
      ],
      "name": "getRiskScore",
      "outputs": [
        {
          "internalType": "uint8",
          "name": "",
          "type": "uint8"
        }
      ],
      "stateMutability": "view",
      "type": "function"
    },
    {
      "inputs": [
        {
          "internalType": "bytes32",
          "name": "role",
          "type": "bytes32"
        }
      ],
      "name": "getRoleAdmin",
      "outputs": [
        {
          "internalType": "bytes32",
          "name": "",
          "type": "bytes32"
        }
      ],
      "stateMutability": "view",
      "type": "function"
    },
    {
      "inputs": [
        {
          "internalType": "bytes32",
          "name": "role",
          "type": "bytes32"
        },
        {
          "internalType": "uint256",
          "name": "index",
          "type": "uint256"
        }
      ],
      "name": "getRoleMember",
      "outputs": [
        {
          "internalType": "address",
          "name": "",
          "type": "address"
        }
      ],
      "stateMutability": "view",
      "type": "function"
    },
    {
      "inputs": [
        {
          "internalType": "bytes32",
          "name": "role",
          "type": "bytes32"
        }
      ],
      "name": "getRoleMemberCount",
      "outputs": [
        {
          "internalType": "uint256",
          "name": "",
          "type": "uint256"
        }
      ],
      "stateMutability": "view",
      "type": "function"
    },
    {
      "inputs": [
        {
          "internalType": "uint256",
          "name": "agreementId",
          "type": "uint256"
        },
        {
          "internalType": "uint256",
          "name": "timestamp",
          "type": "uint256"
        }
      ],
      "name": "getTotalExpectedRepaymentValue",
      "outputs": [
        {
          "internalType": "uint256",
          "name": "expectedRepaymentValue",
          "type": "uint256"
        }
      ],
      "stateMutability": "view",
      "type": "function"
    },
    {
      "inputs": [
        {
          "internalType": "bytes32",
          "name": "role",
          "type": "bytes32"
        },
        {
          "internalType": "address",
          "name": "account",
          "type": "address"
        }
      ],
      "name": "grantRole",
      "outputs": [],
      "stateMutability": "nonpayable",
      "type": "function"
    },
    {
      "inputs": [
        {
          "internalType": "bytes32",
          "name": "role",
          "type": "bytes32"
        },
        {
          "internalType": "address",
          "name": "account",
          "type": "address"
        }
      ],
      "name": "hasRole",
      "outputs": [
        {
          "internalType": "bool",
          "name": "",
          "type": "bool"
        }
      ],
      "stateMutability": "view",
      "type": "function"
    },
    {
      "inputs": [
        {
          "internalType": "contract Registry",
          "name": "_registry",
          "type": "address"
        },
        {
          "internalType": "string",
          "name": "name",
          "type": "string"
        },
        {
          "internalType": "string",
          "name": "symbol",
          "type": "string"
        },
        {
          "internalType": "string",
          "name": "baseTokenURI",
          "type": "string"
        }
      ],
      "name": "initialize",
      "outputs": [],
      "stateMutability": "nonpayable",
      "type": "function"
    },
    {
      "inputs": [
        {
          "internalType": "string",
          "name": "name",
          "type": "string"
        },
        {
          "internalType": "string",
          "name": "symbol",
          "type": "string"
        },
        {
          "internalType": "string",
          "name": "baseTokenURI",
          "type": "string"
        }
      ],
      "name": "initialize",
      "outputs": [],
      "stateMutability": "nonpayable",
      "type": "function"
    },
    {
      "inputs": [
        {
          "internalType": "address",
          "name": "owner",
          "type": "address"
        },
        {
          "internalType": "address",
          "name": "operator",
          "type": "address"
        }
      ],
      "name": "isApprovedForAll",
      "outputs": [
        {
          "internalType": "bool",
          "name": "",
          "type": "bool"
        }
      ],
      "stateMutability": "view",
      "type": "function"
    },
    {
      "inputs": [
        {
          "internalType": "address",
          "name": "sender",
          "type": "address"
        }
      ],
      "name": "isValidator",
      "outputs": [
        {
          "internalType": "bool",
          "name": "",
          "type": "bool"
        }
      ],
      "stateMutability": "view",
      "type": "function"
    },
    {
      "inputs": [
        {
          "internalType": "address",
          "name": "to",
          "type": "address"
        },
        {
          "internalType": "uint256",
          "name": "tokenId",
          "type": "uint256"
        }
      ],
      "name": "mint",
      "outputs": [],
      "stateMutability": "nonpayable",
      "type": "function"
    },
    {
      "inputs": [
        {
          "internalType": "address",
          "name": "to",
          "type": "address"
        }
      ],
      "name": "mint",
      "outputs": [],
      "stateMutability": "nonpayable",
      "type": "function"
    },
    {
      "inputs": [],
      "name": "name",
      "outputs": [
        {
          "internalType": "string",
          "name": "",
          "type": "string"
        }
      ],
      "stateMutability": "view",
      "type": "function"
    },
    {
      "inputs": [
        {
          "internalType": "uint256",
          "name": "tokenId",
          "type": "uint256"
        }
      ],
      "name": "nonce",
      "outputs": [
        {
          "internalType": "uint256",
          "name": "",
          "type": "uint256"
        }
      ],
      "stateMutability": "view",
      "type": "function"
    },
    {
      "inputs": [
        {
          "internalType": "uint256",
          "name": "tokenId",
          "type": "uint256"
        }
      ],
      "name": "ownerOf",
      "outputs": [
        {
          "internalType": "address",
          "name": "",
          "type": "address"
        }
      ],
      "stateMutability": "view",
      "type": "function"
    },
    {
      "inputs": [],
      "name": "pause",
      "outputs": [],
      "stateMutability": "nonpayable",
      "type": "function"
    },
    {
      "inputs": [],
      "name": "paused",
      "outputs": [
        {
          "internalType": "bool",
          "name": "",
          "type": "bool"
        }
      ],
      "stateMutability": "view",
      "type": "function"
    },
    {
      "inputs": [],
      "name": "registry",
      "outputs": [
        {
          "internalType": "contract Registry",
          "name": "",
          "type": "address"
        }
      ],
      "stateMutability": "view",
      "type": "function"
    },
    {
      "inputs": [
        {
          "internalType": "bytes32",
          "name": "role",
          "type": "bytes32"
        },
        {
          "internalType": "address",
          "name": "account",
          "type": "address"
        }
      ],
      "name": "renounceRole",
      "outputs": [],
      "stateMutability": "nonpayable",
      "type": "function"
    },
    {
      "inputs": [
        {
          "internalType": "bytes32",
          "name": "role",
          "type": "bytes32"
        },
        {
          "internalType": "address",
          "name": "account",
          "type": "address"
        }
      ],
      "name": "revokeRole",
      "outputs": [],
      "stateMutability": "nonpayable",
      "type": "function"
    },
    {
      "inputs": [
        {
          "internalType": "address",
          "name": "to",
          "type": "address"
        },
        {
          "internalType": "uint256",
          "name": "tokenId",
          "type": "uint256"
        }
      ],
      "name": "safeMint",
      "outputs": [],
      "stateMutability": "nonpayable",
      "type": "function"
    },
    {
      "inputs": [
        {
          "internalType": "address",
          "name": "creditor",
          "type": "address"
        },
        {
          "components": [
            {
              "internalType": "uint256[]",
              "name": "tokenIds",
              "type": "uint256[]"
            },
            {
              "internalType": "uint256[]",
              "name": "nonces",
              "type": "uint256[]"
            },
            {
              "internalType": "address",
              "name": "validator",
              "type": "address"
            },
            {
              "internalType": "bytes",
              "name": "validateSignature",
              "type": "bytes"
            }
          ],
          "internalType": "struct LoanAssetInfo",
          "name": "latInfo",
          "type": "tuple"
        }
      ],
      "name": "safeMint",
      "outputs": [],
      "stateMutability": "nonpayable",
      "type": "function"
    },
    {
      "inputs": [
        {
          "internalType": "address",
          "name": "from",
          "type": "address"
        },
        {
          "internalType": "address",
          "name": "to",
          "type": "address"
        },
        {
          "internalType": "uint256",
          "name": "tokenId",
          "type": "uint256"
        }
      ],
      "name": "safeTransferFrom",
      "outputs": [],
      "stateMutability": "nonpayable",
      "type": "function"
    },
    {
      "inputs": [
        {
          "internalType": "address",
          "name": "from",
          "type": "address"
        },
        {
          "internalType": "address",
          "name": "to",
          "type": "address"
        },
        {
          "internalType": "uint256",
          "name": "tokenId",
          "type": "uint256"
        },
        {
          "internalType": "bytes",
          "name": "data",
          "type": "bytes"
        }
      ],
      "name": "safeTransferFrom",
      "outputs": [],
      "stateMutability": "nonpayable",
      "type": "function"
    },
    {
      "inputs": [
        {
          "internalType": "address",
          "name": "operator",
          "type": "address"
        },
        {
          "internalType": "bool",
          "name": "approved",
          "type": "bool"
        }
      ],
      "name": "setApprovalForAll",
      "outputs": [],
      "stateMutability": "nonpayable",
      "type": "function"
    },
    {
      "inputs": [
        {
          "internalType": "bytes4",
          "name": "interfaceId",
          "type": "bytes4"
        }
      ],
      "name": "supportsInterface",
      "outputs": [
        {
          "internalType": "bool",
          "name": "",
          "type": "bool"
        }
      ],
      "stateMutability": "view",
      "type": "function"
    },
    {
      "inputs": [],
      "name": "symbol",
      "outputs": [
        {
          "internalType": "string",
          "name": "",
          "type": "string"
        }
      ],
      "stateMutability": "view",
      "type": "function"
    },
    {
      "inputs": [
        {
          "internalType": "uint256",
          "name": "index",
          "type": "uint256"
        }
      ],
      "name": "tokenByIndex",
      "outputs": [
        {
          "internalType": "uint256",
          "name": "",
          "type": "uint256"
        }
      ],
      "stateMutability": "view",
      "type": "function"
    },
    {
      "inputs": [
        {
          "internalType": "address",
          "name": "owner",
          "type": "address"
        },
        {
          "internalType": "uint256",
          "name": "index",
          "type": "uint256"
        }
      ],
      "name": "tokenOfOwnerByIndex",
      "outputs": [
        {
          "internalType": "uint256",
          "name": "",
          "type": "uint256"
        }
      ],
      "stateMutability": "view",
      "type": "function"
    },
    {
      "inputs": [
        {
          "internalType": "uint256",
          "name": "tokenId",
          "type": "uint256"
        }
      ],
      "name": "tokenURI",
      "outputs": [
        {
          "internalType": "string",
          "name": "",
          "type": "string"
        }
      ],
      "stateMutability": "view",
      "type": "function"
    },
    {
      "inputs": [],
      "name": "totalSupply",
      "outputs": [
        {
          "internalType": "uint256",
          "name": "",
          "type": "uint256"
        }
      ],
      "stateMutability": "view",
      "type": "function"
    },
    {
      "inputs": [
        {
          "internalType": "address",
          "name": "from",
          "type": "address"
        },
        {
          "internalType": "address",
          "name": "to",
          "type": "address"
        },
        {
          "internalType": "uint256",
          "name": "tokenId",
          "type": "uint256"
        }
      ],
      "name": "transferFrom",
      "outputs": [],
      "stateMutability": "nonpayable",
      "type": "function"
    },
    {
      "inputs": [],
      "name": "unpause",
      "outputs": [],
      "stateMutability": "nonpayable",
      "type": "function"
    }
  ],
  "transactionHash": "0xb409d230db36f74abc8b3dff745a6071ba104802ca50e189df26f416d2567467",
  "args": [],
  "numDeployments": 1,
  "solcInputHash": "bc99b6bd8732826bbf655534ee624119",
  "bytecode": "0x608060405234801561001057600080fd5b506141b5806100206000396000f3fe608060405234801561001057600080fd5b50600436106102955760003560e01c80637b10399911610167578063c6b97b5a116100ce578063d9e5896e11610087578063d9e5896e146105f8578063e371d6cf1461060b578063e63ab1e91461061e578063e985e9c514610633578063f0cb1d861461066f578063facd743b1461068257600080fd5b8063c6b97b5a14610564578063c87b56dd14610589578063ca15c8731461059c578063ce03fdab146105af578063d5391393146105d0578063d547741f146105e557600080fd5b8063a144819411610120578063a1448194146104f0578063a217fddf14610503578063a22cb4651461050b578063a6487c531461051e578063b88d4fde14610531578063c3786c671461054457600080fd5b80637b1039991461048b5780638456cb591461049f57806384b0196e146104a75780639010d07c146104c257806391d14854146104d557806395d89b41146104e857600080fd5b806336568abe1161020b5780635c975abb116101c45780635c975abb1461042b5780635f1e6f6d146104375780636352211e1461044a5780636a6278421461045d57806370a082311461047057806378e890ba1461048357600080fd5b806336568abe146103c45780633f4ba83a146103d757806340c10f19146103df57806342842e0e146103f257806342966c68146104055780634f6ccce71461041857600080fd5b806318160ddd1161025d57806318160ddd1461033857806319fe83371461034057806323b872dd14610368578063248a9ca31461037b5780632f2ff15d1461039e5780632f745c59146103b157600080fd5b806301ffc9a71461029a57806306fdde03146102c2578063081812fc146102d7578063095ea7b3146103025780630c196a7414610317575b600080fd5b6102ad6102a83660046135f7565b610695565b60405190151581526020015b60405180910390f35b6102ca6106a6565b6040516102b99190613664565b6102ea6102e5366004613677565b610738565b6040516001600160a01b0390911681526020016102b9565b6103156103103660046136a5565b61075f565b005b61032a610325366004613677565b610879565b6040519081526020016102b9565b60fd5461032a565b61035361034e3660046136d1565b6108fe565b604080519283526020830191909152016102b9565b6103156103763660046136f3565b610998565b61032a610389366004613677565b60009081526065602052604090206001015490565b6103156103ac366004613734565b6109ca565b61032a6103bf3660046136a5565b6109ef565b6103156103d2366004613734565b610a85565b610315610b03565b6103156103ed3660046136a5565b610b99565b6103156104003660046136f3565b610bbb565b610315610413366004613677565b610bd6565b61032a610426366004613677565b610c07565b61015f5460ff166102ad565b610315610445366004613810565b610c9a565b6102ea610458366004613677565b610f55565b61031561046b3660046138ab565b610fb5565b61032a61047e3660046138ab565b611061565b61032a6110e7565b6101f5546102ea906001600160a01b031681565b6103156110f6565b6104af611188565b6040516102b997969594939291906138c8565b6102ea6104d03660046136d1565b611228565b6102ad6104e3366004613734565b611247565b6102ca611272565b6103156104fe3660046136a5565b611281565b61032a600081565b61031561051936600461396c565b6112a3565b61031561052c36600461399a565b6112ae565b61031561053f366004613a22565b61137e565b610557610552366004613677565b6113b0565b6040516102b99190613aac565b610577610572366004613677565b611434565b60405160ff90911681526020016102b9565b6102ca610597366004613677565b6114b8565b61032a6105aa366004613677565b61151e565b61032a6105bd366004613677565b600090815261028d602052604090205490565b61032a60008051602061416083398151915281565b6103156105f3366004613734565b611535565b61032a610606366004613677565b61155a565b61032a6106193660046136d1565b6115a2565b61032a60008051602061414083398151915281565b6102ad610641366004613ad4565b6001600160a01b03918216600090815260ce6020908152604080832093909416825291909152205460ff1690565b61031561067d366004613b02565b6115c9565b6102ad6106903660046138ab565b6117a9565b60006106a0826117d5565b92915050565b606060c980546106b590613b4e565b80601f01602080910402602001604051908101604052809291908181526020018280546106e190613b4e565b801561072e5780601f106107035761010080835404028352916020019161072e565b820191906000526020600020905b81548152906001019060200180831161071157829003601f168201915b5050505050905090565b6000610743826117fa565b50600090815260cd60205260409020546001600160a01b031690565b600061076a82610f55565b9050806001600160a01b0316836001600160a01b0316036107dc5760405162461bcd60e51b815260206004820152602160248201527f4552433732313a20617070726f76616c20746f2063757272656e74206f776e656044820152603960f91b60648201526084015b60405180910390fd5b336001600160a01b03821614806107f857506107f88133610641565b61086a5760405162461bcd60e51b815260206004820152603d60248201527f4552433732313a20617070726f76652063616c6c6572206973206e6f7420746f60448201527f6b656e206f776e6572206f7220617070726f76656420666f7220616c6c00000060648201526084016107d3565b6108748383611859565b505050565b6101f554600090610892906001600160a01b03166118c7565b60405163f9750cb360e01b8152600481018490526001600160a01b03919091169063f9750cb3906024015b602060405180830381865afa1580156108da573d6000803e3d6000fd5b505050506040513d601f19601f820116820180604052508101906106a09190613b88565b6101f5546000908190849061091b906001600160a01b03166118c7565b604051630da730d160e31b815260048101839052602481018690526001600160a01b039190911690636d398688906044016040805180830381865afa158015610968573d6000803e3d6000fd5b505050506040513d601f19601f8201168201806040525081019061098c9190613ba1565b90969095509350505050565b6109a3335b826118d4565b6109bf5760405162461bcd60e51b81526004016107d390613bc5565b610874838383611953565b6000828152606560205260409020600101546109e581611ac4565b6108748383611ace565b60006109fa83611061565b8210610a5c5760405162461bcd60e51b815260206004820152602b60248201527f455243373231456e756d657261626c653a206f776e657220696e646578206f7560448201526a74206f6620626f756e647360a81b60648201526084016107d3565b506001600160a01b0391909116600090815260fb60209081526040808320938352929052205490565b6001600160a01b0381163314610af55760405162461bcd60e51b815260206004820152602f60248201527f416363657373436f6e74726f6c3a2063616e206f6e6c792072656e6f756e636560448201526e103937b632b9903337b91039b2b63360891b60648201526084016107d3565b610aff8282611af0565b5050565b610b1b60008051602061414083398151915233611247565b610b8f576040805162461bcd60e51b81526020600482015260248101919091527f4552433732315072657365744d696e7465725061757365724175746f49643a2060448201527f6d75737420686176652070617573657220726f6c6520746f20756e706175736560648201526084016107d3565b610b97611b12565b565b600080516020614160833981519152610bb181611ac4565b6108748383611b65565b6108748383836040518060200160405280600081525061137e565b610bdf3361099d565b610bfb5760405162461bcd60e51b81526004016107d390613bc5565b610c0481611cfe565b50565b6000610c1260fd5490565b8210610c755760405162461bcd60e51b815260206004820152602c60248201527f455243373231456e756d657261626c653a20676c6f62616c20696e646578206f60448201526b7574206f6620626f756e647360a01b60648201526084016107d3565b60fd8281548110610c8857610c88613c12565b90600052602060002001549050919050565b600054610100900460ff1615808015610cba5750600054600160ff909116105b80610cd45750303b158015610cd4575060005460ff166001145b610cf05760405162461bcd60e51b81526004016107d390613c28565b6000805460ff191660011790558015610d13576000805461ff0019166101001790555b610d1e848484611da1565b610d26611dd3565b6101f580546001600160a01b0319166001600160a01b038716179055610d52600033611e5e565b611e5e565b6101f554600090610d6b906001600160a01b0316611e68565b6001600160a01b031603610dd15760405162461bcd60e51b815260206004820152602760248201527f53454355524954495a4154494f4e5f4d414e41474552206973207a65726f206160448201526632323932b9b99760c91b60648201526084016107d3565b6101f554610e0d907ffa3e63d5771fd4999b619dee634be9dbb03c309738cc2adaadd49c4f5595adb090610d4d906001600160a01b0316611e68565b610e577f21702c8af46127c7fa207f89d0b0a8441bb32959a0ac7df790e9ab1a25c989267ffa3e63d5771fd4999b619dee634be9dbb03c309738cc2adaadd49c4f5595adb0611e75565b6101f554600090610e70906001600160a01b0316611ec0565b6001600160a01b031603610ec65760405162461bcd60e51b815260206004820152601c60248201527f4c4f414e5f4b45524e454c206973207a65726f20616464726573732e0000000060448201526064016107d3565b6101f554610ef09060008051602061416083398151915290610d4d906001600160a01b0316611ec0565b610f0860008051602061416083398151915233611af0565b8015610f4e576000805461ff0019169055604051600181527f7f26b83ff96e1f2b6a682f133852f6798a09c465da95921460cefb38474024989060200160405180910390a15b5050505050565b600081815260cb60205260408120546001600160a01b0316806106a05760405162461bcd60e51b8152602060048201526018602482015277115490cdcc8c4e881a5b9d985b1a59081d1bdad95b88125160421b60448201526064016107d3565b610fcd60008051602061416083398151915233611247565b61103f5760405162461bcd60e51b815260206004820152603d60248201527f4552433732315072657365744d696e7465725061757365724175746f49643a2060448201527f6d7573742068617665206d696e74657220726f6c6520746f206d696e7400000060648201526084016107d3565b6110528161104d6101c35490565b611b65565b610c046101c380546001019055565b60006001600160a01b0382166110cb5760405162461bcd60e51b815260206004820152602960248201527f4552433732313a2061646472657373207a65726f206973206e6f7420612076616044820152683634b21037bbb732b960b91b60648201526084016107d3565b506001600160a01b0316600090815260cc602052604090205490565b60006110f1611ecd565b905090565b61110e60008051602061414083398151915233611247565b6111805760405162461bcd60e51b815260206004820152603e60248201527f4552433732315072657365744d696e7465725061757365724175746f49643a2060448201527f6d75737420686176652070617573657220726f6c6520746f207061757365000060648201526084016107d3565b610b97611ed7565b600060608060008060006060610259546000801b1480156111aa575061025a54155b6111ee5760405162461bcd60e51b81526020600482015260156024820152741152540dcc4c8e88155b9a5b9a5d1a585b1a5e9959605a1b60448201526064016107d3565b6111f6611f15565b6111fe611f25565b60408051600080825260208201909252600f60f81b9b939a50919850469750309650945092509050565b60008281526097602052604081206112409083611f35565b9392505050565b60009182526065602090815260408084206001600160a01b0393909316845291905290205460ff1690565b606060ca80546106b590613b4e565b60008051602061416083398151915261129981611ac4565b6108748383611f41565b610aff338383611f5b565b600054610100900460ff16158080156112ce5750600054600160ff909116105b806112e85750303b1580156112e8575060005460ff166001145b6113045760405162461bcd60e51b81526004016107d390613c28565b6000805460ff191660011790558015611327576000805461ff0019166101001790555b611332848484612029565b8015611378576000805461ff0019169055604051600181527f7f26b83ff96e1f2b6a682f133852f6798a09c465da95921460cefb38474024989060200160405180910390a15b50505050565b61138833836118d4565b6113a45760405162461bcd60e51b81526004016107d390613bc5565b6113788484848461206d565b6101f5546000906113c9906001600160a01b03166120a0565b604051635babe5f760e01b8152600481018490526001600160a01b039190911690635babe5f790602401602060405180830381865afa158015611410573d6000803e3d6000fd5b505050506040513d601f19601f820116820180604052508101906106a09190613c76565b6101f55460009061144d906001600160a01b03166120a0565b60405163f5b0eb1d60e01b8152600481018490526001600160a01b03919091169063f5b0eb1d90602401602060405180830381865afa158015611494573d6000803e3d6000fd5b505050506040513d601f19601f820116820180604052508101906106a09190613c97565b60606114c3826117fa565b60006114cd6120ad565b905060008151116114ed5760405180602001604052806000815250611240565b806114f7846120bd565b604051602001611508929190613cba565b6040516020818303038152906040529392505050565b60008181526097602052604081206106a090612150565b60008281526065602052604090206001015461155081611ac4565b6108748383611af0565b6101f554600090611573906001600160a01b03166120a0565b604051636302821960e01b8152600481018490526001600160a01b0391909116906363028219906024016108bd565b60008060006115b185856108fe565b90925090506115c08183613cff565b95945050505050565b6000805160206141608339815191526115e181611ac4565b82826115fd6001600160a01b03831663909ca5a960e01b61215a565b801561161e575061161e6001600160a01b03831663395dfc6360e11b61215a565b1561175957816001600160a01b0316634020c8d16040518163ffffffff1660e01b8152600401602060405180830381865afa158015611661573d6000803e3d6000fd5b505050506040513d601f19601f820116820180604052508101906116859190613d12565b156117595761169381612176565b61169c8161234d565b6116fa5760405162461bcd60e51b815260206004820152602960248201527f4c415456616c696461746f723a20696e76616c69642076616c696461746f72206044820152687369676e617475726560b81b60648201526084016107d3565b61170d61069060608301604084016138ab565b6117595760405162461bcd60e51b815260206004820152601f60248201527f4c415456616c696461746f723a20696e76616c69642076616c696461746f720060448201526064016107d3565b60005b6117668580613d2f565b90508110156117a1576117998661177d8780613d2f565b8481811061178d5761178d613c12565b90506020020135611f41565b60010161175c565b505050505050565b60006106a07f21702c8af46127c7fa207f89d0b0a8441bb32959a0ac7df790e9ab1a25c9892683611247565b60006001600160e01b0319821663780e9d6360e01b14806106a057506106a08261249a565b600081815260cb60205260409020546001600160a01b0316610c045760405162461bcd60e51b8152602060048201526018602482015277115490cdcc8c4e881a5b9d985b1a59081d1bdad95b88125160421b60448201526064016107d3565b600081815260cd6020526040902080546001600160a01b0319166001600160a01b038416908117909155819061188e82610f55565b6001600160a01b03167f8c5be1e5ebec7d5bd14f71427d1e84f3dd0314c0f7b2291e5b200ac8c7c3b92560405160405180910390a45050565b60006106a082600b6124da565b6000806118e083610f55565b9050806001600160a01b0316846001600160a01b0316148061192757506001600160a01b03808216600090815260ce602090815260408083209388168352929052205460ff165b8061194b5750836001600160a01b031661194084610738565b6001600160a01b0316145b949350505050565b826001600160a01b031661196682610f55565b6001600160a01b03161461198c5760405162461bcd60e51b81526004016107d390613d79565b6001600160a01b0382166119ee5760405162461bcd60e51b8152602060048201526024808201527f4552433732313a207472616e7366657220746f20746865207a65726f206164646044820152637265737360e01b60648201526084016107d3565b6119fb838383600161255f565b826001600160a01b0316611a0e82610f55565b6001600160a01b031614611a345760405162461bcd60e51b81526004016107d390613d79565b600081815260cd6020908152604080832080546001600160a01b03199081169091556001600160a01b0387811680865260cc855283862080546000190190559087168086528386208054600101905586865260cb90945282852080549092168417909155905184937fddf252ad1be2c89b69c2b068fc378daa952ba7f163c4a11628f55a4df523b3ef91a4505050565b610c04813361256b565b611ad882826125c4565b6000828152609760205260409020610874908261264a565b611afa828261265f565b600082815260976020526040902061087490826126c6565b611b1a6126db565b61015f805460ff191690557f5db9ee0a495bf2e6ff9c91a7834c1ba4fdd244a5e8aa4e537bd38aeae4b073aa335b6040516001600160a01b03909116815260200160405180910390a1565b6001600160a01b038216611bbb5760405162461bcd60e51b815260206004820181905260248201527f4552433732313a206d696e7420746f20746865207a65726f206164647265737360448201526064016107d3565b600081815260cb60205260409020546001600160a01b031615611c205760405162461bcd60e51b815260206004820152601c60248201527f4552433732313a20746f6b656e20616c7265616479206d696e7465640000000060448201526064016107d3565b611c2e60008383600161255f565b600081815260cb60205260409020546001600160a01b031615611c935760405162461bcd60e51b815260206004820152601c60248201527f4552433732313a20746f6b656e20616c7265616479206d696e7465640000000060448201526064016107d3565b6001600160a01b038216600081815260cc602090815260408083208054600101905584835260cb90915280822080546001600160a01b0319168417905551839291907fddf252ad1be2c89b69c2b068fc378daa952ba7f163c4a11628f55a4df523b3ef908290a45050565b6000611d0982610f55565b9050611d1981600084600161255f565b611d2282610f55565b600083815260cd6020908152604080832080546001600160a01b03199081169091556001600160a01b03851680855260cc8452828520805460001901905587855260cb909352818420805490911690555192935084927fddf252ad1be2c89b69c2b068fc378daa952ba7f163c4a11628f55a4df523b3ef908390a45050565b600054610100900460ff16611dc85760405162461bcd60e51b81526004016107d390613dbe565b610874838383612725565b600054610100900460ff16611dfa5760405162461bcd60e51b81526004016107d390613dbe565b611e566040518060400160405280601781526020017f556e74616e676c65644c6f616e4173736574546f6b656e00000000000000000081525060405180604001604052806005815260200164302e302e3160d81b81525061274c565b610b9761279f565b610aff8282611ace565b60006106a08260006124da565b600082815260656020526040808220600101805490849055905190918391839186917fbd79b86ffe0ab8e8776151514217cd7cacd52c909f66475c3af44e129f0b00ff9190a4505050565b60006106a082600d6124da565b60006110f16127c6565b611edf61283a565b61015f805460ff191660011790557f62e78cea01bee320cd4e420270b5ea74000d11b0c9f74754ebdbfc544b05a258611b483390565b606061025b80546106b590613b4e565b606061025c80546106b590613b4e565b60006112408383612881565b610aff8282604051806020016040528060008152506128ab565b816001600160a01b0316836001600160a01b031603611fbc5760405162461bcd60e51b815260206004820152601960248201527f4552433732313a20617070726f766520746f2063616c6c65720000000000000060448201526064016107d3565b6001600160a01b03838116600081815260ce6020908152604080832094871680845294825291829020805460ff191686151590811790915591519182527f17307eab39ab6107e8899845ad3d59bd9653f200f220920489ca2b5937696c31910160405180910390a3505050565b600054610100900460ff166120505760405162461bcd60e51b81526004016107d390613dbe565b61205a83836128de565b61206261291e565b610874838383612952565b612078848484611953565b612084848484846129c2565b6113785760405162461bcd60e51b81526004016107d390613e09565b60006106a082600a6124da565b60606101c480546106b590613b4e565b606060006120ca83612ac3565b600101905060008167ffffffffffffffff8111156120ea576120ea613764565b6040519080825280601f01601f191660200182016040528015612114576020820181803683370190505b5090508181016020015b600019016f181899199a1a9b1b9c1cb0b131b232b360811b600a86061a8153600a850494508461211e57509392505050565b60006106a0825490565b600061216583612b9b565b801561124057506112408383612bce565b60005b6121838280613d2f565b9050811015610aff576121996020830183613d2f565b828181106121a9576121a9613c12565b6020029190910135905061028d60006121c28580613d2f565b858181106121d2576121d2613c12565b90506020020135815260200190815260200160002054146122355760405162461bcd60e51b815260206004820152601b60248201527f4c415456616c696461746f723a20696e76616c6964206e6f6e6365000000000060448201526064016107d3565b61028d60006122448480613d2f565b8481811061225457612254613c12565b9050602002013581526020019081526020016000205460010161028d60008480600001906122829190613d2f565b8581811061229257612292613c12565b60209081029290920135835250810191909152604001600020557fb654334c51bba8d327a24d6f66ad0871ad4b777b6b9432176a0b95a358c1de5d6122d78380613d2f565b838181106122e7576122e7613c12565b6020029190910135905061028d60006123008680613d2f565b8681811061231057612310613c12565b9050602002013581526020019081526020016000205460405161233d929190918252602082015260400190565b60405180910390a1600101612179565b6000806124327f24644e232f31121e461b536805a8b6f085e48f5bdc747891c42f909b887617e861237e8580613d2f565b60405160200161238f929190613e5b565b604051602081830303815290604052805190602001208580602001906123b59190613d2f565b6040516020016123c6929190613e5b565b604051602081830303815290604052805190602001208660400160208101906123ef91906138ab565b60408051602081019590955284019290925260608301526001600160a01b0316608082015260a00160405160208183030381529060405280519060200120612c57565b9050611240816124456060860186613e84565b8080601f01602080910402602001604051908101604052809392919081815260200183838082843760009201919091525061248a9250505060608701604088016138ab565b6001600160a01b03169190612c84565b60006001600160e01b031982166380ac58cd60e01b14806124cb57506001600160e01b03198216635b5e139f60e01b145b806106a057506106a082612ce5565b6000826001600160a01b031663bcaa0c5583601a8111156124fd576124fd613a96565b6040516001600160e01b031960e084901b16815260ff9091166004820152602401602060405180830381865afa15801561253b573d6000803e3d6000fd5b505050506040513d601f19601f820116820180604052508101906112409190613ecb565b61137884848484612d0a565b6125758282611247565b610aff5761258281612d7e565b61258d836020612d90565b60405160200161259e929190613ee8565b60408051601f198184030181529082905262461bcd60e51b82526107d391600401613664565b6125ce8282611247565b610aff5760008281526065602090815260408083206001600160a01b03851684529091529020805460ff191660011790556126063390565b6001600160a01b0316816001600160a01b0316837f2f8788117e7eff1d82e926ec794901d17c78024a50270940304540a733656f0d60405160405180910390a45050565b6000611240836001600160a01b038416612f2c565b6126698282611247565b15610aff5760008281526065602090815260408083206001600160a01b0385168085529252808320805460ff1916905551339285917ff6391f5c32d9c69d2a47ea670b442974b53935d1edc7fd64eb21e047a839171b9190a45050565b6000611240836001600160a01b038416612f7b565b61015f5460ff16610b975760405162461bcd60e51b815260206004820152601460248201527314185d5cd8589b194e881b9bdd081c185d5cd95960621b60448201526064016107d3565b600054610100900460ff166120625760405162461bcd60e51b81526004016107d390613dbe565b600054610100900460ff166127735760405162461bcd60e51b81526004016107d390613dbe565b61025b6127808382613fa3565b5061025c61278e8282613fa3565b5050600061025981905561025a5550565b600054610100900460ff16610b975760405162461bcd60e51b81526004016107d390613dbe565b60007f8b73c3c69bb8fe3d512ecc4cf759cc79239f7b179b0ffacaa9a75d522b39400f6127f161306e565b6127f96130c8565b60408051602081019490945283019190915260608201524660808201523060a082015260c00160405160208183030381529060405280519060200120905090565b61015f5460ff1615610b975760405162461bcd60e51b815260206004820152601060248201526f14185d5cd8589b194e881c185d5cd95960821b60448201526064016107d3565b600082600001828154811061289857612898613c12565b9060005260206000200154905092915050565b6128b58383611b65565b6128c260008484846129c2565b6108745760405162461bcd60e51b81526004016107d390613e09565b600054610100900460ff166129055760405162461bcd60e51b81526004016107d390613dbe565b60c96129118382613fa3565b5060ca6108748282613fa3565b600054610100900460ff166129455760405162461bcd60e51b81526004016107d390613dbe565b61015f805460ff19169055565b600054610100900460ff166129795760405162461bcd60e51b81526004016107d390613dbe565b6101c46129868282613fa3565b50612992600033611e5e565b6129aa60008051602061416083398151915233611e5e565b61087460008051602061414083398151915233611e5e565b60006001600160a01b0384163b15612ab857604051630a85bd0160e11b81526001600160a01b0385169063150b7a0290612a06903390899088908890600401614063565b6020604051808303816000875af1925050508015612a41575060408051601f3d908101601f19168201909252612a3e91810190614096565b60015b612a9e573d808015612a6f576040519150601f19603f3d011682016040523d82523d6000602084013e612a74565b606091505b508051600003612a965760405162461bcd60e51b81526004016107d390613e09565b805181602001fd5b6001600160e01b031916630a85bd0160e11b14905061194b565b506001949350505050565b60008072184f03e93ff9f4daa797ed6e38ed64bf6a1f0160401b8310612b025772184f03e93ff9f4daa797ed6e38ed64bf6a1f0160401b830492506040015b6d04ee2d6d415b85acef81000000008310612b2e576d04ee2d6d415b85acef8100000000830492506020015b662386f26fc100008310612b4c57662386f26fc10000830492506010015b6305f5e1008310612b64576305f5e100830492506008015b6127108310612b7857612710830492506004015b60648310612b8a576064830492506002015b600a83106106a05760010192915050565b6000612bae826301ffc9a760e01b612bce565b80156106a05750612bc7826001600160e01b0319612bce565b1592915050565b604080516001600160e01b03198316602480830191909152825180830390910181526044909101909152602080820180516001600160e01b03166301ffc9a760e01b178152825160009392849283928392918391908a617530fa92503d91506000519050828015612c40575060208210155b8015612c4c5750600081115b979650505050505050565b60006106a0612c64611ecd565b8360405161190160f01b8152600281019290925260228201526042902090565b6000806000612c9385856130fa565b90925090506000816004811115612cac57612cac613a96565b148015612cca5750856001600160a01b0316826001600160a01b0316145b80612cdb5750612cdb86868661313f565b9695505050505050565b60006001600160e01b03198216635a05180f60e01b14806106a057506106a08261322b565b612d1684848484613260565b61015f5460ff16156113785760405162461bcd60e51b815260206004820152602b60248201527f4552433732315061757361626c653a20746f6b656e207472616e73666572207760448201526a1a1a5b19481c185d5cd95960aa1b60648201526084016107d3565b60606106a06001600160a01b03831660145b60606000612d9f8360026140b3565b612daa906002613cff565b67ffffffffffffffff811115612dc257612dc2613764565b6040519080825280601f01601f191660200182016040528015612dec576020820181803683370190505b509050600360fc1b81600081518110612e0757612e07613c12565b60200101906001600160f81b031916908160001a905350600f60fb1b81600181518110612e3657612e36613c12565b60200101906001600160f81b031916908160001a9053506000612e5a8460026140b3565b612e65906001613cff565b90505b6001811115612edd576f181899199a1a9b1b9c1cb0b131b232b360811b85600f1660108110612e9957612e99613c12565b1a60f81b828281518110612eaf57612eaf613c12565b60200101906001600160f81b031916908160001a90535060049490941c93612ed6816140ca565b9050612e68565b5083156112405760405162461bcd60e51b815260206004820181905260248201527f537472696e67733a20686578206c656e67746820696e73756666696369656e7460448201526064016107d3565b6000818152600183016020526040812054612f73575081546001818101845560008481526020808220909301849055845484825282860190935260409020919091556106a0565b5060006106a0565b60008181526001830160205260408120548015613064576000612f9f6001836140e1565b8554909150600090612fb3906001906140e1565b9050818114613018576000866000018281548110612fd357612fd3613c12565b9060005260206000200154905080876000018481548110612ff657612ff6613c12565b6000918252602080832090910192909255918252600188019052604090208390555b8554869080613029576130296140f4565b6001900381819060005260206000200160009055905585600101600086815260200190815260200160002060009055600193505050506106a0565b60009150506106a0565b600080613079611f15565b805190915015613090578051602090910120919050565b6102595480156130a05792915050565b7fc5d2460186f7233c927e7db2dcc703c0e500b653ca82273b7bfad8045d85a4709250505090565b6000806130d3611f25565b8051909150156130ea578051602090910120919050565b61025a5480156130a05792915050565b60008082516041036131305760208301516040840151606085015160001a6131248782858561338d565b94509450505050613138565b506000905060025b9250929050565b6000806000856001600160a01b0316631626ba7e60e01b868660405160240161316992919061410a565b60408051601f198184030181529181526020820180516001600160e01b03166001600160e01b03199094169390931790925290516131a79190614123565b600060405180830381855afa9150503d80600081146131e2576040519150601f19603f3d011682016040523d82523d6000602084013e6131e7565b606091505b50915091508180156131fb57506020815110155b8015612cdb57508051630b135d3f60e11b906132209083016020908101908401613b88565b149695505050505050565b60006001600160e01b03198216637965db0b60e01b14806106a057506301ffc9a760e01b6001600160e01b03198316146106a0565b60018111156132cf5760405162461bcd60e51b815260206004820152603560248201527f455243373231456e756d657261626c653a20636f6e7365637574697665207472604482015274185b9cd9995c9cc81b9bdd081cdd5c1c1bdc9d1959605a1b60648201526084016107d3565b816001600160a01b03851661332b576133268160fd8054600083815260fe60205260408120829055600182018355919091527f9346ac6dd7de6b96975fec380d4d994c4c12e6a8897544f22915316cc6cca2800155565b61334e565b836001600160a01b0316856001600160a01b03161461334e5761334e8582613451565b6001600160a01b03841661336a57613365816134ee565b610f4e565b846001600160a01b0316846001600160a01b031614610f4e57610f4e848261359d565b6000807f7fffffffffffffffffffffffffffffff5d576e7357a4501ddfe92f46681b20a08311156133c45750600090506003613448565b6040805160008082526020820180845289905260ff881692820192909252606081018690526080810185905260019060a0016020604051602081039080840390855afa158015613418573d6000803e3d6000fd5b5050604051601f1901519150506001600160a01b03811661344157600060019250925050613448565b9150600090505b94509492505050565b6000600161345e84611061565b61346891906140e1565b600083815260fc60205260409020549091508082146134bb576001600160a01b038416600090815260fb60209081526040808320858452825280832054848452818420819055835260fc90915290208190555b50600091825260fc602090815260408084208490556001600160a01b03909416835260fb81528383209183525290812055565b60fd54600090613500906001906140e1565b600083815260fe602052604081205460fd805493945090928490811061352857613528613c12565b906000526020600020015490508060fd838154811061354957613549613c12565b600091825260208083209091019290925582815260fe909152604080822084905585825281205560fd805480613581576135816140f4565b6001900381819060005260206000200160009055905550505050565b60006135a883611061565b6001600160a01b03909316600090815260fb60209081526040808320868452825280832085905593825260fc9052919091209190915550565b6001600160e01b031981168114610c0457600080fd5b60006020828403121561360957600080fd5b8135611240816135e1565b60005b8381101561362f578181015183820152602001613617565b50506000910152565b60008151808452613650816020860160208601613614565b601f01601f19169290920160200192915050565b6020815260006112406020830184613638565b60006020828403121561368957600080fd5b5035919050565b6001600160a01b0381168114610c0457600080fd5b600080604083850312156136b857600080fd5b82356136c381613690565b946020939093013593505050565b600080604083850312156136e457600080fd5b50508035926020909101359150565b60008060006060848603121561370857600080fd5b833561371381613690565b9250602084013561372381613690565b929592945050506040919091013590565b6000806040838503121561374757600080fd5b82359150602083013561375981613690565b809150509250929050565b634e487b7160e01b600052604160045260246000fd5b600067ffffffffffffffff8084111561379557613795613764565b604051601f8501601f19908116603f011681019082821181831017156137bd576137bd613764565b816040528093508581528686860111156137d657600080fd5b858560208301376000602087830101525050509392505050565b600082601f83011261380157600080fd5b6112408383356020850161377a565b6000806000806080858703121561382657600080fd5b843561383181613690565b9350602085013567ffffffffffffffff8082111561384e57600080fd5b61385a888389016137f0565b9450604087013591508082111561387057600080fd5b61387c888389016137f0565b9350606087013591508082111561389257600080fd5b5061389f878288016137f0565b91505092959194509250565b6000602082840312156138bd57600080fd5b813561124081613690565b60ff60f81b881681526000602060e0818401526138e860e084018a613638565b83810360408501526138fa818a613638565b606085018990526001600160a01b038816608086015260a0850187905284810360c0860152855180825283870192509083019060005b8181101561394c57835183529284019291840191600101613930565b50909c9b505050505050505050505050565b8015158114610c0457600080fd5b6000806040838503121561397f57600080fd5b823561398a81613690565b915060208301356137598161395e565b6000806000606084860312156139af57600080fd5b833567ffffffffffffffff808211156139c757600080fd5b6139d3878388016137f0565b945060208601359150808211156139e957600080fd5b6139f5878388016137f0565b93506040860135915080821115613a0b57600080fd5b50613a18868287016137f0565b9150509250925092565b60008060008060808587031215613a3857600080fd5b8435613a4381613690565b93506020850135613a5381613690565b925060408501359150606085013567ffffffffffffffff811115613a7657600080fd5b8501601f81018713613a8757600080fd5b61389f8782356020840161377a565b634e487b7160e01b600052602160045260246000fd5b6020810160028310613ace57634e487b7160e01b600052602160045260246000fd5b91905290565b60008060408385031215613ae757600080fd5b8235613af281613690565b9150602083013561375981613690565b60008060408385031215613b1557600080fd5b8235613b2081613690565b9150602083013567ffffffffffffffff811115613b3c57600080fd5b83016080818603121561375957600080fd5b600181811c90821680613b6257607f821691505b602082108103613b8257634e487b7160e01b600052602260045260246000fd5b50919050565b600060208284031215613b9a57600080fd5b5051919050565b60008060408385031215613bb457600080fd5b505080516020909101519092909150565b6020808252602d908201527f4552433732313a2063616c6c6572206973206e6f7420746f6b656e206f776e6560408201526c1c881bdc88185c1c1c9bdd9959609a1b606082015260800190565b634e487b7160e01b600052603260045260246000fd5b6020808252602e908201527f496e697469616c697a61626c653a20636f6e747261637420697320616c72656160408201526d191e481a5b9a5d1a585b1a5e995960921b606082015260800190565b600060208284031215613c8857600080fd5b81516002811061124057600080fd5b600060208284031215613ca957600080fd5b815160ff8116811461124057600080fd5b60008351613ccc818460208801613614565b835190830190613ce0818360208801613614565b01949350505050565b634e487b7160e01b600052601160045260246000fd5b808201808211156106a0576106a0613ce9565b600060208284031215613d2457600080fd5b81516112408161395e565b6000808335601e19843603018112613d4657600080fd5b83018035915067ffffffffffffffff821115613d6157600080fd5b6020019150600581901b360382131561313857600080fd5b60208082526025908201527f4552433732313a207472616e736665722066726f6d20696e636f72726563742060408201526437bbb732b960d91b606082015260800190565b6020808252602b908201527f496e697469616c697a61626c653a20636f6e7472616374206973206e6f74206960408201526a6e697469616c697a696e6760a81b606082015260800190565b60208082526032908201527f4552433732313a207472616e7366657220746f206e6f6e20455243373231526560408201527131b2b4bb32b91034b6b83632b6b2b73a32b960711b606082015260800190565b60006001600160fb1b03831115613e7157600080fd5b8260051b80858437919091019392505050565b6000808335601e19843603018112613e9b57600080fd5b83018035915067ffffffffffffffff821115613eb657600080fd5b60200191503681900382131561313857600080fd5b600060208284031215613edd57600080fd5b815161124081613690565b7f416363657373436f6e74726f6c3a206163636f756e7420000000000000000000815260008351613f20816017850160208801613614565b7001034b99036b4b9b9b4b733903937b6329607d1b6017918401918201528351613f51816028840160208801613614565b01602801949350505050565b601f82111561087457600081815260208120601f850160051c81016020861015613f845750805b601f850160051c820191505b818110156117a157828155600101613f90565b815167ffffffffffffffff811115613fbd57613fbd613764565b613fd181613fcb8454613b4e565b84613f5d565b602080601f8311600181146140065760008415613fee5750858301515b600019600386901b1c1916600185901b1785556117a1565b600085815260208120601f198616915b8281101561403557888601518255948401946001909101908401614016565b50858210156140535787850151600019600388901b60f8161c191681555b5050505050600190811b01905550565b6001600160a01b0385811682528416602082015260408101839052608060608201819052600090612cdb90830184613638565b6000602082840312156140a857600080fd5b8151611240816135e1565b80820281158282048414176106a0576106a0613ce9565b6000816140d9576140d9613ce9565b506000190190565b818103818111156106a0576106a0613ce9565b634e487b7160e01b600052603160045260246000fd5b82815260406020820152600061194b6040830184613638565b60008251614135818460208701613614565b919091019291505056fe65d7a28e3265b37a6474929f336521b332c1681b933f6cb9f3376673440d862a9f2df0fed2c77648de5860a4cc508cd0818c85b8b8a1ab4ceeef8d981c8956a6a2646970667358221220f82d2ef341d32a549b7ebe41f4d20f894b29b5bb02a5d6fbd238a33cfb12f03864736f6c63430008130033",
  "devdoc": {
    "events": {
      "Approval(address,address,uint256)": {
        "details": "Emitted when `owner` enables `approved` to manage the `tokenId` token."
      },
      "ApprovalForAll(address,address,bool)": {
        "details": "Emitted when `owner` enables or disables (`approved`) `operator` to manage all of its assets."
      },
      "EIP712DomainChanged()": {
        "details": "MAY be emitted to signal that the domain could have changed."
      },
      "Initialized(uint8)": {
        "details": "Triggered when the contract has been initialized or reinitialized."
      },
      "Paused(address)": {
        "details": "Emitted when the pause is triggered by `account`."
      },
      "RoleAdminChanged(bytes32,bytes32,bytes32)": {
        "details": "Emitted when `newAdminRole` is set as ``role``'s admin role, replacing `previousAdminRole` `DEFAULT_ADMIN_ROLE` is the starting admin for all roles, despite {RoleAdminChanged} not being emitted signaling this. _Available since v3.1._"
      },
      "RoleGranted(bytes32,address,address)": {
        "details": "Emitted when `account` is granted `role`. `sender` is the account that originated the contract call, an admin role bearer except when using {AccessControl-_setupRole}."
      },
      "RoleRevoked(bytes32,address,address)": {
        "details": "Emitted when `account` is revoked `role`. `sender` is the account that originated the contract call:   - if using `revokeRole`, it is the admin role bearer   - if using `renounceRole`, it is the role bearer (i.e. `account`)"
      },
      "Transfer(address,address,uint256)": {
        "details": "Emitted when `tokenId` token is transferred from `from` to `to`."
      },
      "Unpaused(address)": {
        "details": "Emitted when the pause is lifted by `account`."
      }
    },
    "kind": "dev",
    "methods": {
      "approve(address,uint256)": {
        "details": "See {IERC721-approve}."
      },
      "balanceOf(address)": {
        "details": "See {IERC721-balanceOf}."
      },
      "burn(uint256)": {
        "details": "Burns `tokenId`. See {ERC721-_burn}. Requirements: - The caller must own `tokenId` or be an approved operator."
      },
      "eip712Domain()": {
        "details": "See {EIP-5267}. _Available since v4.9._"
      },
      "getApproved(uint256)": {
        "details": "See {IERC721-getApproved}."
      },
      "getRoleAdmin(bytes32)": {
        "details": "Returns the admin role that controls `role`. See {grantRole} and {revokeRole}. To change a role's admin, use {_setRoleAdmin}."
      },
      "getRoleMember(bytes32,uint256)": {
        "details": "Returns one of the accounts that have `role`. `index` must be a value between 0 and {getRoleMemberCount}, non-inclusive. Role bearers are not sorted in any particular way, and their ordering may change at any point. WARNING: When using {getRoleMember} and {getRoleMemberCount}, make sure you perform all queries on the same block. See the following https://forum.openzeppelin.com/t/iterating-over-elements-on-enumerableset-in-openzeppelin-contracts/2296[forum post] for more information."
      },
      "getRoleMemberCount(bytes32)": {
        "details": "Returns the number of accounts that have `role`. Can be used together with {getRoleMember} to enumerate all bearers of a role."
      },
      "grantRole(bytes32,address)": {
        "details": "Grants `role` to `account`. If `account` had not been already granted `role`, emits a {RoleGranted} event. Requirements: - the caller must have ``role``'s admin role. May emit a {RoleGranted} event."
      },
      "hasRole(bytes32,address)": {
        "details": "Returns `true` if `account` has been granted `role`."
      },
      "isApprovedForAll(address,address)": {
        "details": "See {IERC721-isApprovedForAll}."
      },
      "mint(address)": {
        "details": "Creates a new token for `to`. Its token ID will be automatically assigned (and available on the emitted {IERC721-Transfer} event), and the token URI autogenerated based on the base URI passed at construction. See {ERC721-_mint}. Requirements: - the caller must have the `MINTER_ROLE`."
      },
      "name()": {
        "details": "See {IERC721Metadata-name}."
      },
      "nonce(uint256)": {
        "params": {
          "tokenId": "The id of the NFT"
        },
        "returns": {
          "_0": "The nonce of the NFT"
        }
      },
      "ownerOf(uint256)": {
        "details": "See {IERC721-ownerOf}."
      },
      "pause()": {
        "details": "Pauses all token transfers. See {ERC721Pausable} and {Pausable-_pause}. Requirements: - the caller must have the `PAUSER_ROLE`."
      },
      "paused()": {
        "details": "Returns true if the contract is paused, and false otherwise."
      },
      "renounceRole(bytes32,address)": {
        "details": "Revokes `role` from the calling account. Roles are often managed via {grantRole} and {revokeRole}: this function's purpose is to provide a mechanism for accounts to lose their privileges if they are compromised (such as when a trusted device is misplaced). If the calling account had been revoked `role`, emits a {RoleRevoked} event. Requirements: - the caller must be `account`. May emit a {RoleRevoked} event."
      },
      "revokeRole(bytes32,address)": {
        "details": "Revokes `role` from `account`. If `account` had been granted `role`, emits a {RoleRevoked} event. Requirements: - the caller must have ``role``'s admin role. May emit a {RoleRevoked} event."
      },
      "safeTransferFrom(address,address,uint256)": {
        "details": "See {IERC721-safeTransferFrom}."
      },
      "safeTransferFrom(address,address,uint256,bytes)": {
        "details": "See {IERC721-safeTransferFrom}."
      },
      "setApprovalForAll(address,bool)": {
        "details": "See {IERC721-setApprovalForAll}."
      },
      "supportsInterface(bytes4)": {
        "details": "See {IERC165-supportsInterface}."
      },
      "symbol()": {
        "details": "See {IERC721Metadata-symbol}."
      },
      "tokenByIndex(uint256)": {
        "details": "See {IERC721Enumerable-tokenByIndex}."
      },
      "tokenOfOwnerByIndex(address,uint256)": {
        "details": "See {IERC721Enumerable-tokenOfOwnerByIndex}."
      },
      "tokenURI(uint256)": {
        "details": "See {IERC721Metadata-tokenURI}."
      },
      "totalSupply()": {
        "details": "See {IERC721Enumerable-totalSupply}."
      },
      "transferFrom(address,address,uint256)": {
        "details": "See {IERC721-transferFrom}."
      },
      "unpause()": {
        "details": "Unpauses all token transfers. See {ERC721Pausable} and {Pausable-_unpause}. Requirements: - the caller must have the `PAUSER_ROLE`."
      }
    },
    "version": 1
  },
  "userdoc": {
    "events": {
      "NonceChanged(uint256,uint256)": {
        "notice": "Emitted when the `nonce` of an NFT is changed"
      }
    },
    "kind": "user",
    "methods": {
      "getExpectedRepaymentValues(uint256,uint256)": {
        "notice": "the expected principal and interest for an asset"
      },
      "getTotalExpectedRepaymentValue(uint256,uint256)": {
        "notice": "calculates the total expected repayment value (principal + interest) for a loan asset token at a given timestamp"
      },
      "initialize(address,string,string,string)": {
        "notice": "CONSTRUCTOR "
      },
      "nonce(uint256)": {
        "notice": "Get the nonce of an NFT Throws if `tokenId` is not a valid NFT"
      }
    },
    "notice": "LoanAssetToken: The representative for ownership of a Loan",
    "version": 1
  },
  "storageLayout": {
    "storage": [
      {
        "astId": 762,
        "contract": "contracts/tokens/ERC721/LoanAssetToken.sol:LoanAssetToken",
        "label": "_initialized",
        "offset": 0,
        "slot": "0",
        "type": "t_uint8"
      },
      {
        "astId": 765,
        "contract": "contracts/tokens/ERC721/LoanAssetToken.sol:LoanAssetToken",
        "label": "_initializing",
        "offset": 1,
        "slot": "0",
        "type": "t_bool"
      },
      {
        "astId": 4279,
        "contract": "contracts/tokens/ERC721/LoanAssetToken.sol:LoanAssetToken",
        "label": "__gap",
        "offset": 0,
        "slot": "1",
        "type": "t_array(t_uint256)50_storage"
      },
      {
        "astId": 5569,
        "contract": "contracts/tokens/ERC721/LoanAssetToken.sol:LoanAssetToken",
        "label": "__gap",
        "offset": 0,
        "slot": "51",
        "type": "t_array(t_uint256)50_storage"
      },
      {
        "astId": 184,
        "contract": "contracts/tokens/ERC721/LoanAssetToken.sol:LoanAssetToken",
        "label": "_roles",
        "offset": 0,
        "slot": "101",
        "type": "t_mapping(t_bytes32,t_struct(RoleData)179_storage)"
      },
      {
        "astId": 479,
        "contract": "contracts/tokens/ERC721/LoanAssetToken.sol:LoanAssetToken",
        "label": "__gap",
        "offset": 0,
        "slot": "102",
        "type": "t_array(t_uint256)49_storage"
      },
      {
        "astId": 33,
        "contract": "contracts/tokens/ERC721/LoanAssetToken.sol:LoanAssetToken",
        "label": "_roleMembers",
        "offset": 0,
        "slot": "151",
        "type": "t_mapping(t_bytes32,t_struct(AddressSet)6879_storage)"
      },
      {
        "astId": 143,
        "contract": "contracts/tokens/ERC721/LoanAssetToken.sol:LoanAssetToken",
        "label": "__gap",
        "offset": 0,
        "slot": "152",
        "type": "t_array(t_uint256)49_storage"
      },
      {
        "astId": 2065,
        "contract": "contracts/tokens/ERC721/LoanAssetToken.sol:LoanAssetToken",
        "label": "_name",
        "offset": 0,
        "slot": "201",
        "type": "t_string_storage"
      },
      {
        "astId": 2067,
        "contract": "contracts/tokens/ERC721/LoanAssetToken.sol:LoanAssetToken",
        "label": "_symbol",
        "offset": 0,
        "slot": "202",
        "type": "t_string_storage"
      },
      {
        "astId": 2071,
        "contract": "contracts/tokens/ERC721/LoanAssetToken.sol:LoanAssetToken",
        "label": "_owners",
        "offset": 0,
        "slot": "203",
        "type": "t_mapping(t_uint256,t_address)"
      },
      {
        "astId": 2075,
        "contract": "contracts/tokens/ERC721/LoanAssetToken.sol:LoanAssetToken",
        "label": "_balances",
        "offset": 0,
        "slot": "204",
        "type": "t_mapping(t_address,t_uint256)"
      },
      {
        "astId": 2079,
        "contract": "contracts/tokens/ERC721/LoanAssetToken.sol:LoanAssetToken",
        "label": "_tokenApprovals",
        "offset": 0,
        "slot": "205",
        "type": "t_mapping(t_uint256,t_address)"
      },
      {
        "astId": 2085,
        "contract": "contracts/tokens/ERC721/LoanAssetToken.sol:LoanAssetToken",
        "label": "_operatorApprovals",
        "offset": 0,
        "slot": "206",
        "type": "t_mapping(t_address,t_mapping(t_address,t_bool))"
      },
      {
        "astId": 2987,
        "contract": "contracts/tokens/ERC721/LoanAssetToken.sol:LoanAssetToken",
        "label": "__gap",
        "offset": 0,
        "slot": "207",
        "type": "t_array(t_uint256)44_storage"
      },
      {
        "astId": 3202,
        "contract": "contracts/tokens/ERC721/LoanAssetToken.sol:LoanAssetToken",
        "label": "_ownedTokens",
        "offset": 0,
        "slot": "251",
        "type": "t_mapping(t_address,t_mapping(t_uint256,t_uint256))"
      },
      {
        "astId": 3206,
        "contract": "contracts/tokens/ERC721/LoanAssetToken.sol:LoanAssetToken",
        "label": "_ownedTokensIndex",
        "offset": 0,
        "slot": "252",
        "type": "t_mapping(t_uint256,t_uint256)"
      },
      {
        "astId": 3209,
        "contract": "contracts/tokens/ERC721/LoanAssetToken.sol:LoanAssetToken",
        "label": "_allTokens",
        "offset": 0,
        "slot": "253",
        "type": "t_array(t_uint256)dyn_storage"
      },
      {
        "astId": 3213,
        "contract": "contracts/tokens/ERC721/LoanAssetToken.sol:LoanAssetToken",
        "label": "_allTokensIndex",
        "offset": 0,
        "slot": "254",
        "type": "t_mapping(t_uint256,t_uint256)"
      },
      {
        "astId": 3545,
        "contract": "contracts/tokens/ERC721/LoanAssetToken.sol:LoanAssetToken",
        "label": "__gap",
        "offset": 0,
        "slot": "255",
        "type": "t_array(t_uint256)46_storage"
      },
      {
        "astId": 3171,
        "contract": "contracts/tokens/ERC721/LoanAssetToken.sol:LoanAssetToken",
        "label": "__gap",
        "offset": 0,
        "slot": "301",
        "type": "t_array(t_uint256)50_storage"
      },
      {
        "astId": 945,
        "contract": "contracts/tokens/ERC721/LoanAssetToken.sol:LoanAssetToken",
        "label": "_paused",
        "offset": 0,
        "slot": "351",
        "type": "t_bool"
      },
      {
        "astId": 1050,
        "contract": "contracts/tokens/ERC721/LoanAssetToken.sol:LoanAssetToken",
        "label": "__gap",
        "offset": 0,
        "slot": "352",
        "type": "t_array(t_uint256)49_storage"
      },
      {
        "astId": 3608,
        "contract": "contracts/tokens/ERC721/LoanAssetToken.sol:LoanAssetToken",
        "label": "__gap",
        "offset": 0,
        "slot": "401",
        "type": "t_array(t_uint256)50_storage"
      },
      {
        "astId": 3725,
        "contract": "contracts/tokens/ERC721/LoanAssetToken.sol:LoanAssetToken",
        "label": "_tokenIdTracker",
        "offset": 0,
        "slot": "451",
        "type": "t_struct(Counter)4286_storage"
      },
      {
        "astId": 3727,
        "contract": "contracts/tokens/ERC721/LoanAssetToken.sol:LoanAssetToken",
        "label": "_baseTokenURI",
        "offset": 0,
        "slot": "452",
        "type": "t_string_storage"
      },
      {
        "astId": 3907,
        "contract": "contracts/tokens/ERC721/LoanAssetToken.sol:LoanAssetToken",
        "label": "__gap",
        "offset": 0,
        "slot": "453",
        "type": "t_array(t_uint256)48_storage"
      },
      {
        "astId": 17721,
        "contract": "contracts/tokens/ERC721/LoanAssetToken.sol:LoanAssetToken",
        "label": "registry",
        "offset": 0,
        "slot": "501",
        "type": "t_contract(Registry)17637"
      },
      {
        "astId": 17848,
        "contract": "contracts/tokens/ERC721/LoanAssetToken.sol:LoanAssetToken",
        "label": "__gap",
        "offset": 0,
        "slot": "502",
        "type": "t_array(t_uint256)49_storage"
      },
      {
        "astId": 17711,
        "contract": "contracts/tokens/ERC721/LoanAssetToken.sol:LoanAssetToken",
        "label": "__gap",
        "offset": 0,
        "slot": "551",
        "type": "t_array(t_uint256)50_storage"
      },
      {
        "astId": 4967,
        "contract": "contracts/tokens/ERC721/LoanAssetToken.sol:LoanAssetToken",
        "label": "_hashedName",
        "offset": 0,
        "slot": "601",
        "type": "t_bytes32"
      },
      {
        "astId": 4970,
        "contract": "contracts/tokens/ERC721/LoanAssetToken.sol:LoanAssetToken",
        "label": "_hashedVersion",
        "offset": 0,
        "slot": "602",
        "type": "t_bytes32"
      },
      {
        "astId": 4972,
        "contract": "contracts/tokens/ERC721/LoanAssetToken.sol:LoanAssetToken",
        "label": "_name",
        "offset": 0,
        "slot": "603",
        "type": "t_string_storage"
      },
      {
        "astId": 4974,
        "contract": "contracts/tokens/ERC721/LoanAssetToken.sol:LoanAssetToken",
        "label": "_version",
        "offset": 0,
        "slot": "604",
        "type": "t_string_storage"
      },
      {
        "astId": 5232,
        "contract": "contracts/tokens/ERC721/LoanAssetToken.sol:LoanAssetToken",
        "label": "__gap",
        "offset": 0,
        "slot": "605",
        "type": "t_array(t_uint256)48_storage"
      },
      {
        "astId": 17895,
        "contract": "contracts/tokens/ERC721/LoanAssetToken.sol:LoanAssetToken",
        "label": "_nonces",
        "offset": 0,
        "slot": "653",
        "type": "t_mapping(t_uint256,t_uint256)"
      },
      {
        "astId": 18139,
        "contract": "contracts/tokens/ERC721/LoanAssetToken.sol:LoanAssetToken",
        "label": "__gap",
        "offset": 0,
        "slot": "654",
        "type": "t_array(t_uint256)50_storage"
      },
      {
        "astId": 18470,
        "contract": "contracts/tokens/ERC721/LoanAssetToken.sol:LoanAssetToken",
        "label": "__gap",
        "offset": 0,
        "slot": "704",
        "type": "t_array(t_uint256)50_storage"
      }
    ],
    "types": {
      "t_address": {
        "encoding": "inplace",
        "label": "address",
        "numberOfBytes": "20"
      },
      "t_array(t_bytes32)dyn_storage": {
        "base": "t_bytes32",
        "encoding": "dynamic_array",
        "label": "bytes32[]",
        "numberOfBytes": "32"
      },
      "t_array(t_uint256)44_storage": {
        "base": "t_uint256",
        "encoding": "inplace",
        "label": "uint256[44]",
        "numberOfBytes": "1408"
      },
      "t_array(t_uint256)46_storage": {
        "base": "t_uint256",
        "encoding": "inplace",
        "label": "uint256[46]",
        "numberOfBytes": "1472"
      },
      "t_array(t_uint256)48_storage": {
        "base": "t_uint256",
        "encoding": "inplace",
        "label": "uint256[48]",
        "numberOfBytes": "1536"
      },
      "t_array(t_uint256)49_storage": {
        "base": "t_uint256",
        "encoding": "inplace",
        "label": "uint256[49]",
        "numberOfBytes": "1568"
      },
      "t_array(t_uint256)50_storage": {
        "base": "t_uint256",
        "encoding": "inplace",
        "label": "uint256[50]",
        "numberOfBytes": "1600"
      },
      "t_array(t_uint256)dyn_storage": {
        "base": "t_uint256",
        "encoding": "dynamic_array",
        "label": "uint256[]",
        "numberOfBytes": "32"
      },
      "t_bool": {
        "encoding": "inplace",
        "label": "bool",
        "numberOfBytes": "1"
      },
      "t_bytes32": {
        "encoding": "inplace",
        "label": "bytes32",
        "numberOfBytes": "32"
      },
      "t_contract(Registry)17637": {
        "encoding": "inplace",
        "label": "contract Registry",
        "numberOfBytes": "20"
      },
      "t_mapping(t_address,t_bool)": {
        "encoding": "mapping",
        "key": "t_address",
        "label": "mapping(address => bool)",
        "numberOfBytes": "32",
        "value": "t_bool"
      },
      "t_mapping(t_address,t_mapping(t_address,t_bool))": {
        "encoding": "mapping",
        "key": "t_address",
        "label": "mapping(address => mapping(address => bool))",
        "numberOfBytes": "32",
        "value": "t_mapping(t_address,t_bool)"
      },
      "t_mapping(t_address,t_mapping(t_uint256,t_uint256))": {
        "encoding": "mapping",
        "key": "t_address",
        "label": "mapping(address => mapping(uint256 => uint256))",
        "numberOfBytes": "32",
        "value": "t_mapping(t_uint256,t_uint256)"
      },
      "t_mapping(t_address,t_uint256)": {
        "encoding": "mapping",
        "key": "t_address",
        "label": "mapping(address => uint256)",
        "numberOfBytes": "32",
        "value": "t_uint256"
      },
      "t_mapping(t_bytes32,t_struct(AddressSet)6879_storage)": {
        "encoding": "mapping",
        "key": "t_bytes32",
        "label": "mapping(bytes32 => struct EnumerableSetUpgradeable.AddressSet)",
        "numberOfBytes": "32",
        "value": "t_struct(AddressSet)6879_storage"
      },
      "t_mapping(t_bytes32,t_struct(RoleData)179_storage)": {
        "encoding": "mapping",
        "key": "t_bytes32",
        "label": "mapping(bytes32 => struct AccessControlUpgradeable.RoleData)",
        "numberOfBytes": "32",
        "value": "t_struct(RoleData)179_storage"
      },
      "t_mapping(t_bytes32,t_uint256)": {
        "encoding": "mapping",
        "key": "t_bytes32",
        "label": "mapping(bytes32 => uint256)",
        "numberOfBytes": "32",
        "value": "t_uint256"
      },
      "t_mapping(t_uint256,t_address)": {
        "encoding": "mapping",
        "key": "t_uint256",
        "label": "mapping(uint256 => address)",
        "numberOfBytes": "32",
        "value": "t_address"
      },
      "t_mapping(t_uint256,t_uint256)": {
        "encoding": "mapping",
        "key": "t_uint256",
        "label": "mapping(uint256 => uint256)",
        "numberOfBytes": "32",
        "value": "t_uint256"
      },
      "t_string_storage": {
        "encoding": "bytes",
        "label": "string",
        "numberOfBytes": "32"
      },
      "t_struct(AddressSet)6879_storage": {
        "encoding": "inplace",
        "label": "struct EnumerableSetUpgradeable.AddressSet",
        "members": [
          {
            "astId": 6878,
            "contract": "contracts/tokens/ERC721/LoanAssetToken.sol:LoanAssetToken",
            "label": "_inner",
            "offset": 0,
            "slot": "0",
            "type": "t_struct(Set)6564_storage"
          }
        ],
        "numberOfBytes": "64"
      },
      "t_struct(Counter)4286_storage": {
        "encoding": "inplace",
        "label": "struct CountersUpgradeable.Counter",
        "members": [
          {
            "astId": 4285,
            "contract": "contracts/tokens/ERC721/LoanAssetToken.sol:LoanAssetToken",
            "label": "_value",
            "offset": 0,
            "slot": "0",
            "type": "t_uint256"
          }
        ],
        "numberOfBytes": "32"
      },
      "t_struct(RoleData)179_storage": {
        "encoding": "inplace",
        "label": "struct AccessControlUpgradeable.RoleData",
        "members": [
          {
            "astId": 176,
            "contract": "contracts/tokens/ERC721/LoanAssetToken.sol:LoanAssetToken",
            "label": "members",
            "offset": 0,
            "slot": "0",
            "type": "t_mapping(t_address,t_bool)"
          },
          {
            "astId": 178,
            "contract": "contracts/tokens/ERC721/LoanAssetToken.sol:LoanAssetToken",
            "label": "adminRole",
            "offset": 0,
            "slot": "1",
            "type": "t_bytes32"
          }
        ],
        "numberOfBytes": "64"
      },
      "t_struct(Set)6564_storage": {
        "encoding": "inplace",
        "label": "struct EnumerableSetUpgradeable.Set",
        "members": [
          {
            "astId": 6559,
            "contract": "contracts/tokens/ERC721/LoanAssetToken.sol:LoanAssetToken",
            "label": "_values",
            "offset": 0,
            "slot": "0",
            "type": "t_array(t_bytes32)dyn_storage"
          },
          {
            "astId": 6563,
            "contract": "contracts/tokens/ERC721/LoanAssetToken.sol:LoanAssetToken",
            "label": "_indexes",
            "offset": 0,
            "slot": "1",
            "type": "t_mapping(t_bytes32,t_uint256)"
          }
        ],
        "numberOfBytes": "64"
      },
      "t_uint256": {
        "encoding": "inplace",
        "label": "uint256",
        "numberOfBytes": "32"
      },
      "t_uint8": {
        "encoding": "inplace",
        "label": "uint8",
        "numberOfBytes": "1"
      }
    }
  }
}