{
  "address": "0xDe9DaCAC5682A1EeF8Af0EbBE303Ce8EcB102772",
  "abi": [
    {
      "anonymous": false,
      "inputs": [],
      "name": "CrowdsaleFinalized",
      "type": "event"
    },
    {
      "anonymous": false,
      "inputs": [
        {
          "indexed": false,
          "internalType": "uint8",
          "name": "version",
          "type": "uint8"
        }
      ],
      "name": "Initialized",
      "type": "event"
    },
    {
      "anonymous": false,
      "inputs": [
        {
          "indexed": false,
          "internalType": "address",
          "name": "account",
          "type": "address"
        }
      ],
      "name": "Paused",
      "type": "event"
    },
    {
      "anonymous": false,
      "inputs": [
        {
          "indexed": true,
          "internalType": "bytes32",
          "name": "role",
          "type": "bytes32"
        },
        {
          "indexed": true,
          "internalType": "bytes32",
          "name": "previousAdminRole",
          "type": "bytes32"
        },
        {
          "indexed": true,
          "internalType": "bytes32",
          "name": "newAdminRole",
          "type": "bytes32"
        }
      ],
      "name": "RoleAdminChanged",
      "type": "event"
    },
    {
      "anonymous": false,
      "inputs": [
        {
          "indexed": true,
          "internalType": "bytes32",
          "name": "role",
          "type": "bytes32"
        },
        {
          "indexed": true,
          "internalType": "address",
          "name": "account",
          "type": "address"
        },
        {
          "indexed": true,
          "internalType": "address",
          "name": "sender",
          "type": "address"
        }
      ],
      "name": "RoleGranted",
      "type": "event"
    },
    {
      "anonymous": false,
      "inputs": [
        {
          "indexed": true,
          "internalType": "bytes32",
          "name": "role",
          "type": "bytes32"
        },
        {
          "indexed": true,
          "internalType": "address",
          "name": "account",
          "type": "address"
        },
        {
          "indexed": true,
          "internalType": "address",
          "name": "sender",
          "type": "address"
        }
      ],
      "name": "RoleRevoked",
      "type": "event"
    },
    {
      "anonymous": false,
      "inputs": [
        {
          "indexed": false,
          "internalType": "bool",
          "name": "hasStarted",
          "type": "bool"
        }
      ],
      "name": "SetHasStarted",
      "type": "event"
    },
    {
      "anonymous": false,
      "inputs": [
        {
          "indexed": false,
          "internalType": "uint256",
          "name": "prevClosingTime",
          "type": "uint256"
        },
        {
          "indexed": false,
          "internalType": "uint256",
          "name": "newClosingTime",
          "type": "uint256"
        }
      ],
      "name": "TimedCrowdsaleExtended",
      "type": "event"
    },
    {
      "anonymous": false,
      "inputs": [
        {
          "indexed": true,
          "internalType": "address",
          "name": "purchaser",
          "type": "address"
        },
        {
          "indexed": true,
          "internalType": "address",
          "name": "beneficiary",
          "type": "address"
        },
        {
          "indexed": false,
          "internalType": "uint256",
          "name": "value",
          "type": "uint256"
        },
        {
          "indexed": false,
          "internalType": "uint256",
          "name": "amount",
          "type": "uint256"
        }
      ],
      "name": "TokensPurchased",
      "type": "event"
    },
    {
      "anonymous": false,
      "inputs": [
        {
          "indexed": false,
          "internalType": "address",
          "name": "account",
          "type": "address"
        }
      ],
      "name": "Unpaused",
      "type": "event"
    },
    {
      "anonymous": false,
      "inputs": [
        {
          "indexed": false,
          "internalType": "uint256",
          "name": "initialAmount",
          "type": "uint256"
        }
      ],
      "name": "UpdateInitialAmount",
      "type": "event"
    },
    {
      "anonymous": false,
      "inputs": [
        {
          "indexed": false,
          "internalType": "uint32",
          "name": "initialInterest",
          "type": "uint32"
        },
        {
          "indexed": false,
          "internalType": "uint32",
          "name": "finalInterest",
          "type": "uint32"
        },
        {
          "indexed": false,
          "internalType": "uint32",
          "name": "timeInterval",
          "type": "uint32"
        },
        {
          "indexed": false,
          "internalType": "uint32",
          "name": "amountChangeEachInterval",
          "type": "uint32"
        }
      ],
      "name": "UpdateInterestRange",
      "type": "event"
    },
    {
      "anonymous": false,
      "inputs": [
        {
          "indexed": false,
          "internalType": "uint256",
          "name": "minBidAmount",
          "type": "uint256"
        }
      ],
      "name": "UpdateMinBidAmount",
      "type": "event"
    },
    {
      "anonymous": false,
      "inputs": [
        {
          "indexed": false,
          "internalType": "uint256",
          "name": "newOpeningTime",
          "type": "uint256"
        },
        {
          "indexed": false,
          "internalType": "uint256",
          "name": "newClosingTime",
          "type": "uint256"
        }
      ],
      "name": "UpdateSaleRoundTime",
      "type": "event"
    },
    {
      "anonymous": false,
      "inputs": [
        {
          "indexed": false,
          "internalType": "uint256",
          "name": "totalCap",
          "type": "uint256"
        }
      ],
      "name": "UpdateTotalCap",
      "type": "event"
    },
    {
      "anonymous": false,
      "inputs": [
        {
          "indexed": false,
          "internalType": "bool",
          "name": "isEnableTimeLimit",
          "type": "bool"
        }
      ],
      "name": "UpdateUsingTimeLimit",
      "type": "event"
    },
    {
      "inputs": [],
      "name": "DAY_LENGTH_IN_SECONDS",
      "outputs": [
        {
          "internalType": "uint256",
          "name": "",
          "type": "uint256"
        }
      ],
      "stateMutability": "view",
      "type": "function"
    },
    {
      "inputs": [],
      "name": "DEFAULT_ADMIN_ROLE",
      "outputs": [
        {
          "internalType": "bytes32",
          "name": "",
          "type": "bytes32"
        }
      ],
      "stateMutability": "view",
      "type": "function"
    },
    {
      "inputs": [],
      "name": "HOUR_LENGTH_IN_SECONDS",
      "outputs": [
        {
          "internalType": "uint256",
          "name": "",
          "type": "uint256"
        }
      ],
      "stateMutability": "view",
      "type": "function"
    },
    {
      "inputs": [],
      "name": "INTEREST_RATE_SCALING_FACTOR_PERCENT",
      "outputs": [
        {
          "internalType": "uint256",
          "name": "",
          "type": "uint256"
        }
      ],
      "stateMutability": "view",
      "type": "function"
    },
    {
      "inputs": [],
      "name": "MINUTE_LENGTH_IN_SECONDS",
      "outputs": [
        {
          "internalType": "uint256",
          "name": "",
          "type": "uint256"
        }
      ],
      "stateMutability": "view",
      "type": "function"
    },
    {
      "inputs": [],
      "name": "OWNER_ROLE",
      "outputs": [
        {
          "internalType": "bytes32",
          "name": "",
          "type": "bytes32"
        }
      ],
      "stateMutability": "view",
      "type": "function"
    },
    {
      "inputs": [],
      "name": "PURCHASE_PRICE_SCALING_FACTOR",
      "outputs": [
        {
          "internalType": "uint256",
          "name": "",
          "type": "uint256"
        }
      ],
      "stateMutability": "view",
      "type": "function"
    },
    {
      "inputs": [],
      "name": "RATE_SCALING_FACTOR",
      "outputs": [
        {
          "internalType": "uint256",
          "name": "",
          "type": "uint256"
        }
      ],
      "stateMutability": "view",
      "type": "function"
    },
    {
      "inputs": [],
      "name": "YEAR_LENGTH_IN_DAYS",
      "outputs": [
        {
          "internalType": "uint256",
          "name": "",
          "type": "uint256"
        }
      ],
      "stateMutability": "view",
      "type": "function"
    },
    {
      "inputs": [],
      "name": "YEAR_LENGTH_IN_SECONDS",
      "outputs": [
        {
          "internalType": "uint256",
          "name": "",
          "type": "uint256"
        }
      ],
      "stateMutability": "view",
      "type": "function"
    },
    {
      "inputs": [
        {
          "internalType": "address",
          "name": "",
          "type": "address"
        }
      ],
      "name": "_currencyRaisedByInvestor",
      "outputs": [
        {
          "internalType": "uint256",
          "name": "",
          "type": "uint256"
        }
      ],
      "stateMutability": "view",
      "type": "function"
    },
    {
      "inputs": [
        {
          "internalType": "uint256",
          "name": "additionalCap",
          "type": "uint256"
        }
      ],
      "name": "addFunding",
      "outputs": [],
      "stateMutability": "nonpayable",
      "type": "function"
    },
    {
      "inputs": [],
      "name": "amountChangeEachInterval",
      "outputs": [
        {
          "internalType": "uint32",
          "name": "",
          "type": "uint32"
        }
      ],
      "stateMutability": "view",
      "type": "function"
    },
    {
      "inputs": [
        {
          "internalType": "address",
          "name": "payee",
          "type": "address"
        },
        {
          "internalType": "address",
          "name": "beneficiary",
          "type": "address"
        },
        {
          "internalType": "uint256",
          "name": "currencyAmount",
          "type": "uint256"
        }
      ],
      "name": "buyTokens",
      "outputs": [
        {
          "internalType": "uint256",
          "name": "tokenAmount",
          "type": "uint256"
        }
      ],
      "stateMutability": "nonpayable",
      "type": "function"
    },
    {
      "inputs": [],
      "name": "closingTime",
      "outputs": [
        {
          "internalType": "uint256",
          "name": "",
          "type": "uint256"
        }
      ],
      "stateMutability": "view",
      "type": "function"
    },
    {
      "inputs": [],
      "name": "currency",
      "outputs": [
        {
          "internalType": "address",
          "name": "",
          "type": "address"
        }
      ],
      "stateMutability": "view",
      "type": "function"
    },
    {
      "inputs": [],
      "name": "currencyRaised",
      "outputs": [
        {
          "internalType": "uint256",
          "name": "",
          "type": "uint256"
        }
      ],
      "stateMutability": "view",
      "type": "function"
    },
    {
      "inputs": [
        {
          "internalType": "address",
          "name": "investor",
          "type": "address"
        }
      ],
      "name": "currencyRaisedByInvestor",
      "outputs": [
        {
          "internalType": "uint256",
          "name": "",
          "type": "uint256"
        }
      ],
      "stateMutability": "view",
      "type": "function"
    },
    {
      "inputs": [
        {
          "internalType": "uint256",
          "name": "newClosingTime",
          "type": "uint256"
        }
      ],
      "name": "extendTime",
      "outputs": [],
      "stateMutability": "nonpayable",
      "type": "function"
    },
    {
      "inputs": [],
      "name": "finalInterest",
      "outputs": [
        {
          "internalType": "uint32",
          "name": "",
          "type": "uint32"
        }
      ],
      "stateMutability": "view",
      "type": "function"
    },
    {
      "inputs": [
        {
          "internalType": "bool",
          "name": "claimRemainToken",
          "type": "bool"
        },
        {
          "internalType": "address",
          "name": "remainTokenRecipient",
          "type": "address"
        }
      ],
      "name": "finalize",
      "outputs": [],
      "stateMutability": "nonpayable",
      "type": "function"
    },
    {
      "inputs": [],
      "name": "finalized",
      "outputs": [
        {
          "internalType": "bool",
          "name": "",
          "type": "bool"
        }
      ],
      "stateMutability": "view",
      "type": "function"
    },
    {
      "inputs": [],
      "name": "firstNoteTokenMintedTimestamp",
      "outputs": [
        {
          "internalType": "uint64",
          "name": "",
          "type": "uint64"
        }
      ],
      "stateMutability": "view",
      "type": "function"
    },
    {
      "inputs": [],
      "name": "getCurrencyRemainAmount",
      "outputs": [
        {
          "internalType": "uint256",
          "name": "",
          "type": "uint256"
        }
      ],
      "stateMutability": "view",
      "type": "function"
    },
    {
      "inputs": [],
      "name": "getCurrentInterest",
      "outputs": [
        {
          "internalType": "uint32",
          "name": "",
          "type": "uint32"
        }
      ],
      "stateMutability": "view",
      "type": "function"
    },
    {
      "inputs": [],
      "name": "getInitializedVersion",
      "outputs": [
        {
          "internalType": "uint256",
          "name": "",
          "type": "uint256"
        }
      ],
      "stateMutability": "view",
      "type": "function"
    },
    {
      "inputs": [],
      "name": "getInterest",
      "outputs": [
        {
          "internalType": "uint256",
          "name": "",
          "type": "uint256"
        }
      ],
      "stateMutability": "view",
      "type": "function"
    },
    {
      "inputs": [
        {
          "internalType": "bytes32",
          "name": "role",
          "type": "bytes32"
        }
      ],
      "name": "getRoleAdmin",
      "outputs": [
        {
          "internalType": "bytes32",
          "name": "",
          "type": "bytes32"
        }
      ],
      "stateMutability": "view",
      "type": "function"
    },
    {
      "inputs": [
        {
          "internalType": "bytes32",
          "name": "role",
          "type": "bytes32"
        },
        {
          "internalType": "uint256",
          "name": "index",
          "type": "uint256"
        }
      ],
      "name": "getRoleMember",
      "outputs": [
        {
          "internalType": "address",
          "name": "",
          "type": "address"
        }
      ],
      "stateMutability": "view",
      "type": "function"
    },
    {
      "inputs": [
        {
          "internalType": "bytes32",
          "name": "role",
          "type": "bytes32"
        }
      ],
      "name": "getRoleMemberCount",
      "outputs": [
        {
          "internalType": "uint256",
          "name": "",
          "type": "uint256"
        }
      ],
      "stateMutability": "view",
      "type": "function"
    },
    {
      "inputs": [
        {
          "internalType": "uint256",
          "name": "currencyAmount",
          "type": "uint256"
        }
      ],
      "name": "getTokenAmount",
      "outputs": [
        {
          "internalType": "uint256",
          "name": "",
          "type": "uint256"
        }
      ],
      "stateMutability": "view",
      "type": "function"
    },
    {
      "inputs": [],
      "name": "getTokenPrice",
      "outputs": [
        {
          "internalType": "uint256",
          "name": "",
          "type": "uint256"
        }
      ],
      "stateMutability": "view",
      "type": "function"
    },
    {
      "inputs": [],
      "name": "getTokenRemainAmount",
      "outputs": [
        {
          "internalType": "uint256",
          "name": "",
          "type": "uint256"
        }
      ],
      "stateMutability": "view",
      "type": "function"
    },
    {
      "inputs": [
        {
          "internalType": "bytes32",
          "name": "role",
          "type": "bytes32"
        },
        {
          "internalType": "address",
          "name": "account",
          "type": "address"
        }
      ],
      "name": "grantRole",
      "outputs": [],
      "stateMutability": "nonpayable",
      "type": "function"
    },
    {
      "inputs": [],
      "name": "hasClosed",
      "outputs": [
        {
          "internalType": "bool",
          "name": "",
          "type": "bool"
        }
      ],
      "stateMutability": "view",
      "type": "function"
    },
    {
      "inputs": [
        {
          "internalType": "bytes32",
          "name": "role",
          "type": "bytes32"
        },
        {
          "internalType": "address",
          "name": "account",
          "type": "address"
        }
      ],
      "name": "hasRole",
      "outputs": [
        {
          "internalType": "bool",
          "name": "",
          "type": "bool"
        }
      ],
      "stateMutability": "view",
      "type": "function"
    },
    {
      "inputs": [],
      "name": "hasStarted",
      "outputs": [
        {
          "internalType": "bool",
          "name": "",
          "type": "bool"
        }
      ],
      "stateMutability": "view",
      "type": "function"
    },
    {
      "inputs": [],
      "name": "initialInterest",
      "outputs": [
        {
          "internalType": "uint32",
          "name": "",
          "type": "uint32"
        }
      ],
      "stateMutability": "view",
      "type": "function"
    },
    {
      "inputs": [
        {
          "internalType": "contract Registry",
          "name": "_registry",
          "type": "address"
        },
        {
          "internalType": "address",
          "name": "_pool",
          "type": "address"
        },
        {
          "internalType": "address",
          "name": "_token",
          "type": "address"
        },
        {
          "internalType": "address",
          "name": "_currency",
          "type": "address"
        },
        {
          "internalType": "bool",
          "name": "_longSale",
          "type": "bool"
        }
      ],
      "name": "initialize",
      "outputs": [],
      "stateMutability": "nonpayable",
      "type": "function"
    },
    {
      "inputs": [],
      "name": "interestRate",
      "outputs": [
        {
          "internalType": "uint256",
          "name": "",
          "type": "uint256"
        }
      ],
      "stateMutability": "view",
      "type": "function"
    },
    {
      "inputs": [],
      "name": "isAdmin",
      "outputs": [
        {
          "internalType": "bool",
          "name": "",
          "type": "bool"
        }
      ],
      "stateMutability": "view",
      "type": "function"
    },
    {
      "inputs": [],
      "name": "isDistributedFully",
      "outputs": [
        {
          "internalType": "bool",
          "name": "",
          "type": "bool"
        }
      ],
      "stateMutability": "view",
      "type": "function"
    },
    {
      "inputs": [],
      "name": "isEnableTimeLimit",
      "outputs": [
        {
          "internalType": "bool",
          "name": "",
          "type": "bool"
        }
      ],
      "stateMutability": "view",
      "type": "function"
    },
    {
      "inputs": [],
      "name": "isLongSale",
      "outputs": [
        {
          "internalType": "bool",
          "name": "",
          "type": "bool"
        }
      ],
      "stateMutability": "view",
      "type": "function"
    },
    {
      "inputs": [],
      "name": "isOpen",
      "outputs": [
        {
          "internalType": "bool",
          "name": "",
          "type": "bool"
        }
      ],
      "stateMutability": "view",
      "type": "function"
    },
    {
      "inputs": [
        {
          "internalType": "uint256",
          "name": "currencyAmount",
          "type": "uint256"
        }
      ],
      "name": "isUnderTotalCap",
      "outputs": [
        {
          "internalType": "bool",
          "name": "",
          "type": "bool"
        }
      ],
      "stateMutability": "view",
      "type": "function"
    },
    {
      "inputs": [],
      "name": "longSale",
      "outputs": [
        {
          "internalType": "bool",
          "name": "",
          "type": "bool"
        }
      ],
      "stateMutability": "view",
      "type": "function"
    },
    {
      "inputs": [],
      "name": "minBidAmount",
      "outputs": [
        {
          "internalType": "uint256",
          "name": "",
          "type": "uint256"
        }
      ],
      "stateMutability": "view",
      "type": "function"
    },
    {
      "inputs": [
        {
          "internalType": "uint256",
          "name": "newOpeningTime",
          "type": "uint256"
        },
        {
          "internalType": "uint256",
          "name": "newClosingTime",
          "type": "uint256"
        }
      ],
      "name": "newSaleRoundTime",
      "outputs": [],
      "stateMutability": "nonpayable",
      "type": "function"
    },
    {
      "inputs": [
        {
          "internalType": "uint256",
          "name": "currencyAmount",
          "type": "uint256"
        }
      ],
      "name": "onRedeem",
      "outputs": [],
      "stateMutability": "nonpayable",
      "type": "function"
    },
    {
      "inputs": [],
      "name": "openingTime",
      "outputs": [
        {
          "internalType": "uint256",
          "name": "",
          "type": "uint256"
        }
      ],
      "stateMutability": "view",
      "type": "function"
    },
    {
      "inputs": [],
      "name": "pause",
      "outputs": [],
      "stateMutability": "nonpayable",
      "type": "function"
    },
    {
      "inputs": [],
      "name": "paused",
      "outputs": [
        {
          "internalType": "bool",
          "name": "",
          "type": "bool"
        }
      ],
      "stateMutability": "view",
      "type": "function"
    },
    {
      "inputs": [],
      "name": "pickedInterest",
      "outputs": [
        {
          "internalType": "uint32",
          "name": "",
          "type": "uint32"
        }
      ],
      "stateMutability": "view",
      "type": "function"
    },
    {
      "inputs": [],
      "name": "pool",
      "outputs": [
        {
          "internalType": "address",
          "name": "",
          "type": "address"
        }
      ],
      "stateMutability": "view",
      "type": "function"
    },
    {
      "inputs": [],
      "name": "rate",
      "outputs": [
        {
          "internalType": "uint256",
          "name": "",
          "type": "uint256"
        }
      ],
      "stateMutability": "view",
      "type": "function"
    },
    {
      "inputs": [],
      "name": "registry",
      "outputs": [
        {
          "internalType": "contract Registry",
          "name": "",
          "type": "address"
        }
      ],
      "stateMutability": "view",
      "type": "function"
    },
    {
      "inputs": [
        {
          "internalType": "bytes32",
          "name": "role",
          "type": "bytes32"
        },
        {
          "internalType": "address",
          "name": "account",
          "type": "address"
        }
      ],
      "name": "renounceRole",
      "outputs": [],
      "stateMutability": "nonpayable",
      "type": "function"
    },
    {
      "inputs": [
        {
          "internalType": "bytes32",
          "name": "role",
          "type": "bytes32"
        },
        {
          "internalType": "address",
          "name": "account",
          "type": "address"
        }
      ],
      "name": "revokeRole",
      "outputs": [],
      "stateMutability": "nonpayable",
      "type": "function"
    },
    {
      "inputs": [
        {
          "internalType": "bool",
          "name": "_hasStarted",
          "type": "bool"
        }
      ],
      "name": "setHasStarted",
      "outputs": [],
      "stateMutability": "nonpayable",
      "type": "function"
    },
    {
      "inputs": [
        {
          "internalType": "uint32",
          "name": "_initialInterest",
          "type": "uint32"
        },
        {
          "internalType": "uint32",
          "name": "_finalInterest",
          "type": "uint32"
        },
        {
          "internalType": "uint32",
          "name": "_timeInterval",
          "type": "uint32"
        },
        {
          "internalType": "uint32",
          "name": "_amountChangeEachInterval",
          "type": "uint32"
        }
      ],
      "name": "setInterestRange",
      "outputs": [],
      "stateMutability": "nonpayable",
      "type": "function"
    },
    {
      "inputs": [
        {
          "internalType": "uint256",
          "name": "_minBidAmount",
          "type": "uint256"
        }
      ],
      "name": "setMinBidAmount",
      "outputs": [],
      "stateMutability": "nonpayable",
      "type": "function"
    },
    {
      "inputs": [
        {
          "internalType": "bytes32",
          "name": "role",
          "type": "bytes32"
        },
        {
          "internalType": "bytes32",
          "name": "adminRole",
          "type": "bytes32"
        }
      ],
      "name": "setRoleAdmin",
      "outputs": [],
      "stateMutability": "nonpayable",
      "type": "function"
    },
    {
      "inputs": [
        {
          "internalType": "uint256",
          "name": "cap_",
          "type": "uint256"
        }
      ],
      "name": "setTotalCap",
      "outputs": [],
      "stateMutability": "nonpayable",
      "type": "function"
    },
    {
      "inputs": [
        {
          "internalType": "bool",
          "name": "usingTimeLimit",
          "type": "bool"
        }
      ],
      "name": "setUsingTimeLimit",
      "outputs": [],
      "stateMutability": "nonpayable",
      "type": "function"
    },
    {
      "inputs": [
        {
          "internalType": "uint256",
          "name": "openingTime_",
          "type": "uint256"
        },
        {
          "internalType": "uint256",
          "name": "closingTime_",
          "type": "uint256"
        },
        {
          "internalType": "uint256",
          "name": "rate_",
          "type": "uint256"
        },
        {
          "internalType": "uint256",
          "name": "cap_",
          "type": "uint256"
        }
      ],
      "name": "startNewRoundSale",
      "outputs": [],
      "stateMutability": "nonpayable",
      "type": "function"
    },
    {
      "inputs": [
        {
          "internalType": "bytes4",
          "name": "interfaceId",
          "type": "bytes4"
        }
      ],
      "name": "supportsInterface",
      "outputs": [
        {
          "internalType": "bool",
          "name": "",
          "type": "bool"
        }
      ],
      "stateMutability": "view",
      "type": "function"
    },
    {
      "inputs": [],
      "name": "timeInterval",
      "outputs": [
        {
          "internalType": "uint32",
          "name": "",
          "type": "uint32"
        }
      ],
      "stateMutability": "view",
      "type": "function"
    },
    {
      "inputs": [],
      "name": "token",
      "outputs": [
        {
          "internalType": "address",
          "name": "",
          "type": "address"
        }
      ],
      "stateMutability": "view",
      "type": "function"
    },
    {
      "inputs": [],
      "name": "tokenRaised",
      "outputs": [
        {
          "internalType": "uint256",
          "name": "",
          "type": "uint256"
        }
      ],
      "stateMutability": "view",
      "type": "function"
    },
    {
      "inputs": [],
      "name": "totalCap",
      "outputs": [
        {
          "internalType": "uint256",
          "name": "",
          "type": "uint256"
        }
      ],
      "stateMutability": "view",
      "type": "function"
    },
    {
      "inputs": [],
      "name": "totalCapReached",
      "outputs": [
        {
          "internalType": "bool",
          "name": "",
          "type": "bool"
        }
      ],
      "stateMutability": "view",
      "type": "function"
    },
    {
      "inputs": [],
      "name": "unpause",
      "outputs": [],
      "stateMutability": "nonpayable",
      "type": "function"
    }
  ],
  "transactionHash": "0xec8374c29259f517001bd9cbd4278b275bbdbff90dae6874a443c919b1aea5aa",
  "args": [],
  "numDeployments": 7,
  "solcInputHash": "1819865b86ecea8aad88a2c190455b11",
  "bytecode": "0x608060405234801561001057600080fd5b50613679806100206000396000f3fe608060405234801561001057600080fd5b50600436106104335760003560e01c80638456cb5911610236578063c2507ac11161013b578063e1884b0f116100c3578063e8206d8f11610087578063e8206d8f146108ba578063ea7bb4bd146108c6578063fc0c546a146108d9578063fc5b5fda146108ed578063fd127a411461090057600080fd5b8063e1884b0f14610876578063e2eda54114610710578063e58378bb14610889578063e5a4bed31461089e578063e5a6b10f146108a657600080fd5b8063d2da89ab1161010a578063d2da89ab1461080e578063d547741f1461081c578063d7d55a4a1461082f578063dcefa53814610842578063e17574a11461085557600080fd5b8063c2507ac1146107d5578063ca15c873146107e8578063cb2daa1614610710578063cda95d55146107fb57600080fd5b8063a217fddf116101be578063b3c650151161018d578063b3c65015146107a4578063b3f05b97146107af578063b6db75a0146107bb578063b7a8807c146107c3578063b94883d5146107cd57600080fd5b8063a217fddf14610768578063a27aebbc14610770578063ab15de5214610783578063ab99b67d1461078c57600080fd5b806391d1d4f81161020557806391d1d4f8146106fd57806393529cdf14610710578063998ba4fc146107195780639b52fe3314610722578063a0aef1d81461075557600080fd5b80638456cb59146106b75780638f516438146106bf5780639010d07c146106d757806391d14854146106ea57600080fd5b806336568abe1161033c5780635c975abb116102c45780636f7b58be116102935780636f7b58be146106655780637a0e80d7146106785780637b103999146106865780637c3a00fd1461069a5780637f01b46a146106a457600080fd5b80635c975abb146106375780635d4eeb26146106425780635d5d46131461064a5780636f69c96f1461065d57600080fd5b806347535d7b1161030b57806347535d7b146105fa57806349751788146106025780634b6753bc1461060c5780634b94f50e14610616578063535e0a1a1461061e57600080fd5b806336568abe146105be5780633f4ba83a146105d1578063417fd6b6146105d957806344691f7e146105ec57600080fd5b806319f06e33116103bf57806326a215751161038e57806326a215751461057c57806327f6ad99146105865780632b8093bd1461058e5780632c4e722e146105a15780632f2ff15d146105ab57600080fd5b806319f06e331461051d5780631e4e00911461052c5780631f0b10c514610541578063248a9ca31461055957600080fd5b80631409307a116104065780631409307a146104ae578063142585d1146104cb5780631515bc2b146104dc57806316450092146104e757806316f0115b146104f157600080fd5b806301ffc9a7146104385780630324be7114610460578063072c92d51461049857806307762982146104a6575b600080fd5b61044b610446366004612fa7565b610908565b60405190151581526020015b60405180910390f35b61048a61046e366004612fe6565b6001600160a01b03166000908152610169602052604090205490565b604051908152602001610457565b6101945461044b9060ff1681565b61048a610933565b6104b661094c565b60405163ffffffff9091168152602001610457565b6101f6546104b69063ffffffff1681565b61019354421161044b565b61048a6101675481565b61016054610505906001600160a01b031681565b6040516001600160a01b039091168152602001610457565b6101675461016554101561044b565b61053f61053a366004613003565b6109ee565b005b6101f6546104b690600160801b900463ffffffff1681565b61048a610567366004613025565b600090815260c9602052604090206001015490565b61048a6101665481565b61048a603c81565b61053f61059c36600461304c565b610a08565b61048a6101635481565b61053f6105b9366004613085565b610bff565b61053f6105cc366004613085565b610c24565b61053f610ca2565b61053f6105e7366004613025565b610cb8565b6101645461044b9060ff1681565b61044b610d62565b61048a6101685481565b61048a6101935481565b61048a610d91565b6101f6546104b690640100000000900463ffffffff1681565b60335460ff1661044b565b61048a610e25565b61053f610658366004613025565b610e57565b61048a610f6d565b61053f6106733660046130aa565b610f78565b61016754610165541461044b565b61015f54610505906001600160a01b031681565b61048a6102575481565b61044b6106b2366004613025565b610ff0565b61053f61100d565b6101f6546104b690600160401b900463ffffffff1681565b6105056106e5366004613003565b611020565b61044b6106f8366004613085565b61103f565b61053f61070b366004613003565b61106a565b61048a61271081565b6101655461048a565b6101645461073c90610100900467ffffffffffffffff1681565b60405167ffffffffffffffff9091168152602001610457565b61053f6107633660046130e0565b6111f7565b61048a600081565b61053f61077e366004613025565b6114f2565b61048a61016d81565b6101f6546104b690600160601b900463ffffffff1681565b60005460ff1661048a565b6101c45460ff1661044b565b61044b6115e0565b61048a6101925481565b61048a6115fa565b61048a6107e3366004613025565b61160e565b61048a6107f6366004613025565b6116b9565b61053f610809366004613134565b6116d0565b6102565461044b9060ff1681565b61053f61082a366004613085565b611767565b61053f61083d366004613025565b61178c565b61048a610850366004613166565b611830565b61048a610863366004612fe6565b6101696020526000908152604090205481565b61053f610884366004613025565b61191e565b61048a60008051602061362483398151915281565b61048a611994565b61016254610505906001600160a01b031681565b6102565460ff1661044b565b61053f6108d43660046130aa565b6119a9565b61016154610505906001600160a01b031681565b61053f6108fb3660046131a7565b611a56565b61048a611b8c565b60006001600160e01b03198216635a05180f60e01b148061092d575061092d82611baf565b92915050565b61093e603c8061322e565b61094990601861322e565b81565b60006101925442101561095f5750600090565b600061019254426109709190613245565b6101f65490915060009063ffffffff80821691600160401b81048216916109a1918691600160601b9091041661322e565b6109ab9190613258565b6109b5919061327a565b6101f65490915063ffffffff6401000000009091048116908216111561092d5750506101f654640100000000900463ffffffff16919050565b60006109f981611be4565b610a038383611bee565b505050565b610a10611c39565b610160546001600160a01b0316336001600160a01b03161480610a3257503330145b610aa15760405162461bcd60e51b815260206004820152603560248201527f46696e616c697a61626c6543726f776473616c653a204f6e6c7920706f6f6c20604482015274636f6e74726163742063616e2066696e616c697a6560581b60648201526084015b60405180910390fd5b6101c45460ff1615610b055760405162461bcd60e51b815260206004820152602760248201527f46696e616c697a61626c6543726f776473616c653a20616c72656164792066696044820152661b985b1a5e995960ca1b6064820152608401610a98565b61019354421180610b1c5750610167546101655410155b610b685760405162461bcd60e51b815260206004820181905260248201527f46696e616c697a61626c6543726f776473616c653a206e6f7420636c6f7365646044820152606401610a98565b6101c4805460ff19166001179055610b8561016754610165541490565b158015610b9657506102565460ff16155b15610bca576000610ba86107e36115fa565b90508215610bbf57610bba8282611c81565b610bc8565b610bc881611c8b565b505b610bd2611ced565b6040517f9270cc390c096600a1c17c44345a1ba689fafd99d97487b10cfccf86cf73183690600090a15050565b600082815260c96020526040902060010154610c1a81611be4565b610a038383611d18565b6001600160a01b0381163314610c945760405162461bcd60e51b815260206004820152602f60248201527f416363657373436f6e74726f6c3a2063616e206f6e6c792072656e6f756e636560448201526e103937b632b9903337b91039b2b63360891b6064820152608401610a98565b610c9e8282611d3a565b5050565b6000610cad81611be4565b610cb5611d5c565b50565b610cc0611c39565b610cd86000805160206136248339815191523361103f565b80610d09575061015f54610cf4906001600160a01b0316611dae565b6001600160a01b0316336001600160a01b0316145b610d255760405162461bcd60e51b8152600401610a989061328d565b6101688190556040518181527f2bc4b9fa5449471c716310263f78104dee5bcb66018bcdb48fd1f61f5de81a1b906020015b60405180910390a150565b6101945460009060ff16610d765750600190565b610192544210158015610d8c5750610193544211155b905090565b61015f54600090610daa906001600160a01b0316611dbb565b6101605461016154604051637f26468d60e01b81526001600160a01b0392831660048201529082166024820152911690637f26468d906044015b602060405180830381865afa158015610e01573d6000803e3d6000fd5b505050506040513d601f19601f82011682018060405250810190610d8c91906132d7565b610161546040516370a0823160e01b81523060048201526000916001600160a01b0316906370a0823190602401610de4565b610e5f611dc8565b610e67611c39565b610e7f6000805160206136248339815191523361103f565b80610eb0575061015f54610e9b906001600160a01b0316611dae565b6001600160a01b0316336001600160a01b0316145b610ecc5760405162461bcd60e51b8152600401610a989061328d565b60008111610f1c5760405162461bcd60e51b815260206004820152601960248201527f43726f776473616c653a20746f74616c206361702069732030000000000000006044820152606401610a98565b61016754610f2a908261327a565b6101678190556040519081527f04b847fea6b95515f8ef8fa76a5e06d1dc35b0c6dbf10ced7acd9d5d93808f8d9060200160405180910390a1610cb56001606555565b610949603c8061322e565b610f80611c39565b610f88611dc8565b600080516020613624833981519152610fa081611be4565b610194805460ff19168315159081179091556040519081527fdb833fed315c7b32553a5adaa056b4b0112312be8e73417d7d730aa3768638f59060200160405180910390a150610cb56001606555565b6000610167548261016554611005919061327a565b111592915050565b600061101881611be4565b610cb5611e21565b600082815260fb602052604081206110389083611e5e565b9392505050565b600091825260c9602090815260408084206001600160a01b0393909316845291905290205460ff1690565b611072611c39565b61108a6000805160206136248339815191523361103f565b806110bb575061015f546110a6906001600160a01b0316611dae565b6001600160a01b0316336001600160a01b0316145b6111175760405162461bcd60e51b815260206004820152602760248201527f43726f776473616c653a2043616c6c6572206d757374206265206f776e6572206044820152661bdc881c1bdbdb60ca1b6064820152608401610a98565b8181101561118d5760405162461bcd60e51b815260206004820152603760248201527f54696d656443726f776473616c653a206f70656e696e672074696d652069732060448201527f6e6f74206265666f726520636c6f73696e672074696d650000000000000000006064820152608401610a98565b42821015611199574291505b8181116111ae576111ab82600161327a565b90505b61019282905561019381905560408051838152602081018390527f8b177454854d2b8a1238cecb64910b1bcf2ad0449c4567c725f750b6712e5dd0910160405180910390a15050565b6111ff611c39565b6112176000805160206136248339815191523361103f565b80611248575061015f54611233906001600160a01b0316611dae565b6001600160a01b0316336001600160a01b0316145b6112ba5760405162461bcd60e51b815260206004820152603960248201527f496e6372656173696e67496e74657265737443726f776473616c653a2043616c60448201527f6c6572206d757374206265206f776e6572206f7220706f6f6c000000000000006064820152608401610a98565b6101645460ff16156113285760405162461bcd60e51b815260206004820152603160248201527f496e6372656173696e67496e74657265737443726f776473616c653a2073616c6044820152701948185b1c9958591e481cdd185c9d1959607a1b6064820152608401610a98565b8263ffffffff168463ffffffff1611156113c05760405162461bcd60e51b815260206004820152604d60248201527f496e6372656173696e67496e74657265737443726f776473616c653a20696e6960448201527f7469616c20696e746572657374206973206e6f74206c657373207468616e206660648201526c1a5b985b081a5b9d195c995cdd609a1b608482015260a401610a98565b60008263ffffffff161161142e5760405162461bcd60e51b815260206004820152602f60248201527f496e6372656173696e67496e74657265737443726f776473616c653a2074696d60448201526e06520696e74657276616c206973203608c1b6064820152608401610a98565b6101f6805463ffffffff838116600160601b90810263ffffffff60601b19878416600160401b908102919091166fffffffffffffffff0000000000000000198a861664010000000090810267ffffffffffffffff199098168d88161797909717161791909117948590556040805186851681529486048416602086015290850483169084015290920490911660608201527fec96c63e32cbf87f21a576def2e0168bcbb41be5150835e2467e99dd6e1c990c9060800160405180910390a150505050565b6114fa611c39565b611502611dc8565b60008051602061362483398151915261151a81611be4565b6101935482116115925760405162461bcd60e51b815260206004820152603f60248201527f54696d656443726f776473616c653a206e657720636c6f73696e672074696d6560448201527f206973206265666f72652063757272656e7420636c6f73696e672074696d65006064820152608401610a98565b6101935460408051918252602082018490527f46711e222f558a07afd26e5e71b48ecb0a8b2cdcd40faeb1323e05e2c76a2f32910160405180910390a150610193819055610cb56001606555565b6000610d8c6000805160206136248339815191523361103f565b60006101655461016754610d8c9190613245565b600080611619610d91565b90508060000361162c5750600092915050565b610161546040805163313ce56760e01b8152905183926001600160a01b03169163313ce5679160048083019260209291908290030181865afa158015611676573d6000803e3d6000fd5b505050506040513d601f19601f8201168201806040525081019061169a91906132f0565b6116a590600a6133f7565b6116af908561322e565b6110389190613258565b600081815260fb6020526040812061092d90611e6a565b6116d8611c39565b6116f06000805160206136248339815191523361103f565b80611721575061015f5461170c906001600160a01b0316611dae565b6001600160a01b0316336001600160a01b0316145b61173d5760405162461bcd60e51b8152600401610a9890613406565b611745611e74565b61174e82611f85565b611758848461106a565b61176181611fdf565b50505050565b600082815260c9602052604090206001015461178281611be4565b610a038383611d3a565b61015f546117a2906001600160a01b03166120bf565b6001600160a01b0316336001600160a01b0316146118155760405162461bcd60e51b815260206004820152602a60248201527f43726f776473616c653a2043616c6c6572206d757374206265204e6f746520746044820152691bdad95b881d985d5b1d60b21b6064820152608401610a98565b8061016560008282546118289190613245565b909155505050565b600061183d8484846120cc565b905061016754610165541061103857306001600160a01b031663b3f05b976040518163ffffffff1660e01b8152600401602060405180830381865afa15801561188a573d6000803e3d6000fd5b505050506040513d601f19601f820116820180604052508101906118ae9190613463565b6110385761016054604051632b8093bd60e01b8152600060048201526001600160a01b0390911660248201523090632b8093bd90604401600060405180830381600087803b1580156118ff57600080fd5b505af1158015611913573d6000803e3d6000fd5b505050509392505050565b611926611c39565b61193e6000805160206136248339815191523361103f565b8061196f575061015f5461195a906001600160a01b0316611dae565b6001600160a01b0316336001600160a01b0316145b61198b5760405162461bcd60e51b8152600401610a9890613406565b610cb581611fdf565b600061199e61094c565b63ffffffff16905090565b6119c16000805160206136248339815191523361103f565b806119f2575061015f546119dd906001600160a01b0316611dae565b6001600160a01b0316336001600160a01b0316145b611a0e5760405162461bcd60e51b8152600401610a989061328d565b610164805460ff191682151590811790915560405160ff909116151581527fab34f9b8831f3ca42a730d92c06cef6c44746cf5c9ec3f2d7b510645dcba885790602001610d57565b600054610100900460ff1615808015611a765750600054600160ff909116105b80611a905750303b158015611a90575060005460ff166001145b611af35760405162461bcd60e51b815260206004820152602e60248201527f496e697469616c697a61626c653a20636f6e747261637420697320616c72656160448201526d191e481a5b9a5d1a585b1a5e995960921b6064820152608401610a98565b6000805460ff191660011790558015611b16576000805461ff0019166101001790555b611b22868686866123da565b610256805483151560ff1991821617909155610258805490911690558015611b84576000805461ff0019169055604051600181527f7f26b83ff96e1f2b6a682f133852f6798a09c465da95921460cefb38474024989060200160405180910390a15b505050505050565b61016d611b9a603c8061322e565b611ba590601861322e565b610949919061322e565b60006001600160e01b03198216637965db0b60e01b148061092d57506301ffc9a760e01b6001600160e01b031983161461092d565b610cb5813361245e565b600082815260c96020526040808220600101805490849055905190918391839186917fbd79b86ffe0ab8e8776151514217cd7cacd52c909f66475c3af44e129f0b00ff9190a4505050565b60335460ff1615611c7f5760405162461bcd60e51b815260206004820152601060248201526f14185d5cd8589b194e881c185d5cd95960821b6044820152606401610a98565b565b610c9e82826124b7565b61016154604051630852cd8d60e31b8152600481018390526001600160a01b03909116906342966c6890602401600060405180830381600087803b158015611cd257600080fd5b505af1158015611ce6573d6000803e3d6000fd5b5050505050565b611cf561094c565b6101f660106101000a81548163ffffffff021916908363ffffffff160217905550565b611d228282612688565b600082815260fb60205260409020610a03908261270e565b611d448282612723565b600082815260fb60205260409020610a03908261278a565b611d6461279f565b6033805460ff191690557f5db9ee0a495bf2e6ff9c91a7834c1ba4fdd244a5e8aa4e537bd38aeae4b073aa335b6040516001600160a01b03909116815260200160405180910390a1565b600061092d8260006127e8565b600061092d8260046127e8565b600260655403611e1a5760405162461bcd60e51b815260206004820152601f60248201527f5265656e7472616e637947756172643a207265656e7472616e742063616c6c006044820152606401610a98565b6002606555565b611e29611c39565b6033805460ff191660011790557f62e78cea01bee320cd4e420270b5ea74000d11b0c9f74754ebdbfc544b05a258611d913390565b6000611038838361286d565b600061092d825490565b61019354421180611e8b5750610167546101655410155b611ef65760405162461bcd60e51b815260206004820152603660248201527f4d696e746564496e6372656173696e67496e7465726573745447453a205072656044820152751d9a5bdd5cc81c9bdd5b99081b9bdd0818db1bdcd95960521b6064820152608401610a98565b6101f654600160401b900463ffffffff16611c7f5760405162461bcd60e51b815260206004820152604360248201527f4d696e746564496e6372656173696e67496e7465726573745447453a2054696d60448201527f6520696e74657276616c20696e6372656173696e6720696e746572657374206960648201526207320360ec1b608482015260a401610a98565b6101645460ff1615611fd95760405162461bcd60e51b815260206004820152601e60248201527f43726f776473616c653a2053616c6520726f756e64206f766572666c6f7700006044820152606401610a98565b61016355565b600081116120255760405162461bcd60e51b8152602060048201526013602482015272043726f776473616c653a20636170206973203606c1b6044820152606401610a98565b610165548110156120895760405162461bcd60e51b815260206004820152602860248201527f43726f776473616c653a206361702069732062656c6c6f772063757272656e636044820152671e481c985a5cd95960c21b6064820152608401610a98565b6101678190556040518181527f04b847fea6b95515f8ef8fa76a5e06d1dc35b0c6dbf10ced7acd9d5d93808f8d90602001610d57565b600061092d82600a6127e8565b60006120d6611c39565b6120de611dc8565b61015f546120f4906001600160a01b0316611dae565b6001600160a01b0316336001600160a01b03161461216d5760405162461bcd60e51b815260206004820152603060248201527f43726f776473616c653a2043616c6c6572206d7573742062652073656375726960448201526f3a34bd30ba34b7b71036b0b730b3b2b960811b6064820152608401610a98565b610168548210156121ca5760405162461bcd60e51b815260206004820152602160248201527f43726f776473616c653a204c657373207468616e206d696e426964416d6f756e6044820152601d60fa1b6064820152608401610a98565b60006121d58361160e565b90506121e2848483612897565b8261016560008282546121f5919061327a565b90915550506001600160a01b038416600090815261016960205260408120805485929061222390849061327a565b90915550506101605460408051636eb4458760e11b815290516001600160a01b0390921691829163dd688b0e9160048083019260209291908290030181865afa158015612274573d6000803e3d6000fd5b505050506040513d601f19601f820116820180604052508101906122989190613463565b6122e45760405162461bcd60e51b815260206004820152601f60248201527f43726f776473616c653a20457863656564732044656274204365696c696e67006044820152606401610a98565b8161016660008282546122f7919061327a565b909155506123079050868561291a565b6123118583611c81565b60408051858152602081018490526001600160a01b0387169133917f6faf93231a456e552dbc9961f58d9713ee4f2e69d15f1975b050ef0911053a7b910160405180910390a361016054604080516325d11b1d60e11b815290516123cd926001600160a01b031691634ba2363a9160048083019260209291908290030181865afa1580156123a3573d6000803e3d6000fd5b505050506040513d601f19601f820116820180604052508101906123c79190613496565b856129fd565b5090506110386001606555565b600054610100900460ff166124015760405162461bcd60e51b8152600401610a98906134b3565b61240a33612ad2565b61015f80546001600160a01b039586166001600160a01b0319918216179091556101608054948616948216949094179093556101618054928516928416929092179091556101628054919093169116179055565b612468828261103f565b610c9e5761247581612b45565b612480836020612b57565b604051602001612491929190613522565b60408051601f198184030181529082905262461bcd60e51b8252610a9891600401613597565b610161546001600160a01b0316600060ff16816001600160a01b031662b7f6816040518163ffffffff1660e01b8152600401602060405180830381865afa158015612506573d6000803e3d6000fd5b505050506040513d601f19601f8201168201806040525081019061252a91906132f0565b60ff161480156125995750806001600160a01b03166318160ddd6040518163ffffffff1660e01b8152600401602060405180830381865afa158015612573573d6000803e3d6000fd5b505050506040513d601f19601f8201168201806040525081019061259791906132d7565b155b1561262157610164805468ffffffffffffffff0019166101004267ffffffffffffffff160217905561016054604080516301aab1fb60e21b815290516001600160a01b03909216916306aac7ec9160048082019260009290919082900301818387803b15801561260857600080fd5b505af115801561261c573d6000803e3d6000fd5b505050505b6040516340c10f1960e01b81526001600160a01b038481166004830152602482018490528216906340c10f1990604401600060405180830381600087803b15801561266b57600080fd5b505af115801561267f573d6000803e3d6000fd5b50505050505050565b612692828261103f565b610c9e57600082815260c9602090815260408083206001600160a01b03851684529091529020805460ff191660011790556126ca3390565b6001600160a01b0316816001600160a01b0316837f2f8788117e7eff1d82e926ec794901d17c78024a50270940304540a733656f0d60405160405180910390a45050565b6000611038836001600160a01b038416612cf3565b61272d828261103f565b15610c9e57600082815260c9602090815260408083206001600160a01b0385168085529252808320805460ff1916905551339285917ff6391f5c32d9c69d2a47ea670b442974b53935d1edc7fd64eb21e047a839171b9190a45050565b6000611038836001600160a01b038416612d42565b60335460ff16611c7f5760405162461bcd60e51b815260206004820152601460248201527314185d5cd8589b194e881b9bdd081c185d5cd95960621b6044820152606401610a98565b6000826001600160a01b031663bcaa0c5583600a81111561280b5761280b613480565b6040516001600160e01b031960e084901b16815260ff9091166004820152602401602060405180830381865afa158015612849573d6000803e3d6000fd5b505050506040513d601f19601f820116820180604052508101906110389190613496565b6000826000018281548110612884576128846135ca565b9060005260206000200154905092915050565b6128a2838383612e35565b6101f654600160401b900463ffffffff16610a035760405162461bcd60e51b815260206004820152603260248201527f496e6372656173696e67496e74657265737443726f776473616c653a2074696d60448201527119481a5b9d195c9d985b081b9bdd081cd95d60721b6064820152608401610a98565b610162546040516323b872dd60e01b81526001600160a01b03848116600483015230602483015260448201849052909116906323b872dd906064016020604051808303816000875af1158015612974573d6000803e3d6000fd5b505050506040513d601f19601f820116820180604052508101906129989190613463565b610c9e5760405162461bcd60e51b815260206004820152603060248201527f4661696c20746f207472616e736665722063757272656e63792066726f6d207060448201526f185e5959481d1bc818dbdb9d1c9858dd60821b6064820152608401610a98565b6101625460405163a9059cbb60e01b81526001600160a01b038481166004830152602482018490529091169063a9059cbb906044016020604051808303816000875af1158015612a51573d6000803e3d6000fd5b505050506040513d601f19601f82011682018060405250810190612a759190613463565b610c9e5760405162461bcd60e51b815260206004820152602860248201527f4661696c20746f207472616e736665722063757272656e637920746f2042656e604482015267656669636961727960c01b6064820152608401610a98565b600054610100900460ff16612af95760405162461bcd60e51b8152600401610a98906134b3565b6001600160a01b038116612b0a5750335b612b15600033612e40565b612b2d60008051602061362483398151915282612e40565b610cb560008051602061362483398151915280611bee565b606061092d6001600160a01b03831660145b60606000612b6683600261322e565b612b7190600261327a565b67ffffffffffffffff811115612b8957612b896135e0565b6040519080825280601f01601f191660200182016040528015612bb3576020820181803683370190505b509050600360fc1b81600081518110612bce57612bce6135ca565b60200101906001600160f81b031916908160001a905350600f60fb1b81600181518110612bfd57612bfd6135ca565b60200101906001600160f81b031916908160001a9053506000612c2184600261322e565b612c2c90600161327a565b90505b6001811115612ca4576f181899199a1a9b1b9c1cb0b131b232b360811b85600f1660108110612c6057612c606135ca565b1a60f81b828281518110612c7657612c766135ca565b60200101906001600160f81b031916908160001a90535060049490941c93612c9d816135f6565b9050612c2f565b5083156110385760405162461bcd60e51b815260206004820181905260248201527f537472696e67733a20686578206c656e67746820696e73756666696369656e746044820152606401610a98565b6000818152600183016020526040812054612d3a5750815460018181018455600084815260208082209093018490558454848252828601909352604090209190915561092d565b50600061092d565b60008181526001830160205260408120548015612e2b576000612d66600183613245565b8554909150600090612d7a90600190613245565b9050818114612ddf576000866000018281548110612d9a57612d9a6135ca565b9060005260206000200154905080876000018481548110612dbd57612dbd6135ca565b6000918252602080832090910192909255918252600188019052604090208390555b8554869080612df057612df061360d565b60019003818190600052602060002001600090559055856001016000868152602001908152602001600020600090556001935050505061092d565b600091505061092d565b610a03838383612e4a565b610c9e8282611d18565b6001600160a01b038316612eaf5760405162461bcd60e51b815260206004820152602660248201527f43726f776473616c653a2062656e6566696369617279206973207a65726f206160448201526564647265737360d01b6064820152608401610a98565b80600003612eff5760405162461bcd60e51b815260206004820152601c60248201527f43726f776473616c653a20746f6b656e20616d6f756e742069732030000000006044820152606401610a98565b6101645460ff16612f525760405162461bcd60e51b815260206004820152601b60248201527f43726f776473616c653a2073616c65206e6f74207374617274656400000000006044820152606401610a98565b612f5b82610ff0565b610a035760405162461bcd60e51b815260206004820152601760248201527f43726f776473616c653a206361702065786365656465640000000000000000006044820152606401610a98565b600060208284031215612fb957600080fd5b81356001600160e01b03198116811461103857600080fd5b6001600160a01b0381168114610cb557600080fd5b600060208284031215612ff857600080fd5b813561103881612fd1565b6000806040838503121561301657600080fd5b50508035926020909101359150565b60006020828403121561303757600080fd5b5035919050565b8015158114610cb557600080fd5b6000806040838503121561305f57600080fd5b823561306a8161303e565b9150602083013561307a81612fd1565b809150509250929050565b6000806040838503121561309857600080fd5b82359150602083013561307a81612fd1565b6000602082840312156130bc57600080fd5b81356110388161303e565b803563ffffffff811681146130db57600080fd5b919050565b600080600080608085870312156130f657600080fd5b6130ff856130c7565b935061310d602086016130c7565b925061311b604086016130c7565b9150613129606086016130c7565b905092959194509250565b6000806000806080858703121561314a57600080fd5b5050823594602084013594506040840135936060013592509050565b60008060006060848603121561317b57600080fd5b833561318681612fd1565b9250602084013561319681612fd1565b929592945050506040919091013590565b600080600080600060a086880312156131bf57600080fd5b85356131ca81612fd1565b945060208601356131da81612fd1565b935060408601356131ea81612fd1565b925060608601356131fa81612fd1565b9150608086013561320a8161303e565b809150509295509295909350565b634e487b7160e01b600052601160045260246000fd5b808202811582820484141761092d5761092d613218565b8181038181111561092d5761092d613218565b60008261327557634e487b7160e01b600052601260045260246000fd5b500490565b8082018082111561092d5761092d613218565b6020808252602a908201527f43726f776473616c653a2063616c6c6572206d757374206265206f776e65722060408201526937b91036b0b730b3b2b960b11b606082015260800190565b6000602082840312156132e957600080fd5b5051919050565b60006020828403121561330257600080fd5b815160ff8116811461103857600080fd5b600181815b8085111561334e57816000190482111561333457613334613218565b8085161561334157918102915b93841c9390800290613318565b509250929050565b6000826133655750600161092d565b816133725750600061092d565b81600181146133885760028114613392576133ae565b600191505061092d565b60ff8411156133a3576133a3613218565b50506001821b61092d565b5060208310610133831016604e8410600b84101617156133d1575081810a61092d565b6133db8383613313565b80600019048211156133ef576133ef613218565b029392505050565b600061103860ff841683613356565b6020808252603c908201527f4d696e746564496e6372656173696e67496e7465726573745447453a2043616c60408201527f6c6572206d757374206265206f776e6572206f72206d616e6167657200000000606082015260800190565b60006020828403121561347557600080fd5b81516110388161303e565b634e487b7160e01b600052602160045260246000fd5b6000602082840312156134a857600080fd5b815161103881612fd1565b6020808252602b908201527f496e697469616c697a61626c653a20636f6e7472616374206973206e6f74206960408201526a6e697469616c697a696e6760a81b606082015260800190565b60005b83811015613519578181015183820152602001613501565b50506000910152565b7f416363657373436f6e74726f6c3a206163636f756e742000000000000000000081526000835161355a8160178501602088016134fe565b7001034b99036b4b9b9b4b733903937b6329607d1b601791840191820152835161358b8160288401602088016134fe565b01602801949350505050565b60208152600082518060208401526135b68160408501602087016134fe565b601f01601f19169190910160400192915050565b634e487b7160e01b600052603260045260246000fd5b634e487b7160e01b600052604160045260246000fd5b60008161360557613605613218565b506000190190565b634e487b7160e01b600052603160045260246000fdfeb19546dff01e856fb3f010c267a7b1c60363cf8a4664e21cc89c26224620214ea26469706673582212207787d1c95e0932e876f99ed47b18d62e1f521515ef4272bd25c924f26d96835564736f6c63430008130033",
  "devdoc": {
    "author": "Untangled Team",
    "details": "Note sale for SOT - auction",
    "events": {
      "Initialized(uint8)": {
        "details": "Triggered when the contract has been initialized or reinitialized."
      },
      "Paused(address)": {
        "details": "Emitted when the pause is triggered by `account`."
      },
      "RoleAdminChanged(bytes32,bytes32,bytes32)": {
        "details": "Emitted when `newAdminRole` is set as ``role``'s admin role, replacing `previousAdminRole` `DEFAULT_ADMIN_ROLE` is the starting admin for all roles, despite {RoleAdminChanged} not being emitted signaling this. _Available since v3.1._"
      },
      "RoleGranted(bytes32,address,address)": {
        "details": "Emitted when `account` is granted `role`. `sender` is the account that originated the contract call, an admin role bearer except when using {AccessControl-_setupRole}."
      },
      "RoleRevoked(bytes32,address,address)": {
        "details": "Emitted when `account` is revoked `role`. `sender` is the account that originated the contract call:   - if using `revokeRole`, it is the admin role bearer   - if using `renounceRole`, it is the role bearer (i.e. `account`)"
      },
      "Unpaused(address)": {
        "details": "Emitted when the pause is lifted by `account`."
      }
    },
    "kind": "dev",
    "methods": {
      "finalize(bool,address)": {
        "details": "Validates that the crowdsale has not already been finalized and that it has either closed or reached the total cap",
        "params": {
          "claimRemainToken": "claim remaining token or not",
          "remainTokenRecipient": "Wallet will receive remaining token"
        }
      },
      "getRoleAdmin(bytes32)": {
        "details": "Returns the admin role that controls `role`. See {grantRole} and {revokeRole}. To change a role's admin, use {_setRoleAdmin}."
      },
      "getRoleMember(bytes32,uint256)": {
        "details": "Returns one of the accounts that have `role`. `index` must be a value between 0 and {getRoleMemberCount}, non-inclusive. Role bearers are not sorted in any particular way, and their ordering may change at any point. WARNING: When using {getRoleMember} and {getRoleMemberCount}, make sure you perform all queries on the same block. See the following https://forum.openzeppelin.com/t/iterating-over-elements-on-enumerableset-in-openzeppelin-contracts/2296[forum post] for more information."
      },
      "getRoleMemberCount(bytes32)": {
        "details": "Returns the number of accounts that have `role`. Can be used together with {getRoleMember} to enumerate all bearers of a role."
      },
      "getTokenPrice()": {
        "details": "This sale is for SOT. So the function return SOT token price"
      },
      "grantRole(bytes32,address)": {
        "details": "Grants `role` to `account`. If `account` had not been already granted `role`, emits a {RoleGranted} event. Requirements: - the caller must have ``role``'s admin role. May emit a {RoleGranted} event."
      },
      "hasRole(bytes32,address)": {
        "details": "Returns `true` if `account` has been granted `role`."
      },
      "isLongSale()": {
        "details": "This is an abstract function that needs to be implemented in derived contracts"
      },
      "onRedeem(uint256)": {
        "params": {
          "currencyAmount": "amount of currency investor want to redeem"
        }
      },
      "paused()": {
        "details": "Returns true if the contract is paused, and false otherwise."
      },
      "renounceRole(bytes32,address)": {
        "details": "Revokes `role` from the calling account. Roles are often managed via {grantRole} and {revokeRole}: this function's purpose is to provide a mechanism for accounts to lose their privileges if they are compromised (such as when a trusted device is misplaced). If the calling account had been revoked `role`, emits a {RoleRevoked} event. Requirements: - the caller must be `account`. May emit a {RoleRevoked} event."
      },
      "revokeRole(bytes32,address)": {
        "details": "Revokes `role` from `account`. If `account` had been granted `role`, emits a {RoleRevoked} event. Requirements: - the caller must have ``role``'s admin role. May emit a {RoleRevoked} event."
      },
      "setMinBidAmount(uint256)": {
        "params": {
          "_minBidAmount": "Expected minimum amount"
        }
      },
      "setUsingTimeLimit(bool)": {
        "details": "Sets the isEnableTimeLimit variable to the specified value"
      },
      "startNewRoundSale(uint256,uint256,uint256,uint256)": {
        "params": {
          "cap_": "Target amount of raised currency",
          "closingTime_": "Define when the sale should end",
          "openingTime_": "Define when the sale should start"
        }
      },
      "supportsInterface(bytes4)": {
        "details": "See {IERC165-supportsInterface}."
      }
    },
    "title": "MintedIncreasingInterestTGE",
    "version": 1
  },
  "userdoc": {
    "kind": "user",
    "methods": {
      "addFunding(uint256)": {
        "notice": "add funding amount to be added to the total cap"
      },
      "extendTime(uint256)": {
        "notice": "Updates the closing time with the new closing time"
      },
      "getCurrencyRemainAmount()": {
        "notice": "Calculates the remaining amount of currency available for purchase"
      },
      "getTokenAmount(uint256)": {
        "notice": "Get amount of token can receive from an amount of currency"
      },
      "getTokenPrice()": {
        "notice": "Calculate token price"
      },
      "getTokenRemainAmount()": {
        "notice": "Retrieves the remaining token balance held by the crowdsale contract"
      },
      "isDistributedFully()": {
        "notice": "Check if the total amount of currency raised is equal to the total cap"
      },
      "isLongSale()": {
        "notice": "Determines whether the current sale round is a long sale"
      },
      "isUnderTotalCap(uint256)": {
        "notice": "Checks if the sum of the current currency raised and the specified currency amount is less than or equal to the total cap"
      },
      "newSaleRoundTime(uint256,uint256)": {
        "notice": "Updates the opening time and closing time accordingly"
      },
      "onRedeem(uint256)": {
        "notice": "Catch event redeem token"
      },
      "setHasStarted(bool)": {
        "notice": "Set hasStarted variable"
      },
      "setMinBidAmount(uint256)": {
        "notice": "Setup minimum bid amount in currency for note token"
      },
      "startNewRoundSale(uint256,uint256,uint256,uint256)": {
        "notice": "Setup a new round sale for note token"
      },
      "totalCapReached()": {
        "notice": "Checks if the total amount of currency raised is greater than or equal to the total cap"
      }
    },
    "version": 1
  },
  "storageLayout": {
    "storage": [
      {
        "astId": 765,
        "contract": "contracts/protocol/note-sale/MintedIncreasingInterestTGE.sol:MintedIncreasingInterestTGE",
        "label": "_initialized",
        "offset": 0,
        "slot": "0",
        "type": "t_uint8"
      },
      {
        "astId": 768,
        "contract": "contracts/protocol/note-sale/MintedIncreasingInterestTGE.sol:MintedIncreasingInterestTGE",
        "label": "_initializing",
        "offset": 1,
        "slot": "0",
        "type": "t_bool"
      },
      {
        "astId": 4282,
        "contract": "contracts/protocol/note-sale/MintedIncreasingInterestTGE.sol:MintedIncreasingInterestTGE",
        "label": "__gap",
        "offset": 0,
        "slot": "1",
        "type": "t_array(t_uint256)50_storage"
      },
      {
        "astId": 948,
        "contract": "contracts/protocol/note-sale/MintedIncreasingInterestTGE.sol:MintedIncreasingInterestTGE",
        "label": "_paused",
        "offset": 0,
        "slot": "51",
        "type": "t_bool"
      },
      {
        "astId": 1053,
        "contract": "contracts/protocol/note-sale/MintedIncreasingInterestTGE.sol:MintedIncreasingInterestTGE",
        "label": "__gap",
        "offset": 0,
        "slot": "52",
        "type": "t_array(t_uint256)49_storage"
      },
      {
        "astId": 1068,
        "contract": "contracts/protocol/note-sale/MintedIncreasingInterestTGE.sol:MintedIncreasingInterestTGE",
        "label": "_status",
        "offset": 0,
        "slot": "101",
        "type": "t_uint256"
      },
      {
        "astId": 1137,
        "contract": "contracts/protocol/note-sale/MintedIncreasingInterestTGE.sol:MintedIncreasingInterestTGE",
        "label": "__gap",
        "offset": 0,
        "slot": "102",
        "type": "t_array(t_uint256)49_storage"
      },
      {
        "astId": 5572,
        "contract": "contracts/protocol/note-sale/MintedIncreasingInterestTGE.sol:MintedIncreasingInterestTGE",
        "label": "__gap",
        "offset": 0,
        "slot": "151",
        "type": "t_array(t_uint256)50_storage"
      },
      {
        "astId": 184,
        "contract": "contracts/protocol/note-sale/MintedIncreasingInterestTGE.sol:MintedIncreasingInterestTGE",
        "label": "_roles",
        "offset": 0,
        "slot": "201",
        "type": "t_mapping(t_bytes32,t_struct(RoleData)179_storage)"
      },
      {
        "astId": 479,
        "contract": "contracts/protocol/note-sale/MintedIncreasingInterestTGE.sol:MintedIncreasingInterestTGE",
        "label": "__gap",
        "offset": 0,
        "slot": "202",
        "type": "t_array(t_uint256)49_storage"
      },
      {
        "astId": 33,
        "contract": "contracts/protocol/note-sale/MintedIncreasingInterestTGE.sol:MintedIncreasingInterestTGE",
        "label": "_roleMembers",
        "offset": 0,
        "slot": "251",
        "type": "t_mapping(t_bytes32,t_struct(AddressSet)6882_storage)"
      },
      {
        "astId": 143,
        "contract": "contracts/protocol/note-sale/MintedIncreasingInterestTGE.sol:MintedIncreasingInterestTGE",
        "label": "__gap",
        "offset": 0,
        "slot": "252",
        "type": "t_array(t_uint256)49_storage"
      },
      {
        "astId": 10866,
        "contract": "contracts/protocol/note-sale/MintedIncreasingInterestTGE.sol:MintedIncreasingInterestTGE",
        "label": "__gap",
        "offset": 0,
        "slot": "301",
        "type": "t_array(t_uint256)50_storage"
      },
      {
        "astId": 14366,
        "contract": "contracts/protocol/note-sale/MintedIncreasingInterestTGE.sol:MintedIncreasingInterestTGE",
        "label": "registry",
        "offset": 0,
        "slot": "351",
        "type": "t_contract(Registry)31369"
      },
      {
        "astId": 14375,
        "contract": "contracts/protocol/note-sale/MintedIncreasingInterestTGE.sol:MintedIncreasingInterestTGE",
        "label": "pool",
        "offset": 0,
        "slot": "352",
        "type": "t_address"
      },
      {
        "astId": 14379,
        "contract": "contracts/protocol/note-sale/MintedIncreasingInterestTGE.sol:MintedIncreasingInterestTGE",
        "label": "token",
        "offset": 0,
        "slot": "353",
        "type": "t_address"
      },
      {
        "astId": 14382,
        "contract": "contracts/protocol/note-sale/MintedIncreasingInterestTGE.sol:MintedIncreasingInterestTGE",
        "label": "currency",
        "offset": 0,
        "slot": "354",
        "type": "t_address"
      },
      {
        "astId": 14384,
        "contract": "contracts/protocol/note-sale/MintedIncreasingInterestTGE.sol:MintedIncreasingInterestTGE",
        "label": "rate",
        "offset": 0,
        "slot": "355",
        "type": "t_uint256"
      },
      {
        "astId": 14386,
        "contract": "contracts/protocol/note-sale/MintedIncreasingInterestTGE.sol:MintedIncreasingInterestTGE",
        "label": "hasStarted",
        "offset": 0,
        "slot": "356",
        "type": "t_bool"
      },
      {
        "astId": 14388,
        "contract": "contracts/protocol/note-sale/MintedIncreasingInterestTGE.sol:MintedIncreasingInterestTGE",
        "label": "firstNoteTokenMintedTimestamp",
        "offset": 1,
        "slot": "356",
        "type": "t_uint64"
      },
      {
        "astId": 14391,
        "contract": "contracts/protocol/note-sale/MintedIncreasingInterestTGE.sol:MintedIncreasingInterestTGE",
        "label": "_currencyRaised",
        "offset": 0,
        "slot": "357",
        "type": "t_uint256"
      },
      {
        "astId": 14394,
        "contract": "contracts/protocol/note-sale/MintedIncreasingInterestTGE.sol:MintedIncreasingInterestTGE",
        "label": "tokenRaised",
        "offset": 0,
        "slot": "358",
        "type": "t_uint256"
      },
      {
        "astId": 14397,
        "contract": "contracts/protocol/note-sale/MintedIncreasingInterestTGE.sol:MintedIncreasingInterestTGE",
        "label": "totalCap",
        "offset": 0,
        "slot": "359",
        "type": "t_uint256"
      },
      {
        "astId": 14400,
        "contract": "contracts/protocol/note-sale/MintedIncreasingInterestTGE.sol:MintedIncreasingInterestTGE",
        "label": "minBidAmount",
        "offset": 0,
        "slot": "360",
        "type": "t_uint256"
      },
      {
        "astId": 14404,
        "contract": "contracts/protocol/note-sale/MintedIncreasingInterestTGE.sol:MintedIncreasingInterestTGE",
        "label": "_currencyRaisedByInvestor",
        "offset": 0,
        "slot": "361",
        "type": "t_mapping(t_address,t_uint256)"
      },
      {
        "astId": 15049,
        "contract": "contracts/protocol/note-sale/MintedIncreasingInterestTGE.sol:MintedIncreasingInterestTGE",
        "label": "__gap",
        "offset": 0,
        "slot": "362",
        "type": "t_array(t_uint256)40_storage"
      },
      {
        "astId": 15457,
        "contract": "contracts/protocol/note-sale/MintedIncreasingInterestTGE.sol:MintedIncreasingInterestTGE",
        "label": "openingTime",
        "offset": 0,
        "slot": "402",
        "type": "t_uint256"
      },
      {
        "astId": 15459,
        "contract": "contracts/protocol/note-sale/MintedIncreasingInterestTGE.sol:MintedIncreasingInterestTGE",
        "label": "closingTime",
        "offset": 0,
        "slot": "403",
        "type": "t_uint256"
      },
      {
        "astId": 15461,
        "contract": "contracts/protocol/note-sale/MintedIncreasingInterestTGE.sol:MintedIncreasingInterestTGE",
        "label": "isEnableTimeLimit",
        "offset": 0,
        "slot": "404",
        "type": "t_bool"
      },
      {
        "astId": 15677,
        "contract": "contracts/protocol/note-sale/MintedIncreasingInterestTGE.sol:MintedIncreasingInterestTGE",
        "label": "__gap",
        "offset": 0,
        "slot": "405",
        "type": "t_array(t_uint256)47_storage"
      },
      {
        "astId": 15061,
        "contract": "contracts/protocol/note-sale/MintedIncreasingInterestTGE.sol:MintedIncreasingInterestTGE",
        "label": "_finalized",
        "offset": 0,
        "slot": "452",
        "type": "t_bool"
      },
      {
        "astId": 15165,
        "contract": "contracts/protocol/note-sale/MintedIncreasingInterestTGE.sol:MintedIncreasingInterestTGE",
        "label": "__gap",
        "offset": 0,
        "slot": "453",
        "type": "t_array(t_uint256)49_storage"
      },
      {
        "astId": 15268,
        "contract": "contracts/protocol/note-sale/MintedIncreasingInterestTGE.sol:MintedIncreasingInterestTGE",
        "label": "initialInterest",
        "offset": 0,
        "slot": "502",
        "type": "t_uint32"
      },
      {
        "astId": 15270,
        "contract": "contracts/protocol/note-sale/MintedIncreasingInterestTGE.sol:MintedIncreasingInterestTGE",
        "label": "finalInterest",
        "offset": 4,
        "slot": "502",
        "type": "t_uint32"
      },
      {
        "astId": 15272,
        "contract": "contracts/protocol/note-sale/MintedIncreasingInterestTGE.sol:MintedIncreasingInterestTGE",
        "label": "timeInterval",
        "offset": 8,
        "slot": "502",
        "type": "t_uint32"
      },
      {
        "astId": 15274,
        "contract": "contracts/protocol/note-sale/MintedIncreasingInterestTGE.sol:MintedIncreasingInterestTGE",
        "label": "amountChangeEachInterval",
        "offset": 12,
        "slot": "502",
        "type": "t_uint32"
      },
      {
        "astId": 15277,
        "contract": "contracts/protocol/note-sale/MintedIncreasingInterestTGE.sol:MintedIncreasingInterestTGE",
        "label": "pickedInterest",
        "offset": 16,
        "slot": "502",
        "type": "t_uint32"
      },
      {
        "astId": 15444,
        "contract": "contracts/protocol/note-sale/MintedIncreasingInterestTGE.sol:MintedIncreasingInterestTGE",
        "label": "__gap",
        "offset": 0,
        "slot": "503",
        "type": "t_array(t_uint256)45_storage"
      },
      {
        "astId": 14331,
        "contract": "contracts/protocol/note-sale/MintedIncreasingInterestTGE.sol:MintedIncreasingInterestTGE",
        "label": "__gap",
        "offset": 0,
        "slot": "548",
        "type": "t_array(t_uint256)50_storage"
      },
      {
        "astId": 13670,
        "contract": "contracts/protocol/note-sale/MintedIncreasingInterestTGE.sol:MintedIncreasingInterestTGE",
        "label": "longSale",
        "offset": 0,
        "slot": "598",
        "type": "t_bool"
      },
      {
        "astId": 13672,
        "contract": "contracts/protocol/note-sale/MintedIncreasingInterestTGE.sol:MintedIncreasingInterestTGE",
        "label": "interestRate",
        "offset": 0,
        "slot": "599",
        "type": "t_uint256"
      },
      {
        "astId": 13674,
        "contract": "contracts/protocol/note-sale/MintedIncreasingInterestTGE.sol:MintedIncreasingInterestTGE",
        "label": "saleType",
        "offset": 0,
        "slot": "600",
        "type": "t_uint8"
      },
      {
        "astId": 13929,
        "contract": "contracts/protocol/note-sale/MintedIncreasingInterestTGE.sol:MintedIncreasingInterestTGE",
        "label": "__gap",
        "offset": 0,
        "slot": "601",
        "type": "t_array(t_uint256)45_storage"
      }
    ],
    "types": {
      "t_address": {
        "encoding": "inplace",
        "label": "address",
        "numberOfBytes": "20"
      },
      "t_array(t_bytes32)dyn_storage": {
        "base": "t_bytes32",
        "encoding": "dynamic_array",
        "label": "bytes32[]",
        "numberOfBytes": "32"
      },
      "t_array(t_uint256)40_storage": {
        "base": "t_uint256",
        "encoding": "inplace",
        "label": "uint256[40]",
        "numberOfBytes": "1280"
      },
      "t_array(t_uint256)45_storage": {
        "base": "t_uint256",
        "encoding": "inplace",
        "label": "uint256[45]",
        "numberOfBytes": "1440"
      },
      "t_array(t_uint256)47_storage": {
        "base": "t_uint256",
        "encoding": "inplace",
        "label": "uint256[47]",
        "numberOfBytes": "1504"
      },
      "t_array(t_uint256)49_storage": {
        "base": "t_uint256",
        "encoding": "inplace",
        "label": "uint256[49]",
        "numberOfBytes": "1568"
      },
      "t_array(t_uint256)50_storage": {
        "base": "t_uint256",
        "encoding": "inplace",
        "label": "uint256[50]",
        "numberOfBytes": "1600"
      },
      "t_bool": {
        "encoding": "inplace",
        "label": "bool",
        "numberOfBytes": "1"
      },
      "t_bytes32": {
        "encoding": "inplace",
        "label": "bytes32",
        "numberOfBytes": "32"
      },
      "t_contract(Registry)31369": {
        "encoding": "inplace",
        "label": "contract Registry",
        "numberOfBytes": "20"
      },
      "t_mapping(t_address,t_bool)": {
        "encoding": "mapping",
        "key": "t_address",
        "label": "mapping(address => bool)",
        "numberOfBytes": "32",
        "value": "t_bool"
      },
      "t_mapping(t_address,t_uint256)": {
        "encoding": "mapping",
        "key": "t_address",
        "label": "mapping(address => uint256)",
        "numberOfBytes": "32",
        "value": "t_uint256"
      },
      "t_mapping(t_bytes32,t_struct(AddressSet)6882_storage)": {
        "encoding": "mapping",
        "key": "t_bytes32",
        "label": "mapping(bytes32 => struct EnumerableSetUpgradeable.AddressSet)",
        "numberOfBytes": "32",
        "value": "t_struct(AddressSet)6882_storage"
      },
      "t_mapping(t_bytes32,t_struct(RoleData)179_storage)": {
        "encoding": "mapping",
        "key": "t_bytes32",
        "label": "mapping(bytes32 => struct AccessControlUpgradeable.RoleData)",
        "numberOfBytes": "32",
        "value": "t_struct(RoleData)179_storage"
      },
      "t_mapping(t_bytes32,t_uint256)": {
        "encoding": "mapping",
        "key": "t_bytes32",
        "label": "mapping(bytes32 => uint256)",
        "numberOfBytes": "32",
        "value": "t_uint256"
      },
      "t_struct(AddressSet)6882_storage": {
        "encoding": "inplace",
        "label": "struct EnumerableSetUpgradeable.AddressSet",
        "members": [
          {
            "astId": 6881,
            "contract": "contracts/protocol/note-sale/MintedIncreasingInterestTGE.sol:MintedIncreasingInterestTGE",
            "label": "_inner",
            "offset": 0,
            "slot": "0",
            "type": "t_struct(Set)6567_storage"
          }
        ],
        "numberOfBytes": "64"
      },
      "t_struct(RoleData)179_storage": {
        "encoding": "inplace",
        "label": "struct AccessControlUpgradeable.RoleData",
        "members": [
          {
            "astId": 176,
            "contract": "contracts/protocol/note-sale/MintedIncreasingInterestTGE.sol:MintedIncreasingInterestTGE",
            "label": "members",
            "offset": 0,
            "slot": "0",
            "type": "t_mapping(t_address,t_bool)"
          },
          {
            "astId": 178,
            "contract": "contracts/protocol/note-sale/MintedIncreasingInterestTGE.sol:MintedIncreasingInterestTGE",
            "label": "adminRole",
            "offset": 0,
            "slot": "1",
            "type": "t_bytes32"
          }
        ],
        "numberOfBytes": "64"
      },
      "t_struct(Set)6567_storage": {
        "encoding": "inplace",
        "label": "struct EnumerableSetUpgradeable.Set",
        "members": [
          {
            "astId": 6562,
            "contract": "contracts/protocol/note-sale/MintedIncreasingInterestTGE.sol:MintedIncreasingInterestTGE",
            "label": "_values",
            "offset": 0,
            "slot": "0",
            "type": "t_array(t_bytes32)dyn_storage"
          },
          {
            "astId": 6566,
            "contract": "contracts/protocol/note-sale/MintedIncreasingInterestTGE.sol:MintedIncreasingInterestTGE",
            "label": "_indexes",
            "offset": 0,
            "slot": "1",
            "type": "t_mapping(t_bytes32,t_uint256)"
          }
        ],
        "numberOfBytes": "64"
      },
      "t_uint256": {
        "encoding": "inplace",
        "label": "uint256",
        "numberOfBytes": "32"
      },
      "t_uint32": {
        "encoding": "inplace",
        "label": "uint32",
        "numberOfBytes": "4"
      },
      "t_uint64": {
        "encoding": "inplace",
        "label": "uint64",
        "numberOfBytes": "8"
      },
      "t_uint8": {
        "encoding": "inplace",
        "label": "uint8",
        "numberOfBytes": "1"
      }
    }
  }
}