{
  "address": "0x975EBE506C7E94353E18492991d11aDD9fBFC2Bb",
  "abi": [
    {
      "anonymous": false,
      "inputs": [],
      "name": "CrowdsaleFinalized",
      "type": "event"
    },
    {
      "anonymous": false,
      "inputs": [
        {
          "indexed": false,
          "internalType": "uint8",
          "name": "version",
          "type": "uint8"
        }
      ],
      "name": "Initialized",
      "type": "event"
    },
    {
      "anonymous": false,
      "inputs": [
        {
          "indexed": false,
          "internalType": "address",
          "name": "account",
          "type": "address"
        }
      ],
      "name": "Paused",
      "type": "event"
    },
    {
      "anonymous": false,
      "inputs": [
        {
          "indexed": true,
          "internalType": "bytes32",
          "name": "role",
          "type": "bytes32"
        },
        {
          "indexed": true,
          "internalType": "bytes32",
          "name": "previousAdminRole",
          "type": "bytes32"
        },
        {
          "indexed": true,
          "internalType": "bytes32",
          "name": "newAdminRole",
          "type": "bytes32"
        }
      ],
      "name": "RoleAdminChanged",
      "type": "event"
    },
    {
      "anonymous": false,
      "inputs": [
        {
          "indexed": true,
          "internalType": "bytes32",
          "name": "role",
          "type": "bytes32"
        },
        {
          "indexed": true,
          "internalType": "address",
          "name": "account",
          "type": "address"
        },
        {
          "indexed": true,
          "internalType": "address",
          "name": "sender",
          "type": "address"
        }
      ],
      "name": "RoleGranted",
      "type": "event"
    },
    {
      "anonymous": false,
      "inputs": [
        {
          "indexed": true,
          "internalType": "bytes32",
          "name": "role",
          "type": "bytes32"
        },
        {
          "indexed": true,
          "internalType": "address",
          "name": "account",
          "type": "address"
        },
        {
          "indexed": true,
          "internalType": "address",
          "name": "sender",
          "type": "address"
        }
      ],
      "name": "RoleRevoked",
      "type": "event"
    },
    {
      "anonymous": false,
      "inputs": [
        {
          "indexed": false,
          "internalType": "bool",
          "name": "hasStarted",
          "type": "bool"
        }
      ],
      "name": "SetHasStarted",
      "type": "event"
    },
    {
      "anonymous": false,
      "inputs": [
        {
          "indexed": false,
          "internalType": "uint256",
          "name": "prevClosingTime",
          "type": "uint256"
        },
        {
          "indexed": false,
          "internalType": "uint256",
          "name": "newClosingTime",
          "type": "uint256"
        }
      ],
      "name": "TimedCrowdsaleExtended",
      "type": "event"
    },
    {
      "anonymous": false,
      "inputs": [
        {
          "indexed": true,
          "internalType": "address",
          "name": "purchaser",
          "type": "address"
        },
        {
          "indexed": true,
          "internalType": "address",
          "name": "beneficiary",
          "type": "address"
        },
        {
          "indexed": false,
          "internalType": "uint256",
          "name": "value",
          "type": "uint256"
        },
        {
          "indexed": false,
          "internalType": "uint256",
          "name": "amount",
          "type": "uint256"
        }
      ],
      "name": "TokensPurchased",
      "type": "event"
    },
    {
      "anonymous": false,
      "inputs": [
        {
          "indexed": false,
          "internalType": "address",
          "name": "account",
          "type": "address"
        }
      ],
      "name": "Unpaused",
      "type": "event"
    },
    {
      "anonymous": false,
      "inputs": [
        {
          "indexed": false,
          "internalType": "uint256",
          "name": "initialAmount",
          "type": "uint256"
        }
      ],
      "name": "UpdateInitialAmount",
      "type": "event"
    },
    {
      "anonymous": false,
      "inputs": [
        {
          "indexed": false,
          "internalType": "uint256",
          "name": "minBidAmount",
          "type": "uint256"
        }
      ],
      "name": "UpdateMinBidAmount",
      "type": "event"
    },
    {
      "anonymous": false,
      "inputs": [
        {
          "indexed": false,
          "internalType": "uint256",
          "name": "newOpeningTime",
          "type": "uint256"
        },
        {
          "indexed": false,
          "internalType": "uint256",
          "name": "newClosingTime",
          "type": "uint256"
        }
      ],
      "name": "UpdateSaleRoundTime",
      "type": "event"
    },
    {
      "anonymous": false,
      "inputs": [
        {
          "indexed": false,
          "internalType": "uint256",
          "name": "totalCap",
          "type": "uint256"
        }
      ],
      "name": "UpdateTotalCap",
      "type": "event"
    },
    {
      "anonymous": false,
      "inputs": [
        {
          "indexed": false,
          "internalType": "bool",
          "name": "isEnableTimeLimit",
          "type": "bool"
        }
      ],
      "name": "UpdateUsingTimeLimit",
      "type": "event"
    },
    {
      "inputs": [],
      "name": "DAY_LENGTH_IN_SECONDS",
      "outputs": [
        {
          "internalType": "uint256",
          "name": "",
          "type": "uint256"
        }
      ],
      "stateMutability": "view",
      "type": "function"
    },
    {
      "inputs": [],
      "name": "DEFAULT_ADMIN_ROLE",
      "outputs": [
        {
          "internalType": "bytes32",
          "name": "",
          "type": "bytes32"
        }
      ],
      "stateMutability": "view",
      "type": "function"
    },
    {
      "inputs": [],
      "name": "HOUR_LENGTH_IN_SECONDS",
      "outputs": [
        {
          "internalType": "uint256",
          "name": "",
          "type": "uint256"
        }
      ],
      "stateMutability": "view",
      "type": "function"
    },
    {
      "inputs": [],
      "name": "INTEREST_RATE_SCALING_FACTOR_PERCENT",
      "outputs": [
        {
          "internalType": "uint256",
          "name": "",
          "type": "uint256"
        }
      ],
      "stateMutability": "view",
      "type": "function"
    },
    {
      "inputs": [],
      "name": "MINUTE_LENGTH_IN_SECONDS",
      "outputs": [
        {
          "internalType": "uint256",
          "name": "",
          "type": "uint256"
        }
      ],
      "stateMutability": "view",
      "type": "function"
    },
    {
      "inputs": [],
      "name": "OWNER_ROLE",
      "outputs": [
        {
          "internalType": "bytes32",
          "name": "",
          "type": "bytes32"
        }
      ],
      "stateMutability": "view",
      "type": "function"
    },
    {
      "inputs": [],
      "name": "PURCHASE_PRICE_SCALING_FACTOR",
      "outputs": [
        {
          "internalType": "uint256",
          "name": "",
          "type": "uint256"
        }
      ],
      "stateMutability": "view",
      "type": "function"
    },
    {
      "inputs": [],
      "name": "RATE_SCALING_FACTOR",
      "outputs": [
        {
          "internalType": "uint256",
          "name": "",
          "type": "uint256"
        }
      ],
      "stateMutability": "view",
      "type": "function"
    },
    {
      "inputs": [],
      "name": "YEAR_LENGTH_IN_DAYS",
      "outputs": [
        {
          "internalType": "uint256",
          "name": "",
          "type": "uint256"
        }
      ],
      "stateMutability": "view",
      "type": "function"
    },
    {
      "inputs": [],
      "name": "YEAR_LENGTH_IN_SECONDS",
      "outputs": [
        {
          "internalType": "uint256",
          "name": "",
          "type": "uint256"
        }
      ],
      "stateMutability": "view",
      "type": "function"
    },
    {
      "inputs": [
        {
          "internalType": "address",
          "name": "",
          "type": "address"
        }
      ],
      "name": "_currencyRaisedByInvestor",
      "outputs": [
        {
          "internalType": "uint256",
          "name": "",
          "type": "uint256"
        }
      ],
      "stateMutability": "view",
      "type": "function"
    },
    {
      "inputs": [
        {
          "internalType": "uint256",
          "name": "additionalCap",
          "type": "uint256"
        }
      ],
      "name": "addFunding",
      "outputs": [],
      "stateMutability": "nonpayable",
      "type": "function"
    },
    {
      "inputs": [
        {
          "internalType": "address",
          "name": "payee",
          "type": "address"
        },
        {
          "internalType": "address",
          "name": "beneficiary",
          "type": "address"
        },
        {
          "internalType": "uint256",
          "name": "currencyAmount",
          "type": "uint256"
        }
      ],
      "name": "buyTokens",
      "outputs": [
        {
          "internalType": "uint256",
          "name": "",
          "type": "uint256"
        }
      ],
      "stateMutability": "nonpayable",
      "type": "function"
    },
    {
      "inputs": [],
      "name": "closingTime",
      "outputs": [
        {
          "internalType": "uint256",
          "name": "",
          "type": "uint256"
        }
      ],
      "stateMutability": "view",
      "type": "function"
    },
    {
      "inputs": [],
      "name": "currency",
      "outputs": [
        {
          "internalType": "address",
          "name": "",
          "type": "address"
        }
      ],
      "stateMutability": "view",
      "type": "function"
    },
    {
      "inputs": [],
      "name": "currencyRaised",
      "outputs": [
        {
          "internalType": "uint256",
          "name": "",
          "type": "uint256"
        }
      ],
      "stateMutability": "view",
      "type": "function"
    },
    {
      "inputs": [
        {
          "internalType": "address",
          "name": "investor",
          "type": "address"
        }
      ],
      "name": "currencyRaisedByInvestor",
      "outputs": [
        {
          "internalType": "uint256",
          "name": "",
          "type": "uint256"
        }
      ],
      "stateMutability": "view",
      "type": "function"
    },
    {
      "inputs": [
        {
          "internalType": "uint256",
          "name": "newClosingTime",
          "type": "uint256"
        }
      ],
      "name": "extendTime",
      "outputs": [],
      "stateMutability": "nonpayable",
      "type": "function"
    },
    {
      "inputs": [
        {
          "internalType": "bool",
          "name": "claimRemainToken",
          "type": "bool"
        },
        {
          "internalType": "address",
          "name": "remainTokenRecipient",
          "type": "address"
        }
      ],
      "name": "finalize",
      "outputs": [],
      "stateMutability": "nonpayable",
      "type": "function"
    },
    {
      "inputs": [],
      "name": "finalized",
      "outputs": [
        {
          "internalType": "bool",
          "name": "",
          "type": "bool"
        }
      ],
      "stateMutability": "view",
      "type": "function"
    },
    {
      "inputs": [],
      "name": "firstNoteTokenMintedTimestamp",
      "outputs": [
        {
          "internalType": "uint64",
          "name": "",
          "type": "uint64"
        }
      ],
      "stateMutability": "view",
      "type": "function"
    },
    {
      "inputs": [],
      "name": "getCurrencyRemainAmount",
      "outputs": [
        {
          "internalType": "uint256",
          "name": "",
          "type": "uint256"
        }
      ],
      "stateMutability": "view",
      "type": "function"
    },
    {
      "inputs": [],
      "name": "getInitializedVersion",
      "outputs": [
        {
          "internalType": "uint256",
          "name": "",
          "type": "uint256"
        }
      ],
      "stateMutability": "view",
      "type": "function"
    },
    {
      "inputs": [],
      "name": "getInterest",
      "outputs": [
        {
          "internalType": "uint256",
          "name": "",
          "type": "uint256"
        }
      ],
      "stateMutability": "view",
      "type": "function"
    },
    {
      "inputs": [
        {
          "internalType": "bytes32",
          "name": "role",
          "type": "bytes32"
        }
      ],
      "name": "getRoleAdmin",
      "outputs": [
        {
          "internalType": "bytes32",
          "name": "",
          "type": "bytes32"
        }
      ],
      "stateMutability": "view",
      "type": "function"
    },
    {
      "inputs": [
        {
          "internalType": "bytes32",
          "name": "role",
          "type": "bytes32"
        },
        {
          "internalType": "uint256",
          "name": "index",
          "type": "uint256"
        }
      ],
      "name": "getRoleMember",
      "outputs": [
        {
          "internalType": "address",
          "name": "",
          "type": "address"
        }
      ],
      "stateMutability": "view",
      "type": "function"
    },
    {
      "inputs": [
        {
          "internalType": "bytes32",
          "name": "role",
          "type": "bytes32"
        }
      ],
      "name": "getRoleMemberCount",
      "outputs": [
        {
          "internalType": "uint256",
          "name": "",
          "type": "uint256"
        }
      ],
      "stateMutability": "view",
      "type": "function"
    },
    {
      "inputs": [
        {
          "internalType": "uint256",
          "name": "currencyAmount",
          "type": "uint256"
        }
      ],
      "name": "getTokenAmount",
      "outputs": [
        {
          "internalType": "uint256",
          "name": "",
          "type": "uint256"
        }
      ],
      "stateMutability": "view",
      "type": "function"
    },
    {
      "inputs": [],
      "name": "getTokenPrice",
      "outputs": [
        {
          "internalType": "uint256",
          "name": "",
          "type": "uint256"
        }
      ],
      "stateMutability": "view",
      "type": "function"
    },
    {
      "inputs": [],
      "name": "getTokenRemainAmount",
      "outputs": [
        {
          "internalType": "uint256",
          "name": "",
          "type": "uint256"
        }
      ],
      "stateMutability": "view",
      "type": "function"
    },
    {
      "inputs": [
        {
          "internalType": "bytes32",
          "name": "role",
          "type": "bytes32"
        },
        {
          "internalType": "address",
          "name": "account",
          "type": "address"
        }
      ],
      "name": "grantRole",
      "outputs": [],
      "stateMutability": "nonpayable",
      "type": "function"
    },
    {
      "inputs": [],
      "name": "hasClosed",
      "outputs": [
        {
          "internalType": "bool",
          "name": "",
          "type": "bool"
        }
      ],
      "stateMutability": "view",
      "type": "function"
    },
    {
      "inputs": [
        {
          "internalType": "bytes32",
          "name": "role",
          "type": "bytes32"
        },
        {
          "internalType": "address",
          "name": "account",
          "type": "address"
        }
      ],
      "name": "hasRole",
      "outputs": [
        {
          "internalType": "bool",
          "name": "",
          "type": "bool"
        }
      ],
      "stateMutability": "view",
      "type": "function"
    },
    {
      "inputs": [],
      "name": "hasStarted",
      "outputs": [
        {
          "internalType": "bool",
          "name": "",
          "type": "bool"
        }
      ],
      "stateMutability": "view",
      "type": "function"
    },
    {
      "inputs": [],
      "name": "initialAmount",
      "outputs": [
        {
          "internalType": "uint256",
          "name": "",
          "type": "uint256"
        }
      ],
      "stateMutability": "view",
      "type": "function"
    },
    {
      "inputs": [
        {
          "internalType": "contract Registry",
          "name": "_registry",
          "type": "address"
        },
        {
          "internalType": "address",
          "name": "_pool",
          "type": "address"
        },
        {
          "internalType": "address",
          "name": "_token",
          "type": "address"
        },
        {
          "internalType": "address",
          "name": "_currency",
          "type": "address"
        },
        {
          "internalType": "bool",
          "name": "_longSale",
          "type": "bool"
        }
      ],
      "name": "initialize",
      "outputs": [],
      "stateMutability": "nonpayable",
      "type": "function"
    },
    {
      "inputs": [],
      "name": "interestRate",
      "outputs": [
        {
          "internalType": "uint256",
          "name": "",
          "type": "uint256"
        }
      ],
      "stateMutability": "view",
      "type": "function"
    },
    {
      "inputs": [],
      "name": "isAdmin",
      "outputs": [
        {
          "internalType": "bool",
          "name": "",
          "type": "bool"
        }
      ],
      "stateMutability": "view",
      "type": "function"
    },
    {
      "inputs": [],
      "name": "isDistributedFully",
      "outputs": [
        {
          "internalType": "bool",
          "name": "",
          "type": "bool"
        }
      ],
      "stateMutability": "view",
      "type": "function"
    },
    {
      "inputs": [],
      "name": "isEnableTimeLimit",
      "outputs": [
        {
          "internalType": "bool",
          "name": "",
          "type": "bool"
        }
      ],
      "stateMutability": "view",
      "type": "function"
    },
    {
      "inputs": [],
      "name": "isLongSale",
      "outputs": [
        {
          "internalType": "bool",
          "name": "",
          "type": "bool"
        }
      ],
      "stateMutability": "view",
      "type": "function"
    },
    {
      "inputs": [],
      "name": "isOpen",
      "outputs": [
        {
          "internalType": "bool",
          "name": "",
          "type": "bool"
        }
      ],
      "stateMutability": "view",
      "type": "function"
    },
    {
      "inputs": [
        {
          "internalType": "uint256",
          "name": "currencyAmount",
          "type": "uint256"
        }
      ],
      "name": "isUnderTotalCap",
      "outputs": [
        {
          "internalType": "bool",
          "name": "",
          "type": "bool"
        }
      ],
      "stateMutability": "view",
      "type": "function"
    },
    {
      "inputs": [],
      "name": "longSale",
      "outputs": [
        {
          "internalType": "bool",
          "name": "",
          "type": "bool"
        }
      ],
      "stateMutability": "view",
      "type": "function"
    },
    {
      "inputs": [],
      "name": "minBidAmount",
      "outputs": [
        {
          "internalType": "uint256",
          "name": "",
          "type": "uint256"
        }
      ],
      "stateMutability": "view",
      "type": "function"
    },
    {
      "inputs": [
        {
          "internalType": "uint256",
          "name": "newOpeningTime",
          "type": "uint256"
        },
        {
          "internalType": "uint256",
          "name": "newClosingTime",
          "type": "uint256"
        }
      ],
      "name": "newSaleRoundTime",
      "outputs": [],
      "stateMutability": "nonpayable",
      "type": "function"
    },
    {
      "inputs": [
        {
          "internalType": "uint256",
          "name": "currencyAmount",
          "type": "uint256"
        }
      ],
      "name": "onRedeem",
      "outputs": [],
      "stateMutability": "nonpayable",
      "type": "function"
    },
    {
      "inputs": [],
      "name": "openingTime",
      "outputs": [
        {
          "internalType": "uint256",
          "name": "",
          "type": "uint256"
        }
      ],
      "stateMutability": "view",
      "type": "function"
    },
    {
      "inputs": [],
      "name": "pause",
      "outputs": [],
      "stateMutability": "nonpayable",
      "type": "function"
    },
    {
      "inputs": [],
      "name": "paused",
      "outputs": [
        {
          "internalType": "bool",
          "name": "",
          "type": "bool"
        }
      ],
      "stateMutability": "view",
      "type": "function"
    },
    {
      "inputs": [],
      "name": "pickedInterest",
      "outputs": [
        {
          "internalType": "uint32",
          "name": "",
          "type": "uint32"
        }
      ],
      "stateMutability": "view",
      "type": "function"
    },
    {
      "inputs": [],
      "name": "pool",
      "outputs": [
        {
          "internalType": "address",
          "name": "",
          "type": "address"
        }
      ],
      "stateMutability": "view",
      "type": "function"
    },
    {
      "inputs": [],
      "name": "rate",
      "outputs": [
        {
          "internalType": "uint256",
          "name": "",
          "type": "uint256"
        }
      ],
      "stateMutability": "view",
      "type": "function"
    },
    {
      "inputs": [],
      "name": "registry",
      "outputs": [
        {
          "internalType": "contract Registry",
          "name": "",
          "type": "address"
        }
      ],
      "stateMutability": "view",
      "type": "function"
    },
    {
      "inputs": [
        {
          "internalType": "bytes32",
          "name": "role",
          "type": "bytes32"
        },
        {
          "internalType": "address",
          "name": "account",
          "type": "address"
        }
      ],
      "name": "renounceRole",
      "outputs": [],
      "stateMutability": "nonpayable",
      "type": "function"
    },
    {
      "inputs": [
        {
          "internalType": "bytes32",
          "name": "role",
          "type": "bytes32"
        },
        {
          "internalType": "address",
          "name": "account",
          "type": "address"
        }
      ],
      "name": "revokeRole",
      "outputs": [],
      "stateMutability": "nonpayable",
      "type": "function"
    },
    {
      "inputs": [
        {
          "internalType": "bool",
          "name": "_hasStarted",
          "type": "bool"
        }
      ],
      "name": "setHasStarted",
      "outputs": [],
      "stateMutability": "nonpayable",
      "type": "function"
    },
    {
      "inputs": [
        {
          "internalType": "uint256",
          "name": "_initialAmount",
          "type": "uint256"
        }
      ],
      "name": "setInitialAmount",
      "outputs": [],
      "stateMutability": "nonpayable",
      "type": "function"
    },
    {
      "inputs": [
        {
          "internalType": "uint256",
          "name": "_interestRate",
          "type": "uint256"
        }
      ],
      "name": "setInterestRate",
      "outputs": [],
      "stateMutability": "nonpayable",
      "type": "function"
    },
    {
      "inputs": [
        {
          "internalType": "uint256",
          "name": "_minBidAmount",
          "type": "uint256"
        }
      ],
      "name": "setMinBidAmount",
      "outputs": [],
      "stateMutability": "nonpayable",
      "type": "function"
    },
    {
      "inputs": [
        {
          "internalType": "bytes32",
          "name": "role",
          "type": "bytes32"
        },
        {
          "internalType": "bytes32",
          "name": "adminRole",
          "type": "bytes32"
        }
      ],
      "name": "setRoleAdmin",
      "outputs": [],
      "stateMutability": "nonpayable",
      "type": "function"
    },
    {
      "inputs": [
        {
          "internalType": "uint256",
          "name": "cap_",
          "type": "uint256"
        }
      ],
      "name": "setTotalCap",
      "outputs": [],
      "stateMutability": "nonpayable",
      "type": "function"
    },
    {
      "inputs": [
        {
          "internalType": "bool",
          "name": "usingTimeLimit",
          "type": "bool"
        }
      ],
      "name": "setUsingTimeLimit",
      "outputs": [],
      "stateMutability": "nonpayable",
      "type": "function"
    },
    {
      "inputs": [
        {
          "internalType": "uint256",
          "name": "openingTime_",
          "type": "uint256"
        },
        {
          "internalType": "uint256",
          "name": "closingTime_",
          "type": "uint256"
        },
        {
          "internalType": "uint256",
          "name": "rate_",
          "type": "uint256"
        },
        {
          "internalType": "uint256",
          "name": "cap_",
          "type": "uint256"
        }
      ],
      "name": "startNewRoundSale",
      "outputs": [],
      "stateMutability": "nonpayable",
      "type": "function"
    },
    {
      "inputs": [
        {
          "internalType": "bytes4",
          "name": "interfaceId",
          "type": "bytes4"
        }
      ],
      "name": "supportsInterface",
      "outputs": [
        {
          "internalType": "bool",
          "name": "",
          "type": "bool"
        }
      ],
      "stateMutability": "view",
      "type": "function"
    },
    {
      "inputs": [],
      "name": "token",
      "outputs": [
        {
          "internalType": "address",
          "name": "",
          "type": "address"
        }
      ],
      "stateMutability": "view",
      "type": "function"
    },
    {
      "inputs": [],
      "name": "tokenRaised",
      "outputs": [
        {
          "internalType": "uint256",
          "name": "",
          "type": "uint256"
        }
      ],
      "stateMutability": "view",
      "type": "function"
    },
    {
      "inputs": [],
      "name": "totalCap",
      "outputs": [
        {
          "internalType": "uint256",
          "name": "",
          "type": "uint256"
        }
      ],
      "stateMutability": "view",
      "type": "function"
    },
    {
      "inputs": [],
      "name": "totalCapReached",
      "outputs": [
        {
          "internalType": "bool",
          "name": "",
          "type": "bool"
        }
      ],
      "stateMutability": "view",
      "type": "function"
    },
    {
      "inputs": [],
      "name": "unpause",
      "outputs": [],
      "stateMutability": "nonpayable",
      "type": "function"
    }
  ],
  "transactionHash": "0x7c68c7c34dedd91992b56f516c238b81bfd4421a2f0435dc360db6a11083f860",
  "args": [],
  "numDeployments": 8,
  "solcInputHash": "1819865b86ecea8aad88a2c190455b11",
  "bytecode": "0x608060405234801561001057600080fd5b50613182806100206000396000f3fe608060405234801561001057600080fd5b50600436106104125760003560e01c80639010d07c11610220578063cb2daa1611610130578063e58378bb116100b8578063ea7bb4bd11610087578063ea7bb4bd14610850578063fc0c546a14610863578063fc1ed43714610877578063fc5b5fda14610881578063fd127a411461089457600080fd5b8063e58378bb14610812578063e5a4bed314610827578063e5a6b10f14610830578063e8206d8f1461084457600080fd5b8063d7d55a4a116100ff578063d7d55a4a146107b8578063dcefa538146107cb578063e17574a1146107de578063e1884b0f146107ff578063e2eda541146106b157600080fd5b8063cb2daa16146106b1578063cda95d5514610784578063d2da89ab14610797578063d547741f146107a557600080fd5b8063ab15de52116101b3578063b6db75a011610182578063b6db75a014610744578063b7a8807c1461074c578063b94883d514610756578063c2507ac11461075e578063ca15c8731461077157600080fd5b8063ab15de5214610711578063b0efc3291461071a578063b3c650151461072d578063b3f05b971461073857600080fd5b8063998ba4fc116101ef578063998ba4fc146106ba5780639b52fe33146106c3578063a217fddf146106f6578063a27aebbc146106fe57600080fd5b80639010d07c1461067857806391d148541461068b57806391d1d4f81461069e57806393529cdf146106b157600080fd5b80633f4ba83a116103265780635d5d4613116102ae5780637a0e80d71161027d5780637a0e80d7146106315780637b1039991461063f5780637c3a00fd146106535780637f01b46a1461065d5780638456cb591461067057600080fd5b80635d5d4613146105f05780635f84f302146106035780636f69c96f146106165780636f7b58be1461061e57600080fd5b806349751788116102f557806349751788146105c15780634b6753bc146105cb5780634b94f50e146105d55780635c975abb146105dd5780635d4eeb26146105e857600080fd5b80633f4ba83a14610590578063417fd6b61461059857806344691f7e146105ab57806347535d7b146105b957600080fd5b80631e4e0091116103a957806327f6ad991161037857806327f6ad99146105455780632b8093bd1461054d5780632c4e722e146105605780632f2ff15d1461056a57806336568abe1461057d57600080fd5b80631e4e0091146104dd5780631f0b10c5146104f2578063248a9ca31461051857806326a215751461053b57600080fd5b80631515bc2b116103e55780631515bc2b1461048d578063164500921461049857806316f0115b146104a257806319f06e33146104ce57600080fd5b806301ffc9a7146104175780630324be711461043f578063072c92d5146104775780630776298214610485575b600080fd5b61042a610425366004612b2a565b61089c565b60405190151581526020015b60405180910390f35b61046961044d366004612b69565b6001600160a01b03166000908152610169602052604090205490565b604051908152602001610436565b6101945461042a9060ff1681565b6104696108c7565b61019354421161042a565b6104696101675481565b610160546104b6906001600160a01b031681565b6040516001600160a01b039091168152602001610436565b6101675461016554101561042a565b6104f06104eb366004612b86565b6108e0565b005b61022b546105039063ffffffff1681565b60405163ffffffff9091168152602001610436565b610469610526366004612ba8565b600090815260c9602052604090206001015490565b6104696101665481565b610469603c81565b6104f061055b366004612bcf565b6108fa565b6104696101635481565b6104f0610578366004612c08565b610b0c565b6104f061058b366004612c08565b610b31565b6104f0610baf565b6104f06105a6366004612ba8565b610bc5565b6101645461042a9060ff1681565b61042a610c6f565b6104696101685481565b6104696101935481565b610469610c9e565b60335460ff1661042a565b610469610d32565b6104f06105fe366004612ba8565b610d64565b6104f0610611366004612ba8565b610e7a565b610469610eed565b6104f061062c366004612c2d565b610ef8565b61016754610165541461042a565b61015f546104b6906001600160a01b031681565b6104696102295481565b61042a61066b366004612ba8565b610f70565b6104f0610f8d565b6104b6610686366004612b86565b610fa0565b61042a610699366004612c08565b610fbf565b6104f06106ac366004612b86565b610fea565b61046961271081565b61016554610469565b610164546106dd90610100900467ffffffffffffffff1681565b60405167ffffffffffffffff9091168152602001610436565b610469600081565b6104f061070c366004612ba8565b611177565b61046961016d81565b6104f0610728366004612ba8565b611265565b60005460ff16610469565b6101c45460ff1661042a565b61042a611383565b6104696101925481565b61046961139d565b61046961076c366004612ba8565b6113b1565b61046961077f366004612ba8565b61145c565b6104f0610792366004612c4a565b611473565b6102285461042a9060ff1681565b6104f06107b3366004612c08565b61150a565b6104f06107c6366004612ba8565b61152f565b6104696107d9366004612c7c565b6115d3565b6104696107ec366004612b69565b6101696020526000908152604090205481565b6104f061080d366004612ba8565b6115e8565b61046960008051602061312d83398151915281565b61022954610469565b610162546104b6906001600160a01b031681565b6102285460ff1661042a565b6104f061085e366004612c2d565b61165e565b610161546104b6906001600160a01b031681565b61046961022a5481565b6104f061088f366004612cbd565b61170b565b61046961184c565b60006001600160e01b03198216635a05180f60e01b14806108c157506108c18261186f565b92915050565b6108d2603c80612d44565b6108dd906018612d44565b81565b60006108eb816118a4565b6108f583836118ae565b505050565b6109026118f9565b610160546001600160a01b0316336001600160a01b0316148061092457503330145b6109935760405162461bcd60e51b815260206004820152603560248201527f46696e616c697a61626c6543726f776473616c653a204f6e6c7920706f6f6c20604482015274636f6e74726163742063616e2066696e616c697a6560581b60648201526084015b60405180910390fd5b6101c45460ff16156109f75760405162461bcd60e51b815260206004820152602760248201527f46696e616c697a61626c6543726f776473616c653a20616c72656164792066696044820152661b985b1a5e995960ca1b606482015260840161098a565b61019354421180610a0e5750610167546101655410155b610a5a5760405162461bcd60e51b815260206004820181905260248201527f46696e616c697a61626c6543726f776473616c653a206e6f7420636c6f736564604482015260640161098a565b6101c4805460ff19166001179055610a7761016754610165541490565b158015610a8857506102285460ff16155b15610abc576000610a9a61076c61139d565b90508215610ab157610aac8282611941565b610aba565b610aba8161194b565b505b610adf6102295461022b805463ffffffff191663ffffffff909216919091179055565b6040517f9270cc390c096600a1c17c44345a1ba689fafd99d97487b10cfccf86cf73183690600090a15050565b600082815260c96020526040902060010154610b27816118a4565b6108f583836119ad565b6001600160a01b0381163314610ba15760405162461bcd60e51b815260206004820152602f60248201527f416363657373436f6e74726f6c3a2063616e206f6e6c792072656e6f756e636560448201526e103937b632b9903337b91039b2b63360891b606482015260840161098a565b610bab82826119cf565b5050565b6000610bba816118a4565b610bc26119f1565b50565b610bcd6118f9565b610be560008051602061312d83398151915233610fbf565b80610c16575061015f54610c01906001600160a01b0316611a43565b6001600160a01b0316336001600160a01b0316145b610c325760405162461bcd60e51b815260040161098a90612d5b565b6101688190556040518181527f2bc4b9fa5449471c716310263f78104dee5bcb66018bcdb48fd1f61f5de81a1b906020015b60405180910390a150565b6101945460009060ff16610c835750600190565b610192544210158015610c995750610193544211155b905090565b61015f54600090610cb7906001600160a01b0316611a50565b6101605461016154604051637f26468d60e01b81526001600160a01b0392831660048201529082166024820152911690637f26468d906044015b602060405180830381865afa158015610d0e573d6000803e3d6000fd5b505050506040513d601f19601f82011682018060405250810190610c999190612da5565b610161546040516370a0823160e01b81523060048201526000916001600160a01b0316906370a0823190602401610cf1565b610d6c611a5d565b610d746118f9565b610d8c60008051602061312d83398151915233610fbf565b80610dbd575061015f54610da8906001600160a01b0316611a43565b6001600160a01b0316336001600160a01b0316145b610dd95760405162461bcd60e51b815260040161098a90612d5b565b60008111610e295760405162461bcd60e51b815260206004820152601960248201527f43726f776473616c653a20746f74616c20636170206973203000000000000000604482015260640161098a565b61016754610e379082612dbe565b6101678190556040519081527f04b847fea6b95515f8ef8fa76a5e06d1dc35b0c6dbf10ced7acd9d5d93808f8d9060200160405180910390a1610bc26001606555565b610e826118f9565b610e9a60008051602061312d83398151915233610fbf565b80610ecb575061015f54610eb6906001600160a01b0316611a43565b6001600160a01b0316336001600160a01b0316145b610ee75760405162461bcd60e51b815260040161098a90612dd1565b61022955565b6108dd603c80612d44565b610f006118f9565b610f08611a5d565b60008051602061312d833981519152610f20816118a4565b610194805460ff19168315159081179091556040519081527fdb833fed315c7b32553a5adaa056b4b0112312be8e73417d7d730aa3768638f59060200160405180910390a150610bc26001606555565b6000610167548261016554610f859190612dbe565b111592915050565b6000610f98816118a4565b610bc2611ab6565b600082815260fb60205260408120610fb89083611af3565b9392505050565b600091825260c9602090815260408084206001600160a01b0393909316845291905290205460ff1690565b610ff26118f9565b61100a60008051602061312d83398151915233610fbf565b8061103b575061015f54611026906001600160a01b0316611a43565b6001600160a01b0316336001600160a01b0316145b6110975760405162461bcd60e51b815260206004820152602760248201527f43726f776473616c653a2043616c6c6572206d757374206265206f776e6572206044820152661bdc881c1bdbdb60ca1b606482015260840161098a565b8181101561110d5760405162461bcd60e51b815260206004820152603760248201527f54696d656443726f776473616c653a206f70656e696e672074696d652069732060448201527f6e6f74206265666f726520636c6f73696e672074696d65000000000000000000606482015260840161098a565b42821015611119574291505b81811161112e5761112b826001612dbe565b90505b61019282905561019381905560408051838152602081018390527f8b177454854d2b8a1238cecb64910b1bcf2ad0449c4567c725f750b6712e5dd0910160405180910390a15050565b61117f6118f9565b611187611a5d565b60008051602061312d83398151915261119f816118a4565b6101935482116112175760405162461bcd60e51b815260206004820152603f60248201527f54696d656443726f776473616c653a206e657720636c6f73696e672074696d6560448201527f206973206265666f72652063757272656e7420636c6f73696e672074696d6500606482015260840161098a565b6101935460408051918252602082018490527f46711e222f558a07afd26e5e71b48ecb0a8b2cdcd40faeb1323e05e2c76a2f32910160405180910390a150610193819055610bc26001606555565b61126d6118f9565b61128560008051602061312d83398151915233610fbf565b806112b6575061015f546112a1906001600160a01b0316611a43565b6001600160a01b0316336001600160a01b0316145b6112d25760405162461bcd60e51b815260040161098a90612dd1565b6101675461022a541061134d5760405162461bcd60e51b815260206004820152603f60248201527f4d696e7465644e6f726d616c5447453a20496e697469616c204a4f5420616d6f60448201527f756e74206d757374206265206c657373207468616e20746f74616c2063617000606482015260840161098a565b61022a8190556040518181527f0979af31fa6fa6db518b12df0be48bc7e2d3f09c3c3eead5718d62e988960fc990602001610c64565b6000610c9960008051602061312d83398151915233610fbf565b60006101655461016754610c999190612e21565b6000806113bc610c9e565b9050806000036113cf5750600092915050565b610161546040805163313ce56760e01b8152905183926001600160a01b03169163313ce5679160048083019260209291908290030181865afa158015611419573d6000803e3d6000fd5b505050506040513d601f19601f8201168201806040525081019061143d9190612e34565b61144890600a612f3b565b6114529085612d44565b610fb89190612f4a565b600081815260fb602052604081206108c190611aff565b61147b6118f9565b61149360008051602061312d83398151915233610fbf565b806114c4575061015f546114af906001600160a01b0316611a43565b6001600160a01b0316336001600160a01b0316145b6114e05760405162461bcd60e51b815260040161098a90612dd1565b6114e8611b09565b6114f182611b8b565b6114fb8484610fea565b61150481611be5565b50505050565b600082815260c96020526040902060010154611525816118a4565b6108f583836119cf565b61015f54611545906001600160a01b0316611cc5565b6001600160a01b0316336001600160a01b0316146115b85760405162461bcd60e51b815260206004820152602a60248201527f43726f776473616c653a2043616c6c6572206d757374206265204e6f746520746044820152691bdad95b881d985d5b1d60b21b606482015260840161098a565b8061016560008282546115cb9190612e21565b909155505050565b60006115e0848484611cd2565b949350505050565b6115f06118f9565b61160860008051602061312d83398151915233610fbf565b80611639575061015f54611624906001600160a01b0316611a43565b6001600160a01b0316336001600160a01b0316145b6116555760405162461bcd60e51b815260040161098a90612dd1565b610bc281611be5565b61167660008051602061312d83398151915233610fbf565b806116a7575061015f54611692906001600160a01b0316611a43565b6001600160a01b0316336001600160a01b0316145b6116c35760405162461bcd60e51b815260040161098a90612d5b565b610164805460ff191682151590811790915560405160ff909116151581527fab34f9b8831f3ca42a730d92c06cef6c44746cf5c9ec3f2d7b510645dcba885790602001610c64565b600054610100900460ff161580801561172b5750600054600160ff909116105b806117455750303b158015611745575060005460ff166001145b6117a85760405162461bcd60e51b815260206004820152602e60248201527f496e697469616c697a61626c653a20636f6e747261637420697320616c72656160448201526d191e481a5b9a5d1a585b1a5e995960921b606482015260840161098a565b6000805460ff1916600117905580156117cb576000805461ff0019166101001790555b6117d786868686611fe0565b610228805483151560ff1990911617905561022b805464ff0000000019166401000000001790558015611844576000805461ff0019169055604051600181527f7f26b83ff96e1f2b6a682f133852f6798a09c465da95921460cefb38474024989060200160405180910390a15b505050505050565b61016d61185a603c80612d44565b611865906018612d44565b6108dd9190612d44565b60006001600160e01b03198216637965db0b60e01b14806108c157506301ffc9a760e01b6001600160e01b03198316146108c1565b610bc28133612064565b600082815260c96020526040808220600101805490849055905190918391839186917fbd79b86ffe0ab8e8776151514217cd7cacd52c909f66475c3af44e129f0b00ff9190a4505050565b60335460ff161561193f5760405162461bcd60e51b815260206004820152601060248201526f14185d5cd8589b194e881c185d5cd95960821b604482015260640161098a565b565b610bab82826120bd565b61016154604051630852cd8d60e31b8152600481018390526001600160a01b03909116906342966c6890602401600060405180830381600087803b15801561199257600080fd5b505af11580156119a6573d6000803e3d6000fd5b5050505050565b6119b7828261228e565b600082815260fb602052604090206108f59082612314565b6119d98282612329565b600082815260fb602052604090206108f59082612390565b6119f96123a5565b6033805460ff191690557f5db9ee0a495bf2e6ff9c91a7834c1ba4fdd244a5e8aa4e537bd38aeae4b073aa335b6040516001600160a01b03909116815260200160405180910390a1565b60006108c18260006123ee565b60006108c18260046123ee565b600260655403611aaf5760405162461bcd60e51b815260206004820152601f60248201527f5265656e7472616e637947756172643a207265656e7472616e742063616c6c00604482015260640161098a565b6002606555565b611abe6118f9565b6033805460ff191660011790557f62e78cea01bee320cd4e420270b5ea74000d11b0c9f74754ebdbfc544b05a258611a263390565b6000610fb88383612473565b60006108c1825490565b61019354421180611b205750610167546101655410155b61193f5760405162461bcd60e51b815260206004820152603660248201527f4d696e746564496e6372656173696e67496e7465726573745447453a205072656044820152751d9a5bdd5cc81c9bdd5b99081b9bdd0818db1bdcd95960521b606482015260840161098a565b6101645460ff1615611bdf5760405162461bcd60e51b815260206004820152601e60248201527f43726f776473616c653a2053616c6520726f756e64206f766572666c6f770000604482015260640161098a565b61016355565b60008111611c2b5760405162461bcd60e51b8152602060048201526013602482015272043726f776473616c653a20636170206973203606c1b604482015260640161098a565b61016554811015611c8f5760405162461bcd60e51b815260206004820152602860248201527f43726f776473616c653a206361702069732062656c6c6f772063757272656e636044820152671e481c985a5cd95960c21b606482015260840161098a565b6101678190556040518181527f04b847fea6b95515f8ef8fa76a5e06d1dc35b0c6dbf10ced7acd9d5d93808f8d90602001610c64565b60006108c182600a6123ee565b6000611cdc6118f9565b611ce4611a5d565b61015f54611cfa906001600160a01b0316611a43565b6001600160a01b0316336001600160a01b031614611d735760405162461bcd60e51b815260206004820152603060248201527f43726f776473616c653a2043616c6c6572206d7573742062652073656375726960448201526f3a34bd30ba34b7b71036b0b730b3b2b960811b606482015260840161098a565b61016854821015611dd05760405162461bcd60e51b815260206004820152602160248201527f43726f776473616c653a204c657373207468616e206d696e426964416d6f756e6044820152601d60fa1b606482015260840161098a565b6000611ddb836113b1565b9050611de884848361249d565b826101656000828254611dfb9190612dbe565b90915550506001600160a01b0384166000908152610169602052604081208054859290611e29908490612dbe565b90915550506101605460408051636eb4458760e11b815290516001600160a01b0390921691829163dd688b0e9160048083019260209291908290030181865afa158015611e7a573d6000803e3d6000fd5b505050506040513d601f19601f82011682018060405250810190611e9e9190612f82565b611eea5760405162461bcd60e51b815260206004820152601f60248201527f43726f776473616c653a20457863656564732044656274204365696c696e6700604482015260640161098a565b816101666000828254611efd9190612dbe565b90915550611f0d905086856124a8565b611f178583611941565b60408051858152602081018490526001600160a01b0387169133917f6faf93231a456e552dbc9961f58d9713ee4f2e69d15f1975b050ef0911053a7b910160405180910390a361016054604080516325d11b1d60e11b81529051611fd3926001600160a01b031691634ba2363a9160048083019260209291908290030181865afa158015611fa9573d6000803e3d6000fd5b505050506040513d601f19601f82011682018060405250810190611fcd9190612f9f565b8561258b565b509050610fb86001606555565b600054610100900460ff166120075760405162461bcd60e51b815260040161098a90612fbc565b61201033612660565b61015f80546001600160a01b039586166001600160a01b0319918216179091556101608054948616948216949094179093556101618054928516928416929092179091556101628054919093169116179055565b61206e8282610fbf565b610bab5761207b816126d3565b6120868360206126e5565b60405160200161209792919061302b565b60408051601f198184030181529082905262461bcd60e51b825261098a916004016130a0565b610161546001600160a01b0316600060ff16816001600160a01b031662b7f6816040518163ffffffff1660e01b8152600401602060405180830381865afa15801561210c573d6000803e3d6000fd5b505050506040513d601f19601f820116820180604052508101906121309190612e34565b60ff1614801561219f5750806001600160a01b03166318160ddd6040518163ffffffff1660e01b8152600401602060405180830381865afa158015612179573d6000803e3d6000fd5b505050506040513d601f19601f8201168201806040525081019061219d9190612da5565b155b1561222757610164805468ffffffffffffffff0019166101004267ffffffffffffffff160217905561016054604080516301aab1fb60e21b815290516001600160a01b03909216916306aac7ec9160048082019260009290919082900301818387803b15801561220e57600080fd5b505af1158015612222573d6000803e3d6000fd5b505050505b6040516340c10f1960e01b81526001600160a01b038481166004830152602482018490528216906340c10f1990604401600060405180830381600087803b15801561227157600080fd5b505af1158015612285573d6000803e3d6000fd5b50505050505050565b6122988282610fbf565b610bab57600082815260c9602090815260408083206001600160a01b03851684529091529020805460ff191660011790556122d03390565b6001600160a01b0316816001600160a01b0316837f2f8788117e7eff1d82e926ec794901d17c78024a50270940304540a733656f0d60405160405180910390a45050565b6000610fb8836001600160a01b038416612881565b6123338282610fbf565b15610bab57600082815260c9602090815260408083206001600160a01b0385168085529252808320805460ff1916905551339285917ff6391f5c32d9c69d2a47ea670b442974b53935d1edc7fd64eb21e047a839171b9190a45050565b6000610fb8836001600160a01b0384166128d0565b60335460ff1661193f5760405162461bcd60e51b815260206004820152601460248201527314185d5cd8589b194e881b9bdd081c185d5cd95960621b604482015260640161098a565b6000826001600160a01b031663bcaa0c5583600a81111561241157612411612f6c565b6040516001600160e01b031960e084901b16815260ff9091166004820152602401602060405180830381865afa15801561244f573d6000803e3d6000fd5b505050506040513d601f19601f82011682018060405250810190610fb89190612f9f565b600082600001828154811061248a5761248a6130d3565b9060005260206000200154905092915050565b6108f58383836129c3565b610162546040516323b872dd60e01b81526001600160a01b03848116600483015230602483015260448201849052909116906323b872dd906064016020604051808303816000875af1158015612502573d6000803e3d6000fd5b505050506040513d601f19601f820116820180604052508101906125269190612f82565b610bab5760405162461bcd60e51b815260206004820152603060248201527f4661696c20746f207472616e736665722063757272656e63792066726f6d207060448201526f185e5959481d1bc818dbdb9d1c9858dd60821b606482015260840161098a565b6101625460405163a9059cbb60e01b81526001600160a01b038481166004830152602482018490529091169063a9059cbb906044016020604051808303816000875af11580156125df573d6000803e3d6000fd5b505050506040513d601f19601f820116820180604052508101906126039190612f82565b610bab5760405162461bcd60e51b815260206004820152602860248201527f4661696c20746f207472616e736665722063757272656e637920746f2042656e604482015267656669636961727960c01b606482015260840161098a565b600054610100900460ff166126875760405162461bcd60e51b815260040161098a90612fbc565b6001600160a01b0381166126985750335b6126a3600033612b20565b6126bb60008051602061312d83398151915282612b20565b610bc260008051602061312d833981519152806118ae565b60606108c16001600160a01b03831660145b606060006126f4836002612d44565b6126ff906002612dbe565b67ffffffffffffffff811115612717576127176130e9565b6040519080825280601f01601f191660200182016040528015612741576020820181803683370190505b509050600360fc1b8160008151811061275c5761275c6130d3565b60200101906001600160f81b031916908160001a905350600f60fb1b8160018151811061278b5761278b6130d3565b60200101906001600160f81b031916908160001a90535060006127af846002612d44565b6127ba906001612dbe565b90505b6001811115612832576f181899199a1a9b1b9c1cb0b131b232b360811b85600f16601081106127ee576127ee6130d3565b1a60f81b828281518110612804576128046130d3565b60200101906001600160f81b031916908160001a90535060049490941c9361282b816130ff565b90506127bd565b508315610fb85760405162461bcd60e51b815260206004820181905260248201527f537472696e67733a20686578206c656e67746820696e73756666696369656e74604482015260640161098a565b60008181526001830160205260408120546128c8575081546001818101845560008481526020808220909301849055845484825282860190935260409020919091556108c1565b5060006108c1565b600081815260018301602052604081205480156129b95760006128f4600183612e21565b855490915060009061290890600190612e21565b905081811461296d576000866000018281548110612928576129286130d3565b906000526020600020015490508087600001848154811061294b5761294b6130d3565b6000918252602080832090910192909255918252600188019052604090208390555b855486908061297e5761297e613116565b6001900381819060005260206000200160009055905585600101600086815260200190815260200160002060009055600193505050506108c1565b60009150506108c1565b6001600160a01b038316612a285760405162461bcd60e51b815260206004820152602660248201527f43726f776473616c653a2062656e6566696369617279206973207a65726f206160448201526564647265737360d01b606482015260840161098a565b80600003612a785760405162461bcd60e51b815260206004820152601c60248201527f43726f776473616c653a20746f6b656e20616d6f756e74206973203000000000604482015260640161098a565b6101645460ff16612acb5760405162461bcd60e51b815260206004820152601b60248201527f43726f776473616c653a2073616c65206e6f7420737461727465640000000000604482015260640161098a565b612ad482610f70565b6108f55760405162461bcd60e51b815260206004820152601760248201527f43726f776473616c653a20636170206578636565646564000000000000000000604482015260640161098a565b610bab82826119ad565b600060208284031215612b3c57600080fd5b81356001600160e01b031981168114610fb857600080fd5b6001600160a01b0381168114610bc257600080fd5b600060208284031215612b7b57600080fd5b8135610fb881612b54565b60008060408385031215612b9957600080fd5b50508035926020909101359150565b600060208284031215612bba57600080fd5b5035919050565b8015158114610bc257600080fd5b60008060408385031215612be257600080fd5b8235612bed81612bc1565b91506020830135612bfd81612b54565b809150509250929050565b60008060408385031215612c1b57600080fd5b823591506020830135612bfd81612b54565b600060208284031215612c3f57600080fd5b8135610fb881612bc1565b60008060008060808587031215612c6057600080fd5b5050823594602084013594506040840135936060013592509050565b600080600060608486031215612c9157600080fd5b8335612c9c81612b54565b92506020840135612cac81612b54565b929592945050506040919091013590565b600080600080600060a08688031215612cd557600080fd5b8535612ce081612b54565b94506020860135612cf081612b54565b93506040860135612d0081612b54565b92506060860135612d1081612b54565b91506080860135612d2081612bc1565b809150509295509295909350565b634e487b7160e01b600052601160045260246000fd5b80820281158282048414176108c1576108c1612d2e565b6020808252602a908201527f43726f776473616c653a2063616c6c6572206d757374206265206f776e65722060408201526937b91036b0b730b3b2b960b11b606082015260800190565b600060208284031215612db757600080fd5b5051919050565b808201808211156108c1576108c1612d2e565b60208082526030908201527f4d696e7465644e6f726d616c5447453a2043616c6c6572206d7573742062652060408201526f37bbb732b91037b91036b0b730b3b2b960811b606082015260800190565b818103818111156108c1576108c1612d2e565b600060208284031215612e4657600080fd5b815160ff81168114610fb857600080fd5b600181815b80851115612e92578160001904821115612e7857612e78612d2e565b80851615612e8557918102915b93841c9390800290612e5c565b509250929050565b600082612ea9575060016108c1565b81612eb6575060006108c1565b8160018114612ecc5760028114612ed657612ef2565b60019150506108c1565b60ff841115612ee757612ee7612d2e565b50506001821b6108c1565b5060208310610133831016604e8410600b8410161715612f15575081810a6108c1565b612f1f8383612e57565b8060001904821115612f3357612f33612d2e565b029392505050565b6000610fb860ff841683612e9a565b600082612f6757634e487b7160e01b600052601260045260246000fd5b500490565b634e487b7160e01b600052602160045260246000fd5b600060208284031215612f9457600080fd5b8151610fb881612bc1565b600060208284031215612fb157600080fd5b8151610fb881612b54565b6020808252602b908201527f496e697469616c697a61626c653a20636f6e7472616374206973206e6f74206960408201526a6e697469616c697a696e6760a81b606082015260800190565b60005b8381101561302257818101518382015260200161300a565b50506000910152565b7f416363657373436f6e74726f6c3a206163636f756e7420000000000000000000815260008351613063816017850160208801613007565b7001034b99036b4b9b9b4b733903937b6329607d1b6017918401918201528351613094816028840160208801613007565b01602801949350505050565b60208152600082518060208401526130bf816040850160208701613007565b601f01601f19169190910160400192915050565b634e487b7160e01b600052603260045260246000fd5b634e487b7160e01b600052604160045260246000fd5b60008161310e5761310e612d2e565b506000190190565b634e487b7160e01b600052603160045260246000fdfeb19546dff01e856fb3f010c267a7b1c60363cf8a4664e21cc89c26224620214ea2646970667358221220e894195a9c6d4d145664078c2e3c997368151fbc4f3f7b9f7a7e1d40e487a83e64736f6c63430008130033",
  "devdoc": {
    "author": "Untangled Team",
    "details": "Note sale for JOT",
    "events": {
      "Initialized(uint8)": {
        "details": "Triggered when the contract has been initialized or reinitialized."
      },
      "Paused(address)": {
        "details": "Emitted when the pause is triggered by `account`."
      },
      "RoleAdminChanged(bytes32,bytes32,bytes32)": {
        "details": "Emitted when `newAdminRole` is set as ``role``'s admin role, replacing `previousAdminRole` `DEFAULT_ADMIN_ROLE` is the starting admin for all roles, despite {RoleAdminChanged} not being emitted signaling this. _Available since v3.1._"
      },
      "RoleGranted(bytes32,address,address)": {
        "details": "Emitted when `account` is granted `role`. `sender` is the account that originated the contract call, an admin role bearer except when using {AccessControl-_setupRole}."
      },
      "RoleRevoked(bytes32,address,address)": {
        "details": "Emitted when `account` is revoked `role`. `sender` is the account that originated the contract call:   - if using `revokeRole`, it is the admin role bearer   - if using `renounceRole`, it is the role bearer (i.e. `account`)"
      },
      "Unpaused(address)": {
        "details": "Emitted when the pause is lifted by `account`."
      }
    },
    "kind": "dev",
    "methods": {
      "finalize(bool,address)": {
        "details": "Validates that the crowdsale has not already been finalized and that it has either closed or reached the total cap",
        "params": {
          "claimRemainToken": "claim remaining token or not",
          "remainTokenRecipient": "Wallet will receive remaining token"
        }
      },
      "getRoleAdmin(bytes32)": {
        "details": "Returns the admin role that controls `role`. See {grantRole} and {revokeRole}. To change a role's admin, use {_setRoleAdmin}."
      },
      "getRoleMember(bytes32,uint256)": {
        "details": "Returns one of the accounts that have `role`. `index` must be a value between 0 and {getRoleMemberCount}, non-inclusive. Role bearers are not sorted in any particular way, and their ordering may change at any point. WARNING: When using {getRoleMember} and {getRoleMemberCount}, make sure you perform all queries on the same block. See the following https://forum.openzeppelin.com/t/iterating-over-elements-on-enumerableset-in-openzeppelin-contracts/2296[forum post] for more information."
      },
      "getRoleMemberCount(bytes32)": {
        "details": "Returns the number of accounts that have `role`. Can be used together with {getRoleMember} to enumerate all bearers of a role."
      },
      "getTokenAmount(uint256)": {
        "details": "This is an abstract function that needs to be implemented in derived contracts"
      },
      "grantRole(bytes32,address)": {
        "details": "Grants `role` to `account`. If `account` had not been already granted `role`, emits a {RoleGranted} event. Requirements: - the caller must have ``role``'s admin role. May emit a {RoleGranted} event."
      },
      "hasRole(bytes32,address)": {
        "details": "Returns `true` if `account` has been granted `role`."
      },
      "isLongSale()": {
        "details": "This is an abstract function that needs to be implemented in derived contracts"
      },
      "onRedeem(uint256)": {
        "params": {
          "currencyAmount": "amount of currency investor want to redeem"
        }
      },
      "paused()": {
        "details": "Returns true if the contract is paused, and false otherwise."
      },
      "renounceRole(bytes32,address)": {
        "details": "Revokes `role` from the calling account. Roles are often managed via {grantRole} and {revokeRole}: this function's purpose is to provide a mechanism for accounts to lose their privileges if they are compromised (such as when a trusted device is misplaced). If the calling account had been revoked `role`, emits a {RoleRevoked} event. Requirements: - the caller must be `account`. May emit a {RoleRevoked} event."
      },
      "revokeRole(bytes32,address)": {
        "details": "Revokes `role` from `account`. If `account` had been granted `role`, emits a {RoleRevoked} event. Requirements: - the caller must have ``role``'s admin role. May emit a {RoleRevoked} event."
      },
      "setInitialAmount(uint256)": {
        "params": {
          "_initialAmount": "Expected minimum amount of JOT before SOT start"
        }
      },
      "setMinBidAmount(uint256)": {
        "params": {
          "_minBidAmount": "Expected minimum amount"
        }
      },
      "setUsingTimeLimit(bool)": {
        "details": "Sets the isEnableTimeLimit variable to the specified value"
      },
      "startNewRoundSale(uint256,uint256,uint256,uint256)": {
        "params": {
          "cap_": "Target amount of raised currency",
          "closingTime_": "Define when the sale should end",
          "openingTime_": "Define when the sale should start"
        }
      },
      "supportsInterface(bytes4)": {
        "details": "See {IERC165-supportsInterface}."
      }
    },
    "title": "MintedNormalTGE",
    "version": 1
  },
  "userdoc": {
    "kind": "user",
    "methods": {
      "addFunding(uint256)": {
        "notice": "add funding amount to be added to the total cap"
      },
      "extendTime(uint256)": {
        "notice": "Updates the closing time with the new closing time"
      },
      "getCurrencyRemainAmount()": {
        "notice": "Calculates the remaining amount of currency available for purchase"
      },
      "getTokenAmount(uint256)": {
        "notice": "Calculates the corresponding token amount based on the currency amount and the current rate"
      },
      "getTokenRemainAmount()": {
        "notice": "Retrieves the remaining token balance held by the crowdsale contract"
      },
      "isDistributedFully()": {
        "notice": "Check if the total amount of currency raised is equal to the total cap"
      },
      "isLongSale()": {
        "notice": "Determines whether the current sale round is a long sale"
      },
      "isUnderTotalCap(uint256)": {
        "notice": "Checks if the sum of the current currency raised and the specified currency amount is less than or equal to the total cap"
      },
      "newSaleRoundTime(uint256,uint256)": {
        "notice": "Updates the opening time and closing time accordingly"
      },
      "onRedeem(uint256)": {
        "notice": "Catch event redeem token"
      },
      "setHasStarted(bool)": {
        "notice": "Set hasStarted variable"
      },
      "setInitialAmount(uint256)": {
        "notice": "Setup initial amount currency raised for JOT condition"
      },
      "setMinBidAmount(uint256)": {
        "notice": "Setup minimum bid amount in currency for note token"
      },
      "startNewRoundSale(uint256,uint256,uint256,uint256)": {
        "notice": "Setup a new round sale for note token"
      },
      "totalCapReached()": {
        "notice": "Checks if the total amount of currency raised is greater than or equal to the total cap"
      }
    },
    "version": 1
  },
  "storageLayout": {
    "storage": [
      {
        "astId": 765,
        "contract": "contracts/protocol/note-sale/MintedNormalTGE.sol:MintedNormalTGE",
        "label": "_initialized",
        "offset": 0,
        "slot": "0",
        "type": "t_uint8"
      },
      {
        "astId": 768,
        "contract": "contracts/protocol/note-sale/MintedNormalTGE.sol:MintedNormalTGE",
        "label": "_initializing",
        "offset": 1,
        "slot": "0",
        "type": "t_bool"
      },
      {
        "astId": 4282,
        "contract": "contracts/protocol/note-sale/MintedNormalTGE.sol:MintedNormalTGE",
        "label": "__gap",
        "offset": 0,
        "slot": "1",
        "type": "t_array(t_uint256)50_storage"
      },
      {
        "astId": 948,
        "contract": "contracts/protocol/note-sale/MintedNormalTGE.sol:MintedNormalTGE",
        "label": "_paused",
        "offset": 0,
        "slot": "51",
        "type": "t_bool"
      },
      {
        "astId": 1053,
        "contract": "contracts/protocol/note-sale/MintedNormalTGE.sol:MintedNormalTGE",
        "label": "__gap",
        "offset": 0,
        "slot": "52",
        "type": "t_array(t_uint256)49_storage"
      },
      {
        "astId": 1068,
        "contract": "contracts/protocol/note-sale/MintedNormalTGE.sol:MintedNormalTGE",
        "label": "_status",
        "offset": 0,
        "slot": "101",
        "type": "t_uint256"
      },
      {
        "astId": 1137,
        "contract": "contracts/protocol/note-sale/MintedNormalTGE.sol:MintedNormalTGE",
        "label": "__gap",
        "offset": 0,
        "slot": "102",
        "type": "t_array(t_uint256)49_storage"
      },
      {
        "astId": 5572,
        "contract": "contracts/protocol/note-sale/MintedNormalTGE.sol:MintedNormalTGE",
        "label": "__gap",
        "offset": 0,
        "slot": "151",
        "type": "t_array(t_uint256)50_storage"
      },
      {
        "astId": 184,
        "contract": "contracts/protocol/note-sale/MintedNormalTGE.sol:MintedNormalTGE",
        "label": "_roles",
        "offset": 0,
        "slot": "201",
        "type": "t_mapping(t_bytes32,t_struct(RoleData)179_storage)"
      },
      {
        "astId": 479,
        "contract": "contracts/protocol/note-sale/MintedNormalTGE.sol:MintedNormalTGE",
        "label": "__gap",
        "offset": 0,
        "slot": "202",
        "type": "t_array(t_uint256)49_storage"
      },
      {
        "astId": 33,
        "contract": "contracts/protocol/note-sale/MintedNormalTGE.sol:MintedNormalTGE",
        "label": "_roleMembers",
        "offset": 0,
        "slot": "251",
        "type": "t_mapping(t_bytes32,t_struct(AddressSet)6882_storage)"
      },
      {
        "astId": 143,
        "contract": "contracts/protocol/note-sale/MintedNormalTGE.sol:MintedNormalTGE",
        "label": "__gap",
        "offset": 0,
        "slot": "252",
        "type": "t_array(t_uint256)49_storage"
      },
      {
        "astId": 10866,
        "contract": "contracts/protocol/note-sale/MintedNormalTGE.sol:MintedNormalTGE",
        "label": "__gap",
        "offset": 0,
        "slot": "301",
        "type": "t_array(t_uint256)50_storage"
      },
      {
        "astId": 14366,
        "contract": "contracts/protocol/note-sale/MintedNormalTGE.sol:MintedNormalTGE",
        "label": "registry",
        "offset": 0,
        "slot": "351",
        "type": "t_contract(Registry)31369"
      },
      {
        "astId": 14375,
        "contract": "contracts/protocol/note-sale/MintedNormalTGE.sol:MintedNormalTGE",
        "label": "pool",
        "offset": 0,
        "slot": "352",
        "type": "t_address"
      },
      {
        "astId": 14379,
        "contract": "contracts/protocol/note-sale/MintedNormalTGE.sol:MintedNormalTGE",
        "label": "token",
        "offset": 0,
        "slot": "353",
        "type": "t_address"
      },
      {
        "astId": 14382,
        "contract": "contracts/protocol/note-sale/MintedNormalTGE.sol:MintedNormalTGE",
        "label": "currency",
        "offset": 0,
        "slot": "354",
        "type": "t_address"
      },
      {
        "astId": 14384,
        "contract": "contracts/protocol/note-sale/MintedNormalTGE.sol:MintedNormalTGE",
        "label": "rate",
        "offset": 0,
        "slot": "355",
        "type": "t_uint256"
      },
      {
        "astId": 14386,
        "contract": "contracts/protocol/note-sale/MintedNormalTGE.sol:MintedNormalTGE",
        "label": "hasStarted",
        "offset": 0,
        "slot": "356",
        "type": "t_bool"
      },
      {
        "astId": 14388,
        "contract": "contracts/protocol/note-sale/MintedNormalTGE.sol:MintedNormalTGE",
        "label": "firstNoteTokenMintedTimestamp",
        "offset": 1,
        "slot": "356",
        "type": "t_uint64"
      },
      {
        "astId": 14391,
        "contract": "contracts/protocol/note-sale/MintedNormalTGE.sol:MintedNormalTGE",
        "label": "_currencyRaised",
        "offset": 0,
        "slot": "357",
        "type": "t_uint256"
      },
      {
        "astId": 14394,
        "contract": "contracts/protocol/note-sale/MintedNormalTGE.sol:MintedNormalTGE",
        "label": "tokenRaised",
        "offset": 0,
        "slot": "358",
        "type": "t_uint256"
      },
      {
        "astId": 14397,
        "contract": "contracts/protocol/note-sale/MintedNormalTGE.sol:MintedNormalTGE",
        "label": "totalCap",
        "offset": 0,
        "slot": "359",
        "type": "t_uint256"
      },
      {
        "astId": 14400,
        "contract": "contracts/protocol/note-sale/MintedNormalTGE.sol:MintedNormalTGE",
        "label": "minBidAmount",
        "offset": 0,
        "slot": "360",
        "type": "t_uint256"
      },
      {
        "astId": 14404,
        "contract": "contracts/protocol/note-sale/MintedNormalTGE.sol:MintedNormalTGE",
        "label": "_currencyRaisedByInvestor",
        "offset": 0,
        "slot": "361",
        "type": "t_mapping(t_address,t_uint256)"
      },
      {
        "astId": 15049,
        "contract": "contracts/protocol/note-sale/MintedNormalTGE.sol:MintedNormalTGE",
        "label": "__gap",
        "offset": 0,
        "slot": "362",
        "type": "t_array(t_uint256)40_storage"
      },
      {
        "astId": 15457,
        "contract": "contracts/protocol/note-sale/MintedNormalTGE.sol:MintedNormalTGE",
        "label": "openingTime",
        "offset": 0,
        "slot": "402",
        "type": "t_uint256"
      },
      {
        "astId": 15459,
        "contract": "contracts/protocol/note-sale/MintedNormalTGE.sol:MintedNormalTGE",
        "label": "closingTime",
        "offset": 0,
        "slot": "403",
        "type": "t_uint256"
      },
      {
        "astId": 15461,
        "contract": "contracts/protocol/note-sale/MintedNormalTGE.sol:MintedNormalTGE",
        "label": "isEnableTimeLimit",
        "offset": 0,
        "slot": "404",
        "type": "t_bool"
      },
      {
        "astId": 15677,
        "contract": "contracts/protocol/note-sale/MintedNormalTGE.sol:MintedNormalTGE",
        "label": "__gap",
        "offset": 0,
        "slot": "405",
        "type": "t_array(t_uint256)47_storage"
      },
      {
        "astId": 15061,
        "contract": "contracts/protocol/note-sale/MintedNormalTGE.sol:MintedNormalTGE",
        "label": "_finalized",
        "offset": 0,
        "slot": "452",
        "type": "t_bool"
      },
      {
        "astId": 15165,
        "contract": "contracts/protocol/note-sale/MintedNormalTGE.sol:MintedNormalTGE",
        "label": "__gap",
        "offset": 0,
        "slot": "453",
        "type": "t_array(t_uint256)49_storage"
      },
      {
        "astId": 14331,
        "contract": "contracts/protocol/note-sale/MintedNormalTGE.sol:MintedNormalTGE",
        "label": "__gap",
        "offset": 0,
        "slot": "502",
        "type": "t_array(t_uint256)50_storage"
      },
      {
        "astId": 13960,
        "contract": "contracts/protocol/note-sale/MintedNormalTGE.sol:MintedNormalTGE",
        "label": "longSale",
        "offset": 0,
        "slot": "552",
        "type": "t_bool"
      },
      {
        "astId": 13962,
        "contract": "contracts/protocol/note-sale/MintedNormalTGE.sol:MintedNormalTGE",
        "label": "interestRate",
        "offset": 0,
        "slot": "553",
        "type": "t_uint256"
      },
      {
        "astId": 13964,
        "contract": "contracts/protocol/note-sale/MintedNormalTGE.sol:MintedNormalTGE",
        "label": "initialAmount",
        "offset": 0,
        "slot": "554",
        "type": "t_uint256"
      },
      {
        "astId": 13966,
        "contract": "contracts/protocol/note-sale/MintedNormalTGE.sol:MintedNormalTGE",
        "label": "pickedInterest",
        "offset": 0,
        "slot": "555",
        "type": "t_uint32"
      },
      {
        "astId": 13968,
        "contract": "contracts/protocol/note-sale/MintedNormalTGE.sol:MintedNormalTGE",
        "label": "saleType",
        "offset": 4,
        "slot": "555",
        "type": "t_uint8"
      },
      {
        "astId": 14284,
        "contract": "contracts/protocol/note-sale/MintedNormalTGE.sol:MintedNormalTGE",
        "label": "__gap",
        "offset": 0,
        "slot": "556",
        "type": "t_array(t_uint256)45_storage"
      }
    ],
    "types": {
      "t_address": {
        "encoding": "inplace",
        "label": "address",
        "numberOfBytes": "20"
      },
      "t_array(t_bytes32)dyn_storage": {
        "base": "t_bytes32",
        "encoding": "dynamic_array",
        "label": "bytes32[]",
        "numberOfBytes": "32"
      },
      "t_array(t_uint256)40_storage": {
        "base": "t_uint256",
        "encoding": "inplace",
        "label": "uint256[40]",
        "numberOfBytes": "1280"
      },
      "t_array(t_uint256)45_storage": {
        "base": "t_uint256",
        "encoding": "inplace",
        "label": "uint256[45]",
        "numberOfBytes": "1440"
      },
      "t_array(t_uint256)47_storage": {
        "base": "t_uint256",
        "encoding": "inplace",
        "label": "uint256[47]",
        "numberOfBytes": "1504"
      },
      "t_array(t_uint256)49_storage": {
        "base": "t_uint256",
        "encoding": "inplace",
        "label": "uint256[49]",
        "numberOfBytes": "1568"
      },
      "t_array(t_uint256)50_storage": {
        "base": "t_uint256",
        "encoding": "inplace",
        "label": "uint256[50]",
        "numberOfBytes": "1600"
      },
      "t_bool": {
        "encoding": "inplace",
        "label": "bool",
        "numberOfBytes": "1"
      },
      "t_bytes32": {
        "encoding": "inplace",
        "label": "bytes32",
        "numberOfBytes": "32"
      },
      "t_contract(Registry)31369": {
        "encoding": "inplace",
        "label": "contract Registry",
        "numberOfBytes": "20"
      },
      "t_mapping(t_address,t_bool)": {
        "encoding": "mapping",
        "key": "t_address",
        "label": "mapping(address => bool)",
        "numberOfBytes": "32",
        "value": "t_bool"
      },
      "t_mapping(t_address,t_uint256)": {
        "encoding": "mapping",
        "key": "t_address",
        "label": "mapping(address => uint256)",
        "numberOfBytes": "32",
        "value": "t_uint256"
      },
      "t_mapping(t_bytes32,t_struct(AddressSet)6882_storage)": {
        "encoding": "mapping",
        "key": "t_bytes32",
        "label": "mapping(bytes32 => struct EnumerableSetUpgradeable.AddressSet)",
        "numberOfBytes": "32",
        "value": "t_struct(AddressSet)6882_storage"
      },
      "t_mapping(t_bytes32,t_struct(RoleData)179_storage)": {
        "encoding": "mapping",
        "key": "t_bytes32",
        "label": "mapping(bytes32 => struct AccessControlUpgradeable.RoleData)",
        "numberOfBytes": "32",
        "value": "t_struct(RoleData)179_storage"
      },
      "t_mapping(t_bytes32,t_uint256)": {
        "encoding": "mapping",
        "key": "t_bytes32",
        "label": "mapping(bytes32 => uint256)",
        "numberOfBytes": "32",
        "value": "t_uint256"
      },
      "t_struct(AddressSet)6882_storage": {
        "encoding": "inplace",
        "label": "struct EnumerableSetUpgradeable.AddressSet",
        "members": [
          {
            "astId": 6881,
            "contract": "contracts/protocol/note-sale/MintedNormalTGE.sol:MintedNormalTGE",
            "label": "_inner",
            "offset": 0,
            "slot": "0",
            "type": "t_struct(Set)6567_storage"
          }
        ],
        "numberOfBytes": "64"
      },
      "t_struct(RoleData)179_storage": {
        "encoding": "inplace",
        "label": "struct AccessControlUpgradeable.RoleData",
        "members": [
          {
            "astId": 176,
            "contract": "contracts/protocol/note-sale/MintedNormalTGE.sol:MintedNormalTGE",
            "label": "members",
            "offset": 0,
            "slot": "0",
            "type": "t_mapping(t_address,t_bool)"
          },
          {
            "astId": 178,
            "contract": "contracts/protocol/note-sale/MintedNormalTGE.sol:MintedNormalTGE",
            "label": "adminRole",
            "offset": 0,
            "slot": "1",
            "type": "t_bytes32"
          }
        ],
        "numberOfBytes": "64"
      },
      "t_struct(Set)6567_storage": {
        "encoding": "inplace",
        "label": "struct EnumerableSetUpgradeable.Set",
        "members": [
          {
            "astId": 6562,
            "contract": "contracts/protocol/note-sale/MintedNormalTGE.sol:MintedNormalTGE",
            "label": "_values",
            "offset": 0,
            "slot": "0",
            "type": "t_array(t_bytes32)dyn_storage"
          },
          {
            "astId": 6566,
            "contract": "contracts/protocol/note-sale/MintedNormalTGE.sol:MintedNormalTGE",
            "label": "_indexes",
            "offset": 0,
            "slot": "1",
            "type": "t_mapping(t_bytes32,t_uint256)"
          }
        ],
        "numberOfBytes": "64"
      },
      "t_uint256": {
        "encoding": "inplace",
        "label": "uint256",
        "numberOfBytes": "32"
      },
      "t_uint32": {
        "encoding": "inplace",
        "label": "uint32",
        "numberOfBytes": "4"
      },
      "t_uint64": {
        "encoding": "inplace",
        "label": "uint64",
        "numberOfBytes": "8"
      },
      "t_uint8": {
        "encoding": "inplace",
        "label": "uint8",
        "numberOfBytes": "1"
      }
    }
  }
}