{
  "address": "0xC7a7730634c32172F0F576B77b2F7290115A91Fb",
  "abi": [
    {
      "anonymous": false,
      "inputs": [],
      "name": "CrowdsaleFinalized",
      "type": "event"
    },
    {
      "anonymous": false,
      "inputs": [
        {
          "indexed": false,
          "internalType": "uint8",
          "name": "version",
          "type": "uint8"
        }
      ],
      "name": "Initialized",
      "type": "event"
    },
    {
      "anonymous": false,
      "inputs": [
        {
          "indexed": false,
          "internalType": "address",
          "name": "account",
          "type": "address"
        }
      ],
      "name": "Paused",
      "type": "event"
    },
    {
      "anonymous": false,
      "inputs": [
        {
          "indexed": true,
          "internalType": "bytes32",
          "name": "role",
          "type": "bytes32"
        },
        {
          "indexed": true,
          "internalType": "bytes32",
          "name": "previousAdminRole",
          "type": "bytes32"
        },
        {
          "indexed": true,
          "internalType": "bytes32",
          "name": "newAdminRole",
          "type": "bytes32"
        }
      ],
      "name": "RoleAdminChanged",
      "type": "event"
    },
    {
      "anonymous": false,
      "inputs": [
        {
          "indexed": true,
          "internalType": "bytes32",
          "name": "role",
          "type": "bytes32"
        },
        {
          "indexed": true,
          "internalType": "address",
          "name": "account",
          "type": "address"
        },
        {
          "indexed": true,
          "internalType": "address",
          "name": "sender",
          "type": "address"
        }
      ],
      "name": "RoleGranted",
      "type": "event"
    },
    {
      "anonymous": false,
      "inputs": [
        {
          "indexed": true,
          "internalType": "bytes32",
          "name": "role",
          "type": "bytes32"
        },
        {
          "indexed": true,
          "internalType": "address",
          "name": "account",
          "type": "address"
        },
        {
          "indexed": true,
          "internalType": "address",
          "name": "sender",
          "type": "address"
        }
      ],
      "name": "RoleRevoked",
      "type": "event"
    },
    {
      "anonymous": false,
      "inputs": [
        {
          "indexed": false,
          "internalType": "bool",
          "name": "hasStarted",
          "type": "bool"
        }
      ],
      "name": "SetHasStarted",
      "type": "event"
    },
    {
      "anonymous": false,
      "inputs": [
        {
          "indexed": false,
          "internalType": "uint256",
          "name": "interestRate",
          "type": "uint256"
        },
        {
          "indexed": false,
          "internalType": "uint256",
          "name": "termLengthInSeconds",
          "type": "uint256"
        },
        {
          "indexed": false,
          "internalType": "uint256",
          "name": "timeStartEarningInterest",
          "type": "uint256"
        }
      ],
      "name": "SetupLongSale",
      "type": "event"
    },
    {
      "anonymous": false,
      "inputs": [
        {
          "indexed": false,
          "internalType": "uint256",
          "name": "prevClosingTime",
          "type": "uint256"
        },
        {
          "indexed": false,
          "internalType": "uint256",
          "name": "newClosingTime",
          "type": "uint256"
        }
      ],
      "name": "TimedCrowdsaleExtended",
      "type": "event"
    },
    {
      "anonymous": false,
      "inputs": [
        {
          "indexed": true,
          "internalType": "address",
          "name": "purchaser",
          "type": "address"
        },
        {
          "indexed": true,
          "internalType": "address",
          "name": "beneficiary",
          "type": "address"
        },
        {
          "indexed": false,
          "internalType": "uint256",
          "name": "value",
          "type": "uint256"
        },
        {
          "indexed": false,
          "internalType": "uint256",
          "name": "amount",
          "type": "uint256"
        }
      ],
      "name": "TokensPurchased",
      "type": "event"
    },
    {
      "anonymous": false,
      "inputs": [
        {
          "indexed": false,
          "internalType": "address",
          "name": "account",
          "type": "address"
        }
      ],
      "name": "Unpaused",
      "type": "event"
    },
    {
      "anonymous": false,
      "inputs": [
        {
          "indexed": false,
          "internalType": "uint256",
          "name": "initialAmount",
          "type": "uint256"
        }
      ],
      "name": "UpdateInitialAmount",
      "type": "event"
    },
    {
      "anonymous": false,
      "inputs": [
        {
          "indexed": false,
          "internalType": "uint256",
          "name": "minBidAmount",
          "type": "uint256"
        }
      ],
      "name": "UpdateMinBidAmount",
      "type": "event"
    },
    {
      "anonymous": false,
      "inputs": [
        {
          "indexed": false,
          "internalType": "uint256",
          "name": "newOpeningTime",
          "type": "uint256"
        },
        {
          "indexed": false,
          "internalType": "uint256",
          "name": "newClosingTime",
          "type": "uint256"
        }
      ],
      "name": "UpdateSaleRoundTime",
      "type": "event"
    },
    {
      "anonymous": false,
      "inputs": [
        {
          "indexed": false,
          "internalType": "uint256",
          "name": "totalCap",
          "type": "uint256"
        }
      ],
      "name": "UpdateTotalCap",
      "type": "event"
    },
    {
      "anonymous": false,
      "inputs": [
        {
          "indexed": false,
          "internalType": "bool",
          "name": "isEnableTimeLimit",
          "type": "bool"
        }
      ],
      "name": "UpdateUsingTimeLimit",
      "type": "event"
    },
    {
      "anonymous": false,
      "inputs": [
        {
          "indexed": false,
          "internalType": "uint256",
          "name": "newYield",
          "type": "uint256"
        }
      ],
      "name": "YieldUpdated",
      "type": "event"
    },
    {
      "inputs": [],
      "name": "DAY_LENGTH_IN_SECONDS",
      "outputs": [
        {
          "internalType": "uint256",
          "name": "",
          "type": "uint256"
        }
      ],
      "stateMutability": "view",
      "type": "function"
    },
    {
      "inputs": [],
      "name": "DEFAULT_ADMIN_ROLE",
      "outputs": [
        {
          "internalType": "bytes32",
          "name": "",
          "type": "bytes32"
        }
      ],
      "stateMutability": "view",
      "type": "function"
    },
    {
      "inputs": [],
      "name": "HOUR_LENGTH_IN_SECONDS",
      "outputs": [
        {
          "internalType": "uint256",
          "name": "",
          "type": "uint256"
        }
      ],
      "stateMutability": "view",
      "type": "function"
    },
    {
      "inputs": [],
      "name": "INTEREST_RATE_SCALING_FACTOR_PERCENT",
      "outputs": [
        {
          "internalType": "uint256",
          "name": "",
          "type": "uint256"
        }
      ],
      "stateMutability": "view",
      "type": "function"
    },
    {
      "inputs": [],
      "name": "MINUTE_LENGTH_IN_SECONDS",
      "outputs": [
        {
          "internalType": "uint256",
          "name": "",
          "type": "uint256"
        }
      ],
      "stateMutability": "view",
      "type": "function"
    },
    {
      "inputs": [],
      "name": "OWNER_ROLE",
      "outputs": [
        {
          "internalType": "bytes32",
          "name": "",
          "type": "bytes32"
        }
      ],
      "stateMutability": "view",
      "type": "function"
    },
    {
      "inputs": [],
      "name": "PURCHASE_PRICE_SCALING_FACTOR",
      "outputs": [
        {
          "internalType": "uint256",
          "name": "",
          "type": "uint256"
        }
      ],
      "stateMutability": "view",
      "type": "function"
    },
    {
      "inputs": [],
      "name": "RATE_SCALING_FACTOR",
      "outputs": [
        {
          "internalType": "uint256",
          "name": "",
          "type": "uint256"
        }
      ],
      "stateMutability": "view",
      "type": "function"
    },
    {
      "inputs": [],
      "name": "YEAR_LENGTH_IN_DAYS",
      "outputs": [
        {
          "internalType": "uint256",
          "name": "",
          "type": "uint256"
        }
      ],
      "stateMutability": "view",
      "type": "function"
    },
    {
      "inputs": [],
      "name": "YEAR_LENGTH_IN_SECONDS",
      "outputs": [
        {
          "internalType": "uint256",
          "name": "",
          "type": "uint256"
        }
      ],
      "stateMutability": "view",
      "type": "function"
    },
    {
      "inputs": [
        {
          "internalType": "address",
          "name": "",
          "type": "address"
        }
      ],
      "name": "_currencyRaisedByInvestor",
      "outputs": [
        {
          "internalType": "uint256",
          "name": "",
          "type": "uint256"
        }
      ],
      "stateMutability": "view",
      "type": "function"
    },
    {
      "inputs": [
        {
          "internalType": "uint256",
          "name": "additionalCap",
          "type": "uint256"
        }
      ],
      "name": "addFunding",
      "outputs": [],
      "stateMutability": "nonpayable",
      "type": "function"
    },
    {
      "inputs": [
        {
          "internalType": "address",
          "name": "payee",
          "type": "address"
        },
        {
          "internalType": "address",
          "name": "beneficiary",
          "type": "address"
        },
        {
          "internalType": "uint256",
          "name": "currencyAmount",
          "type": "uint256"
        }
      ],
      "name": "buyTokens",
      "outputs": [
        {
          "internalType": "uint256",
          "name": "",
          "type": "uint256"
        }
      ],
      "stateMutability": "nonpayable",
      "type": "function"
    },
    {
      "inputs": [],
      "name": "closingTime",
      "outputs": [
        {
          "internalType": "uint256",
          "name": "",
          "type": "uint256"
        }
      ],
      "stateMutability": "view",
      "type": "function"
    },
    {
      "inputs": [],
      "name": "currency",
      "outputs": [
        {
          "internalType": "address",
          "name": "",
          "type": "address"
        }
      ],
      "stateMutability": "view",
      "type": "function"
    },
    {
      "inputs": [],
      "name": "currencyRaised",
      "outputs": [
        {
          "internalType": "uint256",
          "name": "",
          "type": "uint256"
        }
      ],
      "stateMutability": "view",
      "type": "function"
    },
    {
      "inputs": [
        {
          "internalType": "address",
          "name": "investor",
          "type": "address"
        }
      ],
      "name": "currencyRaisedByInvestor",
      "outputs": [
        {
          "internalType": "uint256",
          "name": "",
          "type": "uint256"
        }
      ],
      "stateMutability": "view",
      "type": "function"
    },
    {
      "inputs": [
        {
          "internalType": "uint256",
          "name": "newClosingTime",
          "type": "uint256"
        }
      ],
      "name": "extendTime",
      "outputs": [],
      "stateMutability": "nonpayable",
      "type": "function"
    },
    {
      "inputs": [
        {
          "internalType": "bool",
          "name": "claimRemainToken",
          "type": "bool"
        },
        {
          "internalType": "address",
          "name": "remainTokenRecipient",
          "type": "address"
        }
      ],
      "name": "finalize",
      "outputs": [],
      "stateMutability": "nonpayable",
      "type": "function"
    },
    {
      "inputs": [],
      "name": "finalized",
      "outputs": [
        {
          "internalType": "bool",
          "name": "",
          "type": "bool"
        }
      ],
      "stateMutability": "view",
      "type": "function"
    },
    {
      "inputs": [],
      "name": "firstNoteTokenMintedTimestamp",
      "outputs": [
        {
          "internalType": "uint64",
          "name": "",
          "type": "uint64"
        }
      ],
      "stateMutability": "view",
      "type": "function"
    },
    {
      "inputs": [],
      "name": "getCurrencyRemainAmount",
      "outputs": [
        {
          "internalType": "uint256",
          "name": "",
          "type": "uint256"
        }
      ],
      "stateMutability": "view",
      "type": "function"
    },
    {
      "inputs": [],
      "name": "getInitializedVersion",
      "outputs": [
        {
          "internalType": "uint256",
          "name": "",
          "type": "uint256"
        }
      ],
      "stateMutability": "view",
      "type": "function"
    },
    {
      "inputs": [],
      "name": "getInterest",
      "outputs": [
        {
          "internalType": "uint256",
          "name": "",
          "type": "uint256"
        }
      ],
      "stateMutability": "view",
      "type": "function"
    },
    {
      "inputs": [
        {
          "internalType": "bytes32",
          "name": "role",
          "type": "bytes32"
        }
      ],
      "name": "getRoleAdmin",
      "outputs": [
        {
          "internalType": "bytes32",
          "name": "",
          "type": "bytes32"
        }
      ],
      "stateMutability": "view",
      "type": "function"
    },
    {
      "inputs": [
        {
          "internalType": "bytes32",
          "name": "role",
          "type": "bytes32"
        },
        {
          "internalType": "uint256",
          "name": "index",
          "type": "uint256"
        }
      ],
      "name": "getRoleMember",
      "outputs": [
        {
          "internalType": "address",
          "name": "",
          "type": "address"
        }
      ],
      "stateMutability": "view",
      "type": "function"
    },
    {
      "inputs": [
        {
          "internalType": "bytes32",
          "name": "role",
          "type": "bytes32"
        }
      ],
      "name": "getRoleMemberCount",
      "outputs": [
        {
          "internalType": "uint256",
          "name": "",
          "type": "uint256"
        }
      ],
      "stateMutability": "view",
      "type": "function"
    },
    {
      "inputs": [
        {
          "internalType": "uint256",
          "name": "currencyAmount",
          "type": "uint256"
        }
      ],
      "name": "getTokenAmount",
      "outputs": [
        {
          "internalType": "uint256",
          "name": "",
          "type": "uint256"
        }
      ],
      "stateMutability": "view",
      "type": "function"
    },
    {
      "inputs": [],
      "name": "getTokenPrice",
      "outputs": [
        {
          "internalType": "uint256",
          "name": "",
          "type": "uint256"
        }
      ],
      "stateMutability": "view",
      "type": "function"
    },
    {
      "inputs": [],
      "name": "getTokenRemainAmount",
      "outputs": [
        {
          "internalType": "uint256",
          "name": "",
          "type": "uint256"
        }
      ],
      "stateMutability": "view",
      "type": "function"
    },
    {
      "inputs": [
        {
          "internalType": "bytes32",
          "name": "role",
          "type": "bytes32"
        },
        {
          "internalType": "address",
          "name": "account",
          "type": "address"
        }
      ],
      "name": "grantRole",
      "outputs": [],
      "stateMutability": "nonpayable",
      "type": "function"
    },
    {
      "inputs": [],
      "name": "hasClosed",
      "outputs": [
        {
          "internalType": "bool",
          "name": "",
          "type": "bool"
        }
      ],
      "stateMutability": "view",
      "type": "function"
    },
    {
      "inputs": [
        {
          "internalType": "bytes32",
          "name": "role",
          "type": "bytes32"
        },
        {
          "internalType": "address",
          "name": "account",
          "type": "address"
        }
      ],
      "name": "hasRole",
      "outputs": [
        {
          "internalType": "bool",
          "name": "",
          "type": "bool"
        }
      ],
      "stateMutability": "view",
      "type": "function"
    },
    {
      "inputs": [],
      "name": "hasStarted",
      "outputs": [
        {
          "internalType": "bool",
          "name": "",
          "type": "bool"
        }
      ],
      "stateMutability": "view",
      "type": "function"
    },
    {
      "inputs": [],
      "name": "initialAmount",
      "outputs": [
        {
          "internalType": "uint256",
          "name": "",
          "type": "uint256"
        }
      ],
      "stateMutability": "view",
      "type": "function"
    },
    {
      "inputs": [
        {
          "internalType": "contract Registry",
          "name": "_registry",
          "type": "address"
        },
        {
          "internalType": "address",
          "name": "_pool",
          "type": "address"
        },
        {
          "internalType": "address",
          "name": "_token",
          "type": "address"
        },
        {
          "internalType": "address",
          "name": "_currency",
          "type": "address"
        },
        {
          "internalType": "bool",
          "name": "_longSale",
          "type": "bool"
        }
      ],
      "name": "initialize",
      "outputs": [],
      "stateMutability": "nonpayable",
      "type": "function"
    },
    {
      "inputs": [],
      "name": "interestRate",
      "outputs": [
        {
          "internalType": "uint256",
          "name": "",
          "type": "uint256"
        }
      ],
      "stateMutability": "view",
      "type": "function"
    },
    {
      "inputs": [],
      "name": "isAdmin",
      "outputs": [
        {
          "internalType": "bool",
          "name": "",
          "type": "bool"
        }
      ],
      "stateMutability": "view",
      "type": "function"
    },
    {
      "inputs": [],
      "name": "isDistributedFully",
      "outputs": [
        {
          "internalType": "bool",
          "name": "",
          "type": "bool"
        }
      ],
      "stateMutability": "view",
      "type": "function"
    },
    {
      "inputs": [],
      "name": "isEnableTimeLimit",
      "outputs": [
        {
          "internalType": "bool",
          "name": "",
          "type": "bool"
        }
      ],
      "stateMutability": "view",
      "type": "function"
    },
    {
      "inputs": [],
      "name": "isLongSale",
      "outputs": [
        {
          "internalType": "bool",
          "name": "",
          "type": "bool"
        }
      ],
      "stateMutability": "view",
      "type": "function"
    },
    {
      "inputs": [],
      "name": "isOpen",
      "outputs": [
        {
          "internalType": "bool",
          "name": "",
          "type": "bool"
        }
      ],
      "stateMutability": "view",
      "type": "function"
    },
    {
      "inputs": [
        {
          "internalType": "uint256",
          "name": "currencyAmount",
          "type": "uint256"
        }
      ],
      "name": "isUnderTotalCap",
      "outputs": [
        {
          "internalType": "bool",
          "name": "",
          "type": "bool"
        }
      ],
      "stateMutability": "view",
      "type": "function"
    },
    {
      "inputs": [],
      "name": "longSale",
      "outputs": [
        {
          "internalType": "bool",
          "name": "",
          "type": "bool"
        }
      ],
      "stateMutability": "view",
      "type": "function"
    },
    {
      "inputs": [],
      "name": "minBidAmount",
      "outputs": [
        {
          "internalType": "uint256",
          "name": "",
          "type": "uint256"
        }
      ],
      "stateMutability": "view",
      "type": "function"
    },
    {
      "inputs": [
        {
          "internalType": "uint256",
          "name": "newOpeningTime",
          "type": "uint256"
        },
        {
          "internalType": "uint256",
          "name": "newClosingTime",
          "type": "uint256"
        }
      ],
      "name": "newSaleRoundTime",
      "outputs": [],
      "stateMutability": "nonpayable",
      "type": "function"
    },
    {
      "inputs": [
        {
          "internalType": "uint256",
          "name": "currencyAmount",
          "type": "uint256"
        }
      ],
      "name": "onRedeem",
      "outputs": [],
      "stateMutability": "nonpayable",
      "type": "function"
    },
    {
      "inputs": [],
      "name": "openingTime",
      "outputs": [
        {
          "internalType": "uint256",
          "name": "",
          "type": "uint256"
        }
      ],
      "stateMutability": "view",
      "type": "function"
    },
    {
      "inputs": [],
      "name": "pause",
      "outputs": [],
      "stateMutability": "nonpayable",
      "type": "function"
    },
    {
      "inputs": [],
      "name": "paused",
      "outputs": [
        {
          "internalType": "bool",
          "name": "",
          "type": "bool"
        }
      ],
      "stateMutability": "view",
      "type": "function"
    },
    {
      "inputs": [],
      "name": "pickedInterest",
      "outputs": [
        {
          "internalType": "uint32",
          "name": "",
          "type": "uint32"
        }
      ],
      "stateMutability": "view",
      "type": "function"
    },
    {
      "inputs": [],
      "name": "pool",
      "outputs": [
        {
          "internalType": "address",
          "name": "",
          "type": "address"
        }
      ],
      "stateMutability": "view",
      "type": "function"
    },
    {
      "inputs": [],
      "name": "rate",
      "outputs": [
        {
          "internalType": "uint256",
          "name": "",
          "type": "uint256"
        }
      ],
      "stateMutability": "view",
      "type": "function"
    },
    {
      "inputs": [],
      "name": "registry",
      "outputs": [
        {
          "internalType": "contract Registry",
          "name": "",
          "type": "address"
        }
      ],
      "stateMutability": "view",
      "type": "function"
    },
    {
      "inputs": [
        {
          "internalType": "bytes32",
          "name": "role",
          "type": "bytes32"
        },
        {
          "internalType": "address",
          "name": "account",
          "type": "address"
        }
      ],
      "name": "renounceRole",
      "outputs": [],
      "stateMutability": "nonpayable",
      "type": "function"
    },
    {
      "inputs": [
        {
          "internalType": "bytes32",
          "name": "role",
          "type": "bytes32"
        },
        {
          "internalType": "address",
          "name": "account",
          "type": "address"
        }
      ],
      "name": "revokeRole",
      "outputs": [],
      "stateMutability": "nonpayable",
      "type": "function"
    },
    {
      "inputs": [
        {
          "internalType": "bool",
          "name": "_hasStarted",
          "type": "bool"
        }
      ],
      "name": "setHasStarted",
      "outputs": [],
      "stateMutability": "nonpayable",
      "type": "function"
    },
    {
      "inputs": [
        {
          "internalType": "uint256",
          "name": "_initialAmount",
          "type": "uint256"
        }
      ],
      "name": "setInitialAmount",
      "outputs": [],
      "stateMutability": "nonpayable",
      "type": "function"
    },
    {
      "inputs": [
        {
          "internalType": "uint256",
          "name": "_minBidAmount",
          "type": "uint256"
        }
      ],
      "name": "setMinBidAmount",
      "outputs": [],
      "stateMutability": "nonpayable",
      "type": "function"
    },
    {
      "inputs": [
        {
          "internalType": "bytes32",
          "name": "role",
          "type": "bytes32"
        },
        {
          "internalType": "bytes32",
          "name": "adminRole",
          "type": "bytes32"
        }
      ],
      "name": "setRoleAdmin",
      "outputs": [],
      "stateMutability": "nonpayable",
      "type": "function"
    },
    {
      "inputs": [
        {
          "internalType": "uint256",
          "name": "cap_",
          "type": "uint256"
        }
      ],
      "name": "setTotalCap",
      "outputs": [],
      "stateMutability": "nonpayable",
      "type": "function"
    },
    {
      "inputs": [
        {
          "internalType": "bool",
          "name": "usingTimeLimit",
          "type": "bool"
        }
      ],
      "name": "setUsingTimeLimit",
      "outputs": [],
      "stateMutability": "nonpayable",
      "type": "function"
    },
    {
      "inputs": [
        {
          "internalType": "uint256",
          "name": "_yield",
          "type": "uint256"
        }
      ],
      "name": "setYield",
      "outputs": [],
      "stateMutability": "nonpayable",
      "type": "function"
    },
    {
      "inputs": [
        {
          "internalType": "uint256",
          "name": "_interestRate",
          "type": "uint256"
        },
        {
          "internalType": "uint256",
          "name": "_termLengthInSeconds",
          "type": "uint256"
        },
        {
          "internalType": "uint256",
          "name": "_timeStartEarningInterest",
          "type": "uint256"
        }
      ],
      "name": "setupLongSale",
      "outputs": [],
      "stateMutability": "nonpayable",
      "type": "function"
    },
    {
      "inputs": [
        {
          "internalType": "uint256",
          "name": "openingTime_",
          "type": "uint256"
        },
        {
          "internalType": "uint256",
          "name": "closingTime_",
          "type": "uint256"
        },
        {
          "internalType": "uint256",
          "name": "rate_",
          "type": "uint256"
        },
        {
          "internalType": "uint256",
          "name": "cap_",
          "type": "uint256"
        }
      ],
      "name": "startNewRoundSale",
      "outputs": [],
      "stateMutability": "nonpayable",
      "type": "function"
    },
    {
      "inputs": [
        {
          "internalType": "bytes4",
          "name": "interfaceId",
          "type": "bytes4"
        }
      ],
      "name": "supportsInterface",
      "outputs": [
        {
          "internalType": "bool",
          "name": "",
          "type": "bool"
        }
      ],
      "stateMutability": "view",
      "type": "function"
    },
    {
      "inputs": [],
      "name": "termLengthInSeconds",
      "outputs": [
        {
          "internalType": "uint256",
          "name": "",
          "type": "uint256"
        }
      ],
      "stateMutability": "view",
      "type": "function"
    },
    {
      "inputs": [],
      "name": "timeStartEarningInterest",
      "outputs": [
        {
          "internalType": "uint256",
          "name": "",
          "type": "uint256"
        }
      ],
      "stateMutability": "view",
      "type": "function"
    },
    {
      "inputs": [],
      "name": "token",
      "outputs": [
        {
          "internalType": "address",
          "name": "",
          "type": "address"
        }
      ],
      "stateMutability": "view",
      "type": "function"
    },
    {
      "inputs": [],
      "name": "tokenRaised",
      "outputs": [
        {
          "internalType": "uint256",
          "name": "",
          "type": "uint256"
        }
      ],
      "stateMutability": "view",
      "type": "function"
    },
    {
      "inputs": [],
      "name": "totalCap",
      "outputs": [
        {
          "internalType": "uint256",
          "name": "",
          "type": "uint256"
        }
      ],
      "stateMutability": "view",
      "type": "function"
    },
    {
      "inputs": [],
      "name": "totalCapReached",
      "outputs": [
        {
          "internalType": "bool",
          "name": "",
          "type": "bool"
        }
      ],
      "stateMutability": "view",
      "type": "function"
    },
    {
      "inputs": [],
      "name": "unpause",
      "outputs": [],
      "stateMutability": "nonpayable",
      "type": "function"
    },
    {
      "inputs": [],
      "name": "yield",
      "outputs": [
        {
          "internalType": "uint256",
          "name": "",
          "type": "uint256"
        }
      ],
      "stateMutability": "view",
      "type": "function"
    }
  ],
  "transactionHash": "0xe6a809da6863e56d203ce26d931ee2747313d631cf66b4f3f0687f48d76322e8",
  "args": [],
  "numDeployments": 4,
  "solcInputHash": "3e9c25664db0e31687c8f555d07b5e2e",
  "bytecode": "0x608060405234801561001057600080fd5b506132f2806100206000396000f3fe608060405234801561001057600080fd5b506004361061043e5760003560e01c80639010d07c11610236578063cb2daa161161013b578063e42da3b4116100c3578063ea7bb4bd11610087578063ea7bb4bd146108ad578063fc0c546a146108c0578063fc1ed437146108d4578063fc5b5fda146108de578063fd127a41146108f157600080fd5b8063e42da3b41461085c578063e58378bb1461086f578063e5a4bed314610884578063e5a6b10f1461088d578063e8206d8f146108a157600080fd5b8063d7d55a4a1161010a578063d7d55a4a14610802578063dcefa53814610815578063e17574a114610828578063e1884b0f14610849578063e2eda541146106e857600080fd5b8063cb2daa16146106e8578063cda95d55146107ce578063d2da89ab146107e1578063d547741f146107ef57600080fd5b8063ab15de52116101be578063b6db75a01161018d578063b6db75a01461078e578063b7a8807c14610796578063b94883d5146107a0578063c2507ac1146107a8578063ca15c873146107bb57600080fd5b8063ab15de521461075b578063b0efc32914610764578063b3c6501514610777578063b3f05b971461078257600080fd5b8063998ba4fc11610205578063998ba4fc146106f15780639b52fe33146106fa578063a217fddf1461072d578063a27aebbc14610735578063a38a52a61461074857600080fd5b80639010d07c146106af57806391d14854146106c257806391d1d4f8146106d557806393529cdf146106e857600080fd5b806336568abe116103475780635d4eeb26116102cf5780637a0e80d7116102935780637a0e80d7146106685780637b103999146106765780637c3a00fd1461068a5780637f01b46a146106945780638456cb59146106a757600080fd5b80635d4eeb26146106285780635d5d4613146106305780636ee44c4c146106435780636f69c96f1461064d5780636f7b58be1461065557600080fd5b806347535d7b1161031657806347535d7b146105f957806349751788146106015780634b6753bc1461060b5780634b94f50e146106155780635c975abb1461061d57600080fd5b806336568abe146105bd5780633f4ba83a146105d0578063417fd6b6146105d857806344691f7e146105eb57600080fd5b80631e4e0091116103ca57806327f6ad991161039957806327f6ad991461057b57806328593984146105835780632b8093bd1461058d5780632c4e722e146105a05780632f2ff15d146105aa57600080fd5b80631e4e0091146105135780631f0b10c514610528578063248a9ca31461054e57806326a215751461057157600080fd5b80631515bc2b116104115780631515bc2b146104b957806315aaf6c0146104c457806316450092146104ce57806316f0115b146104d857806319f06e331461050457600080fd5b806301ffc9a7146104435780630324be711461046b578063072c92d5146104a357806307762982146104b1575b600080fd5b610456610451366004612c6e565b6108f9565b60405190151581526020015b60405180910390f35b610495610479366004612cad565b6001600160a01b03166000908152610169602052604090205490565b604051908152602001610462565b610194546104569060ff1681565b610495610924565b610193544211610456565b6104956102295481565b6104956101675481565b610160546104ec906001600160a01b031681565b6040516001600160a01b039091168152602001610462565b61016754610165541015610456565b610526610521366004612cca565b61093d565b005b61022e546105399063ffffffff1681565b60405163ffffffff9091168152602001610462565b61049561055c366004612cec565b600090815260c9602052604090206001015490565b6104956101665481565b610495603c81565b61049561022c5481565b61052661059b366004612d13565b610957565b6104956101635481565b6105266105b8366004612d4c565b610b5f565b6105266105cb366004612d4c565b610b84565b610526610c02565b6105266105e6366004612cec565b610c18565b610164546104569060ff1681565b610456610cc2565b6104956101685481565b6104956101935481565b610495610cf1565b60335460ff16610456565b610495610d85565b61052661063e366004612cec565b610db7565b61049561022a5481565b610495610ecd565b610526610663366004612d71565b610ed8565b610167546101655414610456565b61015f546104ec906001600160a01b031681565b61049561022b5481565b6104566106a2366004612cec565b610f50565b610526610f6d565b6104ec6106bd366004612cca565b610f80565b6104566106d0366004612d4c565b610f9f565b6105266106e3366004612cca565b610fca565b61049561271081565b61016554610495565b6101645461071490610100900467ffffffffffffffff1681565b60405167ffffffffffffffff9091168152602001610462565b610495600081565b610526610743366004612cec565b611158565b610526610756366004612d8e565b611246565b61049561016d81565b610526610772366004612cec565b611358565b60005460ff16610495565b6101c45460ff16610456565b610456611476565b6104956101925481565b610495611490565b6104956107b6366004612cec565b6114a4565b6104956107c9366004612cec565b611545565b6105266107dc366004612dba565b61155c565b610228546104569060ff1681565b6105266107fd366004612d4c565b6115f3565b610526610810366004612cec565b611618565b610495610823366004612dec565b6116c1565b610495610836366004612cad565b6101696020526000908152604090205481565b610526610857366004612cec565b6116d6565b61052661086a366004612cec565b61174c565b61049560008051602061329d83398151915281565b61022b54610495565b610162546104ec906001600160a01b031681565b6102285460ff16610456565b6105266108bb366004612d71565b6117a2565b610161546104ec906001600160a01b031681565b61049561022d5481565b6105266108ec366004612e2d565b61184f565b610495611990565b60006001600160e01b03198216635a05180f60e01b148061091e575061091e826119b3565b92915050565b61092f603c80612eb4565b61093a906018612eb4565b81565b6000610948816119e8565b61095283836119f2565b505050565b61095f611a3d565b610160546001600160a01b0316336001600160a01b0316146109e65760405162461bcd60e51b815260206004820152603560248201527f46696e616c697a61626c6543726f776473616c653a204f6e6c7920706f6f6c20604482015274636f6e74726163742063616e2066696e616c697a6560581b60648201526084015b60405180910390fd5b6101c45460ff1615610a4a5760405162461bcd60e51b815260206004820152602760248201527f46696e616c697a61626c6543726f776473616c653a20616c72656164792066696044820152661b985b1a5e995960ca1b60648201526084016109dd565b61019354421180610a615750610167546101655410155b610aad5760405162461bcd60e51b815260206004820181905260248201527f46696e616c697a61626c6543726f776473616c653a206e6f7420636c6f73656460448201526064016109dd565b6101c4805460ff19166001179055610aca61016754610165541490565b158015610adb57506102285460ff16155b15610b0f576000610aed6107b6611490565b90508215610b0457610aff8282611a85565b610b0d565b610b0d81611a8f565b505b610b3261022b5461022e805463ffffffff191663ffffffff909216919091179055565b6040517f9270cc390c096600a1c17c44345a1ba689fafd99d97487b10cfccf86cf73183690600090a15050565b600082815260c96020526040902060010154610b7a816119e8565b6109528383611af1565b6001600160a01b0381163314610bf45760405162461bcd60e51b815260206004820152602f60248201527f416363657373436f6e74726f6c3a2063616e206f6e6c792072656e6f756e636560448201526e103937b632b9903337b91039b2b63360891b60648201526084016109dd565b610bfe8282611b13565b5050565b6000610c0d816119e8565b610c15611b35565b50565b610c20611a3d565b610c3860008051602061329d83398151915233610f9f565b80610c69575061015f54610c54906001600160a01b0316611b87565b6001600160a01b0316336001600160a01b0316145b610c855760405162461bcd60e51b81526004016109dd90612ecb565b6101688190556040518181527f2bc4b9fa5449471c716310263f78104dee5bcb66018bcdb48fd1f61f5de81a1b906020015b60405180910390a150565b6101945460009060ff16610cd65750600190565b610192544210158015610cec5750610193544211155b905090565b61015f54600090610d0a906001600160a01b0316611b94565b6101605461016154604051637f26468d60e01b81526001600160a01b0392831660048201529082166024820152911690637f26468d906044015b602060405180830381865afa158015610d61573d6000803e3d6000fd5b505050506040513d601f19601f82011682018060405250810190610cec9190612f15565b610161546040516370a0823160e01b81523060048201526000916001600160a01b0316906370a0823190602401610d44565b610dbf611ba1565b610dc7611a3d565b610ddf60008051602061329d83398151915233610f9f565b80610e10575061015f54610dfb906001600160a01b0316611b87565b6001600160a01b0316336001600160a01b0316145b610e2c5760405162461bcd60e51b81526004016109dd90612ecb565b60008111610e7c5760405162461bcd60e51b815260206004820152601960248201527f43726f776473616c653a20746f74616c2063617020697320300000000000000060448201526064016109dd565b61016754610e8a9082612f2e565b6101678190556040519081527f04b847fea6b95515f8ef8fa76a5e06d1dc35b0c6dbf10ced7acd9d5d93808f8d9060200160405180910390a1610c156001606555565b61093a603c80612eb4565b610ee0611a3d565b610ee8611ba1565b60008051602061329d833981519152610f00816119e8565b610194805460ff19168315159081179091556040519081527fdb833fed315c7b32553a5adaa056b4b0112312be8e73417d7d730aa3768638f59060200160405180910390a150610c156001606555565b6000610167548261016554610f659190612f2e565b111592915050565b6000610f78816119e8565b610c15611bfa565b600082815260fb60205260408120610f989083611c37565b9392505050565b600091825260c9602090815260408084206001600160a01b0393909316845291905290205460ff1690565b610fd2611a3d565b610fea60008051602061329d83398151915233610f9f565b8061101b575061015f54611006906001600160a01b0316611b87565b6001600160a01b0316336001600160a01b0316145b6110775760405162461bcd60e51b815260206004820152602760248201527f43726f776473616c653a2043616c6c6572206d757374206265206f776e6572206044820152661bdc881c1bdbdb60ca1b60648201526084016109dd565b818110156110ed5760405162461bcd60e51b815260206004820152603760248201527f54696d656443726f776473616c653a206f70656e696e672074696d652069732060448201527f6e6f74206265666f726520636c6f73696e672074696d6500000000000000000060648201526084016109dd565b428210156110f9574291505b81811161110e5761110b826001612f2e565b90505b61019282905561019381905560408051838152602081018390527f8b177454854d2b8a1238cecb64910b1bcf2ad0449c4567c725f750b6712e5dd091015b60405180910390a15050565b611160611a3d565b611168611ba1565b60008051602061329d833981519152611180816119e8565b6101935482116111f85760405162461bcd60e51b815260206004820152603f60248201527f54696d656443726f776473616c653a206e657720636c6f73696e672074696d6560448201527f206973206265666f72652063757272656e7420636c6f73696e672074696d650060648201526084016109dd565b6101935460408051918252602082018490527f46711e222f558a07afd26e5e71b48ecb0a8b2cdcd40faeb1323e05e2c76a2f32910160405180910390a150610193819055610c156001606555565b61124e611a3d565b610160546001600160a01b0316336001600160a01b0316146112b25760405162461bcd60e51b815260206004820152601e60248201527f43726f776473616c653a2043616c6c6572206d75737420626520706f6f6c000060448201526064016109dd565b6102285460ff16156109525761022b83905561022981905561022a82905561022c83905560408051848152602081018490529081018290527f84b8e1ebc39f5d5c8f58bb8f0257c7a2178deeba79b5429e799de65f3d2892049060600160405180910390a17f90427aaa52d772393dbc0baaaa6eb821cdec72ed0870206d71ccc004efe43bba61022c5460405161134b91815260200190565b60405180910390a1505050565b611360611a3d565b61137860008051602061329d83398151915233610f9f565b806113a9575061015f54611394906001600160a01b0316611b87565b6001600160a01b0316336001600160a01b0316145b6113c55760405162461bcd60e51b81526004016109dd90612f41565b6101675461022d54106114405760405162461bcd60e51b815260206004820152603f60248201527f4d696e7465644e6f726d616c5447453a20496e697469616c204a4f5420616d6f60448201527f756e74206d757374206265206c657373207468616e20746f74616c206361700060648201526084016109dd565b61022d8190556040518181527f0979af31fa6fa6db518b12df0be48bc7e2d3f09c3c3eead5718d62e988960fc990602001610cb7565b6000610cec60008051602061329d83398151915233610f9f565b60006101655461016754610cec9190612f91565b60006114ae610cf1565b61016160009054906101000a90046001600160a01b03166001600160a01b031663313ce5676040518163ffffffff1660e01b8152600401602060405180830381865afa158015611502573d6000803e3d6000fd5b505050506040513d601f19601f820116820180604052508101906115269190612fa4565b61153190600a6130ab565b61153b9084612eb4565b61091e91906130ba565b600081815260fb6020526040812061091e90611c43565b611564611a3d565b61157c60008051602061329d83398151915233610f9f565b806115ad575061015f54611598906001600160a01b0316611b87565b6001600160a01b0316336001600160a01b0316145b6115c95760405162461bcd60e51b81526004016109dd90612f41565b6115d1611c4d565b6115da82611ccf565b6115e48484610fca565b6115ed81611d29565b50505050565b600082815260c9602052604090206001015461160e816119e8565b6109528383611b13565b61015f5461162e906001600160a01b0316611e09565b6001600160a01b0316336001600160a01b0316146116a65760405162461bcd60e51b815260206004820152602f60248201527f43726f776473616c653a2043616c6c6572206d7573742062652064697374726960448201526e313aba34b7b71037b832b930ba37b960891b60648201526084016109dd565b8061016560008282546116b99190612f91565b909155505050565b60006116ce848484611e16565b949350505050565b6116de611a3d565b6116f660008051602061329d83398151915233610f9f565b80611727575061015f54611712906001600160a01b0316611b87565b6001600160a01b0316336001600160a01b0316145b6117435760405162461bcd60e51b81526004016109dd90612f41565b610c1581611d29565b611754611a3d565b60008051602061329d83398151915261176c816119e8565b61022c8290556040518281527f90427aaa52d772393dbc0baaaa6eb821cdec72ed0870206d71ccc004efe43bba9060200161114c565b6117ba60008051602061329d83398151915233610f9f565b806117eb575061015f546117d6906001600160a01b0316611b87565b6001600160a01b0316336001600160a01b0316145b6118075760405162461bcd60e51b81526004016109dd90612ecb565b610164805460ff191682151590811790915560405160ff909116151581527fab34f9b8831f3ca42a730d92c06cef6c44746cf5c9ec3f2d7b510645dcba885790602001610cb7565b600054610100900460ff161580801561186f5750600054600160ff909116105b806118895750303b158015611889575060005460ff166001145b6118ec5760405162461bcd60e51b815260206004820152602e60248201527f496e697469616c697a61626c653a20636f6e747261637420697320616c72656160448201526d191e481a5b9a5d1a585b1a5e995960921b60648201526084016109dd565b6000805460ff19166001179055801561190f576000805461ff0019166101001790555b61191b86868686612124565b610228805483151560ff1990911617905561022e805464ff0000000019166401000000001790558015611988576000805461ff0019169055604051600181527f7f26b83ff96e1f2b6a682f133852f6798a09c465da95921460cefb38474024989060200160405180910390a15b505050505050565b61016d61199e603c80612eb4565b6119a9906018612eb4565b61093a9190612eb4565b60006001600160e01b03198216637965db0b60e01b148061091e57506301ffc9a760e01b6001600160e01b031983161461091e565b610c1581336121a8565b600082815260c96020526040808220600101805490849055905190918391839186917fbd79b86ffe0ab8e8776151514217cd7cacd52c909f66475c3af44e129f0b00ff9190a4505050565b60335460ff1615611a835760405162461bcd60e51b815260206004820152601060248201526f14185d5cd8589b194e881c185d5cd95960821b60448201526064016109dd565b565b610bfe8282612201565b61016154604051630852cd8d60e31b8152600481018390526001600160a01b03909116906342966c6890602401600060405180830381600087803b158015611ad657600080fd5b505af1158015611aea573d6000803e3d6000fd5b5050505050565b611afb82826123d2565b600082815260fb602052604090206109529082612458565b611b1d828261246d565b600082815260fb6020526040902061095290826124d4565b611b3d6124e9565b6033805460ff191690557f5db9ee0a495bf2e6ff9c91a7834c1ba4fdd244a5e8aa4e537bd38aeae4b073aa335b6040516001600160a01b03909116815260200160405180910390a1565b600061091e826000612532565b600061091e826006612532565b600260655403611bf35760405162461bcd60e51b815260206004820152601f60248201527f5265656e7472616e637947756172643a207265656e7472616e742063616c6c0060448201526064016109dd565b6002606555565b611c02611a3d565b6033805460ff191660011790557f62e78cea01bee320cd4e420270b5ea74000d11b0c9f74754ebdbfc544b05a258611b6a3390565b6000610f9883836125b7565b600061091e825490565b61019354421180611c645750610167546101655410155b611a835760405162461bcd60e51b815260206004820152603660248201527f4d696e746564496e6372656173696e67496e7465726573745447453a205072656044820152751d9a5bdd5cc81c9bdd5b99081b9bdd0818db1bdcd95960521b60648201526084016109dd565b6101645460ff1615611d235760405162461bcd60e51b815260206004820152601e60248201527f43726f776473616c653a2053616c6520726f756e64206f766572666c6f77000060448201526064016109dd565b61016355565b60008111611d6f5760405162461bcd60e51b8152602060048201526013602482015272043726f776473616c653a20636170206973203606c1b60448201526064016109dd565b61016554811015611dd35760405162461bcd60e51b815260206004820152602860248201527f43726f776473616c653a206361702069732062656c6c6f772063757272656e636044820152671e481c985a5cd95960c21b60648201526084016109dd565b6101678190556040518181527f04b847fea6b95515f8ef8fa76a5e06d1dc35b0c6dbf10ced7acd9d5d93808f8d90602001610cb7565b600061091e826005612532565b6000611e20611a3d565b611e28611ba1565b61015f54611e3e906001600160a01b0316611b87565b6001600160a01b0316336001600160a01b031614611eb75760405162461bcd60e51b815260206004820152603060248201527f43726f776473616c653a2043616c6c6572206d7573742062652073656375726960448201526f3a34bd30ba34b7b71036b0b730b3b2b960811b60648201526084016109dd565b61016854821015611f145760405162461bcd60e51b815260206004820152602160248201527f43726f776473616c653a204c657373207468616e206d696e426964416d6f756e6044820152601d60fa1b60648201526084016109dd565b6000611f1f836114a4565b9050611f2c8484836125e1565b826101656000828254611f3f9190612f2e565b90915550506001600160a01b0384166000908152610169602052604081208054859290611f6d908490612f2e565b90915550506101605460408051636eb4458760e11b815290516001600160a01b0390921691829163dd688b0e9160048083019260209291908290030181865afa158015611fbe573d6000803e3d6000fd5b505050506040513d601f19601f82011682018060405250810190611fe291906130f2565b61202e5760405162461bcd60e51b815260206004820152601f60248201527f43726f776473616c653a20457863656564732044656274204365696c696e670060448201526064016109dd565b8161016660008282546120419190612f2e565b90915550612051905086856125ec565b61205b8583611a85565b60408051858152602081018490526001600160a01b0387169133917f6faf93231a456e552dbc9961f58d9713ee4f2e69d15f1975b050ef0911053a7b910160405180910390a361016054604080516325d11b1d60e11b81529051612117926001600160a01b031691634ba2363a9160048083019260209291908290030181865afa1580156120ed573d6000803e3d6000fd5b505050506040513d601f19601f82011682018060405250810190612111919061310f565b856126cf565b509050610f986001606555565b600054610100900460ff1661214b5760405162461bcd60e51b81526004016109dd9061312c565b612154336127a4565b61015f80546001600160a01b039586166001600160a01b0319918216179091556101608054948616948216949094179093556101618054928516928416929092179091556101628054919093169116179055565b6121b28282610f9f565b610bfe576121bf81612817565b6121ca836020612829565b6040516020016121db92919061319b565b60408051601f198184030181529082905262461bcd60e51b82526109dd91600401613210565b610161546001600160a01b0316600060ff16816001600160a01b031662b7f6816040518163ffffffff1660e01b8152600401602060405180830381865afa158015612250573d6000803e3d6000fd5b505050506040513d601f19601f820116820180604052508101906122749190612fa4565b60ff161480156122e35750806001600160a01b03166318160ddd6040518163ffffffff1660e01b8152600401602060405180830381865afa1580156122bd573d6000803e3d6000fd5b505050506040513d601f19601f820116820180604052508101906122e19190612f15565b155b1561236b57610164805468ffffffffffffffff0019166101004267ffffffffffffffff160217905561016054604080516301aab1fb60e21b815290516001600160a01b03909216916306aac7ec9160048082019260009290919082900301818387803b15801561235257600080fd5b505af1158015612366573d6000803e3d6000fd5b505050505b6040516340c10f1960e01b81526001600160a01b038481166004830152602482018490528216906340c10f1990604401600060405180830381600087803b1580156123b557600080fd5b505af11580156123c9573d6000803e3d6000fd5b50505050505050565b6123dc8282610f9f565b610bfe57600082815260c9602090815260408083206001600160a01b03851684529091529020805460ff191660011790556124143390565b6001600160a01b0316816001600160a01b0316837f2f8788117e7eff1d82e926ec794901d17c78024a50270940304540a733656f0d60405160405180910390a45050565b6000610f98836001600160a01b0384166129c5565b6124778282610f9f565b15610bfe57600082815260c9602090815260408083206001600160a01b0385168085529252808320805460ff1916905551339285917ff6391f5c32d9c69d2a47ea670b442974b53935d1edc7fd64eb21e047a839171b9190a45050565b6000610f98836001600160a01b038416612a14565b60335460ff16611a835760405162461bcd60e51b815260206004820152601460248201527314185d5cd8589b194e881b9bdd081c185d5cd95960621b60448201526064016109dd565b6000826001600160a01b031663bcaa0c5583601b811115612555576125556130dc565b6040516001600160e01b031960e084901b16815260ff9091166004820152602401602060405180830381865afa158015612593573d6000803e3d6000fd5b505050506040513d601f19601f82011682018060405250810190610f98919061310f565b60008260000182815481106125ce576125ce613243565b9060005260206000200154905092915050565b610952838383612b07565b610162546040516323b872dd60e01b81526001600160a01b03848116600483015230602483015260448201849052909116906323b872dd906064016020604051808303816000875af1158015612646573d6000803e3d6000fd5b505050506040513d601f19601f8201168201806040525081019061266a91906130f2565b610bfe5760405162461bcd60e51b815260206004820152603060248201527f4661696c20746f207472616e736665722063757272656e63792066726f6d207060448201526f185e5959481d1bc818dbdb9d1c9858dd60821b60648201526084016109dd565b6101625460405163a9059cbb60e01b81526001600160a01b038481166004830152602482018490529091169063a9059cbb906044016020604051808303816000875af1158015612723573d6000803e3d6000fd5b505050506040513d601f19601f8201168201806040525081019061274791906130f2565b610bfe5760405162461bcd60e51b815260206004820152602860248201527f4661696c20746f207472616e736665722063757272656e637920746f2042656e604482015267656669636961727960c01b60648201526084016109dd565b600054610100900460ff166127cb5760405162461bcd60e51b81526004016109dd9061312c565b6001600160a01b0381166127dc5750335b6127e7600033612c64565b6127ff60008051602061329d83398151915282612c64565b610c1560008051602061329d833981519152806119f2565b606061091e6001600160a01b03831660145b60606000612838836002612eb4565b612843906002612f2e565b67ffffffffffffffff81111561285b5761285b613259565b6040519080825280601f01601f191660200182016040528015612885576020820181803683370190505b509050600360fc1b816000815181106128a0576128a0613243565b60200101906001600160f81b031916908160001a905350600f60fb1b816001815181106128cf576128cf613243565b60200101906001600160f81b031916908160001a90535060006128f3846002612eb4565b6128fe906001612f2e565b90505b6001811115612976576f181899199a1a9b1b9c1cb0b131b232b360811b85600f166010811061293257612932613243565b1a60f81b82828151811061294857612948613243565b60200101906001600160f81b031916908160001a90535060049490941c9361296f8161326f565b9050612901565b508315610f985760405162461bcd60e51b815260206004820181905260248201527f537472696e67733a20686578206c656e67746820696e73756666696369656e7460448201526064016109dd565b6000818152600183016020526040812054612a0c5750815460018181018455600084815260208082209093018490558454848252828601909352604090209190915561091e565b50600061091e565b60008181526001830160205260408120548015612afd576000612a38600183612f91565b8554909150600090612a4c90600190612f91565b9050818114612ab1576000866000018281548110612a6c57612a6c613243565b9060005260206000200154905080876000018481548110612a8f57612a8f613243565b6000918252602080832090910192909255918252600188019052604090208390555b8554869080612ac257612ac2613286565b60019003818190600052602060002001600090559055856001016000868152602001908152602001600020600090556001935050505061091e565b600091505061091e565b6001600160a01b038316612b6c5760405162461bcd60e51b815260206004820152602660248201527f43726f776473616c653a2062656e6566696369617279206973207a65726f206160448201526564647265737360d01b60648201526084016109dd565b80600003612bbc5760405162461bcd60e51b815260206004820152601c60248201527f43726f776473616c653a20746f6b656e20616d6f756e7420697320300000000060448201526064016109dd565b6101645460ff16612c0f5760405162461bcd60e51b815260206004820152601b60248201527f43726f776473616c653a2073616c65206e6f742073746172746564000000000060448201526064016109dd565b612c1882610f50565b6109525760405162461bcd60e51b815260206004820152601760248201527f43726f776473616c653a2063617020657863656564656400000000000000000060448201526064016109dd565b610bfe8282611af1565b600060208284031215612c8057600080fd5b81356001600160e01b031981168114610f9857600080fd5b6001600160a01b0381168114610c1557600080fd5b600060208284031215612cbf57600080fd5b8135610f9881612c98565b60008060408385031215612cdd57600080fd5b50508035926020909101359150565b600060208284031215612cfe57600080fd5b5035919050565b8015158114610c1557600080fd5b60008060408385031215612d2657600080fd5b8235612d3181612d05565b91506020830135612d4181612c98565b809150509250929050565b60008060408385031215612d5f57600080fd5b823591506020830135612d4181612c98565b600060208284031215612d8357600080fd5b8135610f9881612d05565b600080600060608486031215612da357600080fd5b505081359360208301359350604090920135919050565b60008060008060808587031215612dd057600080fd5b5050823594602084013594506040840135936060013592509050565b600080600060608486031215612e0157600080fd5b8335612e0c81612c98565b92506020840135612e1c81612c98565b929592945050506040919091013590565b600080600080600060a08688031215612e4557600080fd5b8535612e5081612c98565b94506020860135612e6081612c98565b93506040860135612e7081612c98565b92506060860135612e8081612c98565b91506080860135612e9081612d05565b809150509295509295909350565b634e487b7160e01b600052601160045260246000fd5b808202811582820484141761091e5761091e612e9e565b6020808252602a908201527f43726f776473616c653a2063616c6c6572206d757374206265206f776e65722060408201526937b91036b0b730b3b2b960b11b606082015260800190565b600060208284031215612f2757600080fd5b5051919050565b8082018082111561091e5761091e612e9e565b60208082526030908201527f4d696e7465644e6f726d616c5447453a2043616c6c6572206d7573742062652060408201526f37bbb732b91037b91036b0b730b3b2b960811b606082015260800190565b8181038181111561091e5761091e612e9e565b600060208284031215612fb657600080fd5b815160ff81168114610f9857600080fd5b600181815b80851115613002578160001904821115612fe857612fe8612e9e565b80851615612ff557918102915b93841c9390800290612fcc565b509250929050565b6000826130195750600161091e565b816130265750600061091e565b816001811461303c576002811461304657613062565b600191505061091e565b60ff84111561305757613057612e9e565b50506001821b61091e565b5060208310610133831016604e8410600b8410161715613085575081810a61091e565b61308f8383612fc7565b80600019048211156130a3576130a3612e9e565b029392505050565b6000610f9860ff84168361300a565b6000826130d757634e487b7160e01b600052601260045260246000fd5b500490565b634e487b7160e01b600052602160045260246000fd5b60006020828403121561310457600080fd5b8151610f9881612d05565b60006020828403121561312157600080fd5b8151610f9881612c98565b6020808252602b908201527f496e697469616c697a61626c653a20636f6e7472616374206973206e6f74206960408201526a6e697469616c697a696e6760a81b606082015260800190565b60005b8381101561319257818101518382015260200161317a565b50506000910152565b7f416363657373436f6e74726f6c3a206163636f756e74200000000000000000008152600083516131d3816017850160208801613177565b7001034b99036b4b9b9b4b733903937b6329607d1b6017918401918201528351613204816028840160208801613177565b01602801949350505050565b602081526000825180602084015261322f816040850160208701613177565b601f01601f19169190910160400192915050565b634e487b7160e01b600052603260045260246000fd5b634e487b7160e01b600052604160045260246000fd5b60008161327e5761327e612e9e565b506000190190565b634e487b7160e01b600052603160045260246000fdfeb19546dff01e856fb3f010c267a7b1c60363cf8a4664e21cc89c26224620214ea264697066735822122034f0e66216996317e61045bebef353946c110a9fe96487e5a828cee1cffebbae64736f6c63430008130033",
  "devdoc": {
    "author": "Untangled Team",
    "details": "Note sale for JOT",
    "events": {
      "Initialized(uint8)": {
        "details": "Triggered when the contract has been initialized or reinitialized."
      },
      "Paused(address)": {
        "details": "Emitted when the pause is triggered by `account`."
      },
      "RoleAdminChanged(bytes32,bytes32,bytes32)": {
        "details": "Emitted when `newAdminRole` is set as ``role``'s admin role, replacing `previousAdminRole` `DEFAULT_ADMIN_ROLE` is the starting admin for all roles, despite {RoleAdminChanged} not being emitted signaling this. _Available since v3.1._"
      },
      "RoleGranted(bytes32,address,address)": {
        "details": "Emitted when `account` is granted `role`. `sender` is the account that originated the contract call, an admin role bearer except when using {AccessControl-_setupRole}."
      },
      "RoleRevoked(bytes32,address,address)": {
        "details": "Emitted when `account` is revoked `role`. `sender` is the account that originated the contract call:   - if using `revokeRole`, it is the admin role bearer   - if using `renounceRole`, it is the role bearer (i.e. `account`)"
      },
      "Unpaused(address)": {
        "details": "Emitted when the pause is lifted by `account`."
      }
    },
    "kind": "dev",
    "methods": {
      "finalize(bool,address)": {
        "details": "Validates that the crowdsale has not already been finalized and that it has either closed or reached the total cap",
        "params": {
          "claimRemainToken": "claim remaining token or not",
          "remainTokenRecipient": "Wallet will receive remaining token"
        }
      },
      "getRoleAdmin(bytes32)": {
        "details": "Returns the admin role that controls `role`. See {grantRole} and {revokeRole}. To change a role's admin, use {_setRoleAdmin}."
      },
      "getRoleMember(bytes32,uint256)": {
        "details": "Returns one of the accounts that have `role`. `index` must be a value between 0 and {getRoleMemberCount}, non-inclusive. Role bearers are not sorted in any particular way, and their ordering may change at any point. WARNING: When using {getRoleMember} and {getRoleMemberCount}, make sure you perform all queries on the same block. See the following https://forum.openzeppelin.com/t/iterating-over-elements-on-enumerableset-in-openzeppelin-contracts/2296[forum post] for more information."
      },
      "getRoleMemberCount(bytes32)": {
        "details": "Returns the number of accounts that have `role`. Can be used together with {getRoleMember} to enumerate all bearers of a role."
      },
      "getTokenAmount(uint256)": {
        "details": "This is an abstract function that needs to be implemented in derived contracts"
      },
      "grantRole(bytes32,address)": {
        "details": "Grants `role` to `account`. If `account` had not been already granted `role`, emits a {RoleGranted} event. Requirements: - the caller must have ``role``'s admin role. May emit a {RoleGranted} event."
      },
      "hasRole(bytes32,address)": {
        "details": "Returns `true` if `account` has been granted `role`."
      },
      "isLongSale()": {
        "details": "This is an abstract function that needs to be implemented in derived contracts"
      },
      "onRedeem(uint256)": {
        "params": {
          "currencyAmount": "amount of currency investor want to redeem"
        }
      },
      "paused()": {
        "details": "Returns true if the contract is paused, and false otherwise."
      },
      "renounceRole(bytes32,address)": {
        "details": "Revokes `role` from the calling account. Roles are often managed via {grantRole} and {revokeRole}: this function's purpose is to provide a mechanism for accounts to lose their privileges if they are compromised (such as when a trusted device is misplaced). If the calling account had been revoked `role`, emits a {RoleRevoked} event. Requirements: - the caller must be `account`. May emit a {RoleRevoked} event."
      },
      "revokeRole(bytes32,address)": {
        "details": "Revokes `role` from `account`. If `account` had been granted `role`, emits a {RoleRevoked} event. Requirements: - the caller must have ``role``'s admin role. May emit a {RoleRevoked} event."
      },
      "setInitialAmount(uint256)": {
        "params": {
          "_initialAmount": "Expected minimum amount of JOT before SOT start"
        }
      },
      "setMinBidAmount(uint256)": {
        "params": {
          "_minBidAmount": "Expected minimum amount"
        }
      },
      "setUsingTimeLimit(bool)": {
        "details": "Sets the isEnableTimeLimit variable to the specified value"
      },
      "setYield(uint256)": {
        "details": "Sets the yield variable to the specified value"
      },
      "startNewRoundSale(uint256,uint256,uint256,uint256)": {
        "params": {
          "cap_": "Target amount of raised currency",
          "closingTime_": "Define when the sale should end",
          "openingTime_": "Define when the sale should start"
        }
      },
      "supportsInterface(bytes4)": {
        "details": "See {IERC165-supportsInterface}."
      }
    },
    "title": "MintedNormalTGE",
    "version": 1
  },
  "userdoc": {
    "kind": "user",
    "methods": {
      "addFunding(uint256)": {
        "notice": "add funding amount to be added to the total cap"
      },
      "extendTime(uint256)": {
        "notice": "Updates the closing time with the new closing time"
      },
      "getCurrencyRemainAmount()": {
        "notice": "Calculates the remaining amount of currency available for purchase"
      },
      "getTokenAmount(uint256)": {
        "notice": "Calculates the corresponding token amount based on the currency amount and the current rate"
      },
      "getTokenRemainAmount()": {
        "notice": "Retrieves the remaining token balance held by the crowdsale contract"
      },
      "isDistributedFully()": {
        "notice": "Check if the total amount of currency raised is equal to the total cap"
      },
      "isLongSale()": {
        "notice": "Determines whether the current sale round is a long sale"
      },
      "isUnderTotalCap(uint256)": {
        "notice": "Checks if the sum of the current currency raised and the specified currency amount is less than or equal to the total cap"
      },
      "newSaleRoundTime(uint256,uint256)": {
        "notice": "Updates the opening time and closing time accordingly"
      },
      "onRedeem(uint256)": {
        "notice": "Catch event redeem token"
      },
      "setHasStarted(bool)": {
        "notice": "Set hasStarted variable"
      },
      "setInitialAmount(uint256)": {
        "notice": "Setup initial amount currency raised for JOT condition"
      },
      "setMinBidAmount(uint256)": {
        "notice": "Setup minimum bid amount in currency for note token"
      },
      "startNewRoundSale(uint256,uint256,uint256,uint256)": {
        "notice": "Setup a new round sale for note token"
      },
      "totalCapReached()": {
        "notice": "Checks if the total amount of currency raised is greater than or equal to the total cap"
      }
    },
    "version": 1
  },
  "storageLayout": {
    "storage": [
      {
        "astId": 765,
        "contract": "contracts/protocol/note-sale/MintedNormalTGE.sol:MintedNormalTGE",
        "label": "_initialized",
        "offset": 0,
        "slot": "0",
        "type": "t_uint8"
      },
      {
        "astId": 768,
        "contract": "contracts/protocol/note-sale/MintedNormalTGE.sol:MintedNormalTGE",
        "label": "_initializing",
        "offset": 1,
        "slot": "0",
        "type": "t_bool"
      },
      {
        "astId": 4282,
        "contract": "contracts/protocol/note-sale/MintedNormalTGE.sol:MintedNormalTGE",
        "label": "__gap",
        "offset": 0,
        "slot": "1",
        "type": "t_array(t_uint256)50_storage"
      },
      {
        "astId": 948,
        "contract": "contracts/protocol/note-sale/MintedNormalTGE.sol:MintedNormalTGE",
        "label": "_paused",
        "offset": 0,
        "slot": "51",
        "type": "t_bool"
      },
      {
        "astId": 1053,
        "contract": "contracts/protocol/note-sale/MintedNormalTGE.sol:MintedNormalTGE",
        "label": "__gap",
        "offset": 0,
        "slot": "52",
        "type": "t_array(t_uint256)49_storage"
      },
      {
        "astId": 1068,
        "contract": "contracts/protocol/note-sale/MintedNormalTGE.sol:MintedNormalTGE",
        "label": "_status",
        "offset": 0,
        "slot": "101",
        "type": "t_uint256"
      },
      {
        "astId": 1137,
        "contract": "contracts/protocol/note-sale/MintedNormalTGE.sol:MintedNormalTGE",
        "label": "__gap",
        "offset": 0,
        "slot": "102",
        "type": "t_array(t_uint256)49_storage"
      },
      {
        "astId": 5572,
        "contract": "contracts/protocol/note-sale/MintedNormalTGE.sol:MintedNormalTGE",
        "label": "__gap",
        "offset": 0,
        "slot": "151",
        "type": "t_array(t_uint256)50_storage"
      },
      {
        "astId": 184,
        "contract": "contracts/protocol/note-sale/MintedNormalTGE.sol:MintedNormalTGE",
        "label": "_roles",
        "offset": 0,
        "slot": "201",
        "type": "t_mapping(t_bytes32,t_struct(RoleData)179_storage)"
      },
      {
        "astId": 479,
        "contract": "contracts/protocol/note-sale/MintedNormalTGE.sol:MintedNormalTGE",
        "label": "__gap",
        "offset": 0,
        "slot": "202",
        "type": "t_array(t_uint256)49_storage"
      },
      {
        "astId": 33,
        "contract": "contracts/protocol/note-sale/MintedNormalTGE.sol:MintedNormalTGE",
        "label": "_roleMembers",
        "offset": 0,
        "slot": "251",
        "type": "t_mapping(t_bytes32,t_struct(AddressSet)6882_storage)"
      },
      {
        "astId": 143,
        "contract": "contracts/protocol/note-sale/MintedNormalTGE.sol:MintedNormalTGE",
        "label": "__gap",
        "offset": 0,
        "slot": "252",
        "type": "t_array(t_uint256)49_storage"
      },
      {
        "astId": 10532,
        "contract": "contracts/protocol/note-sale/MintedNormalTGE.sol:MintedNormalTGE",
        "label": "__gap",
        "offset": 0,
        "slot": "301",
        "type": "t_array(t_uint256)50_storage"
      },
      {
        "astId": 16334,
        "contract": "contracts/protocol/note-sale/MintedNormalTGE.sol:MintedNormalTGE",
        "label": "registry",
        "offset": 0,
        "slot": "351",
        "type": "t_contract(Registry)33424"
      },
      {
        "astId": 16343,
        "contract": "contracts/protocol/note-sale/MintedNormalTGE.sol:MintedNormalTGE",
        "label": "pool",
        "offset": 0,
        "slot": "352",
        "type": "t_address"
      },
      {
        "astId": 16347,
        "contract": "contracts/protocol/note-sale/MintedNormalTGE.sol:MintedNormalTGE",
        "label": "token",
        "offset": 0,
        "slot": "353",
        "type": "t_address"
      },
      {
        "astId": 16350,
        "contract": "contracts/protocol/note-sale/MintedNormalTGE.sol:MintedNormalTGE",
        "label": "currency",
        "offset": 0,
        "slot": "354",
        "type": "t_address"
      },
      {
        "astId": 16352,
        "contract": "contracts/protocol/note-sale/MintedNormalTGE.sol:MintedNormalTGE",
        "label": "rate",
        "offset": 0,
        "slot": "355",
        "type": "t_uint256"
      },
      {
        "astId": 16354,
        "contract": "contracts/protocol/note-sale/MintedNormalTGE.sol:MintedNormalTGE",
        "label": "hasStarted",
        "offset": 0,
        "slot": "356",
        "type": "t_bool"
      },
      {
        "astId": 16356,
        "contract": "contracts/protocol/note-sale/MintedNormalTGE.sol:MintedNormalTGE",
        "label": "firstNoteTokenMintedTimestamp",
        "offset": 1,
        "slot": "356",
        "type": "t_uint64"
      },
      {
        "astId": 16359,
        "contract": "contracts/protocol/note-sale/MintedNormalTGE.sol:MintedNormalTGE",
        "label": "_currencyRaised",
        "offset": 0,
        "slot": "357",
        "type": "t_uint256"
      },
      {
        "astId": 16362,
        "contract": "contracts/protocol/note-sale/MintedNormalTGE.sol:MintedNormalTGE",
        "label": "tokenRaised",
        "offset": 0,
        "slot": "358",
        "type": "t_uint256"
      },
      {
        "astId": 16365,
        "contract": "contracts/protocol/note-sale/MintedNormalTGE.sol:MintedNormalTGE",
        "label": "totalCap",
        "offset": 0,
        "slot": "359",
        "type": "t_uint256"
      },
      {
        "astId": 16368,
        "contract": "contracts/protocol/note-sale/MintedNormalTGE.sol:MintedNormalTGE",
        "label": "minBidAmount",
        "offset": 0,
        "slot": "360",
        "type": "t_uint256"
      },
      {
        "astId": 16372,
        "contract": "contracts/protocol/note-sale/MintedNormalTGE.sol:MintedNormalTGE",
        "label": "_currencyRaisedByInvestor",
        "offset": 0,
        "slot": "361",
        "type": "t_mapping(t_address,t_uint256)"
      },
      {
        "astId": 17017,
        "contract": "contracts/protocol/note-sale/MintedNormalTGE.sol:MintedNormalTGE",
        "label": "__gap",
        "offset": 0,
        "slot": "362",
        "type": "t_array(t_uint256)40_storage"
      },
      {
        "astId": 17417,
        "contract": "contracts/protocol/note-sale/MintedNormalTGE.sol:MintedNormalTGE",
        "label": "openingTime",
        "offset": 0,
        "slot": "402",
        "type": "t_uint256"
      },
      {
        "astId": 17419,
        "contract": "contracts/protocol/note-sale/MintedNormalTGE.sol:MintedNormalTGE",
        "label": "closingTime",
        "offset": 0,
        "slot": "403",
        "type": "t_uint256"
      },
      {
        "astId": 17421,
        "contract": "contracts/protocol/note-sale/MintedNormalTGE.sol:MintedNormalTGE",
        "label": "isEnableTimeLimit",
        "offset": 0,
        "slot": "404",
        "type": "t_bool"
      },
      {
        "astId": 17637,
        "contract": "contracts/protocol/note-sale/MintedNormalTGE.sol:MintedNormalTGE",
        "label": "__gap",
        "offset": 0,
        "slot": "405",
        "type": "t_array(t_uint256)47_storage"
      },
      {
        "astId": 17029,
        "contract": "contracts/protocol/note-sale/MintedNormalTGE.sol:MintedNormalTGE",
        "label": "_finalized",
        "offset": 0,
        "slot": "452",
        "type": "t_bool"
      },
      {
        "astId": 17125,
        "contract": "contracts/protocol/note-sale/MintedNormalTGE.sol:MintedNormalTGE",
        "label": "__gap",
        "offset": 0,
        "slot": "453",
        "type": "t_array(t_uint256)49_storage"
      },
      {
        "astId": 16299,
        "contract": "contracts/protocol/note-sale/MintedNormalTGE.sol:MintedNormalTGE",
        "label": "__gap",
        "offset": 0,
        "slot": "502",
        "type": "t_array(t_uint256)50_storage"
      },
      {
        "astId": 15900,
        "contract": "contracts/protocol/note-sale/MintedNormalTGE.sol:MintedNormalTGE",
        "label": "longSale",
        "offset": 0,
        "slot": "552",
        "type": "t_bool"
      },
      {
        "astId": 15902,
        "contract": "contracts/protocol/note-sale/MintedNormalTGE.sol:MintedNormalTGE",
        "label": "timeStartEarningInterest",
        "offset": 0,
        "slot": "553",
        "type": "t_uint256"
      },
      {
        "astId": 15904,
        "contract": "contracts/protocol/note-sale/MintedNormalTGE.sol:MintedNormalTGE",
        "label": "termLengthInSeconds",
        "offset": 0,
        "slot": "554",
        "type": "t_uint256"
      },
      {
        "astId": 15906,
        "contract": "contracts/protocol/note-sale/MintedNormalTGE.sol:MintedNormalTGE",
        "label": "interestRate",
        "offset": 0,
        "slot": "555",
        "type": "t_uint256"
      },
      {
        "astId": 15908,
        "contract": "contracts/protocol/note-sale/MintedNormalTGE.sol:MintedNormalTGE",
        "label": "yield",
        "offset": 0,
        "slot": "556",
        "type": "t_uint256"
      },
      {
        "astId": 15910,
        "contract": "contracts/protocol/note-sale/MintedNormalTGE.sol:MintedNormalTGE",
        "label": "initialAmount",
        "offset": 0,
        "slot": "557",
        "type": "t_uint256"
      },
      {
        "astId": 15912,
        "contract": "contracts/protocol/note-sale/MintedNormalTGE.sol:MintedNormalTGE",
        "label": "pickedInterest",
        "offset": 0,
        "slot": "558",
        "type": "t_uint32"
      },
      {
        "astId": 15914,
        "contract": "contracts/protocol/note-sale/MintedNormalTGE.sol:MintedNormalTGE",
        "label": "saleType",
        "offset": 4,
        "slot": "558",
        "type": "t_uint8"
      },
      {
        "astId": 16252,
        "contract": "contracts/protocol/note-sale/MintedNormalTGE.sol:MintedNormalTGE",
        "label": "__gap",
        "offset": 0,
        "slot": "559",
        "type": "t_array(t_uint256)45_storage"
      }
    ],
    "types": {
      "t_address": {
        "encoding": "inplace",
        "label": "address",
        "numberOfBytes": "20"
      },
      "t_array(t_bytes32)dyn_storage": {
        "base": "t_bytes32",
        "encoding": "dynamic_array",
        "label": "bytes32[]",
        "numberOfBytes": "32"
      },
      "t_array(t_uint256)40_storage": {
        "base": "t_uint256",
        "encoding": "inplace",
        "label": "uint256[40]",
        "numberOfBytes": "1280"
      },
      "t_array(t_uint256)45_storage": {
        "base": "t_uint256",
        "encoding": "inplace",
        "label": "uint256[45]",
        "numberOfBytes": "1440"
      },
      "t_array(t_uint256)47_storage": {
        "base": "t_uint256",
        "encoding": "inplace",
        "label": "uint256[47]",
        "numberOfBytes": "1504"
      },
      "t_array(t_uint256)49_storage": {
        "base": "t_uint256",
        "encoding": "inplace",
        "label": "uint256[49]",
        "numberOfBytes": "1568"
      },
      "t_array(t_uint256)50_storage": {
        "base": "t_uint256",
        "encoding": "inplace",
        "label": "uint256[50]",
        "numberOfBytes": "1600"
      },
      "t_bool": {
        "encoding": "inplace",
        "label": "bool",
        "numberOfBytes": "1"
      },
      "t_bytes32": {
        "encoding": "inplace",
        "label": "bytes32",
        "numberOfBytes": "32"
      },
      "t_contract(Registry)33424": {
        "encoding": "inplace",
        "label": "contract Registry",
        "numberOfBytes": "20"
      },
      "t_mapping(t_address,t_bool)": {
        "encoding": "mapping",
        "key": "t_address",
        "label": "mapping(address => bool)",
        "numberOfBytes": "32",
        "value": "t_bool"
      },
      "t_mapping(t_address,t_uint256)": {
        "encoding": "mapping",
        "key": "t_address",
        "label": "mapping(address => uint256)",
        "numberOfBytes": "32",
        "value": "t_uint256"
      },
      "t_mapping(t_bytes32,t_struct(AddressSet)6882_storage)": {
        "encoding": "mapping",
        "key": "t_bytes32",
        "label": "mapping(bytes32 => struct EnumerableSetUpgradeable.AddressSet)",
        "numberOfBytes": "32",
        "value": "t_struct(AddressSet)6882_storage"
      },
      "t_mapping(t_bytes32,t_struct(RoleData)179_storage)": {
        "encoding": "mapping",
        "key": "t_bytes32",
        "label": "mapping(bytes32 => struct AccessControlUpgradeable.RoleData)",
        "numberOfBytes": "32",
        "value": "t_struct(RoleData)179_storage"
      },
      "t_mapping(t_bytes32,t_uint256)": {
        "encoding": "mapping",
        "key": "t_bytes32",
        "label": "mapping(bytes32 => uint256)",
        "numberOfBytes": "32",
        "value": "t_uint256"
      },
      "t_struct(AddressSet)6882_storage": {
        "encoding": "inplace",
        "label": "struct EnumerableSetUpgradeable.AddressSet",
        "members": [
          {
            "astId": 6881,
            "contract": "contracts/protocol/note-sale/MintedNormalTGE.sol:MintedNormalTGE",
            "label": "_inner",
            "offset": 0,
            "slot": "0",
            "type": "t_struct(Set)6567_storage"
          }
        ],
        "numberOfBytes": "64"
      },
      "t_struct(RoleData)179_storage": {
        "encoding": "inplace",
        "label": "struct AccessControlUpgradeable.RoleData",
        "members": [
          {
            "astId": 176,
            "contract": "contracts/protocol/note-sale/MintedNormalTGE.sol:MintedNormalTGE",
            "label": "members",
            "offset": 0,
            "slot": "0",
            "type": "t_mapping(t_address,t_bool)"
          },
          {
            "astId": 178,
            "contract": "contracts/protocol/note-sale/MintedNormalTGE.sol:MintedNormalTGE",
            "label": "adminRole",
            "offset": 0,
            "slot": "1",
            "type": "t_bytes32"
          }
        ],
        "numberOfBytes": "64"
      },
      "t_struct(Set)6567_storage": {
        "encoding": "inplace",
        "label": "struct EnumerableSetUpgradeable.Set",
        "members": [
          {
            "astId": 6562,
            "contract": "contracts/protocol/note-sale/MintedNormalTGE.sol:MintedNormalTGE",
            "label": "_values",
            "offset": 0,
            "slot": "0",
            "type": "t_array(t_bytes32)dyn_storage"
          },
          {
            "astId": 6566,
            "contract": "contracts/protocol/note-sale/MintedNormalTGE.sol:MintedNormalTGE",
            "label": "_indexes",
            "offset": 0,
            "slot": "1",
            "type": "t_mapping(t_bytes32,t_uint256)"
          }
        ],
        "numberOfBytes": "64"
      },
      "t_uint256": {
        "encoding": "inplace",
        "label": "uint256",
        "numberOfBytes": "32"
      },
      "t_uint32": {
        "encoding": "inplace",
        "label": "uint32",
        "numberOfBytes": "4"
      },
      "t_uint64": {
        "encoding": "inplace",
        "label": "uint64",
        "numberOfBytes": "8"
      },
      "t_uint8": {
        "encoding": "inplace",
        "label": "uint8",
        "numberOfBytes": "1"
      }
    }
  }
}