{
  "address": "0x920e4682f1eCC9Da05bCf68fCBeA9e093a978553",
  "abi": [
    {
      "anonymous": false,
      "inputs": [
        {
          "indexed": false,
          "internalType": "address",
          "name": "pool",
          "type": "address"
        },
        {
          "indexed": false,
          "internalType": "address",
          "name": "noteTokenAddress",
          "type": "address"
        },
        {
          "indexed": false,
          "internalType": "address",
          "name": "usr",
          "type": "address"
        },
        {
          "indexed": false,
          "internalType": "uint256",
          "name": "noteTokenRedeemAmount",
          "type": "uint256"
        }
      ],
      "name": "CancelOrder",
      "type": "event"
    },
    {
      "anonymous": false,
      "inputs": [
        {
          "indexed": false,
          "internalType": "address",
          "name": "pool",
          "type": "address"
        },
        {
          "indexed": false,
          "internalType": "address",
          "name": "noteTokenAddress",
          "type": "address"
        },
        {
          "indexed": false,
          "internalType": "address[]",
          "name": "toAddresses",
          "type": "address[]"
        },
        {
          "indexed": false,
          "internalType": "uint256[]",
          "name": "amounts",
          "type": "uint256[]"
        },
        {
          "indexed": false,
          "internalType": "uint256[]",
          "name": "redeemedAmount",
          "type": "uint256[]"
        }
      ],
      "name": "DisburseOrder",
      "type": "event"
    },
    {
      "anonymous": false,
      "inputs": [
        {
          "indexed": false,
          "internalType": "uint8",
          "name": "version",
          "type": "uint8"
        }
      ],
      "name": "Initialized",
      "type": "event"
    },
    {
      "anonymous": false,
      "inputs": [
        {
          "indexed": false,
          "internalType": "address",
          "name": "account",
          "type": "address"
        }
      ],
      "name": "Paused",
      "type": "event"
    },
    {
      "anonymous": false,
      "inputs": [
        {
          "indexed": false,
          "internalType": "address",
          "name": "pool",
          "type": "address"
        },
        {
          "indexed": false,
          "internalType": "uint256",
          "name": "totalCurrencyAmount",
          "type": "uint256"
        },
        {
          "indexed": false,
          "internalType": "address[]",
          "name": "noteTokenAddresses",
          "type": "address[]"
        },
        {
          "indexed": false,
          "internalType": "uint256[]",
          "name": "totalRedeemedNoteAmounts",
          "type": "uint256[]"
        }
      ],
      "name": "PreDistribute",
      "type": "event"
    },
    {
      "anonymous": false,
      "inputs": [
        {
          "indexed": false,
          "internalType": "address",
          "name": "pool",
          "type": "address"
        },
        {
          "indexed": false,
          "internalType": "address",
          "name": "noteTokenAddress",
          "type": "address"
        },
        {
          "indexed": false,
          "internalType": "address",
          "name": "usr",
          "type": "address"
        },
        {
          "indexed": false,
          "internalType": "uint256",
          "name": "noteTokenRedeemAmount",
          "type": "uint256"
        },
        {
          "indexed": false,
          "internalType": "uint256",
          "name": "noteTokenPrice",
          "type": "uint256"
        }
      ],
      "name": "RedeemOrder",
      "type": "event"
    },
    {
      "anonymous": false,
      "inputs": [
        {
          "indexed": true,
          "internalType": "bytes32",
          "name": "role",
          "type": "bytes32"
        },
        {
          "indexed": true,
          "internalType": "bytes32",
          "name": "previousAdminRole",
          "type": "bytes32"
        },
        {
          "indexed": true,
          "internalType": "bytes32",
          "name": "newAdminRole",
          "type": "bytes32"
        }
      ],
      "name": "RoleAdminChanged",
      "type": "event"
    },
    {
      "anonymous": false,
      "inputs": [
        {
          "indexed": true,
          "internalType": "bytes32",
          "name": "role",
          "type": "bytes32"
        },
        {
          "indexed": true,
          "internalType": "address",
          "name": "account",
          "type": "address"
        },
        {
          "indexed": true,
          "internalType": "address",
          "name": "sender",
          "type": "address"
        }
      ],
      "name": "RoleGranted",
      "type": "event"
    },
    {
      "anonymous": false,
      "inputs": [
        {
          "indexed": true,
          "internalType": "bytes32",
          "name": "role",
          "type": "bytes32"
        },
        {
          "indexed": true,
          "internalType": "address",
          "name": "account",
          "type": "address"
        },
        {
          "indexed": true,
          "internalType": "address",
          "name": "sender",
          "type": "address"
        }
      ],
      "name": "RoleRevoked",
      "type": "event"
    },
    {
      "anonymous": false,
      "inputs": [
        {
          "indexed": false,
          "internalType": "address",
          "name": "pool",
          "type": "address"
        },
        {
          "indexed": false,
          "internalType": "bool",
          "name": "_redeemDisabled",
          "type": "bool"
        }
      ],
      "name": "SetRedeemDisabled",
      "type": "event"
    },
    {
      "anonymous": false,
      "inputs": [
        {
          "indexed": false,
          "internalType": "address",
          "name": "account",
          "type": "address"
        }
      ],
      "name": "Unpaused",
      "type": "event"
    },
    {
      "inputs": [],
      "name": "DEFAULT_ADMIN_ROLE",
      "outputs": [
        {
          "internalType": "bytes32",
          "name": "",
          "type": "bytes32"
        }
      ],
      "stateMutability": "view",
      "type": "function"
    },
    {
      "inputs": [
        {
          "components": [
            {
              "internalType": "address",
              "name": "pool",
              "type": "address"
            },
            {
              "internalType": "address",
              "name": "noteTokenAddress",
              "type": "address"
            },
            {
              "internalType": "uint256",
              "name": "maxTimestamp",
              "type": "uint256"
            }
          ],
          "internalType": "struct INoteTokenVault.CancelOrderParam",
          "name": "cancelParam",
          "type": "tuple"
        },
        {
          "internalType": "bytes",
          "name": "signature",
          "type": "bytes"
        }
      ],
      "name": "cancelOrder",
      "outputs": [],
      "stateMutability": "nonpayable",
      "type": "function"
    },
    {
      "inputs": [
        {
          "internalType": "address",
          "name": "pool",
          "type": "address"
        },
        {
          "internalType": "address",
          "name": "noteTokenAddress",
          "type": "address"
        },
        {
          "internalType": "address[]",
          "name": "toAddresses",
          "type": "address[]"
        },
        {
          "internalType": "uint256[]",
          "name": "currencyAmounts",
          "type": "uint256[]"
        },
        {
          "internalType": "uint256[]",
          "name": "redeemedNoteAmounts",
          "type": "uint256[]"
        }
      ],
      "name": "disburseAll",
      "outputs": [],
      "stateMutability": "nonpayable",
      "type": "function"
    },
    {
      "inputs": [
        {
          "internalType": "bytes32",
          "name": "role",
          "type": "bytes32"
        }
      ],
      "name": "getRoleAdmin",
      "outputs": [
        {
          "internalType": "bytes32",
          "name": "",
          "type": "bytes32"
        }
      ],
      "stateMutability": "view",
      "type": "function"
    },
    {
      "inputs": [
        {
          "internalType": "bytes32",
          "name": "role",
          "type": "bytes32"
        },
        {
          "internalType": "uint256",
          "name": "index",
          "type": "uint256"
        }
      ],
      "name": "getRoleMember",
      "outputs": [
        {
          "internalType": "address",
          "name": "",
          "type": "address"
        }
      ],
      "stateMutability": "view",
      "type": "function"
    },
    {
      "inputs": [
        {
          "internalType": "bytes32",
          "name": "role",
          "type": "bytes32"
        }
      ],
      "name": "getRoleMemberCount",
      "outputs": [
        {
          "internalType": "uint256",
          "name": "",
          "type": "uint256"
        }
      ],
      "stateMutability": "view",
      "type": "function"
    },
    {
      "inputs": [
        {
          "internalType": "bytes32",
          "name": "role",
          "type": "bytes32"
        },
        {
          "internalType": "address",
          "name": "account",
          "type": "address"
        }
      ],
      "name": "grantRole",
      "outputs": [],
      "stateMutability": "nonpayable",
      "type": "function"
    },
    {
      "inputs": [
        {
          "internalType": "address",
          "name": "sender",
          "type": "address"
        }
      ],
      "name": "hasAllowedUID",
      "outputs": [
        {
          "internalType": "bool",
          "name": "",
          "type": "bool"
        }
      ],
      "stateMutability": "view",
      "type": "function"
    },
    {
      "inputs": [
        {
          "internalType": "bytes32",
          "name": "role",
          "type": "bytes32"
        },
        {
          "internalType": "address",
          "name": "account",
          "type": "address"
        }
      ],
      "name": "hasRole",
      "outputs": [
        {
          "internalType": "bool",
          "name": "",
          "type": "bool"
        }
      ],
      "stateMutability": "view",
      "type": "function"
    },
    {
      "inputs": [
        {
          "internalType": "contract Registry",
          "name": "_registry",
          "type": "address"
        }
      ],
      "name": "initialize",
      "outputs": [],
      "stateMutability": "nonpayable",
      "type": "function"
    },
    {
      "inputs": [
        {
          "internalType": "address",
          "name": "",
          "type": "address"
        }
      ],
      "name": "nonces",
      "outputs": [
        {
          "internalType": "uint256",
          "name": "",
          "type": "uint256"
        }
      ],
      "stateMutability": "view",
      "type": "function"
    },
    {
      "inputs": [],
      "name": "paused",
      "outputs": [
        {
          "internalType": "bool",
          "name": "",
          "type": "bool"
        }
      ],
      "stateMutability": "view",
      "type": "function"
    },
    {
      "inputs": [
        {
          "internalType": "address",
          "name": "",
          "type": "address"
        }
      ],
      "name": "poolRedeemDisabled",
      "outputs": [
        {
          "internalType": "bool",
          "name": "",
          "type": "bool"
        }
      ],
      "stateMutability": "view",
      "type": "function"
    },
    {
      "inputs": [
        {
          "internalType": "address",
          "name": "",
          "type": "address"
        }
      ],
      "name": "poolTotalJOTRedeem",
      "outputs": [
        {
          "internalType": "uint256",
          "name": "",
          "type": "uint256"
        }
      ],
      "stateMutability": "view",
      "type": "function"
    },
    {
      "inputs": [
        {
          "internalType": "address",
          "name": "",
          "type": "address"
        }
      ],
      "name": "poolTotalSOTRedeem",
      "outputs": [
        {
          "internalType": "uint256",
          "name": "",
          "type": "uint256"
        }
      ],
      "stateMutability": "view",
      "type": "function"
    },
    {
      "inputs": [
        {
          "internalType": "address",
          "name": "",
          "type": "address"
        },
        {
          "internalType": "address",
          "name": "",
          "type": "address"
        }
      ],
      "name": "poolUserRedeems",
      "outputs": [
        {
          "internalType": "uint256",
          "name": "redeemSOTAmount",
          "type": "uint256"
        },
        {
          "internalType": "uint256",
          "name": "redeemJOTAmount",
          "type": "uint256"
        }
      ],
      "stateMutability": "view",
      "type": "function"
    },
    {
      "inputs": [
        {
          "internalType": "address",
          "name": "pool",
          "type": "address"
        },
        {
          "internalType": "uint256",
          "name": "totalCurrencyAmount",
          "type": "uint256"
        },
        {
          "internalType": "address[]",
          "name": "noteTokenAddresses",
          "type": "address[]"
        },
        {
          "internalType": "uint256[]",
          "name": "totalRedeemedNoteAmounts",
          "type": "uint256[]"
        }
      ],
      "name": "preDistribute",
      "outputs": [],
      "stateMutability": "nonpayable",
      "type": "function"
    },
    {
      "inputs": [
        {
          "internalType": "address",
          "name": "pool",
          "type": "address"
        }
      ],
      "name": "redeemDisabled",
      "outputs": [
        {
          "internalType": "bool",
          "name": "",
          "type": "bool"
        }
      ],
      "stateMutability": "view",
      "type": "function"
    },
    {
      "inputs": [
        {
          "components": [
            {
              "internalType": "address",
              "name": "pool",
              "type": "address"
            },
            {
              "internalType": "address",
              "name": "noteTokenAddress",
              "type": "address"
            },
            {
              "internalType": "uint256",
              "name": "noteTokenRedeemAmount",
              "type": "uint256"
            }
          ],
          "internalType": "struct INoteTokenVault.RedeemOrderParam",
          "name": "redeemParam",
          "type": "tuple"
        },
        {
          "internalType": "bytes",
          "name": "signature",
          "type": "bytes"
        }
      ],
      "name": "redeemOrder",
      "outputs": [],
      "stateMutability": "nonpayable",
      "type": "function"
    },
    {
      "inputs": [],
      "name": "registry",
      "outputs": [
        {
          "internalType": "contract Registry",
          "name": "",
          "type": "address"
        }
      ],
      "stateMutability": "view",
      "type": "function"
    },
    {
      "inputs": [
        {
          "internalType": "bytes32",
          "name": "role",
          "type": "bytes32"
        },
        {
          "internalType": "address",
          "name": "account",
          "type": "address"
        }
      ],
      "name": "renounceRole",
      "outputs": [],
      "stateMutability": "nonpayable",
      "type": "function"
    },
    {
      "inputs": [
        {
          "internalType": "bytes32",
          "name": "role",
          "type": "bytes32"
        },
        {
          "internalType": "address",
          "name": "account",
          "type": "address"
        }
      ],
      "name": "revokeRole",
      "outputs": [],
      "stateMutability": "nonpayable",
      "type": "function"
    },
    {
      "inputs": [
        {
          "internalType": "address",
          "name": "pool",
          "type": "address"
        },
        {
          "internalType": "bool",
          "name": "_redeemDisabled",
          "type": "bool"
        }
      ],
      "name": "setRedeemDisabled",
      "outputs": [],
      "stateMutability": "nonpayable",
      "type": "function"
    },
    {
      "inputs": [
        {
          "internalType": "bytes4",
          "name": "interfaceId",
          "type": "bytes4"
        }
      ],
      "name": "supportsInterface",
      "outputs": [
        {
          "internalType": "bool",
          "name": "",
          "type": "bool"
        }
      ],
      "stateMutability": "view",
      "type": "function"
    },
    {
      "inputs": [
        {
          "internalType": "address",
          "name": "pool",
          "type": "address"
        }
      ],
      "name": "totalJOTRedeem",
      "outputs": [
        {
          "internalType": "uint256",
          "name": "",
          "type": "uint256"
        }
      ],
      "stateMutability": "view",
      "type": "function"
    },
    {
      "inputs": [
        {
          "internalType": "address",
          "name": "pool",
          "type": "address"
        }
      ],
      "name": "totalSOTRedeem",
      "outputs": [
        {
          "internalType": "uint256",
          "name": "",
          "type": "uint256"
        }
      ],
      "stateMutability": "view",
      "type": "function"
    },
    {
      "inputs": [
        {
          "internalType": "address",
          "name": "pool",
          "type": "address"
        },
        {
          "internalType": "address",
          "name": "usr",
          "type": "address"
        }
      ],
      "name": "userRedeemJOTOrder",
      "outputs": [
        {
          "internalType": "uint256",
          "name": "",
          "type": "uint256"
        }
      ],
      "stateMutability": "view",
      "type": "function"
    },
    {
      "inputs": [
        {
          "internalType": "address",
          "name": "pool",
          "type": "address"
        },
        {
          "internalType": "address",
          "name": "usr",
          "type": "address"
        }
      ],
      "name": "userRedeemSOTOrder",
      "outputs": [
        {
          "internalType": "uint256",
          "name": "",
          "type": "uint256"
        }
      ],
      "stateMutability": "view",
      "type": "function"
    }
  ],
  "transactionHash": "0x8f6229c3776f77be70bb6a7b1de60a6060dff8522be38b542555cb000f778b0a",
  "args": [],
  "numDeployments": 7,
  "solcInputHash": "6a6d25912f4d6842e04217e9137cd399",
  "bytecode": "0x608060405234801561001057600080fd5b50612f64806100206000396000f3fe608060405234801561001057600080fd5b50600436106101c45760003560e01c80637ecebe00116100f9578063b024a66111610097578063d2ec28d611610071578063d2ec28d614610476578063d547741f146104b3578063f94f5a12146104c6578063fd4b6329146104d957600080fd5b8063b024a66114610416578063c4d66de814610450578063ca15c8731461046357600080fd5b80639010d07c116100d35780639010d07c146103d557806391d14854146103e8578063a217fddf146103fb578063a7be8fc71461040357600080fd5b80637ecebe001461038057806381678544146103a15780638be4c502146103b457600080fd5b80633a6a3a2511610166578063579ec66111610140578063579ec661146103125780635c975abb146103365780635e847dfa146103415780637b1039991461035457600080fd5b80633a6a3a25146102915780634c829e19146102bb5780634ce94519146102e557600080fd5b8063248a9ca3116101a2578063248a9ca3146102355780632f2ff15d14610258578063309093a21461026b57806336568abe1461027e57600080fd5b806301ffc9a7146101c957806312b08919146101f1578063205b747814610206575b600080fd5b6101dc6101d736600461267b565b610521565b60405190151581526020015b60405180910390f35b6102046101ff3660046126ff565b61054c565b005b610227610214366004612768565b61012f6020526000908152604090205481565b6040519081526020016101e8565b610227610243366004612785565b60009081526097602052604090206001015490565b61020461026636600461279e565b6108f7565b6102046102793660046127dc565b610921565b61020461028c36600461279e565b6109b0565b61022761029f366004612768565b6001600160a01b0316600090815261012f602052604090205490565b6102276102c9366004612768565b6001600160a01b03166000908152610130602052604090205490565b6101dc6102f3366004612768565b6001600160a01b0316600090815261012e602052604090205460ff1690565b6101dc610320366004612768565b61012e6020526000908152604090205460ff1681565b60335460ff166101dc565b61020461034f3660046126ff565b610a2e565b61012d54610368906001600160a01b031681565b6040516001600160a01b0390911681526020016101e8565b61022761038e366004612768565b6101326020526000908152604090205481565b6102046103af36600461284f565b610fd0565b6102276103c2366004612768565b6101306020526000908152604090205481565b6103686103e33660046128db565b61116f565b6101dc6103f636600461279e565b61118e565b610227600081565b6102046104113660046129d3565b6111b9565b610227610424366004612ae1565b6001600160a01b0391821660009081526101316020908152604080832093909416825291909152205490565b61020461045e366004612768565b6118d5565b610227610471366004612785565b611a1d565b610227610484366004612ae1565b6001600160a01b0391821660009081526101316020908152604080832093909416825291909152206001015490565b6102046104c136600461279e565b611a34565b6101dc6104d4366004612768565b611a59565b61050c6104e7366004612ae1565b6101316020908152600092835260408084209091529082529020805460019091015482565b604080519283526020830191909152016101e8565b60006001600160e01b03198216635a05180f60e01b1480610546575061054682611ade565b92915050565b33610558848484611b13565b61056181611ce9565b60006105706020860186612768565b90506000816001600160a01b0316632b71b4506040518163ffffffff1660e01b8152600401602060405180830381865afa1580156105b2573d6000803e3d6000fd5b505050506040513d601f19601f820116820180604052508101906105d69190612b0f565b90506000826001600160a01b031663febd60186040518163ffffffff1660e01b8152600401602060405180830381865afa158015610618573d6000803e3d6000fd5b505050506040513d601f19601f8201168201806040525081019061063c9190612b0f565b905060006106506040890160208a01612768565b90506001600160a01b03808216908416148061067757506001600160a01b03808216908316145b61069c5760405162461bcd60e51b815260040161069390612b2c565b60405180910390fd5b60006001600160a01b038083169085160361071a57506001600160a01b03808516600081815261013160209081526040808320948a168352938152838220600101805490839055928252610130905291909120546106fb908290612b87565b6001600160a01b0386166000908152610130602052604090205561077c565b506001600160a01b03808516600081815261013160209081526040808320948a16835293815283822080549083905592825261012f90529190912054610761908290612b87565b6001600160a01b038616600090815261012f60205260409020555b600081116107db5760405162461bcd60e51b815260206004820152602660248201527f4e6f7465546f6b656e5661756c743a2052656465656d206f72646572206e6f7460448201526508199bdd5b9960d21b6064820152608401610693565b60405163a9059cbb60e01b81526001600160a01b0387811660048301526024820183905283169063a9059cbb906044016020604051808303816000875af115801561082a573d6000803e3d6000fd5b505050506040513d601f19601f8201168201806040525081019061084e9190612b9a565b61089a5760405162461bcd60e51b815260206004820152601f60248201527f746f6b656e2d7472616e736665722d66726f6d2d706f6f6c2d6661696c6564006044820152606401610693565b604080516001600160a01b03878116825284811660208301528816818301526060810183905290517fa263a8e516fa313745abfe43252b015249ad3c987ae268d37531ce67364d7acf9181900360800190a1505050505050505050565b60008281526097602052604090206001015461091281611d1b565b61091c8383611d28565b505050565b7f48c56c0d6590b6240b1a1005717522dced5c82a200c197c7d7ad7bf3660f419461094b81611d1b565b6001600160a01b038316600081815261012e6020908152604091829020805460ff19168615159081179091558251938452908301527fc0b22fb3af2ebf0b94152229784443d02846ca6b14d7778e5cc8677ce1a50aae910160405180910390a1505050565b6001600160a01b0381163314610a205760405162461bcd60e51b815260206004820152602f60248201527f416363657373436f6e74726f6c3a2063616e206f6e6c792072656e6f756e636560448201526e103937b632b9903337b91039b2b63360891b6064820152608401610693565b610a2a8282611d4a565b5050565b610a3b6020840184612768565b6001600160a01b038116600090815261012e602052604090205460ff1615610a9a5760405162461bcd60e51b81526020600482015260126024820152711c995919595b4b5b9bdd0b585b1b1bddd95960721b6044820152606401610693565b610aa5848484611d6c565b6000610ab46020860186612768565b90506000610ac86040870160208801612768565b90506000866040013590506000836001600160a01b0316632b71b4506040518163ffffffff1660e01b8152600401602060405180830381865afa158015610b13573d6000803e3d6000fd5b505050506040513d601f19601f82011682018060405250810190610b379190612b0f565b90506000846001600160a01b031663febd60186040518163ffffffff1660e01b8152600401602060405180830381865afa158015610b79573d6000803e3d6000fd5b505050506040513d601f19601f82011682018060405250810190610b9d9190612b0f565b90506001600160a01b038085169083161480610bc457506001600160a01b03808516908216145b610be05760405162461bcd60e51b815260040161069390612b2c565b33610bea81611a59565b610c425760405162461bcd60e51b815260206004820152602360248201527f556e617574686f72697a65642e204d757374206861766520636f72726563742060448201526215525160ea1b6064820152608401610693565b60006001600160a01b0380871690851603610d83576001600160a01b03808816600090815261013160209081526040808320938616835292905220600101548015610c9f5760405162461bcd60e51b815260040161069390612bb7565b6001600160a01b0380891660008181526101316020908152604080832094881683529381528382206001018a90559181526101309091522054610ce3908790612c08565b6001600160a01b03808a166000908152610130602052604090209190915561012d54610d0f9116611dd8565b604051635e86428160e11b81526001600160a01b038a81166004830152919091169063bd0c850290602401602060405180830381865afa158015610d57573d6000803e3d6000fd5b505050506040513d601f19601f82011682018060405250810190610d7b9190612c1b565b915050610ea5565b6001600160a01b03808816600090815261013160209081526040808320938616835292905220548015610dc85760405162461bcd60e51b815260040161069390612bb7565b6001600160a01b0380891660008181526101316020908152604080832094881683529381528382208a905591815261012f9091522054610e09908790612c08565b6001600160a01b03808a16600090815261012f602052604090209190915561012d54610e359116611dd8565b6040516318beb17f60e21b81526001600160a01b038a8116600483015291909116906362fac5fc90602401602060405180830381865afa158015610e7d573d6000803e3d6000fd5b505050506040513d601f19601f82011682018060405250810190610ea19190612c1b565b9150505b6040516323b872dd60e01b81526001600160a01b038381166004830152306024830152604482018790528716906323b872dd906064016020604051808303816000875af1158015610efa573d6000803e3d6000fd5b505050506040513d601f19601f82011682018060405250810190610f1e9190612b9a565b610f6a5760405162461bcd60e51b815260206004820152601d60248201527f746f6b656e2d7472616e736665722d746f2d706f6f6c2d6661696c65640000006044820152606401610693565b604080516001600160a01b0389811682528881166020830152841681830152606081018790526080810183905290517f5e604dcfab148be39d34f73b8c0753eb17f009f2dc4857cb6410c384622d38769181900360a00190a15050505050505050505050565b7f48c56c0d6590b6240b1a1005717522dced5c82a200c197c7d7ad7bf3660f4194610ffa81611d1b565b611002611de5565b8660005b858110156110bf5786868281811061102057611020612c34565b90506020020160208101906110359190612768565b6001600160a01b03166342966c6886868481811061105557611055612c34565b905060200201356040518263ffffffff1660e01b815260040161107a91815260200190565b600060405180830381600087803b15801561109457600080fd5b505af11580156110a8573d6000803e3d6000fd5b5050505080806110b790612c4a565b915050611006565b5060405163bff8a36d60e01b8152600481018890526001600160a01b0382169063bff8a36d90602401600060405180830381600087803b15801561110257600080fd5b505af1158015611116573d6000803e3d6000fd5b505050507f89da8ee2cc0e58290e164c5b89dfafa551ec658cc10e1a9931941b17cf2a2a5c88888888888860405161115396959493929190612c63565b60405180910390a150611166600160fb55565b50505050505050565b600082815260c9602052604081206111879083611e45565b9392505050565b60009182526097602090815260408084206001600160a01b0393909316845291905290205460ff1690565b7f48c56c0d6590b6240b1a1005717522dced5c82a200c197c7d7ad7bf3660f41946111e381611d1b565b6111eb611de5565b60008690506000816001600160a01b0316632b71b4506040518163ffffffff1660e01b8152600401602060405180830381865afa158015611230573d6000803e3d6000fd5b505050506040513d601f19601f820116820180604052508101906112549190612b0f565b90506000826001600160a01b031663febd60186040518163ffffffff1660e01b8152600401602060405180830381865afa158015611296573d6000803e3d6000fd5b505050506040513d601f19601f820116820180604052508101906112ba9190612b0f565b90506001600160a01b0380891690831614806112e157506001600160a01b03808916908216145b6112fd5760405162461bcd60e51b815260040161069390612b2c565b865160009081805b828110156116825789818151811061131f5761131f612c34565b6020026020010151846113329190612c08565b935088818151811061134657611346612c34565b6020026020010151826113599190612c08565b9150866001600160a01b0316637f3bd56e8c838151811061137c5761137c612c34565b60200260200101518c848151811061139657611396612c34565b60200260200101516040518363ffffffff1660e01b81526004016113cf9291906001600160a01b03929092168252602082015260400190565b600060405180830381600087803b1580156113e957600080fd5b505af11580156113fd573d6000803e3d6000fd5b505050506001600160a01b03868116908d16036114ad5788818151811061142657611426612c34565b602002602001015161013160008f6001600160a01b03166001600160a01b0316815260200190815260200160002060008d848151811061146857611468612c34565b60200260200101516001600160a01b03166001600160a01b0316815260200190815260200160002060010160008282546114a29190612b87565b909155506115419050565b8881815181106114bf576114bf612c34565b602002602001015161013160008f6001600160a01b03166001600160a01b0316815260200190815260200160002060008d848151811061150157611501612c34565b60200260200101516001600160a01b03166001600160a01b03168152602001908152602001600020600001600082825461153b9190612b87565b90915550505b61012d5460009061155a906001600160a01b0316611e51565b6001600160a01b0316632c9bdbe08d848151811061157a5761157a612c34565b60200260200101516040518263ffffffff1660e01b81526004016115ad91906001600160a01b0391909116815260200190565b602060405180830381865afa1580156115ca573d6000803e3d6000fd5b505050506040513d601f19601f820116820180604052508101906115ee9190612b0f565b90506001600160a01b0381161561167957806001600160a01b0316631fbf7c3e8c848151811061162057611620612c34565b60200260200101516040518263ffffffff1660e01b815260040161164691815260200190565b600060405180830381600087803b15801561166057600080fd5b505af1158015611674573d6000803e3d6000fd5b505050505b50600101611305565b506001600160a01b03808c169086160361178c576001600160a01b038c1660009081526101306020526040812080548392906116bf908490612b87565b925050819055508b6001600160a01b031663221dc5936040518163ffffffff1660e01b8152600401602060405180830381865afa158015611704573d6000803e3d6000fd5b505050506040513d601f19601f820116820180604052508101906117289190612b0f565b6001600160a01b031663d7d55a4a846040518263ffffffff1660e01b815260040161175591815260200190565b600060405180830381600087803b15801561176f57600080fd5b505af1158015611783573d6000803e3d6000fd5b5050505061187e565b6001600160a01b038c16600090815261012f6020526040812080548392906117b5908490612b87565b925050819055508b6001600160a01b0316636456a3ee6040518163ffffffff1660e01b8152600401602060405180830381865afa1580156117fa573d6000803e3d6000fd5b505050506040513d601f19601f8201168201806040525081019061181e9190612b0f565b6001600160a01b031663d7d55a4a846040518263ffffffff1660e01b815260040161184b91815260200190565b600060405180830381600087803b15801561186557600080fd5b505af1158015611879573d6000803e3d6000fd5b505050505b7ff0a181a507991f160ad688f8d5f4891f1171e5b61ef32d58119a77e72520ae3a8c8c8c8c8c6040516118b5959493929190612d32565b60405180910390a15050505050506118cd600160fb55565b505050505050565b600054610100900460ff16158080156118f55750600054600160ff909116105b8061190f5750303b15801561190f575060005460ff166001145b6119725760405162461bcd60e51b815260206004820152602e60248201527f496e697469616c697a61626c653a20636f6e747261637420697320616c72656160448201526d191e481a5b9a5d1a585b1a5e995960921b6064820152608401610693565b6000805460ff191660011790558015611995576000805461ff0019166101001790555b61199d611e5e565b6119a5611e91565b6119ad611eb8565b6119b8600033611ee1565b61012d80546001600160a01b0319166001600160a01b0384161790558015610a2a576000805461ff0019169055604051600181527f7f26b83ff96e1f2b6a682f133852f6798a09c465da95921460cefb38474024989060200160405180910390a15050565b600081815260c96020526040812061054690611eeb565b600082815260976020526040902060010154611a4f81611d1b565b61091c8383611d4a565b61012d54600090611a72906001600160a01b0316611e51565b604051637ca7ad0960e11b81526001600160a01b038481166004830152919091169063f94f5a1290602401602060405180830381865afa158015611aba573d6000803e3d6000fd5b505050506040513d601f19601f820116820180604052508101906105469190612b9a565b60006001600160e01b03198216637965db0b60e01b148061054657506301ffc9a760e01b6001600160e01b0319831614610546565b8260400135421115611b675760405162461bcd60e51b815260206004820152601a60248201527f43616e63656c20726571756573742068617320657870697265640000000000006044820152606401610693565b33600081611b786020870187612768565b611b886040880160208901612768565b6001600160a01b038516600090815261013260209081526040918290205482516bffffffffffffffffffffffff19606097881b81169382019390935294861b821660348601529290941b909316604883015291870135605c820152607c81019190915246609c82015260bc015b6040516020818303038152906040528051906020012090506000611c46827f19457468657265756d205369676e6564204d6573736167653a0a3332000000006000908152601c91909152603c902090565b9050611cac7fe2f4eaae4a9751e85a3e4a7b9587827a877f29914755229b07a7b2da98285f706103f68388888080601f016020809104026020016040519081016040528093929190818152602001838380828437600092019190915250611ef592505050565b6118cd5760405162461bcd60e51b815260206004820152600e60248201526d24b73b30b634b21039b4b3b732b960911b6044820152606401610693565b6001600160a01b038116600090815261013260205260408120805460019290611d13908490612c08565b909155505050565b611d258133611f19565b50565b611d328282611f72565b600082815260c96020526040902061091c9082611ff8565b611d54828261200d565b600082815260c96020526040902061091c9082612074565b33600081611d7d6020870187612768565b611d8d6040880160208901612768565b604080516bffffffffffffffffffffffff19606095861b8116602083015293851b841660348201529190931b909116604882015290860135605c82015246607c820152609c01611bf5565b6000610546826004612089565b600260fb5403611e375760405162461bcd60e51b815260206004820152601f60248201527f5265656e7472616e637947756172643a207265656e7472616e742063616c6c006044820152606401610693565b600260fb55565b600160fb55565b6000611187838361210e565b6000610546826000612089565b600054610100900460ff16611e855760405162461bcd60e51b815260040161069390612dbd565b6033805460ff19169055565b600054610100900460ff16611e3e5760405162461bcd60e51b815260040161069390612dbd565b600054610100900460ff16611edf5760405162461bcd60e51b815260040161069390612dbd565b565b610a2a8282611d28565b6000610546825490565b6000806000611f048585612138565b91509150611f118161217d565b509392505050565b611f23828261118e565b610a2a57611f30816122c7565b611f3b8360206122d9565b604051602001611f4c929190612e2c565b60408051601f198184030181529082905262461bcd60e51b825261069391600401612ea1565b611f7c828261118e565b610a2a5760008281526097602090815260408083206001600160a01b03851684529091529020805460ff19166001179055611fb43390565b6001600160a01b0316816001600160a01b0316837f2f8788117e7eff1d82e926ec794901d17c78024a50270940304540a733656f0d60405160405180910390a45050565b6000611187836001600160a01b038416612475565b612017828261118e565b15610a2a5760008281526097602090815260408083206001600160a01b0385168085529252808320805460ff1916905551339285917ff6391f5c32d9c69d2a47ea670b442974b53935d1edc7fd64eb21e047a839171b9190a45050565b6000611187836001600160a01b0384166124c4565b6000826001600160a01b031663bcaa0c5583600a8111156120ac576120ac612ed4565b6040516001600160e01b031960e084901b16815260ff9091166004820152602401602060405180830381865afa1580156120ea573d6000803e3d6000fd5b505050506040513d601f19601f820116820180604052508101906111879190612b0f565b600082600001828154811061212557612125612c34565b9060005260206000200154905092915050565b600080825160410361216e5760208301516040840151606085015160001a612162878285856125b7565b94509450505050612176565b506000905060025b9250929050565b600081600481111561219157612191612ed4565b036121995750565b60018160048111156121ad576121ad612ed4565b036121fa5760405162461bcd60e51b815260206004820152601860248201527f45434453413a20696e76616c6964207369676e617475726500000000000000006044820152606401610693565b600281600481111561220e5761220e612ed4565b0361225b5760405162461bcd60e51b815260206004820152601f60248201527f45434453413a20696e76616c6964207369676e6174757265206c656e677468006044820152606401610693565b600381600481111561226f5761226f612ed4565b03611d255760405162461bcd60e51b815260206004820152602260248201527f45434453413a20696e76616c6964207369676e6174757265202773272076616c604482015261756560f01b6064820152608401610693565b60606105466001600160a01b03831660145b606060006122e8836002612eea565b6122f3906002612c08565b67ffffffffffffffff81111561230b5761230b6128fd565b6040519080825280601f01601f191660200182016040528015612335576020820181803683370190505b509050600360fc1b8160008151811061235057612350612c34565b60200101906001600160f81b031916908160001a905350600f60fb1b8160018151811061237f5761237f612c34565b60200101906001600160f81b031916908160001a90535060006123a3846002612eea565b6123ae906001612c08565b90505b6001811115612426576f181899199a1a9b1b9c1cb0b131b232b360811b85600f16601081106123e2576123e2612c34565b1a60f81b8282815181106123f8576123f8612c34565b60200101906001600160f81b031916908160001a90535060049490941c9361241f81612f01565b90506123b1565b5083156111875760405162461bcd60e51b815260206004820181905260248201527f537472696e67733a20686578206c656e67746820696e73756666696369656e746044820152606401610693565b60008181526001830160205260408120546124bc57508154600181810184556000848152602080822090930184905584548482528286019093526040902091909155610546565b506000610546565b600081815260018301602052604081205480156125ad5760006124e8600183612b87565b85549091506000906124fc90600190612b87565b905081811461256157600086600001828154811061251c5761251c612c34565b906000526020600020015490508087600001848154811061253f5761253f612c34565b6000918252602080832090910192909255918252600188019052604090208390555b855486908061257257612572612f18565b600190038181906000526020600020016000905590558560010160008681526020019081526020016000206000905560019350505050610546565b6000915050610546565b6000807f7fffffffffffffffffffffffffffffff5d576e7357a4501ddfe92f46681b20a08311156125ee5750600090506003612672565b6040805160008082526020820180845289905260ff881692820192909252606081018690526080810185905260019060a0016020604051602081039080840390855afa158015612642573d6000803e3d6000fd5b5050604051601f1901519150506001600160a01b03811661266b57600060019250925050612672565b9150600090505b94509492505050565b60006020828403121561268d57600080fd5b81356001600160e01b03198116811461118757600080fd5b6000606082840312156126b757600080fd5b50919050565b60008083601f8401126126cf57600080fd5b50813567ffffffffffffffff8111156126e757600080fd5b60208301915083602082850101111561217657600080fd5b60008060006080848603121561271457600080fd5b61271e85856126a5565b9250606084013567ffffffffffffffff81111561273a57600080fd5b612746868287016126bd565b9497909650939450505050565b6001600160a01b0381168114611d2557600080fd5b60006020828403121561277a57600080fd5b813561118781612753565b60006020828403121561279757600080fd5b5035919050565b600080604083850312156127b157600080fd5b8235915060208301356127c381612753565b809150509250929050565b8015158114611d2557600080fd5b600080604083850312156127ef57600080fd5b82356127fa81612753565b915060208301356127c3816127ce565b60008083601f84011261281c57600080fd5b50813567ffffffffffffffff81111561283457600080fd5b6020830191508360208260051b850101111561217657600080fd5b6000806000806000806080878903121561286857600080fd5b863561287381612753565b955060208701359450604087013567ffffffffffffffff8082111561289757600080fd5b6128a38a838b0161280a565b909650945060608901359150808211156128bc57600080fd5b506128c989828a0161280a565b979a9699509497509295939492505050565b600080604083850312156128ee57600080fd5b50508035926020909101359150565b634e487b7160e01b600052604160045260246000fd5b604051601f8201601f1916810167ffffffffffffffff8111828210171561293c5761293c6128fd565b604052919050565b600067ffffffffffffffff82111561295e5761295e6128fd565b5060051b60200190565b600082601f83011261297957600080fd5b8135602061298e61298983612944565b612913565b82815260059290921b840181019181810190868411156129ad57600080fd5b8286015b848110156129c857803583529183019183016129b1565b509695505050505050565b600080600080600060a086880312156129eb57600080fd5b85356129f681612753565b9450602086810135612a0781612753565b9450604087013567ffffffffffffffff80821115612a2457600080fd5b818901915089601f830112612a3857600080fd5b8135612a4661298982612944565b81815260059190911b8301840190848101908c831115612a6557600080fd5b938501935b82851015612a8c578435612a7d81612753565b82529385019390850190612a6a565b975050506060890135925080831115612aa457600080fd5b612ab08a848b01612968565b94506080890135925080831115612ac657600080fd5b5050612ad488828901612968565b9150509295509295909350565b60008060408385031215612af457600080fd5b8235612aff81612753565b915060208301356127c381612753565b600060208284031215612b2157600080fd5b815161118781612753565b60208082526025908201527f4e6f7465546f6b656e5661756c743a20496e76616c696420746f6b656e206164604082015264647265737360d81b606082015260800190565b634e487b7160e01b600052601160045260246000fd5b8181038181111561054657610546612b71565b600060208284031215612bac57600080fd5b8151611187816127ce565b60208082526031908201527f4e6f7465546f6b656e5661756c743a205573657220616c72656164792063726560408201527030ba32b2103932b232b2b69037b93232b960791b606082015260800190565b8082018082111561054657610546612b71565b600060208284031215612c2d57600080fd5b5051919050565b634e487b7160e01b600052603260045260246000fd5b600060018201612c5c57612c5c612b71565b5060010190565b6001600160a01b03878116825260208083018890526080604084018190528301869052600091879160a08501845b89811015612cb8578435612ca481612753565b841682529382019390820190600101612c91565b5085810360608701528681526001600160fb1b03871115612cd857600080fd5b8660051b93508388838301379092019091019998505050505050505050565b600081518084526020808501945080840160005b83811015612d2757815187529582019590820190600101612d0b565b509495945050505050565b600060a0820160018060a01b03808916845260208189168186015260a0604086015282885180855260c087019150828a01945060005b81811015612d86578551851683529483019491830191600101612d68565b50508581036060870152612d9a8189612cf7565b93505050508281036080840152612db18185612cf7565b98975050505050505050565b6020808252602b908201527f496e697469616c697a61626c653a20636f6e7472616374206973206e6f74206960408201526a6e697469616c697a696e6760a81b606082015260800190565b60005b83811015612e23578181015183820152602001612e0b565b50506000910152565b7f416363657373436f6e74726f6c3a206163636f756e7420000000000000000000815260008351612e64816017850160208801612e08565b7001034b99036b4b9b9b4b733903937b6329607d1b6017918401918201528351612e95816028840160208801612e08565b01602801949350505050565b6020815260008251806020840152612ec0816040850160208701612e08565b601f01601f19169190910160400192915050565b634e487b7160e01b600052602160045260246000fd5b808202811582820484141761054657610546612b71565b600081612f1057612f10612b71565b506000190190565b634e487b7160e01b600052603160045260246000fdfea2646970667358221220d64829b3ae01d9644e1b7d7c19afa01d0c3f2a19e8182675e791fe3eb8dad39664736f6c63430008130033",
  "devdoc": {
    "author": "Untangled Team",
    "events": {
      "Initialized(uint8)": {
        "details": "Triggered when the contract has been initialized or reinitialized."
      },
      "Paused(address)": {
        "details": "Emitted when the pause is triggered by `account`."
      },
      "RoleAdminChanged(bytes32,bytes32,bytes32)": {
        "details": "Emitted when `newAdminRole` is set as ``role``'s admin role, replacing `previousAdminRole` `DEFAULT_ADMIN_ROLE` is the starting admin for all roles, despite {RoleAdminChanged} not being emitted signaling this. _Available since v3.1._"
      },
      "RoleGranted(bytes32,address,address)": {
        "details": "Emitted when `account` is granted `role`. `sender` is the account that originated the contract call, an admin role bearer except when using {AccessControl-_setupRole}."
      },
      "RoleRevoked(bytes32,address,address)": {
        "details": "Emitted when `account` is revoked `role`. `sender` is the account that originated the contract call:   - if using `revokeRole`, it is the admin role bearer   - if using `renounceRole`, it is the role bearer (i.e. `account`)"
      },
      "Unpaused(address)": {
        "details": "Emitted when the pause is lifted by `account`."
      }
    },
    "kind": "dev",
    "methods": {
      "disburseAll(address,address,address[],uint256[],uint256[])": {
        "details": "Disburses funds and handles JOT redemptions for a pool.",
        "params": {
          "currencyAmounts": "An array of amounts to disburse to each recipient.",
          "pool": "The address of the pool contract.",
          "redeemedNoteAmounts": "An array of JOT amounts redeemed by each recipient.",
          "toAddresses": "An array of recipient addresses."
        }
      },
      "getRoleAdmin(bytes32)": {
        "details": "Returns the admin role that controls `role`. See {grantRole} and {revokeRole}. To change a role's admin, use {_setRoleAdmin}."
      },
      "getRoleMember(bytes32,uint256)": {
        "details": "Returns one of the accounts that have `role`. `index` must be a value between 0 and {getRoleMemberCount}, non-inclusive. Role bearers are not sorted in any particular way, and their ordering may change at any point. WARNING: When using {getRoleMember} and {getRoleMemberCount}, make sure you perform all queries on the same block. See the following https://forum.openzeppelin.com/t/iterating-over-elements-on-enumerableset-in-openzeppelin-contracts/2296[forum post] for more information."
      },
      "getRoleMemberCount(bytes32)": {
        "details": "Returns the number of accounts that have `role`. Can be used together with {getRoleMember} to enumerate all bearers of a role."
      },
      "grantRole(bytes32,address)": {
        "details": "Grants `role` to `account`. If `account` had not been already granted `role`, emits a {RoleGranted} event. Requirements: - the caller must have ``role``'s admin role. May emit a {RoleGranted} event."
      },
      "hasRole(bytes32,address)": {
        "details": "Returns `true` if `account` has been granted `role`."
      },
      "paused()": {
        "details": "Returns true if the contract is paused, and false otherwise."
      },
      "renounceRole(bytes32,address)": {
        "details": "Revokes `role` from the calling account. Roles are often managed via {grantRole} and {revokeRole}: this function's purpose is to provide a mechanism for accounts to lose their privileges if they are compromised (such as when a trusted device is misplaced). If the calling account had been revoked `role`, emits a {RoleRevoked} event. Requirements: - the caller must be `account`. May emit a {RoleRevoked} event."
      },
      "revokeRole(bytes32,address)": {
        "details": "Revokes `role` from `account`. If `account` had been granted `role`, emits a {RoleRevoked} event. Requirements: - the caller must have ``role``'s admin role. May emit a {RoleRevoked} event."
      },
      "supportsInterface(bytes4)": {
        "details": "See {IERC165-supportsInterface}."
      },
      "userRedeemJOTOrder(address,address)": {
        "details": "Retrieves the amount of JOT tokens that can be redeemed for the specified user.",
        "params": {
          "usr": "The address of the user for which to retrieve the redeemable JOT amount."
        },
        "returns": {
          "_0": "The amount of JOT tokens that can be redeemed by the user."
        }
      }
    },
    "stateVariables": {
      "nonces": {
        "details": "We include a nonce in every hashed message, and increment the nonce as part of a state-changing operation, so as to prevent replay attacks, i.e. the reuse of a signature."
      },
      "poolRedeemDisabled": {
        "details": "Pool redeem disabled value"
      },
      "poolTotalJOTRedeem": {
        "details": "Pool total JOT redeem"
      },
      "poolTotalSOTRedeem": {
        "details": "Pool total SOT redeem"
      },
      "poolUserRedeems": {
        "details": "Pool user redeem order"
      }
    },
    "title": "NoteTokenVault",
    "version": 1
  },
  "userdoc": {
    "kind": "user",
    "methods": {
      "disburseAll(address,address,address[],uint256[],uint256[])": {
        "notice": "Only accessible by BACKEND_ADMIN role."
      },
      "redeemDisabled(address)": {
        "notice": "Get redeem disabled"
      },
      "redeemOrder((address,address,uint256),bytes)": {
        "notice": "redeemJOTOrder function can be used to place or revoke a redeem"
      },
      "setRedeemDisabled(address,bool)": {
        "notice": "Pause redeem request"
      },
      "totalJOTRedeem(address)": {
        "notice": "Total amount of JOT redeem order"
      },
      "totalSOTRedeem(address)": {
        "notice": "Total amount of SOT redeem order"
      }
    },
    "notice": "NoteToken redemption",
    "version": 1
  },
  "storageLayout": {
    "storage": [
      {
        "astId": 765,
        "contract": "contracts/protocol/pool/NoteTokenVault.sol:NoteTokenVault",
        "label": "_initialized",
        "offset": 0,
        "slot": "0",
        "type": "t_uint8"
      },
      {
        "astId": 768,
        "contract": "contracts/protocol/pool/NoteTokenVault.sol:NoteTokenVault",
        "label": "_initializing",
        "offset": 1,
        "slot": "0",
        "type": "t_bool"
      },
      {
        "astId": 4282,
        "contract": "contracts/protocol/pool/NoteTokenVault.sol:NoteTokenVault",
        "label": "__gap",
        "offset": 0,
        "slot": "1",
        "type": "t_array(t_uint256)50_storage"
      },
      {
        "astId": 948,
        "contract": "contracts/protocol/pool/NoteTokenVault.sol:NoteTokenVault",
        "label": "_paused",
        "offset": 0,
        "slot": "51",
        "type": "t_bool"
      },
      {
        "astId": 1053,
        "contract": "contracts/protocol/pool/NoteTokenVault.sol:NoteTokenVault",
        "label": "__gap",
        "offset": 0,
        "slot": "52",
        "type": "t_array(t_uint256)49_storage"
      },
      {
        "astId": 5572,
        "contract": "contracts/protocol/pool/NoteTokenVault.sol:NoteTokenVault",
        "label": "__gap",
        "offset": 0,
        "slot": "101",
        "type": "t_array(t_uint256)50_storage"
      },
      {
        "astId": 184,
        "contract": "contracts/protocol/pool/NoteTokenVault.sol:NoteTokenVault",
        "label": "_roles",
        "offset": 0,
        "slot": "151",
        "type": "t_mapping(t_bytes32,t_struct(RoleData)179_storage)"
      },
      {
        "astId": 479,
        "contract": "contracts/protocol/pool/NoteTokenVault.sol:NoteTokenVault",
        "label": "__gap",
        "offset": 0,
        "slot": "152",
        "type": "t_array(t_uint256)49_storage"
      },
      {
        "astId": 33,
        "contract": "contracts/protocol/pool/NoteTokenVault.sol:NoteTokenVault",
        "label": "_roleMembers",
        "offset": 0,
        "slot": "201",
        "type": "t_mapping(t_bytes32,t_struct(AddressSet)6882_storage)"
      },
      {
        "astId": 143,
        "contract": "contracts/protocol/pool/NoteTokenVault.sol:NoteTokenVault",
        "label": "__gap",
        "offset": 0,
        "slot": "202",
        "type": "t_array(t_uint256)49_storage"
      },
      {
        "astId": 1068,
        "contract": "contracts/protocol/pool/NoteTokenVault.sol:NoteTokenVault",
        "label": "_status",
        "offset": 0,
        "slot": "251",
        "type": "t_uint256"
      },
      {
        "astId": 1137,
        "contract": "contracts/protocol/pool/NoteTokenVault.sol:NoteTokenVault",
        "label": "__gap",
        "offset": 0,
        "slot": "252",
        "type": "t_array(t_uint256)49_storage"
      },
      {
        "astId": 18755,
        "contract": "contracts/protocol/pool/NoteTokenVault.sol:NoteTokenVault",
        "label": "registry",
        "offset": 0,
        "slot": "301",
        "type": "t_contract(Registry)31470"
      },
      {
        "astId": 18760,
        "contract": "contracts/protocol/pool/NoteTokenVault.sol:NoteTokenVault",
        "label": "poolRedeemDisabled",
        "offset": 0,
        "slot": "302",
        "type": "t_mapping(t_address,t_bool)"
      },
      {
        "astId": 18765,
        "contract": "contracts/protocol/pool/NoteTokenVault.sol:NoteTokenVault",
        "label": "poolTotalSOTRedeem",
        "offset": 0,
        "slot": "303",
        "type": "t_mapping(t_address,t_uint256)"
      },
      {
        "astId": 18770,
        "contract": "contracts/protocol/pool/NoteTokenVault.sol:NoteTokenVault",
        "label": "poolTotalJOTRedeem",
        "offset": 0,
        "slot": "304",
        "type": "t_mapping(t_address,t_uint256)"
      },
      {
        "astId": 18778,
        "contract": "contracts/protocol/pool/NoteTokenVault.sol:NoteTokenVault",
        "label": "poolUserRedeems",
        "offset": 0,
        "slot": "305",
        "type": "t_mapping(t_address,t_mapping(t_address,t_struct(UserOrder)17419_storage))"
      },
      {
        "astId": 18783,
        "contract": "contracts/protocol/pool/NoteTokenVault.sol:NoteTokenVault",
        "label": "nonces",
        "offset": 0,
        "slot": "306",
        "type": "t_mapping(t_address,t_uint256)"
      },
      {
        "astId": 19729,
        "contract": "contracts/protocol/pool/NoteTokenVault.sol:NoteTokenVault",
        "label": "__gap",
        "offset": 0,
        "slot": "307",
        "type": "t_array(t_uint256)49_storage"
      }
    ],
    "types": {
      "t_address": {
        "encoding": "inplace",
        "label": "address",
        "numberOfBytes": "20"
      },
      "t_array(t_bytes32)dyn_storage": {
        "base": "t_bytes32",
        "encoding": "dynamic_array",
        "label": "bytes32[]",
        "numberOfBytes": "32"
      },
      "t_array(t_uint256)49_storage": {
        "base": "t_uint256",
        "encoding": "inplace",
        "label": "uint256[49]",
        "numberOfBytes": "1568"
      },
      "t_array(t_uint256)50_storage": {
        "base": "t_uint256",
        "encoding": "inplace",
        "label": "uint256[50]",
        "numberOfBytes": "1600"
      },
      "t_bool": {
        "encoding": "inplace",
        "label": "bool",
        "numberOfBytes": "1"
      },
      "t_bytes32": {
        "encoding": "inplace",
        "label": "bytes32",
        "numberOfBytes": "32"
      },
      "t_contract(Registry)31470": {
        "encoding": "inplace",
        "label": "contract Registry",
        "numberOfBytes": "20"
      },
      "t_mapping(t_address,t_bool)": {
        "encoding": "mapping",
        "key": "t_address",
        "label": "mapping(address => bool)",
        "numberOfBytes": "32",
        "value": "t_bool"
      },
      "t_mapping(t_address,t_mapping(t_address,t_struct(UserOrder)17419_storage))": {
        "encoding": "mapping",
        "key": "t_address",
        "label": "mapping(address => mapping(address => struct INoteTokenVault.UserOrder))",
        "numberOfBytes": "32",
        "value": "t_mapping(t_address,t_struct(UserOrder)17419_storage)"
      },
      "t_mapping(t_address,t_struct(UserOrder)17419_storage)": {
        "encoding": "mapping",
        "key": "t_address",
        "label": "mapping(address => struct INoteTokenVault.UserOrder)",
        "numberOfBytes": "32",
        "value": "t_struct(UserOrder)17419_storage"
      },
      "t_mapping(t_address,t_uint256)": {
        "encoding": "mapping",
        "key": "t_address",
        "label": "mapping(address => uint256)",
        "numberOfBytes": "32",
        "value": "t_uint256"
      },
      "t_mapping(t_bytes32,t_struct(AddressSet)6882_storage)": {
        "encoding": "mapping",
        "key": "t_bytes32",
        "label": "mapping(bytes32 => struct EnumerableSetUpgradeable.AddressSet)",
        "numberOfBytes": "32",
        "value": "t_struct(AddressSet)6882_storage"
      },
      "t_mapping(t_bytes32,t_struct(RoleData)179_storage)": {
        "encoding": "mapping",
        "key": "t_bytes32",
        "label": "mapping(bytes32 => struct AccessControlUpgradeable.RoleData)",
        "numberOfBytes": "32",
        "value": "t_struct(RoleData)179_storage"
      },
      "t_mapping(t_bytes32,t_uint256)": {
        "encoding": "mapping",
        "key": "t_bytes32",
        "label": "mapping(bytes32 => uint256)",
        "numberOfBytes": "32",
        "value": "t_uint256"
      },
      "t_struct(AddressSet)6882_storage": {
        "encoding": "inplace",
        "label": "struct EnumerableSetUpgradeable.AddressSet",
        "members": [
          {
            "astId": 6881,
            "contract": "contracts/protocol/pool/NoteTokenVault.sol:NoteTokenVault",
            "label": "_inner",
            "offset": 0,
            "slot": "0",
            "type": "t_struct(Set)6567_storage"
          }
        ],
        "numberOfBytes": "64"
      },
      "t_struct(RoleData)179_storage": {
        "encoding": "inplace",
        "label": "struct AccessControlUpgradeable.RoleData",
        "members": [
          {
            "astId": 176,
            "contract": "contracts/protocol/pool/NoteTokenVault.sol:NoteTokenVault",
            "label": "members",
            "offset": 0,
            "slot": "0",
            "type": "t_mapping(t_address,t_bool)"
          },
          {
            "astId": 178,
            "contract": "contracts/protocol/pool/NoteTokenVault.sol:NoteTokenVault",
            "label": "adminRole",
            "offset": 0,
            "slot": "1",
            "type": "t_bytes32"
          }
        ],
        "numberOfBytes": "64"
      },
      "t_struct(Set)6567_storage": {
        "encoding": "inplace",
        "label": "struct EnumerableSetUpgradeable.Set",
        "members": [
          {
            "astId": 6562,
            "contract": "contracts/protocol/pool/NoteTokenVault.sol:NoteTokenVault",
            "label": "_values",
            "offset": 0,
            "slot": "0",
            "type": "t_array(t_bytes32)dyn_storage"
          },
          {
            "astId": 6566,
            "contract": "contracts/protocol/pool/NoteTokenVault.sol:NoteTokenVault",
            "label": "_indexes",
            "offset": 0,
            "slot": "1",
            "type": "t_mapping(t_bytes32,t_uint256)"
          }
        ],
        "numberOfBytes": "64"
      },
      "t_struct(UserOrder)17419_storage": {
        "encoding": "inplace",
        "label": "struct INoteTokenVault.UserOrder",
        "members": [
          {
            "astId": 17416,
            "contract": "contracts/protocol/pool/NoteTokenVault.sol:NoteTokenVault",
            "label": "redeemSOTAmount",
            "offset": 0,
            "slot": "0",
            "type": "t_uint256"
          },
          {
            "astId": 17418,
            "contract": "contracts/protocol/pool/NoteTokenVault.sol:NoteTokenVault",
            "label": "redeemJOTAmount",
            "offset": 0,
            "slot": "1",
            "type": "t_uint256"
          }
        ],
        "numberOfBytes": "64"
      },
      "t_uint256": {
        "encoding": "inplace",
        "label": "uint256",
        "numberOfBytes": "32"
      },
      "t_uint8": {
        "encoding": "inplace",
        "label": "uint8",
        "numberOfBytes": "1"
      }
    }
  }
}