{
  "address": "0x91957a7B1Bf69092B6c608D20b1E3566C8d3ecD4",
  "abi": [
    {
      "anonymous": false,
      "inputs": [
        {
          "indexed": false,
          "internalType": "uint8",
          "name": "version",
          "type": "uint8"
        }
      ],
      "name": "Initialized",
      "type": "event"
    },
    {
      "anonymous": false,
      "inputs": [
        {
          "indexed": false,
          "internalType": "address",
          "name": "account",
          "type": "address"
        }
      ],
      "name": "Paused",
      "type": "event"
    },
    {
      "anonymous": false,
      "inputs": [
        {
          "indexed": true,
          "internalType": "bytes32",
          "name": "role",
          "type": "bytes32"
        },
        {
          "indexed": true,
          "internalType": "bytes32",
          "name": "previousAdminRole",
          "type": "bytes32"
        },
        {
          "indexed": true,
          "internalType": "bytes32",
          "name": "newAdminRole",
          "type": "bytes32"
        }
      ],
      "name": "RoleAdminChanged",
      "type": "event"
    },
    {
      "anonymous": false,
      "inputs": [
        {
          "indexed": true,
          "internalType": "bytes32",
          "name": "role",
          "type": "bytes32"
        },
        {
          "indexed": true,
          "internalType": "address",
          "name": "account",
          "type": "address"
        },
        {
          "indexed": true,
          "internalType": "address",
          "name": "sender",
          "type": "address"
        }
      ],
      "name": "RoleGranted",
      "type": "event"
    },
    {
      "anonymous": false,
      "inputs": [
        {
          "indexed": true,
          "internalType": "bytes32",
          "name": "role",
          "type": "bytes32"
        },
        {
          "indexed": true,
          "internalType": "address",
          "name": "account",
          "type": "address"
        },
        {
          "indexed": true,
          "internalType": "address",
          "name": "sender",
          "type": "address"
        }
      ],
      "name": "RoleRevoked",
      "type": "event"
    },
    {
      "anonymous": false,
      "inputs": [
        {
          "indexed": false,
          "internalType": "address",
          "name": "account",
          "type": "address"
        }
      ],
      "name": "Unpaused",
      "type": "event"
    },
    {
      "anonymous": false,
      "inputs": [
        {
          "indexed": true,
          "internalType": "address",
          "name": "newAddress",
          "type": "address"
        }
      ],
      "name": "UpdatePoolNAVImplementation",
      "type": "event"
    },
    {
      "inputs": [],
      "name": "DEFAULT_ADMIN_ROLE",
      "outputs": [
        {
          "internalType": "bytes32",
          "name": "",
          "type": "bytes32"
        }
      ],
      "stateMutability": "view",
      "type": "function"
    },
    {
      "inputs": [],
      "name": "OWNER_ROLE",
      "outputs": [
        {
          "internalType": "bytes32",
          "name": "",
          "type": "bytes32"
        }
      ],
      "stateMutability": "view",
      "type": "function"
    },
    {
      "inputs": [],
      "name": "createPoolNAV",
      "outputs": [
        {
          "internalType": "address",
          "name": "",
          "type": "address"
        }
      ],
      "stateMutability": "nonpayable",
      "type": "function"
    },
    {
      "inputs": [],
      "name": "factoryAdmin",
      "outputs": [
        {
          "internalType": "address",
          "name": "",
          "type": "address"
        }
      ],
      "stateMutability": "view",
      "type": "function"
    },
    {
      "inputs": [],
      "name": "getInitializedVersion",
      "outputs": [
        {
          "internalType": "uint256",
          "name": "",
          "type": "uint256"
        }
      ],
      "stateMutability": "view",
      "type": "function"
    },
    {
      "inputs": [
        {
          "internalType": "bytes32",
          "name": "role",
          "type": "bytes32"
        }
      ],
      "name": "getRoleAdmin",
      "outputs": [
        {
          "internalType": "bytes32",
          "name": "",
          "type": "bytes32"
        }
      ],
      "stateMutability": "view",
      "type": "function"
    },
    {
      "inputs": [
        {
          "internalType": "bytes32",
          "name": "role",
          "type": "bytes32"
        },
        {
          "internalType": "uint256",
          "name": "index",
          "type": "uint256"
        }
      ],
      "name": "getRoleMember",
      "outputs": [
        {
          "internalType": "address",
          "name": "",
          "type": "address"
        }
      ],
      "stateMutability": "view",
      "type": "function"
    },
    {
      "inputs": [
        {
          "internalType": "bytes32",
          "name": "role",
          "type": "bytes32"
        }
      ],
      "name": "getRoleMemberCount",
      "outputs": [
        {
          "internalType": "uint256",
          "name": "",
          "type": "uint256"
        }
      ],
      "stateMutability": "view",
      "type": "function"
    },
    {
      "inputs": [
        {
          "internalType": "bytes32",
          "name": "role",
          "type": "bytes32"
        },
        {
          "internalType": "address",
          "name": "account",
          "type": "address"
        }
      ],
      "name": "grantRole",
      "outputs": [],
      "stateMutability": "nonpayable",
      "type": "function"
    },
    {
      "inputs": [
        {
          "internalType": "bytes32",
          "name": "role",
          "type": "bytes32"
        },
        {
          "internalType": "address",
          "name": "account",
          "type": "address"
        }
      ],
      "name": "hasRole",
      "outputs": [
        {
          "internalType": "bool",
          "name": "",
          "type": "bool"
        }
      ],
      "stateMutability": "view",
      "type": "function"
    },
    {
      "inputs": [
        {
          "internalType": "contract Registry",
          "name": "_registry",
          "type": "address"
        },
        {
          "internalType": "address",
          "name": "_factoryAdmin",
          "type": "address"
        }
      ],
      "name": "initialize",
      "outputs": [],
      "stateMutability": "nonpayable",
      "type": "function"
    },
    {
      "inputs": [],
      "name": "isAdmin",
      "outputs": [
        {
          "internalType": "bool",
          "name": "",
          "type": "bool"
        }
      ],
      "stateMutability": "view",
      "type": "function"
    },
    {
      "inputs": [],
      "name": "pause",
      "outputs": [],
      "stateMutability": "nonpayable",
      "type": "function"
    },
    {
      "inputs": [],
      "name": "paused",
      "outputs": [
        {
          "internalType": "bool",
          "name": "",
          "type": "bool"
        }
      ],
      "stateMutability": "view",
      "type": "function"
    },
    {
      "inputs": [],
      "name": "poolNAVImplementation",
      "outputs": [
        {
          "internalType": "address",
          "name": "",
          "type": "address"
        }
      ],
      "stateMutability": "view",
      "type": "function"
    },
    {
      "inputs": [],
      "name": "registry",
      "outputs": [
        {
          "internalType": "contract Registry",
          "name": "",
          "type": "address"
        }
      ],
      "stateMutability": "view",
      "type": "function"
    },
    {
      "inputs": [
        {
          "internalType": "bytes32",
          "name": "role",
          "type": "bytes32"
        },
        {
          "internalType": "address",
          "name": "account",
          "type": "address"
        }
      ],
      "name": "renounceRole",
      "outputs": [],
      "stateMutability": "nonpayable",
      "type": "function"
    },
    {
      "inputs": [
        {
          "internalType": "bytes32",
          "name": "role",
          "type": "bytes32"
        },
        {
          "internalType": "address",
          "name": "account",
          "type": "address"
        }
      ],
      "name": "revokeRole",
      "outputs": [],
      "stateMutability": "nonpayable",
      "type": "function"
    },
    {
      "inputs": [
        {
          "internalType": "address",
          "name": "_factoryAdmin",
          "type": "address"
        }
      ],
      "name": "setFactoryAdmin",
      "outputs": [],
      "stateMutability": "nonpayable",
      "type": "function"
    },
    {
      "inputs": [
        {
          "internalType": "address",
          "name": "newAddress",
          "type": "address"
        }
      ],
      "name": "setPoolNAVImplementation",
      "outputs": [],
      "stateMutability": "nonpayable",
      "type": "function"
    },
    {
      "inputs": [
        {
          "internalType": "bytes32",
          "name": "role",
          "type": "bytes32"
        },
        {
          "internalType": "bytes32",
          "name": "adminRole",
          "type": "bytes32"
        }
      ],
      "name": "setRoleAdmin",
      "outputs": [],
      "stateMutability": "nonpayable",
      "type": "function"
    },
    {
      "inputs": [
        {
          "internalType": "bytes4",
          "name": "interfaceId",
          "type": "bytes4"
        }
      ],
      "name": "supportsInterface",
      "outputs": [
        {
          "internalType": "bool",
          "name": "",
          "type": "bool"
        }
      ],
      "stateMutability": "view",
      "type": "function"
    },
    {
      "inputs": [],
      "name": "unpause",
      "outputs": [],
      "stateMutability": "nonpayable",
      "type": "function"
    }
  ],
  "transactionHash": "0xaa575c076cf43640d60302795f9b4dbda1a281241291122a69f678a254d2fd3e",
  "args": [],
  "numDeployments": 2,
  "solcInputHash": "7ff53b02c7861ffa2f80c9db94e12bb0",
  "bytecode": "0x608060405234801561001057600080fd5b506123a9806100206000396000f3fe60806040523480156200001157600080fd5b5060043610620001695760003560e01c80636ad5e5f111620000d3578063b3c650151162000086578063b3c6501514620002ff578063b6db75a0146200030b578063ca15c8731462000315578063d547741f146200032c578063e58378bb1462000343578063fb0f25d0146200035a57600080fd5b80636ad5e5f114620002925780637b10399914620002a95780638456cb5914620002be5780639010d07c14620002c857806391d1485414620002df578063a217fddf14620002f657600080fd5b8063248a9ca3116200012c578063248a9ca314620002025780632f2ff15d146200023757806336568abe146200024e5780633f4ba83a1462000265578063485cc955146200026f5780635c975abb146200028657600080fd5b806301ffc9a7146200016e57806305dfd86f146200019a5780631159a5df14620001b357806317d8ec7f14620001d65780631e4e009114620001eb575b600080fd5b620001856200017f3660046200119b565b6200036f565b60405190151581526020015b60405180910390f35b620001b1620001ab366004620011dd565b6200039d565b005b620001bd620003dd565b6040516001600160a01b03909116815260200162000191565b61015f54620001bd906001600160a01b031681565b620001b1620001fc366004620011fd565b62000456565b620002286200021336600462001220565b600090815260c9602052604090206001015490565b60405190815260200162000191565b620001b1620002483660046200123a565b62000474565b620001b16200025f3660046200123a565b6200049d565b620001b16200051f565b620001b1620002803660046200126d565b62000536565b60335460ff1662000185565b620001b1620002a3366004620011dd565b62000679565b61019254620001bd906001600160a01b031681565b620001b162000758565b620001bd620002d9366004620011fd565b6200076f565b62000185620002f03660046200123a565b62000790565b62000228600081565b60005460ff1662000228565b62000185620007bb565b620002286200032636600462001220565b620007dd565b620001b16200033d3660046200123a565b620007f6565b620002286000805160206200235483398151915281565b61019354620001bd906001600160a01b031681565b60006001600160e01b03198216634041b2ff60e11b148062000397575062000397826200081f565b92915050565b620003a7620007bb565b620003cf5760405162461bcd60e51b8152600401620003c690620012a0565b60405180910390fd5b620003da8162000847565b50565b6000620003e96200086a565b61019254604080516001600160a01b0392831660248201523360448083018290528351808403909101815260649092019092526020810180516001600160e01b031663485cc95560e01b17905261019354919290916000916200044e911683620008b4565b935050505090565b600062000463816200090d565b6200046f838362000919565b505050565b600082815260c9602052604090206001015462000491816200090d565b6200046f838362000964565b6001600160a01b03811633146200050f5760405162461bcd60e51b815260206004820152602f60248201527f416363657373436f6e74726f6c3a2063616e206f6e6c792072656e6f756e636560448201526e103937b632b9903337b91039b2b63360891b6064820152608401620003c6565b6200051b82826200098a565b5050565b60006200052c816200090d565b620003da620009b0565b600054610100900460ff1615808015620005575750600054600160ff909116105b80620005735750303b15801562000573575060005460ff166001145b620005d85760405162461bcd60e51b815260206004820152602e60248201527f496e697469616c697a61626c653a20636f6e747261637420697320616c72656160448201526d191e481a5b9a5d1a585b1a5e995960921b6064820152608401620003c6565b6000805460ff191660011790558015620005fc576000805461ff0019166101001790555b620006073362000a04565b620006128262000a57565b61019280546001600160a01b0319166001600160a01b03851617905580156200046f576000805461ff0019169055604051600181527f7f26b83ff96e1f2b6a682f133852f6798a09c465da95921460cefb38474024989060200160405180910390a1505050565b62000683620007bb565b620006a25760405162461bcd60e51b8152600401620003c690620012a0565b6001600160a01b0381166200070d5760405162461bcd60e51b815260206004820152602a60248201527f506f6f6c4e4156466163746f72793a206e657720616464726573732063616e6e6044820152696f74206265207a65726f60b01b6064820152608401620003c6565b61019380546001600160a01b0319166001600160a01b0383169081179091556040517f2f307b41b222ccb764dfe77684d69453336884e63e671f99410b816a62d62e7790600090a250565b600062000765816200090d565b620003da62000a96565b600082815260fb6020526040812062000789908362000ad6565b9392505050565b600091825260c9602090815260408084206001600160a01b0393909316845291905290205460ff1690565b6000620007d8600080516020620023548339815191523362000790565b905090565b600081815260fb60205260408120620003979062000ae4565b600082815260c9602052604090206001015462000813816200090d565b6200046f83836200098a565b60006001600160e01b03198216635a05180f60e01b1480620003975750620003978262000aef565b61015f80546001600160a01b0319166001600160a01b0392909216919091179055565b60335460ff1615620008b25760405162461bcd60e51b815260206004820152601060248201526f14185d5cd8589b194e881c185d5cd95960821b6044820152606401620003c6565b565b61015f54604051600091829185916001600160a01b0316908590620008d9906200118d565b620008e79392919062001351565b604051809103906000f08015801562000904573d6000803e3d6000fd5b50949350505050565b620003da813362000b26565b600082815260c96020526040808220600101805490849055905190918391839186917fbd79b86ffe0ab8e8776151514217cd7cacd52c909f66475c3af44e129f0b00ff9190a4505050565b62000970828262000b8a565b600082815260fb602052604090206200046f908262000c14565b62000996828262000c2b565b600082815260fb602052604090206200046f908262000c95565b620009ba62000cac565b6033805460ff191690557f5db9ee0a495bf2e6ff9c91a7834c1ba4fdd244a5e8aa4e537bd38aeae4b073aa335b6040516001600160a01b03909116815260200160405180910390a1565b600054610100900460ff1662000a2e5760405162461bcd60e51b8152600401620003c69062001388565b62000a3862000cf7565b62000a4262000d2d565b62000a4c62000d5e565b620003da8162000d88565b600054610100900460ff1662000a815760405162461bcd60e51b8152600401620003c69062001388565b62000a8b62000d5e565b620003da8162000e07565b62000aa06200086a565b6033805460ff191660011790557f62e78cea01bee320cd4e420270b5ea74000d11b0c9f74754ebdbfc544b05a258620009e73390565b600062000789838362000e31565b600062000397825490565b60006001600160e01b03198216637965db0b60e01b14806200039757506301ffc9a760e01b6001600160e01b031983161462000397565b62000b32828262000790565b6200051b5762000b428162000e5e565b62000b4f83602062000e71565b60405160200162000b62929190620013d3565b60408051601f198184030181529082905262461bcd60e51b8252620003c6916004016200144c565b62000b96828262000790565b6200051b57600082815260c9602090815260408083206001600160a01b03851684529091529020805460ff1916600117905562000bd03390565b6001600160a01b0316816001600160a01b0316837f2f8788117e7eff1d82e926ec794901d17c78024a50270940304540a733656f0d60405160405180910390a45050565b600062000789836001600160a01b0384166200102b565b62000c37828262000790565b156200051b57600082815260c9602090815260408083206001600160a01b0385168085529252808320805460ff1916905551339285917ff6391f5c32d9c69d2a47ea670b442974b53935d1edc7fd64eb21e047a839171b9190a45050565b600062000789836001600160a01b0384166200107d565b60335460ff16620008b25760405162461bcd60e51b815260206004820152601460248201527314185d5cd8589b194e881b9bdd081c185d5cd95960621b6044820152606401620003c6565b600054610100900460ff1662000d215760405162461bcd60e51b8152600401620003c69062001388565b6033805460ff19169055565b600054610100900460ff1662000d575760405162461bcd60e51b8152600401620003c69062001388565b6001606555565b600054610100900460ff16620008b25760405162461bcd60e51b8152600401620003c69062001388565b600054610100900460ff1662000db25760405162461bcd60e51b8152600401620003c69062001388565b6001600160a01b03811662000dc45750335b62000dd160003362001181565b62000dec600080516020620023548339815191528262001181565b620003da600080516020620023548339815191528062000919565b600054610100900460ff16620008475760405162461bcd60e51b8152600401620003c69062001388565b600082600001828154811062000e4b5762000e4b62001461565b9060005260206000200154905092915050565b6060620003976001600160a01b03831660145b6060600062000e828360026200148d565b62000e8f906002620014a7565b67ffffffffffffffff81111562000eaa5762000eaa620014bd565b6040519080825280601f01601f19166020018201604052801562000ed5576020820181803683370190505b509050600360fc1b8160008151811062000ef35762000ef362001461565b60200101906001600160f81b031916908160001a905350600f60fb1b8160018151811062000f255762000f2562001461565b60200101906001600160f81b031916908160001a905350600062000f4b8460026200148d565b62000f58906001620014a7565b90505b600181111562000fda576f181899199a1a9b1b9c1cb0b131b232b360811b85600f166010811062000f905762000f9062001461565b1a60f81b82828151811062000fa95762000fa962001461565b60200101906001600160f81b031916908160001a90535060049490941c9362000fd281620014d3565b905062000f5b565b508315620007895760405162461bcd60e51b815260206004820181905260248201527f537472696e67733a20686578206c656e67746820696e73756666696369656e746044820152606401620003c6565b6000818152600183016020526040812054620010745750815460018181018455600084815260208082209093018490558454848252828601909352604090209190915562000397565b50600062000397565b6000818152600183016020526040812054801562001176576000620010a4600183620014ed565b8554909150600090620010ba90600190620014ed565b905081811462001126576000866000018281548110620010de57620010de62001461565b906000526020600020015490508087600001848154811062001104576200110462001461565b6000918252602080832090910192909255918252600188019052604090208390555b85548690806200113a576200113a62001503565b60019003818190600052602060002001600090559055856001016000868152602001908152602001600020600090556001935050505062000397565b600091505062000397565b6200051b828262000964565b610e3a806200151a83390190565b600060208284031215620011ae57600080fd5b81356001600160e01b0319811681146200078957600080fd5b6001600160a01b0381168114620003da57600080fd5b600060208284031215620011f057600080fd5b81356200078981620011c7565b600080604083850312156200121157600080fd5b50508035926020909101359150565b6000602082840312156200123357600080fd5b5035919050565b600080604083850312156200124e57600080fd5b8235915060208301356200126281620011c7565b809150509250929050565b600080604083850312156200128157600080fd5b82356200128e81620011c7565b915060208301356200126281620011c7565b6020808252603a908201527f556e74616e676c6564426173653a204d75737420686176652061646d696e207260408201527f6f6c6520746f20706572666f726d207468697320616374696f6e000000000000606082015260800190565b60005b838110156200131a57818101518382015260200162001300565b50506000910152565b600081518084526200133d816020860160208601620012fd565b601f01601f19169290920160200192915050565b6001600160a01b038481168252831660208201526060604082018190526000906200137f9083018462001323565b95945050505050565b6020808252602b908201527f496e697469616c697a61626c653a20636f6e7472616374206973206e6f74206960408201526a6e697469616c697a696e6760a81b606082015260800190565b7f416363657373436f6e74726f6c3a206163636f756e74200000000000000000008152600083516200140d816017850160208801620012fd565b7001034b99036b4b9b9b4b733903937b6329607d1b601791840191820152835162001440816028840160208801620012fd565b01602801949350505050565b60208152600062000789602083018462001323565b634e487b7160e01b600052603260045260246000fd5b634e487b7160e01b600052601160045260246000fd5b808202811582820484141762000397576200039762001477565b8082018082111562000397576200039762001477565b634e487b7160e01b600052604160045260246000fd5b600081620014e557620014e562001477565b506000190190565b8181038181111562000397576200039762001477565b634e487b7160e01b600052603160045260246000fdfe608060405260405162000e3a38038062000e3a833981016040819052620000269162000424565b828162000036828260006200004d565b50620000449050826200007f565b50505062000557565b6200005883620000f1565b600082511180620000665750805b156200007a5762000078838362000133565b505b505050565b7f7e644d79422f17c01e4894b5f4f588d331ebfa28653d42ae832dc59e38c9798f620000c160008051602062000df3833981519152546001600160a01b031690565b604080516001600160a01b03928316815291841660208301520160405180910390a1620000ee8162000162565b50565b620000fc8162000200565b6040516001600160a01b038216907fbc7cd75a20ee27fd9adebab32041f755214dbc6bffa90cc0225b39da2e5c2d3b90600090a250565b60606200015b838360405180606001604052806027815260200162000e136027913962000297565b9392505050565b6001600160a01b038116620001cd5760405162461bcd60e51b815260206004820152602660248201527f455243313936373a206e65772061646d696e20697320746865207a65726f206160448201526564647265737360d01b60648201526084015b60405180910390fd5b8060008051602062000df38339815191525b80546001600160a01b0319166001600160a01b039290921691909117905550565b6001600160a01b0381163b6200026f5760405162461bcd60e51b815260206004820152602d60248201527f455243313936373a206e657720696d706c656d656e746174696f6e206973206e60448201526c1bdd08184818dbdb9d1c9858dd609a1b6064820152608401620001c4565b807f360894a13ba1a3210667c828492db98dca3e2076cc3735a920a3ca505d382bbc620001df565b6060600080856001600160a01b031685604051620002b6919062000504565b600060405180830381855af49150503d8060008114620002f3576040519150601f19603f3d011682016040523d82523d6000602084013e620002f8565b606091505b5090925090506200030c8683838762000316565b9695505050505050565b606083156200038a57825160000362000382576001600160a01b0385163b620003825760405162461bcd60e51b815260206004820152601d60248201527f416464726573733a2063616c6c20746f206e6f6e2d636f6e74726163740000006044820152606401620001c4565b508162000396565b6200039683836200039e565b949350505050565b815115620003af5781518083602001fd5b8060405162461bcd60e51b8152600401620001c4919062000522565b80516001600160a01b0381168114620003e357600080fd5b919050565b634e487b7160e01b600052604160045260246000fd5b60005b838110156200041b57818101518382015260200162000401565b50506000910152565b6000806000606084860312156200043a57600080fd5b6200044584620003cb565b92506200045560208501620003cb565b60408501519092506001600160401b03808211156200047357600080fd5b818601915086601f8301126200048857600080fd5b8151818111156200049d576200049d620003e8565b604051601f8201601f19908116603f01168101908382118183101715620004c857620004c8620003e8565b81604052828152896020848701011115620004e257600080fd5b620004f5836020830160208801620003fe565b80955050505050509250925092565b6000825162000518818460208701620003fe565b9190910192915050565b602081526000825180602084015262000543816040850160208701620003fe565b601f01601f19169190910160400192915050565b61088c80620005676000396000f3fe60806040523661001357610011610017565b005b6100115b61001f610169565b6001600160a01b0316330361015f5760606001600160e01b0319600035166364d3180d60e11b810161005a5761005361019c565b9150610157565b63587086bd60e11b6001600160e01b031982160161007a576100536101f3565b63070d7c6960e41b6001600160e01b031982160161009a57610053610239565b621eb96f60e61b6001600160e01b03198216016100b95761005361026a565b63a39f25e560e01b6001600160e01b03198216016100d9576100536102aa565b60405162461bcd60e51b815260206004820152604260248201527f5472616e73706172656e745570677261646561626c6550726f78793a2061646d60448201527f696e2063616e6e6f742066616c6c6261636b20746f2070726f78792074617267606482015261195d60f21b608482015260a4015b60405180910390fd5b815160208301f35b6101676102be565b565b60007fb53127684a568b3173ae13b9f8a6016e243e63b6e8ee1178d6a717850b5d61035b546001600160a01b0316919050565b60606101a66102ce565b60006101b53660048184610683565b8101906101c291906106c9565b90506101df816040518060200160405280600081525060006102d9565b505060408051602081019091526000815290565b60606000806102053660048184610683565b81019061021291906106fa565b91509150610222828260016102d9565b604051806020016040528060008152509250505090565b60606102436102ce565b60006102523660048184610683565b81019061025f91906106c9565b90506101df81610305565b60606102746102ce565b600061027e610169565b604080516001600160a01b03831660208201529192500160405160208183030381529060405291505090565b60606102b46102ce565b600061027e61035c565b6101676102c961035c565b61036b565b341561016757600080fd5b6102e28361038f565b6000825111806102ef5750805b15610300576102fe83836103cf565b505b505050565b7f7e644d79422f17c01e4894b5f4f588d331ebfa28653d42ae832dc59e38c9798f61032e610169565b604080516001600160a01b03928316815291841660208301520160405180910390a1610359816103fb565b50565b60006103666104a4565b905090565b3660008037600080366000845af43d6000803e80801561038a573d6000f35b3d6000fd5b610398816104cc565b6040516001600160a01b038216907fbc7cd75a20ee27fd9adebab32041f755214dbc6bffa90cc0225b39da2e5c2d3b90600090a250565b60606103f4838360405180606001604052806027815260200161083060279139610560565b9392505050565b6001600160a01b0381166104605760405162461bcd60e51b815260206004820152602660248201527f455243313936373a206e65772061646d696e20697320746865207a65726f206160448201526564647265737360d01b606482015260840161014e565b807fb53127684a568b3173ae13b9f8a6016e243e63b6e8ee1178d6a717850b5d61035b80546001600160a01b0319166001600160a01b039290921691909117905550565b60007f360894a13ba1a3210667c828492db98dca3e2076cc3735a920a3ca505d382bbc61018d565b6001600160a01b0381163b6105395760405162461bcd60e51b815260206004820152602d60248201527f455243313936373a206e657720696d706c656d656e746174696f6e206973206e60448201526c1bdd08184818dbdb9d1c9858dd609a1b606482015260840161014e565b807f360894a13ba1a3210667c828492db98dca3e2076cc3735a920a3ca505d382bbc610483565b6060600080856001600160a01b03168560405161057d91906107e0565b600060405180830381855af49150503d80600081146105b8576040519150601f19603f3d011682016040523d82523d6000602084013e6105bd565b606091505b50915091506105ce868383876105d8565b9695505050505050565b60608315610647578251600003610640576001600160a01b0385163b6106405760405162461bcd60e51b815260206004820152601d60248201527f416464726573733a2063616c6c20746f206e6f6e2d636f6e7472616374000000604482015260640161014e565b5081610651565b6106518383610659565b949350505050565b8151156106695781518083602001fd5b8060405162461bcd60e51b815260040161014e91906107fc565b6000808585111561069357600080fd5b838611156106a057600080fd5b5050820193919092039150565b80356001600160a01b03811681146106c457600080fd5b919050565b6000602082840312156106db57600080fd5b6103f4826106ad565b634e487b7160e01b600052604160045260246000fd5b6000806040838503121561070d57600080fd5b610716836106ad565b9150602083013567ffffffffffffffff8082111561073357600080fd5b818501915085601f83011261074757600080fd5b813581811115610759576107596106e4565b604051601f8201601f19908116603f01168101908382118183101715610781576107816106e4565b8160405282815288602084870101111561079a57600080fd5b8260208601602083013760006020848301015280955050505050509250929050565b60005b838110156107d75781810151838201526020016107bf565b50506000910152565b600082516107f28184602087016107bc565b9190910192915050565b602081526000825180602084015261081b8160408501602087016107bc565b601f01601f1916919091016040019291505056fe416464726573733a206c6f772d6c6576656c2064656c65676174652063616c6c206661696c6564a26469706673582212203ee2f73ab410cffabdfe09f9ebcfce29461addacfddf586afaf2ba05c7d1b40864736f6c63430008130033b53127684a568b3173ae13b9f8a6016e243e63b6e8ee1178d6a717850b5d6103416464726573733a206c6f772d6c6576656c2064656c65676174652063616c6c206661696c6564b19546dff01e856fb3f010c267a7b1c60363cf8a4664e21cc89c26224620214ea26469706673582212208a9f77e863d51c1e75040b7192fa91f8a2ae969f3c340d2b1524b261976bf59e64736f6c63430008130033",
  "devdoc": {
    "events": {
      "Initialized(uint8)": {
        "details": "Triggered when the contract has been initialized or reinitialized."
      },
      "Paused(address)": {
        "details": "Emitted when the pause is triggered by `account`."
      },
      "RoleAdminChanged(bytes32,bytes32,bytes32)": {
        "details": "Emitted when `newAdminRole` is set as ``role``'s admin role, replacing `previousAdminRole` `DEFAULT_ADMIN_ROLE` is the starting admin for all roles, despite {RoleAdminChanged} not being emitted signaling this. _Available since v3.1._"
      },
      "RoleGranted(bytes32,address,address)": {
        "details": "Emitted when `account` is granted `role`. `sender` is the account that originated the contract call, an admin role bearer except when using {AccessControl-_setupRole}."
      },
      "RoleRevoked(bytes32,address,address)": {
        "details": "Emitted when `account` is revoked `role`. `sender` is the account that originated the contract call:   - if using `revokeRole`, it is the admin role bearer   - if using `renounceRole`, it is the role bearer (i.e. `account`)"
      },
      "Unpaused(address)": {
        "details": "Emitted when the pause is lifted by `account`."
      }
    },
    "kind": "dev",
    "methods": {
      "getRoleAdmin(bytes32)": {
        "details": "Returns the admin role that controls `role`. See {grantRole} and {revokeRole}. To change a role's admin, use {_setRoleAdmin}."
      },
      "getRoleMember(bytes32,uint256)": {
        "details": "Returns one of the accounts that have `role`. `index` must be a value between 0 and {getRoleMemberCount}, non-inclusive. Role bearers are not sorted in any particular way, and their ordering may change at any point. WARNING: When using {getRoleMember} and {getRoleMemberCount}, make sure you perform all queries on the same block. See the following https://forum.openzeppelin.com/t/iterating-over-elements-on-enumerableset-in-openzeppelin-contracts/2296[forum post] for more information."
      },
      "getRoleMemberCount(bytes32)": {
        "details": "Returns the number of accounts that have `role`. Can be used together with {getRoleMember} to enumerate all bearers of a role."
      },
      "grantRole(bytes32,address)": {
        "details": "Grants `role` to `account`. If `account` had not been already granted `role`, emits a {RoleGranted} event. Requirements: - the caller must have ``role``'s admin role. May emit a {RoleGranted} event."
      },
      "hasRole(bytes32,address)": {
        "details": "Returns `true` if `account` has been granted `role`."
      },
      "paused()": {
        "details": "Returns true if the contract is paused, and false otherwise."
      },
      "renounceRole(bytes32,address)": {
        "details": "Revokes `role` from the calling account. Roles are often managed via {grantRole} and {revokeRole}: this function's purpose is to provide a mechanism for accounts to lose their privileges if they are compromised (such as when a trusted device is misplaced). If the calling account had been revoked `role`, emits a {RoleRevoked} event. Requirements: - the caller must be `account`. May emit a {RoleRevoked} event."
      },
      "revokeRole(bytes32,address)": {
        "details": "Revokes `role` from `account`. If `account` had been granted `role`, emits a {RoleRevoked} event. Requirements: - the caller must have ``role``'s admin role. May emit a {RoleRevoked} event."
      },
      "supportsInterface(bytes4)": {
        "details": "See {IERC165-supportsInterface}."
      }
    },
    "version": 1
  },
  "userdoc": {
    "kind": "user",
    "methods": {},
    "version": 1
  },
  "storageLayout": {
    "storage": [
      {
        "astId": 765,
        "contract": "contracts/protocol/pool/PoolNAVFactory.sol:PoolNAVFactory",
        "label": "_initialized",
        "offset": 0,
        "slot": "0",
        "type": "t_uint8"
      },
      {
        "astId": 768,
        "contract": "contracts/protocol/pool/PoolNAVFactory.sol:PoolNAVFactory",
        "label": "_initializing",
        "offset": 1,
        "slot": "0",
        "type": "t_bool"
      },
      {
        "astId": 4282,
        "contract": "contracts/protocol/pool/PoolNAVFactory.sol:PoolNAVFactory",
        "label": "__gap",
        "offset": 0,
        "slot": "1",
        "type": "t_array(t_uint256)50_storage"
      },
      {
        "astId": 948,
        "contract": "contracts/protocol/pool/PoolNAVFactory.sol:PoolNAVFactory",
        "label": "_paused",
        "offset": 0,
        "slot": "51",
        "type": "t_bool"
      },
      {
        "astId": 1053,
        "contract": "contracts/protocol/pool/PoolNAVFactory.sol:PoolNAVFactory",
        "label": "__gap",
        "offset": 0,
        "slot": "52",
        "type": "t_array(t_uint256)49_storage"
      },
      {
        "astId": 1068,
        "contract": "contracts/protocol/pool/PoolNAVFactory.sol:PoolNAVFactory",
        "label": "_status",
        "offset": 0,
        "slot": "101",
        "type": "t_uint256"
      },
      {
        "astId": 1137,
        "contract": "contracts/protocol/pool/PoolNAVFactory.sol:PoolNAVFactory",
        "label": "__gap",
        "offset": 0,
        "slot": "102",
        "type": "t_array(t_uint256)49_storage"
      },
      {
        "astId": 5572,
        "contract": "contracts/protocol/pool/PoolNAVFactory.sol:PoolNAVFactory",
        "label": "__gap",
        "offset": 0,
        "slot": "151",
        "type": "t_array(t_uint256)50_storage"
      },
      {
        "astId": 184,
        "contract": "contracts/protocol/pool/PoolNAVFactory.sol:PoolNAVFactory",
        "label": "_roles",
        "offset": 0,
        "slot": "201",
        "type": "t_mapping(t_bytes32,t_struct(RoleData)179_storage)"
      },
      {
        "astId": 479,
        "contract": "contracts/protocol/pool/PoolNAVFactory.sol:PoolNAVFactory",
        "label": "__gap",
        "offset": 0,
        "slot": "202",
        "type": "t_array(t_uint256)49_storage"
      },
      {
        "astId": 33,
        "contract": "contracts/protocol/pool/PoolNAVFactory.sol:PoolNAVFactory",
        "label": "_roleMembers",
        "offset": 0,
        "slot": "251",
        "type": "t_mapping(t_bytes32,t_struct(AddressSet)6882_storage)"
      },
      {
        "astId": 143,
        "contract": "contracts/protocol/pool/PoolNAVFactory.sol:PoolNAVFactory",
        "label": "__gap",
        "offset": 0,
        "slot": "252",
        "type": "t_array(t_uint256)49_storage"
      },
      {
        "astId": 10532,
        "contract": "contracts/protocol/pool/PoolNAVFactory.sol:PoolNAVFactory",
        "label": "__gap",
        "offset": 0,
        "slot": "301",
        "type": "t_array(t_uint256)50_storage"
      },
      {
        "astId": 10042,
        "contract": "contracts/protocol/pool/PoolNAVFactory.sol:PoolNAVFactory",
        "label": "factoryAdmin",
        "offset": 0,
        "slot": "351",
        "type": "t_address"
      },
      {
        "astId": 10121,
        "contract": "contracts/protocol/pool/PoolNAVFactory.sol:PoolNAVFactory",
        "label": "__gap",
        "offset": 0,
        "slot": "352",
        "type": "t_array(t_uint256)50_storage"
      },
      {
        "astId": 23754,
        "contract": "contracts/protocol/pool/PoolNAVFactory.sol:PoolNAVFactory",
        "label": "registry",
        "offset": 0,
        "slot": "402",
        "type": "t_contract(Registry)32359"
      },
      {
        "astId": 23757,
        "contract": "contracts/protocol/pool/PoolNAVFactory.sol:PoolNAVFactory",
        "label": "poolNAVImplementation",
        "offset": 0,
        "slot": "403",
        "type": "t_address"
      }
    ],
    "types": {
      "t_address": {
        "encoding": "inplace",
        "label": "address",
        "numberOfBytes": "20"
      },
      "t_array(t_bytes32)dyn_storage": {
        "base": "t_bytes32",
        "encoding": "dynamic_array",
        "label": "bytes32[]",
        "numberOfBytes": "32"
      },
      "t_array(t_uint256)49_storage": {
        "base": "t_uint256",
        "encoding": "inplace",
        "label": "uint256[49]",
        "numberOfBytes": "1568"
      },
      "t_array(t_uint256)50_storage": {
        "base": "t_uint256",
        "encoding": "inplace",
        "label": "uint256[50]",
        "numberOfBytes": "1600"
      },
      "t_bool": {
        "encoding": "inplace",
        "label": "bool",
        "numberOfBytes": "1"
      },
      "t_bytes32": {
        "encoding": "inplace",
        "label": "bytes32",
        "numberOfBytes": "32"
      },
      "t_contract(Registry)32359": {
        "encoding": "inplace",
        "label": "contract Registry",
        "numberOfBytes": "20"
      },
      "t_mapping(t_address,t_bool)": {
        "encoding": "mapping",
        "key": "t_address",
        "label": "mapping(address => bool)",
        "numberOfBytes": "32",
        "value": "t_bool"
      },
      "t_mapping(t_bytes32,t_struct(AddressSet)6882_storage)": {
        "encoding": "mapping",
        "key": "t_bytes32",
        "label": "mapping(bytes32 => struct EnumerableSetUpgradeable.AddressSet)",
        "numberOfBytes": "32",
        "value": "t_struct(AddressSet)6882_storage"
      },
      "t_mapping(t_bytes32,t_struct(RoleData)179_storage)": {
        "encoding": "mapping",
        "key": "t_bytes32",
        "label": "mapping(bytes32 => struct AccessControlUpgradeable.RoleData)",
        "numberOfBytes": "32",
        "value": "t_struct(RoleData)179_storage"
      },
      "t_mapping(t_bytes32,t_uint256)": {
        "encoding": "mapping",
        "key": "t_bytes32",
        "label": "mapping(bytes32 => uint256)",
        "numberOfBytes": "32",
        "value": "t_uint256"
      },
      "t_struct(AddressSet)6882_storage": {
        "encoding": "inplace",
        "label": "struct EnumerableSetUpgradeable.AddressSet",
        "members": [
          {
            "astId": 6881,
            "contract": "contracts/protocol/pool/PoolNAVFactory.sol:PoolNAVFactory",
            "label": "_inner",
            "offset": 0,
            "slot": "0",
            "type": "t_struct(Set)6567_storage"
          }
        ],
        "numberOfBytes": "64"
      },
      "t_struct(RoleData)179_storage": {
        "encoding": "inplace",
        "label": "struct AccessControlUpgradeable.RoleData",
        "members": [
          {
            "astId": 176,
            "contract": "contracts/protocol/pool/PoolNAVFactory.sol:PoolNAVFactory",
            "label": "members",
            "offset": 0,
            "slot": "0",
            "type": "t_mapping(t_address,t_bool)"
          },
          {
            "astId": 178,
            "contract": "contracts/protocol/pool/PoolNAVFactory.sol:PoolNAVFactory",
            "label": "adminRole",
            "offset": 0,
            "slot": "1",
            "type": "t_bytes32"
          }
        ],
        "numberOfBytes": "64"
      },
      "t_struct(Set)6567_storage": {
        "encoding": "inplace",
        "label": "struct EnumerableSetUpgradeable.Set",
        "members": [
          {
            "astId": 6562,
            "contract": "contracts/protocol/pool/PoolNAVFactory.sol:PoolNAVFactory",
            "label": "_values",
            "offset": 0,
            "slot": "0",
            "type": "t_array(t_bytes32)dyn_storage"
          },
          {
            "astId": 6566,
            "contract": "contracts/protocol/pool/PoolNAVFactory.sol:PoolNAVFactory",
            "label": "_indexes",
            "offset": 0,
            "slot": "1",
            "type": "t_mapping(t_bytes32,t_uint256)"
          }
        ],
        "numberOfBytes": "64"
      },
      "t_uint256": {
        "encoding": "inplace",
        "label": "uint256",
        "numberOfBytes": "32"
      },
      "t_uint8": {
        "encoding": "inplace",
        "label": "uint8",
        "numberOfBytes": "1"
      }
    }
  }
}