{
  "address": "0x62fbF16E2F6F16f4ef5279b6838Bb180da6a3d42",
  "abi": [
    {
      "anonymous": false,
      "inputs": [
        {
          "indexed": true,
          "internalType": "uint256",
          "name": "loan",
          "type": "uint256"
        },
        {
          "indexed": false,
          "internalType": "uint256",
          "name": "principalAmount",
          "type": "uint256"
        },
        {
          "indexed": false,
          "internalType": "uint256",
          "name": "maturityDate",
          "type": "uint256"
        }
      ],
      "name": "AddLoan",
      "type": "event"
    },
    {
      "anonymous": false,
      "inputs": [
        {
          "indexed": true,
          "internalType": "uint256",
          "name": "loan",
          "type": "uint256"
        },
        {
          "indexed": false,
          "internalType": "uint256",
          "name": "newRate",
          "type": "uint256"
        }
      ],
      "name": "ChangeRate",
      "type": "event"
    },
    {
      "anonymous": false,
      "inputs": [
        {
          "indexed": true,
          "internalType": "uint256",
          "name": "loan",
          "type": "uint256"
        },
        {
          "indexed": false,
          "internalType": "uint256",
          "name": "currencyAmount",
          "type": "uint256"
        }
      ],
      "name": "DecreaseDebt",
      "type": "event"
    },
    {
      "anonymous": false,
      "inputs": [
        {
          "indexed": true,
          "internalType": "address",
          "name": "usr",
          "type": "address"
        }
      ],
      "name": "Deny",
      "type": "event"
    },
    {
      "anonymous": false,
      "inputs": [
        {
          "indexed": true,
          "internalType": "bytes32",
          "name": "name",
          "type": "bytes32"
        },
        {
          "indexed": false,
          "internalType": "address",
          "name": "addr",
          "type": "address"
        }
      ],
      "name": "Depend",
      "type": "event"
    },
    {
      "anonymous": false,
      "inputs": [
        {
          "indexed": true,
          "internalType": "bytes32",
          "name": "what",
          "type": "bytes32"
        },
        {
          "indexed": false,
          "internalType": "uint256",
          "name": "rate",
          "type": "uint256"
        },
        {
          "indexed": false,
          "internalType": "uint256",
          "name": "value",
          "type": "uint256"
        }
      ],
      "name": "File",
      "type": "event"
    },
    {
      "anonymous": false,
      "inputs": [
        {
          "indexed": true,
          "internalType": "uint256",
          "name": "loan",
          "type": "uint256"
        },
        {
          "indexed": false,
          "internalType": "uint256",
          "name": "currencyAmount",
          "type": "uint256"
        }
      ],
      "name": "IncreaseDebt",
      "type": "event"
    },
    {
      "anonymous": false,
      "inputs": [
        {
          "indexed": false,
          "internalType": "uint8",
          "name": "version",
          "type": "uint8"
        }
      ],
      "name": "Initialized",
      "type": "event"
    },
    {
      "anonymous": false,
      "inputs": [
        {
          "indexed": true,
          "internalType": "address",
          "name": "usr",
          "type": "address"
        }
      ],
      "name": "Rely",
      "type": "event"
    },
    {
      "anonymous": false,
      "inputs": [
        {
          "indexed": false,
          "internalType": "bytes32",
          "name": "nftID_",
          "type": "bytes32"
        },
        {
          "indexed": false,
          "internalType": "uint256",
          "name": "maturityDate_",
          "type": "uint256"
        }
      ],
      "name": "SetLoanMaturity",
      "type": "event"
    },
    {
      "anonymous": false,
      "inputs": [
        {
          "indexed": true,
          "internalType": "uint256",
          "name": "loan",
          "type": "uint256"
        },
        {
          "indexed": false,
          "internalType": "uint256",
          "name": "rate",
          "type": "uint256"
        }
      ],
      "name": "SetRate",
      "type": "event"
    },
    {
      "anonymous": false,
      "inputs": [
        {
          "indexed": true,
          "internalType": "uint256",
          "name": "loan",
          "type": "uint256"
        },
        {
          "indexed": true,
          "internalType": "uint256",
          "name": "writeOffGroupsIndex",
          "type": "uint256"
        },
        {
          "indexed": false,
          "internalType": "bool",
          "name": "override_",
          "type": "bool"
        }
      ],
      "name": "WriteOff",
      "type": "event"
    },
    {
      "inputs": [],
      "name": "INTEREST_RATE_SCALING_FACTOR_PERCENT",
      "outputs": [
        {
          "internalType": "uint256",
          "name": "",
          "type": "uint256"
        }
      ],
      "stateMutability": "view",
      "type": "function"
    },
    {
      "inputs": [],
      "name": "ONE_HUNDRED_PERCENT",
      "outputs": [
        {
          "internalType": "uint256",
          "name": "",
          "type": "uint256"
        }
      ],
      "stateMutability": "view",
      "type": "function"
    },
    {
      "inputs": [],
      "name": "WRITEOFF_RATE_GROUP_START",
      "outputs": [
        {
          "internalType": "uint256",
          "name": "",
          "type": "uint256"
        }
      ],
      "stateMutability": "view",
      "type": "function"
    },
    {
      "inputs": [
        {
          "internalType": "uint256",
          "name": "loan",
          "type": "uint256"
        }
      ],
      "name": "accrue",
      "outputs": [],
      "stateMutability": "nonpayable",
      "type": "function"
    },
    {
      "inputs": [
        {
          "internalType": "uint256",
          "name": "loan",
          "type": "uint256"
        }
      ],
      "name": "addLoan",
      "outputs": [
        {
          "internalType": "uint256",
          "name": "",
          "type": "uint256"
        }
      ],
      "stateMutability": "nonpayable",
      "type": "function"
    },
    {
      "inputs": [],
      "name": "balance",
      "outputs": [
        {
          "internalType": "uint256",
          "name": "",
          "type": "uint256"
        }
      ],
      "stateMutability": "view",
      "type": "function"
    },
    {
      "inputs": [
        {
          "internalType": "uint256",
          "name": "",
          "type": "uint256"
        }
      ],
      "name": "balances",
      "outputs": [
        {
          "internalType": "uint256",
          "name": "",
          "type": "uint256"
        }
      ],
      "stateMutability": "view",
      "type": "function"
    },
    {
      "inputs": [
        {
          "internalType": "uint256",
          "name": "loan",
          "type": "uint256"
        },
        {
          "internalType": "uint256",
          "name": "",
          "type": "uint256"
        }
      ],
      "name": "borrowEvent",
      "outputs": [],
      "stateMutability": "nonpayable",
      "type": "function"
    },
    {
      "inputs": [
        {
          "internalType": "uint256",
          "name": "loan",
          "type": "uint256"
        }
      ],
      "name": "borrowed",
      "outputs": [
        {
          "internalType": "uint256",
          "name": "borrowed_",
          "type": "uint256"
        }
      ],
      "stateMutability": "view",
      "type": "function"
    },
    {
      "inputs": [
        {
          "internalType": "uint256",
          "name": "",
          "type": "uint256"
        }
      ],
      "name": "buckets",
      "outputs": [
        {
          "internalType": "uint256",
          "name": "",
          "type": "uint256"
        }
      ],
      "stateMutability": "view",
      "type": "function"
    },
    {
      "inputs": [
        {
          "internalType": "uint256",
          "name": "discountRate",
          "type": "uint256"
        },
        {
          "internalType": "uint256",
          "name": "fv",
          "type": "uint256"
        },
        {
          "internalType": "uint256",
          "name": "normalizedBlockTimestamp",
          "type": "uint256"
        },
        {
          "internalType": "uint256",
          "name": "maturityDate",
          "type": "uint256"
        }
      ],
      "name": "calcDiscount",
      "outputs": [
        {
          "internalType": "uint256",
          "name": "result",
          "type": "uint256"
        }
      ],
      "stateMutability": "pure",
      "type": "function"
    },
    {
      "inputs": [
        {
          "internalType": "uint256",
          "name": "loanInterestRate",
          "type": "uint256"
        },
        {
          "internalType": "uint256",
          "name": "amount",
          "type": "uint256"
        },
        {
          "internalType": "uint256",
          "name": "maturityDate",
          "type": "uint256"
        },
        {
          "internalType": "uint256",
          "name": "recoveryRatePD",
          "type": "uint256"
        }
      ],
      "name": "calcFutureValue",
      "outputs": [
        {
          "internalType": "uint256",
          "name": "fv",
          "type": "uint256"
        }
      ],
      "stateMutability": "view",
      "type": "function"
    },
    {
      "inputs": [],
      "name": "calcUpdateNAV",
      "outputs": [
        {
          "internalType": "uint256",
          "name": "nav_",
          "type": "uint256"
        }
      ],
      "stateMutability": "nonpayable",
      "type": "function"
    },
    {
      "inputs": [
        {
          "internalType": "uint256",
          "name": "interestBearingAmount",
          "type": "uint256"
        },
        {
          "internalType": "uint256",
          "name": "ratePerSecond",
          "type": "uint256"
        },
        {
          "internalType": "uint256",
          "name": "lastUpdated",
          "type": "uint256"
        }
      ],
      "name": "chargeInterest",
      "outputs": [
        {
          "internalType": "uint256",
          "name": "",
          "type": "uint256"
        }
      ],
      "stateMutability": "view",
      "type": "function"
    },
    {
      "inputs": [
        {
          "internalType": "uint256",
          "name": "chi",
          "type": "uint256"
        },
        {
          "internalType": "uint256",
          "name": "ratePerSecond",
          "type": "uint256"
        },
        {
          "internalType": "uint256",
          "name": "lastUpdated",
          "type": "uint256"
        },
        {
          "internalType": "uint256",
          "name": "_pie",
          "type": "uint256"
        }
      ],
      "name": "compounding",
      "outputs": [
        {
          "internalType": "uint256",
          "name": "",
          "type": "uint256"
        },
        {
          "internalType": "uint256",
          "name": "",
          "type": "uint256"
        }
      ],
      "stateMutability": "view",
      "type": "function"
    },
    {
      "inputs": [],
      "name": "currentNAV",
      "outputs": [
        {
          "internalType": "uint256",
          "name": "nav_",
          "type": "uint256"
        }
      ],
      "stateMutability": "view",
      "type": "function"
    },
    {
      "inputs": [],
      "name": "currentPVs",
      "outputs": [
        {
          "internalType": "uint256",
          "name": "totalDiscount",
          "type": "uint256"
        },
        {
          "internalType": "uint256",
          "name": "overdue",
          "type": "uint256"
        },
        {
          "internalType": "uint256",
          "name": "writeOffs",
          "type": "uint256"
        }
      ],
      "stateMutability": "view",
      "type": "function"
    },
    {
      "inputs": [
        {
          "internalType": "uint256",
          "name": "loan",
          "type": "uint256"
        }
      ],
      "name": "currentValidWriteOffGroup",
      "outputs": [
        {
          "internalType": "uint256",
          "name": "writeOffGroup_",
          "type": "uint256"
        }
      ],
      "stateMutability": "view",
      "type": "function"
    },
    {
      "inputs": [],
      "name": "currentWriteOffs",
      "outputs": [
        {
          "internalType": "uint256",
          "name": "sum",
          "type": "uint256"
        }
      ],
      "stateMutability": "view",
      "type": "function"
    },
    {
      "inputs": [
        {
          "internalType": "uint256",
          "name": "loan",
          "type": "uint256"
        }
      ],
      "name": "debt",
      "outputs": [
        {
          "internalType": "uint256",
          "name": "loanDebt",
          "type": "uint256"
        }
      ],
      "stateMutability": "view",
      "type": "function"
    },
    {
      "inputs": [
        {
          "internalType": "address",
          "name": "usr",
          "type": "address"
        }
      ],
      "name": "deny",
      "outputs": [],
      "stateMutability": "nonpayable",
      "type": "function"
    },
    {
      "inputs": [
        {
          "internalType": "bytes32",
          "name": "",
          "type": "bytes32"
        }
      ],
      "name": "details",
      "outputs": [
        {
          "internalType": "uint128",
          "name": "nftValues",
          "type": "uint128"
        },
        {
          "internalType": "uint128",
          "name": "futureValue",
          "type": "uint128"
        },
        {
          "internalType": "uint128",
          "name": "maturityDate",
          "type": "uint128"
        },
        {
          "internalType": "uint128",
          "name": "risk",
          "type": "uint128"
        }
      ],
      "stateMutability": "view",
      "type": "function"
    },
    {
      "inputs": [],
      "name": "discountRate",
      "outputs": [
        {
          "internalType": "uint256",
          "name": "",
          "type": "uint256"
        }
      ],
      "stateMutability": "view",
      "type": "function"
    },
    {
      "inputs": [
        {
          "internalType": "uint256",
          "name": "rate",
          "type": "uint256"
        }
      ],
      "name": "drip",
      "outputs": [],
      "stateMutability": "nonpayable",
      "type": "function"
    },
    {
      "inputs": [
        {
          "internalType": "bytes32",
          "name": "name",
          "type": "bytes32"
        },
        {
          "internalType": "uint256",
          "name": "value",
          "type": "uint256"
        }
      ],
      "name": "file",
      "outputs": [],
      "stateMutability": "nonpayable",
      "type": "function"
    },
    {
      "inputs": [
        {
          "internalType": "bytes32",
          "name": "name",
          "type": "bytes32"
        },
        {
          "internalType": "uint256",
          "name": "rate_",
          "type": "uint256"
        },
        {
          "internalType": "uint256",
          "name": "writeOffPercentage_",
          "type": "uint256"
        },
        {
          "internalType": "uint256",
          "name": "overdueDays_",
          "type": "uint256"
        },
        {
          "internalType": "uint256",
          "name": "penaltyRate_",
          "type": "uint256"
        },
        {
          "internalType": "uint256",
          "name": "riskIndex",
          "type": "uint256"
        }
      ],
      "name": "file",
      "outputs": [],
      "stateMutability": "nonpayable",
      "type": "function"
    },
    {
      "inputs": [
        {
          "internalType": "bytes32",
          "name": "what",
          "type": "bytes32"
        },
        {
          "internalType": "uint256",
          "name": "rate",
          "type": "uint256"
        },
        {
          "internalType": "uint256",
          "name": "value",
          "type": "uint256"
        }
      ],
      "name": "file",
      "outputs": [],
      "stateMutability": "nonpayable",
      "type": "function"
    },
    {
      "inputs": [
        {
          "internalType": "bytes32",
          "name": "nft_",
          "type": "bytes32"
        }
      ],
      "name": "futureValue",
      "outputs": [
        {
          "internalType": "uint256",
          "name": "fv_",
          "type": "uint256"
        }
      ],
      "stateMutability": "view",
      "type": "function"
    },
    {
      "inputs": [
        {
          "internalType": "uint256",
          "name": "loan",
          "type": "uint256"
        },
        {
          "internalType": "uint256",
          "name": "currencyAmount",
          "type": "uint256"
        }
      ],
      "name": "incDebt",
      "outputs": [],
      "stateMutability": "nonpayable",
      "type": "function"
    },
    {
      "inputs": [
        {
          "internalType": "contract Registry",
          "name": "_registry",
          "type": "address"
        },
        {
          "internalType": "address",
          "name": "_pool",
          "type": "address"
        }
      ],
      "name": "initialize",
      "outputs": [],
      "stateMutability": "nonpayable",
      "type": "function"
    },
    {
      "inputs": [
        {
          "internalType": "uint256",
          "name": "loan",
          "type": "uint256"
        }
      ],
      "name": "isLoanWrittenOff",
      "outputs": [
        {
          "internalType": "bool",
          "name": "",
          "type": "bool"
        }
      ],
      "stateMutability": "view",
      "type": "function"
    },
    {
      "inputs": [],
      "name": "lastNAVUpdate",
      "outputs": [
        {
          "internalType": "uint256",
          "name": "",
          "type": "uint256"
        }
      ],
      "stateMutability": "view",
      "type": "function"
    },
    {
      "inputs": [],
      "name": "latestDiscount",
      "outputs": [
        {
          "internalType": "uint256",
          "name": "",
          "type": "uint256"
        }
      ],
      "stateMutability": "view",
      "type": "function"
    },
    {
      "inputs": [],
      "name": "latestNAV",
      "outputs": [
        {
          "internalType": "uint256",
          "name": "",
          "type": "uint256"
        }
      ],
      "stateMutability": "view",
      "type": "function"
    },
    {
      "inputs": [],
      "name": "loanCount",
      "outputs": [
        {
          "internalType": "uint256",
          "name": "",
          "type": "uint256"
        }
      ],
      "stateMutability": "view",
      "type": "function"
    },
    {
      "inputs": [
        {
          "internalType": "uint256",
          "name": "",
          "type": "uint256"
        }
      ],
      "name": "loanDetails",
      "outputs": [
        {
          "internalType": "uint128",
          "name": "borrowed",
          "type": "uint128"
        },
        {
          "internalType": "bool",
          "name": "authWriteOff",
          "type": "bool"
        }
      ],
      "stateMutability": "view",
      "type": "function"
    },
    {
      "inputs": [
        {
          "internalType": "uint256",
          "name": "",
          "type": "uint256"
        }
      ],
      "name": "loanRates",
      "outputs": [
        {
          "internalType": "uint256",
          "name": "",
          "type": "uint256"
        }
      ],
      "stateMutability": "view",
      "type": "function"
    },
    {
      "inputs": [
        {
          "internalType": "bytes32",
          "name": "nft_",
          "type": "bytes32"
        }
      ],
      "name": "maturityDate",
      "outputs": [
        {
          "internalType": "uint256",
          "name": "maturityDate_",
          "type": "uint256"
        }
      ],
      "stateMutability": "view",
      "type": "function"
    },
    {
      "inputs": [
        {
          "internalType": "uint256",
          "name": "loan",
          "type": "uint256"
        }
      ],
      "name": "nftID",
      "outputs": [
        {
          "internalType": "bytes32",
          "name": "nftID_",
          "type": "bytes32"
        }
      ],
      "stateMutability": "pure",
      "type": "function"
    },
    {
      "inputs": [
        {
          "internalType": "bytes32",
          "name": "nft_",
          "type": "bytes32"
        }
      ],
      "name": "nftValues",
      "outputs": [
        {
          "internalType": "uint256",
          "name": "nftValue_",
          "type": "uint256"
        }
      ],
      "stateMutability": "view",
      "type": "function"
    },
    {
      "inputs": [],
      "name": "overdueLoans",
      "outputs": [
        {
          "internalType": "uint256",
          "name": "",
          "type": "uint256"
        }
      ],
      "stateMutability": "view",
      "type": "function"
    },
    {
      "inputs": [
        {
          "internalType": "uint256",
          "name": "loan",
          "type": "uint256"
        },
        {
          "internalType": "uint256",
          "name": "writeOffGroupIndex_",
          "type": "uint256"
        }
      ],
      "name": "overrideWriteOff",
      "outputs": [],
      "stateMutability": "nonpayable",
      "type": "function"
    },
    {
      "inputs": [
        {
          "internalType": "uint256",
          "name": "",
          "type": "uint256"
        }
      ],
      "name": "pie",
      "outputs": [
        {
          "internalType": "uint256",
          "name": "",
          "type": "uint256"
        }
      ],
      "stateMutability": "view",
      "type": "function"
    },
    {
      "inputs": [],
      "name": "pool",
      "outputs": [
        {
          "internalType": "address",
          "name": "",
          "type": "address"
        }
      ],
      "stateMutability": "view",
      "type": "function"
    },
    {
      "inputs": [
        {
          "internalType": "uint256",
          "name": "rate",
          "type": "uint256"
        }
      ],
      "name": "rateDebt",
      "outputs": [
        {
          "internalType": "uint256",
          "name": "totalDebt",
          "type": "uint256"
        }
      ],
      "stateMutability": "view",
      "type": "function"
    },
    {
      "inputs": [
        {
          "internalType": "uint256",
          "name": "",
          "type": "uint256"
        }
      ],
      "name": "rates",
      "outputs": [
        {
          "internalType": "uint256",
          "name": "pie",
          "type": "uint256"
        },
        {
          "internalType": "uint256",
          "name": "chi",
          "type": "uint256"
        },
        {
          "internalType": "uint256",
          "name": "ratePerSecond",
          "type": "uint256"
        },
        {
          "internalType": "uint256",
          "name": "penaltyRatePerSecond",
          "type": "uint256"
        },
        {
          "internalType": "uint256",
          "name": "penaltyChi",
          "type": "uint256"
        },
        {
          "internalType": "uint48",
          "name": "lastUpdated",
          "type": "uint48"
        },
        {
          "internalType": "uint48",
          "name": "timeStartPenalty",
          "type": "uint48"
        }
      ],
      "stateMutability": "view",
      "type": "function"
    },
    {
      "inputs": [
        {
          "internalType": "uint256",
          "name": "x",
          "type": "uint256"
        },
        {
          "internalType": "uint256",
          "name": "y",
          "type": "uint256"
        }
      ],
      "name": "rdiv",
      "outputs": [
        {
          "internalType": "uint256",
          "name": "z",
          "type": "uint256"
        }
      ],
      "stateMutability": "pure",
      "type": "function"
    },
    {
      "inputs": [],
      "name": "reCalcNAV",
      "outputs": [
        {
          "internalType": "uint256",
          "name": "nav_",
          "type": "uint256"
        }
      ],
      "stateMutability": "nonpayable",
      "type": "function"
    },
    {
      "inputs": [],
      "name": "reCalcTotalDiscount",
      "outputs": [
        {
          "internalType": "uint256",
          "name": "latestDiscount_",
          "type": "uint256"
        }
      ],
      "stateMutability": "view",
      "type": "function"
    },
    {
      "inputs": [
        {
          "internalType": "uint256",
          "name": "riskID",
          "type": "uint256"
        },
        {
          "internalType": "uint256",
          "name": "termLength",
          "type": "uint256"
        }
      ],
      "name": "recoveryRatePD",
      "outputs": [
        {
          "internalType": "uint256",
          "name": "recoveryRatePD_",
          "type": "uint256"
        }
      ],
      "stateMutability": "view",
      "type": "function"
    },
    {
      "inputs": [],
      "name": "registry",
      "outputs": [
        {
          "internalType": "contract Registry",
          "name": "",
          "type": "address"
        }
      ],
      "stateMutability": "view",
      "type": "function"
    },
    {
      "inputs": [
        {
          "internalType": "address",
          "name": "usr",
          "type": "address"
        }
      ],
      "name": "rely",
      "outputs": [],
      "stateMutability": "nonpayable",
      "type": "function"
    },
    {
      "inputs": [
        {
          "internalType": "uint256",
          "name": "loan",
          "type": "uint256"
        },
        {
          "internalType": "uint256",
          "name": "amount",
          "type": "uint256"
        }
      ],
      "name": "repayLoan",
      "outputs": [
        {
          "internalType": "uint256",
          "name": "",
          "type": "uint256"
        }
      ],
      "stateMutability": "nonpayable",
      "type": "function"
    },
    {
      "inputs": [
        {
          "internalType": "bytes32",
          "name": "nft_",
          "type": "bytes32"
        }
      ],
      "name": "risk",
      "outputs": [
        {
          "internalType": "uint256",
          "name": "risk_",
          "type": "uint256"
        }
      ],
      "stateMutability": "view",
      "type": "function"
    },
    {
      "inputs": [
        {
          "internalType": "uint256",
          "name": "x",
          "type": "uint256"
        },
        {
          "internalType": "uint256",
          "name": "y",
          "type": "uint256"
        }
      ],
      "name": "rmul",
      "outputs": [
        {
          "internalType": "uint256",
          "name": "z",
          "type": "uint256"
        }
      ],
      "stateMutability": "pure",
      "type": "function"
    },
    {
      "inputs": [
        {
          "internalType": "uint256",
          "name": "x",
          "type": "uint256"
        },
        {
          "internalType": "uint256",
          "name": "n",
          "type": "uint256"
        },
        {
          "internalType": "uint256",
          "name": "base",
          "type": "uint256"
        }
      ],
      "name": "rpow",
      "outputs": [
        {
          "internalType": "uint256",
          "name": "z",
          "type": "uint256"
        }
      ],
      "stateMutability": "pure",
      "type": "function"
    },
    {
      "inputs": [
        {
          "internalType": "uint256",
          "name": "x",
          "type": "uint256"
        },
        {
          "internalType": "uint256",
          "name": "y",
          "type": "uint256"
        }
      ],
      "name": "safeAdd",
      "outputs": [
        {
          "internalType": "uint256",
          "name": "z",
          "type": "uint256"
        }
      ],
      "stateMutability": "pure",
      "type": "function"
    },
    {
      "inputs": [
        {
          "internalType": "uint256",
          "name": "x",
          "type": "uint256"
        },
        {
          "internalType": "uint256",
          "name": "y",
          "type": "uint256"
        }
      ],
      "name": "safeDiv",
      "outputs": [
        {
          "internalType": "uint256",
          "name": "z",
          "type": "uint256"
        }
      ],
      "stateMutability": "pure",
      "type": "function"
    },
    {
      "inputs": [
        {
          "internalType": "uint256",
          "name": "x",
          "type": "uint256"
        },
        {
          "internalType": "uint256",
          "name": "y",
          "type": "uint256"
        }
      ],
      "name": "safeMul",
      "outputs": [
        {
          "internalType": "uint256",
          "name": "z",
          "type": "uint256"
        }
      ],
      "stateMutability": "pure",
      "type": "function"
    },
    {
      "inputs": [
        {
          "internalType": "uint256",
          "name": "x",
          "type": "uint256"
        },
        {
          "internalType": "uint256",
          "name": "y",
          "type": "uint256"
        }
      ],
      "name": "safeSub",
      "outputs": [
        {
          "internalType": "uint256",
          "name": "z",
          "type": "uint256"
        }
      ],
      "stateMutability": "pure",
      "type": "function"
    },
    {
      "inputs": [
        {
          "internalType": "uint256",
          "name": "x",
          "type": "uint256"
        },
        {
          "internalType": "uint256",
          "name": "y",
          "type": "uint256"
        }
      ],
      "name": "secureSub",
      "outputs": [
        {
          "internalType": "uint256",
          "name": "result",
          "type": "uint256"
        }
      ],
      "stateMutability": "pure",
      "type": "function"
    },
    {
      "inputs": [
        {
          "internalType": "bytes32",
          "name": "nftID_",
          "type": "bytes32"
        },
        {
          "internalType": "uint256",
          "name": "maturityDate_",
          "type": "uint256"
        }
      ],
      "name": "setLoanMaturityDate",
      "outputs": [],
      "stateMutability": "nonpayable",
      "type": "function"
    },
    {
      "inputs": [
        {
          "internalType": "uint256",
          "name": "loan",
          "type": "uint256"
        },
        {
          "internalType": "uint256",
          "name": "rate",
          "type": "uint256"
        }
      ],
      "name": "setRate",
      "outputs": [],
      "stateMutability": "nonpayable",
      "type": "function"
    },
    {
      "inputs": [
        {
          "internalType": "uint256",
          "name": "chi",
          "type": "uint256"
        },
        {
          "internalType": "uint256",
          "name": "_pie",
          "type": "uint256"
        }
      ],
      "name": "toAmount",
      "outputs": [
        {
          "internalType": "uint256",
          "name": "",
          "type": "uint256"
        }
      ],
      "stateMutability": "pure",
      "type": "function"
    },
    {
      "inputs": [
        {
          "internalType": "uint256",
          "name": "chi",
          "type": "uint256"
        },
        {
          "internalType": "uint256",
          "name": "amount",
          "type": "uint256"
        }
      ],
      "name": "toPie",
      "outputs": [
        {
          "internalType": "uint256",
          "name": "",
          "type": "uint256"
        }
      ],
      "stateMutability": "pure",
      "type": "function"
    },
    {
      "inputs": [
        {
          "internalType": "uint256",
          "name": "timestamp",
          "type": "uint256"
        }
      ],
      "name": "uniqueDayTimestamp",
      "outputs": [
        {
          "internalType": "uint256",
          "name": "nTimestamp",
          "type": "uint256"
        }
      ],
      "stateMutability": "pure",
      "type": "function"
    },
    {
      "inputs": [
        {
          "internalType": "bytes32",
          "name": "nftID_",
          "type": "bytes32"
        },
        {
          "internalType": "uint256",
          "name": "value",
          "type": "uint256"
        },
        {
          "internalType": "uint256",
          "name": "risk_",
          "type": "uint256"
        }
      ],
      "name": "update",
      "outputs": [],
      "stateMutability": "nonpayable",
      "type": "function"
    },
    {
      "inputs": [
        {
          "internalType": "bytes32",
          "name": "nftID_",
          "type": "bytes32"
        },
        {
          "internalType": "uint256",
          "name": "value",
          "type": "uint256"
        }
      ],
      "name": "update",
      "outputs": [],
      "stateMutability": "nonpayable",
      "type": "function"
    },
    {
      "inputs": [
        {
          "internalType": "address",
          "name": "",
          "type": "address"
        }
      ],
      "name": "wards",
      "outputs": [
        {
          "internalType": "uint256",
          "name": "",
          "type": "uint256"
        }
      ],
      "stateMutability": "view",
      "type": "function"
    },
    {
      "inputs": [
        {
          "internalType": "uint256",
          "name": "loan",
          "type": "uint256"
        }
      ],
      "name": "writeOff",
      "outputs": [],
      "stateMutability": "nonpayable",
      "type": "function"
    },
    {
      "inputs": [
        {
          "internalType": "uint256",
          "name": "",
          "type": "uint256"
        }
      ],
      "name": "writeOffGroups",
      "outputs": [
        {
          "internalType": "uint128",
          "name": "percentage",
          "type": "uint128"
        },
        {
          "internalType": "uint128",
          "name": "overdueDays",
          "type": "uint128"
        },
        {
          "internalType": "uint128",
          "name": "riskIndex",
          "type": "uint128"
        }
      ],
      "stateMutability": "view",
      "type": "function"
    },
    {
      "inputs": [
        {
          "internalType": "uint256",
          "name": "loan",
          "type": "uint256"
        }
      ],
      "name": "zeroPV",
      "outputs": [
        {
          "internalType": "bool",
          "name": "isZeroPV",
          "type": "bool"
        }
      ],
      "stateMutability": "view",
      "type": "function"
    }
  ],
  "transactionHash": "0x6cf595db410c93dcc1b914e1d8beb1992a49af8507c3c75108a4cecfaf6b10ac",
  "args": [],
  "numDeployments": 3,
  "solcInputHash": "37fca750ed857dbf4f21753c223ee5a6",
  "bytecode": "0x608060405234801561001057600080fd5b50614343806100206000396000f3fe608060405234801561001057600080fd5b50600436106104285760003560e01c80637b1039991161022b578063b5931f7c11610130578063dd0081c7116100b8578063e4c71cb311610087578063e4c71cb314610ad2578063e6c0e6d514610adb578063e6cb901314610ae4578063e96bd8c814610af7578063f5189ee314610b0a57600080fd5b8063dd0081c714610a01578063dd418ae214610a09578063e1739bea14610aa2578063e4064a7714610aaa57600080fd5b8063bf353dbb116100ff578063bf353dbb146109a9578063c1ac8a1f146109c9578063ce63094d146109d2578063d05c78da146109db578063d7affae3146109ee57600080fd5b8063b5931f7c14610967578063b69ef8a81461097a578063b6f133ff14610983578063bcb04de61461099657600080fd5b8063982b48d1116101b35780639ce5581e116101825780639ce5581e146109135780639e1aaae61461091b578063a293d1e81461092e578063a58bb84a14610941578063b4c6bcd11461095457600080fd5b8063982b48d1146108535780639b3e2291146108cd5780639b51fb0d146108e05780639c52a7f11461090057600080fd5b806386d9f8a8116101fa57806386d9f8a8146107eb5780638a700b531461080e57806393529cdf14610821578063942eac511461082a5780639717411d1461083357600080fd5b80637b103999146107b45780637b2a7a59146107c75780638687098b146107cf57806386c1762a146107d857600080fd5b80633f12dc101161033157806353e385b1116102b957806365fae35e1161028857806365fae35e14610714578063674570221461072757806367b870af1461073a578063744f4cf61461074d5780637aa489bb1461076057600080fd5b806353e385b114610693578063553c1359146106bc57806358326b7a146106c45780635c37fa44146106d757600080fd5b80634903b0d1116103005780634903b0d1146106325780634dbed0b8146106525780634e1c7535146106655780634e5367931461066d5780635236254b1461068057600080fd5b80633f12dc10146105c657806342d55e48146105f957806346df2ccb1461060c578063485cc9551461061f57600080fd5b80631e0029c8116103b457806329ae81141161038357806329ae8114146105745780632cbf3da01461058757806333e9151c1461058f57806337a5d9ee146105a25780633a43c42a146105b357600080fd5b80631e0029c81461052857806327fa27231461053b57806328a7996f1461054e57806329a8f4f81461056157600080fd5b80630e2286d3116103fb5780630e2286d31461049b5780631193c20b146104ae57806316f0115b146104d157806317d987a1146105025780631c5a27db1461051557600080fd5b806301aa8a6e1461042d578063065dad8f1461046057806306823e8c14610473578063071ffb3c14610486575b600080fd5b61044d61043b366004613d93565b60056020526000908152604090205481565b6040519081526020015b60405180910390f35b61044d61046e366004613d93565b610b33565b61044d610481366004613d93565b610b51565b610499610494366004613dac565b610b73565b005b61044d6104a9366004613dac565b610cc6565b6104c16104bc366004613d93565b610d3f565b6040519015158152602001610457565b6001546104ea906201000090046001600160a01b031681565b6040516001600160a01b039091168152602001610457565b610499610510366004613dce565b610d72565b61044d610523366004613dfa565b6110c7565b61044d610536366004613d93565b61111f565b610499610549366004613dac565b61120e565b61044d61055c366004613dac565b611333565b61044d61056f366004613dce565b611345565b610499610582366004613dac565b611365565b61044d61145b565b61044d61059d366004613d93565b611485565b61044d6105b0366004613d93565b90565b61044d6105c1366004613dfa565b6114a1565b61044d6105d4366004613d93565b600090815260096020526040902060010154600160801b90046001600160801b031690565b61044d610607366004613dac565b6114c6565b61049961061a366004613dac565b61156e565b61049961062d366004613e41565b61168f565b61044d610640366004613d93565b60076020526000908152604090205481565b610499610660366004613dac565b611882565b61044d6118de565b6104c161067b366004613d93565b611962565b61049961068e366004613dac565b611a01565b61044d6106a1366004613d93565b6000908152600960205260409020546001600160801b031690565b61044d611b15565b6104996106d2366004613d93565b611b2f565b6106ea6106e5366004613d93565b611cdf565b604080516001600160801b0394851681529284166020840152921691810191909152606001610457565b610499610722366004613e7a565b611d23565b61044d610735366004613dac565b611d97565b61044d610748366004613dce565b611daf565b61049961075b366004613d93565b611e6d565b61079561076e366004613d93565b600a602052600090815260409020546001600160801b03811690600160801b900460ff1682565b604080516001600160801b039093168352901515602083015201610457565b6002546104ea906001600160a01b031681565b61044d611e85565b61044d60105481565b61044d6107e6366004613d93565b611eb4565b6107f3611f6d565b60408051938452602084019290925290820152606001610457565b61044d61081c366004613dac565b612043565b61044d61271081565b61044d600f5481565b61044d610841366004613d93565b60046020526000908152604090205481565b61089a610861366004613d93565b600960205260009081526040902080546001909101546001600160801b0380831692600160801b90819004821692808316929190041684565b604080516001600160801b0395861681529385166020850152918416918301919091529091166060820152608001610457565b6104996108db366004613d93565b6123d9565b61044d6108ee366004613d93565b600b6020526000908152604090205481565b61049961090e366004613e7a565b61263c565b61044d6126af565b61044d610929366004613dac565b612710565b61044d61093c366004613dac565b61271c565b61049961094f366004613dac565b61276c565b610499610962366004613e97565b6127d4565b61044d610975366004613dac565b612a89565b61044d60085481565b61044d610991366004613d93565b612a95565b61044d6109a4366004613d93565b612c71565b61044d6109b7366004613e7a565b60006020819052908152604090205481565b61044d60115481565b61044d60065481565b61044d6109e9366004613dac565b612f57565b6104996109fc366004613dce565b612fb9565b61044d6131cf565b610a62610a17366004613d93565b600360208190526000918252604090912080546001820154600283015493830154600484015460059094015492949193919290919065ffffffffffff80821691600160301b90041687565b604080519788526020880196909652948601939093526060850191909152608084015265ffffffffffff90811660a08401521660c082015260e001610457565b61044d6131dc565b610abd610ab8366004613dfa565b613228565b60408051928352602083019190915201610457565b61044d600e5481565b61044d600d5481565b61044d610af2366004613dac565b6132be565b61044d610b05366004613dac565b61330e565b61044d610b18366004613d93565b6000908152600a60205260409020546001600160801b031690565b6000908152600960205260409020600101546001600160801b031690565b600090815260096020526040902054600160801b90046001600160801b031690565b33600090815260208190526040902054600114610bab5760405162461bcd60e51b8152600401610ba290613eda565b60405180910390fd5b6000828152600560208181526040808420548085526003909252909220015465ffffffffffff164214610c195760405162461bcd60e51b81526020600482015260166024820152751c985d194b59dc9bdd5c0b5b9bdd0b5d5c19185d195960521b6044820152606401610ba2565b600081815260036020526040812060010154610c359084611333565b600085815260046020526040902054909150610c5190826132be565b600085815260046020908152604080832093909355848252600390522054610c7990826132be565b600083815260036020908152604091829020929092555184815285917f4656f63d6d86ffd6679877563f6832dff83d72eb09acf31f29018beaad47ef0e910160405180910390a250505050565b6000808211610d0a5760405162461bcd60e51b815260206004820152601060248201526f6469766973696f6e206279207a65726f60801b6044820152606401610ba2565b81610d2e610d2385676765c793fa10079d601b1b612f57565b610af2600286613f18565b610d389190613f18565b9392505050565b6000610d58676765c793fa10079d601b1b6103e8613f3a565b600092835260056020526040909220549190911015919050565b33600090815260208190526040902054600114610da15760405162461bcd60e51b8152600401610ba290613eda565b6000610dac42611485565b9050610db78361332a565b600085815260096020526040902080546001600160801b0319166001600160801b0392831617815560010154600160801b9004168203610df75750505050565b610e008261332a565b600085815260096020526040902060010180546001600160801b03928316600160801b029216919091179055601054811115610e4057610e3e6131dc565b505b600084815260046020526040902054849015610e6057610e608184613393565b610e6985610b51565b600003610e77575050505050565b6000610e8286610b33565b90506000610e8f87610b51565b90506000610ea1600d548387866114a1565b6000848152600b6020526040902054909150610ebd908361271c565b6000848152600b6020526040902055600f54610ed9908261271c565b600f55600e54610ee9908261271c565b600e5560008481526005602081815260408084205484526003808352818520825160e0810184528154815260018201549481019490945260028082015493850193909352908101546060840152600481015460808401529092015465ffffffffffff80821660a0840152600160301b9091041660c08201529054909190610f78906001600160a01b0316613552565b60405163269793ad60e21b8152600481018890526001600160a01b039190911690639a5e4eb49060240161014060405180830381865afa158015610fc0573d6000803e3d6000fd5b505050506040513d601f19601f82011682018060405250810190610fe49190613fe6565b90506110286110238360400151610ffa8961111f565b6110038e610b33565b61052386610100015160ff168760a001518860e00151610607919061408b565b61332a565b60008b815260096020526040812080546001600160801b03938416600160801b0293169290921790915561105b8b610b51565b9050600061106d600d54838b8a6114a1565b6000888152600b602052604090205490915061108990836132be565b6000888152600b6020526040902055600f546110a590826132be565b600f55600e546110b590826132be565b600e555050505050505050505b505050565b6000806110d342611485565b90506000818511156110ec576110e9858361271c565b90505b61111461110e6111088984676765c793fa10079d601b1b611daf565b88611d97565b85611d97565b979650505050505050565b6000818152600560208181526040808420548085526003909252832060018101546004820154919093015491929165ffffffffffff1642106111c25760008381526003602052604090206001810154600282015460059092015461118b929065ffffffffffff16611345565b60008481526003602081905260409091206004810154918101546005909101549294506111bf9265ffffffffffff16611345565b90505b806000036111ed576000858152600460205260409020546111e4908390612710565b95945050505050565b6111e48161092984600460008a815260200190815260200160002054612710565b3360009081526020819052604090205460011461123d5760405162461bcd60e51b8152600401610ba290613eda565b81600061124982610b33565b9050600061125642611485565b90508082106112a75760405162461bcd60e51b815260206004820152601b60248201527f6d617475726974792d646174652d696e2d7468652d66757475726500000000006044820152606401610ba2565b6000858152600a6020526040812054600160801b900460ff16151590036112e8576000858152600a60205260409020805460ff60801b1916600160801b1790555b6112f48585858561355f565b60405160018152849086907f8b4bab687a42524d5daa1b9534fca2a356c38f318b4ad55ddf0f8a0bfddc52929060200160405180910390a35050505050565b6000610d388284613698565b92915050565b600081421061135d5761135a84848442613700565b93505b509192915050565b336000908152602081905260409020546001146113945760405162461bcd60e51b8152600401610ba290613eda565b816b646973636f756e745261746560a01b0361141357600d546113ba6127106064613f3a565b6113c8906301e13380613f3a565b6113dd676765c793fa10079d601b1b84613f3a565b6113e79190613f18565b6113fc90676765c793fa10079d601b1b61409e565b600d5580156110c25761140d611e85565b50505050565b60405162461bcd60e51b815260206004820152601860248201527f756e6b6e6f776e20636f6e66696720706172616d6574657200000000000000006044820152606401610ba2565b600080600080611469611f6d565b92509250925061147d83610af284846132be565b935050505090565b60006114946201518083613f18565b61133f9062015180613f3a565b60006111e4846104a9876114b5868861271c565b676765c793fa10079d601b1b611daf565b6000806114d284613719565b90506114e16127106064613f3a565b6114ee6127106064613f3a565b6114f89190613f3a565b611506906301e13380613f3a565b838260a0015163ffffffff16836080015163ffffffff16676765c793fa10079d601b1b6115339190613f3a565b61153d9190613f3a565b6115479190613f3a565b6115519190613f18565b61156690676765c793fa10079d601b1b61408b565b949350505050565b3360009081526020819052604090205460011461159d5760405162461bcd60e51b8152600401610ba290613eda565b600082815260046020526040902054156115e95760405162461bcd60e51b815260206004820152600d60248201526c1b9bdb8b5e995c9bcb5919589d609a1b6044820152606401610ba2565b600081815260036020526040812060010154900361163e5760405162461bcd60e51b81526020600482015260126024820152711c985d194b59dc9bdd5c0b5b9bdd0b5cd95d60721b6044820152606401610ba2565b600082815260056020526040908190208290555182907f3a8f7e78fe36c54b4f888a309efa91eba128acb04cc1c2ffa0e5c4db7b4a8785906116839084815260200190565b60405180910390a25050565b600154610100900460ff16158080156116ac57506001805460ff16105b806116c55750303b1580156116c557506001805460ff16145b6117285760405162461bcd60e51b815260206004820152602e60248201527f496e697469616c697a61626c653a20636f6e747261637420697320616c72656160448201526d191e481a5b9a5d1a585b1a5e995960921b6064820152608401610ba2565b6001805460ff191681179055801561174a576001805461ff0019166101001790555b600280546001600160a01b0319166001600160a01b038581169190911790915582166000818152602081905260409020600190819055805462010000600160b01b031916620100009092029190911790556117a442611485565b60105560008080526003602052676765c793fa10079d601b1b7f3617319a054d772f909f7c479a2cebe5066e836a939412e32403c99029b92f008190557f3617319a054d772f909f7c479a2cebe5066e836a939412e32403c99029b92f01819055600d556040516001600160a01b038416917fdd0e34038ac38b2a1ce960229778ac48a8719bc900b6c4f8d0475c6e8b385a6091a280156110c2576001805461ff00191681556040519081527f7f26b83ff96e1f2b6a682f133852f6798a09c465da95921460cefb38474024989060200160405180910390a1505050565b336000908152602081905260409020546001146118b15760405162461bcd60e51b8152600401610ba290613eda565b60006118bc836105d4565b60008481526005602052604090205490915081146110c2576110c2838261156e565b6000805b600c5481101561195e5761194a82610af26119188461190e676765c793fa10079d601b1b6103e8613f3a565b6107e6919061409e565b600c858154811061192b5761192b6140b1565b60009182526020909120600290910201546001600160801b0316611d97565b915080611956816140c7565b9150506118e2565b5090565b600061196d8261111f565b60000361197c57506001919050565b6000828152600560205260409020546119a2676765c793fa10079d601b1b6103e8613f3a565b8110156119b25750600092915050565b600c6119cf8261093c676765c793fa10079d601b1b6103e8613f3a565b815481106119df576119df6140b1565b60009182526020909120600290910201546001600160801b0316159392505050565b33600090815260208190526040902054600114611a305760405162461bcd60e51b8152600401610ba290613eda565b611a3982610b51565b15611a9b5760405162461bcd60e51b815260206004820152602c60248201527f63616e2d6e6f742d6368616e67652d6d61747572697479446174652d6f75747360448201526b1d185b991a5b99cb5919589d60a21b6064820152608401610ba2565b611aa761102382611485565b60008381526009602090815260409182902060010180546001600160801b0319166001600160801b03949094169390931790925580518481529182018390527fe4cc80f41f018b5290a16d068ce1312611f47f682daaa056e36456c59f853d5a910160405180910390a15050565b611b2c676765c793fa10079d601b1b6103e8613f3a565b81565b60008181526003602052604090206005015465ffffffffffff164210611cdc5760008181526003602052604081206001810154600282015460058301549254611b809365ffffffffffff1690613228565b50600083815260036020819052604090912060018101839055015490915015801590611bcb5750600082815260036020526040902060050154600160301b900465ffffffffffff1615155b8015611bf75750600082815260036020526040902060050154600160301b900465ffffffffffff164210155b15611cb25760008281526003602052604081206005015465ffffffffffff600160301b82048116911611611c4b57600083815260036020526040902060050154600160301b900465ffffffffffff16611c66565b60008381526003602052604090206005015465ffffffffffff165b60008481526003602081905260408220600481015491810154905465ffffffffffff9490941694509192611c9c92908590613228565b5060008581526003602052604090206004015550505b506000818152600360205260409020600501805465ffffffffffff19164265ffffffffffff161790555b50565b600c8181548110611cef57600080fd5b6000918252602090912060029091020180546001909101546001600160801b038083169350600160801b9092048216911683565b33600090815260208190526040902054600114611d525760405162461bcd60e51b8152600401610ba290613eda565b6001600160a01b03811660008181526020819052604080822060019055517fdd0e34038ac38b2a1ce960229778ac48a8719bc900b6c4f8d0475c6e8b385a609190a250565b6000676765c793fa10079d601b1b610d2e8484612f57565b6000838015611e4f57600184168015611dca57859250611dce565b8392505b50600283046002850494505b8415611e49578586028687820414611df157600080fd5b81810181811015611e0157600080fd5b8590049650506001851615611e3e578583028387820414158715151615611e2757600080fd5b81810181811015611e3757600080fd5b8590049350505b600285049450611dda565b50611e65565b838015611e5f5760009250611e63565b8392505b505b509392505050565b600081815260056020526040902054611cdc90611b2f565b600080611e906126af565b9050611ea481610af2600e54600f5461271c565b600e819055600f91909155919050565b60008181526003602052604081206001810154600482015482546005909301549192909165ffffffffffff164210611f4d57600085815260036020526040902060018101546002820154600590920154611f16929065ffffffffffff16611345565b6000868152600360208190526040909120600481015491810154600590910154929550611f4a9265ffffffffffff16611345565b91505b81600003611f5f576111e48382612710565b6111e4826109298584612710565b6000806000600f54600003611f94576000601154611f896118de565b925092509250909192565b600080611fa042611485565b6010549091505b81811015612000576000818152600b60205260409020548015611feb57611fdc84610af283610735600d546114b5898961271c565b9350611fe886826132be565b95505b50611ff9816201518061409e565b9050611fa7565b5061202261201c600f54610735600d546114b58660105461271c565b8361330e565b61202e601154866132be565b6120366118de565b9450945094505050909192565b600254600090339061205d906001600160a01b0316613914565b6001600160a01b0316146120a45760405162461bcd60e51b815260206004820152600e60248201526d1b9bdd08185d5d1a1bdc9a5e995960921b6044820152606401610ba2565b6120ad83611e6d565b60006120b842611485565b90506010548111156120ce576120cc6131dc565b505b8360006120da82610b33565b905060006120e78761111f565b9050808611156120f5578095505b6120fe87610d3f565b1561219957600e5461218090610b0588612172600c61212a676765c793fa10079d601b1b6103e8613f3a565b60008e815260056020526040902054612143919061408b565b81548110612153576121536140b1565b60009182526020909120600290910201546001600160801b031661332a565b6001600160801b0316611d97565b600e5561218d8787613921565b8594505050505061133f565b60006121a5828861271c565b905060006121b285610b51565b905060008183156123065760008b81526005602081815260408084205484526003808352818520825160e0810184528154815260018201549481019490945260028082015493850193909352908101546060840152600481015460808401529092015465ffffffffffff80821660a0840152600160301b9091041660c08201529054909190612249906001600160a01b0316613552565b6001600160a01b0316639a5e4eb48a6040518263ffffffff1660e01b815260040161227691815260200190565b61014060405180830381865afa158015612294573d6000803e3d6000fd5b505050506040513d601f19601f820116820180604052508101906122b89190613fe6565b90506122e48260400151878a61052385610100015160ff168660a001518760e00151610607919061408b565b93508385106122fe576122f7858561271c565b9250612303565b600092505b50505b61230f8261332a565b600088815260096020526040902080546001600160801b03928316600160801b0292169190911790558786106123a0576000868152600b6020526040902054612358908261271c565b6000878152600b6020526040812091909155600d5461237990838b8a6114a1565b9050612387600f548261330e565b600f55600e54612397908261330e565b600e55506123c0565b6123ac6011548261271c565b601155600e546123bc908261330e565b600e555b6123ca8b8b613921565b50979998505050505050505050565b6000818152600a6020526040902054600160801b900460ff16156124355760405162461bcd60e51b815260206004820152601360248201527237b7363c96b0baba3416bbb934ba3296b7b33360691b6044820152606401610ba2565b80600061244182610b33565b9050600081116124895760405162461bcd60e51b81526020600482015260136024820152721b1bd85b8b591bd95ccb5b9bdd0b595e1a5cdd606a1b6044820152606401610ba2565b600061249442611485565b6002549091506000906124af906001600160a01b0316613552565b60405163269793ad60e21b8152600481018790526001600160a01b039190911690639a5e4eb49060240161014060405180830381865afa1580156124f7573d6000803e3d6000fd5b505050506040513d601f19601f8201168201806040525081019061251b9190613fe6565b9050600061253082610100015160ff16613719565b9050828160e0015163ffffffff1685612549919061409e565b11156125975760405162461bcd60e51b815260206004820152601b60248201527f6d617475726974792d646174652d696e2d7468652d66757475726500000000006044820152606401610ba2565b60006125a287612a95565b90506001600160801b03811080156125e95750806125cd676765c793fa10079d601b1b6103e8613f3a565b6125d7919061409e565b60008881526005602052604090205414155b15612633576125fa8782888861355f565b60405160008152819088907f8b4bab687a42524d5daa1b9534fca2a356c38f318b4ad55ddf0f8a0bfddc52929060200160405180910390a35b50505050505050565b3360009081526020819052604090205460011461266b5760405162461bcd60e51b8152600401610ba290613eda565b6001600160a01b038116600081815260208190526040808220829055517f184450df2e323acec0ed3b5c7531b81f9b4cdef7914dfd4c0a4317416bb5251b9190a250565b600060015b60065481101561195e578060006126ca82610b33565b90506010548110156126dd5750506126fe565b6126f984610af2600d546126f086610b51565b601054866114a1565b935050505b80612708816140c7565b9150506126b4565b6000610d388284611d97565b600082612729838261408b565b915081111561133f5760405162461bcd60e51b815260206004820152600f60248201526e1cd859994b5cdd588b59985a5b1959608a1b6044820152606401610ba2565b3360009081526020819052604090205460011461279b5760405162461bcd60e51b8152600401610ba290613eda565b6127a48161332a565b60009283526009602052604090922080546001600160801b0319166001600160801b039093169290921790915550565b336000908152602081905260409020546001146128035760405162461bcd60e51b8152600401610ba290613eda565b856c077726974654f666647726f757609c1b03612a4a57600c54600061282c6127106064613f3a565b61283a906301e13380613f3a565b61284f676765c793fa10079d601b1b89613f3a565b6128599190613f18565b61286e90676765c793fa10079d601b1b61409e565b9050600061287f6127106064613f3a565b612894676765c793fa10079d601b1b89613f3a565b61289e9190613f18565b6128b390676765c793fa10079d601b1b61408b565b905060006128c46127106064613f3a565b6128d16127106064613f3a565b6128db9190613f3a565b6128e9906301e13380613f3a565b896128ff88676765c793fa10079d601b1b613f3a565b6129099190613f3a565b6129139190613f18565b61292890676765c793fa10079d601b1b61409e565b905060006129396201518089613f18565b9050600c60405180606001604052806129518661332a565b6001600160801b031681526020016129688461332a565b6001600160801b0316815260200161297f8961332a565b6001600160801b0390811690915282546001818101855560009485526020948590208451958501518416600160801b02958416959095176002909202909401908155604090920151919092018054919092166001600160801b031991909116179055612a12637261746560e01b612a0c612a06676765c793fa10079d601b1b6103e8613f3a565b886132be565b86612fb9565b612a406670656e616c747960c81b612a3a612a06676765c793fa10079d601b1b6103e8613f3a565b84612fb9565b5050505050612a81565b60405162461bcd60e51b815260206004820152600c60248201526b756e6b6e6f776e206e616d6560a01b6044820152606401610ba2565b505050505050565b6000610d388284613f18565b60008181612aa282610b33565b90506000612aaf42611485565b600254909150600090612aca906001600160a01b0316613552565b6001600160a01b0316639a5e4eb4856040518263ffffffff1660e01b8152600401612af791815260200190565b61014060405180830381865afa158015612b15573d6000803e3d6000fd5b505050506040513d601f19601f82011682018060405250810190612b399190613fe6565b905060006001826101000151612b4f91906140e0565b90506001600160801b036000805b600c546001600160801b0382161015612c5b576000600c826001600160801b031681548110612b8e57612b8e6140b1565b906000526020600020906002020160000160109054906101000a90046001600160801b031690508460ff16600c836001600160801b031681548110612bd557612bd56140b1565b60009182526020909120600160029092020101546001600160801b0316148015612c115750826001600160801b0316816001600160801b031610155b8015612c3c5750612c2581620151806140f9565b612c38906001600160801b03168961409e565b8710155b15612c48578193508092505b5080612c5381614124565b915050612b5d565b50506001600160801b0316979650505050505050565b33600090815260208190526040812054600114612ca05760405162461bcd60e51b8152600401610ba290613eda565b600254600090612cb8906001600160a01b0316613a58565b60405163099ff47360e21b8152600481018590526001600160a01b03919091169063267fd1cc9060240160c060405180830381865afa158015612cff573d6000803e3d6000fd5b505050506040513d601f19601f82011682018060405250810190612d23919061414a565b6002549091508390600090612d40906001600160a01b0316613552565b6001600160a01b0316639a5e4eb4836040518263ffffffff1660e01b8152600401612d6d91815260200190565b61014060405180830381865afa158015612d8b573d6000803e3d6000fd5b505050506040513d601f19601f82011682018060405250810190612daf9190613fe6565b90506000612dc482610100015160ff16613719565b84519091506000612dd86127106064613f3a565b6020840151612ded9063ffffffff1684613f3a565b612df79190613f18565b9150612e066127106064613f3a565b612e14906301e13380613f3a565b676765c793fa10079d601b1b846060015163ffffffff16612e359190613f3a565b612e3f9190613f18565b612e5490676765c793fa10079d601b1b61409e565b600680549192506000612e66836140c7565b9190505550612e79858760400151611a01565b6000818152600360205260408120600201549003612ea357612ea3637261746560e01b8283612fb9565b612ead888261156e565b612eb688611e6d565b600088815260076020526040902054612ecf90836132be565b600089815260076020526040902055600854612eeb90836132be565b600855612ef88883613a65565b50612f038883610b73565b877f1b9df5e458e3180b31eb211e75477eb92410aa7142c9d86de00552c8b9a1291d838860400151604051612f42929190918252602082015260400190565b60405180910390a2509450505050505b919050565b6000811580612f7b57508282612f6d8183613f3a565b9250612f799083613f18565b145b61133f5760405162461bcd60e51b815260206004820152600f60248201526e1cd859994b5b5d5b0b59985a5b1959608a1b6044820152606401610ba2565b33600090815260208190526040902054600114612fe85760405162461bcd60e51b8152600401610ba290613eda565b82637261746560e01b036130bb57806000036130465760405162461bcd60e51b815260206004820152601c60248201527f726174652d7065722d7365636f6e642d63616e2d6e6f742d62652d30000000006044820152606401610ba2565b600082815260036020526040812060010154900361309c576000828152600360205260409020676765c793fa10079d601b1b6001820155600501805465ffffffffffff19164265ffffffffffff161790556130a5565b6130a582611b2f565b6000918252600360205260409091206002015550565b826670656e616c747960c81b03613193578060000361311c5760405162461bcd60e51b815260206004820152601f60248201527f70656e616c74792d7065722d7365636f6e642d63616e2d6e6f742d62652d30006044820152606401610ba2565b6000828152600360205260408120600401549003613172576000828152600360205260409020676765c793fa10079d601b1b6004820155600501805465ffffffffffff19164265ffffffffffff1617905561317b565b61317b82611b2f565b60009182526003602081905260409092209091015550565b60405162461bcd60e51b81526020600482015260116024820152703ab735b737bbb7103830b930b6b2ba32b960791b6044820152606401610ba2565b611b2c6127106064613f3a565b6000806000806131ea611f6d565b6011829055600f8390559194509250905061320e61320884846132be565b826132be565b600e5561321a42611485565b6010555050600e5492915050565b6000808342101561327b5760405162461bcd60e51b815260206004820152601e60248201527f74696e6c616b652d6d6174682f696e76616c69642d74696d657374616d7000006044820152606401610ba2565b8560000361328857600080fd5b600061329687878742613700565b9050806132b06132a68387611d97565b61093c8a88611d97565b925092505094509492505050565b6000826132cb838261409e565b915081101561133f5760405162461bcd60e51b815260206004820152600f60248201526e1cd859994b5859190b59985a5b1959608a1b6044820152606401610ba2565b6000828211156133205750600061133f565b610d38838361271c565b60006001600160801b0382111561195e5760405162461bcd60e51b815260206004820152602760248201527f53616665436173743a2076616c756520646f65736e27742066697420696e20316044820152663238206269747360c81b6064820152608401610ba2565b60008181526003602052604081206001015490036133e85760405162461bcd60e51b81526020600482015260126024820152711c985d194b59dc9bdd5c0b5b9bdd0b5cd95d60721b6044820152606401610ba2565b6133ff676765c793fa10079d601b1b6103e8613f3a565b811061343a57600081815260036020526040902060050180546bffffffffffff0000000000001916600160301b4265ffffffffffff16021790555b60008281526005602052604090205461345281611b2f565b61345b82611b2f565b60008381526004602090815260408083205484845260039092528220600101549091906134889083612710565b6000848152600360205260409020549091506134a4908361271c565b6000848152600360205260408082209290925585815220600101546134c99082611333565b60008681526004602081815260408084208590558884526003825283205492899052526134f5916132be565b6000858152600360209081526040808320939093558782526005815290829020869055905185815286917fe1033ddc4775544ccda3ab7eb50208593822f29f4e10be3f6b4616eeae5d810c91015b60405180910390a25050505050565b600061133f82600a613d0e565b600061356a42611485565b90506010548111156135805761357e6131dc565b505b600e5461358c86610d3f565b151560000361363f5760006135a085610b51565b9050836135ae601054611485565b11156135d4576135c06011548261330e565b6011556135cd828261330e565b915061363d565b6000848152600b60205260409020546135ed908261271c565b6000858152600b6020526040812091909155600d5461361e908390610735906114b56136188a611485565b8961271c565b905061362c600f548261330e565b600f55613639838261330e565b9250505b505b61366a868661365b676765c793fa10079d601b1b6103e8613f3a565b613665919061409e565b613393565b61368d81610af261367a8961111f565b600c898154811061192b5761192b6140b1565b600e55505050505050565b60008082116136dc5760405162461bcd60e51b815260206004820152601060248201526f6469766973696f6e206279207a65726f60801b6044820152606401610ba2565b81610d2e6136f585676765c793fa10079d601b1b612f57565b610af285600161271c565b60006111e4613713856114b5868661408b565b86611d97565b6040805161016081018252600080825260208201819052918101829052606081018290526080810182905260a0810182905260c0810182905260e08101829052610100810182905261012081018290526101408101919091526001546201000090046001600160a01b0316806137c95760405162461bcd60e51b8152602060048201526015602482015274141bdbdb081dd85cc81b9bdd0819195c1b1bde5959605a1b6044820152606401610ba2565b8215806138355750806001600160a01b0316632bcc36826040518163ffffffff1660e01b8152600401602060405180830381865afa15801561380f573d6000803e3d6000fd5b505050506040513d601f19601f8201168201806040525081019061383391906141de565b155b1561389c57505060408051610160810182526000808252620f42406020830152918101829052606081018290526080810182905260a0810182905260c0810182905260e0810182905261010081018290526101208101829052610140810191909152919050565b6138a760018461408b565b60405163644b4ead60e01b8152600481018290529093506001600160a01b0382169063644b4ead9060240161016060405180830381865afa1580156138f0573d6000803e3d6000fd5b505050506040513d601f19601f82011682018060405250810190610d38919061420b565b600061133f82600c613d0e565b6000828152600560208181526040808420548085526003909252909220015465ffffffffffff16421461398f5760405162461bcd60e51b81526020600482015260166024820152751c985d194b59dc9bdd5c0b5b9bdd0b5d5c19185d195960521b6044820152606401610ba2565b60008181526003602052604090206004015480156139b4576139b18184611333565b92505b6000828152600360205260408120600101546139d09085611333565b6000868152600460205260409020549091506139ec908261271c565b600086815260046020908152604080832093909355858252600390522054613a14908261271c565b600084815260036020908152604091829020929092555185815286917fb8b26d9635bdf66575907fb44682641f476b48fb70ad5c2a630908bfcddf21439101613543565b600061133f82600b613d0e565b600080613a7142611485565b9050836000613a7f82610b33565b9050828111613adb5760405162461bcd60e51b815260206004820152602260248201527f6d617475726974792d646174652d69732d6e6f742d696e2d7468652d66757475604482015261726560f01b6064820152608401610ba2565b601054831115613aef57613aed6131dc565b505b60008681526005602081815260408084205484526003808352818520825160e0810184528154815260018201549481019490945260028082015493850193909352908101546060840152600481015460808401529092015465ffffffffffff80821660a0840152600160301b9091041660c08201529054909190613b7b906001600160a01b0316613552565b60405163269793ad60e21b8152600481018a90526001600160a01b039190911690639a5e4eb49060240161014060405180830381865afa158015613bc3573d6000803e3d6000fd5b505050506040513d601f19601f82011682018060405250810190613be79190613fe6565b90506000613c158360400151898661052386610100015160ff168760a001518860e00151610607919061408b565b9050613c2c611023613c2687610b51565b836132be565b600086815260096020908152604080832080546001600160801b03958616600160801b02951694909417909355868252600b90522054613c6c90826132be565b6000858152600b6020526040902055613ca6611023613ca08b6000908152600a60205260409020546001600160801b031690565b8a6132be565b60008a8152600a6020526040902080546001600160801b0319166001600160801b0392909216919091179055600d54613ce1908288876114a1565b9650613cef600f54886132be565b600f55600e54613cff90886132be565b600e5550505050505092915050565b6000826001600160a01b031663bcaa0c5583601a811115613d3157613d316142da565b6040516001600160e01b031960e084901b16815260ff9091166004820152602401602060405180830381865afa158015613d6f573d6000803e3d6000fd5b505050506040513d601f19601f82011682018060405250810190610d3891906142f0565b600060208284031215613da557600080fd5b5035919050565b60008060408385031215613dbf57600080fd5b50508035926020909101359150565b600080600060608486031215613de357600080fd5b505081359360208301359350604090920135919050565b60008060008060808587031215613e1057600080fd5b5050823594602084013594506040840135936060013592509050565b6001600160a01b0381168114611cdc57600080fd5b60008060408385031215613e5457600080fd5b8235613e5f81613e2c565b91506020830135613e6f81613e2c565b809150509250929050565b600060208284031215613e8c57600080fd5b8135610d3881613e2c565b60008060008060008060c08789031215613eb057600080fd5b505084359660208601359650604086013595606081013595506080810135945060a0013592509050565b6020808252600e908201526d1b9bdd0b585d5d1a1bdc9a5e995960921b604082015260600190565b634e487b7160e01b600052601160045260246000fd5b600082613f3557634e487b7160e01b600052601260045260246000fd5b500490565b808202811582820484141761133f5761133f613f02565b604051610140810167ffffffffffffffff81118282101715613f8357634e487b7160e01b600052604160045260246000fd5b60405290565b604051610160810167ffffffffffffffff81118282101715613f8357634e487b7160e01b600052604160045260246000fd5b8051612f5281613e2c565b805160ff81168114612f5257600080fd5b805160028110612f5257600080fd5b60006101408284031215613ff957600080fd5b614001613f51565b61400a83613fbb565b815261401860208401613fbb565b602082015261402960408401613fbb565b6040820152606083015160608201526080830151608082015260a083015160a082015260c083015160c082015260e083015160e082015261010061406e818501613fc6565b90820152610120614080848201613fd7565b908201529392505050565b8181038181111561133f5761133f613f02565b8082018082111561133f5761133f613f02565b634e487b7160e01b600052603260045260246000fd5b6000600182016140d9576140d9613f02565b5060010190565b60ff828116828216039081111561133f5761133f613f02565b6001600160801b0381811683821602808216919082811461411c5761411c613f02565b505092915050565b60006001600160801b0380831681810361414057614140613f02565b6001019392505050565b600060c0828403121561415c57600080fd5b60405160c0810181811067ffffffffffffffff8211171561418d57634e487b7160e01b600052604160045260246000fd5b80604052508251815260208301516020820152604083015160408201526060830151600681106141bc57600080fd5b60608201526080838101519082015260a0928301519281019290925250919050565b6000602082840312156141f057600080fd5b5051919050565b805163ffffffff81168114612f5257600080fd5b6000610160828403121561421e57600080fd5b614226613f89565b61422f836141f7565b815261423d602084016141f7565b602082015261424e604084016141f7565b604082015261425f606084016141f7565b6060820152614270608084016141f7565b608082015261428160a084016141f7565b60a082015261429260c084016141f7565b60c08201526142a360e084016141f7565b60e08201526101006142b68185016141f7565b908201526101206142c88482016141f7565b908201526101406140808482016141f7565b634e487b7160e01b600052602160045260246000fd5b60006020828403121561430257600080fd5b8151610d3881613e2c56fea264697066735822122019b03a297c72ffd61d54ab82d3021fdf02ece0ed1df59b1840c0c702c3c8ef0964736f6c63430008130033",
  "devdoc": {
    "events": {
      "Initialized(uint8)": {
        "details": "Triggered when the contract has been initialized or reinitialized."
      }
    },
    "kind": "dev",
    "methods": {
      "borrowEvent(uint256,uint256)": {
        "params": {
          "loan": "the id of the loan"
        }
      },
      "borrowed(uint256)": {
        "params": {
          "loan": "id of a loan"
        },
        "returns": {
          "borrowed_": "borrowed amount of the loan"
        }
      },
      "calcDiscount(uint256,uint256,uint256,uint256)": {
        "params": {
          "discountRate": "the discount rate",
          "fv": "the future value of the loan",
          "maturityDate": "the maturity date of the loan",
          "normalizedBlockTimestamp": "the normalized block time (each day to midnight)"
        },
        "returns": {
          "result": "discount for the loan"
        }
      },
      "calcFutureValue(uint256,uint256,uint256,uint256)": {
        "params": {
          "amount": "of the loan (principal)",
          "loanInterestRate": "the interest rate of the loan",
          "maturityDate": "the maturity date of the loan",
          "recoveryRatePD": "the recovery rate together with the probability of default of the loan"
        },
        "returns": {
          "fv": "future value of the loan"
        }
      },
      "calcUpdateNAV()": {
        "returns": {
          "nav_": "current NAV"
        }
      },
      "currentNAV()": {
        "returns": {
          "nav_": "current NAV"
        }
      },
      "currentPVs()": {
        "returns": {
          "overdue": "the present value of the overdue loans",
          "totalDiscount": "the present value of the loans",
          "writeOffs": "the present value of the written off loans"
        }
      },
      "currentValidWriteOffGroup(uint256)": {
        "params": {
          "loan": "the loan id"
        },
        "returns": {
          "writeOffGroup_": "the current valid write off group of a loan"
        }
      },
      "currentWriteOffs()": {
        "returns": {
          "sum": "of all write off loans"
        }
      },
      "file(bytes32,uint256)": {
        "params": {
          "name": "name of the parameter",
          "value": "new value of the parameter"
        }
      },
      "file(bytes32,uint256,uint256)": {
        "params": {
          "rate": "the interest rate group",
          "value": "the value to change",
          "what": "what config to change"
        }
      },
      "file(bytes32,uint256,uint256,uint256,uint256,uint256)": {
        "params": {
          "name": "name of the parameter group",
          "overdueDays_": "the number of days after which a loan is considered overdue",
          "writeOffPercentage_": "the write off rate in percent"
        }
      },
      "futureValue(bytes32)": {
        "params": {
          "nft_": "the id of the nft based on the hash of registry and tokenId"
        },
        "returns": {
          "fv_": "future value of the loan"
        }
      },
      "isLoanWrittenOff(uint256)": {
        "params": {
          "loan": "the id of the loan"
        }
      },
      "maturityDate(bytes32)": {
        "params": {
          "nft_": "the id of the nft based on the hash of registry and tokenId"
        },
        "returns": {
          "maturityDate_": "the maturityDate of the nft"
        }
      },
      "nftID(uint256)": {
        "params": {
          "loan": "the loan id"
        },
        "returns": {
          "nftID_": "the nftID of the loan"
        }
      },
      "nftValues(bytes32)": {
        "params": {
          "nft_": "the id of the nft based on the hash of registry and tokenId"
        },
        "returns": {
          "nftValue_": "the value of the nft"
        }
      },
      "overrideWriteOff(uint256,uint256)": {
        "params": {
          "loan": "the id of the loan",
          "writeOffGroupIndex_": "the index of the writeoff group"
        }
      },
      "reCalcNAV()": {
        "returns": {
          "nav_": "current NAV"
        }
      },
      "reCalcTotalDiscount()": {
        "returns": {
          "latestDiscount_": "returns the total discount of the active loans"
        }
      },
      "recoveryRatePD(uint256,uint256)": {
        "params": {
          "riskID": "id of a risk group"
        },
        "returns": {
          "recoveryRatePD_": "recovery rate PD of the risk group"
        }
      },
      "repayLoan(uint256,uint256)": {
        "params": {
          "amount": "the amount repaid",
          "loan": "the id of the loan"
        }
      },
      "risk(bytes32)": {
        "params": {
          "nft_": "the id of the nft based on the hash of registry and tokenId"
        },
        "returns": {
          "risk_": "the risk group of the nft"
        }
      },
      "rpow(uint256,uint256,uint256)": {
        "params": {
          "base": "the base of the fixed point number",
          "n": "the exponent for the pow operation",
          "x": "the base for the pow operation"
        },
        "returns": {
          "z": "the result of the pow operation"
        }
      },
      "secureSub(uint256,uint256)": {
        "params": {
          "x": "the first value (minuend)",
          "y": "the second value (subtrahend)"
        },
        "returns": {
          "result": "result of the subtraction"
        }
      },
      "uniqueDayTimestamp(uint256)": {
        "params": {
          "timestamp": "the timestamp which should be normalized"
        },
        "returns": {
          "nTimestamp": "normalized timestamp"
        }
      },
      "update(bytes32,uint256,uint256)": {
        "params": {
          "nftID_": "the nftID of the loan",
          "risk_": "the new risk group"
        }
      },
      "writeOff(uint256)": {
        "params": {
          "loan": "the id of the loan"
        }
      },
      "zeroPV(uint256)": {
        "params": {
          "loan": "the loan id"
        },
        "returns": {
          "isZeroPV": "true if the present value of a loan is zero"
        }
      }
    },
    "version": 1
  },
  "userdoc": {
    "events": {
      "IncreaseDebt(uint256,uint256)": {
        "notice": "Events"
      }
    },
    "kind": "user",
    "methods": {
      "borrowEvent(uint256,uint256)": {
        "notice": "borrowEvent triggers a borrow event for a loan"
      },
      "borrowed(uint256)": {
        "notice": "getter function for the borrowed amount"
      },
      "calcDiscount(uint256,uint256,uint256,uint256)": {
        "notice": "calculates the discount for a given loan"
      },
      "calcFutureValue(uint256,uint256,uint256,uint256)": {
        "notice": "calculate the future value based on the amount, maturityDate interestRate and recoveryRate"
      },
      "calcUpdateNAV()": {
        "notice": "calculates and returns the current NAV and updates the state"
      },
      "compounding(uint256,uint256,uint256,uint256)": {
        "notice": "Interest functions"
      },
      "currentNAV()": {
        "notice": "calculates and returns the current NAV"
      },
      "currentPVs()": {
        "notice": "calculates the present value of the loans together with overdue and written off loans"
      },
      "currentValidWriteOffGroup(uint256)": {
        "notice": "returns the current valid write off group of a loan"
      },
      "currentWriteOffs()": {
        "notice": "returns the sum of all write off loans"
      },
      "file(bytes32,uint256)": {
        "notice": "file allows governance to change parameters of the contract"
      },
      "file(bytes32,uint256,uint256)": {
        "notice": "file manages different state configs for the pile only a ward can call this function"
      },
      "file(bytes32,uint256,uint256,uint256,uint256,uint256)": {
        "notice": "file allows governance to change parameters of the contract"
      },
      "futureValue(bytes32)": {
        "notice": "getter function for the future value"
      },
      "isLoanWrittenOff(uint256)": {
        "notice": "returns if a loan is written off"
      },
      "loanRates(uint256)": {
        "notice": "mapping from loan => rate"
      },
      "maturityDate(bytes32)": {
        "notice": "getter function for the maturityDate"
      },
      "nftID(uint256)": {
        "notice": "returns the nftID for the underlying collateral nft"
      },
      "nftValues(bytes32)": {
        "notice": "getter function for the nft value"
      },
      "overrideWriteOff(uint256,uint256)": {
        "notice": "authorized call to write of a loan in a specific writeoff group"
      },
      "rates(uint256)": {
        "notice": "Interest Rate Groups are identified by a `uint` and stored in a mapping"
      },
      "reCalcNAV()": {
        "notice": "re-calculates the nav in a non-optimized way  the method is not updating the NAV to latest block.timestamp"
      },
      "reCalcTotalDiscount()": {
        "notice": "re-calculates the totalDiscount in a non-optimized way based on lastNAVUpdate"
      },
      "recoveryRatePD(uint256,uint256)": {
        "notice": "getter function for the recovery rate PD"
      },
      "repayLoan(uint256,uint256)": {
        "notice": "repay updates the NAV for a new repaid loan"
      },
      "risk(bytes32)": {
        "notice": "getter function for the risk group"
      },
      "rpow(uint256,uint256,uint256)": {
        "notice": "rpow peforms a math pow operation with fixed point number adopted from ds-math"
      },
      "secureSub(uint256,uint256)": {
        "notice": "substracts to values if the result smaller than 0 it returns 0"
      },
      "uniqueDayTimestamp(uint256)": {
        "notice": "normalizes a timestamp to round down to the nearest midnight (UTC)"
      },
      "update(bytes32,uint256)": {
        "notice": "update the value (apprasial) of the collateral NFT"
      },
      "update(bytes32,uint256,uint256)": {
        "notice": "updates the risk group of active loans (borrowed and unborrowed loans)"
      },
      "writeOff(uint256)": {
        "notice": "writeOff writes off a loan if it is overdue"
      },
      "zeroPV(uint256)": {
        "notice": "returns true if the present value of a loan is zero true if all debt is repaid or debt is 100% written-off"
      }
    },
    "version": 1
  },
  "storageLayout": {
    "storage": [
      {
        "astId": 31263,
        "contract": "contracts/protocol/pool/PoolNAV.sol:PoolNAV",
        "label": "wards",
        "offset": 0,
        "slot": "0",
        "type": "t_mapping(t_address,t_uint256)"
      },
      {
        "astId": 765,
        "contract": "contracts/protocol/pool/PoolNAV.sol:PoolNAV",
        "label": "_initialized",
        "offset": 0,
        "slot": "1",
        "type": "t_uint8"
      },
      {
        "astId": 768,
        "contract": "contracts/protocol/pool/PoolNAV.sol:PoolNAV",
        "label": "_initializing",
        "offset": 1,
        "slot": "1",
        "type": "t_bool"
      },
      {
        "astId": 20624,
        "contract": "contracts/protocol/pool/PoolNAV.sol:PoolNAV",
        "label": "pool",
        "offset": 2,
        "slot": "1",
        "type": "t_address"
      },
      {
        "astId": 20627,
        "contract": "contracts/protocol/pool/PoolNAV.sol:PoolNAV",
        "label": "registry",
        "offset": 0,
        "slot": "2",
        "type": "t_contract(Registry)32407"
      },
      {
        "astId": 20633,
        "contract": "contracts/protocol/pool/PoolNAV.sol:PoolNAV",
        "label": "rates",
        "offset": 0,
        "slot": "3",
        "type": "t_mapping(t_uint256,t_struct(Rate)20622_storage)"
      },
      {
        "astId": 20637,
        "contract": "contracts/protocol/pool/PoolNAV.sol:PoolNAV",
        "label": "pie",
        "offset": 0,
        "slot": "4",
        "type": "t_mapping(t_uint256,t_uint256)"
      },
      {
        "astId": 20642,
        "contract": "contracts/protocol/pool/PoolNAV.sol:PoolNAV",
        "label": "loanRates",
        "offset": 0,
        "slot": "5",
        "type": "t_mapping(t_uint256,t_uint256)"
      },
      {
        "astId": 20677,
        "contract": "contracts/protocol/pool/PoolNAV.sol:PoolNAV",
        "label": "loanCount",
        "offset": 0,
        "slot": "6",
        "type": "t_uint256"
      },
      {
        "astId": 20681,
        "contract": "contracts/protocol/pool/PoolNAV.sol:PoolNAV",
        "label": "balances",
        "offset": 0,
        "slot": "7",
        "type": "t_mapping(t_uint256,t_uint256)"
      },
      {
        "astId": 20683,
        "contract": "contracts/protocol/pool/PoolNAV.sol:PoolNAV",
        "label": "balance",
        "offset": 0,
        "slot": "8",
        "type": "t_uint256"
      },
      {
        "astId": 20700,
        "contract": "contracts/protocol/pool/PoolNAV.sol:PoolNAV",
        "label": "details",
        "offset": 0,
        "slot": "9",
        "type": "t_mapping(t_bytes32,t_struct(NFTDetails)20607_storage)"
      },
      {
        "astId": 20705,
        "contract": "contracts/protocol/pool/PoolNAV.sol:PoolNAV",
        "label": "loanDetails",
        "offset": 0,
        "slot": "10",
        "type": "t_mapping(t_uint256,t_struct(LoanDetails)20688_storage)"
      },
      {
        "astId": 20709,
        "contract": "contracts/protocol/pool/PoolNAV.sol:PoolNAV",
        "label": "buckets",
        "offset": 0,
        "slot": "11",
        "type": "t_mapping(t_uint256,t_uint256)"
      },
      {
        "astId": 20713,
        "contract": "contracts/protocol/pool/PoolNAV.sol:PoolNAV",
        "label": "writeOffGroups",
        "offset": 0,
        "slot": "12",
        "type": "t_array(t_struct(WriteOffGroup)20695_storage)dyn_storage"
      },
      {
        "astId": 20730,
        "contract": "contracts/protocol/pool/PoolNAV.sol:PoolNAV",
        "label": "discountRate",
        "offset": 0,
        "slot": "13",
        "type": "t_uint256"
      },
      {
        "astId": 20732,
        "contract": "contracts/protocol/pool/PoolNAV.sol:PoolNAV",
        "label": "latestNAV",
        "offset": 0,
        "slot": "14",
        "type": "t_uint256"
      },
      {
        "astId": 20734,
        "contract": "contracts/protocol/pool/PoolNAV.sol:PoolNAV",
        "label": "latestDiscount",
        "offset": 0,
        "slot": "15",
        "type": "t_uint256"
      },
      {
        "astId": 20736,
        "contract": "contracts/protocol/pool/PoolNAV.sol:PoolNAV",
        "label": "lastNAVUpdate",
        "offset": 0,
        "slot": "16",
        "type": "t_uint256"
      },
      {
        "astId": 20738,
        "contract": "contracts/protocol/pool/PoolNAV.sol:PoolNAV",
        "label": "overdueLoans",
        "offset": 0,
        "slot": "17",
        "type": "t_uint256"
      }
    ],
    "types": {
      "t_address": {
        "encoding": "inplace",
        "label": "address",
        "numberOfBytes": "20"
      },
      "t_array(t_struct(WriteOffGroup)20695_storage)dyn_storage": {
        "base": "t_struct(WriteOffGroup)20695_storage",
        "encoding": "dynamic_array",
        "label": "struct PoolNAV.WriteOffGroup[]",
        "numberOfBytes": "32"
      },
      "t_bool": {
        "encoding": "inplace",
        "label": "bool",
        "numberOfBytes": "1"
      },
      "t_bytes32": {
        "encoding": "inplace",
        "label": "bytes32",
        "numberOfBytes": "32"
      },
      "t_contract(Registry)32407": {
        "encoding": "inplace",
        "label": "contract Registry",
        "numberOfBytes": "20"
      },
      "t_mapping(t_address,t_uint256)": {
        "encoding": "mapping",
        "key": "t_address",
        "label": "mapping(address => uint256)",
        "numberOfBytes": "32",
        "value": "t_uint256"
      },
      "t_mapping(t_bytes32,t_struct(NFTDetails)20607_storage)": {
        "encoding": "mapping",
        "key": "t_bytes32",
        "label": "mapping(bytes32 => struct PoolNAV.NFTDetails)",
        "numberOfBytes": "32",
        "value": "t_struct(NFTDetails)20607_storage"
      },
      "t_mapping(t_uint256,t_struct(LoanDetails)20688_storage)": {
        "encoding": "mapping",
        "key": "t_uint256",
        "label": "mapping(uint256 => struct PoolNAV.LoanDetails)",
        "numberOfBytes": "32",
        "value": "t_struct(LoanDetails)20688_storage"
      },
      "t_mapping(t_uint256,t_struct(Rate)20622_storage)": {
        "encoding": "mapping",
        "key": "t_uint256",
        "label": "mapping(uint256 => struct PoolNAV.Rate)",
        "numberOfBytes": "32",
        "value": "t_struct(Rate)20622_storage"
      },
      "t_mapping(t_uint256,t_uint256)": {
        "encoding": "mapping",
        "key": "t_uint256",
        "label": "mapping(uint256 => uint256)",
        "numberOfBytes": "32",
        "value": "t_uint256"
      },
      "t_struct(LoanDetails)20688_storage": {
        "encoding": "inplace",
        "label": "struct PoolNAV.LoanDetails",
        "members": [
          {
            "astId": 20685,
            "contract": "contracts/protocol/pool/PoolNAV.sol:PoolNAV",
            "label": "borrowed",
            "offset": 0,
            "slot": "0",
            "type": "t_uint128"
          },
          {
            "astId": 20687,
            "contract": "contracts/protocol/pool/PoolNAV.sol:PoolNAV",
            "label": "authWriteOff",
            "offset": 16,
            "slot": "0",
            "type": "t_bool"
          }
        ],
        "numberOfBytes": "32"
      },
      "t_struct(NFTDetails)20607_storage": {
        "encoding": "inplace",
        "label": "struct PoolNAV.NFTDetails",
        "members": [
          {
            "astId": 20600,
            "contract": "contracts/protocol/pool/PoolNAV.sol:PoolNAV",
            "label": "nftValues",
            "offset": 0,
            "slot": "0",
            "type": "t_uint128"
          },
          {
            "astId": 20602,
            "contract": "contracts/protocol/pool/PoolNAV.sol:PoolNAV",
            "label": "futureValue",
            "offset": 16,
            "slot": "0",
            "type": "t_uint128"
          },
          {
            "astId": 20604,
            "contract": "contracts/protocol/pool/PoolNAV.sol:PoolNAV",
            "label": "maturityDate",
            "offset": 0,
            "slot": "1",
            "type": "t_uint128"
          },
          {
            "astId": 20606,
            "contract": "contracts/protocol/pool/PoolNAV.sol:PoolNAV",
            "label": "risk",
            "offset": 16,
            "slot": "1",
            "type": "t_uint128"
          }
        ],
        "numberOfBytes": "64"
      },
      "t_struct(Rate)20622_storage": {
        "encoding": "inplace",
        "label": "struct PoolNAV.Rate",
        "members": [
          {
            "astId": 20609,
            "contract": "contracts/protocol/pool/PoolNAV.sol:PoolNAV",
            "label": "pie",
            "offset": 0,
            "slot": "0",
            "type": "t_uint256"
          },
          {
            "astId": 20611,
            "contract": "contracts/protocol/pool/PoolNAV.sol:PoolNAV",
            "label": "chi",
            "offset": 0,
            "slot": "1",
            "type": "t_uint256"
          },
          {
            "astId": 20613,
            "contract": "contracts/protocol/pool/PoolNAV.sol:PoolNAV",
            "label": "ratePerSecond",
            "offset": 0,
            "slot": "2",
            "type": "t_uint256"
          },
          {
            "astId": 20615,
            "contract": "contracts/protocol/pool/PoolNAV.sol:PoolNAV",
            "label": "penaltyRatePerSecond",
            "offset": 0,
            "slot": "3",
            "type": "t_uint256"
          },
          {
            "astId": 20617,
            "contract": "contracts/protocol/pool/PoolNAV.sol:PoolNAV",
            "label": "penaltyChi",
            "offset": 0,
            "slot": "4",
            "type": "t_uint256"
          },
          {
            "astId": 20619,
            "contract": "contracts/protocol/pool/PoolNAV.sol:PoolNAV",
            "label": "lastUpdated",
            "offset": 0,
            "slot": "5",
            "type": "t_uint48"
          },
          {
            "astId": 20621,
            "contract": "contracts/protocol/pool/PoolNAV.sol:PoolNAV",
            "label": "timeStartPenalty",
            "offset": 6,
            "slot": "5",
            "type": "t_uint48"
          }
        ],
        "numberOfBytes": "192"
      },
      "t_struct(WriteOffGroup)20695_storage": {
        "encoding": "inplace",
        "label": "struct PoolNAV.WriteOffGroup",
        "members": [
          {
            "astId": 20690,
            "contract": "contracts/protocol/pool/PoolNAV.sol:PoolNAV",
            "label": "percentage",
            "offset": 0,
            "slot": "0",
            "type": "t_uint128"
          },
          {
            "astId": 20692,
            "contract": "contracts/protocol/pool/PoolNAV.sol:PoolNAV",
            "label": "overdueDays",
            "offset": 16,
            "slot": "0",
            "type": "t_uint128"
          },
          {
            "astId": 20694,
            "contract": "contracts/protocol/pool/PoolNAV.sol:PoolNAV",
            "label": "riskIndex",
            "offset": 0,
            "slot": "1",
            "type": "t_uint128"
          }
        ],
        "numberOfBytes": "64"
      },
      "t_uint128": {
        "encoding": "inplace",
        "label": "uint128",
        "numberOfBytes": "16"
      },
      "t_uint256": {
        "encoding": "inplace",
        "label": "uint256",
        "numberOfBytes": "32"
      },
      "t_uint48": {
        "encoding": "inplace",
        "label": "uint48",
        "numberOfBytes": "6"
      },
      "t_uint8": {
        "encoding": "inplace",
        "label": "uint8",
        "numberOfBytes": "1"
      }
    }
  }
}