{
  "address": "0xe2d74453b209f104fb63d77Ce193154699dcbc1B",
  "abi": [
    {
      "anonymous": false,
      "inputs": [
        {
          "indexed": false,
          "internalType": "address",
          "name": "account",
          "type": "address"
        }
      ],
      "name": "Paused",
      "type": "event"
    },
    {
      "anonymous": false,
      "inputs": [
        {
          "indexed": true,
          "internalType": "bytes32",
          "name": "role",
          "type": "bytes32"
        },
        {
          "indexed": true,
          "internalType": "bytes32",
          "name": "previousAdminRole",
          "type": "bytes32"
        },
        {
          "indexed": true,
          "internalType": "bytes32",
          "name": "newAdminRole",
          "type": "bytes32"
        }
      ],
      "name": "RoleAdminChanged",
      "type": "event"
    },
    {
      "anonymous": false,
      "inputs": [
        {
          "indexed": true,
          "internalType": "bytes32",
          "name": "role",
          "type": "bytes32"
        },
        {
          "indexed": true,
          "internalType": "address",
          "name": "account",
          "type": "address"
        },
        {
          "indexed": true,
          "internalType": "address",
          "name": "sender",
          "type": "address"
        }
      ],
      "name": "RoleGranted",
      "type": "event"
    },
    {
      "anonymous": false,
      "inputs": [
        {
          "indexed": true,
          "internalType": "bytes32",
          "name": "role",
          "type": "bytes32"
        },
        {
          "indexed": true,
          "internalType": "address",
          "name": "account",
          "type": "address"
        },
        {
          "indexed": true,
          "internalType": "address",
          "name": "sender",
          "type": "address"
        }
      ],
      "name": "RoleRevoked",
      "type": "event"
    },
    {
      "anonymous": false,
      "inputs": [
        {
          "indexed": false,
          "internalType": "address",
          "name": "account",
          "type": "address"
        }
      ],
      "name": "Unpaused",
      "type": "event"
    },
    {
      "inputs": [],
      "name": "DEFAULT_ADMIN_ROLE",
      "outputs": [
        {
          "internalType": "bytes32",
          "name": "",
          "type": "bytes32"
        }
      ],
      "stateMutability": "view",
      "type": "function"
    },
    {
      "inputs": [],
      "name": "ORIGINATOR_ROLE",
      "outputs": [
        {
          "internalType": "bytes32",
          "name": "",
          "type": "bytes32"
        }
      ],
      "stateMutability": "view",
      "type": "function"
    },
    {
      "inputs": [],
      "name": "OWNER_ROLE",
      "outputs": [
        {
          "internalType": "bytes32",
          "name": "",
          "type": "bytes32"
        }
      ],
      "stateMutability": "view",
      "type": "function"
    },
    {
      "inputs": [
        {
          "internalType": "address",
          "name": "recipientWallet",
          "type": "address"
        }
      ],
      "name": "claimCashRemain",
      "outputs": [],
      "stateMutability": "nonpayable",
      "type": "function"
    },
    {
      "inputs": [
        {
          "internalType": "address[]",
          "name": "tokenAddresses",
          "type": "address[]"
        }
      ],
      "name": "claimERC20Assets",
      "outputs": [],
      "stateMutability": "nonpayable",
      "type": "function"
    },
    {
      "inputs": [
        {
          "internalType": "address",
          "name": "tokenAddress",
          "type": "address"
        },
        {
          "internalType": "address",
          "name": "from",
          "type": "address"
        },
        {
          "internalType": "uint256[]",
          "name": "tokenIds",
          "type": "uint256[]"
        }
      ],
      "name": "collectAssets",
      "outputs": [],
      "stateMutability": "nonpayable",
      "type": "function"
    },
    {
      "inputs": [
        {
          "internalType": "address[]",
          "name": "tokenAddresses",
          "type": "address[]"
        },
        {
          "internalType": "address[]",
          "name": "senders",
          "type": "address[]"
        },
        {
          "internalType": "uint256[]",
          "name": "amounts",
          "type": "uint256[]"
        }
      ],
      "name": "collectERC20Assets",
      "outputs": [],
      "stateMutability": "nonpayable",
      "type": "function"
    },
    {
      "inputs": [
        {
          "internalType": "address",
          "name": "tokenAddress",
          "type": "address"
        },
        {
          "internalType": "address",
          "name": "investor",
          "type": "address"
        },
        {
          "internalType": "uint256",
          "name": "currency",
          "type": "uint256"
        },
        {
          "internalType": "uint256",
          "name": "token",
          "type": "uint256"
        }
      ],
      "name": "decreaseLockedDistributeBalance",
      "outputs": [],
      "stateMutability": "nonpayable",
      "type": "function"
    },
    {
      "inputs": [
        {
          "internalType": "address",
          "name": "",
          "type": "address"
        }
      ],
      "name": "existsTokenAssetAddress",
      "outputs": [
        {
          "internalType": "bool",
          "name": "",
          "type": "bool"
        }
      ],
      "stateMutability": "view",
      "type": "function"
    },
    {
      "inputs": [
        {
          "internalType": "address",
          "name": "tokenAddress",
          "type": "address"
        },
        {
          "internalType": "address",
          "name": "toPoolAddress",
          "type": "address"
        },
        {
          "internalType": "uint256[]",
          "name": "tokenIds",
          "type": "uint256[]"
        }
      ],
      "name": "exportAssets",
      "outputs": [],
      "stateMutability": "nonpayable",
      "type": "function"
    },
    {
      "inputs": [],
      "name": "getNFTAssetsLength",
      "outputs": [
        {
          "internalType": "uint256",
          "name": "",
          "type": "uint256"
        }
      ],
      "stateMutability": "view",
      "type": "function"
    },
    {
      "inputs": [],
      "name": "getRiskScoresLength",
      "outputs": [
        {
          "internalType": "uint256",
          "name": "",
          "type": "uint256"
        }
      ],
      "stateMutability": "view",
      "type": "function"
    },
    {
      "inputs": [
        {
          "internalType": "bytes32",
          "name": "role",
          "type": "bytes32"
        }
      ],
      "name": "getRoleAdmin",
      "outputs": [
        {
          "internalType": "bytes32",
          "name": "",
          "type": "bytes32"
        }
      ],
      "stateMutability": "view",
      "type": "function"
    },
    {
      "inputs": [
        {
          "internalType": "bytes32",
          "name": "role",
          "type": "bytes32"
        },
        {
          "internalType": "uint256",
          "name": "index",
          "type": "uint256"
        }
      ],
      "name": "getRoleMember",
      "outputs": [
        {
          "internalType": "address",
          "name": "",
          "type": "address"
        }
      ],
      "stateMutability": "view",
      "type": "function"
    },
    {
      "inputs": [
        {
          "internalType": "bytes32",
          "name": "role",
          "type": "bytes32"
        }
      ],
      "name": "getRoleMemberCount",
      "outputs": [
        {
          "internalType": "uint256",
          "name": "",
          "type": "uint256"
        }
      ],
      "stateMutability": "view",
      "type": "function"
    },
    {
      "inputs": [],
      "name": "getTokenAssetAddresses",
      "outputs": [
        {
          "internalType": "address[]",
          "name": "",
          "type": "address[]"
        }
      ],
      "stateMutability": "view",
      "type": "function"
    },
    {
      "inputs": [],
      "name": "getTokenAssetAddressesLength",
      "outputs": [
        {
          "internalType": "uint256",
          "name": "",
          "type": "uint256"
        }
      ],
      "stateMutability": "view",
      "type": "function"
    },
    {
      "inputs": [
        {
          "internalType": "bytes32",
          "name": "role",
          "type": "bytes32"
        },
        {
          "internalType": "address",
          "name": "account",
          "type": "address"
        }
      ],
      "name": "grantRole",
      "outputs": [],
      "stateMutability": "nonpayable",
      "type": "function"
    },
    {
      "inputs": [],
      "name": "hasFinishedRedemption",
      "outputs": [
        {
          "internalType": "bool",
          "name": "",
          "type": "bool"
        }
      ],
      "stateMutability": "view",
      "type": "function"
    },
    {
      "inputs": [
        {
          "internalType": "bytes32",
          "name": "role",
          "type": "bytes32"
        },
        {
          "internalType": "address",
          "name": "account",
          "type": "address"
        }
      ],
      "name": "hasRole",
      "outputs": [
        {
          "internalType": "bool",
          "name": "",
          "type": "bool"
        }
      ],
      "stateMutability": "view",
      "type": "function"
    },
    {
      "inputs": [
        {
          "internalType": "address",
          "name": "tokenAddress",
          "type": "address"
        },
        {
          "internalType": "address",
          "name": "investor",
          "type": "address"
        },
        {
          "internalType": "uint256",
          "name": "currency",
          "type": "uint256"
        },
        {
          "internalType": "uint256",
          "name": "token",
          "type": "uint256"
        }
      ],
      "name": "increaseLockedDistributeBalance",
      "outputs": [],
      "stateMutability": "nonpayable",
      "type": "function"
    },
    {
      "inputs": [
        {
          "internalType": "uint256",
          "name": "amount",
          "type": "uint256"
        }
      ],
      "name": "increaseTotalAssetRepaidCurrency",
      "outputs": [],
      "stateMutability": "nonpayable",
      "type": "function"
    },
    {
      "inputs": [
        {
          "internalType": "contract Registry",
          "name": "_registry",
          "type": "address"
        },
        {
          "internalType": "address",
          "name": "_currency",
          "type": "address"
        },
        {
          "internalType": "uint32",
          "name": "_minFirstLossCushion",
          "type": "uint32"
        }
      ],
      "name": "initialize",
      "outputs": [],
      "stateMutability": "nonpayable",
      "type": "function"
    },
    {
      "inputs": [
        {
          "internalType": "address",
          "name": "_tgeAddress",
          "type": "address"
        },
        {
          "internalType": "address",
          "name": "_tokenAddress",
          "type": "address"
        },
        {
          "internalType": "enum Configuration.NOTE_TOKEN_TYPE",
          "name": "_noteType",
          "type": "uint8"
        }
      ],
      "name": "injectTGEAddress",
      "outputs": [],
      "stateMutability": "nonpayable",
      "type": "function"
    },
    {
      "inputs": [],
      "name": "interestRateSOT",
      "outputs": [
        {
          "internalType": "uint32",
          "name": "",
          "type": "uint32"
        }
      ],
      "stateMutability": "view",
      "type": "function"
    },
    {
      "inputs": [],
      "name": "isClosedState",
      "outputs": [
        {
          "internalType": "bool",
          "name": "",
          "type": "bool"
        }
      ],
      "stateMutability": "view",
      "type": "function"
    },
    {
      "inputs": [],
      "name": "jotToken",
      "outputs": [
        {
          "internalType": "address",
          "name": "",
          "type": "address"
        }
      ],
      "stateMutability": "view",
      "type": "function"
    },
    {
      "inputs": [
        {
          "internalType": "address",
          "name": "",
          "type": "address"
        }
      ],
      "name": "lastRepayTimestampSOT",
      "outputs": [
        {
          "internalType": "uint256",
          "name": "",
          "type": "uint256"
        }
      ],
      "stateMutability": "view",
      "type": "function"
    },
    {
      "inputs": [
        {
          "internalType": "address",
          "name": "",
          "type": "address"
        },
        {
          "internalType": "address",
          "name": "",
          "type": "address"
        }
      ],
      "name": "lockedDistributeBalances",
      "outputs": [
        {
          "internalType": "uint256",
          "name": "",
          "type": "uint256"
        }
      ],
      "stateMutability": "view",
      "type": "function"
    },
    {
      "inputs": [
        {
          "internalType": "address",
          "name": "",
          "type": "address"
        },
        {
          "internalType": "address",
          "name": "",
          "type": "address"
        }
      ],
      "name": "lockedRedeemBalances",
      "outputs": [
        {
          "internalType": "uint256",
          "name": "",
          "type": "uint256"
        }
      ],
      "stateMutability": "view",
      "type": "function"
    },
    {
      "inputs": [],
      "name": "minFirstLossCushion",
      "outputs": [
        {
          "internalType": "uint32",
          "name": "",
          "type": "uint32"
        }
      ],
      "stateMutability": "view",
      "type": "function"
    },
    {
      "inputs": [
        {
          "internalType": "uint256",
          "name": "",
          "type": "uint256"
        }
      ],
      "name": "nftAssets",
      "outputs": [
        {
          "internalType": "address",
          "name": "tokenAddress",
          "type": "address"
        },
        {
          "internalType": "uint256",
          "name": "tokenId",
          "type": "uint256"
        }
      ],
      "stateMutability": "view",
      "type": "function"
    },
    {
      "inputs": [
        {
          "internalType": "address",
          "name": "",
          "type": "address"
        },
        {
          "internalType": "address",
          "name": "",
          "type": "address"
        },
        {
          "internalType": "uint256",
          "name": "tokenId",
          "type": "uint256"
        },
        {
          "internalType": "bytes",
          "name": "",
          "type": "bytes"
        }
      ],
      "name": "onERC721Received",
      "outputs": [
        {
          "internalType": "bytes4",
          "name": "",
          "type": "bytes4"
        }
      ],
      "stateMutability": "nonpayable",
      "type": "function"
    },
    {
      "inputs": [],
      "name": "openingBlockTimestamp",
      "outputs": [
        {
          "internalType": "uint64",
          "name": "",
          "type": "uint64"
        }
      ],
      "stateMutability": "view",
      "type": "function"
    },
    {
      "inputs": [
        {
          "internalType": "address",
          "name": "",
          "type": "address"
        }
      ],
      "name": "paidInterestAmountSOT",
      "outputs": [
        {
          "internalType": "uint256",
          "name": "",
          "type": "uint256"
        }
      ],
      "stateMutability": "view",
      "type": "function"
    },
    {
      "inputs": [],
      "name": "paidPrincipalAmountSOT",
      "outputs": [
        {
          "internalType": "uint256",
          "name": "",
          "type": "uint256"
        }
      ],
      "stateMutability": "view",
      "type": "function"
    },
    {
      "inputs": [
        {
          "internalType": "address",
          "name": "",
          "type": "address"
        }
      ],
      "name": "paidPrincipalAmountSOTByInvestor",
      "outputs": [
        {
          "internalType": "uint256",
          "name": "",
          "type": "uint256"
        }
      ],
      "stateMutability": "view",
      "type": "function"
    },
    {
      "inputs": [],
      "name": "pause",
      "outputs": [],
      "stateMutability": "nonpayable",
      "type": "function"
    },
    {
      "inputs": [],
      "name": "paused",
      "outputs": [
        {
          "internalType": "bool",
          "name": "",
          "type": "bool"
        }
      ],
      "stateMutability": "view",
      "type": "function"
    },
    {
      "inputs": [],
      "name": "pot",
      "outputs": [
        {
          "internalType": "address",
          "name": "",
          "type": "address"
        }
      ],
      "stateMutability": "view",
      "type": "function"
    },
    {
      "inputs": [],
      "name": "principalAmountSOT",
      "outputs": [
        {
          "internalType": "uint256",
          "name": "",
          "type": "uint256"
        }
      ],
      "stateMutability": "view",
      "type": "function"
    },
    {
      "inputs": [
        {
          "internalType": "address",
          "name": "usr",
          "type": "address"
        },
        {
          "internalType": "address",
          "name": "notesToken",
          "type": "address"
        },
        {
          "internalType": "uint256",
          "name": "currencyAmount",
          "type": "uint256"
        },
        {
          "internalType": "uint256",
          "name": "tokenAmount",
          "type": "uint256"
        }
      ],
      "name": "redeem",
      "outputs": [],
      "stateMutability": "nonpayable",
      "type": "function"
    },
    {
      "inputs": [],
      "name": "registry",
      "outputs": [
        {
          "internalType": "contract Registry",
          "name": "",
          "type": "address"
        }
      ],
      "stateMutability": "view",
      "type": "function"
    },
    {
      "inputs": [
        {
          "internalType": "bytes32",
          "name": "role",
          "type": "bytes32"
        },
        {
          "internalType": "address",
          "name": "account",
          "type": "address"
        }
      ],
      "name": "renounceRole",
      "outputs": [],
      "stateMutability": "nonpayable",
      "type": "function"
    },
    {
      "inputs": [
        {
          "internalType": "bytes32",
          "name": "role",
          "type": "bytes32"
        },
        {
          "internalType": "address",
          "name": "account",
          "type": "address"
        }
      ],
      "name": "revokeRole",
      "outputs": [],
      "stateMutability": "nonpayable",
      "type": "function"
    },
    {
      "inputs": [
        {
          "internalType": "uint256",
          "name": "",
          "type": "uint256"
        }
      ],
      "name": "riskScores",
      "outputs": [
        {
          "internalType": "uint32",
          "name": "daysPastDue",
          "type": "uint32"
        },
        {
          "internalType": "uint32",
          "name": "advanceRate",
          "type": "uint32"
        },
        {
          "internalType": "uint32",
          "name": "penaltyRate",
          "type": "uint32"
        },
        {
          "internalType": "uint32",
          "name": "interestRate",
          "type": "uint32"
        },
        {
          "internalType": "uint32",
          "name": "probabilityOfDefault",
          "type": "uint32"
        },
        {
          "internalType": "uint32",
          "name": "lossGivenDefault",
          "type": "uint32"
        },
        {
          "internalType": "uint32",
          "name": "gracePeriod",
          "type": "uint32"
        },
        {
          "internalType": "uint32",
          "name": "collectionPeriod",
          "type": "uint32"
        },
        {
          "internalType": "uint32",
          "name": "writeOffAfterGracePeriod",
          "type": "uint32"
        },
        {
          "internalType": "uint32",
          "name": "writeOffAfterCollectionPeriod",
          "type": "uint32"
        }
      ],
      "stateMutability": "view",
      "type": "function"
    },
    {
      "inputs": [],
      "name": "secondTGEAddress",
      "outputs": [
        {
          "internalType": "address",
          "name": "",
          "type": "address"
        }
      ],
      "stateMutability": "view",
      "type": "function"
    },
    {
      "inputs": [
        {
          "internalType": "uint32",
          "name": "_interestRateSOT",
          "type": "uint32"
        }
      ],
      "name": "setInterestRateForSOT",
      "outputs": [],
      "stateMutability": "nonpayable",
      "type": "function"
    },
    {
      "inputs": [
        {
          "internalType": "address",
          "name": "_pot",
          "type": "address"
        }
      ],
      "name": "setPot",
      "outputs": [],
      "stateMutability": "nonpayable",
      "type": "function"
    },
    {
      "inputs": [
        {
          "internalType": "uint32[]",
          "name": "_daysPastDues",
          "type": "uint32[]"
        },
        {
          "internalType": "uint32[]",
          "name": "_ratesAndDefaults",
          "type": "uint32[]"
        },
        {
          "internalType": "uint32[]",
          "name": "_periodsAndWriteOffs",
          "type": "uint32[]"
        }
      ],
      "name": "setupRiskScores",
      "outputs": [],
      "stateMutability": "nonpayable",
      "type": "function"
    },
    {
      "inputs": [],
      "name": "sotToken",
      "outputs": [
        {
          "internalType": "address",
          "name": "",
          "type": "address"
        }
      ],
      "stateMutability": "view",
      "type": "function"
    },
    {
      "inputs": [
        {
          "internalType": "uint64",
          "name": "_termLengthInSeconds",
          "type": "uint64"
        },
        {
          "internalType": "uint256",
          "name": "_principalAmountForSOT",
          "type": "uint256"
        },
        {
          "internalType": "uint32",
          "name": "_interestRateForSOT",
          "type": "uint32"
        },
        {
          "internalType": "uint64",
          "name": "_timeStartEarningInterest",
          "type": "uint64"
        }
      ],
      "name": "startCycle",
      "outputs": [],
      "stateMutability": "nonpayable",
      "type": "function"
    },
    {
      "inputs": [],
      "name": "state",
      "outputs": [
        {
          "internalType": "enum ISecuritizationPool.CycleState",
          "name": "",
          "type": "uint8"
        }
      ],
      "stateMutability": "view",
      "type": "function"
    },
    {
      "inputs": [
        {
          "internalType": "bytes4",
          "name": "interfaceId",
          "type": "bytes4"
        }
      ],
      "name": "supportsInterface",
      "outputs": [
        {
          "internalType": "bool",
          "name": "",
          "type": "bool"
        }
      ],
      "stateMutability": "view",
      "type": "function"
    },
    {
      "inputs": [],
      "name": "termLengthInSeconds",
      "outputs": [
        {
          "internalType": "uint64",
          "name": "",
          "type": "uint64"
        }
      ],
      "stateMutability": "view",
      "type": "function"
    },
    {
      "inputs": [],
      "name": "tgeAddress",
      "outputs": [
        {
          "internalType": "address",
          "name": "",
          "type": "address"
        }
      ],
      "stateMutability": "view",
      "type": "function"
    },
    {
      "inputs": [
        {
          "internalType": "uint256",
          "name": "",
          "type": "uint256"
        }
      ],
      "name": "tokenAssetAddresses",
      "outputs": [
        {
          "internalType": "address",
          "name": "",
          "type": "address"
        }
      ],
      "stateMutability": "view",
      "type": "function"
    },
    {
      "inputs": [],
      "name": "totalAssetRepaidCurrency",
      "outputs": [
        {
          "internalType": "uint256",
          "name": "",
          "type": "uint256"
        }
      ],
      "stateMutability": "view",
      "type": "function"
    },
    {
      "inputs": [],
      "name": "totalLockedDistributeBalance",
      "outputs": [
        {
          "internalType": "uint256",
          "name": "",
          "type": "uint256"
        }
      ],
      "stateMutability": "view",
      "type": "function"
    },
    {
      "inputs": [
        {
          "internalType": "address",
          "name": "",
          "type": "address"
        }
      ],
      "name": "totalLockedRedeemBalances",
      "outputs": [
        {
          "internalType": "uint256",
          "name": "",
          "type": "uint256"
        }
      ],
      "stateMutability": "view",
      "type": "function"
    },
    {
      "inputs": [],
      "name": "totalRedeemedCurrency",
      "outputs": [
        {
          "internalType": "uint256",
          "name": "",
          "type": "uint256"
        }
      ],
      "stateMutability": "view",
      "type": "function"
    },
    {
      "inputs": [],
      "name": "underlyingCurrency",
      "outputs": [
        {
          "internalType": "address",
          "name": "",
          "type": "address"
        }
      ],
      "stateMutability": "view",
      "type": "function"
    },
    {
      "inputs": [],
      "name": "unpause",
      "outputs": [],
      "stateMutability": "nonpayable",
      "type": "function"
    },
    {
      "inputs": [
        {
          "internalType": "address[]",
          "name": "tokenAddresses",
          "type": "address[]"
        },
        {
          "internalType": "uint256[]",
          "name": "tokenIds",
          "type": "uint256[]"
        },
        {
          "internalType": "address[]",
          "name": "recipients",
          "type": "address[]"
        }
      ],
      "name": "withdrawAssets",
      "outputs": [],
      "stateMutability": "nonpayable",
      "type": "function"
    },
    {
      "inputs": [
        {
          "internalType": "address[]",
          "name": "tokenAddresses",
          "type": "address[]"
        },
        {
          "internalType": "address[]",
          "name": "recipients",
          "type": "address[]"
        },
        {
          "internalType": "uint256[]",
          "name": "amounts",
          "type": "uint256[]"
        }
      ],
      "name": "withdrawERC20Assets",
      "outputs": [],
      "stateMutability": "nonpayable",
      "type": "function"
    }
  ],
  "transactionHash": "0x11b2d1955ec758091465773f0bcf82637a5a4c459c990af2975d95edf6664ef1",
  "args": [],
  "numDeployments": 4,
  "solcInputHash": "237080cc68368c9bcfab0db5013d26bc",
  "bytecode": "0x608060405234801561001057600080fd5b50615ee580620000216000396000f3fe608060405234801561001057600080fd5b50600436106103eb5760003560e01c80636ee44c4c1161021a578063a6c5954711610135578063d2fad481116100c8578063df076fe011610097578063ed3488951161007c578063ed34889514610a1a578063fa3908b114610a2d578063febd601814610a5f57600080fd5b8063df076fe0146109ea578063e58378bb146109f357600080fd5b8063d2fad48114610990578063d547741f146109b1578063d8ba6f44146109c4578063dec28587146109d757600080fd5b8063c19d93fb11610104578063c19d93fb1461092d578063c6cb67a614610960578063ca15c87314610973578063cee7b6a11461098657600080fd5b8063a6c59547146108da578063ac2a6a38146108ed578063ade0ea6d14610919578063b8cd9b001461092357600080fd5b80638456cb59116101ad578063901617051161017c578063901617051461085f57806391d1485414610872578063a125142b146108ab578063a217fddf146108d257600080fd5b80638456cb59146108185780638fd6b71e1461082057806390071cf3146108395780639010d07c1461084c57600080fd5b80637b103999116101e95780637b103999146107bb5780637da220e6146107cf5780637dfbdae2146107fb578063815d6ddf1461080557600080fd5b80636ee44c4c1461077557806370d2f3991461078a57806375b1bce7146107ab57806378d29d55146107b357600080fd5b806336568abe1161030a5780634bb485861161029d5780636421cede1161026c5780636421cede146106c6578063644b4ead146106db5780636456a3ee1461074e5780636ecf2b221461076257600080fd5b80634bb48586146106715780634be47418146106955780635b8e62e7146106a85780635c975abb146106bb57600080fd5b80633ffebce4116102d95780633ffebce4146105e2578063477035d1146106035780634b552a4a1461064a5780634ba2363a1461065d57600080fd5b806336568abe146105a157806338d9feac146105b45780633bf4045f146105c75780633f4ba83a146105da57600080fd5b8063221dc593116103825780632bb14ff0116103515780632bb14ff01461054c5780632bcc3682146105725780632f2ff15d1461057b578063357a03021461058e57600080fd5b8063221dc593146104ee578063247fc36314610502578063248a9ca3146105155780632b71b4501461053857600080fd5b8063186ccccf116103be578063186ccccf1461049b5780631ba6e957146104b05780631bf51b70146104d157806320585408146104e457600080fd5b806301ffc9a7146103f05780630b7792f1146104185780630bc6bffc1461042b578063150b7a0214610457575b600080fd5b6104036103fe366004615654565b610a73565b60405190151581526020015b60405180910390f35b610140545b60405190815260200161040f565b6101325461043f906001600160a01b031681565b6040516001600160a01b03909116815260200161040f565b61046a6104653660046156da565b610acf565b6040517fffffffff00000000000000000000000000000000000000000000000000000000909116815260200161040f565b6104ae6104a9366004615824565b610c45565b005b61041d6104be366004615866565b61013a6020526000908152604090205481565b6104ae6104df366004615883565b610f9f565b61041d6101345481565b61012f5461043f906001600160a01b031681565b6104ae610510366004615883565b61166b565b61041d61052336600461591d565b600090815260c9602052604090206001015490565b6101315461043f906001600160a01b031681565b61013e5461055d9063ffffffff1681565b60405163ffffffff909116815260200161040f565b61013f5461041d565b6104ae610589366004615936565b611abf565b6104ae61059c366004615966565b611aea565b6104ae6105af366004615936565b611cd8565b6104ae6105c23660046159ac565b611d64565b6104ae6105d5366004615883565b611f0c565b6104ae6122a0565b61041d6105f0366004615866565b6101436020526000908152604090205481565b61013254610631907501000000000000000000000000000000000000000000900467ffffffffffffffff1681565b60405167ffffffffffffffff909116815260200161040f565b6104ae610658366004615a11565b6122b7565b6101445461043f906001600160a01b031681565b61040361067f366004615866565b6101426020526000908152604090205460ff1681565b6104ae6106a3366004615966565b612622565b6104ae6106b6366004615966565b612940565b60335460ff16610403565b6106ce612b9d565b60405161040f9190615a60565b6106ee6106e936600461591d565b612c00565b6040805163ffffffff9b8c168152998b1660208b0152978a16978901979097529488166060880152928716608087015290861660a0860152851660c0850152841660e084015283166101008301529091166101208201526101400161040f565b61012e5461043f906001600160a01b031681565b6104ae610770366004615ac6565b612ce1565b610133546106319067ffffffffffffffff1681565b61041d610798366004615866565b6101366020526000908152604090205481565b610403613021565b610403613222565b61012d5461043f906001600160a01b031681565b61041d6107dd366004615b0d565b61013760209081526000928352604080842090915290825290205481565b61041d6101355481565b6104ae610813366004615b53565b61325c565b6104ae613826565b61013e5461055d90640100000000900463ffffffff1681565b6104ae610847366004615866565b61383a565b61043f61085a366004615ba0565b613ab4565b6104ae61086d36600461591d565b613ad3565b610403610880366004615936565b600091825260c9602090815260408084206001600160a01b0393909316845291905290205460ff1690565b61041d7f59abfac6520ec36a6556b2a4dd949cc40007459bcd5cd2507f1e5cc77b6bc97e81565b61041d600081565b6104ae6108e8366004615883565b613c34565b61041d6108fb366004615b0d565b61013860209081526000928352604080842090915290825290205481565b61041d61013d5481565b61041d61013c5481565b610132546109539074010000000000000000000000000000000000000000900460ff1681565b60405161040f9190615bf1565b6104ae61096e366004615c32565b613fc1565b61041d61098136600461591d565b6140d6565b61041d6101395481565b61041d61099e366004615866565b61013b6020526000908152604090205481565b6104ae6109bf366004615936565b6140ed565b61043f6109d236600461591d565b614113565b6104ae6109e53660046159ac565b61413e565b6101415461041d565b61041d7fb19546dff01e856fb3f010c267a7b1c60363cf8a4664e21cc89c26224620214e81565b6104ae610a28366004615866565b61447d565b610a40610a3b36600461591d565b614774565b604080516001600160a01b03909316835260208301919091520161040f565b6101305461043f906001600160a01b031681565b60007fffffffff0000000000000000000000000000000000000000000000000000000082167f5a05180f000000000000000000000000000000000000000000000000000000001480610ac95750610ac9826147ad565b92915050565b61012d54600090610ae8906001600160a01b0316614844565b6001600160a01b0316336001600160a01b03161480610b2d575061012d54610b18906001600160a01b0316614851565b6001600160a01b0316336001600160a01b0316145b610ba45760405162461bcd60e51b815260206004820152603560248201527f53656375726974697a6174696f6e506f6f6c3a204d75737420626520746f6b6560448201527f6e2069737375656420627920556e74616e676c6564000000000000000000000060648201526084015b60405180910390fd5b6101406040518060400160405280610bb93390565b6001600160a01b039081168252602091820187905283546001818101865560009586529483902084516002909202018054919092167fffffffffffffffffffffffff0000000000000000000000000000000000000000909116178155910151910155507f150b7a0200000000000000000000000000000000000000000000000000000000949350505050565b60335460ff1615610c985760405162461bcd60e51b815260206004820152601060248201527f5061757361626c653a20706175736564000000000000000000000000000000006044820152606401610b9b565b600260655403610cea5760405162461bcd60e51b815260206004820152601f60248201527f5265656e7472616e637947756172643a207265656e7472616e742063616c6c006044820152606401610b9b565b600260655560005b81811015610f955761012d54610d10906001600160a01b031661485e565b6001600160a01b03166384933c0c848484818110610d3057610d30615c4d565b9050602002016020810190610d459190615866565b6040517fffffffff0000000000000000000000000000000000000000000000000000000060e084901b1681526001600160a01b039091166004820152602401602060405180830381865afa158015610da1573d6000803e3d6000fd5b505050506040513d601f19601f82011682018060405250810190610dc59190615c7c565b610e375760405162461bcd60e51b815260206004820152602960248201527f53656375726974697a6174696f6e506f6f6c3a20756e6b6e6f776e2d746f6b6560448201527f6e2d6164647265737300000000000000000000000000000000000000000000006064820152608401610b9b565b6000838383818110610e4b57610e4b615c4d565b9050602002016020810190610e609190615866565b6040517f70a082310000000000000000000000000000000000000000000000000000000081523060048201526001600160a01b0391909116906370a0823190602401602060405180830381865afa158015610ebf573d6000803e3d6000fd5b505050506040513d601f19601f82011682018060405250810190610ee39190615c9e565b11610f565760405162461bcd60e51b815260206004820152602960248201527f53656375726974697a6174696f6e506f6f6c3a20546f6b656e2062616c616e6360448201527f65206973207a65726f00000000000000000000000000000000000000000000006064820152608401610b9b565b610f85838383818110610f6b57610f6b615c4d565b9050602002016020810190610f809190615866565b61486b565b610f8e81615ce6565b9050610cf2565b5050600160655550565b60335460ff1615610ff25760405162461bcd60e51b815260206004820152601060248201527f5061757361626c653a20706175736564000000000000000000000000000000006044820152606401610b9b565b610ffa613222565b1561106d5760405162461bcd60e51b815260206004820152602860248201527f53656375726974697a6174696f6e506f6f6c3a20506f6f6c20696e20636c6f7360448201527f65642073746174650000000000000000000000000000000000000000000000006064820152608401610b9b565b7fb19546dff01e856fb3f010c267a7b1c60363cf8a4664e21cc89c26224620214e6110988133614916565b836110a4876005615d00565b1480156110ba5750816110b8876004615d00565b145b61112c5760405162461bcd60e51b815260206004820152603860248201527f53656375726974697a6174696f6e506f6f6c3a205269736b73636f726520706160448201527f72616d73206c656e677468206973206e6f7420657175616c00000000000000006064820152608401610b9b565b61113961013f60006155f5565b60005b86811015611661578015806111b257508787611159600184615d1f565b81811061116857611168615c4d565b905060200201602081019061117d9190615c32565b63ffffffff1688888381811061119557611195615c4d565b90506020020160208101906111aa9190615c32565b63ffffffff16115b6112245760405162461bcd60e51b815260206004820152602e60248201527f53656375726974697a6174696f6e506f6f6c3a205269736b2073636f7265732060448201527f6d75737420626520736f727465640000000000000000000000000000000000006064820152608401610b9b565b61013f6040518061014001604052808a8a8581811061124557611245615c4d565b905060200201602081019061125a9190615c32565b63ffffffff16815260200188888581811061127757611277615c4d565b905060200201602081019061128c9190615c32565b63ffffffff16815260200188886112a38c87615d36565b8181106112b2576112b2615c4d565b90506020020160208101906112c79190615c32565b63ffffffff16815260200188886112df8c6002615d00565b6112e99087615d36565b8181106112f8576112f8615c4d565b905060200201602081019061130d9190615c32565b63ffffffff16815260200188886113258c6003615d00565b61132f9087615d36565b81811061133e5761133e615c4d565b90506020020160208101906113539190615c32565b63ffffffff168152602001888861136b8c6004615d00565b6113759087615d36565b81811061138457611384615c4d565b90506020020160208101906113999190615c32565b63ffffffff1681526020018686858181106113b6576113b6615c4d565b90506020020160208101906113cb9190615c32565b63ffffffff16815260200186866113e28c87615d36565b8181106113f1576113f1615c4d565b90506020020160208101906114069190615c32565b63ffffffff168152602001868661141e8c6002615d00565b6114289087615d36565b81811061143757611437615c4d565b905060200201602081019061144c9190615c32565b63ffffffff16815260200186866114648c6003615d00565b61146e9087615d36565b81811061147d5761147d615c4d565b90506020020160208101906114929190615c32565b63ffffffff16815250908060018154018082558091505060019003906000526020600020906002020160009091909190915060008201518160000160006101000a81548163ffffffff021916908363ffffffff16021790555060208201518160000160046101000a81548163ffffffff021916908363ffffffff16021790555060408201518160000160086101000a81548163ffffffff021916908363ffffffff160217905550606082015181600001600c6101000a81548163ffffffff021916908363ffffffff16021790555060808201518160000160106101000a81548163ffffffff021916908363ffffffff16021790555060a08201518160000160146101000a81548163ffffffff021916908363ffffffff16021790555060c08201518160000160186101000a81548163ffffffff021916908363ffffffff16021790555060e082015181600001601c6101000a81548163ffffffff021916908363ffffffff1602179055506101008201518160010160006101000a81548163ffffffff021916908363ffffffff1602179055506101208201518160010160046101000a81548163ffffffff021916908363ffffffff1602179055505050808061165990615ce6565b91505061113c565b5050505050505050565b60335460ff16156116be5760405162461bcd60e51b815260206004820152601060248201527f5061757361626c653a20706175736564000000000000000000000000000000006044820152606401610b9b565b6002606554036117105760405162461bcd60e51b815260206004820152601f60248201527f5265656e7472616e637947756172643a207265656e7472616e742063616c6c006044820152606401610b9b565b600260655561171d613222565b156117905760405162461bcd60e51b815260206004820152602860248201527f53656375726974697a6174696f6e506f6f6c3a20506f6f6c20696e20636c6f7360448201527f65642073746174650000000000000000000000000000000000000000000000006064820152608401610b9b565b7f59abfac6520ec36a6556b2a4dd949cc40007459bcd5cd2507f1e5cc77b6bc97e6117bb8133614916565b85841480156117c957508382145b61183b5760405162461bcd60e51b815260206004820152602f60248201527f53656375726974697a6174696f6e506f6f6c3a20506172616d73206c656e677460448201527f6820617265206e6f7420657175616c00000000000000000000000000000000006064820152608401610b9b565b60005b86811015611ab05761012d5461185c906001600160a01b031661485e565b6001600160a01b03166384933c0c89898481811061187c5761187c615c4d565b90506020020160208101906118919190615866565b6040517fffffffff0000000000000000000000000000000000000000000000000000000060e084901b1681526001600160a01b039091166004820152602401602060405180830381865afa1580156118ed573d6000803e3d6000fd5b505050506040513d601f19601f820116820180604052508101906119119190615c7c565b6119835760405162461bcd60e51b815260206004820152602960248201527f53656375726974697a6174696f6e506f6f6c3a20756e6b6e6f776e2d746f6b6560448201527f6e2d6164647265737300000000000000000000000000000000000000000000006064820152608401610b9b565b87878281811061199557611995615c4d565b90506020020160208101906119aa9190615866565b6001600160a01b03166323b872dd8787848181106119ca576119ca615c4d565b90506020020160208101906119df9190615866565b308787868181106119f2576119f2615c4d565b6040517fffffffff0000000000000000000000000000000000000000000000000000000060e088901b1681526001600160a01b039586166004820152949093166024850152506020909102013560448201526064016020604051808303816000875af1158015611a66573d6000803e3d6000fd5b505050506040513d601f19601f82011682018060405250810190611a8a9190615c7c565b50611aa0888883818110610f6b57610f6b615c4d565b611aa981615ce6565b905061183e565b50506001606555505050505050565b600082815260c96020526040902060010154611adb8133614916565b611ae583836149b4565b505050565b60335460ff1615611b3d5760405162461bcd60e51b815260206004820152601060248201527f5061757361626c653a20706175736564000000000000000000000000000000006044820152606401610b9b565b61012d54611b53906001600160a01b03166149d6565b6001600160a01b0316336001600160a01b031614611bd95760405162461bcd60e51b815260206004820152602d60248201527f53656375726974697a6174696f6e506f6f6c3a204f6e6c79204469737472696260448201527f7574696f6e4f70657261746f72000000000000000000000000000000000000006064820152608401610b9b565b6001600160a01b0380851660009081526101376020908152604080832093871683529290522054611c0b908390615d36565b6001600160a01b038086166000818152610137602090815260408083209489168084529482528083209590955591815261013882528381209281529190522054611c56908290615d36565b6001600160a01b038086166000908152610138602090815260408083209388168352929052205561013554611c8c908390615d36565b610135556001600160a01b03841660009081526101366020526040902054611cb5908290615d36565b6001600160a01b0390941660009081526101366020526040902093909355505050565b6001600160a01b0381163314611d565760405162461bcd60e51b815260206004820152602f60248201527f416363657373436f6e74726f6c3a2063616e206f6e6c792072656e6f756e636560448201527f20726f6c657320666f722073656c6600000000000000000000000000000000006064820152608401610b9b565b611d6082826149e3565b5050565b60335460ff1615611db75760405162461bcd60e51b815260206004820152601060248201527f5061757361626c653a20706175736564000000000000000000000000000000006044820152606401610b9b565b600260655403611e095760405162461bcd60e51b815260206004820152601f60248201527f5265656e7472616e637947756172643a207265656e7472616e742063616c6c006044820152606401610b9b565b60026065557f59abfac6520ec36a6556b2a4dd949cc40007459bcd5cd2507f1e5cc77b6bc97e611e398133614916565b60005b82811015611eff57856001600160a01b03166342842e0e8630878786818110611e6757611e67615c4d565b6040517fffffffff0000000000000000000000000000000000000000000000000000000060e088901b1681526001600160a01b03958616600482015294909316602485015250602090910201356044820152606401600060405180830381600087803b158015611ed657600080fd5b505af1158015611eea573d6000803e3d6000fd5b5050505080611ef890615ce6565b9050611e3c565b5050600160655550505050565b60335460ff1615611f5f5760405162461bcd60e51b815260206004820152601060248201527f5061757361626c653a20706175736564000000000000000000000000000000006044820152606401610b9b565b600260655403611fb15760405162461bcd60e51b815260206004820152601f60248201527f5265656e7472616e637947756172643a207265656e7472616e742063616c6c006044820152606401610b9b565b60026065557fb19546dff01e856fb3f010c267a7b1c60363cf8a4664e21cc89c26224620214e611fe18133614916565b8584146120565760405162461bcd60e51b815260206004820152603760248201527f746f6b656e416464726573736573206c656e67746820616e6420746f6b656e4960448201527f6473206c656e67746820617265206e6f7420657175616c0000000000000000006064820152608401610b9b565b8582146120cb5760405162461bcd60e51b815260206004820152603960248201527f746f6b656e416464726573736573206c656e67746820616e642072656369706960448201527f656e7473206c656e67746820617265206e6f7420657175616c000000000000006064820152608401610b9b565b60005b86811015611ab05761014260008989848181106120ed576120ed615c4d565b90506020020160208101906121029190615866565b6001600160a01b0316815260208101919091526040016000205460ff166121915760405162461bcd60e51b815260206004820152603360248201527f53656375726974697a6174696f6e506f6f6c3a206e6f746520746f6b656e206160448201527f7373657420646f6573206e6f74206578697374000000000000000000000000006064820152608401610b9b565b8787828181106121a3576121a3615c4d565b90506020020160208101906121b89190615866565b6001600160a01b031663a9059cbb8787848181106121d8576121d8615c4d565b90506020020160208101906121ed9190615866565b8686858181106121ff576121ff615c4d565b6040517fffffffff0000000000000000000000000000000000000000000000000000000060e087901b1681526001600160a01b03909416600485015260200291909101356024830152506044016020604051808303816000875af115801561226b573d6000803e3d6000fd5b505050506040513d601f19601f8201168201806040525081019061228f9190615c7c565b5061229981615ce6565b90506120ce565b60006122ac8133614916565b6122b4614a05565b50565b60335460ff161561230a5760405162461bcd60e51b815260206004820152601060248201527f5061757361626c653a20706175736564000000000000000000000000000000006044820152606401610b9b565b60026065540361235c5760405162461bcd60e51b815260206004820152601f60248201527f5265656e7472616e637947756172643a207265656e7472616e742063616c6c006044820152606401610b9b565b600260655561012d54612377906001600160a01b0316614aa1565b6001600160a01b0316336001600160a01b0316146123fd5760405162461bcd60e51b815260206004820152602e60248201527f53656375726974697a6174696f6e506f6f6c3a204f6e6c79205365637572697460448201527f697a6174696f6e4d616e616765720000000000000000000000000000000000006064820152608401610b9b565b60026101325474010000000000000000000000000000000000000000900460ff16600381111561242f5761242f615bc2565b1415801561246d575060036101325474010000000000000000000000000000000000000000900460ff16600381111561246a5761246a615bc2565b14155b6124b95760405162461bcd60e51b815260206004820152601a60248201527f4e6f7420696e2069737375696e6720746f6b656e2073746167650000000000006044820152606401610b9b565b6001600160a01b038316158015906124d957506001600160a01b03821615155b6125255760405162461bcd60e51b815260206004820181905260248201527f53656375726974697a6174696f6e506f6f6c3a2041646472657373207a65726f6044820152606401610b9b565b600081600181111561253957612539615bc2565b0361258d5761012e80546001600160a01b038086167fffffffffffffffffffffffff0000000000000000000000000000000000000000928316179092556101308054928516929091169190911790556125d8565b61012f80546001600160a01b038086167fffffffffffffffffffffffff0000000000000000000000000000000000000000928316179092556101318054928516929091169190911790555b505061013280547fffffffffffffffffffffff00ffffffffffffffffffffffffffffffffffffffff1674010000000000000000000000000000000000000000179055506001606555565b60335460ff16156126755760405162461bcd60e51b815260206004820152601060248201527f5061757361626c653a20706175736564000000000000000000000000000000006044820152606401610b9b565b6002606554036126c75760405162461bcd60e51b815260206004820152601f60248201527f5265656e7472616e637947756172643a207265656e7472616e742063616c6c006044820152606401610b9b565b600260655561012d546126e2906001600160a01b0316614aae565b6001600160a01b0316336001600160a01b0316146127685760405162461bcd60e51b815260206004820152603660248201527f53656375726974697a6174696f6e506f6f6c3a2043616c6c6572206d7573742060448201527f626520446973747269627574696f6e5472616e636865000000000000000000006064820152608401610b9b565b80156127e2576040517f42966c68000000000000000000000000000000000000000000000000000000008152600481018290526001600160a01b038416906342966c6890602401600060405180830381600087803b1580156127c957600080fd5b505af11580156127dd573d6000803e3d6000fd5b505050505b61013254610144546040517f23b872dd0000000000000000000000000000000000000000000000000000000081526001600160a01b0391821660048201528682166024820152604481018590529116906323b872dd906064016020604051808303816000875af115801561285a573d6000803e3d6000fd5b505050506040513d601f19601f8201168201806040525081019061287e9190615c7c565b6128f05760405162461bcd60e51b815260206004820152602c60248201527f53656375726974697a6174696f6e506f6f6c3a2063757272656e63792d74726160448201527f6e736665722d6661696c656400000000000000000000000000000000000000006064820152608401610b9b565b610130546001600160a01b03808516911603612935576001600160a01b038416600090815261014360205260408120805484929061292f908490615d36565b90915550505b505060016065555050565b60335460ff16156129935760405162461bcd60e51b815260206004820152601060248201527f5061757361626c653a20706175736564000000000000000000000000000000006044820152606401610b9b565b6002606554036129e55760405162461bcd60e51b815260206004820152601f60248201527f5265656e7472616e637947756172643a207265656e7472616e742063616c6c006044820152606401610b9b565b600260655561012d54612a00906001600160a01b03166149d6565b6001600160a01b0316336001600160a01b031614612a865760405162461bcd60e51b815260206004820152602d60248201527f53656375726974697a6174696f6e506f6f6c3a204f6e6c79204469737472696260448201527f7574696f6e4f70657261746f72000000000000000000000000000000000000006064820152608401610b9b565b6001600160a01b0380851660009081526101376020908152604080832093871683529290522054612ab8908390615d1f565b6001600160a01b038086166000818152610137602090815260408083209489168084529482528083209590955591815261013882528381209281529190522054612b03908290615d1f565b6001600160a01b038086166000908152610138602090815260408083209388168352929052205561013554612b39908390615d1f565b6101355561013454612b4c908390615d36565b610134556001600160a01b03841660009081526101366020526040902054612b75908290615d1f565b6001600160a01b03909416600090815261013660205260409020939093555050600160655550565b6060610141805480602002602001604051908101604052809291908181526020018280548015612bf657602002820191906000526020600020905b81546001600160a01b03168152600190910190602001808311612bd8575b5050505050905090565b61013f8181548110612c1157600080fd5b60009182526020909120600290910201805460019091015463ffffffff80831693506401000000008084048216936801000000000000000081048316936c0100000000000000000000000082048416937001000000000000000000000000000000008304811693740100000000000000000000000000000000000000008404821693780100000000000000000000000000000000000000000000000081048316937c010000000000000000000000000000000000000000000000000000000090910483169281811692909104168a565b600054610100900460ff16612cfc5760005460ff1615612d00565b303b155b612d725760405162461bcd60e51b815260206004820152602e60248201527f496e697469616c697a61626c653a20636f6e747261637420697320616c72656160448201527f647920696e697469616c697a65640000000000000000000000000000000000006064820152608401610b9b565b600054610100900460ff16158015612db157600080547fffffffffffffffffffffffffffffffffffffffffffffffffffffffffffff0000166101011790555b612dba33614abb565b612e047f59abfac6520ec36a6556b2a4dd949cc40007459bcd5cd2507f1e5cc77b6bc97e7fb19546dff01e856fb3f010c267a7b1c60363cf8a4664e21cc89c26224620214e614b41565b61012d80547fffffffffffffffffffffffff00000000000000000000000000000000000000009081166001600160a01b03878116919091179092556101448054309216821790556040517f095ea7b3000000000000000000000000000000000000000000000000000000008152600481019190915260001960248201529084169063095ea7b3906044016020604051808303816000875af1158015612ead573d6000803e3d6000fd5b505050506040513d601f19601f82011682018060405250810190612ed19190615c7c565b5061012d54612ee8906001600160a01b0316614851565b61012d546001600160a01b039182169163a22cb46591612f089116614b8c565b6040517fffffffff0000000000000000000000000000000000000000000000000000000060e084901b1681526001600160a01b03909116600482015260016024820152604401600060405180830381600087803b158015612f6857600080fd5b505af1158015612f7c573d6000803e3d6000fd5b505061013280547fffffffffffffffffffffff000000000000000000000000000000000000000000166001600160a01b038716179055505061013e80547fffffffffffffffffffffffffffffffffffffffffffffffff00000000ffffffff1664010000000063ffffffff851602179055801561301b57600080547fffffffffffffffffffffffffffffffffffffffffffffffffffffffffffff00ff1690555b50505050565b610130546000906001600160a01b0316156131205761013060009054906101000a90046001600160a01b03166001600160a01b03166318160ddd6040518163ffffffff1660e01b8152600401602060405180830381865afa15801561308a573d6000803e3d6000fd5b505050506040513d601f19601f820116820180604052508101906130ae9190615c9e565b156131205760405162461bcd60e51b8152602060048201526024808201527f53656375726974697a6174696f6e506f6f6c3a20534f54207374696c6c20726560448201527f6d61696e000000000000000000000000000000000000000000000000000000006064820152608401610b9b565b610131546001600160a01b03161561321c5761013160009054906101000a90046001600160a01b03166001600160a01b03166318160ddd6040518163ffffffff1660e01b8152600401602060405180830381865afa158015613186573d6000803e3d6000fd5b505050506040513d601f19601f820116820180604052508101906131aa9190615c9e565b1561321c5760405162461bcd60e51b8152602060048201526024808201527f53656375726974697a6174696f6e506f6f6c3a204a4f54207374696c6c20726560448201527f6d61696e000000000000000000000000000000000000000000000000000000006064820152608401610b9b565b50600190565b600060036101325474010000000000000000000000000000000000000000900460ff16600381111561325657613256615bc2565b14905090565b60335460ff16156132af5760405162461bcd60e51b815260206004820152601060248201527f5061757361626c653a20706175736564000000000000000000000000000000006044820152606401610b9b565b6002606554036133015760405162461bcd60e51b815260206004820152601f60248201527f5265656e7472616e637947756172643a207265656e7472616e742063616c6c006044820152606401610b9b565b60026065557fb19546dff01e856fb3f010c267a7b1c60363cf8a4664e21cc89c26224620214e6133318133614916565b60026101325474010000000000000000000000000000000000000000900460ff16600381111561336357613363615bc2565b141580156133a1575060036101325474010000000000000000000000000000000000000000900460ff16600381111561339e5761339e615bc2565b14155b6133ed5760405162461bcd60e51b815260206004820152601a60248201527f4e6f7420696e2069737375696e6720746f6b656e2073746167650000000000006044820152606401610b9b565b61012e546001600160a01b0316156135915761012e54604080517fb3f05b9700000000000000000000000000000000000000000000000000000000815290516001600160a01b0390921691829163b3f05b979160048083019260209291908290030181865afa158015613464573d6000803e3d6000fd5b505050506040513d601f19601f820116820180604052508101906134889190615c7c565b6134fa5760405162461bcd60e51b815260206004820152602a60248201527f53656375726974697a6174696f6e506f6f6c3a2073616c65206973207374696c60448201527f6c206f6e20676f696e67000000000000000000000000000000000000000000006064820152608401610b9b565b61012e546040517fa38a52a600000000000000000000000000000000000000000000000000000000815263ffffffff8616600482015267ffffffffffffffff8089166024830152851660448201526001600160a01b039091169063a38a52a690606401600060405180830381600087803b15801561357757600080fd5b505af115801561358b573d6000803e3d6000fd5b50505050505b61012f546001600160a01b03161561368d5761012f60009054906101000a90046001600160a01b03166001600160a01b031663b3f05b976040518163ffffffff1660e01b8152600401602060405180830381865afa1580156135f7573d6000803e3d6000fd5b505050506040513d601f19601f8201168201806040525081019061361b9190615c7c565b61368d5760405162461bcd60e51b815260206004820152603160248201527f53656375726974697a6174696f6e506f6f6c3a207365636f6e642073616c652060448201527f6973207374696c6c206f6e20676f696e670000000000000000000000000000006064820152608401610b9b565b60008567ffffffffffffffff161161370c5760405162461bcd60e51b8152602060048201526024808201527f53656375726974697a6174696f6e506f6f6c3a205465726d206c656e6774682060448201527f69732030000000000000000000000000000000000000000000000000000000006064820152608401610b9b565b61013280547fffffff0000000000000000ffffffffffffffffffffffffffffffffffffffffff16750100000000000000000000000000000000000000000067ffffffffffffffff858116919091029190911790915561013380547fffffffffffffffffffffffffffffffffffffffffffffffff00000000000000001691871691909117905561013c84905561013e5463ffffffff166000036137da5761013e80547fffffffffffffffffffffffffffffffffffffffffffffffffffffffff000000001663ffffffff85161790555b505061013280547fffffffffffffffffffffff00ffffffffffffffffffffffffffffffffffffffff16740200000000000000000000000000000000000000001790555050600160655550565b60006138328133614916565b6122b4614b99565b60335460ff161561388d5760405162461bcd60e51b815260206004820152601060248201527f5061757361626c653a20706175736564000000000000000000000000000000006044820152606401610b9b565b6002606554036138df5760405162461bcd60e51b815260206004820152601f60248201527f5265656e7472616e637947756172643a207265656e7472616e742063616c6c006044820152606401610b9b565b60026065557fb19546dff01e856fb3f010c267a7b1c60363cf8a4664e21cc89c26224620214e61390f8133614916565b613917613021565b6139895760405162461bcd60e51b815260206004820152602f60248201527f53656375726974697a6174696f6e506f6f6c3a20526564656d7074696f6e206860448201527f6173206e6f742066696e697368656400000000000000000000000000000000006064820152608401610b9b565b61013254610144546040517f70a082310000000000000000000000000000000000000000000000000000000081526001600160a01b0391821660048201819052919092169182916323b872dd91869084906370a0823190602401602060405180830381865afa158015613a00573d6000803e3d6000fd5b505050506040513d601f19601f82011682018060405250810190613a249190615c9e565b6040517fffffffff0000000000000000000000000000000000000000000000000000000060e086901b1681526001600160a01b03938416600482015292909116602483015260448201526064016020604051808303816000875af1158015613a90573d6000803e3d6000fd5b505050506040513d601f19601f820116820180604052508101906129359190615c7c565b600082815260fb60205260408120613acc9083614c21565b9392505050565b60335460ff1615613b265760405162461bcd60e51b815260206004820152601060248201527f5061757361626c653a20706175736564000000000000000000000000000000006044820152606401610b9b565b600260655403613b785760405162461bcd60e51b815260206004820152601f60248201527f5265656e7472616e637947756172643a207265656e7472616e742063616c6c006044820152606401610b9b565b600260655561012d54613b93906001600160a01b0316614c2d565b6001600160a01b0316336001600160a01b031614613c195760405162461bcd60e51b815260206004820152602c60248201527f53656375726974697a6174696f6e506f6f6c3a204f6e6c79204c6f616e52657060448201527f61796d656e74526f7574657200000000000000000000000000000000000000006064820152608401610b9b565b8061013954613c289190615d36565b61013955506001606555565b60335460ff1615613c875760405162461bcd60e51b815260206004820152601060248201527f5061757361626c653a20706175736564000000000000000000000000000000006044820152606401610b9b565b600260655403613cd95760405162461bcd60e51b815260206004820152601f60248201527f5265656e7472616e637947756172643a207265656e7472616e742063616c6c006044820152606401610b9b565b60026065557fb19546dff01e856fb3f010c267a7b1c60363cf8a4664e21cc89c26224620214e613d098133614916565b858414613d7e5760405162461bcd60e51b815260206004820152603760248201527f746f6b656e416464726573736573206c656e67746820616e6420746f6b656e4960448201527f6473206c656e67746820617265206e6f7420657175616c0000000000000000006064820152608401610b9b565b858214613df35760405162461bcd60e51b815260206004820152603960248201527f746f6b656e416464726573736573206c656e67746820616e642072656369706960448201527f656e7473206c656e67746820617265206e6f7420657175616c000000000000006064820152608401610b9b565b60005b84811015611ab057613e46888883818110613e1357613e13615c4d565b9050602002016020810190613e289190615866565b878784818110613e3a57613e3a615c4d565b90506020020135614c3a565b613eb85760405162461bcd60e51b815260206004820152602860248201527f53656375726974697a6174696f6e506f6f6c3a20417373657420646f6573206e60448201527f6f742065786973740000000000000000000000000000000000000000000000006064820152608401610b9b565b878782818110613eca57613eca615c4d565b9050602002016020810190613edf9190615866565b6001600160a01b03166342842e0e30868685818110613f0057613f00615c4d565b9050602002016020810190613f159190615866565b898986818110613f2757613f27615c4d565b6040517fffffffff0000000000000000000000000000000000000000000000000000000060e088901b1681526001600160a01b03958616600482015294909316602485015250602090910201356044820152606401600060405180830381600087803b158015613f9657600080fd5b505af1158015613faa573d6000803e3d6000fd5b505050508080613fb990615ce6565b915050613df6565b60335460ff16156140145760405162461bcd60e51b815260206004820152601060248201527f5061757361626c653a20706175736564000000000000000000000000000000006044820152606401610b9b565b61012e546001600160a01b0316336001600160a01b03161461409e5760405162461bcd60e51b815260206004820152603060248201527f53656375726974697a6174696f6e506f6f6c3a204f6e6c79207467652063616e60448201527f2075706461746520696e746572657374000000000000000000000000000000006064820152608401610b9b565b61013e80547fffffffffffffffffffffffffffffffffffffffffffffffffffffffff000000001663ffffffff92909216919091179055565b600081815260fb60205260408120610ac990614ce6565b600082815260c960205260409020600101546141098133614916565b611ae583836149e3565b610141818154811061412457600080fd5b6000918252602090912001546001600160a01b0316905081565b60335460ff16156141915760405162461bcd60e51b815260206004820152601060248201527f5061757361626c653a20706175736564000000000000000000000000000000006044820152606401610b9b565b6002606554036141e35760405162461bcd60e51b815260206004820152601f60248201527f5265656e7472616e637947756172643a207265656e7472616e742063616c6c006044820152606401610b9b565b60026065556141f0613222565b156142635760405162461bcd60e51b815260206004820152602860248201527f53656375726974697a6174696f6e506f6f6c3a20506f6f6c20696e20636c6f7360448201527f65642073746174650000000000000000000000000000000000000000000000006064820152608401610b9b565b7fb19546dff01e856fb3f010c267a7b1c60363cf8a4664e21cc89c26224620214e61428e8133614916565b60005b82811015611eff576142af86858584818110613e3a57613e3a615c4d565b6143215760405162461bcd60e51b815260206004820152602860248201527f53656375726974697a6174696f6e506f6f6c3a20417373657420646f6573206e60448201527f6f742065786973740000000000000000000000000000000000000000000000006064820152608401610b9b565b856001600160a01b031663095ea7b38686868581811061434357614343615c4d565b6040517fffffffff0000000000000000000000000000000000000000000000000000000060e087901b1681526001600160a01b0390941660048501526020029190910135602483015250604401600060405180830381600087803b1580156143aa57600080fd5b505af11580156143be573d6000803e3d6000fd5b50505050856001600160a01b03166342842e0e30878787868181106143e5576143e5615c4d565b6040517fffffffff0000000000000000000000000000000000000000000000000000000060e088901b1681526001600160a01b03958616600482015294909316602485015250602090910201356044820152606401600060405180830381600087803b15801561445457600080fd5b505af1158015614468573d6000803e3d6000fd5b505050508061447690615ce6565b9050614291565b60335460ff16156144d05760405162461bcd60e51b815260206004820152601060248201527f5061757361626c653a20706175736564000000000000000000000000000000006044820152606401610b9b565b6002606554036145225760405162461bcd60e51b815260206004820152601f60248201527f5265656e7472616e637947756172643a207265656e7472616e742063616c6c006044820152606401610b9b565b600260655561452f613222565b156145a25760405162461bcd60e51b815260206004820152602860248201527f53656375726974697a6174696f6e506f6f6c3a20506f6f6c20696e20636c6f7360448201527f65642073746174650000000000000000000000000000000000000000000000006064820152608401610b9b565b7fb19546dff01e856fb3f010c267a7b1c60363cf8a4664e21cc89c26224620214e6145cd8133614916565b6001600160a01b03821660009081527f8b9c60e99117f5032802dca1150f0b5e8c20c85aaaf9b6948c204e6687095705602052604090205460ff161561461257600080fd5b610144546001600160a01b038084169116036146965760405162461bcd60e51b815260206004820152603160248201527f53656375726974697a6174696f6e506f6f6c3a2053616d65206164647265737360448201527f20776974682063757272656e7420706f740000000000000000000000000000006064820152608401610b9b565b61014480547fffffffffffffffffffffffff0000000000000000000000000000000000000000166001600160a01b03841690811790915530900361476b5761013254610144546040517f095ea7b30000000000000000000000000000000000000000000000000000000081526001600160a01b039182166004820152600019602482015291169063095ea7b3906044016020604051808303816000875af1158015614745573d6000803e3d6000fd5b505050506040513d601f19601f820116820180604052508101906147699190615c7c565b505b50506001606555565b610140818154811061478557600080fd5b6000918252602090912060029091020180546001909101546001600160a01b03909116915082565b60007fffffffff0000000000000000000000000000000000000000000000000000000082167f7965db0b000000000000000000000000000000000000000000000000000000001480610ac957507f01ffc9a7000000000000000000000000000000000000000000000000000000007fffffffff00000000000000000000000000000000000000000000000000000000831614610ac9565b6000610ac9826008614cf0565b6000610ac9826007614cf0565b6000610ac9826002614cf0565b6001600160a01b0381166000908152610142602052604090205460ff166148f15761014180546001810182556000919091527fb3926254d0163c91fc94bf08f3f8062ff5d48635dfa7dbef8168ad7d4847a7580180547fffffffffffffffffffffffff0000000000000000000000000000000000000000166001600160a01b0383161790555b6001600160a01b0316600090815261014260205260409020805460ff19166001179055565b600082815260c9602090815260408083206001600160a01b038516845290915290205460ff16611d6057614954816001600160a01b03166014614d8d565b61495f836020614d8d565b604051602001614970929190615d7a565b604080517fffffffffffffffffffffffffffffffffffffffffffffffffffffffffffffffe08184030181529082905262461bcd60e51b8252610b9b91600401615dfb565b6149be8282614fb6565b600082815260fb60205260409020611ae59082615058565b6000610ac9826004614cf0565b6149ed828261506d565b600082815260fb60205260409020611ae590826150f0565b60335460ff16614a575760405162461bcd60e51b815260206004820152601460248201527f5061757361626c653a206e6f74207061757365640000000000000000000000006044820152606401610b9b565b6033805460ff191690557f5db9ee0a495bf2e6ff9c91a7834c1ba4fdd244a5e8aa4e537bd38aeae4b073aa335b6040516001600160a01b03909116815260200160405180910390a1565b6000610ac9826000614cf0565b6000610ac9826006614cf0565b600054610100900460ff16614b385760405162461bcd60e51b815260206004820152602b60248201527f496e697469616c697a61626c653a20636f6e7472616374206973206e6f74206960448201527f6e697469616c697a696e670000000000000000000000000000000000000000006064820152608401610b9b565b6122b481615105565b600082815260c96020526040808220600101805490849055905190918391839186917fbd79b86ffe0ab8e8776151514217cd7cacd52c909f66475c3af44e129f0b00ff9190a4505050565b6000610ac982600c614cf0565b60335460ff1615614bec5760405162461bcd60e51b815260206004820152601060248201527f5061757361626c653a20706175736564000000000000000000000000000000006044820152606401610b9b565b6033805460ff191660011790557f62e78cea01bee320cd4e420270b5ea74000d11b0c9f74754ebdbfc544b05a258614a843390565b6000613acc838361520a565b6000610ac982600b614cf0565b6000805b61014054811015614cdc57836001600160a01b03166101408281548110614c6757614c67615c4d565b60009182526020909120600290910201546001600160a01b0316148015614cb25750826101408281548110614c9e57614c9e615c4d565b906000526020600020906002020160010154145b15614cca57614cc081615234565b6001915050610ac9565b80614cd481615ce6565b915050614c3e565b5060009392505050565b6000610ac9825490565b6000826001600160a01b031663bcaa0c5583601e811115614d1357614d13615bc2565b6040517fffffffff0000000000000000000000000000000000000000000000000000000060e084901b16815260ff9091166004820152602401602060405180830381865afa158015614d69573d6000803e3d6000fd5b505050506040513d601f19601f82011682018060405250810190613acc9190615e4c565b60606000614d9c836002615d00565b614da7906002615d36565b67ffffffffffffffff811115614dbf57614dbf6156ab565b6040519080825280601f01601f191660200182016040528015614de9576020820181803683370190505b5090507f300000000000000000000000000000000000000000000000000000000000000081600081518110614e2057614e20615c4d565b60200101907effffffffffffffffffffffffffffffffffffffffffffffffffffffffffffff1916908160001a9053507f780000000000000000000000000000000000000000000000000000000000000081600181518110614e8357614e83615c4d565b60200101907effffffffffffffffffffffffffffffffffffffffffffffffffffffffffffff1916908160001a9053506000614ebf846002615d00565b614eca906001615d36565b90505b6001811115614f67577f303132333435363738396162636465660000000000000000000000000000000085600f1660108110614f0b57614f0b615c4d565b1a60f81b828281518110614f2157614f21615c4d565b60200101907effffffffffffffffffffffffffffffffffffffffffffffffffffffffffffff1916908160001a90535060049490941c93614f6081615e69565b9050614ecd565b508315613acc5760405162461bcd60e51b815260206004820181905260248201527f537472696e67733a20686578206c656e67746820696e73756666696369656e746044820152606401610b9b565b600082815260c9602090815260408083206001600160a01b038516845290915290205460ff16611d6057600082815260c9602090815260408083206001600160a01b03851684529091529020805460ff191660011790556150143390565b6001600160a01b0316816001600160a01b0316837f2f8788117e7eff1d82e926ec794901d17c78024a50270940304540a733656f0d60405160405180910390a45050565b6000613acc836001600160a01b03841661531d565b600082815260c9602090815260408083206001600160a01b038516845290915290205460ff1615611d6057600082815260c9602090815260408083206001600160a01b0385168085529252808320805460ff1916905551339285917ff6391f5c32d9c69d2a47ea670b442974b53935d1edc7fd64eb21e047a839171b9190a45050565b6000613acc836001600160a01b03841661536c565b600054610100900460ff166151825760405162461bcd60e51b815260206004820152602b60248201527f496e697469616c697a61626c653a20636f6e7472616374206973206e6f74206960448201527f6e697469616c697a696e670000000000000000000000000000000000000000006064820152608401610b9b565b61518a61545f565b6151926154e8565b61519a61556c565b6001600160a01b0381166151ab5750335b6151b66000826155eb565b6151e07fb19546dff01e856fb3f010c267a7b1c60363cf8a4664e21cc89c26224620214e826155eb565b6122b47fb19546dff01e856fb3f010c267a7b1c60363cf8a4664e21cc89c26224620214e80614b41565b600082600001828154811061522157615221615c4d565b9060005260206000200154905092915050565b610140805461524590600190615d1f565b8154811061525557615255615c4d565b9060005260206000209060020201610140828154811061527757615277615c4d565b60009182526020909120825460029092020180547fffffffffffffffffffffffff0000000000000000000000000000000000000000166001600160a01b039092169190911781556001918201549101556101408054806152d9576152d9615e80565b60008281526020812060026000199093019283020180547fffffffffffffffffffffffff000000000000000000000000000000000000000016815560010155905550565b600081815260018301602052604081205461536457508154600181810184556000848152602080822090930184905584548482528286019093526040902091909155610ac9565b506000610ac9565b60008181526001830160205260408120548015615455576000615390600183615d1f565b85549091506000906153a490600190615d1f565b90508181146154095760008660000182815481106153c4576153c4615c4d565b90600052602060002001549050808760000184815481106153e7576153e7615c4d565b6000918252602080832090910192909255918252600188019052604090208390555b855486908061541a5761541a615e80565b600190038181906000526020600020016000905590558560010160008681526020019081526020016000206000905560019350505050610ac9565b6000915050610ac9565b600054610100900460ff166154dc5760405162461bcd60e51b815260206004820152602b60248201527f496e697469616c697a61626c653a20636f6e7472616374206973206e6f74206960448201527f6e697469616c697a696e670000000000000000000000000000000000000000006064820152608401610b9b565b6033805460ff19169055565b600054610100900460ff166155655760405162461bcd60e51b815260206004820152602b60248201527f496e697469616c697a61626c653a20636f6e7472616374206973206e6f74206960448201527f6e697469616c697a696e670000000000000000000000000000000000000000006064820152608401610b9b565b6001606555565b600054610100900460ff166155e95760405162461bcd60e51b815260206004820152602b60248201527f496e697469616c697a61626c653a20636f6e7472616374206973206e6f74206960448201527f6e697469616c697a696e670000000000000000000000000000000000000000006064820152608401610b9b565b565b611d6082826149b4565b50805460008255600202906000526020600020908101906122b491905b8082111561565057600081556001810180547fffffffffffffffffffffffffffffffffffffffffffffffff0000000000000000169055600201615612565b5090565b60006020828403121561566657600080fd5b81357fffffffff0000000000000000000000000000000000000000000000000000000081168114613acc57600080fd5b6001600160a01b03811681146122b457600080fd5b7f4e487b7100000000000000000000000000000000000000000000000000000000600052604160045260246000fd5b600080600080608085870312156156f057600080fd5b84356156fb81615696565b9350602085013561570b81615696565b925060408501359150606085013567ffffffffffffffff8082111561572f57600080fd5b818701915087601f83011261574357600080fd5b813581811115615755576157556156ab565b604051601f82017fffffffffffffffffffffffffffffffffffffffffffffffffffffffffffffffe0908116603f0116810190838211818310171561579b5761579b6156ab565b816040528281528a60208487010111156157b457600080fd5b82602086016020830137600060208483010152809550505050505092959194509250565b60008083601f8401126157ea57600080fd5b50813567ffffffffffffffff81111561580257600080fd5b6020830191508360208260051b850101111561581d57600080fd5b9250929050565b6000806020838503121561583757600080fd5b823567ffffffffffffffff81111561584e57600080fd5b61585a858286016157d8565b90969095509350505050565b60006020828403121561587857600080fd5b8135613acc81615696565b6000806000806000806060878903121561589c57600080fd5b863567ffffffffffffffff808211156158b457600080fd5b6158c08a838b016157d8565b909850965060208901359150808211156158d957600080fd5b6158e58a838b016157d8565b909650945060408901359150808211156158fe57600080fd5b5061590b89828a016157d8565b979a9699509497509295939492505050565b60006020828403121561592f57600080fd5b5035919050565b6000806040838503121561594957600080fd5b82359150602083013561595b81615696565b809150509250929050565b6000806000806080858703121561597c57600080fd5b843561598781615696565b9350602085013561599781615696565b93969395505050506040820135916060013590565b600080600080606085870312156159c257600080fd5b84356159cd81615696565b935060208501356159dd81615696565b9250604085013567ffffffffffffffff8111156159f957600080fd5b615a05878288016157d8565b95989497509550505050565b600080600060608486031215615a2657600080fd5b8335615a3181615696565b92506020840135615a4181615696565b9150604084013560028110615a5557600080fd5b809150509250925092565b6020808252825182820181905260009190848201906040850190845b81811015615aa15783516001600160a01b031683529284019291840191600101615a7c565b50909695505050505050565b803563ffffffff81168114615ac157600080fd5b919050565b600080600060608486031215615adb57600080fd5b8335615ae681615696565b92506020840135615af681615696565b9150615b0460408501615aad565b90509250925092565b60008060408385031215615b2057600080fd5b8235615b2b81615696565b9150602083013561595b81615696565b803567ffffffffffffffff81168114615ac157600080fd5b60008060008060808587031215615b6957600080fd5b615b7285615b3b565b935060208501359250615b8760408601615aad565b9150615b9560608601615b3b565b905092959194509250565b60008060408385031215615bb357600080fd5b50508035926020909101359150565b7f4e487b7100000000000000000000000000000000000000000000000000000000600052602160045260246000fd5b6020810160048310615c2c577f4e487b7100000000000000000000000000000000000000000000000000000000600052602160045260246000fd5b91905290565b600060208284031215615c4457600080fd5b613acc82615aad565b7f4e487b7100000000000000000000000000000000000000000000000000000000600052603260045260246000fd5b600060208284031215615c8e57600080fd5b81518015158114613acc57600080fd5b600060208284031215615cb057600080fd5b5051919050565b7f4e487b7100000000000000000000000000000000000000000000000000000000600052601160045260246000fd5b60006000198203615cf957615cf9615cb7565b5060010190565b6000816000190483118215151615615d1a57615d1a615cb7565b500290565b600082821015615d3157615d31615cb7565b500390565b60008219821115615d4957615d49615cb7565b500190565b60005b83811015615d69578181015183820152602001615d51565b8381111561301b5750506000910152565b7f416363657373436f6e74726f6c3a206163636f756e7420000000000000000000815260008351615db2816017850160208801615d4e565b7f206973206d697373696e6720726f6c65200000000000000000000000000000006017918401918201528351615def816028840160208801615d4e565b01602801949350505050565b6020815260008251806020840152615e1a816040850160208701615d4e565b601f017fffffffffffffffffffffffffffffffffffffffffffffffffffffffffffffffe0169190910160400192915050565b600060208284031215615e5e57600080fd5b8151613acc81615696565b600081615e7857615e78615cb7565b506000190190565b7f4e487b7100000000000000000000000000000000000000000000000000000000600052603160045260246000fdfea2646970667358221220bbf16e26cdfd5b3645ef19552aaa81eb73dc3d8e367537d7e9b72c5f1f4c57a164736f6c634300080d0033"
}