{
  "address": "0xca9C349Ba3826CE8b65AA66c492E5B5E51d98528",
  "abi": [
    {
      "anonymous": false,
      "inputs": [
        {
          "indexed": true,
          "internalType": "uint256",
          "name": "loan",
          "type": "uint256"
        },
        {
          "indexed": false,
          "internalType": "uint256",
          "name": "principalAmount",
          "type": "uint256"
        },
        {
          "indexed": false,
          "internalType": "uint256",
          "name": "maturityDate",
          "type": "uint256"
        }
      ],
      "name": "AddLoan",
      "type": "event"
    },
    {
      "anonymous": false,
      "inputs": [
        {
          "indexed": true,
          "internalType": "uint256",
          "name": "loan",
          "type": "uint256"
        },
        {
          "indexed": false,
          "internalType": "uint256",
          "name": "newRate",
          "type": "uint256"
        }
      ],
      "name": "ChangeRate",
      "type": "event"
    },
    {
      "anonymous": false,
      "inputs": [
        {
          "indexed": true,
          "internalType": "uint256",
          "name": "loan",
          "type": "uint256"
        },
        {
          "indexed": false,
          "internalType": "uint256",
          "name": "currencyAmount",
          "type": "uint256"
        }
      ],
      "name": "DecreaseDebt",
      "type": "event"
    },
    {
      "anonymous": false,
      "inputs": [
        {
          "indexed": true,
          "internalType": "bytes32",
          "name": "what",
          "type": "bytes32"
        },
        {
          "indexed": false,
          "internalType": "uint256",
          "name": "rate",
          "type": "uint256"
        },
        {
          "indexed": false,
          "internalType": "uint256",
          "name": "value",
          "type": "uint256"
        }
      ],
      "name": "File",
      "type": "event"
    },
    {
      "anonymous": false,
      "inputs": [
        {
          "indexed": true,
          "internalType": "uint256",
          "name": "loan",
          "type": "uint256"
        },
        {
          "indexed": false,
          "internalType": "uint256",
          "name": "currencyAmount",
          "type": "uint256"
        }
      ],
      "name": "IncreaseDebt",
      "type": "event"
    },
    {
      "anonymous": false,
      "inputs": [
        {
          "indexed": false,
          "internalType": "uint8",
          "name": "version",
          "type": "uint8"
        }
      ],
      "name": "Initialized",
      "type": "event"
    },
    {
      "anonymous": false,
      "inputs": [
        {
          "indexed": false,
          "internalType": "address",
          "name": "account",
          "type": "address"
        }
      ],
      "name": "Paused",
      "type": "event"
    },
    {
      "anonymous": false,
      "inputs": [
        {
          "indexed": true,
          "internalType": "uint256",
          "name": "loan",
          "type": "uint256"
        },
        {
          "indexed": false,
          "internalType": "uint256",
          "name": "currencyAmount",
          "type": "uint256"
        }
      ],
      "name": "Repay",
      "type": "event"
    },
    {
      "anonymous": false,
      "inputs": [
        {
          "indexed": true,
          "internalType": "bytes32",
          "name": "role",
          "type": "bytes32"
        },
        {
          "indexed": true,
          "internalType": "address",
          "name": "account",
          "type": "address"
        },
        {
          "indexed": true,
          "internalType": "address",
          "name": "sender",
          "type": "address"
        }
      ],
      "name": "RoleGranted",
      "type": "event"
    },
    {
      "anonymous": false,
      "inputs": [
        {
          "indexed": true,
          "internalType": "bytes32",
          "name": "role",
          "type": "bytes32"
        },
        {
          "indexed": true,
          "internalType": "address",
          "name": "account",
          "type": "address"
        },
        {
          "indexed": true,
          "internalType": "address",
          "name": "sender",
          "type": "address"
        }
      ],
      "name": "RoleRevoked",
      "type": "event"
    },
    {
      "anonymous": false,
      "inputs": [
        {
          "indexed": true,
          "internalType": "uint256",
          "name": "loan",
          "type": "uint256"
        },
        {
          "indexed": false,
          "internalType": "uint256",
          "name": "maturityDate_",
          "type": "uint256"
        }
      ],
      "name": "SetLoanMaturity",
      "type": "event"
    },
    {
      "anonymous": false,
      "inputs": [
        {
          "indexed": true,
          "internalType": "uint256",
          "name": "loan",
          "type": "uint256"
        },
        {
          "indexed": false,
          "internalType": "uint256",
          "name": "rate",
          "type": "uint256"
        }
      ],
      "name": "SetRate",
      "type": "event"
    },
    {
      "anonymous": false,
      "inputs": [
        {
          "indexed": false,
          "internalType": "address",
          "name": "account",
          "type": "address"
        }
      ],
      "name": "Unpaused",
      "type": "event"
    },
    {
      "anonymous": false,
      "inputs": [
        {
          "indexed": false,
          "internalType": "uint256",
          "name": "loan",
          "type": "uint256"
        },
        {
          "indexed": false,
          "internalType": "uint256",
          "name": "risk",
          "type": "uint256"
        }
      ],
      "name": "UpdateAssetRiskScore",
      "type": "event"
    },
    {
      "anonymous": false,
      "inputs": [
        {
          "indexed": false,
          "internalType": "uint256",
          "name": "newTimestamp",
          "type": "uint256"
        }
      ],
      "name": "UpdateOpeningBlockTimestamp",
      "type": "event"
    },
    {
      "anonymous": false,
      "inputs": [
        {
          "indexed": false,
          "internalType": "address",
          "name": "registry",
          "type": "address"
        }
      ],
      "name": "UpdateRegistry",
      "type": "event"
    },
    {
      "anonymous": false,
      "inputs": [
        {
          "indexed": true,
          "internalType": "uint256",
          "name": "loan",
          "type": "uint256"
        },
        {
          "indexed": true,
          "internalType": "uint256",
          "name": "writeOffGroupsIndex",
          "type": "uint256"
        },
        {
          "indexed": false,
          "internalType": "bool",
          "name": "override_",
          "type": "bool"
        }
      ],
      "name": "WriteOff",
      "type": "event"
    },
    {
      "inputs": [
        {
          "internalType": "uint256",
          "name": "loan",
          "type": "uint256"
        },
        {
          "components": [
            {
              "internalType": "address",
              "name": "debtor",
              "type": "address"
            },
            {
              "internalType": "address",
              "name": "principalTokenAddress",
              "type": "address"
            },
            {
              "internalType": "bytes32",
              "name": "termsParam",
              "type": "bytes32"
            },
            {
              "internalType": "uint256",
              "name": "salt",
              "type": "uint256"
            },
            {
              "internalType": "uint256",
              "name": "issuanceBlockTimestamp",
              "type": "uint256"
            },
            {
              "internalType": "uint256",
              "name": "expirationTimestamp",
              "type": "uint256"
            },
            {
              "internalType": "uint8",
              "name": "riskScore",
              "type": "uint8"
            },
            {
              "internalType": "enum Configuration.ASSET_PURPOSE",
              "name": "assetPurpose",
              "type": "uint8"
            }
          ],
          "internalType": "struct LoanEntry",
          "name": "loanEntry",
          "type": "tuple"
        }
      ],
      "name": "addLoan",
      "outputs": [
        {
          "internalType": "uint256",
          "name": "",
          "type": "uint256"
        }
      ],
      "stateMutability": "nonpayable",
      "type": "function"
    },
    {
      "inputs": [
        {
          "internalType": "uint256",
          "name": "loan",
          "type": "uint256"
        }
      ],
      "name": "borrowed",
      "outputs": [
        {
          "internalType": "uint256",
          "name": "borrowed_",
          "type": "uint256"
        }
      ],
      "stateMutability": "view",
      "type": "function"
    },
    {
      "inputs": [
        {
          "internalType": "uint256",
          "name": "discountRate",
          "type": "uint256"
        },
        {
          "internalType": "uint256",
          "name": "fv",
          "type": "uint256"
        },
        {
          "internalType": "uint256",
          "name": "normalizedBlockTimestamp",
          "type": "uint256"
        },
        {
          "internalType": "uint256",
          "name": "maturityDate",
          "type": "uint256"
        }
      ],
      "name": "calcDiscount",
      "outputs": [
        {
          "internalType": "uint256",
          "name": "result",
          "type": "uint256"
        }
      ],
      "stateMutability": "pure",
      "type": "function"
    },
    {
      "inputs": [
        {
          "internalType": "uint256",
          "name": "loanInterestRate",
          "type": "uint256"
        },
        {
          "internalType": "uint256",
          "name": "amount",
          "type": "uint256"
        },
        {
          "internalType": "uint256",
          "name": "maturityDate",
          "type": "uint256"
        },
        {
          "internalType": "uint256",
          "name": "recoveryRatePD",
          "type": "uint256"
        }
      ],
      "name": "calcFutureValue",
      "outputs": [
        {
          "internalType": "uint256",
          "name": "fv",
          "type": "uint256"
        }
      ],
      "stateMutability": "view",
      "type": "function"
    },
    {
      "inputs": [],
      "name": "calcUpdateNAV",
      "outputs": [
        {
          "internalType": "uint256",
          "name": "nav_",
          "type": "uint256"
        }
      ],
      "stateMutability": "nonpayable",
      "type": "function"
    },
    {
      "inputs": [
        {
          "internalType": "uint256",
          "name": "interestBearingAmount",
          "type": "uint256"
        },
        {
          "internalType": "uint256",
          "name": "ratePerSecond",
          "type": "uint256"
        },
        {
          "internalType": "uint256",
          "name": "lastUpdated",
          "type": "uint256"
        }
      ],
      "name": "chargeInterest",
      "outputs": [
        {
          "internalType": "uint256",
          "name": "",
          "type": "uint256"
        }
      ],
      "stateMutability": "view",
      "type": "function"
    },
    {
      "inputs": [
        {
          "internalType": "uint256",
          "name": "chi",
          "type": "uint256"
        },
        {
          "internalType": "uint256",
          "name": "ratePerSecond",
          "type": "uint256"
        },
        {
          "internalType": "uint256",
          "name": "lastUpdated",
          "type": "uint256"
        },
        {
          "internalType": "uint256",
          "name": "_pie",
          "type": "uint256"
        }
      ],
      "name": "compounding",
      "outputs": [
        {
          "internalType": "uint256",
          "name": "",
          "type": "uint256"
        },
        {
          "internalType": "uint256",
          "name": "",
          "type": "uint256"
        }
      ],
      "stateMutability": "view",
      "type": "function"
    },
    {
      "inputs": [
        {
          "internalType": "bytes32",
          "name": "tokenId",
          "type": "bytes32"
        }
      ],
      "name": "currentAV",
      "outputs": [
        {
          "internalType": "uint256",
          "name": "totalDiscount",
          "type": "uint256"
        },
        {
          "internalType": "uint256",
          "name": "overdue",
          "type": "uint256"
        },
        {
          "internalType": "uint256",
          "name": "writeOffs",
          "type": "uint256"
        }
      ],
      "stateMutability": "view",
      "type": "function"
    },
    {
      "inputs": [],
      "name": "currentNAV",
      "outputs": [
        {
          "internalType": "uint256",
          "name": "nav_",
          "type": "uint256"
        }
      ],
      "stateMutability": "view",
      "type": "function"
    },
    {
      "inputs": [
        {
          "internalType": "bytes32",
          "name": "tokenId",
          "type": "bytes32"
        }
      ],
      "name": "currentNAVAsset",
      "outputs": [
        {
          "internalType": "uint256",
          "name": "",
          "type": "uint256"
        }
      ],
      "stateMutability": "view",
      "type": "function"
    },
    {
      "inputs": [],
      "name": "currentPVs",
      "outputs": [
        {
          "internalType": "uint256",
          "name": "totalDiscount",
          "type": "uint256"
        },
        {
          "internalType": "uint256",
          "name": "overdue",
          "type": "uint256"
        },
        {
          "internalType": "uint256",
          "name": "writeOffs",
          "type": "uint256"
        }
      ],
      "stateMutability": "view",
      "type": "function"
    },
    {
      "inputs": [
        {
          "internalType": "uint256",
          "name": "loan",
          "type": "uint256"
        }
      ],
      "name": "currentValidWriteOffGroup",
      "outputs": [
        {
          "internalType": "uint256",
          "name": "writeOffGroup_",
          "type": "uint256"
        }
      ],
      "stateMutability": "view",
      "type": "function"
    },
    {
      "inputs": [
        {
          "internalType": "bytes32",
          "name": "tokenId",
          "type": "bytes32"
        }
      ],
      "name": "currentWriteOffAsset",
      "outputs": [
        {
          "internalType": "uint256",
          "name": "",
          "type": "uint256"
        }
      ],
      "stateMutability": "view",
      "type": "function"
    },
    {
      "inputs": [],
      "name": "currentWriteOffs",
      "outputs": [
        {
          "internalType": "uint256",
          "name": "sum",
          "type": "uint256"
        }
      ],
      "stateMutability": "view",
      "type": "function"
    },
    {
      "inputs": [
        {
          "internalType": "uint256",
          "name": "loan",
          "type": "uint256"
        }
      ],
      "name": "debt",
      "outputs": [
        {
          "internalType": "uint256",
          "name": "loanDebt",
          "type": "uint256"
        }
      ],
      "stateMutability": "view",
      "type": "function"
    },
    {
      "inputs": [],
      "name": "discountRate",
      "outputs": [
        {
          "internalType": "uint256",
          "name": "",
          "type": "uint256"
        }
      ],
      "stateMutability": "view",
      "type": "function"
    },
    {
      "inputs": [
        {
          "internalType": "bytes32",
          "name": "name",
          "type": "bytes32"
        },
        {
          "internalType": "uint256",
          "name": "value",
          "type": "uint256"
        }
      ],
      "name": "file",
      "outputs": [],
      "stateMutability": "nonpayable",
      "type": "function"
    },
    {
      "inputs": [
        {
          "internalType": "bytes32",
          "name": "name",
          "type": "bytes32"
        },
        {
          "internalType": "uint256",
          "name": "rate_",
          "type": "uint256"
        },
        {
          "internalType": "uint256",
          "name": "writeOffPercentage_",
          "type": "uint256"
        },
        {
          "internalType": "uint256",
          "name": "overdueDays_",
          "type": "uint256"
        },
        {
          "internalType": "uint256",
          "name": "penaltyRate_",
          "type": "uint256"
        },
        {
          "internalType": "uint256",
          "name": "riskIndex",
          "type": "uint256"
        }
      ],
      "name": "file",
      "outputs": [],
      "stateMutability": "nonpayable",
      "type": "function"
    },
    {
      "inputs": [
        {
          "internalType": "bytes32",
          "name": "nft_",
          "type": "bytes32"
        }
      ],
      "name": "futureValue",
      "outputs": [
        {
          "internalType": "uint256",
          "name": "fv_",
          "type": "uint256"
        }
      ],
      "stateMutability": "view",
      "type": "function"
    },
    {
      "inputs": [
        {
          "internalType": "bytes32",
          "name": "agreementId",
          "type": "bytes32"
        }
      ],
      "name": "getAsset",
      "outputs": [
        {
          "components": [
            {
              "internalType": "uint128",
              "name": "futureValue",
              "type": "uint128"
            },
            {
              "internalType": "uint128",
              "name": "maturityDate",
              "type": "uint128"
            },
            {
              "internalType": "uint128",
              "name": "risk",
              "type": "uint128"
            },
            {
              "internalType": "address",
              "name": "debtor",
              "type": "address"
            },
            {
              "internalType": "address",
              "name": "principalTokenAddress",
              "type": "address"
            },
            {
              "internalType": "uint256",
              "name": "salt",
              "type": "uint256"
            },
            {
              "internalType": "uint256",
              "name": "issuanceBlockTimestamp",
              "type": "uint256"
            },
            {
              "internalType": "uint256",
              "name": "expirationTimestamp",
              "type": "uint256"
            },
            {
              "internalType": "enum Configuration.ASSET_PURPOSE",
              "name": "assetPurpose",
              "type": "uint8"
            },
            {
              "internalType": "bytes32",
              "name": "termsParam",
              "type": "bytes32"
            },
            {
              "internalType": "uint256",
              "name": "principalAmount",
              "type": "uint256"
            },
            {
              "internalType": "uint256",
              "name": "termStartUnixTimestamp",
              "type": "uint256"
            },
            {
              "internalType": "uint256",
              "name": "termEndUnixTimestamp",
              "type": "uint256"
            },
            {
              "internalType": "enum UnpackLoanParamtersLib.AmortizationUnitType",
              "name": "amortizationUnitType",
              "type": "uint8"
            },
            {
              "internalType": "uint256",
              "name": "termLengthInAmortizationUnits",
              "type": "uint256"
            },
            {
              "internalType": "uint256",
              "name": "interestRate",
              "type": "uint256"
            }
          ],
          "internalType": "struct ISecuritizationPoolStorage.NFTDetails",
          "name": "",
          "type": "tuple"
        }
      ],
      "stateMutability": "view",
      "type": "function"
    },
    {
      "inputs": [],
      "name": "getFunctionSignatures",
      "outputs": [
        {
          "internalType": "bytes4[]",
          "name": "",
          "type": "bytes4[]"
        }
      ],
      "stateMutability": "view",
      "type": "function"
    },
    {
      "inputs": [
        {
          "internalType": "bytes32",
          "name": "role",
          "type": "bytes32"
        },
        {
          "internalType": "address",
          "name": "account",
          "type": "address"
        }
      ],
      "name": "grantRole",
      "outputs": [],
      "stateMutability": "nonpayable",
      "type": "function"
    },
    {
      "inputs": [
        {
          "internalType": "bytes32",
          "name": "role",
          "type": "bytes32"
        },
        {
          "internalType": "address",
          "name": "account",
          "type": "address"
        }
      ],
      "name": "hasRole",
      "outputs": [
        {
          "internalType": "bool",
          "name": "",
          "type": "bool"
        }
      ],
      "stateMutability": "view",
      "type": "function"
    },
    {
      "inputs": [
        {
          "internalType": "bytes",
          "name": "params",
          "type": "bytes"
        }
      ],
      "name": "installExtension",
      "outputs": [],
      "stateMutability": "nonpayable",
      "type": "function"
    },
    {
      "inputs": [],
      "name": "isClosedState",
      "outputs": [
        {
          "internalType": "bool",
          "name": "",
          "type": "bool"
        }
      ],
      "stateMutability": "view",
      "type": "function"
    },
    {
      "inputs": [
        {
          "internalType": "uint256",
          "name": "loan",
          "type": "uint256"
        }
      ],
      "name": "isLoanWrittenOff",
      "outputs": [
        {
          "internalType": "bool",
          "name": "",
          "type": "bool"
        }
      ],
      "stateMutability": "view",
      "type": "function"
    },
    {
      "inputs": [
        {
          "internalType": "address",
          "name": "account",
          "type": "address"
        }
      ],
      "name": "isOwner",
      "outputs": [
        {
          "internalType": "bool",
          "name": "",
          "type": "bool"
        }
      ],
      "stateMutability": "view",
      "type": "function"
    },
    {
      "inputs": [
        {
          "internalType": "bytes32",
          "name": "nft_",
          "type": "bytes32"
        }
      ],
      "name": "maturityDate",
      "outputs": [
        {
          "internalType": "uint256",
          "name": "maturityDate_",
          "type": "uint256"
        }
      ],
      "stateMutability": "view",
      "type": "function"
    },
    {
      "inputs": [
        {
          "internalType": "uint256",
          "name": "loan",
          "type": "uint256"
        }
      ],
      "name": "nftID",
      "outputs": [
        {
          "internalType": "bytes32",
          "name": "nftID_",
          "type": "bytes32"
        }
      ],
      "stateMutability": "pure",
      "type": "function"
    },
    {
      "inputs": [],
      "name": "openingBlockTimestamp",
      "outputs": [
        {
          "internalType": "uint64",
          "name": "",
          "type": "uint64"
        }
      ],
      "stateMutability": "view",
      "type": "function"
    },
    {
      "inputs": [],
      "name": "paused",
      "outputs": [
        {
          "internalType": "bool",
          "name": "",
          "type": "bool"
        }
      ],
      "stateMutability": "view",
      "type": "function"
    },
    {
      "inputs": [],
      "name": "pot",
      "outputs": [
        {
          "internalType": "address",
          "name": "",
          "type": "address"
        }
      ],
      "stateMutability": "view",
      "type": "function"
    },
    {
      "inputs": [
        {
          "internalType": "uint256",
          "name": "rate",
          "type": "uint256"
        }
      ],
      "name": "rateDebt",
      "outputs": [
        {
          "internalType": "uint256",
          "name": "totalDebt",
          "type": "uint256"
        }
      ],
      "stateMutability": "view",
      "type": "function"
    },
    {
      "inputs": [
        {
          "internalType": "uint256",
          "name": "x",
          "type": "uint256"
        },
        {
          "internalType": "uint256",
          "name": "y",
          "type": "uint256"
        }
      ],
      "name": "rdiv",
      "outputs": [
        {
          "internalType": "uint256",
          "name": "z",
          "type": "uint256"
        }
      ],
      "stateMutability": "pure",
      "type": "function"
    },
    {
      "inputs": [],
      "name": "reCalcNAV",
      "outputs": [
        {
          "internalType": "uint256",
          "name": "nav_",
          "type": "uint256"
        }
      ],
      "stateMutability": "nonpayable",
      "type": "function"
    },
    {
      "inputs": [
        {
          "internalType": "uint256",
          "name": "riskID",
          "type": "uint256"
        },
        {
          "internalType": "uint256",
          "name": "termLength",
          "type": "uint256"
        }
      ],
      "name": "recoveryRatePD",
      "outputs": [
        {
          "internalType": "uint256",
          "name": "recoveryRatePD_",
          "type": "uint256"
        }
      ],
      "stateMutability": "view",
      "type": "function"
    },
    {
      "inputs": [],
      "name": "registry",
      "outputs": [
        {
          "internalType": "contract Registry",
          "name": "",
          "type": "address"
        }
      ],
      "stateMutability": "view",
      "type": "function"
    },
    {
      "inputs": [
        {
          "internalType": "bytes32",
          "name": "role",
          "type": "bytes32"
        },
        {
          "internalType": "address",
          "name": "account",
          "type": "address"
        }
      ],
      "name": "renounceRole",
      "outputs": [],
      "stateMutability": "nonpayable",
      "type": "function"
    },
    {
      "inputs": [
        {
          "internalType": "uint256",
          "name": "loan",
          "type": "uint256"
        },
        {
          "internalType": "uint256",
          "name": "amount",
          "type": "uint256"
        }
      ],
      "name": "repayLoan",
      "outputs": [
        {
          "internalType": "uint256",
          "name": "",
          "type": "uint256"
        }
      ],
      "stateMutability": "nonpayable",
      "type": "function"
    },
    {
      "inputs": [
        {
          "internalType": "bytes32",
          "name": "role",
          "type": "bytes32"
        },
        {
          "internalType": "address",
          "name": "account",
          "type": "address"
        }
      ],
      "name": "revokeRole",
      "outputs": [],
      "stateMutability": "nonpayable",
      "type": "function"
    },
    {
      "inputs": [
        {
          "internalType": "bytes32",
          "name": "nft_",
          "type": "bytes32"
        }
      ],
      "name": "risk",
      "outputs": [
        {
          "internalType": "uint256",
          "name": "risk_",
          "type": "uint256"
        }
      ],
      "stateMutability": "view",
      "type": "function"
    },
    {
      "inputs": [
        {
          "internalType": "uint256",
          "name": "x",
          "type": "uint256"
        },
        {
          "internalType": "uint256",
          "name": "y",
          "type": "uint256"
        }
      ],
      "name": "rmul",
      "outputs": [
        {
          "internalType": "uint256",
          "name": "z",
          "type": "uint256"
        }
      ],
      "stateMutability": "pure",
      "type": "function"
    },
    {
      "inputs": [
        {
          "internalType": "uint256",
          "name": "x",
          "type": "uint256"
        },
        {
          "internalType": "uint256",
          "name": "n",
          "type": "uint256"
        },
        {
          "internalType": "uint256",
          "name": "base",
          "type": "uint256"
        }
      ],
      "name": "rpow",
      "outputs": [
        {
          "internalType": "uint256",
          "name": "z",
          "type": "uint256"
        }
      ],
      "stateMutability": "pure",
      "type": "function"
    },
    {
      "inputs": [
        {
          "internalType": "uint256",
          "name": "x",
          "type": "uint256"
        },
        {
          "internalType": "uint256",
          "name": "y",
          "type": "uint256"
        }
      ],
      "name": "safeAdd",
      "outputs": [
        {
          "internalType": "uint256",
          "name": "z",
          "type": "uint256"
        }
      ],
      "stateMutability": "pure",
      "type": "function"
    },
    {
      "inputs": [
        {
          "internalType": "uint256",
          "name": "x",
          "type": "uint256"
        },
        {
          "internalType": "uint256",
          "name": "y",
          "type": "uint256"
        }
      ],
      "name": "safeDiv",
      "outputs": [
        {
          "internalType": "uint256",
          "name": "z",
          "type": "uint256"
        }
      ],
      "stateMutability": "pure",
      "type": "function"
    },
    {
      "inputs": [
        {
          "internalType": "uint256",
          "name": "x",
          "type": "uint256"
        },
        {
          "internalType": "uint256",
          "name": "y",
          "type": "uint256"
        }
      ],
      "name": "safeMul",
      "outputs": [
        {
          "internalType": "uint256",
          "name": "z",
          "type": "uint256"
        }
      ],
      "stateMutability": "pure",
      "type": "function"
    },
    {
      "inputs": [
        {
          "internalType": "uint256",
          "name": "x",
          "type": "uint256"
        },
        {
          "internalType": "uint256",
          "name": "y",
          "type": "uint256"
        }
      ],
      "name": "safeSub",
      "outputs": [
        {
          "internalType": "uint256",
          "name": "z",
          "type": "uint256"
        }
      ],
      "stateMutability": "pure",
      "type": "function"
    },
    {
      "inputs": [],
      "name": "secondTGEAddress",
      "outputs": [
        {
          "internalType": "address",
          "name": "",
          "type": "address"
        }
      ],
      "stateMutability": "view",
      "type": "function"
    },
    {
      "inputs": [
        {
          "internalType": "uint256",
          "name": "x",
          "type": "uint256"
        },
        {
          "internalType": "uint256",
          "name": "y",
          "type": "uint256"
        }
      ],
      "name": "secureSub",
      "outputs": [
        {
          "internalType": "uint256",
          "name": "result",
          "type": "uint256"
        }
      ],
      "stateMutability": "pure",
      "type": "function"
    },
    {
      "inputs": [],
      "name": "state",
      "outputs": [
        {
          "internalType": "enum ISecuritizationPoolStorage.CycleState",
          "name": "",
          "type": "uint8"
        }
      ],
      "stateMutability": "view",
      "type": "function"
    },
    {
      "inputs": [
        {
          "internalType": "bytes4",
          "name": "interfaceId",
          "type": "bytes4"
        }
      ],
      "name": "supportsInterface",
      "outputs": [
        {
          "internalType": "bool",
          "name": "",
          "type": "bool"
        }
      ],
      "stateMutability": "view",
      "type": "function"
    },
    {
      "inputs": [],
      "name": "tgeAddress",
      "outputs": [
        {
          "internalType": "address",
          "name": "",
          "type": "address"
        }
      ],
      "stateMutability": "view",
      "type": "function"
    },
    {
      "inputs": [
        {
          "internalType": "uint256",
          "name": "chi",
          "type": "uint256"
        },
        {
          "internalType": "uint256",
          "name": "_pie",
          "type": "uint256"
        }
      ],
      "name": "toAmount",
      "outputs": [
        {
          "internalType": "uint256",
          "name": "",
          "type": "uint256"
        }
      ],
      "stateMutability": "pure",
      "type": "function"
    },
    {
      "inputs": [
        {
          "internalType": "uint256",
          "name": "chi",
          "type": "uint256"
        },
        {
          "internalType": "uint256",
          "name": "amount",
          "type": "uint256"
        }
      ],
      "name": "toPie",
      "outputs": [
        {
          "internalType": "uint256",
          "name": "",
          "type": "uint256"
        }
      ],
      "stateMutability": "pure",
      "type": "function"
    },
    {
      "inputs": [
        {
          "internalType": "uint256",
          "name": "timestamp",
          "type": "uint256"
        }
      ],
      "name": "uniqueDayTimestamp",
      "outputs": [
        {
          "internalType": "uint256",
          "name": "nTimestamp",
          "type": "uint256"
        }
      ],
      "stateMutability": "pure",
      "type": "function"
    },
    {
      "inputs": [
        {
          "internalType": "bytes32",
          "name": "nftID_",
          "type": "bytes32"
        },
        {
          "internalType": "uint256",
          "name": "risk_",
          "type": "uint256"
        }
      ],
      "name": "updateAssetRiskScore",
      "outputs": [],
      "stateMutability": "nonpayable",
      "type": "function"
    },
    {
      "inputs": [],
      "name": "validatorRequired",
      "outputs": [
        {
          "internalType": "bool",
          "name": "",
          "type": "bool"
        }
      ],
      "stateMutability": "view",
      "type": "function"
    },
    {
      "inputs": [
        {
          "internalType": "uint256",
          "name": "loan",
          "type": "uint256"
        }
      ],
      "name": "writeOff",
      "outputs": [],
      "stateMutability": "nonpayable",
      "type": "function"
    }
  ],
  "transactionHash": "0xafa9c5286426e45c8d85f3ce03e8fac5f4306241f0a5e6c923a58a85f1036401",
  "args": [],
  "numDeployments": 2,
  "solcInputHash": "7aa4c6df88a01918f222693072eabc76",
  "bytecode": "0x608060405234801561001057600080fd5b506150ec806100206000396000f3fe608060405234801561001057600080fd5b506004361061038e5760003560e01c806367457022116101de578063b5931f7c1161010f578063e1739bea116100ad578063e6c0e6d51161007c578063e6c0e6d5146107bd578063e6cb9013146107c5578063e96bd8c8146107d8578063f5189ee3146107eb57600080fd5b8063e1739bea14610767578063e3178bc41461076f578063e3adb7f014610782578063e4064a771461079557600080fd5b8063c19d93fb116100e9578063c19d93fb14610719578063c1cf0e051461072e578063d05c78da14610741578063d547741f1461075457600080fd5b8063b5931f7c146106e0578063b5a0022c146106f3578063b6f133ff1461070657600080fd5b80638a700b531161017c5780639e1aaae6116101565780639e1aaae614610692578063a293d1e8146106a5578063b09df36a146106b8578063b4c6bcd1146106cd57600080fd5b80638a700b531461065957806391d148541461066c5780639b3e22911461067f57600080fd5b80637b103999116101b85780637b103999146106135780637b2a7a591461061b57806386c1762a1461062357806386d9f8a81461063657600080fd5b806367457022146105e557806367b870af146105f857806378d29d551461060b57600080fd5b80632f54bf6e116102c35780634020c8d1116102615780634e1c7535116102305780634e1c7535146105985780635b683189146105a05780635c975abb146105b35780636456a3ee146105dd57600080fd5b80634020c8d11461055457806342d55e481461055c578063477035d11461056f5780634ba2363a1461059057600080fd5b806336568abe1161029d57806336568abe1461050a57806337a5d9ee1461051d5780633a43c42a1461052e5780633f12dc101461054157600080fd5b80632f54bf6e146104d1578063326cd970146104e457806333e9151c146104f757600080fd5b8063221dc5931161033057806329ae81141161030a57806329ae8114146104815780632cbf3da0146104965780632cc3ce801461049e5780632f2ff15d146104be57600080fd5b8063221dc5931461043b57806328a7996f1461045b57806329a8f4f81461046e57600080fd5b80630e2286d31161036c5780630e2286d3146103ef5780631193c20b146104025780631c5a27db146104155780631e0029c81461042857600080fd5b806301ffc9a714610393578063065dad8f146103bb57806306823e8c146103dc575b600080fd5b6103a66103a13660046147f7565b6107fe565b60405190151581526020015b60405180910390f35b6103ce6103c9366004614821565b61087b565b6040519081526020016103b2565b6103ce6103ea366004614821565b6108ab565b6103ce6103fd36600461483a565b6108d4565b6103a6610410366004614821565b610952565b6103ce61042336600461485c565b61098e565b6103ce610436366004614821565b6109e6565b610443610af2565b6040516001600160a01b0390911681526020016103b2565b6103ce61046936600461483a565b610b0e565b6103ce61047c36600461488e565b610b1a565b61049461048f36600461483a565b610b3a565b005b6103ce610c37565b6104b16104ac366004614821565b610c61565b6040516103b291906148f4565b6104946104cc366004614a18565b610dad565b6103a66104df366004614a48565b610e41565b6104946104f2366004614aa5565b610e6d565b6103ce610505366004614821565b610f3c565b610494610518366004614a18565b610f58565b6103ce61052b366004614821565b90565b6103ce61053c36600461485c565b610fd2565b6103ce61054f366004614821565b611000565b6103a661102c565b6103ce61056a36600461483a565b61103f565b6105776110e7565b60405167ffffffffffffffff90911681526020016103b2565b61044361110e565b6103ce61112a565b6103ce6105ae366004614b56565b6111bf565b7fcd5ed15c6e187e77e9aee88184c21f4f2182ab5827cb3b7e07fbedcd63f033005460ff166103a6565b610443611579565b6103ce6105f336600461483a565b611597565b6103ce61060636600461488e565b6115af565b6103a661166d565b610443611690565b6103ce6116be565b6103ce610631366004614821565b611778565b61063e611847565b604080519384526020840192909252908201526060016103b2565b6103ce61066736600461483a565b61193c565b6103a661067a366004614a18565b611bf1565b61049461068d366004614821565b611c26565b6103ce6106a036600461483a565b611e26565b6103ce6106b336600461483a565b611e32565b6106c0611e82565b6040516103b29190614b90565b6104946106db366004614bde565b61220e565b6103ce6106ee36600461483a565b6124c5565b6103ce610701366004614821565b6124d1565b6103ce610714366004614821565b61250d565b610721612684565b6040516103b29190614c21565b61063e61073c366004614821565b61269a565b6103ce61074f36600461483a565b6127d3565b610494610762366004614a18565b612835565b6103ce6128c6565b6103ce61077d366004614821565b61298a565b61049461079036600461483a565b6129ad565b6107a86107a336600461485c565b612db6565b604080519283526020830191909152016103b2565b6103ce612e4c565b6103ce6107d336600461483a565b612e5f565b6103ce6107e636600461483a565b612eaf565b6103ce6107f9366004614821565b612ecb565b600061080982612ef3565b8061082457506001600160e01b03198216634178950d60e11b145b8061083f57506001600160e01b0319821663395dfc6360e11b145b8061085a57506001600160e01b0319821663b3f6a3e960e01b145b8061087557506001600160e01b03198216638bbb480560e01b145b92915050565b600080610886612f36565b6000938452601f0160205250506040902054600160801b90046001600160801b031690565b6000806108b6612f36565b6000938452601f01602052505060409020546001600160801b031690565b600080821161091d5760405162461bcd60e51b815260206004820152601060248201526f6469766973696f6e206279207a65726f60801b60448201526064015b60405180910390fd5b8161094161093685676765c793fa10079d601b1b6127d3565b6107d3600286614c51565b61094b9190614c51565b9392505050565b600061096b676765c793fa10079d601b1b6103e8614c73565b610973612f36565b6000938452601b016020526040909220549190911015919050565b60008061099a42610f3c565b90506000818511156109b3576109b08583611e32565b90505b6109db6109d56109cf8984676765c793fa10079d601b1b6115af565b88611597565b85611597565b979650505050505050565b6000806109f1612f36565b6000848152601b820160209081526040808320548084526019850190925290912060018101546004820154600590920154939450919265ffffffffffff164210610aa1576000838152601985016020526040902060018101546002820154600590920154610a67929065ffffffffffff16610b1a565b6000848152601986016020526040902060048101546003820154600590920154929450610a9e9290919065ffffffffffff16610b1a565b90505b80600003610acf576000868152601a85016020526040902054610ac5908390611e26565b9695505050505050565b610ac5816106a08487601a0160008b815260200190815260200160002054611e26565b6000610afc612f36565b600601546001600160a01b0316919050565b600061094b8284612f5a565b6000814210610b3257610b2f84848442612fc2565b93505b509192915050565b333014610b595760405162461bcd60e51b815260040161091490614c8a565b816b646973636f756e745261746560a01b03610beb576000610b79612f36565b6023810154909150610b8e6127106064614c73565b610b9c906301e13380614c73565b610bb1676765c793fa10079d601b1b85614c73565b610bbb9190614c51565b610bd090676765c793fa10079d601b1b614cd5565b60238301558015610be557610be36116be565b505b50505050565b60405162461bcd60e51b815260206004820152601860248201527f756e6b6e6f776e20636f6e66696720706172616d6574657200000000000000006044820152606401610914565b5050565b600080600080610c45611847565b925092509250610c59836107d38484612e5f565b935050505090565b610c69614740565b6000610c73612f36565b6000848152601f8201602090815260409182902082516102008101845281546001600160801b038082168352600160801b9091048116938201939093526001808301549093169381019390935260028101546001600160a01b0390811660608501526003820154166080840152600481015460a0840152600581015460c0840152600681015460e08401526007810154939450919261010084019160ff90911690811115610d2357610d236148ba565b6001811115610d3457610d346148ba565b81526008820154602082015260098201546040820152600a8201546060820152600b8201546080820152600c82015460a09091019060ff166005811115610d7d57610d7d6148ba565b6005811115610d8e57610d8e6148ba565b8152600d8201546020820152600e909101546040909101529392505050565b33610db781610e41565b610dd35760405162461bcd60e51b815260040161091490614ce8565b6001600160a01b038216600081815260008051602061509783398151915260208181526040808420888552909152808320805460ff191660011790555190923392909187917f2f8788117e7eff1d82e926ec794901d17c78024a50270940304540a733656f0d91a450505050565b60006108757fb19546dff01e856fb3f010c267a7b1c60363cf8a4664e21cc89c26224620214e83611bf1565b6000309050306001600160a01b0316816001600160a01b03166346c715fa6040518163ffffffff1660e01b8152600401602060405180830381865afa158015610eba573d6000803e3d6000fd5b505050506040513d601f19601f82011682018060405250810190610ede9190614d2d565b6001600160a01b031603610f345760405162461bcd60e51b815260206004820152601860248201527f4f6e6c792063616c6c20696e2074617267657420706f6f6c00000000000000006044820152606401610914565b610c33612fdb565b6000610f4b6201518083614c51565b6108759062015180614c73565b6001600160a01b0381163314610fc85760405162461bcd60e51b815260206004820152602f60248201527f416363657373436f6e74726f6c3a2063616e206f6e6c792072656e6f756e636560448201526e103937b632b9903337b91039b2b63360891b6064820152608401610914565b610c338282613028565b6000610ff7846103fd87610fe68688611e32565b676765c793fa10079d601b1b6115af565b95945050505050565b60008061100b612f36565b6000938452601f01602052505060409020600101546001600160801b031690565b6000611036612f36565b5460ff16919050565b60008061104b84613092565b905061105a6127106064614c73565b6110676127106064614c73565b6110719190614c73565b61107f906301e13380614c73565b838260a0015163ffffffff16836080015163ffffffff16676765c793fa10079d601b1b6110ac9190614c73565b6110b69190614c73565b6110c09190614c73565b6110ca9190614c51565b6110df90676765c793fa10079d601b1b614d4a565b949350505050565b6000806110f2612f36565b600b0154640100000000900467ffffffffffffffff1692915050565b6000611118612f36565b600c01546001600160a01b0316919050565b600080611135612f36565b905060005b60228201548110156111ba576111a6836107d361117284611168676765c793fa10079d601b1b6103e8614c73565b6106319190614cd5565b85602201858154811061118757611187614d5d565b60009182526020909120600290910201546001600160801b0316611597565b9250806111b281614d73565b91505061113a565b505090565b60003330146111e05760405162461bcd60e51b815260040161091490614c8a565b60006111ea612f36565b90508360006111f88561327c565b905061120a60e0860160c08701614d8c565b6000838152601f85016020908152604090912060010180546001600160801b03191660ff939093169290921790915561124590860186614a48565b6000838152601f850160209081526040918290206002810180546001600160a01b0319166001600160a01b03959095169490941790935560a088013560069093019290925561129991908701908701614a48565b6000838152601f8501602052604090206003810180546001600160a01b0319166001600160a01b0393909316929092179091556060860135600482015560808601356005909101556112f2610100860160e08701614daf565b6000838152601f850160205260409020600701805460ff19166001838181111561131e5761131e6148ba565b02179055506000828152601f840160209081526040918290208288013560088201558351600982015590830151600a82015590820151600b8201556060820151600c909101805460ff1916600183600581111561137d5761137d6148ba565b021790555060808101516000838152601f850160205260408120600d81019290925560a0830151600e909201919091556113c86113c060e0880160c08901614d8c565b60ff16613092565b825190915060006113dc6127106064614c73565b60208401516113f19063ffffffff1684614c73565b6113fb9190614c51565b915061140a6127106064614c73565b611418906301e13380614c73565b676765c793fa10079d601b1b846060015163ffffffff166114399190614c73565b6114439190614c51565b61145890676765c793fa10079d601b1b614cd5565b601c870180546000908152602a890160205260408120889055815492935061147f83614d73565b9190505550611492858560400151613331565b600081815260198701602052604081206002015490036114be576114be637261746560e01b8283613421565b6114c88982613624565b6114d18961371d565b6000898152601d870160205260409020546114ec9083612e5f565b60008a8152601d88016020526040902055601e86015461150c9083612e5f565b601e87015561151b8983613743565b5061152689836139ab565b887f1b9df5e458e3180b31eb211e75477eb92410aa7142c9d86de00552c8b9a1291d838660400151604051611565929190918252602082015260400190565b60405180910390a250979650505050505050565b600080611584612f36565b600501546001600160a01b031692915050565b6000676765c793fa10079d601b1b61094184846127d3565b600083801561164f576001841680156115ca578592506115ce565b8392505b50600283046002850494505b84156116495785860286878204146115f157600080fd5b8181018181101561160157600080fd5b859004965050600185161561163e57858302838782041415871515161561162757600080fd5b8181018181101561163757600080fd5b8590049350505b6002850494506115da565b50611665565b83801561165f5760009250611663565b8392505b505b509392505050565b60006003611679612684565b600381111561168a5761168a6148ba565b14905090565b7f5f6bd0daaaf246715f06ec0ea7e99af4468b70381a38e1f10cb19776ed17ce00546001600160a01b031690565b6000806116c9612f36565b9050600060015b82601c015481101561174f578060006116e88261087b565b905084602601548110156116fd57505061173d565b600061171b8660230154611710856108ab565b886026015485610fd2565b90506117278582612e5f565b6000938452602887016020526040909320555091505b8061174781614d73565b9150506116d0565b50611766816107d384602401548560250154611e32565b60248301819055602590920155919050565b600080611783612f36565b60008481526019820160205260409020600181015460048201548254600590930154939450909290919065ffffffffffff1642106118275760008681526019850160205260409020600181015460028201546005909201546117ed929065ffffffffffff16610b1a565b60008781526019860160205260409020600481015460038201546005909201549295506118249290919065ffffffffffff16610b1a565b91505b8160000361183957610ac58382611e26565b610ac5826106a08584611e26565b600080600080611855612f36565b9050806025015460000361187e576000816027015461187261112a565b93509350935050909192565b60008061188a42610f3c565b60268401549091505b818110156118f057600081815260218501602052604090205480156118db576118cc846107d3836105f38960230154610fe68989611e32565b93506118d88782612e5f565b96505b506118e98162015180614cd5565b9050611893565b5061191861191284602501546105f38660230154610fe6868960260154611e32565b83612eaf565b611926846027015487612e5f565b61192e61112a565b955095509550505050909192565b60003361195861194a611690565b6001600160a01b0316613ae5565b6001600160a01b03161461199f5760405162461bcd60e51b815260206004820152600e60248201526d1b9bdd08185d5d1a1bdc9a5e995960921b6044820152606401610914565b6119a88361371d565b60006119b342610f3c565b905060006119bf612f36565b905080602601548211156119d7576119d56128c6565b505b8460006119e38261087b565b905060006119f0886109e6565b9050808711156119fe578096505b611a0788610952565b15611a2357611a168888613af2565b8695505050505050610875565b6000611a2f8289611e32565b90506000611a3c856108ab565b90506000818315611a7057611a528c8588613b96565b9150818310611a6c57611a658383611e32565b9050611a70565b5060005b611a7982613c64565b6000888152601f8a016020526040902080546001600160801b0319166001600160801b0392909216919091179055888610611b49576000868152602189016020526040902054611ac99082611e32565b600087815260218a0160205260408120919091556023890154611aee90838c8a610fd2565b9050611afe896025015482612eaf565b60258a0155600088815260288a016020526040902054611b1e9082612eaf565b600089815260288b0160205260409020556024890154611b3e9082612eaf565b60248a015550611b9d565b611b57886027015482611e32565b60278901556000878152602989016020526040902054611b779082611e32565b600088815260298a0160205260409020556024880154611b979082612eaf565b60248901555b611ba78c8c613cd1565b8b7f552544cb36551120f07c66c5cd4b2987725a0c72198587f2ce796099bb66c58c8c604051611bd991815260200190565b60405180910390a250989a9950505050505050505050565b6001600160a01b0316600090815260008051602061509783398151915260209081526040808320938352929052205460ff1690565b6000611c30612f36565b6000838152602082810190526040902054909150600160801b900460ff1615611c915760405162461bcd60e51b815260206004820152601360248201527237b7363c96b0baba3416bbb934ba3296b7b33360691b6044820152606401610914565b816000611c9d8261087b565b905060008111611ce55760405162461bcd60e51b81526020600482015260136024820152721b1bd85b8b591bd95ccb5b9bdd0b595e1a5cdd606a1b6044820152606401610914565b6000611cf042610f3c565b90506000611cfd86610c61565b90506000611d1782604001516001600160801b0316613092565b9050828160e0015163ffffffff1685611d309190614cd5565b1115611d7e5760405162461bcd60e51b815260206004820152601b60248201527f6d617475726974792d646174652d696e2d7468652d66757475726500000000006044820152606401610914565b6000611d898861250d565b90506001600160801b0381108015611dd2575080611db4676765c793fa10079d601b1b6103e8614c73565b611dbe9190614cd5565b6000898152601b8901602052604090205414155b15611e1c57611de388828888613e34565b60405160008152819089907f8b4bab687a42524d5daa1b9534fca2a356c38f318b4ad55ddf0f8a0bfddc52929060200160405180910390a35b5050505050505050565b600061094b8284611597565b600082611e3f8382614d4a565b91508111156108755760405162461bcd60e51b815260206004820152600f60248201526e1cd859994b5cdd588b59985a5b1959608a1b6044820152606401610914565b60408051600e8082526101e0820190925260609160009190602082016101c080368337019050509050635b68318960e01b81600081518110611ec657611ec6614d5d565b6001600160e01b0319909216602092830291909101909101528051638a700b5360e01b9082906001908110611efd57611efd614d5d565b6001600160e01b031990921660209283029190910182015260408051808201909152601581527466696c6528627974657333322c75696e743235362960581b91015280517f29ae81148191011c38566e55c1fa1b7fe8ab9c6a19c80456e157de5a284539169082906002908110611f7657611f76614d5d565b6001600160e01b03199092166020928302919091019091015280516303c0053960e31b9082906003908110611fad57611fad614d5d565b6001600160e01b03199092166020928302919091019091015280516303f12dc160e41b9082906004908110611fe457611fe4614d5d565b6001600160e01b0319909216602092830291909101909101528051630165f9ed60e51b908290600590811061201b5761201b614d5d565b6001600160e01b03199092166020928302919091019091015280516338c5e2f160e21b908290600690811061205257612052614d5d565b6001600160e01b03199092166020928302919091019091015280516301a08fa360e21b908290600790811061208957612089614d5d565b6001600160e01b031990921660209283029190910190910152805163065dad8f60e01b90829060089081106120c0576120c0614d5d565b6001600160e01b031990921660209283029190910190910152805163e6c0e6d560e01b90829060099081106120f7576120f7614d5d565b6001600160e01b0319909216602092830291909101909101528051630e3adb7f60e41b908290600a90811061212e5761212e614d5d565b6001600160e01b0319909216602092830291909101909101528051639b3e229160e01b908290600b90811061216557612165614d5d565b60200260200101906001600160e01b03191690816001600160e01b03191681525050604051806060016040528060358152602001615062603591398051906020012081600c815181106121ba576121ba614d5d565b6001600160e01b03199092166020928302919091019091015280516259879d60e71b908290600d9081106121f0576121f0614d5d565b6001600160e01b031990921660209283029190910190910152919050565b33301461222d5760405162461bcd60e51b815260040161091490614c8a565b856c077726974654f666647726f757609c1b0361248657600061224e612f36565b602281015490915060006122656127106064614c73565b612273906301e13380614c73565b612288676765c793fa10079d601b1b8a614c73565b6122929190614c51565b6122a790676765c793fa10079d601b1b614cd5565b905060006122b86127106064614c73565b6122cd676765c793fa10079d601b1b8a614c73565b6122d79190614c51565b6122ec90676765c793fa10079d601b1b614d4a565b905060006122fd6127106064614c73565b61230a6127106064614c73565b6123149190614c73565b612322906301e13380614c73565b8a61233889676765c793fa10079d601b1b614c73565b6123429190614c73565b61234c9190614c51565b61236190676765c793fa10079d601b1b614cd5565b90506000612372620151808a614c51565b905085602201604051806060016040528061238c86613c64565b6001600160801b031681526020016123a384613c64565b6001600160801b031681526020016123ba8a613c64565b6001600160801b0390811690915282546001818101855560009485526020948590208451958501518416600160801b02958416959095176002909202909401908155604090920151919092018054919092166001600160801b03199190911617905561244d637261746560e01b612447612441676765c793fa10079d601b1b6103e8614c73565b88612e5f565b86613421565b61247b6670656e616c747960c81b612475612441676765c793fa10079d601b1b6103e8614c73565b84613421565b5050505050506124bd565b60405162461bcd60e51b815260206004820152600c60248201526b756e6b6e6f776e206e616d6560a01b6044820152606401610914565b505050505050565b600061094b8284614c51565b6000806124dc612f36565b90506000806124ea8561250d565b9050610ff76124f8866109e6565b84602201838154811061118757611187614d5d565b6000818161251a8261087b565b9050600061252742610f3c565b9050600061253484610c61565b90506000600182604001516125499190614dd0565b90506001600160801b0360008061255e612f36565b905060005b60228201546001600160801b038216101561266d57600082602201826001600160801b03168154811061259857612598614d5d565b906000526020600020906002020160000160109054906101000a90046001600160801b03169050856001600160801b031683602201836001600160801b0316815481106125e7576125e7614d5d565b60009182526020909120600160029092020101546001600160801b03161480156126235750836001600160801b0316816001600160801b031610155b801561264e57506126378162015180614df7565b61264a906001600160801b03168a614cd5565b8810155b1561265a578194508093505b508061266581614e22565b915050612563565b5050506001600160801b0316979650505050505050565b600061268e612f36565b6013015460ff16919050565b6000806000806126a8612f36565b905060006126b586610952565b156126d75760006126c58761250d565b90506126d36124f8886109e6565b9150505b6000868152602883016020526040812054900361270d5760008681526029909201602052604082205491945090925090506127cc565b60008061271942610f3c565b905060006127296105058a61087b565b90508460260154811015801561273e57508181105b1561276c57600061274e8a6108ab565b9050612766816105f38860230154610fe68787611e32565b90975092505b6127a461279e8660280160008c8152602001908152602001600020546105f38860230154610fe6878b60260154611e32565b84612eaf565b60008a81526029870160205260409020546127bf9089612e5f565b8597509750975050505050505b9193909250565b60008115806127f7575082826127e98183614c73565b92506127f59083614c51565b145b6108755760405162461bcd60e51b815260206004820152600f60248201526e1cd859994b5b5d5b0b59985a5b1959608a1b6044820152606401610914565b3361283f81610e41565b61285b5760405162461bcd60e51b815260040161091490614ce8565b6001600160a01b038216600081815260008051602061509783398151915260208181526040808420888552909152808320805460ff191690555190923392909187917ff6391f5c32d9c69d2a47ea670b442974b53935d1edc7fd64eb21e047a839171b91a450505050565b6000806000806128d4611847565b92509250925060006128e4612f36565b905060005b81601c0154811015612949576000818152602a8301602052604081205490806129118361269a565b5060009485526029870160209081526040808720929092556028880190529093209290925550612942905081614d73565b90506128e9565b50602781018390556025810184905561296b6129658585612e5f565b83612e5f565b602482015561297942610f3c565b602682015560240154949350505050565b6000806000806129998561269a565b925092509250610ff7836107d38484612e5f565b6129c8336129b9611690565b6001600160a01b031690613fed565b60006129d342610f3c565b90506129de83611000565b82036129e957505050565b60006129f3612f36565b90506129fe83613c64565b6000858152601f83016020526040902060010180546001600160801b0319166001600160801b03929092169190911790556026810154821115612a4557612a436128c6565b505b6000848152601a82016020526040902054849015612b23576000612a6885613092565b90506000612a796127106064614c73565b612a87906301e13380614c73565b676765c793fa10079d601b1b836060015163ffffffff16612aa89190614c73565b612ab29190614c51565b612ac790676765c793fa10079d601b1b614cd5565b600081815260198601602052604081206002015491925003612af557612af5637261746560e01b8283613421565b612aff83826140d4565b50606001516000868152601f84016020526040902063ffffffff909116600e909101555b612b2c856108ab565b600003612b3a575050505050565b6000612b458661087b565b90506000612b52876108ab565b90506000612b668560230154838886610fd2565b6000848152602187016020526040902054909150612b849083611e32565b60008481526021870160205260409020556025850154612ba49082612eaf565b60258601556000888152602886016020526040902054612bc49082612eaf565b60008981526028870160205260409020556024850154612be49082612eaf565b60248601556000848152601b860160209081526040808320548352601988018252808320815160e0810183528154815260018201549381019390935260028101549183019190915260038101546060830152600481015460808301526005015465ffffffffffff80821660a0840152600160301b9091041660c082015290612c6b86610c61565b9050612ca7612ca28360400151612c81896109e6565b612c8a8e61087b565b6104238e8760c001518860e0015161056a9190614d4a565b613c64565b60008b8152601f89016020526040812080546001600160801b0319166001600160801b039390931692909217909155612cdf8b6108ab565b90506000612cf38960230154838c8a610fd2565b600088815260218b016020526040902054909150612d119083612e5f565b600088815260218b0160205260409020556025890154612d319082612e5f565b60258a015560008c815260288a01602052604081208054839290612d56908490614cd5565b90915550506024890154612d6a9082612e5f565b60248a015560408051898152602081018d90527fbb72da976bfcd16b1bdf06af6b214ea9d0b901e187a56591e2187d13aab445c5910160405180910390a1505050505050505050505050565b60008083421015612e095760405162461bcd60e51b815260206004820152601e60248201527f74696e6c616b652d6d6174682f696e76616c69642d74696d657374616d7000006044820152606401610914565b85600003612e1657600080fd5b6000612e2487878742612fc2565b905080612e3e612e348387611597565b6106b38a88611597565b925092505094509492505050565b6000612e56612f36565b60230154905090565b600082612e6c8382614cd5565b91508110156108755760405162461bcd60e51b815260206004820152600f60248201526e1cd859994b5859190b59985a5b1959608a1b6044820152606401610914565b600082821115612ec157506000610875565b61094b8383611e32565b6000612ed5612f36565b6000928352602090810190525060409020546001600160801b031690565b6000612efe826142aa565b80612f19575063395dfc6360e11b6001600160e01b03198316145b806108755750506001600160e01b031916634178950d60e11b1490565b7f42988f810f621c79bb2e8db2f913a015fc39ef8eac016043863c6a0d12adbf0090565b6000808211612f9e5760405162461bcd60e51b815260206004820152601060248201526f6469766973696f6e206279207a65726f60801b6044820152606401610914565b81610941612fb785676765c793fa10079d601b1b6127d3565b6107d3856001611e32565b6000610ff7612fd585610fe68686614d4a565b86611597565b6000612fe5612f36565b9050612ff042610f3c565b602682015560008080526019820160205260409020676765c793fa10079d601b1b600182018190556002909101819055602390910155565b6001600160a01b038116600081815260008051602061509783398151915260208181526040808420878552909152808320805460ff191690555190923392909186917ff6391f5c32d9c69d2a47ea670b442974b53935d1edc7fd64eb21e047a839171b91a4505050565b6040805161016081018252600080825260208201819052918101829052606081018290526080810182905260a0810182905260c0810182905260e081018290526101008101829052610120810182905261014081019190915230806131315760405162461bcd60e51b8152602060048201526015602482015274141bdbdb081dd85cc81b9bdd0819195c1b1bde5959605a1b6044820152606401610914565b82158061319d5750806001600160a01b0316632bcc36826040518163ffffffff1660e01b8152600401602060405180830381865afa158015613177573d6000803e3d6000fd5b505050506040513d601f19601f8201168201806040525081019061319b9190614e48565b155b1561320457505060408051610160810182526000808252620f42406020830152918101829052606081018290526080810182905260a0810182905260c0810182905260e0810182905261010081018290526101208101829052610140810191909152919050565b61320f600184614d4a565b60405163644b4ead60e01b8152600481018290529093506001600160a01b0382169063644b4ead9060240161016060405180830381865afa158015613258573d6000803e3d6000fd5b505050506040513d601f19601f8201168201806040525081019061094b9190614e75565b6132846147c4565b600080600080600061329987604001356142f7565b93985091965094509250905060008360058111156132b9576132b96148ba565b905060006132c68261431a565b6132d09085614c73565b90506040518060c001604052808881526020018a6080013581526020018a60800135836132fd9190614cd5565b8152602001836005811115613314576133146148ba565b815260200185815260200187815250975050505050505050919050565b61333a826108ab565b1561339c5760405162461bcd60e51b815260206004820152602c60248201527f63616e2d6e6f742d6368616e67652d6d61747572697479446174652d6f75747360448201526b1d185b991a5b99cb5919589d60a21b6064820152608401610914565b60006133a6612f36565b90506133b4612ca283610f3c565b6000848152601f830160205260409081902080546001600160801b03938416600160801b029316929092179091555183907ffe768ad9ca3b8a04cf7a180d09b0baebc22445556359b2f41af312321292214c906134149085815260200190565b60405180910390a2505050565b600061342b612f36565b905083637261746560e01b03613509578160000361348b5760405162461bcd60e51b815260206004820152601c60248201527f726174652d7065722d7365636f6e642d63616e2d6e6f742d62652d30000000006044820152606401610914565b600083815260198201602052604081206001015490036134e55760008381526019820160205260409020676765c793fa10079d601b1b6001820155600501805465ffffffffffff19164265ffffffffffff161790556134ee565b6134ee83614438565b60008381526019820160205260409020600201829055610be5565b836670656e616c747960c81b036135e8578160000361356a5760405162461bcd60e51b815260206004820152601f60248201527f70656e616c74792d7065722d7365636f6e642d63616e2d6e6f742d62652d30006044820152606401610914565b600083815260198201602052604081206004015490036135c45760008381526019820160205260409020676765c793fa10079d601b1b6004820155600501805465ffffffffffff19164265ffffffffffff161790556135cd565b6135cd83614438565b60008381526019820160205260409020600301829055610be5565b60405162461bcd60e51b81526020600482015260116024820152703ab735b737bbb7103830b930b6b2ba32b960791b6044820152606401610914565b600061362e612f36565b6000848152601a820160205260409020549091501561367f5760405162461bcd60e51b815260206004820152600d60248201526c1b9bdb8b5e995c9bcb5919589d609a1b6044820152606401610914565b600082815260198201602052604081206001015490036136d65760405162461bcd60e51b81526020600482015260126024820152711c985d194b59dc9bdd5c0b5b9bdd0b5cd95d60721b6044820152606401610914565b6000838152601b82016020526040908190208390555183907f3a8f7e78fe36c54b4f888a309efa91eba128acb04cc1c2ffa0e5c4db7b4a8785906134149085815260200190565b613740613728612f36565b6000838152601b919091016020526040902054614438565b50565b60008061374f42610f3c565b905083600061375d8261087b565b90508281116137b95760405162461bcd60e51b815260206004820152602260248201527f6d617475726974792d646174652d69732d6e6f742d696e2d7468652d66757475604482015261726560f01b6064820152608401610914565b60006137c3612f36565b905080602601548411156137db576137d96128c6565b505b6000878152601b820160209081526040808320548352601984018252808320815160e0810183528154815260018201549381019390935260028101549183019190915260038101546060830152600481015460808301526005015465ffffffffffff80821660a0840152600160301b9091041660c08201529061385d89610c61565b9050600061389083604001518a8761042386604001516001600160801b03168760c001518860e0015161056a9190614d4a565b90506138a1612ca2612965886108ab565b6000878152601f86016020908152604080832080546001600160801b0319166001600160801b03959095169490941790935587825260218701905220546138e89082612e5f565b600086815260218601602052604090205561390e612ca26139088c612ecb565b8b612e5f565b60008b8152602086810190526040902080546001600160801b0319166001600160801b0392909216919091179055602384015461394d90828988610fd2565b975061395d846025015489612e5f565b60258501556000868152602885016020526040812080548a9290613982908490614cd5565b909155505060248401546139969089612e5f565b84602401819055505050505050505092915050565b60006139b5612f36565b6000848152601b8201602090815260408083205480845260198501909252909120600501549192509065ffffffffffff164214613a2d5760405162461bcd60e51b81526020600482015260166024820152751c985d194b59dc9bdd5c0b5b9bdd0b5d5c19185d195960521b6044820152606401610914565b6000818152601983016020526040812060010154613a4b9085610b0e565b6000868152601a85016020526040902054909150613a699082612e5f565b6000868152601a850160209081526040808320939093558482526019860190522054613a959082612e5f565b6000838152601985016020908152604091829020929092555185815286917f4656f63d6d86ffd6679877563f6832dff83d72eb09acf31f29018beaad47ef0e910160405180910390a25050505050565b6000610875826006614607565b6000613afc612f36565b9050613b8281602401546107e684613b7485602201676765c793fa10079d601b1b6103e8613b2a9190614c73565b60008a8152601b89016020526040902054613b459190614d4a565b81548110613b5557613b55614d5d565b60009182526020909120600290910201546001600160801b0316613c64565b6001600160801b0316611597565b6024820155613b918383613cd1565b505050565b600080613ba1612f36565b6000868152601b820160209081526040808320548352601984018252808320815160e0810183528154815260018201549381019390935260028101549183019190915260038101546060830152600481015460808301526005015465ffffffffffff80821660a0840152600160301b9091041660c0820152919250613c2587610c61565b90506000613c588360400151888861042386604001516001600160801b03168760c001518860e0015161056a9190614d4a565b98975050505050505050565b60006001600160801b03821115613ccd5760405162461bcd60e51b815260206004820152602760248201527f53616665436173743a2076616c756520646f65736e27742066697420696e20316044820152663238206269747360c81b6064820152608401610914565b5090565b6000613cdb612f36565b6000848152601b8201602090815260408083205480845260198501909252909120600501549192509065ffffffffffff164214613d535760405162461bcd60e51b81526020600482015260166024820152751c985d194b59dc9bdd5c0b5b9bdd0b5d5c19185d195960521b6044820152606401610914565b60008181526019830160205260409020600401548015613d7a57613d778185610b0e565b93505b6000828152601984016020526040812060010154613d989086610b0e565b6000878152601a86016020526040902054909150613db69082611e32565b6000878152601a860160209081526040808320939093558582526019870190522054613de29082611e32565b6000848152601986016020908152604091829020929092555186815287917fb8b26d9635bdf66575907fb44682641f476b48fb70ad5c2a630908bfcddf214391015b60405180910390a2505050505050565b6000613e3e612f36565b90506000613e4b42610f3c565b90508160260154811115613e6357613e616128c6565b505b6024820154613e7187610952565b1515600003613f8c576000613e85866108ab565b905084613e958560260154610f3c565b1115613eeb57613ea9846027015482612eaf565b60278501556000868152602985016020526040902054613ec99082612eaf565b6000878152602986016020526040902055613ee48282612eaf565b9150613f8a565b6000858152602185016020526040902054613f069082611e32565b60008681526021860160205260408120919091556023850154613f3b9083906105f390610fe6613f358b610f3c565b89611e32565b9050613f4b856025015482612eaf565b60258601556000878152602886016020526040902054613f6b9082612eaf565b6000888152602887016020526040902055613f868382612eaf565b9250505b505b613fb78787613fa8676765c793fa10079d601b1b6103e8614c73565b613fb29190614cd5565b6140d4565b613fdc816107d3613fc78a6109e6565b866022018a8154811061118757611187614d5d565b836024018190555050505050505050565b613ff68261468c565b604051632474521560e21b81527f3e9c05fb0f9da4414e033bb9bf190a6e2072adf7e3077394fce683220513b8d760048201526001600160a01b03838116602483015291909116906391d1485490604401602060405180830381865afa158015614064573d6000803e3d6000fd5b505050506040513d601f19601f820116820180604052508101906140889190614f4f565b610c335760405162461bcd60e51b815260206004820152601b60248201527f52656769737472793a204e6f7420616e20706f6f6c2061646d696e00000000006044820152606401610914565b60006140de612f36565b6000838152601982016020526040812060010154919250036141375760405162461bcd60e51b81526020600482015260126024820152711c985d194b59dc9bdd5c0b5b9bdd0b5cd95d60721b6044820152606401610914565b61414e676765c793fa10079d601b1b6103e8614c73565b821061418b576000828152601982016020526040902060050180546bffffffffffff0000000000001916600160301b4265ffffffffffff16021790555b6000838152601b820160205260409020546141a581614438565b6141ae83614438565b6000848152601a83016020908152604080832054848452601986019092528220600101549091906141df9083611e26565b60008481526019860160205260409020549091506141fd9083611e32565b60008481526019860160205260408082209290925586815220600101546142249082610b0e565b6000878152601a860160208181526040808420859055898452601989018252832054928a90525261425491612e5f565b6000868152601986016020908152604080832093909355888252601b8701815290829020879055905186815287917fe1033ddc4775544ccda3ab7eb50208593822f29f4e10be3f6b4616eeae5d810c9101613e24565b60006301ffc9a760e01b6001600160e01b031983161480612f19575063b3f6a3e960e01b6001600160e01b0319831614806108755750506001600160e01b031916634178950d60e11b1490565b600080600080600061430886614699565b939a9299509097509550909350915050565b60008082600581111561432f5761432f6148ba565b0361433c5750603c919050565b6001826005811115614350576143506148ba565b0361435e5750610e10919050565b6002826005811115614372576143726148ba565b03614381575062015180919050565b6003826005811115614395576143956148ba565b036143a4575062093a80919050565b60048260058111156143b8576143b86148ba565b036143c7575062278d00919050565b60058260058111156143db576143db6148ba565b036143eb57506301e13380919050565b60405162461bcd60e51b815260206004820152601f60248201527f556e6b6e6f776e20616d6f7274697a6174696f6e20756e697420747970652e006044820152606401610914565b919050565b6000614442612f36565b600083815260198201602052604090206005015490915065ffffffffffff164210610c335760008281526019820160205260408120600181015460028201546005830154925461449a9365ffffffffffff1690612db6565b50600084815260198401602052604090206001810182905560030154909150158015906144e857506000838152601983016020526040902060050154600160301b900465ffffffffffff1615155b801561451657506000838152601983016020526040902060050154600160301b900465ffffffffffff164210155b156145db57600083815260198301602052604081206005015465ffffffffffff600160301b8204811691161161456e576000848152601984016020526040902060050154600160301b900465ffffffffffff1661458b565b600084815260198401602052604090206005015465ffffffffffff165b6000858152601985016020526040812060048101546003820154915465ffffffffffff94909416945091926145c39291908590612db6565b50600086815260198601602052604090206004015550505b50600091825260190160205260409020600501805465ffffffffffff19164265ffffffffffff16179055565b6000826001600160a01b031663bcaa0c5583600a81111561462a5761462a6148ba565b6040516001600160e01b031960e084901b16815260ff9091166004820152602401602060405180830381865afa158015614668573d6000803e3d6000fd5b505050506040513d601f19601f8201168201806040525081019061094b9190614d2d565b6000610875826000614607565b6000808080806bffffffffffffffffffffffff60981b861662ffffff60801b8716600f607c1b88166f0ffffffffffffffffffffffff00000008916630ff000008a166146e6856098614729565b6146f1856080614729565b6146fc85607c614729565b61470785601c614729565b614712856014614729565b939f929e50909c509a509098509650505050505050565b6000614736826002615055565b61094b9084614c51565b6040805161020081018252600080825260208201819052918101829052606081018290526080810182905260a0810182905260c0810182905260e0810182905261010081018290526101208101829052610140810182905261016081018290526101808101829052906101a08201905b815260200160008152602001600081525090565b6040518060c00160405280600081526020016000815260200160008152602001600060058111156147b0576147b06148ba565b60006020828403121561480957600080fd5b81356001600160e01b03198116811461094b57600080fd5b60006020828403121561483357600080fd5b5035919050565b6000806040838503121561484d57600080fd5b50508035926020909101359150565b6000806000806080858703121561487257600080fd5b5050823594602084013594506040840135936060013592509050565b6000806000606084860312156148a357600080fd5b505081359360208301359350604090920135919050565b634e487b7160e01b600052602160045260246000fd5b600281106148e0576148e06148ba565b9052565b600681106148e0576148e06148ba565b81516001600160801b031681526102008101602083015161492060208401826001600160801b03169052565b50604083015161493b60408401826001600160801b03169052565b50606083015161495660608401826001600160a01b03169052565b50608083015161497160808401826001600160a01b03169052565b5060a083015160a083015260c083015160c083015260e083015160e0830152610100808401516149a3828501826148d0565b505061012083810151908301526101408084015190830152610160808401519083015261018080840151908301526101a0808401516149e4828501826148e4565b50506101c083810151908301526101e092830151929091019190915290565b6001600160a01b038116811461374057600080fd5b60008060408385031215614a2b57600080fd5b823591506020830135614a3d81614a03565b809150509250929050565b600060208284031215614a5a57600080fd5b813561094b81614a03565b634e487b7160e01b600052604160045260246000fd5b604051610160810167ffffffffffffffff81118282101715614a9f57614a9f614a65565b60405290565b600060208284031215614ab757600080fd5b813567ffffffffffffffff80821115614acf57600080fd5b818401915084601f830112614ae357600080fd5b813581811115614af557614af5614a65565b604051601f8201601f19908116603f01168101908382118183101715614b1d57614b1d614a65565b81604052828152876020848701011115614b3657600080fd5b826020860160208301376000928101602001929092525095945050505050565b600080828403610120811215614b6b57600080fd5b83359250610100601f1982011215614b8257600080fd5b506020830190509250929050565b6020808252825182820181905260009190848201906040850190845b81811015614bd25783516001600160e01b03191683529284019291840191600101614bac565b50909695505050505050565b60008060008060008060c08789031215614bf757600080fd5b505084359660208601359650604086013595606081013595506080810135945060a0013592509050565b6020810160048310614c3557614c356148ba565b91905290565b634e487b7160e01b600052601160045260246000fd5b600082614c6e57634e487b7160e01b600052601260045260246000fd5b500490565b808202811582820484141761087557610875614c3b565b6020808252602b908201527f53656375726974697a6174696f6e506f6f6c3a204f6e6c79205365637572697460408201526a1a5e985d1a5bdb941bdbdb60aa1b606082015260800190565b8082018082111561087557610875614c3b565b60208082526025908201527f416363657373436f6e74726f6c3a2063616c6c6572206973206e6f7420616e2060408201526437bbb732b960d91b606082015260800190565b600060208284031215614d3f57600080fd5b815161094b81614a03565b8181038181111561087557610875614c3b565b634e487b7160e01b600052603260045260246000fd5b600060018201614d8557614d85614c3b565b5060010190565b600060208284031215614d9e57600080fd5b813560ff8116811461094b57600080fd5b600060208284031215614dc157600080fd5b81356002811061094b57600080fd5b6001600160801b03828116828216039080821115614df057614df0614c3b565b5092915050565b6001600160801b03818116838216028082169190828114614e1a57614e1a614c3b565b505092915050565b60006001600160801b03808316818103614e3e57614e3e614c3b565b6001019392505050565b600060208284031215614e5a57600080fd5b5051919050565b805163ffffffff8116811461443357600080fd5b60006101608284031215614e8857600080fd5b614e90614a7b565b614e9983614e61565b8152614ea760208401614e61565b6020820152614eb860408401614e61565b6040820152614ec960608401614e61565b6060820152614eda60808401614e61565b6080820152614eeb60a08401614e61565b60a0820152614efc60c08401614e61565b60c0820152614f0d60e08401614e61565b60e0820152610100614f20818501614e61565b90820152610120614f32848201614e61565b90820152610140614f44848201614e61565b908201529392505050565b600060208284031215614f6157600080fd5b8151801515811461094b57600080fd5b600181815b80851115614fac578160001904821115614f9257614f92614c3b565b80851615614f9f57918102915b93841c9390800290614f76565b509250929050565b600082614fc357506001610875565b81614fd057506000610875565b8160018114614fe65760028114614ff05761500c565b6001915050610875565b60ff84111561500157615001614c3b565b50506001821b610875565b5060208310610133831016604e8410600b841016171561502f575081810a610875565b6150398383614f71565b806000190482111561504d5761504d614c3b565b029392505050565b600061094b8383614fb456fe66696c6528627974657333322c75696e743235362c75696e743235362c75696e743235362c75696e743235362c75696e7432353629b38e00afe21f8bf8961a30ad85d453b5f474f19414b8973dee80c89fb0d97b00a2646970667358221220b55f559fdcfff098cc24c9e735f33861c67f815c4e21954c23812310b2285b6164736f6c63430008130033",
  "devdoc": {
    "author": "Untangled Team",
    "events": {
      "Initialized(uint8)": {
        "details": "Triggered when the contract has been initialized or reinitialized."
      },
      "Paused(address)": {
        "details": "Emitted when the pause is triggered by `account`."
      },
      "RoleGranted(bytes32,address,address)": {
        "details": "Emitted when `account` is granted `role`. `sender` is the account that originated the contract call, an admin role bearer except when using {AccessControl-_setupRole}."
      },
      "RoleRevoked(bytes32,address,address)": {
        "details": "Emitted when `account` is revoked `role`. `sender` is the account that originated the contract call:   - if using `revokeRole`, it is the admin role bearer   - if using `renounceRole`, it is the role bearer (i.e. `account`)"
      },
      "Unpaused(address)": {
        "details": "Emitted when the pause is lifted by `account`."
      }
    },
    "kind": "dev",
    "methods": {
      "borrowed(uint256)": {
        "params": {
          "loan": "id of a loan"
        },
        "returns": {
          "borrowed_": "borrowed amount of the loan"
        }
      },
      "calcDiscount(uint256,uint256,uint256,uint256)": {
        "params": {
          "discountRate": "the discount rate",
          "fv": "the future value of the loan",
          "maturityDate": "the maturity date of the loan",
          "normalizedBlockTimestamp": "the normalized block time (each day to midnight)"
        },
        "returns": {
          "result": "discount for the loan"
        }
      },
      "calcFutureValue(uint256,uint256,uint256,uint256)": {
        "params": {
          "amount": "of the loan (principal)",
          "loanInterestRate": "the interest rate of the loan",
          "maturityDate": "the maturity date of the loan",
          "recoveryRatePD": "the recovery rate together with the probability of default of the loan"
        },
        "returns": {
          "fv": "future value of the loan"
        }
      },
      "calcUpdateNAV()": {
        "returns": {
          "nav_": "current NAV"
        }
      },
      "currentNAV()": {
        "returns": {
          "nav_": "current NAV"
        }
      },
      "currentPVs()": {
        "returns": {
          "overdue": "the present value of the overdue loans",
          "totalDiscount": "the present value of the loans",
          "writeOffs": "the present value of the written off loans"
        }
      },
      "currentValidWriteOffGroup(uint256)": {
        "params": {
          "loan": "the loan id"
        },
        "returns": {
          "writeOffGroup_": "the current valid write off group of a loan"
        }
      },
      "currentWriteOffs()": {
        "returns": {
          "sum": "of all write off loans"
        }
      },
      "file(bytes32,uint256)": {
        "params": {
          "name": "name of the parameter",
          "value": "new value of the parameter"
        }
      },
      "file(bytes32,uint256,uint256,uint256,uint256,uint256)": {
        "params": {
          "name": "name of the parameter group",
          "overdueDays_": "the number of days after which a loan is considered overdue",
          "writeOffPercentage_": "the write off rate in percent"
        }
      },
      "futureValue(bytes32)": {
        "params": {
          "nft_": "the id of the nft based on the hash of registry and tokenId"
        },
        "returns": {
          "fv_": "future value of the loan"
        }
      },
      "isLoanWrittenOff(uint256)": {
        "params": {
          "loan": "the id of the loan"
        }
      },
      "maturityDate(bytes32)": {
        "params": {
          "nft_": "the id of the nft based on the hash of registry and tokenId"
        },
        "returns": {
          "maturityDate_": "the maturityDate of the nft"
        }
      },
      "nftID(uint256)": {
        "params": {
          "loan": "the loan id"
        },
        "returns": {
          "nftID_": "the nftID of the loan"
        }
      },
      "paused()": {
        "details": "Returns true if the contract is paused, and false otherwise."
      },
      "reCalcNAV()": {
        "returns": {
          "nav_": "current NAV"
        }
      },
      "recoveryRatePD(uint256,uint256)": {
        "params": {
          "riskID": "id of a risk group"
        },
        "returns": {
          "recoveryRatePD_": "recovery rate PD of the risk group"
        }
      },
      "repayLoan(uint256,uint256)": {
        "params": {
          "amount": "the amount repaid",
          "loan": "the id of the loan"
        }
      },
      "risk(bytes32)": {
        "params": {
          "nft_": "the id of the nft based on the hash of registry and tokenId"
        },
        "returns": {
          "risk_": "the risk group of the nft"
        }
      },
      "rpow(uint256,uint256,uint256)": {
        "params": {
          "base": "the base of the fixed point number",
          "n": "the exponent for the pow operation",
          "x": "the base for the pow operation"
        },
        "returns": {
          "z": "the result of the pow operation"
        }
      },
      "secureSub(uint256,uint256)": {
        "params": {
          "x": "the first value (minuend)",
          "y": "the second value (subtrahend)"
        },
        "returns": {
          "result": "result of the subtraction"
        }
      },
      "uniqueDayTimestamp(uint256)": {
        "params": {
          "timestamp": "the timestamp which should be normalized"
        },
        "returns": {
          "nTimestamp": "normalized timestamp"
        }
      },
      "updateAssetRiskScore(bytes32,uint256)": {
        "params": {
          "nftID_": "the nftID of the loan",
          "risk_": "the new risk group"
        }
      },
      "writeOff(uint256)": {
        "params": {
          "loan": "the id of the loan"
        }
      }
    },
    "title": "Untangled's SecuritizaionPoolNAV contract",
    "version": 1
  },
  "userdoc": {
    "events": {
      "IncreaseDebt(uint256,uint256)": {
        "notice": "Events"
      }
    },
    "kind": "user",
    "methods": {
      "borrowed(uint256)": {
        "notice": "getter function for the borrowed amount"
      },
      "calcDiscount(uint256,uint256,uint256,uint256)": {
        "notice": "calculates the discount for a given loan"
      },
      "calcFutureValue(uint256,uint256,uint256,uint256)": {
        "notice": "calculate the future value based on the amount, maturityDate interestRate and recoveryRate"
      },
      "calcUpdateNAV()": {
        "notice": "calculates and returns the current NAV and updates the state"
      },
      "compounding(uint256,uint256,uint256,uint256)": {
        "notice": "Interest functions"
      },
      "currentNAV()": {
        "notice": "calculates and returns the current NAV"
      },
      "currentPVs()": {
        "notice": "calculates the present value of the loans together with overdue and written off loans"
      },
      "currentValidWriteOffGroup(uint256)": {
        "notice": "returns the current valid write off group of a loan"
      },
      "currentWriteOffs()": {
        "notice": "returns the sum of all write off loans"
      },
      "file(bytes32,uint256)": {
        "notice": "file allows governance to change parameters of the contract"
      },
      "file(bytes32,uint256,uint256,uint256,uint256,uint256)": {
        "notice": "file allows governance to change parameters of the contract"
      },
      "futureValue(bytes32)": {
        "notice": "getter function for the future value"
      },
      "getAsset(bytes32)": {
        "notice": "retrieves loan information"
      },
      "isClosedState()": {
        "notice": "checks if the contract is in a closed state"
      },
      "isLoanWrittenOff(uint256)": {
        "notice": "returns if a loan is written off"
      },
      "maturityDate(bytes32)": {
        "notice": "getter function for the maturityDate"
      },
      "nftID(uint256)": {
        "notice": "returns the nftID for the underlying collateral nft"
      },
      "reCalcNAV()": {
        "notice": "re-calculates the nav in a non-optimized way  the method is not updating the NAV to latest block.timestamp"
      },
      "recoveryRatePD(uint256,uint256)": {
        "notice": "getter function for the recovery rate PD"
      },
      "repayLoan(uint256,uint256)": {
        "notice": "repay updates the NAV for a new repaid loan"
      },
      "risk(bytes32)": {
        "notice": "getter function for the risk group"
      },
      "rpow(uint256,uint256,uint256)": {
        "notice": "rpow peforms a math pow operation with fixed point number adopted from ds-math"
      },
      "secureSub(uint256,uint256)": {
        "notice": "substracts to values if the result smaller than 0 it returns 0"
      },
      "uniqueDayTimestamp(uint256)": {
        "notice": "normalizes a timestamp to round down to the nearest midnight (UTC)"
      },
      "updateAssetRiskScore(bytes32,uint256)": {
        "notice": "updates the risk group of active loans (borrowed and unborrowed loans)"
      },
      "writeOff(uint256)": {
        "notice": "writeOff writes off a loan if it is overdue"
      }
    },
    "notice": "Main entry point for senior LPs (a.k.a. capital providers)  Automatically invests across borrower pools using an adjustable strategy.",
    "version": 1
  },
  "storageLayout": {
    "storage": [
      {
        "astId": 726,
        "contract": "contracts/protocol/pool/SecuritizationPoolNAV.sol:SecuritizationPoolNAV",
        "label": "_initialized",
        "offset": 0,
        "slot": "0",
        "type": "t_uint8"
      },
      {
        "astId": 729,
        "contract": "contracts/protocol/pool/SecuritizationPoolNAV.sol:SecuritizationPoolNAV",
        "label": "_initializing",
        "offset": 1,
        "slot": "0",
        "type": "t_bool"
      },
      {
        "astId": 3914,
        "contract": "contracts/protocol/pool/SecuritizationPoolNAV.sol:SecuritizationPoolNAV",
        "label": "__gap",
        "offset": 0,
        "slot": "1",
        "type": "t_array(t_uint256)50_storage"
      },
      {
        "astId": 3567,
        "contract": "contracts/protocol/pool/SecuritizationPoolNAV.sol:SecuritizationPoolNAV",
        "label": "__gap",
        "offset": 0,
        "slot": "51",
        "type": "t_array(t_uint256)50_storage"
      },
      {
        "astId": 1029,
        "contract": "contracts/protocol/pool/SecuritizationPoolNAV.sol:SecuritizationPoolNAV",
        "label": "_status",
        "offset": 0,
        "slot": "101",
        "type": "t_uint256"
      },
      {
        "astId": 1098,
        "contract": "contracts/protocol/pool/SecuritizationPoolNAV.sol:SecuritizationPoolNAV",
        "label": "__gap",
        "offset": 0,
        "slot": "102",
        "type": "t_array(t_uint256)49_storage"
      }
    ],
    "types": {
      "t_array(t_uint256)49_storage": {
        "base": "t_uint256",
        "encoding": "inplace",
        "label": "uint256[49]",
        "numberOfBytes": "1568"
      },
      "t_array(t_uint256)50_storage": {
        "base": "t_uint256",
        "encoding": "inplace",
        "label": "uint256[50]",
        "numberOfBytes": "1600"
      },
      "t_bool": {
        "encoding": "inplace",
        "label": "bool",
        "numberOfBytes": "1"
      },
      "t_uint256": {
        "encoding": "inplace",
        "label": "uint256",
        "numberOfBytes": "32"
      },
      "t_uint8": {
        "encoding": "inplace",
        "label": "uint8",
        "numberOfBytes": "1"
      }
    }
  }
}