{
  "address": "0xf4C8293393D029aEec73E042C5471c48d1c296C5",
  "abi": [
    {
      "anonymous": false,
      "inputs": [
        {
          "indexed": false,
          "internalType": "address",
          "name": "account",
          "type": "address"
        }
      ],
      "name": "Paused",
      "type": "event"
    },
    {
      "anonymous": false,
      "inputs": [
        {
          "indexed": true,
          "internalType": "bytes32",
          "name": "role",
          "type": "bytes32"
        },
        {
          "indexed": true,
          "internalType": "bytes32",
          "name": "previousAdminRole",
          "type": "bytes32"
        },
        {
          "indexed": true,
          "internalType": "bytes32",
          "name": "newAdminRole",
          "type": "bytes32"
        }
      ],
      "name": "RoleAdminChanged",
      "type": "event"
    },
    {
      "anonymous": false,
      "inputs": [
        {
          "indexed": true,
          "internalType": "bytes32",
          "name": "role",
          "type": "bytes32"
        },
        {
          "indexed": true,
          "internalType": "address",
          "name": "account",
          "type": "address"
        },
        {
          "indexed": true,
          "internalType": "address",
          "name": "sender",
          "type": "address"
        }
      ],
      "name": "RoleGranted",
      "type": "event"
    },
    {
      "anonymous": false,
      "inputs": [
        {
          "indexed": true,
          "internalType": "bytes32",
          "name": "role",
          "type": "bytes32"
        },
        {
          "indexed": true,
          "internalType": "address",
          "name": "account",
          "type": "address"
        },
        {
          "indexed": true,
          "internalType": "address",
          "name": "sender",
          "type": "address"
        }
      ],
      "name": "RoleRevoked",
      "type": "event"
    },
    {
      "anonymous": false,
      "inputs": [
        {
          "indexed": false,
          "internalType": "address",
          "name": "account",
          "type": "address"
        }
      ],
      "name": "Unpaused",
      "type": "event"
    },
    {
      "inputs": [],
      "name": "DEFAULT_ADMIN_ROLE",
      "outputs": [
        {
          "internalType": "bytes32",
          "name": "",
          "type": "bytes32"
        }
      ],
      "stateMutability": "view",
      "type": "function"
    },
    {
      "inputs": [],
      "name": "ORIGINATOR_ROLE",
      "outputs": [
        {
          "internalType": "bytes32",
          "name": "",
          "type": "bytes32"
        }
      ],
      "stateMutability": "view",
      "type": "function"
    },
    {
      "inputs": [],
      "name": "OWNER_ROLE",
      "outputs": [
        {
          "internalType": "bytes32",
          "name": "",
          "type": "bytes32"
        }
      ],
      "stateMutability": "view",
      "type": "function"
    },
    {
      "inputs": [
        {
          "internalType": "address",
          "name": "recipientWallet",
          "type": "address"
        }
      ],
      "name": "claimCashRemain",
      "outputs": [],
      "stateMutability": "nonpayable",
      "type": "function"
    },
    {
      "inputs": [
        {
          "internalType": "address[]",
          "name": "tokenAddresses",
          "type": "address[]"
        }
      ],
      "name": "claimERC20Assets",
      "outputs": [],
      "stateMutability": "nonpayable",
      "type": "function"
    },
    {
      "inputs": [
        {
          "internalType": "address",
          "name": "tokenAddress",
          "type": "address"
        },
        {
          "internalType": "address",
          "name": "from",
          "type": "address"
        },
        {
          "internalType": "uint256[]",
          "name": "tokenIds",
          "type": "uint256[]"
        }
      ],
      "name": "collectAssets",
      "outputs": [],
      "stateMutability": "nonpayable",
      "type": "function"
    },
    {
      "inputs": [
        {
          "internalType": "address[]",
          "name": "tokenAddresses",
          "type": "address[]"
        },
        {
          "internalType": "address[]",
          "name": "senders",
          "type": "address[]"
        },
        {
          "internalType": "uint256[]",
          "name": "amounts",
          "type": "uint256[]"
        }
      ],
      "name": "collectERC20Assets",
      "outputs": [],
      "stateMutability": "nonpayable",
      "type": "function"
    },
    {
      "inputs": [
        {
          "internalType": "address",
          "name": "tokenAddress",
          "type": "address"
        },
        {
          "internalType": "address",
          "name": "investor",
          "type": "address"
        },
        {
          "internalType": "uint256",
          "name": "currency",
          "type": "uint256"
        },
        {
          "internalType": "uint256",
          "name": "token",
          "type": "uint256"
        }
      ],
      "name": "decreaseLockedDistributeBalance",
      "outputs": [],
      "stateMutability": "nonpayable",
      "type": "function"
    },
    {
      "inputs": [
        {
          "internalType": "address",
          "name": "",
          "type": "address"
        }
      ],
      "name": "existsTokenAssetAddress",
      "outputs": [
        {
          "internalType": "bool",
          "name": "",
          "type": "bool"
        }
      ],
      "stateMutability": "view",
      "type": "function"
    },
    {
      "inputs": [
        {
          "internalType": "address",
          "name": "tokenAddress",
          "type": "address"
        },
        {
          "internalType": "address",
          "name": "toPoolAddress",
          "type": "address"
        },
        {
          "internalType": "uint256[]",
          "name": "tokenIds",
          "type": "uint256[]"
        }
      ],
      "name": "exportAssets",
      "outputs": [],
      "stateMutability": "nonpayable",
      "type": "function"
    },
    {
      "inputs": [],
      "name": "getNFTAssetsLength",
      "outputs": [
        {
          "internalType": "uint256",
          "name": "",
          "type": "uint256"
        }
      ],
      "stateMutability": "view",
      "type": "function"
    },
    {
      "inputs": [],
      "name": "getRiskScoresLength",
      "outputs": [
        {
          "internalType": "uint256",
          "name": "",
          "type": "uint256"
        }
      ],
      "stateMutability": "view",
      "type": "function"
    },
    {
      "inputs": [
        {
          "internalType": "bytes32",
          "name": "role",
          "type": "bytes32"
        }
      ],
      "name": "getRoleAdmin",
      "outputs": [
        {
          "internalType": "bytes32",
          "name": "",
          "type": "bytes32"
        }
      ],
      "stateMutability": "view",
      "type": "function"
    },
    {
      "inputs": [
        {
          "internalType": "bytes32",
          "name": "role",
          "type": "bytes32"
        },
        {
          "internalType": "uint256",
          "name": "index",
          "type": "uint256"
        }
      ],
      "name": "getRoleMember",
      "outputs": [
        {
          "internalType": "address",
          "name": "",
          "type": "address"
        }
      ],
      "stateMutability": "view",
      "type": "function"
    },
    {
      "inputs": [
        {
          "internalType": "bytes32",
          "name": "role",
          "type": "bytes32"
        }
      ],
      "name": "getRoleMemberCount",
      "outputs": [
        {
          "internalType": "uint256",
          "name": "",
          "type": "uint256"
        }
      ],
      "stateMutability": "view",
      "type": "function"
    },
    {
      "inputs": [],
      "name": "getTokenAssetAddresses",
      "outputs": [
        {
          "internalType": "address[]",
          "name": "",
          "type": "address[]"
        }
      ],
      "stateMutability": "view",
      "type": "function"
    },
    {
      "inputs": [],
      "name": "getTokenAssetAddressesLength",
      "outputs": [
        {
          "internalType": "uint256",
          "name": "",
          "type": "uint256"
        }
      ],
      "stateMutability": "view",
      "type": "function"
    },
    {
      "inputs": [
        {
          "internalType": "bytes32",
          "name": "role",
          "type": "bytes32"
        },
        {
          "internalType": "address",
          "name": "account",
          "type": "address"
        }
      ],
      "name": "grantRole",
      "outputs": [],
      "stateMutability": "nonpayable",
      "type": "function"
    },
    {
      "inputs": [],
      "name": "hasFinishedRedemption",
      "outputs": [
        {
          "internalType": "bool",
          "name": "",
          "type": "bool"
        }
      ],
      "stateMutability": "view",
      "type": "function"
    },
    {
      "inputs": [
        {
          "internalType": "bytes32",
          "name": "role",
          "type": "bytes32"
        },
        {
          "internalType": "address",
          "name": "account",
          "type": "address"
        }
      ],
      "name": "hasRole",
      "outputs": [
        {
          "internalType": "bool",
          "name": "",
          "type": "bool"
        }
      ],
      "stateMutability": "view",
      "type": "function"
    },
    {
      "inputs": [
        {
          "internalType": "address",
          "name": "tokenAddress",
          "type": "address"
        },
        {
          "internalType": "address",
          "name": "investor",
          "type": "address"
        },
        {
          "internalType": "uint256",
          "name": "currency",
          "type": "uint256"
        },
        {
          "internalType": "uint256",
          "name": "token",
          "type": "uint256"
        }
      ],
      "name": "increaseLockedDistributeBalance",
      "outputs": [],
      "stateMutability": "nonpayable",
      "type": "function"
    },
    {
      "inputs": [
        {
          "internalType": "contract Registry",
          "name": "_registry",
          "type": "address"
        },
        {
          "internalType": "address",
          "name": "_currency",
          "type": "address"
        },
        {
          "internalType": "uint32",
          "name": "_minFirstLossCushion",
          "type": "uint32"
        }
      ],
      "name": "initialize",
      "outputs": [],
      "stateMutability": "nonpayable",
      "type": "function"
    },
    {
      "inputs": [
        {
          "internalType": "address",
          "name": "_tgeAddress",
          "type": "address"
        },
        {
          "internalType": "address",
          "name": "_tokenAddress",
          "type": "address"
        },
        {
          "internalType": "enum Configuration.NOTE_TOKEN_TYPE",
          "name": "_noteType",
          "type": "uint8"
        }
      ],
      "name": "injectTGEAddress",
      "outputs": [],
      "stateMutability": "nonpayable",
      "type": "function"
    },
    {
      "inputs": [],
      "name": "interestRateSOT",
      "outputs": [
        {
          "internalType": "uint32",
          "name": "",
          "type": "uint32"
        }
      ],
      "stateMutability": "view",
      "type": "function"
    },
    {
      "inputs": [],
      "name": "isClosedState",
      "outputs": [
        {
          "internalType": "bool",
          "name": "",
          "type": "bool"
        }
      ],
      "stateMutability": "view",
      "type": "function"
    },
    {
      "inputs": [],
      "name": "jotToken",
      "outputs": [
        {
          "internalType": "address",
          "name": "",
          "type": "address"
        }
      ],
      "stateMutability": "view",
      "type": "function"
    },
    {
      "inputs": [
        {
          "internalType": "address",
          "name": "",
          "type": "address"
        }
      ],
      "name": "lastRepayTimestampSOT",
      "outputs": [
        {
          "internalType": "uint256",
          "name": "",
          "type": "uint256"
        }
      ],
      "stateMutability": "view",
      "type": "function"
    },
    {
      "inputs": [
        {
          "internalType": "address",
          "name": "",
          "type": "address"
        },
        {
          "internalType": "address",
          "name": "",
          "type": "address"
        }
      ],
      "name": "lockedDistributeBalances",
      "outputs": [
        {
          "internalType": "uint256",
          "name": "",
          "type": "uint256"
        }
      ],
      "stateMutability": "view",
      "type": "function"
    },
    {
      "inputs": [
        {
          "internalType": "address",
          "name": "",
          "type": "address"
        },
        {
          "internalType": "address",
          "name": "",
          "type": "address"
        }
      ],
      "name": "lockedRedeemBalances",
      "outputs": [
        {
          "internalType": "uint256",
          "name": "",
          "type": "uint256"
        }
      ],
      "stateMutability": "view",
      "type": "function"
    },
    {
      "inputs": [],
      "name": "minFirstLossCushion",
      "outputs": [
        {
          "internalType": "uint32",
          "name": "",
          "type": "uint32"
        }
      ],
      "stateMutability": "view",
      "type": "function"
    },
    {
      "inputs": [
        {
          "internalType": "uint256",
          "name": "",
          "type": "uint256"
        }
      ],
      "name": "nftAssets",
      "outputs": [
        {
          "internalType": "address",
          "name": "tokenAddress",
          "type": "address"
        },
        {
          "internalType": "uint256",
          "name": "tokenId",
          "type": "uint256"
        }
      ],
      "stateMutability": "view",
      "type": "function"
    },
    {
      "inputs": [
        {
          "internalType": "address",
          "name": "",
          "type": "address"
        },
        {
          "internalType": "address",
          "name": "",
          "type": "address"
        },
        {
          "internalType": "uint256",
          "name": "tokenId",
          "type": "uint256"
        },
        {
          "internalType": "bytes",
          "name": "",
          "type": "bytes"
        }
      ],
      "name": "onERC721Received",
      "outputs": [
        {
          "internalType": "bytes4",
          "name": "",
          "type": "bytes4"
        }
      ],
      "stateMutability": "nonpayable",
      "type": "function"
    },
    {
      "inputs": [],
      "name": "openingBlockTimestamp",
      "outputs": [
        {
          "internalType": "uint64",
          "name": "",
          "type": "uint64"
        }
      ],
      "stateMutability": "view",
      "type": "function"
    },
    {
      "inputs": [
        {
          "internalType": "address",
          "name": "",
          "type": "address"
        }
      ],
      "name": "paidInterestAmountSOT",
      "outputs": [
        {
          "internalType": "uint256",
          "name": "",
          "type": "uint256"
        }
      ],
      "stateMutability": "view",
      "type": "function"
    },
    {
      "inputs": [],
      "name": "paidPrincipalAmountSOT",
      "outputs": [
        {
          "internalType": "uint256",
          "name": "",
          "type": "uint256"
        }
      ],
      "stateMutability": "view",
      "type": "function"
    },
    {
      "inputs": [
        {
          "internalType": "address",
          "name": "",
          "type": "address"
        }
      ],
      "name": "paidPrincipalAmountSOTByInvestor",
      "outputs": [
        {
          "internalType": "uint256",
          "name": "",
          "type": "uint256"
        }
      ],
      "stateMutability": "view",
      "type": "function"
    },
    {
      "inputs": [],
      "name": "pause",
      "outputs": [],
      "stateMutability": "nonpayable",
      "type": "function"
    },
    {
      "inputs": [],
      "name": "paused",
      "outputs": [
        {
          "internalType": "bool",
          "name": "",
          "type": "bool"
        }
      ],
      "stateMutability": "view",
      "type": "function"
    },
    {
      "inputs": [],
      "name": "pot",
      "outputs": [
        {
          "internalType": "address",
          "name": "",
          "type": "address"
        }
      ],
      "stateMutability": "view",
      "type": "function"
    },
    {
      "inputs": [],
      "name": "principalAmountSOT",
      "outputs": [
        {
          "internalType": "uint256",
          "name": "",
          "type": "uint256"
        }
      ],
      "stateMutability": "view",
      "type": "function"
    },
    {
      "inputs": [
        {
          "internalType": "address",
          "name": "usr",
          "type": "address"
        },
        {
          "internalType": "address",
          "name": "notesToken",
          "type": "address"
        },
        {
          "internalType": "uint256",
          "name": "currencyAmount",
          "type": "uint256"
        },
        {
          "internalType": "uint256",
          "name": "tokenAmount",
          "type": "uint256"
        }
      ],
      "name": "redeem",
      "outputs": [],
      "stateMutability": "nonpayable",
      "type": "function"
    },
    {
      "inputs": [],
      "name": "registry",
      "outputs": [
        {
          "internalType": "contract Registry",
          "name": "",
          "type": "address"
        }
      ],
      "stateMutability": "view",
      "type": "function"
    },
    {
      "inputs": [
        {
          "internalType": "bytes32",
          "name": "role",
          "type": "bytes32"
        },
        {
          "internalType": "address",
          "name": "account",
          "type": "address"
        }
      ],
      "name": "renounceRole",
      "outputs": [],
      "stateMutability": "nonpayable",
      "type": "function"
    },
    {
      "inputs": [
        {
          "internalType": "bytes32",
          "name": "role",
          "type": "bytes32"
        },
        {
          "internalType": "address",
          "name": "account",
          "type": "address"
        }
      ],
      "name": "revokeRole",
      "outputs": [],
      "stateMutability": "nonpayable",
      "type": "function"
    },
    {
      "inputs": [
        {
          "internalType": "uint256",
          "name": "",
          "type": "uint256"
        }
      ],
      "name": "riskScores",
      "outputs": [
        {
          "internalType": "uint32",
          "name": "daysPastDue",
          "type": "uint32"
        },
        {
          "internalType": "uint32",
          "name": "advanceRate",
          "type": "uint32"
        },
        {
          "internalType": "uint32",
          "name": "penaltyRate",
          "type": "uint32"
        },
        {
          "internalType": "uint32",
          "name": "interestRate",
          "type": "uint32"
        },
        {
          "internalType": "uint32",
          "name": "probabilityOfDefault",
          "type": "uint32"
        },
        {
          "internalType": "uint32",
          "name": "lossGivenDefault",
          "type": "uint32"
        },
        {
          "internalType": "uint32",
          "name": "gracePeriod",
          "type": "uint32"
        },
        {
          "internalType": "uint32",
          "name": "collectionPeriod",
          "type": "uint32"
        },
        {
          "internalType": "uint32",
          "name": "writeOffAfterGracePeriod",
          "type": "uint32"
        },
        {
          "internalType": "uint32",
          "name": "writeOffAfterCollectionPeriod",
          "type": "uint32"
        }
      ],
      "stateMutability": "view",
      "type": "function"
    },
    {
      "inputs": [],
      "name": "secondTGEAddress",
      "outputs": [
        {
          "internalType": "address",
          "name": "",
          "type": "address"
        }
      ],
      "stateMutability": "view",
      "type": "function"
    },
    {
      "inputs": [
        {
          "internalType": "uint32",
          "name": "_interestRateSOT",
          "type": "uint32"
        }
      ],
      "name": "setInterestRateForSOT",
      "outputs": [],
      "stateMutability": "nonpayable",
      "type": "function"
    },
    {
      "inputs": [
        {
          "internalType": "address",
          "name": "_pot",
          "type": "address"
        }
      ],
      "name": "setPot",
      "outputs": [],
      "stateMutability": "nonpayable",
      "type": "function"
    },
    {
      "inputs": [
        {
          "internalType": "uint32[]",
          "name": "_daysPastDues",
          "type": "uint32[]"
        },
        {
          "internalType": "uint32[]",
          "name": "_ratesAndDefaults",
          "type": "uint32[]"
        },
        {
          "internalType": "uint32[]",
          "name": "_periodsAndWriteOffs",
          "type": "uint32[]"
        }
      ],
      "name": "setupRiskScores",
      "outputs": [],
      "stateMutability": "nonpayable",
      "type": "function"
    },
    {
      "inputs": [],
      "name": "sotToken",
      "outputs": [
        {
          "internalType": "address",
          "name": "",
          "type": "address"
        }
      ],
      "stateMutability": "view",
      "type": "function"
    },
    {
      "inputs": [
        {
          "internalType": "uint64",
          "name": "_termLengthInSeconds",
          "type": "uint64"
        },
        {
          "internalType": "uint256",
          "name": "_principalAmountForSOT",
          "type": "uint256"
        },
        {
          "internalType": "uint32",
          "name": "_interestRateForSOT",
          "type": "uint32"
        },
        {
          "internalType": "uint64",
          "name": "_timeStartEarningInterest",
          "type": "uint64"
        }
      ],
      "name": "startCycle",
      "outputs": [],
      "stateMutability": "nonpayable",
      "type": "function"
    },
    {
      "inputs": [],
      "name": "state",
      "outputs": [
        {
          "internalType": "enum ISecuritizationPool.CycleState",
          "name": "",
          "type": "uint8"
        }
      ],
      "stateMutability": "view",
      "type": "function"
    },
    {
      "inputs": [
        {
          "internalType": "bytes4",
          "name": "interfaceId",
          "type": "bytes4"
        }
      ],
      "name": "supportsInterface",
      "outputs": [
        {
          "internalType": "bool",
          "name": "",
          "type": "bool"
        }
      ],
      "stateMutability": "view",
      "type": "function"
    },
    {
      "inputs": [],
      "name": "termLengthInSeconds",
      "outputs": [
        {
          "internalType": "uint64",
          "name": "",
          "type": "uint64"
        }
      ],
      "stateMutability": "view",
      "type": "function"
    },
    {
      "inputs": [],
      "name": "tgeAddress",
      "outputs": [
        {
          "internalType": "address",
          "name": "",
          "type": "address"
        }
      ],
      "stateMutability": "view",
      "type": "function"
    },
    {
      "inputs": [
        {
          "internalType": "uint256",
          "name": "",
          "type": "uint256"
        }
      ],
      "name": "tokenAssetAddresses",
      "outputs": [
        {
          "internalType": "address",
          "name": "",
          "type": "address"
        }
      ],
      "stateMutability": "view",
      "type": "function"
    },
    {
      "inputs": [],
      "name": "totalLockedDistributeBalance",
      "outputs": [
        {
          "internalType": "uint256",
          "name": "",
          "type": "uint256"
        }
      ],
      "stateMutability": "view",
      "type": "function"
    },
    {
      "inputs": [
        {
          "internalType": "address",
          "name": "",
          "type": "address"
        }
      ],
      "name": "totalLockedRedeemBalances",
      "outputs": [
        {
          "internalType": "uint256",
          "name": "",
          "type": "uint256"
        }
      ],
      "stateMutability": "view",
      "type": "function"
    },
    {
      "inputs": [],
      "name": "underlyingCurrency",
      "outputs": [
        {
          "internalType": "address",
          "name": "",
          "type": "address"
        }
      ],
      "stateMutability": "view",
      "type": "function"
    },
    {
      "inputs": [],
      "name": "unpause",
      "outputs": [],
      "stateMutability": "nonpayable",
      "type": "function"
    },
    {
      "inputs": [
        {
          "internalType": "address[]",
          "name": "tokenAddresses",
          "type": "address[]"
        },
        {
          "internalType": "uint256[]",
          "name": "tokenIds",
          "type": "uint256[]"
        },
        {
          "internalType": "address[]",
          "name": "recipients",
          "type": "address[]"
        }
      ],
      "name": "withdrawAssets",
      "outputs": [],
      "stateMutability": "nonpayable",
      "type": "function"
    },
    {
      "inputs": [
        {
          "internalType": "address[]",
          "name": "tokenAddresses",
          "type": "address[]"
        },
        {
          "internalType": "address[]",
          "name": "recipients",
          "type": "address[]"
        },
        {
          "internalType": "uint256[]",
          "name": "amounts",
          "type": "uint256[]"
        }
      ],
      "name": "withdrawERC20Assets",
      "outputs": [],
      "stateMutability": "nonpayable",
      "type": "function"
    }
  ],
  "transactionHash": "0xb4c52d29c127cb10a1d26b09b0ffb6da21d1f82c694251b295d474b1fb1b3508",
  "args": [],
  "numDeployments": 2,
  "solcInputHash": "e79c5ea881638c711b00b5d701bfff9c",
  "bytecode": "0x608060405234801561001057600080fd5b50615d0c80620000216000396000f3fe608060405234801561001057600080fd5b50600436106103ba5760003560e01c80636ee44c4c116101f4578063a6c595471161011a578063d547741f116100ad578063e58378bb1161007c578063e58378bb1461099b578063ed348895146109c2578063fa3908b1146109d5578063febd601814610a0757600080fd5b8063d547741f14610959578063d8ba6f441461096c578063dec285871461097f578063df076fe01461099257600080fd5b8063c19d93fb116100e9578063c19d93fb146108df578063c6cb67a614610912578063ca15c87314610925578063d2fad4811461093857600080fd5b8063a6c595471461088c578063ac2a6a381461089f578063ade0ea6d146108cb578063b8cd9b00146108d557600080fd5b8063815d6ddf116101925780639010d07c116101615780639010d07c1461081157806391d1485414610824578063a125142b1461085d578063a217fddf1461088457600080fd5b8063815d6ddf146107ca5780638456cb59146107dd5780638fd6b71e146107e557806390071cf3146107fe57600080fd5b806378d29d55116101ce57806378d29d55146107785780637b103999146107805780637da220e6146107945780637dfbdae2146107c057600080fd5b80636ee44c4c1461073a57806370d2f3991461074f57806375b1bce71461077057600080fd5b806336568abe116102e45780634bb48586116102775780636421cede116102465780636421cede1461068b578063644b4ead146106a05780636456a3ee146107135780636ecf2b221461072757600080fd5b80634bb48586146106365780634be474181461065a5780635b8e62e71461066d5780635c975abb1461068057600080fd5b80633ffebce4116102b35780633ffebce4146105a7578063477035d1146105c85780634b552a4a1461060f5780634ba2363a1461062257600080fd5b806336568abe1461056657806338d9feac146105795780633bf4045f1461058c5780633f4ba83a1461059f57600080fd5b8063221dc5931161035c5780632bb14ff01161032b5780632bb14ff0146105115780632bcc3682146105375780632f2ff15d14610540578063357a03021461055357600080fd5b8063221dc593146104b3578063247fc363146104c7578063248a9ca3146104da5780632b71b450146104fd57600080fd5b8063150b7a0211610398578063150b7a0214610426578063186ccccf1461046a5780631ba6e9571461047f5780631bf51b70146104a057600080fd5b806301ffc9a7146103bf5780630b7792f1146103e75780630bc6bffc146103fa575b600080fd5b6103d26103cd36600461547b565b610a1b565b60405190151581526020015b60405180910390f35b61013e545b6040519081526020016103de565b6101325461040e906001600160a01b031681565b6040516001600160a01b0390911681526020016103de565b610439610434366004615501565b610a77565b6040517fffffffff0000000000000000000000000000000000000000000000000000000090911681526020016103de565b61047d61047836600461564b565b610bed565b005b6103ec61048d36600461568d565b6101386020526000908152604090205481565b61047d6104ae3660046156aa565b610f47565b61012f5461040e906001600160a01b031681565b61047d6104d53660046156aa565b611613565b6103ec6104e8366004615744565b600090815260c9602052604090206001015490565b6101315461040e906001600160a01b031681565b61013c546105229063ffffffff1681565b60405163ffffffff90911681526020016103de565b61013d546103ec565b61047d61054e36600461575d565b611a67565b61047d61056136600461578d565b611a92565b61047d61057436600461575d565b611c80565b61047d6105873660046157d3565b611d0c565b61047d61059a3660046156aa565b611eb4565b61047d612248565b6103ec6105b536600461568d565b6101416020526000908152604090205481565b610132546105f6907501000000000000000000000000000000000000000000900467ffffffffffffffff1681565b60405167ffffffffffffffff90911681526020016103de565b61047d61061d366004615838565b61225f565b6101425461040e906001600160a01b031681565b6103d261064436600461568d565b6101406020526000908152604090205460ff1681565b61047d61066836600461578d565b6125ca565b61047d61067b36600461578d565b6128e8565b60335460ff166103d2565b610693612b32565b6040516103de9190615887565b6106b36106ae366004615744565b612b95565b6040805163ffffffff9b8c168152998b1660208b0152978a16978901979097529488166060880152928716608087015290861660a0860152851660c0850152841660e08401528316610100830152909116610120820152610140016103de565b61012e5461040e906001600160a01b031681565b61047d6107353660046158ed565b612c76565b610133546105f69067ffffffffffffffff1681565b6103ec61075d36600461568d565b6101356020526000908152604090205481565b6103d2612fb6565b6103d26131b7565b61012d5461040e906001600160a01b031681565b6103ec6107a2366004615934565b61013660209081526000928352604080842090915290825290205481565b6103ec6101345481565b61047d6107d836600461597a565b6131f1565b61047d6137bb565b61013c5461052290640100000000900463ffffffff1681565b61047d61080c36600461568d565b6137cf565b61040e61081f3660046159c7565b613a49565b6103d261083236600461575d565b600091825260c9602090815260408084206001600160a01b0393909316845291905290205460ff1690565b6103ec7f59abfac6520ec36a6556b2a4dd949cc40007459bcd5cd2507f1e5cc77b6bc97e81565b6103ec600081565b61047d61089a3660046156aa565b613a68565b6103ec6108ad366004615934565b61013760209081526000928352604080842090915290825290205481565b6103ec61013b5481565b6103ec61013a5481565b610132546109059074010000000000000000000000000000000000000000900460ff1681565b6040516103de9190615a18565b61047d610920366004615a59565b613df5565b6103ec610933366004615744565b613f0a565b6103ec61094636600461568d565b6101396020526000908152604090205481565b61047d61096736600461575d565b613f21565b61040e61097a366004615744565b613f47565b61047d61098d3660046157d3565b613f72565b61013f546103ec565b6103ec7fb19546dff01e856fb3f010c267a7b1c60363cf8a4664e21cc89c26224620214e81565b61047d6109d036600461568d565b6142b1565b6109e86109e3366004615744565b6145a8565b604080516001600160a01b0390931683526020830191909152016103de565b6101305461040e906001600160a01b031681565b60007fffffffff0000000000000000000000000000000000000000000000000000000082167f5a05180f000000000000000000000000000000000000000000000000000000001480610a715750610a71826145e1565b92915050565b61012d54600090610a90906001600160a01b0316614678565b6001600160a01b0316336001600160a01b03161480610ad5575061012d54610ac0906001600160a01b0316614685565b6001600160a01b0316336001600160a01b0316145b610b4c5760405162461bcd60e51b815260206004820152603560248201527f53656375726974697a6174696f6e506f6f6c3a204d75737420626520746f6b6560448201527f6e2069737375656420627920556e74616e676c6564000000000000000000000060648201526084015b60405180910390fd5b61013e6040518060400160405280610b613390565b6001600160a01b039081168252602091820187905283546001818101865560009586529483902084516002909202018054919092167fffffffffffffffffffffffff0000000000000000000000000000000000000000909116178155910151910155507f150b7a0200000000000000000000000000000000000000000000000000000000949350505050565b60335460ff1615610c405760405162461bcd60e51b815260206004820152601060248201527f5061757361626c653a20706175736564000000000000000000000000000000006044820152606401610b43565b600260655403610c925760405162461bcd60e51b815260206004820152601f60248201527f5265656e7472616e637947756172643a207265656e7472616e742063616c6c006044820152606401610b43565b600260655560005b81811015610f3d5761012d54610cb8906001600160a01b0316614692565b6001600160a01b03166384933c0c848484818110610cd857610cd8615a74565b9050602002016020810190610ced919061568d565b6040517fffffffff0000000000000000000000000000000000000000000000000000000060e084901b1681526001600160a01b039091166004820152602401602060405180830381865afa158015610d49573d6000803e3d6000fd5b505050506040513d601f19601f82011682018060405250810190610d6d9190615aa3565b610ddf5760405162461bcd60e51b815260206004820152602960248201527f53656375726974697a6174696f6e506f6f6c3a20756e6b6e6f776e2d746f6b6560448201527f6e2d6164647265737300000000000000000000000000000000000000000000006064820152608401610b43565b6000838383818110610df357610df3615a74565b9050602002016020810190610e08919061568d565b6040517f70a082310000000000000000000000000000000000000000000000000000000081523060048201526001600160a01b0391909116906370a0823190602401602060405180830381865afa158015610e67573d6000803e3d6000fd5b505050506040513d601f19601f82011682018060405250810190610e8b9190615ac5565b11610efe5760405162461bcd60e51b815260206004820152602960248201527f53656375726974697a6174696f6e506f6f6c3a20546f6b656e2062616c616e6360448201527f65206973207a65726f00000000000000000000000000000000000000000000006064820152608401610b43565b610f2d838383818110610f1357610f13615a74565b9050602002016020810190610f28919061568d565b61469f565b610f3681615b0d565b9050610c9a565b5050600160655550565b60335460ff1615610f9a5760405162461bcd60e51b815260206004820152601060248201527f5061757361626c653a20706175736564000000000000000000000000000000006044820152606401610b43565b610fa26131b7565b156110155760405162461bcd60e51b815260206004820152602860248201527f53656375726974697a6174696f6e506f6f6c3a20506f6f6c20696e20636c6f7360448201527f65642073746174650000000000000000000000000000000000000000000000006064820152608401610b43565b7fb19546dff01e856fb3f010c267a7b1c60363cf8a4664e21cc89c26224620214e611040813361474a565b8361104c876005615b27565b148015611062575081611060876004615b27565b145b6110d45760405162461bcd60e51b815260206004820152603860248201527f53656375726974697a6174696f6e506f6f6c3a205269736b73636f726520706160448201527f72616d73206c656e677468206973206e6f7420657175616c00000000000000006064820152608401610b43565b6110e161013d600061541c565b60005b868110156116095780158061115a57508787611101600184615b46565b81811061111057611110615a74565b90506020020160208101906111259190615a59565b63ffffffff1688888381811061113d5761113d615a74565b90506020020160208101906111529190615a59565b63ffffffff16115b6111cc5760405162461bcd60e51b815260206004820152602e60248201527f53656375726974697a6174696f6e506f6f6c3a205269736b2073636f7265732060448201527f6d75737420626520736f727465640000000000000000000000000000000000006064820152608401610b43565b61013d6040518061014001604052808a8a858181106111ed576111ed615a74565b90506020020160208101906112029190615a59565b63ffffffff16815260200188888581811061121f5761121f615a74565b90506020020160208101906112349190615a59565b63ffffffff168152602001888861124b8c87615b5d565b81811061125a5761125a615a74565b905060200201602081019061126f9190615a59565b63ffffffff16815260200188886112878c6002615b27565b6112919087615b5d565b8181106112a0576112a0615a74565b90506020020160208101906112b59190615a59565b63ffffffff16815260200188886112cd8c6003615b27565b6112d79087615b5d565b8181106112e6576112e6615a74565b90506020020160208101906112fb9190615a59565b63ffffffff16815260200188886113138c6004615b27565b61131d9087615b5d565b81811061132c5761132c615a74565b90506020020160208101906113419190615a59565b63ffffffff16815260200186868581811061135e5761135e615a74565b90506020020160208101906113739190615a59565b63ffffffff168152602001868661138a8c87615b5d565b81811061139957611399615a74565b90506020020160208101906113ae9190615a59565b63ffffffff16815260200186866113c68c6002615b27565b6113d09087615b5d565b8181106113df576113df615a74565b90506020020160208101906113f49190615a59565b63ffffffff168152602001868661140c8c6003615b27565b6114169087615b5d565b81811061142557611425615a74565b905060200201602081019061143a9190615a59565b63ffffffff16815250908060018154018082558091505060019003906000526020600020906002020160009091909190915060008201518160000160006101000a81548163ffffffff021916908363ffffffff16021790555060208201518160000160046101000a81548163ffffffff021916908363ffffffff16021790555060408201518160000160086101000a81548163ffffffff021916908363ffffffff160217905550606082015181600001600c6101000a81548163ffffffff021916908363ffffffff16021790555060808201518160000160106101000a81548163ffffffff021916908363ffffffff16021790555060a08201518160000160146101000a81548163ffffffff021916908363ffffffff16021790555060c08201518160000160186101000a81548163ffffffff021916908363ffffffff16021790555060e082015181600001601c6101000a81548163ffffffff021916908363ffffffff1602179055506101008201518160010160006101000a81548163ffffffff021916908363ffffffff1602179055506101208201518160010160046101000a81548163ffffffff021916908363ffffffff1602179055505050808061160190615b0d565b9150506110e4565b5050505050505050565b60335460ff16156116665760405162461bcd60e51b815260206004820152601060248201527f5061757361626c653a20706175736564000000000000000000000000000000006044820152606401610b43565b6002606554036116b85760405162461bcd60e51b815260206004820152601f60248201527f5265656e7472616e637947756172643a207265656e7472616e742063616c6c006044820152606401610b43565b60026065556116c56131b7565b156117385760405162461bcd60e51b815260206004820152602860248201527f53656375726974697a6174696f6e506f6f6c3a20506f6f6c20696e20636c6f7360448201527f65642073746174650000000000000000000000000000000000000000000000006064820152608401610b43565b7f59abfac6520ec36a6556b2a4dd949cc40007459bcd5cd2507f1e5cc77b6bc97e611763813361474a565b858414801561177157508382145b6117e35760405162461bcd60e51b815260206004820152602f60248201527f53656375726974697a6174696f6e506f6f6c3a20506172616d73206c656e677460448201527f6820617265206e6f7420657175616c00000000000000000000000000000000006064820152608401610b43565b60005b86811015611a585761012d54611804906001600160a01b0316614692565b6001600160a01b03166384933c0c89898481811061182457611824615a74565b9050602002016020810190611839919061568d565b6040517fffffffff0000000000000000000000000000000000000000000000000000000060e084901b1681526001600160a01b039091166004820152602401602060405180830381865afa158015611895573d6000803e3d6000fd5b505050506040513d601f19601f820116820180604052508101906118b99190615aa3565b61192b5760405162461bcd60e51b815260206004820152602960248201527f53656375726974697a6174696f6e506f6f6c3a20756e6b6e6f776e2d746f6b6560448201527f6e2d6164647265737300000000000000000000000000000000000000000000006064820152608401610b43565b87878281811061193d5761193d615a74565b9050602002016020810190611952919061568d565b6001600160a01b03166323b872dd87878481811061197257611972615a74565b9050602002016020810190611987919061568d565b3087878681811061199a5761199a615a74565b6040517fffffffff0000000000000000000000000000000000000000000000000000000060e088901b1681526001600160a01b039586166004820152949093166024850152506020909102013560448201526064016020604051808303816000875af1158015611a0e573d6000803e3d6000fd5b505050506040513d601f19601f82011682018060405250810190611a329190615aa3565b50611a48888883818110610f1357610f13615a74565b611a5181615b0d565b90506117e6565b50506001606555505050505050565b600082815260c96020526040902060010154611a83813361474a565b611a8d83836147e8565b505050565b60335460ff1615611ae55760405162461bcd60e51b815260206004820152601060248201527f5061757361626c653a20706175736564000000000000000000000000000000006044820152606401610b43565b61012d54611afb906001600160a01b031661480a565b6001600160a01b0316336001600160a01b031614611b815760405162461bcd60e51b815260206004820152602c60248201527f656375726974697a6174696f6e506f6f6c3a204f6e6c7920446973747269627560448201527f74696f6e4f70657261746f7200000000000000000000000000000000000000006064820152608401610b43565b6001600160a01b0380851660009081526101366020908152604080832093871683529290522054611bb3908390615b5d565b6001600160a01b038086166000818152610136602090815260408083209489168084529482528083209590955591815261013782528381209281529190522054611bfe908290615b5d565b6001600160a01b038086166000908152610137602090815260408083209388168352929052205561013454611c34908390615b5d565b610134556001600160a01b03841660009081526101356020526040902054611c5d908290615b5d565b6001600160a01b0390941660009081526101356020526040902093909355505050565b6001600160a01b0381163314611cfe5760405162461bcd60e51b815260206004820152602f60248201527f416363657373436f6e74726f6c3a2063616e206f6e6c792072656e6f756e636560448201527f20726f6c657320666f722073656c6600000000000000000000000000000000006064820152608401610b43565b611d088282614817565b5050565b60335460ff1615611d5f5760405162461bcd60e51b815260206004820152601060248201527f5061757361626c653a20706175736564000000000000000000000000000000006044820152606401610b43565b600260655403611db15760405162461bcd60e51b815260206004820152601f60248201527f5265656e7472616e637947756172643a207265656e7472616e742063616c6c006044820152606401610b43565b60026065557f59abfac6520ec36a6556b2a4dd949cc40007459bcd5cd2507f1e5cc77b6bc97e611de1813361474a565b60005b82811015611ea757856001600160a01b03166342842e0e8630878786818110611e0f57611e0f615a74565b6040517fffffffff0000000000000000000000000000000000000000000000000000000060e088901b1681526001600160a01b03958616600482015294909316602485015250602090910201356044820152606401600060405180830381600087803b158015611e7e57600080fd5b505af1158015611e92573d6000803e3d6000fd5b5050505080611ea090615b0d565b9050611de4565b5050600160655550505050565b60335460ff1615611f075760405162461bcd60e51b815260206004820152601060248201527f5061757361626c653a20706175736564000000000000000000000000000000006044820152606401610b43565b600260655403611f595760405162461bcd60e51b815260206004820152601f60248201527f5265656e7472616e637947756172643a207265656e7472616e742063616c6c006044820152606401610b43565b60026065557fb19546dff01e856fb3f010c267a7b1c60363cf8a4664e21cc89c26224620214e611f89813361474a565b858414611ffe5760405162461bcd60e51b815260206004820152603760248201527f746f6b656e416464726573736573206c656e67746820616e6420746f6b656e4960448201527f6473206c656e67746820617265206e6f7420657175616c0000000000000000006064820152608401610b43565b8582146120735760405162461bcd60e51b815260206004820152603960248201527f746f6b656e416464726573736573206c656e67746820616e642072656369706960448201527f656e7473206c656e67746820617265206e6f7420657175616c000000000000006064820152608401610b43565b60005b86811015611a5857610140600089898481811061209557612095615a74565b90506020020160208101906120aa919061568d565b6001600160a01b0316815260208101919091526040016000205460ff166121395760405162461bcd60e51b815260206004820152603360248201527f53656375726974697a6174696f6e506f6f6c3a206e6f746520746f6b656e206160448201527f7373657420646f6573206e6f74206578697374000000000000000000000000006064820152608401610b43565b87878281811061214b5761214b615a74565b9050602002016020810190612160919061568d565b6001600160a01b031663a9059cbb87878481811061218057612180615a74565b9050602002016020810190612195919061568d565b8686858181106121a7576121a7615a74565b6040517fffffffff0000000000000000000000000000000000000000000000000000000060e087901b1681526001600160a01b03909416600485015260200291909101356024830152506044016020604051808303816000875af1158015612213573d6000803e3d6000fd5b505050506040513d601f19601f820116820180604052508101906122379190615aa3565b5061224181615b0d565b9050612076565b6000612254813361474a565b61225c614839565b50565b60335460ff16156122b25760405162461bcd60e51b815260206004820152601060248201527f5061757361626c653a20706175736564000000000000000000000000000000006044820152606401610b43565b6002606554036123045760405162461bcd60e51b815260206004820152601f60248201527f5265656e7472616e637947756172643a207265656e7472616e742063616c6c006044820152606401610b43565b600260655561012d5461231f906001600160a01b03166148d5565b6001600160a01b0316336001600160a01b0316146123a55760405162461bcd60e51b815260206004820152602e60248201527f53656375726974697a6174696f6e506f6f6c3a204f6e6c79205365637572697460448201527f697a6174696f6e4d616e616765720000000000000000000000000000000000006064820152608401610b43565b60026101325474010000000000000000000000000000000000000000900460ff1660038111156123d7576123d76159e9565b14158015612415575060036101325474010000000000000000000000000000000000000000900460ff166003811115612412576124126159e9565b14155b6124615760405162461bcd60e51b815260206004820152601a60248201527f4e6f7420696e2069737375696e6720746f6b656e2073746167650000000000006044820152606401610b43565b6001600160a01b0383161580159061248157506001600160a01b03821615155b6124cd5760405162461bcd60e51b815260206004820181905260248201527f53656375726974697a6174696f6e506f6f6c3a2041646472657373207a65726f6044820152606401610b43565b60008160018111156124e1576124e16159e9565b036125355761012e80546001600160a01b038086167fffffffffffffffffffffffff000000000000000000000000000000000000000092831617909255610130805492851692909116919091179055612580565b61012f80546001600160a01b038086167fffffffffffffffffffffffff0000000000000000000000000000000000000000928316179092556101318054928516929091169190911790555b505061013280547fffffffffffffffffffffff00ffffffffffffffffffffffffffffffffffffffff1674010000000000000000000000000000000000000000179055506001606555565b60335460ff161561261d5760405162461bcd60e51b815260206004820152601060248201527f5061757361626c653a20706175736564000000000000000000000000000000006044820152606401610b43565b60026065540361266f5760405162461bcd60e51b815260206004820152601f60248201527f5265656e7472616e637947756172643a207265656e7472616e742063616c6c006044820152606401610b43565b600260655561012d5461268a906001600160a01b03166148e2565b6001600160a01b0316336001600160a01b0316146127105760405162461bcd60e51b815260206004820152603660248201527f53656375726974697a6174696f6e506f6f6c3a2043616c6c6572206d7573742060448201527f626520446973747269627574696f6e5472616e636865000000000000000000006064820152608401610b43565b801561278a576040517f42966c68000000000000000000000000000000000000000000000000000000008152600481018290526001600160a01b038416906342966c6890602401600060405180830381600087803b15801561277157600080fd5b505af1158015612785573d6000803e3d6000fd5b505050505b61013254610142546040517f23b872dd0000000000000000000000000000000000000000000000000000000081526001600160a01b0391821660048201528682166024820152604481018590529116906323b872dd906064016020604051808303816000875af1158015612802573d6000803e3d6000fd5b505050506040513d601f19601f820116820180604052508101906128269190615aa3565b6128985760405162461bcd60e51b815260206004820152602c60248201527f53656375726974697a6174696f6e506f6f6c3a2063757272656e63792d74726160448201527f6e736665722d6661696c656400000000000000000000000000000000000000006064820152608401610b43565b610130546001600160a01b038085169116036128dd576001600160a01b03841660009081526101416020526040812080548492906128d7908490615b5d565b90915550505b505060016065555050565b60335460ff161561293b5760405162461bcd60e51b815260206004820152601060248201527f5061757361626c653a20706175736564000000000000000000000000000000006044820152606401610b43565b60026065540361298d5760405162461bcd60e51b815260206004820152601f60248201527f5265656e7472616e637947756172643a207265656e7472616e742063616c6c006044820152606401610b43565b600260655561012d546129a8906001600160a01b031661480a565b6001600160a01b0316336001600160a01b031614612a2e5760405162461bcd60e51b815260206004820152602c60248201527f656375726974697a6174696f6e506f6f6c3a204f6e6c7920446973747269627560448201527f74696f6e4f70657261746f7200000000000000000000000000000000000000006064820152608401610b43565b6001600160a01b0380851660009081526101366020908152604080832093871683529290522054612a60908390615b46565b6001600160a01b038086166000818152610136602090815260408083209489168084529482528083209590955591815261013782528381209281529190522054612aab908290615b46565b6001600160a01b038086166000908152610137602090815260408083209388168352929052205561013454612ae1908390615b46565b610134556001600160a01b03841660009081526101356020526040902054612b0a908290615b46565b6001600160a01b03909416600090815261013560205260409020939093555050600160655550565b606061013f805480602002602001604051908101604052809291908181526020018280548015612b8b57602002820191906000526020600020905b81546001600160a01b03168152600190910190602001808311612b6d575b5050505050905090565b61013d8181548110612ba657600080fd5b60009182526020909120600290910201805460019091015463ffffffff80831693506401000000008084048216936801000000000000000081048316936c0100000000000000000000000082048416937001000000000000000000000000000000008304811693740100000000000000000000000000000000000000008404821693780100000000000000000000000000000000000000000000000081048316937c010000000000000000000000000000000000000000000000000000000090910483169281811692909104168a565b600054610100900460ff16612c915760005460ff1615612c95565b303b155b612d075760405162461bcd60e51b815260206004820152602e60248201527f496e697469616c697a61626c653a20636f6e747261637420697320616c72656160448201527f647920696e697469616c697a65640000000000000000000000000000000000006064820152608401610b43565b600054610100900460ff16158015612d4657600080547fffffffffffffffffffffffffffffffffffffffffffffffffffffffffffff0000166101011790555b612d4f336148ef565b612d997f59abfac6520ec36a6556b2a4dd949cc40007459bcd5cd2507f1e5cc77b6bc97e7fb19546dff01e856fb3f010c267a7b1c60363cf8a4664e21cc89c26224620214e614975565b61012d80547fffffffffffffffffffffffff00000000000000000000000000000000000000009081166001600160a01b03878116919091179092556101428054309216821790556040517f095ea7b3000000000000000000000000000000000000000000000000000000008152600481019190915260001960248201529084169063095ea7b3906044016020604051808303816000875af1158015612e42573d6000803e3d6000fd5b505050506040513d601f19601f82011682018060405250810190612e669190615aa3565b5061012d54612e7d906001600160a01b0316614685565b61012d546001600160a01b039182169163a22cb46591612e9d91166149c0565b6040517fffffffff0000000000000000000000000000000000000000000000000000000060e084901b1681526001600160a01b03909116600482015260016024820152604401600060405180830381600087803b158015612efd57600080fd5b505af1158015612f11573d6000803e3d6000fd5b505061013280547fffffffffffffffffffffff000000000000000000000000000000000000000000166001600160a01b038716179055505061013c80547fffffffffffffffffffffffffffffffffffffffffffffffff00000000ffffffff1664010000000063ffffffff8516021790558015612fb057600080547fffffffffffffffffffffffffffffffffffffffffffffffffffffffffffff00ff1690555b50505050565b610130546000906001600160a01b0316156130b55761013060009054906101000a90046001600160a01b03166001600160a01b03166318160ddd6040518163ffffffff1660e01b8152600401602060405180830381865afa15801561301f573d6000803e3d6000fd5b505050506040513d601f19601f820116820180604052508101906130439190615ac5565b156130b55760405162461bcd60e51b8152602060048201526024808201527f53656375726974697a6174696f6e506f6f6c3a20534f54207374696c6c20726560448201527f6d61696e000000000000000000000000000000000000000000000000000000006064820152608401610b43565b610131546001600160a01b0316156131b15761013160009054906101000a90046001600160a01b03166001600160a01b03166318160ddd6040518163ffffffff1660e01b8152600401602060405180830381865afa15801561311b573d6000803e3d6000fd5b505050506040513d601f19601f8201168201806040525081019061313f9190615ac5565b156131b15760405162461bcd60e51b8152602060048201526024808201527f53656375726974697a6174696f6e506f6f6c3a204a4f54207374696c6c20726560448201527f6d61696e000000000000000000000000000000000000000000000000000000006064820152608401610b43565b50600190565b600060036101325474010000000000000000000000000000000000000000900460ff1660038111156131eb576131eb6159e9565b14905090565b60335460ff16156132445760405162461bcd60e51b815260206004820152601060248201527f5061757361626c653a20706175736564000000000000000000000000000000006044820152606401610b43565b6002606554036132965760405162461bcd60e51b815260206004820152601f60248201527f5265656e7472616e637947756172643a207265656e7472616e742063616c6c006044820152606401610b43565b60026065557fb19546dff01e856fb3f010c267a7b1c60363cf8a4664e21cc89c26224620214e6132c6813361474a565b60026101325474010000000000000000000000000000000000000000900460ff1660038111156132f8576132f86159e9565b14158015613336575060036101325474010000000000000000000000000000000000000000900460ff166003811115613333576133336159e9565b14155b6133825760405162461bcd60e51b815260206004820152601a60248201527f4e6f7420696e2069737375696e6720746f6b656e2073746167650000000000006044820152606401610b43565b61012e546001600160a01b0316156135265761012e54604080517fb3f05b9700000000000000000000000000000000000000000000000000000000815290516001600160a01b0390921691829163b3f05b979160048083019260209291908290030181865afa1580156133f9573d6000803e3d6000fd5b505050506040513d601f19601f8201168201806040525081019061341d9190615aa3565b61348f5760405162461bcd60e51b815260206004820152602a60248201527f53656375726974697a6174696f6e506f6f6c3a2073616c65206973207374696c60448201527f6c206f6e20676f696e67000000000000000000000000000000000000000000006064820152608401610b43565b61012e546040517fa38a52a600000000000000000000000000000000000000000000000000000000815263ffffffff8616600482015267ffffffffffffffff8089166024830152851660448201526001600160a01b039091169063a38a52a690606401600060405180830381600087803b15801561350c57600080fd5b505af1158015613520573d6000803e3d6000fd5b50505050505b61012f546001600160a01b0316156136225761012f60009054906101000a90046001600160a01b03166001600160a01b031663b3f05b976040518163ffffffff1660e01b8152600401602060405180830381865afa15801561358c573d6000803e3d6000fd5b505050506040513d601f19601f820116820180604052508101906135b09190615aa3565b6136225760405162461bcd60e51b815260206004820152603160248201527f53656375726974697a6174696f6e506f6f6c3a207365636f6e642073616c652060448201527f6973207374696c6c206f6e20676f696e670000000000000000000000000000006064820152608401610b43565b60008567ffffffffffffffff16116136a15760405162461bcd60e51b8152602060048201526024808201527f53656375726974697a6174696f6e506f6f6c3a205465726d206c656e6774682060448201527f69732030000000000000000000000000000000000000000000000000000000006064820152608401610b43565b61013280547fffffff0000000000000000ffffffffffffffffffffffffffffffffffffffffff16750100000000000000000000000000000000000000000067ffffffffffffffff858116919091029190911790915561013380547fffffffffffffffffffffffffffffffffffffffffffffffff00000000000000001691871691909117905561013a84905561013c5463ffffffff1660000361376f5761013c80547fffffffffffffffffffffffffffffffffffffffffffffffffffffffff000000001663ffffffff85161790555b505061013280547fffffffffffffffffffffff00ffffffffffffffffffffffffffffffffffffffff16740200000000000000000000000000000000000000001790555050600160655550565b60006137c7813361474a565b61225c6149cd565b60335460ff16156138225760405162461bcd60e51b815260206004820152601060248201527f5061757361626c653a20706175736564000000000000000000000000000000006044820152606401610b43565b6002606554036138745760405162461bcd60e51b815260206004820152601f60248201527f5265656e7472616e637947756172643a207265656e7472616e742063616c6c006044820152606401610b43565b60026065557fb19546dff01e856fb3f010c267a7b1c60363cf8a4664e21cc89c26224620214e6138a4813361474a565b6138ac612fb6565b61391e5760405162461bcd60e51b815260206004820152602f60248201527f53656375726974697a6174696f6e506f6f6c3a20526564656d7074696f6e206860448201527f6173206e6f742066696e697368656400000000000000000000000000000000006064820152608401610b43565b61013254610142546040517f70a082310000000000000000000000000000000000000000000000000000000081526001600160a01b0391821660048201819052919092169182916323b872dd91869084906370a0823190602401602060405180830381865afa158015613995573d6000803e3d6000fd5b505050506040513d601f19601f820116820180604052508101906139b99190615ac5565b6040517fffffffff0000000000000000000000000000000000000000000000000000000060e086901b1681526001600160a01b03938416600482015292909116602483015260448201526064016020604051808303816000875af1158015613a25573d6000803e3d6000fd5b505050506040513d601f19601f820116820180604052508101906128dd9190615aa3565b600082815260fb60205260408120613a619083614a55565b9392505050565b60335460ff1615613abb5760405162461bcd60e51b815260206004820152601060248201527f5061757361626c653a20706175736564000000000000000000000000000000006044820152606401610b43565b600260655403613b0d5760405162461bcd60e51b815260206004820152601f60248201527f5265656e7472616e637947756172643a207265656e7472616e742063616c6c006044820152606401610b43565b60026065557fb19546dff01e856fb3f010c267a7b1c60363cf8a4664e21cc89c26224620214e613b3d813361474a565b858414613bb25760405162461bcd60e51b815260206004820152603760248201527f746f6b656e416464726573736573206c656e67746820616e6420746f6b656e4960448201527f6473206c656e67746820617265206e6f7420657175616c0000000000000000006064820152608401610b43565b858214613c275760405162461bcd60e51b815260206004820152603960248201527f746f6b656e416464726573736573206c656e67746820616e642072656369706960448201527f656e7473206c656e67746820617265206e6f7420657175616c000000000000006064820152608401610b43565b60005b84811015611a5857613c7a888883818110613c4757613c47615a74565b9050602002016020810190613c5c919061568d565b878784818110613c6e57613c6e615a74565b90506020020135614a61565b613cec5760405162461bcd60e51b815260206004820152602860248201527f53656375726974697a6174696f6e506f6f6c3a20417373657420646f6573206e60448201527f6f742065786973740000000000000000000000000000000000000000000000006064820152608401610b43565b878782818110613cfe57613cfe615a74565b9050602002016020810190613d13919061568d565b6001600160a01b03166342842e0e30868685818110613d3457613d34615a74565b9050602002016020810190613d49919061568d565b898986818110613d5b57613d5b615a74565b6040517fffffffff0000000000000000000000000000000000000000000000000000000060e088901b1681526001600160a01b03958616600482015294909316602485015250602090910201356044820152606401600060405180830381600087803b158015613dca57600080fd5b505af1158015613dde573d6000803e3d6000fd5b505050508080613ded90615b0d565b915050613c2a565b60335460ff1615613e485760405162461bcd60e51b815260206004820152601060248201527f5061757361626c653a20706175736564000000000000000000000000000000006044820152606401610b43565b61012e546001600160a01b0316336001600160a01b031614613ed25760405162461bcd60e51b815260206004820152603060248201527f53656375726974697a6174696f6e506f6f6c3a204f6e6c79207467652063616e60448201527f2075706461746520696e746572657374000000000000000000000000000000006064820152608401610b43565b61013c80547fffffffffffffffffffffffffffffffffffffffffffffffffffffffff000000001663ffffffff92909216919091179055565b600081815260fb60205260408120610a7190614b0d565b600082815260c96020526040902060010154613f3d813361474a565b611a8d8383614817565b61013f8181548110613f5857600080fd5b6000918252602090912001546001600160a01b0316905081565b60335460ff1615613fc55760405162461bcd60e51b815260206004820152601060248201527f5061757361626c653a20706175736564000000000000000000000000000000006044820152606401610b43565b6002606554036140175760405162461bcd60e51b815260206004820152601f60248201527f5265656e7472616e637947756172643a207265656e7472616e742063616c6c006044820152606401610b43565b60026065556140246131b7565b156140975760405162461bcd60e51b815260206004820152602860248201527f53656375726974697a6174696f6e506f6f6c3a20506f6f6c20696e20636c6f7360448201527f65642073746174650000000000000000000000000000000000000000000000006064820152608401610b43565b7fb19546dff01e856fb3f010c267a7b1c60363cf8a4664e21cc89c26224620214e6140c2813361474a565b60005b82811015611ea7576140e386858584818110613c6e57613c6e615a74565b6141555760405162461bcd60e51b815260206004820152602860248201527f53656375726974697a6174696f6e506f6f6c3a20417373657420646f6573206e60448201527f6f742065786973740000000000000000000000000000000000000000000000006064820152608401610b43565b856001600160a01b031663095ea7b38686868581811061417757614177615a74565b6040517fffffffff0000000000000000000000000000000000000000000000000000000060e087901b1681526001600160a01b0390941660048501526020029190910135602483015250604401600060405180830381600087803b1580156141de57600080fd5b505af11580156141f2573d6000803e3d6000fd5b50505050856001600160a01b03166342842e0e308787878681811061421957614219615a74565b6040517fffffffff0000000000000000000000000000000000000000000000000000000060e088901b1681526001600160a01b03958616600482015294909316602485015250602090910201356044820152606401600060405180830381600087803b15801561428857600080fd5b505af115801561429c573d6000803e3d6000fd5b50505050806142aa90615b0d565b90506140c5565b60335460ff16156143045760405162461bcd60e51b815260206004820152601060248201527f5061757361626c653a20706175736564000000000000000000000000000000006044820152606401610b43565b6002606554036143565760405162461bcd60e51b815260206004820152601f60248201527f5265656e7472616e637947756172643a207265656e7472616e742063616c6c006044820152606401610b43565b60026065556143636131b7565b156143d65760405162461bcd60e51b815260206004820152602860248201527f53656375726974697a6174696f6e506f6f6c3a20506f6f6c20696e20636c6f7360448201527f65642073746174650000000000000000000000000000000000000000000000006064820152608401610b43565b7fb19546dff01e856fb3f010c267a7b1c60363cf8a4664e21cc89c26224620214e614401813361474a565b6001600160a01b03821660009081527f8b9c60e99117f5032802dca1150f0b5e8c20c85aaaf9b6948c204e6687095705602052604090205460ff161561444657600080fd5b610142546001600160a01b038084169116036144ca5760405162461bcd60e51b815260206004820152603160248201527f53656375726974697a6174696f6e506f6f6c3a2053616d65206164647265737360448201527f20776974682063757272656e7420706f740000000000000000000000000000006064820152608401610b43565b61014280547fffffffffffffffffffffffff0000000000000000000000000000000000000000166001600160a01b03841690811790915530900361459f5761013254610142546040517f095ea7b30000000000000000000000000000000000000000000000000000000081526001600160a01b039182166004820152600019602482015291169063095ea7b3906044016020604051808303816000875af1158015614579573d6000803e3d6000fd5b505050506040513d601f19601f8201168201806040525081019061459d9190615aa3565b505b50506001606555565b61013e81815481106145b957600080fd5b6000918252602090912060029091020180546001909101546001600160a01b03909116915082565b60007fffffffff0000000000000000000000000000000000000000000000000000000082167f7965db0b000000000000000000000000000000000000000000000000000000001480610a7157507f01ffc9a7000000000000000000000000000000000000000000000000000000007fffffffff00000000000000000000000000000000000000000000000000000000831614610a71565b6000610a71826008614b17565b6000610a71826007614b17565b6000610a71826002614b17565b6001600160a01b0381166000908152610140602052604090205460ff166147255761013f80546001810182556000919091527f61537fc21ace3653481170484f792538e1b4bc282f58b619d975a553f7077a760180547fffffffffffffffffffffffff0000000000000000000000000000000000000000166001600160a01b0383161790555b6001600160a01b0316600090815261014060205260409020805460ff19166001179055565b600082815260c9602090815260408083206001600160a01b038516845290915290205460ff16611d0857614788816001600160a01b03166014614bb4565b614793836020614bb4565b6040516020016147a4929190615ba1565b604080517fffffffffffffffffffffffffffffffffffffffffffffffffffffffffffffffe08184030181529082905262461bcd60e51b8252610b4391600401615c22565b6147f28282614ddd565b600082815260fb60205260409020611a8d9082614e7f565b6000610a71826004614b17565b6148218282614e94565b600082815260fb60205260409020611a8d9082614f17565b60335460ff1661488b5760405162461bcd60e51b815260206004820152601460248201527f5061757361626c653a206e6f74207061757365640000000000000000000000006044820152606401610b43565b6033805460ff191690557f5db9ee0a495bf2e6ff9c91a7834c1ba4fdd244a5e8aa4e537bd38aeae4b073aa335b6040516001600160a01b03909116815260200160405180910390a1565b6000610a71826000614b17565b6000610a71826006614b17565b600054610100900460ff1661496c5760405162461bcd60e51b815260206004820152602b60248201527f496e697469616c697a61626c653a20636f6e7472616374206973206e6f74206960448201527f6e697469616c697a696e670000000000000000000000000000000000000000006064820152608401610b43565b61225c81614f2c565b600082815260c96020526040808220600101805490849055905190918391839186917fbd79b86ffe0ab8e8776151514217cd7cacd52c909f66475c3af44e129f0b00ff9190a4505050565b6000610a7182600c614b17565b60335460ff1615614a205760405162461bcd60e51b815260206004820152601060248201527f5061757361626c653a20706175736564000000000000000000000000000000006044820152606401610b43565b6033805460ff191660011790557f62e78cea01bee320cd4e420270b5ea74000d11b0c9f74754ebdbfc544b05a2586148b83390565b6000613a618383615031565b6000805b61013e54811015614b0357836001600160a01b031661013e8281548110614a8e57614a8e615a74565b60009182526020909120600290910201546001600160a01b0316148015614ad957508261013e8281548110614ac557614ac5615a74565b906000526020600020906002020160010154145b15614af157614ae78161505b565b6001915050610a71565b80614afb81615b0d565b915050614a65565b5060009392505050565b6000610a71825490565b6000826001600160a01b031663bcaa0c5583601e811115614b3a57614b3a6159e9565b6040517fffffffff0000000000000000000000000000000000000000000000000000000060e084901b16815260ff9091166004820152602401602060405180830381865afa158015614b90573d6000803e3d6000fd5b505050506040513d601f19601f82011682018060405250810190613a619190615c73565b60606000614bc3836002615b27565b614bce906002615b5d565b67ffffffffffffffff811115614be657614be66154d2565b6040519080825280601f01601f191660200182016040528015614c10576020820181803683370190505b5090507f300000000000000000000000000000000000000000000000000000000000000081600081518110614c4757614c47615a74565b60200101907effffffffffffffffffffffffffffffffffffffffffffffffffffffffffffff1916908160001a9053507f780000000000000000000000000000000000000000000000000000000000000081600181518110614caa57614caa615a74565b60200101907effffffffffffffffffffffffffffffffffffffffffffffffffffffffffffff1916908160001a9053506000614ce6846002615b27565b614cf1906001615b5d565b90505b6001811115614d8e577f303132333435363738396162636465660000000000000000000000000000000085600f1660108110614d3257614d32615a74565b1a60f81b828281518110614d4857614d48615a74565b60200101907effffffffffffffffffffffffffffffffffffffffffffffffffffffffffffff1916908160001a90535060049490941c93614d8781615c90565b9050614cf4565b508315613a615760405162461bcd60e51b815260206004820181905260248201527f537472696e67733a20686578206c656e67746820696e73756666696369656e746044820152606401610b43565b600082815260c9602090815260408083206001600160a01b038516845290915290205460ff16611d0857600082815260c9602090815260408083206001600160a01b03851684529091529020805460ff19166001179055614e3b3390565b6001600160a01b0316816001600160a01b0316837f2f8788117e7eff1d82e926ec794901d17c78024a50270940304540a733656f0d60405160405180910390a45050565b6000613a61836001600160a01b038416615144565b600082815260c9602090815260408083206001600160a01b038516845290915290205460ff1615611d0857600082815260c9602090815260408083206001600160a01b0385168085529252808320805460ff1916905551339285917ff6391f5c32d9c69d2a47ea670b442974b53935d1edc7fd64eb21e047a839171b9190a45050565b6000613a61836001600160a01b038416615193565b600054610100900460ff16614fa95760405162461bcd60e51b815260206004820152602b60248201527f496e697469616c697a61626c653a20636f6e7472616374206973206e6f74206960448201527f6e697469616c697a696e670000000000000000000000000000000000000000006064820152608401610b43565b614fb1615286565b614fb961530f565b614fc1615393565b6001600160a01b038116614fd25750335b614fdd600082615412565b6150077fb19546dff01e856fb3f010c267a7b1c60363cf8a4664e21cc89c26224620214e82615412565b61225c7fb19546dff01e856fb3f010c267a7b1c60363cf8a4664e21cc89c26224620214e80614975565b600082600001828154811061504857615048615a74565b9060005260206000200154905092915050565b61013e805461506c90600190615b46565b8154811061507c5761507c615a74565b906000526020600020906002020161013e828154811061509e5761509e615a74565b60009182526020909120825460029092020180547fffffffffffffffffffffffff0000000000000000000000000000000000000000166001600160a01b0390921691909117815560019182015491015561013e80548061510057615100615ca7565b60008281526020812060026000199093019283020180547fffffffffffffffffffffffff000000000000000000000000000000000000000016815560010155905550565b600081815260018301602052604081205461518b57508154600181810184556000848152602080822090930184905584548482528286019093526040902091909155610a71565b506000610a71565b6000818152600183016020526040812054801561527c5760006151b7600183615b46565b85549091506000906151cb90600190615b46565b90508181146152305760008660000182815481106151eb576151eb615a74565b906000526020600020015490508087600001848154811061520e5761520e615a74565b6000918252602080832090910192909255918252600188019052604090208390555b855486908061524157615241615ca7565b600190038181906000526020600020016000905590558560010160008681526020019081526020016000206000905560019350505050610a71565b6000915050610a71565b600054610100900460ff166153035760405162461bcd60e51b815260206004820152602b60248201527f496e697469616c697a61626c653a20636f6e7472616374206973206e6f74206960448201527f6e697469616c697a696e670000000000000000000000000000000000000000006064820152608401610b43565b6033805460ff19169055565b600054610100900460ff1661538c5760405162461bcd60e51b815260206004820152602b60248201527f496e697469616c697a61626c653a20636f6e7472616374206973206e6f74206960448201527f6e697469616c697a696e670000000000000000000000000000000000000000006064820152608401610b43565b6001606555565b600054610100900460ff166154105760405162461bcd60e51b815260206004820152602b60248201527f496e697469616c697a61626c653a20636f6e7472616374206973206e6f74206960448201527f6e697469616c697a696e670000000000000000000000000000000000000000006064820152608401610b43565b565b611d0882826147e8565b508054600082556002029060005260206000209081019061225c91905b8082111561547757600081556001810180547fffffffffffffffffffffffffffffffffffffffffffffffff0000000000000000169055600201615439565b5090565b60006020828403121561548d57600080fd5b81357fffffffff0000000000000000000000000000000000000000000000000000000081168114613a6157600080fd5b6001600160a01b038116811461225c57600080fd5b7f4e487b7100000000000000000000000000000000000000000000000000000000600052604160045260246000fd5b6000806000806080858703121561551757600080fd5b8435615522816154bd565b93506020850135615532816154bd565b925060408501359150606085013567ffffffffffffffff8082111561555657600080fd5b818701915087601f83011261556a57600080fd5b81358181111561557c5761557c6154d2565b604051601f82017fffffffffffffffffffffffffffffffffffffffffffffffffffffffffffffffe0908116603f011681019083821181831017156155c2576155c26154d2565b816040528281528a60208487010111156155db57600080fd5b82602086016020830137600060208483010152809550505050505092959194509250565b60008083601f84011261561157600080fd5b50813567ffffffffffffffff81111561562957600080fd5b6020830191508360208260051b850101111561564457600080fd5b9250929050565b6000806020838503121561565e57600080fd5b823567ffffffffffffffff81111561567557600080fd5b615681858286016155ff565b90969095509350505050565b60006020828403121561569f57600080fd5b8135613a61816154bd565b600080600080600080606087890312156156c357600080fd5b863567ffffffffffffffff808211156156db57600080fd5b6156e78a838b016155ff565b9098509650602089013591508082111561570057600080fd5b61570c8a838b016155ff565b9096509450604089013591508082111561572557600080fd5b5061573289828a016155ff565b979a9699509497509295939492505050565b60006020828403121561575657600080fd5b5035919050565b6000806040838503121561577057600080fd5b823591506020830135615782816154bd565b809150509250929050565b600080600080608085870312156157a357600080fd5b84356157ae816154bd565b935060208501356157be816154bd565b93969395505050506040820135916060013590565b600080600080606085870312156157e957600080fd5b84356157f4816154bd565b93506020850135615804816154bd565b9250604085013567ffffffffffffffff81111561582057600080fd5b61582c878288016155ff565b95989497509550505050565b60008060006060848603121561584d57600080fd5b8335615858816154bd565b92506020840135615868816154bd565b915060408401356002811061587c57600080fd5b809150509250925092565b6020808252825182820181905260009190848201906040850190845b818110156158c85783516001600160a01b0316835292840192918401916001016158a3565b50909695505050505050565b803563ffffffff811681146158e857600080fd5b919050565b60008060006060848603121561590257600080fd5b833561590d816154bd565b9250602084013561591d816154bd565b915061592b604085016158d4565b90509250925092565b6000806040838503121561594757600080fd5b8235615952816154bd565b91506020830135615782816154bd565b803567ffffffffffffffff811681146158e857600080fd5b6000806000806080858703121561599057600080fd5b61599985615962565b9350602085013592506159ae604086016158d4565b91506159bc60608601615962565b905092959194509250565b600080604083850312156159da57600080fd5b50508035926020909101359150565b7f4e487b7100000000000000000000000000000000000000000000000000000000600052602160045260246000fd5b6020810160048310615a53577f4e487b7100000000000000000000000000000000000000000000000000000000600052602160045260246000fd5b91905290565b600060208284031215615a6b57600080fd5b613a61826158d4565b7f4e487b7100000000000000000000000000000000000000000000000000000000600052603260045260246000fd5b600060208284031215615ab557600080fd5b81518015158114613a6157600080fd5b600060208284031215615ad757600080fd5b5051919050565b7f4e487b7100000000000000000000000000000000000000000000000000000000600052601160045260246000fd5b60006000198203615b2057615b20615ade565b5060010190565b6000816000190483118215151615615b4157615b41615ade565b500290565b600082821015615b5857615b58615ade565b500390565b60008219821115615b7057615b70615ade565b500190565b60005b83811015615b90578181015183820152602001615b78565b83811115612fb05750506000910152565b7f416363657373436f6e74726f6c3a206163636f756e7420000000000000000000815260008351615bd9816017850160208801615b75565b7f206973206d697373696e6720726f6c65200000000000000000000000000000006017918401918201528351615c16816028840160208801615b75565b01602801949350505050565b6020815260008251806020840152615c41816040850160208701615b75565b601f017fffffffffffffffffffffffffffffffffffffffffffffffffffffffffffffffe0169190910160400192915050565b600060208284031215615c8557600080fd5b8151613a61816154bd565b600081615c9f57615c9f615ade565b506000190190565b7f4e487b7100000000000000000000000000000000000000000000000000000000600052603160045260246000fdfea2646970667358221220d99b0354c3155d7fbff2d1cef5c9e65dccd54940cd400705b94a5b78e0aecb0464736f6c634300080d0033"
}