{
  "address": "0x5cd1833E15952A8347C6C094d525388664509fcc",
  "abi": [
    {
      "inputs": [],
      "stateMutability": "nonpayable",
      "type": "constructor"
    },
    {
      "anonymous": false,
      "inputs": [
        {
          "indexed": false,
          "internalType": "uint8",
          "name": "version",
          "type": "uint8"
        }
      ],
      "name": "Initialized",
      "type": "event"
    },
    {
      "anonymous": false,
      "inputs": [
        {
          "indexed": false,
          "internalType": "address",
          "name": "registry",
          "type": "address"
        }
      ],
      "name": "UpdateRegistry",
      "type": "event"
    },
    {
      "stateMutability": "payable",
      "type": "fallback"
    },
    {
      "inputs": [
        {
          "internalType": "bytes4",
          "name": "",
          "type": "bytes4"
        }
      ],
      "name": "delegates",
      "outputs": [
        {
          "internalType": "address",
          "name": "",
          "type": "address"
        }
      ],
      "stateMutability": "view",
      "type": "function"
    },
    {
      "inputs": [
        {
          "internalType": "address",
          "name": "",
          "type": "address"
        },
        {
          "internalType": "uint256",
          "name": "",
          "type": "uint256"
        }
      ],
      "name": "extensionSignatures",
      "outputs": [
        {
          "internalType": "bytes4",
          "name": "",
          "type": "bytes4"
        }
      ],
      "stateMutability": "view",
      "type": "function"
    },
    {
      "inputs": [
        {
          "internalType": "uint256",
          "name": "",
          "type": "uint256"
        }
      ],
      "name": "extensions",
      "outputs": [
        {
          "internalType": "address",
          "name": "",
          "type": "address"
        }
      ],
      "stateMutability": "view",
      "type": "function"
    },
    {
      "inputs": [],
      "name": "extensionsLength",
      "outputs": [
        {
          "internalType": "uint256",
          "name": "",
          "type": "uint256"
        }
      ],
      "stateMutability": "view",
      "type": "function"
    },
    {
      "inputs": [
        {
          "internalType": "contract Registry",
          "name": "registry_",
          "type": "address"
        },
        {
          "internalType": "bytes",
          "name": "params",
          "type": "bytes"
        }
      ],
      "name": "initialize",
      "outputs": [],
      "stateMutability": "nonpayable",
      "type": "function"
    },
    {
      "inputs": [],
      "name": "original",
      "outputs": [
        {
          "internalType": "address",
          "name": "",
          "type": "address"
        }
      ],
      "stateMutability": "view",
      "type": "function"
    },
    {
      "inputs": [
        {
          "internalType": "address",
          "name": "ext",
          "type": "address"
        }
      ],
      "name": "registerExtension",
      "outputs": [],
      "stateMutability": "nonpayable",
      "type": "function"
    },
    {
      "inputs": [],
      "name": "registry",
      "outputs": [
        {
          "internalType": "contract Registry",
          "name": "",
          "type": "address"
        }
      ],
      "stateMutability": "view",
      "type": "function"
    },
    {
      "inputs": [
        {
          "internalType": "bytes4",
          "name": "interfaceId",
          "type": "bytes4"
        }
      ],
      "name": "supportsInterface",
      "outputs": [
        {
          "internalType": "bool",
          "name": "",
          "type": "bool"
        }
      ],
      "stateMutability": "view",
      "type": "function"
    },
    {
      "stateMutability": "payable",
      "type": "receive"
    }
  ],
  "transactionHash": "0xb9cf9b173c16fac0c2ae52566ee482cf8b54d3ae7459212793a68082a084b9b2",
  "args": [],
  "numDeployments": 7,
  "solcInputHash": "737aea05552aab20affa64dbb7ce9a79",
  "bytecode": "0x608060405234801561001057600080fd5b50603380546001600160a01b0319163017905561139c806100326000396000f3fe60806040526004361061008a5760003560e01c8063a0a2daf011610059578063a0a2daf01461023f578063d1f5789414610275578063db85d59c14610295578063de420d7c146102b5578063fc5b5c64146102d557610091565b806301ffc9a71461019f5780630563aae5146101d457806346c715fa146101f25780637b1039991461022a57610091565b3661009157005b603354604051630a0a2daf60e41b8152600080356001600160e01b0319166004830152916001600160a01b03169063a0a2daf090602401602060405180830381865afa1580156100e5573d6000803e3d6000fd5b505050506040513d601f19601f820116820180604052508101906101099190610f5d565b90506001600160a01b03811615156101208261030e565b61013060003560e01c602061032a565b604051602001610141929190610f9e565b604051602081830303815290604052906101775760405162461bcd60e51b815260040161016e919061103b565b60405180910390fd5b5060405136600082376000803683855af43d806000843e818015610199578184f35b8184fd5b005b3480156101ab57600080fd5b506101bf6101ba366004611064565b6104cd565b60405190151581526020015b60405180910390f35b3480156101e057600080fd5b506034546040519081526020016101cb565b3480156101fe57600080fd5b50603354610212906001600160a01b031681565b6040516001600160a01b0390911681526020016101cb565b34801561023657600080fd5b506102126105ff565b34801561024b57600080fd5b5061021261025a366004611064565b6035602052600090815260409020546001600160a01b031681565b34801561028157600080fd5b5061019d6102903660046110c8565b610632565b3480156102a157600080fd5b506102126102b0366004611170565b6108e7565b3480156102c157600080fd5b5061019d6102d0366004611189565b610911565b3480156102e157600080fd5b506102f56102f03660046111a6565b610977565b6040516001600160e01b031990911681526020016101cb565b60606103246001600160a01b038316601461032a565b92915050565b606060006103398360026111e8565b6103449060026111ff565b67ffffffffffffffff81111561035c5761035c611081565b6040519080825280601f01601f191660200182016040528015610386576020820181803683370190505b509050600360fc1b816000815181106103a1576103a1611212565b60200101906001600160f81b031916908160001a905350600f60fb1b816001815181106103d0576103d0611212565b60200101906001600160f81b031916908160001a90535060006103f48460026111e8565b6103ff9060016111ff565b90505b6001811115610477576f181899199a1a9b1b9c1cb0b131b232b360811b85600f166010811061043357610433611212565b1a60f81b82828151811061044957610449611212565b60200101906001600160f81b031916908160001a90535060049490941c9361047081611228565b9050610402565b5083156104c65760405162461bcd60e51b815260206004820181905260248201527f537472696e67733a20686578206c656e67746820696e73756666696369656e74604482015260640161016e565b9392505050565b600080603360009054906101000a90046001600160a01b03166001600160a01b0316630563aae56040518163ffffffff1660e01b8152600401602060405180830381865afa158015610523573d6000803e3d6000fd5b505050506040513d601f19601f82011682018060405250810190610547919061123f565b905060005b818110156105f5576033546040516336e1756760e21b8152600481018390526105d69186916001600160a01b039091169063db85d59c90602401602060405180830381865afa1580156105a3573d6000803e3d6000fd5b505050506040513d601f19601f820116820180604052508101906105c79190610f5d565b6001600160a01b0316906109bd565b156105e5575060019392505050565b6105ee81611258565b905061054c565b5060009392505050565b60007f5f6bd0daaaf246715f06ec0ea7e99af4468b70381a38e1f10cb19776ed17ce005b546001600160a01b0316919050565b600054610100900460ff16158080156106525750600054600160ff909116105b8061066c5750303b15801561066c575060005460ff166001145b6106cf5760405162461bcd60e51b815260206004820152602e60248201527f496e697469616c697a61626c653a20636f6e747261637420697320616c72656160448201526d191e481a5b9a5d1a585b1a5e995960921b606482015260840161016e565b6000805460ff1916600117905580156106f2576000805461ff0019166101001790555b6106fa6109d9565b6000610704610a46565b90506001600160a01b03811661076f5760405162461bcd60e51b815260206004820152602a60248201527f53656375726974697a6174696f6e506f6f6c3a204e6f20706f6f6c20696d706c60448201526932b6b2b73a30ba34b7b760b11b606482015260840161016e565b603380546001600160a01b0319166001600160a01b03831617905561079384610a6e565b60335460408051630563aae560e01b815290516000926001600160a01b031691630563aae59160048083019260209291908290030181865afa1580156107dd573d6000803e3d6000fd5b505050506040513d601f19601f82011682018060405250810190610801919061123f565b905060005b81811015610899576033546040516336e1756760e21b8152600481018390526000916001600160a01b03169063db85d59c90602401602060405180830381865afa158015610858573d6000803e3d6000fd5b505050506040513d601f19601f8201168201806040525081019061087c9190610f5d565b90506108888187610ae1565b5061089281611258565b9050610806565b50505080156108e2576000805461ff0019169055604051600181527f7f26b83ff96e1f2b6a682f133852f6798a09c465da95921460cefb38474024989060200160405180910390a15b505050565b603481815481106108f757600080fd5b6000918252602090912001546001600160a01b0316905081565b6033546001600160a01b0316301461096b5760405162461bcd60e51b815260206004820152601e60248201527f4f6e6c792063616c6c20696e206f726967696e616c20636f6e74726163740000604482015260640161016e565b61097481610b36565b50565b6036602052816000526040600020818154811061099357600080fd5b9060005260206000209060089182820401919006600402915091509054906101000a900460e01b81565b60006109c883610c88565b80156104c657506104c68383610cbb565b600054610100900460ff16610a445760405162461bcd60e51b815260206004820152602b60248201527f496e697469616c697a61626c653a20636f6e7472616374206973206e6f74206960448201526a6e697469616c697a696e6760a81b606482015260840161016e565b565b60007f360894a13ba1a3210667c828492db98dca3e2076cc3735a920a3ca505d382bbc610623565b7f5f6bd0daaaf246715f06ec0ea7e99af4468b70381a38e1f10cb19776ed17ce0080546001600160a01b0383166001600160a01b03199091168117825560408051918252517fe882cd4ecccebb4897bd9859948ab1e5a95e1ff3a4769e6c2893f05230e912639181900360200190a15050565b6108e263326cd97082604051602401610afa919061103b565b60408051601f198184030181529190526020810180516001600160e01b031660e09390931b929092179091526001600160a01b03841690610d44565b6034805460018101825560009182527f46bddb1178e94d7f2892ff5f366840eb658911794f2c3a44c450aa2c505186c10180546001600160a01b0319166001600160a01b0384169081179091556040805163584ef9b560e11b8152905163b09df36a9160048082019286929091908290030181865afa158015610bbd573d6000803e3d6000fd5b505050506040513d6000823e601f3d908101601f19168201604052610be59190810190611271565b905060005b8151811015610c5e578260356000848481518110610c0a57610c0a611212565b6020908102919091018101516001600160e01b031916825281019190915260400160002080546001600160a01b0319166001600160a01b039290921691909117905580610c5681611258565b915050610bea565b506001600160a01b038216600090815260366020908152604090912082516108e292840190610e87565b6000610c9b826301ffc9a760e01b610cbb565b80156103245750610cb4826001600160e01b0319610cbb565b1592915050565b604080516001600160e01b03198316602480830191909152825180830390910181526044909101909152602080820180516001600160e01b03166301ffc9a760e01b178152825160009392849283928392918391908a617530fa92503d91506000519050828015610d2d575060208210155b8015610d395750600081115b979650505050505050565b60606104c68383604051806060016040528060278152602001611340602791396060600080856001600160a01b031685604051610d819190611323565b600060405180830381855af49150503d8060008114610dbc576040519150601f19603f3d011682016040523d82523d6000602084013e610dc1565b606091505b5091509150610dd286838387610ddc565b9695505050505050565b60608315610e4b578251600003610e44576001600160a01b0385163b610e445760405162461bcd60e51b815260206004820152601d60248201527f416464726573733a2063616c6c20746f206e6f6e2d636f6e7472616374000000604482015260640161016e565b5081610e55565b610e558383610e5d565b949350505050565b815115610e6d5781518083602001fd5b8060405162461bcd60e51b815260040161016e919061103b565b82805482825590600052602060002090600701600890048101928215610f235791602002820160005b83821115610ef157835183826101000a81548163ffffffff021916908360e01c02179055509260200192600401602081600301049283019260010302610eb0565b8015610f215782816101000a81549063ffffffff0219169055600401602081600301049283019260010302610ef1565b505b50610f2f929150610f33565b5090565b5b80821115610f2f5760008155600101610f34565b6001600160a01b038116811461097457600080fd5b600060208284031215610f6f57600080fd5b81516104c681610f48565b60005b83811015610f95578181015183820152602001610f7d565b50506000910152565b7f43616e206e6f742064656c65676174652063616c6c20746f2000000000000000815260008351610fd6816019850160208801610f7a565b6c0103bb4ba341036b2ba3437b21609d1b6019918401918201528351611003816026840160208801610f7a565b01602601949350505050565b60008151808452611027816020860160208601610f7a565b601f01601f19169290920160200192915050565b6020815260006104c6602083018461100f565b6001600160e01b03198116811461097457600080fd5b60006020828403121561107657600080fd5b81356104c68161104e565b634e487b7160e01b600052604160045260246000fd5b604051601f8201601f1916810167ffffffffffffffff811182821017156110c0576110c0611081565b604052919050565b600080604083850312156110db57600080fd5b82356110e681610f48565b915060208381013567ffffffffffffffff8082111561110457600080fd5b818601915086601f83011261111857600080fd5b81358181111561112a5761112a611081565b61113c601f8201601f19168501611097565b9150808252878482850101111561115257600080fd5b80848401858401376000848284010152508093505050509250929050565b60006020828403121561118257600080fd5b5035919050565b60006020828403121561119b57600080fd5b81356104c681610f48565b600080604083850312156111b957600080fd5b82356111c481610f48565b946020939093013593505050565b634e487b7160e01b600052601160045260246000fd5b8082028115828204841417610324576103246111d2565b80820180821115610324576103246111d2565b634e487b7160e01b600052603260045260246000fd5b600081611237576112376111d2565b506000190190565b60006020828403121561125157600080fd5b5051919050565b60006001820161126a5761126a6111d2565b5060010190565b6000602080838503121561128457600080fd5b825167ffffffffffffffff8082111561129c57600080fd5b818501915085601f8301126112b057600080fd5b8151818111156112c2576112c2611081565b8060051b91506112d3848301611097565b81815291830184019184810190888411156112ed57600080fd5b938501935b8385101561131757845192506113078361104e565b82825293850193908501906112f2565b98975050505050505050565b60008251611335818460208701610f7a565b919091019291505056fe416464726573733a206c6f772d6c6576656c2064656c65676174652063616c6c206661696c6564a26469706673582212206daf73e82dd3fb98f7f8a015b7eba2c7501bb8e9f2e95073fc96853d806588fa64736f6c63430008130033"
}