{
  "address": "0xDC46709331b2456A7A188bE2502451c7d9baA1D2",
  "abi": [
    {
      "inputs": [],
      "stateMutability": "nonpayable",
      "type": "constructor"
    },
    {
      "anonymous": false,
      "inputs": [
        {
          "indexed": false,
          "internalType": "uint8",
          "name": "version",
          "type": "uint8"
        }
      ],
      "name": "Initialized",
      "type": "event"
    },
    {
      "anonymous": false,
      "inputs": [
        {
          "indexed": false,
          "internalType": "address",
          "name": "registry",
          "type": "address"
        }
      ],
      "name": "UpdateRegistry",
      "type": "event"
    },
    {
      "stateMutability": "payable",
      "type": "fallback"
    },
    {
      "inputs": [
        {
          "internalType": "bytes4",
          "name": "",
          "type": "bytes4"
        }
      ],
      "name": "delegates",
      "outputs": [
        {
          "internalType": "address",
          "name": "",
          "type": "address"
        }
      ],
      "stateMutability": "view",
      "type": "function"
    },
    {
      "inputs": [
        {
          "internalType": "address",
          "name": "",
          "type": "address"
        },
        {
          "internalType": "uint256",
          "name": "",
          "type": "uint256"
        }
      ],
      "name": "extensionSignatures",
      "outputs": [
        {
          "internalType": "bytes4",
          "name": "",
          "type": "bytes4"
        }
      ],
      "stateMutability": "view",
      "type": "function"
    },
    {
      "inputs": [
        {
          "internalType": "uint256",
          "name": "",
          "type": "uint256"
        }
      ],
      "name": "extensions",
      "outputs": [
        {
          "internalType": "address",
          "name": "",
          "type": "address"
        }
      ],
      "stateMutability": "view",
      "type": "function"
    },
    {
      "inputs": [],
      "name": "extensionsLength",
      "outputs": [
        {
          "internalType": "uint256",
          "name": "",
          "type": "uint256"
        }
      ],
      "stateMutability": "view",
      "type": "function"
    },
    {
      "inputs": [
        {
          "internalType": "contract Registry",
          "name": "registry_",
          "type": "address"
        },
        {
          "internalType": "bytes",
          "name": "params",
          "type": "bytes"
        }
      ],
      "name": "initialize",
      "outputs": [],
      "stateMutability": "nonpayable",
      "type": "function"
    },
    {
      "inputs": [],
      "name": "original",
      "outputs": [
        {
          "internalType": "address",
          "name": "",
          "type": "address"
        }
      ],
      "stateMutability": "view",
      "type": "function"
    },
    {
      "inputs": [
        {
          "internalType": "address",
          "name": "ext",
          "type": "address"
        }
      ],
      "name": "registerExtension",
      "outputs": [],
      "stateMutability": "nonpayable",
      "type": "function"
    },
    {
      "inputs": [],
      "name": "registry",
      "outputs": [
        {
          "internalType": "contract Registry",
          "name": "",
          "type": "address"
        }
      ],
      "stateMutability": "view",
      "type": "function"
    },
    {
      "inputs": [
        {
          "internalType": "bytes4",
          "name": "interfaceId",
          "type": "bytes4"
        }
      ],
      "name": "supportsInterface",
      "outputs": [
        {
          "internalType": "bool",
          "name": "",
          "type": "bool"
        }
      ],
      "stateMutability": "view",
      "type": "function"
    },
    {
      "stateMutability": "payable",
      "type": "receive"
    }
  ],
  "transactionHash": "0x74bb0b76bc0f2d404b656e86f5796784b2124437254ffff1339b55c076fd375f",
  "args": [],
  "numDeployments": 1,
  "solcInputHash": "d50ef7722e4069f2e5c242ad5ece7e89",
  "bytecode": "0x608060405234801561001057600080fd5b50603380546001600160a01b0319163017905561151c806100326000396000f3fe60806040526004361061008a5760003560e01c8063a0a2daf011610059578063a0a2daf01461023f578063d1f5789414610275578063db85d59c14610295578063de420d7c146102b5578063fc5b5c64146102d557610091565b806301ffc9a71461019f5780630563aae5146101d457806346c715fa146101f25780637b1039991461022a57610091565b3661009157005b603354604051630a0a2daf60e41b8152600080356001600160e01b0319166004830152916001600160a01b03169063a0a2daf090602401602060405180830381865afa1580156100e5573d6000803e3d6000fd5b505050506040513d601f19601f820116820180604052508101906101099190611051565b90506001600160a01b03811615156101208261030e565b61013060003560e01c602061032a565b604051602001610141929190611092565b604051602081830303815290604052906101775760405162461bcd60e51b815260040161016e919061112f565b60405180910390fd5b5060405136600082376000803683855af43d806000843e818015610199578184f35b8184fd5b005b3480156101ab57600080fd5b506101bf6101ba366004611158565b6104cd565b60405190151581526020015b60405180910390f35b3480156101e057600080fd5b506034546040519081526020016101cb565b3480156101fe57600080fd5b50603354610212906001600160a01b031681565b6040516001600160a01b0390911681526020016101cb565b34801561023657600080fd5b506102126105ff565b34801561024b57600080fd5b5061021261025a366004611158565b6035602052600090815260409020546001600160a01b031681565b34801561028157600080fd5b5061019d6102903660046111bc565b610632565b3480156102a157600080fd5b506102126102b0366004611264565b6109db565b3480156102c157600080fd5b5061019d6102d036600461127d565b610a05565b3480156102e157600080fd5b506102f56102f036600461129a565b610a6b565b6040516001600160e01b031990911681526020016101cb565b60606103246001600160a01b038316601461032a565b92915050565b606060006103398360026112dc565b6103449060026112f3565b67ffffffffffffffff81111561035c5761035c611175565b6040519080825280601f01601f191660200182016040528015610386576020820181803683370190505b509050600360fc1b816000815181106103a1576103a1611306565b60200101906001600160f81b031916908160001a905350600f60fb1b816001815181106103d0576103d0611306565b60200101906001600160f81b031916908160001a90535060006103f48460026112dc565b6103ff9060016112f3565b90505b6001811115610477576f181899199a1a9b1b9c1cb0b131b232b360811b85600f166010811061043357610433611306565b1a60f81b82828151811061044957610449611306565b60200101906001600160f81b031916908160001a90535060049490941c936104708161131c565b9050610402565b5083156104c65760405162461bcd60e51b815260206004820181905260248201527f537472696e67733a20686578206c656e67746820696e73756666696369656e74604482015260640161016e565b9392505050565b600080603360009054906101000a90046001600160a01b03166001600160a01b0316630563aae56040518163ffffffff1660e01b8152600401602060405180830381865afa158015610523573d6000803e3d6000fd5b505050506040513d601f19601f820116820180604052508101906105479190611333565b905060005b818110156105f5576033546040516336e1756760e21b8152600481018390526105d69186916001600160a01b039091169063db85d59c90602401602060405180830381865afa1580156105a3573d6000803e3d6000fd5b505050506040513d601f19601f820116820180604052508101906105c79190611051565b6001600160a01b031690610ab1565b156105e5575060019392505050565b6105ee8161134c565b905061054c565b5060009392505050565b60007f5f6bd0daaaf246715f06ec0ea7e99af4468b70381a38e1f10cb19776ed17ce005b546001600160a01b0316919050565b600054610100900460ff16158080156106525750600054600160ff909116105b8061066c5750303b15801561066c575060005460ff166001145b6106cf5760405162461bcd60e51b815260206004820152602e60248201527f496e697469616c697a61626c653a20636f6e747261637420697320616c72656160448201526d191e481a5b9a5d1a585b1a5e995960921b606482015260840161016e565b6000805460ff1916600117905580156106f2576000805461ff0019166101001790555b6106fa610acd565b6000610704610b3a565b90506001600160a01b03811661076f5760405162461bcd60e51b815260206004820152602a60248201527f53656375726974697a6174696f6e506f6f6c3a204e6f20706f6f6c20696d706c60448201526932b6b2b73a30ba34b7b760b11b606482015260840161016e565b603380546001600160a01b0319166001600160a01b03831617905582516000906107a29060209086018101908601611365565b90506107b161271060646112dc565b816020015163ffffffff16111561081a5760405162461bcd60e51b815260206004820152602760248201527f6d696e46697273744c6f737343757368696f6e20697320677265617465722074604482015266068616e203130360cc1b606482015260840161016e565b80516001600160a01b031661087d5760405162461bcd60e51b8152602060048201526024808201527f53656375726974697a6174696f6e506f6f6c3a20496e76616c69642063757272604482015263656e637960e01b606482015260840161016e565b61088685610b62565b60335460408051630563aae560e01b815290516000926001600160a01b031691630563aae59160048083019260209291908290030181865afa1580156108d0573d6000803e3d6000fd5b505050506040513d601f19601f820116820180604052508101906108f49190611333565b905060005b8181101561098c576033546040516336e1756760e21b8152600481018390526000916001600160a01b03169063db85d59c90602401602060405180830381865afa15801561094b573d6000803e3d6000fd5b505050506040513d601f19601f8201168201806040525081019061096f9190611051565b905061097b8188610bd5565b506109858161134c565b90506108f9565b5050505080156109d6576000805461ff0019169055604051600181527f7f26b83ff96e1f2b6a682f133852f6798a09c465da95921460cefb38474024989060200160405180910390a15b505050565b603481815481106109eb57600080fd5b6000918252602090912001546001600160a01b0316905081565b6033546001600160a01b03163014610a5f5760405162461bcd60e51b815260206004820152601e60248201527f4f6e6c792063616c6c20696e206f726967696e616c20636f6e74726163740000604482015260640161016e565b610a6881610c2a565b50565b60366020528160005260406000208181548110610a8757600080fd5b9060005260206000209060089182820401919006600402915091509054906101000a900460e01b81565b6000610abc83610d7c565b80156104c657506104c68383610daf565b600054610100900460ff16610b385760405162461bcd60e51b815260206004820152602b60248201527f496e697469616c697a61626c653a20636f6e7472616374206973206e6f74206960448201526a6e697469616c697a696e6760a81b606482015260840161016e565b565b60007f360894a13ba1a3210667c828492db98dca3e2076cc3735a920a3ca505d382bbc610623565b7f5f6bd0daaaf246715f06ec0ea7e99af4468b70381a38e1f10cb19776ed17ce0080546001600160a01b0383166001600160a01b03199091168117825560408051918252517fe882cd4ecccebb4897bd9859948ab1e5a95e1ff3a4769e6c2893f05230e912639181900360200190a15050565b6109d663326cd97082604051602401610bee919061112f565b60408051601f198184030181529190526020810180516001600160e01b031660e09390931b929092179091526001600160a01b03841690610e38565b6034805460018101825560009182527f46bddb1178e94d7f2892ff5f366840eb658911794f2c3a44c450aa2c505186c10180546001600160a01b0319166001600160a01b0384169081179091556040805163584ef9b560e11b8152905163b09df36a9160048082019286929091908290030181865afa158015610cb1573d6000803e3d6000fd5b505050506040513d6000823e601f3d908101601f19168201604052610cd991908101906113f1565b905060005b8151811015610d52578260356000848481518110610cfe57610cfe611306565b6020908102919091018101516001600160e01b031916825281019190915260400160002080546001600160a01b0319166001600160a01b039290921691909117905580610d4a8161134c565b915050610cde565b506001600160a01b038216600090815260366020908152604090912082516109d692840190610f7b565b6000610d8f826301ffc9a760e01b610daf565b80156103245750610da8826001600160e01b0319610daf565b1592915050565b604080516001600160e01b03198316602480830191909152825180830390910181526044909101909152602080820180516001600160e01b03166301ffc9a760e01b178152825160009392849283928392918391908a617530fa92503d91506000519050828015610e21575060208210155b8015610e2d5750600081115b979650505050505050565b60606104c683836040518060600160405280602781526020016114c0602791396060600080856001600160a01b031685604051610e7591906114a3565b600060405180830381855af49150503d8060008114610eb0576040519150601f19603f3d011682016040523d82523d6000602084013e610eb5565b606091505b5091509150610ec686838387610ed0565b9695505050505050565b60608315610f3f578251600003610f38576001600160a01b0385163b610f385760405162461bcd60e51b815260206004820152601d60248201527f416464726573733a2063616c6c20746f206e6f6e2d636f6e7472616374000000604482015260640161016e565b5081610f49565b610f498383610f51565b949350505050565b815115610f615781518083602001fd5b8060405162461bcd60e51b815260040161016e919061112f565b828054828255906000526020600020906007016008900481019282156110175791602002820160005b83821115610fe557835183826101000a81548163ffffffff021916908360e01c02179055509260200192600401602081600301049283019260010302610fa4565b80156110155782816101000a81549063ffffffff0219169055600401602081600301049283019260010302610fe5565b505b50611023929150611027565b5090565b5b808211156110235760008155600101611028565b6001600160a01b0381168114610a6857600080fd5b60006020828403121561106357600080fd5b81516104c68161103c565b60005b83811015611089578181015183820152602001611071565b50506000910152565b7f43616e206e6f742064656c65676174652063616c6c20746f20000000000000008152600083516110ca81601985016020880161106e565b6c0103bb4ba341036b2ba3437b21609d1b60199184019182015283516110f781602684016020880161106e565b01602601949350505050565b6000815180845261111b81602086016020860161106e565b601f01601f19169290920160200192915050565b6020815260006104c66020830184611103565b6001600160e01b031981168114610a6857600080fd5b60006020828403121561116a57600080fd5b81356104c681611142565b634e487b7160e01b600052604160045260246000fd5b604051601f8201601f1916810167ffffffffffffffff811182821017156111b4576111b4611175565b604052919050565b600080604083850312156111cf57600080fd5b82356111da8161103c565b915060208381013567ffffffffffffffff808211156111f857600080fd5b818601915086601f83011261120c57600080fd5b81358181111561121e5761121e611175565b611230601f8201601f1916850161118b565b9150808252878482850101111561124657600080fd5b80848401858401376000848284010152508093505050509250929050565b60006020828403121561127657600080fd5b5035919050565b60006020828403121561128f57600080fd5b81356104c68161103c565b600080604083850312156112ad57600080fd5b82356112b88161103c565b946020939093013593505050565b634e487b7160e01b600052601160045260246000fd5b8082028115828204841417610324576103246112c6565b80820180821115610324576103246112c6565b634e487b7160e01b600052603260045260246000fd5b60008161132b5761132b6112c6565b506000190190565b60006020828403121561134557600080fd5b5051919050565b60006001820161135e5761135e6112c6565b5060010190565b60006080828403121561137757600080fd5b6040516080810181811067ffffffffffffffff8211171561139a5761139a611175565b60405282516113a88161103c565b8152602083015163ffffffff811681146113c157600080fd5b6020820152604083015180151581146113d957600080fd5b60408201526060928301519281019290925250919050565b6000602080838503121561140457600080fd5b825167ffffffffffffffff8082111561141c57600080fd5b818501915085601f83011261143057600080fd5b81518181111561144257611442611175565b8060051b915061145384830161118b565b818152918301840191848101908884111561146d57600080fd5b938501935b83851015611497578451925061148783611142565b8282529385019390850190611472565b98975050505050505050565b600082516114b581846020870161106e565b919091019291505056fe416464726573733a206c6f772d6c6576656c2064656c65676174652063616c6c206661696c6564a2646970667358221220f1ae1f36ba59f9094b0314581ab3a4f0cdc4e924f2459eb3bf9219f2910a516964736f6c63430008130033"
}