{
  "address": "0x16De512436222dbA492cE56d43bD403cAEFbb90d",
  "abi": [
    {
      "anonymous": false,
      "inputs": [
        {
          "indexed": false,
          "internalType": "uint8",
          "name": "version",
          "type": "uint8"
        }
      ],
      "name": "Initialized",
      "type": "event"
    },
    {
      "anonymous": false,
      "inputs": [
        {
          "indexed": false,
          "internalType": "address",
          "name": "account",
          "type": "address"
        }
      ],
      "name": "Paused",
      "type": "event"
    },
    {
      "anonymous": false,
      "inputs": [
        {
          "indexed": true,
          "internalType": "bytes32",
          "name": "role",
          "type": "bytes32"
        },
        {
          "indexed": true,
          "internalType": "bytes32",
          "name": "previousAdminRole",
          "type": "bytes32"
        },
        {
          "indexed": true,
          "internalType": "bytes32",
          "name": "newAdminRole",
          "type": "bytes32"
        }
      ],
      "name": "RoleAdminChanged",
      "type": "event"
    },
    {
      "anonymous": false,
      "inputs": [
        {
          "indexed": true,
          "internalType": "bytes32",
          "name": "role",
          "type": "bytes32"
        },
        {
          "indexed": true,
          "internalType": "address",
          "name": "account",
          "type": "address"
        },
        {
          "indexed": true,
          "internalType": "address",
          "name": "sender",
          "type": "address"
        }
      ],
      "name": "RoleGranted",
      "type": "event"
    },
    {
      "anonymous": false,
      "inputs": [
        {
          "indexed": true,
          "internalType": "bytes32",
          "name": "role",
          "type": "bytes32"
        },
        {
          "indexed": true,
          "internalType": "address",
          "name": "account",
          "type": "address"
        },
        {
          "indexed": true,
          "internalType": "address",
          "name": "sender",
          "type": "address"
        }
      ],
      "name": "RoleRevoked",
      "type": "event"
    },
    {
      "anonymous": false,
      "inputs": [
        {
          "indexed": false,
          "internalType": "address",
          "name": "account",
          "type": "address"
        }
      ],
      "name": "Unpaused",
      "type": "event"
    },
    {
      "inputs": [],
      "name": "DEFAULT_ADMIN_ROLE",
      "outputs": [
        {
          "internalType": "bytes32",
          "name": "",
          "type": "bytes32"
        }
      ],
      "stateMutability": "view",
      "type": "function"
    },
    {
      "inputs": [],
      "name": "ORIGINATOR_ROLE",
      "outputs": [
        {
          "internalType": "bytes32",
          "name": "",
          "type": "bytes32"
        }
      ],
      "stateMutability": "view",
      "type": "function"
    },
    {
      "inputs": [],
      "name": "OWNER_ROLE",
      "outputs": [
        {
          "internalType": "bytes32",
          "name": "",
          "type": "bytes32"
        }
      ],
      "stateMutability": "view",
      "type": "function"
    },
    {
      "inputs": [],
      "name": "RATE_SCALING_FACTOR",
      "outputs": [
        {
          "internalType": "uint256",
          "name": "",
          "type": "uint256"
        }
      ],
      "stateMutability": "view",
      "type": "function"
    },
    {
      "inputs": [],
      "name": "checkMinFirstLost",
      "outputs": [
        {
          "internalType": "bool",
          "name": "",
          "type": "bool"
        }
      ],
      "stateMutability": "view",
      "type": "function"
    },
    {
      "inputs": [
        {
          "internalType": "address",
          "name": "recipientWallet",
          "type": "address"
        }
      ],
      "name": "claimCashRemain",
      "outputs": [],
      "stateMutability": "nonpayable",
      "type": "function"
    },
    {
      "inputs": [
        {
          "internalType": "address[]",
          "name": "tokenAddresses",
          "type": "address[]"
        }
      ],
      "name": "claimERC20Assets",
      "outputs": [],
      "stateMutability": "nonpayable",
      "type": "function"
    },
    {
      "inputs": [
        {
          "internalType": "address",
          "name": "tokenAddress",
          "type": "address"
        },
        {
          "internalType": "address",
          "name": "from",
          "type": "address"
        },
        {
          "internalType": "uint256[]",
          "name": "tokenIds",
          "type": "uint256[]"
        }
      ],
      "name": "collectAssets",
      "outputs": [],
      "stateMutability": "nonpayable",
      "type": "function"
    },
    {
      "inputs": [
        {
          "internalType": "address[]",
          "name": "tokenAddresses",
          "type": "address[]"
        },
        {
          "internalType": "address[]",
          "name": "senders",
          "type": "address[]"
        },
        {
          "internalType": "uint256[]",
          "name": "amounts",
          "type": "uint256[]"
        }
      ],
      "name": "collectERC20Assets",
      "outputs": [],
      "stateMutability": "nonpayable",
      "type": "function"
    },
    {
      "inputs": [
        {
          "internalType": "address",
          "name": "tokenAddress",
          "type": "address"
        },
        {
          "internalType": "address",
          "name": "investor",
          "type": "address"
        },
        {
          "internalType": "uint256",
          "name": "currency",
          "type": "uint256"
        },
        {
          "internalType": "uint256",
          "name": "token",
          "type": "uint256"
        }
      ],
      "name": "decreaseLockedDistributeBalance",
      "outputs": [],
      "stateMutability": "nonpayable",
      "type": "function"
    },
    {
      "inputs": [
        {
          "internalType": "address",
          "name": "",
          "type": "address"
        }
      ],
      "name": "existsTokenAssetAddress",
      "outputs": [
        {
          "internalType": "bool",
          "name": "",
          "type": "bool"
        }
      ],
      "stateMutability": "view",
      "type": "function"
    },
    {
      "inputs": [
        {
          "internalType": "address",
          "name": "tokenAddress",
          "type": "address"
        },
        {
          "internalType": "address",
          "name": "toPoolAddress",
          "type": "address"
        },
        {
          "internalType": "uint256[]",
          "name": "tokenIds",
          "type": "uint256[]"
        }
      ],
      "name": "exportAssets",
      "outputs": [],
      "stateMutability": "nonpayable",
      "type": "function"
    },
    {
      "inputs": [],
      "name": "getNFTAssetsLength",
      "outputs": [
        {
          "internalType": "uint256",
          "name": "",
          "type": "uint256"
        }
      ],
      "stateMutability": "view",
      "type": "function"
    },
    {
      "inputs": [],
      "name": "getRiskScoresLength",
      "outputs": [
        {
          "internalType": "uint256",
          "name": "",
          "type": "uint256"
        }
      ],
      "stateMutability": "view",
      "type": "function"
    },
    {
      "inputs": [
        {
          "internalType": "bytes32",
          "name": "role",
          "type": "bytes32"
        }
      ],
      "name": "getRoleAdmin",
      "outputs": [
        {
          "internalType": "bytes32",
          "name": "",
          "type": "bytes32"
        }
      ],
      "stateMutability": "view",
      "type": "function"
    },
    {
      "inputs": [
        {
          "internalType": "bytes32",
          "name": "role",
          "type": "bytes32"
        },
        {
          "internalType": "uint256",
          "name": "index",
          "type": "uint256"
        }
      ],
      "name": "getRoleMember",
      "outputs": [
        {
          "internalType": "address",
          "name": "",
          "type": "address"
        }
      ],
      "stateMutability": "view",
      "type": "function"
    },
    {
      "inputs": [
        {
          "internalType": "bytes32",
          "name": "role",
          "type": "bytes32"
        }
      ],
      "name": "getRoleMemberCount",
      "outputs": [
        {
          "internalType": "uint256",
          "name": "",
          "type": "uint256"
        }
      ],
      "stateMutability": "view",
      "type": "function"
    },
    {
      "inputs": [],
      "name": "getTokenAssetAddresses",
      "outputs": [
        {
          "internalType": "address[]",
          "name": "",
          "type": "address[]"
        }
      ],
      "stateMutability": "view",
      "type": "function"
    },
    {
      "inputs": [],
      "name": "getTokenAssetAddressesLength",
      "outputs": [
        {
          "internalType": "uint256",
          "name": "",
          "type": "uint256"
        }
      ],
      "stateMutability": "view",
      "type": "function"
    },
    {
      "inputs": [
        {
          "internalType": "bytes32",
          "name": "role",
          "type": "bytes32"
        },
        {
          "internalType": "address",
          "name": "account",
          "type": "address"
        }
      ],
      "name": "grantRole",
      "outputs": [],
      "stateMutability": "nonpayable",
      "type": "function"
    },
    {
      "inputs": [],
      "name": "hasFinishedRedemption",
      "outputs": [
        {
          "internalType": "bool",
          "name": "",
          "type": "bool"
        }
      ],
      "stateMutability": "view",
      "type": "function"
    },
    {
      "inputs": [
        {
          "internalType": "bytes32",
          "name": "role",
          "type": "bytes32"
        },
        {
          "internalType": "address",
          "name": "account",
          "type": "address"
        }
      ],
      "name": "hasRole",
      "outputs": [
        {
          "internalType": "bool",
          "name": "",
          "type": "bool"
        }
      ],
      "stateMutability": "view",
      "type": "function"
    },
    {
      "inputs": [
        {
          "internalType": "address",
          "name": "tokenAddress",
          "type": "address"
        },
        {
          "internalType": "address",
          "name": "investor",
          "type": "address"
        },
        {
          "internalType": "uint256",
          "name": "currency",
          "type": "uint256"
        },
        {
          "internalType": "uint256",
          "name": "token",
          "type": "uint256"
        }
      ],
      "name": "increaseLockedDistributeBalance",
      "outputs": [],
      "stateMutability": "nonpayable",
      "type": "function"
    },
    {
      "inputs": [
        {
          "internalType": "uint256",
          "name": "amount",
          "type": "uint256"
        }
      ],
      "name": "increaseTotalAssetRepaidCurrency",
      "outputs": [],
      "stateMutability": "nonpayable",
      "type": "function"
    },
    {
      "inputs": [
        {
          "internalType": "contract Registry",
          "name": "_registry",
          "type": "address"
        },
        {
          "internalType": "address",
          "name": "_currency",
          "type": "address"
        },
        {
          "internalType": "uint32",
          "name": "_minFirstLossCushion",
          "type": "uint32"
        }
      ],
      "name": "initialize",
      "outputs": [],
      "stateMutability": "nonpayable",
      "type": "function"
    },
    {
      "inputs": [
        {
          "internalType": "address",
          "name": "_tgeAddress",
          "type": "address"
        },
        {
          "internalType": "address",
          "name": "_tokenAddress",
          "type": "address"
        },
        {
          "internalType": "enum Configuration.NOTE_TOKEN_TYPE",
          "name": "_noteType",
          "type": "uint8"
        }
      ],
      "name": "injectTGEAddress",
      "outputs": [],
      "stateMutability": "nonpayable",
      "type": "function"
    },
    {
      "inputs": [],
      "name": "interestRateSOT",
      "outputs": [
        {
          "internalType": "uint32",
          "name": "",
          "type": "uint32"
        }
      ],
      "stateMutability": "view",
      "type": "function"
    },
    {
      "inputs": [],
      "name": "isClosedState",
      "outputs": [
        {
          "internalType": "bool",
          "name": "",
          "type": "bool"
        }
      ],
      "stateMutability": "view",
      "type": "function"
    },
    {
      "inputs": [],
      "name": "jotToken",
      "outputs": [
        {
          "internalType": "address",
          "name": "",
          "type": "address"
        }
      ],
      "stateMutability": "view",
      "type": "function"
    },
    {
      "inputs": [
        {
          "internalType": "address",
          "name": "",
          "type": "address"
        }
      ],
      "name": "lastRepayTimestampSOT",
      "outputs": [
        {
          "internalType": "uint256",
          "name": "",
          "type": "uint256"
        }
      ],
      "stateMutability": "view",
      "type": "function"
    },
    {
      "inputs": [
        {
          "internalType": "address",
          "name": "",
          "type": "address"
        },
        {
          "internalType": "address",
          "name": "",
          "type": "address"
        }
      ],
      "name": "lockedDistributeBalances",
      "outputs": [
        {
          "internalType": "uint256",
          "name": "",
          "type": "uint256"
        }
      ],
      "stateMutability": "view",
      "type": "function"
    },
    {
      "inputs": [
        {
          "internalType": "address",
          "name": "",
          "type": "address"
        },
        {
          "internalType": "address",
          "name": "",
          "type": "address"
        }
      ],
      "name": "lockedRedeemBalances",
      "outputs": [
        {
          "internalType": "uint256",
          "name": "",
          "type": "uint256"
        }
      ],
      "stateMutability": "view",
      "type": "function"
    },
    {
      "inputs": [],
      "name": "minFirstLossCushion",
      "outputs": [
        {
          "internalType": "uint32",
          "name": "",
          "type": "uint32"
        }
      ],
      "stateMutability": "view",
      "type": "function"
    },
    {
      "inputs": [
        {
          "internalType": "uint256",
          "name": "",
          "type": "uint256"
        }
      ],
      "name": "nftAssets",
      "outputs": [
        {
          "internalType": "address",
          "name": "tokenAddress",
          "type": "address"
        },
        {
          "internalType": "uint256",
          "name": "tokenId",
          "type": "uint256"
        }
      ],
      "stateMutability": "view",
      "type": "function"
    },
    {
      "inputs": [
        {
          "internalType": "uint256",
          "name": "currencyAmount",
          "type": "uint256"
        }
      ],
      "name": "onBuyNoteToken",
      "outputs": [],
      "stateMutability": "nonpayable",
      "type": "function"
    },
    {
      "inputs": [
        {
          "internalType": "address",
          "name": "",
          "type": "address"
        },
        {
          "internalType": "address",
          "name": "",
          "type": "address"
        },
        {
          "internalType": "uint256",
          "name": "tokenId",
          "type": "uint256"
        },
        {
          "internalType": "bytes",
          "name": "",
          "type": "bytes"
        }
      ],
      "name": "onERC721Received",
      "outputs": [
        {
          "internalType": "bytes4",
          "name": "",
          "type": "bytes4"
        }
      ],
      "stateMutability": "nonpayable",
      "type": "function"
    },
    {
      "inputs": [],
      "name": "openingBlockTimestamp",
      "outputs": [
        {
          "internalType": "uint64",
          "name": "",
          "type": "uint64"
        }
      ],
      "stateMutability": "view",
      "type": "function"
    },
    {
      "inputs": [
        {
          "internalType": "address",
          "name": "",
          "type": "address"
        }
      ],
      "name": "paidInterestAmountSOT",
      "outputs": [
        {
          "internalType": "uint256",
          "name": "",
          "type": "uint256"
        }
      ],
      "stateMutability": "view",
      "type": "function"
    },
    {
      "inputs": [],
      "name": "paidPrincipalAmountSOT",
      "outputs": [
        {
          "internalType": "uint256",
          "name": "",
          "type": "uint256"
        }
      ],
      "stateMutability": "view",
      "type": "function"
    },
    {
      "inputs": [
        {
          "internalType": "address",
          "name": "",
          "type": "address"
        }
      ],
      "name": "paidPrincipalAmountSOTByInvestor",
      "outputs": [
        {
          "internalType": "uint256",
          "name": "",
          "type": "uint256"
        }
      ],
      "stateMutability": "view",
      "type": "function"
    },
    {
      "inputs": [],
      "name": "pause",
      "outputs": [],
      "stateMutability": "nonpayable",
      "type": "function"
    },
    {
      "inputs": [],
      "name": "paused",
      "outputs": [
        {
          "internalType": "bool",
          "name": "",
          "type": "bool"
        }
      ],
      "stateMutability": "view",
      "type": "function"
    },
    {
      "inputs": [],
      "name": "pot",
      "outputs": [
        {
          "internalType": "address",
          "name": "",
          "type": "address"
        }
      ],
      "stateMutability": "view",
      "type": "function"
    },
    {
      "inputs": [],
      "name": "principalAmountSOT",
      "outputs": [
        {
          "internalType": "uint256",
          "name": "",
          "type": "uint256"
        }
      ],
      "stateMutability": "view",
      "type": "function"
    },
    {
      "inputs": [
        {
          "internalType": "address",
          "name": "usr",
          "type": "address"
        },
        {
          "internalType": "address",
          "name": "notesToken",
          "type": "address"
        },
        {
          "internalType": "uint256",
          "name": "currencyAmount",
          "type": "uint256"
        },
        {
          "internalType": "uint256",
          "name": "tokenAmount",
          "type": "uint256"
        }
      ],
      "name": "redeem",
      "outputs": [],
      "stateMutability": "nonpayable",
      "type": "function"
    },
    {
      "inputs": [],
      "name": "registry",
      "outputs": [
        {
          "internalType": "contract Registry",
          "name": "",
          "type": "address"
        }
      ],
      "stateMutability": "view",
      "type": "function"
    },
    {
      "inputs": [
        {
          "internalType": "bytes32",
          "name": "role",
          "type": "bytes32"
        },
        {
          "internalType": "address",
          "name": "account",
          "type": "address"
        }
      ],
      "name": "renounceRole",
      "outputs": [],
      "stateMutability": "nonpayable",
      "type": "function"
    },
    {
      "inputs": [],
      "name": "reserve",
      "outputs": [
        {
          "internalType": "uint256",
          "name": "",
          "type": "uint256"
        }
      ],
      "stateMutability": "view",
      "type": "function"
    },
    {
      "inputs": [
        {
          "internalType": "bytes32",
          "name": "role",
          "type": "bytes32"
        },
        {
          "internalType": "address",
          "name": "account",
          "type": "address"
        }
      ],
      "name": "revokeRole",
      "outputs": [],
      "stateMutability": "nonpayable",
      "type": "function"
    },
    {
      "inputs": [
        {
          "internalType": "uint256",
          "name": "",
          "type": "uint256"
        }
      ],
      "name": "riskScores",
      "outputs": [
        {
          "internalType": "uint32",
          "name": "daysPastDue",
          "type": "uint32"
        },
        {
          "internalType": "uint32",
          "name": "advanceRate",
          "type": "uint32"
        },
        {
          "internalType": "uint32",
          "name": "penaltyRate",
          "type": "uint32"
        },
        {
          "internalType": "uint32",
          "name": "interestRate",
          "type": "uint32"
        },
        {
          "internalType": "uint32",
          "name": "probabilityOfDefault",
          "type": "uint32"
        },
        {
          "internalType": "uint32",
          "name": "lossGivenDefault",
          "type": "uint32"
        },
        {
          "internalType": "uint32",
          "name": "gracePeriod",
          "type": "uint32"
        },
        {
          "internalType": "uint32",
          "name": "collectionPeriod",
          "type": "uint32"
        },
        {
          "internalType": "uint32",
          "name": "writeOffAfterGracePeriod",
          "type": "uint32"
        },
        {
          "internalType": "uint32",
          "name": "writeOffAfterCollectionPeriod",
          "type": "uint32"
        }
      ],
      "stateMutability": "view",
      "type": "function"
    },
    {
      "inputs": [],
      "name": "secondTGEAddress",
      "outputs": [
        {
          "internalType": "address",
          "name": "",
          "type": "address"
        }
      ],
      "stateMutability": "view",
      "type": "function"
    },
    {
      "inputs": [
        {
          "internalType": "uint32",
          "name": "_interestRateSOT",
          "type": "uint32"
        }
      ],
      "name": "setInterestRateForSOT",
      "outputs": [],
      "stateMutability": "nonpayable",
      "type": "function"
    },
    {
      "inputs": [
        {
          "internalType": "address",
          "name": "_pot",
          "type": "address"
        }
      ],
      "name": "setPot",
      "outputs": [],
      "stateMutability": "nonpayable",
      "type": "function"
    },
    {
      "inputs": [
        {
          "internalType": "uint32[]",
          "name": "_daysPastDues",
          "type": "uint32[]"
        },
        {
          "internalType": "uint32[]",
          "name": "_ratesAndDefaults",
          "type": "uint32[]"
        },
        {
          "internalType": "uint32[]",
          "name": "_periodsAndWriteOffs",
          "type": "uint32[]"
        }
      ],
      "name": "setupRiskScores",
      "outputs": [],
      "stateMutability": "nonpayable",
      "type": "function"
    },
    {
      "inputs": [],
      "name": "sotToken",
      "outputs": [
        {
          "internalType": "address",
          "name": "",
          "type": "address"
        }
      ],
      "stateMutability": "view",
      "type": "function"
    },
    {
      "inputs": [
        {
          "internalType": "uint64",
          "name": "_termLengthInSeconds",
          "type": "uint64"
        },
        {
          "internalType": "uint256",
          "name": "_principalAmountForSOT",
          "type": "uint256"
        },
        {
          "internalType": "uint32",
          "name": "_interestRateForSOT",
          "type": "uint32"
        },
        {
          "internalType": "uint64",
          "name": "_timeStartEarningInterest",
          "type": "uint64"
        }
      ],
      "name": "startCycle",
      "outputs": [],
      "stateMutability": "nonpayable",
      "type": "function"
    },
    {
      "inputs": [],
      "name": "state",
      "outputs": [
        {
          "internalType": "enum ISecuritizationPool.CycleState",
          "name": "",
          "type": "uint8"
        }
      ],
      "stateMutability": "view",
      "type": "function"
    },
    {
      "inputs": [
        {
          "internalType": "bytes4",
          "name": "interfaceId",
          "type": "bytes4"
        }
      ],
      "name": "supportsInterface",
      "outputs": [
        {
          "internalType": "bool",
          "name": "",
          "type": "bool"
        }
      ],
      "stateMutability": "view",
      "type": "function"
    },
    {
      "inputs": [],
      "name": "termLengthInSeconds",
      "outputs": [
        {
          "internalType": "uint64",
          "name": "",
          "type": "uint64"
        }
      ],
      "stateMutability": "view",
      "type": "function"
    },
    {
      "inputs": [],
      "name": "tgeAddress",
      "outputs": [
        {
          "internalType": "address",
          "name": "",
          "type": "address"
        }
      ],
      "stateMutability": "view",
      "type": "function"
    },
    {
      "inputs": [
        {
          "internalType": "uint256",
          "name": "",
          "type": "uint256"
        }
      ],
      "name": "tokenAssetAddresses",
      "outputs": [
        {
          "internalType": "address",
          "name": "",
          "type": "address"
        }
      ],
      "stateMutability": "view",
      "type": "function"
    },
    {
      "inputs": [],
      "name": "totalAssetRepaidCurrency",
      "outputs": [
        {
          "internalType": "uint256",
          "name": "",
          "type": "uint256"
        }
      ],
      "stateMutability": "view",
      "type": "function"
    },
    {
      "inputs": [],
      "name": "totalLockedDistributeBalance",
      "outputs": [
        {
          "internalType": "uint256",
          "name": "",
          "type": "uint256"
        }
      ],
      "stateMutability": "view",
      "type": "function"
    },
    {
      "inputs": [
        {
          "internalType": "address",
          "name": "",
          "type": "address"
        }
      ],
      "name": "totalLockedRedeemBalances",
      "outputs": [
        {
          "internalType": "uint256",
          "name": "",
          "type": "uint256"
        }
      ],
      "stateMutability": "view",
      "type": "function"
    },
    {
      "inputs": [],
      "name": "totalRedeemedCurrency",
      "outputs": [
        {
          "internalType": "uint256",
          "name": "",
          "type": "uint256"
        }
      ],
      "stateMutability": "view",
      "type": "function"
    },
    {
      "inputs": [],
      "name": "underlyingCurrency",
      "outputs": [
        {
          "internalType": "address",
          "name": "",
          "type": "address"
        }
      ],
      "stateMutability": "view",
      "type": "function"
    },
    {
      "inputs": [],
      "name": "unpause",
      "outputs": [],
      "stateMutability": "nonpayable",
      "type": "function"
    },
    {
      "inputs": [
        {
          "internalType": "uint256",
          "name": "amount",
          "type": "uint256"
        }
      ],
      "name": "withdraw",
      "outputs": [],
      "stateMutability": "nonpayable",
      "type": "function"
    },
    {
      "inputs": [
        {
          "internalType": "address[]",
          "name": "tokenAddresses",
          "type": "address[]"
        },
        {
          "internalType": "uint256[]",
          "name": "tokenIds",
          "type": "uint256[]"
        },
        {
          "internalType": "address[]",
          "name": "recipients",
          "type": "address[]"
        }
      ],
      "name": "withdrawAssets",
      "outputs": [],
      "stateMutability": "nonpayable",
      "type": "function"
    },
    {
      "inputs": [
        {
          "internalType": "address[]",
          "name": "tokenAddresses",
          "type": "address[]"
        },
        {
          "internalType": "address[]",
          "name": "recipients",
          "type": "address[]"
        },
        {
          "internalType": "uint256[]",
          "name": "amounts",
          "type": "uint256[]"
        }
      ],
      "name": "withdrawERC20Assets",
      "outputs": [],
      "stateMutability": "nonpayable",
      "type": "function"
    }
  ],
  "transactionHash": "0xb1c42b1e931af8eb426730264b3452e2165c114e1323d85d099c47504abdb597",
  "args": [],
  "numDeployments": 5,
  "solcInputHash": "17fad5fc5c1edb29eb1d776bc7152f9e",
  "bytecode": "0x608060405234801561001057600080fd5b50614d49806100206000396000f3fe608060405234801561001057600080fd5b50600436106104125760003560e01c806370d2f39911610220578063ac2a6a3811610130578063d547741f116100b8578063e2eda54111610087578063e2eda541146109dc578063e58378bb146109e5578063ed348895146109fa578063fa3908b114610a0d578063febd601814610a3f57600080fd5b8063d547741f1461099a578063d8ba6f44146109ad578063dec28587146109c0578063df076fe0146109d357600080fd5b8063c6cb67a6116100ff578063c6cb67a61461093f578063ca15c87314610952578063cd3293de14610965578063cee7b6a11461096f578063d2fad4811461097957600080fd5b8063ac2a6a38146108dd578063ade0ea6d14610909578063b8cd9b0014610913578063c19d93fb1461091d57600080fd5b80638fd6b71e116101b357806391d148541161018257806391d14854146108875780639a7ab3311461089a578063a125142b146108ad578063a217fddf146108c2578063a6c59547146108ca57600080fd5b80638fd6b71e1461083557806390071cf31461084e5780639010d07c14610861578063901617051461087457600080fd5b80637da220e6116101ef5780637da220e6146107e45780637dfbdae214610810578063815d6ddf1461081a5780638456cb591461082d57600080fd5b806370d2f3991461079f57806375b1bce7146107c057806378d29d55146107c85780637b103999146107d057600080fd5b8063357a0302116103265780634bb48586116102ae5780636421cede1161027d5780636421cede146106dc578063644b4ead146106f15780636456a3ee146107645780636ecf2b22146107785780636ee44c4c1461078b57600080fd5b80634bb48586146106875780634be47418146106ab5780635b8e62e7146106be5780635c975abb146106d157600080fd5b80633f4ba83a116102f55780633f4ba83a146106045780633ffebce41461060c578063477035d11461062d5780634b552a4a146106605780634ba2363a1461067357600080fd5b8063357a0302146105b857806336568abe146105cb57806338d9feac146105de5780633bf4045f146105f157600080fd5b8063206c1765116103a95780632b71b450116103785780632b71b4501461054f5780632bb14ff0146105635780632bcc3682146105895780632e1a7d4d146105925780632f2ff15d146105a557600080fd5b8063206c1765146104fd578063221dc59314610505578063247fc36314610519578063248a9ca31461052c57600080fd5b8063186ccccf116103e5578063186ccccf146104aa5780631ba6e957146104bf5780631bf51b70146104e057806320585408146104f357600080fd5b806301ffc9a7146104175780630b7792f11461043f5780630bc6bffc14610452578063150b7a021461047e575b600080fd5b61042a610425366004614290565b610a53565b60405190151581526020015b60405180910390f35b610173545b604051908152602001610436565b61016454610466906001600160a01b031681565b6040516001600160a01b039091168152602001610436565b61049161048c3660046142e5565b610a7e565b6040516001600160e01b03199091168152602001610436565b6104bd6104b836600461440f565b610bbb565b005b6104446104cd366004614450565b61016d6020526000908152604090205481565b6104bd6104ee36600461446d565b610df3565b6104446101675481565b61042a6113fc565b61016154610466906001600160a01b031681565b6104bd61052736600461446d565b61149c565b61044461053a366004614506565b600090815260c9602052604090206001015490565b61016354610466906001600160a01b031681565b610171546105749063ffffffff1681565b60405163ffffffff9091168152602001610436565b61017254610444565b6104bd6105a0366004614506565b611766565b6104bd6105b336600461451f565b61186c565b6104bd6105c636600461454f565b611896565b6104bd6105d936600461451f565b6119e3565b6104bd6105ec366004614595565b611a5d565b6104bd6105ff36600461446d565b611b1d565b6104bd611d5f565b61044461061a366004614450565b6101766020526000908152604090205481565b6101645461064890600160a81b90046001600160401b031681565b6040516001600160401b039091168152602001610436565b6104bd61066e3660046145f9565b611d72565b61017754610466906001600160a01b031681565b61042a610695366004614450565b6101756020526000908152604090205460ff1681565b6104bd6106b936600461454f565b611f62565b6104bd6106cc36600461454f565b6121d2565b60335460ff1661042a565b6106e461230f565b6040516104369190614648565b6107046106ff366004614506565b612372565b6040805163ffffffff9b8c168152998b1660208b0152978a16978901979097529488166060880152928716608087015290861660a0860152851660c0850152841660e0840152831661010083015290911661012082015261014001610436565b61016054610466906001600160a01b031681565b6104bd6107863660046146ae565b6123fe565b61016554610648906001600160401b031681565b6104446107ad366004614450565b6101696020526000908152604090205481565b61042a6127d5565b61042a6129a4565b61015f54610466906001600160a01b031681565b6104446107f23660046146f5565b61016a60209081526000928352604080842090915290825290205481565b6104446101685481565b6104bd61082836600461473a565b6129cd565b6104bd612dd1565b6101715461057490640100000000900463ffffffff1681565b6104bd61085c366004614450565b612de4565b61046661086f366004614787565b612f83565b6104bd610882366004614506565b612fa2565b61042a61089536600461451f565b61305e565b6104bd6108a8366004614506565b613089565b610444600080516020614cf483398151915281565b610444600081565b6104bd6108d836600461446d565b61310e565b6104446108eb3660046146f5565b61016b60209081526000928352604080842090915290825290205481565b6104446101705481565b61044461016f5481565b6101645461093290600160a01b900460ff1681565b60405161043691906147bf565b6104bd61094d3660046147e7565b6132cf565b610444610960366004614506565b613371565b6104446101665481565b61044461016c5481565b610444610987366004614450565b61016e6020526000908152604090205481565b6104bd6109a836600461451f565b613388565b6104666109bb366004614506565b6133ad565b6104bd6109ce366004614595565b6133d8565b61017454610444565b61044461271081565b610444600080516020614cd483398151915281565b6104bd610a08366004614450565b61350f565b610a20610a1b366004614506565b6136f0565b604080516001600160a01b039093168352602083019190915201610436565b61016254610466906001600160a01b031681565b60006001600160e01b03198216635a05180f60e01b1480610a785750610a7882613729565b92915050565b61015f54600090610a97906001600160a01b031661375e565b6001600160a01b0316336001600160a01b03161480610adc575061015f54610ac7906001600160a01b031661376b565b6001600160a01b0316336001600160a01b0316145b610b4b5760405162461bcd60e51b815260206004820152603560248201527f53656375726974697a6174696f6e506f6f6c3a204d75737420626520746f6b656044820152741b881a5cdcdd595908189e48155b9d185b99db1959605a1b60648201526084015b60405180910390fd5b6101736040518060400160405280610b603390565b6001600160a01b039081168252602091820187905283546001818101865560009586529483902084516002909202018054919092166001600160a01b031990911617815591015191015550630a85bd0160e11b949350505050565b610bc3613778565b610bcb6137c0565b8060005b81811015610da05761015f54610bed906001600160a01b0316613819565b6001600160a01b03166384933c0c858584818110610c0d57610c0d614802565b9050602002016020810190610c229190614450565b6040516001600160e01b031960e084901b1681526001600160a01b039091166004820152602401602060405180830381865afa158015610c66573d6000803e3d6000fd5b505050506040513d601f19601f82011682018060405250810190610c8a9190614818565b610ca65760405162461bcd60e51b8152600401610b429061483a565b6000848483818110610cba57610cba614802565b9050602002016020810190610ccf9190614450565b6040516370a0823160e01b81523060048201526001600160a01b0391909116906370a0823190602401602060405180830381865afa158015610d15573d6000803e3d6000fd5b505050506040513d601f19601f82011682018060405250810190610d399190614883565b11610d985760405162461bcd60e51b815260206004820152602960248201527f53656375726974697a6174696f6e506f6f6c3a20546f6b656e2062616c616e6360448201526865206973207a65726f60b81b6064820152608401610b42565b600101610bcf565b5060005b81811015610de357610ddb848483818110610dc157610dc1614802565b9050602002016020810190610dd69190614450565b613826565b600101610da4565b5050610def6001606555565b5050565b610dfb613778565b610e036129a4565b15610e205760405162461bcd60e51b8152600401610b429061489c565b600080516020614cd4833981519152610e38816138c0565b8584610e458260056148fa565b148015610e5b575082610e598260046148fa565b145b610ecd5760405162461bcd60e51b815260206004820152603860248201527f53656375726974697a6174696f6e506f6f6c3a205269736b73636f726520706160448201527f72616d73206c656e677468206973206e6f7420657175616c00000000000000006064820152608401610b42565b610eda6101726000614248565b60005b818110156113f157801580610f5357508888610efa600184614911565b818110610f0957610f09614802565b9050602002016020810190610f1e91906147e7565b63ffffffff16898983818110610f3657610f36614802565b9050602002016020810190610f4b91906147e7565b63ffffffff16115b610fb65760405162461bcd60e51b815260206004820152602e60248201527f53656375726974697a6174696f6e506f6f6c3a205269736b2073636f7265732060448201526d1b5d5cdd081899481cdbdc9d195960921b6064820152608401610b42565b6101726040518061014001604052808b8b85818110610fd757610fd7614802565b9050602002016020810190610fec91906147e7565b63ffffffff16815260200189898581811061100957611009614802565b905060200201602081019061101e91906147e7565b63ffffffff16815260200189896110358787614924565b81811061104457611044614802565b905060200201602081019061105991906147e7565b63ffffffff16815260200189896110718760026148fa565b61107b9087614924565b81811061108a5761108a614802565b905060200201602081019061109f91906147e7565b63ffffffff16815260200189896110b78760036148fa565b6110c19087614924565b8181106110d0576110d0614802565b90506020020160208101906110e591906147e7565b63ffffffff16815260200189896110fd8760046148fa565b6111079087614924565b81811061111657611116614802565b905060200201602081019061112b91906147e7565b63ffffffff16815260200187878581811061114857611148614802565b905060200201602081019061115d91906147e7565b63ffffffff16815260200187876111748787614924565b81811061118357611183614802565b905060200201602081019061119891906147e7565b63ffffffff16815260200187876111b08760026148fa565b6111ba9087614924565b8181106111c9576111c9614802565b90506020020160208101906111de91906147e7565b63ffffffff16815260200187876111f68760036148fa565b6112009087614924565b81811061120f5761120f614802565b905060200201602081019061122491906147e7565b63ffffffff16815250908060018154018082558091505060019003906000526020600020906002020160009091909190915060008201518160000160006101000a81548163ffffffff021916908363ffffffff16021790555060208201518160000160046101000a81548163ffffffff021916908363ffffffff16021790555060408201518160000160086101000a81548163ffffffff021916908363ffffffff160217905550606082015181600001600c6101000a81548163ffffffff021916908363ffffffff16021790555060808201518160000160106101000a81548163ffffffff021916908363ffffffff16021790555060a08201518160000160146101000a81548163ffffffff021916908363ffffffff16021790555060c08201518160000160186101000a81548163ffffffff021916908363ffffffff16021790555060e082015181600001601c6101000a81548163ffffffff021916908363ffffffff1602179055506101008201518160010160006101000a81548163ffffffff021916908363ffffffff1602179055506101208201518160010160046101000a81548163ffffffff021916908363ffffffff16021790555050506113ea8160010190565b9050610edd565b505050505050505050565b61015f546000908190611417906001600160a01b03166138ca565b604051630129ecc560e61b81523060048201529091506001600160a01b03821690634a7b314090602401602060405180830381865afa15801561145e573d6000803e3d6000fd5b505050506040513d601f19601f820116820180604052508101906114829190614883565b61017154640100000000900463ffffffff16111592915050565b6114a4613778565b6114ac6129a4565b156114c95760405162461bcd60e51b8152600401610b429061489c565b600080516020614cf48339815191526114e1816138c0565b8584811480156114f057508483145b6115545760405162461bcd60e51b815260206004820152602f60248201527f53656375726974697a6174696f6e506f6f6c3a20506172616d73206c656e677460448201526e1a08185c99481b9bdd08195c5d585b608a1b6064820152608401610b42565b60005b818110156116365761015f54611575906001600160a01b0316613819565b6001600160a01b03166384933c0c8a8a8481811061159557611595614802565b90506020020160208101906115aa9190614450565b6040516001600160e01b031960e084901b1681526001600160a01b039091166004820152602401602060405180830381865afa1580156115ee573d6000803e3d6000fd5b505050506040513d601f19601f820116820180604052508101906116129190614818565b61162e5760405162461bcd60e51b8152600401610b429061483a565b600101611557565b5060005b8181101561165f57611657898983818110610dc157610dc1614802565b60010161163a565b5060005b818110156113f15788888281811061167d5761167d614802565b90506020020160208101906116929190614450565b6001600160a01b03166323b872dd8888848181106116b2576116b2614802565b90506020020160208101906116c79190614450565b308888868181106116da576116da614802565b905060200201356040518463ffffffff1660e01b81526004016116ff93929190614937565b6020604051808303816000875af115801561171e573d6000803e3d6000fd5b505050506040513d601f19601f820116820180604052508101906117429190614818565b61175e5760405162461bcd60e51b8152600401610b429061495b565b600101611663565b61176e613778565b6117766137c0565b600080516020614cf483398151915261178e816138c0565b816101665461179d9190614911565b610166556117a96113fc565b6117c55760405162461bcd60e51b8152600401610b429061499e565b61016454610177546040516323b872dd60e01b81526001600160a01b03928316926323b872dd926117ff9291169033908790600401614937565b6020604051808303816000875af115801561181e573d6000803e3d6000fd5b505050506040513d601f19601f820116820180604052508101906118429190614818565b61185e5760405162461bcd60e51b8152600401610b429061495b565b506118696001606555565b50565b600082815260c96020526040902060010154611887816138c0565b61189183836138d7565b505050565b61189e613778565b61015f546118b4906001600160a01b03166138f9565b6001600160a01b0316336001600160a01b0316146118e45760405162461bcd60e51b8152600401610b42906149d5565b6001600160a01b03808516600090815261016a6020908152604080832093871683529290522054611916908390614924565b6001600160a01b03808616600081815261016a602090815260408083209489168084529482528083209590955591815261016b82528381209281529190522054611961908290614924565b6001600160a01b03808616600090815261016b602090815260408083209388168352929052205561016854611997908390614924565b610168556001600160a01b038416600090815261016960205260409020546119c0908290614924565b6001600160a01b0390941660009081526101696020526040902093909355505050565b6001600160a01b0381163314611a535760405162461bcd60e51b815260206004820152602f60248201527f416363657373436f6e74726f6c3a2063616e206f6e6c792072656e6f756e636560448201526e103937b632b9903337b91039b2b63360891b6064820152608401610b42565b610def8282613906565b611a65613778565b600080516020614cf4833981519152611a7d816138c0565b8160005b81811015611b1457866001600160a01b03166342842e0e8730888886818110611aac57611aac614802565b905060200201356040518463ffffffff1660e01b8152600401611ad193929190614937565b600060405180830381600087803b158015611aeb57600080fd5b505af1158015611aff573d6000803e3d6000fd5b50505050611b0d8160010190565b9050611a81565b50505050505050565b611b25613778565b611b2d6137c0565b600080516020614cd4833981519152611b45816138c0565b85848114611b655760405162461bcd60e51b8152600401610b4290614a22565b808314611b845760405162461bcd60e51b8152600401610b4290614a7f565b60005b81811015611d4a5761017560008a8a84818110611ba657611ba6614802565b9050602002016020810190611bbb9190614450565b6001600160a01b0316815260208101919091526040016000205460ff16611c405760405162461bcd60e51b815260206004820152603360248201527f53656375726974697a6174696f6e506f6f6c3a206e6f746520746f6b656e20616044820152721cdcd95d08191bd95cc81b9bdd08195e1a5cdd606a1b6064820152608401610b42565b888882818110611c5257611c52614802565b9050602002016020810190611c679190614450565b6001600160a01b031663a9059cbb888884818110611c8757611c87614802565b9050602002016020810190611c9c9190614450565b878785818110611cae57611cae614802565b6040516001600160e01b031960e087901b1681526001600160a01b03909416600485015260200291909101356024830152506044016020604051808303816000875af1158015611d02573d6000803e3d6000fd5b505050506040513d601f19601f82011682018060405250810190611d269190614818565b611d425760405162461bcd60e51b8152600401610b429061495b565b600101611b87565b505050611d576001606555565b505050505050565b6000611d6a816138c0565b611869613928565b611d7a613778565b61015f54611d90906001600160a01b031661397a565b6001600160a01b0316336001600160a01b031614611dc05760405162461bcd60e51b8152600401610b4290614adc565b600261016454600160a01b900460ff166003811115611de157611de16147a9565b14158015611e0e5750600361016454600160a01b900460ff166003811115611e0b57611e0b6147a9565b14155b611e5a5760405162461bcd60e51b815260206004820152601a60248201527f4e6f7420696e2069737375696e6720746f6b656e2073746167650000000000006044820152606401610b42565b6001600160a01b03831615801590611e7a57506001600160a01b03821615155b611ec65760405162461bcd60e51b815260206004820181905260248201527f53656375726974697a6174696f6e506f6f6c3a2041646472657373207a65726f6044820152606401610b42565b6000816001811115611eda57611eda6147a9565b03611f165761016080546001600160a01b038086166001600160a01b031992831617909255610162805492851692909116919091179055611f49565b61016180546001600160a01b038086166001600160a01b0319928316179092556101638054928516929091169190911790555b5050610164805460ff60a01b1916600160a01b17905550565b611f6a613778565b611f726137c0565b61015f54611f88906001600160a01b0316613987565b6001600160a01b0316336001600160a01b0316146120075760405162461bcd60e51b815260206004820152603660248201527f53656375726974697a6174696f6e506f6f6c3a2043616c6c6572206d75737420604482015275626520446973747269627574696f6e5472616e63686560501b6064820152608401610b42565b610162546001600160a01b0380851691160361204c576001600160a01b0384166000908152610176602052604081208054849290612046908490614924565b90915550505b816101665461205b9190614911565b6101665580156120c057604051630852cd8d60e31b8152600481018290526001600160a01b038416906342966c6890602401600060405180830381600087803b1580156120a757600080fd5b505af11580156120bb573d6000803e3d6000fd5b505050505b6120c86113fc565b6120e45760405162461bcd60e51b8152600401610b429061499e565b61016454610177546040516323b872dd60e01b81526001600160a01b03928316926323b872dd9261211e9291169088908790600401614937565b6020604051808303816000875af115801561213d573d6000803e3d6000fd5b505050506040513d601f19601f820116820180604052508101906121619190614818565b6121c25760405162461bcd60e51b815260206004820152602c60248201527f53656375726974697a6174696f6e506f6f6c3a2063757272656e63792d74726160448201526b1b9cd9995c8b59985a5b195960a21b6064820152608401610b42565b6121cc6001606555565b50505050565b6121da613778565b61015f546121f0906001600160a01b03166138f9565b6001600160a01b0316336001600160a01b0316146122205760405162461bcd60e51b8152600401610b42906149d5565b6001600160a01b03808516600090815261016a6020908152604080832093871683529290522054612252908390614911565b6001600160a01b03808616600081815261016a602090815260408083209489168084529482528083209590955591815261016b8252838120928152919052205461229d908290614911565b6001600160a01b03808616600090815261016b6020908152604080832093881683529290522055610168546122d3908390614911565b61016855610167546122e6908390614924565b610167556001600160a01b038416600090815261016960205260409020546119c0908290614911565b606061017480548060200260200160405190810160405280929190818152602001828054801561236857602002820191906000526020600020905b81546001600160a01b0316815260019091019060200180831161234a575b5050505050905090565b610172818154811061238357600080fd5b60009182526020909120600290910201805460019091015463ffffffff8083169350640100000000808404821693680100000000000000008104831693600160601b8204841693600160801b8304811693600160a01b8404821693600160c01b8104831693600160e01b90910483169281811692909104168a565b600054610100900460ff161580801561241e5750600054600160ff909116105b806124385750303b158015612438575060005460ff166001145b61249b5760405162461bcd60e51b815260206004820152602e60248201527f496e697469616c697a61626c653a20636f6e747261637420697320616c72656160448201526d191e481a5b9a5d1a585b1a5e995960921b6064820152608401610b42565b6000805460ff1916600117905580156124be576000805461ff0019166101001790555b6124cb61271060646148fa565b8263ffffffff161061252f5760405162461bcd60e51b815260206004820152602760248201527f6d696e46697273744c6f737343757368696f6e20697320677265617465722074604482015266068616e203130360cc1b6064820152608401610b42565b6001600160a01b0383166125915760405162461bcd60e51b8152602060048201526024808201527f53656375726974697a6174696f6e506f6f6c3a20496e76616c69642063757272604482015263656e637960e01b6064820152608401610b42565b61259a33613994565b6125c0600080516020614cf4833981519152600080516020614cd48339815191526139c4565b61015f80546001600160a01b038681166001600160a01b03199283161790925561016480549286166001600160a81b031990931683179055610171805463ffffffff86166401000000000267ffffffff000000001990911617905561017780549091163090811790915560405163095ea7b360e01b81526004810191909152600019602482015263095ea7b3906044016020604051808303816000875af115801561266f573d6000803e3d6000fd5b505050506040513d601f19601f820116820180604052508101906126939190614818565b6126f45760405162461bcd60e51b815260206004820152602c60248201527f53656375726974697a6174696f6e506f6f6c3a2043757272656e63792061707060448201526b1c9bdd985b0819985a5b195960a21b6064820152608401610b42565b61015f5461270a906001600160a01b031661376b565b61015f546001600160a01b039182169163a22cb4659161272a9116613a0f565b6040516001600160e01b031960e084901b1681526001600160a01b03909116600482015260016024820152604401600060405180830381600087803b15801561277257600080fd5b505af1158015612786573d6000803e3d6000fd5b5050505080156121cc576000805461ff0019169055604051600181527f7f26b83ff96e1f2b6a682f133852f6798a09c465da95921460cefb38474024989060200160405180910390a150505050565b610162546000906001600160a01b0316156128bb5761016260009054906101000a90046001600160a01b03166001600160a01b03166318160ddd6040518163ffffffff1660e01b8152600401602060405180830381865afa15801561283e573d6000803e3d6000fd5b505050506040513d601f19601f820116820180604052508101906128629190614883565b156128bb5760405162461bcd60e51b8152602060048201526024808201527f53656375726974697a6174696f6e506f6f6c3a20534f54207374696c6c20726560448201526336b0b4b760e11b6064820152608401610b42565b610163546001600160a01b03161561299e5761016360009054906101000a90046001600160a01b03166001600160a01b03166318160ddd6040518163ffffffff1660e01b8152600401602060405180830381865afa158015612921573d6000803e3d6000fd5b505050506040513d601f19601f820116820180604052508101906129459190614883565b1561299e5760405162461bcd60e51b8152602060048201526024808201527f53656375726974697a6174696f6e506f6f6c3a204a4f54207374696c6c20726560448201526336b0b4b760e11b6064820152608401610b42565b50600190565b6000600361016454600160a01b900460ff1660038111156129c7576129c76147a9565b14905090565b6129d5613778565b6129dd6137c0565b600080516020614cd48339815191526129f5816138c0565b600261016454600160a01b900460ff166003811115612a1657612a166147a9565b14158015612a435750600361016454600160a01b900460ff166003811115612a4057612a406147a9565b14155b612a8f5760405162461bcd60e51b815260206004820152601a60248201527f4e6f7420696e2069737375696e6720746f6b656e2073746167650000000000006044820152606401610b42565b6000856001600160401b031611612af45760405162461bcd60e51b8152602060048201526024808201527f53656375726974697a6174696f6e506f6f6c3a205465726d206c656e677468206044820152630697320360e41b6064820152608401610b42565b610164805467ffffffffffffffff60a81b1916600160a81b6001600160401b038581169190910291909117909155610165805467ffffffffffffffff191691871691909117905561016f8490556101715463ffffffff16600003612b6957610171805463ffffffff191663ffffffff85161790555b610164805460ff60a01b1916600160a11b179055610160546001600160a01b031615612cd657610160546040805163b3f05b9760e01b815290516001600160a01b0390921691829163b3f05b979160048083019260209291908290030181865afa158015612bdb573d6000803e3d6000fd5b505050506040513d601f19601f82011682018060405250810190612bff9190614818565b612c5e5760405162461bcd60e51b815260206004820152602a60248201527f53656375726974697a6174696f6e506f6f6c3a2073616c65206973207374696c6044820152696c206f6e20676f696e6760b01b6064820152608401610b42565b6040516351c5295360e11b815263ffffffff851660048201526001600160401b038088166024830152841660448201526001600160a01b0382169063a38a52a690606401600060405180830381600087803b158015612cbc57600080fd5b505af1158015612cd0573d6000803e3d6000fd5b50505050505b610161546001600160a01b031615612dc65761016160009054906101000a90046001600160a01b03166001600160a01b031663b3f05b976040518163ffffffff1660e01b8152600401602060405180830381865afa158015612d3c573d6000803e3d6000fd5b505050506040513d601f19601f82011682018060405250810190612d609190614818565b612dc65760405162461bcd60e51b815260206004820152603160248201527f53656375726974697a6174696f6e506f6f6c3a207365636f6e642073616c65206044820152706973207374696c6c206f6e20676f696e6760781b6064820152608401610b42565b506121cc6001606555565b6000612ddc816138c0565b611869613a1c565b612dec613778565b612df46137c0565b600080516020614cd4833981519152612e0c816138c0565b612e146127d5565b612e785760405162461bcd60e51b815260206004820152602f60248201527f53656375726974697a6174696f6e506f6f6c3a20526564656d7074696f6e206860448201526e185cc81b9bdd08199a5b9a5cda1959608a1b6064820152608401610b42565b61016454610177546040516370a0823160e01b81526001600160a01b0391821660048201819052919092169182916323b872dd91869084906370a0823190602401602060405180830381865afa158015612ed6573d6000803e3d6000fd5b505050506040513d601f19601f82011682018060405250810190612efa9190614883565b6040518463ffffffff1660e01b8152600401612f1893929190614937565b6020604051808303816000875af1158015612f37573d6000803e3d6000fd5b505050506040513d601f19601f82011682018060405250810190612f5b9190614818565b612f775760405162461bcd60e51b8152600401610b429061495b565b50506118696001606555565b600082815260fb60205260408120612f9b9083613a59565b9392505050565b612faa613778565b61015f54612fc0906001600160a01b0316613a65565b6001600160a01b0316336001600160a01b0316146130355760405162461bcd60e51b815260206004820152602c60248201527f53656375726974697a6174696f6e506f6f6c3a204f6e6c79204c6f616e52657060448201526b30bcb6b2b73a2937baba32b960a11b6064820152608401610b42565b80610166546130449190614924565b6101665561016c54613057908290614924565b61016c5550565b600091825260c9602090815260408084206001600160a01b0393909316845291905290205460ff1690565b613091613778565b61015f546130a7906001600160a01b031661397a565b6001600160a01b0316336001600160a01b0316146130d75760405162461bcd60e51b8152600401610b4290614adc565b80610166546130e69190614924565b610166556130f26113fc565b6118695760405162461bcd60e51b8152600401610b429061499e565b613116613778565b61311e6137c0565b600080516020614cd4833981519152613136816138c0565b838681146131565760405162461bcd60e51b8152600401610b4290614a22565b8683146131755760405162461bcd60e51b8152600401610b4290614a7f565b60005b818110156131ec576131c889898381811061319557613195614802565b90506020020160208101906131aa9190614450565b8888848181106131bc576131bc614802565b90506020020135613a72565b6131e45760405162461bcd60e51b8152600401610b4290614b2a565b600101613178565b5060005b81811015611d4a5788888281811061320a5761320a614802565b905060200201602081019061321f9190614450565b6001600160a01b03166342842e0e3087878581811061324057613240614802565b90506020020160208101906132559190614450565b8a8a8681811061326757613267614802565b905060200201356040518463ffffffff1660e01b815260040161328c93929190614937565b600060405180830381600087803b1580156132a657600080fd5b505af11580156132ba573d6000803e3d6000fd5b505050506132c88160010190565b90506131f0565b6132d7613778565b610160546001600160a01b0316336001600160a01b0316146133545760405162461bcd60e51b815260206004820152603060248201527f53656375726974697a6174696f6e506f6f6c3a204f6e6c79207467652063616e60448201526f081d5c19185d19481a5b9d195c995cdd60821b6064820152608401610b42565b610171805463ffffffff191663ffffffff92909216919091179055565b600081815260fb60205260408120610a7890613b18565b600082815260c960205260409020600101546133a3816138c0565b6118918383613906565b61017481815481106133be57600080fd5b6000918252602090912001546001600160a01b0316905081565b6133e0613778565b6133e86137c0565b6133f06129a4565b1561340d5760405162461bcd60e51b8152600401610b429061489c565b600080516020614cd4833981519152613425816138c0565b8160005b8181101561346b57613447878686848181106131bc576131bc614802565b6134635760405162461bcd60e51b8152600401610b4290614b2a565b600101613429565b5060005b8181101561350257866001600160a01b03166342842e0e308888888681811061349a5761349a614802565b905060200201356040518463ffffffff1660e01b81526004016134bf93929190614937565b600060405180830381600087803b1580156134d957600080fd5b505af11580156134ed573d6000803e3d6000fd5b505050506134fb8160010190565b905061346f565b5050506121cc6001606555565b613517613778565b61351f6137c0565b6135276129a4565b156135445760405162461bcd60e51b8152600401610b429061489c565b600080516020614cd483398151915261355c816138c0565b613574600080516020614cd48339815191528361305e565b1561357e57600080fd5b610177546001600160a01b038084169116036135f65760405162461bcd60e51b815260206004820152603160248201527f53656375726974697a6174696f6e506f6f6c3a2053616d652061646472657373604482015270081dda5d1a0818dd5c9c995b9d081c1bdd607a1b6064820152608401610b42565b61017780546001600160a01b0319166001600160a01b03841690811790915530900361185e57610164546101775460405163095ea7b360e01b81526001600160a01b039182166004820152600019602482015291169063095ea7b3906044016020604051808303816000875af1158015613674573d6000803e3d6000fd5b505050506040513d601f19601f820116820180604052508101906136989190614818565b61185e5760405162461bcd60e51b8152602060048201526024808201527f53656375726974697a6174696f6e506f6f6c3a20506f74206e6f7420617070726044820152631bdd995960e21b6064820152608401610b42565b610173818154811061370157600080fd5b6000918252602090912060029091020180546001909101546001600160a01b03909116915082565b60006001600160e01b03198216637965db0b60e01b1480610a7857506301ffc9a760e01b6001600160e01b0319831614610a78565b6000610a78826008613b22565b6000610a78826007613b22565b60335460ff16156137be5760405162461bcd60e51b815260206004820152601060248201526f14185d5cd8589b194e881c185d5cd95960821b6044820152606401610b42565b565b6002606554036138125760405162461bcd60e51b815260206004820152601f60248201527f5265656e7472616e637947756172643a207265656e7472616e742063616c6c006044820152606401610b42565b6002606555565b6000610a78826002613b22565b6001600160a01b0381166000908152610175602052604090205460ff166138945761017480546001810182556000919091527f19628ef4f1e52435a91694e0b17e2591e7982b96f1883cadfe58900fe74230c40180546001600160a01b0319166001600160a01b0383161790555b6001600160a01b0316600090815261017560205260409020805460ff19166001179055565b6001606555565b6118698133613ba7565b6000610a78826010613b22565b6138e18282613c00565b600082815260fb602052604090206118919082613c86565b6000610a78826004613b22565b6139108282613c9b565b600082815260fb602052604090206118919082613d02565b613930613d17565b6033805460ff191690557f5db9ee0a495bf2e6ff9c91a7834c1ba4fdd244a5e8aa4e537bd38aeae4b073aa335b6040516001600160a01b03909116815260200160405180910390a1565b6000610a78826000613b22565b6000610a78826006613b22565b600054610100900460ff166139bb5760405162461bcd60e51b8152600401610b4290614b72565b61186981613d60565b600082815260c96020526040808220600101805490849055905190918391839186917fbd79b86ffe0ab8e8776151514217cd7cacd52c909f66475c3af44e129f0b00ff9190a4505050565b6000610a7882600c613b22565b613a24613778565b6033805460ff191660011790557f62e78cea01bee320cd4e420270b5ea74000d11b0c9f74754ebdbfc544b05a25861395d3390565b6000612f9b8383613deb565b6000610a7882600b613b22565b61017354600090815b81811015613b0d57846001600160a01b03166101738281548110613aa157613aa1614802565b60009182526020909120600290910201546001600160a01b0316148015613aec5750836101738281548110613ad857613ad8614802565b906000526020600020906002020160010154145b15613b0557613afa81613e15565b600192505050610a78565b600101613a7b565b506000949350505050565b6000610a78825490565b6000826001600160a01b031663bcaa0c55836018811115613b4557613b456147a9565b6040516001600160e01b031960e084901b16815260ff9091166004820152602401602060405180830381865afa158015613b83573d6000803e3d6000fd5b505050506040513d601f19601f82011682018060405250810190612f9b9190614bbd565b613bb1828261305e565b610def57613bbe81613ece565b613bc9836020613ee0565b604051602001613bda929190614bfe565b60408051601f198184030181529082905262461bcd60e51b8252610b4291600401614c73565b613c0a828261305e565b610def57600082815260c9602090815260408083206001600160a01b03851684529091529020805460ff19166001179055613c423390565b6001600160a01b0316816001600160a01b0316837f2f8788117e7eff1d82e926ec794901d17c78024a50270940304540a733656f0d60405160405180910390a45050565b6000612f9b836001600160a01b03841661407b565b613ca5828261305e565b15610def57600082815260c9602090815260408083206001600160a01b0385168085529252808320805460ff1916905551339285917ff6391f5c32d9c69d2a47ea670b442974b53935d1edc7fd64eb21e047a839171b9190a45050565b6000612f9b836001600160a01b0384166140ca565b60335460ff166137be5760405162461bcd60e51b815260206004820152601460248201527314185d5cd8589b194e881b9bdd081c185d5cd95960621b6044820152606401610b42565b600054610100900460ff16613d875760405162461bcd60e51b8152600401610b4290614b72565b613d8f6141bd565b613d976141f0565b613d9f614217565b6001600160a01b038116613db05750335b613dbb60008261423e565b613dd3600080516020614cd48339815191528261423e565b611869600080516020614cd4833981519152806139c4565b6000826000018281548110613e0257613e02614802565b9060005260206000200154905092915050565b6101738054613e2690600190614911565b81548110613e3657613e36614802565b90600052602060002090600202016101738281548110613e5857613e58614802565b60009182526020909120825460029092020180546001600160a01b0319166001600160a01b03909216919091178155600191820154910155610173805480613ea257613ea2614ca6565b60008281526020812060026000199093019283020180546001600160a01b031916815560010155905550565b6060610a786001600160a01b03831660145b60606000613eef8360026148fa565b613efa906002614924565b6001600160401b03811115613f1157613f116142cf565b6040519080825280601f01601f191660200182016040528015613f3b576020820181803683370190505b509050600360fc1b81600081518110613f5657613f56614802565b60200101906001600160f81b031916908160001a905350600f60fb1b81600181518110613f8557613f85614802565b60200101906001600160f81b031916908160001a9053506000613fa98460026148fa565b613fb4906001614924565b90505b600181111561402c576f181899199a1a9b1b9c1cb0b131b232b360811b85600f1660108110613fe857613fe8614802565b1a60f81b828281518110613ffe57613ffe614802565b60200101906001600160f81b031916908160001a90535060049490941c9361402581614cbc565b9050613fb7565b508315612f9b5760405162461bcd60e51b815260206004820181905260248201527f537472696e67733a20686578206c656e67746820696e73756666696369656e746044820152606401610b42565b60008181526001830160205260408120546140c257508154600181810184556000848152602080822090930184905584548482528286019093526040902091909155610a78565b506000610a78565b600081815260018301602052604081205480156141b35760006140ee600183614911565b855490915060009061410290600190614911565b905081811461416757600086600001828154811061412257614122614802565b906000526020600020015490508087600001848154811061414557614145614802565b6000918252602080832090910192909255918252600188019052604090208390555b855486908061417857614178614ca6565b600190038181906000526020600020016000905590558560010160008681526020019081526020016000206000905560019350505050610a78565b6000915050610a78565b600054610100900460ff166141e45760405162461bcd60e51b8152600401610b4290614b72565b6033805460ff19169055565b600054610100900460ff166138b95760405162461bcd60e51b8152600401610b4290614b72565b600054610100900460ff166137be5760405162461bcd60e51b8152600401610b4290614b72565b610def82826138d7565b508054600082556002029060005260206000209081019061186991905b8082111561428c576000815560018101805467ffffffffffffffff19169055600201614265565b5090565b6000602082840312156142a257600080fd5b81356001600160e01b031981168114612f9b57600080fd5b6001600160a01b038116811461186957600080fd5b634e487b7160e01b600052604160045260246000fd5b600080600080608085870312156142fb57600080fd5b8435614306816142ba565b93506020850135614316816142ba565b92506040850135915060608501356001600160401b038082111561433957600080fd5b818701915087601f83011261434d57600080fd5b81358181111561435f5761435f6142cf565b604051601f8201601f19908116603f01168101908382118183101715614387576143876142cf565b816040528281528a60208487010111156143a057600080fd5b82602086016020830137600060208483010152809550505050505092959194509250565b60008083601f8401126143d657600080fd5b5081356001600160401b038111156143ed57600080fd5b6020830191508360208260051b850101111561440857600080fd5b9250929050565b6000806020838503121561442257600080fd5b82356001600160401b0381111561443857600080fd5b614444858286016143c4565b90969095509350505050565b60006020828403121561446257600080fd5b8135612f9b816142ba565b6000806000806000806060878903121561448657600080fd5b86356001600160401b038082111561449d57600080fd5b6144a98a838b016143c4565b909850965060208901359150808211156144c257600080fd5b6144ce8a838b016143c4565b909650945060408901359150808211156144e757600080fd5b506144f489828a016143c4565b979a9699509497509295939492505050565b60006020828403121561451857600080fd5b5035919050565b6000806040838503121561453257600080fd5b823591506020830135614544816142ba565b809150509250929050565b6000806000806080858703121561456557600080fd5b8435614570816142ba565b93506020850135614580816142ba565b93969395505050506040820135916060013590565b600080600080606085870312156145ab57600080fd5b84356145b6816142ba565b935060208501356145c6816142ba565b925060408501356001600160401b038111156145e157600080fd5b6145ed878288016143c4565b95989497509550505050565b60008060006060848603121561460e57600080fd5b8335614619816142ba565b92506020840135614629816142ba565b915060408401356002811061463d57600080fd5b809150509250925092565b6020808252825182820181905260009190848201906040850190845b818110156146895783516001600160a01b031683529284019291840191600101614664565b50909695505050505050565b803563ffffffff811681146146a957600080fd5b919050565b6000806000606084860312156146c357600080fd5b83356146ce816142ba565b925060208401356146de816142ba565b91506146ec60408501614695565b90509250925092565b6000806040838503121561470857600080fd5b8235614713816142ba565b91506020830135614544816142ba565b80356001600160401b03811681146146a957600080fd5b6000806000806080858703121561475057600080fd5b61475985614723565b93506020850135925061476e60408601614695565b915061477c60608601614723565b905092959194509250565b6000806040838503121561479a57600080fd5b50508035926020909101359150565b634e487b7160e01b600052602160045260246000fd5b60208101600483106147e157634e487b7160e01b600052602160045260246000fd5b91905290565b6000602082840312156147f957600080fd5b612f9b82614695565b634e487b7160e01b600052603260045260246000fd5b60006020828403121561482a57600080fd5b81518015158114612f9b57600080fd5b60208082526029908201527f53656375726974697a6174696f6e506f6f6c3a20756e6b6e6f776e2d746f6b656040820152686e2d6164647265737360b81b606082015260800190565b60006020828403121561489557600080fd5b5051919050565b60208082526028908201527f53656375726974697a6174696f6e506f6f6c3a20506f6f6c20696e20636c6f73604082015267656420737461746560c01b606082015260800190565b634e487b7160e01b600052601160045260246000fd5b8082028115828204841417610a7857610a786148e4565b81810381811115610a7857610a786148e4565b80820180821115610a7857610a786148e4565b6001600160a01b039384168152919092166020820152604081019190915260600190565b60208082526023908201527f53656375726974697a6174696f6e506f6f6c3a205472616e73666572206661696040820152621b195960ea1b606082015260800190565b6020808252601d908201527f4d696e46697273744c6f7373206973206e6f7420736174697366696564000000604082015260600190565b6020808252602d908201527f53656375726974697a6174696f6e506f6f6c3a204f6e6c79204469737472696260408201526c3aba34b7b727b832b930ba37b960991b606082015260800190565b60208082526037908201527f746f6b656e416464726573736573206c656e67746820616e6420746f6b656e4960408201527f6473206c656e67746820617265206e6f7420657175616c000000000000000000606082015260800190565b60208082526039908201527f746f6b656e416464726573736573206c656e67746820616e642072656369706960408201527f656e7473206c656e67746820617265206e6f7420657175616c00000000000000606082015260800190565b6020808252602e908201527f53656375726974697a6174696f6e506f6f6c3a204f6e6c79205365637572697460408201526d34bd30ba34b7b726b0b730b3b2b960911b606082015260800190565b60208082526028908201527f53656375726974697a6174696f6e506f6f6c3a20417373657420646f6573206e6040820152671bdd08195e1a5cdd60c21b606082015260800190565b6020808252602b908201527f496e697469616c697a61626c653a20636f6e7472616374206973206e6f74206960408201526a6e697469616c697a696e6760a81b606082015260800190565b600060208284031215614bcf57600080fd5b8151612f9b816142ba565b60005b83811015614bf5578181015183820152602001614bdd565b50506000910152565b7f416363657373436f6e74726f6c3a206163636f756e7420000000000000000000815260008351614c36816017850160208801614bda565b7001034b99036b4b9b9b4b733903937b6329607d1b6017918401918201528351614c67816028840160208801614bda565b01602801949350505050565b6020815260008251806020840152614c92816040850160208701614bda565b601f01601f19169190910160400192915050565b634e487b7160e01b600052603160045260246000fd5b600081614ccb57614ccb6148e4565b50600019019056feb19546dff01e856fb3f010c267a7b1c60363cf8a4664e21cc89c26224620214e59abfac6520ec36a6556b2a4dd949cc40007459bcd5cd2507f1e5cc77b6bc97ea264697066735822122046bd653f002e3919a6569d2de994d325c44c426f5a1c5b898777f4532b97857164736f6c63430008130033"
}