{
  "address": "0x9642Dd19517638C946Fae583355db426BdD78868",
  "abi": [
    {
      "anonymous": false,
      "inputs": [
        {
          "indexed": false,
          "internalType": "uint8",
          "name": "version",
          "type": "uint8"
        }
      ],
      "name": "Initialized",
      "type": "event"
    },
    {
      "anonymous": false,
      "inputs": [
        {
          "indexed": false,
          "internalType": "uint256",
          "name": "newTimestamp",
          "type": "uint256"
        }
      ],
      "name": "UpdateOpeningBlockTimestamp",
      "type": "event"
    },
    {
      "anonymous": false,
      "inputs": [
        {
          "indexed": false,
          "internalType": "address",
          "name": "registry",
          "type": "address"
        }
      ],
      "name": "UpdateRegistry",
      "type": "event"
    },
    {
      "inputs": [],
      "name": "getFunctionSignatures",
      "outputs": [
        {
          "internalType": "bytes4[]",
          "name": "",
          "type": "bytes4[]"
        }
      ],
      "stateMutability": "view",
      "type": "function"
    },
    {
      "inputs": [
        {
          "internalType": "bytes",
          "name": "params",
          "type": "bytes"
        }
      ],
      "name": "installExtension",
      "outputs": [],
      "stateMutability": "nonpayable",
      "type": "function"
    },
    {
      "inputs": [],
      "name": "isClosedState",
      "outputs": [
        {
          "internalType": "bool",
          "name": "",
          "type": "bool"
        }
      ],
      "stateMutability": "view",
      "type": "function"
    },
    {
      "inputs": [],
      "name": "openingBlockTimestamp",
      "outputs": [
        {
          "internalType": "uint64",
          "name": "",
          "type": "uint64"
        }
      ],
      "stateMutability": "view",
      "type": "function"
    },
    {
      "inputs": [],
      "name": "poolNAV",
      "outputs": [
        {
          "internalType": "address",
          "name": "",
          "type": "address"
        }
      ],
      "stateMutability": "view",
      "type": "function"
    },
    {
      "inputs": [],
      "name": "pot",
      "outputs": [
        {
          "internalType": "address",
          "name": "",
          "type": "address"
        }
      ],
      "stateMutability": "view",
      "type": "function"
    },
    {
      "inputs": [],
      "name": "registry",
      "outputs": [
        {
          "internalType": "contract Registry",
          "name": "",
          "type": "address"
        }
      ],
      "stateMutability": "view",
      "type": "function"
    },
    {
      "inputs": [],
      "name": "secondTGEAddress",
      "outputs": [
        {
          "internalType": "address",
          "name": "",
          "type": "address"
        }
      ],
      "stateMutability": "view",
      "type": "function"
    },
    {
      "inputs": [],
      "name": "state",
      "outputs": [
        {
          "internalType": "enum ISecuritizationPoolStorage.CycleState",
          "name": "",
          "type": "uint8"
        }
      ],
      "stateMutability": "view",
      "type": "function"
    },
    {
      "inputs": [
        {
          "internalType": "bytes4",
          "name": "_interfaceId",
          "type": "bytes4"
        }
      ],
      "name": "supportsInterface",
      "outputs": [
        {
          "internalType": "bool",
          "name": "",
          "type": "bool"
        }
      ],
      "stateMutability": "view",
      "type": "function"
    },
    {
      "inputs": [],
      "name": "tgeAddress",
      "outputs": [
        {
          "internalType": "address",
          "name": "",
          "type": "address"
        }
      ],
      "stateMutability": "view",
      "type": "function"
    },
    {
      "inputs": [],
      "name": "validatorRequired",
      "outputs": [
        {
          "internalType": "bool",
          "name": "",
          "type": "bool"
        }
      ],
      "stateMutability": "view",
      "type": "function"
    }
  ],
  "transactionHash": "0xf953724902b8548dd48fa55d4b64cf727b478563c4ca3937dd789402c4d01986",
  "args": [],
  "numDeployments": 5,
  "solcInputHash": "4f14398d3ffdf11688775aac5458d96a",
  "bytecode": "0x608060405234801561001057600080fd5b506108ec806100206000396000f3fe608060405234801561001057600080fd5b50600436106100b45760003560e01c80636456a3ee116100715780636456a3ee146101e157806378d29d55146102115780637b10399914610219578063b09df36a14610249578063c19d93fb1461025e578063e87fa7741461029057600080fd5b806301ffc9a7146100b9578063221dc593146100e1578063326cd970146101255780634020c8d11461013a578063477035d1146101645780634ba2363a146101b1575b600080fd5b6100cc6100c736600461065b565b6102c0565b60405190151581526020015b60405180910390f35b7f42988f810f621c79bb2e8db2f913a015fc39ef8eac016043863c6a0d12adbf06546001600160a01b03165b6040516001600160a01b0390911681526020016100d8565b6101386101333660046106a2565b610312565b005b7f42988f810f621c79bb2e8db2f913a015fc39ef8eac016043863c6a0d12adbf005460ff166100cc565b7f42988f810f621c79bb2e8db2f913a015fc39ef8eac016043863c6a0d12adbf0b54640100000000900467ffffffffffffffff1660405167ffffffffffffffff90911681526020016100d8565b7f42988f810f621c79bb2e8db2f913a015fc39ef8eac016043863c6a0d12adbf0c546001600160a01b031661010d565b7f42988f810f621c79bb2e8db2f913a015fc39ef8eac016043863c6a0d12adbf05546001600160a01b031661010d565b6100cc6103fb565b7f5f6bd0daaaf246715f06ec0ea7e99af4468b70381a38e1f10cb19776ed17ce00546001600160a01b031661010d565b610251610441565b6040516100d89190610753565b7f42988f810f621c79bb2e8db2f913a015fc39ef8eac016043863c6a0d12adbf135460ff166040516100d891906107b7565b7f42988f810f621c79bb2e8db2f913a015fc39ef8eac016043863c6a0d12adbf19546001600160a01b031661010d565b60006301ffc9a760e01b6001600160e01b0319831614806102f15750635b89049d60e01b6001600160e01b03198316145b8061030c5750634178950d60e11b6001600160e01b03198316145b92915050565b6000309050306001600160a01b0316816001600160a01b03166346c715fa6040518163ffffffff1660e01b8152600401602060405180830381865afa15801561035f573d6000803e3d6000fd5b505050506040513d601f19601f8201168201806040525081019061038391906107fb565b6001600160a01b0316036103dd5760405162461bcd60e51b815260206004820152601860248201527f4f6e6c792063616c6c20696e2074617267657420706f6f6c0000000000000000604482015260640160405180910390fd5b6103f7828060200190518101906103f49190610816565b50565b5050565b6000600361042a7f42988f810f621c79bb2e8db2f913a015fc39ef8eac016043863c6a0d12adbf135460ff1690565b600381111561043b5761043b6107a1565b14905090565b6040805160098082526101408201909252606091600091906020820161012080368337019050509050636456a3ee60e01b81600081518110610485576104856108a0565b6001600160e01b031990921660209283029190910190910152805163221dc59360e01b90829060019081106104bc576104bc6108a0565b6001600160e01b031990921660209283029190910190910152805163c19d93fb60e01b90829060029081106104f3576104f36108a0565b6001600160e01b03199092166020928302919091019091015280516378d29d5560e01b908290600390811061052a5761052a6108a0565b6001600160e01b03199092166020928302919091019091015280516325d11b1d60e11b9082906004908110610561576105616108a0565b6001600160e01b0319909216602092830291909101909101528051634020c8d160e01b9082906005908110610598576105986108a0565b6001600160e01b031990921660209283029190910190910152805163477035d160e01b90829060069081106105cf576105cf6108a0565b6001600160e01b0319909216602092830291909101909101528051633a1fe9dd60e21b9082906007908110610606576106066108a0565b6001600160e01b03199092166020928302919091019091015280516301ffc9a760e01b908290600890811061063d5761063d6108a0565b6001600160e01b031990921660209283029190910190910152919050565b60006020828403121561066d57600080fd5b81356001600160e01b03198116811461068557600080fd5b9392505050565b634e487b7160e01b600052604160045260246000fd5b6000602082840312156106b457600080fd5b813567ffffffffffffffff808211156106cc57600080fd5b818401915084601f8301126106e057600080fd5b8135818111156106f2576106f261068c565b604051601f8201601f19908116603f0116810190838211818310171561071a5761071a61068c565b8160405282815287602084870101111561073357600080fd5b826020860160208301376000928101602001929092525095945050505050565b6020808252825182820181905260009190848201906040850190845b818110156107955783516001600160e01b0319168352928401929184019160010161076f565b50909695505050505050565b634e487b7160e01b600052602160045260246000fd5b60208101600483106107d957634e487b7160e01b600052602160045260246000fd5b91905290565b80516001600160a01b03811681146107f657600080fd5b919050565b60006020828403121561080d57600080fd5b610685826107df565b60006080828403121561082857600080fd5b6040516080810181811067ffffffffffffffff8211171561084b5761084b61068c565b604052610857836107df565b8152602083015163ffffffff8116811461087057600080fd5b60208201526040830151801515811461088857600080fd5b60408201526060928301519281019290925250919050565b634e487b7160e01b600052603260045260246000fdfea264697066735822122038adde91f81f255c4406b69aa8571c89676a07d26f0aff4ef40386dcb28738e164736f6c63430008130033",
  "devdoc": {
    "events": {
      "Initialized(uint8)": {
        "details": "Triggered when the contract has been initialized or reinitialized."
      }
    },
    "kind": "dev",
    "methods": {},
    "version": 1
  },
  "userdoc": {
    "kind": "user",
    "methods": {
      "isClosedState()": {
        "notice": "checks if the contract is in a closed state"
      }
    },
    "version": 1
  },
  "storageLayout": {
    "storage": [
      {
        "astId": 765,
        "contract": "contracts/protocol/pool/SecuritizationPoolStorage.sol:SecuritizationPoolStorage",
        "label": "_initialized",
        "offset": 0,
        "slot": "0",
        "type": "t_uint8"
      },
      {
        "astId": 768,
        "contract": "contracts/protocol/pool/SecuritizationPoolStorage.sol:SecuritizationPoolStorage",
        "label": "_initializing",
        "offset": 1,
        "slot": "0",
        "type": "t_bool"
      },
      {
        "astId": 5572,
        "contract": "contracts/protocol/pool/SecuritizationPoolStorage.sol:SecuritizationPoolStorage",
        "label": "__gap",
        "offset": 0,
        "slot": "1",
        "type": "t_array(t_uint256)50_storage"
      }
    ],
    "types": {
      "t_array(t_uint256)50_storage": {
        "base": "t_uint256",
        "encoding": "inplace",
        "label": "uint256[50]",
        "numberOfBytes": "1600"
      },
      "t_bool": {
        "encoding": "inplace",
        "label": "bool",
        "numberOfBytes": "1"
      },
      "t_uint256": {
        "encoding": "inplace",
        "label": "uint256",
        "numberOfBytes": "32"
      },
      "t_uint8": {
        "encoding": "inplace",
        "label": "uint8",
        "numberOfBytes": "1"
      }
    }
  }
}