{
  "address": "0x983e49696Ed1581469Edaf7D540F3bD648255626",
  "abi": [
    {
      "anonymous": false,
      "inputs": [
        {
          "indexed": false,
          "internalType": "address",
          "name": "token",
          "type": "address"
        }
      ],
      "name": "AddTokenAssetAddress",
      "type": "event"
    },
    {
      "anonymous": false,
      "inputs": [
        {
          "indexed": false,
          "internalType": "uint256",
          "name": "value",
          "type": "uint256"
        }
      ],
      "name": "CollectAsset",
      "type": "event"
    },
    {
      "anonymous": false,
      "inputs": [
        {
          "indexed": false,
          "internalType": "uint8",
          "name": "version",
          "type": "uint8"
        }
      ],
      "name": "Initialized",
      "type": "event"
    },
    {
      "anonymous": false,
      "inputs": [
        {
          "indexed": false,
          "internalType": "address",
          "name": "token",
          "type": "address"
        },
        {
          "indexed": false,
          "internalType": "uint256",
          "name": "tokenId",
          "type": "uint256"
        }
      ],
      "name": "InsertNFTAsset",
      "type": "event"
    },
    {
      "anonymous": false,
      "inputs": [
        {
          "indexed": false,
          "internalType": "address",
          "name": "account",
          "type": "address"
        }
      ],
      "name": "Paused",
      "type": "event"
    },
    {
      "anonymous": false,
      "inputs": [
        {
          "indexed": false,
          "internalType": "address",
          "name": "token",
          "type": "address"
        },
        {
          "indexed": false,
          "internalType": "uint256",
          "name": "tokenId",
          "type": "uint256"
        }
      ],
      "name": "RemoveNFTAsset",
      "type": "event"
    },
    {
      "anonymous": false,
      "inputs": [
        {
          "indexed": true,
          "internalType": "bytes32",
          "name": "role",
          "type": "bytes32"
        },
        {
          "indexed": true,
          "internalType": "address",
          "name": "account",
          "type": "address"
        },
        {
          "indexed": true,
          "internalType": "address",
          "name": "sender",
          "type": "address"
        }
      ],
      "name": "RoleGranted",
      "type": "event"
    },
    {
      "anonymous": false,
      "inputs": [
        {
          "indexed": true,
          "internalType": "bytes32",
          "name": "role",
          "type": "bytes32"
        },
        {
          "indexed": true,
          "internalType": "address",
          "name": "account",
          "type": "address"
        },
        {
          "indexed": true,
          "internalType": "address",
          "name": "sender",
          "type": "address"
        }
      ],
      "name": "RoleRevoked",
      "type": "event"
    },
    {
      "anonymous": false,
      "inputs": [
        {
          "indexed": false,
          "internalType": "address",
          "name": "originatorAddress",
          "type": "address"
        },
        {
          "indexed": false,
          "internalType": "uint256",
          "name": "amount",
          "type": "uint256"
        }
      ],
      "name": "SecuritizationPoolWithdraw",
      "type": "event"
    },
    {
      "anonymous": false,
      "inputs": [
        {
          "indexed": false,
          "internalType": "address",
          "name": "account",
          "type": "address"
        }
      ],
      "name": "Unpaused",
      "type": "event"
    },
    {
      "anonymous": false,
      "inputs": [
        {
          "indexed": false,
          "internalType": "uint32",
          "name": "_interestRateSOT",
          "type": "uint32"
        }
      ],
      "name": "UpdateInterestRateSOT",
      "type": "event"
    },
    {
      "anonymous": false,
      "inputs": [
        {
          "indexed": true,
          "internalType": "address",
          "name": "tokenAddress",
          "type": "address"
        },
        {
          "indexed": true,
          "internalType": "address",
          "name": "investor",
          "type": "address"
        },
        {
          "indexed": false,
          "internalType": "uint256",
          "name": "lockedDistributeBalance",
          "type": "uint256"
        },
        {
          "indexed": false,
          "internalType": "uint256",
          "name": "lockedRedeemBalances",
          "type": "uint256"
        },
        {
          "indexed": false,
          "internalType": "uint256",
          "name": "totalLockedRedeemBalances",
          "type": "uint256"
        },
        {
          "indexed": false,
          "internalType": "uint256",
          "name": "totalLockedDistributeBalance",
          "type": "uint256"
        }
      ],
      "name": "UpdateLockedDistributeBalance",
      "type": "event"
    },
    {
      "anonymous": false,
      "inputs": [
        {
          "indexed": false,
          "internalType": "uint256",
          "name": "newTimestamp",
          "type": "uint256"
        }
      ],
      "name": "UpdateOpeningBlockTimestamp",
      "type": "event"
    },
    {
      "anonymous": false,
      "inputs": [
        {
          "indexed": true,
          "internalType": "address",
          "name": "user",
          "type": "address"
        },
        {
          "indexed": false,
          "internalType": "uint256",
          "name": "currencyAmount",
          "type": "uint256"
        }
      ],
      "name": "UpdatePaidPrincipalAmountSOTByInvestor",
      "type": "event"
    },
    {
      "anonymous": false,
      "inputs": [
        {
          "indexed": false,
          "internalType": "address",
          "name": "registry",
          "type": "address"
        }
      ],
      "name": "UpdateRegistry",
      "type": "event"
    },
    {
      "anonymous": false,
      "inputs": [
        {
          "indexed": false,
          "internalType": "uint256",
          "name": "currencyAmount",
          "type": "uint256"
        }
      ],
      "name": "UpdateReserve",
      "type": "event"
    },
    {
      "anonymous": false,
      "inputs": [
        {
          "indexed": false,
          "internalType": "address",
          "name": "tge",
          "type": "address"
        },
        {
          "indexed": false,
          "internalType": "address",
          "name": "token",
          "type": "address"
        },
        {
          "indexed": false,
          "internalType": "enum Configuration.NOTE_TOKEN_TYPE",
          "name": "noteType",
          "type": "uint8"
        }
      ],
      "name": "UpdateTGEAddress",
      "type": "event"
    },
    {
      "inputs": [
        {
          "internalType": "uint256[]",
          "name": "tokenIds",
          "type": "uint256[]"
        },
        {
          "components": [
            {
              "internalType": "address",
              "name": "debtor",
              "type": "address"
            },
            {
              "internalType": "address",
              "name": "principalTokenAddress",
              "type": "address"
            },
            {
              "internalType": "bytes32",
              "name": "termsParam",
              "type": "bytes32"
            },
            {
              "internalType": "uint256",
              "name": "salt",
              "type": "uint256"
            },
            {
              "internalType": "uint256",
              "name": "issuanceBlockTimestamp",
              "type": "uint256"
            },
            {
              "internalType": "uint256",
              "name": "expirationTimestamp",
              "type": "uint256"
            },
            {
              "internalType": "uint8",
              "name": "riskScore",
              "type": "uint8"
            },
            {
              "internalType": "enum Configuration.ASSET_PURPOSE",
              "name": "assetPurpose",
              "type": "uint8"
            }
          ],
          "internalType": "struct LoanEntry[]",
          "name": "loanEntries",
          "type": "tuple[]"
        }
      ],
      "name": "collectAssets",
      "outputs": [
        {
          "internalType": "uint256",
          "name": "",
          "type": "uint256"
        }
      ],
      "stateMutability": "nonpayable",
      "type": "function"
    },
    {
      "inputs": [
        {
          "internalType": "address",
          "name": "tokenAddress",
          "type": "address"
        }
      ],
      "name": "collectERC20Asset",
      "outputs": [],
      "stateMutability": "nonpayable",
      "type": "function"
    },
    {
      "inputs": [
        {
          "internalType": "address",
          "name": "tokenAddress",
          "type": "address"
        },
        {
          "internalType": "address",
          "name": "toPoolAddress",
          "type": "address"
        },
        {
          "internalType": "uint256[]",
          "name": "tokenIds",
          "type": "uint256[]"
        }
      ],
      "name": "exportAssets",
      "outputs": [],
      "stateMutability": "nonpayable",
      "type": "function"
    },
    {
      "inputs": [],
      "name": "firstAssetTimestamp",
      "outputs": [
        {
          "internalType": "uint64",
          "name": "",
          "type": "uint64"
        }
      ],
      "stateMutability": "view",
      "type": "function"
    },
    {
      "inputs": [],
      "name": "getFunctionSignatures",
      "outputs": [
        {
          "internalType": "bytes4[]",
          "name": "",
          "type": "bytes4[]"
        }
      ],
      "stateMutability": "view",
      "type": "function"
    },
    {
      "inputs": [],
      "name": "getNFTAssetsLength",
      "outputs": [
        {
          "internalType": "uint256",
          "name": "",
          "type": "uint256"
        }
      ],
      "stateMutability": "view",
      "type": "function"
    },
    {
      "inputs": [],
      "name": "getRiskScoresLength",
      "outputs": [
        {
          "internalType": "uint256",
          "name": "",
          "type": "uint256"
        }
      ],
      "stateMutability": "view",
      "type": "function"
    },
    {
      "inputs": [],
      "name": "getTokenAssetAddresses",
      "outputs": [
        {
          "internalType": "address[]",
          "name": "",
          "type": "address[]"
        }
      ],
      "stateMutability": "view",
      "type": "function"
    },
    {
      "inputs": [],
      "name": "getTokenAssetAddressesLength",
      "outputs": [
        {
          "internalType": "uint256",
          "name": "",
          "type": "uint256"
        }
      ],
      "stateMutability": "view",
      "type": "function"
    },
    {
      "inputs": [
        {
          "internalType": "bytes32",
          "name": "role",
          "type": "bytes32"
        },
        {
          "internalType": "address",
          "name": "account",
          "type": "address"
        }
      ],
      "name": "grantRole",
      "outputs": [],
      "stateMutability": "nonpayable",
      "type": "function"
    },
    {
      "inputs": [
        {
          "internalType": "bytes32",
          "name": "role",
          "type": "bytes32"
        },
        {
          "internalType": "address",
          "name": "account",
          "type": "address"
        }
      ],
      "name": "hasRole",
      "outputs": [
        {
          "internalType": "bool",
          "name": "",
          "type": "bool"
        }
      ],
      "stateMutability": "view",
      "type": "function"
    },
    {
      "inputs": [
        {
          "internalType": "bytes",
          "name": "params",
          "type": "bytes"
        }
      ],
      "name": "installExtension",
      "outputs": [],
      "stateMutability": "nonpayable",
      "type": "function"
    },
    {
      "inputs": [],
      "name": "isClosedState",
      "outputs": [
        {
          "internalType": "bool",
          "name": "",
          "type": "bool"
        }
      ],
      "stateMutability": "view",
      "type": "function"
    },
    {
      "inputs": [
        {
          "internalType": "address",
          "name": "account",
          "type": "address"
        }
      ],
      "name": "isOwner",
      "outputs": [
        {
          "internalType": "bool",
          "name": "",
          "type": "bool"
        }
      ],
      "stateMutability": "view",
      "type": "function"
    },
    {
      "inputs": [
        {
          "internalType": "uint256",
          "name": "idx",
          "type": "uint256"
        }
      ],
      "name": "nftAssets",
      "outputs": [
        {
          "components": [
            {
              "internalType": "address",
              "name": "tokenAddress",
              "type": "address"
            },
            {
              "internalType": "uint256",
              "name": "tokenId",
              "type": "uint256"
            }
          ],
          "internalType": "struct ISecuritizationPoolStorage.NFTAsset",
          "name": "",
          "type": "tuple"
        }
      ],
      "stateMutability": "view",
      "type": "function"
    },
    {
      "inputs": [
        {
          "internalType": "address",
          "name": "",
          "type": "address"
        },
        {
          "internalType": "address",
          "name": "",
          "type": "address"
        },
        {
          "internalType": "uint256",
          "name": "tokenId",
          "type": "uint256"
        },
        {
          "internalType": "bytes",
          "name": "",
          "type": "bytes"
        }
      ],
      "name": "onERC721Received",
      "outputs": [
        {
          "internalType": "bytes4",
          "name": "",
          "type": "bytes4"
        }
      ],
      "stateMutability": "nonpayable",
      "type": "function"
    },
    {
      "inputs": [],
      "name": "openingBlockTimestamp",
      "outputs": [
        {
          "internalType": "uint64",
          "name": "",
          "type": "uint64"
        }
      ],
      "stateMutability": "view",
      "type": "function"
    },
    {
      "inputs": [],
      "name": "pause",
      "outputs": [],
      "stateMutability": "nonpayable",
      "type": "function"
    },
    {
      "inputs": [],
      "name": "paused",
      "outputs": [
        {
          "internalType": "bool",
          "name": "",
          "type": "bool"
        }
      ],
      "stateMutability": "view",
      "type": "function"
    },
    {
      "inputs": [],
      "name": "pot",
      "outputs": [
        {
          "internalType": "address",
          "name": "",
          "type": "address"
        }
      ],
      "stateMutability": "view",
      "type": "function"
    },
    {
      "inputs": [],
      "name": "registry",
      "outputs": [
        {
          "internalType": "contract Registry",
          "name": "",
          "type": "address"
        }
      ],
      "stateMutability": "view",
      "type": "function"
    },
    {
      "inputs": [
        {
          "internalType": "bytes32",
          "name": "role",
          "type": "bytes32"
        },
        {
          "internalType": "address",
          "name": "account",
          "type": "address"
        }
      ],
      "name": "renounceRole",
      "outputs": [],
      "stateMutability": "nonpayable",
      "type": "function"
    },
    {
      "inputs": [
        {
          "internalType": "bytes32",
          "name": "role",
          "type": "bytes32"
        },
        {
          "internalType": "address",
          "name": "account",
          "type": "address"
        }
      ],
      "name": "revokeRole",
      "outputs": [],
      "stateMutability": "nonpayable",
      "type": "function"
    },
    {
      "inputs": [
        {
          "internalType": "uint256",
          "name": "idx",
          "type": "uint256"
        }
      ],
      "name": "riskScores",
      "outputs": [
        {
          "components": [
            {
              "internalType": "uint32",
              "name": "daysPastDue",
              "type": "uint32"
            },
            {
              "internalType": "uint32",
              "name": "advanceRate",
              "type": "uint32"
            },
            {
              "internalType": "uint32",
              "name": "penaltyRate",
              "type": "uint32"
            },
            {
              "internalType": "uint32",
              "name": "interestRate",
              "type": "uint32"
            },
            {
              "internalType": "uint32",
              "name": "probabilityOfDefault",
              "type": "uint32"
            },
            {
              "internalType": "uint32",
              "name": "lossGivenDefault",
              "type": "uint32"
            },
            {
              "internalType": "uint32",
              "name": "writeOffAfterGracePeriod",
              "type": "uint32"
            },
            {
              "internalType": "uint32",
              "name": "gracePeriod",
              "type": "uint32"
            },
            {
              "internalType": "uint32",
              "name": "collectionPeriod",
              "type": "uint32"
            },
            {
              "internalType": "uint32",
              "name": "writeOffAfterCollectionPeriod",
              "type": "uint32"
            },
            {
              "internalType": "uint32",
              "name": "discountRate",
              "type": "uint32"
            }
          ],
          "internalType": "struct RiskScore",
          "name": "",
          "type": "tuple"
        }
      ],
      "stateMutability": "view",
      "type": "function"
    },
    {
      "inputs": [],
      "name": "secondTGEAddress",
      "outputs": [
        {
          "internalType": "address",
          "name": "",
          "type": "address"
        }
      ],
      "stateMutability": "view",
      "type": "function"
    },
    {
      "inputs": [],
      "name": "setUpOpeningBlockTimestamp",
      "outputs": [],
      "stateMutability": "nonpayable",
      "type": "function"
    },
    {
      "inputs": [
        {
          "internalType": "uint32[]",
          "name": "_daysPastDues",
          "type": "uint32[]"
        },
        {
          "internalType": "uint32[]",
          "name": "_ratesAndDefaults",
          "type": "uint32[]"
        },
        {
          "internalType": "uint32[]",
          "name": "_periodsAndWriteOffs",
          "type": "uint32[]"
        }
      ],
      "name": "setupRiskScores",
      "outputs": [],
      "stateMutability": "nonpayable",
      "type": "function"
    },
    {
      "inputs": [],
      "name": "state",
      "outputs": [
        {
          "internalType": "enum ISecuritizationPoolStorage.CycleState",
          "name": "",
          "type": "uint8"
        }
      ],
      "stateMutability": "view",
      "type": "function"
    },
    {
      "inputs": [
        {
          "internalType": "bytes4",
          "name": "interfaceId",
          "type": "bytes4"
        }
      ],
      "name": "supportsInterface",
      "outputs": [
        {
          "internalType": "bool",
          "name": "",
          "type": "bool"
        }
      ],
      "stateMutability": "view",
      "type": "function"
    },
    {
      "inputs": [],
      "name": "tgeAddress",
      "outputs": [
        {
          "internalType": "address",
          "name": "",
          "type": "address"
        }
      ],
      "stateMutability": "view",
      "type": "function"
    },
    {
      "inputs": [
        {
          "internalType": "uint256",
          "name": "idx",
          "type": "uint256"
        }
      ],
      "name": "tokenAssetAddresses",
      "outputs": [
        {
          "internalType": "address",
          "name": "",
          "type": "address"
        }
      ],
      "stateMutability": "view",
      "type": "function"
    },
    {
      "inputs": [],
      "name": "unpause",
      "outputs": [],
      "stateMutability": "nonpayable",
      "type": "function"
    },
    {
      "inputs": [],
      "name": "validatorRequired",
      "outputs": [
        {
          "internalType": "bool",
          "name": "",
          "type": "bool"
        }
      ],
      "stateMutability": "view",
      "type": "function"
    },
    {
      "inputs": [
        {
          "internalType": "address[]",
          "name": "tokenAddresses",
          "type": "address[]"
        },
        {
          "internalType": "uint256[]",
          "name": "tokenIds",
          "type": "uint256[]"
        },
        {
          "internalType": "address[]",
          "name": "recipients",
          "type": "address[]"
        }
      ],
      "name": "withdrawAssets",
      "outputs": [],
      "stateMutability": "nonpayable",
      "type": "function"
    },
    {
      "inputs": [
        {
          "internalType": "address[]",
          "name": "tokenAddresses",
          "type": "address[]"
        },
        {
          "internalType": "address[]",
          "name": "recipients",
          "type": "address[]"
        },
        {
          "internalType": "uint256[]",
          "name": "amounts",
          "type": "uint256[]"
        }
      ],
      "name": "withdrawERC20Assets",
      "outputs": [],
      "stateMutability": "nonpayable",
      "type": "function"
    }
  ],
  "transactionHash": "0x6aa47b2bbce14518a86b3430118b1d83e0e98ff71704250cbd364828bbbb1cb0",
  "args": [],
  "numDeployments": 8,
  "solcInputHash": "21c5229610391da263e80c8aea676652",
  "bytecode": "0x608060405234801561001057600080fd5b50613a14806100206000396000f3fe608060405234801561001057600080fd5b50600436106102115760003560e01c80634ba2363a1161012557806391d14854116100ad578063d547741f1161007c578063d547741f14610447578063d8ba6f441461045a578063dec285871461046d578063df076fe014610480578063fa3908b11461048857600080fd5b806391d14854146103f7578063a6c595471461040a578063b09df36a1461041d578063c19d93fb1461043257600080fd5b80636456a3ee116100f45780636456a3ee146103c457806365930646146103cc57806378d29d55146103df5780637b103999146103e75780638456cb59146103ef57600080fd5b80634ba2363a1461036f5780635c975abb146103775780636421cede1461038f578063644b4ead146103a457600080fd5b80632f54bf6e116101a85780633bf4045f116101775780633bf4045f146103245780633d79ab03146103375780633f4ba83a146103575780634020c8d11461035f578063477035d11461036757600080fd5b80632f54bf6e146102d8578063326cd970146102eb57806333944357146102fe57806336568abe1461031157600080fd5b80631bf51b70116101e45780631bf51b701461028a578063221dc5931461029d5780632bcc3682146102bd5780632f2ff15d146102c557600080fd5b806301ffc9a71461021657806306aac7ec1461023e5780630b7792f114610248578063150b7a021461025e575b600080fd5b610229610224366004612fc3565b6104bf565b60405190151581526020015b60405180910390f35b610246610557565b005b6102506105e2565b604051908152602001610235565b61027161026c3660046130a4565b6105f5565b6040516001600160e01b03199091168152602001610235565b61024661029836600461315a565b610741565b6102a5611035565b6040516001600160a01b039091168152602001610235565b610250611051565b6102466102d33660046131f3565b611064565b6102296102e6366004613223565b6110f8565b6102466102f9366004613240565b611124565b61025061030c36600461327c565b61120b565b61024661031f3660046131f3565b61139b565b61024661033236600461315a565b611415565b61033f6116a6565b6040516001600160401b039091168152602001610235565b6102466116c4565b6102296116d6565b61033f6116e9565b6102a561170f565b60008051602061399f8339815191525460ff16610229565b61039761172b565b6040516102359190613315565b6103b76103b2366004613362565b611796565b604051610235919061337b565b6102a56118ca565b6102466103da366004613223565b6118e8565b61022961195d565b6102a5611980565b6102466119ae565b6102296104053660046131f3565b6119c0565b61024661041836600461315a565b6119f5565b610425611bdc565b6040516102359190613468565b61043a61201c565b60405161023591906134c0565b6102466104553660046131f3565b612032565b6102a5610468366004613362565b6120c3565b61024661047b3660046134da565b6120fc565b610250612242565b61049b610496366004613362565b612255565b6040805182516001600160a01b031681526020928301519281019290925201610235565b60006104ca826122be565b806104e557506001600160e01b03198216630a85bd0160e11b145b8061050057506001600160e01b03198216631bb8f09960e21b145b8061051b57506001600160e01b03198216634178950d60e11b145b8061053657506001600160e01b0319821663395dfc6360e11b145b8061055157506001600160e01b0319821663b3f6a3e960e01b145b92915050565b61055f612301565b6105676118ca565b6001600160a01b0316336001600160a01b0316146105d85760405162461bcd60e51b8152602060048201526024808201527f53656375726974697a6174696f6e506f6f6c3a204f6e6c7920746765206164646044820152637265737360e01b60648201526084015b60405180910390fd5b6105e0612354565b565b60006105ec612488565b60020154919050565b600033610611610603611980565b6001600160a01b03166124ac565b6001600160a01b0316816001600160a01b03161461068f5760405162461bcd60e51b815260206004820152603560248201527f53656375726974697a6174696f6e506f6f6c3a204d75737420626520746f6b656044820152741b881a5cdcdd595908189e48155b9d185b99db1959605a1b60648201526084016105cf565b6000610699612488565b6040805180820182526001600160a01b0385811680835260208084018b81526002968701805460018082018355600083815285902097519190990290960180546001600160a01b03191696909516959095178455519290950191909155825190815292830188905292507ff1c19e8856063adce43b5f307c6ac9d0af46fd0787c590550c51d7cf02d2e5f4910160405180910390a150630a85bd0160e11b9695505050505050565b610749612301565b61075161195d565b1561076e5760405162461bcd60e51b81526004016105cf9061353e565b6107893361077a611980565b6001600160a01b0316906124b9565b848361079682600661359c565b1480156107ac5750816107aa82600461359c565b145b61081e5760405162461bcd60e51b815260206004820152603860248201527f53656375726974697a6174696f6e506f6f6c3a205269736b73636f726520706160448201527f72616d73206c656e677468206973206e6f7420657175616c000000000000000060648201526084016105cf565b6000610828612488565b9050610838600182016000612f77565b60005b82811015610f80578015806108b1575088886108586001846135b3565b818110610867576108676135c6565b905060200201602081019061087c91906135ee565b63ffffffff16898983818110610894576108946135c6565b90506020020160208101906108a991906135ee565b63ffffffff16115b6109145760405162461bcd60e51b815260206004820152602e60248201527f53656375726974697a6174696f6e506f6f6c3a205269736b2073636f7265732060448201526d1b5d5cdd081899481cdbdc9d195960921b60648201526084016105cf565b6000878761092386600261359c565b61092d908561360b565b81811061093c5761093c6135c6565b905060200201602081019061095191906135ee565b90506000868661096287600261359c565b61096c908661360b565b81811061097b5761097b6135c6565b905060200201602081019061099091906135ee565b9050600087876109a188600361359c565b6109ab908761360b565b8181106109ba576109ba6135c6565b90506020020160208101906109cf91906135ee565b9050846001016040518061016001604052808e8e888181106109f3576109f36135c6565b9050602002016020810190610a0891906135ee565b63ffffffff1681526020018c8c88818110610a2557610a256135c6565b9050602002016020810190610a3a91906135ee565b63ffffffff1681526020018c8c610a518b8a61360b565b818110610a6057610a606135c6565b9050602002016020810190610a7591906135ee565b63ffffffff9081168252861660208201526040018c8c610a968b600361359c565b610aa0908a61360b565b818110610aaf57610aaf6135c6565b9050602002016020810190610ac491906135ee565b63ffffffff1681526020018c8c610adc8b600461359c565b610ae6908a61360b565b818110610af557610af56135c6565b9050602002016020810190610b0a91906135ee565b63ffffffff1681526020018463ffffffff1681526020018a8a88818110610b3357610b336135c6565b9050602002016020810190610b4891906135ee565b63ffffffff1681526020018a8a610b5f8b8a61360b565b818110610b6e57610b6e6135c6565b9050602002016020810190610b8391906135ee565b63ffffffff1681526020018a8a610b9b8b600361359c565b610ba5908a61360b565b818110610bb457610bb46135c6565b9050602002016020810190610bc991906135ee565b63ffffffff1681526020018c8c610be18b600561359c565b610beb908a61360b565b818110610bfa57610bfa6135c6565b9050602002016020810190610c0f91906135ee565b63ffffffff16815250908060018154018082558091505060019003906000526020600020906002020160009091909190915060008201518160000160006101000a81548163ffffffff021916908363ffffffff16021790555060208201518160000160046101000a81548163ffffffff021916908363ffffffff16021790555060408201518160000160086101000a81548163ffffffff021916908363ffffffff160217905550606082015181600001600c6101000a81548163ffffffff021916908363ffffffff16021790555060808201518160000160106101000a81548163ffffffff021916908363ffffffff16021790555060a08201518160000160146101000a81548163ffffffff021916908363ffffffff16021790555060c08201518160000160186101000a81548163ffffffff021916908363ffffffff16021790555060e082015181600001601c6101000a81548163ffffffff021916908363ffffffff1602179055506101008201518160010160006101000a81548163ffffffff021916908363ffffffff1602179055506101208201518160010160046101000a81548163ffffffff021916908363ffffffff1602179055506101408201518160010160086101000a81548163ffffffff021916908363ffffffff1602179055505050306001600160a01b031663b4c6bcd184848b8b89818110610e1657610e166135c6565b9050602002016020810190610e2b91906135ee565b8e8e610e378d8c61360b565b818110610e4657610e466135c6565b9050602002016020810190610e5b91906135ee565b896040518663ffffffff1660e01b8152600401610e7c95949392919061361e565b600060405180830381600087803b158015610e9657600080fd5b505af1158015610eaa573d6000803e3d6000fd5b5030925063b4c6bcd19150859050838b8b610ec58c8b61360b565b818110610ed457610ed46135c6565b9050602002016020810190610ee991906135ee565b8e8e610ef58d8c61360b565b818110610f0457610f046135c6565b9050602002016020810190610f1991906135ee565b896040518663ffffffff1660e01b8152600401610f3a95949392919061361e565b600060405180830381600087803b158015610f5457600080fd5b505af1158015610f68573d6000803e3d6000fd5b50505050505050610f798160010190565b905061083b565b50306001600160a01b03166329ae811482600101600081548110610fa657610fa66135c6565b600091825260209091206002909102016001015460405160e083901b6001600160e01b03191681526b646973636f756e745261746560a01b6004820152600160401b90910463ffffffff166024820152604401600060405180830381600087803b15801561101357600080fd5b505af1158015611027573d6000803e3d6000fd5b505050505050505050505050565b600061103f612488565b600601546001600160a01b0316919050565b600061105b612488565b60010154919050565b3361106e816110f8565b61108a5760405162461bcd60e51b81526004016105cf90613664565b6001600160a01b03821660008181526000805160206139bf83398151915260208181526040808420888552909152808320805460ff191660011790555190923392909187917f2f8788117e7eff1d82e926ec794901d17c78024a50270940304540a733656f0d91a450505050565b60006105517fb19546dff01e856fb3f010c267a7b1c60363cf8a4664e21cc89c26224620214e836119c0565b6000309050306001600160a01b0316816001600160a01b03166346c715fa6040518163ffffffff1660e01b8152600401602060405180830381865afa158015611171573d6000803e3d6000fd5b505050506040513d601f19601f8201168201806040525081019061119591906136a9565b6001600160a01b0316036111eb5760405162461bcd60e51b815260206004820152601860248201527f4f6e6c792063616c6c20696e2074617267657420706f6f6c000000000000000060448201526064016105cf565b6112078280602001905181019061120291906136db565b6125a0565b5050565b6000611215612301565b61123033611221611980565b6001600160a01b03169061273c565b836000805b828110156112e95730635b683189898984818110611255576112556135c6565b9050602002013588888581811061126e5761126e6135c6565b905061010002016040518363ffffffff1660e01b815260040161129292919061378b565b6020604051808303816000875af11580156112b1573d6000803e3d6000fd5b505050506040513d601f19601f820116820180604052508101906112d59190613829565b6112df908361360b565b9150600101611235565b5060006112f4612488565b90506112fe6116a6565b6001600160401b031660000361133557805468ffffffffffffffff001916610100426001600160401b031602178155611335612354565b61133d6116e9565b6001600160401b031660000361135d5761135d6113586116e9565b6127a5565b6040518281527fe87b48cf005947ebbb24a19e347fea17758a59de28ab05b6836cc0f9db4ffb169060200160405180910390a1509695505050505050565b6001600160a01b038116331461140b5760405162461bcd60e51b815260206004820152602f60248201527f416363657373436f6e74726f6c3a2063616e206f6e6c792072656e6f756e636560448201526e103937b632b9903337b91039b2b63360891b60648201526084016105cf565b6112078282612811565b61141d612301565b61142561287b565b61144330335b611433611980565b6001600160a01b031691906128d4565b848381146114635760405162461bcd60e51b81526004016105cf90613842565b8082146114825760405162461bcd60e51b81526004016105cf9061389f565b600061148c612488565b600401905060005b82811015611691578160008a8a848181106114b1576114b16135c6565b90506020020160208101906114c69190613223565b6001600160a01b0316815260208101919091526040016000205460ff1661154b5760405162461bcd60e51b815260206004820152603360248201527f53656375726974697a6174696f6e506f6f6c3a206e6f746520746f6b656e20616044820152721cdcd95d08191bd95cc81b9bdd08195e1a5cdd606a1b60648201526084016105cf565b88888281811061155d5761155d6135c6565b90506020020160208101906115729190613223565b6001600160a01b031663a9059cbb888884818110611592576115926135c6565b90506020020160208101906115a79190613223565b8787858181106115b9576115b96135c6565b6040516001600160e01b031960e087901b1681526001600160a01b03909416600485015260200291909101356024830152506044016020604051808303816000875af115801561160d573d6000803e3d6000fd5b505050506040513d601f19601f8201168201806040525081019061163191906138fc565b6116895760405162461bcd60e51b815260206004820152602360248201527f53656375726974697a6174696f6e506f6f6c3a205472616e73666572206661696044820152621b195960ea1b60648201526084016105cf565b600101611494565b50505061169e6001606555565b505050505050565b60006116b0612488565b5461010090046001600160401b0316919050565b6116ce303361142b565b6105e0612a68565b60006116e0612488565b5460ff16919050565b6000806116f4612488565b600b015464010000000090046001600160401b031692915050565b6000611719612488565b600c01546001600160a01b0316919050565b6060611735612488565b60030180548060200260200160405190810160405280929190818152602001828054801561178c57602002820191906000526020600020905b81546001600160a01b0316815260019091019060200180831161176e575b5050505050905090565b6040805161016081018252600080825260208201819052918101829052606081018290526080810182905260a0810182905260c0810182905260e08101829052610100810182905261012081018290526101408101919091526117f7612488565b600101828154811061180b5761180b6135c6565b600091825260209182902060408051610160810182526002909302909101805463ffffffff8082168552640100000000808304821696860196909652600160401b808304821694860194909452600160601b820481166060860152600160801b820481166080860152600160a01b8204811660a0860152600160c01b8204811660c0860152600160e01b909104811660e08501526001909101548082166101008501529384048116610120840152920490911661014082015292915050565b6000806118d5612488565b600501546001600160a01b031692915050565b6118f0612301565b6118f861195d565b156119155760405162461bcd60e51b81526004016105cf9061353e565b61193033611921611980565b6001600160a01b031690612ac8565b61193981612b3d565b6119416116e9565b6001600160401b031660000361195a5761195a426127a5565b50565b6000600361196961201c565b600381111561197a5761197a6134aa565b14905090565b7f5f6bd0daaaf246715f06ec0ea7e99af4468b70381a38e1f10cb19776ed17ce00546001600160a01b031690565b6119b8303361142b565b6105e0612bf3565b6001600160a01b031660009081526000805160206139bf83398151915260209081526040808320938352929052205460ff1690565b6119fd612301565b611a0561287b565b33611a0f816110f8565b611a2b5760405162461bcd60e51b81526004016105cf90613664565b83868114611a4b5760405162461bcd60e51b81526004016105cf90613842565b868314611a6a5760405162461bcd60e51b81526004016105cf9061389f565b60005b81811015611ae157611abd898983818110611a8a57611a8a6135c6565b9050602002016020810190611a9f9190613223565b888884818110611ab157611ab16135c6565b90506020020135612c3c565b611ad95760405162461bcd60e51b81526004016105cf90613917565b600101611a6d565b5060005b8181101561169157888882818110611aff57611aff6135c6565b9050602002016020810190611b149190613223565b6001600160a01b03166342842e0e30878785818110611b3557611b356135c6565b9050602002016020810190611b4a9190613223565b8a8a86818110611b5c57611b5c6135c6565b6040516001600160e01b031960e088901b1681526001600160a01b03958616600482015294909316602485015250602090910201356044820152606401600060405180830381600087803b158015611bb357600080fd5b505af1158015611bc7573d6000803e3d6000fd5b50505050611bd58160010190565b9050611ae5565b6040805160138082526102808201909252606091600091906020820161026080368337019050509050630b7792f160e01b81600081518110611c2057611c206135c6565b6001600160e01b0319909216602092830291909101909101528051633210e76f60e11b9082906001908110611c5757611c576135c6565b6001600160e01b03199092166020928302919091019091015280516306f83b7f60e51b9082906002908110611c8e57611c8e6135c6565b6001600160e01b03199092166020928302919091019091015280516315e61b4160e11b9082906003908110611cc557611cc56135c6565b6001600160e01b031990921660209283029190910190910152805163644b4ead60e01b9082906004908110611cfc57611cfc6135c6565b6001600160e01b03199092166020928302919091019091015280516301bf51b760e41b9082906005908110611d3357611d336135c6565b6001600160e01b031990921660209283029190910190910152805163dec2858760e01b9082906006908110611d6a57611d6a6135c6565b6001600160e01b031990921660209283029190910190910152805163a6c5954760e01b9082906007908110611da157611da16135c6565b6001600160e01b0319909216602092830291909101909101528051633394435760e01b9082906008908110611dd857611dd86135c6565b6001600160e01b03199092166020928302919091019091015280516332c9832360e11b9082906009908110611e0f57611e0f6135c6565b6001600160e01b0319909216602092830291909101909101528051633bf4045f60e01b908290600a908110611e4657611e466135c6565b6001600160e01b031990921660209283029190910190910152805163fa3908b160e01b908290600b908110611e7d57611e7d6135c6565b6001600160e01b031990921660209283029190910190910152805163362e9bd160e21b908290600c908110611eb457611eb46135c6565b6001600160e01b03199092166020928302919091019091015280516301aab1fb60e21b908290600d908110611eeb57611eeb6135c6565b6001600160e01b03199092166020928302919091019091015280516301ffc9a760e01b908290600e908110611f2257611f226135c6565b6001600160e01b0319909216602092830291909101909101528051630a85bd0160e11b908290600f908110611f5957611f596135c6565b6001600160e01b0319909216602092830291909101909101528051638456cb5960e01b9082906010908110611f9057611f906135c6565b6001600160e01b0319909216602092830291909101909101528051631fa5d41d60e11b9082906011908110611fc757611fc76135c6565b6001600160e01b0319909216602092830291909101909101528051635c975abb60e01b9082906012908110611ffe57611ffe6135c6565b6001600160e01b031990921660209283029190910190910152919050565b6000612026612488565b6013015460ff16919050565b3361203c816110f8565b6120585760405162461bcd60e51b81526004016105cf90613664565b6001600160a01b03821660008181526000805160206139bf83398151915260208181526040808420888552909152808320805460ff191690555190923392909187917ff6391f5c32d9c69d2a47ea670b442974b53935d1edc7fd64eb21e047a839171b91a450505050565b60006120cd612488565b60030182815481106120e1576120e16135c6565b6000918252602090912001546001600160a01b031692915050565b612104612301565b61210c61287b565b61211461195d565b156121315760405162461bcd60e51b81526004016105cf9061353e565b61213b303361142b565b8060005b818110156121815761215d86858584818110611ab157611ab16135c6565b6121795760405162461bcd60e51b81526004016105cf90613917565b60010161213f565b5060005b8181101561223057856001600160a01b03166342842e0e30878787868181106121b0576121b06135c6565b6040516001600160e01b031960e088901b1681526001600160a01b03958616600482015294909316602485015250602090910201356044820152606401600060405180830381600087803b15801561220757600080fd5b505af115801561221b573d6000803e3d6000fd5b505050506122298160010190565b9050612185565b505061223c6001606555565b50505050565b600061224c612488565b60030154919050565b6040805180820190915260008082526020820152612271612488565b6002018281548110612285576122856135c6565b60009182526020918290206040805180820190915260029092020180546001600160a01b03168252600101549181019190915292915050565b60006122c982612ced565b806122e4575063395dfc6360e11b6001600160e01b03198316145b806105515750506001600160e01b031916634178950d60e11b1490565b60008051602061399f8339815191525460ff16156105e05760405162461bcd60e51b815260206004820152601060248201526f14185d5cd8589b194e881c185d5cd95960821b60448201526064016105cf565b600061235e6118ca565b6001600160a01b03160361236e57565b60006123786118ca565b6001600160a01b0316639b52fe336040518163ffffffff1660e01b8152600401602060405180830381865afa1580156123b5573d6000803e3d6000fd5b505050506040513d601f19601f820116820180604052508101906123d9919061395f565b905060006123e56116a6565b90506000826001600160401b031611801561240957506000816001600160401b0316115b1561243f57816001600160401b0316816001600160401b0316111561243657612431816127a5565b61243f565b61243f826127a5565b7faa8cf603b3be24f79f673495c449aa3a2fcec1f484210e1662a1374c3e7f33506124686116e9565b6040516001600160401b0390911681526020015b60405180910390a15050565b7f42988f810f621c79bb2e8db2f913a015fc39ef8eac016043863c6a0d12adbf0090565b6000610551826005612d3a565b6124c282612dc6565b604051632474521560e21b81527f3e9c05fb0f9da4414e033bb9bf190a6e2072adf7e3077394fce683220513b8d760048201526001600160a01b03838116602483015291909116906391d1485490604401602060405180830381865afa158015612530573d6000803e3d6000fd5b505050506040513d601f19601f8201168201806040525081019061255491906138fc565b6112075760405162461bcd60e51b815260206004820152601b60248201527f52656769737472793a204e6f7420616e20706f6f6c2061646d696e000000000060448201526064016105cf565b80604001516125ad612488565b805460ff191691151591909117905580516001600160a01b031663095ea7b36125d461170f565b6040516001600160e01b031960e084901b1681526001600160a01b03909116600482015260001960248201526044016020604051808303816000875af1158015612622573d6000803e3d6000fd5b505050506040513d601f19601f8201168201806040525081019061264691906138fc565b6126a75760405162461bcd60e51b815260206004820152602c60248201527f53656375726974697a6174696f6e506f6f6c3a2043757272656e63792061707060448201526b1c9bdd985b0819985a5b195960a21b60648201526084016105cf565b6126b2610603611980565b6001600160a01b031663a22cb4656126d96126cb611980565b6001600160a01b0316612dd3565b6040516001600160e01b031960e084901b1681526001600160a01b03909116600482015260016024820152604401600060405180830381600087803b15801561272157600080fd5b505af1158015612735573d6000803e3d6000fd5b5050505050565b61274582612dd3565b6001600160a01b0316816001600160a01b0316146112075760405162461bcd60e51b815260206004820152601960248201527f52656769737472793a204f6e6c79204c6f616e4b65726e656c0000000000000060448201526064016105cf565b60006127af612488565b600b810180546bffffffffffffffff0000000019166401000000006001600160401b038616908102919091179091556040519081529091507faa8cf603b3be24f79f673495c449aa3a2fcec1f484210e1662a1374c3e7f33509060200161247c565b6001600160a01b03811660008181526000805160206139bf83398151915260208181526040808420878552909152808320805460ff191690555190923392909186917ff6391f5c32d9c69d2a47ea670b442974b53935d1edc7fd64eb21e047a839171b91a4505050565b6002606554036128cd5760405162461bcd60e51b815260206004820152601f60248201527f5265656e7472616e637947756172643a207265656e7472616e742063616c6c0060448201526064016105cf565b6002606555565b6128dd83612dc6565b604051632474521560e21b81527f3e9c05fb0f9da4414e033bb9bf190a6e2072adf7e3077394fce683220513b8d760048201526001600160a01b03838116602483015291909116906391d1485490604401602060405180830381865afa15801561294b573d6000803e3d6000fd5b505050506040513d601f19601f8201168201806040525081019061296f91906138fc565b80612a055750604051632474521560e21b81527fb19546dff01e856fb3f010c267a7b1c60363cf8a4664e21cc89c26224620214e60048201526001600160a01b0382811660248301528316906391d1485490604401602060405180830381865afa1580156129e1573d6000803e3d6000fd5b505050506040513d601f19601f82011682018060405250810190612a0591906138fc565b612a635760405162461bcd60e51b815260206004820152602960248201527f52656769737472793a204e6f7420616e20706f6f6c2061646d696e206f72207060448201526837b7b61037bbb732b960b91b60648201526084016105cf565b505050565b612a70612de0565b60008051602061399f833981519152805460ff191681557f5db9ee0a495bf2e6ff9c91a7834c1ba4fdd244a5e8aa4e537bd38aeae4b073aa335b6040516001600160a01b03909116815260200160405180910390a150565b612ad182612dc6565b6001600160a01b0316816001600160a01b0316146112075760405162461bcd60e51b8152602060048201526024808201527f52656769737472793a204f6e6c792053656375726974697a6174696f6e4d616e60448201526330b3b2b960e11b60648201526084016105cf565b6000612b47612488565b6001600160a01b038316600090815260048201602052604090205490915060ff16612b9d57600381018054600181018255600091825260209091200180546001600160a01b0319166001600160a01b0384161790555b6001600160a01b0382166000818152600483016020908152604091829020805460ff1916600117905590519182527fa3087e474cce8eb102998561afda3e856fc0f9a515a80d128775eaa3c7269adc910161247c565b612bfb612301565b60008051602061399f833981519152805460ff191660011781557f62e78cea01bee320cd4e420270b5ea74000d11b0c9f74754ebdbfc544b05a25833612aaa565b600080612c47612488565b600201805490915060005b81811015612ce157856001600160a01b0316838281548110612c7657612c766135c6565b60009182526020909120600290910201546001600160a01b0316148015612cbf575084838281548110612cab57612cab6135c6565b906000526020600020906002020160010154145b15612cd957612ccd81612e36565b60019350505050610551565b600101612c52565b50600095945050505050565b60006301ffc9a760e01b6001600160e01b0319831614806122e4575063b3f6a3e960e01b6001600160e01b0319831614806105515750506001600160e01b031916634178950d60e11b1490565b6000826001600160a01b031663bcaa0c5583600a811115612d5d57612d5d6134aa565b6040516001600160e01b031960e084901b16815260ff9091166004820152602401602060405180830381865afa158015612d9b573d6000803e3d6000fd5b505050506040513d601f19601f82011682018060405250810190612dbf91906136a9565b9392505050565b6000610551826000612d3a565b6000610551826007612d3a565b60008051602061399f8339815191525460ff166105e05760405162461bcd60e51b815260206004820152601460248201527314185d5cd8589b194e881b9bdd081c185d5cd95960621b60448201526064016105cf565b6000612e40612488565b60020180549091508190612e56906001906135b3565b81548110612e6657612e666135c6565b9060005260206000209060020201818381548110612e8657612e866135c6565b600091825260208220835460029092020180546001600160a01b0319166001600160a01b0390921691909117815560019283015490830155825490918391612ece91906135b3565b81548110612ede57612ede6135c6565b600091825260209182902060029091020180546001820154604080516001600160a01b039093168352938201529092507f2f2c2bbbba2dd1f6074fbdaeda0589f21b3082690049df4802b1d0ed745746e0910160405180910390a181805480612f4957612f49613988565b60008281526020812060026000199093019283020180546001600160a01b0319168155600101559055505050565b508054600082556002029060005260206000209081019061195a91905b80821115612fbf57600081556001810180546bffffffffffffffffffffffff19169055600201612f94565b5090565b600060208284031215612fd557600080fd5b81356001600160e01b031981168114612dbf57600080fd5b6001600160a01b038116811461195a57600080fd5b634e487b7160e01b600052604160045260246000fd5b600082601f83011261302957600080fd5b81356001600160401b038082111561304357613043613002565b604051601f8301601f19908116603f0116810190828211818310171561306b5761306b613002565b8160405283815286602085880101111561308457600080fd5b836020870160208301376000602085830101528094505050505092915050565b600080600080608085870312156130ba57600080fd5b84356130c581612fed565b935060208501356130d581612fed565b92506040850135915060608501356001600160401b038111156130f757600080fd5b61310387828801613018565b91505092959194509250565b60008083601f84011261312157600080fd5b5081356001600160401b0381111561313857600080fd5b6020830191508360208260051b850101111561315357600080fd5b9250929050565b6000806000806000806060878903121561317357600080fd5b86356001600160401b038082111561318a57600080fd5b6131968a838b0161310f565b909850965060208901359150808211156131af57600080fd5b6131bb8a838b0161310f565b909650945060408901359150808211156131d457600080fd5b506131e189828a0161310f565b979a9699509497509295939492505050565b6000806040838503121561320657600080fd5b82359150602083013561321881612fed565b809150509250929050565b60006020828403121561323557600080fd5b8135612dbf81612fed565b60006020828403121561325257600080fd5b81356001600160401b0381111561326857600080fd5b61327484828501613018565b949350505050565b6000806000806040858703121561329257600080fd5b84356001600160401b03808211156132a957600080fd5b6132b58883890161310f565b909650945060208701359150808211156132ce57600080fd5b818701915087601f8301126132e257600080fd5b8135818111156132f157600080fd5b8860208260081b850101111561330657600080fd5b95989497505060200194505050565b6020808252825182820181905260009190848201906040850190845b818110156133565783516001600160a01b031683529284019291840191600101613331565b50909695505050505050565b60006020828403121561337457600080fd5b5035919050565b815163ffffffff168152610160810160208301516133a1602084018263ffffffff169052565b5060408301516133b9604084018263ffffffff169052565b5060608301516133d1606084018263ffffffff169052565b5060808301516133e9608084018263ffffffff169052565b5060a083015161340160a084018263ffffffff169052565b5060c083015161341960c084018263ffffffff169052565b5060e083015161343160e084018263ffffffff169052565b506101008381015163ffffffff90811691840191909152610120808501518216908401526101409384015116929091019190915290565b6020808252825182820181905260009190848201906040850190845b818110156133565783516001600160e01b03191683529284019291840191600101613484565b634e487b7160e01b600052602160045260246000fd5b60208101600483106134d4576134d46134aa565b91905290565b600080600080606085870312156134f057600080fd5b84356134fb81612fed565b9350602085013561350b81612fed565b925060408501356001600160401b0381111561352657600080fd5b6135328782880161310f565b95989497509550505050565b60208082526028908201527f53656375726974697a6174696f6e506f6f6c3a20506f6f6c20696e20636c6f73604082015267656420737461746560c01b606082015260800190565b634e487b7160e01b600052601160045260246000fd5b808202811582820484141761055157610551613586565b8181038181111561055157610551613586565b634e487b7160e01b600052603260045260246000fd5b63ffffffff8116811461195a57600080fd5b60006020828403121561360057600080fd5b8135612dbf816135dc565b8082018082111561055157610551613586565b6c077726974654f666647726f757609c1b815263ffffffff958616602082015293851660408501529184166060840152909216608082015260a081019190915260c00190565b60208082526025908201527f416363657373436f6e74726f6c3a2063616c6c6572206973206e6f7420616e2060408201526437bbb732b960d91b606082015260800190565b6000602082840312156136bb57600080fd5b8151612dbf81612fed565b805180151581146136d657600080fd5b919050565b6000608082840312156136ed57600080fd5b604051608081018181106001600160401b038211171561370f5761370f613002565b604052825161371d81612fed565b8152602083015161372d816135dc565b602082015261373e604084016136c6565b6040820152606083015160608201528091505092915050565b803560ff811681146136d657600080fd5b8035600281106136d657600080fd5b60028110613787576137876134aa565b9052565b8281526101208101823561379e81612fed565b6001600160a01b03908116602084810191909152840135906137bf82612fed565b808216604085015250506040830135606083015260608301356080830152608083013560a083015260a083013560c08301526137fd60c08401613757565b60ff811660e08401525061381360e08401613768565b613821610100840182613777565b509392505050565b60006020828403121561383b57600080fd5b5051919050565b60208082526037908201527f746f6b656e416464726573736573206c656e67746820616e6420746f6b656e4960408201527f6473206c656e67746820617265206e6f7420657175616c000000000000000000606082015260800190565b60208082526039908201527f746f6b656e416464726573736573206c656e67746820616e642072656369706960408201527f656e7473206c656e67746820617265206e6f7420657175616c00000000000000606082015260800190565b60006020828403121561390e57600080fd5b612dbf826136c6565b60208082526028908201527f53656375726974697a6174696f6e506f6f6c3a20417373657420646f6573206e6040820152671bdd08195e1a5cdd60c21b606082015260800190565b60006020828403121561397157600080fd5b81516001600160401b0381168114612dbf57600080fd5b634e487b7160e01b600052603160045260246000fdfecd5ed15c6e187e77e9aee88184c21f4f2182ab5827cb3b7e07fbedcd63f03300b38e00afe21f8bf8961a30ad85d453b5f474f19414b8973dee80c89fb0d97b00a26469706673582212205309b478b953ffa2f2f522bd4cc106468813384b06d33e0751e04f60ae450d7064736f6c63430008130033",
  "devdoc": {
    "author": "Untangled Team",
    "events": {
      "Initialized(uint8)": {
        "details": "Triggered when the contract has been initialized or reinitialized."
      },
      "Paused(address)": {
        "details": "Emitted when the pause is triggered by `account`."
      },
      "RoleGranted(bytes32,address,address)": {
        "details": "Emitted when `account` is granted `role`. `sender` is the account that originated the contract call, an admin role bearer except when using {AccessControl-_setupRole}."
      },
      "RoleRevoked(bytes32,address,address)": {
        "details": "Emitted when `account` is revoked `role`. `sender` is the account that originated the contract call:   - if using `revokeRole`, it is the admin role bearer   - if using `renounceRole`, it is the role bearer (i.e. `account`)"
      },
      "Unpaused(address)": {
        "details": "Emitted when the pause is lifted by `account`."
      }
    },
    "kind": "dev",
    "methods": {
      "getRiskScoresLength()": {
        "returns": {
          "_0": "the length of the risk scores array"
        }
      },
      "paused()": {
        "details": "Returns true if the contract is paused, and false otherwise."
      },
      "setUpOpeningBlockTimestamp()": {
        "details": "Trigger set up opening block timestamp"
      }
    },
    "title": "Untangled's SecuritizationPool contract",
    "version": 1
  },
  "userdoc": {
    "kind": "user",
    "methods": {
      "collectAssets(uint256[],(address,address,bytes32,uint256,uint256,uint256,uint8,uint8)[])": {
        "notice": "collects NFT assets from a specified address"
      },
      "collectERC20Asset(address)": {
        "notice": "collects ERC20 assets from specified senders"
      },
      "exportAssets(address,address,uint256[])": {
        "notice": "exports NFT assets to another pool address"
      },
      "getNFTAssetsLength()": {
        "notice": "GETTER "
      },
      "getRiskScoresLength()": {
        "notice": "Riks scores length"
      },
      "getTokenAssetAddresses()": {
        "notice": "A view function that returns an array of token asset addresses"
      },
      "getTokenAssetAddressesLength()": {
        "notice": "A view function that returns the length of the token asset addresses array"
      },
      "isClosedState()": {
        "notice": "checks if the contract is in a closed state"
      },
      "setupRiskScores(uint32[],uint32[],uint32[])": {
        "notice": "sets up the risk scores for the contract for pool"
      },
      "withdrawAssets(address[],uint256[],address[])": {
        "notice": "withdraws NFT assets from the contract and transfers them to recipients"
      },
      "withdrawERC20Assets(address[],address[],uint256[])": {
        "notice": "withdraws ERC20 assets from the contract and transfers them to recipients\\"
      }
    },
    "notice": "Main entry point for senior LPs (a.k.a. capital providers)  Automatically invests across borrower pools using an adjustable strategy.",
    "version": 1
  },
  "storageLayout": {
    "storage": [
      {
        "astId": 765,
        "contract": "contracts/protocol/pool/SecuritizationPoolAsset.sol:SecuritizationPoolAsset",
        "label": "_initialized",
        "offset": 0,
        "slot": "0",
        "type": "t_uint8"
      },
      {
        "astId": 768,
        "contract": "contracts/protocol/pool/SecuritizationPoolAsset.sol:SecuritizationPoolAsset",
        "label": "_initializing",
        "offset": 1,
        "slot": "0",
        "type": "t_bool"
      },
      {
        "astId": 7184,
        "contract": "contracts/protocol/pool/SecuritizationPoolAsset.sol:SecuritizationPoolAsset",
        "label": "__gap",
        "offset": 0,
        "slot": "1",
        "type": "t_array(t_uint256)50_storage"
      },
      {
        "astId": 5894,
        "contract": "contracts/protocol/pool/SecuritizationPoolAsset.sol:SecuritizationPoolAsset",
        "label": "__gap",
        "offset": 0,
        "slot": "51",
        "type": "t_array(t_uint256)50_storage"
      },
      {
        "astId": 1068,
        "contract": "contracts/protocol/pool/SecuritizationPoolAsset.sol:SecuritizationPoolAsset",
        "label": "_status",
        "offset": 0,
        "slot": "101",
        "type": "t_uint256"
      },
      {
        "astId": 1137,
        "contract": "contracts/protocol/pool/SecuritizationPoolAsset.sol:SecuritizationPoolAsset",
        "label": "__gap",
        "offset": 0,
        "slot": "102",
        "type": "t_array(t_uint256)49_storage"
      }
    ],
    "types": {
      "t_array(t_uint256)49_storage": {
        "base": "t_uint256",
        "encoding": "inplace",
        "label": "uint256[49]",
        "numberOfBytes": "1568"
      },
      "t_array(t_uint256)50_storage": {
        "base": "t_uint256",
        "encoding": "inplace",
        "label": "uint256[50]",
        "numberOfBytes": "1600"
      },
      "t_bool": {
        "encoding": "inplace",
        "label": "bool",
        "numberOfBytes": "1"
      },
      "t_uint256": {
        "encoding": "inplace",
        "label": "uint256",
        "numberOfBytes": "32"
      },
      "t_uint8": {
        "encoding": "inplace",
        "label": "uint8",
        "numberOfBytes": "1"
      }
    }
  }
}