{
  "address": "0x606953154605Fb8d5B18f75987B8Fc701008d2d0",
  "abi": [
    {
      "anonymous": false,
      "inputs": [
        {
          "indexed": false,
          "internalType": "uint8",
          "name": "version",
          "type": "uint8"
        }
      ],
      "name": "Initialized",
      "type": "event"
    },
    {
      "anonymous": false,
      "inputs": [
        {
          "indexed": false,
          "internalType": "address",
          "name": "account",
          "type": "address"
        }
      ],
      "name": "Paused",
      "type": "event"
    },
    {
      "anonymous": false,
      "inputs": [
        {
          "indexed": true,
          "internalType": "bytes32",
          "name": "role",
          "type": "bytes32"
        },
        {
          "indexed": true,
          "internalType": "bytes32",
          "name": "previousAdminRole",
          "type": "bytes32"
        },
        {
          "indexed": true,
          "internalType": "bytes32",
          "name": "newAdminRole",
          "type": "bytes32"
        }
      ],
      "name": "RoleAdminChanged",
      "type": "event"
    },
    {
      "anonymous": false,
      "inputs": [
        {
          "indexed": true,
          "internalType": "bytes32",
          "name": "role",
          "type": "bytes32"
        },
        {
          "indexed": true,
          "internalType": "address",
          "name": "account",
          "type": "address"
        },
        {
          "indexed": true,
          "internalType": "address",
          "name": "sender",
          "type": "address"
        }
      ],
      "name": "RoleGranted",
      "type": "event"
    },
    {
      "anonymous": false,
      "inputs": [
        {
          "indexed": true,
          "internalType": "bytes32",
          "name": "role",
          "type": "bytes32"
        },
        {
          "indexed": true,
          "internalType": "address",
          "name": "account",
          "type": "address"
        },
        {
          "indexed": true,
          "internalType": "address",
          "name": "sender",
          "type": "address"
        }
      ],
      "name": "RoleRevoked",
      "type": "event"
    },
    {
      "anonymous": false,
      "inputs": [
        {
          "indexed": false,
          "internalType": "address",
          "name": "account",
          "type": "address"
        }
      ],
      "name": "Unpaused",
      "type": "event"
    },
    {
      "inputs": [],
      "name": "DEFAULT_ADMIN_ROLE",
      "outputs": [
        {
          "internalType": "bytes32",
          "name": "",
          "type": "bytes32"
        }
      ],
      "stateMutability": "view",
      "type": "function"
    },
    {
      "inputs": [],
      "name": "ORIGINATOR_ROLE",
      "outputs": [
        {
          "internalType": "bytes32",
          "name": "",
          "type": "bytes32"
        }
      ],
      "stateMutability": "view",
      "type": "function"
    },
    {
      "inputs": [],
      "name": "OWNER_ROLE",
      "outputs": [
        {
          "internalType": "bytes32",
          "name": "",
          "type": "bytes32"
        }
      ],
      "stateMutability": "view",
      "type": "function"
    },
    {
      "inputs": [],
      "name": "RATE_SCALING_FACTOR",
      "outputs": [
        {
          "internalType": "uint256",
          "name": "",
          "type": "uint256"
        }
      ],
      "stateMutability": "view",
      "type": "function"
    },
    {
      "inputs": [],
      "name": "checkMinFirstLost",
      "outputs": [
        {
          "internalType": "bool",
          "name": "",
          "type": "bool"
        }
      ],
      "stateMutability": "nonpayable",
      "type": "function"
    },
    {
      "inputs": [
        {
          "internalType": "address",
          "name": "recipientWallet",
          "type": "address"
        }
      ],
      "name": "claimCashRemain",
      "outputs": [],
      "stateMutability": "nonpayable",
      "type": "function"
    },
    {
      "inputs": [
        {
          "internalType": "address[]",
          "name": "tokenAddresses",
          "type": "address[]"
        }
      ],
      "name": "claimERC20Assets",
      "outputs": [],
      "stateMutability": "nonpayable",
      "type": "function"
    },
    {
      "inputs": [
        {
          "internalType": "address",
          "name": "tokenAddress",
          "type": "address"
        },
        {
          "internalType": "address",
          "name": "from",
          "type": "address"
        },
        {
          "internalType": "uint256[]",
          "name": "tokenIds",
          "type": "uint256[]"
        }
      ],
      "name": "collectAssets",
      "outputs": [],
      "stateMutability": "nonpayable",
      "type": "function"
    },
    {
      "inputs": [
        {
          "internalType": "address[]",
          "name": "tokenAddresses",
          "type": "address[]"
        },
        {
          "internalType": "address[]",
          "name": "senders",
          "type": "address[]"
        },
        {
          "internalType": "uint256[]",
          "name": "amounts",
          "type": "uint256[]"
        }
      ],
      "name": "collectERC20Assets",
      "outputs": [],
      "stateMutability": "nonpayable",
      "type": "function"
    },
    {
      "inputs": [
        {
          "internalType": "address",
          "name": "tokenAddress",
          "type": "address"
        },
        {
          "internalType": "address",
          "name": "investor",
          "type": "address"
        },
        {
          "internalType": "uint256",
          "name": "currency",
          "type": "uint256"
        },
        {
          "internalType": "uint256",
          "name": "token",
          "type": "uint256"
        }
      ],
      "name": "decreaseLockedDistributeBalance",
      "outputs": [],
      "stateMutability": "nonpayable",
      "type": "function"
    },
    {
      "inputs": [
        {
          "internalType": "address",
          "name": "",
          "type": "address"
        }
      ],
      "name": "existsTokenAssetAddress",
      "outputs": [
        {
          "internalType": "bool",
          "name": "",
          "type": "bool"
        }
      ],
      "stateMutability": "view",
      "type": "function"
    },
    {
      "inputs": [
        {
          "internalType": "address",
          "name": "tokenAddress",
          "type": "address"
        },
        {
          "internalType": "address",
          "name": "toPoolAddress",
          "type": "address"
        },
        {
          "internalType": "uint256[]",
          "name": "tokenIds",
          "type": "uint256[]"
        }
      ],
      "name": "exportAssets",
      "outputs": [],
      "stateMutability": "nonpayable",
      "type": "function"
    },
    {
      "inputs": [],
      "name": "getNFTAssetsLength",
      "outputs": [
        {
          "internalType": "uint256",
          "name": "",
          "type": "uint256"
        }
      ],
      "stateMutability": "view",
      "type": "function"
    },
    {
      "inputs": [],
      "name": "getRiskScoresLength",
      "outputs": [
        {
          "internalType": "uint256",
          "name": "",
          "type": "uint256"
        }
      ],
      "stateMutability": "view",
      "type": "function"
    },
    {
      "inputs": [
        {
          "internalType": "bytes32",
          "name": "role",
          "type": "bytes32"
        }
      ],
      "name": "getRoleAdmin",
      "outputs": [
        {
          "internalType": "bytes32",
          "name": "",
          "type": "bytes32"
        }
      ],
      "stateMutability": "view",
      "type": "function"
    },
    {
      "inputs": [
        {
          "internalType": "bytes32",
          "name": "role",
          "type": "bytes32"
        },
        {
          "internalType": "uint256",
          "name": "index",
          "type": "uint256"
        }
      ],
      "name": "getRoleMember",
      "outputs": [
        {
          "internalType": "address",
          "name": "",
          "type": "address"
        }
      ],
      "stateMutability": "view",
      "type": "function"
    },
    {
      "inputs": [
        {
          "internalType": "bytes32",
          "name": "role",
          "type": "bytes32"
        }
      ],
      "name": "getRoleMemberCount",
      "outputs": [
        {
          "internalType": "uint256",
          "name": "",
          "type": "uint256"
        }
      ],
      "stateMutability": "view",
      "type": "function"
    },
    {
      "inputs": [],
      "name": "getTokenAssetAddresses",
      "outputs": [
        {
          "internalType": "address[]",
          "name": "",
          "type": "address[]"
        }
      ],
      "stateMutability": "view",
      "type": "function"
    },
    {
      "inputs": [],
      "name": "getTokenAssetAddressesLength",
      "outputs": [
        {
          "internalType": "uint256",
          "name": "",
          "type": "uint256"
        }
      ],
      "stateMutability": "view",
      "type": "function"
    },
    {
      "inputs": [
        {
          "internalType": "bytes32",
          "name": "role",
          "type": "bytes32"
        },
        {
          "internalType": "address",
          "name": "account",
          "type": "address"
        }
      ],
      "name": "grantRole",
      "outputs": [],
      "stateMutability": "nonpayable",
      "type": "function"
    },
    {
      "inputs": [],
      "name": "hasFinishedRedemption",
      "outputs": [
        {
          "internalType": "bool",
          "name": "",
          "type": "bool"
        }
      ],
      "stateMutability": "view",
      "type": "function"
    },
    {
      "inputs": [
        {
          "internalType": "bytes32",
          "name": "role",
          "type": "bytes32"
        },
        {
          "internalType": "address",
          "name": "account",
          "type": "address"
        }
      ],
      "name": "hasRole",
      "outputs": [
        {
          "internalType": "bool",
          "name": "",
          "type": "bool"
        }
      ],
      "stateMutability": "view",
      "type": "function"
    },
    {
      "inputs": [
        {
          "internalType": "address",
          "name": "tokenAddress",
          "type": "address"
        },
        {
          "internalType": "address",
          "name": "investor",
          "type": "address"
        },
        {
          "internalType": "uint256",
          "name": "currency",
          "type": "uint256"
        },
        {
          "internalType": "uint256",
          "name": "token",
          "type": "uint256"
        }
      ],
      "name": "increaseLockedDistributeBalance",
      "outputs": [],
      "stateMutability": "nonpayable",
      "type": "function"
    },
    {
      "inputs": [
        {
          "internalType": "uint256",
          "name": "amount",
          "type": "uint256"
        }
      ],
      "name": "increaseTotalAssetRepaidCurrency",
      "outputs": [],
      "stateMutability": "nonpayable",
      "type": "function"
    },
    {
      "inputs": [
        {
          "internalType": "contract Registry",
          "name": "_registry",
          "type": "address"
        },
        {
          "internalType": "address",
          "name": "_currency",
          "type": "address"
        },
        {
          "internalType": "uint32",
          "name": "_minFirstLossCushion",
          "type": "uint32"
        }
      ],
      "name": "initialize",
      "outputs": [],
      "stateMutability": "nonpayable",
      "type": "function"
    },
    {
      "inputs": [
        {
          "internalType": "address",
          "name": "_tgeAddress",
          "type": "address"
        },
        {
          "internalType": "address",
          "name": "_tokenAddress",
          "type": "address"
        },
        {
          "internalType": "enum Configuration.NOTE_TOKEN_TYPE",
          "name": "_noteType",
          "type": "uint8"
        }
      ],
      "name": "injectTGEAddress",
      "outputs": [],
      "stateMutability": "nonpayable",
      "type": "function"
    },
    {
      "inputs": [],
      "name": "interestRateSOT",
      "outputs": [
        {
          "internalType": "uint32",
          "name": "",
          "type": "uint32"
        }
      ],
      "stateMutability": "view",
      "type": "function"
    },
    {
      "inputs": [],
      "name": "isClosedState",
      "outputs": [
        {
          "internalType": "bool",
          "name": "",
          "type": "bool"
        }
      ],
      "stateMutability": "view",
      "type": "function"
    },
    {
      "inputs": [],
      "name": "jotToken",
      "outputs": [
        {
          "internalType": "address",
          "name": "",
          "type": "address"
        }
      ],
      "stateMutability": "view",
      "type": "function"
    },
    {
      "inputs": [
        {
          "internalType": "address",
          "name": "",
          "type": "address"
        }
      ],
      "name": "lastRepayTimestampSOT",
      "outputs": [
        {
          "internalType": "uint256",
          "name": "",
          "type": "uint256"
        }
      ],
      "stateMutability": "view",
      "type": "function"
    },
    {
      "inputs": [
        {
          "internalType": "address",
          "name": "",
          "type": "address"
        },
        {
          "internalType": "address",
          "name": "",
          "type": "address"
        }
      ],
      "name": "lockedDistributeBalances",
      "outputs": [
        {
          "internalType": "uint256",
          "name": "",
          "type": "uint256"
        }
      ],
      "stateMutability": "view",
      "type": "function"
    },
    {
      "inputs": [
        {
          "internalType": "address",
          "name": "",
          "type": "address"
        },
        {
          "internalType": "address",
          "name": "",
          "type": "address"
        }
      ],
      "name": "lockedRedeemBalances",
      "outputs": [
        {
          "internalType": "uint256",
          "name": "",
          "type": "uint256"
        }
      ],
      "stateMutability": "view",
      "type": "function"
    },
    {
      "inputs": [],
      "name": "minFirstLossCushion",
      "outputs": [
        {
          "internalType": "uint32",
          "name": "",
          "type": "uint32"
        }
      ],
      "stateMutability": "view",
      "type": "function"
    },
    {
      "inputs": [
        {
          "internalType": "uint256",
          "name": "",
          "type": "uint256"
        }
      ],
      "name": "nftAssets",
      "outputs": [
        {
          "internalType": "address",
          "name": "tokenAddress",
          "type": "address"
        },
        {
          "internalType": "uint256",
          "name": "tokenId",
          "type": "uint256"
        }
      ],
      "stateMutability": "view",
      "type": "function"
    },
    {
      "inputs": [
        {
          "internalType": "uint256",
          "name": "currencyAmount",
          "type": "uint256"
        }
      ],
      "name": "onBuyNoteToken",
      "outputs": [],
      "stateMutability": "nonpayable",
      "type": "function"
    },
    {
      "inputs": [
        {
          "internalType": "address",
          "name": "",
          "type": "address"
        },
        {
          "internalType": "address",
          "name": "",
          "type": "address"
        },
        {
          "internalType": "uint256",
          "name": "tokenId",
          "type": "uint256"
        },
        {
          "internalType": "bytes",
          "name": "",
          "type": "bytes"
        }
      ],
      "name": "onERC721Received",
      "outputs": [
        {
          "internalType": "bytes4",
          "name": "",
          "type": "bytes4"
        }
      ],
      "stateMutability": "nonpayable",
      "type": "function"
    },
    {
      "inputs": [],
      "name": "openingBlockTimestamp",
      "outputs": [
        {
          "internalType": "uint64",
          "name": "",
          "type": "uint64"
        }
      ],
      "stateMutability": "view",
      "type": "function"
    },
    {
      "inputs": [
        {
          "internalType": "address",
          "name": "",
          "type": "address"
        }
      ],
      "name": "paidInterestAmountSOT",
      "outputs": [
        {
          "internalType": "uint256",
          "name": "",
          "type": "uint256"
        }
      ],
      "stateMutability": "view",
      "type": "function"
    },
    {
      "inputs": [],
      "name": "paidPrincipalAmountSOT",
      "outputs": [
        {
          "internalType": "uint256",
          "name": "",
          "type": "uint256"
        }
      ],
      "stateMutability": "view",
      "type": "function"
    },
    {
      "inputs": [
        {
          "internalType": "address",
          "name": "",
          "type": "address"
        }
      ],
      "name": "paidPrincipalAmountSOTByInvestor",
      "outputs": [
        {
          "internalType": "uint256",
          "name": "",
          "type": "uint256"
        }
      ],
      "stateMutability": "view",
      "type": "function"
    },
    {
      "inputs": [],
      "name": "pause",
      "outputs": [],
      "stateMutability": "nonpayable",
      "type": "function"
    },
    {
      "inputs": [],
      "name": "paused",
      "outputs": [
        {
          "internalType": "bool",
          "name": "",
          "type": "bool"
        }
      ],
      "stateMutability": "view",
      "type": "function"
    },
    {
      "inputs": [],
      "name": "pot",
      "outputs": [
        {
          "internalType": "address",
          "name": "",
          "type": "address"
        }
      ],
      "stateMutability": "view",
      "type": "function"
    },
    {
      "inputs": [],
      "name": "principalAmountSOT",
      "outputs": [
        {
          "internalType": "uint256",
          "name": "",
          "type": "uint256"
        }
      ],
      "stateMutability": "view",
      "type": "function"
    },
    {
      "inputs": [
        {
          "internalType": "address",
          "name": "usr",
          "type": "address"
        },
        {
          "internalType": "address",
          "name": "notesToken",
          "type": "address"
        },
        {
          "internalType": "uint256",
          "name": "currencyAmount",
          "type": "uint256"
        },
        {
          "internalType": "uint256",
          "name": "tokenAmount",
          "type": "uint256"
        }
      ],
      "name": "redeem",
      "outputs": [],
      "stateMutability": "nonpayable",
      "type": "function"
    },
    {
      "inputs": [],
      "name": "registry",
      "outputs": [
        {
          "internalType": "contract Registry",
          "name": "",
          "type": "address"
        }
      ],
      "stateMutability": "view",
      "type": "function"
    },
    {
      "inputs": [
        {
          "internalType": "bytes32",
          "name": "role",
          "type": "bytes32"
        },
        {
          "internalType": "address",
          "name": "account",
          "type": "address"
        }
      ],
      "name": "renounceRole",
      "outputs": [],
      "stateMutability": "nonpayable",
      "type": "function"
    },
    {
      "inputs": [],
      "name": "reserve",
      "outputs": [
        {
          "internalType": "uint256",
          "name": "",
          "type": "uint256"
        }
      ],
      "stateMutability": "view",
      "type": "function"
    },
    {
      "inputs": [
        {
          "internalType": "bytes32",
          "name": "role",
          "type": "bytes32"
        },
        {
          "internalType": "address",
          "name": "account",
          "type": "address"
        }
      ],
      "name": "revokeRole",
      "outputs": [],
      "stateMutability": "nonpayable",
      "type": "function"
    },
    {
      "inputs": [
        {
          "internalType": "uint256",
          "name": "",
          "type": "uint256"
        }
      ],
      "name": "riskScores",
      "outputs": [
        {
          "internalType": "uint32",
          "name": "daysPastDue",
          "type": "uint32"
        },
        {
          "internalType": "uint32",
          "name": "advanceRate",
          "type": "uint32"
        },
        {
          "internalType": "uint32",
          "name": "penaltyRate",
          "type": "uint32"
        },
        {
          "internalType": "uint32",
          "name": "interestRate",
          "type": "uint32"
        },
        {
          "internalType": "uint32",
          "name": "probabilityOfDefault",
          "type": "uint32"
        },
        {
          "internalType": "uint32",
          "name": "lossGivenDefault",
          "type": "uint32"
        },
        {
          "internalType": "uint32",
          "name": "gracePeriod",
          "type": "uint32"
        },
        {
          "internalType": "uint32",
          "name": "collectionPeriod",
          "type": "uint32"
        },
        {
          "internalType": "uint32",
          "name": "writeOffAfterGracePeriod",
          "type": "uint32"
        },
        {
          "internalType": "uint32",
          "name": "writeOffAfterCollectionPeriod",
          "type": "uint32"
        }
      ],
      "stateMutability": "view",
      "type": "function"
    },
    {
      "inputs": [],
      "name": "secondTGEAddress",
      "outputs": [
        {
          "internalType": "address",
          "name": "",
          "type": "address"
        }
      ],
      "stateMutability": "view",
      "type": "function"
    },
    {
      "inputs": [
        {
          "internalType": "uint32",
          "name": "_interestRateSOT",
          "type": "uint32"
        }
      ],
      "name": "setInterestRateForSOT",
      "outputs": [],
      "stateMutability": "nonpayable",
      "type": "function"
    },
    {
      "inputs": [
        {
          "internalType": "address",
          "name": "_pot",
          "type": "address"
        }
      ],
      "name": "setPot",
      "outputs": [],
      "stateMutability": "nonpayable",
      "type": "function"
    },
    {
      "inputs": [
        {
          "internalType": "uint32[]",
          "name": "_daysPastDues",
          "type": "uint32[]"
        },
        {
          "internalType": "uint32[]",
          "name": "_ratesAndDefaults",
          "type": "uint32[]"
        },
        {
          "internalType": "uint32[]",
          "name": "_periodsAndWriteOffs",
          "type": "uint32[]"
        }
      ],
      "name": "setupRiskScores",
      "outputs": [],
      "stateMutability": "nonpayable",
      "type": "function"
    },
    {
      "inputs": [],
      "name": "sotToken",
      "outputs": [
        {
          "internalType": "address",
          "name": "",
          "type": "address"
        }
      ],
      "stateMutability": "view",
      "type": "function"
    },
    {
      "inputs": [
        {
          "internalType": "uint64",
          "name": "_termLengthInSeconds",
          "type": "uint64"
        },
        {
          "internalType": "uint256",
          "name": "_principalAmountForSOT",
          "type": "uint256"
        },
        {
          "internalType": "uint32",
          "name": "_interestRateForSOT",
          "type": "uint32"
        },
        {
          "internalType": "uint64",
          "name": "_timeStartEarningInterest",
          "type": "uint64"
        }
      ],
      "name": "startCycle",
      "outputs": [],
      "stateMutability": "nonpayable",
      "type": "function"
    },
    {
      "inputs": [],
      "name": "state",
      "outputs": [
        {
          "internalType": "enum ISecuritizationPool.CycleState",
          "name": "",
          "type": "uint8"
        }
      ],
      "stateMutability": "view",
      "type": "function"
    },
    {
      "inputs": [
        {
          "internalType": "bytes4",
          "name": "interfaceId",
          "type": "bytes4"
        }
      ],
      "name": "supportsInterface",
      "outputs": [
        {
          "internalType": "bool",
          "name": "",
          "type": "bool"
        }
      ],
      "stateMutability": "view",
      "type": "function"
    },
    {
      "inputs": [],
      "name": "termLengthInSeconds",
      "outputs": [
        {
          "internalType": "uint64",
          "name": "",
          "type": "uint64"
        }
      ],
      "stateMutability": "view",
      "type": "function"
    },
    {
      "inputs": [],
      "name": "tgeAddress",
      "outputs": [
        {
          "internalType": "address",
          "name": "",
          "type": "address"
        }
      ],
      "stateMutability": "view",
      "type": "function"
    },
    {
      "inputs": [
        {
          "internalType": "uint256",
          "name": "",
          "type": "uint256"
        }
      ],
      "name": "tokenAssetAddresses",
      "outputs": [
        {
          "internalType": "address",
          "name": "",
          "type": "address"
        }
      ],
      "stateMutability": "view",
      "type": "function"
    },
    {
      "inputs": [],
      "name": "totalAssetRepaidCurrency",
      "outputs": [
        {
          "internalType": "uint256",
          "name": "",
          "type": "uint256"
        }
      ],
      "stateMutability": "view",
      "type": "function"
    },
    {
      "inputs": [],
      "name": "totalLockedDistributeBalance",
      "outputs": [
        {
          "internalType": "uint256",
          "name": "",
          "type": "uint256"
        }
      ],
      "stateMutability": "view",
      "type": "function"
    },
    {
      "inputs": [
        {
          "internalType": "address",
          "name": "",
          "type": "address"
        }
      ],
      "name": "totalLockedRedeemBalances",
      "outputs": [
        {
          "internalType": "uint256",
          "name": "",
          "type": "uint256"
        }
      ],
      "stateMutability": "view",
      "type": "function"
    },
    {
      "inputs": [],
      "name": "totalRedeemedCurrency",
      "outputs": [
        {
          "internalType": "uint256",
          "name": "",
          "type": "uint256"
        }
      ],
      "stateMutability": "view",
      "type": "function"
    },
    {
      "inputs": [],
      "name": "underlyingCurrency",
      "outputs": [
        {
          "internalType": "address",
          "name": "",
          "type": "address"
        }
      ],
      "stateMutability": "view",
      "type": "function"
    },
    {
      "inputs": [],
      "name": "unpause",
      "outputs": [],
      "stateMutability": "nonpayable",
      "type": "function"
    },
    {
      "inputs": [
        {
          "internalType": "uint256",
          "name": "amount",
          "type": "uint256"
        }
      ],
      "name": "withdraw",
      "outputs": [],
      "stateMutability": "nonpayable",
      "type": "function"
    },
    {
      "inputs": [
        {
          "internalType": "address[]",
          "name": "tokenAddresses",
          "type": "address[]"
        },
        {
          "internalType": "uint256[]",
          "name": "tokenIds",
          "type": "uint256[]"
        },
        {
          "internalType": "address[]",
          "name": "recipients",
          "type": "address[]"
        }
      ],
      "name": "withdrawAssets",
      "outputs": [],
      "stateMutability": "nonpayable",
      "type": "function"
    },
    {
      "inputs": [
        {
          "internalType": "address[]",
          "name": "tokenAddresses",
          "type": "address[]"
        },
        {
          "internalType": "address[]",
          "name": "recipients",
          "type": "address[]"
        },
        {
          "internalType": "uint256[]",
          "name": "amounts",
          "type": "uint256[]"
        }
      ],
      "name": "withdrawERC20Assets",
      "outputs": [],
      "stateMutability": "nonpayable",
      "type": "function"
    }
  ],
  "transactionHash": "0x68a64e900b9827282282c6fde36eaedd1df2d6af1fc0dbae4a88cc0fbf8a329f",
  "args": [],
  "numDeployments": 4,
  "solcInputHash": "049bb3c3e1235a5289a7040e81526023",
  "bytecode": "0x608060405234801561001057600080fd5b50615b7380620000216000396000f3fe608060405234801561001057600080fd5b50600436106104725760003560e01c806370d2f39911610250578063ac2a6a3811610150578063d547741f116100c8578063e2eda54111610097578063ed3488951161007c578063ed34889514610ae2578063fa3908b114610af5578063febd601814610b2757600080fd5b8063e2eda54114610ab2578063e58378bb14610abb57600080fd5b8063d547741f14610a70578063d8ba6f4414610a83578063dec2858714610a96578063df076fe014610aa957600080fd5b8063c6cb67a61161011f578063cd3293de11610104578063cd3293de14610a3b578063cee7b6a114610a45578063d2fad48114610a4f57600080fd5b8063c6cb67a614610a15578063ca15c87314610a2857600080fd5b8063ac2a6a38146109a2578063ade0ea6d146109ce578063b8cd9b00146109d8578063c19d93fb146109e257600080fd5b80638fd6b71e116101e357806391d14854116101b2578063a125142b11610197578063a125142b14610960578063a217fddf14610987578063a6c595471461098f57600080fd5b806391d14854146109145780639a7ab3311461094d57600080fd5b80638fd6b71e146108c257806390071cf3146108db5780639010d07c146108ee578063901617051461090157600080fd5b80637da220e61161021f5780637da220e6146108715780637dfbdae21461089d578063815d6ddf146108a75780638456cb59146108ba57600080fd5b806370d2f3991461082c57806375b1bce71461084d57806378d29d55146108555780637b1039991461085d57600080fd5b8063357a0302116103765780634bb48586116102ee5780636421cede116102bd5780636456a3ee116102a25780636456a3ee146107f05780636ecf2b22146108045780636ee44c4c1461081757600080fd5b80636421cede14610768578063644b4ead1461077d57600080fd5b80634bb48586146107135780634be47418146107375780635b8e62e71461074a5780635c975abb1461075d57600080fd5b80633f4ba83a11610345578063477035d11161032a578063477035d1146106a55780634b552a4a146106ec5780634ba2363a146106ff57600080fd5b80633f4ba83a1461067c5780633ffebce41461068457600080fd5b8063357a03021461063057806336568abe1461064357806338d9feac146106565780633bf4045f1461066957600080fd5b8063206c1765116104095780632b71b450116103d85780632bcc3682116103bd5780632bcc3682146106015780632e1a7d4d1461060a5780632f2ff15d1461061d57600080fd5b80632b71b450146105c75780632bb14ff0146105db57600080fd5b8063206c176514610575578063221dc5931461057d578063247fc36314610591578063248a9ca3146105a457600080fd5b8063186ccccf11610445578063186ccccf146105225780631ba6e957146105375780631bf51b7014610558578063205854081461056b57600080fd5b806301ffc9a7146104775780630b7792f11461049f5780630bc6bffc146104b2578063150b7a02146104de575b600080fd5b61048a6104853660046152e2565b610b3b565b60405190151581526020015b60405180910390f35b610141545b604051908152602001610496565b610132546104c6906001600160a01b031681565b6040516001600160a01b039091168152602001610496565b6104f16104ec366004615368565b610b97565b6040517fffffffff000000000000000000000000000000000000000000000000000000009091168152602001610496565b6105356105303660046154b2565b610d0d565b005b6104a46105453660046154f4565b61013b6020526000908152604090205481565b610535610566366004615511565b610fd4565b6104a46101355481565b61048a611656565b61012f546104c6906001600160a01b031681565b61053561059f366004615511565b61170f565b6104a46105b23660046155ab565b600090815260c9602052604090206001015490565b610131546104c6906001600160a01b031681565b61013f546105ec9063ffffffff1681565b60405163ffffffff9091168152602001610496565b610140546104a4565b6105356106183660046155ab565b611acf565b61053561062b3660046155c4565b611c1a565b61053561063e3660046155f4565b611c44565b6105356106513660046155c4565b611de7565b61053561066436600461563a565b611e6f565b610535610677366004615511565b611f83565b61053561227d565b6104a46106923660046154f4565b6101446020526000908152604090205481565b610132546106d3907501000000000000000000000000000000000000000000900467ffffffffffffffff1681565b60405167ffffffffffffffff9091168152602001610496565b6105356106fa36600461569f565b612290565b610145546104c6906001600160a01b031681565b61048a6107213660046154f4565b6101436020526000908152604090205460ff1681565b6105356107453660046155f4565b612561565b6105356107583660046155f4565b61284b565b60335460ff1661048a565b610770612a0a565b60405161049691906156ee565b61079061078b3660046155ab565b612a6d565b6040805163ffffffff9b8c168152998b1660208b0152978a16978901979097529488166060880152928716608087015290861660a0860152851660c0850152841660e0840152831661010083015290911661012082015261014001610496565b61012e546104c6906001600160a01b031681565b610535610812366004615754565b612b4e565b610133546106d39067ffffffffffffffff1681565b6104a461083a3660046154f4565b6101376020526000908152604090205481565b61048a612f64565b61048a613165565b61012d546104c6906001600160a01b031681565b6104a461087f36600461579b565b61013860209081526000928352604080842090915290825290205481565b6104a46101365481565b6105356108b53660046157e1565b61319f565b6105356136cd565b61013f546105ec90640100000000900463ffffffff1681565b6105356108e93660046154f4565b6136e0565b6104c66108fc36600461582e565b6138cc565b61053561090f3660046155ab565b6138eb565b61048a6109223660046155c4565b600091825260c9602090815260408084206001600160a01b0393909316845291905290205460ff1690565b61053561095b3660046155ab565b6139c7565b6104a47f59abfac6520ec36a6556b2a4dd949cc40007459bcd5cd2507f1e5cc77b6bc97e81565b6104a4600081565b61053561099d366004615511565b613a90565b6104a46109b036600461579b565b61013960209081526000928352604080842090915290825290205481565b6104a461013e5481565b6104a461013d5481565b61013254610a089074010000000000000000000000000000000000000000900460ff1681565b604051610496919061587f565b610535610a233660046158c0565b613d83565b6104a4610a363660046155ab565b613e4d565b6104a46101345481565b6104a461013a5481565b6104a4610a5d3660046154f4565b61013c6020526000908152604090205481565b610535610a7e3660046155c4565b613e64565b6104c6610a913660046155ab565b613e89565b610535610aa436600461563a565b613eb4565b610142546104a4565b6104a461271081565b6104a47fb19546dff01e856fb3f010c267a7b1c60363cf8a4664e21cc89c26224620214e81565b610535610af03660046154f4565b614159565b610b08610b033660046155ab565b614377565b604080516001600160a01b039093168352602083019190915201610496565b610130546104c6906001600160a01b031681565b60007fffffffff0000000000000000000000000000000000000000000000000000000082167f5a05180f000000000000000000000000000000000000000000000000000000001480610b915750610b91826143b0565b92915050565b61012d54600090610bb0906001600160a01b0316614447565b6001600160a01b0316336001600160a01b03161480610bf5575061012d54610be0906001600160a01b0316614454565b6001600160a01b0316336001600160a01b0316145b610c6c5760405162461bcd60e51b815260206004820152603560248201527f53656375726974697a6174696f6e506f6f6c3a204d75737420626520746f6b6560448201527f6e2069737375656420627920556e74616e676c6564000000000000000000000060648201526084015b60405180910390fd5b6101416040518060400160405280610c813390565b6001600160a01b039081168252602091820187905283546001818101865560009586529483902084516002909202018054919092167fffffffffffffffffffffffff0000000000000000000000000000000000000000909116178155910151910155507f150b7a0200000000000000000000000000000000000000000000000000000000949350505050565b610d15614461565b610d1d6144b6565b8060005b81811015610fc45761012d54610d3f906001600160a01b031661450f565b6001600160a01b03166384933c0c858584818110610d5f57610d5f6158db565b9050602002016020810190610d7491906154f4565b6040517fffffffff0000000000000000000000000000000000000000000000000000000060e084901b1681526001600160a01b039091166004820152602401602060405180830381865afa158015610dd0573d6000803e3d6000fd5b505050506040513d601f19601f82011682018060405250810190610df4919061590a565b610e665760405162461bcd60e51b815260206004820152602960248201527f53656375726974697a6174696f6e506f6f6c3a20756e6b6e6f776e2d746f6b6560448201527f6e2d6164647265737300000000000000000000000000000000000000000000006064820152608401610c63565b6000848483818110610e7a57610e7a6158db565b9050602002016020810190610e8f91906154f4565b6040517f70a082310000000000000000000000000000000000000000000000000000000081523060048201526001600160a01b0391909116906370a0823190602401602060405180830381865afa158015610eee573d6000803e3d6000fd5b505050506040513d601f19601f82011682018060405250810190610f12919061592c565b11610f855760405162461bcd60e51b815260206004820152602960248201527f53656375726974697a6174696f6e506f6f6c3a20546f6b656e2062616c616e6360448201527f65206973207a65726f00000000000000000000000000000000000000000000006064820152608401610c63565b610fb4848483818110610f9a57610f9a6158db565b9050602002016020810190610faf91906154f4565b61451c565b610fbd81615974565b9050610d21565b5050610fd06001606555565b5050565b610fdc614461565b610fe4613165565b156110575760405162461bcd60e51b815260206004820152602860248201527f53656375726974697a6174696f6e506f6f6c3a20506f6f6c20696e20636c6f7360448201527f65642073746174650000000000000000000000000000000000000000000000006064820152608401610c63565b7fb19546dff01e856fb3f010c267a7b1c60363cf8a4664e21cc89c26224620214e611081816145ce565b858461108e82600561598e565b1480156110a45750826110a282600461598e565b145b6111165760405162461bcd60e51b815260206004820152603860248201527f53656375726974697a6174696f6e506f6f6c3a205269736b73636f726520706160448201527f72616d73206c656e677468206973206e6f7420657175616c00000000000000006064820152608401610c63565b6111236101406000615283565b60005b8181101561164b5780158061119c575088886111436001846159ad565b818110611152576111526158db565b905060200201602081019061116791906158c0565b63ffffffff1689898381811061117f5761117f6158db565b905060200201602081019061119491906158c0565b63ffffffff16115b61120e5760405162461bcd60e51b815260206004820152602e60248201527f53656375726974697a6174696f6e506f6f6c3a205269736b2073636f7265732060448201527f6d75737420626520736f727465640000000000000000000000000000000000006064820152608401610c63565b6101406040518061014001604052808b8b8581811061122f5761122f6158db565b905060200201602081019061124491906158c0565b63ffffffff168152602001898985818110611261576112616158db565b905060200201602081019061127691906158c0565b63ffffffff168152602001898961128d87876159c4565b81811061129c5761129c6158db565b90506020020160208101906112b191906158c0565b63ffffffff16815260200189896112c987600261598e565b6112d390876159c4565b8181106112e2576112e26158db565b90506020020160208101906112f791906158c0565b63ffffffff168152602001898961130f87600361598e565b61131990876159c4565b818110611328576113286158db565b905060200201602081019061133d91906158c0565b63ffffffff168152602001898961135587600461598e565b61135f90876159c4565b81811061136e5761136e6158db565b905060200201602081019061138391906158c0565b63ffffffff1681526020018787858181106113a0576113a06158db565b90506020020160208101906113b591906158c0565b63ffffffff16815260200187876113cc87876159c4565b8181106113db576113db6158db565b90506020020160208101906113f091906158c0565b63ffffffff168152602001878761140887600261598e565b61141290876159c4565b818110611421576114216158db565b905060200201602081019061143691906158c0565b63ffffffff168152602001878761144e87600361598e565b61145890876159c4565b818110611467576114676158db565b905060200201602081019061147c91906158c0565b63ffffffff16815250908060018154018082558091505060019003906000526020600020906002020160009091909190915060008201518160000160006101000a81548163ffffffff021916908363ffffffff16021790555060208201518160000160046101000a81548163ffffffff021916908363ffffffff16021790555060408201518160000160086101000a81548163ffffffff021916908363ffffffff160217905550606082015181600001600c6101000a81548163ffffffff021916908363ffffffff16021790555060808201518160000160106101000a81548163ffffffff021916908363ffffffff16021790555060a08201518160000160146101000a81548163ffffffff021916908363ffffffff16021790555060c08201518160000160186101000a81548163ffffffff021916908363ffffffff16021790555060e082015181600001601c6101000a81548163ffffffff021916908363ffffffff1602179055506101008201518160010160006101000a81548163ffffffff021916908363ffffffff1602179055506101208201518160010160046101000a81548163ffffffff021916908363ffffffff1602179055505050808061164390615974565b915050611126565b505050505050505050565b61012d546000908190611671906001600160a01b03166145d8565b6040517f4a7b31400000000000000000000000000000000000000000000000000000000081523060048201529091506001600160a01b03821690634a7b314090602401602060405180830381865afa1580156116d1573d6000803e3d6000fd5b505050506040513d601f19601f820116820180604052508101906116f5919061592c565b61013f54640100000000900463ffffffff16111592915050565b611717614461565b61171f6144b6565b611727613165565b1561179a5760405162461bcd60e51b815260206004820152602860248201527f53656375726974697a6174696f6e506f6f6c3a20506f6f6c20696e20636c6f7360448201527f65642073746174650000000000000000000000000000000000000000000000006064820152608401610c63565b7f59abfac6520ec36a6556b2a4dd949cc40007459bcd5cd2507f1e5cc77b6bc97e6117c4816145ce565b8584811480156117d357508483145b6118455760405162461bcd60e51b815260206004820152602f60248201527f53656375726974697a6174696f6e506f6f6c3a20506172616d73206c656e677460448201527f6820617265206e6f7420657175616c00000000000000000000000000000000006064820152608401610c63565b60005b81811015611aba5761012d54611866906001600160a01b031661450f565b6001600160a01b03166384933c0c8a8a84818110611886576118866158db565b905060200201602081019061189b91906154f4565b6040517fffffffff0000000000000000000000000000000000000000000000000000000060e084901b1681526001600160a01b039091166004820152602401602060405180830381865afa1580156118f7573d6000803e3d6000fd5b505050506040513d601f19601f8201168201806040525081019061191b919061590a565b61198d5760405162461bcd60e51b815260206004820152602960248201527f53656375726974697a6174696f6e506f6f6c3a20756e6b6e6f776e2d746f6b6560448201527f6e2d6164647265737300000000000000000000000000000000000000000000006064820152608401610c63565b88888281811061199f5761199f6158db565b90506020020160208101906119b491906154f4565b6001600160a01b03166323b872dd8888848181106119d4576119d46158db565b90506020020160208101906119e991906154f4565b308888868181106119fc576119fc6158db565b6040517fffffffff0000000000000000000000000000000000000000000000000000000060e088901b1681526001600160a01b039586166004820152949093166024850152506020909102013560448201526064016020604051808303816000875af1158015611a70573d6000803e3d6000fd5b505050506040513d601f19601f82011682018060405250810190611a94919061590a565b50611aaa898983818110610f9a57610f9a6158db565b611ab381615974565b9050611848565b505050611ac76001606555565b505050505050565b611ad7614461565b611adf6144b6565b7f59abfac6520ec36a6556b2a4dd949cc40007459bcd5cd2507f1e5cc77b6bc97e611b09816145ce565b8161013454611b1891906159ad565b61013455611b24611656565b611b705760405162461bcd60e51b815260206004820152601d60248201527f4d696e46697273744c6f7373206973206e6f74207361746973666965640000006044820152606401610c63565b61013254610145546040517f23b872dd0000000000000000000000000000000000000000000000000000000081526001600160a01b039182166004820152336024820152604481018590529116906323b872dd906064015b6020604051808303816000875af1158015611be7573d6000803e3d6000fd5b505050506040513d601f19601f82011682018060405250810190611c0b919061590a565b5050611c176001606555565b50565b600082815260c96020526040902060010154611c35816145ce565b611c3f83836145e5565b505050565b611c4c614461565b61012d54611c62906001600160a01b0316614607565b6001600160a01b0316336001600160a01b031614611ce85760405162461bcd60e51b815260206004820152602d60248201527f53656375726974697a6174696f6e506f6f6c3a204f6e6c79204469737472696260448201527f7574696f6e4f70657261746f72000000000000000000000000000000000000006064820152608401610c63565b6001600160a01b0380851660009081526101386020908152604080832093871683529290522054611d1a9083906159c4565b6001600160a01b038086166000818152610138602090815260408083209489168084529482528083209590955591815261013982528381209281529190522054611d659082906159c4565b6001600160a01b038086166000908152610139602090815260408083209388168352929052205561013654611d9b9083906159c4565b610136556001600160a01b03841660009081526101376020526040902054611dc49082906159c4565b6001600160a01b0390941660009081526101376020526040902093909355505050565b6001600160a01b0381163314611e655760405162461bcd60e51b815260206004820152602f60248201527f416363657373436f6e74726f6c3a2063616e206f6e6c792072656e6f756e636560448201527f20726f6c657320666f722073656c6600000000000000000000000000000000006064820152608401610c63565b610fd08282614614565b611e77614461565b611e7f6144b6565b7f59abfac6520ec36a6556b2a4dd949cc40007459bcd5cd2507f1e5cc77b6bc97e611ea9816145ce565b8160005b81811015611f7057866001600160a01b03166342842e0e8730888886818110611ed857611ed86158db565b6040517fffffffff0000000000000000000000000000000000000000000000000000000060e088901b1681526001600160a01b03958616600482015294909316602485015250602090910201356044820152606401600060405180830381600087803b158015611f4757600080fd5b505af1158015611f5b573d6000803e3d6000fd5b5050505080611f6990615974565b9050611ead565b505050611f7d6001606555565b50505050565b611f8b614461565b611f936144b6565b7fb19546dff01e856fb3f010c267a7b1c60363cf8a4664e21cc89c26224620214e611fbd816145ce565b858481146120335760405162461bcd60e51b815260206004820152603760248201527f746f6b656e416464726573736573206c656e67746820616e6420746f6b656e4960448201527f6473206c656e67746820617265206e6f7420657175616c0000000000000000006064820152608401610c63565b8083146120a85760405162461bcd60e51b815260206004820152603960248201527f746f6b656e416464726573736573206c656e67746820616e642072656369706960448201527f656e7473206c656e67746820617265206e6f7420657175616c000000000000006064820152608401610c63565b60005b81811015611aba5761014360008a8a848181106120ca576120ca6158db565b90506020020160208101906120df91906154f4565b6001600160a01b0316815260208101919091526040016000205460ff1661216e5760405162461bcd60e51b815260206004820152603360248201527f53656375726974697a6174696f6e506f6f6c3a206e6f746520746f6b656e206160448201527f7373657420646f6573206e6f74206578697374000000000000000000000000006064820152608401610c63565b888882818110612180576121806158db565b905060200201602081019061219591906154f4565b6001600160a01b031663a9059cbb8888848181106121b5576121b56158db565b90506020020160208101906121ca91906154f4565b8787858181106121dc576121dc6158db565b6040517fffffffff0000000000000000000000000000000000000000000000000000000060e087901b1681526001600160a01b03909416600485015260200291909101356024830152506044016020604051808303816000875af1158015612248573d6000803e3d6000fd5b505050506040513d601f19601f8201168201806040525081019061226c919061590a565b5061227681615974565b90506120ab565b6000612288816145ce565b611c17614636565b612298614461565b6122a06144b6565b61012d546122b6906001600160a01b0316614688565b6001600160a01b0316336001600160a01b03161461233c5760405162461bcd60e51b815260206004820152602e60248201527f53656375726974697a6174696f6e506f6f6c3a204f6e6c79205365637572697460448201527f697a6174696f6e4d616e616765720000000000000000000000000000000000006064820152608401610c63565b60026101325474010000000000000000000000000000000000000000900460ff16600381111561236e5761236e615850565b141580156123ac575060036101325474010000000000000000000000000000000000000000900460ff1660038111156123a9576123a9615850565b14155b6123f85760405162461bcd60e51b815260206004820152601a60248201527f4e6f7420696e2069737375696e6720746f6b656e2073746167650000000000006044820152606401610c63565b6001600160a01b0383161580159061241857506001600160a01b03821615155b6124645760405162461bcd60e51b815260206004820181905260248201527f53656375726974697a6174696f6e506f6f6c3a2041646472657373207a65726f6044820152606401610c63565b600081600181111561247857612478615850565b036124cc5761012e80546001600160a01b038086167fffffffffffffffffffffffff000000000000000000000000000000000000000092831617909255610130805492851692909116919091179055612517565b61012f80546001600160a01b038086167fffffffffffffffffffffffff0000000000000000000000000000000000000000928316179092556101318054928516929091169190911790555b505061013280547fffffffffffffffffffffff00ffffffffffffffffffffffffffffffffffffffff1674010000000000000000000000000000000000000000179055506001606555565b612569614461565b6125716144b6565b61012d54612587906001600160a01b0316614695565b6001600160a01b0316336001600160a01b03161461260d5760405162461bcd60e51b815260206004820152603660248201527f53656375726974697a6174696f6e506f6f6c3a2043616c6c6572206d7573742060448201527f626520446973747269627574696f6e5472616e636865000000000000000000006064820152608401610c63565b610130546001600160a01b03808516911603612652576001600160a01b038416600090815261014460205260408120805484929061264c9084906159c4565b90915550505b80156126cc576040517f42966c68000000000000000000000000000000000000000000000000000000008152600481018290526001600160a01b038416906342966c6890602401600060405180830381600087803b1580156126b357600080fd5b505af11580156126c7573d6000803e3d6000fd5b505050505b81610134546126db91906159ad565b610134556126e7611656565b6127335760405162461bcd60e51b815260206004820152601d60248201527f4d696e46697273744c6f7373206973206e6f74207361746973666965640000006044820152606401610c63565b61013254610145546040517f23b872dd0000000000000000000000000000000000000000000000000000000081526001600160a01b0391821660048201528682166024820152604481018590529116906323b872dd906064016020604051808303816000875af11580156127ab573d6000803e3d6000fd5b505050506040513d601f19601f820116820180604052508101906127cf919061590a565b6128415760405162461bcd60e51b815260206004820152602c60248201527f53656375726974697a6174696f6e506f6f6c3a2063757272656e63792d74726160448201527f6e736665722d6661696c656400000000000000000000000000000000000000006064820152608401610c63565b611f7d6001606555565b612853614461565b61285b6144b6565b61012d54612871906001600160a01b0316614607565b6001600160a01b0316336001600160a01b0316146128f75760405162461bcd60e51b815260206004820152602d60248201527f53656375726974697a6174696f6e506f6f6c3a204f6e6c79204469737472696260448201527f7574696f6e4f70657261746f72000000000000000000000000000000000000006064820152608401610c63565b6001600160a01b03808516600090815261013860209081526040808320938716835292905220546129299083906159ad565b6001600160a01b0380861660008181526101386020908152604080832094891680845294825280832095909555918152610139825283812092815291905220546129749082906159ad565b6001600160a01b0380861660009081526101396020908152604080832093881683529290522055610136546129aa9083906159ad565b61013655610135546129bd9083906159c4565b610135556001600160a01b038416600090815261013760205260409020546129e69082906159ad565b6001600160a01b03851660009081526101376020526040902055611f7d6001606555565b6060610142805480602002602001604051908101604052809291908181526020018280548015612a6357602002820191906000526020600020905b81546001600160a01b03168152600190910190602001808311612a45575b5050505050905090565b6101408181548110612a7e57600080fd5b60009182526020909120600290910201805460019091015463ffffffff80831693506401000000008084048216936801000000000000000081048316936c0100000000000000000000000082048416937001000000000000000000000000000000008304811693740100000000000000000000000000000000000000008404821693780100000000000000000000000000000000000000000000000081048316937c010000000000000000000000000000000000000000000000000000000090910483169281811692909104168a565b600054610100900460ff1615808015612b6e5750600054600160ff909116105b80612b885750303b158015612b88575060005460ff166001145b612bfa5760405162461bcd60e51b815260206004820152602e60248201527f496e697469616c697a61626c653a20636f6e747261637420697320616c72656160448201527f647920696e697469616c697a65640000000000000000000000000000000000006064820152608401610c63565b6000805460ff191660011790558015612c3a57600080547fffffffffffffffffffffffffffffffffffffffffffffffffffffffffffff00ff166101001790555b612c47612710606461598e565b8263ffffffff1610612cc15760405162461bcd60e51b815260206004820152602760248201527f6d696e46697273744c6f737343757368696f6e2069732067726561746572207460448201527f68616e20313030000000000000000000000000000000000000000000000000006064820152608401610c63565b612cca336146a2565b612d147f59abfac6520ec36a6556b2a4dd949cc40007459bcd5cd2507f1e5cc77b6bc97e7fb19546dff01e856fb3f010c267a7b1c60363cf8a4664e21cc89c26224620214e614728565b61012d80547fffffffffffffffffffffffff00000000000000000000000000000000000000009081166001600160a01b03878116919091179092556101458054309216821790556040517f095ea7b3000000000000000000000000000000000000000000000000000000008152600481019190915260001960248201529084169063095ea7b3906044016020604051808303816000875af1158015612dbd573d6000803e3d6000fd5b505050506040513d601f19601f82011682018060405250810190612de1919061590a565b5061012d54612df8906001600160a01b0316614454565b61012d546001600160a01b039182169163a22cb46591612e189116614773565b6040517fffffffff0000000000000000000000000000000000000000000000000000000060e084901b1681526001600160a01b03909116600482015260016024820152604401600060405180830381600087803b158015612e7857600080fd5b505af1158015612e8c573d6000803e3d6000fd5b505061013280547fffffffffffffffffffffff000000000000000000000000000000000000000000166001600160a01b038716179055505061013f80547fffffffffffffffffffffffffffffffffffffffffffffffff00000000ffffffff1664010000000063ffffffff8516021790558015611f7d57600080547fffffffffffffffffffffffffffffffffffffffffffffffffffffffffffff00ff169055604051600181527f7f26b83ff96e1f2b6a682f133852f6798a09c465da95921460cefb38474024989060200160405180910390a150505050565b610130546000906001600160a01b0316156130635761013060009054906101000a90046001600160a01b03166001600160a01b03166318160ddd6040518163ffffffff1660e01b8152600401602060405180830381865afa158015612fcd573d6000803e3d6000fd5b505050506040513d601f19601f82011682018060405250810190612ff1919061592c565b156130635760405162461bcd60e51b8152602060048201526024808201527f53656375726974697a6174696f6e506f6f6c3a20534f54207374696c6c20726560448201527f6d61696e000000000000000000000000000000000000000000000000000000006064820152608401610c63565b610131546001600160a01b03161561315f5761013160009054906101000a90046001600160a01b03166001600160a01b03166318160ddd6040518163ffffffff1660e01b8152600401602060405180830381865afa1580156130c9573d6000803e3d6000fd5b505050506040513d601f19601f820116820180604052508101906130ed919061592c565b1561315f5760405162461bcd60e51b8152602060048201526024808201527f53656375726974697a6174696f6e506f6f6c3a204a4f54207374696c6c20726560448201527f6d61696e000000000000000000000000000000000000000000000000000000006064820152608401610c63565b50600190565b600060036101325474010000000000000000000000000000000000000000900460ff16600381111561319957613199615850565b14905090565b6131a7614461565b6131af6144b6565b7fb19546dff01e856fb3f010c267a7b1c60363cf8a4664e21cc89c26224620214e6131d9816145ce565b60026101325474010000000000000000000000000000000000000000900460ff16600381111561320b5761320b615850565b14158015613249575060036101325474010000000000000000000000000000000000000000900460ff16600381111561324657613246615850565b14155b6132955760405162461bcd60e51b815260206004820152601a60248201527f4e6f7420696e2069737375696e6720746f6b656e2073746167650000000000006044820152606401610c63565b61012e546001600160a01b0316156134395761012e54604080517fb3f05b9700000000000000000000000000000000000000000000000000000000815290516001600160a01b0390921691829163b3f05b979160048083019260209291908290030181865afa15801561330c573d6000803e3d6000fd5b505050506040513d601f19601f82011682018060405250810190613330919061590a565b6133a25760405162461bcd60e51b815260206004820152602a60248201527f53656375726974697a6174696f6e506f6f6c3a2073616c65206973207374696c60448201527f6c206f6e20676f696e67000000000000000000000000000000000000000000006064820152608401610c63565b61012e546040517fa38a52a600000000000000000000000000000000000000000000000000000000815263ffffffff8616600482015267ffffffffffffffff8089166024830152851660448201526001600160a01b039091169063a38a52a690606401600060405180830381600087803b15801561341f57600080fd5b505af1158015613433573d6000803e3d6000fd5b50505050505b61012f546001600160a01b0316156135355761012f60009054906101000a90046001600160a01b03166001600160a01b031663b3f05b976040518163ffffffff1660e01b8152600401602060405180830381865afa15801561349f573d6000803e3d6000fd5b505050506040513d601f19601f820116820180604052508101906134c3919061590a565b6135355760405162461bcd60e51b815260206004820152603160248201527f53656375726974697a6174696f6e506f6f6c3a207365636f6e642073616c652060448201527f6973207374696c6c206f6e20676f696e670000000000000000000000000000006064820152608401610c63565b60008567ffffffffffffffff16116135b45760405162461bcd60e51b8152602060048201526024808201527f53656375726974697a6174696f6e506f6f6c3a205465726d206c656e6774682060448201527f69732030000000000000000000000000000000000000000000000000000000006064820152608401610c63565b61013280547fffffff0000000000000000ffffffffffffffffffffffffffffffffffffffffff16750100000000000000000000000000000000000000000067ffffffffffffffff858116919091029190911790915561013380547fffffffffffffffffffffffffffffffffffffffffffffffff00000000000000001691871691909117905561013d84905561013f5463ffffffff166000036136825761013f80547fffffffffffffffffffffffffffffffffffffffffffffffffffffffff000000001663ffffffff85161790555b5061013280547fffffffffffffffffffffff00ffffffffffffffffffffffffffffffffffffffff16740200000000000000000000000000000000000000001790556001606555611f7d565b60006136d8816145ce565b611c17614780565b6136e8614461565b6136f06144b6565b7fb19546dff01e856fb3f010c267a7b1c60363cf8a4664e21cc89c26224620214e61371a816145ce565b613722612f64565b6137945760405162461bcd60e51b815260206004820152602f60248201527f53656375726974697a6174696f6e506f6f6c3a20526564656d7074696f6e206860448201527f6173206e6f742066696e697368656400000000000000000000000000000000006064820152608401610c63565b61013254610145546040517f70a082310000000000000000000000000000000000000000000000000000000081526001600160a01b0391821660048201819052919092169182916323b872dd91869084906370a0823190602401602060405180830381865afa15801561380b573d6000803e3d6000fd5b505050506040513d601f19601f8201168201806040525081019061382f919061592c565b6040517fffffffff0000000000000000000000000000000000000000000000000000000060e086901b1681526001600160a01b03938416600482015292909116602483015260448201526064016020604051808303816000875af115801561389b573d6000803e3d6000fd5b505050506040513d601f19601f820116820180604052508101906138bf919061590a565b505050611c176001606555565b600082815260fb602052604081206138e490836147bd565b9392505050565b6138f3614461565b6138fb6144b6565b61012d54613911906001600160a01b03166147c9565b6001600160a01b0316336001600160a01b0316146139975760405162461bcd60e51b815260206004820152602c60248201527f53656375726974697a6174696f6e506f6f6c3a204f6e6c79204c6f616e52657060448201527f61796d656e74526f7574657200000000000000000000000000000000000000006064820152608401610c63565b80610134546139a691906159c4565b6101345561013a546139b99082906159c4565b61013a55611c176001606555565b6139cf614461565b6139d76144b6565b61012d546139ed906001600160a01b0316614688565b6001600160a01b0316336001600160a01b031614613a735760405162461bcd60e51b815260206004820152602e60248201527f53656375726974697a6174696f6e506f6f6c3a204f6e6c79205365637572697460448201527f697a6174696f6e4d616e616765720000000000000000000000000000000000006064820152608401610c63565b8061013454613a8291906159c4565b61013455611c176001606555565b613a98614461565b613aa06144b6565b7fb19546dff01e856fb3f010c267a7b1c60363cf8a4664e21cc89c26224620214e613aca816145ce565b83868114613b405760405162461bcd60e51b815260206004820152603760248201527f746f6b656e416464726573736573206c656e67746820616e6420746f6b656e4960448201527f6473206c656e67746820617265206e6f7420657175616c0000000000000000006064820152608401610c63565b868314613bb55760405162461bcd60e51b815260206004820152603960248201527f746f6b656e416464726573736573206c656e67746820616e642072656369706960448201527f656e7473206c656e67746820617265206e6f7420657175616c000000000000006064820152608401610c63565b60005b81811015611aba57613c08898983818110613bd557613bd56158db565b9050602002016020810190613bea91906154f4565b888884818110613bfc57613bfc6158db565b905060200201356147d6565b613c7a5760405162461bcd60e51b815260206004820152602860248201527f53656375726974697a6174696f6e506f6f6c3a20417373657420646f6573206e60448201527f6f742065786973740000000000000000000000000000000000000000000000006064820152608401610c63565b888882818110613c8c57613c8c6158db565b9050602002016020810190613ca191906154f4565b6001600160a01b03166342842e0e30878785818110613cc257613cc26158db565b9050602002016020810190613cd791906154f4565b8a8a86818110613ce957613ce96158db565b6040517fffffffff0000000000000000000000000000000000000000000000000000000060e088901b1681526001600160a01b03958616600482015294909316602485015250602090910201356044820152606401600060405180830381600087803b158015613d5857600080fd5b505af1158015613d6c573d6000803e3d6000fd5b505050508080613d7b90615974565b915050613bb8565b613d8b614461565b61012e546001600160a01b0316336001600160a01b031614613e155760405162461bcd60e51b815260206004820152603060248201527f53656375726974697a6174696f6e506f6f6c3a204f6e6c79207467652063616e60448201527f2075706461746520696e746572657374000000000000000000000000000000006064820152608401610c63565b61013f80547fffffffffffffffffffffffffffffffffffffffffffffffffffffffff000000001663ffffffff92909216919091179055565b600081815260fb60205260408120610b9190614886565b600082815260c96020526040902060010154613e7f816145ce565b611c3f8383614614565b6101428181548110613e9a57600080fd5b6000918252602090912001546001600160a01b0316905081565b613ebc614461565b613ec46144b6565b613ecc613165565b15613f3f5760405162461bcd60e51b815260206004820152602860248201527f53656375726974697a6174696f6e506f6f6c3a20506f6f6c20696e20636c6f7360448201527f65642073746174650000000000000000000000000000000000000000000000006064820152608401610c63565b7fb19546dff01e856fb3f010c267a7b1c60363cf8a4664e21cc89c26224620214e613f69816145ce565b8160005b81811015611f7057613f8b87868684818110613bfc57613bfc6158db565b613ffd5760405162461bcd60e51b815260206004820152602860248201527f53656375726974697a6174696f6e506f6f6c3a20417373657420646f6573206e60448201527f6f742065786973740000000000000000000000000000000000000000000000006064820152608401610c63565b866001600160a01b031663095ea7b38787878581811061401f5761401f6158db565b6040517fffffffff0000000000000000000000000000000000000000000000000000000060e087901b1681526001600160a01b0390941660048501526020029190910135602483015250604401600060405180830381600087803b15801561408657600080fd5b505af115801561409a573d6000803e3d6000fd5b50505050866001600160a01b03166342842e0e30888888868181106140c1576140c16158db565b6040517fffffffff0000000000000000000000000000000000000000000000000000000060e088901b1681526001600160a01b03958616600482015294909316602485015250602090910201356044820152606401600060405180830381600087803b15801561413057600080fd5b505af1158015614144573d6000803e3d6000fd5b505050508061415290615974565b9050613f6d565b614161614461565b6141696144b6565b614171613165565b156141e45760405162461bcd60e51b815260206004820152602860248201527f53656375726974697a6174696f6e506f6f6c3a20506f6f6c20696e20636c6f7360448201527f65642073746174650000000000000000000000000000000000000000000000006064820152608401610c63565b7fb19546dff01e856fb3f010c267a7b1c60363cf8a4664e21cc89c26224620214e61420e816145ce565b6001600160a01b03821660009081527f8b9c60e99117f5032802dca1150f0b5e8c20c85aaaf9b6948c204e6687095705602052604090205460ff161561425357600080fd5b610145546001600160a01b038084169116036142d75760405162461bcd60e51b815260206004820152603160248201527f53656375726974697a6174696f6e506f6f6c3a2053616d65206164647265737360448201527f20776974682063757272656e7420706f740000000000000000000000000000006064820152608401610c63565b61014580547fffffffffffffffffffffffff0000000000000000000000000000000000000000166001600160a01b03841690811790915530900361436c5761013254610145546040517f095ea7b30000000000000000000000000000000000000000000000000000000081526001600160a01b039182166004820152600019602482015291169063095ea7b390604401611bc8565b50611c176001606555565b610141818154811061438857600080fd5b6000918252602090912060029091020180546001909101546001600160a01b03909116915082565b60007fffffffff0000000000000000000000000000000000000000000000000000000082167f7965db0b000000000000000000000000000000000000000000000000000000001480610b9157507f01ffc9a7000000000000000000000000000000000000000000000000000000007fffffffff00000000000000000000000000000000000000000000000000000000831614610b91565b6000610b91826008614890565b6000610b91826007614890565b60335460ff16156144b45760405162461bcd60e51b815260206004820152601060248201527f5061757361626c653a20706175736564000000000000000000000000000000006044820152606401610c63565b565b6002606554036145085760405162461bcd60e51b815260206004820152601f60248201527f5265656e7472616e637947756172643a207265656e7472616e742063616c6c006044820152606401610c63565b6002606555565b6000610b91826002614890565b6001600160a01b0381166000908152610143602052604090205460ff166145a25761014280546001810182556000919091527f7917ad5f1bd6fa6d4f9128143f89bcba30c5b503e76ecd2dd7562ddf9706ae190180547fffffffffffffffffffffffff0000000000000000000000000000000000000000166001600160a01b0383161790555b6001600160a01b0316600090815261014360205260409020805460ff19166001179055565b6001606555565b611c17813361492d565b6000610b91826010614890565b6145ef82826149c0565b600082815260fb60205260409020611c3f9082614a62565b6000610b91826004614890565b61461e8282614a77565b600082815260fb60205260409020611c3f9082614afa565b61463e614b0f565b6033805460ff191690557f5db9ee0a495bf2e6ff9c91a7834c1ba4fdd244a5e8aa4e537bd38aeae4b073aa335b6040516001600160a01b03909116815260200160405180910390a1565b6000610b91826000614890565b6000610b91826006614890565b600054610100900460ff1661471f5760405162461bcd60e51b815260206004820152602b60248201527f496e697469616c697a61626c653a20636f6e7472616374206973206e6f74206960448201527f6e697469616c697a696e670000000000000000000000000000000000000000006064820152608401610c63565b611c1781614b61565b600082815260c96020526040808220600101805490849055905190918391839186917fbd79b86ffe0ab8e8776151514217cd7cacd52c909f66475c3af44e129f0b00ff9190a4505050565b6000610b9182600c614890565b614788614461565b6033805460ff191660011790557f62e78cea01bee320cd4e420270b5ea74000d11b0c9f74754ebdbfc544b05a25861466b3390565b60006138e48383614c66565b6000610b9182600b614890565b61014154600090815b8181101561487b57846001600160a01b03166101418281548110614805576148056158db565b60009182526020909120600290910201546001600160a01b0316148015614850575083610141828154811061483c5761483c6158db565b906000526020600020906002020160010154145b156148695761485e81614c90565b600192505050610b91565b8061487381615974565b9150506147df565b506000949350505050565b6000610b91825490565b6000826001600160a01b031663bcaa0c5583601e8111156148b3576148b3615850565b6040517fffffffff0000000000000000000000000000000000000000000000000000000060e084901b16815260ff9091166004820152602401602060405180830381865afa158015614909573d6000803e3d6000fd5b505050506040513d601f19601f820116820180604052508101906138e491906159dc565b600082815260c9602090815260408083206001600160a01b038516845290915290205460ff16610fd05761496081614d79565b61496b836020614d8b565b60405160200161497c929190615a25565b604080517fffffffffffffffffffffffffffffffffffffffffffffffffffffffffffffffe08184030181529082905262461bcd60e51b8252610c6391600401615aa6565b600082815260c9602090815260408083206001600160a01b038516845290915290205460ff16610fd057600082815260c9602090815260408083206001600160a01b03851684529091529020805460ff19166001179055614a1e3390565b6001600160a01b0316816001600160a01b0316837f2f8788117e7eff1d82e926ec794901d17c78024a50270940304540a733656f0d60405160405180910390a45050565b60006138e4836001600160a01b038416614fb4565b600082815260c9602090815260408083206001600160a01b038516845290915290205460ff1615610fd057600082815260c9602090815260408083206001600160a01b0385168085529252808320805460ff1916905551339285917ff6391f5c32d9c69d2a47ea670b442974b53935d1edc7fd64eb21e047a839171b9190a45050565b60006138e4836001600160a01b038416615003565b60335460ff166144b45760405162461bcd60e51b815260206004820152601460248201527f5061757361626c653a206e6f74207061757365640000000000000000000000006044820152606401610c63565b600054610100900460ff16614bde5760405162461bcd60e51b815260206004820152602b60248201527f496e697469616c697a61626c653a20636f6e7472616374206973206e6f74206960448201527f6e697469616c697a696e670000000000000000000000000000000000000000006064820152608401610c63565b614be66150f6565b614bee61517f565b614bf66151fc565b6001600160a01b038116614c075750335b614c12600082615279565b614c3c7fb19546dff01e856fb3f010c267a7b1c60363cf8a4664e21cc89c26224620214e82615279565b611c177fb19546dff01e856fb3f010c267a7b1c60363cf8a4664e21cc89c26224620214e80614728565b6000826000018281548110614c7d57614c7d6158db565b9060005260206000200154905092915050565b6101418054614ca1906001906159ad565b81548110614cb157614cb16158db565b90600052602060002090600202016101418281548110614cd357614cd36158db565b60009182526020909120825460029092020180547fffffffffffffffffffffffff0000000000000000000000000000000000000000166001600160a01b03909216919091178155600191820154910155610141805480614d3557614d35615af7565b60008281526020812060026000199093019283020180547fffffffffffffffffffffffff000000000000000000000000000000000000000016815560010155905550565b6060610b916001600160a01b03831660145b60606000614d9a83600261598e565b614da59060026159c4565b67ffffffffffffffff811115614dbd57614dbd615339565b6040519080825280601f01601f191660200182016040528015614de7576020820181803683370190505b5090507f300000000000000000000000000000000000000000000000000000000000000081600081518110614e1e57614e1e6158db565b60200101907effffffffffffffffffffffffffffffffffffffffffffffffffffffffffffff1916908160001a9053507f780000000000000000000000000000000000000000000000000000000000000081600181518110614e8157614e816158db565b60200101907effffffffffffffffffffffffffffffffffffffffffffffffffffffffffffff1916908160001a9053506000614ebd84600261598e565b614ec89060016159c4565b90505b6001811115614f65577f303132333435363738396162636465660000000000000000000000000000000085600f1660108110614f0957614f096158db565b1a60f81b828281518110614f1f57614f1f6158db565b60200101907effffffffffffffffffffffffffffffffffffffffffffffffffffffffffffff1916908160001a90535060049490941c93614f5e81615b26565b9050614ecb565b5083156138e45760405162461bcd60e51b815260206004820181905260248201527f537472696e67733a20686578206c656e67746820696e73756666696369656e746044820152606401610c63565b6000818152600183016020526040812054614ffb57508154600181810184556000848152602080822090930184905584548482528286019093526040902091909155610b91565b506000610b91565b600081815260018301602052604081205480156150ec5760006150276001836159ad565b855490915060009061503b906001906159ad565b90508181146150a057600086600001828154811061505b5761505b6158db565b906000526020600020015490508087600001848154811061507e5761507e6158db565b6000918252602080832090910192909255918252600188019052604090208390555b85548690806150b1576150b1615af7565b600190038181906000526020600020016000905590558560010160008681526020019081526020016000206000905560019350505050610b91565b6000915050610b91565b600054610100900460ff166151735760405162461bcd60e51b815260206004820152602b60248201527f496e697469616c697a61626c653a20636f6e7472616374206973206e6f74206960448201527f6e697469616c697a696e670000000000000000000000000000000000000000006064820152608401610c63565b6033805460ff19169055565b600054610100900460ff166145c75760405162461bcd60e51b815260206004820152602b60248201527f496e697469616c697a61626c653a20636f6e7472616374206973206e6f74206960448201527f6e697469616c697a696e670000000000000000000000000000000000000000006064820152608401610c63565b600054610100900460ff166144b45760405162461bcd60e51b815260206004820152602b60248201527f496e697469616c697a61626c653a20636f6e7472616374206973206e6f74206960448201527f6e697469616c697a696e670000000000000000000000000000000000000000006064820152608401610c63565b610fd082826145e5565b5080546000825560020290600052602060002090810190611c1791905b808211156152de57600081556001810180547fffffffffffffffffffffffffffffffffffffffffffffffff00000000000000001690556002016152a0565b5090565b6000602082840312156152f457600080fd5b81357fffffffff00000000000000000000000000000000000000000000000000000000811681146138e457600080fd5b6001600160a01b0381168114611c1757600080fd5b7f4e487b7100000000000000000000000000000000000000000000000000000000600052604160045260246000fd5b6000806000806080858703121561537e57600080fd5b843561538981615324565b9350602085013561539981615324565b925060408501359150606085013567ffffffffffffffff808211156153bd57600080fd5b818701915087601f8301126153d157600080fd5b8135818111156153e3576153e3615339565b604051601f82017fffffffffffffffffffffffffffffffffffffffffffffffffffffffffffffffe0908116603f0116810190838211818310171561542957615429615339565b816040528281528a602084870101111561544257600080fd5b82602086016020830137600060208483010152809550505050505092959194509250565b60008083601f84011261547857600080fd5b50813567ffffffffffffffff81111561549057600080fd5b6020830191508360208260051b85010111156154ab57600080fd5b9250929050565b600080602083850312156154c557600080fd5b823567ffffffffffffffff8111156154dc57600080fd5b6154e885828601615466565b90969095509350505050565b60006020828403121561550657600080fd5b81356138e481615324565b6000806000806000806060878903121561552a57600080fd5b863567ffffffffffffffff8082111561554257600080fd5b61554e8a838b01615466565b9098509650602089013591508082111561556757600080fd5b6155738a838b01615466565b9096509450604089013591508082111561558c57600080fd5b5061559989828a01615466565b979a9699509497509295939492505050565b6000602082840312156155bd57600080fd5b5035919050565b600080604083850312156155d757600080fd5b8235915060208301356155e981615324565b809150509250929050565b6000806000806080858703121561560a57600080fd5b843561561581615324565b9350602085013561562581615324565b93969395505050506040820135916060013590565b6000806000806060858703121561565057600080fd5b843561565b81615324565b9350602085013561566b81615324565b9250604085013567ffffffffffffffff81111561568757600080fd5b61569387828801615466565b95989497509550505050565b6000806000606084860312156156b457600080fd5b83356156bf81615324565b925060208401356156cf81615324565b91506040840135600281106156e357600080fd5b809150509250925092565b6020808252825182820181905260009190848201906040850190845b8181101561572f5783516001600160a01b03168352928401929184019160010161570a565b50909695505050505050565b803563ffffffff8116811461574f57600080fd5b919050565b60008060006060848603121561576957600080fd5b833561577481615324565b9250602084013561578481615324565b91506157926040850161573b565b90509250925092565b600080604083850312156157ae57600080fd5b82356157b981615324565b915060208301356155e981615324565b803567ffffffffffffffff8116811461574f57600080fd5b600080600080608085870312156157f757600080fd5b615800856157c9565b9350602085013592506158156040860161573b565b9150615823606086016157c9565b905092959194509250565b6000806040838503121561584157600080fd5b50508035926020909101359150565b7f4e487b7100000000000000000000000000000000000000000000000000000000600052602160045260246000fd5b60208101600483106158ba577f4e487b7100000000000000000000000000000000000000000000000000000000600052602160045260246000fd5b91905290565b6000602082840312156158d257600080fd5b6138e48261573b565b7f4e487b7100000000000000000000000000000000000000000000000000000000600052603260045260246000fd5b60006020828403121561591c57600080fd5b815180151581146138e457600080fd5b60006020828403121561593e57600080fd5b5051919050565b7f4e487b7100000000000000000000000000000000000000000000000000000000600052601160045260246000fd5b6000600019820361598757615987615945565b5060010190565b60008160001904831182151516156159a8576159a8615945565b500290565b6000828210156159bf576159bf615945565b500390565b600082198211156159d7576159d7615945565b500190565b6000602082840312156159ee57600080fd5b81516138e481615324565b60005b83811015615a145781810151838201526020016159fc565b83811115611f7d5750506000910152565b7f416363657373436f6e74726f6c3a206163636f756e7420000000000000000000815260008351615a5d8160178501602088016159f9565b7f206973206d697373696e6720726f6c65200000000000000000000000000000006017918401918201528351615a9a8160288401602088016159f9565b01602801949350505050565b6020815260008251806020840152615ac58160408501602087016159f9565b601f017fffffffffffffffffffffffffffffffffffffffffffffffffffffffffffffffe0169190910160400192915050565b7f4e487b7100000000000000000000000000000000000000000000000000000000600052603160045260246000fd5b600081615b3557615b35615945565b50600019019056fea26469706673582212202c7c12273b85ccc80a983a50ac05c8031fc0fca0944da40f76d8895f5b9fc3df64736f6c634300080d0033"
}