{
  "address": "0x248ecdc6A8C06F76E2Dab405d3F3b1101DFba7ce",
  "abi": [
    {
      "anonymous": false,
      "inputs": [
        {
          "indexed": false,
          "internalType": "uint8",
          "name": "version",
          "type": "uint8"
        }
      ],
      "name": "Initialized",
      "type": "event"
    },
    {
      "anonymous": false,
      "inputs": [
        {
          "indexed": false,
          "internalType": "address",
          "name": "account",
          "type": "address"
        }
      ],
      "name": "Paused",
      "type": "event"
    },
    {
      "anonymous": false,
      "inputs": [
        {
          "indexed": true,
          "internalType": "bytes32",
          "name": "role",
          "type": "bytes32"
        },
        {
          "indexed": true,
          "internalType": "bytes32",
          "name": "previousAdminRole",
          "type": "bytes32"
        },
        {
          "indexed": true,
          "internalType": "bytes32",
          "name": "newAdminRole",
          "type": "bytes32"
        }
      ],
      "name": "RoleAdminChanged",
      "type": "event"
    },
    {
      "anonymous": false,
      "inputs": [
        {
          "indexed": true,
          "internalType": "bytes32",
          "name": "role",
          "type": "bytes32"
        },
        {
          "indexed": true,
          "internalType": "address",
          "name": "account",
          "type": "address"
        },
        {
          "indexed": true,
          "internalType": "address",
          "name": "sender",
          "type": "address"
        }
      ],
      "name": "RoleGranted",
      "type": "event"
    },
    {
      "anonymous": false,
      "inputs": [
        {
          "indexed": true,
          "internalType": "bytes32",
          "name": "role",
          "type": "bytes32"
        },
        {
          "indexed": true,
          "internalType": "address",
          "name": "account",
          "type": "address"
        },
        {
          "indexed": true,
          "internalType": "address",
          "name": "sender",
          "type": "address"
        }
      ],
      "name": "RoleRevoked",
      "type": "event"
    },
    {
      "anonymous": false,
      "inputs": [
        {
          "indexed": false,
          "internalType": "address",
          "name": "account",
          "type": "address"
        }
      ],
      "name": "Unpaused",
      "type": "event"
    },
    {
      "inputs": [],
      "name": "DAY_LENGTH_IN_SECONDS",
      "outputs": [
        {
          "internalType": "uint256",
          "name": "",
          "type": "uint256"
        }
      ],
      "stateMutability": "view",
      "type": "function"
    },
    {
      "inputs": [],
      "name": "DEFAULT_ADMIN_ROLE",
      "outputs": [
        {
          "internalType": "bytes32",
          "name": "",
          "type": "bytes32"
        }
      ],
      "stateMutability": "view",
      "type": "function"
    },
    {
      "inputs": [],
      "name": "HOUR_LENGTH_IN_SECONDS",
      "outputs": [
        {
          "internalType": "uint256",
          "name": "",
          "type": "uint256"
        }
      ],
      "stateMutability": "view",
      "type": "function"
    },
    {
      "inputs": [],
      "name": "MINUTE_LENGTH_IN_SECONDS",
      "outputs": [
        {
          "internalType": "uint256",
          "name": "",
          "type": "uint256"
        }
      ],
      "stateMutability": "view",
      "type": "function"
    },
    {
      "inputs": [],
      "name": "OWNER_ROLE",
      "outputs": [
        {
          "internalType": "bytes32",
          "name": "",
          "type": "bytes32"
        }
      ],
      "stateMutability": "view",
      "type": "function"
    },
    {
      "inputs": [],
      "name": "RATE_SCALING_FACTOR",
      "outputs": [
        {
          "internalType": "uint256",
          "name": "",
          "type": "uint256"
        }
      ],
      "stateMutability": "view",
      "type": "function"
    },
    {
      "inputs": [],
      "name": "YEAR_LENGTH_IN_DAYS",
      "outputs": [
        {
          "internalType": "uint256",
          "name": "",
          "type": "uint256"
        }
      ],
      "stateMutability": "view",
      "type": "function"
    },
    {
      "inputs": [],
      "name": "YEAR_LENGTH_IN_SECONDS",
      "outputs": [
        {
          "internalType": "uint256",
          "name": "",
          "type": "uint256"
        }
      ],
      "stateMutability": "view",
      "type": "function"
    },
    {
      "inputs": [
        {
          "internalType": "bytes32",
          "name": "tokenId",
          "type": "bytes32"
        }
      ],
      "name": "getAssetInterestRate",
      "outputs": [
        {
          "internalType": "uint256",
          "name": "",
          "type": "uint256"
        }
      ],
      "stateMutability": "view",
      "type": "function"
    },
    {
      "inputs": [
        {
          "internalType": "bytes32[]",
          "name": "tokenIds",
          "type": "bytes32[]"
        }
      ],
      "name": "getAssetInterestRates",
      "outputs": [
        {
          "internalType": "uint256[]",
          "name": "",
          "type": "uint256[]"
        }
      ],
      "stateMutability": "view",
      "type": "function"
    },
    {
      "inputs": [
        {
          "internalType": "address",
          "name": "poolAddress",
          "type": "address"
        }
      ],
      "name": "getBeginningSeniorAsset",
      "outputs": [
        {
          "internalType": "uint256",
          "name": "",
          "type": "uint256"
        }
      ],
      "stateMutability": "view",
      "type": "function"
    },
    {
      "inputs": [
        {
          "internalType": "address",
          "name": "poolAddress",
          "type": "address"
        }
      ],
      "name": "getBeginningSeniorDebt",
      "outputs": [
        {
          "internalType": "uint256",
          "name": "",
          "type": "uint256"
        }
      ],
      "stateMutability": "view",
      "type": "function"
    },
    {
      "inputs": [
        {
          "internalType": "address",
          "name": "poolAddress",
          "type": "address"
        },
        {
          "internalType": "bytes32[]",
          "name": "tokenIds",
          "type": "bytes32[]"
        }
      ],
      "name": "getDebtAssetValues",
      "outputs": [
        {
          "internalType": "uint256[]",
          "name": "debtAssetsValues",
          "type": "uint256[]"
        }
      ],
      "stateMutability": "view",
      "type": "function"
    },
    {
      "inputs": [
        {
          "internalType": "address",
          "name": "poolAddress",
          "type": "address"
        },
        {
          "internalType": "bytes32",
          "name": "tokenId",
          "type": "bytes32"
        }
      ],
      "name": "getExpectedAssetValue",
      "outputs": [
        {
          "internalType": "uint256",
          "name": "",
          "type": "uint256"
        }
      ],
      "stateMutability": "view",
      "type": "function"
    },
    {
      "inputs": [
        {
          "internalType": "address",
          "name": "poolAddress",
          "type": "address"
        },
        {
          "internalType": "bytes32[]",
          "name": "tokenIds",
          "type": "bytes32[]"
        }
      ],
      "name": "getExpectedAssetValues",
      "outputs": [
        {
          "internalType": "uint256[]",
          "name": "expectedAssetsValues",
          "type": "uint256[]"
        }
      ],
      "stateMutability": "view",
      "type": "function"
    },
    {
      "inputs": [
        {
          "internalType": "address",
          "name": "poolAddress",
          "type": "address"
        }
      ],
      "name": "getExpectedAssetsValue",
      "outputs": [
        {
          "internalType": "uint256",
          "name": "expectedAssetsValue",
          "type": "uint256"
        }
      ],
      "stateMutability": "view",
      "type": "function"
    },
    {
      "inputs": [
        {
          "internalType": "address",
          "name": "poolAddress",
          "type": "address"
        }
      ],
      "name": "getExpectedLATAssetValue",
      "outputs": [
        {
          "internalType": "uint256",
          "name": "",
          "type": "uint256"
        }
      ],
      "stateMutability": "view",
      "type": "function"
    },
    {
      "inputs": [
        {
          "internalType": "address",
          "name": "poolAddress",
          "type": "address"
        }
      ],
      "name": "getExpectedSeniorAssets",
      "outputs": [
        {
          "internalType": "uint256",
          "name": "",
          "type": "uint256"
        }
      ],
      "stateMutability": "view",
      "type": "function"
    },
    {
      "inputs": [],
      "name": "getInitializedVersion",
      "outputs": [
        {
          "internalType": "uint256",
          "name": "",
          "type": "uint256"
        }
      ],
      "stateMutability": "view",
      "type": "function"
    },
    {
      "inputs": [
        {
          "internalType": "address",
          "name": "poolAddress",
          "type": "address"
        }
      ],
      "name": "getJuniorAsset",
      "outputs": [
        {
          "internalType": "uint256",
          "name": "",
          "type": "uint256"
        }
      ],
      "stateMutability": "view",
      "type": "function"
    },
    {
      "inputs": [
        {
          "internalType": "address",
          "name": "poolAddress",
          "type": "address"
        }
      ],
      "name": "getJuniorRatio",
      "outputs": [
        {
          "internalType": "uint256",
          "name": "",
          "type": "uint256"
        }
      ],
      "stateMutability": "view",
      "type": "function"
    },
    {
      "inputs": [
        {
          "internalType": "address",
          "name": "poolAddress",
          "type": "address"
        },
        {
          "internalType": "uint256",
          "name": "sotRequest",
          "type": "uint256"
        }
      ],
      "name": "getMaxAvailableReserve",
      "outputs": [
        {
          "internalType": "uint256",
          "name": "",
          "type": "uint256"
        },
        {
          "internalType": "uint256",
          "name": "",
          "type": "uint256"
        },
        {
          "internalType": "uint256",
          "name": "",
          "type": "uint256"
        }
      ],
      "stateMutability": "view",
      "type": "function"
    },
    {
      "inputs": [
        {
          "internalType": "address",
          "name": "poolAddress",
          "type": "address"
        }
      ],
      "name": "getPoolValue",
      "outputs": [
        {
          "internalType": "uint256",
          "name": "",
          "type": "uint256"
        }
      ],
      "stateMutability": "view",
      "type": "function"
    },
    {
      "inputs": [
        {
          "internalType": "bytes32",
          "name": "role",
          "type": "bytes32"
        }
      ],
      "name": "getRoleAdmin",
      "outputs": [
        {
          "internalType": "bytes32",
          "name": "",
          "type": "bytes32"
        }
      ],
      "stateMutability": "view",
      "type": "function"
    },
    {
      "inputs": [
        {
          "internalType": "bytes32",
          "name": "role",
          "type": "bytes32"
        },
        {
          "internalType": "uint256",
          "name": "index",
          "type": "uint256"
        }
      ],
      "name": "getRoleMember",
      "outputs": [
        {
          "internalType": "address",
          "name": "",
          "type": "address"
        }
      ],
      "stateMutability": "view",
      "type": "function"
    },
    {
      "inputs": [
        {
          "internalType": "bytes32",
          "name": "role",
          "type": "bytes32"
        }
      ],
      "name": "getRoleMemberCount",
      "outputs": [
        {
          "internalType": "uint256",
          "name": "",
          "type": "uint256"
        }
      ],
      "stateMutability": "view",
      "type": "function"
    },
    {
      "inputs": [
        {
          "internalType": "address",
          "name": "poolAddress",
          "type": "address"
        }
      ],
      "name": "getSeniorAsset",
      "outputs": [
        {
          "internalType": "uint256",
          "name": "",
          "type": "uint256"
        }
      ],
      "stateMutability": "view",
      "type": "function"
    },
    {
      "inputs": [
        {
          "internalType": "address",
          "name": "poolAddress",
          "type": "address"
        }
      ],
      "name": "getSeniorBalance",
      "outputs": [
        {
          "internalType": "uint256",
          "name": "",
          "type": "uint256"
        }
      ],
      "stateMutability": "view",
      "type": "function"
    },
    {
      "inputs": [
        {
          "internalType": "address",
          "name": "poolAddress",
          "type": "address"
        }
      ],
      "name": "getSeniorDebt",
      "outputs": [
        {
          "internalType": "uint256",
          "name": "",
          "type": "uint256"
        }
      ],
      "stateMutability": "view",
      "type": "function"
    },
    {
      "inputs": [
        {
          "internalType": "address",
          "name": "poolAddress",
          "type": "address"
        }
      ],
      "name": "getSeniorRatio",
      "outputs": [
        {
          "internalType": "uint256",
          "name": "",
          "type": "uint256"
        }
      ],
      "stateMutability": "view",
      "type": "function"
    },
    {
      "inputs": [
        {
          "internalType": "bytes32",
          "name": "role",
          "type": "bytes32"
        },
        {
          "internalType": "address",
          "name": "account",
          "type": "address"
        }
      ],
      "name": "grantRole",
      "outputs": [],
      "stateMutability": "nonpayable",
      "type": "function"
    },
    {
      "inputs": [
        {
          "internalType": "bytes32",
          "name": "role",
          "type": "bytes32"
        },
        {
          "internalType": "address",
          "name": "account",
          "type": "address"
        }
      ],
      "name": "hasRole",
      "outputs": [
        {
          "internalType": "bool",
          "name": "",
          "type": "bool"
        }
      ],
      "stateMutability": "view",
      "type": "function"
    },
    {
      "inputs": [
        {
          "internalType": "contract Registry",
          "name": "_registry",
          "type": "address"
        }
      ],
      "name": "initialize",
      "outputs": [],
      "stateMutability": "nonpayable",
      "type": "function"
    },
    {
      "inputs": [],
      "name": "isAdmin",
      "outputs": [
        {
          "internalType": "bool",
          "name": "",
          "type": "bool"
        }
      ],
      "stateMutability": "view",
      "type": "function"
    },
    {
      "inputs": [],
      "name": "pause",
      "outputs": [],
      "stateMutability": "nonpayable",
      "type": "function"
    },
    {
      "inputs": [],
      "name": "paused",
      "outputs": [
        {
          "internalType": "bool",
          "name": "",
          "type": "bool"
        }
      ],
      "stateMutability": "view",
      "type": "function"
    },
    {
      "inputs": [],
      "name": "registry",
      "outputs": [
        {
          "internalType": "contract Registry",
          "name": "",
          "type": "address"
        }
      ],
      "stateMutability": "view",
      "type": "function"
    },
    {
      "inputs": [
        {
          "internalType": "bytes32",
          "name": "role",
          "type": "bytes32"
        },
        {
          "internalType": "address",
          "name": "account",
          "type": "address"
        }
      ],
      "name": "renounceRole",
      "outputs": [],
      "stateMutability": "nonpayable",
      "type": "function"
    },
    {
      "inputs": [
        {
          "internalType": "bytes32",
          "name": "role",
          "type": "bytes32"
        },
        {
          "internalType": "address",
          "name": "account",
          "type": "address"
        }
      ],
      "name": "revokeRole",
      "outputs": [],
      "stateMutability": "nonpayable",
      "type": "function"
    },
    {
      "inputs": [
        {
          "internalType": "bytes32",
          "name": "role",
          "type": "bytes32"
        },
        {
          "internalType": "bytes32",
          "name": "adminRole",
          "type": "bytes32"
        }
      ],
      "name": "setRoleAdmin",
      "outputs": [],
      "stateMutability": "nonpayable",
      "type": "function"
    },
    {
      "inputs": [
        {
          "internalType": "address",
          "name": "poolAddress",
          "type": "address"
        },
        {
          "internalType": "uint256",
          "name": "expectedSOTCurrencyAmount",
          "type": "uint256"
        },
        {
          "internalType": "uint256",
          "name": "sotRequest",
          "type": "uint256"
        }
      ],
      "name": "solveReserveEquation",
      "outputs": [
        {
          "internalType": "uint256",
          "name": "",
          "type": "uint256"
        }
      ],
      "stateMutability": "view",
      "type": "function"
    },
    {
      "inputs": [
        {
          "internalType": "bytes4",
          "name": "interfaceId",
          "type": "bytes4"
        }
      ],
      "name": "supportsInterface",
      "outputs": [
        {
          "internalType": "bool",
          "name": "",
          "type": "bool"
        }
      ],
      "stateMutability": "view",
      "type": "function"
    },
    {
      "inputs": [],
      "name": "unpause",
      "outputs": [],
      "stateMutability": "nonpayable",
      "type": "function"
    }
  ],
  "transactionHash": "0xb1d4a6d4fa0c48f4194da92ccb8fe5fa723eeadd9458be40be191d063cb51e9e",
  "args": [],
  "numDeployments": 15,
  "solcInputHash": "60227133e617a9b11f64e6ed628d4d41",
  "bytecode": "0x608060405234801561001057600080fd5b50613504806100206000396000f3fe608060405234801561001057600080fd5b50600436106102695760003560e01c80639608d07b11610151578063c4d66de8116100c3578063dfb2394b11610087578063dfb2394b1461053c578063e2eda5411461054f578063e58378bb14610558578063eb211e1a1461056d578063fd127a4114610580578063fe8319c41461058857600080fd5b8063c4d66de8146104dd578063c780d906146104f0578063ca15c87314610503578063d547741f14610516578063dace5dbe1461052957600080fd5b8063ab15de5211610115578063ab15de5214610488578063b101ad2a14610491578063b3c65015146104a4578063b6db75a0146104af578063c1baa692146104b7578063c31566d0146104ca57600080fd5b80639608d07b146104345780639d0aad6e14610447578063a217fddf1461045a578063a550f3b814610462578063a8405ef81461047557600080fd5b80634d8a2bc5116101ea57806371b237d6116101ae57806371b237d6146103995780637b103999146103c75780637d78014f146103f35780638456cb59146104065780639010d07c1461040e57806391d148541461042157600080fd5b80634d8a2bc514610340578063501fd938146103535780635c975abb146103735780636ab3bd541461037e5780636f69c96f1461039157600080fd5b806327f6ad991161023157806327f6ad99146102f75780632f2ff15d146102ff57806336568abe146103125780633f4ba83a146103255780634a7b31401461032d57600080fd5b806301ffc9a71461026e57806305459dc11461029657806307762982146102b75780631e4e0091146102bf578063248a9ca3146102d4575b600080fd5b61028161027c366004612e99565b61059b565b60405190151581526020015b60405180910390f35b6102a96102a4366004612ed8565b6105c6565b60405190815260200161028d565b6102a9610765565b6102d26102cd366004612ef5565b61077e565b005b6102a96102e2366004612f17565b600090815260c9602052604090206001015490565b6102a9603c81565b6102d261030d366004612f30565b610798565b6102d2610320366004612f30565b6107bd565b6102d2610840565b6102a961033b366004612ed8565b610856565b6102a961034e366004612ed8565b6108ea565b610366610361366004612fac565b610a24565b60405161028d9190612fee565b60335460ff16610281565b6102a961038c366004612ed8565b610ad2565b6102a9610bc5565b6103ac6103a7366004613032565b610bd0565b6040805193845260208401929092529082015260600161028d565b61015f546103db906001600160a01b031681565b6040516001600160a01b03909116815260200161028d565b6102a9610401366004612ed8565b611045565b6102d261110a565b6103db61041c366004612ef5565b61111d565b61028161042f366004612f30565b611135565b61036661044236600461305e565b611160565b6102a9610455366004612ed8565b6112d7565b6102a9600081565b6102a9610470366004612f17565b6113b4565b6102a9610483366004612ed8565b61143d565b6102a961016d81565b6102a961049f366004612ed8565b61154f565b60005460ff166102a9565b6102816116c2565b6102a96104c5366004612ed8565b6116e1565b6102a96104d83660046130b3565b6117c8565b6102d26104eb366004612ed8565b611cd2565b6102a96104fe366004612ed8565b611e00565b6102a9610511366004612f17565b611efc565b6102d2610524366004612f30565b611f13565b6102a9610537366004612ed8565b611f38565b6102a961054a366004613032565b612028565b6102a961271081565b6102a96000805160206134af83398151915281565b6102a961057b366004612ed8565b6120d5565b6102a96122f9565b61036661059636600461305e565b61231c565b60006001600160e01b03198216635a05180f60e01b14806105c057506105c08261248d565b92915050565b6000816105d281611045565b6105dc90836130fe565b91506000816001600160a01b031663df076fe06040518163ffffffff1660e01b8152600401602060405180830381865afa15801561061e573d6000803e3d6000fd5b505050506040513d601f19601f820116820180604052508101906106429190613111565b905060005b8181101561075d5760405163362e9bd160e21b8152600481018290526000906001600160a01b0385169063d8ba6f4490602401602060405180830381865afa158015610697573d6000803e3d6000fd5b505050506040513d601f19601f820116820180604052508101906106bb919061312a565b61015f549091506106d4906001600160a01b03166124c2565b604051631ec6d4db60e11b81526001600160a01b03838116600483015288811660248301529190911690633d8da9b690604401602060405180830381865afa158015610724573d6000803e3d6000fd5b505050506040513d601f19601f820116820180604052508101906107489190613111565b61075290866130fe565b945050600101610647565b505050919050565b610770603c80613147565b61077b906018613147565b81565b6000610789816124cf565b61079383836124d9565b505050565b600082815260c960205260409020600101546107b3816124cf565b6107938383612524565b6001600160a01b03811633146108325760405162461bcd60e51b815260206004820152602f60248201527f416363657373436f6e74726f6c3a2063616e206f6e6c792072656e6f756e636560448201526e103937b632b9903337b91039b2b63360891b60648201526084015b60405180910390fd5b61083c8282612546565b5050565b600061084b816124cf565b610853612568565b50565b6000806108628361143d565b90506108716127106064613147565b8111156108cb5760405162461bcd60e51b815260206004820152602260248201527f73656375726974697a6174696f6e506f6f6c2e7261746553656e696f72203e31604482015261030360f41b6064820152608401610829565b806108d96127106064613147565b6108e3919061315e565b9392505050565b6000816001600160a01b03811661093b5760405162461bcd60e51b8152602060048201526015602482015274141bdbdb081dd85cc81b9bdd0819195c1b1bde5959605a1b6044820152606401610829565b604051637d78014f60e01b81526001600160a01b03841660048201526000903090637d78014f90602401602060405180830381865afa158015610982573d6000803e3d6000fd5b505050506040513d601f19601f820116820180604052508101906109a69190613111565b90506000846001600160a01b031663cd3293de6040518163ffffffff1660e01b8152600401602060405180830381865afa1580156109e8573d6000803e3d6000fd5b505050506040513d601f19601f82011682018060405250810190610a0c9190613111565b90506000610a1a83836130fe565b9695505050505050565b60608160008167ffffffffffffffff811115610a4257610a42613171565b604051908082528060200260200182016040528015610a6b578160200160208202803683370190505b50905060005b82811015610ac957610a9a868683818110610a8e57610a8e613187565b905060200201356113b4565b828281518110610aac57610aac613187565b602090810291909101015280610ac18161319d565b915050610a71565b50949350505050565b604051634d8a2bc560e01b81526001600160a01b038216600482015260009081903090634d8a2bc590602401602060405180830381865afa158015610b1b573d6000803e3d6000fd5b505050506040513d601f19601f82011682018060405250810190610b3f9190613111565b905080600003610b525750600092915050565b604051635880d69560e11b81526001600160a01b0384166004820152600090309063b101ad2a90602401602060405180830381865afa158015610b99573d6000803e3d6000fd5b505050506040513d601f19601f82011682018060405250810190610bbd9190613111565b949350505050565b61077b603c80613147565b6000806000808590506000816001600160a01b031663febd60186040518163ffffffff1660e01b8152600401602060405180830381865afa158015610c19573d6000803e3d6000fd5b505050506040513d601f19601f82011682018060405250810190610c3d919061312a565b90506000826001600160a01b0316632b71b4506040518163ffffffff1660e01b8152600401602060405180830381865afa158015610c7f573d6000803e3d6000fd5b505050506040513d601f19601f82011682018060405250810190610ca3919061312a565b90506000836001600160a01b031663cd3293de6040518163ffffffff1660e01b8152600401602060405180830381865afa158015610ce5573d6000803e3d6000fd5b505050506040513d601f19601f82011682018060405250810190610d099190613111565b61015f54909150600090610d25906001600160a01b03166124c2565b604051637f26468d60e01b81526001600160a01b038c8116600483015286811660248301529190911690637f26468d90604401602060405180830381865afa158015610d75573d6000803e3d6000fd5b505050506040513d601f19601f82011682018060405250810190610d999190613111565b905080600003610db6575095506000945084935061103e92505050565b6000846001600160a01b031663313ce5676040518163ffffffff1660e01b8152600401602060405180830381865afa158015610df6573d6000803e3d6000fd5b505050506040513d601f19601f82011682018060405250810190610e1a91906131b6565b610e2590600a6132bd565b610e2f838c613147565b610e3991906132e2565b9050808311610ed8578282866001600160a01b031663313ce5676040518163ffffffff1660e01b8152600401602060405180830381865afa158015610e82573d6000803e3d6000fd5b505050506040513d601f19601f82011682018060405250810190610ea691906131b6565b610eb190600a6132bd565b610ebb9086613147565b610ec591906132e2565b600098509850985050505050505061103e565b61015f54600090610ef1906001600160a01b03166124c2565b604051637f26468d60e01b81526001600160a01b038e8116600483015287811660248301529190911690637f26468d90604401602060405180830381865afa158015610f41573d6000803e3d6000fd5b505050506040513d601f19601f82011682018060405250810190610f659190613111565b90506000610f748d848e6117c8565b905081600003610f9e57610f8883826130fe565b8c60009a509a509a50505050505050505061103e565b600082876001600160a01b031663313ce5676040518163ffffffff1660e01b8152600401602060405180830381865afa158015610fdf573d6000803e3d6000fd5b505050506040513d601f19601f8201168201806040525081019061100391906131b6565b61100e90600a6132bd565b6110189084613147565b61102291906132e2565b905061102e84836130fe565b9b508c9a50985050505050505050505b9250925092565b6000816001600160a01b031663e87fa7746040518163ffffffff1660e01b8152600401602060405180830381865afa158015611085573d6000803e3d6000fd5b505050506040513d601f19601f820116820180604052508101906110a9919061312a565b6001600160a01b0316632cbf3da06040518163ffffffff1660e01b8152600401602060405180830381865afa1580156110e6573d6000803e3d6000fd5b505050506040513d601f19601f820116820180604052508101906105c09190613111565b6000611115816124cf565b6108536125ba565b600082815260fb602052604081206108e390836125f7565b600091825260c9602090815260408084206001600160a01b0393909316845291905290205460ff1690565b60608167ffffffffffffffff81111561117b5761117b613171565b6040519080825280602002602001820160405280156111a4578160200160208202803683370190505b5090506000846001600160a01b031663e87fa7746040518163ffffffff1660e01b8152600401602060405180830381865afa1580156111e7573d6000803e3d6000fd5b505050506040513d601f19601f8201168201806040525081019061120b919061312a565b905060005b838110156112ce57816001600160a01b031663e3178bc486868481811061123957611239613187565b905060200201356040518263ffffffff1660e01b815260040161125e91815260200190565b602060405180830381865afa15801561127b573d6000803e3d6000fd5b505050506040513d601f19601f8201168201806040525081019061129f9190613111565b8382815181106112b1576112b1613187565b6020908102919091010152806112c68161319d565b915050611210565b50509392505050565b604051631aacef5560e21b81526001600160a01b03821660048201526000903090636ab3bd5490602401602060405180830381865afa15801561131e573d6000803e3d6000fd5b505050506040513d601f19601f820116820180604052508101906113429190613111565b604051635880d69560e11b81526001600160a01b0384166004820152309063b101ad2a90602401602060405180830381865afa158015611386573d6000803e3d6000fd5b505050506040513d601f19601f820116820180604052508101906113aa9190613111565b6105c0919061315e565b61015f5460009081906113cf906001600160a01b0316612603565b6001600160a01b031663f9750cb3846040518263ffffffff1660e01b81526004016113fc91815260200190565b602060405180830381865afa158015611419573d6000803e3d6000fd5b505050506040513d601f19601f820116820180604052508101906108e39190613111565b6040516363c06c8360e11b81526001600160a01b03821660048201526000908190309063c780d90690602401602060405180830381865afa158015611486573d6000803e3d6000fd5b505050506040513d601f19601f820116820180604052508101906114aa9190613111565b604051634d8a2bc560e01b81526001600160a01b03851660048201529091506000903090634d8a2bc590602401602060405180830381865afa1580156114f4573d6000803e3d6000fd5b505050506040513d601f19601f820116820180604052508101906115189190613111565b90508060000361152c575060009392505050565b8061271061153b846064613147565b6115459190613147565b610bbd91906132e2565b60006001600160a01b03821661159e5760405162461bcd60e51b8152602060048201526014602482015273496e76616c696420706f6f6c206164647265737360601b6044820152606401610829565b60008290506000816001600160a01b031663febd60186040518163ffffffff1660e01b8152600401602060405180830381865afa1580156115e3573d6000803e3d6000fd5b505050506040513d601f19601f82011682018060405250810190611607919061312a565b90506001600160a01b0381166116555760405162461bcd60e51b8152602060048201526013602482015272496e76616c696420736f74206164647265737360681b6044820152606401610829565b6000816001600160a01b03166318160ddd6040518163ffffffff1660e01b8152600401602060405180830381865afa158015611695573d6000803e3d6000fd5b505050506040513d601f19601f820116820180604052508101906116b99190613111565b95945050505050565b60006116dc6000805160206134af83398151915233611135565b905090565b6040516375908f0d60e11b81526001600160a01b03821660048201526000908190309063eb211e1a90602401602060405180830381865afa15801561172a573d6000803e3d6000fd5b505050506040513d601f19601f8201168201806040525081019061174e9190613111565b604051634e8556b760e11b81526001600160a01b03851660048201529091506000903090639d0aad6e90602401602060405180830381865afa158015611798573d6000803e3d6000fd5b505050506040513d601f19601f820116820180604052508101906117bc9190613111565b9050610bbd81836130fe565b6000808490506000816001600160a01b031663febd60186040518163ffffffff1660e01b8152600401602060405180830381865afa15801561180e573d6000803e3d6000fd5b505050506040513d601f19601f82011682018060405250810190611832919061312a565b90506000826001600160a01b0316638fd6b71e6040518163ffffffff1660e01b8152600401602060405180830381865afa158015611874573d6000803e3d6000fd5b505050506040513d601f19601f820116820180604052508101906118989190613304565b90506000876001600160a01b031663477035d16040518163ffffffff1660e01b8152600401602060405180830381865afa1580156118da573d6000803e3d6000fd5b505050506040513d601f19601f820116820180604052508101906118fe919061332a565b604051634d8a2bc560e01b81526001600160a01b038a16600482015290915060009088903090634d8a2bc590602401602060405180830381865afa15801561194a573d6000803e3d6000fd5b505050506040513d601f19601f8201168201806040525081019061196e9190613111565b611978919061315e565b90506000896001600160a01b031663e87fa7746040518163ffffffff1660e01b8152600401602060405180830381865afa1580156119ba573d6000803e3d6000fd5b505050506040513d601f19601f820116820180604052508101906119de919061312a565b6001600160a01b0316632cbf3da06040518163ffffffff1660e01b8152600401602060405180830381865afa158015611a1b573d6000803e3d6000fd5b505050506040513d601f19601f82011682018060405250810190611a3f9190613111565b9050600063ffffffff8516611a576127106064613147565b611a61919061315e565b905080600003611a7b5760009750505050505050506108e3565b600089876001600160a01b03166318160ddd6040518163ffffffff1660e01b8152600401602060405180830381865afa158015611abc573d6000803e3d6000fd5b505050506040513d601f19601f82011682018060405250810190611ae09190613111565b611aea919061315e565b9050600081611afc6127106064613147565b84611b08886002613147565b611b129190613147565b611b1c91906132e2565b611b26919061315e565b90506000611b376127106064613147565b611b45906301e13380613147565b611b5967ffffffffffffffff89164261315e565b8f6001600160a01b0316632bb14ff06040518163ffffffff1660e01b8152600401602060405180830381865afa158015611b97573d6000803e3d6000fd5b505050506040513d601f19601f82011682018060405250810190611bbb9190613304565b63ffffffff16611bcb8887613147565b611bd59190613147565b611bdf9190613147565b611be991906132e2565b611bf38785613147565b611c006127106064613147565b86611c0c60028b6132bd565b611c169190613147565b611c2091906132e2565b611c2a919061315e565b611c34919061315e565b90506000611c456127106064613147565b85611c51846004613147565b611c5b9190613147565b611c6591906132e2565b611c706002856132bd565b611c7a919061315e565b90506000611c89866002613147565b611c966127106064613147565b611c9f84612610565b611ca990876130fe565b611cb39190613147565b611cbd91906132e2565b9c505050505050505050505050509392505050565b600054610100900460ff1615808015611cf25750600054600160ff909116105b80611d0c5750303b158015611d0c575060005460ff166001145b611d6f5760405162461bcd60e51b815260206004820152602e60248201527f496e697469616c697a61626c653a20636f6e747261637420697320616c72656160448201526d191e481a5b9a5d1a585b1a5e995960921b6064820152608401610829565b6000805460ff191660011790558015611d92576000805461ff0019166101001790555b611d9b336126f8565b61015f80546001600160a01b0319166001600160a01b038416179055801561083c576000805461ff0019169055604051600181527f7f26b83ff96e1f2b6a682f133852f6798a09c465da95921460cefb38474024989060200160405180910390a15050565b604051634d8a2bc560e01b81526001600160a01b0382166004820152600090819081903090634d8a2bc590602401602060405180830381865afa158015611e4b573d6000803e3d6000fd5b505050506040513d601f19601f82011682018060405250810190611e6f9190613111565b6040516360dd534960e11b81526001600160a01b0386166004820152909150600090309063c1baa69290602401602060405180830381865afa158015611eb9573d6000803e3d6000fd5b505050506040513d601f19601f82011682018060405250810190611edd9190613111565b905080821115611eef57809250611ef3565b8192505b50909392505050565b600081815260fb602052604081206105c090612740565b600082815260c96020526040902060010154611f2e816124cf565b6107938383612546565b604051634d8a2bc560e01b81526001600160a01b038216600482015260009081903090634d8a2bc590602401602060405180830381865afa158015611f81573d6000803e3d6000fd5b505050506040513d601f19601f82011682018060405250810190611fa59190613111565b6040516363c06c8360e11b81526001600160a01b0385166004820152909150600090309063c780d90690602401602060405180830381865afa158015611fef573d6000803e3d6000fd5b505050506040513d601f19601f820116820180604052508101906120139190613111565b90506000818310610bbd576116b9828461315e565b600080836001600160a01b031663e87fa7746040518163ffffffff1660e01b8152600401602060405180830381865afa158015612069573d6000803e3d6000fd5b505050506040513d601f19601f8201168201806040525081019061208d919061312a565b6040516338c5e2f160e21b8152600481018590529091506001600160a01b0382169063e3178bc490602401602060405180830381865afa158015610b99573d6000803e3d6000fd5b604051631aacef5560e21b81526001600160a01b038216600482015260009081903090636ab3bd5490602401602060405180830381865afa15801561211e573d6000803e3d6000fd5b505050506040513d601f19601f820116820180604052508101906121429190613111565b9050806000036121555750600092915050565b826001600160a01b0381166121a45760405162461bcd60e51b8152602060048201526015602482015274141bdbdb081dd85cc81b9bdd0819195c1b1bde5959605a1b6044820152606401610829565b6000846001600160a01b0316632bb14ff06040518163ffffffff1660e01b8152600401602060405180830381865afa1580156121e4573d6000803e3d6000fd5b505050506040513d601f19601f820116820180604052508101906122089190613304565b63ffffffff1690506000826001600160a01b031663477035d16040518163ffffffff1660e01b8152600401602060405180830381865afa158015612250573d6000803e3d6000fd5b505050506040513d601f19601f82011682018060405250810190612274919061332a565b67ffffffffffffffff169050600061228c824261315e565b9050600061016d61229e603c80613147565b6122a9906018613147565b6122b39190613147565b905060006122c382612710613147565b836122ce878a613147565b6122d89190613147565b6122e291906132e2565b6122ec90886130fe565b9998505050505050505050565b61016d612307603c80613147565b612312906018613147565b61077b9190613147565b60608167ffffffffffffffff81111561233757612337613171565b604051908082528060200260200182016040528015612360578160200160208202803683370190505b5090506000846001600160a01b031663e87fa7746040518163ffffffff1660e01b8152600401602060405180830381865afa1580156123a3573d6000803e3d6000fd5b505050506040513d601f19601f820116820180604052508101906123c7919061312a565b905060005b838110156112ce57816001600160a01b0316631e0029c88686848181106123f5576123f5613187565b9050602002013560001c6040518263ffffffff1660e01b815260040161241d91815260200190565b602060405180830381865afa15801561243a573d6000803e3d6000fd5b505050506040513d601f19601f8201168201806040525081019061245e9190613111565b83828151811061247057612470613187565b6020908102919091010152806124858161319d565b9150506123cc565b60006001600160e01b03198216637965db0b60e01b14806105c057506301ffc9a760e01b6001600160e01b03198316146105c0565b60006105c082600661274a565b61085381336127cf565b600082815260c96020526040808220600101805490849055905190918391839186917fbd79b86ffe0ab8e8776151514217cd7cacd52c909f66475c3af44e129f0b00ff9190a4505050565b61252e8282612828565b600082815260fb6020526040902061079390826128ae565b61255082826128c3565b600082815260fb60205260409020610793908261292a565b61257061293f565b6033805460ff191690557f5db9ee0a495bf2e6ff9c91a7834c1ba4fdd244a5e8aa4e537bd38aeae4b073aa335b6040516001600160a01b03909116815260200160405180910390a1565b6125c261298a565b6033805460ff191660011790557f62e78cea01bee320cd4e420270b5ea74000d11b0c9f74754ebdbfc544b05a25861259d3390565b60006108e383836129d0565b60006105c082600b61274a565b60008160000361262257506000919050565b6000600161262f846129fa565b901c6001901b90506001818481612648576126486132cc565b048201901c90506001818481612660576126606132cc565b048201901c90506001818481612678576126786132cc565b048201901c90506001818481612690576126906132cc565b048201901c905060018184816126a8576126a86132cc565b048201901c905060018184816126c0576126c06132cc565b048201901c905060018184816126d8576126d86132cc565b048201901c90506108e3818285816126f2576126f26132cc565b04612a8e565b600054610100900460ff1661271f5760405162461bcd60e51b815260040161082990613354565b612727612aa4565b61272f612ad7565b612737612b05565b61085381612b2c565b60006105c0825490565b6000826001600160a01b031663bcaa0c5583601b81111561276d5761276d61339f565b6040516001600160e01b031960e084901b16815260ff9091166004820152602401602060405180830381865afa1580156127ab573d6000803e3d6000fd5b505050506040513d601f19601f820116820180604052508101906108e3919061312a565b6127d98282611135565b61083c576127e681612b9f565b6127f1836020612bb1565b6040516020016128029291906133d9565b60408051601f198184030181529082905262461bcd60e51b82526108299160040161344e565b6128328282611135565b61083c57600082815260c9602090815260408083206001600160a01b03851684529091529020805460ff1916600117905561286a3390565b6001600160a01b0316816001600160a01b0316837f2f8788117e7eff1d82e926ec794901d17c78024a50270940304540a733656f0d60405160405180910390a45050565b60006108e3836001600160a01b038416612d4d565b6128cd8282611135565b1561083c57600082815260c9602090815260408083206001600160a01b0385168085529252808320805460ff1916905551339285917ff6391f5c32d9c69d2a47ea670b442974b53935d1edc7fd64eb21e047a839171b9190a45050565b60006108e3836001600160a01b038416612d9c565b60335460ff166129885760405162461bcd60e51b815260206004820152601460248201527314185d5cd8589b194e881b9bdd081c185d5cd95960621b6044820152606401610829565b565b60335460ff16156129885760405162461bcd60e51b815260206004820152601060248201526f14185d5cd8589b194e881c185d5cd95960821b6044820152606401610829565b60008260000182815481106129e7576129e7613187565b9060005260206000200154905092915050565b600080608083901c15612a0f57608092831c92015b604083901c15612a2157604092831c92015b602083901c15612a3357602092831c92015b601083901c15612a4557601092831c92015b600883901c15612a5757600892831c92015b600483901c15612a6957600492831c92015b600283901c15612a7b57600292831c92015b600183901c156105c05760010192915050565b6000818310612a9d57816108e3565b5090919050565b600054610100900460ff16612acb5760405162461bcd60e51b815260040161082990613354565b6033805460ff19169055565b600054610100900460ff16612afe5760405162461bcd60e51b815260040161082990613354565b6001606555565b600054610100900460ff166129885760405162461bcd60e51b815260040161082990613354565b600054610100900460ff16612b535760405162461bcd60e51b815260040161082990613354565b6001600160a01b038116612b645750335b612b6f600033612e8f565b612b876000805160206134af83398151915282612e8f565b6108536000805160206134af833981519152806124d9565b60606105c06001600160a01b03831660145b60606000612bc0836002613147565b612bcb9060026130fe565b67ffffffffffffffff811115612be357612be3613171565b6040519080825280601f01601f191660200182016040528015612c0d576020820181803683370190505b509050600360fc1b81600081518110612c2857612c28613187565b60200101906001600160f81b031916908160001a905350600f60fb1b81600181518110612c5757612c57613187565b60200101906001600160f81b031916908160001a9053506000612c7b846002613147565b612c869060016130fe565b90505b6001811115612cfe576f181899199a1a9b1b9c1cb0b131b232b360811b85600f1660108110612cba57612cba613187565b1a60f81b828281518110612cd057612cd0613187565b60200101906001600160f81b031916908160001a90535060049490941c93612cf781613481565b9050612c89565b5083156108e35760405162461bcd60e51b815260206004820181905260248201527f537472696e67733a20686578206c656e67746820696e73756666696369656e746044820152606401610829565b6000818152600183016020526040812054612d94575081546001818101845560008481526020808220909301849055845484825282860190935260409020919091556105c0565b5060006105c0565b60008181526001830160205260408120548015612e85576000612dc060018361315e565b8554909150600090612dd49060019061315e565b9050818114612e39576000866000018281548110612df457612df4613187565b9060005260206000200154905080876000018481548110612e1757612e17613187565b6000918252602080832090910192909255918252600188019052604090208390555b8554869080612e4a57612e4a613498565b6001900381819060005260206000200160009055905585600101600086815260200190815260200160002060009055600193505050506105c0565b60009150506105c0565b61083c8282612524565b600060208284031215612eab57600080fd5b81356001600160e01b0319811681146108e357600080fd5b6001600160a01b038116811461085357600080fd5b600060208284031215612eea57600080fd5b81356108e381612ec3565b60008060408385031215612f0857600080fd5b50508035926020909101359150565b600060208284031215612f2957600080fd5b5035919050565b60008060408385031215612f4357600080fd5b823591506020830135612f5581612ec3565b809150509250929050565b60008083601f840112612f7257600080fd5b50813567ffffffffffffffff811115612f8a57600080fd5b6020830191508360208260051b8501011115612fa557600080fd5b9250929050565b60008060208385031215612fbf57600080fd5b823567ffffffffffffffff811115612fd657600080fd5b612fe285828601612f60565b90969095509350505050565b6020808252825182820181905260009190848201906040850190845b818110156130265783518352928401929184019160010161300a565b50909695505050505050565b6000806040838503121561304557600080fd5b823561305081612ec3565b946020939093013593505050565b60008060006040848603121561307357600080fd5b833561307e81612ec3565b9250602084013567ffffffffffffffff81111561309a57600080fd5b6130a686828701612f60565b9497909650939450505050565b6000806000606084860312156130c857600080fd5b83356130d381612ec3565b95602085013595506040909401359392505050565b634e487b7160e01b600052601160045260246000fd5b808201808211156105c0576105c06130e8565b60006020828403121561312357600080fd5b5051919050565b60006020828403121561313c57600080fd5b81516108e381612ec3565b80820281158282048414176105c0576105c06130e8565b818103818111156105c0576105c06130e8565b634e487b7160e01b600052604160045260246000fd5b634e487b7160e01b600052603260045260246000fd5b6000600182016131af576131af6130e8565b5060010190565b6000602082840312156131c857600080fd5b815160ff811681146108e357600080fd5b600181815b808511156132145781600019048211156131fa576131fa6130e8565b8085161561320757918102915b93841c93908002906131de565b509250929050565b60008261322b575060016105c0565b81613238575060006105c0565b816001811461324e576002811461325857613274565b60019150506105c0565b60ff841115613269576132696130e8565b50506001821b6105c0565b5060208310610133831016604e8410600b8410161715613297575081810a6105c0565b6132a183836131d9565b80600019048211156132b5576132b56130e8565b029392505050565b60006108e360ff84168361321c565b634e487b7160e01b600052601260045260246000fd5b6000826132ff57634e487b7160e01b600052601260045260246000fd5b500490565b60006020828403121561331657600080fd5b815163ffffffff811681146108e357600080fd5b60006020828403121561333c57600080fd5b815167ffffffffffffffff811681146108e357600080fd5b6020808252602b908201527f496e697469616c697a61626c653a20636f6e7472616374206973206e6f74206960408201526a6e697469616c697a696e6760a81b606082015260800190565b634e487b7160e01b600052602160045260246000fd5b60005b838110156133d05781810151838201526020016133b8565b50506000910152565b7f416363657373436f6e74726f6c3a206163636f756e74200000000000000000008152600083516134118160178501602088016133b5565b7001034b99036b4b9b9b4b733903937b6329607d1b60179184019182015283516134428160288401602088016133b5565b01602801949350505050565b602081526000825180602084015261346d8160408501602087016133b5565b601f01601f19169190910160400192915050565b600081613490576134906130e8565b506000190190565b634e487b7160e01b600052603160045260246000fdfeb19546dff01e856fb3f010c267a7b1c60363cf8a4664e21cc89c26224620214ea2646970667358221220703c3a198856c5249d69dd7d37c4be1800393dea7efdb754469fcb149d94c65b64736f6c63430008130033",
  "devdoc": {
    "author": "Untangled Team",
    "details": "Calculate pool's values",
    "events": {
      "Initialized(uint8)": {
        "details": "Triggered when the contract has been initialized or reinitialized."
      },
      "Paused(address)": {
        "details": "Emitted when the pause is triggered by `account`."
      },
      "RoleAdminChanged(bytes32,bytes32,bytes32)": {
        "details": "Emitted when `newAdminRole` is set as ``role``'s admin role, replacing `previousAdminRole` `DEFAULT_ADMIN_ROLE` is the starting admin for all roles, despite {RoleAdminChanged} not being emitted signaling this. _Available since v3.1._"
      },
      "RoleGranted(bytes32,address,address)": {
        "details": "Emitted when `account` is granted `role`. `sender` is the account that originated the contract call, an admin role bearer except when using {AccessControl-_setupRole}."
      },
      "RoleRevoked(bytes32,address,address)": {
        "details": "Emitted when `account` is revoked `role`. `sender` is the account that originated the contract call:   - if using `revokeRole`, it is the admin role bearer   - if using `renounceRole`, it is the role bearer (i.e. `account`)"
      },
      "Unpaused(address)": {
        "details": "Emitted when the pause is lifted by `account`."
      }
    },
    "kind": "dev",
    "methods": {
      "getExpectedAssetsValue(address)": {
        "details": "iterates over the NFT assets and token assets in the pool, calling getExpectedAssetValue or getExpectedERC20AssetValue for each asset and summing up the values"
      },
      "getRoleAdmin(bytes32)": {
        "details": "Returns the admin role that controls `role`. See {grantRole} and {revokeRole}. To change a role's admin, use {_setRoleAdmin}."
      },
      "getRoleMember(bytes32,uint256)": {
        "details": "Returns one of the accounts that have `role`. `index` must be a value between 0 and {getRoleMemberCount}, non-inclusive. Role bearers are not sorted in any particular way, and their ordering may change at any point. WARNING: When using {getRoleMember} and {getRoleMemberCount}, make sure you perform all queries on the same block. See the following https://forum.openzeppelin.com/t/iterating-over-elements-on-enumerableset-in-openzeppelin-contracts/2296[forum post] for more information."
      },
      "getRoleMemberCount(bytes32)": {
        "details": "Returns the number of accounts that have `role`. Can be used together with {getRoleMember} to enumerate all bearers of a role."
      },
      "getSeniorAsset(address)": {
        "details": "calculates  the amount which accrues interest for the senior tranche in the securitization pool at a given timestamp"
      },
      "grantRole(bytes32,address)": {
        "details": "Grants `role` to `account`. If `account` had not been already granted `role`, emits a {RoleGranted} event. Requirements: - the caller must have ``role``'s admin role. May emit a {RoleGranted} event."
      },
      "hasRole(bytes32,address)": {
        "details": "Returns `true` if `account` has been granted `role`."
      },
      "paused()": {
        "details": "Returns true if the contract is paused, and false otherwise."
      },
      "renounceRole(bytes32,address)": {
        "details": "Revokes `role` from the calling account. Roles are often managed via {grantRole} and {revokeRole}: this function's purpose is to provide a mechanism for accounts to lose their privileges if they are compromised (such as when a trusted device is misplaced). If the calling account had been revoked `role`, emits a {RoleRevoked} event. Requirements: - the caller must be `account`. May emit a {RoleRevoked} event."
      },
      "revokeRole(bytes32,address)": {
        "details": "Revokes `role` from `account`. If `account` had been granted `role`, emits a {RoleRevoked} event. Requirements: - the caller must have ``role``'s admin role. May emit a {RoleRevoked} event."
      },
      "supportsInterface(bytes4)": {
        "details": "See {IERC165-supportsInterface}."
      }
    },
    "title": "SecuritizationPoolValueService",
    "version": 1
  },
  "userdoc": {
    "kind": "user",
    "methods": {
      "getExpectedAssetsValue(address)": {
        "notice": "calculates the total expected value of all assets in the securitization pool at a given timestamp"
      },
      "getJuniorAsset(address)": {
        "notice": "calculates  the amount of Junior Debt at the current time"
      },
      "getJuniorRatio(address)": {
        "notice": "returns the rate that belongs to Junior investors at the current time"
      },
      "getSeniorAsset(address)": {
        "notice": "the amount which belongs to the senior investor (SOT) in a pool"
      }
    },
    "version": 1
  },
  "storageLayout": {
    "storage": [
      {
        "astId": 723,
        "contract": "contracts/protocol/pool/SecuritizationPoolValueService.sol:SecuritizationPoolValueService",
        "label": "_initialized",
        "offset": 0,
        "slot": "0",
        "type": "t_uint8"
      },
      {
        "astId": 726,
        "contract": "contracts/protocol/pool/SecuritizationPoolValueService.sol:SecuritizationPoolValueService",
        "label": "_initializing",
        "offset": 1,
        "slot": "0",
        "type": "t_bool"
      },
      {
        "astId": 3564,
        "contract": "contracts/protocol/pool/SecuritizationPoolValueService.sol:SecuritizationPoolValueService",
        "label": "__gap",
        "offset": 0,
        "slot": "1",
        "type": "t_array(t_uint256)50_storage"
      },
      {
        "astId": 906,
        "contract": "contracts/protocol/pool/SecuritizationPoolValueService.sol:SecuritizationPoolValueService",
        "label": "_paused",
        "offset": 0,
        "slot": "51",
        "type": "t_bool"
      },
      {
        "astId": 1011,
        "contract": "contracts/protocol/pool/SecuritizationPoolValueService.sol:SecuritizationPoolValueService",
        "label": "__gap",
        "offset": 0,
        "slot": "52",
        "type": "t_array(t_uint256)49_storage"
      },
      {
        "astId": 1026,
        "contract": "contracts/protocol/pool/SecuritizationPoolValueService.sol:SecuritizationPoolValueService",
        "label": "_status",
        "offset": 0,
        "slot": "101",
        "type": "t_uint256"
      },
      {
        "astId": 1095,
        "contract": "contracts/protocol/pool/SecuritizationPoolValueService.sol:SecuritizationPoolValueService",
        "label": "__gap",
        "offset": 0,
        "slot": "102",
        "type": "t_array(t_uint256)49_storage"
      },
      {
        "astId": 3911,
        "contract": "contracts/protocol/pool/SecuritizationPoolValueService.sol:SecuritizationPoolValueService",
        "label": "__gap",
        "offset": 0,
        "slot": "151",
        "type": "t_array(t_uint256)50_storage"
      },
      {
        "astId": 184,
        "contract": "contracts/protocol/pool/SecuritizationPoolValueService.sol:SecuritizationPoolValueService",
        "label": "_roles",
        "offset": 0,
        "slot": "201",
        "type": "t_mapping(t_bytes32,t_struct(RoleData)179_storage)"
      },
      {
        "astId": 479,
        "contract": "contracts/protocol/pool/SecuritizationPoolValueService.sol:SecuritizationPoolValueService",
        "label": "__gap",
        "offset": 0,
        "slot": "202",
        "type": "t_array(t_uint256)49_storage"
      },
      {
        "astId": 33,
        "contract": "contracts/protocol/pool/SecuritizationPoolValueService.sol:SecuritizationPoolValueService",
        "label": "_roleMembers",
        "offset": 0,
        "slot": "251",
        "type": "t_mapping(t_bytes32,t_struct(AddressSet)5221_storage)"
      },
      {
        "astId": 143,
        "contract": "contracts/protocol/pool/SecuritizationPoolValueService.sol:SecuritizationPoolValueService",
        "label": "__gap",
        "offset": 0,
        "slot": "252",
        "type": "t_array(t_uint256)49_storage"
      },
      {
        "astId": 6619,
        "contract": "contracts/protocol/pool/SecuritizationPoolValueService.sol:SecuritizationPoolValueService",
        "label": "__gap",
        "offset": 0,
        "slot": "301",
        "type": "t_array(t_uint256)50_storage"
      },
      {
        "astId": 12631,
        "contract": "contracts/protocol/pool/SecuritizationPoolValueService.sol:SecuritizationPoolValueService",
        "label": "registry",
        "offset": 0,
        "slot": "351",
        "type": "t_contract(Registry)13435"
      },
      {
        "astId": 12653,
        "contract": "contracts/protocol/pool/SecuritizationPoolValueService.sol:SecuritizationPoolValueService",
        "label": "__gap",
        "offset": 0,
        "slot": "352",
        "type": "t_array(t_uint256)49_storage"
      },
      {
        "astId": 12550,
        "contract": "contracts/protocol/pool/SecuritizationPoolValueService.sol:SecuritizationPoolValueService",
        "label": "__gap",
        "offset": 0,
        "slot": "401",
        "type": "t_array(t_uint256)50_storage"
      }
    ],
    "types": {
      "t_address": {
        "encoding": "inplace",
        "label": "address",
        "numberOfBytes": "20"
      },
      "t_array(t_bytes32)dyn_storage": {
        "base": "t_bytes32",
        "encoding": "dynamic_array",
        "label": "bytes32[]",
        "numberOfBytes": "32"
      },
      "t_array(t_uint256)49_storage": {
        "base": "t_uint256",
        "encoding": "inplace",
        "label": "uint256[49]",
        "numberOfBytes": "1568"
      },
      "t_array(t_uint256)50_storage": {
        "base": "t_uint256",
        "encoding": "inplace",
        "label": "uint256[50]",
        "numberOfBytes": "1600"
      },
      "t_bool": {
        "encoding": "inplace",
        "label": "bool",
        "numberOfBytes": "1"
      },
      "t_bytes32": {
        "encoding": "inplace",
        "label": "bytes32",
        "numberOfBytes": "32"
      },
      "t_contract(Registry)13435": {
        "encoding": "inplace",
        "label": "contract Registry",
        "numberOfBytes": "20"
      },
      "t_mapping(t_address,t_bool)": {
        "encoding": "mapping",
        "key": "t_address",
        "label": "mapping(address => bool)",
        "numberOfBytes": "32",
        "value": "t_bool"
      },
      "t_mapping(t_bytes32,t_struct(AddressSet)5221_storage)": {
        "encoding": "mapping",
        "key": "t_bytes32",
        "label": "mapping(bytes32 => struct EnumerableSetUpgradeable.AddressSet)",
        "numberOfBytes": "32",
        "value": "t_struct(AddressSet)5221_storage"
      },
      "t_mapping(t_bytes32,t_struct(RoleData)179_storage)": {
        "encoding": "mapping",
        "key": "t_bytes32",
        "label": "mapping(bytes32 => struct AccessControlUpgradeable.RoleData)",
        "numberOfBytes": "32",
        "value": "t_struct(RoleData)179_storage"
      },
      "t_mapping(t_bytes32,t_uint256)": {
        "encoding": "mapping",
        "key": "t_bytes32",
        "label": "mapping(bytes32 => uint256)",
        "numberOfBytes": "32",
        "value": "t_uint256"
      },
      "t_struct(AddressSet)5221_storage": {
        "encoding": "inplace",
        "label": "struct EnumerableSetUpgradeable.AddressSet",
        "members": [
          {
            "astId": 5220,
            "contract": "contracts/protocol/pool/SecuritizationPoolValueService.sol:SecuritizationPoolValueService",
            "label": "_inner",
            "offset": 0,
            "slot": "0",
            "type": "t_struct(Set)4906_storage"
          }
        ],
        "numberOfBytes": "64"
      },
      "t_struct(RoleData)179_storage": {
        "encoding": "inplace",
        "label": "struct AccessControlUpgradeable.RoleData",
        "members": [
          {
            "astId": 176,
            "contract": "contracts/protocol/pool/SecuritizationPoolValueService.sol:SecuritizationPoolValueService",
            "label": "members",
            "offset": 0,
            "slot": "0",
            "type": "t_mapping(t_address,t_bool)"
          },
          {
            "astId": 178,
            "contract": "contracts/protocol/pool/SecuritizationPoolValueService.sol:SecuritizationPoolValueService",
            "label": "adminRole",
            "offset": 0,
            "slot": "1",
            "type": "t_bytes32"
          }
        ],
        "numberOfBytes": "64"
      },
      "t_struct(Set)4906_storage": {
        "encoding": "inplace",
        "label": "struct EnumerableSetUpgradeable.Set",
        "members": [
          {
            "astId": 4901,
            "contract": "contracts/protocol/pool/SecuritizationPoolValueService.sol:SecuritizationPoolValueService",
            "label": "_values",
            "offset": 0,
            "slot": "0",
            "type": "t_array(t_bytes32)dyn_storage"
          },
          {
            "astId": 4905,
            "contract": "contracts/protocol/pool/SecuritizationPoolValueService.sol:SecuritizationPoolValueService",
            "label": "_indexes",
            "offset": 0,
            "slot": "1",
            "type": "t_mapping(t_bytes32,t_uint256)"
          }
        ],
        "numberOfBytes": "64"
      },
      "t_uint256": {
        "encoding": "inplace",
        "label": "uint256",
        "numberOfBytes": "32"
      },
      "t_uint8": {
        "encoding": "inplace",
        "label": "uint8",
        "numberOfBytes": "1"
      }
    }
  }
}