{
  "address": "0x36457D97b7027c63604D71d28E509f1229F93D0D",
  "abi": [
    {
      "anonymous": false,
      "inputs": [
        {
          "indexed": false,
          "internalType": "uint8",
          "name": "version",
          "type": "uint8"
        }
      ],
      "name": "Initialized",
      "type": "event"
    },
    {
      "anonymous": false,
      "inputs": [
        {
          "indexed": false,
          "internalType": "address",
          "name": "account",
          "type": "address"
        }
      ],
      "name": "Paused",
      "type": "event"
    },
    {
      "anonymous": false,
      "inputs": [
        {
          "indexed": true,
          "internalType": "bytes32",
          "name": "role",
          "type": "bytes32"
        },
        {
          "indexed": true,
          "internalType": "bytes32",
          "name": "previousAdminRole",
          "type": "bytes32"
        },
        {
          "indexed": true,
          "internalType": "bytes32",
          "name": "newAdminRole",
          "type": "bytes32"
        }
      ],
      "name": "RoleAdminChanged",
      "type": "event"
    },
    {
      "anonymous": false,
      "inputs": [
        {
          "indexed": true,
          "internalType": "bytes32",
          "name": "role",
          "type": "bytes32"
        },
        {
          "indexed": true,
          "internalType": "address",
          "name": "account",
          "type": "address"
        },
        {
          "indexed": true,
          "internalType": "address",
          "name": "sender",
          "type": "address"
        }
      ],
      "name": "RoleGranted",
      "type": "event"
    },
    {
      "anonymous": false,
      "inputs": [
        {
          "indexed": true,
          "internalType": "bytes32",
          "name": "role",
          "type": "bytes32"
        },
        {
          "indexed": true,
          "internalType": "address",
          "name": "account",
          "type": "address"
        },
        {
          "indexed": true,
          "internalType": "address",
          "name": "sender",
          "type": "address"
        }
      ],
      "name": "RoleRevoked",
      "type": "event"
    },
    {
      "anonymous": false,
      "inputs": [
        {
          "indexed": false,
          "internalType": "address",
          "name": "account",
          "type": "address"
        }
      ],
      "name": "Unpaused",
      "type": "event"
    },
    {
      "inputs": [],
      "name": "DEFAULT_ADMIN_ROLE",
      "outputs": [
        {
          "internalType": "bytes32",
          "name": "",
          "type": "bytes32"
        }
      ],
      "stateMutability": "view",
      "type": "function"
    },
    {
      "inputs": [],
      "name": "ORIGINATOR_ROLE",
      "outputs": [
        {
          "internalType": "bytes32",
          "name": "",
          "type": "bytes32"
        }
      ],
      "stateMutability": "view",
      "type": "function"
    },
    {
      "inputs": [],
      "name": "OWNER_ROLE",
      "outputs": [
        {
          "internalType": "bytes32",
          "name": "",
          "type": "bytes32"
        }
      ],
      "stateMutability": "view",
      "type": "function"
    },
    {
      "inputs": [],
      "name": "RATE_SCALING_FACTOR",
      "outputs": [
        {
          "internalType": "uint256",
          "name": "",
          "type": "uint256"
        }
      ],
      "stateMutability": "view",
      "type": "function"
    },
    {
      "inputs": [],
      "name": "checkMinFirstLost",
      "outputs": [
        {
          "internalType": "bool",
          "name": "",
          "type": "bool"
        }
      ],
      "stateMutability": "nonpayable",
      "type": "function"
    },
    {
      "inputs": [
        {
          "internalType": "address",
          "name": "recipientWallet",
          "type": "address"
        }
      ],
      "name": "claimCashRemain",
      "outputs": [],
      "stateMutability": "nonpayable",
      "type": "function"
    },
    {
      "inputs": [
        {
          "internalType": "address[]",
          "name": "tokenAddresses",
          "type": "address[]"
        }
      ],
      "name": "claimERC20Assets",
      "outputs": [],
      "stateMutability": "nonpayable",
      "type": "function"
    },
    {
      "inputs": [
        {
          "internalType": "address",
          "name": "tokenAddress",
          "type": "address"
        },
        {
          "internalType": "address",
          "name": "from",
          "type": "address"
        },
        {
          "internalType": "uint256[]",
          "name": "tokenIds",
          "type": "uint256[]"
        }
      ],
      "name": "collectAssets",
      "outputs": [],
      "stateMutability": "nonpayable",
      "type": "function"
    },
    {
      "inputs": [
        {
          "internalType": "address[]",
          "name": "tokenAddresses",
          "type": "address[]"
        },
        {
          "internalType": "address[]",
          "name": "senders",
          "type": "address[]"
        },
        {
          "internalType": "uint256[]",
          "name": "amounts",
          "type": "uint256[]"
        }
      ],
      "name": "collectERC20Assets",
      "outputs": [],
      "stateMutability": "nonpayable",
      "type": "function"
    },
    {
      "inputs": [
        {
          "internalType": "address",
          "name": "tokenAddress",
          "type": "address"
        },
        {
          "internalType": "address",
          "name": "investor",
          "type": "address"
        },
        {
          "internalType": "uint256",
          "name": "currency",
          "type": "uint256"
        },
        {
          "internalType": "uint256",
          "name": "token",
          "type": "uint256"
        }
      ],
      "name": "decreaseLockedDistributeBalance",
      "outputs": [],
      "stateMutability": "nonpayable",
      "type": "function"
    },
    {
      "inputs": [
        {
          "internalType": "address",
          "name": "",
          "type": "address"
        }
      ],
      "name": "existsTokenAssetAddress",
      "outputs": [
        {
          "internalType": "bool",
          "name": "",
          "type": "bool"
        }
      ],
      "stateMutability": "view",
      "type": "function"
    },
    {
      "inputs": [
        {
          "internalType": "address",
          "name": "tokenAddress",
          "type": "address"
        },
        {
          "internalType": "address",
          "name": "toPoolAddress",
          "type": "address"
        },
        {
          "internalType": "uint256[]",
          "name": "tokenIds",
          "type": "uint256[]"
        }
      ],
      "name": "exportAssets",
      "outputs": [],
      "stateMutability": "nonpayable",
      "type": "function"
    },
    {
      "inputs": [],
      "name": "getNFTAssetsLength",
      "outputs": [
        {
          "internalType": "uint256",
          "name": "",
          "type": "uint256"
        }
      ],
      "stateMutability": "view",
      "type": "function"
    },
    {
      "inputs": [],
      "name": "getRiskScoresLength",
      "outputs": [
        {
          "internalType": "uint256",
          "name": "",
          "type": "uint256"
        }
      ],
      "stateMutability": "view",
      "type": "function"
    },
    {
      "inputs": [
        {
          "internalType": "bytes32",
          "name": "role",
          "type": "bytes32"
        }
      ],
      "name": "getRoleAdmin",
      "outputs": [
        {
          "internalType": "bytes32",
          "name": "",
          "type": "bytes32"
        }
      ],
      "stateMutability": "view",
      "type": "function"
    },
    {
      "inputs": [
        {
          "internalType": "bytes32",
          "name": "role",
          "type": "bytes32"
        },
        {
          "internalType": "uint256",
          "name": "index",
          "type": "uint256"
        }
      ],
      "name": "getRoleMember",
      "outputs": [
        {
          "internalType": "address",
          "name": "",
          "type": "address"
        }
      ],
      "stateMutability": "view",
      "type": "function"
    },
    {
      "inputs": [
        {
          "internalType": "bytes32",
          "name": "role",
          "type": "bytes32"
        }
      ],
      "name": "getRoleMemberCount",
      "outputs": [
        {
          "internalType": "uint256",
          "name": "",
          "type": "uint256"
        }
      ],
      "stateMutability": "view",
      "type": "function"
    },
    {
      "inputs": [],
      "name": "getTokenAssetAddresses",
      "outputs": [
        {
          "internalType": "address[]",
          "name": "",
          "type": "address[]"
        }
      ],
      "stateMutability": "view",
      "type": "function"
    },
    {
      "inputs": [],
      "name": "getTokenAssetAddressesLength",
      "outputs": [
        {
          "internalType": "uint256",
          "name": "",
          "type": "uint256"
        }
      ],
      "stateMutability": "view",
      "type": "function"
    },
    {
      "inputs": [
        {
          "internalType": "bytes32",
          "name": "role",
          "type": "bytes32"
        },
        {
          "internalType": "address",
          "name": "account",
          "type": "address"
        }
      ],
      "name": "grantRole",
      "outputs": [],
      "stateMutability": "nonpayable",
      "type": "function"
    },
    {
      "inputs": [],
      "name": "hasFinishedRedemption",
      "outputs": [
        {
          "internalType": "bool",
          "name": "",
          "type": "bool"
        }
      ],
      "stateMutability": "view",
      "type": "function"
    },
    {
      "inputs": [
        {
          "internalType": "bytes32",
          "name": "role",
          "type": "bytes32"
        },
        {
          "internalType": "address",
          "name": "account",
          "type": "address"
        }
      ],
      "name": "hasRole",
      "outputs": [
        {
          "internalType": "bool",
          "name": "",
          "type": "bool"
        }
      ],
      "stateMutability": "view",
      "type": "function"
    },
    {
      "inputs": [
        {
          "internalType": "address",
          "name": "tokenAddress",
          "type": "address"
        },
        {
          "internalType": "address",
          "name": "investor",
          "type": "address"
        },
        {
          "internalType": "uint256",
          "name": "currency",
          "type": "uint256"
        },
        {
          "internalType": "uint256",
          "name": "token",
          "type": "uint256"
        }
      ],
      "name": "increaseLockedDistributeBalance",
      "outputs": [],
      "stateMutability": "nonpayable",
      "type": "function"
    },
    {
      "inputs": [
        {
          "internalType": "uint256",
          "name": "amount",
          "type": "uint256"
        }
      ],
      "name": "increaseTotalAssetRepaidCurrency",
      "outputs": [],
      "stateMutability": "nonpayable",
      "type": "function"
    },
    {
      "inputs": [
        {
          "internalType": "contract Registry",
          "name": "_registry",
          "type": "address"
        },
        {
          "internalType": "address",
          "name": "_currency",
          "type": "address"
        },
        {
          "internalType": "uint32",
          "name": "_minFirstLossCushion",
          "type": "uint32"
        }
      ],
      "name": "initialize",
      "outputs": [],
      "stateMutability": "nonpayable",
      "type": "function"
    },
    {
      "inputs": [
        {
          "internalType": "address",
          "name": "_tgeAddress",
          "type": "address"
        },
        {
          "internalType": "address",
          "name": "_tokenAddress",
          "type": "address"
        },
        {
          "internalType": "enum Configuration.NOTE_TOKEN_TYPE",
          "name": "_noteType",
          "type": "uint8"
        }
      ],
      "name": "injectTGEAddress",
      "outputs": [],
      "stateMutability": "nonpayable",
      "type": "function"
    },
    {
      "inputs": [],
      "name": "interestRateSOT",
      "outputs": [
        {
          "internalType": "uint32",
          "name": "",
          "type": "uint32"
        }
      ],
      "stateMutability": "view",
      "type": "function"
    },
    {
      "inputs": [],
      "name": "isClosedState",
      "outputs": [
        {
          "internalType": "bool",
          "name": "",
          "type": "bool"
        }
      ],
      "stateMutability": "view",
      "type": "function"
    },
    {
      "inputs": [],
      "name": "jotToken",
      "outputs": [
        {
          "internalType": "address",
          "name": "",
          "type": "address"
        }
      ],
      "stateMutability": "view",
      "type": "function"
    },
    {
      "inputs": [
        {
          "internalType": "address",
          "name": "",
          "type": "address"
        }
      ],
      "name": "lastRepayTimestampSOT",
      "outputs": [
        {
          "internalType": "uint256",
          "name": "",
          "type": "uint256"
        }
      ],
      "stateMutability": "view",
      "type": "function"
    },
    {
      "inputs": [
        {
          "internalType": "address",
          "name": "",
          "type": "address"
        },
        {
          "internalType": "address",
          "name": "",
          "type": "address"
        }
      ],
      "name": "lockedDistributeBalances",
      "outputs": [
        {
          "internalType": "uint256",
          "name": "",
          "type": "uint256"
        }
      ],
      "stateMutability": "view",
      "type": "function"
    },
    {
      "inputs": [
        {
          "internalType": "address",
          "name": "",
          "type": "address"
        },
        {
          "internalType": "address",
          "name": "",
          "type": "address"
        }
      ],
      "name": "lockedRedeemBalances",
      "outputs": [
        {
          "internalType": "uint256",
          "name": "",
          "type": "uint256"
        }
      ],
      "stateMutability": "view",
      "type": "function"
    },
    {
      "inputs": [],
      "name": "minFirstLossCushion",
      "outputs": [
        {
          "internalType": "uint32",
          "name": "",
          "type": "uint32"
        }
      ],
      "stateMutability": "view",
      "type": "function"
    },
    {
      "inputs": [
        {
          "internalType": "uint256",
          "name": "",
          "type": "uint256"
        }
      ],
      "name": "nftAssets",
      "outputs": [
        {
          "internalType": "address",
          "name": "tokenAddress",
          "type": "address"
        },
        {
          "internalType": "uint256",
          "name": "tokenId",
          "type": "uint256"
        }
      ],
      "stateMutability": "view",
      "type": "function"
    },
    {
      "inputs": [
        {
          "internalType": "address",
          "name": "",
          "type": "address"
        },
        {
          "internalType": "address",
          "name": "",
          "type": "address"
        },
        {
          "internalType": "uint256",
          "name": "tokenId",
          "type": "uint256"
        },
        {
          "internalType": "bytes",
          "name": "",
          "type": "bytes"
        }
      ],
      "name": "onERC721Received",
      "outputs": [
        {
          "internalType": "bytes4",
          "name": "",
          "type": "bytes4"
        }
      ],
      "stateMutability": "nonpayable",
      "type": "function"
    },
    {
      "inputs": [],
      "name": "openingBlockTimestamp",
      "outputs": [
        {
          "internalType": "uint64",
          "name": "",
          "type": "uint64"
        }
      ],
      "stateMutability": "view",
      "type": "function"
    },
    {
      "inputs": [
        {
          "internalType": "address",
          "name": "",
          "type": "address"
        }
      ],
      "name": "paidInterestAmountSOT",
      "outputs": [
        {
          "internalType": "uint256",
          "name": "",
          "type": "uint256"
        }
      ],
      "stateMutability": "view",
      "type": "function"
    },
    {
      "inputs": [],
      "name": "paidPrincipalAmountSOT",
      "outputs": [
        {
          "internalType": "uint256",
          "name": "",
          "type": "uint256"
        }
      ],
      "stateMutability": "view",
      "type": "function"
    },
    {
      "inputs": [
        {
          "internalType": "address",
          "name": "",
          "type": "address"
        }
      ],
      "name": "paidPrincipalAmountSOTByInvestor",
      "outputs": [
        {
          "internalType": "uint256",
          "name": "",
          "type": "uint256"
        }
      ],
      "stateMutability": "view",
      "type": "function"
    },
    {
      "inputs": [],
      "name": "pause",
      "outputs": [],
      "stateMutability": "nonpayable",
      "type": "function"
    },
    {
      "inputs": [],
      "name": "paused",
      "outputs": [
        {
          "internalType": "bool",
          "name": "",
          "type": "bool"
        }
      ],
      "stateMutability": "view",
      "type": "function"
    },
    {
      "inputs": [],
      "name": "pot",
      "outputs": [
        {
          "internalType": "address",
          "name": "",
          "type": "address"
        }
      ],
      "stateMutability": "view",
      "type": "function"
    },
    {
      "inputs": [],
      "name": "principalAmountSOT",
      "outputs": [
        {
          "internalType": "uint256",
          "name": "",
          "type": "uint256"
        }
      ],
      "stateMutability": "view",
      "type": "function"
    },
    {
      "inputs": [
        {
          "internalType": "address",
          "name": "usr",
          "type": "address"
        },
        {
          "internalType": "address",
          "name": "notesToken",
          "type": "address"
        },
        {
          "internalType": "uint256",
          "name": "currencyAmount",
          "type": "uint256"
        },
        {
          "internalType": "uint256",
          "name": "tokenAmount",
          "type": "uint256"
        }
      ],
      "name": "redeem",
      "outputs": [],
      "stateMutability": "nonpayable",
      "type": "function"
    },
    {
      "inputs": [],
      "name": "registry",
      "outputs": [
        {
          "internalType": "contract Registry",
          "name": "",
          "type": "address"
        }
      ],
      "stateMutability": "view",
      "type": "function"
    },
    {
      "inputs": [
        {
          "internalType": "bytes32",
          "name": "role",
          "type": "bytes32"
        },
        {
          "internalType": "address",
          "name": "account",
          "type": "address"
        }
      ],
      "name": "renounceRole",
      "outputs": [],
      "stateMutability": "nonpayable",
      "type": "function"
    },
    {
      "inputs": [],
      "name": "reserve",
      "outputs": [
        {
          "internalType": "uint256",
          "name": "",
          "type": "uint256"
        }
      ],
      "stateMutability": "view",
      "type": "function"
    },
    {
      "inputs": [
        {
          "internalType": "bytes32",
          "name": "role",
          "type": "bytes32"
        },
        {
          "internalType": "address",
          "name": "account",
          "type": "address"
        }
      ],
      "name": "revokeRole",
      "outputs": [],
      "stateMutability": "nonpayable",
      "type": "function"
    },
    {
      "inputs": [
        {
          "internalType": "uint256",
          "name": "",
          "type": "uint256"
        }
      ],
      "name": "riskScores",
      "outputs": [
        {
          "internalType": "uint32",
          "name": "daysPastDue",
          "type": "uint32"
        },
        {
          "internalType": "uint32",
          "name": "advanceRate",
          "type": "uint32"
        },
        {
          "internalType": "uint32",
          "name": "penaltyRate",
          "type": "uint32"
        },
        {
          "internalType": "uint32",
          "name": "interestRate",
          "type": "uint32"
        },
        {
          "internalType": "uint32",
          "name": "probabilityOfDefault",
          "type": "uint32"
        },
        {
          "internalType": "uint32",
          "name": "lossGivenDefault",
          "type": "uint32"
        },
        {
          "internalType": "uint32",
          "name": "gracePeriod",
          "type": "uint32"
        },
        {
          "internalType": "uint32",
          "name": "collectionPeriod",
          "type": "uint32"
        },
        {
          "internalType": "uint32",
          "name": "writeOffAfterGracePeriod",
          "type": "uint32"
        },
        {
          "internalType": "uint32",
          "name": "writeOffAfterCollectionPeriod",
          "type": "uint32"
        }
      ],
      "stateMutability": "view",
      "type": "function"
    },
    {
      "inputs": [],
      "name": "secondTGEAddress",
      "outputs": [
        {
          "internalType": "address",
          "name": "",
          "type": "address"
        }
      ],
      "stateMutability": "view",
      "type": "function"
    },
    {
      "inputs": [
        {
          "internalType": "uint32",
          "name": "_interestRateSOT",
          "type": "uint32"
        }
      ],
      "name": "setInterestRateForSOT",
      "outputs": [],
      "stateMutability": "nonpayable",
      "type": "function"
    },
    {
      "inputs": [
        {
          "internalType": "address",
          "name": "_pot",
          "type": "address"
        }
      ],
      "name": "setPot",
      "outputs": [],
      "stateMutability": "nonpayable",
      "type": "function"
    },
    {
      "inputs": [
        {
          "internalType": "uint32[]",
          "name": "_daysPastDues",
          "type": "uint32[]"
        },
        {
          "internalType": "uint32[]",
          "name": "_ratesAndDefaults",
          "type": "uint32[]"
        },
        {
          "internalType": "uint32[]",
          "name": "_periodsAndWriteOffs",
          "type": "uint32[]"
        }
      ],
      "name": "setupRiskScores",
      "outputs": [],
      "stateMutability": "nonpayable",
      "type": "function"
    },
    {
      "inputs": [],
      "name": "sotToken",
      "outputs": [
        {
          "internalType": "address",
          "name": "",
          "type": "address"
        }
      ],
      "stateMutability": "view",
      "type": "function"
    },
    {
      "inputs": [
        {
          "internalType": "uint64",
          "name": "_termLengthInSeconds",
          "type": "uint64"
        },
        {
          "internalType": "uint256",
          "name": "_principalAmountForSOT",
          "type": "uint256"
        },
        {
          "internalType": "uint32",
          "name": "_interestRateForSOT",
          "type": "uint32"
        },
        {
          "internalType": "uint64",
          "name": "_timeStartEarningInterest",
          "type": "uint64"
        }
      ],
      "name": "startCycle",
      "outputs": [],
      "stateMutability": "nonpayable",
      "type": "function"
    },
    {
      "inputs": [],
      "name": "state",
      "outputs": [
        {
          "internalType": "enum ISecuritizationPool.CycleState",
          "name": "",
          "type": "uint8"
        }
      ],
      "stateMutability": "view",
      "type": "function"
    },
    {
      "inputs": [
        {
          "internalType": "bytes4",
          "name": "interfaceId",
          "type": "bytes4"
        }
      ],
      "name": "supportsInterface",
      "outputs": [
        {
          "internalType": "bool",
          "name": "",
          "type": "bool"
        }
      ],
      "stateMutability": "view",
      "type": "function"
    },
    {
      "inputs": [],
      "name": "termLengthInSeconds",
      "outputs": [
        {
          "internalType": "uint64",
          "name": "",
          "type": "uint64"
        }
      ],
      "stateMutability": "view",
      "type": "function"
    },
    {
      "inputs": [],
      "name": "tgeAddress",
      "outputs": [
        {
          "internalType": "address",
          "name": "",
          "type": "address"
        }
      ],
      "stateMutability": "view",
      "type": "function"
    },
    {
      "inputs": [
        {
          "internalType": "uint256",
          "name": "",
          "type": "uint256"
        }
      ],
      "name": "tokenAssetAddresses",
      "outputs": [
        {
          "internalType": "address",
          "name": "",
          "type": "address"
        }
      ],
      "stateMutability": "view",
      "type": "function"
    },
    {
      "inputs": [],
      "name": "totalAssetRepaidCurrency",
      "outputs": [
        {
          "internalType": "uint256",
          "name": "",
          "type": "uint256"
        }
      ],
      "stateMutability": "view",
      "type": "function"
    },
    {
      "inputs": [],
      "name": "totalLockedDistributeBalance",
      "outputs": [
        {
          "internalType": "uint256",
          "name": "",
          "type": "uint256"
        }
      ],
      "stateMutability": "view",
      "type": "function"
    },
    {
      "inputs": [
        {
          "internalType": "address",
          "name": "",
          "type": "address"
        }
      ],
      "name": "totalLockedRedeemBalances",
      "outputs": [
        {
          "internalType": "uint256",
          "name": "",
          "type": "uint256"
        }
      ],
      "stateMutability": "view",
      "type": "function"
    },
    {
      "inputs": [],
      "name": "totalRedeemedCurrency",
      "outputs": [
        {
          "internalType": "uint256",
          "name": "",
          "type": "uint256"
        }
      ],
      "stateMutability": "view",
      "type": "function"
    },
    {
      "inputs": [],
      "name": "underlyingCurrency",
      "outputs": [
        {
          "internalType": "address",
          "name": "",
          "type": "address"
        }
      ],
      "stateMutability": "view",
      "type": "function"
    },
    {
      "inputs": [],
      "name": "unpause",
      "outputs": [],
      "stateMutability": "nonpayable",
      "type": "function"
    },
    {
      "inputs": [
        {
          "internalType": "uint256",
          "name": "amount",
          "type": "uint256"
        }
      ],
      "name": "withdraw",
      "outputs": [],
      "stateMutability": "nonpayable",
      "type": "function"
    },
    {
      "inputs": [
        {
          "internalType": "address[]",
          "name": "tokenAddresses",
          "type": "address[]"
        },
        {
          "internalType": "uint256[]",
          "name": "tokenIds",
          "type": "uint256[]"
        },
        {
          "internalType": "address[]",
          "name": "recipients",
          "type": "address[]"
        }
      ],
      "name": "withdrawAssets",
      "outputs": [],
      "stateMutability": "nonpayable",
      "type": "function"
    },
    {
      "inputs": [
        {
          "internalType": "address[]",
          "name": "tokenAddresses",
          "type": "address[]"
        },
        {
          "internalType": "address[]",
          "name": "recipients",
          "type": "address[]"
        },
        {
          "internalType": "uint256[]",
          "name": "amounts",
          "type": "uint256[]"
        }
      ],
      "name": "withdrawERC20Assets",
      "outputs": [],
      "stateMutability": "nonpayable",
      "type": "function"
    }
  ],
  "transactionHash": "0x34d9c4f51cea7bba7b3cc570a1185be37ee0521dcb366ef81642e72139c83a68",
  "args": [],
  "numDeployments": 2,
  "solcInputHash": "ada4966436afb0dbcc715040c38bdc6a",
  "bytecode": "0x608060405234801561001057600080fd5b50615a6d80620000216000396000f3fe608060405234801561001057600080fd5b50600436106104575760003560e01c80636ee44c4c11610250578063ac2a6a3811610150578063d547741f116100c8578063e2eda54111610097578063ed3488951161007c578063ed34889514610ab4578063fa3908b114610ac7578063febd601814610af957600080fd5b8063e2eda54114610a84578063e58378bb14610a8d57600080fd5b8063d547741f14610a42578063d8ba6f4414610a55578063dec2858714610a68578063df076fe014610a7b57600080fd5b8063c6cb67a61161011f578063cd3293de11610104578063cd3293de14610a0d578063cee7b6a114610a17578063d2fad48114610a2157600080fd5b8063c6cb67a6146109e7578063ca15c873146109fa57600080fd5b8063ac2a6a3814610974578063ade0ea6d146109a0578063b8cd9b00146109aa578063c19d93fb146109b457600080fd5b80638456cb59116101e357806390161705116101b2578063a125142b11610197578063a125142b14610932578063a217fddf14610959578063a6c595471461096157600080fd5b806390161705146108e657806391d14854146108f957600080fd5b80638456cb591461089f5780638fd6b71e146108a757806390071cf3146108c05780639010d07c146108d357600080fd5b80637b1039991161021f5780637b103999146108425780637da220e6146108565780637dfbdae214610882578063815d6ddf1461088c57600080fd5b80636ee44c4c146107fc57806370d2f3991461081157806375b1bce71461083257806378d29d551461083a57600080fd5b8063357a03021161035b5780634ba2363a116102ee5780635c975abb116102bd578063644b4ead116102a2578063644b4ead146107625780636456a3ee146107d55780636ecf2b22146107e957600080fd5b80635c975abb146107425780636421cede1461074d57600080fd5b80634ba2363a146106e45780634bb48586146106f85780634be474181461071c5780635b8e62e71461072f57600080fd5b80633f4ba83a1161032a5780633f4ba83a146106615780633ffebce414610669578063477035d11461068a5780634b552a4a146106d157600080fd5b8063357a03021461061557806336568abe1461062857806338d9feac1461063b5780633bf4045f1461064e57600080fd5b8063206c1765116103ee5780632b71b450116103bd5780632bcc3682116103a25780632bcc3682146105e65780632e1a7d4d146105ef5780632f2ff15d1461060257600080fd5b80632b71b450146105ac5780632bb14ff0146105c057600080fd5b8063206c17651461055a578063221dc59314610562578063247fc36314610576578063248a9ca31461058957600080fd5b8063186ccccf1161042a578063186ccccf146105075780631ba6e9571461051c5780631bf51b701461053d578063205854081461055057600080fd5b806301ffc9a71461045c5780630b7792f1146104845780630bc6bffc14610497578063150b7a02146104c3575b600080fd5b61046f61046a3660046151dc565b610b0d565b60405190151581526020015b60405180910390f35b610141545b60405190815260200161047b565b610132546104ab906001600160a01b031681565b6040516001600160a01b03909116815260200161047b565b6104d66104d1366004615262565b610b69565b6040517fffffffff00000000000000000000000000000000000000000000000000000000909116815260200161047b565b61051a6105153660046153ac565b610cdf565b005b61048961052a3660046153ee565b61013b6020526000908152604090205481565b61051a61054b36600461540b565b610fa4565b6104896101355481565b61046f611624565b61012f546104ab906001600160a01b031681565b61051a61058436600461540b565b6116dd565b6104896105973660046154a5565b600090815260c9602052604090206001015490565b610131546104ab906001600160a01b031681565b61013f546105d19063ffffffff1681565b60405163ffffffff909116815260200161047b565b61014054610489565b61051a6105fd3660046154a5565b611a9b565b61051a6106103660046154be565b611be6565b61051a6106233660046154ee565b611c10565b61051a6106363660046154be565b611db3565b61051a610649366004615534565b611e3b565b61051a61065c36600461540b565b611f4d565b61051a612246565b6104896106773660046153ee565b6101446020526000908152604090205481565b610132546106b8907501000000000000000000000000000000000000000000900467ffffffffffffffff1681565b60405167ffffffffffffffff909116815260200161047b565b61051a6106df366004615599565b612259565b610145546104ab906001600160a01b031681565b61046f6107063660046153ee565b6101436020526000908152604090205460ff1681565b61051a61072a3660046154ee565b61252a565b61051a61073d3660046154ee565b612814565b60335460ff1661046f565b6107556129d3565b60405161047b91906155e8565b6107756107703660046154a5565b612a36565b6040805163ffffffff9b8c168152998b1660208b0152978a16978901979097529488166060880152928716608087015290861660a0860152851660c0850152841660e084015283166101008301529091166101208201526101400161047b565b61012e546104ab906001600160a01b031681565b61051a6107f736600461564e565b612b17565b610133546106b89067ffffffffffffffff1681565b61048961081f3660046153ee565b6101376020526000908152604090205481565b61046f612f2d565b61046f61312e565b61012d546104ab906001600160a01b031681565b610489610864366004615695565b61013860209081526000928352604080842090915290825290205481565b6104896101365481565b61051a61089a3660046156db565b613168565b61051a613696565b61013f546105d190640100000000900463ffffffff1681565b61051a6108ce3660046153ee565b6136a9565b6104ab6108e1366004615728565b613895565b61051a6108f43660046154a5565b6138b4565b61046f6109073660046154be565b600091825260c9602090815260408084206001600160a01b0393909316845291905290205460ff1690565b6104897f59abfac6520ec36a6556b2a4dd949cc40007459bcd5cd2507f1e5cc77b6bc97e81565b610489600081565b61051a61096f36600461540b565b613990565b610489610982366004615695565b61013960209081526000928352604080842090915290825290205481565b61048961013e5481565b61048961013d5481565b610132546109da9074010000000000000000000000000000000000000000900460ff1681565b60405161047b9190615779565b61051a6109f53660046157ba565b613c82565b610489610a083660046154a5565b613d4c565b6104896101345481565b61048961013a5481565b610489610a2f3660046153ee565b61013c6020526000908152604090205481565b61051a610a503660046154be565b613d63565b6104ab610a633660046154a5565b613d88565b61051a610a76366004615534565b613db3565b61014254610489565b61048961271081565b6104897fb19546dff01e856fb3f010c267a7b1c60363cf8a4664e21cc89c26224620214e81565b61051a610ac23660046153ee565b614057565b610ada610ad53660046154a5565b614275565b604080516001600160a01b03909316835260208301919091520161047b565b610130546104ab906001600160a01b031681565b60007fffffffff0000000000000000000000000000000000000000000000000000000082167f5a05180f000000000000000000000000000000000000000000000000000000001480610b635750610b63826142ae565b92915050565b61012d54600090610b82906001600160a01b0316614345565b6001600160a01b0316336001600160a01b03161480610bc7575061012d54610bb2906001600160a01b0316614352565b6001600160a01b0316336001600160a01b0316145b610c3e5760405162461bcd60e51b815260206004820152603560248201527f53656375726974697a6174696f6e506f6f6c3a204d75737420626520746f6b6560448201527f6e2069737375656420627920556e74616e676c6564000000000000000000000060648201526084015b60405180910390fd5b6101416040518060400160405280610c533390565b6001600160a01b039081168252602091820187905283546001818101865560009586529483902084516002909202018054919092167fffffffffffffffffffffffff0000000000000000000000000000000000000000909116178155910151910155507f150b7a0200000000000000000000000000000000000000000000000000000000949350505050565b610ce761435f565b610cef6143b4565b60005b81811015610f955761012d54610d10906001600160a01b031661440d565b6001600160a01b03166384933c0c848484818110610d3057610d306157d5565b9050602002016020810190610d4591906153ee565b6040517fffffffff0000000000000000000000000000000000000000000000000000000060e084901b1681526001600160a01b039091166004820152602401602060405180830381865afa158015610da1573d6000803e3d6000fd5b505050506040513d601f19601f82011682018060405250810190610dc59190615804565b610e375760405162461bcd60e51b815260206004820152602960248201527f53656375726974697a6174696f6e506f6f6c3a20756e6b6e6f776e2d746f6b6560448201527f6e2d6164647265737300000000000000000000000000000000000000000000006064820152608401610c35565b6000838383818110610e4b57610e4b6157d5565b9050602002016020810190610e6091906153ee565b6040517f70a082310000000000000000000000000000000000000000000000000000000081523060048201526001600160a01b0391909116906370a0823190602401602060405180830381865afa158015610ebf573d6000803e3d6000fd5b505050506040513d601f19601f82011682018060405250810190610ee39190615826565b11610f565760405162461bcd60e51b815260206004820152602960248201527f53656375726974697a6174696f6e506f6f6c3a20546f6b656e2062616c616e6360448201527f65206973207a65726f00000000000000000000000000000000000000000000006064820152608401610c35565b610f85838383818110610f6b57610f6b6157d5565b9050602002016020810190610f8091906153ee565b61441a565b610f8e8161586e565b9050610cf2565b50610fa06001606555565b5050565b610fac61435f565b610fb461312e565b156110275760405162461bcd60e51b815260206004820152602860248201527f53656375726974697a6174696f6e506f6f6c3a20506f6f6c20696e20636c6f7360448201527f65642073746174650000000000000000000000000000000000000000000000006064820152608401610c35565b7fb19546dff01e856fb3f010c267a7b1c60363cf8a4664e21cc89c26224620214e611051816144cc565b8361105d876005615888565b148015611073575081611071876004615888565b145b6110e55760405162461bcd60e51b815260206004820152603860248201527f53656375726974697a6174696f6e506f6f6c3a205269736b73636f726520706160448201527f72616d73206c656e677468206973206e6f7420657175616c00000000000000006064820152608401610c35565b6110f2610140600061517d565b60005b8681101561161a5780158061116b575087876111126001846158a7565b818110611121576111216157d5565b905060200201602081019061113691906157ba565b63ffffffff1688888381811061114e5761114e6157d5565b905060200201602081019061116391906157ba565b63ffffffff16115b6111dd5760405162461bcd60e51b815260206004820152602e60248201527f53656375726974697a6174696f6e506f6f6c3a205269736b2073636f7265732060448201527f6d75737420626520736f727465640000000000000000000000000000000000006064820152608401610c35565b6101406040518061014001604052808a8a858181106111fe576111fe6157d5565b905060200201602081019061121391906157ba565b63ffffffff168152602001888885818110611230576112306157d5565b905060200201602081019061124591906157ba565b63ffffffff168152602001888861125c8c876158be565b81811061126b5761126b6157d5565b905060200201602081019061128091906157ba565b63ffffffff16815260200188886112988c6002615888565b6112a290876158be565b8181106112b1576112b16157d5565b90506020020160208101906112c691906157ba565b63ffffffff16815260200188886112de8c6003615888565b6112e890876158be565b8181106112f7576112f76157d5565b905060200201602081019061130c91906157ba565b63ffffffff16815260200188886113248c6004615888565b61132e90876158be565b81811061133d5761133d6157d5565b905060200201602081019061135291906157ba565b63ffffffff16815260200186868581811061136f5761136f6157d5565b905060200201602081019061138491906157ba565b63ffffffff168152602001868661139b8c876158be565b8181106113aa576113aa6157d5565b90506020020160208101906113bf91906157ba565b63ffffffff16815260200186866113d78c6002615888565b6113e190876158be565b8181106113f0576113f06157d5565b905060200201602081019061140591906157ba565b63ffffffff168152602001868661141d8c6003615888565b61142790876158be565b818110611436576114366157d5565b905060200201602081019061144b91906157ba565b63ffffffff16815250908060018154018082558091505060019003906000526020600020906002020160009091909190915060008201518160000160006101000a81548163ffffffff021916908363ffffffff16021790555060208201518160000160046101000a81548163ffffffff021916908363ffffffff16021790555060408201518160000160086101000a81548163ffffffff021916908363ffffffff160217905550606082015181600001600c6101000a81548163ffffffff021916908363ffffffff16021790555060808201518160000160106101000a81548163ffffffff021916908363ffffffff16021790555060a08201518160000160146101000a81548163ffffffff021916908363ffffffff16021790555060c08201518160000160186101000a81548163ffffffff021916908363ffffffff16021790555060e082015181600001601c6101000a81548163ffffffff021916908363ffffffff1602179055506101008201518160010160006101000a81548163ffffffff021916908363ffffffff1602179055506101208201518160010160046101000a81548163ffffffff021916908363ffffffff160217905550505080806116129061586e565b9150506110f5565b5050505050505050565b61012d54600090819061163f906001600160a01b03166144d6565b6040517f4a7b31400000000000000000000000000000000000000000000000000000000081523060048201529091506001600160a01b03821690634a7b314090602401602060405180830381865afa15801561169f573d6000803e3d6000fd5b505050506040513d601f19601f820116820180604052508101906116c39190615826565b61013f54640100000000900463ffffffff16111592915050565b6116e561435f565b6116ed6143b4565b6116f561312e565b156117685760405162461bcd60e51b815260206004820152602860248201527f53656375726974697a6174696f6e506f6f6c3a20506f6f6c20696e20636c6f7360448201527f65642073746174650000000000000000000000000000000000000000000000006064820152608401610c35565b7f59abfac6520ec36a6556b2a4dd949cc40007459bcd5cd2507f1e5cc77b6bc97e611792816144cc565b85841480156117a057508382145b6118125760405162461bcd60e51b815260206004820152602f60248201527f53656375726974697a6174696f6e506f6f6c3a20506172616d73206c656e677460448201527f6820617265206e6f7420657175616c00000000000000000000000000000000006064820152608401610c35565b60005b86811015611a875761012d54611833906001600160a01b031661440d565b6001600160a01b03166384933c0c898984818110611853576118536157d5565b905060200201602081019061186891906153ee565b6040517fffffffff0000000000000000000000000000000000000000000000000000000060e084901b1681526001600160a01b039091166004820152602401602060405180830381865afa1580156118c4573d6000803e3d6000fd5b505050506040513d601f19601f820116820180604052508101906118e89190615804565b61195a5760405162461bcd60e51b815260206004820152602960248201527f53656375726974697a6174696f6e506f6f6c3a20756e6b6e6f776e2d746f6b6560448201527f6e2d6164647265737300000000000000000000000000000000000000000000006064820152608401610c35565b87878281811061196c5761196c6157d5565b905060200201602081019061198191906153ee565b6001600160a01b03166323b872dd8787848181106119a1576119a16157d5565b90506020020160208101906119b691906153ee565b308787868181106119c9576119c96157d5565b6040517fffffffff0000000000000000000000000000000000000000000000000000000060e088901b1681526001600160a01b039586166004820152949093166024850152506020909102013560448201526064016020604051808303816000875af1158015611a3d573d6000803e3d6000fd5b505050506040513d601f19601f82011682018060405250810190611a619190615804565b50611a77888883818110610f6b57610f6b6157d5565b611a808161586e565b9050611815565b5050611a936001606555565b505050505050565b611aa361435f565b611aab6143b4565b7f59abfac6520ec36a6556b2a4dd949cc40007459bcd5cd2507f1e5cc77b6bc97e611ad5816144cc565b8161013454611ae491906158a7565b61013455611af0611624565b611b3c5760405162461bcd60e51b815260206004820152601d60248201527f4d696e46697273744c6f7373206973206e6f74207361746973666965640000006044820152606401610c35565b61013254610145546040517f23b872dd0000000000000000000000000000000000000000000000000000000081526001600160a01b039182166004820152336024820152604481018590529116906323b872dd906064015b6020604051808303816000875af1158015611bb3573d6000803e3d6000fd5b505050506040513d601f19601f82011682018060405250810190611bd79190615804565b5050611be36001606555565b50565b600082815260c96020526040902060010154611c01816144cc565b611c0b83836144e3565b505050565b611c1861435f565b61012d54611c2e906001600160a01b0316614505565b6001600160a01b0316336001600160a01b031614611cb45760405162461bcd60e51b815260206004820152602d60248201527f53656375726974697a6174696f6e506f6f6c3a204f6e6c79204469737472696260448201527f7574696f6e4f70657261746f72000000000000000000000000000000000000006064820152608401610c35565b6001600160a01b0380851660009081526101386020908152604080832093871683529290522054611ce69083906158be565b6001600160a01b038086166000818152610138602090815260408083209489168084529482528083209590955591815261013982528381209281529190522054611d319082906158be565b6001600160a01b038086166000908152610139602090815260408083209388168352929052205561013654611d679083906158be565b610136556001600160a01b03841660009081526101376020526040902054611d909082906158be565b6001600160a01b0390941660009081526101376020526040902093909355505050565b6001600160a01b0381163314611e315760405162461bcd60e51b815260206004820152602f60248201527f416363657373436f6e74726f6c3a2063616e206f6e6c792072656e6f756e636560448201527f20726f6c657320666f722073656c6600000000000000000000000000000000006064820152608401610c35565b610fa08282614512565b611e4361435f565b611e4b6143b4565b7f59abfac6520ec36a6556b2a4dd949cc40007459bcd5cd2507f1e5cc77b6bc97e611e75816144cc565b60005b82811015611f3b57856001600160a01b03166342842e0e8630878786818110611ea357611ea36157d5565b6040517fffffffff0000000000000000000000000000000000000000000000000000000060e088901b1681526001600160a01b03958616600482015294909316602485015250602090910201356044820152606401600060405180830381600087803b158015611f1257600080fd5b505af1158015611f26573d6000803e3d6000fd5b5050505080611f349061586e565b9050611e78565b5050611f476001606555565b50505050565b611f5561435f565b611f5d6143b4565b7fb19546dff01e856fb3f010c267a7b1c60363cf8a4664e21cc89c26224620214e611f87816144cc565b858414611ffc5760405162461bcd60e51b815260206004820152603760248201527f746f6b656e416464726573736573206c656e67746820616e6420746f6b656e4960448201527f6473206c656e67746820617265206e6f7420657175616c0000000000000000006064820152608401610c35565b8582146120715760405162461bcd60e51b815260206004820152603960248201527f746f6b656e416464726573736573206c656e67746820616e642072656369706960448201527f656e7473206c656e67746820617265206e6f7420657175616c000000000000006064820152608401610c35565b60005b86811015611a87576101436000898984818110612093576120936157d5565b90506020020160208101906120a891906153ee565b6001600160a01b0316815260208101919091526040016000205460ff166121375760405162461bcd60e51b815260206004820152603360248201527f53656375726974697a6174696f6e506f6f6c3a206e6f746520746f6b656e206160448201527f7373657420646f6573206e6f74206578697374000000000000000000000000006064820152608401610c35565b878782818110612149576121496157d5565b905060200201602081019061215e91906153ee565b6001600160a01b031663a9059cbb87878481811061217e5761217e6157d5565b905060200201602081019061219391906153ee565b8686858181106121a5576121a56157d5565b6040517fffffffff0000000000000000000000000000000000000000000000000000000060e087901b1681526001600160a01b03909416600485015260200291909101356024830152506044016020604051808303816000875af1158015612211573d6000803e3d6000fd5b505050506040513d601f19601f820116820180604052508101906122359190615804565b5061223f8161586e565b9050612074565b6000612251816144cc565b611be3614534565b61226161435f565b6122696143b4565b61012d5461227f906001600160a01b0316614586565b6001600160a01b0316336001600160a01b0316146123055760405162461bcd60e51b815260206004820152602e60248201527f53656375726974697a6174696f6e506f6f6c3a204f6e6c79205365637572697460448201527f697a6174696f6e4d616e616765720000000000000000000000000000000000006064820152608401610c35565b60026101325474010000000000000000000000000000000000000000900460ff1660038111156123375761233761574a565b14158015612375575060036101325474010000000000000000000000000000000000000000900460ff1660038111156123725761237261574a565b14155b6123c15760405162461bcd60e51b815260206004820152601a60248201527f4e6f7420696e2069737375696e6720746f6b656e2073746167650000000000006044820152606401610c35565b6001600160a01b038316158015906123e157506001600160a01b03821615155b61242d5760405162461bcd60e51b815260206004820181905260248201527f53656375726974697a6174696f6e506f6f6c3a2041646472657373207a65726f6044820152606401610c35565b60008160018111156124415761244161574a565b036124955761012e80546001600160a01b038086167fffffffffffffffffffffffff0000000000000000000000000000000000000000928316179092556101308054928516929091169190911790556124e0565b61012f80546001600160a01b038086167fffffffffffffffffffffffff0000000000000000000000000000000000000000928316179092556101318054928516929091169190911790555b505061013280547fffffffffffffffffffffff00ffffffffffffffffffffffffffffffffffffffff1674010000000000000000000000000000000000000000179055506001606555565b61253261435f565b61253a6143b4565b61012d54612550906001600160a01b0316614593565b6001600160a01b0316336001600160a01b0316146125d65760405162461bcd60e51b815260206004820152603660248201527f53656375726974697a6174696f6e506f6f6c3a2043616c6c6572206d7573742060448201527f626520446973747269627574696f6e5472616e636865000000000000000000006064820152608401610c35565b8015612650576040517f42966c68000000000000000000000000000000000000000000000000000000008152600481018290526001600160a01b038416906342966c6890602401600060405180830381600087803b15801561263757600080fd5b505af115801561264b573d6000803e3d6000fd5b505050505b816101345461265f91906158a7565b6101345561266b611624565b6126b75760405162461bcd60e51b815260206004820152601d60248201527f4d696e46697273744c6f7373206973206e6f74207361746973666965640000006044820152606401610c35565b61013254610145546040517f23b872dd0000000000000000000000000000000000000000000000000000000081526001600160a01b0391821660048201528682166024820152604481018590529116906323b872dd906064016020604051808303816000875af115801561272f573d6000803e3d6000fd5b505050506040513d601f19601f820116820180604052508101906127539190615804565b6127c55760405162461bcd60e51b815260206004820152602c60248201527f53656375726974697a6174696f6e506f6f6c3a2063757272656e63792d74726160448201527f6e736665722d6661696c656400000000000000000000000000000000000000006064820152608401610c35565b610130546001600160a01b0380851691160361280a576001600160a01b03841660009081526101446020526040812080548492906128049084906158be565b90915550505b611f476001606555565b61281c61435f565b6128246143b4565b61012d5461283a906001600160a01b0316614505565b6001600160a01b0316336001600160a01b0316146128c05760405162461bcd60e51b815260206004820152602d60248201527f53656375726974697a6174696f6e506f6f6c3a204f6e6c79204469737472696260448201527f7574696f6e4f70657261746f72000000000000000000000000000000000000006064820152608401610c35565b6001600160a01b03808516600090815261013860209081526040808320938716835292905220546128f29083906158a7565b6001600160a01b03808616600081815261013860209081526040808320948916808452948252808320959095559181526101398252838120928152919052205461293d9082906158a7565b6001600160a01b0380861660009081526101396020908152604080832093881683529290522055610136546129739083906158a7565b61013655610135546129869083906158be565b610135556001600160a01b038416600090815261013760205260409020546129af9082906158a7565b6001600160a01b03851660009081526101376020526040902055611f476001606555565b6060610142805480602002602001604051908101604052809291908181526020018280548015612a2c57602002820191906000526020600020905b81546001600160a01b03168152600190910190602001808311612a0e575b5050505050905090565b6101408181548110612a4757600080fd5b60009182526020909120600290910201805460019091015463ffffffff80831693506401000000008084048216936801000000000000000081048316936c0100000000000000000000000082048416937001000000000000000000000000000000008304811693740100000000000000000000000000000000000000008404821693780100000000000000000000000000000000000000000000000081048316937c010000000000000000000000000000000000000000000000000000000090910483169281811692909104168a565b600054610100900460ff1615808015612b375750600054600160ff909116105b80612b515750303b158015612b51575060005460ff166001145b612bc35760405162461bcd60e51b815260206004820152602e60248201527f496e697469616c697a61626c653a20636f6e747261637420697320616c72656160448201527f647920696e697469616c697a65640000000000000000000000000000000000006064820152608401610c35565b6000805460ff191660011790558015612c0357600080547fffffffffffffffffffffffffffffffffffffffffffffffffffffffffffff00ff166101001790555b612c106127106064615888565b8263ffffffff1610612c8a5760405162461bcd60e51b815260206004820152602760248201527f6d696e46697273744c6f737343757368696f6e2069732067726561746572207460448201527f68616e20313030000000000000000000000000000000000000000000000000006064820152608401610c35565b612c93336145a0565b612cdd7f59abfac6520ec36a6556b2a4dd949cc40007459bcd5cd2507f1e5cc77b6bc97e7fb19546dff01e856fb3f010c267a7b1c60363cf8a4664e21cc89c26224620214e614626565b61012d80547fffffffffffffffffffffffff00000000000000000000000000000000000000009081166001600160a01b03878116919091179092556101458054309216821790556040517f095ea7b3000000000000000000000000000000000000000000000000000000008152600481019190915260001960248201529084169063095ea7b3906044016020604051808303816000875af1158015612d86573d6000803e3d6000fd5b505050506040513d601f19601f82011682018060405250810190612daa9190615804565b5061012d54612dc1906001600160a01b0316614352565b61012d546001600160a01b039182169163a22cb46591612de19116614671565b6040517fffffffff0000000000000000000000000000000000000000000000000000000060e084901b1681526001600160a01b03909116600482015260016024820152604401600060405180830381600087803b158015612e4157600080fd5b505af1158015612e55573d6000803e3d6000fd5b505061013280547fffffffffffffffffffffff000000000000000000000000000000000000000000166001600160a01b038716179055505061013f80547fffffffffffffffffffffffffffffffffffffffffffffffff00000000ffffffff1664010000000063ffffffff8516021790558015611f4757600080547fffffffffffffffffffffffffffffffffffffffffffffffffffffffffffff00ff169055604051600181527f7f26b83ff96e1f2b6a682f133852f6798a09c465da95921460cefb38474024989060200160405180910390a150505050565b610130546000906001600160a01b03161561302c5761013060009054906101000a90046001600160a01b03166001600160a01b03166318160ddd6040518163ffffffff1660e01b8152600401602060405180830381865afa158015612f96573d6000803e3d6000fd5b505050506040513d601f19601f82011682018060405250810190612fba9190615826565b1561302c5760405162461bcd60e51b8152602060048201526024808201527f53656375726974697a6174696f6e506f6f6c3a20534f54207374696c6c20726560448201527f6d61696e000000000000000000000000000000000000000000000000000000006064820152608401610c35565b610131546001600160a01b0316156131285761013160009054906101000a90046001600160a01b03166001600160a01b03166318160ddd6040518163ffffffff1660e01b8152600401602060405180830381865afa158015613092573d6000803e3d6000fd5b505050506040513d601f19601f820116820180604052508101906130b69190615826565b156131285760405162461bcd60e51b8152602060048201526024808201527f53656375726974697a6174696f6e506f6f6c3a204a4f54207374696c6c20726560448201527f6d61696e000000000000000000000000000000000000000000000000000000006064820152608401610c35565b50600190565b600060036101325474010000000000000000000000000000000000000000900460ff1660038111156131625761316261574a565b14905090565b61317061435f565b6131786143b4565b7fb19546dff01e856fb3f010c267a7b1c60363cf8a4664e21cc89c26224620214e6131a2816144cc565b60026101325474010000000000000000000000000000000000000000900460ff1660038111156131d4576131d461574a565b14158015613212575060036101325474010000000000000000000000000000000000000000900460ff16600381111561320f5761320f61574a565b14155b61325e5760405162461bcd60e51b815260206004820152601a60248201527f4e6f7420696e2069737375696e6720746f6b656e2073746167650000000000006044820152606401610c35565b61012e546001600160a01b0316156134025761012e54604080517fb3f05b9700000000000000000000000000000000000000000000000000000000815290516001600160a01b0390921691829163b3f05b979160048083019260209291908290030181865afa1580156132d5573d6000803e3d6000fd5b505050506040513d601f19601f820116820180604052508101906132f99190615804565b61336b5760405162461bcd60e51b815260206004820152602a60248201527f53656375726974697a6174696f6e506f6f6c3a2073616c65206973207374696c60448201527f6c206f6e20676f696e67000000000000000000000000000000000000000000006064820152608401610c35565b61012e546040517fa38a52a600000000000000000000000000000000000000000000000000000000815263ffffffff8616600482015267ffffffffffffffff8089166024830152851660448201526001600160a01b039091169063a38a52a690606401600060405180830381600087803b1580156133e857600080fd5b505af11580156133fc573d6000803e3d6000fd5b50505050505b61012f546001600160a01b0316156134fe5761012f60009054906101000a90046001600160a01b03166001600160a01b031663b3f05b976040518163ffffffff1660e01b8152600401602060405180830381865afa158015613468573d6000803e3d6000fd5b505050506040513d601f19601f8201168201806040525081019061348c9190615804565b6134fe5760405162461bcd60e51b815260206004820152603160248201527f53656375726974697a6174696f6e506f6f6c3a207365636f6e642073616c652060448201527f6973207374696c6c206f6e20676f696e670000000000000000000000000000006064820152608401610c35565b60008567ffffffffffffffff161161357d5760405162461bcd60e51b8152602060048201526024808201527f53656375726974697a6174696f6e506f6f6c3a205465726d206c656e6774682060448201527f69732030000000000000000000000000000000000000000000000000000000006064820152608401610c35565b61013280547fffffff0000000000000000ffffffffffffffffffffffffffffffffffffffffff16750100000000000000000000000000000000000000000067ffffffffffffffff858116919091029190911790915561013380547fffffffffffffffffffffffffffffffffffffffffffffffff00000000000000001691871691909117905561013d84905561013f5463ffffffff1660000361364b5761013f80547fffffffffffffffffffffffffffffffffffffffffffffffffffffffff000000001663ffffffff85161790555b5061013280547fffffffffffffffffffffff00ffffffffffffffffffffffffffffffffffffffff16740200000000000000000000000000000000000000001790556001606555611f47565b60006136a1816144cc565b611be361467e565b6136b161435f565b6136b96143b4565b7fb19546dff01e856fb3f010c267a7b1c60363cf8a4664e21cc89c26224620214e6136e3816144cc565b6136eb612f2d565b61375d5760405162461bcd60e51b815260206004820152602f60248201527f53656375726974697a6174696f6e506f6f6c3a20526564656d7074696f6e206860448201527f6173206e6f742066696e697368656400000000000000000000000000000000006064820152608401610c35565b61013254610145546040517f70a082310000000000000000000000000000000000000000000000000000000081526001600160a01b0391821660048201819052919092169182916323b872dd91869084906370a0823190602401602060405180830381865afa1580156137d4573d6000803e3d6000fd5b505050506040513d601f19601f820116820180604052508101906137f89190615826565b6040517fffffffff0000000000000000000000000000000000000000000000000000000060e086901b1681526001600160a01b03938416600482015292909116602483015260448201526064016020604051808303816000875af1158015613864573d6000803e3d6000fd5b505050506040513d601f19601f820116820180604052508101906138889190615804565b505050611be36001606555565b600082815260fb602052604081206138ad90836146bb565b9392505050565b6138bc61435f565b6138c46143b4565b61012d546138da906001600160a01b03166146c7565b6001600160a01b0316336001600160a01b0316146139605760405162461bcd60e51b815260206004820152602c60248201527f53656375726974697a6174696f6e506f6f6c3a204f6e6c79204c6f616e52657060448201527f61796d656e74526f7574657200000000000000000000000000000000000000006064820152608401610c35565b806101345461396f91906158be565b6101345561013a546139829082906158be565b61013a55611be36001606555565b61399861435f565b6139a06143b4565b7fb19546dff01e856fb3f010c267a7b1c60363cf8a4664e21cc89c26224620214e6139ca816144cc565b858414613a3f5760405162461bcd60e51b815260206004820152603760248201527f746f6b656e416464726573736573206c656e67746820616e6420746f6b656e4960448201527f6473206c656e67746820617265206e6f7420657175616c0000000000000000006064820152608401610c35565b858214613ab45760405162461bcd60e51b815260206004820152603960248201527f746f6b656e416464726573736573206c656e67746820616e642072656369706960448201527f656e7473206c656e67746820617265206e6f7420657175616c000000000000006064820152608401610c35565b60005b84811015611a8757613b07888883818110613ad457613ad46157d5565b9050602002016020810190613ae991906153ee565b878784818110613afb57613afb6157d5565b905060200201356146d4565b613b795760405162461bcd60e51b815260206004820152602860248201527f53656375726974697a6174696f6e506f6f6c3a20417373657420646f6573206e60448201527f6f742065786973740000000000000000000000000000000000000000000000006064820152608401610c35565b878782818110613b8b57613b8b6157d5565b9050602002016020810190613ba091906153ee565b6001600160a01b03166342842e0e30868685818110613bc157613bc16157d5565b9050602002016020810190613bd691906153ee565b898986818110613be857613be86157d5565b6040517fffffffff0000000000000000000000000000000000000000000000000000000060e088901b1681526001600160a01b03958616600482015294909316602485015250602090910201356044820152606401600060405180830381600087803b158015613c5757600080fd5b505af1158015613c6b573d6000803e3d6000fd5b505050508080613c7a9061586e565b915050613ab7565b613c8a61435f565b61012e546001600160a01b0316336001600160a01b031614613d145760405162461bcd60e51b815260206004820152603060248201527f53656375726974697a6174696f6e506f6f6c3a204f6e6c79207467652063616e60448201527f2075706461746520696e746572657374000000000000000000000000000000006064820152608401610c35565b61013f80547fffffffffffffffffffffffffffffffffffffffffffffffffffffffff000000001663ffffffff92909216919091179055565b600081815260fb60205260408120610b6390614780565b600082815260c96020526040902060010154613d7e816144cc565b611c0b8383614512565b6101428181548110613d9957600080fd5b6000918252602090912001546001600160a01b0316905081565b613dbb61435f565b613dc36143b4565b613dcb61312e565b15613e3e5760405162461bcd60e51b815260206004820152602860248201527f53656375726974697a6174696f6e506f6f6c3a20506f6f6c20696e20636c6f7360448201527f65642073746174650000000000000000000000000000000000000000000000006064820152608401610c35565b7fb19546dff01e856fb3f010c267a7b1c60363cf8a4664e21cc89c26224620214e613e68816144cc565b60005b82811015611f3b57613e8986858584818110613afb57613afb6157d5565b613efb5760405162461bcd60e51b815260206004820152602860248201527f53656375726974697a6174696f6e506f6f6c3a20417373657420646f6573206e60448201527f6f742065786973740000000000000000000000000000000000000000000000006064820152608401610c35565b856001600160a01b031663095ea7b386868685818110613f1d57613f1d6157d5565b6040517fffffffff0000000000000000000000000000000000000000000000000000000060e087901b1681526001600160a01b0390941660048501526020029190910135602483015250604401600060405180830381600087803b158015613f8457600080fd5b505af1158015613f98573d6000803e3d6000fd5b50505050856001600160a01b03166342842e0e3087878786818110613fbf57613fbf6157d5565b6040517fffffffff0000000000000000000000000000000000000000000000000000000060e088901b1681526001600160a01b03958616600482015294909316602485015250602090910201356044820152606401600060405180830381600087803b15801561402e57600080fd5b505af1158015614042573d6000803e3d6000fd5b50505050806140509061586e565b9050613e6b565b61405f61435f565b6140676143b4565b61406f61312e565b156140e25760405162461bcd60e51b815260206004820152602860248201527f53656375726974697a6174696f6e506f6f6c3a20506f6f6c20696e20636c6f7360448201527f65642073746174650000000000000000000000000000000000000000000000006064820152608401610c35565b7fb19546dff01e856fb3f010c267a7b1c60363cf8a4664e21cc89c26224620214e61410c816144cc565b6001600160a01b03821660009081527f8b9c60e99117f5032802dca1150f0b5e8c20c85aaaf9b6948c204e6687095705602052604090205460ff161561415157600080fd5b610145546001600160a01b038084169116036141d55760405162461bcd60e51b815260206004820152603160248201527f53656375726974697a6174696f6e506f6f6c3a2053616d65206164647265737360448201527f20776974682063757272656e7420706f740000000000000000000000000000006064820152608401610c35565b61014580547fffffffffffffffffffffffff0000000000000000000000000000000000000000166001600160a01b03841690811790915530900361426a5761013254610145546040517f095ea7b30000000000000000000000000000000000000000000000000000000081526001600160a01b039182166004820152600019602482015291169063095ea7b390604401611b94565b50611be36001606555565b610141818154811061428657600080fd5b6000918252602090912060029091020180546001909101546001600160a01b03909116915082565b60007fffffffff0000000000000000000000000000000000000000000000000000000082167f7965db0b000000000000000000000000000000000000000000000000000000001480610b6357507f01ffc9a7000000000000000000000000000000000000000000000000000000007fffffffff00000000000000000000000000000000000000000000000000000000831614610b63565b6000610b6382600861478a565b6000610b6382600761478a565b60335460ff16156143b25760405162461bcd60e51b815260206004820152601060248201527f5061757361626c653a20706175736564000000000000000000000000000000006044820152606401610c35565b565b6002606554036144065760405162461bcd60e51b815260206004820152601f60248201527f5265656e7472616e637947756172643a207265656e7472616e742063616c6c006044820152606401610c35565b6002606555565b6000610b6382600261478a565b6001600160a01b0381166000908152610143602052604090205460ff166144a05761014280546001810182556000919091527f7917ad5f1bd6fa6d4f9128143f89bcba30c5b503e76ecd2dd7562ddf9706ae190180547fffffffffffffffffffffffff0000000000000000000000000000000000000000166001600160a01b0383161790555b6001600160a01b0316600090815261014360205260409020805460ff19166001179055565b6001606555565b611be38133614827565b6000610b6382601061478a565b6144ed82826148ba565b600082815260fb60205260409020611c0b908261495c565b6000610b6382600461478a565b61451c8282614971565b600082815260fb60205260409020611c0b90826149f4565b61453c614a09565b6033805460ff191690557f5db9ee0a495bf2e6ff9c91a7834c1ba4fdd244a5e8aa4e537bd38aeae4b073aa335b6040516001600160a01b03909116815260200160405180910390a1565b6000610b6382600061478a565b6000610b6382600661478a565b600054610100900460ff1661461d5760405162461bcd60e51b815260206004820152602b60248201527f496e697469616c697a61626c653a20636f6e7472616374206973206e6f74206960448201527f6e697469616c697a696e670000000000000000000000000000000000000000006064820152608401610c35565b611be381614a5b565b600082815260c96020526040808220600101805490849055905190918391839186917fbd79b86ffe0ab8e8776151514217cd7cacd52c909f66475c3af44e129f0b00ff9190a4505050565b6000610b6382600c61478a565b61468661435f565b6033805460ff191660011790557f62e78cea01bee320cd4e420270b5ea74000d11b0c9f74754ebdbfc544b05a2586145693390565b60006138ad8383614b60565b6000610b6382600b61478a565b6000805b6101415481101561477657836001600160a01b03166101418281548110614701576147016157d5565b60009182526020909120600290910201546001600160a01b031614801561474c5750826101418281548110614738576147386157d5565b906000526020600020906002020160010154145b156147645761475a81614b8a565b6001915050610b63565b8061476e8161586e565b9150506146d8565b5060009392505050565b6000610b63825490565b6000826001600160a01b031663bcaa0c5583601e8111156147ad576147ad61574a565b6040517fffffffff0000000000000000000000000000000000000000000000000000000060e084901b16815260ff9091166004820152602401602060405180830381865afa158015614803573d6000803e3d6000fd5b505050506040513d601f19601f820116820180604052508101906138ad91906158d6565b600082815260c9602090815260408083206001600160a01b038516845290915290205460ff16610fa05761485a81614c73565b614865836020614c85565b60405160200161487692919061591f565b604080517fffffffffffffffffffffffffffffffffffffffffffffffffffffffffffffffe08184030181529082905262461bcd60e51b8252610c35916004016159a0565b600082815260c9602090815260408083206001600160a01b038516845290915290205460ff16610fa057600082815260c9602090815260408083206001600160a01b03851684529091529020805460ff191660011790556149183390565b6001600160a01b0316816001600160a01b0316837f2f8788117e7eff1d82e926ec794901d17c78024a50270940304540a733656f0d60405160405180910390a45050565b60006138ad836001600160a01b038416614eae565b600082815260c9602090815260408083206001600160a01b038516845290915290205460ff1615610fa057600082815260c9602090815260408083206001600160a01b0385168085529252808320805460ff1916905551339285917ff6391f5c32d9c69d2a47ea670b442974b53935d1edc7fd64eb21e047a839171b9190a45050565b60006138ad836001600160a01b038416614efd565b60335460ff166143b25760405162461bcd60e51b815260206004820152601460248201527f5061757361626c653a206e6f74207061757365640000000000000000000000006044820152606401610c35565b600054610100900460ff16614ad85760405162461bcd60e51b815260206004820152602b60248201527f496e697469616c697a61626c653a20636f6e7472616374206973206e6f74206960448201527f6e697469616c697a696e670000000000000000000000000000000000000000006064820152608401610c35565b614ae0614ff0565b614ae8615079565b614af06150f6565b6001600160a01b038116614b015750335b614b0c600082615173565b614b367fb19546dff01e856fb3f010c267a7b1c60363cf8a4664e21cc89c26224620214e82615173565b611be37fb19546dff01e856fb3f010c267a7b1c60363cf8a4664e21cc89c26224620214e80614626565b6000826000018281548110614b7757614b776157d5565b9060005260206000200154905092915050565b6101418054614b9b906001906158a7565b81548110614bab57614bab6157d5565b90600052602060002090600202016101418281548110614bcd57614bcd6157d5565b60009182526020909120825460029092020180547fffffffffffffffffffffffff0000000000000000000000000000000000000000166001600160a01b03909216919091178155600191820154910155610141805480614c2f57614c2f6159f1565b60008281526020812060026000199093019283020180547fffffffffffffffffffffffff000000000000000000000000000000000000000016815560010155905550565b6060610b636001600160a01b03831660145b60606000614c94836002615888565b614c9f9060026158be565b67ffffffffffffffff811115614cb757614cb7615233565b6040519080825280601f01601f191660200182016040528015614ce1576020820181803683370190505b5090507f300000000000000000000000000000000000000000000000000000000000000081600081518110614d1857614d186157d5565b60200101907effffffffffffffffffffffffffffffffffffffffffffffffffffffffffffff1916908160001a9053507f780000000000000000000000000000000000000000000000000000000000000081600181518110614d7b57614d7b6157d5565b60200101907effffffffffffffffffffffffffffffffffffffffffffffffffffffffffffff1916908160001a9053506000614db7846002615888565b614dc29060016158be565b90505b6001811115614e5f577f303132333435363738396162636465660000000000000000000000000000000085600f1660108110614e0357614e036157d5565b1a60f81b828281518110614e1957614e196157d5565b60200101907effffffffffffffffffffffffffffffffffffffffffffffffffffffffffffff1916908160001a90535060049490941c93614e5881615a20565b9050614dc5565b5083156138ad5760405162461bcd60e51b815260206004820181905260248201527f537472696e67733a20686578206c656e67746820696e73756666696369656e746044820152606401610c35565b6000818152600183016020526040812054614ef557508154600181810184556000848152602080822090930184905584548482528286019093526040902091909155610b63565b506000610b63565b60008181526001830160205260408120548015614fe6576000614f216001836158a7565b8554909150600090614f35906001906158a7565b9050818114614f9a576000866000018281548110614f5557614f556157d5565b9060005260206000200154905080876000018481548110614f7857614f786157d5565b6000918252602080832090910192909255918252600188019052604090208390555b8554869080614fab57614fab6159f1565b600190038181906000526020600020016000905590558560010160008681526020019081526020016000206000905560019350505050610b63565b6000915050610b63565b600054610100900460ff1661506d5760405162461bcd60e51b815260206004820152602b60248201527f496e697469616c697a61626c653a20636f6e7472616374206973206e6f74206960448201527f6e697469616c697a696e670000000000000000000000000000000000000000006064820152608401610c35565b6033805460ff19169055565b600054610100900460ff166144c55760405162461bcd60e51b815260206004820152602b60248201527f496e697469616c697a61626c653a20636f6e7472616374206973206e6f74206960448201527f6e697469616c697a696e670000000000000000000000000000000000000000006064820152608401610c35565b600054610100900460ff166143b25760405162461bcd60e51b815260206004820152602b60248201527f496e697469616c697a61626c653a20636f6e7472616374206973206e6f74206960448201527f6e697469616c697a696e670000000000000000000000000000000000000000006064820152608401610c35565b610fa082826144e3565b5080546000825560020290600052602060002090810190611be391905b808211156151d857600081556001810180547fffffffffffffffffffffffffffffffffffffffffffffffff000000000000000016905560020161519a565b5090565b6000602082840312156151ee57600080fd5b81357fffffffff00000000000000000000000000000000000000000000000000000000811681146138ad57600080fd5b6001600160a01b0381168114611be357600080fd5b7f4e487b7100000000000000000000000000000000000000000000000000000000600052604160045260246000fd5b6000806000806080858703121561527857600080fd5b84356152838161521e565b935060208501356152938161521e565b925060408501359150606085013567ffffffffffffffff808211156152b757600080fd5b818701915087601f8301126152cb57600080fd5b8135818111156152dd576152dd615233565b604051601f82017fffffffffffffffffffffffffffffffffffffffffffffffffffffffffffffffe0908116603f0116810190838211818310171561532357615323615233565b816040528281528a602084870101111561533c57600080fd5b82602086016020830137600060208483010152809550505050505092959194509250565b60008083601f84011261537257600080fd5b50813567ffffffffffffffff81111561538a57600080fd5b6020830191508360208260051b85010111156153a557600080fd5b9250929050565b600080602083850312156153bf57600080fd5b823567ffffffffffffffff8111156153d657600080fd5b6153e285828601615360565b90969095509350505050565b60006020828403121561540057600080fd5b81356138ad8161521e565b6000806000806000806060878903121561542457600080fd5b863567ffffffffffffffff8082111561543c57600080fd5b6154488a838b01615360565b9098509650602089013591508082111561546157600080fd5b61546d8a838b01615360565b9096509450604089013591508082111561548657600080fd5b5061549389828a01615360565b979a9699509497509295939492505050565b6000602082840312156154b757600080fd5b5035919050565b600080604083850312156154d157600080fd5b8235915060208301356154e38161521e565b809150509250929050565b6000806000806080858703121561550457600080fd5b843561550f8161521e565b9350602085013561551f8161521e565b93969395505050506040820135916060013590565b6000806000806060858703121561554a57600080fd5b84356155558161521e565b935060208501356155658161521e565b9250604085013567ffffffffffffffff81111561558157600080fd5b61558d87828801615360565b95989497509550505050565b6000806000606084860312156155ae57600080fd5b83356155b98161521e565b925060208401356155c98161521e565b91506040840135600281106155dd57600080fd5b809150509250925092565b6020808252825182820181905260009190848201906040850190845b818110156156295783516001600160a01b031683529284019291840191600101615604565b50909695505050505050565b803563ffffffff8116811461564957600080fd5b919050565b60008060006060848603121561566357600080fd5b833561566e8161521e565b9250602084013561567e8161521e565b915061568c60408501615635565b90509250925092565b600080604083850312156156a857600080fd5b82356156b38161521e565b915060208301356154e38161521e565b803567ffffffffffffffff8116811461564957600080fd5b600080600080608085870312156156f157600080fd5b6156fa856156c3565b93506020850135925061570f60408601615635565b915061571d606086016156c3565b905092959194509250565b6000806040838503121561573b57600080fd5b50508035926020909101359150565b7f4e487b7100000000000000000000000000000000000000000000000000000000600052602160045260246000fd5b60208101600483106157b4577f4e487b7100000000000000000000000000000000000000000000000000000000600052602160045260246000fd5b91905290565b6000602082840312156157cc57600080fd5b6138ad82615635565b7f4e487b7100000000000000000000000000000000000000000000000000000000600052603260045260246000fd5b60006020828403121561581657600080fd5b815180151581146138ad57600080fd5b60006020828403121561583857600080fd5b5051919050565b7f4e487b7100000000000000000000000000000000000000000000000000000000600052601160045260246000fd5b600060001982036158815761588161583f565b5060010190565b60008160001904831182151516156158a2576158a261583f565b500290565b6000828210156158b9576158b961583f565b500390565b600082198211156158d1576158d161583f565b500190565b6000602082840312156158e857600080fd5b81516138ad8161521e565b60005b8381101561590e5781810151838201526020016158f6565b83811115611f475750506000910152565b7f416363657373436f6e74726f6c3a206163636f756e74200000000000000000008152600083516159578160178501602088016158f3565b7f206973206d697373696e6720726f6c652000000000000000000000000000000060179184019182015283516159948160288401602088016158f3565b01602801949350505050565b60208152600082518060208401526159bf8160408501602087016158f3565b601f017fffffffffffffffffffffffffffffffffffffffffffffffffffffffffffffffe0169190910160400192915050565b7f4e487b7100000000000000000000000000000000000000000000000000000000600052603160045260246000fd5b600081615a2f57615a2f61583f565b50600019019056fea26469706673582212206ee676812a30b0a0e56278d8f01d9d4dcea061add627cc6b9e678d58e80b590764736f6c634300080d0033"
}