{
  "address": "0xC839b27ca5b728b44cBB5E8a58930c59F8D24F91",
  "abi": [
    {
      "anonymous": false,
      "inputs": [
        {
          "indexed": true,
          "internalType": "address",
          "name": "account",
          "type": "address"
        },
        {
          "indexed": true,
          "internalType": "address",
          "name": "operator",
          "type": "address"
        },
        {
          "indexed": false,
          "internalType": "bool",
          "name": "approved",
          "type": "bool"
        }
      ],
      "name": "ApprovalForAll",
      "type": "event"
    },
    {
      "anonymous": false,
      "inputs": [
        {
          "indexed": false,
          "internalType": "address",
          "name": "account",
          "type": "address"
        }
      ],
      "name": "Paused",
      "type": "event"
    },
    {
      "anonymous": false,
      "inputs": [
        {
          "indexed": true,
          "internalType": "bytes32",
          "name": "role",
          "type": "bytes32"
        },
        {
          "indexed": true,
          "internalType": "bytes32",
          "name": "previousAdminRole",
          "type": "bytes32"
        },
        {
          "indexed": true,
          "internalType": "bytes32",
          "name": "newAdminRole",
          "type": "bytes32"
        }
      ],
      "name": "RoleAdminChanged",
      "type": "event"
    },
    {
      "anonymous": false,
      "inputs": [
        {
          "indexed": true,
          "internalType": "bytes32",
          "name": "role",
          "type": "bytes32"
        },
        {
          "indexed": true,
          "internalType": "address",
          "name": "account",
          "type": "address"
        },
        {
          "indexed": true,
          "internalType": "address",
          "name": "sender",
          "type": "address"
        }
      ],
      "name": "RoleGranted",
      "type": "event"
    },
    {
      "anonymous": false,
      "inputs": [
        {
          "indexed": true,
          "internalType": "bytes32",
          "name": "role",
          "type": "bytes32"
        },
        {
          "indexed": true,
          "internalType": "address",
          "name": "account",
          "type": "address"
        },
        {
          "indexed": true,
          "internalType": "address",
          "name": "sender",
          "type": "address"
        }
      ],
      "name": "RoleRevoked",
      "type": "event"
    },
    {
      "anonymous": false,
      "inputs": [
        {
          "indexed": true,
          "internalType": "address",
          "name": "operator",
          "type": "address"
        },
        {
          "indexed": true,
          "internalType": "address",
          "name": "from",
          "type": "address"
        },
        {
          "indexed": true,
          "internalType": "address",
          "name": "to",
          "type": "address"
        },
        {
          "indexed": false,
          "internalType": "uint256[]",
          "name": "ids",
          "type": "uint256[]"
        },
        {
          "indexed": false,
          "internalType": "uint256[]",
          "name": "values",
          "type": "uint256[]"
        }
      ],
      "name": "TransferBatch",
      "type": "event"
    },
    {
      "anonymous": false,
      "inputs": [
        {
          "indexed": true,
          "internalType": "address",
          "name": "operator",
          "type": "address"
        },
        {
          "indexed": true,
          "internalType": "address",
          "name": "from",
          "type": "address"
        },
        {
          "indexed": true,
          "internalType": "address",
          "name": "to",
          "type": "address"
        },
        {
          "indexed": false,
          "internalType": "uint256",
          "name": "id",
          "type": "uint256"
        },
        {
          "indexed": false,
          "internalType": "uint256",
          "name": "value",
          "type": "uint256"
        }
      ],
      "name": "TransferSingle",
      "type": "event"
    },
    {
      "anonymous": false,
      "inputs": [
        {
          "indexed": false,
          "internalType": "string",
          "name": "value",
          "type": "string"
        },
        {
          "indexed": true,
          "internalType": "uint256",
          "name": "id",
          "type": "uint256"
        }
      ],
      "name": "URI",
      "type": "event"
    },
    {
      "anonymous": false,
      "inputs": [
        {
          "indexed": false,
          "internalType": "address",
          "name": "account",
          "type": "address"
        }
      ],
      "name": "Unpaused",
      "type": "event"
    },
    {
      "inputs": [],
      "name": "DEFAULT_ADMIN_ROLE",
      "outputs": [
        {
          "internalType": "bytes32",
          "name": "",
          "type": "bytes32"
        }
      ],
      "stateMutability": "view",
      "type": "function"
    },
    {
      "inputs": [],
      "name": "ID_TYPE_0",
      "outputs": [
        {
          "internalType": "uint256",
          "name": "",
          "type": "uint256"
        }
      ],
      "stateMutability": "view",
      "type": "function"
    },
    {
      "inputs": [],
      "name": "ID_TYPE_1",
      "outputs": [
        {
          "internalType": "uint256",
          "name": "",
          "type": "uint256"
        }
      ],
      "stateMutability": "view",
      "type": "function"
    },
    {
      "inputs": [],
      "name": "ID_TYPE_10",
      "outputs": [
        {
          "internalType": "uint256",
          "name": "",
          "type": "uint256"
        }
      ],
      "stateMutability": "view",
      "type": "function"
    },
    {
      "inputs": [],
      "name": "ID_TYPE_2",
      "outputs": [
        {
          "internalType": "uint256",
          "name": "",
          "type": "uint256"
        }
      ],
      "stateMutability": "view",
      "type": "function"
    },
    {
      "inputs": [],
      "name": "ID_TYPE_3",
      "outputs": [
        {
          "internalType": "uint256",
          "name": "",
          "type": "uint256"
        }
      ],
      "stateMutability": "view",
      "type": "function"
    },
    {
      "inputs": [],
      "name": "ID_TYPE_4",
      "outputs": [
        {
          "internalType": "uint256",
          "name": "",
          "type": "uint256"
        }
      ],
      "stateMutability": "view",
      "type": "function"
    },
    {
      "inputs": [],
      "name": "ID_TYPE_5",
      "outputs": [
        {
          "internalType": "uint256",
          "name": "",
          "type": "uint256"
        }
      ],
      "stateMutability": "view",
      "type": "function"
    },
    {
      "inputs": [],
      "name": "ID_TYPE_6",
      "outputs": [
        {
          "internalType": "uint256",
          "name": "",
          "type": "uint256"
        }
      ],
      "stateMutability": "view",
      "type": "function"
    },
    {
      "inputs": [],
      "name": "ID_TYPE_7",
      "outputs": [
        {
          "internalType": "uint256",
          "name": "",
          "type": "uint256"
        }
      ],
      "stateMutability": "view",
      "type": "function"
    },
    {
      "inputs": [],
      "name": "ID_TYPE_8",
      "outputs": [
        {
          "internalType": "uint256",
          "name": "",
          "type": "uint256"
        }
      ],
      "stateMutability": "view",
      "type": "function"
    },
    {
      "inputs": [],
      "name": "ID_TYPE_9",
      "outputs": [
        {
          "internalType": "uint256",
          "name": "",
          "type": "uint256"
        }
      ],
      "stateMutability": "view",
      "type": "function"
    },
    {
      "inputs": [],
      "name": "MINT_COST_PER_TOKEN",
      "outputs": [
        {
          "internalType": "uint256",
          "name": "",
          "type": "uint256"
        }
      ],
      "stateMutability": "view",
      "type": "function"
    },
    {
      "inputs": [],
      "name": "OWNER_ROLE",
      "outputs": [
        {
          "internalType": "bytes32",
          "name": "",
          "type": "bytes32"
        }
      ],
      "stateMutability": "view",
      "type": "function"
    },
    {
      "inputs": [],
      "name": "PAUSER_ROLE",
      "outputs": [
        {
          "internalType": "bytes32",
          "name": "",
          "type": "bytes32"
        }
      ],
      "stateMutability": "view",
      "type": "function"
    },
    {
      "inputs": [],
      "name": "SIGNER_ROLE",
      "outputs": [
        {
          "internalType": "bytes32",
          "name": "",
          "type": "bytes32"
        }
      ],
      "stateMutability": "view",
      "type": "function"
    },
    {
      "inputs": [
        {
          "internalType": "address",
          "name": "account",
          "type": "address"
        },
        {
          "internalType": "uint256",
          "name": "id",
          "type": "uint256"
        }
      ],
      "name": "balanceOf",
      "outputs": [
        {
          "internalType": "uint256",
          "name": "",
          "type": "uint256"
        }
      ],
      "stateMutability": "view",
      "type": "function"
    },
    {
      "inputs": [
        {
          "internalType": "address[]",
          "name": "accounts",
          "type": "address[]"
        },
        {
          "internalType": "uint256[]",
          "name": "ids",
          "type": "uint256[]"
        }
      ],
      "name": "balanceOfBatch",
      "outputs": [
        {
          "internalType": "uint256[]",
          "name": "",
          "type": "uint256[]"
        }
      ],
      "stateMutability": "view",
      "type": "function"
    },
    {
      "inputs": [
        {
          "internalType": "address",
          "name": "account",
          "type": "address"
        },
        {
          "internalType": "uint256",
          "name": "id",
          "type": "uint256"
        },
        {
          "internalType": "uint256",
          "name": "expiresAt",
          "type": "uint256"
        },
        {
          "internalType": "bytes",
          "name": "signature",
          "type": "bytes"
        }
      ],
      "name": "burn",
      "outputs": [],
      "stateMutability": "nonpayable",
      "type": "function"
    },
    {
      "inputs": [
        {
          "internalType": "bytes32",
          "name": "role",
          "type": "bytes32"
        }
      ],
      "name": "getRoleAdmin",
      "outputs": [
        {
          "internalType": "bytes32",
          "name": "",
          "type": "bytes32"
        }
      ],
      "stateMutability": "view",
      "type": "function"
    },
    {
      "inputs": [
        {
          "internalType": "bytes32",
          "name": "role",
          "type": "bytes32"
        },
        {
          "internalType": "uint256",
          "name": "index",
          "type": "uint256"
        }
      ],
      "name": "getRoleMember",
      "outputs": [
        {
          "internalType": "address",
          "name": "",
          "type": "address"
        }
      ],
      "stateMutability": "view",
      "type": "function"
    },
    {
      "inputs": [
        {
          "internalType": "bytes32",
          "name": "role",
          "type": "bytes32"
        }
      ],
      "name": "getRoleMemberCount",
      "outputs": [
        {
          "internalType": "uint256",
          "name": "",
          "type": "uint256"
        }
      ],
      "stateMutability": "view",
      "type": "function"
    },
    {
      "inputs": [
        {
          "internalType": "bytes32",
          "name": "role",
          "type": "bytes32"
        },
        {
          "internalType": "address",
          "name": "account",
          "type": "address"
        }
      ],
      "name": "grantRole",
      "outputs": [],
      "stateMutability": "nonpayable",
      "type": "function"
    },
    {
      "inputs": [
        {
          "internalType": "bytes32",
          "name": "role",
          "type": "bytes32"
        },
        {
          "internalType": "address",
          "name": "account",
          "type": "address"
        }
      ],
      "name": "hasRole",
      "outputs": [
        {
          "internalType": "bool",
          "name": "",
          "type": "bool"
        }
      ],
      "stateMutability": "view",
      "type": "function"
    },
    {
      "inputs": [
        {
          "internalType": "address",
          "name": "owner",
          "type": "address"
        },
        {
          "internalType": "string",
          "name": "uri",
          "type": "string"
        }
      ],
      "name": "initialize",
      "outputs": [],
      "stateMutability": "nonpayable",
      "type": "function"
    },
    {
      "inputs": [],
      "name": "isAdmin",
      "outputs": [
        {
          "internalType": "bool",
          "name": "",
          "type": "bool"
        }
      ],
      "stateMutability": "view",
      "type": "function"
    },
    {
      "inputs": [
        {
          "internalType": "address",
          "name": "account",
          "type": "address"
        },
        {
          "internalType": "address",
          "name": "operator",
          "type": "address"
        }
      ],
      "name": "isApprovedForAll",
      "outputs": [
        {
          "internalType": "bool",
          "name": "",
          "type": "bool"
        }
      ],
      "stateMutability": "view",
      "type": "function"
    },
    {
      "inputs": [
        {
          "internalType": "uint256",
          "name": "id",
          "type": "uint256"
        },
        {
          "internalType": "uint256",
          "name": "expiresAt",
          "type": "uint256"
        },
        {
          "internalType": "bytes",
          "name": "signature",
          "type": "bytes"
        }
      ],
      "name": "mint",
      "outputs": [],
      "stateMutability": "payable",
      "type": "function"
    },
    {
      "inputs": [
        {
          "internalType": "address",
          "name": "recipient",
          "type": "address"
        },
        {
          "internalType": "uint256",
          "name": "id",
          "type": "uint256"
        },
        {
          "internalType": "uint256",
          "name": "expiresAt",
          "type": "uint256"
        },
        {
          "internalType": "bytes",
          "name": "signature",
          "type": "bytes"
        }
      ],
      "name": "mintTo",
      "outputs": [],
      "stateMutability": "payable",
      "type": "function"
    },
    {
      "inputs": [],
      "name": "name",
      "outputs": [
        {
          "internalType": "string",
          "name": "",
          "type": "string"
        }
      ],
      "stateMutability": "pure",
      "type": "function"
    },
    {
      "inputs": [
        {
          "internalType": "address",
          "name": "",
          "type": "address"
        }
      ],
      "name": "nonces",
      "outputs": [
        {
          "internalType": "uint256",
          "name": "",
          "type": "uint256"
        }
      ],
      "stateMutability": "view",
      "type": "function"
    },
    {
      "inputs": [],
      "name": "pause",
      "outputs": [],
      "stateMutability": "nonpayable",
      "type": "function"
    },
    {
      "inputs": [],
      "name": "paused",
      "outputs": [
        {
          "internalType": "bool",
          "name": "",
          "type": "bool"
        }
      ],
      "stateMutability": "view",
      "type": "function"
    },
    {
      "inputs": [
        {
          "internalType": "bytes32",
          "name": "role",
          "type": "bytes32"
        },
        {
          "internalType": "address",
          "name": "account",
          "type": "address"
        }
      ],
      "name": "renounceRole",
      "outputs": [],
      "stateMutability": "nonpayable",
      "type": "function"
    },
    {
      "inputs": [
        {
          "internalType": "bytes32",
          "name": "role",
          "type": "bytes32"
        },
        {
          "internalType": "address",
          "name": "account",
          "type": "address"
        }
      ],
      "name": "revokeRole",
      "outputs": [],
      "stateMutability": "nonpayable",
      "type": "function"
    },
    {
      "inputs": [
        {
          "internalType": "address",
          "name": "from",
          "type": "address"
        },
        {
          "internalType": "address",
          "name": "to",
          "type": "address"
        },
        {
          "internalType": "uint256[]",
          "name": "ids",
          "type": "uint256[]"
        },
        {
          "internalType": "uint256[]",
          "name": "amounts",
          "type": "uint256[]"
        },
        {
          "internalType": "bytes",
          "name": "data",
          "type": "bytes"
        }
      ],
      "name": "safeBatchTransferFrom",
      "outputs": [],
      "stateMutability": "nonpayable",
      "type": "function"
    },
    {
      "inputs": [
        {
          "internalType": "address",
          "name": "from",
          "type": "address"
        },
        {
          "internalType": "address",
          "name": "to",
          "type": "address"
        },
        {
          "internalType": "uint256",
          "name": "id",
          "type": "uint256"
        },
        {
          "internalType": "uint256",
          "name": "amount",
          "type": "uint256"
        },
        {
          "internalType": "bytes",
          "name": "data",
          "type": "bytes"
        }
      ],
      "name": "safeTransferFrom",
      "outputs": [],
      "stateMutability": "nonpayable",
      "type": "function"
    },
    {
      "inputs": [
        {
          "internalType": "address",
          "name": "operator",
          "type": "address"
        },
        {
          "internalType": "bool",
          "name": "approved",
          "type": "bool"
        }
      ],
      "name": "setApprovalForAll",
      "outputs": [],
      "stateMutability": "nonpayable",
      "type": "function"
    },
    {
      "inputs": [
        {
          "internalType": "uint256[]",
          "name": "ids",
          "type": "uint256[]"
        },
        {
          "internalType": "bool[]",
          "name": "values",
          "type": "bool[]"
        }
      ],
      "name": "setSupportedUIDTypes",
      "outputs": [],
      "stateMutability": "nonpayable",
      "type": "function"
    },
    {
      "inputs": [
        {
          "internalType": "string",
          "name": "newuri",
          "type": "string"
        }
      ],
      "name": "setURI",
      "outputs": [],
      "stateMutability": "nonpayable",
      "type": "function"
    },
    {
      "inputs": [
        {
          "internalType": "uint256",
          "name": "",
          "type": "uint256"
        }
      ],
      "name": "supportedUIDTypes",
      "outputs": [
        {
          "internalType": "bool",
          "name": "",
          "type": "bool"
        }
      ],
      "stateMutability": "view",
      "type": "function"
    },
    {
      "inputs": [
        {
          "internalType": "bytes4",
          "name": "interfaceId",
          "type": "bytes4"
        }
      ],
      "name": "supportsInterface",
      "outputs": [
        {
          "internalType": "bool",
          "name": "",
          "type": "bool"
        }
      ],
      "stateMutability": "view",
      "type": "function"
    },
    {
      "inputs": [],
      "name": "symbol",
      "outputs": [
        {
          "internalType": "string",
          "name": "",
          "type": "string"
        }
      ],
      "stateMutability": "pure",
      "type": "function"
    },
    {
      "inputs": [],
      "name": "unpause",
      "outputs": [],
      "stateMutability": "nonpayable",
      "type": "function"
    },
    {
      "inputs": [
        {
          "internalType": "uint256",
          "name": "",
          "type": "uint256"
        }
      ],
      "name": "uri",
      "outputs": [
        {
          "internalType": "string",
          "name": "",
          "type": "string"
        }
      ],
      "stateMutability": "view",
      "type": "function"
    }
  ],
  "transactionHash": "0x36810b6b6108f15c096194c739b50085eac7a9f9df3a4d96189973469e84f1b6",
  "args": [],
  "numDeployments": 1,
  "solcInputHash": "a4f50c3bc170c2fe8de14f3380bdd1f3",
  "bytecode": "0x608060405234801561001057600080fd5b50615023806100206000396000f3fe6080604052600436106102f15760003560e01c806380f878021161018f578063a22cb465116100e1578063e58378bb1161008a578063ec2e8a7511610064578063ec2e8a75146108e0578063f242432a146108f5578063f399e22e1461091557600080fd5b8063e58378bb14610822578063e63ab1e914610856578063e985e9c51461088a57600080fd5b8063d547741f116100bb578063d547741f146107d8578063ddd8f687146107f8578063e57a2a501461080d57600080fd5b8063a22cb46514610783578063b6db75a0146107a3578063ca15c873146107b857600080fd5b80639142575d116101435780639b56d7881161011d5780639b56d7881461073a578063a1ebf35d1461074f578063a217fddf1461073a57600080fd5b80639142575d1461067057806391d14854146106a157806395d89b41146106f457600080fd5b8063879dcceb11610174578063879dcceb146105eb5780638a94b05f1461060b5780639010d07c1461062b57600080fd5b806380f87802146105c15780638456cb59146105d657600080fd5b80632eb2c2d6116102485780634e1273f4116101fc578063701d240a116101d6578063701d240a146105695780637ecebe001461057e578063801dfa90146105ac57600080fd5b80634e1273f41461050f5780635344626a1461053c5780635c975abb1461055157600080fd5b806336568abe1161022d57806336568abe146104c55780633f4ba83a146104e5578063479e743c146104fa57600080fd5b80632eb2c2d6146104855780632f2ff15d146104a557600080fd5b80630e89341c116102aa578063280f4e2811610284578063280f4e28146104425780632dc2c007146104555780632e82d8951461047057600080fd5b80630e89341c146103dd5780631484bddd146103fd578063248a9ca31461041257600080fd5b806302fe5305116102db57806302fe53051461035957806306fdde031461037b57806308dc9f42146103ca57600080fd5b8062fdd58e146102f657806301ffc9a714610329575b600080fd5b34801561030257600080fd5b506103166103113660046143cb565b610935565b6040519081526020015b60405180910390f35b34801561033557600080fd5b50610349610344366004614423565b610a17565b6040519015158152602001610320565b34801561036557600080fd5b5061037961037436600461454c565b610a22565b005b34801561038757600080fd5b5060408051808201909152600f81527f556e69717565204964656e74697479000000000000000000000000000000000060208201525b6040516103209190614603565b6103796103d8366004614658565b610ac2565b3480156103e957600080fd5b506103bd6103f83660046146ab565b610d2f565b34801561040957600080fd5b50610316600881565b34801561041e57600080fd5b5061031661042d3660046146ab565b60009081526065602052604090206001015490565b6103796104503660046146c4565b610dc3565b34801561046157600080fd5b506103166602f2e16f29e00081565b34801561047c57600080fd5b50610316600381565b34801561049157600080fd5b506103796104a03660046147c1565b611085565b3480156104b157600080fd5b506103796104c036600461486b565b61114e565b3480156104d157600080fd5b506103796104e036600461486b565b611179565b3480156104f157600080fd5b5061037961122c565b34801561050657600080fd5b50610316600581565b34801561051b57600080fd5b5061052f61052a366004614897565b6112ec565b604051610320919061499d565b34801561054857600080fd5b50610316600681565b34801561055d57600080fd5b5060fb5460ff16610349565b34801561057557600080fd5b50610316600181565b34801561058a57600080fd5b506103166105993660046149b0565b6101916020526000908152604090205481565b3480156105b857600080fd5b50610316600781565b3480156105cd57600080fd5b50610316600281565b3480156105e257600080fd5b50610379611444565b3480156105f757600080fd5b50610379610606366004614a10565b611502565b34801561061757600080fd5b506103796106263660046146c4565b611685565b34801561063757600080fd5b5061064b610646366004614a70565b611984565b60405173ffffffffffffffffffffffffffffffffffffffff9091168152602001610320565b34801561067c57600080fd5b5061034961068b3660046146ab565b6101926020526000908152604090205460ff1681565b3480156106ad57600080fd5b506103496106bc36600461486b565b600091825260656020908152604080842073ffffffffffffffffffffffffffffffffffffffff93909316845291905290205460ff1690565b34801561070057600080fd5b5060408051808201909152600381527f554944000000000000000000000000000000000000000000000000000000000060208201526103bd565b34801561074657600080fd5b50610316600081565b34801561075b57600080fd5b506103167fe2f4eaae4a9751e85a3e4a7b9587827a877f29914755229b07a7b2da98285f7081565b34801561078f57600080fd5b5061037961079e366004614aa2565b6119a3565b3480156107af57600080fd5b506103496119ae565b3480156107c457600080fd5b506103166107d33660046146ab565b6119df565b3480156107e457600080fd5b506103796107f336600461486b565b6119f6565b34801561080457600080fd5b50610316600a81565b34801561081957600080fd5b50610316600981565b34801561082e57600080fd5b506103167fb19546dff01e856fb3f010c267a7b1c60363cf8a4664e21cc89c26224620214e81565b34801561086257600080fd5b506103167f65d7a28e3265b37a6474929f336521b332c1681b933f6cb9f3376673440d862a81565b34801561089657600080fd5b506103496108a5366004614acc565b73ffffffffffffffffffffffffffffffffffffffff918216600090815260ca6020908152604080832093909416825291909152205460ff1690565b3480156108ec57600080fd5b50610316600481565b34801561090157600080fd5b50610379610910366004614af6565b611a1c565b34801561092157600080fd5b50610379610930366004614b5b565b611ade565b600073ffffffffffffffffffffffffffffffffffffffff83166109df576040517f08c379a000000000000000000000000000000000000000000000000000000000815260206004820152602b60248201527f455243313135353a2062616c616e636520717565727920666f7220746865207a60448201527f65726f206164647265737300000000000000000000000000000000000000000060648201526084015b60405180910390fd5b50600081815260c96020908152604080832073ffffffffffffffffffffffffffffffffffffffff861684529091529020545b92915050565b6000610a1182611c8b565b610a2a6119ae565b610ab6576040517f08c379a000000000000000000000000000000000000000000000000000000000815260206004820152602b60248201527f4d75737420686176652061646d696e20726f6c6520746f20706572666f726d2060448201527f7468697320616374696f6e00000000000000000000000000000000000000000060648201526084016109d6565b610abf81611d2d565b50565b3384848484824210610b30576040517f08c379a000000000000000000000000000000000000000000000000000000000815260206004820152601560248201527f5369676e6174757265206861732065787069726564000000000000000000000060448201526064016109d6565b73ffffffffffffffffffffffffffffffffffffffff85166000908152610191602090815260408083205490517fffffffffffffffffffffffffffffffffffffffff00000000000000000000000060608a811b82169483019490945260348201899052605482018890523090931b909216607483015260888201524660a882015260c8016040516020818303038152906040528051906020012090506000610c24826040517f19457468657265756d205369676e6564204d6573736167653a0a3332000000006020820152603c8101829052600090605c01604051602081830303815290604052805190602001209050919050565b9050610c8a7fe2f4eaae4a9751e85a3e4a7b9587827a877f29914755229b07a7b2da98285f706106bc8387878080601f016020809104026020016040519081016040528093929190818152602001838380828437600092019190915250611d4092505050565b610cf0576040517f08c379a000000000000000000000000000000000000000000000000000000000815260206004820152600e60248201527f496e76616c6964207369676e657200000000000000000000000000000000000060448201526064016109d6565b33600081815261019160205260408120805460019290610d11908490614bce565b90915550610d219050338d611d5c565b505050505050505050505050565b606060cb8054610d3e90614be6565b80601f0160208091040260200160405190810160405280929190818152602001828054610d6a90614be6565b8015610db75780601f10610d8c57610100808354040283529160200191610db7565b820191906000526020600020905b815481529060010190602001808311610d9a57829003601f168201915b50505050509050919050565b8484848484824210610e31576040517f08c379a000000000000000000000000000000000000000000000000000000000815260206004820152601560248201527f5369676e6174757265206861732065787069726564000000000000000000000060448201526064016109d6565b336000818152610191602090815260408083205481517fffffffffffffffffffffffffffffffffffffffff000000000000000000000000606096871b8116828601528b871b81166034830152604882018b9052606882018a90523090961b9095166088860152609c8501524660bc808601919091528151808603909101815260dc850182528051908301207f19457468657265756d205369676e6564204d6573736167653a0a33320000000060fc86015261011880860182905282518087039091018152610138909501909152835193909101929092209050610f6e7fe2f4eaae4a9751e85a3e4a7b9587827a877f29914755229b07a7b2da98285f706106bc8387878080601f016020809104026020016040519081016040528093929190818152602001838380828437600092019190915250611d4092505050565b610fd4576040517f08c379a000000000000000000000000000000000000000000000000000000000815260206004820152600e60248201527f496e76616c6964207369676e657200000000000000000000000000000000000060448201526064016109d6565b33600081815261019160205260408120805460019290610ff5908490614bce565b909155506110059050338d610935565b1561106c576040517f08c379a000000000000000000000000000000000000000000000000000000000815260206004820152601a60248201527f6d736753656e64657220616c7265616479206f776e732055494400000000000060448201526064016109d6565b6110768d8d611d5c565b50505050505050505050505050565b73ffffffffffffffffffffffffffffffffffffffff85163314806110ae57506110ae85336108a5565b61113a576040517f08c379a000000000000000000000000000000000000000000000000000000000815260206004820152603260248201527f455243313135353a207472616e736665722063616c6c6572206973206e6f742060448201527f6f776e6572206e6f7220617070726f766564000000000000000000000000000060648201526084016109d6565b6111478585858585611ed8565b5050505050565b60008281526065602052604090206001015461116a8133612223565b61117483836122f5565b505050565b73ffffffffffffffffffffffffffffffffffffffff8116331461121e576040517f08c379a000000000000000000000000000000000000000000000000000000000815260206004820152602f60248201527f416363657373436f6e74726f6c3a2063616e206f6e6c792072656e6f756e636560448201527f20726f6c657320666f722073656c66000000000000000000000000000000000060648201526084016109d6565b6112288282612317565b5050565b6112567f65d7a28e3265b37a6474929f336521b332c1681b933f6cb9f3376673440d862a336106bc565b6112e2576040517f08c379a000000000000000000000000000000000000000000000000000000000815260206004820152603560248201527f455243313135355072657365745061757365723a206d7573742068617665207060448201527f617573657220726f6c6520746f20756e7061757365000000000000000000000060648201526084016109d6565b6112ea612339565b565b6060815183511461137f576040517f08c379a000000000000000000000000000000000000000000000000000000000815260206004820152602960248201527f455243313135353a206163636f756e747320616e6420696473206c656e67746860448201527f206d69736d61746368000000000000000000000000000000000000000000000060648201526084016109d6565b6000835167ffffffffffffffff81111561139b5761139b614440565b6040519080825280602002602001820160405280156113c4578160200160208202803683370190505b50905060005b845181101561143c5761140f8582815181106113e8576113e8614c39565b602002602001015185838151811061140257611402614c39565b6020026020010151610935565b82828151811061142157611421614c39565b602090810291909101015261143581614c68565b90506113ca565b509392505050565b61146e7f65d7a28e3265b37a6474929f336521b332c1681b933f6cb9f3376673440d862a336106bc565b6114fa576040517f08c379a000000000000000000000000000000000000000000000000000000000815260206004820152603360248201527f455243313135355072657365745061757365723a206d7573742068617665207060448201527f617573657220726f6c6520746f2070617573650000000000000000000000000060648201526084016109d6565b6112ea61241a565b61150a6119ae565b611596576040517f08c379a000000000000000000000000000000000000000000000000000000000815260206004820152602b60248201527f4d75737420686176652061646d696e20726f6c6520746f20706572666f726d2060448201527f7468697320616374696f6e00000000000000000000000000000000000000000060648201526084016109d6565b8281146115ff576040517f08c379a000000000000000000000000000000000000000000000000000000000815260206004820181905260248201527f6163636f756e747320616e6420696473206c656e677468206d69736d6174636860448201526064016109d6565b60005b838110156111475782828281811061161c5761161c614c39565b90506020020160208101906116319190614ca0565b610192600087878581811061164857611648614c39565b90506020020135815260200190815260200160002060006101000a81548160ff0219169083151502179055508061167e90614c68565b9050611602565b84848484848242106116f3576040517f08c379a000000000000000000000000000000000000000000000000000000000815260206004820152601560248201527f5369676e6174757265206861732065787069726564000000000000000000000060448201526064016109d6565b73ffffffffffffffffffffffffffffffffffffffff85166000908152610191602090815260408083205490517fffffffffffffffffffffffffffffffffffffffff00000000000000000000000060608a811b82169483019490945260348201899052605482018890523090931b909216607483015260888201524660a882015260c80160405160208183030381529060405280519060200120905060006117e7826040517f19457468657265756d205369676e6564204d6573736167653a0a3332000000006020820152603c8101829052600090605c01604051602081830303815290604052805190602001209050919050565b905061184d7fe2f4eaae4a9751e85a3e4a7b9587827a877f29914755229b07a7b2da98285f706106bc8387878080601f016020809104026020016040519081016040528093929190818152602001838380828437600092019190915250611d4092505050565b6118b3576040517f08c379a000000000000000000000000000000000000000000000000000000000815260206004820152600e60248201527f496e76616c6964207369676e657200000000000000000000000000000000000060448201526064016109d6565b73ffffffffffffffffffffffffffffffffffffffff8c1660009081526101916020526040812080548e92600192916118ec908490614bce565b909155506118fe90508d8d60016124da565b600061190a8e8e610935565b90508015611974576040517f08c379a000000000000000000000000000000000000000000000000000000000815260206004820152601c60248201527f42616c616e6365206166746572206275726e206d75737420626520300000000060448201526064016109d6565b5050505050505050505050505050565b600082815260976020526040812061199c90836126e5565b9392505050565b6112283383836126f1565b60006119da7fb19546dff01e856fb3f010c267a7b1c60363cf8a4664e21cc89c26224620214e336106bc565b905090565b6000818152609760205260408120610a1190612844565b600082815260656020526040902060010154611a128133612223565b6111748383612317565b73ffffffffffffffffffffffffffffffffffffffff8516331480611a455750611a4585336108a5565b611ad1576040517f08c379a000000000000000000000000000000000000000000000000000000000815260206004820152602960248201527f455243313135353a2063616c6c6572206973206e6f74206f776e6572206e6f7260448201527f20617070726f766564000000000000000000000000000000000000000000000060648201526084016109d6565b611147858585858561284e565b600054610100900460ff16611af95760005460ff1615611afd565b303b155b611b89576040517f08c379a000000000000000000000000000000000000000000000000000000000815260206004820152602e60248201527f496e697469616c697a61626c653a20636f6e747261637420697320616c72656160448201527f647920696e697469616c697a656400000000000000000000000000000000000060648201526084016109d6565b600054610100900460ff16158015611bc857600080547fffffffffffffffffffffffffffffffffffffffffffffffffffffffffffff0000166101011790555b73ffffffffffffffffffffffffffffffffffffffff8316611c45576040517f08c379a000000000000000000000000000000000000000000000000000000000815260206004820152601d60248201527f4f776e657220616464726573732063616e6e6f7420626520656d70747900000060448201526064016109d6565b611c4f8383612a92565b611c5883612b6b565b801561117457600080547fffffffffffffffffffffffffffffffffffffffffffffffffffffffffffff00ff169055505050565b60007fffffffff0000000000000000000000000000000000000000000000000000000082167fd9b67a26000000000000000000000000000000000000000000000000000000001480611d1e57507fffffffff0000000000000000000000000000000000000000000000000000000082167f0e89341c00000000000000000000000000000000000000000000000000000000145b80610a115750610a1182612c0b565b80516112289060cb906020840190614309565b6000806000611d4f8585612c61565b9150915061143c81612ccf565b6602f2e16f29e000341015611dcd576040517f08c379a000000000000000000000000000000000000000000000000000000000815260206004820152601f60248201527f546f6b656e206d696e7420726571756972657320302e3030303833204554480060448201526064016109d6565b6000818152610192602052604090205460ff161515600114611e4b576040517f08c379a000000000000000000000000000000000000000000000000000000000815260206004820152601660248201527f546f6b656e206964206e6f7420737570706f727465640000000000000000000060448201526064016109d6565b611e558282610935565b15611ebc576040517f08c379a000000000000000000000000000000000000000000000000000000000815260206004820152601d60248201527f42616c616e6365206265666f7265206d696e74206d757374206265203000000060448201526064016109d6565b6112288282600160405180602001604052806000815250612f23565b8151835114611f69576040517f08c379a000000000000000000000000000000000000000000000000000000000815260206004820152602860248201527f455243313135353a2069647320616e6420616d6f756e7473206c656e6774682060448201527f6d69736d6174636800000000000000000000000000000000000000000000000060648201526084016109d6565b73ffffffffffffffffffffffffffffffffffffffff841661200c576040517f08c379a000000000000000000000000000000000000000000000000000000000815260206004820152602560248201527f455243313135353a207472616e7366657220746f20746865207a65726f20616460448201527f647265737300000000000000000000000000000000000000000000000000000060648201526084016109d6565b3361201b818787878787613083565b60005b845181101561218e57600085828151811061203b5761203b614c39565b60200260200101519050600085838151811061205957612059614c39565b602090810291909101810151600084815260c98352604080822073ffffffffffffffffffffffffffffffffffffffff8e168352909352919091205490915081811015612127576040517f08c379a000000000000000000000000000000000000000000000000000000000815260206004820152602a60248201527f455243313135353a20696e73756666696369656e742062616c616e636520666f60448201527f72207472616e736665720000000000000000000000000000000000000000000060648201526084016109d6565b600083815260c96020908152604080832073ffffffffffffffffffffffffffffffffffffffff8e8116855292528083208585039055908b16825281208054849290612173908490614bce565b925050819055505050508061218790614c68565b905061201e565b508473ffffffffffffffffffffffffffffffffffffffff168673ffffffffffffffffffffffffffffffffffffffff168273ffffffffffffffffffffffffffffffffffffffff167f4a39dc06d4c0dbc64b70af90fd698a233a518aa5d07e595d983b8c0526c8f7fb8787604051612205929190614cbb565b60405180910390a461221b818787878787613195565b505050505050565b600082815260656020908152604080832073ffffffffffffffffffffffffffffffffffffffff8516845290915290205460ff166112285761227b8173ffffffffffffffffffffffffffffffffffffffff16601461341f565b61228683602061341f565b604051602001612297929190614ce9565b604080517fffffffffffffffffffffffffffffffffffffffffffffffffffffffffffffffe0818403018152908290527f08c379a00000000000000000000000000000000000000000000000000000000082526109d691600401614603565b6122ff8282613662565b60008281526097602052604090206111749082613756565b6123218282613778565b60008281526097602052604090206111749082613833565b60fb5460ff166123a5576040517f08c379a000000000000000000000000000000000000000000000000000000000815260206004820152601460248201527f5061757361626c653a206e6f742070617573656400000000000000000000000060448201526064016109d6565b60fb80547fffffffffffffffffffffffffffffffffffffffffffffffffffffffffffffff001690557f5db9ee0a495bf2e6ff9c91a7834c1ba4fdd244a5e8aa4e537bd38aeae4b073aa335b60405173ffffffffffffffffffffffffffffffffffffffff909116815260200160405180910390a1565b60fb5460ff1615612487576040517f08c379a000000000000000000000000000000000000000000000000000000000815260206004820152601060248201527f5061757361626c653a207061757365640000000000000000000000000000000060448201526064016109d6565b60fb80547fffffffffffffffffffffffffffffffffffffffffffffffffffffffffffffff001660011790557f62e78cea01bee320cd4e420270b5ea74000d11b0c9f74754ebdbfc544b05a2586123f03390565b73ffffffffffffffffffffffffffffffffffffffff831661257d576040517f08c379a000000000000000000000000000000000000000000000000000000000815260206004820152602360248201527f455243313135353a206275726e2066726f6d20746865207a65726f206164647260448201527f657373000000000000000000000000000000000000000000000000000000000060648201526084016109d6565b336125ac8185600061258e87613855565b61259787613855565b60405180602001604052806000815250613083565b600083815260c96020908152604080832073ffffffffffffffffffffffffffffffffffffffff881684529091529020548281101561266b576040517f08c379a0000000000000000000000000000000000000000000000000000000008152602060048201526024808201527f455243313135353a206275726e20616d6f756e7420657863656564732062616c60448201527f616e63650000000000000000000000000000000000000000000000000000000060648201526084016109d6565b600084815260c96020908152604080832073ffffffffffffffffffffffffffffffffffffffff898116808652918452828520888703905582518981529384018890529092908616917fc3d58168c5ae7397731d063d5bbf3d657854427343f4c083240f7aacaa2d0f62910160405180910390a45050505050565b600061199c83836138a0565b8173ffffffffffffffffffffffffffffffffffffffff168373ffffffffffffffffffffffffffffffffffffffff16036127ac576040517f08c379a000000000000000000000000000000000000000000000000000000000815260206004820152602960248201527f455243313135353a2073657474696e6720617070726f76616c2073746174757360448201527f20666f722073656c66000000000000000000000000000000000000000000000060648201526084016109d6565b73ffffffffffffffffffffffffffffffffffffffff838116600081815260ca602090815260408083209487168084529482529182902080547fffffffffffffffffffffffffffffffffffffffffffffffffffffffffffffff001686151590811790915591519182527f17307eab39ab6107e8899845ad3d59bd9653f200f220920489ca2b5937696c31910160405180910390a3505050565b6000610a11825490565b73ffffffffffffffffffffffffffffffffffffffff84166128f1576040517f08c379a000000000000000000000000000000000000000000000000000000000815260206004820152602560248201527f455243313135353a207472616e7366657220746f20746865207a65726f20616460448201527f647265737300000000000000000000000000000000000000000000000000000060648201526084016109d6565b3361291081878761290188613855565b61290a88613855565b87613083565b600084815260c96020908152604080832073ffffffffffffffffffffffffffffffffffffffff8a168452909152902054838110156129d0576040517f08c379a000000000000000000000000000000000000000000000000000000000815260206004820152602a60248201527f455243313135353a20696e73756666696369656e742062616c616e636520666f60448201527f72207472616e736665720000000000000000000000000000000000000000000060648201526084016109d6565b600085815260c96020908152604080832073ffffffffffffffffffffffffffffffffffffffff8b8116855292528083208785039055908816825281208054869290612a1c908490614bce565b9091555050604080518681526020810186905273ffffffffffffffffffffffffffffffffffffffff808916928a821692918616917fc3d58168c5ae7397731d063d5bbf3d657854427343f4c083240f7aacaa2d0f62910160405180910390a4612a898288888888886138ca565b50505050505050565b600054610100900460ff16612b29576040517f08c379a000000000000000000000000000000000000000000000000000000000815260206004820152602b60248201527f496e697469616c697a61626c653a20636f6e7472616374206973206e6f74206960448201527f6e697469616c697a696e6700000000000000000000000000000000000000000060648201526084016109d6565b612b31613a77565b612b39613a77565b612b41613a77565b612b49613a77565b612b5281613b0e565b612b5a613ba5565b612b62613a77565b61122882613c66565b600054610100900460ff16612c02576040517f08c379a000000000000000000000000000000000000000000000000000000000815260206004820152602b60248201527f496e697469616c697a61626c653a20636f6e7472616374206973206e6f74206960448201527f6e697469616c697a696e6700000000000000000000000000000000000000000060648201526084016109d6565b610abf81613dc5565b60007fffffffff0000000000000000000000000000000000000000000000000000000082167f5a05180f000000000000000000000000000000000000000000000000000000001480610a115750610a1182613ed0565b6000808251604103612c975760208301516040840151606085015160001a612c8b87828585613f67565b94509450505050612cc8565b8251604003612cc05760208301516040840151612cb586838361407f565b935093505050612cc8565b506000905060025b9250929050565b6000816004811115612ce357612ce3614d6a565b03612ceb5750565b6001816004811115612cff57612cff614d6a565b03612d66576040517f08c379a000000000000000000000000000000000000000000000000000000000815260206004820152601860248201527f45434453413a20696e76616c6964207369676e6174757265000000000000000060448201526064016109d6565b6002816004811115612d7a57612d7a614d6a565b03612de1576040517f08c379a000000000000000000000000000000000000000000000000000000000815260206004820152601f60248201527f45434453413a20696e76616c6964207369676e6174757265206c656e6774680060448201526064016109d6565b6003816004811115612df557612df5614d6a565b03612e82576040517f08c379a000000000000000000000000000000000000000000000000000000000815260206004820152602260248201527f45434453413a20696e76616c6964207369676e6174757265202773272076616c60448201527f756500000000000000000000000000000000000000000000000000000000000060648201526084016109d6565b6004816004811115612e9657612e96614d6a565b03610abf576040517f08c379a000000000000000000000000000000000000000000000000000000000815260206004820152602260248201527f45434453413a20696e76616c6964207369676e6174757265202776272076616c60448201527f756500000000000000000000000000000000000000000000000000000000000060648201526084016109d6565b73ffffffffffffffffffffffffffffffffffffffff8416612fc6576040517f08c379a000000000000000000000000000000000000000000000000000000000815260206004820152602160248201527f455243313135353a206d696e7420746f20746865207a65726f2061646472657360448201527f730000000000000000000000000000000000000000000000000000000000000060648201526084016109d6565b33612fd78160008761290188613855565b600084815260c96020908152604080832073ffffffffffffffffffffffffffffffffffffffff8916845290915281208054859290613016908490614bce565b9091555050604080518581526020810185905273ffffffffffffffffffffffffffffffffffffffff80881692600092918516917fc3d58168c5ae7397731d063d5bbf3d657854427343f4c083240f7aacaa2d0f62910160405180910390a4611147816000878787876138ca565b73ffffffffffffffffffffffffffffffffffffffff85161580156130bc575073ffffffffffffffffffffffffffffffffffffffff841615155b806130fb575073ffffffffffffffffffffffffffffffffffffffff8516158015906130fb575073ffffffffffffffffffffffffffffffffffffffff8416155b613187576040517f08c379a000000000000000000000000000000000000000000000000000000000815260206004820152602760248201527f4f6e6c79206d696e74206f72206275726e207472616e7366657273206172652060448201527f616c6c6f7765640000000000000000000000000000000000000000000000000060648201526084016109d6565b61221b8686868686866140d1565b73ffffffffffffffffffffffffffffffffffffffff84163b1561221b576040517fbc197c8100000000000000000000000000000000000000000000000000000000815273ffffffffffffffffffffffffffffffffffffffff85169063bc197c819061320c9089908990889088908890600401614d99565b6020604051808303816000875af1925050508015613265575060408051601f3d9081017fffffffffffffffffffffffffffffffffffffffffffffffffffffffffffffffe016820190925261326291810190614e04565b60015b61334e57613271614e21565b806308c379a0036132c45750613285614e3d565b8061329057506132c6565b806040517f08c379a00000000000000000000000000000000000000000000000000000000081526004016109d69190614603565b505b6040517f08c379a000000000000000000000000000000000000000000000000000000000815260206004820152603460248201527f455243313135353a207472616e7366657220746f206e6f6e204552433131353560448201527f526563656976657220696d706c656d656e74657200000000000000000000000060648201526084016109d6565b7fffffffff0000000000000000000000000000000000000000000000000000000081167fbc197c810000000000000000000000000000000000000000000000000000000014612a89576040517f08c379a000000000000000000000000000000000000000000000000000000000815260206004820152602860248201527f455243313135353a204552433131353552656365697665722072656a6563746560448201527f6420746f6b656e7300000000000000000000000000000000000000000000000060648201526084016109d6565b6060600061342e836002614ee5565b613439906002614bce565b67ffffffffffffffff81111561345157613451614440565b6040519080825280601f01601f19166020018201604052801561347b576020820181803683370190505b5090507f3000000000000000000000000000000000000000000000000000000000000000816000815181106134b2576134b2614c39565b60200101907effffffffffffffffffffffffffffffffffffffffffffffffffffffffffffff1916908160001a9053507f78000000000000000000000000000000000000000000000000000000000000008160018151811061351557613515614c39565b60200101907effffffffffffffffffffffffffffffffffffffffffffffffffffffffffffff1916908160001a9053506000613551846002614ee5565b61355c906001614bce565b90505b60018111156135f9577f303132333435363738396162636465660000000000000000000000000000000085600f166010811061359d5761359d614c39565b1a60f81b8282815181106135b3576135b3614c39565b60200101907effffffffffffffffffffffffffffffffffffffffffffffffffffffffffffff1916908160001a90535060049490941c936135f281614f22565b905061355f565b50831561199c576040517f08c379a000000000000000000000000000000000000000000000000000000000815260206004820181905260248201527f537472696e67733a20686578206c656e67746820696e73756666696369656e7460448201526064016109d6565b600082815260656020908152604080832073ffffffffffffffffffffffffffffffffffffffff8516845290915290205460ff1661122857600082815260656020908152604080832073ffffffffffffffffffffffffffffffffffffffff85168452909152902080547fffffffffffffffffffffffffffffffffffffffffffffffffffffffffffffff001660011790556136f83390565b73ffffffffffffffffffffffffffffffffffffffff168173ffffffffffffffffffffffffffffffffffffffff16837f2f8788117e7eff1d82e926ec794901d17c78024a50270940304540a733656f0d60405160405180910390a45050565b600061199c8373ffffffffffffffffffffffffffffffffffffffff84166140df565b600082815260656020908152604080832073ffffffffffffffffffffffffffffffffffffffff8516845290915290205460ff161561122857600082815260656020908152604080832073ffffffffffffffffffffffffffffffffffffffff8516808552925280832080547fffffffffffffffffffffffffffffffffffffffffffffffffffffffffffffff0016905551339285917ff6391f5c32d9c69d2a47ea670b442974b53935d1edc7fd64eb21e047a839171b9190a45050565b600061199c8373ffffffffffffffffffffffffffffffffffffffff841661412e565b6040805160018082528183019092526060916000919060208083019080368337019050509050828160008151811061388f5761388f614c39565b602090810291909101015292915050565b60008260000182815481106138b7576138b7614c39565b9060005260206000200154905092915050565b73ffffffffffffffffffffffffffffffffffffffff84163b1561221b576040517ff23a6e6100000000000000000000000000000000000000000000000000000000815273ffffffffffffffffffffffffffffffffffffffff85169063f23a6e61906139419089908990889088908890600401614f57565b6020604051808303816000875af192505050801561399a575060408051601f3d9081017fffffffffffffffffffffffffffffffffffffffffffffffffffffffffffffffe016820190925261399791810190614e04565b60015b6139a657613271614e21565b7fffffffff0000000000000000000000000000000000000000000000000000000081167ff23a6e610000000000000000000000000000000000000000000000000000000014612a89576040517f08c379a000000000000000000000000000000000000000000000000000000000815260206004820152602860248201527f455243313135353a204552433131353552656365697665722072656a6563746560448201527f6420746f6b656e7300000000000000000000000000000000000000000000000060648201526084016109d6565b600054610100900460ff166112ea576040517f08c379a000000000000000000000000000000000000000000000000000000000815260206004820152602b60248201527f496e697469616c697a61626c653a20636f6e7472616374206973206e6f74206960448201527f6e697469616c697a696e6700000000000000000000000000000000000000000060648201526084016109d6565b600054610100900460ff16610ab6576040517f08c379a000000000000000000000000000000000000000000000000000000000815260206004820152602b60248201527f496e697469616c697a61626c653a20636f6e7472616374206973206e6f74206960448201527f6e697469616c697a696e6700000000000000000000000000000000000000000060648201526084016109d6565b600054610100900460ff16613c3c576040517f08c379a000000000000000000000000000000000000000000000000000000000815260206004820152602b60248201527f496e697469616c697a61626c653a20636f6e7472616374206973206e6f74206960448201527f6e697469616c697a696e6700000000000000000000000000000000000000000060648201526084016109d6565b60fb80547fffffffffffffffffffffffffffffffffffffffffffffffffffffffffffffff00169055565b600054610100900460ff16613cfd576040517f08c379a000000000000000000000000000000000000000000000000000000000815260206004820152602b60248201527f496e697469616c697a61626c653a20636f6e7472616374206973206e6f74206960448201527f6e697469616c697a696e6700000000000000000000000000000000000000000060648201526084016109d6565b613d277fb19546dff01e856fb3f010c267a7b1c60363cf8a4664e21cc89c26224620214e82614221565b613d517f65d7a28e3265b37a6474929f336521b332c1681b933f6cb9f3376673440d862a82614221565b613d9b7f65d7a28e3265b37a6474929f336521b332c1681b933f6cb9f3376673440d862a7fb19546dff01e856fb3f010c267a7b1c60363cf8a4664e21cc89c26224620214e61422b565b610abf7fb19546dff01e856fb3f010c267a7b1c60363cf8a4664e21cc89c26224620214e8061422b565b600054610100900460ff16613e5c576040517f08c379a000000000000000000000000000000000000000000000000000000000815260206004820152602b60248201527f496e697469616c697a61626c653a20636f6e7472616374206973206e6f74206960448201527f6e697469616c697a696e6700000000000000000000000000000000000000000060648201526084016109d6565b613e867fe2f4eaae4a9751e85a3e4a7b9587827a877f29914755229b07a7b2da98285f7082614221565b610abf7fe2f4eaae4a9751e85a3e4a7b9587827a877f29914755229b07a7b2da98285f707fb19546dff01e856fb3f010c267a7b1c60363cf8a4664e21cc89c26224620214e61422b565b60007fffffffff0000000000000000000000000000000000000000000000000000000082167f7965db0b000000000000000000000000000000000000000000000000000000001480610a1157507f01ffc9a7000000000000000000000000000000000000000000000000000000007fffffffff00000000000000000000000000000000000000000000000000000000831614610a11565b6000807f7fffffffffffffffffffffffffffffff5d576e7357a4501ddfe92f46681b20a0831115613f9e5750600090506003614076565b8460ff16601b14158015613fb657508460ff16601c14155b15613fc75750600090506004614076565b6040805160008082526020820180845289905260ff881692820192909252606081018690526080810185905260019060a0016020604051602081039080840390855afa15801561401b573d6000803e3d6000fd5b50506040517fffffffffffffffffffffffffffffffffffffffffffffffffffffffffffffffe0015191505073ffffffffffffffffffffffffffffffffffffffff811661406f57600060019250925050614076565b9150600090505b94509492505050565b6000807f7fffffffffffffffffffffffffffffffffffffffffffffffffffffffffffffff8316816140b560ff86901c601b614bce565b90506140c387828885613f67565b935093505050935093915050565b61221b868686868686614276565b600081815260018301602052604081205461412657508154600181810184556000848152602080822090930184905584548482528286019093526040902091909155610a11565b506000610a11565b60008181526001830160205260408120548015614217576000614152600183614fa7565b855490915060009061416690600190614fa7565b90508181146141cb57600086600001828154811061418657614186614c39565b90600052602060002001549050808760000184815481106141a9576141a9614c39565b6000918252602080832090910192909255918252600188019052604090208390555b85548690806141dc576141dc614fbe565b600190038181906000526020600020016000905590558560010160008681526020019081526020016000206000905560019350505050610a11565b6000915050610a11565b61122882826122f5565b600082815260656020526040808220600101805490849055905190918391839186917fbd79b86ffe0ab8e8776151514217cd7cacd52c909f66475c3af44e129f0b00ff9190a4505050565b60fb5460ff161561221b576040517f08c379a000000000000000000000000000000000000000000000000000000000815260206004820152602c60248201527f455243313135355061757361626c653a20746f6b656e207472616e736665722060448201527f7768696c6520706175736564000000000000000000000000000000000000000060648201526084016109d6565b82805461431590614be6565b90600052602060002090601f016020900481019282614337576000855561437d565b82601f1061435057805160ff191683800117855561437d565b8280016001018555821561437d579182015b8281111561437d578251825591602001919060010190614362565b5061438992915061438d565b5090565b5b80821115614389576000815560010161438e565b803573ffffffffffffffffffffffffffffffffffffffff811681146143c657600080fd5b919050565b600080604083850312156143de57600080fd5b6143e7836143a2565b946020939093013593505050565b7fffffffff0000000000000000000000000000000000000000000000000000000081168114610abf57600080fd5b60006020828403121561443557600080fd5b813561199c816143f5565b7f4e487b7100000000000000000000000000000000000000000000000000000000600052604160045260246000fd5b7fffffffffffffffffffffffffffffffffffffffffffffffffffffffffffffffe0601f830116810181811067ffffffffffffffff821117156144b3576144b3614440565b6040525050565b600082601f8301126144cb57600080fd5b813567ffffffffffffffff8111156144e5576144e5614440565b60405161451a60207fffffffffffffffffffffffffffffffffffffffffffffffffffffffffffffffe0601f850116018261446f565b81815284602083860101111561452f57600080fd5b816020850160208301376000918101602001919091529392505050565b60006020828403121561455e57600080fd5b813567ffffffffffffffff81111561457557600080fd5b614581848285016144ba565b949350505050565b60005b838110156145a457818101518382015260200161458c565b838111156145b3576000848401525b50505050565b600081518084526145d1816020860160208601614589565b601f017fffffffffffffffffffffffffffffffffffffffffffffffffffffffffffffffe0169290920160200192915050565b60208152600061199c60208301846145b9565b60008083601f84011261462857600080fd5b50813567ffffffffffffffff81111561464057600080fd5b602083019150836020828501011115612cc857600080fd5b6000806000806060858703121561466e57600080fd5b8435935060208501359250604085013567ffffffffffffffff81111561469357600080fd5b61469f87828801614616565b95989497509550505050565b6000602082840312156146bd57600080fd5b5035919050565b6000806000806000608086880312156146dc57600080fd5b6146e5866143a2565b94506020860135935060408601359250606086013567ffffffffffffffff81111561470f57600080fd5b61471b88828901614616565b969995985093965092949392505050565b600067ffffffffffffffff82111561474657614746614440565b5060051b60200190565b600082601f83011261476157600080fd5b8135602061476e8261472c565b60405161477b828261446f565b83815260059390931b850182019282810191508684111561479b57600080fd5b8286015b848110156147b6578035835291830191830161479f565b509695505050505050565b600080600080600060a086880312156147d957600080fd5b6147e2866143a2565b94506147f0602087016143a2565b9350604086013567ffffffffffffffff8082111561480d57600080fd5b61481989838a01614750565b9450606088013591508082111561482f57600080fd5b61483b89838a01614750565b9350608088013591508082111561485157600080fd5b5061485e888289016144ba565b9150509295509295909350565b6000806040838503121561487e57600080fd5b8235915061488e602084016143a2565b90509250929050565b600080604083850312156148aa57600080fd5b823567ffffffffffffffff808211156148c257600080fd5b818501915085601f8301126148d657600080fd5b813560206148e38261472c565b6040516148f0828261446f565b83815260059390931b850182019282810191508984111561491057600080fd5b948201945b8386101561493557614926866143a2565b82529482019490820190614915565b9650508601359250508082111561494b57600080fd5b5061495885828601614750565b9150509250929050565b600081518084526020808501945080840160005b8381101561499257815187529582019590820190600101614976565b509495945050505050565b60208152600061199c6020830184614962565b6000602082840312156149c257600080fd5b61199c826143a2565b60008083601f8401126149dd57600080fd5b50813567ffffffffffffffff8111156149f557600080fd5b6020830191508360208260051b8501011115612cc857600080fd5b60008060008060408587031215614a2657600080fd5b843567ffffffffffffffff80821115614a3e57600080fd5b614a4a888389016149cb565b90965094506020870135915080821115614a6357600080fd5b5061469f878288016149cb565b60008060408385031215614a8357600080fd5b50508035926020909101359150565b803580151581146143c657600080fd5b60008060408385031215614ab557600080fd5b614abe836143a2565b915061488e60208401614a92565b60008060408385031215614adf57600080fd5b614ae8836143a2565b915061488e602084016143a2565b600080600080600060a08688031215614b0e57600080fd5b614b17866143a2565b9450614b25602087016143a2565b93506040860135925060608601359150608086013567ffffffffffffffff811115614b4f57600080fd5b61485e888289016144ba565b60008060408385031215614b6e57600080fd5b614b77836143a2565b9150602083013567ffffffffffffffff811115614b9357600080fd5b614958858286016144ba565b7f4e487b7100000000000000000000000000000000000000000000000000000000600052601160045260246000fd5b60008219821115614be157614be1614b9f565b500190565b600181811c90821680614bfa57607f821691505b602082108103614c33577f4e487b7100000000000000000000000000000000000000000000000000000000600052602260045260246000fd5b50919050565b7f4e487b7100000000000000000000000000000000000000000000000000000000600052603260045260246000fd5b60007fffffffffffffffffffffffffffffffffffffffffffffffffffffffffffffffff8203614c9957614c99614b9f565b5060010190565b600060208284031215614cb257600080fd5b61199c82614a92565b604081526000614cce6040830185614962565b8281036020840152614ce08185614962565b95945050505050565b7f416363657373436f6e74726f6c3a206163636f756e7420000000000000000000815260008351614d21816017850160208801614589565b7f206973206d697373696e6720726f6c65200000000000000000000000000000006017918401918201528351614d5e816028840160208801614589565b01602801949350505050565b7f4e487b7100000000000000000000000000000000000000000000000000000000600052602160045260246000fd5b600073ffffffffffffffffffffffffffffffffffffffff808816835280871660208401525060a06040830152614dd260a0830186614962565b8281036060840152614de48186614962565b90508281036080840152614df881856145b9565b98975050505050505050565b600060208284031215614e1657600080fd5b815161199c816143f5565b600060033d1115614e3a5760046000803e5060005160e01c5b90565b600060443d1015614e4b5790565b6040517ffffffffffffffffffffffffffffffffffffffffffffffffffffffffffffffffc803d016004833e81513d67ffffffffffffffff8160248401118184111715614e9957505050505090565b8285019150815181811115614eb15750505050505090565b843d8701016020828501011115614ecb5750505050505090565b614eda6020828601018761446f565b509095945050505050565b6000817fffffffffffffffffffffffffffffffffffffffffffffffffffffffffffffffff0483118215151615614f1d57614f1d614b9f565b500290565b600081614f3157614f31614b9f565b507fffffffffffffffffffffffffffffffffffffffffffffffffffffffffffffffff0190565b600073ffffffffffffffffffffffffffffffffffffffff808816835280871660208401525084604083015283606083015260a06080830152614f9c60a08301846145b9565b979650505050505050565b600082821015614fb957614fb9614b9f565b500390565b7f4e487b7100000000000000000000000000000000000000000000000000000000600052603160045260246000fdfea26469706673582212203ee0861e3cb06fab05540924b8e6654c570e6e9ad5325488de56982745b46b7764736f6c634300080d0033",
  "devdoc": {
    "author": "Untangled",
    "kind": "dev",
    "methods": {
      "balanceOf(address,uint256)": {
        "details": "See {IERC1155-balanceOf}. Requirements: - `account` cannot be the zero address."
      },
      "balanceOfBatch(address[],uint256[])": {
        "details": "See {IERC1155-balanceOfBatch}. Requirements: - `accounts` and `ids` must have the same length."
      },
      "burn(address,uint256,uint256,bytes)": {
        "params": {
          "account": "The account which currently owns the UID",
          "expiresAt": "The expiration time of the signature",
          "id": "The id representing the KYC type of the UniqueIdentity",
          "signature": "An EIP-191 signature of the corresponding burn params:                  (account, id, expiresAt, address(this), nonces[account], block.chainid)                  from an address with the SIGNER_ROLE."
        }
      },
      "getRoleAdmin(bytes32)": {
        "details": "Returns the admin role that controls `role`. See {grantRole} and {revokeRole}. To change a role's admin, use {_setRoleAdmin}."
      },
      "getRoleMember(bytes32,uint256)": {
        "details": "Returns one of the accounts that have `role`. `index` must be a value between 0 and {getRoleMemberCount}, non-inclusive. Role bearers are not sorted in any particular way, and their ordering may change at any point. WARNING: When using {getRoleMember} and {getRoleMemberCount}, make sure you perform all queries on the same block. See the following https://forum.openzeppelin.com/t/iterating-over-elements-on-enumerableset-in-openzeppelin-contracts/2296[forum post] for more information."
      },
      "getRoleMemberCount(bytes32)": {
        "details": "Returns the number of accounts that have `role`. Can be used together with {getRoleMember} to enumerate all bearers of a role."
      },
      "grantRole(bytes32,address)": {
        "details": "Grants `role` to `account`. If `account` had not been already granted `role`, emits a {RoleGranted} event. Requirements: - the caller must have ``role``'s admin role."
      },
      "hasRole(bytes32,address)": {
        "details": "Returns `true` if `account` has been granted `role`."
      },
      "isApprovedForAll(address,address)": {
        "details": "See {IERC1155-isApprovedForAll}."
      },
      "mint(uint256,uint256,bytes)": {
        "params": {
          "expiresAt": "The expiration time of the signature",
          "id": "The id representing the KYC type of the UniqueIdentity",
          "signature": "An EIP-191 signature of the corresponding mint params:                  account, id, expiresAt, address(this), nonces[account], block.chainid                  from an address with the SIGNER_ROLE."
        }
      },
      "mintTo(address,uint256,uint256,bytes)": {
        "params": {
          "expiresAt": "The expiration time of the signature",
          "id": "The id representing the KYC type of the UniqueIdentity",
          "recipient": "The recipient address to be minted to.",
          "signature": "An EIP-191 signature of the corresponding mintTo params:                  (account, recipient, id, expiresAt, address(this), nonces[account], block.chainid)                  from an address with the SIGNER_ROLE."
        }
      },
      "name()": {
        "details": "Gets the token name.",
        "returns": {
          "_0": "string representing the token name"
        }
      },
      "pause()": {
        "details": "Pauses all token transfers. See {ERC1155Pausable} and {Pausable-_pause}. Requirements: - the caller must have the `PAUSER_ROLE`."
      },
      "paused()": {
        "details": "Returns true if the contract is paused, and false otherwise."
      },
      "renounceRole(bytes32,address)": {
        "details": "Revokes `role` from the calling account. Roles are often managed via {grantRole} and {revokeRole}: this function's purpose is to provide a mechanism for accounts to lose their privileges if they are compromised (such as when a trusted device is misplaced). If the calling account had been revoked `role`, emits a {RoleRevoked} event. Requirements: - the caller must be `account`."
      },
      "revokeRole(bytes32,address)": {
        "details": "Revokes `role` from `account`. If `account` had been granted `role`, emits a {RoleRevoked} event. Requirements: - the caller must have ``role``'s admin role."
      },
      "safeBatchTransferFrom(address,address,uint256[],uint256[],bytes)": {
        "details": "See {IERC1155-safeBatchTransferFrom}."
      },
      "safeTransferFrom(address,address,uint256,uint256,bytes)": {
        "details": "See {IERC1155-safeTransferFrom}."
      },
      "setApprovalForAll(address,bool)": {
        "details": "See {IERC1155-setApprovalForAll}."
      },
      "supportsInterface(bytes4)": {
        "details": "See {IERC165-supportsInterface}."
      },
      "symbol()": {
        "details": "Gets the token symbol.",
        "returns": {
          "_0": "string representing the token symbol"
        }
      },
      "unpause()": {
        "details": "Unpauses all token transfers. See {ERC1155Pausable} and {Pausable-_unpause}. Requirements: - the caller must have the `PAUSER_ROLE`."
      },
      "uri(uint256)": {
        "details": "See {IERC1155MetadataURI-uri}. This implementation returns the same URI for *all* token types. It relies on the token type ID substitution mechanism https://eips.ethereum.org/EIPS/eip-1155#metadata[defined in the EIP]. Clients calling this function must replace the `\\{id\\}` substring with the actual token type ID."
      }
    },
    "stateVariables": {
      "nonces": {
        "details": "We include a nonce in every hashed message, and increment the nonce as part of a state-changing operation, so as to prevent replay attacks, i.e. the reuse of a signature."
      }
    },
    "title": "UniqueIdentity",
    "version": 1
  },
  "userdoc": {
    "kind": "user",
    "methods": {
      "burn(address,uint256,uint256,bytes)": {
        "notice": "Burn a UniqueIdentity token of `id` from the `account`"
      },
      "mint(uint256,uint256,bytes)": {
        "notice": "Mint a new UniqueIdentity token to the msgSender"
      },
      "mintTo(address,uint256,uint256,bytes)": {
        "notice": "Mint a new UniqueIdentity token to the `recipient`"
      }
    },
    "notice": "UniqueIdentity is an ERC1155-compliant contract for representing the identity verification status of addresses.",
    "version": 1
  },
  "storageLayout": {
    "storage": [
      {
        "astId": 708,
        "contract": "contracts/uid/UniqueIdentity.sol:UniqueIdentity",
        "label": "_initialized",
        "offset": 0,
        "slot": "0",
        "type": "t_bool"
      },
      {
        "astId": 711,
        "contract": "contracts/uid/UniqueIdentity.sol:UniqueIdentity",
        "label": "_initializing",
        "offset": 1,
        "slot": "0",
        "type": "t_bool"
      },
      {
        "astId": 4917,
        "contract": "contracts/uid/UniqueIdentity.sol:UniqueIdentity",
        "label": "__gap",
        "offset": 0,
        "slot": "1",
        "type": "t_array(t_uint256)50_storage"
      },
      {
        "astId": 5645,
        "contract": "contracts/uid/UniqueIdentity.sol:UniqueIdentity",
        "label": "__gap",
        "offset": 0,
        "slot": "51",
        "type": "t_array(t_uint256)50_storage"
      },
      {
        "astId": 184,
        "contract": "contracts/uid/UniqueIdentity.sol:UniqueIdentity",
        "label": "_roles",
        "offset": 0,
        "slot": "101",
        "type": "t_mapping(t_bytes32,t_struct(RoleData)179_storage)"
      },
      {
        "astId": 472,
        "contract": "contracts/uid/UniqueIdentity.sol:UniqueIdentity",
        "label": "__gap",
        "offset": 0,
        "slot": "102",
        "type": "t_array(t_uint256)49_storage"
      },
      {
        "astId": 33,
        "contract": "contracts/uid/UniqueIdentity.sol:UniqueIdentity",
        "label": "_roleMembers",
        "offset": 0,
        "slot": "151",
        "type": "t_mapping(t_bytes32,t_struct(AddressSet)5970_storage)"
      },
      {
        "astId": 143,
        "contract": "contracts/uid/UniqueIdentity.sol:UniqueIdentity",
        "label": "__gap",
        "offset": 0,
        "slot": "152",
        "type": "t_array(t_uint256)49_storage"
      },
      {
        "astId": 974,
        "contract": "contracts/uid/UniqueIdentity.sol:UniqueIdentity",
        "label": "_balances",
        "offset": 0,
        "slot": "201",
        "type": "t_mapping(t_uint256,t_mapping(t_address,t_uint256))"
      },
      {
        "astId": 980,
        "contract": "contracts/uid/UniqueIdentity.sol:UniqueIdentity",
        "label": "_operatorApprovals",
        "offset": 0,
        "slot": "202",
        "type": "t_mapping(t_address,t_mapping(t_address,t_bool))"
      },
      {
        "astId": 982,
        "contract": "contracts/uid/UniqueIdentity.sol:UniqueIdentity",
        "label": "_uri",
        "offset": 0,
        "slot": "203",
        "type": "t_string_storage"
      },
      {
        "astId": 2062,
        "contract": "contracts/uid/UniqueIdentity.sol:UniqueIdentity",
        "label": "__gap",
        "offset": 0,
        "slot": "204",
        "type": "t_array(t_uint256)47_storage"
      },
      {
        "astId": 796,
        "contract": "contracts/uid/UniqueIdentity.sol:UniqueIdentity",
        "label": "_paused",
        "offset": 0,
        "slot": "251",
        "type": "t_bool"
      },
      {
        "astId": 885,
        "contract": "contracts/uid/UniqueIdentity.sol:UniqueIdentity",
        "label": "__gap",
        "offset": 0,
        "slot": "252",
        "type": "t_array(t_uint256)49_storage"
      },
      {
        "astId": 2385,
        "contract": "contracts/uid/UniqueIdentity.sol:UniqueIdentity",
        "label": "__gap",
        "offset": 0,
        "slot": "301",
        "type": "t_array(t_uint256)50_storage"
      },
      {
        "astId": 11146,
        "contract": "contracts/uid/UniqueIdentity.sol:UniqueIdentity",
        "label": "__gap",
        "offset": 0,
        "slot": "351",
        "type": "t_array(t_uint256)50_storage"
      },
      {
        "astId": 43297,
        "contract": "contracts/uid/UniqueIdentity.sol:UniqueIdentity",
        "label": "nonces",
        "offset": 0,
        "slot": "401",
        "type": "t_mapping(t_address,t_uint256)"
      },
      {
        "astId": 43301,
        "contract": "contracts/uid/UniqueIdentity.sol:UniqueIdentity",
        "label": "supportedUIDTypes",
        "offset": 0,
        "slot": "402",
        "type": "t_mapping(t_uint256,t_bool)"
      }
    ],
    "types": {
      "t_address": {
        "encoding": "inplace",
        "label": "address",
        "numberOfBytes": "20"
      },
      "t_array(t_bytes32)dyn_storage": {
        "base": "t_bytes32",
        "encoding": "dynamic_array",
        "label": "bytes32[]",
        "numberOfBytes": "32"
      },
      "t_array(t_uint256)47_storage": {
        "base": "t_uint256",
        "encoding": "inplace",
        "label": "uint256[47]",
        "numberOfBytes": "1504"
      },
      "t_array(t_uint256)49_storage": {
        "base": "t_uint256",
        "encoding": "inplace",
        "label": "uint256[49]",
        "numberOfBytes": "1568"
      },
      "t_array(t_uint256)50_storage": {
        "base": "t_uint256",
        "encoding": "inplace",
        "label": "uint256[50]",
        "numberOfBytes": "1600"
      },
      "t_bool": {
        "encoding": "inplace",
        "label": "bool",
        "numberOfBytes": "1"
      },
      "t_bytes32": {
        "encoding": "inplace",
        "label": "bytes32",
        "numberOfBytes": "32"
      },
      "t_mapping(t_address,t_bool)": {
        "encoding": "mapping",
        "key": "t_address",
        "label": "mapping(address => bool)",
        "numberOfBytes": "32",
        "value": "t_bool"
      },
      "t_mapping(t_address,t_mapping(t_address,t_bool))": {
        "encoding": "mapping",
        "key": "t_address",
        "label": "mapping(address => mapping(address => bool))",
        "numberOfBytes": "32",
        "value": "t_mapping(t_address,t_bool)"
      },
      "t_mapping(t_address,t_uint256)": {
        "encoding": "mapping",
        "key": "t_address",
        "label": "mapping(address => uint256)",
        "numberOfBytes": "32",
        "value": "t_uint256"
      },
      "t_mapping(t_bytes32,t_struct(AddressSet)5970_storage)": {
        "encoding": "mapping",
        "key": "t_bytes32",
        "label": "mapping(bytes32 => struct EnumerableSetUpgradeable.AddressSet)",
        "numberOfBytes": "32",
        "value": "t_struct(AddressSet)5970_storage"
      },
      "t_mapping(t_bytes32,t_struct(RoleData)179_storage)": {
        "encoding": "mapping",
        "key": "t_bytes32",
        "label": "mapping(bytes32 => struct AccessControlUpgradeable.RoleData)",
        "numberOfBytes": "32",
        "value": "t_struct(RoleData)179_storage"
      },
      "t_mapping(t_bytes32,t_uint256)": {
        "encoding": "mapping",
        "key": "t_bytes32",
        "label": "mapping(bytes32 => uint256)",
        "numberOfBytes": "32",
        "value": "t_uint256"
      },
      "t_mapping(t_uint256,t_bool)": {
        "encoding": "mapping",
        "key": "t_uint256",
        "label": "mapping(uint256 => bool)",
        "numberOfBytes": "32",
        "value": "t_bool"
      },
      "t_mapping(t_uint256,t_mapping(t_address,t_uint256))": {
        "encoding": "mapping",
        "key": "t_uint256",
        "label": "mapping(uint256 => mapping(address => uint256))",
        "numberOfBytes": "32",
        "value": "t_mapping(t_address,t_uint256)"
      },
      "t_string_storage": {
        "encoding": "bytes",
        "label": "string",
        "numberOfBytes": "32"
      },
      "t_struct(AddressSet)5970_storage": {
        "encoding": "inplace",
        "label": "struct EnumerableSetUpgradeable.AddressSet",
        "members": [
          {
            "astId": 5969,
            "contract": "contracts/uid/UniqueIdentity.sol:UniqueIdentity",
            "label": "_inner",
            "offset": 0,
            "slot": "0",
            "type": "t_struct(Set)5669_storage"
          }
        ],
        "numberOfBytes": "64"
      },
      "t_struct(RoleData)179_storage": {
        "encoding": "inplace",
        "label": "struct AccessControlUpgradeable.RoleData",
        "members": [
          {
            "astId": 176,
            "contract": "contracts/uid/UniqueIdentity.sol:UniqueIdentity",
            "label": "members",
            "offset": 0,
            "slot": "0",
            "type": "t_mapping(t_address,t_bool)"
          },
          {
            "astId": 178,
            "contract": "contracts/uid/UniqueIdentity.sol:UniqueIdentity",
            "label": "adminRole",
            "offset": 0,
            "slot": "1",
            "type": "t_bytes32"
          }
        ],
        "numberOfBytes": "64"
      },
      "t_struct(Set)5669_storage": {
        "encoding": "inplace",
        "label": "struct EnumerableSetUpgradeable.Set",
        "members": [
          {
            "astId": 5664,
            "contract": "contracts/uid/UniqueIdentity.sol:UniqueIdentity",
            "label": "_values",
            "offset": 0,
            "slot": "0",
            "type": "t_array(t_bytes32)dyn_storage"
          },
          {
            "astId": 5668,
            "contract": "contracts/uid/UniqueIdentity.sol:UniqueIdentity",
            "label": "_indexes",
            "offset": 0,
            "slot": "1",
            "type": "t_mapping(t_bytes32,t_uint256)"
          }
        ],
        "numberOfBytes": "64"
      },
      "t_uint256": {
        "encoding": "inplace",
        "label": "uint256",
        "numberOfBytes": "32"
      }
    }
  }
}