{
  "address": "0xcdA1Ef027d3c6a96438F3407Fd05f6efca86B587",
  "abi": [
    {
      "anonymous": false,
      "inputs": [
        {
          "indexed": true,
          "internalType": "address",
          "name": "account",
          "type": "address"
        },
        {
          "indexed": true,
          "internalType": "address",
          "name": "operator",
          "type": "address"
        },
        {
          "indexed": false,
          "internalType": "bool",
          "name": "approved",
          "type": "bool"
        }
      ],
      "name": "ApprovalForAll",
      "type": "event"
    },
    {
      "anonymous": false,
      "inputs": [
        {
          "indexed": false,
          "internalType": "uint8",
          "name": "version",
          "type": "uint8"
        }
      ],
      "name": "Initialized",
      "type": "event"
    },
    {
      "anonymous": false,
      "inputs": [
        {
          "indexed": false,
          "internalType": "address",
          "name": "account",
          "type": "address"
        }
      ],
      "name": "Paused",
      "type": "event"
    },
    {
      "anonymous": false,
      "inputs": [
        {
          "indexed": true,
          "internalType": "bytes32",
          "name": "role",
          "type": "bytes32"
        },
        {
          "indexed": true,
          "internalType": "bytes32",
          "name": "previousAdminRole",
          "type": "bytes32"
        },
        {
          "indexed": true,
          "internalType": "bytes32",
          "name": "newAdminRole",
          "type": "bytes32"
        }
      ],
      "name": "RoleAdminChanged",
      "type": "event"
    },
    {
      "anonymous": false,
      "inputs": [
        {
          "indexed": true,
          "internalType": "bytes32",
          "name": "role",
          "type": "bytes32"
        },
        {
          "indexed": true,
          "internalType": "address",
          "name": "account",
          "type": "address"
        },
        {
          "indexed": true,
          "internalType": "address",
          "name": "sender",
          "type": "address"
        }
      ],
      "name": "RoleGranted",
      "type": "event"
    },
    {
      "anonymous": false,
      "inputs": [
        {
          "indexed": true,
          "internalType": "bytes32",
          "name": "role",
          "type": "bytes32"
        },
        {
          "indexed": true,
          "internalType": "address",
          "name": "account",
          "type": "address"
        },
        {
          "indexed": true,
          "internalType": "address",
          "name": "sender",
          "type": "address"
        }
      ],
      "name": "RoleRevoked",
      "type": "event"
    },
    {
      "anonymous": false,
      "inputs": [
        {
          "indexed": true,
          "internalType": "address",
          "name": "operator",
          "type": "address"
        },
        {
          "indexed": true,
          "internalType": "address",
          "name": "from",
          "type": "address"
        },
        {
          "indexed": true,
          "internalType": "address",
          "name": "to",
          "type": "address"
        },
        {
          "indexed": false,
          "internalType": "uint256[]",
          "name": "ids",
          "type": "uint256[]"
        },
        {
          "indexed": false,
          "internalType": "uint256[]",
          "name": "values",
          "type": "uint256[]"
        }
      ],
      "name": "TransferBatch",
      "type": "event"
    },
    {
      "anonymous": false,
      "inputs": [
        {
          "indexed": true,
          "internalType": "address",
          "name": "operator",
          "type": "address"
        },
        {
          "indexed": true,
          "internalType": "address",
          "name": "from",
          "type": "address"
        },
        {
          "indexed": true,
          "internalType": "address",
          "name": "to",
          "type": "address"
        },
        {
          "indexed": false,
          "internalType": "uint256",
          "name": "id",
          "type": "uint256"
        },
        {
          "indexed": false,
          "internalType": "uint256",
          "name": "value",
          "type": "uint256"
        }
      ],
      "name": "TransferSingle",
      "type": "event"
    },
    {
      "anonymous": false,
      "inputs": [
        {
          "indexed": false,
          "internalType": "string",
          "name": "value",
          "type": "string"
        },
        {
          "indexed": true,
          "internalType": "uint256",
          "name": "id",
          "type": "uint256"
        }
      ],
      "name": "URI",
      "type": "event"
    },
    {
      "anonymous": false,
      "inputs": [
        {
          "indexed": false,
          "internalType": "address",
          "name": "account",
          "type": "address"
        }
      ],
      "name": "Unpaused",
      "type": "event"
    },
    {
      "inputs": [],
      "name": "DEFAULT_ADMIN_ROLE",
      "outputs": [
        {
          "internalType": "bytes32",
          "name": "",
          "type": "bytes32"
        }
      ],
      "stateMutability": "view",
      "type": "function"
    },
    {
      "inputs": [],
      "name": "ID_TYPE_0",
      "outputs": [
        {
          "internalType": "uint256",
          "name": "",
          "type": "uint256"
        }
      ],
      "stateMutability": "view",
      "type": "function"
    },
    {
      "inputs": [],
      "name": "ID_TYPE_1",
      "outputs": [
        {
          "internalType": "uint256",
          "name": "",
          "type": "uint256"
        }
      ],
      "stateMutability": "view",
      "type": "function"
    },
    {
      "inputs": [],
      "name": "ID_TYPE_10",
      "outputs": [
        {
          "internalType": "uint256",
          "name": "",
          "type": "uint256"
        }
      ],
      "stateMutability": "view",
      "type": "function"
    },
    {
      "inputs": [],
      "name": "ID_TYPE_2",
      "outputs": [
        {
          "internalType": "uint256",
          "name": "",
          "type": "uint256"
        }
      ],
      "stateMutability": "view",
      "type": "function"
    },
    {
      "inputs": [],
      "name": "ID_TYPE_3",
      "outputs": [
        {
          "internalType": "uint256",
          "name": "",
          "type": "uint256"
        }
      ],
      "stateMutability": "view",
      "type": "function"
    },
    {
      "inputs": [],
      "name": "ID_TYPE_4",
      "outputs": [
        {
          "internalType": "uint256",
          "name": "",
          "type": "uint256"
        }
      ],
      "stateMutability": "view",
      "type": "function"
    },
    {
      "inputs": [],
      "name": "ID_TYPE_5",
      "outputs": [
        {
          "internalType": "uint256",
          "name": "",
          "type": "uint256"
        }
      ],
      "stateMutability": "view",
      "type": "function"
    },
    {
      "inputs": [],
      "name": "ID_TYPE_6",
      "outputs": [
        {
          "internalType": "uint256",
          "name": "",
          "type": "uint256"
        }
      ],
      "stateMutability": "view",
      "type": "function"
    },
    {
      "inputs": [],
      "name": "ID_TYPE_7",
      "outputs": [
        {
          "internalType": "uint256",
          "name": "",
          "type": "uint256"
        }
      ],
      "stateMutability": "view",
      "type": "function"
    },
    {
      "inputs": [],
      "name": "ID_TYPE_8",
      "outputs": [
        {
          "internalType": "uint256",
          "name": "",
          "type": "uint256"
        }
      ],
      "stateMutability": "view",
      "type": "function"
    },
    {
      "inputs": [],
      "name": "ID_TYPE_9",
      "outputs": [
        {
          "internalType": "uint256",
          "name": "",
          "type": "uint256"
        }
      ],
      "stateMutability": "view",
      "type": "function"
    },
    {
      "inputs": [],
      "name": "MINT_COST_PER_TOKEN",
      "outputs": [
        {
          "internalType": "uint256",
          "name": "",
          "type": "uint256"
        }
      ],
      "stateMutability": "view",
      "type": "function"
    },
    {
      "inputs": [],
      "name": "OWNER_ROLE",
      "outputs": [
        {
          "internalType": "bytes32",
          "name": "",
          "type": "bytes32"
        }
      ],
      "stateMutability": "view",
      "type": "function"
    },
    {
      "inputs": [],
      "name": "PAUSER_ROLE",
      "outputs": [
        {
          "internalType": "bytes32",
          "name": "",
          "type": "bytes32"
        }
      ],
      "stateMutability": "view",
      "type": "function"
    },
    {
      "inputs": [],
      "name": "SIGNER_ROLE",
      "outputs": [
        {
          "internalType": "bytes32",
          "name": "",
          "type": "bytes32"
        }
      ],
      "stateMutability": "view",
      "type": "function"
    },
    {
      "inputs": [],
      "name": "SUPER_ADMIN",
      "outputs": [
        {
          "internalType": "bytes32",
          "name": "",
          "type": "bytes32"
        }
      ],
      "stateMutability": "view",
      "type": "function"
    },
    {
      "inputs": [
        {
          "internalType": "address",
          "name": "account",
          "type": "address"
        }
      ],
      "name": "addSuperAdmin",
      "outputs": [],
      "stateMutability": "nonpayable",
      "type": "function"
    },
    {
      "inputs": [
        {
          "internalType": "address",
          "name": "account",
          "type": "address"
        },
        {
          "internalType": "uint256",
          "name": "id",
          "type": "uint256"
        }
      ],
      "name": "balanceOf",
      "outputs": [
        {
          "internalType": "uint256",
          "name": "",
          "type": "uint256"
        }
      ],
      "stateMutability": "view",
      "type": "function"
    },
    {
      "inputs": [
        {
          "internalType": "address[]",
          "name": "accounts",
          "type": "address[]"
        },
        {
          "internalType": "uint256[]",
          "name": "ids",
          "type": "uint256[]"
        }
      ],
      "name": "balanceOfBatch",
      "outputs": [
        {
          "internalType": "uint256[]",
          "name": "",
          "type": "uint256[]"
        }
      ],
      "stateMutability": "view",
      "type": "function"
    },
    {
      "inputs": [
        {
          "internalType": "address",
          "name": "account",
          "type": "address"
        },
        {
          "internalType": "uint256",
          "name": "id",
          "type": "uint256"
        },
        {
          "internalType": "uint256",
          "name": "expiresAt",
          "type": "uint256"
        },
        {
          "internalType": "bytes",
          "name": "signature",
          "type": "bytes"
        }
      ],
      "name": "burn",
      "outputs": [],
      "stateMutability": "nonpayable",
      "type": "function"
    },
    {
      "inputs": [
        {
          "internalType": "address",
          "name": "account",
          "type": "address"
        },
        {
          "internalType": "uint256",
          "name": "id",
          "type": "uint256"
        }
      ],
      "name": "burnFrom",
      "outputs": [],
      "stateMutability": "nonpayable",
      "type": "function"
    },
    {
      "inputs": [
        {
          "internalType": "bytes32",
          "name": "role",
          "type": "bytes32"
        }
      ],
      "name": "getRoleAdmin",
      "outputs": [
        {
          "internalType": "bytes32",
          "name": "",
          "type": "bytes32"
        }
      ],
      "stateMutability": "view",
      "type": "function"
    },
    {
      "inputs": [
        {
          "internalType": "bytes32",
          "name": "role",
          "type": "bytes32"
        },
        {
          "internalType": "uint256",
          "name": "index",
          "type": "uint256"
        }
      ],
      "name": "getRoleMember",
      "outputs": [
        {
          "internalType": "address",
          "name": "",
          "type": "address"
        }
      ],
      "stateMutability": "view",
      "type": "function"
    },
    {
      "inputs": [
        {
          "internalType": "bytes32",
          "name": "role",
          "type": "bytes32"
        }
      ],
      "name": "getRoleMemberCount",
      "outputs": [
        {
          "internalType": "uint256",
          "name": "",
          "type": "uint256"
        }
      ],
      "stateMutability": "view",
      "type": "function"
    },
    {
      "inputs": [
        {
          "internalType": "bytes32",
          "name": "role",
          "type": "bytes32"
        },
        {
          "internalType": "address",
          "name": "account",
          "type": "address"
        }
      ],
      "name": "grantRole",
      "outputs": [],
      "stateMutability": "nonpayable",
      "type": "function"
    },
    {
      "inputs": [
        {
          "internalType": "bytes32",
          "name": "role",
          "type": "bytes32"
        },
        {
          "internalType": "address",
          "name": "account",
          "type": "address"
        }
      ],
      "name": "hasRole",
      "outputs": [
        {
          "internalType": "bool",
          "name": "",
          "type": "bool"
        }
      ],
      "stateMutability": "view",
      "type": "function"
    },
    {
      "inputs": [
        {
          "internalType": "address",
          "name": "owner",
          "type": "address"
        },
        {
          "internalType": "string",
          "name": "uri",
          "type": "string"
        }
      ],
      "name": "initialize",
      "outputs": [],
      "stateMutability": "nonpayable",
      "type": "function"
    },
    {
      "inputs": [],
      "name": "isAdmin",
      "outputs": [
        {
          "internalType": "bool",
          "name": "",
          "type": "bool"
        }
      ],
      "stateMutability": "view",
      "type": "function"
    },
    {
      "inputs": [
        {
          "internalType": "address",
          "name": "account",
          "type": "address"
        },
        {
          "internalType": "address",
          "name": "operator",
          "type": "address"
        }
      ],
      "name": "isApprovedForAll",
      "outputs": [
        {
          "internalType": "bool",
          "name": "",
          "type": "bool"
        }
      ],
      "stateMutability": "view",
      "type": "function"
    },
    {
      "inputs": [
        {
          "internalType": "uint256",
          "name": "id",
          "type": "uint256"
        },
        {
          "internalType": "uint256",
          "name": "expiresAt",
          "type": "uint256"
        },
        {
          "internalType": "bytes",
          "name": "signature",
          "type": "bytes"
        }
      ],
      "name": "mint",
      "outputs": [],
      "stateMutability": "payable",
      "type": "function"
    },
    {
      "inputs": [
        {
          "internalType": "address",
          "name": "recipient",
          "type": "address"
        },
        {
          "internalType": "uint256",
          "name": "id",
          "type": "uint256"
        },
        {
          "internalType": "uint256",
          "name": "expiresAt",
          "type": "uint256"
        },
        {
          "internalType": "bytes",
          "name": "signature",
          "type": "bytes"
        }
      ],
      "name": "mintTo",
      "outputs": [],
      "stateMutability": "payable",
      "type": "function"
    },
    {
      "inputs": [],
      "name": "name",
      "outputs": [
        {
          "internalType": "string",
          "name": "",
          "type": "string"
        }
      ],
      "stateMutability": "pure",
      "type": "function"
    },
    {
      "inputs": [
        {
          "internalType": "address",
          "name": "",
          "type": "address"
        }
      ],
      "name": "nonces",
      "outputs": [
        {
          "internalType": "uint256",
          "name": "",
          "type": "uint256"
        }
      ],
      "stateMutability": "view",
      "type": "function"
    },
    {
      "inputs": [],
      "name": "pause",
      "outputs": [],
      "stateMutability": "nonpayable",
      "type": "function"
    },
    {
      "inputs": [],
      "name": "paused",
      "outputs": [
        {
          "internalType": "bool",
          "name": "",
          "type": "bool"
        }
      ],
      "stateMutability": "view",
      "type": "function"
    },
    {
      "inputs": [
        {
          "internalType": "bytes32",
          "name": "role",
          "type": "bytes32"
        },
        {
          "internalType": "address",
          "name": "account",
          "type": "address"
        }
      ],
      "name": "renounceRole",
      "outputs": [],
      "stateMutability": "nonpayable",
      "type": "function"
    },
    {
      "inputs": [
        {
          "internalType": "bytes32",
          "name": "role",
          "type": "bytes32"
        },
        {
          "internalType": "address",
          "name": "account",
          "type": "address"
        }
      ],
      "name": "revokeRole",
      "outputs": [],
      "stateMutability": "nonpayable",
      "type": "function"
    },
    {
      "inputs": [
        {
          "internalType": "address",
          "name": "from",
          "type": "address"
        },
        {
          "internalType": "address",
          "name": "to",
          "type": "address"
        },
        {
          "internalType": "uint256[]",
          "name": "ids",
          "type": "uint256[]"
        },
        {
          "internalType": "uint256[]",
          "name": "amounts",
          "type": "uint256[]"
        },
        {
          "internalType": "bytes",
          "name": "data",
          "type": "bytes"
        }
      ],
      "name": "safeBatchTransferFrom",
      "outputs": [],
      "stateMutability": "nonpayable",
      "type": "function"
    },
    {
      "inputs": [
        {
          "internalType": "address",
          "name": "from",
          "type": "address"
        },
        {
          "internalType": "address",
          "name": "to",
          "type": "address"
        },
        {
          "internalType": "uint256",
          "name": "id",
          "type": "uint256"
        },
        {
          "internalType": "uint256",
          "name": "amount",
          "type": "uint256"
        },
        {
          "internalType": "bytes",
          "name": "data",
          "type": "bytes"
        }
      ],
      "name": "safeTransferFrom",
      "outputs": [],
      "stateMutability": "nonpayable",
      "type": "function"
    },
    {
      "inputs": [
        {
          "internalType": "address",
          "name": "operator",
          "type": "address"
        },
        {
          "internalType": "bool",
          "name": "approved",
          "type": "bool"
        }
      ],
      "name": "setApprovalForAll",
      "outputs": [],
      "stateMutability": "nonpayable",
      "type": "function"
    },
    {
      "inputs": [
        {
          "internalType": "uint256[]",
          "name": "ids",
          "type": "uint256[]"
        },
        {
          "internalType": "bool[]",
          "name": "values",
          "type": "bool[]"
        }
      ],
      "name": "setSupportedUIDTypes",
      "outputs": [],
      "stateMutability": "nonpayable",
      "type": "function"
    },
    {
      "inputs": [
        {
          "internalType": "string",
          "name": "newuri",
          "type": "string"
        }
      ],
      "name": "setURI",
      "outputs": [],
      "stateMutability": "nonpayable",
      "type": "function"
    },
    {
      "inputs": [
        {
          "internalType": "uint256",
          "name": "",
          "type": "uint256"
        }
      ],
      "name": "supportedUIDTypes",
      "outputs": [
        {
          "internalType": "bool",
          "name": "",
          "type": "bool"
        }
      ],
      "stateMutability": "view",
      "type": "function"
    },
    {
      "inputs": [
        {
          "internalType": "bytes4",
          "name": "interfaceId",
          "type": "bytes4"
        }
      ],
      "name": "supportsInterface",
      "outputs": [
        {
          "internalType": "bool",
          "name": "",
          "type": "bool"
        }
      ],
      "stateMutability": "view",
      "type": "function"
    },
    {
      "inputs": [],
      "name": "symbol",
      "outputs": [
        {
          "internalType": "string",
          "name": "",
          "type": "string"
        }
      ],
      "stateMutability": "pure",
      "type": "function"
    },
    {
      "inputs": [
        {
          "internalType": "address",
          "name": "token",
          "type": "address"
        }
      ],
      "name": "unlockWrongToken",
      "outputs": [],
      "stateMutability": "nonpayable",
      "type": "function"
    },
    {
      "inputs": [],
      "name": "unpause",
      "outputs": [],
      "stateMutability": "nonpayable",
      "type": "function"
    },
    {
      "inputs": [
        {
          "internalType": "uint256",
          "name": "",
          "type": "uint256"
        }
      ],
      "name": "uri",
      "outputs": [
        {
          "internalType": "string",
          "name": "",
          "type": "string"
        }
      ],
      "stateMutability": "view",
      "type": "function"
    }
  ],
  "transactionHash": "0x4a7cef4ad05a47b8fd7a47599e2594dfd448f97743fd27d2b33bf8a60171f783",
  "args": [],
  "numDeployments": 2,
  "solcInputHash": "2419c58b171e2aee9dceba7607f20ea3",
  "bytecode": "0x608060405234801561001057600080fd5b50613e65806100206000396000f3fe6080604052600436106102ad5760003560e01c806380f8780211610175578063b3292ff0116100dc578063e58378bb11610095578063ec2e8a751161006f578063ec2e8a7514610853578063f242432a14610868578063f399e22e14610888578063fb79a684146108a857600080fd5b8063e58378bb146107c6578063e63ab1e9146107e8578063e985e9c51461080a57600080fd5b8063b3292ff014610727578063b6db75a014610747578063ca15c8731461075c578063d547741f1461077c578063ddd8f6871461079c578063e57a2a50146107b157600080fd5b806391d148541161012e57806391d148541461068457806395d89b41146106a45780639b56d788146106d0578063a1ebf35d146106e5578063a217fddf146106d0578063a22cb4651461070757600080fd5b806380f87802146105b15780638456cb59146105c6578063879dcceb146105db5780638a94b05f146105fb5780639010d07c1461061b5780639142575d1461065357600080fd5b80632f2ff15d116102195780635c975abb116101d25780635c975abb146104ff578063701d240a1461051757806379cc67901461052c5780637c7c7c3c1461054c5780637ecebe001461056e578063801dfa901461059c57600080fd5b80632f2ff15d1461045357806336568abe146104735780633f4ba83a14610493578063479e743c146104a85780634e1273f4146104bd5780635344626a146104ea57600080fd5b80631484bddd1161026b5780631484bddd146103ab578063248a9ca3146103c0578063280f4e28146103f05780632dc2c007146104035780632e82d8951461041e5780632eb2c2d61461043357600080fd5b8062fdd58e146102b257806301ffc9a7146102e557806302fe53051461031557806306fdde031461033757806308dc9f42146103785780630e89341c1461038b575b600080fd5b3480156102be57600080fd5b506102d26102cd366004612fbd565b6108c8565b6040519081526020015b60405180910390f35b3480156102f157600080fd5b50610305610300366004612ffd565b610963565b60405190151581526020016102dc565b34801561032157600080fd5b506103356103303660046130cf565b61096e565b005b34801561034357600080fd5b5060408051808201909152600f81526e556e69717565204964656e7469747960881b60208201525b6040516102dc919061315b565b6103356103863660046131af565b61099e565b34801561039757600080fd5b5061036b6103a6366004613201565b610ac8565b3480156103b757600080fd5b506102d2600881565b3480156103cc57600080fd5b506102d26103db366004613201565b60009081526065602052604090206001015490565b6103356103fe36600461321a565b610b5c565b34801561040f57600080fd5b506102d26602f2e16f29e00081565b34801561042a57600080fd5b506102d2600381565b34801561043f57600080fd5b5061033561044e366004613315565b610d0c565b34801561045f57600080fd5b5061033561046e3660046133be565b610d58565b34801561047f57600080fd5b5061033561048e3660046133be565b610d82565b34801561049f57600080fd5b50610335610e00565b3480156104b457600080fd5b506102d2600581565b3480156104c957600080fd5b506104dd6104d83660046133ea565b610e8c565b6040516102dc91906134ef565b3480156104f657600080fd5b506102d2600681565b34801561050b57600080fd5b5060fb5460ff16610305565b34801561052357600080fd5b506102d2600181565b34801561053857600080fd5b50610335610547366004612fbd565b610fb5565b34801561055857600080fd5b506102d2600080516020613db083398151915281565b34801561057a57600080fd5b506102d2610589366004613502565b6101916020526000908152604090205481565b3480156105a857600080fd5b506102d2600781565b3480156105bd57600080fd5b506102d2600281565b3480156105d257600080fd5b5061033561103b565b3480156105e757600080fd5b506103356105f6366004613561565b6110c3565b34801561060757600080fd5b5061033561061636600461321a565b6111bc565b34801561062757600080fd5b5061063b6106363660046135c0565b611351565b6040516001600160a01b0390911681526020016102dc565b34801561065f57600080fd5b5061030561066e366004613201565b6101926020526000908152604090205460ff1681565b34801561069057600080fd5b5061030561069f3660046133be565b611370565b3480156106b057600080fd5b5060408051808201909152600381526215525160ea1b602082015261036b565b3480156106dc57600080fd5b506102d2600081565b3480156106f157600080fd5b506102d2600080516020613e1083398151915281565b34801561071357600080fd5b506103356107223660046135f0565b61139b565b34801561073357600080fd5b50610335610742366004613502565b6113a6565b34801561075357600080fd5b506103056113e2565b34801561076857600080fd5b506102d2610777366004613201565b611401565b34801561078857600080fd5b506103356107973660046133be565b611418565b3480156107a857600080fd5b506102d2600a81565b3480156107bd57600080fd5b506102d2600981565b3480156107d257600080fd5b506102d2600080516020613dd083398151915281565b3480156107f457600080fd5b506102d2600080516020613df083398151915281565b34801561081657600080fd5b50610305610825366004613627565b6001600160a01b03918216600090815260ca6020908152604080832093909416825291909152205460ff1690565b34801561085f57600080fd5b506102d2600481565b34801561087457600080fd5b50610335610883366004613651565b61143d565b34801561089457600080fd5b506103356108a33660046136b5565b611482565b3480156108b457600080fd5b506103356108c3366004613502565b6115f5565b60006001600160a01b0383166109385760405162461bcd60e51b815260206004820152602a60248201527f455243313135353a2061646472657373207a65726f206973206e6f742061207660448201526930b634b21037bbb732b960b11b60648201526084015b60405180910390fd5b50600081815260c9602090815260408083206001600160a01b03861684529091529020545b92915050565b600061095d82611841565b6109766113e2565b6109925760405162461bcd60e51b815260040161092f906136f8565b61099b81611881565b50565b33848484848242106109c25760405162461bcd60e51b815260040161092f90613743565b6001600160a01b0385166000908152610191602090815260408083205490516109f692899289928992309291469101613772565b6040516020818303038152906040528051906020012090506000610a198261188d565b9050610a6d600080516020613e1083398151915261069f8387878080601f0160208091040260200160405190810160405280939291908181526020018383808284376000920191909152506118c092505050565b610a895760405162461bcd60e51b815260040161092f906137b8565b33600081815261019160205260408120805460019290610aaa9084906137f6565b90915550610aba9050338d6118dc565b505050505050505050505050565b606060cb8054610ad790613809565b80601f0160208091040260200160405190810160405280929190818152602001828054610b0390613809565b8015610b505780601f10610b2557610100808354040283529160200191610b50565b820191906000526020600020905b815481529060010190602001808311610b3357829003601f168201915b50505050509050919050565b8484848484824210610b805760405162461bcd60e51b815260040161092f90613743565b336000818152610191602090815260408083205481516bffffffffffffffffffffffff19606096871b8116828601528b871b81166034830152604882018b9052606882018a90523090961b9095166088860152609c8501524660bc808601919091528151808603909101815260dc9094019052825192019190912090610c058261188d565b9050610c59600080516020613e1083398151915261069f8387878080601f0160208091040260200160405190810160405280939291908181526020018383808284376000920191909152506118c092505050565b610c755760405162461bcd60e51b815260040161092f906137b8565b33600081815261019160205260408120805460019290610c969084906137f6565b90915550610ca69050338d6108c8565b15610cf35760405162461bcd60e51b815260206004820152601a60248201527f6d736753656e64657220616c7265616479206f776e7320554944000000000000604482015260640161092f565b610cfd8d8d6118dc565b50505050505050505050505050565b6001600160a01b038516331480610d285750610d288533610825565b610d445760405162461bcd60e51b815260040161092f90613843565b610d5185858585856119fe565b5050505050565b600082815260656020526040902060010154610d7381611bec565b610d7d8383611bf6565b505050565b6001600160a01b0381163314610df25760405162461bcd60e51b815260206004820152602f60248201527f416363657373436f6e74726f6c3a2063616e206f6e6c792072656e6f756e636560448201526e103937b632b9903337b91039b2b63360891b606482015260840161092f565b610dfc8282611c18565b5050565b610e18600080516020613df083398151915233611370565b610e825760405162461bcd60e51b815260206004820152603560248201527f455243313135355072657365745061757365723a206d75737420686176652070604482015274617573657220726f6c6520746f20756e706175736560581b606482015260840161092f565b610e8a611c3a565b565b60608151835114610ef15760405162461bcd60e51b815260206004820152602960248201527f455243313135353a206163636f756e747320616e6420696473206c656e677468604482015268040dad2e6dac2e8c6d60bb1b606482015260840161092f565b600083516001600160401b03811115610f0c57610f0c61301a565b604051908082528060200260200182016040528015610f35578160200160208202803683370190505b50905060005b8451811015610fad57610f80858281518110610f5957610f59613891565b6020026020010151858381518110610f7357610f73613891565b60200260200101516108c8565b828281518110610f9257610f92613891565b6020908102919091010152610fa6816138a7565b9050610f3b565b509392505050565b600080516020613db0833981519152610fcd81611bec565b610fd983836001611c8c565b6000610fe584846108c8565b905080156110355760405162461bcd60e51b815260206004820152601c60248201527f42616c616e6365206166746572206275726e206d757374206265203000000000604482015260640161092f565b50505050565b611053600080516020613df083398151915233611370565b6110bb5760405162461bcd60e51b815260206004820152603360248201527f455243313135355072657365745061757365723a206d75737420686176652070604482015272617573657220726f6c6520746f20706175736560681b606482015260840161092f565b610e8a611e25565b6110cb6113e2565b6110e75760405162461bcd60e51b815260040161092f906136f8565b8281146111365760405162461bcd60e51b815260206004820181905260248201527f6163636f756e747320616e6420696473206c656e677468206d69736d61746368604482015260640161092f565b60005b83811015610d515782828281811061115357611153613891565b905060200201602081019061116891906138c0565b610192600087878581811061117f5761117f613891565b90506020020135815260200190815260200160002060006101000a81548160ff021916908315150217905550806111b5906138a7565b9050611139565b84848484848242106111e05760405162461bcd60e51b815260040161092f90613743565b6001600160a01b03851660009081526101916020908152604080832054905161121492899289928992309291469101613772565b60405160208183030381529060405280519060200120905060006112378261188d565b905061128b600080516020613e1083398151915261069f8387878080601f0160208091040260200160405190810160405280939291908181526020018383808284376000920191909152506118c092505050565b6112a75760405162461bcd60e51b815260040161092f906137b8565b6001600160a01b038c1660009081526101916020526040812080548e92600192916112d39084906137f6565b909155506112e590508d8d6001611c8c565b60006112f18e8e6108c8565b905080156113415760405162461bcd60e51b815260206004820152601c60248201527f42616c616e6365206166746572206275726e206d757374206265203000000000604482015260640161092f565b5050505050505050505050505050565b60008281526097602052604081206113699083611e62565b9392505050565b60009182526065602090815260408084206001600160a01b0393909316845291905290205460ff1690565b610dfc338383611e6e565b6113ae6113e2565b6113ca5760405162461bcd60e51b815260040161092f906136f8565b61099b600080516020613db083398151915282611f4e565b60006113fc600080516020613dd083398151915233611370565b905090565b600081815260976020526040812061095d90611f58565b60008281526065602052604090206001015461143381611bec565b610d7d8383611c18565b6001600160a01b03851633148061145957506114598533610825565b6114755760405162461bcd60e51b815260040161092f90613843565b610d518585858585611f62565b600054610100900460ff16158080156114a25750600054600160ff909116105b806114bc5750303b1580156114bc575060005460ff166001145b61151f5760405162461bcd60e51b815260206004820152602e60248201527f496e697469616c697a61626c653a20636f6e747261637420697320616c72656160448201526d191e481a5b9a5d1a585b1a5e995960921b606482015260840161092f565b6000805460ff191660011790558015611542576000805461ff0019166101001790555b6001600160a01b0383166115985760405162461bcd60e51b815260206004820152601d60248201527f4f776e657220616464726573732063616e6e6f7420626520656d707479000000604482015260640161092f565b6115a2838361209e565b6115ab83612107565b8015610d7d576000805461ff0019169055604051600181527f7f26b83ff96e1f2b6a682f133852f6798a09c465da95921460cefb38474024989060200160405180910390a1505050565b6115fd6113e2565b6116195760405162461bcd60e51b815260040161092f906136f8565b6001600160a01b03811661171b576000336040516370a0823160e01b81523060048201526001600160a01b03918216918416906370a0823190602401602060405180830381865afa158015611672573d6000803e3d6000fd5b505050506040513d601f19601f8201168201806040525081019061169691906138dd565b604051600081818185875af1925050503d80600081146116d2576040519150601f19603f3d011682016040523d82523d6000602084013e6116d7565b606091505b5050905080610dfc5760405162461bcd60e51b815260206004820152601060248201526f2a3930b739b332b9103330b4b632b21760811b604482015260640161092f565b6001600160a01b03811663a9059cbb336040516370a0823160e01b81523060048201526001600160a01b038516906370a0823190602401602060405180830381865afa15801561176f573d6000803e3d6000fd5b505050506040513d601f19601f8201168201806040525081019061179391906138dd565b6040516001600160e01b031960e085901b1681526001600160a01b03909216600483015260248201526044016020604051808303816000875af11580156117de573d6000803e3d6000fd5b505050506040513d601f19601f8201168201806040525081019061180291906138f6565b61099b5760405162461bcd60e51b815260206004820152601060248201526f2a3930b739b332b9103330b4b632b21760811b604482015260640161092f565b60006001600160e01b03198216636cdb3d1360e11b148061187257506001600160e01b031982166303a24d0760e21b145b8061095d575061095d82612137565b60cb610dfc8282613959565b7f19457468657265756d205369676e6564204d6573736167653a0a3332000000006000908152601c91909152603c902090565b60008060006118cf858561215c565b91509150610fad816121a1565b6602f2e16f29e0003410156119335760405162461bcd60e51b815260206004820152601f60248201527f546f6b656e206d696e7420726571756972657320302e30303038332045544800604482015260640161092f565b6000818152610192602052604090205460ff1661198b5760405162461bcd60e51b8152602060048201526016602482015275151bdad95b881a59081b9bdd081cdd5c1c1bdc9d195960521b604482015260640161092f565b61199582826108c8565b156119e25760405162461bcd60e51b815260206004820152601d60248201527f42616c616e6365206265666f7265206d696e74206d7573742062652030000000604482015260640161092f565b610dfc82826001604051806020016040528060008152506122eb565b8151835114611a605760405162461bcd60e51b815260206004820152602860248201527f455243313135353a2069647320616e6420616d6f756e7473206c656e677468206044820152670dad2e6dac2e8c6d60c31b606482015260840161092f565b6001600160a01b038416611a865760405162461bcd60e51b815260040161092f90613a18565b33611a95818787878787612407565b60005b8451811015611b7e576000858281518110611ab557611ab5613891565b602002602001015190506000858381518110611ad357611ad3613891565b602090810291909101810151600084815260c9835260408082206001600160a01b038e168352909352919091205490915081811015611b245760405162461bcd60e51b815260040161092f90613a5d565b600083815260c9602090815260408083206001600160a01b038e8116855292528083208585039055908b16825281208054849290611b639084906137f6565b9250508190555050505080611b77906138a7565b9050611a98565b50846001600160a01b0316866001600160a01b0316826001600160a01b03167f4a39dc06d4c0dbc64b70af90fd698a233a518aa5d07e595d983b8c0526c8f7fb8787604051611bce929190613aa7565b60405180910390a4611be48187878787876124b5565b505050505050565b61099b8133612610565b611c008282612669565b6000828152609760205260409020610d7d90826126ef565b611c228282612704565b6000828152609760205260409020610d7d908261276b565b611c42612780565b60fb805460ff191690557f5db9ee0a495bf2e6ff9c91a7834c1ba4fdd244a5e8aa4e537bd38aeae4b073aa335b6040516001600160a01b03909116815260200160405180910390a1565b6001600160a01b038316611cee5760405162461bcd60e51b815260206004820152602360248201527f455243313135353a206275726e2066726f6d20746865207a65726f206164647260448201526265737360e81b606482015260840161092f565b336000611cfa846127c9565b90506000611d07846127c9565b9050611d2783876000858560405180602001604052806000815250612407565b600085815260c9602090815260408083206001600160a01b038a16845290915290205484811015611da65760405162461bcd60e51b8152602060048201526024808201527f455243313135353a206275726e20616d6f756e7420657863656564732062616c604482015263616e636560e01b606482015260840161092f565b600086815260c9602090815260408083206001600160a01b038b81168086529184528285208a8703905582518b81529384018a90529092908816917fc3d58168c5ae7397731d063d5bbf3d657854427343f4c083240f7aacaa2d0f62910160405180910390a46040805160208101909152600090525b50505050505050565b611e2d612814565b60fb805460ff191660011790557f62e78cea01bee320cd4e420270b5ea74000d11b0c9f74754ebdbfc544b05a258611c6f3390565b6000611369838361285a565b816001600160a01b0316836001600160a01b031603611ee15760405162461bcd60e51b815260206004820152602960248201527f455243313135353a2073657474696e6720617070726f76616c20737461747573604482015268103337b91039b2b63360b91b606482015260840161092f565b6001600160a01b03838116600081815260ca6020908152604080832094871680845294825291829020805460ff191686151590811790915591519182527f17307eab39ab6107e8899845ad3d59bd9653f200f220920489ca2b5937696c31910160405180910390a3505050565b610dfc8282611bf6565b600061095d825490565b6001600160a01b038416611f885760405162461bcd60e51b815260040161092f90613a18565b336000611f94856127c9565b90506000611fa1856127c9565b9050611fb1838989858589612407565b600086815260c9602090815260408083206001600160a01b038c16845290915290205485811015611ff45760405162461bcd60e51b815260040161092f90613a5d565b600087815260c9602090815260408083206001600160a01b038d8116855292528083208985039055908a168252812080548892906120339084906137f6565b909155505060408051888152602081018890526001600160a01b03808b16928c821692918816917fc3d58168c5ae7397731d063d5bbf3d657854427343f4c083240f7aacaa2d0f62910160405180910390a4612093848a8a8a8a8a612884565b505050505050505050565b600054610100900460ff166120c55760405162461bcd60e51b815260040161092f90613ad5565b6120cd61293f565b6120d561293f565b6120dd61293f565b6120e561293f565b6120ee81612966565b6120f661298d565b6120fe61293f565b610dfc826129c0565b600054610100900460ff1661212e5760405162461bcd60e51b815260040161092f90613ad5565b61099b81612a55565b60006001600160e01b03198216635a05180f60e01b148061095d575061095d82612af8565b60008082516041036121925760208301516040840151606085015160001a61218687828585612b2d565b9450945050505061219a565b506000905060025b9250929050565b60008160048111156121b5576121b5613b20565b036121bd5750565b60018160048111156121d1576121d1613b20565b0361221e5760405162461bcd60e51b815260206004820152601860248201527f45434453413a20696e76616c6964207369676e61747572650000000000000000604482015260640161092f565b600281600481111561223257612232613b20565b0361227f5760405162461bcd60e51b815260206004820152601f60248201527f45434453413a20696e76616c6964207369676e6174757265206c656e67746800604482015260640161092f565b600381600481111561229357612293613b20565b0361099b5760405162461bcd60e51b815260206004820152602260248201527f45434453413a20696e76616c6964207369676e6174757265202773272076616c604482015261756560f01b606482015260840161092f565b6001600160a01b03841661234b5760405162461bcd60e51b815260206004820152602160248201527f455243313135353a206d696e7420746f20746865207a65726f206164647265736044820152607360f81b606482015260840161092f565b336000612357856127c9565b90506000612364856127c9565b905061237583600089858589612407565b600086815260c9602090815260408083206001600160a01b038b168452909152812080548792906123a79084906137f6565b909155505060408051878152602081018790526001600160a01b03808a1692600092918716917fc3d58168c5ae7397731d063d5bbf3d657854427343f4c083240f7aacaa2d0f62910160405180910390a4611e1c83600089898989612884565b6001600160a01b03851615801561242657506001600160a01b03841615155b8061244b57506001600160a01b0385161580159061244b57506001600160a01b038416155b6124a75760405162461bcd60e51b815260206004820152602760248201527f4f6e6c79206d696e74206f72206275726e207472616e73666572732061726520604482015266185b1b1bddd95960ca1b606482015260840161092f565b611be4868686868686612bf1565b6001600160a01b0384163b15611be45760405163bc197c8160e01b81526001600160a01b0385169063bc197c81906124f99089908990889088908890600401613b36565b6020604051808303816000875af1925050508015612534575060408051601f3d908101601f1916820190925261253191810190613b94565b60015b6125e057612540613bb1565b806308c379a0036125795750612554613bcd565b8061255f575061257b565b8060405162461bcd60e51b815260040161092f919061315b565b505b60405162461bcd60e51b815260206004820152603460248201527f455243313135353a207472616e7366657220746f206e6f6e2d455243313135356044820152732932b1b2b4bb32b91034b6b83632b6b2b73a32b960611b606482015260840161092f565b6001600160e01b0319811663bc197c8160e01b14611e1c5760405162461bcd60e51b815260040161092f90613c56565b61261a8282611370565b610dfc5761262781612bff565b612632836020612c11565b604051602001612643929190613c9e565b60408051601f198184030181529082905262461bcd60e51b825261092f9160040161315b565b6126738282611370565b610dfc5760008281526065602090815260408083206001600160a01b03851684529091529020805460ff191660011790556126ab3390565b6001600160a01b0316816001600160a01b0316837f2f8788117e7eff1d82e926ec794901d17c78024a50270940304540a733656f0d60405160405180910390a45050565b6000611369836001600160a01b038416612dac565b61270e8282611370565b15610dfc5760008281526065602090815260408083206001600160a01b0385168085529252808320805460ff1916905551339285917ff6391f5c32d9c69d2a47ea670b442974b53935d1edc7fd64eb21e047a839171b9190a45050565b6000611369836001600160a01b038416612dfb565b60fb5460ff16610e8a5760405162461bcd60e51b815260206004820152601460248201527314185d5cd8589b194e881b9bdd081c185d5cd95960621b604482015260640161092f565b6040805160018082528183019092526060916000919060208083019080368337019050509050828160008151811061280357612803613891565b602090810291909101015292915050565b60fb5460ff1615610e8a5760405162461bcd60e51b815260206004820152601060248201526f14185d5cd8589b194e881c185d5cd95960821b604482015260640161092f565b600082600001828154811061287157612871613891565b9060005260206000200154905092915050565b6001600160a01b0384163b15611be45760405163f23a6e6160e01b81526001600160a01b0385169063f23a6e61906128c89089908990889088908890600401613d13565b6020604051808303816000875af1925050508015612903575060408051601f3d908101601f1916820190925261290091810190613b94565b60015b61290f57612540613bb1565b6001600160e01b0319811663f23a6e6160e01b14611e1c5760405162461bcd60e51b815260040161092f90613c56565b600054610100900460ff16610e8a5760405162461bcd60e51b815260040161092f90613ad5565b600054610100900460ff166109925760405162461bcd60e51b815260040161092f90613ad5565b600054610100900460ff166129b45760405162461bcd60e51b815260040161092f90613ad5565b60fb805460ff19169055565b600054610100900460ff166129e75760405162461bcd60e51b815260040161092f90613ad5565b6129ff600080516020613dd083398151915282611f4e565b612a17600080516020613df083398151915282611f4e565b612a3d600080516020613df0833981519152600080516020613dd0833981519152612eee565b61099b600080516020613dd083398151915280612eee565b600054610100900460ff16612a7c5760405162461bcd60e51b815260040161092f90613ad5565b612a94600080516020613e1083398151915282611f4e565b612aba600080516020613e10833981519152600080516020613dd0833981519152612eee565b612ad2600080516020613db083398151915282611f4e565b61099b600080516020613db0833981519152600080516020613dd0833981519152612eee565b60006001600160e01b03198216637965db0b60e01b148061095d57506301ffc9a760e01b6001600160e01b031983161461095d565b6000807f7fffffffffffffffffffffffffffffff5d576e7357a4501ddfe92f46681b20a0831115612b645750600090506003612be8565b6040805160008082526020820180845289905260ff881692820192909252606081018690526080810185905260019060a0016020604051602081039080840390855afa158015612bb8573d6000803e3d6000fd5b5050604051601f1901519150506001600160a01b038116612be157600060019250925050612be8565b9150600090505b94509492505050565b611be4868686868686612f39565b606061095d6001600160a01b03831660145b60606000612c20836002613d58565b612c2b9060026137f6565b6001600160401b03811115612c4257612c4261301a565b6040519080825280601f01601f191660200182016040528015612c6c576020820181803683370190505b509050600360fc1b81600081518110612c8757612c87613891565b60200101906001600160f81b031916908160001a905350600f60fb1b81600181518110612cb657612cb6613891565b60200101906001600160f81b031916908160001a9053506000612cda846002613d58565b612ce59060016137f6565b90505b6001811115612d5d576f181899199a1a9b1b9c1cb0b131b232b360811b85600f1660108110612d1957612d19613891565b1a60f81b828281518110612d2f57612d2f613891565b60200101906001600160f81b031916908160001a90535060049490941c93612d5681613d6f565b9050612ce8565b5083156113695760405162461bcd60e51b815260206004820181905260248201527f537472696e67733a20686578206c656e67746820696e73756666696369656e74604482015260640161092f565b6000818152600183016020526040812054612df35750815460018181018455600084815260208082209093018490558454848252828601909352604090209190915561095d565b50600061095d565b60008181526001830160205260408120548015612ee4576000612e1f600183613d86565b8554909150600090612e3390600190613d86565b9050818114612e98576000866000018281548110612e5357612e53613891565b9060005260206000200154905080876000018481548110612e7657612e76613891565b6000918252602080832090910192909255918252600188019052604090208390555b8554869080612ea957612ea9613d99565b60019003818190600052602060002001600090559055856001016000868152602001908152602001600020600090556001935050505061095d565b600091505061095d565b600082815260656020526040808220600101805490849055905190918391839186917fbd79b86ffe0ab8e8776151514217cd7cacd52c909f66475c3af44e129f0b00ff9190a4505050565b60fb5460ff1615611be45760405162461bcd60e51b815260206004820152602c60248201527f455243313135355061757361626c653a20746f6b656e207472616e736665722060448201526b1dda1a5b19481c185d5cd95960a21b606482015260840161092f565b80356001600160a01b0381168114612fb857600080fd5b919050565b60008060408385031215612fd057600080fd5b612fd983612fa1565b946020939093013593505050565b6001600160e01b03198116811461099b57600080fd5b60006020828403121561300f57600080fd5b813561136981612fe7565b634e487b7160e01b600052604160045260246000fd5b601f8201601f191681016001600160401b03811182821017156130555761305561301a565b6040525050565b600082601f83011261306d57600080fd5b81356001600160401b038111156130865761308661301a565b60405161309d601f8301601f191660200182613030565b8181528460208386010111156130b257600080fd5b816020850160208301376000918101602001919091529392505050565b6000602082840312156130e157600080fd5b81356001600160401b038111156130f757600080fd5b6131038482850161305c565b949350505050565b60005b8381101561312657818101518382015260200161310e565b50506000910152565b6000815180845261314781602086016020860161310b565b601f01601f19169290920160200192915050565b602081526000611369602083018461312f565b60008083601f84011261318057600080fd5b5081356001600160401b0381111561319757600080fd5b60208301915083602082850101111561219a57600080fd5b600080600080606085870312156131c557600080fd5b843593506020850135925060408501356001600160401b038111156131e957600080fd5b6131f58782880161316e565b95989497509550505050565b60006020828403121561321357600080fd5b5035919050565b60008060008060006080868803121561323257600080fd5b61323b86612fa1565b9450602086013593506040860135925060608601356001600160401b0381111561326457600080fd5b6132708882890161316e565b969995985093965092949392505050565b60006001600160401b0382111561329a5761329a61301a565b5060051b60200190565b600082601f8301126132b557600080fd5b813560206132c282613281565b6040516132cf8282613030565b83815260059390931b85018201928281019150868411156132ef57600080fd5b8286015b8481101561330a57803583529183019183016132f3565b509695505050505050565b600080600080600060a0868803121561332d57600080fd5b61333686612fa1565b945061334460208701612fa1565b935060408601356001600160401b038082111561336057600080fd5b61336c89838a016132a4565b9450606088013591508082111561338257600080fd5b61338e89838a016132a4565b935060808801359150808211156133a457600080fd5b506133b18882890161305c565b9150509295509295909350565b600080604083850312156133d157600080fd5b823591506133e160208401612fa1565b90509250929050565b600080604083850312156133fd57600080fd5b82356001600160401b038082111561341457600080fd5b818501915085601f83011261342857600080fd5b8135602061343582613281565b6040516134428282613030565b83815260059390931b850182019282810191508984111561346257600080fd5b948201945b838610156134875761347886612fa1565b82529482019490820190613467565b9650508601359250508082111561349d57600080fd5b506134aa858286016132a4565b9150509250929050565b600081518084526020808501945080840160005b838110156134e4578151875295820195908201906001016134c8565b509495945050505050565b60208152600061136960208301846134b4565b60006020828403121561351457600080fd5b61136982612fa1565b60008083601f84011261352f57600080fd5b5081356001600160401b0381111561354657600080fd5b6020830191508360208260051b850101111561219a57600080fd5b6000806000806040858703121561357757600080fd5b84356001600160401b038082111561358e57600080fd5b61359a8883890161351d565b909650945060208701359150808211156135b357600080fd5b506131f58782880161351d565b600080604083850312156135d357600080fd5b50508035926020909101359150565b801515811461099b57600080fd5b6000806040838503121561360357600080fd5b61360c83612fa1565b9150602083013561361c816135e2565b809150509250929050565b6000806040838503121561363a57600080fd5b61364383612fa1565b91506133e160208401612fa1565b600080600080600060a0868803121561366957600080fd5b61367286612fa1565b945061368060208701612fa1565b9350604086013592506060860135915060808601356001600160401b038111156136a957600080fd5b6133b18882890161305c565b600080604083850312156136c857600080fd5b6136d183612fa1565b915060208301356001600160401b038111156136ec57600080fd5b6134aa8582860161305c565b6020808252602b908201527f4d75737420686176652061646d696e20726f6c6520746f20706572666f726d2060408201526a3a3434b99030b1ba34b7b760a91b606082015260800190565b60208082526015908201527414da59db985d1d5c99481a185cc8195e1c1a5c9959605a1b604082015260600190565b6bffffffffffffffffffffffff19606097881b81168252601482019690965260348101949094529190941b90921660548201526068810192909252608882015260a80190565b6020808252600e908201526d24b73b30b634b21039b4b3b732b960911b604082015260600190565b634e487b7160e01b600052601160045260246000fd5b8082018082111561095d5761095d6137e0565b600181811c9082168061381d57607f821691505b60208210810361383d57634e487b7160e01b600052602260045260246000fd5b50919050565b6020808252602e908201527f455243313135353a2063616c6c6572206973206e6f7420746f6b656e206f776e60408201526d195c881bdc88185c1c1c9bdd995960921b606082015260800190565b634e487b7160e01b600052603260045260246000fd5b6000600182016138b9576138b96137e0565b5060010190565b6000602082840312156138d257600080fd5b8135611369816135e2565b6000602082840312156138ef57600080fd5b5051919050565b60006020828403121561390857600080fd5b8151611369816135e2565b601f821115610d7d57600081815260208120601f850160051c8101602086101561393a5750805b601f850160051c820191505b81811015611be457828155600101613946565b81516001600160401b038111156139725761397261301a565b613986816139808454613809565b84613913565b602080601f8311600181146139bb57600084156139a35750858301515b600019600386901b1c1916600185901b178555611be4565b600085815260208120601f198616915b828110156139ea578886015182559484019460019091019084016139cb565b5085821015613a085787850151600019600388901b60f8161c191681555b5050505050600190811b01905550565b60208082526025908201527f455243313135353a207472616e7366657220746f20746865207a65726f206164604082015264647265737360d81b606082015260800190565b6020808252602a908201527f455243313135353a20696e73756666696369656e742062616c616e636520666f60408201526939103a3930b739b332b960b11b606082015260800190565b604081526000613aba60408301856134b4565b8281036020840152613acc81856134b4565b95945050505050565b6020808252602b908201527f496e697469616c697a61626c653a20636f6e7472616374206973206e6f74206960408201526a6e697469616c697a696e6760a81b606082015260800190565b634e487b7160e01b600052602160045260246000fd5b6001600160a01b0386811682528516602082015260a060408201819052600090613b62908301866134b4565b8281036060840152613b7481866134b4565b90508281036080840152613b88818561312f565b98975050505050505050565b600060208284031215613ba657600080fd5b815161136981612fe7565b600060033d1115613bca5760046000803e5060005160e01c5b90565b600060443d1015613bdb5790565b6040516003193d81016004833e81513d6001600160401b038160248401118184111715613c0a57505050505090565b8285019150815181811115613c225750505050505090565b843d8701016020828501011115613c3c5750505050505090565b613c4b60208286010187613030565b509095945050505050565b60208082526028908201527f455243313135353a204552433131353552656365697665722072656a656374656040820152676420746f6b656e7360c01b606082015260800190565b7f416363657373436f6e74726f6c3a206163636f756e7420000000000000000000815260008351613cd681601785016020880161310b565b7001034b99036b4b9b9b4b733903937b6329607d1b6017918401918201528351613d0781602884016020880161310b565b01602801949350505050565b6001600160a01b03868116825285166020820152604081018490526060810183905260a060808201819052600090613d4d9083018461312f565b979650505050505050565b808202811582820484141761095d5761095d6137e0565b600081613d7e57613d7e6137e0565b506000190190565b8181038181111561095d5761095d6137e0565b634e487b7160e01b600052603160045260246000fdfed980155b32cf66e6af51e0972d64b9d5efe0e6f237dfaa4bdc83f990dd79e9c8b19546dff01e856fb3f010c267a7b1c60363cf8a4664e21cc89c26224620214e65d7a28e3265b37a6474929f336521b332c1681b933f6cb9f3376673440d862ae2f4eaae4a9751e85a3e4a7b9587827a877f29914755229b07a7b2da98285f70a26469706673582212207cfe87d64889f886f033902c02ad06421643e269d9815add1673680a8b3c6abe64736f6c63430008130033",
  "devdoc": {
    "author": "Untangled",
    "events": {
      "ApprovalForAll(address,address,bool)": {
        "details": "Emitted when `account` grants or revokes permission to `operator` to transfer their tokens, according to `approved`."
      },
      "Initialized(uint8)": {
        "details": "Triggered when the contract has been initialized or reinitialized."
      },
      "Paused(address)": {
        "details": "Emitted when the pause is triggered by `account`."
      },
      "RoleAdminChanged(bytes32,bytes32,bytes32)": {
        "details": "Emitted when `newAdminRole` is set as ``role``'s admin role, replacing `previousAdminRole` `DEFAULT_ADMIN_ROLE` is the starting admin for all roles, despite {RoleAdminChanged} not being emitted signaling this. _Available since v3.1._"
      },
      "RoleGranted(bytes32,address,address)": {
        "details": "Emitted when `account` is granted `role`. `sender` is the account that originated the contract call, an admin role bearer except when using {AccessControl-_setupRole}."
      },
      "RoleRevoked(bytes32,address,address)": {
        "details": "Emitted when `account` is revoked `role`. `sender` is the account that originated the contract call:   - if using `revokeRole`, it is the admin role bearer   - if using `renounceRole`, it is the role bearer (i.e. `account`)"
      },
      "TransferBatch(address,address,address,uint256[],uint256[])": {
        "details": "Equivalent to multiple {TransferSingle} events, where `operator`, `from` and `to` are the same for all transfers."
      },
      "TransferSingle(address,address,address,uint256,uint256)": {
        "details": "Emitted when `value` tokens of token type `id` are transferred from `from` to `to` by `operator`."
      },
      "URI(string,uint256)": {
        "details": "Emitted when the URI for token type `id` changes to `value`, if it is a non-programmatic URI. If an {URI} event was emitted for `id`, the standard https://eips.ethereum.org/EIPS/eip-1155#metadata-extensions[guarantees] that `value` will equal the value returned by {IERC1155MetadataURI-uri}."
      },
      "Unpaused(address)": {
        "details": "Emitted when the pause is lifted by `account`."
      }
    },
    "kind": "dev",
    "methods": {
      "balanceOf(address,uint256)": {
        "details": "See {IERC1155-balanceOf}. Requirements: - `account` cannot be the zero address."
      },
      "balanceOfBatch(address[],uint256[])": {
        "details": "See {IERC1155-balanceOfBatch}. Requirements: - `accounts` and `ids` must have the same length."
      },
      "burn(address,uint256,uint256,bytes)": {
        "params": {
          "account": "The account which currently owns the UID",
          "expiresAt": "The expiration time of the signature",
          "id": "The id representing the KYC type of the UniqueIdentity",
          "signature": "An EIP-191 signature of the corresponding burn params:                  (account, id, expiresAt, address(this), nonces[account], block.chainid)                  from an address with the SIGNER_ROLE."
        }
      },
      "burnFrom(address,uint256)": {
        "params": {
          "account": "The account which currently owns the UID",
          "id": "The id representing the KYC type of the UniqueIdentity"
        }
      },
      "getRoleAdmin(bytes32)": {
        "details": "Returns the admin role that controls `role`. See {grantRole} and {revokeRole}. To change a role's admin, use {_setRoleAdmin}."
      },
      "getRoleMember(bytes32,uint256)": {
        "details": "Returns one of the accounts that have `role`. `index` must be a value between 0 and {getRoleMemberCount}, non-inclusive. Role bearers are not sorted in any particular way, and their ordering may change at any point. WARNING: When using {getRoleMember} and {getRoleMemberCount}, make sure you perform all queries on the same block. See the following https://forum.openzeppelin.com/t/iterating-over-elements-on-enumerableset-in-openzeppelin-contracts/2296[forum post] for more information."
      },
      "getRoleMemberCount(bytes32)": {
        "details": "Returns the number of accounts that have `role`. Can be used together with {getRoleMember} to enumerate all bearers of a role."
      },
      "grantRole(bytes32,address)": {
        "details": "Grants `role` to `account`. If `account` had not been already granted `role`, emits a {RoleGranted} event. Requirements: - the caller must have ``role``'s admin role. May emit a {RoleGranted} event."
      },
      "hasRole(bytes32,address)": {
        "details": "Returns `true` if `account` has been granted `role`."
      },
      "isApprovedForAll(address,address)": {
        "details": "See {IERC1155-isApprovedForAll}."
      },
      "mint(uint256,uint256,bytes)": {
        "params": {
          "expiresAt": "The expiration time of the signature",
          "id": "The id representing the KYC type of the UniqueIdentity",
          "signature": "An EIP-191 signature of the corresponding mint params:                  account, id, expiresAt, address(this), nonces[account], block.chainid                  from an address with the SIGNER_ROLE."
        }
      },
      "mintTo(address,uint256,uint256,bytes)": {
        "params": {
          "expiresAt": "The expiration time of the signature",
          "id": "The id representing the KYC type of the UniqueIdentity",
          "recipient": "The recipient address to be minted to.",
          "signature": "An EIP-191 signature of the corresponding mintTo params:                  (account, recipient, id, expiresAt, address(this), nonces[account], block.chainid)                  from an address with the SIGNER_ROLE."
        }
      },
      "name()": {
        "details": "Gets the token name.",
        "returns": {
          "_0": "string representing the token name"
        }
      },
      "pause()": {
        "details": "Pauses all token transfers. See {ERC1155Pausable} and {Pausable-_pause}. Requirements: - the caller must have the `PAUSER_ROLE`."
      },
      "paused()": {
        "details": "Returns true if the contract is paused, and false otherwise."
      },
      "renounceRole(bytes32,address)": {
        "details": "Revokes `role` from the calling account. Roles are often managed via {grantRole} and {revokeRole}: this function's purpose is to provide a mechanism for accounts to lose their privileges if they are compromised (such as when a trusted device is misplaced). If the calling account had been revoked `role`, emits a {RoleRevoked} event. Requirements: - the caller must be `account`. May emit a {RoleRevoked} event."
      },
      "revokeRole(bytes32,address)": {
        "details": "Revokes `role` from `account`. If `account` had been granted `role`, emits a {RoleRevoked} event. Requirements: - the caller must have ``role``'s admin role. May emit a {RoleRevoked} event."
      },
      "safeBatchTransferFrom(address,address,uint256[],uint256[],bytes)": {
        "details": "See {IERC1155-safeBatchTransferFrom}."
      },
      "safeTransferFrom(address,address,uint256,uint256,bytes)": {
        "details": "See {IERC1155-safeTransferFrom}."
      },
      "setApprovalForAll(address,bool)": {
        "details": "See {IERC1155-setApprovalForAll}."
      },
      "supportsInterface(bytes4)": {
        "details": "See {IERC165-supportsInterface}."
      },
      "symbol()": {
        "details": "Gets the token symbol.",
        "returns": {
          "_0": "string representing the token symbol"
        }
      },
      "unpause()": {
        "details": "Unpauses all token transfers. See {ERC1155Pausable} and {Pausable-_unpause}. Requirements: - the caller must have the `PAUSER_ROLE`."
      },
      "uri(uint256)": {
        "details": "See {IERC1155MetadataURI-uri}. This implementation returns the same URI for *all* token types. It relies on the token type ID substitution mechanism https://eips.ethereum.org/EIPS/eip-1155#metadata[defined in the EIP]. Clients calling this function must replace the `\\{id\\}` substring with the actual token type ID."
      }
    },
    "stateVariables": {
      "nonces": {
        "details": "We include a nonce in every hashed message, and increment the nonce as part of a state-changing operation, so as to prevent replay attacks, i.e. the reuse of a signature."
      }
    },
    "title": "UniqueIdentity",
    "version": 1
  },
  "userdoc": {
    "kind": "user",
    "methods": {
      "burn(address,uint256,uint256,bytes)": {
        "notice": "Burn a UniqueIdentity token of `id` from the `account`"
      },
      "burnFrom(address,uint256)": {
        "notice": "Burn a UniqueIdentity token of `id` from the `account` by using SUPPER_ADMIN wallet"
      },
      "mint(uint256,uint256,bytes)": {
        "notice": "Mint a new UniqueIdentity token to the msgSender"
      },
      "mintTo(address,uint256,uint256,bytes)": {
        "notice": "Mint a new UniqueIdentity token to the `recipient`"
      }
    },
    "notice": "UniqueIdentity is an ERC1155-compliant contract for representing the identity verification status of addresses.",
    "version": 1
  },
  "storageLayout": {
    "storage": [
      {
        "astId": 585,
        "contract": "contracts/uid/UniqueIdentity.sol:UniqueIdentity",
        "label": "_initialized",
        "offset": 0,
        "slot": "0",
        "type": "t_uint8"
      },
      {
        "astId": 588,
        "contract": "contracts/uid/UniqueIdentity.sol:UniqueIdentity",
        "label": "_initializing",
        "offset": 1,
        "slot": "0",
        "type": "t_bool"
      },
      {
        "astId": 2817,
        "contract": "contracts/uid/UniqueIdentity.sol:UniqueIdentity",
        "label": "__gap",
        "offset": 0,
        "slot": "1",
        "type": "t_array(t_uint256)50_storage"
      },
      {
        "astId": 3456,
        "contract": "contracts/uid/UniqueIdentity.sol:UniqueIdentity",
        "label": "__gap",
        "offset": 0,
        "slot": "51",
        "type": "t_array(t_uint256)50_storage"
      },
      {
        "astId": 184,
        "contract": "contracts/uid/UniqueIdentity.sol:UniqueIdentity",
        "label": "_roles",
        "offset": 0,
        "slot": "101",
        "type": "t_mapping(t_bytes32,t_struct(RoleData)179_storage)"
      },
      {
        "astId": 479,
        "contract": "contracts/uid/UniqueIdentity.sol:UniqueIdentity",
        "label": "__gap",
        "offset": 0,
        "slot": "102",
        "type": "t_array(t_uint256)49_storage"
      },
      {
        "astId": 33,
        "contract": "contracts/uid/UniqueIdentity.sol:UniqueIdentity",
        "label": "_roleMembers",
        "offset": 0,
        "slot": "151",
        "type": "t_mapping(t_bytes32,t_struct(AddressSet)4766_storage)"
      },
      {
        "astId": 143,
        "contract": "contracts/uid/UniqueIdentity.sol:UniqueIdentity",
        "label": "__gap",
        "offset": 0,
        "slot": "152",
        "type": "t_array(t_uint256)49_storage"
      },
      {
        "astId": 903,
        "contract": "contracts/uid/UniqueIdentity.sol:UniqueIdentity",
        "label": "_balances",
        "offset": 0,
        "slot": "201",
        "type": "t_mapping(t_uint256,t_mapping(t_address,t_uint256))"
      },
      {
        "astId": 909,
        "contract": "contracts/uid/UniqueIdentity.sol:UniqueIdentity",
        "label": "_operatorApprovals",
        "offset": 0,
        "slot": "202",
        "type": "t_mapping(t_address,t_mapping(t_address,t_bool))"
      },
      {
        "astId": 911,
        "contract": "contracts/uid/UniqueIdentity.sol:UniqueIdentity",
        "label": "_uri",
        "offset": 0,
        "slot": "203",
        "type": "t_string_storage"
      },
      {
        "astId": 2118,
        "contract": "contracts/uid/UniqueIdentity.sol:UniqueIdentity",
        "label": "__gap",
        "offset": 0,
        "slot": "204",
        "type": "t_array(t_uint256)47_storage"
      },
      {
        "astId": 768,
        "contract": "contracts/uid/UniqueIdentity.sol:UniqueIdentity",
        "label": "_paused",
        "offset": 0,
        "slot": "251",
        "type": "t_bool"
      },
      {
        "astId": 873,
        "contract": "contracts/uid/UniqueIdentity.sol:UniqueIdentity",
        "label": "__gap",
        "offset": 0,
        "slot": "252",
        "type": "t_array(t_uint256)49_storage"
      },
      {
        "astId": 2352,
        "contract": "contracts/uid/UniqueIdentity.sol:UniqueIdentity",
        "label": "__gap",
        "offset": 0,
        "slot": "301",
        "type": "t_array(t_uint256)50_storage"
      },
      {
        "astId": 5264,
        "contract": "contracts/uid/UniqueIdentity.sol:UniqueIdentity",
        "label": "__gap",
        "offset": 0,
        "slot": "351",
        "type": "t_array(t_uint256)50_storage"
      },
      {
        "astId": 5425,
        "contract": "contracts/uid/UniqueIdentity.sol:UniqueIdentity",
        "label": "nonces",
        "offset": 0,
        "slot": "401",
        "type": "t_mapping(t_address,t_uint256)"
      },
      {
        "astId": 5429,
        "contract": "contracts/uid/UniqueIdentity.sol:UniqueIdentity",
        "label": "supportedUIDTypes",
        "offset": 0,
        "slot": "402",
        "type": "t_mapping(t_uint256,t_bool)"
      },
      {
        "astId": 6018,
        "contract": "contracts/uid/UniqueIdentity.sol:UniqueIdentity",
        "label": "__gap",
        "offset": 0,
        "slot": "403",
        "type": "t_array(t_uint256)48_storage"
      }
    ],
    "types": {
      "t_address": {
        "encoding": "inplace",
        "label": "address",
        "numberOfBytes": "20"
      },
      "t_array(t_bytes32)dyn_storage": {
        "base": "t_bytes32",
        "encoding": "dynamic_array",
        "label": "bytes32[]",
        "numberOfBytes": "32"
      },
      "t_array(t_uint256)47_storage": {
        "base": "t_uint256",
        "encoding": "inplace",
        "label": "uint256[47]",
        "numberOfBytes": "1504"
      },
      "t_array(t_uint256)48_storage": {
        "base": "t_uint256",
        "encoding": "inplace",
        "label": "uint256[48]",
        "numberOfBytes": "1536"
      },
      "t_array(t_uint256)49_storage": {
        "base": "t_uint256",
        "encoding": "inplace",
        "label": "uint256[49]",
        "numberOfBytes": "1568"
      },
      "t_array(t_uint256)50_storage": {
        "base": "t_uint256",
        "encoding": "inplace",
        "label": "uint256[50]",
        "numberOfBytes": "1600"
      },
      "t_bool": {
        "encoding": "inplace",
        "label": "bool",
        "numberOfBytes": "1"
      },
      "t_bytes32": {
        "encoding": "inplace",
        "label": "bytes32",
        "numberOfBytes": "32"
      },
      "t_mapping(t_address,t_bool)": {
        "encoding": "mapping",
        "key": "t_address",
        "label": "mapping(address => bool)",
        "numberOfBytes": "32",
        "value": "t_bool"
      },
      "t_mapping(t_address,t_mapping(t_address,t_bool))": {
        "encoding": "mapping",
        "key": "t_address",
        "label": "mapping(address => mapping(address => bool))",
        "numberOfBytes": "32",
        "value": "t_mapping(t_address,t_bool)"
      },
      "t_mapping(t_address,t_uint256)": {
        "encoding": "mapping",
        "key": "t_address",
        "label": "mapping(address => uint256)",
        "numberOfBytes": "32",
        "value": "t_uint256"
      },
      "t_mapping(t_bytes32,t_struct(AddressSet)4766_storage)": {
        "encoding": "mapping",
        "key": "t_bytes32",
        "label": "mapping(bytes32 => struct EnumerableSetUpgradeable.AddressSet)",
        "numberOfBytes": "32",
        "value": "t_struct(AddressSet)4766_storage"
      },
      "t_mapping(t_bytes32,t_struct(RoleData)179_storage)": {
        "encoding": "mapping",
        "key": "t_bytes32",
        "label": "mapping(bytes32 => struct AccessControlUpgradeable.RoleData)",
        "numberOfBytes": "32",
        "value": "t_struct(RoleData)179_storage"
      },
      "t_mapping(t_bytes32,t_uint256)": {
        "encoding": "mapping",
        "key": "t_bytes32",
        "label": "mapping(bytes32 => uint256)",
        "numberOfBytes": "32",
        "value": "t_uint256"
      },
      "t_mapping(t_uint256,t_bool)": {
        "encoding": "mapping",
        "key": "t_uint256",
        "label": "mapping(uint256 => bool)",
        "numberOfBytes": "32",
        "value": "t_bool"
      },
      "t_mapping(t_uint256,t_mapping(t_address,t_uint256))": {
        "encoding": "mapping",
        "key": "t_uint256",
        "label": "mapping(uint256 => mapping(address => uint256))",
        "numberOfBytes": "32",
        "value": "t_mapping(t_address,t_uint256)"
      },
      "t_string_storage": {
        "encoding": "bytes",
        "label": "string",
        "numberOfBytes": "32"
      },
      "t_struct(AddressSet)4766_storage": {
        "encoding": "inplace",
        "label": "struct EnumerableSetUpgradeable.AddressSet",
        "members": [
          {
            "astId": 4765,
            "contract": "contracts/uid/UniqueIdentity.sol:UniqueIdentity",
            "label": "_inner",
            "offset": 0,
            "slot": "0",
            "type": "t_struct(Set)4451_storage"
          }
        ],
        "numberOfBytes": "64"
      },
      "t_struct(RoleData)179_storage": {
        "encoding": "inplace",
        "label": "struct AccessControlUpgradeable.RoleData",
        "members": [
          {
            "astId": 176,
            "contract": "contracts/uid/UniqueIdentity.sol:UniqueIdentity",
            "label": "members",
            "offset": 0,
            "slot": "0",
            "type": "t_mapping(t_address,t_bool)"
          },
          {
            "astId": 178,
            "contract": "contracts/uid/UniqueIdentity.sol:UniqueIdentity",
            "label": "adminRole",
            "offset": 0,
            "slot": "1",
            "type": "t_bytes32"
          }
        ],
        "numberOfBytes": "64"
      },
      "t_struct(Set)4451_storage": {
        "encoding": "inplace",
        "label": "struct EnumerableSetUpgradeable.Set",
        "members": [
          {
            "astId": 4446,
            "contract": "contracts/uid/UniqueIdentity.sol:UniqueIdentity",
            "label": "_values",
            "offset": 0,
            "slot": "0",
            "type": "t_array(t_bytes32)dyn_storage"
          },
          {
            "astId": 4450,
            "contract": "contracts/uid/UniqueIdentity.sol:UniqueIdentity",
            "label": "_indexes",
            "offset": 0,
            "slot": "1",
            "type": "t_mapping(t_bytes32,t_uint256)"
          }
        ],
        "numberOfBytes": "64"
      },
      "t_uint256": {
        "encoding": "inplace",
        "label": "uint256",
        "numberOfBytes": "32"
      },
      "t_uint8": {
        "encoding": "inplace",
        "label": "uint8",
        "numberOfBytes": "1"
      }
    }
  }
}