{
  "address": "0x63D66BD25e0025C2FE0cf214b24272Bf10595942",
  "abi": [
    {
      "anonymous": false,
      "inputs": [
        {
          "indexed": false,
          "internalType": "uint8",
          "name": "version",
          "type": "uint8"
        }
      ],
      "name": "Initialized",
      "type": "event"
    },
    {
      "anonymous": false,
      "inputs": [
        {
          "indexed": false,
          "internalType": "address",
          "name": "account",
          "type": "address"
        }
      ],
      "name": "Paused",
      "type": "event"
    },
    {
      "anonymous": false,
      "inputs": [
        {
          "indexed": true,
          "internalType": "bytes32",
          "name": "role",
          "type": "bytes32"
        },
        {
          "indexed": true,
          "internalType": "bytes32",
          "name": "previousAdminRole",
          "type": "bytes32"
        },
        {
          "indexed": true,
          "internalType": "bytes32",
          "name": "newAdminRole",
          "type": "bytes32"
        }
      ],
      "name": "RoleAdminChanged",
      "type": "event"
    },
    {
      "anonymous": false,
      "inputs": [
        {
          "indexed": true,
          "internalType": "bytes32",
          "name": "role",
          "type": "bytes32"
        },
        {
          "indexed": true,
          "internalType": "address",
          "name": "account",
          "type": "address"
        },
        {
          "indexed": true,
          "internalType": "address",
          "name": "sender",
          "type": "address"
        }
      ],
      "name": "RoleGranted",
      "type": "event"
    },
    {
      "anonymous": false,
      "inputs": [
        {
          "indexed": true,
          "internalType": "bytes32",
          "name": "role",
          "type": "bytes32"
        },
        {
          "indexed": true,
          "internalType": "address",
          "name": "account",
          "type": "address"
        },
        {
          "indexed": true,
          "internalType": "address",
          "name": "sender",
          "type": "address"
        }
      ],
      "name": "RoleRevoked",
      "type": "event"
    },
    {
      "anonymous": false,
      "inputs": [
        {
          "indexed": true,
          "internalType": "address",
          "name": "token",
          "type": "address"
        },
        {
          "indexed": true,
          "internalType": "address",
          "name": "poolAddress",
          "type": "address"
        },
        {
          "indexed": true,
          "internalType": "enum Configuration.NOTE_TOKEN_TYPE",
          "name": "tokenType",
          "type": "uint8"
        },
        {
          "indexed": false,
          "internalType": "uint8",
          "name": "decimals",
          "type": "uint8"
        },
        {
          "indexed": false,
          "internalType": "string",
          "name": "ticker",
          "type": "string"
        }
      ],
      "name": "TokenCreated",
      "type": "event"
    },
    {
      "anonymous": false,
      "inputs": [
        {
          "indexed": false,
          "internalType": "address",
          "name": "account",
          "type": "address"
        }
      ],
      "name": "Unpaused",
      "type": "event"
    },
    {
      "inputs": [],
      "name": "DEFAULT_ADMIN_ROLE",
      "outputs": [
        {
          "internalType": "bytes32",
          "name": "",
          "type": "bytes32"
        }
      ],
      "stateMutability": "view",
      "type": "function"
    },
    {
      "inputs": [],
      "name": "OWNER_ROLE",
      "outputs": [
        {
          "internalType": "bytes32",
          "name": "",
          "type": "bytes32"
        }
      ],
      "stateMutability": "view",
      "type": "function"
    },
    {
      "inputs": [
        {
          "internalType": "address",
          "name": "tokenAddress",
          "type": "address"
        },
        {
          "internalType": "address",
          "name": "newController",
          "type": "address"
        }
      ],
      "name": "changeMinterRole",
      "outputs": [],
      "stateMutability": "nonpayable",
      "type": "function"
    },
    {
      "inputs": [
        {
          "internalType": "address",
          "name": "_poolAddress",
          "type": "address"
        },
        {
          "internalType": "enum Configuration.NOTE_TOKEN_TYPE",
          "name": "_noteTokenType",
          "type": "uint8"
        },
        {
          "internalType": "uint8",
          "name": "_nDecimals",
          "type": "uint8"
        },
        {
          "internalType": "string",
          "name": "ticker",
          "type": "string"
        }
      ],
      "name": "createToken",
      "outputs": [
        {
          "internalType": "address",
          "name": "",
          "type": "address"
        }
      ],
      "stateMutability": "nonpayable",
      "type": "function"
    },
    {
      "inputs": [
        {
          "internalType": "bytes32",
          "name": "role",
          "type": "bytes32"
        }
      ],
      "name": "getRoleAdmin",
      "outputs": [
        {
          "internalType": "bytes32",
          "name": "",
          "type": "bytes32"
        }
      ],
      "stateMutability": "view",
      "type": "function"
    },
    {
      "inputs": [
        {
          "internalType": "bytes32",
          "name": "role",
          "type": "bytes32"
        },
        {
          "internalType": "uint256",
          "name": "index",
          "type": "uint256"
        }
      ],
      "name": "getRoleMember",
      "outputs": [
        {
          "internalType": "address",
          "name": "",
          "type": "address"
        }
      ],
      "stateMutability": "view",
      "type": "function"
    },
    {
      "inputs": [
        {
          "internalType": "bytes32",
          "name": "role",
          "type": "bytes32"
        }
      ],
      "name": "getRoleMemberCount",
      "outputs": [
        {
          "internalType": "uint256",
          "name": "",
          "type": "uint256"
        }
      ],
      "stateMutability": "view",
      "type": "function"
    },
    {
      "inputs": [
        {
          "internalType": "bytes32",
          "name": "role",
          "type": "bytes32"
        },
        {
          "internalType": "address",
          "name": "account",
          "type": "address"
        }
      ],
      "name": "grantRole",
      "outputs": [],
      "stateMutability": "nonpayable",
      "type": "function"
    },
    {
      "inputs": [
        {
          "internalType": "bytes32",
          "name": "role",
          "type": "bytes32"
        },
        {
          "internalType": "address",
          "name": "account",
          "type": "address"
        }
      ],
      "name": "hasRole",
      "outputs": [
        {
          "internalType": "bool",
          "name": "",
          "type": "bool"
        }
      ],
      "stateMutability": "view",
      "type": "function"
    },
    {
      "inputs": [
        {
          "internalType": "contract Registry",
          "name": "_registry",
          "type": "address"
        }
      ],
      "name": "initialize",
      "outputs": [],
      "stateMutability": "nonpayable",
      "type": "function"
    },
    {
      "inputs": [
        {
          "internalType": "address",
          "name": "",
          "type": "address"
        }
      ],
      "name": "isExistingTokens",
      "outputs": [
        {
          "internalType": "bool",
          "name": "",
          "type": "bool"
        }
      ],
      "stateMutability": "view",
      "type": "function"
    },
    {
      "inputs": [],
      "name": "pause",
      "outputs": [],
      "stateMutability": "nonpayable",
      "type": "function"
    },
    {
      "inputs": [],
      "name": "pauseAllTokens",
      "outputs": [],
      "stateMutability": "nonpayable",
      "type": "function"
    },
    {
      "inputs": [
        {
          "internalType": "address",
          "name": "tokenAddress",
          "type": "address"
        }
      ],
      "name": "pauseUnpauseToken",
      "outputs": [],
      "stateMutability": "nonpayable",
      "type": "function"
    },
    {
      "inputs": [],
      "name": "paused",
      "outputs": [
        {
          "internalType": "bool",
          "name": "",
          "type": "bool"
        }
      ],
      "stateMutability": "view",
      "type": "function"
    },
    {
      "inputs": [],
      "name": "registry",
      "outputs": [
        {
          "internalType": "contract Registry",
          "name": "",
          "type": "address"
        }
      ],
      "stateMutability": "view",
      "type": "function"
    },
    {
      "inputs": [
        {
          "internalType": "bytes32",
          "name": "role",
          "type": "bytes32"
        },
        {
          "internalType": "address",
          "name": "account",
          "type": "address"
        }
      ],
      "name": "renounceRole",
      "outputs": [],
      "stateMutability": "nonpayable",
      "type": "function"
    },
    {
      "inputs": [
        {
          "internalType": "bytes32",
          "name": "role",
          "type": "bytes32"
        },
        {
          "internalType": "address",
          "name": "account",
          "type": "address"
        }
      ],
      "name": "revokeRole",
      "outputs": [],
      "stateMutability": "nonpayable",
      "type": "function"
    },
    {
      "inputs": [
        {
          "internalType": "bytes4",
          "name": "interfaceId",
          "type": "bytes4"
        }
      ],
      "name": "supportsInterface",
      "outputs": [
        {
          "internalType": "bool",
          "name": "",
          "type": "bool"
        }
      ],
      "stateMutability": "view",
      "type": "function"
    },
    {
      "inputs": [
        {
          "internalType": "uint256",
          "name": "",
          "type": "uint256"
        }
      ],
      "name": "tokens",
      "outputs": [
        {
          "internalType": "contract NoteToken",
          "name": "",
          "type": "address"
        }
      ],
      "stateMutability": "view",
      "type": "function"
    },
    {
      "inputs": [],
      "name": "unPauseAllTokens",
      "outputs": [],
      "stateMutability": "nonpayable",
      "type": "function"
    },
    {
      "inputs": [],
      "name": "unpause",
      "outputs": [],
      "stateMutability": "nonpayable",
      "type": "function"
    }
  ],
  "transactionHash": "0x2cbc61101e01b0a3fa5fed7a8624e86054fd0b962a10e5eaa69e1755935d10c6",
  "args": [],
  "numDeployments": 1,
  "solcInputHash": "e1c1cf3618784ab0138aee624abc84c7",
  "bytecode": "0x608060405234801561001057600080fd5b50613c3d806100206000396000f3fe60806040523480156200001157600080fd5b50600436106200015d5760003560e01c80638413708211620000c7578063a217fddf1162000086578063a217fddf14620002ef578063c4d66de814620002f8578063ca15c873146200030f578063d547741f1462000326578063e58378bb146200033d578063f2919b1e146200036557600080fd5b80638413708214620002795780638456cb59146200029057806384933c0c146200029a5780639010d07c14620002c157806391d1485414620002d857600080fd5b80633f4ba83a11620001205780633f4ba83a146200020a5780634f64b2be14620002145780635c975abb14620002445780636c57c2db14620002505780636d84fc12146200025a5780637b103999146200026457600080fd5b806301ffc9a71462000162578063248a9ca3146200018e57806324d08a6014620001c35780632f2ff15d14620001dc57806336568abe14620001f3575b600080fd5b620001796200017336600462001817565b6200037c565b60405190151581526020015b60405180910390f35b620001b46200019f36600462001843565b600090815260c9602052604090206001015490565b60405190815260200162000185565b620001da620001d436600462001873565b620003aa565b005b620001da620001ed366004620018b1565b620004de565b620001da62000204366004620018b1565b6200050c565b620001da6200058e565b6200022b6200022536600462001843565b620005a8565b6040516001600160a01b03909116815260200162000185565b60335460ff1662000179565b620001da620005d4565b620001da6200072a565b61015f546200022b906001600160a01b031681565b6200022b6200028a366004620018d9565b6200086f565b620001da62000aee565b62000179620002ab36600462001994565b6101616020526000908152604090205460ff1681565b6200022b620002d2366004620019b4565b62000b05565b62000179620002e9366004620018b1565b62000b26565b620001b4600081565b620001da6200030936600462001994565b62000b51565b620001b46200032036600462001843565b62000c88565b620001da62000337366004620018b1565b62000ca1565b620001b47fb19546dff01e856fb3f010c267a7b1c60363cf8a4664e21cc89c26224620214e81565b620001da6200037636600462001994565b62000cca565b60006001600160e01b03198216635a05180f60e01b1480620003a45750620003a48262000e93565b92915050565b61015f54620003c2906001600160a01b031662000eca565b6001600160a01b0316336001600160a01b031614620003fe5760405162461bcd60e51b8152600401620003f590620019d7565b60405180910390fd5b6000829050806001600160a01b0316632f2ff15d826001600160a01b031663d53913936040518163ffffffff1660e01b8152600401602060405180830381865afa15801562000451573d6000803e3d6000fd5b505050506040513d601f19601f8201168201806040525081019062000477919062001a25565b6040516001600160e01b031960e084901b16815260048101919091526001600160a01b0385166024820152604401600060405180830381600087803b158015620004c057600080fd5b505af1158015620004d5573d6000803e3d6000fd5b50505050505050565b600082815260c96020526040902060010154620004fb8162000ed9565b62000507838362000ee5565b505050565b6001600160a01b03811633146200057e5760405162461bcd60e51b815260206004820152602f60248201527f416363657373436f6e74726f6c3a2063616e206f6e6c792072656e6f756e636560448201526e103937b632b9903337b91039b2b63360891b6064820152608401620003f5565b6200058a828262000f0b565b5050565b60006200059b8162000ed9565b620005a562000f31565b50565b6101608181548110620005ba57600080fd5b6000918252602090912001546001600160a01b0316905081565b620005de62000f85565b620005e862000fcd565b6000620005f58162000ed9565b6101605460005b818110156200071a5761016081815481106200061c576200061c62001a3f565b6000918252602091829020015460408051635c975abb60e01b815290516001600160a01b0390921692635c975abb926004808401938290030181865afa1580156200066b573d6000803e3d6000fd5b505050506040513d601f19601f8201168201806040525081019062000691919062001a55565b1562000711576101608181548110620006ae57620006ae62001a3f565b600091825260208220015460408051631fa5d41d60e11b815290516001600160a01b0390921692633f4ba83a9260048084019382900301818387803b158015620006f757600080fd5b505af11580156200070c573d6000803e3d6000fd5b505050505b600101620005fc565b505050620007286001606555565b565b6200073462000f85565b6200073e62000fcd565b60006200074b8162000ed9565b6101605460005b818110156200071a57610160818154811062000772576200077262001a3f565b6000918252602091829020015460408051635c975abb60e01b815290516001600160a01b0390921692635c975abb926004808401938290030181865afa158015620007c1573d6000803e3d6000fd5b505050506040513d601f19601f82011682018060405250810190620007e7919062001a55565b6200086657610160818154811062000803576200080362001a3f565b600091825260208220015460408051638456cb5960e01b815290516001600160a01b0390921692638456cb599260048084019382900301818387803b1580156200084c57600080fd5b505af115801562000861573d6000803e3d6000fd5b505050505b60010162000752565b60006200087b62000f85565b6200088562000fcd565b61015f546200089d906001600160a01b031662000eca565b6001600160a01b0316336001600160a01b031614620008d05760405162461bcd60e51b8152600401620003f590620019d7565b6060806000876001811115620008ea57620008ea62001a79565b0362000954576040518060400160405280601781526020017f53656e696f72204f626c69676174696f6e20546f6b656e000000000000000000815250915084846040516020016200093d92919062001a8f565b6040516020818303038152906040529050620009b3565b6040518060400160405280601781526020017f4a756e696f72204f626c69676174696f6e20546f6b656e00000000000000000081525091508484604051602001620009a192919062001aa8565b60405160208183030381529060405290505b60008282888b8b6001811115620009ce57620009ce62001a79565b604051620009dc9062001809565b620009ec95949392919062001b15565b604051809103906000f08015801562000a09573d6000803e3d6000fd5b50610160805460018082019092557fec7e130cdeeae65215fabbcddb1de429e603c4887cc659532eda903e493396630180546001600160a01b0319166001600160a01b038416908117909155600090815261016160205260409020805460ff191682179055909150889081111562000a855762000a8562001a79565b896001600160a01b0316826001600160a01b03167ff084ff67b6f43d67e4cc33ce386aceeff3a616731b0d86f1f387157ddf5fae178a8a8a60405162000ace9392919062001b6c565b60405180910390a49250505062000ae56001606555565b95945050505050565b600062000afb8162000ed9565b620005a56200102f565b600082815260fb6020526040812062000b1f90836200106f565b9392505050565b600091825260c9602090815260408084206001600160a01b0393909316845291905290205460ff1690565b600054610100900460ff161580801562000b725750600054600160ff909116105b8062000b8e5750303b15801562000b8e575060005460ff166001145b62000bf35760405162461bcd60e51b815260206004820152602e60248201527f496e697469616c697a61626c653a20636f6e747261637420697320616c72656160448201526d191e481a5b9a5d1a585b1a5e995960921b6064820152608401620003f5565b6000805460ff19166001179055801562000c17576000805461ff0019166101001790555b62000c22336200107d565b61015f80546001600160a01b0319166001600160a01b03841617905580156200058a576000805461ff0019169055604051600181527f7f26b83ff96e1f2b6a682f133852f6798a09c465da95921460cefb38474024989060200160405180910390a15050565b600081815260fb60205260408120620003a490620010b2565b600082815260c9602052604090206001015462000cbe8162000ed9565b62000507838362000f0b565b62000cd462000f85565b62000cde62000fcd565b600062000ceb8162000ed9565b6001600160a01b0382166000908152610161602052604090205460ff1662000d655760405162461bcd60e51b815260206004820152602660248201527f4e6f7465546f6b656e466163746f72793a20746f6b656e20646f6573206e6f7460448201526508195e1a5cdd60d21b6064820152608401620003f5565b6000829050806001600160a01b0316635c975abb6040518163ffffffff1660e01b8152600401602060405180830381865afa15801562000da9573d6000803e3d6000fd5b505050506040513d601f19601f8201168201806040525081019062000dcf919062001a55565b1562000e3057806001600160a01b0316633f4ba83a6040518163ffffffff1660e01b8152600401600060405180830381600087803b15801562000e1157600080fd5b505af115801562000e26573d6000803e3d6000fd5b5050505062000e86565b806001600160a01b0316638456cb596040518163ffffffff1660e01b8152600401600060405180830381600087803b15801562000e6c57600080fd5b505af115801562000e81573d6000803e3d6000fd5b505050505b5050620005a56001606555565b60006001600160e01b03198216637965db0b60e01b1480620003a457506301ffc9a760e01b6001600160e01b0319831614620003a4565b6000620003a4826000620010bd565b620005a5813362001148565b62000ef18282620011ac565b600082815260fb6020526040902062000507908262001236565b62000f1782826200124d565b600082815260fb60205260409020620005079082620012b7565b62000f3b620012ce565b6033805460ff191690557f5db9ee0a495bf2e6ff9c91a7834c1ba4fdd244a5e8aa4e537bd38aeae4b073aa335b6040516001600160a01b03909116815260200160405180910390a1565b60335460ff1615620007285760405162461bcd60e51b815260206004820152601060248201526f14185d5cd8589b194e881c185d5cd95960821b6044820152606401620003f5565b600260655403620010215760405162461bcd60e51b815260206004820152601f60248201527f5265656e7472616e637947756172643a207265656e7472616e742063616c6c006044820152606401620003f5565b6002606555565b6001606555565b6200103962000f85565b6033805460ff191660011790557f62e78cea01bee320cd4e420270b5ea74000d11b0c9f74754ebdbfc544b05a25862000f683390565b600062000b1f838362001319565b600054610100900460ff16620010a75760405162461bcd60e51b8152600401620003f59062001ba5565b620005a58162001346565b6000620003a4825490565b6000826001600160a01b031663bcaa0c55836018811115620010e357620010e362001a79565b6040516001600160e01b031960e084901b16815260ff9091166004820152602401602060405180830381865afa15801562001122573d6000803e3d6000fd5b505050506040513d601f19601f8201168201806040525081019062000b1f919062001bf0565b62001154828262000b26565b6200058a57620011648162001405565b6200117183602062001418565b6040516020016200118492919062001c10565b60408051601f198184030181529082905262461bcd60e51b8252620003f59160040162001c89565b620011b8828262000b26565b6200058a57600082815260c9602090815260408083206001600160a01b03851684529091529020805460ff19166001179055620011f23390565b6001600160a01b0316816001600160a01b0316837f2f8788117e7eff1d82e926ec794901d17c78024a50270940304540a733656f0d60405160405180910390a45050565b600062000b1f836001600160a01b038416620015d2565b62001259828262000b26565b156200058a57600082815260c9602090815260408083206001600160a01b0385168085529252808320805460ff1916905551339285917ff6391f5c32d9c69d2a47ea670b442974b53935d1edc7fd64eb21e047a839171b9190a45050565b600062000b1f836001600160a01b03841662001624565b60335460ff16620007285760405162461bcd60e51b815260206004820152601460248201527314185d5cd8589b194e881b9bdd081c185d5cd95960621b6044820152606401620003f5565b600082600001828154811062001333576200133362001a3f565b9060005260206000200154905092915050565b600054610100900460ff16620013705760405162461bcd60e51b8152600401620003f59062001ba5565b6200137a62001728565b620013846200175e565b6200138e62001788565b6001600160a01b038116620013a05750335b620013ad600082620017b2565b620013d97fb19546dff01e856fb3f010c267a7b1c60363cf8a4664e21cc89c26224620214e82620017b2565b620005a57fb19546dff01e856fb3f010c267a7b1c60363cf8a4664e21cc89c26224620214e80620017be565b6060620003a46001600160a01b03831660145b606060006200142983600262001cb4565b6200143690600262001cce565b67ffffffffffffffff81111562001451576200145162001ce4565b6040519080825280601f01601f1916602001820160405280156200147c576020820181803683370190505b509050600360fc1b816000815181106200149a576200149a62001a3f565b60200101906001600160f81b031916908160001a905350600f60fb1b81600181518110620014cc57620014cc62001a3f565b60200101906001600160f81b031916908160001a9053506000620014f284600262001cb4565b620014ff90600162001cce565b90505b600181111562001581576f181899199a1a9b1b9c1cb0b131b232b360811b85600f166010811062001537576200153762001a3f565b1a60f81b82828151811062001550576200155062001a3f565b60200101906001600160f81b031916908160001a90535060049490941c93620015798162001cfa565b905062001502565b50831562000b1f5760405162461bcd60e51b815260206004820181905260248201527f537472696e67733a20686578206c656e67746820696e73756666696369656e746044820152606401620003f5565b60008181526001830160205260408120546200161b57508154600181810184556000848152602080822090930184905584548482528286019093526040902091909155620003a4565b506000620003a4565b600081815260018301602052604081205480156200171d5760006200164b60018362001d14565b8554909150600090620016619060019062001d14565b9050818114620016cd57600086600001828154811062001685576200168562001a3f565b9060005260206000200154905080876000018481548110620016ab57620016ab62001a3f565b6000918252602080832090910192909255918252600188019052604090208390555b8554869080620016e157620016e162001d2a565b600190038181906000526020600020016000905590558560010160008681526020019081526020016000206000905560019350505050620003a4565b6000915050620003a4565b600054610100900460ff16620017525760405162461bcd60e51b8152600401620003f59062001ba5565b6033805460ff19169055565b600054610100900460ff16620010285760405162461bcd60e51b8152600401620003f59062001ba5565b600054610100900460ff16620007285760405162461bcd60e51b8152600401620003f59062001ba5565b6200058a828262000ee5565b600082815260c96020526040808220600101805490849055905190918391839186917fbd79b86ffe0ab8e8776151514217cd7cacd52c909f66475c3af44e129f0b00ff9190a4505050565b611ec78062001d4183390190565b6000602082840312156200182a57600080fd5b81356001600160e01b03198116811462000b1f57600080fd5b6000602082840312156200185657600080fd5b5035919050565b6001600160a01b0381168114620005a557600080fd5b600080604083850312156200188757600080fd5b823562001894816200185d565b91506020830135620018a6816200185d565b809150509250929050565b60008060408385031215620018c557600080fd5b823591506020830135620018a6816200185d565b600080600080600060808688031215620018f257600080fd5b8535620018ff816200185d565b94506020860135600281106200191457600080fd5b9350604086013560ff811681146200192b57600080fd5b9250606086013567ffffffffffffffff808211156200194957600080fd5b818801915088601f8301126200195e57600080fd5b8135818111156200196e57600080fd5b8960208285010111156200198157600080fd5b9699959850939650602001949392505050565b600060208284031215620019a757600080fd5b813562000b1f816200185d565b60008060408385031215620019c857600080fd5b50508035926020909101359150565b6020808252602e908201527f53656375726974697a6174696f6e506f6f6c3a204f6e6c79205365637572697460408201526d34bd30ba34b7b726b0b730b3b2b960911b606082015260800190565b60006020828403121562001a3857600080fd5b5051919050565b634e487b7160e01b600052603260045260246000fd5b60006020828403121562001a6857600080fd5b8151801515811462000b1f57600080fd5b634e487b7160e01b600052602160045260246000fd5b818382376317d4d3d560e21b9101908152600401919050565b818382376317d293d560e21b9101908152600401919050565b60005b8381101562001ade57818101518382015260200162001ac4565b50506000910152565b6000815180845262001b0181602086016020860162001ac1565b601f01601f19169290920160200192915050565b60a08152600062001b2a60a083018862001ae7565b828103602084015262001b3e818862001ae7565b60ff96871660408501526001600160a01b039590951660608401525050921660809092019190915292915050565b60ff8416815260406020820152816040820152818360608301376000818301606090810191909152601f909201601f1916010192915050565b6020808252602b908201527f496e697469616c697a61626c653a20636f6e7472616374206973206e6f74206960408201526a6e697469616c697a696e6760a81b606082015260800190565b60006020828403121562001c0357600080fd5b815162000b1f816200185d565b7f416363657373436f6e74726f6c3a206163636f756e742000000000000000000081526000835162001c4a81601785016020880162001ac1565b7001034b99036b4b9b9b4b733903937b6329607d1b601791840191820152835162001c7d81602884016020880162001ac1565b01602801949350505050565b60208152600062000b1f602083018462001ae7565b634e487b7160e01b600052601160045260246000fd5b8082028115828204841417620003a457620003a462001c9e565b80820180821115620003a457620003a462001c9e565b634e487b7160e01b600052604160045260246000fd5b60008162001d0c5762001d0c62001c9e565b506000190190565b81810381811115620003a457620003a462001c9e565b634e487b7160e01b600052603160045260246000fdfe60e06040523480156200001157600080fd5b5060405162001ec738038062001ec7833981016040819052620000349162000370565b848481816005620000468382620004ae565b506006620000558282620004ae565b50506007805460ff19169055506200006f60003362000147565b6200009b7f9f2df0fed2c77648de5860a4cc508cd0818c85b8b8a1ab4ceeef8d981c8956a63362000147565b620000c77f65d7a28e3265b37a6474929f336521b332c1681b933f6cb9f3376673440d862a3362000147565b50506001600160a01b038216620001245760405162461bcd60e51b815260206004820152601f60248201527f4e6f7465546f6b656e3a20496e76616c696420706f6f6c206164647265737300604482015260640160405180910390fd5b60ff92831660c0526001600160a01b039091166080521660a052506200057a9050565b62000153828262000157565b5050565b62000163828262000182565b60008281526001602052604090206200017d908262000222565b505050565b6000828152602081815260408083206001600160a01b038516845290915290205460ff1662000153576000828152602081815260408083206001600160a01b03851684529091529020805460ff19166001179055620001de3390565b6001600160a01b0316816001600160a01b0316837f2f8788117e7eff1d82e926ec794901d17c78024a50270940304540a733656f0d60405160405180910390a45050565b600062000239836001600160a01b03841662000242565b90505b92915050565b60008181526001830160205260408120546200028b575081546001818101845560008481526020808220909301849055845484825282860190935260409020919091556200023c565b5060006200023c565b634e487b7160e01b600052604160045260246000fd5b600082601f830112620002bc57600080fd5b81516001600160401b0380821115620002d957620002d962000294565b604051601f8301601f19908116603f0116810190828211818310171562000304576200030462000294565b816040528381526020925086838588010111156200032157600080fd5b600091505b8382101562000345578582018301518183018401529082019062000326565b600093810190920192909252949350505050565b805160ff811681146200036b57600080fd5b919050565b600080600080600060a086880312156200038957600080fd5b85516001600160401b0380821115620003a157600080fd5b620003af89838a01620002aa565b96506020880151915080821115620003c657600080fd5b50620003d588828901620002aa565b945050620003e66040870162000359565b60608701519093506001600160a01b03811681146200040457600080fd5b9150620004146080870162000359565b90509295509295909350565b600181811c908216806200043557607f821691505b6020821081036200045657634e487b7160e01b600052602260045260246000fd5b50919050565b601f8211156200017d57600081815260208120601f850160051c81016020861015620004855750805b601f850160051c820191505b81811015620004a65782815560010162000491565b505050505050565b81516001600160401b03811115620004ca57620004ca62000294565b620004e281620004db845462000420565b846200045c565b602080601f8311600181146200051a5760008415620005015750858301515b600019600386901b1c1916600185901b178555620004a6565b600085815260208120601f198616915b828110156200054b578886015182559484019460019091019084016200052a565b50858210156200056a5787850151600019600388901b60f8161c191681555b5050505050600190811b01905550565b60805160a05160c05161191d620005aa60003960006102fb015260006101e001526000610264015261191d6000f3fe608060405234801561001057600080fd5b50600436106101d95760003560e01c80635c975abb11610104578063a217fddf116100a2578063d539139311610071578063d539139314610431578063d547741f14610458578063dd62ed3e1461046b578063e63ab1e91461047e57600080fd5b8063a217fddf146103f0578063a457c2d7146103f8578063a9059cbb1461040b578063ca15c8731461041e57600080fd5b80638456cb59116100de5780638456cb59146103ba5780639010d07c146103c257806391d14854146103d557806395d89b41146103e857600080fd5b80635c975abb1461037357806370a082311461037e57806379cc6790146103a757600080fd5b8063248a9ca31161017c578063395093511161014b57806339509351146103325780633f4ba83a1461034557806340c10f191461034d57806342966c681461036057600080fd5b8063248a9ca3146102c15780632f2ff15d146102e4578063313ce567146102f957806336568abe1461031f57600080fd5b8063095ea7b3116101b8578063095ea7b31461024f5780631755ff211461026257806318160ddd1461029c57806323b872dd146102ae57600080fd5b8062b7f681146101de57806301ffc9a71461021757806306fdde031461023a575b600080fd5b7f00000000000000000000000000000000000000000000000000000000000000005b60405160ff90911681526020015b60405180910390f35b61022a6102253660046115dd565b6104a5565b604051901515815260200161020e565b6102426104d0565b60405161020e919061162b565b61022a61025d36600461167a565b610562565b7f00000000000000000000000000000000000000000000000000000000000000005b6040516001600160a01b03909116815260200161020e565b6004545b60405190815260200161020e565b61022a6102bc3660046116a4565b61057a565b6102a06102cf3660046116e0565b60009081526020819052604090206001015490565b6102f76102f23660046116f9565b61059e565b005b7f0000000000000000000000000000000000000000000000000000000000000000610200565b6102f761032d3660046116f9565b6105c8565b61022a61034036600461167a565b61064b565b6102f761066d565b6102f761035b36600461167a565b610713565b6102f761036e3660046116e0565b61071d565b60075460ff1661022a565b6102a061038c366004611725565b6001600160a01b031660009081526002602052604090205490565b6102f76103b536600461167a565b610729565b6102f761073e565b6102846103d0366004611740565b6107e2565b61022a6103e33660046116f9565b610801565b61024261082a565b6102a0600081565b61022a61040636600461167a565b610839565b61022a61041936600461167a565b6108b4565b6102a061042c3660046116e0565b6108c2565b6102a07f9f2df0fed2c77648de5860a4cc508cd0818c85b8b8a1ab4ceeef8d981c8956a681565b6102f76104663660046116f9565b6108d9565b6102a0610479366004611762565b6108fe565b6102a07f65d7a28e3265b37a6474929f336521b332c1681b933f6cb9f3376673440d862a81565b60006001600160e01b03198216635a05180f60e01b14806104ca57506104ca82610929565b92915050565b6060600580546104df9061178c565b80601f016020809104026020016040519081016040528092919081815260200182805461050b9061178c565b80156105585780601f1061052d57610100808354040283529160200191610558565b820191906000526020600020905b81548152906001019060200180831161053b57829003601f168201915b5050505050905090565b60003361057081858561095e565b5060019392505050565b600033610588858285610a82565b610593858585610afc565b506001949350505050565b6000828152602081905260409020600101546105b981610cb2565b6105c38383610cbc565b505050565b6001600160a01b038116331461063d5760405162461bcd60e51b815260206004820152602f60248201527f416363657373436f6e74726f6c3a2063616e206f6e6c792072656e6f756e636560448201526e103937b632b9903337b91039b2b63360891b60648201526084015b60405180910390fd5b6106478282610cde565b5050565b60003361057081858561065e83836108fe565b61066891906117dc565b61095e565b6106977f65d7a28e3265b37a6474929f336521b332c1681b933f6cb9f3376673440d862a33610801565b6107095760405162461bcd60e51b815260206004820152603960248201527f45524332305072657365744d696e7465725061757365723a206d75737420686160448201527f76652070617573657220726f6c6520746f20756e7061757365000000000000006064820152608401610634565b610711610d00565b565b6106478282610d52565b61072681610df1565b50565b610734823383610a82565b6106478282610df7565b6107687f65d7a28e3265b37a6474929f336521b332c1681b933f6cb9f3376673440d862a33610801565b6107da5760405162461bcd60e51b815260206004820152603760248201527f45524332305072657365744d696e7465725061757365723a206d75737420686160448201527f76652070617573657220726f6c6520746f2070617573650000000000000000006064820152608401610634565b610711610f37565b60008281526001602052604081206107fa9083610f74565b9392505050565b6000918252602082815260408084206001600160a01b0393909316845291905290205460ff1690565b6060600680546104df9061178c565b6000338161084782866108fe565b9050838110156108a75760405162461bcd60e51b815260206004820152602560248201527f45524332303a2064656372656173656420616c6c6f77616e63652062656c6f77604482015264207a65726f60d81b6064820152608401610634565b610593828686840361095e565b600033610570818585610afc565b60008181526001602052604081206104ca90610f80565b6000828152602081905260409020600101546108f481610cb2565b6105c38383610cde565b6001600160a01b03918216600090815260036020908152604080832093909416825291909152205490565b60006001600160e01b03198216637965db0b60e01b14806104ca57506301ffc9a760e01b6001600160e01b03198316146104ca565b6001600160a01b0383166109c05760405162461bcd60e51b8152602060048201526024808201527f45524332303a20617070726f76652066726f6d20746865207a65726f206164646044820152637265737360e01b6064820152608401610634565b6001600160a01b038216610a215760405162461bcd60e51b815260206004820152602260248201527f45524332303a20617070726f766520746f20746865207a65726f206164647265604482015261737360f01b6064820152608401610634565b6001600160a01b0383811660008181526003602090815260408083209487168084529482529182902085905590518481527f8c5be1e5ebec7d5bd14f71427d1e84f3dd0314c0f7b2291e5b200ac8c7c3b925910160405180910390a3505050565b6000610a8e84846108fe565b90506000198114610af65781811015610ae95760405162461bcd60e51b815260206004820152601d60248201527f45524332303a20696e73756666696369656e7420616c6c6f77616e63650000006044820152606401610634565b610af6848484840361095e565b50505050565b6001600160a01b038316610b605760405162461bcd60e51b815260206004820152602560248201527f45524332303a207472616e736665722066726f6d20746865207a65726f206164604482015264647265737360d81b6064820152608401610634565b6001600160a01b038216610bc25760405162461bcd60e51b815260206004820152602360248201527f45524332303a207472616e7366657220746f20746865207a65726f206164647260448201526265737360e81b6064820152608401610634565b610bcd838383610f8a565b6001600160a01b03831660009081526002602052604090205481811015610c455760405162461bcd60e51b815260206004820152602660248201527f45524332303a207472616e7366657220616d6f756e7420657863656564732062604482015265616c616e636560d01b6064820152608401610634565b6001600160a01b0380851660008181526002602052604080822086860390559286168082529083902080548601905591517fddf252ad1be2c89b69c2b068fc378daa952ba7f163c4a11628f55a4df523b3ef90610ca59086815260200190565b60405180910390a3610af6565b6107268133610f95565b610cc68282610fee565b60008281526001602052604090206105c39082611072565b610ce88282611087565b60008281526001602052604090206105c390826110ec565b610d08611101565b6007805460ff191690557f5db9ee0a495bf2e6ff9c91a7834c1ba4fdd244a5e8aa4e537bd38aeae4b073aa335b6040516001600160a01b03909116815260200160405180910390a1565b610d7c7f9f2df0fed2c77648de5860a4cc508cd0818c85b8b8a1ab4ceeef8d981c8956a633610801565b610de75760405162461bcd60e51b815260206004820152603660248201527f45524332305072657365744d696e7465725061757365723a206d7573742068616044820152751d99481b5a5b9d195c881c9bdb19481d1bc81b5a5b9d60521b6064820152608401610634565b610647828261114a565b61072633825b6001600160a01b038216610e575760405162461bcd60e51b815260206004820152602160248201527f45524332303a206275726e2066726f6d20746865207a65726f206164647265736044820152607360f81b6064820152608401610634565b610e6382600083610f8a565b6001600160a01b03821660009081526002602052604090205481811015610ed75760405162461bcd60e51b815260206004820152602260248201527f45524332303a206275726e20616d6f756e7420657863656564732062616c616e604482015261636560f01b6064820152608401610634565b6001600160a01b03831660008181526002602090815260408083208686039055600480548790039055518581529192917fddf252ad1be2c89b69c2b068fc378daa952ba7f163c4a11628f55a4df523b3ef910160405180910390a3505050565b610f3f611217565b6007805460ff191660011790557f62e78cea01bee320cd4e420270b5ea74000d11b0c9f74754ebdbfc544b05a258610d353390565b60006107fa838361125d565b60006104ca825490565b6105c3838383611287565b610f9f8282610801565b61064757610fac816112ed565b610fb78360206112ff565b604051602001610fc89291906117ef565b60408051601f198184030181529082905262461bcd60e51b82526106349160040161162b565b610ff88282610801565b610647576000828152602081815260408083206001600160a01b03851684529091529020805460ff1916600117905561102e3390565b6001600160a01b0316816001600160a01b0316837f2f8788117e7eff1d82e926ec794901d17c78024a50270940304540a733656f0d60405160405180910390a45050565b60006107fa836001600160a01b03841661149b565b6110918282610801565b15610647576000828152602081815260408083206001600160a01b0385168085529252808320805460ff1916905551339285917ff6391f5c32d9c69d2a47ea670b442974b53935d1edc7fd64eb21e047a839171b9190a45050565b60006107fa836001600160a01b0384166114ea565b60075460ff166107115760405162461bcd60e51b815260206004820152601460248201527314185d5cd8589b194e881b9bdd081c185d5cd95960621b6044820152606401610634565b6001600160a01b0382166111a05760405162461bcd60e51b815260206004820152601f60248201527f45524332303a206d696e7420746f20746865207a65726f2061646472657373006044820152606401610634565b6111ac60008383610f8a565b80600460008282546111be91906117dc565b90915550506001600160a01b0382166000818152600260209081526040808320805486019055518481527fddf252ad1be2c89b69c2b068fc378daa952ba7f163c4a11628f55a4df523b3ef910160405180910390a35050565b60075460ff16156107115760405162461bcd60e51b815260206004820152601060248201526f14185d5cd8589b194e881c185d5cd95960821b6044820152606401610634565b600082600001828154811061127457611274611864565b9060005260206000200154905092915050565b60075460ff16156105c35760405162461bcd60e51b815260206004820152602a60248201527f45524332305061757361626c653a20746f6b656e207472616e736665722077686044820152691a5b19481c185d5cd95960b21b6064820152608401610634565b60606104ca6001600160a01b03831660145b6060600061130e83600261187a565b6113199060026117dc565b67ffffffffffffffff81111561133157611331611891565b6040519080825280601f01601f19166020018201604052801561135b576020820181803683370190505b509050600360fc1b8160008151811061137657611376611864565b60200101906001600160f81b031916908160001a905350600f60fb1b816001815181106113a5576113a5611864565b60200101906001600160f81b031916908160001a90535060006113c984600261187a565b6113d49060016117dc565b90505b600181111561144c576f181899199a1a9b1b9c1cb0b131b232b360811b85600f166010811061140857611408611864565b1a60f81b82828151811061141e5761141e611864565b60200101906001600160f81b031916908160001a90535060049490941c93611445816118a7565b90506113d7565b5083156107fa5760405162461bcd60e51b815260206004820181905260248201527f537472696e67733a20686578206c656e67746820696e73756666696369656e746044820152606401610634565b60008181526001830160205260408120546114e2575081546001818101845560008481526020808220909301849055845484825282860190935260409020919091556104ca565b5060006104ca565b600081815260018301602052604081205480156115d357600061150e6001836118be565b8554909150600090611522906001906118be565b905081811461158757600086600001828154811061154257611542611864565b906000526020600020015490508087600001848154811061156557611565611864565b6000918252602080832090910192909255918252600188019052604090208390555b8554869080611598576115986118d1565b6001900381819060005260206000200160009055905585600101600086815260200190815260200160002060009055600193505050506104ca565b60009150506104ca565b6000602082840312156115ef57600080fd5b81356001600160e01b0319811681146107fa57600080fd5b60005b8381101561162257818101518382015260200161160a565b50506000910152565b602081526000825180602084015261164a816040850160208701611607565b601f01601f19169190910160400192915050565b80356001600160a01b038116811461167557600080fd5b919050565b6000806040838503121561168d57600080fd5b6116968361165e565b946020939093013593505050565b6000806000606084860312156116b957600080fd5b6116c28461165e565b92506116d06020850161165e565b9150604084013590509250925092565b6000602082840312156116f257600080fd5b5035919050565b6000806040838503121561170c57600080fd5b8235915061171c6020840161165e565b90509250929050565b60006020828403121561173757600080fd5b6107fa8261165e565b6000806040838503121561175357600080fd5b50508035926020909101359150565b6000806040838503121561177557600080fd5b61177e8361165e565b915061171c6020840161165e565b600181811c908216806117a057607f821691505b6020821081036117c057634e487b7160e01b600052602260045260246000fd5b50919050565b634e487b7160e01b600052601160045260246000fd5b808201808211156104ca576104ca6117c6565b7f416363657373436f6e74726f6c3a206163636f756e7420000000000000000000815260008351611827816017850160208801611607565b7001034b99036b4b9b9b4b733903937b6329607d1b6017918401918201528351611858816028840160208801611607565b01602801949350505050565b634e487b7160e01b600052603260045260246000fd5b80820281158282048414176104ca576104ca6117c6565b634e487b7160e01b600052604160045260246000fd5b6000816118b6576118b66117c6565b506000190190565b818103818111156104ca576104ca6117c6565b634e487b7160e01b600052603160045260246000fdfea264697066735822122046022c1397dee2d65502926986e6b830643f62bdc205a58d7706a5043674cf6e64736f6c63430008130033a264697066735822122051b194c19cfb0c23f9d0d7ceeb1187b85a87d25e5c4114cdb4e19c1b086bde7c64736f6c63430008130033",
  "devdoc": {
    "events": {
      "Initialized(uint8)": {
        "details": "Triggered when the contract has been initialized or reinitialized."
      },
      "Paused(address)": {
        "details": "Emitted when the pause is triggered by `account`."
      },
      "RoleAdminChanged(bytes32,bytes32,bytes32)": {
        "details": "Emitted when `newAdminRole` is set as ``role``'s admin role, replacing `previousAdminRole` `DEFAULT_ADMIN_ROLE` is the starting admin for all roles, despite {RoleAdminChanged} not being emitted signaling this. _Available since v3.1._"
      },
      "RoleGranted(bytes32,address,address)": {
        "details": "Emitted when `account` is granted `role`. `sender` is the account that originated the contract call, an admin role bearer except when using {AccessControl-_setupRole}."
      },
      "RoleRevoked(bytes32,address,address)": {
        "details": "Emitted when `account` is revoked `role`. `sender` is the account that originated the contract call:   - if using `revokeRole`, it is the admin role bearer   - if using `renounceRole`, it is the role bearer (i.e. `account`)"
      },
      "Unpaused(address)": {
        "details": "Emitted when the pause is lifted by `account`."
      }
    },
    "kind": "dev",
    "methods": {
      "getRoleAdmin(bytes32)": {
        "details": "Returns the admin role that controls `role`. See {grantRole} and {revokeRole}. To change a role's admin, use {_setRoleAdmin}."
      },
      "getRoleMember(bytes32,uint256)": {
        "details": "Returns one of the accounts that have `role`. `index` must be a value between 0 and {getRoleMemberCount}, non-inclusive. Role bearers are not sorted in any particular way, and their ordering may change at any point. WARNING: When using {getRoleMember} and {getRoleMemberCount}, make sure you perform all queries on the same block. See the following https://forum.openzeppelin.com/t/iterating-over-elements-on-enumerableset-in-openzeppelin-contracts/2296[forum post] for more information."
      },
      "getRoleMemberCount(bytes32)": {
        "details": "Returns the number of accounts that have `role`. Can be used together with {getRoleMember} to enumerate all bearers of a role."
      },
      "grantRole(bytes32,address)": {
        "details": "Grants `role` to `account`. If `account` had not been already granted `role`, emits a {RoleGranted} event. Requirements: - the caller must have ``role``'s admin role. May emit a {RoleGranted} event."
      },
      "hasRole(bytes32,address)": {
        "details": "Returns `true` if `account` has been granted `role`."
      },
      "paused()": {
        "details": "Returns true if the contract is paused, and false otherwise."
      },
      "renounceRole(bytes32,address)": {
        "details": "Revokes `role` from the calling account. Roles are often managed via {grantRole} and {revokeRole}: this function's purpose is to provide a mechanism for accounts to lose their privileges if they are compromised (such as when a trusted device is misplaced). If the calling account had been revoked `role`, emits a {RoleRevoked} event. Requirements: - the caller must be `account`. May emit a {RoleRevoked} event."
      },
      "revokeRole(bytes32,address)": {
        "details": "Revokes `role` from `account`. If `account` had been granted `role`, emits a {RoleRevoked} event. Requirements: - the caller must have ``role``'s admin role. May emit a {RoleRevoked} event."
      },
      "supportsInterface(bytes4)": {
        "details": "See {IERC165-supportsInterface}."
      }
    },
    "version": 1
  },
  "userdoc": {
    "kind": "user",
    "methods": {},
    "version": 1
  },
  "storageLayout": {
    "storage": [
      {
        "astId": 1151,
        "contract": "contracts/protocol/note-sale/fab/NoteTokenFactory.sol:NoteTokenFactory",
        "label": "_initialized",
        "offset": 0,
        "slot": "0",
        "type": "t_uint8"
      },
      {
        "astId": 1154,
        "contract": "contracts/protocol/note-sale/fab/NoteTokenFactory.sol:NoteTokenFactory",
        "label": "_initializing",
        "offset": 1,
        "slot": "0",
        "type": "t_bool"
      },
      {
        "astId": 5261,
        "contract": "contracts/protocol/note-sale/fab/NoteTokenFactory.sol:NoteTokenFactory",
        "label": "__gap",
        "offset": 0,
        "slot": "1",
        "type": "t_array(t_uint256)50_storage"
      },
      {
        "astId": 1334,
        "contract": "contracts/protocol/note-sale/fab/NoteTokenFactory.sol:NoteTokenFactory",
        "label": "_paused",
        "offset": 0,
        "slot": "51",
        "type": "t_bool"
      },
      {
        "astId": 1439,
        "contract": "contracts/protocol/note-sale/fab/NoteTokenFactory.sol:NoteTokenFactory",
        "label": "__gap",
        "offset": 0,
        "slot": "52",
        "type": "t_array(t_uint256)49_storage"
      },
      {
        "astId": 1454,
        "contract": "contracts/protocol/note-sale/fab/NoteTokenFactory.sol:NoteTokenFactory",
        "label": "_status",
        "offset": 0,
        "slot": "101",
        "type": "t_uint256"
      },
      {
        "astId": 1523,
        "contract": "contracts/protocol/note-sale/fab/NoteTokenFactory.sol:NoteTokenFactory",
        "label": "__gap",
        "offset": 0,
        "slot": "102",
        "type": "t_array(t_uint256)49_storage"
      },
      {
        "astId": 5974,
        "contract": "contracts/protocol/note-sale/fab/NoteTokenFactory.sol:NoteTokenFactory",
        "label": "__gap",
        "offset": 0,
        "slot": "151",
        "type": "t_array(t_uint256)50_storage"
      },
      {
        "astId": 615,
        "contract": "contracts/protocol/note-sale/fab/NoteTokenFactory.sol:NoteTokenFactory",
        "label": "_roles",
        "offset": 0,
        "slot": "201",
        "type": "t_mapping(t_bytes32,t_struct(RoleData)610_storage)"
      },
      {
        "astId": 910,
        "contract": "contracts/protocol/note-sale/fab/NoteTokenFactory.sol:NoteTokenFactory",
        "label": "__gap",
        "offset": 0,
        "slot": "202",
        "type": "t_array(t_uint256)49_storage"
      },
      {
        "astId": 464,
        "contract": "contracts/protocol/note-sale/fab/NoteTokenFactory.sol:NoteTokenFactory",
        "label": "_roleMembers",
        "offset": 0,
        "slot": "251",
        "type": "t_mapping(t_bytes32,t_struct(AddressSet)7284_storage)"
      },
      {
        "astId": 574,
        "contract": "contracts/protocol/note-sale/fab/NoteTokenFactory.sol:NoteTokenFactory",
        "label": "__gap",
        "offset": 0,
        "slot": "252",
        "type": "t_array(t_uint256)49_storage"
      },
      {
        "astId": 11126,
        "contract": "contracts/protocol/note-sale/fab/NoteTokenFactory.sol:NoteTokenFactory",
        "label": "__gap",
        "offset": 0,
        "slot": "301",
        "type": "t_array(t_uint256)50_storage"
      },
      {
        "astId": 12450,
        "contract": "contracts/protocol/note-sale/fab/NoteTokenFactory.sol:NoteTokenFactory",
        "label": "registry",
        "offset": 0,
        "slot": "351",
        "type": "t_contract(Registry)24736"
      },
      {
        "astId": 12454,
        "contract": "contracts/protocol/note-sale/fab/NoteTokenFactory.sol:NoteTokenFactory",
        "label": "tokens",
        "offset": 0,
        "slot": "352",
        "type": "t_array(t_contract(NoteToken)24941)dyn_storage"
      },
      {
        "astId": 12458,
        "contract": "contracts/protocol/note-sale/fab/NoteTokenFactory.sol:NoteTokenFactory",
        "label": "isExistingTokens",
        "offset": 0,
        "slot": "353",
        "type": "t_mapping(t_address,t_bool)"
      },
      {
        "astId": 12484,
        "contract": "contracts/protocol/note-sale/fab/NoteTokenFactory.sol:NoteTokenFactory",
        "label": "__gap",
        "offset": 0,
        "slot": "354",
        "type": "t_array(t_uint256)47_storage"
      },
      {
        "astId": 19968,
        "contract": "contracts/protocol/note-sale/fab/NoteTokenFactory.sol:NoteTokenFactory",
        "label": "__gap",
        "offset": 0,
        "slot": "401",
        "type": "t_array(t_uint256)50_storage"
      }
    ],
    "types": {
      "t_address": {
        "encoding": "inplace",
        "label": "address",
        "numberOfBytes": "20"
      },
      "t_array(t_bytes32)dyn_storage": {
        "base": "t_bytes32",
        "encoding": "dynamic_array",
        "label": "bytes32[]",
        "numberOfBytes": "32"
      },
      "t_array(t_contract(NoteToken)24941)dyn_storage": {
        "base": "t_contract(NoteToken)24941",
        "encoding": "dynamic_array",
        "label": "contract NoteToken[]",
        "numberOfBytes": "32"
      },
      "t_array(t_uint256)47_storage": {
        "base": "t_uint256",
        "encoding": "inplace",
        "label": "uint256[47]",
        "numberOfBytes": "1504"
      },
      "t_array(t_uint256)49_storage": {
        "base": "t_uint256",
        "encoding": "inplace",
        "label": "uint256[49]",
        "numberOfBytes": "1568"
      },
      "t_array(t_uint256)50_storage": {
        "base": "t_uint256",
        "encoding": "inplace",
        "label": "uint256[50]",
        "numberOfBytes": "1600"
      },
      "t_bool": {
        "encoding": "inplace",
        "label": "bool",
        "numberOfBytes": "1"
      },
      "t_bytes32": {
        "encoding": "inplace",
        "label": "bytes32",
        "numberOfBytes": "32"
      },
      "t_contract(NoteToken)24941": {
        "encoding": "inplace",
        "label": "contract NoteToken",
        "numberOfBytes": "20"
      },
      "t_contract(Registry)24736": {
        "encoding": "inplace",
        "label": "contract Registry",
        "numberOfBytes": "20"
      },
      "t_mapping(t_address,t_bool)": {
        "encoding": "mapping",
        "key": "t_address",
        "label": "mapping(address => bool)",
        "numberOfBytes": "32",
        "value": "t_bool"
      },
      "t_mapping(t_bytes32,t_struct(AddressSet)7284_storage)": {
        "encoding": "mapping",
        "key": "t_bytes32",
        "label": "mapping(bytes32 => struct EnumerableSetUpgradeable.AddressSet)",
        "numberOfBytes": "32",
        "value": "t_struct(AddressSet)7284_storage"
      },
      "t_mapping(t_bytes32,t_struct(RoleData)610_storage)": {
        "encoding": "mapping",
        "key": "t_bytes32",
        "label": "mapping(bytes32 => struct AccessControlUpgradeable.RoleData)",
        "numberOfBytes": "32",
        "value": "t_struct(RoleData)610_storage"
      },
      "t_mapping(t_bytes32,t_uint256)": {
        "encoding": "mapping",
        "key": "t_bytes32",
        "label": "mapping(bytes32 => uint256)",
        "numberOfBytes": "32",
        "value": "t_uint256"
      },
      "t_struct(AddressSet)7284_storage": {
        "encoding": "inplace",
        "label": "struct EnumerableSetUpgradeable.AddressSet",
        "members": [
          {
            "astId": 7283,
            "contract": "contracts/protocol/note-sale/fab/NoteTokenFactory.sol:NoteTokenFactory",
            "label": "_inner",
            "offset": 0,
            "slot": "0",
            "type": "t_struct(Set)6969_storage"
          }
        ],
        "numberOfBytes": "64"
      },
      "t_struct(RoleData)610_storage": {
        "encoding": "inplace",
        "label": "struct AccessControlUpgradeable.RoleData",
        "members": [
          {
            "astId": 607,
            "contract": "contracts/protocol/note-sale/fab/NoteTokenFactory.sol:NoteTokenFactory",
            "label": "members",
            "offset": 0,
            "slot": "0",
            "type": "t_mapping(t_address,t_bool)"
          },
          {
            "astId": 609,
            "contract": "contracts/protocol/note-sale/fab/NoteTokenFactory.sol:NoteTokenFactory",
            "label": "adminRole",
            "offset": 0,
            "slot": "1",
            "type": "t_bytes32"
          }
        ],
        "numberOfBytes": "64"
      },
      "t_struct(Set)6969_storage": {
        "encoding": "inplace",
        "label": "struct EnumerableSetUpgradeable.Set",
        "members": [
          {
            "astId": 6964,
            "contract": "contracts/protocol/note-sale/fab/NoteTokenFactory.sol:NoteTokenFactory",
            "label": "_values",
            "offset": 0,
            "slot": "0",
            "type": "t_array(t_bytes32)dyn_storage"
          },
          {
            "astId": 6968,
            "contract": "contracts/protocol/note-sale/fab/NoteTokenFactory.sol:NoteTokenFactory",
            "label": "_indexes",
            "offset": 0,
            "slot": "1",
            "type": "t_mapping(t_bytes32,t_uint256)"
          }
        ],
        "numberOfBytes": "64"
      },
      "t_uint256": {
        "encoding": "inplace",
        "label": "uint256",
        "numberOfBytes": "32"
      },
      "t_uint8": {
        "encoding": "inplace",
        "label": "uint8",
        "numberOfBytes": "1"
      }
    }
  }
}