{
  "address": "0xd807BDDaA46930c9E1f4bE1a95AF2851Ce0d1405",
  "abi": [
    {
      "anonymous": false,
      "inputs": [
        {
          "indexed": true,
          "internalType": "address",
          "name": "account",
          "type": "address"
        },
        {
          "indexed": true,
          "internalType": "address",
          "name": "operator",
          "type": "address"
        },
        {
          "indexed": false,
          "internalType": "bool",
          "name": "approved",
          "type": "bool"
        }
      ],
      "name": "ApprovalForAll",
      "type": "event"
    },
    {
      "anonymous": false,
      "inputs": [
        {
          "indexed": false,
          "internalType": "uint8",
          "name": "version",
          "type": "uint8"
        }
      ],
      "name": "Initialized",
      "type": "event"
    },
    {
      "anonymous": false,
      "inputs": [
        {
          "indexed": false,
          "internalType": "address",
          "name": "account",
          "type": "address"
        }
      ],
      "name": "Paused",
      "type": "event"
    },
    {
      "anonymous": false,
      "inputs": [
        {
          "indexed": true,
          "internalType": "bytes32",
          "name": "role",
          "type": "bytes32"
        },
        {
          "indexed": true,
          "internalType": "bytes32",
          "name": "previousAdminRole",
          "type": "bytes32"
        },
        {
          "indexed": true,
          "internalType": "bytes32",
          "name": "newAdminRole",
          "type": "bytes32"
        }
      ],
      "name": "RoleAdminChanged",
      "type": "event"
    },
    {
      "anonymous": false,
      "inputs": [
        {
          "indexed": true,
          "internalType": "bytes32",
          "name": "role",
          "type": "bytes32"
        },
        {
          "indexed": true,
          "internalType": "address",
          "name": "account",
          "type": "address"
        },
        {
          "indexed": true,
          "internalType": "address",
          "name": "sender",
          "type": "address"
        }
      ],
      "name": "RoleGranted",
      "type": "event"
    },
    {
      "anonymous": false,
      "inputs": [
        {
          "indexed": true,
          "internalType": "bytes32",
          "name": "role",
          "type": "bytes32"
        },
        {
          "indexed": true,
          "internalType": "address",
          "name": "account",
          "type": "address"
        },
        {
          "indexed": true,
          "internalType": "address",
          "name": "sender",
          "type": "address"
        }
      ],
      "name": "RoleRevoked",
      "type": "event"
    },
    {
      "anonymous": false,
      "inputs": [
        {
          "indexed": true,
          "internalType": "address",
          "name": "operator",
          "type": "address"
        },
        {
          "indexed": true,
          "internalType": "address",
          "name": "from",
          "type": "address"
        },
        {
          "indexed": true,
          "internalType": "address",
          "name": "to",
          "type": "address"
        },
        {
          "indexed": false,
          "internalType": "uint256[]",
          "name": "ids",
          "type": "uint256[]"
        },
        {
          "indexed": false,
          "internalType": "uint256[]",
          "name": "values",
          "type": "uint256[]"
        }
      ],
      "name": "TransferBatch",
      "type": "event"
    },
    {
      "anonymous": false,
      "inputs": [
        {
          "indexed": true,
          "internalType": "address",
          "name": "operator",
          "type": "address"
        },
        {
          "indexed": true,
          "internalType": "address",
          "name": "from",
          "type": "address"
        },
        {
          "indexed": true,
          "internalType": "address",
          "name": "to",
          "type": "address"
        },
        {
          "indexed": false,
          "internalType": "uint256",
          "name": "id",
          "type": "uint256"
        },
        {
          "indexed": false,
          "internalType": "uint256",
          "name": "value",
          "type": "uint256"
        }
      ],
      "name": "TransferSingle",
      "type": "event"
    },
    {
      "anonymous": false,
      "inputs": [
        {
          "indexed": false,
          "internalType": "string",
          "name": "value",
          "type": "string"
        },
        {
          "indexed": true,
          "internalType": "uint256",
          "name": "id",
          "type": "uint256"
        }
      ],
      "name": "URI",
      "type": "event"
    },
    {
      "anonymous": false,
      "inputs": [
        {
          "indexed": false,
          "internalType": "address",
          "name": "account",
          "type": "address"
        }
      ],
      "name": "Unpaused",
      "type": "event"
    },
    {
      "inputs": [],
      "name": "DEFAULT_ADMIN_ROLE",
      "outputs": [
        {
          "internalType": "bytes32",
          "name": "",
          "type": "bytes32"
        }
      ],
      "stateMutability": "view",
      "type": "function"
    },
    {
      "inputs": [],
      "name": "ID_TYPE_0",
      "outputs": [
        {
          "internalType": "uint256",
          "name": "",
          "type": "uint256"
        }
      ],
      "stateMutability": "view",
      "type": "function"
    },
    {
      "inputs": [],
      "name": "ID_TYPE_1",
      "outputs": [
        {
          "internalType": "uint256",
          "name": "",
          "type": "uint256"
        }
      ],
      "stateMutability": "view",
      "type": "function"
    },
    {
      "inputs": [],
      "name": "ID_TYPE_10",
      "outputs": [
        {
          "internalType": "uint256",
          "name": "",
          "type": "uint256"
        }
      ],
      "stateMutability": "view",
      "type": "function"
    },
    {
      "inputs": [],
      "name": "ID_TYPE_2",
      "outputs": [
        {
          "internalType": "uint256",
          "name": "",
          "type": "uint256"
        }
      ],
      "stateMutability": "view",
      "type": "function"
    },
    {
      "inputs": [],
      "name": "ID_TYPE_3",
      "outputs": [
        {
          "internalType": "uint256",
          "name": "",
          "type": "uint256"
        }
      ],
      "stateMutability": "view",
      "type": "function"
    },
    {
      "inputs": [],
      "name": "ID_TYPE_4",
      "outputs": [
        {
          "internalType": "uint256",
          "name": "",
          "type": "uint256"
        }
      ],
      "stateMutability": "view",
      "type": "function"
    },
    {
      "inputs": [],
      "name": "ID_TYPE_5",
      "outputs": [
        {
          "internalType": "uint256",
          "name": "",
          "type": "uint256"
        }
      ],
      "stateMutability": "view",
      "type": "function"
    },
    {
      "inputs": [],
      "name": "ID_TYPE_6",
      "outputs": [
        {
          "internalType": "uint256",
          "name": "",
          "type": "uint256"
        }
      ],
      "stateMutability": "view",
      "type": "function"
    },
    {
      "inputs": [],
      "name": "ID_TYPE_7",
      "outputs": [
        {
          "internalType": "uint256",
          "name": "",
          "type": "uint256"
        }
      ],
      "stateMutability": "view",
      "type": "function"
    },
    {
      "inputs": [],
      "name": "ID_TYPE_8",
      "outputs": [
        {
          "internalType": "uint256",
          "name": "",
          "type": "uint256"
        }
      ],
      "stateMutability": "view",
      "type": "function"
    },
    {
      "inputs": [],
      "name": "ID_TYPE_9",
      "outputs": [
        {
          "internalType": "uint256",
          "name": "",
          "type": "uint256"
        }
      ],
      "stateMutability": "view",
      "type": "function"
    },
    {
      "inputs": [],
      "name": "MINT_COST_PER_TOKEN",
      "outputs": [
        {
          "internalType": "uint256",
          "name": "",
          "type": "uint256"
        }
      ],
      "stateMutability": "view",
      "type": "function"
    },
    {
      "inputs": [],
      "name": "OWNER_ROLE",
      "outputs": [
        {
          "internalType": "bytes32",
          "name": "",
          "type": "bytes32"
        }
      ],
      "stateMutability": "view",
      "type": "function"
    },
    {
      "inputs": [],
      "name": "PAUSER_ROLE",
      "outputs": [
        {
          "internalType": "bytes32",
          "name": "",
          "type": "bytes32"
        }
      ],
      "stateMutability": "view",
      "type": "function"
    },
    {
      "inputs": [],
      "name": "SIGNER_ROLE",
      "outputs": [
        {
          "internalType": "bytes32",
          "name": "",
          "type": "bytes32"
        }
      ],
      "stateMutability": "view",
      "type": "function"
    },
    {
      "inputs": [
        {
          "internalType": "address",
          "name": "account",
          "type": "address"
        },
        {
          "internalType": "uint256",
          "name": "id",
          "type": "uint256"
        }
      ],
      "name": "balanceOf",
      "outputs": [
        {
          "internalType": "uint256",
          "name": "",
          "type": "uint256"
        }
      ],
      "stateMutability": "view",
      "type": "function"
    },
    {
      "inputs": [
        {
          "internalType": "address[]",
          "name": "accounts",
          "type": "address[]"
        },
        {
          "internalType": "uint256[]",
          "name": "ids",
          "type": "uint256[]"
        }
      ],
      "name": "balanceOfBatch",
      "outputs": [
        {
          "internalType": "uint256[]",
          "name": "",
          "type": "uint256[]"
        }
      ],
      "stateMutability": "view",
      "type": "function"
    },
    {
      "inputs": [
        {
          "internalType": "address",
          "name": "account",
          "type": "address"
        },
        {
          "internalType": "uint256",
          "name": "id",
          "type": "uint256"
        },
        {
          "internalType": "uint256",
          "name": "expiresAt",
          "type": "uint256"
        },
        {
          "internalType": "bytes",
          "name": "signature",
          "type": "bytes"
        }
      ],
      "name": "burn",
      "outputs": [],
      "stateMutability": "nonpayable",
      "type": "function"
    },
    {
      "inputs": [
        {
          "internalType": "bytes32",
          "name": "role",
          "type": "bytes32"
        }
      ],
      "name": "getRoleAdmin",
      "outputs": [
        {
          "internalType": "bytes32",
          "name": "",
          "type": "bytes32"
        }
      ],
      "stateMutability": "view",
      "type": "function"
    },
    {
      "inputs": [
        {
          "internalType": "bytes32",
          "name": "role",
          "type": "bytes32"
        },
        {
          "internalType": "uint256",
          "name": "index",
          "type": "uint256"
        }
      ],
      "name": "getRoleMember",
      "outputs": [
        {
          "internalType": "address",
          "name": "",
          "type": "address"
        }
      ],
      "stateMutability": "view",
      "type": "function"
    },
    {
      "inputs": [
        {
          "internalType": "bytes32",
          "name": "role",
          "type": "bytes32"
        }
      ],
      "name": "getRoleMemberCount",
      "outputs": [
        {
          "internalType": "uint256",
          "name": "",
          "type": "uint256"
        }
      ],
      "stateMutability": "view",
      "type": "function"
    },
    {
      "inputs": [
        {
          "internalType": "bytes32",
          "name": "role",
          "type": "bytes32"
        },
        {
          "internalType": "address",
          "name": "account",
          "type": "address"
        }
      ],
      "name": "grantRole",
      "outputs": [],
      "stateMutability": "nonpayable",
      "type": "function"
    },
    {
      "inputs": [
        {
          "internalType": "bytes32",
          "name": "role",
          "type": "bytes32"
        },
        {
          "internalType": "address",
          "name": "account",
          "type": "address"
        }
      ],
      "name": "hasRole",
      "outputs": [
        {
          "internalType": "bool",
          "name": "",
          "type": "bool"
        }
      ],
      "stateMutability": "view",
      "type": "function"
    },
    {
      "inputs": [
        {
          "internalType": "address",
          "name": "owner",
          "type": "address"
        },
        {
          "internalType": "string",
          "name": "uri",
          "type": "string"
        }
      ],
      "name": "initialize",
      "outputs": [],
      "stateMutability": "nonpayable",
      "type": "function"
    },
    {
      "inputs": [],
      "name": "isAdmin",
      "outputs": [
        {
          "internalType": "bool",
          "name": "",
          "type": "bool"
        }
      ],
      "stateMutability": "view",
      "type": "function"
    },
    {
      "inputs": [
        {
          "internalType": "address",
          "name": "account",
          "type": "address"
        },
        {
          "internalType": "address",
          "name": "operator",
          "type": "address"
        }
      ],
      "name": "isApprovedForAll",
      "outputs": [
        {
          "internalType": "bool",
          "name": "",
          "type": "bool"
        }
      ],
      "stateMutability": "view",
      "type": "function"
    },
    {
      "inputs": [
        {
          "internalType": "uint256",
          "name": "id",
          "type": "uint256"
        },
        {
          "internalType": "uint256",
          "name": "expiresAt",
          "type": "uint256"
        },
        {
          "internalType": "bytes",
          "name": "signature",
          "type": "bytes"
        }
      ],
      "name": "mint",
      "outputs": [],
      "stateMutability": "payable",
      "type": "function"
    },
    {
      "inputs": [
        {
          "internalType": "address",
          "name": "recipient",
          "type": "address"
        },
        {
          "internalType": "uint256",
          "name": "id",
          "type": "uint256"
        },
        {
          "internalType": "uint256",
          "name": "expiresAt",
          "type": "uint256"
        },
        {
          "internalType": "bytes",
          "name": "signature",
          "type": "bytes"
        }
      ],
      "name": "mintTo",
      "outputs": [],
      "stateMutability": "payable",
      "type": "function"
    },
    {
      "inputs": [],
      "name": "name",
      "outputs": [
        {
          "internalType": "string",
          "name": "",
          "type": "string"
        }
      ],
      "stateMutability": "pure",
      "type": "function"
    },
    {
      "inputs": [
        {
          "internalType": "address",
          "name": "",
          "type": "address"
        }
      ],
      "name": "nonces",
      "outputs": [
        {
          "internalType": "uint256",
          "name": "",
          "type": "uint256"
        }
      ],
      "stateMutability": "view",
      "type": "function"
    },
    {
      "inputs": [],
      "name": "pause",
      "outputs": [],
      "stateMutability": "nonpayable",
      "type": "function"
    },
    {
      "inputs": [],
      "name": "paused",
      "outputs": [
        {
          "internalType": "bool",
          "name": "",
          "type": "bool"
        }
      ],
      "stateMutability": "view",
      "type": "function"
    },
    {
      "inputs": [
        {
          "internalType": "bytes32",
          "name": "role",
          "type": "bytes32"
        },
        {
          "internalType": "address",
          "name": "account",
          "type": "address"
        }
      ],
      "name": "renounceRole",
      "outputs": [],
      "stateMutability": "nonpayable",
      "type": "function"
    },
    {
      "inputs": [
        {
          "internalType": "bytes32",
          "name": "role",
          "type": "bytes32"
        },
        {
          "internalType": "address",
          "name": "account",
          "type": "address"
        }
      ],
      "name": "revokeRole",
      "outputs": [],
      "stateMutability": "nonpayable",
      "type": "function"
    },
    {
      "inputs": [
        {
          "internalType": "address",
          "name": "from",
          "type": "address"
        },
        {
          "internalType": "address",
          "name": "to",
          "type": "address"
        },
        {
          "internalType": "uint256[]",
          "name": "ids",
          "type": "uint256[]"
        },
        {
          "internalType": "uint256[]",
          "name": "amounts",
          "type": "uint256[]"
        },
        {
          "internalType": "bytes",
          "name": "data",
          "type": "bytes"
        }
      ],
      "name": "safeBatchTransferFrom",
      "outputs": [],
      "stateMutability": "nonpayable",
      "type": "function"
    },
    {
      "inputs": [
        {
          "internalType": "address",
          "name": "from",
          "type": "address"
        },
        {
          "internalType": "address",
          "name": "to",
          "type": "address"
        },
        {
          "internalType": "uint256",
          "name": "id",
          "type": "uint256"
        },
        {
          "internalType": "uint256",
          "name": "amount",
          "type": "uint256"
        },
        {
          "internalType": "bytes",
          "name": "data",
          "type": "bytes"
        }
      ],
      "name": "safeTransferFrom",
      "outputs": [],
      "stateMutability": "nonpayable",
      "type": "function"
    },
    {
      "inputs": [
        {
          "internalType": "address",
          "name": "operator",
          "type": "address"
        },
        {
          "internalType": "bool",
          "name": "approved",
          "type": "bool"
        }
      ],
      "name": "setApprovalForAll",
      "outputs": [],
      "stateMutability": "nonpayable",
      "type": "function"
    },
    {
      "inputs": [
        {
          "internalType": "uint256[]",
          "name": "ids",
          "type": "uint256[]"
        },
        {
          "internalType": "bool[]",
          "name": "values",
          "type": "bool[]"
        }
      ],
      "name": "setSupportedUIDTypes",
      "outputs": [],
      "stateMutability": "nonpayable",
      "type": "function"
    },
    {
      "inputs": [
        {
          "internalType": "string",
          "name": "newuri",
          "type": "string"
        }
      ],
      "name": "setURI",
      "outputs": [],
      "stateMutability": "nonpayable",
      "type": "function"
    },
    {
      "inputs": [
        {
          "internalType": "uint256",
          "name": "",
          "type": "uint256"
        }
      ],
      "name": "supportedUIDTypes",
      "outputs": [
        {
          "internalType": "bool",
          "name": "",
          "type": "bool"
        }
      ],
      "stateMutability": "view",
      "type": "function"
    },
    {
      "inputs": [
        {
          "internalType": "bytes4",
          "name": "interfaceId",
          "type": "bytes4"
        }
      ],
      "name": "supportsInterface",
      "outputs": [
        {
          "internalType": "bool",
          "name": "",
          "type": "bool"
        }
      ],
      "stateMutability": "view",
      "type": "function"
    },
    {
      "inputs": [],
      "name": "symbol",
      "outputs": [
        {
          "internalType": "string",
          "name": "",
          "type": "string"
        }
      ],
      "stateMutability": "pure",
      "type": "function"
    },
    {
      "inputs": [
        {
          "internalType": "address",
          "name": "token",
          "type": "address"
        }
      ],
      "name": "unlockWrongToken",
      "outputs": [],
      "stateMutability": "nonpayable",
      "type": "function"
    },
    {
      "inputs": [],
      "name": "unpause",
      "outputs": [],
      "stateMutability": "nonpayable",
      "type": "function"
    },
    {
      "inputs": [
        {
          "internalType": "uint256",
          "name": "",
          "type": "uint256"
        }
      ],
      "name": "uri",
      "outputs": [
        {
          "internalType": "string",
          "name": "",
          "type": "string"
        }
      ],
      "stateMutability": "view",
      "type": "function"
    }
  ],
  "transactionHash": "0xd10d55f5b44e32dc6fbb5ed384b563df909a91032387025feaaf645f7a3e327a",
  "args": [],
  "numDeployments": 1,
  "solcInputHash": "e1c1cf3618784ab0138aee624abc84c7",
  "bytecode": "0x608060405234801561001057600080fd5b50613cb2806100206000396000f3fe60806040526004361061027c5760003560e01c80638456cb591161014f578063b6db75a0116100c1578063e63ab1e91161007a578063e63ab1e914610755578063e985e9c514610777578063ec2e8a75146107c0578063f242432a146107d5578063f399e22e146107f5578063fb79a6841461081557600080fd5b8063b6db75a0146106b4578063ca15c873146106c9578063d547741f146106e9578063ddd8f68714610709578063e57a2a501461071e578063e58378bb1461073357600080fd5b806391d148541161011357806391d148541461061157806395d89b41146106315780639b56d7881461065d578063a1ebf35d14610672578063a217fddf1461065d578063a22cb4651461069457600080fd5b80638456cb5914610553578063879dcceb146105685780638a94b05f146105885780639010d07c146105a85780639142575d146105e057600080fd5b80632eb2c2d6116101f35780635344626a116101ac5780635344626a146104b95780635c975abb146104ce578063701d240a146104e65780637ecebe00146104fb578063801dfa901461052957806380f878021461053e57600080fd5b80632eb2c2d6146104025780632f2ff15d1461042257806336568abe146104425780633f4ba83a14610462578063479e743c146104775780634e1273f41461048c57600080fd5b80630e89341c116102455780630e89341c1461035a5780631484bddd1461037a578063248a9ca31461038f578063280f4e28146103bf5780632dc2c007146103d25780632e82d895146103ed57600080fd5b8062fdd58e1461028157806301ffc9a7146102b457806302fe5305146102e457806306fdde031461030657806308dc9f4214610347575b600080fd5b34801561028d57600080fd5b506102a161029c366004612e2a565b610835565b6040519081526020015b60405180910390f35b3480156102c057600080fd5b506102d46102cf366004612e6a565b6108d0565b60405190151581526020016102ab565b3480156102f057600080fd5b506103046102ff366004612f3c565b6108db565b005b34801561031257600080fd5b5060408051808201909152600f81526e556e69717565204964656e7469747960881b60208201525b6040516102ab9190612fc8565b61030461035536600461301c565b61090b565b34801561036657600080fd5b5061033a61037536600461306e565b610a35565b34801561038657600080fd5b506102a1600881565b34801561039b57600080fd5b506102a16103aa36600461306e565b60009081526065602052604090206001015490565b6103046103cd366004613087565b610ac9565b3480156103de57600080fd5b506102a16602f2e16f29e00081565b3480156103f957600080fd5b506102a1600381565b34801561040e57600080fd5b5061030461041d366004613182565b610c79565b34801561042e57600080fd5b5061030461043d36600461322b565b610cc5565b34801561044e57600080fd5b5061030461045d36600461322b565b610cef565b34801561046e57600080fd5b50610304610d6d565b34801561048357600080fd5b506102a1600581565b34801561049857600080fd5b506104ac6104a7366004613257565b610df9565b6040516102ab919061335c565b3480156104c557600080fd5b506102a1600681565b3480156104da57600080fd5b5060fb5460ff166102d4565b3480156104f257600080fd5b506102a1600181565b34801561050757600080fd5b506102a161051636600461336f565b6101916020526000908152604090205481565b34801561053557600080fd5b506102a1600781565b34801561054a57600080fd5b506102a1600281565b34801561055f57600080fd5b50610304610f22565b34801561057457600080fd5b506103046105833660046133ce565b610faa565b34801561059457600080fd5b506103046105a3366004613087565b6110a3565b3480156105b457600080fd5b506105c86105c336600461342d565b611238565b6040516001600160a01b0390911681526020016102ab565b3480156105ec57600080fd5b506102d46105fb36600461306e565b6101926020526000908152604090205460ff1681565b34801561061d57600080fd5b506102d461062c36600461322b565b611257565b34801561063d57600080fd5b5060408051808201909152600381526215525160ea1b602082015261033a565b34801561066957600080fd5b506102a1600081565b34801561067e57600080fd5b506102a1600080516020613c5d83398151915281565b3480156106a057600080fd5b506103046106af36600461345d565b611282565b3480156106c057600080fd5b506102d461128d565b3480156106d557600080fd5b506102a16106e436600461306e565b6112ac565b3480156106f557600080fd5b5061030461070436600461322b565b6112c3565b34801561071557600080fd5b506102a1600a81565b34801561072a57600080fd5b506102a1600981565b34801561073f57600080fd5b506102a1600080516020613c1d83398151915281565b34801561076157600080fd5b506102a1600080516020613c3d83398151915281565b34801561078357600080fd5b506102d4610792366004613494565b6001600160a01b03918216600090815260ca6020908152604080832093909416825291909152205460ff1690565b3480156107cc57600080fd5b506102a1600481565b3480156107e157600080fd5b506103046107f03660046134be565b6112e8565b34801561080157600080fd5b50610304610810366004613522565b61132d565b34801561082157600080fd5b5061030461083036600461336f565b6114a0565b60006001600160a01b0383166108a55760405162461bcd60e51b815260206004820152602a60248201527f455243313135353a2061646472657373207a65726f206973206e6f742061207660448201526930b634b21037bbb732b960b11b60648201526084015b60405180910390fd5b50600081815260c9602090815260408083206001600160a01b03861684529091529020545b92915050565b60006108ca826116ec565b6108e361128d565b6108ff5760405162461bcd60e51b815260040161089c90613565565b6109088161172c565b50565b338484848482421061092f5760405162461bcd60e51b815260040161089c906135b0565b6001600160a01b038516600090815261019160209081526040808320549051610963928992899289923092914691016135df565b604051602081830303815290604052805190602001209050600061098682611738565b90506109da600080516020613c5d83398151915261062c8387878080601f01602080910402602001604051908101604052809392919081815260200183838082843760009201919091525061176b92505050565b6109f65760405162461bcd60e51b815260040161089c90613625565b33600081815261019160205260408120805460019290610a17908490613663565b90915550610a279050338d611787565b505050505050505050505050565b606060cb8054610a4490613676565b80601f0160208091040260200160405190810160405280929190818152602001828054610a7090613676565b8015610abd5780601f10610a9257610100808354040283529160200191610abd565b820191906000526020600020905b815481529060010190602001808311610aa057829003601f168201915b50505050509050919050565b8484848484824210610aed5760405162461bcd60e51b815260040161089c906135b0565b336000818152610191602090815260408083205481516bffffffffffffffffffffffff19606096871b8116828601528b871b81166034830152604882018b9052606882018a90523090961b9095166088860152609c8501524660bc808601919091528151808603909101815260dc9094019052825192019190912090610b7282611738565b9050610bc6600080516020613c5d83398151915261062c8387878080601f01602080910402602001604051908101604052809392919081815260200183838082843760009201919091525061176b92505050565b610be25760405162461bcd60e51b815260040161089c90613625565b33600081815261019160205260408120805460019290610c03908490613663565b90915550610c139050338d610835565b15610c605760405162461bcd60e51b815260206004820152601a60248201527f6d736753656e64657220616c7265616479206f776e7320554944000000000000604482015260640161089c565b610c6a8d8d611787565b50505050505050505050505050565b6001600160a01b038516331480610c955750610c958533610792565b610cb15760405162461bcd60e51b815260040161089c906136b0565b610cbe85858585856118a9565b5050505050565b600082815260656020526040902060010154610ce081611a97565b610cea8383611aa1565b505050565b6001600160a01b0381163314610d5f5760405162461bcd60e51b815260206004820152602f60248201527f416363657373436f6e74726f6c3a2063616e206f6e6c792072656e6f756e636560448201526e103937b632b9903337b91039b2b63360891b606482015260840161089c565b610d698282611ac3565b5050565b610d85600080516020613c3d83398151915233611257565b610def5760405162461bcd60e51b815260206004820152603560248201527f455243313135355072657365745061757365723a206d75737420686176652070604482015274617573657220726f6c6520746f20756e706175736560581b606482015260840161089c565b610df7611ae5565b565b60608151835114610e5e5760405162461bcd60e51b815260206004820152602960248201527f455243313135353a206163636f756e747320616e6420696473206c656e677468604482015268040dad2e6dac2e8c6d60bb1b606482015260840161089c565b600083516001600160401b03811115610e7957610e79612e87565b604051908082528060200260200182016040528015610ea2578160200160208202803683370190505b50905060005b8451811015610f1a57610eed858281518110610ec657610ec66136fe565b6020026020010151858381518110610ee057610ee06136fe565b6020026020010151610835565b828281518110610eff57610eff6136fe565b6020908102919091010152610f1381613714565b9050610ea8565b509392505050565b610f3a600080516020613c3d83398151915233611257565b610fa25760405162461bcd60e51b815260206004820152603360248201527f455243313135355072657365745061757365723a206d75737420686176652070604482015272617573657220726f6c6520746f20706175736560681b606482015260840161089c565b610df7611b37565b610fb261128d565b610fce5760405162461bcd60e51b815260040161089c90613565565b82811461101d5760405162461bcd60e51b815260206004820181905260248201527f6163636f756e747320616e6420696473206c656e677468206d69736d61746368604482015260640161089c565b60005b83811015610cbe5782828281811061103a5761103a6136fe565b905060200201602081019061104f919061372d565b6101926000878785818110611066576110666136fe565b90506020020135815260200190815260200160002060006101000a81548160ff0219169083151502179055508061109c90613714565b9050611020565b84848484848242106110c75760405162461bcd60e51b815260040161089c906135b0565b6001600160a01b0385166000908152610191602090815260408083205490516110fb928992899289923092914691016135df565b604051602081830303815290604052805190602001209050600061111e82611738565b9050611172600080516020613c5d83398151915261062c8387878080601f01602080910402602001604051908101604052809392919081815260200183838082843760009201919091525061176b92505050565b61118e5760405162461bcd60e51b815260040161089c90613625565b6001600160a01b038c1660009081526101916020526040812080548e92600192916111ba908490613663565b909155506111cc90508d8d6001611b74565b60006111d88e8e610835565b905080156112285760405162461bcd60e51b815260206004820152601c60248201527f42616c616e6365206166746572206275726e206d757374206265203000000000604482015260640161089c565b5050505050505050505050505050565b60008281526097602052604081206112509083611d0d565b9392505050565b60009182526065602090815260408084206001600160a01b0393909316845291905290205460ff1690565b610d69338383611d19565b60006112a7600080516020613c1d83398151915233611257565b905090565b60008181526097602052604081206108ca90611df9565b6000828152606560205260409020600101546112de81611a97565b610cea8383611ac3565b6001600160a01b03851633148061130457506113048533610792565b6113205760405162461bcd60e51b815260040161089c906136b0565b610cbe8585858585611e03565b600054610100900460ff161580801561134d5750600054600160ff909116105b806113675750303b158015611367575060005460ff166001145b6113ca5760405162461bcd60e51b815260206004820152602e60248201527f496e697469616c697a61626c653a20636f6e747261637420697320616c72656160448201526d191e481a5b9a5d1a585b1a5e995960921b606482015260840161089c565b6000805460ff1916600117905580156113ed576000805461ff0019166101001790555b6001600160a01b0383166114435760405162461bcd60e51b815260206004820152601d60248201527f4f776e657220616464726573732063616e6e6f7420626520656d707479000000604482015260640161089c565b61144d8383611f3f565b61145683611fa8565b8015610cea576000805461ff0019169055604051600181527f7f26b83ff96e1f2b6a682f133852f6798a09c465da95921460cefb38474024989060200160405180910390a1505050565b6114a861128d565b6114c45760405162461bcd60e51b815260040161089c90613565565b6001600160a01b0381166115c6576000336040516370a0823160e01b81523060048201526001600160a01b03918216918416906370a0823190602401602060405180830381865afa15801561151d573d6000803e3d6000fd5b505050506040513d601f19601f82011682018060405250810190611541919061374a565b604051600081818185875af1925050503d806000811461157d576040519150601f19603f3d011682016040523d82523d6000602084013e611582565b606091505b5050905080610d695760405162461bcd60e51b815260206004820152601060248201526f2a3930b739b332b9103330b4b632b21760811b604482015260640161089c565b6001600160a01b03811663a9059cbb336040516370a0823160e01b81523060048201526001600160a01b038516906370a0823190602401602060405180830381865afa15801561161a573d6000803e3d6000fd5b505050506040513d601f19601f8201168201806040525081019061163e919061374a565b6040516001600160e01b031960e085901b1681526001600160a01b03909216600483015260248201526044016020604051808303816000875af1158015611689573d6000803e3d6000fd5b505050506040513d601f19601f820116820180604052508101906116ad9190613763565b6109085760405162461bcd60e51b815260206004820152601060248201526f2a3930b739b332b9103330b4b632b21760811b604482015260640161089c565b60006001600160e01b03198216636cdb3d1360e11b148061171d57506001600160e01b031982166303a24d0760e21b145b806108ca57506108ca82611fd8565b60cb610d6982826137c6565b7f19457468657265756d205369676e6564204d6573736167653a0a3332000000006000908152601c91909152603c902090565b600080600061177a8585611ffd565b91509150610f1a81612042565b6602f2e16f29e0003410156117de5760405162461bcd60e51b815260206004820152601f60248201527f546f6b656e206d696e7420726571756972657320302e30303038332045544800604482015260640161089c565b6000818152610192602052604090205460ff166118365760405162461bcd60e51b8152602060048201526016602482015275151bdad95b881a59081b9bdd081cdd5c1c1bdc9d195960521b604482015260640161089c565b6118408282610835565b1561188d5760405162461bcd60e51b815260206004820152601d60248201527f42616c616e6365206265666f7265206d696e74206d7573742062652030000000604482015260640161089c565b610d69828260016040518060200160405280600081525061218c565b815183511461190b5760405162461bcd60e51b815260206004820152602860248201527f455243313135353a2069647320616e6420616d6f756e7473206c656e677468206044820152670dad2e6dac2e8c6d60c31b606482015260840161089c565b6001600160a01b0384166119315760405162461bcd60e51b815260040161089c90613885565b336119408187878787876122a8565b60005b8451811015611a29576000858281518110611960576119606136fe565b60200260200101519050600085838151811061197e5761197e6136fe565b602090810291909101810151600084815260c9835260408082206001600160a01b038e1683529093529190912054909150818110156119cf5760405162461bcd60e51b815260040161089c906138ca565b600083815260c9602090815260408083206001600160a01b038e8116855292528083208585039055908b16825281208054849290611a0e908490613663565b9250508190555050505080611a2290613714565b9050611943565b50846001600160a01b0316866001600160a01b0316826001600160a01b03167f4a39dc06d4c0dbc64b70af90fd698a233a518aa5d07e595d983b8c0526c8f7fb8787604051611a79929190613914565b60405180910390a4611a8f818787878787612356565b505050505050565b61090881336124b1565b611aab828261250a565b6000828152609760205260409020610cea9082612590565b611acd82826125a5565b6000828152609760205260409020610cea908261260c565b611aed612621565b60fb805460ff191690557f5db9ee0a495bf2e6ff9c91a7834c1ba4fdd244a5e8aa4e537bd38aeae4b073aa335b6040516001600160a01b03909116815260200160405180910390a1565b611b3f61266a565b60fb805460ff191660011790557f62e78cea01bee320cd4e420270b5ea74000d11b0c9f74754ebdbfc544b05a258611b1a3390565b6001600160a01b038316611bd65760405162461bcd60e51b815260206004820152602360248201527f455243313135353a206275726e2066726f6d20746865207a65726f206164647260448201526265737360e81b606482015260840161089c565b336000611be2846126b0565b90506000611bef846126b0565b9050611c0f838760008585604051806020016040528060008152506122a8565b600085815260c9602090815260408083206001600160a01b038a16845290915290205484811015611c8e5760405162461bcd60e51b8152602060048201526024808201527f455243313135353a206275726e20616d6f756e7420657863656564732062616c604482015263616e636560e01b606482015260840161089c565b600086815260c9602090815260408083206001600160a01b038b81168086529184528285208a8703905582518b81529384018a90529092908816917fc3d58168c5ae7397731d063d5bbf3d657854427343f4c083240f7aacaa2d0f62910160405180910390a46040805160208101909152600090525b50505050505050565b600061125083836126fb565b816001600160a01b0316836001600160a01b031603611d8c5760405162461bcd60e51b815260206004820152602960248201527f455243313135353a2073657474696e6720617070726f76616c20737461747573604482015268103337b91039b2b63360b91b606482015260840161089c565b6001600160a01b03838116600081815260ca6020908152604080832094871680845294825291829020805460ff191686151590811790915591519182527f17307eab39ab6107e8899845ad3d59bd9653f200f220920489ca2b5937696c31910160405180910390a3505050565b60006108ca825490565b6001600160a01b038416611e295760405162461bcd60e51b815260040161089c90613885565b336000611e35856126b0565b90506000611e42856126b0565b9050611e528389898585896122a8565b600086815260c9602090815260408083206001600160a01b038c16845290915290205485811015611e955760405162461bcd60e51b815260040161089c906138ca565b600087815260c9602090815260408083206001600160a01b038d8116855292528083208985039055908a16825281208054889290611ed4908490613663565b909155505060408051888152602081018890526001600160a01b03808b16928c821692918816917fc3d58168c5ae7397731d063d5bbf3d657854427343f4c083240f7aacaa2d0f62910160405180910390a4611f34848a8a8a8a8a612725565b505050505050505050565b600054610100900460ff16611f665760405162461bcd60e51b815260040161089c90613942565b611f6e6127e0565b611f766127e0565b611f7e6127e0565b611f866127e0565b611f8f81612807565b611f9761282e565b611f9f6127e0565b610d6982612861565b600054610100900460ff16611fcf5760405162461bcd60e51b815260040161089c90613942565b610908816128f6565b60006001600160e01b03198216635a05180f60e01b14806108ca57506108ca8261295b565b60008082516041036120335760208301516040840151606085015160001a61202787828585612990565b9450945050505061203b565b506000905060025b9250929050565b60008160048111156120565761205661398d565b0361205e5750565b60018160048111156120725761207261398d565b036120bf5760405162461bcd60e51b815260206004820152601860248201527f45434453413a20696e76616c6964207369676e61747572650000000000000000604482015260640161089c565b60028160048111156120d3576120d361398d565b036121205760405162461bcd60e51b815260206004820152601f60248201527f45434453413a20696e76616c6964207369676e6174757265206c656e67746800604482015260640161089c565b60038160048111156121345761213461398d565b036109085760405162461bcd60e51b815260206004820152602260248201527f45434453413a20696e76616c6964207369676e6174757265202773272076616c604482015261756560f01b606482015260840161089c565b6001600160a01b0384166121ec5760405162461bcd60e51b815260206004820152602160248201527f455243313135353a206d696e7420746f20746865207a65726f206164647265736044820152607360f81b606482015260840161089c565b3360006121f8856126b0565b90506000612205856126b0565b9050612216836000898585896122a8565b600086815260c9602090815260408083206001600160a01b038b16845290915281208054879290612248908490613663565b909155505060408051878152602081018790526001600160a01b03808a1692600092918716917fc3d58168c5ae7397731d063d5bbf3d657854427343f4c083240f7aacaa2d0f62910160405180910390a4611d0483600089898989612725565b6001600160a01b0385161580156122c757506001600160a01b03841615155b806122ec57506001600160a01b038516158015906122ec57506001600160a01b038416155b6123485760405162461bcd60e51b815260206004820152602760248201527f4f6e6c79206d696e74206f72206275726e207472616e73666572732061726520604482015266185b1b1bddd95960ca1b606482015260840161089c565b611a8f868686868686612a54565b6001600160a01b0384163b15611a8f5760405163bc197c8160e01b81526001600160a01b0385169063bc197c819061239a90899089908890889088906004016139a3565b6020604051808303816000875af19250505080156123d5575060408051601f3d908101601f191682019092526123d291810190613a01565b60015b612481576123e1613a1e565b806308c379a00361241a57506123f5613a3a565b80612400575061241c565b8060405162461bcd60e51b815260040161089c9190612fc8565b505b60405162461bcd60e51b815260206004820152603460248201527f455243313135353a207472616e7366657220746f206e6f6e2d455243313135356044820152732932b1b2b4bb32b91034b6b83632b6b2b73a32b960611b606482015260840161089c565b6001600160e01b0319811663bc197c8160e01b14611d045760405162461bcd60e51b815260040161089c90613ac3565b6124bb8282611257565b610d69576124c881612a62565b6124d3836020612a74565b6040516020016124e4929190613b0b565b60408051601f198184030181529082905262461bcd60e51b825261089c91600401612fc8565b6125148282611257565b610d695760008281526065602090815260408083206001600160a01b03851684529091529020805460ff1916600117905561254c3390565b6001600160a01b0316816001600160a01b0316837f2f8788117e7eff1d82e926ec794901d17c78024a50270940304540a733656f0d60405160405180910390a45050565b6000611250836001600160a01b038416612c0f565b6125af8282611257565b15610d695760008281526065602090815260408083206001600160a01b0385168085529252808320805460ff1916905551339285917ff6391f5c32d9c69d2a47ea670b442974b53935d1edc7fd64eb21e047a839171b9190a45050565b6000611250836001600160a01b038416612c5e565b60fb5460ff16610df75760405162461bcd60e51b815260206004820152601460248201527314185d5cd8589b194e881b9bdd081c185d5cd95960621b604482015260640161089c565b60fb5460ff1615610df75760405162461bcd60e51b815260206004820152601060248201526f14185d5cd8589b194e881c185d5cd95960821b604482015260640161089c565b604080516001808252818301909252606091600091906020808301908036833701905050905082816000815181106126ea576126ea6136fe565b602090810291909101015292915050565b6000826000018281548110612712576127126136fe565b9060005260206000200154905092915050565b6001600160a01b0384163b15611a8f5760405163f23a6e6160e01b81526001600160a01b0385169063f23a6e61906127699089908990889088908890600401613b80565b6020604051808303816000875af19250505080156127a4575060408051601f3d908101601f191682019092526127a191810190613a01565b60015b6127b0576123e1613a1e565b6001600160e01b0319811663f23a6e6160e01b14611d045760405162461bcd60e51b815260040161089c90613ac3565b600054610100900460ff16610df75760405162461bcd60e51b815260040161089c90613942565b600054610100900460ff166108ff5760405162461bcd60e51b815260040161089c90613942565b600054610100900460ff166128555760405162461bcd60e51b815260040161089c90613942565b60fb805460ff19169055565b600054610100900460ff166128885760405162461bcd60e51b815260040161089c90613942565b6128a0600080516020613c1d83398151915282612d51565b6128b8600080516020613c3d83398151915282612d51565b6128de600080516020613c3d833981519152600080516020613c1d833981519152612d5b565b610908600080516020613c1d83398151915280612d5b565b600054610100900460ff1661291d5760405162461bcd60e51b815260040161089c90613942565b612935600080516020613c5d83398151915282612d51565b610908600080516020613c5d833981519152600080516020613c1d833981519152612d5b565b60006001600160e01b03198216637965db0b60e01b14806108ca57506301ffc9a760e01b6001600160e01b03198316146108ca565b6000807f7fffffffffffffffffffffffffffffff5d576e7357a4501ddfe92f46681b20a08311156129c75750600090506003612a4b565b6040805160008082526020820180845289905260ff881692820192909252606081018690526080810185905260019060a0016020604051602081039080840390855afa158015612a1b573d6000803e3d6000fd5b5050604051601f1901519150506001600160a01b038116612a4457600060019250925050612a4b565b9150600090505b94509492505050565b611a8f868686868686612da6565b60606108ca6001600160a01b03831660145b60606000612a83836002613bc5565b612a8e906002613663565b6001600160401b03811115612aa557612aa5612e87565b6040519080825280601f01601f191660200182016040528015612acf576020820181803683370190505b509050600360fc1b81600081518110612aea57612aea6136fe565b60200101906001600160f81b031916908160001a905350600f60fb1b81600181518110612b1957612b196136fe565b60200101906001600160f81b031916908160001a9053506000612b3d846002613bc5565b612b48906001613663565b90505b6001811115612bc0576f181899199a1a9b1b9c1cb0b131b232b360811b85600f1660108110612b7c57612b7c6136fe565b1a60f81b828281518110612b9257612b926136fe565b60200101906001600160f81b031916908160001a90535060049490941c93612bb981613bdc565b9050612b4b565b5083156112505760405162461bcd60e51b815260206004820181905260248201527f537472696e67733a20686578206c656e67746820696e73756666696369656e74604482015260640161089c565b6000818152600183016020526040812054612c56575081546001818101845560008481526020808220909301849055845484825282860190935260409020919091556108ca565b5060006108ca565b60008181526001830160205260408120548015612d47576000612c82600183613bf3565b8554909150600090612c9690600190613bf3565b9050818114612cfb576000866000018281548110612cb657612cb66136fe565b9060005260206000200154905080876000018481548110612cd957612cd96136fe565b6000918252602080832090910192909255918252600188019052604090208390555b8554869080612d0c57612d0c613c06565b6001900381819060005260206000200160009055905585600101600086815260200190815260200160002060009055600193505050506108ca565b60009150506108ca565b610d698282611aa1565b600082815260656020526040808220600101805490849055905190918391839186917fbd79b86ffe0ab8e8776151514217cd7cacd52c909f66475c3af44e129f0b00ff9190a4505050565b60fb5460ff1615611a8f5760405162461bcd60e51b815260206004820152602c60248201527f455243313135355061757361626c653a20746f6b656e207472616e736665722060448201526b1dda1a5b19481c185d5cd95960a21b606482015260840161089c565b80356001600160a01b0381168114612e2557600080fd5b919050565b60008060408385031215612e3d57600080fd5b612e4683612e0e565b946020939093013593505050565b6001600160e01b03198116811461090857600080fd5b600060208284031215612e7c57600080fd5b813561125081612e54565b634e487b7160e01b600052604160045260246000fd5b601f8201601f191681016001600160401b0381118282101715612ec257612ec2612e87565b6040525050565b600082601f830112612eda57600080fd5b81356001600160401b03811115612ef357612ef3612e87565b604051612f0a601f8301601f191660200182612e9d565b818152846020838601011115612f1f57600080fd5b816020850160208301376000918101602001919091529392505050565b600060208284031215612f4e57600080fd5b81356001600160401b03811115612f6457600080fd5b612f7084828501612ec9565b949350505050565b60005b83811015612f93578181015183820152602001612f7b565b50506000910152565b60008151808452612fb4816020860160208601612f78565b601f01601f19169290920160200192915050565b6020815260006112506020830184612f9c565b60008083601f840112612fed57600080fd5b5081356001600160401b0381111561300457600080fd5b60208301915083602082850101111561203b57600080fd5b6000806000806060858703121561303257600080fd5b843593506020850135925060408501356001600160401b0381111561305657600080fd5b61306287828801612fdb565b95989497509550505050565b60006020828403121561308057600080fd5b5035919050565b60008060008060006080868803121561309f57600080fd5b6130a886612e0e565b9450602086013593506040860135925060608601356001600160401b038111156130d157600080fd5b6130dd88828901612fdb565b969995985093965092949392505050565b60006001600160401b0382111561310757613107612e87565b5060051b60200190565b600082601f83011261312257600080fd5b8135602061312f826130ee565b60405161313c8282612e9d565b83815260059390931b850182019282810191508684111561315c57600080fd5b8286015b848110156131775780358352918301918301613160565b509695505050505050565b600080600080600060a0868803121561319a57600080fd5b6131a386612e0e565b94506131b160208701612e0e565b935060408601356001600160401b03808211156131cd57600080fd5b6131d989838a01613111565b945060608801359150808211156131ef57600080fd5b6131fb89838a01613111565b9350608088013591508082111561321157600080fd5b5061321e88828901612ec9565b9150509295509295909350565b6000806040838503121561323e57600080fd5b8235915061324e60208401612e0e565b90509250929050565b6000806040838503121561326a57600080fd5b82356001600160401b038082111561328157600080fd5b818501915085601f83011261329557600080fd5b813560206132a2826130ee565b6040516132af8282612e9d565b83815260059390931b85018201928281019150898411156132cf57600080fd5b948201945b838610156132f4576132e586612e0e565b825294820194908201906132d4565b9650508601359250508082111561330a57600080fd5b5061331785828601613111565b9150509250929050565b600081518084526020808501945080840160005b8381101561335157815187529582019590820190600101613335565b509495945050505050565b6020815260006112506020830184613321565b60006020828403121561338157600080fd5b61125082612e0e565b60008083601f84011261339c57600080fd5b5081356001600160401b038111156133b357600080fd5b6020830191508360208260051b850101111561203b57600080fd5b600080600080604085870312156133e457600080fd5b84356001600160401b03808211156133fb57600080fd5b6134078883890161338a565b9096509450602087013591508082111561342057600080fd5b506130628782880161338a565b6000806040838503121561344057600080fd5b50508035926020909101359150565b801515811461090857600080fd5b6000806040838503121561347057600080fd5b61347983612e0e565b915060208301356134898161344f565b809150509250929050565b600080604083850312156134a757600080fd5b6134b083612e0e565b915061324e60208401612e0e565b600080600080600060a086880312156134d657600080fd5b6134df86612e0e565b94506134ed60208701612e0e565b9350604086013592506060860135915060808601356001600160401b0381111561351657600080fd5b61321e88828901612ec9565b6000806040838503121561353557600080fd5b61353e83612e0e565b915060208301356001600160401b0381111561355957600080fd5b61331785828601612ec9565b6020808252602b908201527f4d75737420686176652061646d696e20726f6c6520746f20706572666f726d2060408201526a3a3434b99030b1ba34b7b760a91b606082015260800190565b60208082526015908201527414da59db985d1d5c99481a185cc8195e1c1a5c9959605a1b604082015260600190565b6bffffffffffffffffffffffff19606097881b81168252601482019690965260348101949094529190941b90921660548201526068810192909252608882015260a80190565b6020808252600e908201526d24b73b30b634b21039b4b3b732b960911b604082015260600190565b634e487b7160e01b600052601160045260246000fd5b808201808211156108ca576108ca61364d565b600181811c9082168061368a57607f821691505b6020821081036136aa57634e487b7160e01b600052602260045260246000fd5b50919050565b6020808252602e908201527f455243313135353a2063616c6c6572206973206e6f7420746f6b656e206f776e60408201526d195c881bdc88185c1c1c9bdd995960921b606082015260800190565b634e487b7160e01b600052603260045260246000fd5b6000600182016137265761372661364d565b5060010190565b60006020828403121561373f57600080fd5b81356112508161344f565b60006020828403121561375c57600080fd5b5051919050565b60006020828403121561377557600080fd5b81516112508161344f565b601f821115610cea57600081815260208120601f850160051c810160208610156137a75750805b601f850160051c820191505b81811015611a8f578281556001016137b3565b81516001600160401b038111156137df576137df612e87565b6137f3816137ed8454613676565b84613780565b602080601f83116001811461382857600084156138105750858301515b600019600386901b1c1916600185901b178555611a8f565b600085815260208120601f198616915b8281101561385757888601518255948401946001909101908401613838565b50858210156138755787850151600019600388901b60f8161c191681555b5050505050600190811b01905550565b60208082526025908201527f455243313135353a207472616e7366657220746f20746865207a65726f206164604082015264647265737360d81b606082015260800190565b6020808252602a908201527f455243313135353a20696e73756666696369656e742062616c616e636520666f60408201526939103a3930b739b332b960b11b606082015260800190565b6040815260006139276040830185613321565b82810360208401526139398185613321565b95945050505050565b6020808252602b908201527f496e697469616c697a61626c653a20636f6e7472616374206973206e6f74206960408201526a6e697469616c697a696e6760a81b606082015260800190565b634e487b7160e01b600052602160045260246000fd5b6001600160a01b0386811682528516602082015260a0604082018190526000906139cf90830186613321565b82810360608401526139e18186613321565b905082810360808401526139f58185612f9c565b98975050505050505050565b600060208284031215613a1357600080fd5b815161125081612e54565b600060033d1115613a375760046000803e5060005160e01c5b90565b600060443d1015613a485790565b6040516003193d81016004833e81513d6001600160401b038160248401118184111715613a7757505050505090565b8285019150815181811115613a8f5750505050505090565b843d8701016020828501011115613aa95750505050505090565b613ab860208286010187612e9d565b509095945050505050565b60208082526028908201527f455243313135353a204552433131353552656365697665722072656a656374656040820152676420746f6b656e7360c01b606082015260800190565b7f416363657373436f6e74726f6c3a206163636f756e7420000000000000000000815260008351613b43816017850160208801612f78565b7001034b99036b4b9b9b4b733903937b6329607d1b6017918401918201528351613b74816028840160208801612f78565b01602801949350505050565b6001600160a01b03868116825285166020820152604081018490526060810183905260a060808201819052600090613bba90830184612f9c565b979650505050505050565b80820281158282048414176108ca576108ca61364d565b600081613beb57613beb61364d565b506000190190565b818103818111156108ca576108ca61364d565b634e487b7160e01b600052603160045260246000fdfeb19546dff01e856fb3f010c267a7b1c60363cf8a4664e21cc89c26224620214e65d7a28e3265b37a6474929f336521b332c1681b933f6cb9f3376673440d862ae2f4eaae4a9751e85a3e4a7b9587827a877f29914755229b07a7b2da98285f70a264697066735822122045d37bfadfd4cd91151cc73873eb23a90cf41c64158fb295f782ff858936f9dd64736f6c63430008130033",
  "devdoc": {
    "author": "Untangled",
    "events": {
      "ApprovalForAll(address,address,bool)": {
        "details": "Emitted when `account` grants or revokes permission to `operator` to transfer their tokens, according to `approved`."
      },
      "Initialized(uint8)": {
        "details": "Triggered when the contract has been initialized or reinitialized."
      },
      "Paused(address)": {
        "details": "Emitted when the pause is triggered by `account`."
      },
      "RoleAdminChanged(bytes32,bytes32,bytes32)": {
        "details": "Emitted when `newAdminRole` is set as ``role``'s admin role, replacing `previousAdminRole` `DEFAULT_ADMIN_ROLE` is the starting admin for all roles, despite {RoleAdminChanged} not being emitted signaling this. _Available since v3.1._"
      },
      "RoleGranted(bytes32,address,address)": {
        "details": "Emitted when `account` is granted `role`. `sender` is the account that originated the contract call, an admin role bearer except when using {AccessControl-_setupRole}."
      },
      "RoleRevoked(bytes32,address,address)": {
        "details": "Emitted when `account` is revoked `role`. `sender` is the account that originated the contract call:   - if using `revokeRole`, it is the admin role bearer   - if using `renounceRole`, it is the role bearer (i.e. `account`)"
      },
      "TransferBatch(address,address,address,uint256[],uint256[])": {
        "details": "Equivalent to multiple {TransferSingle} events, where `operator`, `from` and `to` are the same for all transfers."
      },
      "TransferSingle(address,address,address,uint256,uint256)": {
        "details": "Emitted when `value` tokens of token type `id` are transferred from `from` to `to` by `operator`."
      },
      "URI(string,uint256)": {
        "details": "Emitted when the URI for token type `id` changes to `value`, if it is a non-programmatic URI. If an {URI} event was emitted for `id`, the standard https://eips.ethereum.org/EIPS/eip-1155#metadata-extensions[guarantees] that `value` will equal the value returned by {IERC1155MetadataURI-uri}."
      },
      "Unpaused(address)": {
        "details": "Emitted when the pause is lifted by `account`."
      }
    },
    "kind": "dev",
    "methods": {
      "balanceOf(address,uint256)": {
        "details": "See {IERC1155-balanceOf}. Requirements: - `account` cannot be the zero address."
      },
      "balanceOfBatch(address[],uint256[])": {
        "details": "See {IERC1155-balanceOfBatch}. Requirements: - `accounts` and `ids` must have the same length."
      },
      "burn(address,uint256,uint256,bytes)": {
        "params": {
          "account": "The account which currently owns the UID",
          "expiresAt": "The expiration time of the signature",
          "id": "The id representing the KYC type of the UniqueIdentity",
          "signature": "An EIP-191 signature of the corresponding burn params:                  (account, id, expiresAt, address(this), nonces[account], block.chainid)                  from an address with the SIGNER_ROLE."
        }
      },
      "getRoleAdmin(bytes32)": {
        "details": "Returns the admin role that controls `role`. See {grantRole} and {revokeRole}. To change a role's admin, use {_setRoleAdmin}."
      },
      "getRoleMember(bytes32,uint256)": {
        "details": "Returns one of the accounts that have `role`. `index` must be a value between 0 and {getRoleMemberCount}, non-inclusive. Role bearers are not sorted in any particular way, and their ordering may change at any point. WARNING: When using {getRoleMember} and {getRoleMemberCount}, make sure you perform all queries on the same block. See the following https://forum.openzeppelin.com/t/iterating-over-elements-on-enumerableset-in-openzeppelin-contracts/2296[forum post] for more information."
      },
      "getRoleMemberCount(bytes32)": {
        "details": "Returns the number of accounts that have `role`. Can be used together with {getRoleMember} to enumerate all bearers of a role."
      },
      "grantRole(bytes32,address)": {
        "details": "Grants `role` to `account`. If `account` had not been already granted `role`, emits a {RoleGranted} event. Requirements: - the caller must have ``role``'s admin role. May emit a {RoleGranted} event."
      },
      "hasRole(bytes32,address)": {
        "details": "Returns `true` if `account` has been granted `role`."
      },
      "isApprovedForAll(address,address)": {
        "details": "See {IERC1155-isApprovedForAll}."
      },
      "mint(uint256,uint256,bytes)": {
        "params": {
          "expiresAt": "The expiration time of the signature",
          "id": "The id representing the KYC type of the UniqueIdentity",
          "signature": "An EIP-191 signature of the corresponding mint params:                  account, id, expiresAt, address(this), nonces[account], block.chainid                  from an address with the SIGNER_ROLE."
        }
      },
      "mintTo(address,uint256,uint256,bytes)": {
        "params": {
          "expiresAt": "The expiration time of the signature",
          "id": "The id representing the KYC type of the UniqueIdentity",
          "recipient": "The recipient address to be minted to.",
          "signature": "An EIP-191 signature of the corresponding mintTo params:                  (account, recipient, id, expiresAt, address(this), nonces[account], block.chainid)                  from an address with the SIGNER_ROLE."
        }
      },
      "name()": {
        "details": "Gets the token name.",
        "returns": {
          "_0": "string representing the token name"
        }
      },
      "pause()": {
        "details": "Pauses all token transfers. See {ERC1155Pausable} and {Pausable-_pause}. Requirements: - the caller must have the `PAUSER_ROLE`."
      },
      "paused()": {
        "details": "Returns true if the contract is paused, and false otherwise."
      },
      "renounceRole(bytes32,address)": {
        "details": "Revokes `role` from the calling account. Roles are often managed via {grantRole} and {revokeRole}: this function's purpose is to provide a mechanism for accounts to lose their privileges if they are compromised (such as when a trusted device is misplaced). If the calling account had been revoked `role`, emits a {RoleRevoked} event. Requirements: - the caller must be `account`. May emit a {RoleRevoked} event."
      },
      "revokeRole(bytes32,address)": {
        "details": "Revokes `role` from `account`. If `account` had been granted `role`, emits a {RoleRevoked} event. Requirements: - the caller must have ``role``'s admin role. May emit a {RoleRevoked} event."
      },
      "safeBatchTransferFrom(address,address,uint256[],uint256[],bytes)": {
        "details": "See {IERC1155-safeBatchTransferFrom}."
      },
      "safeTransferFrom(address,address,uint256,uint256,bytes)": {
        "details": "See {IERC1155-safeTransferFrom}."
      },
      "setApprovalForAll(address,bool)": {
        "details": "See {IERC1155-setApprovalForAll}."
      },
      "supportsInterface(bytes4)": {
        "details": "See {IERC165-supportsInterface}."
      },
      "symbol()": {
        "details": "Gets the token symbol.",
        "returns": {
          "_0": "string representing the token symbol"
        }
      },
      "unpause()": {
        "details": "Unpauses all token transfers. See {ERC1155Pausable} and {Pausable-_unpause}. Requirements: - the caller must have the `PAUSER_ROLE`."
      },
      "uri(uint256)": {
        "details": "See {IERC1155MetadataURI-uri}. This implementation returns the same URI for *all* token types. It relies on the token type ID substitution mechanism https://eips.ethereum.org/EIPS/eip-1155#metadata[defined in the EIP]. Clients calling this function must replace the `\\{id\\}` substring with the actual token type ID."
      }
    },
    "stateVariables": {
      "nonces": {
        "details": "We include a nonce in every hashed message, and increment the nonce as part of a state-changing operation, so as to prevent replay attacks, i.e. the reuse of a signature."
      }
    },
    "title": "UniqueIdentity",
    "version": 1
  },
  "userdoc": {
    "kind": "user",
    "methods": {
      "burn(address,uint256,uint256,bytes)": {
        "notice": "Burn a UniqueIdentity token of `id` from the `account`"
      },
      "mint(uint256,uint256,bytes)": {
        "notice": "Mint a new UniqueIdentity token to the msgSender"
      },
      "mintTo(address,uint256,uint256,bytes)": {
        "notice": "Mint a new UniqueIdentity token to the `recipient`"
      }
    },
    "notice": "UniqueIdentity is an ERC1155-compliant contract for representing the identity verification status of addresses.",
    "version": 1
  },
  "storageLayout": {
    "storage": [
      {
        "astId": 1151,
        "contract": "contracts/uid/UniqueIdentity.sol:UniqueIdentity",
        "label": "_initialized",
        "offset": 0,
        "slot": "0",
        "type": "t_uint8"
      },
      {
        "astId": 1154,
        "contract": "contracts/uid/UniqueIdentity.sol:UniqueIdentity",
        "label": "_initializing",
        "offset": 1,
        "slot": "0",
        "type": "t_bool"
      },
      {
        "astId": 5261,
        "contract": "contracts/uid/UniqueIdentity.sol:UniqueIdentity",
        "label": "__gap",
        "offset": 0,
        "slot": "1",
        "type": "t_array(t_uint256)50_storage"
      },
      {
        "astId": 5974,
        "contract": "contracts/uid/UniqueIdentity.sol:UniqueIdentity",
        "label": "__gap",
        "offset": 0,
        "slot": "51",
        "type": "t_array(t_uint256)50_storage"
      },
      {
        "astId": 615,
        "contract": "contracts/uid/UniqueIdentity.sol:UniqueIdentity",
        "label": "_roles",
        "offset": 0,
        "slot": "101",
        "type": "t_mapping(t_bytes32,t_struct(RoleData)610_storage)"
      },
      {
        "astId": 910,
        "contract": "contracts/uid/UniqueIdentity.sol:UniqueIdentity",
        "label": "__gap",
        "offset": 0,
        "slot": "102",
        "type": "t_array(t_uint256)49_storage"
      },
      {
        "astId": 464,
        "contract": "contracts/uid/UniqueIdentity.sol:UniqueIdentity",
        "label": "_roleMembers",
        "offset": 0,
        "slot": "151",
        "type": "t_mapping(t_bytes32,t_struct(AddressSet)7284_storage)"
      },
      {
        "astId": 574,
        "contract": "contracts/uid/UniqueIdentity.sol:UniqueIdentity",
        "label": "__gap",
        "offset": 0,
        "slot": "152",
        "type": "t_array(t_uint256)49_storage"
      },
      {
        "astId": 1553,
        "contract": "contracts/uid/UniqueIdentity.sol:UniqueIdentity",
        "label": "_balances",
        "offset": 0,
        "slot": "201",
        "type": "t_mapping(t_uint256,t_mapping(t_address,t_uint256))"
      },
      {
        "astId": 1559,
        "contract": "contracts/uid/UniqueIdentity.sol:UniqueIdentity",
        "label": "_operatorApprovals",
        "offset": 0,
        "slot": "202",
        "type": "t_mapping(t_address,t_mapping(t_address,t_bool))"
      },
      {
        "astId": 1561,
        "contract": "contracts/uid/UniqueIdentity.sol:UniqueIdentity",
        "label": "_uri",
        "offset": 0,
        "slot": "203",
        "type": "t_string_storage"
      },
      {
        "astId": 2768,
        "contract": "contracts/uid/UniqueIdentity.sol:UniqueIdentity",
        "label": "__gap",
        "offset": 0,
        "slot": "204",
        "type": "t_array(t_uint256)47_storage"
      },
      {
        "astId": 1334,
        "contract": "contracts/uid/UniqueIdentity.sol:UniqueIdentity",
        "label": "_paused",
        "offset": 0,
        "slot": "251",
        "type": "t_bool"
      },
      {
        "astId": 1439,
        "contract": "contracts/uid/UniqueIdentity.sol:UniqueIdentity",
        "label": "__gap",
        "offset": 0,
        "slot": "252",
        "type": "t_array(t_uint256)49_storage"
      },
      {
        "astId": 3002,
        "contract": "contracts/uid/UniqueIdentity.sol:UniqueIdentity",
        "label": "__gap",
        "offset": 0,
        "slot": "301",
        "type": "t_array(t_uint256)50_storage"
      },
      {
        "astId": 11648,
        "contract": "contracts/uid/UniqueIdentity.sol:UniqueIdentity",
        "label": "__gap",
        "offset": 0,
        "slot": "351",
        "type": "t_array(t_uint256)50_storage"
      },
      {
        "astId": 25864,
        "contract": "contracts/uid/UniqueIdentity.sol:UniqueIdentity",
        "label": "nonces",
        "offset": 0,
        "slot": "401",
        "type": "t_mapping(t_address,t_uint256)"
      },
      {
        "astId": 25868,
        "contract": "contracts/uid/UniqueIdentity.sol:UniqueIdentity",
        "label": "supportedUIDTypes",
        "offset": 0,
        "slot": "402",
        "type": "t_mapping(t_uint256,t_bool)"
      },
      {
        "astId": 26402,
        "contract": "contracts/uid/UniqueIdentity.sol:UniqueIdentity",
        "label": "__gap",
        "offset": 0,
        "slot": "403",
        "type": "t_array(t_uint256)48_storage"
      }
    ],
    "types": {
      "t_address": {
        "encoding": "inplace",
        "label": "address",
        "numberOfBytes": "20"
      },
      "t_array(t_bytes32)dyn_storage": {
        "base": "t_bytes32",
        "encoding": "dynamic_array",
        "label": "bytes32[]",
        "numberOfBytes": "32"
      },
      "t_array(t_uint256)47_storage": {
        "base": "t_uint256",
        "encoding": "inplace",
        "label": "uint256[47]",
        "numberOfBytes": "1504"
      },
      "t_array(t_uint256)48_storage": {
        "base": "t_uint256",
        "encoding": "inplace",
        "label": "uint256[48]",
        "numberOfBytes": "1536"
      },
      "t_array(t_uint256)49_storage": {
        "base": "t_uint256",
        "encoding": "inplace",
        "label": "uint256[49]",
        "numberOfBytes": "1568"
      },
      "t_array(t_uint256)50_storage": {
        "base": "t_uint256",
        "encoding": "inplace",
        "label": "uint256[50]",
        "numberOfBytes": "1600"
      },
      "t_bool": {
        "encoding": "inplace",
        "label": "bool",
        "numberOfBytes": "1"
      },
      "t_bytes32": {
        "encoding": "inplace",
        "label": "bytes32",
        "numberOfBytes": "32"
      },
      "t_mapping(t_address,t_bool)": {
        "encoding": "mapping",
        "key": "t_address",
        "label": "mapping(address => bool)",
        "numberOfBytes": "32",
        "value": "t_bool"
      },
      "t_mapping(t_address,t_mapping(t_address,t_bool))": {
        "encoding": "mapping",
        "key": "t_address",
        "label": "mapping(address => mapping(address => bool))",
        "numberOfBytes": "32",
        "value": "t_mapping(t_address,t_bool)"
      },
      "t_mapping(t_address,t_uint256)": {
        "encoding": "mapping",
        "key": "t_address",
        "label": "mapping(address => uint256)",
        "numberOfBytes": "32",
        "value": "t_uint256"
      },
      "t_mapping(t_bytes32,t_struct(AddressSet)7284_storage)": {
        "encoding": "mapping",
        "key": "t_bytes32",
        "label": "mapping(bytes32 => struct EnumerableSetUpgradeable.AddressSet)",
        "numberOfBytes": "32",
        "value": "t_struct(AddressSet)7284_storage"
      },
      "t_mapping(t_bytes32,t_struct(RoleData)610_storage)": {
        "encoding": "mapping",
        "key": "t_bytes32",
        "label": "mapping(bytes32 => struct AccessControlUpgradeable.RoleData)",
        "numberOfBytes": "32",
        "value": "t_struct(RoleData)610_storage"
      },
      "t_mapping(t_bytes32,t_uint256)": {
        "encoding": "mapping",
        "key": "t_bytes32",
        "label": "mapping(bytes32 => uint256)",
        "numberOfBytes": "32",
        "value": "t_uint256"
      },
      "t_mapping(t_uint256,t_bool)": {
        "encoding": "mapping",
        "key": "t_uint256",
        "label": "mapping(uint256 => bool)",
        "numberOfBytes": "32",
        "value": "t_bool"
      },
      "t_mapping(t_uint256,t_mapping(t_address,t_uint256))": {
        "encoding": "mapping",
        "key": "t_uint256",
        "label": "mapping(uint256 => mapping(address => uint256))",
        "numberOfBytes": "32",
        "value": "t_mapping(t_address,t_uint256)"
      },
      "t_string_storage": {
        "encoding": "bytes",
        "label": "string",
        "numberOfBytes": "32"
      },
      "t_struct(AddressSet)7284_storage": {
        "encoding": "inplace",
        "label": "struct EnumerableSetUpgradeable.AddressSet",
        "members": [
          {
            "astId": 7283,
            "contract": "contracts/uid/UniqueIdentity.sol:UniqueIdentity",
            "label": "_inner",
            "offset": 0,
            "slot": "0",
            "type": "t_struct(Set)6969_storage"
          }
        ],
        "numberOfBytes": "64"
      },
      "t_struct(RoleData)610_storage": {
        "encoding": "inplace",
        "label": "struct AccessControlUpgradeable.RoleData",
        "members": [
          {
            "astId": 607,
            "contract": "contracts/uid/UniqueIdentity.sol:UniqueIdentity",
            "label": "members",
            "offset": 0,
            "slot": "0",
            "type": "t_mapping(t_address,t_bool)"
          },
          {
            "astId": 609,
            "contract": "contracts/uid/UniqueIdentity.sol:UniqueIdentity",
            "label": "adminRole",
            "offset": 0,
            "slot": "1",
            "type": "t_bytes32"
          }
        ],
        "numberOfBytes": "64"
      },
      "t_struct(Set)6969_storage": {
        "encoding": "inplace",
        "label": "struct EnumerableSetUpgradeable.Set",
        "members": [
          {
            "astId": 6964,
            "contract": "contracts/uid/UniqueIdentity.sol:UniqueIdentity",
            "label": "_values",
            "offset": 0,
            "slot": "0",
            "type": "t_array(t_bytes32)dyn_storage"
          },
          {
            "astId": 6968,
            "contract": "contracts/uid/UniqueIdentity.sol:UniqueIdentity",
            "label": "_indexes",
            "offset": 0,
            "slot": "1",
            "type": "t_mapping(t_bytes32,t_uint256)"
          }
        ],
        "numberOfBytes": "64"
      },
      "t_uint256": {
        "encoding": "inplace",
        "label": "uint256",
        "numberOfBytes": "32"
      },
      "t_uint8": {
        "encoding": "inplace",
        "label": "uint8",
        "numberOfBytes": "1"
      }
    }
  }
}