{
  "address": "0x6f48Ef99a294d5C9F394A0a08f4149b1f350441a",
  "abi": [
    {
      "inputs": [
        {
          "internalType": "enum MessageType",
          "name": "messageType",
          "type": "uint8"
        },
        {
          "internalType": "bytes",
          "name": "data",
          "type": "bytes"
        }
      ],
      "name": "BridgeRouterExecutedFailed",
      "type": "error"
    },
    {
      "inputs": [
        {
          "internalType": "address",
          "name": "router",
          "type": "address"
        }
      ],
      "name": "InvalidRouter",
      "type": "error"
    },
    {
      "anonymous": false,
      "inputs": [
        {
          "indexed": false,
          "internalType": "uint8",
          "name": "version",
          "type": "uint8"
        }
      ],
      "name": "Initialized",
      "type": "event"
    },
    {
      "anonymous": false,
      "inputs": [
        {
          "indexed": true,
          "internalType": "bytes32",
          "name": "messageId",
          "type": "bytes32"
        },
        {
          "indexed": true,
          "internalType": "uint64",
          "name": "sourceChainSelector",
          "type": "uint64"
        },
        {
          "indexed": false,
          "internalType": "address",
          "name": "sender",
          "type": "address"
        },
        {
          "indexed": false,
          "internalType": "bytes",
          "name": "data",
          "type": "bytes"
        }
      ],
      "name": "MessageReceived",
      "type": "event"
    },
    {
      "anonymous": false,
      "inputs": [
        {
          "indexed": false,
          "internalType": "address",
          "name": "account",
          "type": "address"
        }
      ],
      "name": "Paused",
      "type": "event"
    },
    {
      "anonymous": false,
      "inputs": [
        {
          "indexed": true,
          "internalType": "bytes32",
          "name": "role",
          "type": "bytes32"
        },
        {
          "indexed": true,
          "internalType": "bytes32",
          "name": "previousAdminRole",
          "type": "bytes32"
        },
        {
          "indexed": true,
          "internalType": "bytes32",
          "name": "newAdminRole",
          "type": "bytes32"
        }
      ],
      "name": "RoleAdminChanged",
      "type": "event"
    },
    {
      "anonymous": false,
      "inputs": [
        {
          "indexed": true,
          "internalType": "bytes32",
          "name": "role",
          "type": "bytes32"
        },
        {
          "indexed": true,
          "internalType": "address",
          "name": "account",
          "type": "address"
        },
        {
          "indexed": true,
          "internalType": "address",
          "name": "sender",
          "type": "address"
        }
      ],
      "name": "RoleGranted",
      "type": "event"
    },
    {
      "anonymous": false,
      "inputs": [
        {
          "indexed": true,
          "internalType": "bytes32",
          "name": "role",
          "type": "bytes32"
        },
        {
          "indexed": true,
          "internalType": "address",
          "name": "account",
          "type": "address"
        },
        {
          "indexed": true,
          "internalType": "address",
          "name": "sender",
          "type": "address"
        }
      ],
      "name": "RoleRevoked",
      "type": "event"
    },
    {
      "anonymous": false,
      "inputs": [
        {
          "indexed": false,
          "internalType": "address",
          "name": "account",
          "type": "address"
        }
      ],
      "name": "Unpaused",
      "type": "event"
    },
    {
      "inputs": [],
      "name": "DEFAULT_ADMIN_ROLE",
      "outputs": [
        {
          "internalType": "bytes32",
          "name": "",
          "type": "bytes32"
        }
      ],
      "stateMutability": "view",
      "type": "function"
    },
    {
      "inputs": [],
      "name": "OWNER_ROLE",
      "outputs": [
        {
          "internalType": "bytes32",
          "name": "",
          "type": "bytes32"
        }
      ],
      "stateMutability": "view",
      "type": "function"
    },
    {
      "inputs": [
        {
          "components": [
            {
              "internalType": "bytes32",
              "name": "messageId",
              "type": "bytes32"
            },
            {
              "internalType": "uint64",
              "name": "sourceChainSelector",
              "type": "uint64"
            },
            {
              "internalType": "bytes",
              "name": "sender",
              "type": "bytes"
            },
            {
              "internalType": "bytes",
              "name": "data",
              "type": "bytes"
            },
            {
              "components": [
                {
                  "internalType": "address",
                  "name": "token",
                  "type": "address"
                },
                {
                  "internalType": "uint256",
                  "name": "amount",
                  "type": "uint256"
                }
              ],
              "internalType": "struct Client.EVMTokenAmount[]",
              "name": "destTokenAmounts",
              "type": "tuple[]"
            }
          ],
          "internalType": "struct Client.Any2EVMMessage",
          "name": "message",
          "type": "tuple"
        }
      ],
      "name": "ccipReceive",
      "outputs": [],
      "stateMutability": "nonpayable",
      "type": "function"
    },
    {
      "inputs": [
        {
          "internalType": "bytes32",
          "name": "",
          "type": "bytes32"
        }
      ],
      "name": "failedMessageDataGroup",
      "outputs": [
        {
          "internalType": "enum MessageType",
          "name": "messageType",
          "type": "uint8"
        },
        {
          "internalType": "bytes",
          "name": "data",
          "type": "bytes"
        }
      ],
      "stateMutability": "view",
      "type": "function"
    },
    {
      "inputs": [],
      "name": "getLastReceivedMessageDetails",
      "outputs": [
        {
          "internalType": "bytes32",
          "name": "messageId",
          "type": "bytes32"
        },
        {
          "components": [
            {
              "internalType": "enum MessageType",
              "name": "messageType",
              "type": "uint8"
            },
            {
              "internalType": "bytes",
              "name": "data",
              "type": "bytes"
            }
          ],
          "internalType": "struct ICommandData",
          "name": "command",
          "type": "tuple"
        }
      ],
      "stateMutability": "view",
      "type": "function"
    },
    {
      "inputs": [
        {
          "internalType": "bytes32",
          "name": "role",
          "type": "bytes32"
        }
      ],
      "name": "getRoleAdmin",
      "outputs": [
        {
          "internalType": "bytes32",
          "name": "",
          "type": "bytes32"
        }
      ],
      "stateMutability": "view",
      "type": "function"
    },
    {
      "inputs": [
        {
          "internalType": "bytes32",
          "name": "role",
          "type": "bytes32"
        },
        {
          "internalType": "uint256",
          "name": "index",
          "type": "uint256"
        }
      ],
      "name": "getRoleMember",
      "outputs": [
        {
          "internalType": "address",
          "name": "",
          "type": "address"
        }
      ],
      "stateMutability": "view",
      "type": "function"
    },
    {
      "inputs": [
        {
          "internalType": "bytes32",
          "name": "role",
          "type": "bytes32"
        }
      ],
      "name": "getRoleMemberCount",
      "outputs": [
        {
          "internalType": "uint256",
          "name": "",
          "type": "uint256"
        }
      ],
      "stateMutability": "view",
      "type": "function"
    },
    {
      "inputs": [],
      "name": "getRouter",
      "outputs": [
        {
          "internalType": "address",
          "name": "",
          "type": "address"
        }
      ],
      "stateMutability": "view",
      "type": "function"
    },
    {
      "inputs": [
        {
          "internalType": "bytes32",
          "name": "role",
          "type": "bytes32"
        },
        {
          "internalType": "address",
          "name": "account",
          "type": "address"
        }
      ],
      "name": "grantRole",
      "outputs": [],
      "stateMutability": "nonpayable",
      "type": "function"
    },
    {
      "inputs": [
        {
          "internalType": "bytes32",
          "name": "role",
          "type": "bytes32"
        },
        {
          "internalType": "address",
          "name": "account",
          "type": "address"
        }
      ],
      "name": "hasRole",
      "outputs": [
        {
          "internalType": "bool",
          "name": "",
          "type": "bool"
        }
      ],
      "stateMutability": "view",
      "type": "function"
    },
    {
      "inputs": [
        {
          "internalType": "address",
          "name": "_router",
          "type": "address"
        },
        {
          "internalType": "address",
          "name": "_untangledBridgeRouter",
          "type": "address"
        }
      ],
      "name": "initialize",
      "outputs": [],
      "stateMutability": "nonpayable",
      "type": "function"
    },
    {
      "inputs": [],
      "name": "lastReceivedData",
      "outputs": [
        {
          "internalType": "enum MessageType",
          "name": "messageType",
          "type": "uint8"
        },
        {
          "internalType": "bytes",
          "name": "data",
          "type": "bytes"
        }
      ],
      "stateMutability": "view",
      "type": "function"
    },
    {
      "inputs": [],
      "name": "lastReceivedMessageId",
      "outputs": [
        {
          "internalType": "bytes32",
          "name": "",
          "type": "bytes32"
        }
      ],
      "stateMutability": "view",
      "type": "function"
    },
    {
      "inputs": [
        {
          "internalType": "bytes32",
          "name": "",
          "type": "bytes32"
        }
      ],
      "name": "messageDataGroup",
      "outputs": [
        {
          "internalType": "enum MessageType",
          "name": "messageType",
          "type": "uint8"
        },
        {
          "internalType": "bytes",
          "name": "data",
          "type": "bytes"
        }
      ],
      "stateMutability": "view",
      "type": "function"
    },
    {
      "inputs": [],
      "name": "pause",
      "outputs": [],
      "stateMutability": "nonpayable",
      "type": "function"
    },
    {
      "inputs": [],
      "name": "paused",
      "outputs": [
        {
          "internalType": "bool",
          "name": "",
          "type": "bool"
        }
      ],
      "stateMutability": "view",
      "type": "function"
    },
    {
      "inputs": [
        {
          "internalType": "bytes32",
          "name": "role",
          "type": "bytes32"
        },
        {
          "internalType": "address",
          "name": "account",
          "type": "address"
        }
      ],
      "name": "renounceRole",
      "outputs": [],
      "stateMutability": "nonpayable",
      "type": "function"
    },
    {
      "inputs": [
        {
          "internalType": "bytes32",
          "name": "role",
          "type": "bytes32"
        },
        {
          "internalType": "address",
          "name": "account",
          "type": "address"
        }
      ],
      "name": "revokeRole",
      "outputs": [],
      "stateMutability": "nonpayable",
      "type": "function"
    },
    {
      "inputs": [
        {
          "internalType": "address",
          "name": "_untangledBridgeRouter",
          "type": "address"
        }
      ],
      "name": "setBridgeRouter",
      "outputs": [],
      "stateMutability": "nonpayable",
      "type": "function"
    },
    {
      "inputs": [
        {
          "internalType": "bytes4",
          "name": "interfaceId",
          "type": "bytes4"
        }
      ],
      "name": "supportsInterface",
      "outputs": [
        {
          "internalType": "bool",
          "name": "",
          "type": "bool"
        }
      ],
      "stateMutability": "view",
      "type": "function"
    },
    {
      "inputs": [],
      "name": "unpause",
      "outputs": [],
      "stateMutability": "nonpayable",
      "type": "function"
    }
  ],
  "transactionHash": "0x067d1986a44317cc0437622fbcdc72ed0a55d8dad561a77f3ea7ecb788152b0e",
  "args": [],
  "numDeployments": 1,
  "solcInputHash": "2a2840c188bcdb45c123fe28b90c7fa8",
  "bytecode": "0x608060405234801561001057600080fd5b5061267e806100206000396000f3fe608060405234801561001057600080fd5b50600436106101825760003560e01c8063623c5546116100d857806391d148541161008c578063ca15c87311610066578063ca15c8731461035d578063d547741f14610370578063e58378bb1461038357600080fd5b806391d14854146102f0578063a217fddf14610336578063b0f479a11461033e57600080fd5b80638456cb59116100bd5780638456cb591461029d57806385572ffb146102a55780639010d07c146102b857600080fd5b8063623c5546146102775780636df420071461028a57600080fd5b806339faf87e1161013a5780634d87ee50116101145780634d87ee501461024f5780635c975abb146102595780635f9bc1341461026457600080fd5b806339faf87e1461021e5780633f4ba83a14610234578063485cc9551461023c57600080fd5b8063263596a51161016b578063263596a5146101e05780632f2ff15d146101f657806336568abe1461020b57600080fd5b806301ffc9a714610187578063248a9ca3146101af575b600080fd5b61019a610195366004611ca1565b6103aa565b60405190151581526020015b60405180910390f35b6101d26101bd366004611ce3565b600090815260c9602052604090206001015490565b6040519081526020016101a6565b6101e86103ca565b6040516101a6929190611de0565b610209610204366004611e3e565b6104c0565b005b610209610219366004611e3e565b6104ea565b6102266105a2565b6040516101a6929190611e6e565b61020961063f565b61020961024a366004611e96565b610655565b6101d261012f5481565b60335460ff1661019a565b610226610272366004611ce3565b610833565b610226610285366004611ce3565b61085a565b610209610298366004611ec4565b610881565b6102096108d5565b6102096102b3366004611ee1565b6108e8565b6102cb6102c6366004611f1c565b61094d565b60405173ffffffffffffffffffffffffffffffffffffffff90911681526020016101a6565b61019a6102fe366004611e3e565b600091825260c96020908152604080842073ffffffffffffffffffffffffffffffffffffffff93909316845291905290205460ff1690565b6101d2600081565b61012d5473ffffffffffffffffffffffffffffffffffffffff166102cb565b6101d261036b366004611ce3565b61096c565b61020961037e366004611e3e565b610983565b6101d27fb19546dff01e856fb3f010c267a7b1c60363cf8a4664e21cc89c26224620214e81565b60006103b5826109a8565b806103c457506103c4826109fe565b92915050565b60006103e760408051808201909152600081526060602082015290565b61012f546040805180820190915261013080549091908290829060ff16801561041257610412611cfc565b801561042057610420611cfc565b815260200160018201805461043490611f3e565b80601f016020809104026020016040519081016040528092919081815260200182805461046090611f3e565b80156104ad5780601f10610482576101008083540402835291602001916104ad565b820191906000526020600020905b81548152906001019060200180831161049057829003601f168201915b5050505050815250509050915091509091565b600082815260c960205260409020600101546104db81610a95565b6104e58383610a9f565b505050565b73ffffffffffffffffffffffffffffffffffffffff81163314610594576040517f08c379a000000000000000000000000000000000000000000000000000000000815260206004820152602f60248201527f416363657373436f6e74726f6c3a2063616e206f6e6c792072656e6f756e636560448201527f20726f6c657320666f722073656c66000000000000000000000000000000000060648201526084015b60405180910390fd5b61059e8282610ac1565b5050565b6101308054610131805460ff90921692916105bc90611f3e565b80601f01602080910402602001604051908101604052809291908181526020018280546105e890611f3e565b80156106355780601f1061060a57610100808354040283529160200191610635565b820191906000526020600020905b81548152906001019060200180831161061857829003601f168201915b5050505050905082565b600061064a81610a95565b610652610ae3565b50565b600054610100900460ff16158080156106755750600054600160ff909116105b8061068f5750303b15801561068f575060005460ff166001145b61071b576040517f08c379a000000000000000000000000000000000000000000000000000000000815260206004820152602e60248201527f496e697469616c697a61626c653a20636f6e747261637420697320616c72656160448201527f647920696e697469616c697a6564000000000000000000000000000000000000606482015260840161058b565b600080547fffffffffffffffffffffffffffffffffffffffffffffffffffffffffffffff00166001179055801561077957600080547fffffffffffffffffffffffffffffffffffffffffffffffffffffffffffff00ff166101001790555b61078233610b60565b61078b83610c8c565b61012e80547fffffffffffffffffffffffff00000000000000000000000000000000000000001673ffffffffffffffffffffffffffffffffffffffff841617905580156104e557600080547fffffffffffffffffffffffffffffffffffffffffffffffffffffffffffff00ff169055604051600181527f7f26b83ff96e1f2b6a682f133852f6798a09c465da95921460cefb38474024989060200160405180910390a1505050565b610132602052600090815260409020805460018201805460ff90921692916105bc90611f3e565b610133602052600090815260409020805460018201805460ff90921692916105bc90611f3e565b600061088c81610a95565b5061012e80547fffffffffffffffffffffffff00000000000000000000000000000000000000001673ffffffffffffffffffffffffffffffffffffffff92909216919091179055565b60006108e081610a95565b610652610dbb565b61012d5473ffffffffffffffffffffffffffffffffffffffff16331461093c576040517fd7f7333400000000000000000000000000000000000000000000000000000000815233600482015260240161058b565b610652610948826121c1565b610e16565b600082815260fb60205260408120610965908361113f565b9392505050565b600081815260fb602052604081206103c49061114b565b600082815260c9602052604090206001015461099e81610a95565b6104e58383610ac1565b60007fffffffff0000000000000000000000000000000000000000000000000000000082167f5a05180f0000000000000000000000000000000000000000000000000000000014806103c457506103c482611155565b60007fffffffff0000000000000000000000000000000000000000000000000000000082167f85572ffb0000000000000000000000000000000000000000000000000000000014806103c457507f01ffc9a7000000000000000000000000000000000000000000000000000000007fffffffff000000000000000000000000000000000000000000000000000000008316146103c4565b61065281336111ec565b610aa982826112a6565b600082815260fb602052604090206104e5908261139a565b610acb82826113bc565b600082815260fb602052604090206104e59082611477565b610aeb611499565b603380547fffffffffffffffffffffffffffffffffffffffffffffffffffffffffffffff001690557f5db9ee0a495bf2e6ff9c91a7834c1ba4fdd244a5e8aa4e537bd38aeae4b073aa335b60405173ffffffffffffffffffffffffffffffffffffffff909116815260200160405180910390a1565b600054610100900460ff16610bf7576040517f08c379a000000000000000000000000000000000000000000000000000000000815260206004820152602b60248201527f496e697469616c697a61626c653a20636f6e7472616374206973206e6f74206960448201527f6e697469616c697a696e67000000000000000000000000000000000000000000606482015260840161058b565b610bff611507565b610c076115c8565b610c0f611666565b73ffffffffffffffffffffffffffffffffffffffff8116610c2d5750335b610c386000826116fd565b610c627fb19546dff01e856fb3f010c267a7b1c60363cf8a4664e21cc89c26224620214e826116fd565b6106527fb19546dff01e856fb3f010c267a7b1c60363cf8a4664e21cc89c26224620214e80611707565b600054610100900460ff16610d23576040517f08c379a000000000000000000000000000000000000000000000000000000000815260206004820152602b60248201527f496e697469616c697a61626c653a20636f6e7472616374206973206e6f74206960448201527f6e697469616c697a696e67000000000000000000000000000000000000000000606482015260840161058b565b73ffffffffffffffffffffffffffffffffffffffff8116610d73576040517fd7f733340000000000000000000000000000000000000000000000000000000081526000600482015260240161058b565b61012d80547fffffffffffffffffffffffff00000000000000000000000000000000000000001673ffffffffffffffffffffffffffffffffffffffff92909216919091179055565b610dc3611752565b603380547fffffffffffffffffffffffffffffffffffffffffffffffffffffffffffffff001660011790557f62e78cea01bee320cd4e420270b5ea74000d11b0c9f74754ebdbfc544b05a258610b363390565b805161012f5560608101518051610e359160209181018201910161226e565b8051610130805490919082907fffffffffffffffffffffffffffffffffffffffffffffffffffffffffffffff00166001838015610e7457610e74611cfc565b02179055506020828101518051610e919260018501920190611b8d565b505061012f546000908152610132602052604090206101308054825491935060ff169082907fffffffffffffffffffffffffffffffffffffffffffffffffffffffffffffff00166001838015610ee957610ee9611cfc565b02179055506001820181600101908054610f0290611f3e565b610f0d929190611c11565b50905050806020015167ffffffffffffffff1681600001517f4add8c8902d6fd412fed639bf652d936405bbb837c732a202153c91e89ebfaa78360400151806020019051810190610f5e9190612330565b8460600151604051610f7192919061234d565b60405180910390a361012e546101305460405160009273ffffffffffffffffffffffffffffffffffffffff1691610fb49160ff909116906101319060240161237c565b604080517fffffffffffffffffffffffffffffffffffffffffffffffffffffffffffffffe08184030181529181526020820180517bffffffffffffffffffffffffffffffffffffffffffffffffffffffff167f379724160000000000000000000000000000000000000000000000000000000017905251611035919061246a565b6000604051808303816000865af19150503d8060008114611072576040519150601f19603f3d011682016040523d82523d6000602084013e611077565b606091505b505090508061059e5761012f546000908152610133602052604090206101308054825491929160ff9091169082907fffffffffffffffffffffffffffffffffffffffffffffffffffffffffffffff001660018380156110d8576110d8611cfc565b021790555060018201816001019080546110f190611f3e565b6110fc929190611c11565b5050610130546040517f40ec7aef00000000000000000000000000000000000000000000000000000000815261058b925060ff909116906101319060040161237c565b600061096583836117bf565b60006103c4825490565b60007fffffffff0000000000000000000000000000000000000000000000000000000082167f7965db0b0000000000000000000000000000000000000000000000000000000014806103c457507f01ffc9a7000000000000000000000000000000000000000000000000000000007fffffffff000000000000000000000000000000000000000000000000000000008316146103c4565b600082815260c96020908152604080832073ffffffffffffffffffffffffffffffffffffffff8516845290915290205460ff1661059e5761122c816117e9565b611237836020611808565b604051602001611248929190612486565b604080517fffffffffffffffffffffffffffffffffffffffffffffffffffffffffffffffe0818403018152908290527f08c379a000000000000000000000000000000000000000000000000000000000825261058b91600401612507565b600082815260c96020908152604080832073ffffffffffffffffffffffffffffffffffffffff8516845290915290205460ff1661059e57600082815260c96020908152604080832073ffffffffffffffffffffffffffffffffffffffff85168452909152902080547fffffffffffffffffffffffffffffffffffffffffffffffffffffffffffffff0016600117905561133c3390565b73ffffffffffffffffffffffffffffffffffffffff168173ffffffffffffffffffffffffffffffffffffffff16837f2f8788117e7eff1d82e926ec794901d17c78024a50270940304540a733656f0d60405160405180910390a45050565b60006109658373ffffffffffffffffffffffffffffffffffffffff8416611a4b565b600082815260c96020908152604080832073ffffffffffffffffffffffffffffffffffffffff8516845290915290205460ff161561059e57600082815260c96020908152604080832073ffffffffffffffffffffffffffffffffffffffff8516808552925280832080547fffffffffffffffffffffffffffffffffffffffffffffffffffffffffffffff0016905551339285917ff6391f5c32d9c69d2a47ea670b442974b53935d1edc7fd64eb21e047a839171b9190a45050565b60006109658373ffffffffffffffffffffffffffffffffffffffff8416611a9a565b60335460ff16611505576040517f08c379a000000000000000000000000000000000000000000000000000000000815260206004820152601460248201527f5061757361626c653a206e6f7420706175736564000000000000000000000000604482015260640161058b565b565b600054610100900460ff1661159e576040517f08c379a000000000000000000000000000000000000000000000000000000000815260206004820152602b60248201527f496e697469616c697a61626c653a20636f6e7472616374206973206e6f74206960448201527f6e697469616c697a696e67000000000000000000000000000000000000000000606482015260840161058b565b603380547fffffffffffffffffffffffffffffffffffffffffffffffffffffffffffffff00169055565b600054610100900460ff1661165f576040517f08c379a000000000000000000000000000000000000000000000000000000000815260206004820152602b60248201527f496e697469616c697a61626c653a20636f6e7472616374206973206e6f74206960448201527f6e697469616c697a696e67000000000000000000000000000000000000000000606482015260840161058b565b6001606555565b600054610100900460ff16611505576040517f08c379a000000000000000000000000000000000000000000000000000000000815260206004820152602b60248201527f496e697469616c697a61626c653a20636f6e7472616374206973206e6f74206960448201527f6e697469616c697a696e67000000000000000000000000000000000000000000606482015260840161058b565b61059e8282610a9f565b600082815260c96020526040808220600101805490849055905190918391839186917fbd79b86ffe0ab8e8776151514217cd7cacd52c909f66475c3af44e129f0b00ff9190a4505050565b60335460ff1615611505576040517f08c379a000000000000000000000000000000000000000000000000000000000815260206004820152601060248201527f5061757361626c653a2070617573656400000000000000000000000000000000604482015260640161058b565b60008260000182815481106117d6576117d661251a565b9060005260206000200154905092915050565b60606103c473ffffffffffffffffffffffffffffffffffffffff831660145b60606000611817836002612578565b6118229060026125b5565b67ffffffffffffffff81111561183a5761183a611f91565b6040519080825280601f01601f191660200182016040528015611864576020820181803683370190505b5090507f30000000000000000000000000000000000000000000000000000000000000008160008151811061189b5761189b61251a565b60200101907effffffffffffffffffffffffffffffffffffffffffffffffffffffffffffff1916908160001a9053507f7800000000000000000000000000000000000000000000000000000000000000816001815181106118fe576118fe61251a565b60200101907effffffffffffffffffffffffffffffffffffffffffffffffffffffffffffff1916908160001a905350600061193a846002612578565b6119459060016125b5565b90505b60018111156119e2577f303132333435363738396162636465660000000000000000000000000000000085600f16601081106119865761198661251a565b1a60f81b82828151811061199c5761199c61251a565b60200101907effffffffffffffffffffffffffffffffffffffffffffffffffffffffffffff1916908160001a90535060049490941c936119db816125cd565b9050611948565b508315610965576040517f08c379a000000000000000000000000000000000000000000000000000000000815260206004820181905260248201527f537472696e67733a20686578206c656e67746820696e73756666696369656e74604482015260640161058b565b6000818152600183016020526040812054611a92575081546001818101845560008481526020808220909301849055845484825282860190935260409020919091556103c4565b5060006103c4565b60008181526001830160205260408120548015611b83576000611abe600183612602565b8554909150600090611ad290600190612602565b9050818114611b37576000866000018281548110611af257611af261251a565b9060005260206000200154905080876000018481548110611b1557611b1561251a565b6000918252602080832090910192909255918252600188019052604090208390555b8554869080611b4857611b48612619565b6001900381819060005260206000200160009055905585600101600086815260200190815260200160002060009055600193505050506103c4565b60009150506103c4565b828054611b9990611f3e565b90600052602060002090601f016020900481019282611bbb5760008555611c01565b82601f10611bd457805160ff1916838001178555611c01565b82800160010185558215611c01579182015b82811115611c01578251825591602001919060010190611be6565b50611c0d929150611c8c565b5090565b828054611c1d90611f3e565b90600052602060002090601f016020900481019282611c3f5760008555611c01565b82601f10611c505780548555611c01565b82800160010185558215611c0157600052602060002091601f016020900482015b82811115611c01578254825591600101919060010190611c71565b5b80821115611c0d5760008155600101611c8d565b600060208284031215611cb357600080fd5b81357fffffffff000000000000000000000000000000000000000000000000000000008116811461096557600080fd5b600060208284031215611cf557600080fd5b5035919050565b7f4e487b7100000000000000000000000000000000000000000000000000000000600052602160045260246000fd5b60018110611d62577f4e487b7100000000000000000000000000000000000000000000000000000000600052602160045260246000fd5b9052565b60005b83811015611d81578181015183820152602001611d69565b83811115611d90576000848401525b50505050565b60008151808452611dae816020860160208601611d66565b601f017fffffffffffffffffffffffffffffffffffffffffffffffffffffffffffffffe0169290920160200192915050565b82815260406020820152611df8604082018351611d2b565b6000602083015160406060840152611e136080840182611d96565b95945050505050565b73ffffffffffffffffffffffffffffffffffffffff8116811461065257600080fd5b60008060408385031215611e5157600080fd5b823591506020830135611e6381611e1c565b809150509250929050565b611e788184611d2b565b604060208201526000611e8e6040830184611d96565b949350505050565b60008060408385031215611ea957600080fd5b8235611eb481611e1c565b91506020830135611e6381611e1c565b600060208284031215611ed657600080fd5b813561096581611e1c565b600060208284031215611ef357600080fd5b813567ffffffffffffffff811115611f0a57600080fd5b820160a0818503121561096557600080fd5b60008060408385031215611f2f57600080fd5b50508035926020909101359150565b600181811c90821680611f5257607f821691505b602082108103611f8b577f4e487b7100000000000000000000000000000000000000000000000000000000600052602260045260246000fd5b50919050565b7f4e487b7100000000000000000000000000000000000000000000000000000000600052604160045260246000fd5b6040805190810167ffffffffffffffff81118282101715611fe357611fe3611f91565b60405290565b60405160a0810167ffffffffffffffff81118282101715611fe357611fe3611f91565b604051601f82017fffffffffffffffffffffffffffffffffffffffffffffffffffffffffffffffe016810167ffffffffffffffff8111828210171561205357612053611f91565b604052919050565b803567ffffffffffffffff8116811461207357600080fd5b919050565b600067ffffffffffffffff82111561209257612092611f91565b50601f017fffffffffffffffffffffffffffffffffffffffffffffffffffffffffffffffe01660200190565b600082601f8301126120cf57600080fd5b81356120e26120dd82612078565b61200c565b8181528460208386010111156120f757600080fd5b816020850160208301376000918101602001919091529392505050565b600082601f83011261212557600080fd5b8135602067ffffffffffffffff82111561214157612141611f91565b61214f818360051b0161200c565b82815260069290921b8401810191818101908684111561216e57600080fd5b8286015b848110156121b6576040818903121561218b5760008081fd5b612193611fc0565b813561219e81611e1c565b81528185013585820152835291830191604001612172565b509695505050505050565b600060a082360312156121d357600080fd5b6121db611fe9565b823581526121eb6020840161205b565b6020820152604083013567ffffffffffffffff8082111561220b57600080fd5b612217368387016120be565b6040840152606085013591508082111561223057600080fd5b61223c368387016120be565b6060840152608085013591508082111561225557600080fd5b5061226236828601612114565b60808301525092915050565b6000602080838503121561228157600080fd5b825167ffffffffffffffff8082111561229957600080fd5b90840190604082870312156122ad57600080fd5b6122b5611fc0565b8251600181106122c457600080fd5b815282840151828111156122d757600080fd5b80840193505086601f8401126122ec57600080fd5b825191506122fc6120dd83612078565b828152878584860101111561231057600080fd5b61231f83868301878701611d66565b938101939093525090949350505050565b60006020828403121561234257600080fd5b815161096581611e1c565b73ffffffffffffffffffffffffffffffffffffffff83168152604060208201526000611e8e6040830184611d96565b6123868184611d2b565b600060206040818401526000845481600182811c9150808316806123ab57607f831692505b85831081036123e1577f4e487b710000000000000000000000000000000000000000000000000000000085526022600452602485fd5b6040880183905260608801818015612400576001811461242f5761245a565b7fffffffffffffffffffffffffffffffffffffffffffffffffffffffffffffff0086168252878201965061245a565b60008b81526020902060005b868110156124545781548482015290850190890161243b565b83019750505b50949a9950505050505050505050565b6000825161247c818460208701611d66565b9190910192915050565b7f416363657373436f6e74726f6c3a206163636f756e74200000000000000000008152600083516124be816017850160208801611d66565b7f206973206d697373696e6720726f6c652000000000000000000000000000000060179184019182015283516124fb816028840160208801611d66565b01602801949350505050565b6020815260006109656020830184611d96565b7f4e487b7100000000000000000000000000000000000000000000000000000000600052603260045260246000fd5b7f4e487b7100000000000000000000000000000000000000000000000000000000600052601160045260246000fd5b6000817fffffffffffffffffffffffffffffffffffffffffffffffffffffffffffffffff04831182151516156125b0576125b0612549565b500290565b600082198211156125c8576125c8612549565b500190565b6000816125dc576125dc612549565b507fffffffffffffffffffffffffffffffffffffffffffffffffffffffffffffffff0190565b60008282101561261457612614612549565b500390565b7f4e487b7100000000000000000000000000000000000000000000000000000000600052603160045260246000fdfea2646970667358221220156a5e52cfc844d0faf496ee0951bee5e1468d2b5fd03b77b53a9d15237d28e864736f6c634300080d0033",
  "devdoc": {
    "kind": "dev",
    "methods": {
      "ccipReceive((bytes32,uint64,bytes,bytes,(address,uint256)[]))": {
        "details": "Note ensure you check the msg.sender is the OffRampRouter",
        "params": {
          "message": "CCIP Message"
        }
      },
      "getRoleAdmin(bytes32)": {
        "details": "Returns the admin role that controls `role`. See {grantRole} and {revokeRole}. To change a role's admin, use {_setRoleAdmin}."
      },
      "getRoleMember(bytes32,uint256)": {
        "details": "Returns one of the accounts that have `role`. `index` must be a value between 0 and {getRoleMemberCount}, non-inclusive. Role bearers are not sorted in any particular way, and their ordering may change at any point. WARNING: When using {getRoleMember} and {getRoleMemberCount}, make sure you perform all queries on the same block. See the following https://forum.openzeppelin.com/t/iterating-over-elements-on-enumerableset-in-openzeppelin-contracts/2296[forum post] for more information."
      },
      "getRoleMemberCount(bytes32)": {
        "details": "Returns the number of accounts that have `role`. Can be used together with {getRoleMember} to enumerate all bearers of a role."
      },
      "getRouter()": {
        "returns": {
          "_0": "i_router address"
        }
      },
      "grantRole(bytes32,address)": {
        "details": "Grants `role` to `account`. If `account` had not been already granted `role`, emits a {RoleGranted} event. Requirements: - the caller must have ``role``'s admin role. May emit a {RoleGranted} event."
      },
      "hasRole(bytes32,address)": {
        "details": "Returns `true` if `account` has been granted `role`."
      },
      "paused()": {
        "details": "Returns true if the contract is paused, and false otherwise."
      },
      "renounceRole(bytes32,address)": {
        "details": "Revokes `role` from the calling account. Roles are often managed via {grantRole} and {revokeRole}: this function's purpose is to provide a mechanism for accounts to lose their privileges if they are compromised (such as when a trusted device is misplaced). If the calling account had been revoked `role`, emits a {RoleRevoked} event. Requirements: - the caller must be `account`. May emit a {RoleRevoked} event."
      },
      "revokeRole(bytes32,address)": {
        "details": "Revokes `role` from `account`. If `account` had been granted `role`, emits a {RoleRevoked} event. Requirements: - the caller must have ``role``'s admin role. May emit a {RoleRevoked} event."
      }
    },
    "version": 1
  },
  "userdoc": {
    "kind": "user",
    "methods": {
      "ccipReceive((bytes32,uint64,bytes,bytes,(address,uint256)[]))": {
        "notice": "Called by the Router to deliver a message. If this reverts, any token transfers also revert. The message will move to a FAILED state and become available for manual execution."
      },
      "getRouter()": {
        "notice": "Return the current router"
      }
    },
    "version": 1
  },
  "storageLayout": {
    "storage": [
      {
        "astId": 1148,
        "contract": "contracts/protocol/ccip/UntangledReceiver.sol:UntangledReceiver",
        "label": "_initialized",
        "offset": 0,
        "slot": "0",
        "type": "t_uint8"
      },
      {
        "astId": 1151,
        "contract": "contracts/protocol/ccip/UntangledReceiver.sol:UntangledReceiver",
        "label": "_initializing",
        "offset": 1,
        "slot": "0",
        "type": "t_bool"
      },
      {
        "astId": 1892,
        "contract": "contracts/protocol/ccip/UntangledReceiver.sol:UntangledReceiver",
        "label": "__gap",
        "offset": 0,
        "slot": "1",
        "type": "t_array(t_uint256)50_storage"
      },
      {
        "astId": 1331,
        "contract": "contracts/protocol/ccip/UntangledReceiver.sol:UntangledReceiver",
        "label": "_paused",
        "offset": 0,
        "slot": "51",
        "type": "t_bool"
      },
      {
        "astId": 1436,
        "contract": "contracts/protocol/ccip/UntangledReceiver.sol:UntangledReceiver",
        "label": "__gap",
        "offset": 0,
        "slot": "52",
        "type": "t_array(t_uint256)49_storage"
      },
      {
        "astId": 1451,
        "contract": "contracts/protocol/ccip/UntangledReceiver.sol:UntangledReceiver",
        "label": "_status",
        "offset": 0,
        "slot": "101",
        "type": "t_uint256"
      },
      {
        "astId": 1520,
        "contract": "contracts/protocol/ccip/UntangledReceiver.sol:UntangledReceiver",
        "label": "__gap",
        "offset": 0,
        "slot": "102",
        "type": "t_array(t_uint256)49_storage"
      },
      {
        "astId": 2165,
        "contract": "contracts/protocol/ccip/UntangledReceiver.sol:UntangledReceiver",
        "label": "__gap",
        "offset": 0,
        "slot": "151",
        "type": "t_array(t_uint256)50_storage"
      },
      {
        "astId": 615,
        "contract": "contracts/protocol/ccip/UntangledReceiver.sol:UntangledReceiver",
        "label": "_roles",
        "offset": 0,
        "slot": "201",
        "type": "t_mapping(t_bytes32,t_struct(RoleData)610_storage)"
      },
      {
        "astId": 910,
        "contract": "contracts/protocol/ccip/UntangledReceiver.sol:UntangledReceiver",
        "label": "__gap",
        "offset": 0,
        "slot": "202",
        "type": "t_array(t_uint256)49_storage"
      },
      {
        "astId": 464,
        "contract": "contracts/protocol/ccip/UntangledReceiver.sol:UntangledReceiver",
        "label": "_roleMembers",
        "offset": 0,
        "slot": "251",
        "type": "t_mapping(t_bytes32,t_struct(AddressSet)3475_storage)"
      },
      {
        "astId": 574,
        "contract": "contracts/protocol/ccip/UntangledReceiver.sol:UntangledReceiver",
        "label": "__gap",
        "offset": 0,
        "slot": "252",
        "type": "t_array(t_uint256)49_storage"
      },
      {
        "astId": 4366,
        "contract": "contracts/protocol/ccip/UntangledReceiver.sol:UntangledReceiver",
        "label": "i_router",
        "offset": 0,
        "slot": "301",
        "type": "t_address"
      },
      {
        "astId": 4690,
        "contract": "contracts/protocol/ccip/UntangledReceiver.sol:UntangledReceiver",
        "label": "untangledBridgeRouter",
        "offset": 0,
        "slot": "302",
        "type": "t_address"
      },
      {
        "astId": 4692,
        "contract": "contracts/protocol/ccip/UntangledReceiver.sol:UntangledReceiver",
        "label": "lastReceivedMessageId",
        "offset": 0,
        "slot": "303",
        "type": "t_bytes32"
      },
      {
        "astId": 4695,
        "contract": "contracts/protocol/ccip/UntangledReceiver.sol:UntangledReceiver",
        "label": "lastReceivedData",
        "offset": 0,
        "slot": "304",
        "type": "t_struct(ICommandData)3912_storage"
      },
      {
        "astId": 4700,
        "contract": "contracts/protocol/ccip/UntangledReceiver.sol:UntangledReceiver",
        "label": "messageDataGroup",
        "offset": 0,
        "slot": "306",
        "type": "t_mapping(t_bytes32,t_struct(ICommandData)3912_storage)"
      },
      {
        "astId": 4705,
        "contract": "contracts/protocol/ccip/UntangledReceiver.sol:UntangledReceiver",
        "label": "failedMessageDataGroup",
        "offset": 0,
        "slot": "307",
        "type": "t_mapping(t_bytes32,t_struct(ICommandData)3912_storage)"
      },
      {
        "astId": 4710,
        "contract": "contracts/protocol/ccip/UntangledReceiver.sol:UntangledReceiver",
        "label": "__gap",
        "offset": 0,
        "slot": "308",
        "type": "t_array(t_uint256)50_storage"
      }
    ],
    "types": {
      "t_address": {
        "encoding": "inplace",
        "label": "address",
        "numberOfBytes": "20"
      },
      "t_array(t_bytes32)dyn_storage": {
        "base": "t_bytes32",
        "encoding": "dynamic_array",
        "label": "bytes32[]",
        "numberOfBytes": "32"
      },
      "t_array(t_uint256)49_storage": {
        "base": "t_uint256",
        "encoding": "inplace",
        "label": "uint256[49]",
        "numberOfBytes": "1568"
      },
      "t_array(t_uint256)50_storage": {
        "base": "t_uint256",
        "encoding": "inplace",
        "label": "uint256[50]",
        "numberOfBytes": "1600"
      },
      "t_bool": {
        "encoding": "inplace",
        "label": "bool",
        "numberOfBytes": "1"
      },
      "t_bytes32": {
        "encoding": "inplace",
        "label": "bytes32",
        "numberOfBytes": "32"
      },
      "t_bytes_storage": {
        "encoding": "bytes",
        "label": "bytes",
        "numberOfBytes": "32"
      },
      "t_enum(MessageType)3906": {
        "encoding": "inplace",
        "label": "enum MessageType",
        "numberOfBytes": "1"
      },
      "t_mapping(t_address,t_bool)": {
        "encoding": "mapping",
        "key": "t_address",
        "label": "mapping(address => bool)",
        "numberOfBytes": "32",
        "value": "t_bool"
      },
      "t_mapping(t_bytes32,t_struct(AddressSet)3475_storage)": {
        "encoding": "mapping",
        "key": "t_bytes32",
        "label": "mapping(bytes32 => struct EnumerableSetUpgradeable.AddressSet)",
        "numberOfBytes": "32",
        "value": "t_struct(AddressSet)3475_storage"
      },
      "t_mapping(t_bytes32,t_struct(ICommandData)3912_storage)": {
        "encoding": "mapping",
        "key": "t_bytes32",
        "label": "mapping(bytes32 => struct ICommandData)",
        "numberOfBytes": "32",
        "value": "t_struct(ICommandData)3912_storage"
      },
      "t_mapping(t_bytes32,t_struct(RoleData)610_storage)": {
        "encoding": "mapping",
        "key": "t_bytes32",
        "label": "mapping(bytes32 => struct AccessControlUpgradeable.RoleData)",
        "numberOfBytes": "32",
        "value": "t_struct(RoleData)610_storage"
      },
      "t_mapping(t_bytes32,t_uint256)": {
        "encoding": "mapping",
        "key": "t_bytes32",
        "label": "mapping(bytes32 => uint256)",
        "numberOfBytes": "32",
        "value": "t_uint256"
      },
      "t_struct(AddressSet)3475_storage": {
        "encoding": "inplace",
        "label": "struct EnumerableSetUpgradeable.AddressSet",
        "members": [
          {
            "astId": 3474,
            "contract": "contracts/protocol/ccip/UntangledReceiver.sol:UntangledReceiver",
            "label": "_inner",
            "offset": 0,
            "slot": "0",
            "type": "t_struct(Set)3160_storage"
          }
        ],
        "numberOfBytes": "64"
      },
      "t_struct(ICommandData)3912_storage": {
        "encoding": "inplace",
        "label": "struct ICommandData",
        "members": [
          {
            "astId": 3909,
            "contract": "contracts/protocol/ccip/UntangledReceiver.sol:UntangledReceiver",
            "label": "messageType",
            "offset": 0,
            "slot": "0",
            "type": "t_enum(MessageType)3906"
          },
          {
            "astId": 3911,
            "contract": "contracts/protocol/ccip/UntangledReceiver.sol:UntangledReceiver",
            "label": "data",
            "offset": 0,
            "slot": "1",
            "type": "t_bytes_storage"
          }
        ],
        "numberOfBytes": "64"
      },
      "t_struct(RoleData)610_storage": {
        "encoding": "inplace",
        "label": "struct AccessControlUpgradeable.RoleData",
        "members": [
          {
            "astId": 607,
            "contract": "contracts/protocol/ccip/UntangledReceiver.sol:UntangledReceiver",
            "label": "members",
            "offset": 0,
            "slot": "0",
            "type": "t_mapping(t_address,t_bool)"
          },
          {
            "astId": 609,
            "contract": "contracts/protocol/ccip/UntangledReceiver.sol:UntangledReceiver",
            "label": "adminRole",
            "offset": 0,
            "slot": "1",
            "type": "t_bytes32"
          }
        ],
        "numberOfBytes": "64"
      },
      "t_struct(Set)3160_storage": {
        "encoding": "inplace",
        "label": "struct EnumerableSetUpgradeable.Set",
        "members": [
          {
            "astId": 3155,
            "contract": "contracts/protocol/ccip/UntangledReceiver.sol:UntangledReceiver",
            "label": "_values",
            "offset": 0,
            "slot": "0",
            "type": "t_array(t_bytes32)dyn_storage"
          },
          {
            "astId": 3159,
            "contract": "contracts/protocol/ccip/UntangledReceiver.sol:UntangledReceiver",
            "label": "_indexes",
            "offset": 0,
            "slot": "1",
            "type": "t_mapping(t_bytes32,t_uint256)"
          }
        ],
        "numberOfBytes": "64"
      },
      "t_uint256": {
        "encoding": "inplace",
        "label": "uint256",
        "numberOfBytes": "32"
      },
      "t_uint8": {
        "encoding": "inplace",
        "label": "uint8",
        "numberOfBytes": "1"
      }
    }
  }
}