{
  "address": "0x88062D8990E021A362bf4f7A1ea5B140e010a082",
  "abi": [
    {
      "anonymous": false,
      "inputs": [
        {
          "indexed": false,
          "internalType": "uint8",
          "name": "version",
          "type": "uint8"
        }
      ],
      "name": "Initialized",
      "type": "event"
    },
    {
      "anonymous": false,
      "inputs": [
        {
          "indexed": false,
          "internalType": "address[]",
          "name": "debtor",
          "type": "address[]"
        },
        {
          "indexed": false,
          "internalType": "uint256[]",
          "name": "loanTokenIds",
          "type": "uint256[]"
        }
      ],
      "name": "IssuedNewInputLoans",
      "type": "event"
    },
    {
      "anonymous": false,
      "inputs": [
        {
          "indexed": true,
          "internalType": "uint8",
          "name": "_errorId",
          "type": "uint8"
        },
        {
          "indexed": true,
          "internalType": "bytes32",
          "name": "_orderHash",
          "type": "bytes32"
        },
        {
          "indexed": false,
          "internalType": "string",
          "name": "desc",
          "type": "string"
        }
      ],
      "name": "LogDebtKernelError",
      "type": "event"
    },
    {
      "anonymous": false,
      "inputs": [
        {
          "indexed": false,
          "internalType": "bytes32",
          "name": "_agreementId",
          "type": "bytes32"
        },
        {
          "indexed": false,
          "internalType": "uint256",
          "name": "_principal",
          "type": "uint256"
        },
        {
          "indexed": false,
          "internalType": "address",
          "name": "_principalToken",
          "type": "address"
        },
        {
          "indexed": false,
          "internalType": "address",
          "name": "_relayer",
          "type": "address"
        }
      ],
      "name": "LogDebtOrderFilled",
      "type": "event"
    },
    {
      "anonymous": false,
      "inputs": [
        {
          "indexed": true,
          "internalType": "address",
          "name": "payer",
          "type": "address"
        },
        {
          "indexed": false,
          "internalType": "address",
          "name": "token",
          "type": "address"
        },
        {
          "indexed": false,
          "internalType": "uint256",
          "name": "amount",
          "type": "uint256"
        },
        {
          "indexed": true,
          "internalType": "address",
          "name": "beneficiary",
          "type": "address"
        }
      ],
      "name": "LogFeeTransfer",
      "type": "event"
    },
    {
      "anonymous": false,
      "inputs": [
        {
          "indexed": false,
          "internalType": "address",
          "name": "account",
          "type": "address"
        }
      ],
      "name": "Paused",
      "type": "event"
    },
    {
      "anonymous": false,
      "inputs": [
        {
          "indexed": true,
          "internalType": "bytes32",
          "name": "role",
          "type": "bytes32"
        },
        {
          "indexed": true,
          "internalType": "bytes32",
          "name": "previousAdminRole",
          "type": "bytes32"
        },
        {
          "indexed": true,
          "internalType": "bytes32",
          "name": "newAdminRole",
          "type": "bytes32"
        }
      ],
      "name": "RoleAdminChanged",
      "type": "event"
    },
    {
      "anonymous": false,
      "inputs": [
        {
          "indexed": true,
          "internalType": "bytes32",
          "name": "role",
          "type": "bytes32"
        },
        {
          "indexed": true,
          "internalType": "address",
          "name": "account",
          "type": "address"
        },
        {
          "indexed": true,
          "internalType": "address",
          "name": "sender",
          "type": "address"
        }
      ],
      "name": "RoleGranted",
      "type": "event"
    },
    {
      "anonymous": false,
      "inputs": [
        {
          "indexed": true,
          "internalType": "bytes32",
          "name": "role",
          "type": "bytes32"
        },
        {
          "indexed": true,
          "internalType": "address",
          "name": "account",
          "type": "address"
        },
        {
          "indexed": true,
          "internalType": "address",
          "name": "sender",
          "type": "address"
        }
      ],
      "name": "RoleRevoked",
      "type": "event"
    },
    {
      "anonymous": false,
      "inputs": [
        {
          "indexed": false,
          "internalType": "address",
          "name": "account",
          "type": "address"
        }
      ],
      "name": "Unpaused",
      "type": "event"
    },
    {
      "inputs": [],
      "name": "DEFAULT_ADMIN_ROLE",
      "outputs": [
        {
          "internalType": "bytes32",
          "name": "",
          "type": "bytes32"
        }
      ],
      "stateMutability": "view",
      "type": "function"
    },
    {
      "inputs": [],
      "name": "NULL_ADDRESS",
      "outputs": [
        {
          "internalType": "address",
          "name": "",
          "type": "address"
        }
      ],
      "stateMutability": "view",
      "type": "function"
    },
    {
      "inputs": [],
      "name": "NULL_COLLATERAL_INFO_HASH",
      "outputs": [
        {
          "internalType": "bytes16",
          "name": "",
          "type": "bytes16"
        }
      ],
      "stateMutability": "view",
      "type": "function"
    },
    {
      "inputs": [],
      "name": "NULL_ISSUANCE_HASH",
      "outputs": [
        {
          "internalType": "bytes32",
          "name": "",
          "type": "bytes32"
        }
      ],
      "stateMutability": "view",
      "type": "function"
    },
    {
      "inputs": [],
      "name": "OWNER_ROLE",
      "outputs": [
        {
          "internalType": "bytes32",
          "name": "",
          "type": "bytes32"
        }
      ],
      "stateMutability": "view",
      "type": "function"
    },
    {
      "inputs": [
        {
          "internalType": "address",
          "name": "creditor",
          "type": "address"
        },
        {
          "internalType": "bytes32",
          "name": "agreementId",
          "type": "bytes32"
        },
        {
          "internalType": "address",
          "name": "termContract",
          "type": "address"
        }
      ],
      "name": "concludeLoan",
      "outputs": [],
      "stateMutability": "nonpayable",
      "type": "function"
    },
    {
      "inputs": [
        {
          "internalType": "address[]",
          "name": "creditors",
          "type": "address[]"
        },
        {
          "internalType": "bytes32[]",
          "name": "agreementIds",
          "type": "bytes32[]"
        },
        {
          "internalType": "address",
          "name": "termContract",
          "type": "address"
        }
      ],
      "name": "concludeLoans",
      "outputs": [],
      "stateMutability": "nonpayable",
      "type": "function"
    },
    {
      "inputs": [
        {
          "internalType": "bytes32",
          "name": "",
          "type": "bytes32"
        }
      ],
      "name": "debtOrderCancelled",
      "outputs": [
        {
          "internalType": "bool",
          "name": "",
          "type": "bool"
        }
      ],
      "stateMutability": "view",
      "type": "function"
    },
    {
      "inputs": [
        {
          "internalType": "bytes32",
          "name": "",
          "type": "bytes32"
        }
      ],
      "name": "debtOrderCompleted",
      "outputs": [
        {
          "internalType": "bool",
          "name": "",
          "type": "bool"
        }
      ],
      "stateMutability": "view",
      "type": "function"
    },
    {
      "inputs": [
        {
          "components": [
            {
              "internalType": "address[]",
              "name": "orderAddresses",
              "type": "address[]"
            },
            {
              "internalType": "uint256[]",
              "name": "orderValues",
              "type": "uint256[]"
            },
            {
              "internalType": "bytes32[]",
              "name": "termsContractParameters",
              "type": "bytes32[]"
            },
            {
              "components": [
                {
                  "internalType": "uint256[]",
                  "name": "tokenIds",
                  "type": "uint256[]"
                },
                {
                  "internalType": "uint256[]",
                  "name": "nonces",
                  "type": "uint256[]"
                },
                {
                  "internalType": "address",
                  "name": "validator",
                  "type": "address"
                },
                {
                  "internalType": "bytes",
                  "name": "validateSignature",
                  "type": "bytes"
                }
              ],
              "internalType": "struct LoanAssetInfo[]",
              "name": "latInfo",
              "type": "tuple[]"
            }
          ],
          "internalType": "struct ILoanKernel.FillDebtOrderParam",
          "name": "fillDebtOrderParam",
          "type": "tuple"
        }
      ],
      "name": "fillDebtOrder",
      "outputs": [],
      "stateMutability": "nonpayable",
      "type": "function"
    },
    {
      "inputs": [],
      "name": "getInitializedVersion",
      "outputs": [
        {
          "internalType": "uint256",
          "name": "",
          "type": "uint256"
        }
      ],
      "stateMutability": "view",
      "type": "function"
    },
    {
      "inputs": [
        {
          "internalType": "bytes32",
          "name": "role",
          "type": "bytes32"
        }
      ],
      "name": "getRoleAdmin",
      "outputs": [
        {
          "internalType": "bytes32",
          "name": "",
          "type": "bytes32"
        }
      ],
      "stateMutability": "view",
      "type": "function"
    },
    {
      "inputs": [
        {
          "internalType": "bytes32",
          "name": "role",
          "type": "bytes32"
        },
        {
          "internalType": "uint256",
          "name": "index",
          "type": "uint256"
        }
      ],
      "name": "getRoleMember",
      "outputs": [
        {
          "internalType": "address",
          "name": "",
          "type": "address"
        }
      ],
      "stateMutability": "view",
      "type": "function"
    },
    {
      "inputs": [
        {
          "internalType": "bytes32",
          "name": "role",
          "type": "bytes32"
        }
      ],
      "name": "getRoleMemberCount",
      "outputs": [
        {
          "internalType": "uint256",
          "name": "",
          "type": "uint256"
        }
      ],
      "stateMutability": "view",
      "type": "function"
    },
    {
      "inputs": [
        {
          "internalType": "bytes32",
          "name": "role",
          "type": "bytes32"
        },
        {
          "internalType": "address",
          "name": "account",
          "type": "address"
        }
      ],
      "name": "grantRole",
      "outputs": [],
      "stateMutability": "nonpayable",
      "type": "function"
    },
    {
      "inputs": [
        {
          "internalType": "bytes32",
          "name": "role",
          "type": "bytes32"
        },
        {
          "internalType": "address",
          "name": "account",
          "type": "address"
        }
      ],
      "name": "hasRole",
      "outputs": [
        {
          "internalType": "bool",
          "name": "",
          "type": "bool"
        }
      ],
      "stateMutability": "view",
      "type": "function"
    },
    {
      "inputs": [
        {
          "internalType": "contract Registry",
          "name": "_registry",
          "type": "address"
        }
      ],
      "name": "initialize",
      "outputs": [],
      "stateMutability": "nonpayable",
      "type": "function"
    },
    {
      "inputs": [],
      "name": "isAdmin",
      "outputs": [
        {
          "internalType": "bool",
          "name": "",
          "type": "bool"
        }
      ],
      "stateMutability": "view",
      "type": "function"
    },
    {
      "inputs": [
        {
          "internalType": "bytes32",
          "name": "",
          "type": "bytes32"
        }
      ],
      "name": "issuanceCancelled",
      "outputs": [
        {
          "internalType": "bool",
          "name": "",
          "type": "bool"
        }
      ],
      "stateMutability": "view",
      "type": "function"
    },
    {
      "inputs": [],
      "name": "pause",
      "outputs": [],
      "stateMutability": "nonpayable",
      "type": "function"
    },
    {
      "inputs": [],
      "name": "paused",
      "outputs": [
        {
          "internalType": "bool",
          "name": "",
          "type": "bool"
        }
      ],
      "stateMutability": "view",
      "type": "function"
    },
    {
      "inputs": [],
      "name": "registry",
      "outputs": [
        {
          "internalType": "contract Registry",
          "name": "",
          "type": "address"
        }
      ],
      "stateMutability": "view",
      "type": "function"
    },
    {
      "inputs": [
        {
          "internalType": "bytes32",
          "name": "role",
          "type": "bytes32"
        },
        {
          "internalType": "address",
          "name": "account",
          "type": "address"
        }
      ],
      "name": "renounceRole",
      "outputs": [],
      "stateMutability": "nonpayable",
      "type": "function"
    },
    {
      "inputs": [
        {
          "internalType": "bytes32",
          "name": "role",
          "type": "bytes32"
        },
        {
          "internalType": "address",
          "name": "account",
          "type": "address"
        }
      ],
      "name": "revokeRole",
      "outputs": [],
      "stateMutability": "nonpayable",
      "type": "function"
    },
    {
      "inputs": [
        {
          "internalType": "bytes32",
          "name": "role",
          "type": "bytes32"
        },
        {
          "internalType": "bytes32",
          "name": "adminRole",
          "type": "bytes32"
        }
      ],
      "name": "setRoleAdmin",
      "outputs": [],
      "stateMutability": "nonpayable",
      "type": "function"
    },
    {
      "inputs": [
        {
          "internalType": "bytes4",
          "name": "interfaceId",
          "type": "bytes4"
        }
      ],
      "name": "supportsInterface",
      "outputs": [
        {
          "internalType": "bool",
          "name": "",
          "type": "bool"
        }
      ],
      "stateMutability": "view",
      "type": "function"
    },
    {
      "inputs": [],
      "name": "unpause",
      "outputs": [],
      "stateMutability": "nonpayable",
      "type": "function"
    }
  ],
  "transactionHash": "0xfbe22f887c3a9bb1645d1ae09c9aad7eae718547d5ec53168977197eb0de87dc",
  "args": [],
  "numDeployments": 4,
  "solcInputHash": "b519a04e3a0ace057335735d3852b949",
  "bytecode": "0x608060405234801561001057600080fd5b50613209806100206000396000f3fe608060405234801561001057600080fd5b50600436106101a95760003560e01c80638456cb59116100f9578063b6db75a011610097578063d547741f11610071578063d547741f146103b8578063de0ce17d146103cb578063e283040d1461037a578063e58378bb146103d357600080fd5b8063b6db75a01461038a578063c4d66de814610392578063ca15c873146103a557600080fd5b806391551265116100d3578063915512651461035457806391d1485414610367578063a217fddf1461037a578063b3c650151461038257600080fd5b80638456cb59146103165780638591b2ad1461031e5780639010d07c1461034157600080fd5b806336568abe116101665780635428368f116101405780635428368f1461029a5780635c975abb146102bd57806376456ff3146102c85780637b103999146102eb57600080fd5b806336568abe146102555780633f4ba83a1461026857806344b29a141461027057600080fd5b806301ffc9a7146101ae5780630e195ba2146101d65780631e4e0091146101eb578063248a9ca3146101fe5780632f2ff15d1461022f57806333692d6c14610242575b600080fd5b6101c16101bc366004612b4b565b6103e8565b60405190151581526020015b60405180910390f35b6101e96101e4366004612bd5565b610413565b005b6101e96101f9366004612c58565b610493565b61022161020c366004612c7a565b600090815260cd602052604090206001015490565b6040519081526020016101cd565b6101e961023d366004612c93565b6104ad565b6101e9610250366004612cc3565b6104d2565b6101e9610263366004612c93565b61071e565b6101e961079c565b610278600081565b6040516fffffffffffffffffffffffffffffffff1990911681526020016101cd565b6101c16102a8366004612c7a565b60026020526000908152604090205460ff1681565b60375460ff166101c1565b6101c16102d6366004612c7a565b60036020526000908152604090205460ff1681565b6000546102fe906001600160a01b031681565b6040516001600160a01b0390911681526020016101cd565b6101e96107b2565b6101c161032c366004612c7a565b60016020526000908152604090205460ff1681565b6102fe61034f366004612c58565b6107c5565b6101e9610362366004612d05565b6107e4565b6101c1610375366004612c93565b6113a1565b610221600081565b6102216113cc565b6101c16113e2565b6101e96103a0366004612d3f565b611401565b6102216103b3366004612c7a565b61152e565b6101e96103c6366004612c93565b611545565b6102fe600081565b6102216000805160206131b483398151915281565b60006001600160e01b03198216635a05180f60e01b148061040d575061040d8261156a565b92915050565b61041b61159f565b6104236115e7565b8360005b818110156104805761047887878381811061044457610444612d5c565b90506020020160208101906104599190612d3f565b86868481811061046b5761046b612d5c565b90506020020135856104d2565b600101610427565b505061048c6001606955565b5050505050565b600061049e81611640565b6104a8838361164a565b505050565b600082815260cd60205260409020600101546104c881611640565b6104a88383611695565b6104da61159f565b6001600160a01b0383166105355760405162461bcd60e51b815260206004820152601960248201527f496e76616c6964206372656469746f72206163636f756e742e0000000000000060448201526064015b60405180910390fd5b8161057a5760405162461bcd60e51b815260206004820152601560248201527424b73b30b634b21030b3b932b2b6b2b73a1034b21760591b604482015260640161052c565b6001600160a01b0381166105d05760405162461bcd60e51b815260206004820152601760248201527f496e76616c6964207465726d7320636f6e74726163742e000000000000000000604482015260640161052c565b6105d9826116b7565b15806105eb57506105e98261174b565b155b1561065e5760405162461bcd60e51b815260206004820152603c60248201527f4465627420646f6573206e6f7420657873697473206f7220446562746f72206860448201527f617665206e6f7420636f6d706c657465642072657061796d656e742e00000000606482015260840161052c565b6040516319aa520b60e21b8152600481018390526001600160a01b038216906366a9482c906024016020604051808303816000875af11580156106a5573d6000803e3d6000fd5b505050506040513d601f19601f820116820180604052508101906106c99190612d72565b6107155760405162461bcd60e51b815260206004820152601e60248201527f43616e6e6f7420726567697374657220636f6e636c756465206c6f616e2e0000604482015260640161052c565b6104a8826117cf565b6001600160a01b038116331461078e5760405162461bcd60e51b815260206004820152602f60248201527f416363657373436f6e74726f6c3a2063616e206f6e6c792072656e6f756e636560448201526e103937b632b9903337b91039b2b63360891b606482015260840161052c565b610798828261183c565b5050565b60006107a781611640565b6107af61185e565b50565b60006107bd81611640565b6107af6118b0565b600082815260ff602052604081206107dd90836118ed565b9392505050565b6107ec61159f565b6107f46115e7565b6107fe8180612d94565b808060200260200160405190810160405280939291908181526020018383602002808284376000920182905250845190935084925083915061084257610842612d5c565b60200260200101516001600160a01b0316036108ac5760405162461bcd60e51b8152602060048201526024808201527f53454355524954495a4154494f4e5f504f4f4c206973207a65726f206164647260448201526332b9b99760e11b606482015260840161052c565b6108ec634778bbbf60e01b82600060ff16815181106108cd576108cd612d5c565b60200260200101516001600160a01b03166118f990919063ffffffff16565b6109435760405162461bcd60e51b815260206004820152602260248201527f4c6f616e4b65726e656c3a20696e76616c696420706f6f6c20696e7465726661604482015261636560f01b606482015260840161052c565b600081600260ff168151811061095b5761095b612d5c565b60200260200101516001600160a01b0316036109c35760405162461bcd60e51b815260206004820152602160248201527f52455041594d454e545f524f55544552206973207a65726f20616464726573736044820152601760f91b606482015260840161052c565b600081600360ff16815181106109db576109db612d5c565b60200260200101516001600160a01b031603610a395760405162461bcd60e51b815260206004820152601e60248201527f5445524d5f434f4e5452414354206973207a65726f20616464726573732e0000604482015260640161052c565b600081600160ff1681518110610a5157610a51612d5c565b60200260200101516001600160a01b031603610ac05760405162461bcd60e51b815260206004820152602860248201527f5052494e434950414c5f544f4b454e5f41444452455353206973207a65726f2060448201526730b2323932b9b99760c11b606482015260840161052c565b6000610acc8380612d94565b600081610adb57610adb612d5c565b9050602002016020810190610af09190612d3f565b90506000610b016040850185612d94565b905011610b615760405162461bcd60e51b815260206004820152602860248201527f4c6f616e4b65726e656c3a20496e76616c6964205465726d20436f6e747261636044820152677420706172616d7360c01b606482015260840161052c565b6000610bb9610b736020860186612d94565b80806020026020016040519081016040528093929190818152602001838360200280828437600092019190915250610bb2925050506040870187612d94565b9050611915565b90506000610cd4610c13610bcd8780612d94565b80806020026020016040519081016040528093929190818152602001838360200280828437600092019190915250610c0c925050506040890189612d94565b90506119fd565b610c1d8780612d94565b80806020026020016040519081016040528093929190818152602001838360200280828437600092019190915250610c5c925050506020890189612d94565b80806020026020016040519081016040528093929190818152602001838360200280828437600092019190915250610c9b9250505060408a018a612d94565b80806020026020016040519081016040528093929190818152602001838360200280828437600092019190915250899250611ab3915050565b600080549192509081908190610cf2906001600160a01b0316611c21565b905060005b610d0460608a018a612d94565b90508110156112c057600054610d22906001600160a01b0316611c2e565b6001600160a01b031663f0cb1d8688610d3e60608d018d612d94565b85818110610d4e57610d4e612d5c565b9050602002810190610d609190612df3565b6040518363ffffffff1660e01b8152600401610d7d929190612eb6565b600060405180830381600087803b158015610d9757600080fd5b505af1158015610dab573d6000803e3d6000fd5b5050505060005b610dbf60608b018b612d94565b83818110610dcf57610dcf612d5c565b9050602002810190610de19190612df3565b610deb9080612d94565b90508110156112b757610e0160608b018b612d94565b83818110610e1157610e11612d5c565b9050602002810190610e239190612df3565b610e2d9080612d94565b82818110610e3d57610e3d612d5c565b9050602002013560001b8660000151608001518681518110610e6157610e61612d5c565b602002602001015114610eb65760405162461bcd60e51b815260206004820181905260248201527f4c6f616e4b65726e656c3a20496e76616c6964204c415420546f6b656e204964604482015260640161052c565b610ff1610ec660608c018c612d94565b84818110610ed657610ed6612d5c565b9050602002810190610ee89190612df3565b610ef29080612d94565b83818110610f0257610f02612d5c565b60200291909101359050610f168c80612d94565b6003818110610f2757610f27612d5c565b9050602002016020810190610f3c9190612d3f565b885160400151805189908110610f5457610f54612d5c565b60200260200101518d8060400190610f6c9190612d94565b8a818110610f7c57610f7c612d5c565b905060200201358a602001518c8b81518110610f9a57610f9a612d5c565b60200260200101518c60a001518c81518110610fb857610fb8612d5c565b6020026020010151610fec8e61010001518f60e001518f81518110610fdf57610fdf612d5c565b6020026020010151611c3b565b611cb6565b8551602001516001600160a01b031663282b340561101260608d018d612d94565b8581811061102257611022612d5c565b90506020028101906110349190612df3565b61103e9080612d94565b8481811061104e5761104e612d5c565b9050602002013560001b6040518263ffffffff1660e01b815260040161107691815260200190565b6020604051808303816000875af1158015611095573d6000803e3d6000fd5b505050506040513d601f19601f820116820180604052508101906110b99190612d72565b6111055760405162461bcd60e51b815260206004820152601a60248201527f43616e6e6f74207265676973746572207465726d207374617274000000000000604482015260640161052c565b600080546001600160a01b03808616916319c03937918c916111279116611c2e565b8e80606001906111379190612d94565b8881811061114757611147612d5c565b90506020028101906111599190612df3565b6111639080612d94565b8781811061117357611173612d5c565b6040516001600160e01b031960e088901b1681526001600160a01b03958616600482015294909316602485015250602090910201356044820152426064820152608401602060405180830381865afa1580156111d3573d6000803e3d6000fd5b505050506040513d601f19601f820116820180604052508101906111f79190612f8b565b90506112038186612fba565b94507fa34889223cd860550f5f6421b1986f05b4b168f1b3e5ac280390cb985f923328876000015160800151878151811061124057611240612d5c565b60200260200101518860400151888151811061125e5761125e612d5c565b602002602001015189602001518a608001516040516112a2949392919093845260208401929092526001600160a01b03908116604084015216606082015260800190565b60405180910390a15060019485019401610db2565b50600101610cf7565b506000869050806001600160a01b031663ed295bd46040518163ffffffff1660e01b8152600401600060405180830381600087803b15801561130157600080fd5b505af1158015611315573d6000803e3d6000fd5b50505050806001600160a01b031663f3fef3a361132f3390565b6040516001600160e01b031960e084901b1681526001600160a01b03909116600482015260248101869052604401600060405180830381600087803b15801561137757600080fd5b505af115801561138b573d6000803e3d6000fd5b5050505050505050505050506107af6001606955565b600091825260cd602090815260408084206001600160a01b0393909316845291905290205460ff1690565b60006113da60045460ff1690565b60ff16905090565b60006113fc6000805160206131b4833981519152336113a1565b905090565b600454610100900460ff16158080156114215750600454600160ff909116105b8061143b5750303b15801561143b575060045460ff166001145b61149e5760405162461bcd60e51b815260206004820152602e60248201527f496e697469616c697a61626c653a20636f6e747261637420697320616c72656160448201526d191e481a5b9a5d1a585b1a5e995960921b606482015260840161052c565b6004805460ff1916600117905580156114c1576004805461ff0019166101001790555b6114ca33611da0565b600080546001600160a01b0319166001600160a01b0384161790558015610798576004805461ff0019169055604051600181527f7f26b83ff96e1f2b6a682f133852f6798a09c465da95921460cefb38474024989060200160405180910390a15050565b600081815260ff6020526040812061040d90611e57565b600082815260cd602052604090206001015461156081611640565b6104a8838361183c565b60006001600160e01b03198216637965db0b60e01b148061040d57506301ffc9a760e01b6001600160e01b031983161461040d565b60375460ff16156115e55760405162461bcd60e51b815260206004820152601060248201526f14185d5cd8589b194e881c185d5cd95960821b604482015260640161052c565b565b6002606954036116395760405162461bcd60e51b815260206004820152601f60248201527f5265656e7472616e637947756172643a207265656e7472616e742063616c6c00604482015260640161052c565b6002606955565b6107af8133611e61565b600082815260cd6020526040808220600101805490849055905190918391839186917fbd79b86ffe0ab8e8776151514217cd7cacd52c909f66475c3af44e129f0b00ff9190a4505050565b61169f8282611eba565b600082815260ff602052604090206104a89082611f40565b6000805481906116cf906001600160a01b0316611c2e565b6040516331a9108f60e11b8152600481018590526001600160a01b039190911690636352211e90602401602060405180830381865afa158015611716573d6000803e3d6000fd5b505050506040513d601f19601f8201168201806040525081019061173a9190612fcd565b6001600160a01b0316141592915050565b60008054611761906001600160a01b0316611f55565b6001600160a01b0316635cac0ebb836040518263ffffffff1660e01b815260040161178e91815260200190565b602060405180830381865afa1580156117ab573d6000803e3d6000fd5b505050506040513d601f19601f8201168201806040525081019061040d9190612d72565b6000546117e4906001600160a01b0316611c2e565b604051630852cd8d60e31b8152600481018390526001600160a01b0391909116906342966c6890602401600060405180830381600087803b15801561182857600080fd5b505af115801561048c573d6000803e3d6000fd5b6118468282611f62565b600082815260ff602052604090206104a89082611fc9565b611866611fde565b6037805460ff191690557f5db9ee0a495bf2e6ff9c91a7834c1ba4fdd244a5e8aa4e537bd38aeae4b073aa335b6040516001600160a01b03909116815260200160405180910390a1565b6118b861159f565b6037805460ff191660011790557f62e78cea01bee320cd4e420270b5ea74000d11b0c9f74754ebdbfc544b05a2586118933390565b60006107dd8383612027565b600061190483612051565b80156107dd57506107dd8383612084565b60606000826001600160401b0381111561193157611931612fea565b60405190808252806020026020018201604052801561195a578160200160208202803683370190505b509050600061196a846002613000565b611975906002612fba565b90505b611983846003613000565b61198e906002612fba565b8110156119f5578481815181106119a7576119a7612d5c565b6020026020010151828560026119bd9190613000565b6119c8600285613017565b6119d29190613017565b815181106119e2576119e2612d5c565b6020908102919091010152600101611978565b509392505050565b60606000826001600160401b03811115611a1957611a19612fea565b604051908082528060200260200182016040528015611a42578160200160208202803683370190505b50905060055b611a53846005612fba565b8110156119f557848181518110611a6c57611a6c612d5c565b602002602001015182600583611a829190613017565b81518110611a9257611a92612d5c565b6001600160a01b039290921660209283029190910190910152600101611a48565b611abb612a9c565b600086516001600160401b03811115611ad657611ad6612fea565b604051908082528060200260200182016040528015611aff578160200160208202803683370190505b5090506000604051806101200160405280611b1c898b898961210d565b815260200188600160ff1681518110611b3757611b37612d5c565b60200260200101516001600160a01b03168152602001611b58888851612215565b815260200187600060ff1681518110611b7357611b73612d5c565b6020026020010151815260200188600480811115611b9357611b93612ddd565b60ff1681518110611ba657611ba6612d5c565b60200260200101516001600160a01b03168152602001611bc78888516122bd565b8152602001838152602001611bdd888851612388565b815260200187600160ff1681518110611bf857611bf8612d5c565b602002602001015160ff168152509050611c1181612470565b60c0820152979650505050505050565b600061040d8260116125c8565b600061040d8260086125c8565b604080516002808252606080830184529260009291906020830190803683370190505090508381600081518110611c7457611c74612d5c565b602002602001019060ff16908160ff16815250508281600181518110611c9c57611c9c612d5c565b60ff90921660209283029190910190910152905092915050565b600054611ccb906001600160a01b031661264d565b60405163ebc44fdb60e01b81526001600160a01b03919091169063ebc44fdb90611d07908b908b908b908b908b908b908b908b9060040161302a565b6020604051808303816000875af1158015611d26573d6000803e3d6000fd5b505050506040513d601f19601f82011682018060405250810190611d4a9190612d72565b611d965760405162461bcd60e51b815260206004820152601a60248201527f4c6f616e4b65726e656c3a20696e73657274206661696c757265000000000000604482015260640161052c565b5050505050505050565b600454610100900460ff16611e0b5760405162461bcd60e51b815260206004820152602b60248201527f496e697469616c697a61626c653a20636f6e7472616374206973206e6f74206960448201526a6e697469616c697a696e6760a81b606482015260840161052c565b6001600160a01b038116611e1c5750335b611e2760003361265a565b611e3f6000805160206131b48339815191528261265a565b6107af6000805160206131b48339815191528061164a565b600061040d825490565b611e6b82826113a1565b61079857611e7881612664565b611e83836020612676565b604051602001611e949291906130de565b60408051601f198184030181529082905262461bcd60e51b825261052c91600401613153565b611ec482826113a1565b61079857600082815260cd602090815260408083206001600160a01b03851684529091529020805460ff19166001179055611efc3390565b6001600160a01b0316816001600160a01b0316837f2f8788117e7eff1d82e926ec794901d17c78024a50270940304540a733656f0d60405160405180910390a45050565b60006107dd836001600160a01b038416612811565b600061040d82600b6125c8565b611f6c82826113a1565b1561079857600082815260cd602090815260408083206001600160a01b0385168085529252808320805460ff1916905551339285917ff6391f5c32d9c69d2a47ea670b442974b53935d1edc7fd64eb21e047a839171b9190a45050565b60006107dd836001600160a01b038416612860565b60375460ff166115e55760405162461bcd60e51b815260206004820152601460248201527314185d5cd8589b194e881b9bdd081c185d5cd95960621b604482015260640161052c565b600082600001828154811061203e5761203e612d5c565b9060005260206000200154905092915050565b6000612064826301ffc9a760e01b612084565b801561040d575061207d826001600160e01b0319612084565b1592915050565b604080516001600160e01b03198316602480830191909152825180830390910181526044909101909152602080820180516001600160e01b03166301ffc9a760e01b178152825160009392849283928392918391908a617530fa92503d915060005190508280156120f6575060208210155b80156121025750600081115b979650505050505050565b612115612b03565b6040805160c081019091526000908087600260ff168151811061213a5761213a612d5c565b60200260200101516001600160a01b03168152602001876003600481111561216457612164612ddd565b60ff168151811061217757612177612d5c565b60200260200101516001600160a01b0316815260200186815260200185815260200161220288600260048111156121b0576121b0612ddd565b60ff16815181106121c3576121c3612d5c565b6020026020010151888a600360048111156121e0576121e0612ddd565b60ff16815181106121f3576121f3612d5c565b60200260200101518989612953565b8152602001849052915050949350505050565b60606000826001600160401b0381111561223157612231612fea565b60405190808252806020026020018201604052801561225a578160200160208202803683370190505b50905060025b61226b846002612fba565b8110156119f55784818151811061228457612284612d5c565b60200260200101518260028361229a9190613017565b815181106122aa576122aa612d5c565b6020908102919091010152600101612260565b60606000826001600160401b038111156122d9576122d9612fea565b604051908082528060200260200182016040528015612302578160200160208202803683370190505b5090506000612312846002612fba565b90505b612320846002613000565b61232b906002612fba565b8110156119f55784818151811061234457612344612d5c565b6020026020010151828560028461235b9190613017565b6123659190613017565b8151811061237557612375612d5c565b6020908102919091010152600101612315565b60606000826001600160401b038111156123a4576123a4612fea565b6040519080825280602002602001820160405280156123cd578160200160208202803683370190505b50905060006123dd846003613000565b6123e8906002612fba565b90505b6123f6846004613000565b612401906002612fba565b8110156119f55784818151811061241a5761241a612d5c565b6020026020010151828560036124309190613000565b61243b600285613017565b6124459190613017565b8151811061245557612455612d5c565b60ff92909216602092830291909101909101526001016123eb565b805160400151516060906000816001600160401b0381111561249457612494612fea565b6040519080825280602002602001820160405280156124bd578160200160208202803683370190505b50905060005b828110156119f5576125a385600001516080015182815181106124e8576124e8612d5c565b60200260200101518660400151838151811061250657612506612d5c565b6020026020010151876020015188608001518960a00151868151811061252e5761252e612d5c565b60200260200101516040516bffffffffffffffffffffffff1930606090811b82166020840152603483018890526054830187905285811b8216607484015284901b166088820152609c810182905260009060bc0160405160208183030381529060405280519060200120905095945050505050565b8282815181106125b5576125b5612d5c565b60209081029190910101526001016124c3565b6000826001600160a01b031663bcaa0c558360198111156125eb576125eb612ddd565b6040516001600160e01b031960e084901b16815260ff9091166004820152602401602060405180830381865afa158015612629573d6000803e3d6000fd5b505050506040513d601f19601f820116820180604052508101906107dd9190612fcd565b600061040d82600a6125c8565b6107988282611695565b606061040d6001600160a01b03831660145b60606000612685836002613000565b612690906002612fba565b6001600160401b038111156126a7576126a7612fea565b6040519080825280601f01601f1916602001820160405280156126d1576020820181803683370190505b509050600360fc1b816000815181106126ec576126ec612d5c565b60200101906001600160f81b031916908160001a905350600f60fb1b8160018151811061271b5761271b612d5c565b60200101906001600160f81b031916908160001a905350600061273f846002613000565b61274a906001612fba565b90505b60018111156127c2576f181899199a1a9b1b9c1cb0b131b232b360811b85600f166010811061277e5761277e612d5c565b1a60f81b82828151811061279457612794612d5c565b60200101906001600160f81b031916908160001a90535060049490941c936127bb81613186565b905061274d565b5083156107dd5760405162461bcd60e51b815260206004820181905260248201527f537472696e67733a20686578206c656e67746820696e73756666696369656e74604482015260640161052c565b60008181526001830160205260408120546128585750815460018181018455600084815260208082209093018490558454848252828601909352604090209190915561040d565b50600061040d565b60008181526001830160205260408120548015612949576000612884600183613017565b855490915060009061289890600190613017565b90508181146128fd5760008660000182815481106128b8576128b8612d5c565b90600052602060002001549050808760000184815481106128db576128db612d5c565b6000918252602080832090910192909255918252600188019052604090208390555b855486908061290e5761290e61319d565b60019003818190600052602060002001600090559055856001016000868152602001908152602001600020600090556001935050505061040d565b600091505061040d565b6060600082516001600160401b0381111561297057612970612fea565b604051908082528060200260200182016040528015612999578160200160208202803683370190505b50905060005b83516129ac906000612fba565b811015612a9157878782815181106129c6576129c6612d5c565b6020026020010151878784815181106129e1576129e1612d5c565b60200260200101518785815181106129fb576129fb612d5c565b6020026020010151604051602001612a56959493929190606095861b6bffffffffffffffffffffffff19908116825294861b851660148201529290941b9092166028820152603c810191909152605c810191909152607c0190565b60405160208183030381529060405280519060200120828281518110612a7e57612a7e612d5c565b602090810291909101015260010161299f565b509695505050505050565b604051806101200160405280612ab0612b03565b815260200160006001600160a01b03168152602001606081526020016000815260200160006001600160a01b03168152602001606081526020016060815260200160608152602001600060ff1681525090565b6040518060c0016040528060006001600160a01b0316815260200160006001600160a01b03168152602001606081526020016060815260200160608152602001606081525090565b600060208284031215612b5d57600080fd5b81356001600160e01b0319811681146107dd57600080fd5b60008083601f840112612b8757600080fd5b5081356001600160401b03811115612b9e57600080fd5b6020830191508360208260051b8501011115612bb957600080fd5b9250929050565b6001600160a01b03811681146107af57600080fd5b600080600080600060608688031215612bed57600080fd5b85356001600160401b0380821115612c0457600080fd5b612c1089838a01612b75565b90975095506020880135915080821115612c2957600080fd5b50612c3688828901612b75565b9094509250506040860135612c4a81612bc0565b809150509295509295909350565b60008060408385031215612c6b57600080fd5b50508035926020909101359150565b600060208284031215612c8c57600080fd5b5035919050565b60008060408385031215612ca657600080fd5b823591506020830135612cb881612bc0565b809150509250929050565b600080600060608486031215612cd857600080fd5b8335612ce381612bc0565b9250602084013591506040840135612cfa81612bc0565b809150509250925092565b600060208284031215612d1757600080fd5b81356001600160401b03811115612d2d57600080fd5b8201608081850312156107dd57600080fd5b600060208284031215612d5157600080fd5b81356107dd81612bc0565b634e487b7160e01b600052603260045260246000fd5b600060208284031215612d8457600080fd5b815180151581146107dd57600080fd5b6000808335601e19843603018112612dab57600080fd5b8301803591506001600160401b03821115612dc557600080fd5b6020019150600581901b3603821315612bb957600080fd5b634e487b7160e01b600052602160045260246000fd5b60008235607e19833603018112612e0957600080fd5b9190910192915050565b6000808335601e19843603018112612e2a57600080fd5b83016020810192503590506001600160401b03811115612e4957600080fd5b8060051b3603821315612bb957600080fd5b81835260006001600160fb1b03831115612e7457600080fd5b8260051b80836020870137939093016020019392505050565b81835281816020850137506000828201602090810191909152601f909101601f19169091010190565b6001600160a01b03838116825260406020830152600090612ed78480612e13565b60806040860152612eec60c086018284612e5b565b915050612efc6020860186612e13565b603f1980878503016060880152612f14848385612e5b565b935060408801359250612f2683612bc0565b938216608087015260608701359336889003601e19018512612f4757600080fd5b6020948801948501943592506001600160401b03831115612f6757600080fd5b823603851315612f7657600080fd5b8684030160a087015250612102828285612e8d565b600060208284031215612f9d57600080fd5b5051919050565b634e487b7160e01b600052601160045260246000fd5b8082018082111561040d5761040d612fa4565b600060208284031215612fdf57600080fd5b81516107dd81612bc0565b634e487b7160e01b600052604160045260246000fd5b808202811582820484141761040d5761040d612fa4565b8181038181111561040d5761040d612fa4565b8881526001600160a01b03888116602080840191909152888216604084015260608301889052908616608083015260a0820185905260c0820184905261010060e0830181905283519083018190526000916101208401918582019190845b818110156130a757835160ff1685529382019392820192600101613088565b50929d9c50505050505050505050505050565b60005b838110156130d55781810151838201526020016130bd565b50506000910152565b7f416363657373436f6e74726f6c3a206163636f756e74200000000000000000008152600083516131168160178501602088016130ba565b7001034b99036b4b9b9b4b733903937b6329607d1b60179184019182015283516131478160288401602088016130ba565b01602801949350505050565b60208152600082518060208401526131728160408501602087016130ba565b601f01601f19169190910160400192915050565b60008161319557613195612fa4565b506000190190565b634e487b7160e01b600052603160045260246000fdfeb19546dff01e856fb3f010c267a7b1c60363cf8a4664e21cc89c26224620214ea26469706673582212209a0123333608fbdb2ac8bade5ae672d18bd66b3455140c9d90fd02f196bf1caf64736f6c63430008130033",
  "devdoc": {
    "author": "Untangled Team",
    "events": {
      "Initialized(uint8)": {
        "details": "Triggered when the contract has been initialized or reinitialized."
      },
      "Paused(address)": {
        "details": "Emitted when the pause is triggered by `account`."
      },
      "RoleAdminChanged(bytes32,bytes32,bytes32)": {
        "details": "Emitted when `newAdminRole` is set as ``role``'s admin role, replacing `previousAdminRole` `DEFAULT_ADMIN_ROLE` is the starting admin for all roles, despite {RoleAdminChanged} not being emitted signaling this. _Available since v3.1._"
      },
      "RoleGranted(bytes32,address,address)": {
        "details": "Emitted when `account` is granted `role`. `sender` is the account that originated the contract call, an admin role bearer except when using {AccessControl-_setupRole}."
      },
      "RoleRevoked(bytes32,address,address)": {
        "details": "Emitted when `account` is revoked `role`. `sender` is the account that originated the contract call:   - if using `revokeRole`, it is the admin role bearer   - if using `renounceRole`, it is the role bearer (i.e. `account`)"
      },
      "Unpaused(address)": {
        "details": "Emitted when the pause is lifted by `account`."
      }
    },
    "kind": "dev",
    "methods": {
      "concludeLoan(address,bytes32,address)": {
        "details": "A loan, stop lending/loan terms or allow the loan loss"
      },
      "getRoleAdmin(bytes32)": {
        "details": "Returns the admin role that controls `role`. See {grantRole} and {revokeRole}. To change a role's admin, use {_setRoleAdmin}."
      },
      "getRoleMember(bytes32,uint256)": {
        "details": "Returns one of the accounts that have `role`. `index` must be a value between 0 and {getRoleMemberCount}, non-inclusive. Role bearers are not sorted in any particular way, and their ordering may change at any point. WARNING: When using {getRoleMember} and {getRoleMemberCount}, make sure you perform all queries on the same block. See the following https://forum.openzeppelin.com/t/iterating-over-elements-on-enumerableset-in-openzeppelin-contracts/2296[forum post] for more information."
      },
      "getRoleMemberCount(bytes32)": {
        "details": "Returns the number of accounts that have `role`. Can be used together with {getRoleMember} to enumerate all bearers of a role."
      },
      "grantRole(bytes32,address)": {
        "details": "Grants `role` to `account`. If `account` had not been already granted `role`, emits a {RoleGranted} event. Requirements: - the caller must have ``role``'s admin role. May emit a {RoleGranted} event."
      },
      "hasRole(bytes32,address)": {
        "details": "Returns `true` if `account` has been granted `role`."
      },
      "paused()": {
        "details": "Returns true if the contract is paused, and false otherwise."
      },
      "renounceRole(bytes32,address)": {
        "details": "Revokes `role` from the calling account. Roles are often managed via {grantRole} and {revokeRole}: this function's purpose is to provide a mechanism for accounts to lose their privileges if they are compromised (such as when a trusted device is misplaced). If the calling account had been revoked `role`, emits a {RoleRevoked} event. Requirements: - the caller must be `account`. May emit a {RoleRevoked} event."
      },
      "revokeRole(bytes32,address)": {
        "details": "Revokes `role` from `account`. If `account` had been granted `role`, emits a {RoleRevoked} event. Requirements: - the caller must have ``role``'s admin role. May emit a {RoleRevoked} event."
      },
      "supportsInterface(bytes4)": {
        "details": "See {IERC165-supportsInterface}."
      }
    },
    "title": "LoanKernel",
    "version": 1
  },
  "userdoc": {
    "kind": "user",
    "methods": {
      "concludeLoan(address,bytes32,address)": {
        "notice": "conclude a loan by stopping lending/loan terms or allowing the loan loss. It takes the creditor, agreement ID, and term contract as input"
      },
      "fillDebtOrder((address[],uint256[],bytes32[],(uint256[],uint256[],address,bytes)[]))": {
        "notice": "Filling new Debt Order Notice: - All Debt Order must to have same:   + TermContract   + Creditor Fee   + Debtor Fee"
      }
    },
    "notice": "Upload loan and conclude loan",
    "version": 1
  },
  "storageLayout": {
    "storage": [
      {
        "astId": 11518,
        "contract": "contracts/protocol/loan/LoanKernel.sol:LoanKernel",
        "label": "registry",
        "offset": 0,
        "slot": "0",
        "type": "t_contract(Registry)25339"
      },
      {
        "astId": 11652,
        "contract": "contracts/protocol/loan/LoanKernel.sol:LoanKernel",
        "label": "issuanceCancelled",
        "offset": 0,
        "slot": "1",
        "type": "t_mapping(t_bytes32,t_bool)"
      },
      {
        "astId": 11656,
        "contract": "contracts/protocol/loan/LoanKernel.sol:LoanKernel",
        "label": "debtOrderCancelled",
        "offset": 0,
        "slot": "2",
        "type": "t_mapping(t_bytes32,t_bool)"
      },
      {
        "astId": 11660,
        "contract": "contracts/protocol/loan/LoanKernel.sol:LoanKernel",
        "label": "debtOrderCompleted",
        "offset": 0,
        "slot": "3",
        "type": "t_mapping(t_bytes32,t_bool)"
      },
      {
        "astId": 765,
        "contract": "contracts/protocol/loan/LoanKernel.sol:LoanKernel",
        "label": "_initialized",
        "offset": 0,
        "slot": "4",
        "type": "t_uint8"
      },
      {
        "astId": 768,
        "contract": "contracts/protocol/loan/LoanKernel.sol:LoanKernel",
        "label": "_initializing",
        "offset": 1,
        "slot": "4",
        "type": "t_bool"
      },
      {
        "astId": 4282,
        "contract": "contracts/protocol/loan/LoanKernel.sol:LoanKernel",
        "label": "__gap",
        "offset": 0,
        "slot": "5",
        "type": "t_array(t_uint256)50_storage"
      },
      {
        "astId": 948,
        "contract": "contracts/protocol/loan/LoanKernel.sol:LoanKernel",
        "label": "_paused",
        "offset": 0,
        "slot": "55",
        "type": "t_bool"
      },
      {
        "astId": 1053,
        "contract": "contracts/protocol/loan/LoanKernel.sol:LoanKernel",
        "label": "__gap",
        "offset": 0,
        "slot": "56",
        "type": "t_array(t_uint256)49_storage"
      },
      {
        "astId": 1068,
        "contract": "contracts/protocol/loan/LoanKernel.sol:LoanKernel",
        "label": "_status",
        "offset": 0,
        "slot": "105",
        "type": "t_uint256"
      },
      {
        "astId": 1137,
        "contract": "contracts/protocol/loan/LoanKernel.sol:LoanKernel",
        "label": "__gap",
        "offset": 0,
        "slot": "106",
        "type": "t_array(t_uint256)49_storage"
      },
      {
        "astId": 5572,
        "contract": "contracts/protocol/loan/LoanKernel.sol:LoanKernel",
        "label": "__gap",
        "offset": 0,
        "slot": "155",
        "type": "t_array(t_uint256)50_storage"
      },
      {
        "astId": 184,
        "contract": "contracts/protocol/loan/LoanKernel.sol:LoanKernel",
        "label": "_roles",
        "offset": 0,
        "slot": "205",
        "type": "t_mapping(t_bytes32,t_struct(RoleData)179_storage)"
      },
      {
        "astId": 479,
        "contract": "contracts/protocol/loan/LoanKernel.sol:LoanKernel",
        "label": "__gap",
        "offset": 0,
        "slot": "206",
        "type": "t_array(t_uint256)49_storage"
      },
      {
        "astId": 33,
        "contract": "contracts/protocol/loan/LoanKernel.sol:LoanKernel",
        "label": "_roleMembers",
        "offset": 0,
        "slot": "255",
        "type": "t_mapping(t_bytes32,t_struct(AddressSet)6882_storage)"
      },
      {
        "astId": 143,
        "contract": "contracts/protocol/loan/LoanKernel.sol:LoanKernel",
        "label": "__gap",
        "offset": 0,
        "slot": "256",
        "type": "t_array(t_uint256)49_storage"
      },
      {
        "astId": 10377,
        "contract": "contracts/protocol/loan/LoanKernel.sol:LoanKernel",
        "label": "__gap",
        "offset": 0,
        "slot": "305",
        "type": "t_array(t_uint256)50_storage"
      },
      {
        "astId": 14370,
        "contract": "contracts/protocol/loan/LoanKernel.sol:LoanKernel",
        "label": "__gap",
        "offset": 0,
        "slot": "355",
        "type": "t_array(t_uint256)50_storage"
      }
    ],
    "types": {
      "t_address": {
        "encoding": "inplace",
        "label": "address",
        "numberOfBytes": "20"
      },
      "t_array(t_bytes32)dyn_storage": {
        "base": "t_bytes32",
        "encoding": "dynamic_array",
        "label": "bytes32[]",
        "numberOfBytes": "32"
      },
      "t_array(t_uint256)49_storage": {
        "base": "t_uint256",
        "encoding": "inplace",
        "label": "uint256[49]",
        "numberOfBytes": "1568"
      },
      "t_array(t_uint256)50_storage": {
        "base": "t_uint256",
        "encoding": "inplace",
        "label": "uint256[50]",
        "numberOfBytes": "1600"
      },
      "t_bool": {
        "encoding": "inplace",
        "label": "bool",
        "numberOfBytes": "1"
      },
      "t_bytes32": {
        "encoding": "inplace",
        "label": "bytes32",
        "numberOfBytes": "32"
      },
      "t_contract(Registry)25339": {
        "encoding": "inplace",
        "label": "contract Registry",
        "numberOfBytes": "20"
      },
      "t_mapping(t_address,t_bool)": {
        "encoding": "mapping",
        "key": "t_address",
        "label": "mapping(address => bool)",
        "numberOfBytes": "32",
        "value": "t_bool"
      },
      "t_mapping(t_bytes32,t_bool)": {
        "encoding": "mapping",
        "key": "t_bytes32",
        "label": "mapping(bytes32 => bool)",
        "numberOfBytes": "32",
        "value": "t_bool"
      },
      "t_mapping(t_bytes32,t_struct(AddressSet)6882_storage)": {
        "encoding": "mapping",
        "key": "t_bytes32",
        "label": "mapping(bytes32 => struct EnumerableSetUpgradeable.AddressSet)",
        "numberOfBytes": "32",
        "value": "t_struct(AddressSet)6882_storage"
      },
      "t_mapping(t_bytes32,t_struct(RoleData)179_storage)": {
        "encoding": "mapping",
        "key": "t_bytes32",
        "label": "mapping(bytes32 => struct AccessControlUpgradeable.RoleData)",
        "numberOfBytes": "32",
        "value": "t_struct(RoleData)179_storage"
      },
      "t_mapping(t_bytes32,t_uint256)": {
        "encoding": "mapping",
        "key": "t_bytes32",
        "label": "mapping(bytes32 => uint256)",
        "numberOfBytes": "32",
        "value": "t_uint256"
      },
      "t_struct(AddressSet)6882_storage": {
        "encoding": "inplace",
        "label": "struct EnumerableSetUpgradeable.AddressSet",
        "members": [
          {
            "astId": 6881,
            "contract": "contracts/protocol/loan/LoanKernel.sol:LoanKernel",
            "label": "_inner",
            "offset": 0,
            "slot": "0",
            "type": "t_struct(Set)6567_storage"
          }
        ],
        "numberOfBytes": "64"
      },
      "t_struct(RoleData)179_storage": {
        "encoding": "inplace",
        "label": "struct AccessControlUpgradeable.RoleData",
        "members": [
          {
            "astId": 176,
            "contract": "contracts/protocol/loan/LoanKernel.sol:LoanKernel",
            "label": "members",
            "offset": 0,
            "slot": "0",
            "type": "t_mapping(t_address,t_bool)"
          },
          {
            "astId": 178,
            "contract": "contracts/protocol/loan/LoanKernel.sol:LoanKernel",
            "label": "adminRole",
            "offset": 0,
            "slot": "1",
            "type": "t_bytes32"
          }
        ],
        "numberOfBytes": "64"
      },
      "t_struct(Set)6567_storage": {
        "encoding": "inplace",
        "label": "struct EnumerableSetUpgradeable.Set",
        "members": [
          {
            "astId": 6562,
            "contract": "contracts/protocol/loan/LoanKernel.sol:LoanKernel",
            "label": "_values",
            "offset": 0,
            "slot": "0",
            "type": "t_array(t_bytes32)dyn_storage"
          },
          {
            "astId": 6566,
            "contract": "contracts/protocol/loan/LoanKernel.sol:LoanKernel",
            "label": "_indexes",
            "offset": 0,
            "slot": "1",
            "type": "t_mapping(t_bytes32,t_uint256)"
          }
        ],
        "numberOfBytes": "64"
      },
      "t_uint256": {
        "encoding": "inplace",
        "label": "uint256",
        "numberOfBytes": "32"
      },
      "t_uint8": {
        "encoding": "inplace",
        "label": "uint8",
        "numberOfBytes": "1"
      }
    }
  }
}