{
  "address": "0x82664d297145E826b3c9239AA8490725D95577C0",
  "abi": [
    {
      "anonymous": false,
      "inputs": [
        {
          "indexed": false,
          "internalType": "uint8",
          "name": "version",
          "type": "uint8"
        }
      ],
      "name": "Initialized",
      "type": "event"
    },
    {
      "anonymous": false,
      "inputs": [
        {
          "indexed": false,
          "internalType": "address",
          "name": "account",
          "type": "address"
        }
      ],
      "name": "Paused",
      "type": "event"
    },
    {
      "anonymous": false,
      "inputs": [
        {
          "indexed": true,
          "internalType": "bytes32",
          "name": "role",
          "type": "bytes32"
        },
        {
          "indexed": true,
          "internalType": "bytes32",
          "name": "previousAdminRole",
          "type": "bytes32"
        },
        {
          "indexed": true,
          "internalType": "bytes32",
          "name": "newAdminRole",
          "type": "bytes32"
        }
      ],
      "name": "RoleAdminChanged",
      "type": "event"
    },
    {
      "anonymous": false,
      "inputs": [
        {
          "indexed": true,
          "internalType": "bytes32",
          "name": "role",
          "type": "bytes32"
        },
        {
          "indexed": true,
          "internalType": "address",
          "name": "account",
          "type": "address"
        },
        {
          "indexed": true,
          "internalType": "address",
          "name": "sender",
          "type": "address"
        }
      ],
      "name": "RoleGranted",
      "type": "event"
    },
    {
      "anonymous": false,
      "inputs": [
        {
          "indexed": true,
          "internalType": "bytes32",
          "name": "role",
          "type": "bytes32"
        },
        {
          "indexed": true,
          "internalType": "address",
          "name": "account",
          "type": "address"
        },
        {
          "indexed": true,
          "internalType": "address",
          "name": "sender",
          "type": "address"
        }
      ],
      "name": "RoleRevoked",
      "type": "event"
    },
    {
      "anonymous": false,
      "inputs": [
        {
          "indexed": false,
          "internalType": "address",
          "name": "account",
          "type": "address"
        }
      ],
      "name": "Unpaused",
      "type": "event"
    },
    {
      "anonymous": false,
      "inputs": [
        {
          "indexed": false,
          "internalType": "address",
          "name": "originatorAddress",
          "type": "address"
        },
        {
          "indexed": false,
          "internalType": "uint256",
          "name": "amount",
          "type": "uint256"
        }
      ],
      "name": "Withdraw",
      "type": "event"
    },
    {
      "inputs": [],
      "name": "DEFAULT_ADMIN_ROLE",
      "outputs": [
        {
          "internalType": "bytes32",
          "name": "",
          "type": "bytes32"
        }
      ],
      "stateMutability": "view",
      "type": "function"
    },
    {
      "inputs": [],
      "name": "ORIGINATOR_ROLE",
      "outputs": [
        {
          "internalType": "bytes32",
          "name": "",
          "type": "bytes32"
        }
      ],
      "stateMutability": "view",
      "type": "function"
    },
    {
      "inputs": [],
      "name": "OWNER_ROLE",
      "outputs": [
        {
          "internalType": "bytes32",
          "name": "",
          "type": "bytes32"
        }
      ],
      "stateMutability": "view",
      "type": "function"
    },
    {
      "inputs": [],
      "name": "RATE_SCALING_FACTOR",
      "outputs": [
        {
          "internalType": "uint256",
          "name": "",
          "type": "uint256"
        }
      ],
      "stateMutability": "view",
      "type": "function"
    },
    {
      "inputs": [],
      "name": "amountOwedToOriginator",
      "outputs": [
        {
          "internalType": "uint256",
          "name": "",
          "type": "uint256"
        }
      ],
      "stateMutability": "view",
      "type": "function"
    },
    {
      "inputs": [],
      "name": "checkMinFirstLost",
      "outputs": [
        {
          "internalType": "bool",
          "name": "",
          "type": "bool"
        }
      ],
      "stateMutability": "view",
      "type": "function"
    },
    {
      "inputs": [
        {
          "internalType": "address",
          "name": "recipientWallet",
          "type": "address"
        }
      ],
      "name": "claimCashRemain",
      "outputs": [],
      "stateMutability": "nonpayable",
      "type": "function"
    },
    {
      "inputs": [
        {
          "internalType": "address",
          "name": "tokenAddress",
          "type": "address"
        },
        {
          "internalType": "address",
          "name": "from",
          "type": "address"
        },
        {
          "internalType": "uint256[]",
          "name": "tokenIds",
          "type": "uint256[]"
        }
      ],
      "name": "collectAssets",
      "outputs": [],
      "stateMutability": "nonpayable",
      "type": "function"
    },
    {
      "inputs": [
        {
          "internalType": "address[]",
          "name": "tokenAddresses",
          "type": "address[]"
        },
        {
          "internalType": "address[]",
          "name": "senders",
          "type": "address[]"
        },
        {
          "internalType": "uint256[]",
          "name": "amounts",
          "type": "uint256[]"
        }
      ],
      "name": "collectERC20Assets",
      "outputs": [],
      "stateMutability": "nonpayable",
      "type": "function"
    },
    {
      "inputs": [
        {
          "internalType": "address",
          "name": "tokenAddress",
          "type": "address"
        },
        {
          "internalType": "address",
          "name": "investor",
          "type": "address"
        },
        {
          "internalType": "uint256",
          "name": "currency",
          "type": "uint256"
        },
        {
          "internalType": "uint256",
          "name": "token",
          "type": "uint256"
        }
      ],
      "name": "decreaseLockedDistributeBalance",
      "outputs": [],
      "stateMutability": "nonpayable",
      "type": "function"
    },
    {
      "inputs": [
        {
          "internalType": "uint256",
          "name": "currencyAmount",
          "type": "uint256"
        }
      ],
      "name": "decreaseReserve",
      "outputs": [],
      "stateMutability": "nonpayable",
      "type": "function"
    },
    {
      "inputs": [
        {
          "internalType": "address",
          "name": "",
          "type": "address"
        }
      ],
      "name": "existsTokenAssetAddress",
      "outputs": [
        {
          "internalType": "bool",
          "name": "",
          "type": "bool"
        }
      ],
      "stateMutability": "view",
      "type": "function"
    },
    {
      "inputs": [
        {
          "internalType": "address",
          "name": "tokenAddress",
          "type": "address"
        },
        {
          "internalType": "address",
          "name": "toPoolAddress",
          "type": "address"
        },
        {
          "internalType": "uint256[]",
          "name": "tokenIds",
          "type": "uint256[]"
        }
      ],
      "name": "exportAssets",
      "outputs": [],
      "stateMutability": "nonpayable",
      "type": "function"
    },
    {
      "inputs": [],
      "name": "firstAssetTimestamp",
      "outputs": [
        {
          "internalType": "uint64",
          "name": "",
          "type": "uint64"
        }
      ],
      "stateMutability": "view",
      "type": "function"
    },
    {
      "inputs": [],
      "name": "getNFTAssetsLength",
      "outputs": [
        {
          "internalType": "uint256",
          "name": "",
          "type": "uint256"
        }
      ],
      "stateMutability": "view",
      "type": "function"
    },
    {
      "inputs": [],
      "name": "getRiskScoresLength",
      "outputs": [
        {
          "internalType": "uint256",
          "name": "",
          "type": "uint256"
        }
      ],
      "stateMutability": "view",
      "type": "function"
    },
    {
      "inputs": [
        {
          "internalType": "bytes32",
          "name": "role",
          "type": "bytes32"
        }
      ],
      "name": "getRoleAdmin",
      "outputs": [
        {
          "internalType": "bytes32",
          "name": "",
          "type": "bytes32"
        }
      ],
      "stateMutability": "view",
      "type": "function"
    },
    {
      "inputs": [
        {
          "internalType": "bytes32",
          "name": "role",
          "type": "bytes32"
        },
        {
          "internalType": "uint256",
          "name": "index",
          "type": "uint256"
        }
      ],
      "name": "getRoleMember",
      "outputs": [
        {
          "internalType": "address",
          "name": "",
          "type": "address"
        }
      ],
      "stateMutability": "view",
      "type": "function"
    },
    {
      "inputs": [
        {
          "internalType": "bytes32",
          "name": "role",
          "type": "bytes32"
        }
      ],
      "name": "getRoleMemberCount",
      "outputs": [
        {
          "internalType": "uint256",
          "name": "",
          "type": "uint256"
        }
      ],
      "stateMutability": "view",
      "type": "function"
    },
    {
      "inputs": [],
      "name": "getTokenAssetAddresses",
      "outputs": [
        {
          "internalType": "address[]",
          "name": "",
          "type": "address[]"
        }
      ],
      "stateMutability": "view",
      "type": "function"
    },
    {
      "inputs": [],
      "name": "getTokenAssetAddressesLength",
      "outputs": [
        {
          "internalType": "uint256",
          "name": "",
          "type": "uint256"
        }
      ],
      "stateMutability": "view",
      "type": "function"
    },
    {
      "inputs": [
        {
          "internalType": "bytes32",
          "name": "role",
          "type": "bytes32"
        },
        {
          "internalType": "address",
          "name": "account",
          "type": "address"
        }
      ],
      "name": "grantRole",
      "outputs": [],
      "stateMutability": "nonpayable",
      "type": "function"
    },
    {
      "inputs": [],
      "name": "hasFinishedRedemption",
      "outputs": [
        {
          "internalType": "bool",
          "name": "",
          "type": "bool"
        }
      ],
      "stateMutability": "view",
      "type": "function"
    },
    {
      "inputs": [
        {
          "internalType": "bytes32",
          "name": "role",
          "type": "bytes32"
        },
        {
          "internalType": "address",
          "name": "account",
          "type": "address"
        }
      ],
      "name": "hasRole",
      "outputs": [
        {
          "internalType": "bool",
          "name": "",
          "type": "bool"
        }
      ],
      "stateMutability": "view",
      "type": "function"
    },
    {
      "inputs": [
        {
          "internalType": "address",
          "name": "tokenAddress",
          "type": "address"
        },
        {
          "internalType": "address",
          "name": "investor",
          "type": "address"
        },
        {
          "internalType": "uint256",
          "name": "currency",
          "type": "uint256"
        },
        {
          "internalType": "uint256",
          "name": "token",
          "type": "uint256"
        }
      ],
      "name": "increaseLockedDistributeBalance",
      "outputs": [],
      "stateMutability": "nonpayable",
      "type": "function"
    },
    {
      "inputs": [
        {
          "internalType": "uint256",
          "name": "currencyAmount",
          "type": "uint256"
        }
      ],
      "name": "increaseReserve",
      "outputs": [],
      "stateMutability": "nonpayable",
      "type": "function"
    },
    {
      "inputs": [
        {
          "internalType": "uint256",
          "name": "amount",
          "type": "uint256"
        }
      ],
      "name": "increaseTotalAssetRepaidCurrency",
      "outputs": [],
      "stateMutability": "nonpayable",
      "type": "function"
    },
    {
      "inputs": [
        {
          "internalType": "contract Registry",
          "name": "_registry",
          "type": "address"
        },
        {
          "internalType": "address",
          "name": "_currency",
          "type": "address"
        },
        {
          "internalType": "uint32",
          "name": "_minFirstLossCushion",
          "type": "uint32"
        }
      ],
      "name": "initialize",
      "outputs": [],
      "stateMutability": "nonpayable",
      "type": "function"
    },
    {
      "inputs": [
        {
          "internalType": "address",
          "name": "_tgeAddress",
          "type": "address"
        },
        {
          "internalType": "address",
          "name": "_tokenAddress",
          "type": "address"
        },
        {
          "internalType": "enum Configuration.NOTE_TOKEN_TYPE",
          "name": "_noteType",
          "type": "uint8"
        }
      ],
      "name": "injectTGEAddress",
      "outputs": [],
      "stateMutability": "nonpayable",
      "type": "function"
    },
    {
      "inputs": [],
      "name": "interestRateSOT",
      "outputs": [
        {
          "internalType": "uint32",
          "name": "",
          "type": "uint32"
        }
      ],
      "stateMutability": "view",
      "type": "function"
    },
    {
      "inputs": [],
      "name": "isClosedState",
      "outputs": [
        {
          "internalType": "bool",
          "name": "",
          "type": "bool"
        }
      ],
      "stateMutability": "view",
      "type": "function"
    },
    {
      "inputs": [],
      "name": "jotToken",
      "outputs": [
        {
          "internalType": "address",
          "name": "",
          "type": "address"
        }
      ],
      "stateMutability": "view",
      "type": "function"
    },
    {
      "inputs": [
        {
          "internalType": "address",
          "name": "",
          "type": "address"
        }
      ],
      "name": "lastRepayTimestampSOT",
      "outputs": [
        {
          "internalType": "uint256",
          "name": "",
          "type": "uint256"
        }
      ],
      "stateMutability": "view",
      "type": "function"
    },
    {
      "inputs": [
        {
          "internalType": "address",
          "name": "",
          "type": "address"
        },
        {
          "internalType": "address",
          "name": "",
          "type": "address"
        }
      ],
      "name": "lockedDistributeBalances",
      "outputs": [
        {
          "internalType": "uint256",
          "name": "",
          "type": "uint256"
        }
      ],
      "stateMutability": "view",
      "type": "function"
    },
    {
      "inputs": [
        {
          "internalType": "address",
          "name": "",
          "type": "address"
        },
        {
          "internalType": "address",
          "name": "",
          "type": "address"
        }
      ],
      "name": "lockedRedeemBalances",
      "outputs": [
        {
          "internalType": "uint256",
          "name": "",
          "type": "uint256"
        }
      ],
      "stateMutability": "view",
      "type": "function"
    },
    {
      "inputs": [],
      "name": "minFirstLossCushion",
      "outputs": [
        {
          "internalType": "uint32",
          "name": "",
          "type": "uint32"
        }
      ],
      "stateMutability": "view",
      "type": "function"
    },
    {
      "inputs": [
        {
          "internalType": "uint256",
          "name": "",
          "type": "uint256"
        }
      ],
      "name": "nftAssets",
      "outputs": [
        {
          "internalType": "address",
          "name": "tokenAddress",
          "type": "address"
        },
        {
          "internalType": "uint256",
          "name": "tokenId",
          "type": "uint256"
        }
      ],
      "stateMutability": "view",
      "type": "function"
    },
    {
      "inputs": [
        {
          "internalType": "address",
          "name": "",
          "type": "address"
        },
        {
          "internalType": "address",
          "name": "",
          "type": "address"
        },
        {
          "internalType": "uint256",
          "name": "tokenId",
          "type": "uint256"
        },
        {
          "internalType": "bytes",
          "name": "",
          "type": "bytes"
        }
      ],
      "name": "onERC721Received",
      "outputs": [
        {
          "internalType": "bytes4",
          "name": "",
          "type": "bytes4"
        }
      ],
      "stateMutability": "nonpayable",
      "type": "function"
    },
    {
      "inputs": [],
      "name": "openingBlockTimestamp",
      "outputs": [
        {
          "internalType": "uint64",
          "name": "",
          "type": "uint64"
        }
      ],
      "stateMutability": "view",
      "type": "function"
    },
    {
      "inputs": [
        {
          "internalType": "address",
          "name": "",
          "type": "address"
        }
      ],
      "name": "paidInterestAmountSOT",
      "outputs": [
        {
          "internalType": "uint256",
          "name": "",
          "type": "uint256"
        }
      ],
      "stateMutability": "view",
      "type": "function"
    },
    {
      "inputs": [],
      "name": "paidPrincipalAmountSOT",
      "outputs": [
        {
          "internalType": "uint256",
          "name": "",
          "type": "uint256"
        }
      ],
      "stateMutability": "view",
      "type": "function"
    },
    {
      "inputs": [
        {
          "internalType": "address",
          "name": "",
          "type": "address"
        }
      ],
      "name": "paidPrincipalAmountSOTByInvestor",
      "outputs": [
        {
          "internalType": "uint256",
          "name": "",
          "type": "uint256"
        }
      ],
      "stateMutability": "view",
      "type": "function"
    },
    {
      "inputs": [],
      "name": "pause",
      "outputs": [],
      "stateMutability": "nonpayable",
      "type": "function"
    },
    {
      "inputs": [],
      "name": "paused",
      "outputs": [
        {
          "internalType": "bool",
          "name": "",
          "type": "bool"
        }
      ],
      "stateMutability": "view",
      "type": "function"
    },
    {
      "inputs": [],
      "name": "pot",
      "outputs": [
        {
          "internalType": "address",
          "name": "",
          "type": "address"
        }
      ],
      "stateMutability": "view",
      "type": "function"
    },
    {
      "inputs": [],
      "name": "principalAmountSOT",
      "outputs": [
        {
          "internalType": "uint256",
          "name": "",
          "type": "uint256"
        }
      ],
      "stateMutability": "view",
      "type": "function"
    },
    {
      "inputs": [
        {
          "internalType": "address",
          "name": "usr",
          "type": "address"
        },
        {
          "internalType": "address",
          "name": "notesToken",
          "type": "address"
        },
        {
          "internalType": "uint256",
          "name": "currencyAmount",
          "type": "uint256"
        },
        {
          "internalType": "uint256",
          "name": "tokenAmount",
          "type": "uint256"
        }
      ],
      "name": "redeem",
      "outputs": [],
      "stateMutability": "nonpayable",
      "type": "function"
    },
    {
      "inputs": [],
      "name": "registry",
      "outputs": [
        {
          "internalType": "contract Registry",
          "name": "",
          "type": "address"
        }
      ],
      "stateMutability": "view",
      "type": "function"
    },
    {
      "inputs": [
        {
          "internalType": "bytes32",
          "name": "role",
          "type": "bytes32"
        },
        {
          "internalType": "address",
          "name": "account",
          "type": "address"
        }
      ],
      "name": "renounceRole",
      "outputs": [],
      "stateMutability": "nonpayable",
      "type": "function"
    },
    {
      "inputs": [],
      "name": "reserve",
      "outputs": [
        {
          "internalType": "uint256",
          "name": "",
          "type": "uint256"
        }
      ],
      "stateMutability": "view",
      "type": "function"
    },
    {
      "inputs": [
        {
          "internalType": "bytes32",
          "name": "role",
          "type": "bytes32"
        },
        {
          "internalType": "address",
          "name": "account",
          "type": "address"
        }
      ],
      "name": "revokeRole",
      "outputs": [],
      "stateMutability": "nonpayable",
      "type": "function"
    },
    {
      "inputs": [
        {
          "internalType": "uint256",
          "name": "",
          "type": "uint256"
        }
      ],
      "name": "riskScores",
      "outputs": [
        {
          "internalType": "uint32",
          "name": "daysPastDue",
          "type": "uint32"
        },
        {
          "internalType": "uint32",
          "name": "advanceRate",
          "type": "uint32"
        },
        {
          "internalType": "uint32",
          "name": "penaltyRate",
          "type": "uint32"
        },
        {
          "internalType": "uint32",
          "name": "interestRate",
          "type": "uint32"
        },
        {
          "internalType": "uint32",
          "name": "probabilityOfDefault",
          "type": "uint32"
        },
        {
          "internalType": "uint32",
          "name": "lossGivenDefault",
          "type": "uint32"
        },
        {
          "internalType": "uint32",
          "name": "gracePeriod",
          "type": "uint32"
        },
        {
          "internalType": "uint32",
          "name": "collectionPeriod",
          "type": "uint32"
        },
        {
          "internalType": "uint32",
          "name": "writeOffAfterGracePeriod",
          "type": "uint32"
        },
        {
          "internalType": "uint32",
          "name": "writeOffAfterCollectionPeriod",
          "type": "uint32"
        }
      ],
      "stateMutability": "view",
      "type": "function"
    },
    {
      "inputs": [],
      "name": "secondTGEAddress",
      "outputs": [
        {
          "internalType": "address",
          "name": "",
          "type": "address"
        }
      ],
      "stateMutability": "view",
      "type": "function"
    },
    {
      "inputs": [
        {
          "internalType": "uint32",
          "name": "_interestRateSOT",
          "type": "uint32"
        }
      ],
      "name": "setInterestRateForSOT",
      "outputs": [],
      "stateMutability": "nonpayable",
      "type": "function"
    },
    {
      "inputs": [
        {
          "internalType": "address",
          "name": "_pot",
          "type": "address"
        }
      ],
      "name": "setPot",
      "outputs": [],
      "stateMutability": "nonpayable",
      "type": "function"
    },
    {
      "inputs": [
        {
          "internalType": "bytes32",
          "name": "role",
          "type": "bytes32"
        },
        {
          "internalType": "bytes32",
          "name": "adminRole",
          "type": "bytes32"
        }
      ],
      "name": "setRoleAdmin",
      "outputs": [],
      "stateMutability": "nonpayable",
      "type": "function"
    },
    {
      "inputs": [],
      "name": "setUpOpeningBlockTimestamp",
      "outputs": [],
      "stateMutability": "nonpayable",
      "type": "function"
    },
    {
      "inputs": [
        {
          "internalType": "uint32[]",
          "name": "_daysPastDues",
          "type": "uint32[]"
        },
        {
          "internalType": "uint32[]",
          "name": "_ratesAndDefaults",
          "type": "uint32[]"
        },
        {
          "internalType": "uint32[]",
          "name": "_periodsAndWriteOffs",
          "type": "uint32[]"
        }
      ],
      "name": "setupRiskScores",
      "outputs": [],
      "stateMutability": "nonpayable",
      "type": "function"
    },
    {
      "inputs": [],
      "name": "sotToken",
      "outputs": [
        {
          "internalType": "address",
          "name": "",
          "type": "address"
        }
      ],
      "stateMutability": "view",
      "type": "function"
    },
    {
      "inputs": [
        {
          "internalType": "uint64",
          "name": "_termLengthInSeconds",
          "type": "uint64"
        },
        {
          "internalType": "uint256",
          "name": "_principalAmountForSOT",
          "type": "uint256"
        },
        {
          "internalType": "uint32",
          "name": "_interestRateForSOT",
          "type": "uint32"
        },
        {
          "internalType": "uint64",
          "name": "_timeStartEarningInterest",
          "type": "uint64"
        }
      ],
      "name": "startCycle",
      "outputs": [],
      "stateMutability": "nonpayable",
      "type": "function"
    },
    {
      "inputs": [],
      "name": "state",
      "outputs": [
        {
          "internalType": "enum ISecuritizationPool.CycleState",
          "name": "",
          "type": "uint8"
        }
      ],
      "stateMutability": "view",
      "type": "function"
    },
    {
      "inputs": [
        {
          "internalType": "bytes4",
          "name": "interfaceId",
          "type": "bytes4"
        }
      ],
      "name": "supportsInterface",
      "outputs": [
        {
          "internalType": "bool",
          "name": "",
          "type": "bool"
        }
      ],
      "stateMutability": "view",
      "type": "function"
    },
    {
      "inputs": [],
      "name": "termLengthInSeconds",
      "outputs": [
        {
          "internalType": "uint64",
          "name": "",
          "type": "uint64"
        }
      ],
      "stateMutability": "view",
      "type": "function"
    },
    {
      "inputs": [],
      "name": "tgeAddress",
      "outputs": [
        {
          "internalType": "address",
          "name": "",
          "type": "address"
        }
      ],
      "stateMutability": "view",
      "type": "function"
    },
    {
      "inputs": [
        {
          "internalType": "uint256",
          "name": "",
          "type": "uint256"
        }
      ],
      "name": "tokenAssetAddresses",
      "outputs": [
        {
          "internalType": "address",
          "name": "",
          "type": "address"
        }
      ],
      "stateMutability": "view",
      "type": "function"
    },
    {
      "inputs": [],
      "name": "totalAssetRepaidCurrency",
      "outputs": [
        {
          "internalType": "uint256",
          "name": "",
          "type": "uint256"
        }
      ],
      "stateMutability": "view",
      "type": "function"
    },
    {
      "inputs": [],
      "name": "totalLockedDistributeBalance",
      "outputs": [
        {
          "internalType": "uint256",
          "name": "",
          "type": "uint256"
        }
      ],
      "stateMutability": "view",
      "type": "function"
    },
    {
      "inputs": [
        {
          "internalType": "address",
          "name": "",
          "type": "address"
        }
      ],
      "name": "totalLockedRedeemBalances",
      "outputs": [
        {
          "internalType": "uint256",
          "name": "",
          "type": "uint256"
        }
      ],
      "stateMutability": "view",
      "type": "function"
    },
    {
      "inputs": [],
      "name": "totalRedeemedCurrency",
      "outputs": [
        {
          "internalType": "uint256",
          "name": "",
          "type": "uint256"
        }
      ],
      "stateMutability": "view",
      "type": "function"
    },
    {
      "inputs": [],
      "name": "underlyingCurrency",
      "outputs": [
        {
          "internalType": "address",
          "name": "",
          "type": "address"
        }
      ],
      "stateMutability": "view",
      "type": "function"
    },
    {
      "inputs": [],
      "name": "unpause",
      "outputs": [],
      "stateMutability": "nonpayable",
      "type": "function"
    },
    {
      "inputs": [
        {
          "internalType": "uint256",
          "name": "amount",
          "type": "uint256"
        }
      ],
      "name": "withdraw",
      "outputs": [],
      "stateMutability": "nonpayable",
      "type": "function"
    },
    {
      "inputs": [
        {
          "internalType": "address[]",
          "name": "tokenAddresses",
          "type": "address[]"
        },
        {
          "internalType": "uint256[]",
          "name": "tokenIds",
          "type": "uint256[]"
        },
        {
          "internalType": "address[]",
          "name": "recipients",
          "type": "address[]"
        }
      ],
      "name": "withdrawAssets",
      "outputs": [],
      "stateMutability": "nonpayable",
      "type": "function"
    },
    {
      "inputs": [
        {
          "internalType": "address[]",
          "name": "tokenAddresses",
          "type": "address[]"
        },
        {
          "internalType": "address[]",
          "name": "recipients",
          "type": "address[]"
        },
        {
          "internalType": "uint256[]",
          "name": "amounts",
          "type": "uint256[]"
        }
      ],
      "name": "withdrawERC20Assets",
      "outputs": [],
      "stateMutability": "nonpayable",
      "type": "function"
    }
  ],
  "transactionHash": "0x78f96be6cde8f2a300bd058a699cc70ba02b5f0e647b8df9aa05552d6da06d15",
  "args": [],
  "numDeployments": 2,
  "solcInputHash": "84eaf4301e61d187fae163092085f652",
  "bytecode": "0x608060405234801561001057600080fd5b506151a4806100206000396000f3fe608060405234801561001057600080fd5b506004361061043e5760003560e01c80636ee44c4c11610236578063ade0ea6d1161013b578063d2fad481116100c3578063e2eda54111610087578063e2eda54114610a48578063e58378bb14610a51578063ed34889514610a66578063fa3908b114610a79578063febd601814610aab57600080fd5b8063d2fad481146109e5578063d547741f14610a06578063d8ba6f4414610a19578063dec2858714610a2c578063df076fe014610a3f57600080fd5b8063c6cb67a61161010a578063c6cb67a6146109a1578063ca15c873146109b4578063cb15a134146109c7578063cd3293de146109d1578063cee7b6a1146109db57600080fd5b8063ade0ea6d14610958578063b8cd9b0014610962578063bff8a36d1461096c578063c19d93fb1461097f57600080fd5b80638fd6b71e116101be57806391d148541161018d57806391d14854146108e9578063a125142b146108fc578063a217fddf14610911578063a6c5954714610919578063ac2a6a381461092c57600080fd5b80638fd6b71e1461089757806390071cf3146108b05780639010d07c146108c357806390161705146108d657600080fd5b80637b103999116102055780637b103999146108325780637da220e6146108465780637dfbdae214610872578063815d6ddf1461087c5780638456cb591461088f57600080fd5b80636ee44c4c146107e657806370d2f3991461080157806375b1bce71461082257806378d29d551461082a57600080fd5b80632f2ff15d116103475780634b552a4a116102cf5780635c975abb116102935780635c975abb1461072c5780636421cede14610737578063644b4ead1461074c5780636456a3ee146107bf5780636ecf2b22146107d357600080fd5b80634b552a4a146106bb5780634ba2363a146106ce5780634bb48586146106e25780634be47418146107065780635b8e62e71461071957600080fd5b80633bf4045f116103165780633bf4045f146106385780633d79ab031461064b5780633f4ba83a1461067e5780633ffebce414610686578063477035d1146106a757600080fd5b80632f2ff15d146105ec578063357a0302146105ff57806336568abe1461061257806338d9feac1461062557600080fd5b806320585408116103ca578063248a9ca311610399578063248a9ca3146105735780632b71b450146105965780632bb14ff0146105aa5780632bcc3682146105d05780632e1a7d4d146105d957600080fd5b8063205854081461053a578063206c176514610544578063221dc5931461054c578063247fc3631461056057600080fd5b8063150b7a0211610411578063150b7a02146104b45780631ba6e957146104e05780631bf51b70146105015780631e4e0091146105145780631fbf7c3e1461052757600080fd5b806301ffc9a71461044357806306aac7ec1461046b5780630b7792f1146104755780630bc6bffc14610488575b600080fd5b61045661045136600461471b565b610abf565b60405190151581526020015b60405180910390f35b610473610aea565b005b610174545b604051908152602001610462565b6101645461049c906001600160a01b031681565b6040516001600160a01b039091168152602001610462565b6104c76104c2366004614770565b610b71565b6040516001600160e01b03199091168152602001610462565b61047a6104ee36600461484f565b61016e6020526000908152604090205481565b61047361050f3660046148b7565b610ca9565b610473610522366004614950565b6112b2565b610473610535366004614972565b6112cc565b61047a6101685481565b610456611385565b6101615461049c906001600160a01b031681565b61047361056e3660046148b7565b611425565b61047a610581366004614972565b600090815260c9602052604090206001015490565b6101635461049c906001600160a01b031681565b610172546105bb9063ffffffff1681565b60405163ffffffff9091168152602001610462565b6101735461047a565b6104736105e7366004614972565b611788565b6104736105fa36600461498b565b6118f4565b61047361060d3660046149bb565b611919565b61047361062036600461498b565b611a66565b610473610633366004614a01565b611ae4565b6104736106463660046148b7565b611d1c565b6101645461066690600160a81b90046001600160401b031681565b6040516001600160401b039091168152602001610462565b610473611f5e565b61047a61069436600461484f565b6101776020526000908152604090205481565b61016554610666906001600160401b031681565b6104736106c9366004614a65565b611f71565b6101785461049c906001600160a01b031681565b6104566106f036600461484f565b6101766020526000908152604090205460ff1681565b6104736107143660046149bb565b6121a8565b6104736107273660046149bb565b612418565b60335460ff16610456565b61073f612555565b6040516104629190614ab4565b61075f61075a366004614972565b6125b8565b6040805163ffffffff9b8c168152998b1660208b0152978a16978901979097529488166060880152928716608087015290861660a0860152851660c0850152841660e0840152831661010083015290911661012082015261014001610462565b6101605461049c906001600160a01b031681565b6104736107e1366004614b13565b61263f565b6101655461066690600160401b90046001600160401b031681565b61047a61080f36600461484f565b61016a6020526000908152604090205481565b610456612a16565b610456612be5565b61015f5461049c906001600160a01b031681565b61047a610854366004614b53565b61016b60209081526000928352604080842090915290825290205481565b61047a6101695481565b61047361088a366004614b96565b612c0e565b6104736130bb565b610172546105bb90640100000000900463ffffffff1681565b6104736108be36600461484f565b6130ce565b61049c6108d1366004614950565b61326d565b6104736108e4366004614972565b61328c565b6104566108f736600461498b565b613348565b61047a60008051602061514f83398151915281565b61047a600081565b6104736109273660046148b7565b613373565b61047a61093a366004614b53565b61016c60209081526000928352604080842090915290825290205481565b61047a6101715481565b61047a6101705481565b61047361097a366004614972565b613534565b6101645461099490600160a01b900460ff1681565b6040516104629190614bff565b6104736109af366004614c27565b6135c2565b61047a6109c2366004614972565b613664565b61047a6101675481565b61047a6101665481565b61047a61016d5481565b61047a6109f336600461484f565b61016f6020526000908152604090205481565b610473610a1436600461498b565b61367b565b61049c610a27366004614972565b6136a0565b610473610a3a366004614a01565b6136cb565b6101755461047a565b61047a61271081565b61047a60008051602061512f83398151915281565b610473610a7436600461484f565b613802565b610a8c610a87366004614972565b613a63565b604080516001600160a01b039093168352602083019190915201610462565b6101625461049c906001600160a01b031681565b60006001600160e01b03198216635a05180f60e01b1480610ae45750610ae482613a9c565b92915050565b610af2613ad1565b610160546001600160a01b0316336001600160a01b031614610b675760405162461bcd60e51b8152602060048201526024808201527f53656375726974697a6174696f6e506f6f6c3a204f6e6c7920746765206164646044820152637265737360e01b60648201526084015b60405180910390fd5b610b6f613b17565b565b61015f54600090610b8a906001600160a01b0316613c31565b6001600160a01b0316336001600160a01b03161480610bcf575061015f54610bba906001600160a01b0316613c3e565b6001600160a01b0316336001600160a01b0316145b610c395760405162461bcd60e51b815260206004820152603560248201527f53656375726974697a6174696f6e506f6f6c3a204d75737420626520746f6b656044820152741b881a5cdcdd595908189e48155b9d185b99db1959605a1b6064820152608401610b5e565b6101746040518060400160405280610c4e3390565b6001600160a01b039081168252602091820187905283546001818101865560009586529483902084516002909202018054919092166001600160a01b031990911617815591015191015550630a85bd0160e11b949350505050565b610cb1613ad1565b610cb9612be5565b15610cd65760405162461bcd60e51b8152600401610b5e90614c44565b60008051602061512f833981519152610cee81613c4b565b8584610cfb826005614ca2565b148015610d11575082610d0f826004614ca2565b145b610d835760405162461bcd60e51b815260206004820152603860248201527f53656375726974697a6174696f6e506f6f6c3a205269736b73636f726520706160448201527f72616d73206c656e677468206973206e6f7420657175616c00000000000000006064820152608401610b5e565b610d9061017360006146d3565b60005b818110156112a757801580610e0957508888610db0600184614cb9565b818110610dbf57610dbf614ccc565b9050602002016020810190610dd49190614c27565b63ffffffff16898983818110610dec57610dec614ccc565b9050602002016020810190610e019190614c27565b63ffffffff16115b610e6c5760405162461bcd60e51b815260206004820152602e60248201527f53656375726974697a6174696f6e506f6f6c3a205269736b2073636f7265732060448201526d1b5d5cdd081899481cdbdc9d195960921b6064820152608401610b5e565b6101736040518061014001604052808b8b85818110610e8d57610e8d614ccc565b9050602002016020810190610ea29190614c27565b63ffffffff168152602001898985818110610ebf57610ebf614ccc565b9050602002016020810190610ed49190614c27565b63ffffffff1681526020018989610eeb8787614ce2565b818110610efa57610efa614ccc565b9050602002016020810190610f0f9190614c27565b63ffffffff1681526020018989610f27876002614ca2565b610f319087614ce2565b818110610f4057610f40614ccc565b9050602002016020810190610f559190614c27565b63ffffffff1681526020018989610f6d876003614ca2565b610f779087614ce2565b818110610f8657610f86614ccc565b9050602002016020810190610f9b9190614c27565b63ffffffff1681526020018989610fb3876004614ca2565b610fbd9087614ce2565b818110610fcc57610fcc614ccc565b9050602002016020810190610fe19190614c27565b63ffffffff168152602001878785818110610ffe57610ffe614ccc565b90506020020160208101906110139190614c27565b63ffffffff168152602001878761102a8787614ce2565b81811061103957611039614ccc565b905060200201602081019061104e9190614c27565b63ffffffff1681526020018787611066876002614ca2565b6110709087614ce2565b81811061107f5761107f614ccc565b90506020020160208101906110949190614c27565b63ffffffff16815260200187876110ac876003614ca2565b6110b69087614ce2565b8181106110c5576110c5614ccc565b90506020020160208101906110da9190614c27565b63ffffffff16815250908060018154018082558091505060019003906000526020600020906002020160009091909190915060008201518160000160006101000a81548163ffffffff021916908363ffffffff16021790555060208201518160000160046101000a81548163ffffffff021916908363ffffffff16021790555060408201518160000160086101000a81548163ffffffff021916908363ffffffff160217905550606082015181600001600c6101000a81548163ffffffff021916908363ffffffff16021790555060808201518160000160106101000a81548163ffffffff021916908363ffffffff16021790555060a08201518160000160146101000a81548163ffffffff021916908363ffffffff16021790555060c08201518160000160186101000a81548163ffffffff021916908363ffffffff16021790555060e082015181600001601c6101000a81548163ffffffff021916908363ffffffff1602179055506101008201518160010160006101000a81548163ffffffff021916908363ffffffff1602179055506101208201518160010160046101000a81548163ffffffff021916908363ffffffff16021790555050506112a08160010190565b9050610d93565b505050505050505050565b60006112bd81613c4b565b6112c78383613c55565b505050565b6112d4613ad1565b61015f546112ea906001600160a01b0316613ca0565b6001600160a01b0316336001600160a01b0316148061132f575061015f5461131a906001600160a01b0316613cad565b6001600160a01b0316336001600160a01b0316145b61134b5760405162461bcd60e51b8152600401610b5e90614cf5565b806101665461135a9190614ce2565b61016655611366611385565b6113825760405162461bcd60e51b8152600401610b5e90614d6b565b50565b61015f5460009081906113a0906001600160a01b0316613cba565b604051630129ecc560e61b81523060048201529091506001600160a01b03821690634a7b314090602401602060405180830381865afa1580156113e7573d6000803e3d6000fd5b505050506040513d601f19601f8201168201806040525081019061140b9190614da2565b61017254640100000000900463ffffffff16111592915050565b61142d613ad1565b611435612be5565b156114525760405162461bcd60e51b8152600401610b5e90614c44565b60008051602061514f83398151915261146a81613c4b565b85848114801561147957508483145b6114dd5760405162461bcd60e51b815260206004820152602f60248201527f53656375726974697a6174696f6e506f6f6c3a20506172616d73206c656e677460448201526e1a08185c99481b9bdd08195c5d585b608a1b6064820152608401610b5e565b60005b818110156116015761015f546114fe906001600160a01b0316613cc7565b6001600160a01b03166384933c0c8a8a8481811061151e5761151e614ccc565b9050602002016020810190611533919061484f565b6040516001600160e01b031960e084901b1681526001600160a01b039091166004820152602401602060405180830381865afa158015611577573d6000803e3d6000fd5b505050506040513d601f19601f8201168201806040525081019061159b9190614dbb565b6115f95760405162461bcd60e51b815260206004820152602960248201527f53656375726974697a6174696f6e506f6f6c3a20756e6b6e6f776e2d746f6b656044820152686e2d6164647265737360b81b6064820152608401610b5e565b6001016114e0565b5060005b818110156116445761163c89898381811061162257611622614ccc565b9050602002016020810190611637919061484f565b613cd4565b600101611605565b5060005b8181101561174b5788888281811061166257611662614ccc565b9050602002016020810190611677919061484f565b6001600160a01b03166323b872dd88888481811061169757611697614ccc565b90506020020160208101906116ac919061484f565b308888868181106116bf576116bf614ccc565b905060200201356040518463ffffffff1660e01b81526004016116e493929190614ddd565b6020604051808303816000875af1158015611703573d6000803e3d6000fd5b505050506040513d601f19601f820116820180604052508101906117279190614dbb565b6117435760405162461bcd60e51b8152600401610b5e90614e01565b600101611648565b50610165546001600160401b031660000361177e57610165805467ffffffffffffffff1916426001600160401b03161790555b5050505050505050565b611790613ad1565b611798613d67565b60008051602061514f8339815191526117b081613c4b565b610167548083116117ce576117c58382614cb9565b610167556117d5565b6000610167555b82610166546117e49190614cb9565b610166556117f0611385565b61180c5760405162461bcd60e51b8152600401610b5e90614d6b565b61016454610178546040516323b872dd60e01b81526001600160a01b03928316926323b872dd926118469291169033908890600401614ddd565b6020604051808303816000875af1158015611865573d6000803e3d6000fd5b505050506040513d601f19601f820116820180604052508101906118899190614dbb565b6118a55760405162461bcd60e51b8152600401610b5e90614e01565b7f884edad9ce6fa2440d8a54cc123490eb96d2768479d49ff9c7366125a942436433604080516001600160a01b039092168252602082018690520160405180910390a150506113826001606555565b600082815260c9602052604090206001015461190f81613c4b565b6112c78383613dc7565b611921613ad1565b61015f54611937906001600160a01b0316613cad565b6001600160a01b0316336001600160a01b0316146119675760405162461bcd60e51b8152600401610b5e90614e44565b6001600160a01b03808516600090815261016b6020908152604080832093871683529290522054611999908390614ce2565b6001600160a01b03808616600081815261016b602090815260408083209489168084529482528083209590955591815261016c825283812092815291905220546119e4908290614ce2565b6001600160a01b03808616600090815261016c602090815260408083209388168352929052205561016954611a1a908390614ce2565b610169556001600160a01b038416600090815261016a6020526040902054611a43908290614ce2565b6001600160a01b03909416600090815261016a6020526040902093909355505050565b6001600160a01b0381163314611ad65760405162461bcd60e51b815260206004820152602f60248201527f416363657373436f6e74726f6c3a2063616e206f6e6c792072656e6f756e636560448201526e103937b632b9903337b91039b2b63360891b6064820152608401610b5e565b611ae08282613de9565b5050565b611aec613ad1565b60008051602061514f833981519152611b0481613c4b565b8160005b81811015611b9b57866001600160a01b03166342842e0e8730888886818110611b3357611b33614ccc565b905060200201356040518463ffffffff1660e01b8152600401611b5893929190614ddd565b600060405180830381600087803b158015611b7257600080fd5b505af1158015611b86573d6000803e3d6000fd5b50505050611b948160010190565b9050611b08565b5061015f546000908190611bb7906001600160a01b0316613cba565b905060005b83811015611c7f57816001600160a01b03166319c03937308b8a8a86818110611be757611be7614ccc565b6040516001600160e01b031960e088901b1681526001600160a01b03958616600482015294909316602485015250602090910201356044820152426064820152608401602060405180830381865afa158015611c47573d6000803e3d6000fd5b505050506040513d601f19601f82011682018060405250810190611c6b9190614da2565b611c759084614ce2565b9250600101611bbc565b50816101676000828254611c939190614ce2565b909155505061016454600160a81b90046001600160401b0316600003611ce157610164805467ffffffffffffffff60a81b1916600160a81b426001600160401b031602179055611ce1613b17565b610165546001600160401b031660000361177e575050610165805467ffffffffffffffff1916426001600160401b0316179055505050505050565b611d24613ad1565b611d2c613d67565b60008051602061512f833981519152611d4481613c4b565b85848114611d645760405162461bcd60e51b8152600401610b5e90614e91565b808314611d835760405162461bcd60e51b8152600401610b5e90614eee565b60005b81811015611f495761017660008a8a84818110611da557611da5614ccc565b9050602002016020810190611dba919061484f565b6001600160a01b0316815260208101919091526040016000205460ff16611e3f5760405162461bcd60e51b815260206004820152603360248201527f53656375726974697a6174696f6e506f6f6c3a206e6f746520746f6b656e20616044820152721cdcd95d08191bd95cc81b9bdd08195e1a5cdd606a1b6064820152608401610b5e565b888882818110611e5157611e51614ccc565b9050602002016020810190611e66919061484f565b6001600160a01b031663a9059cbb888884818110611e8657611e86614ccc565b9050602002016020810190611e9b919061484f565b878785818110611ead57611ead614ccc565b6040516001600160e01b031960e087901b1681526001600160a01b03909416600485015260200291909101356024830152506044016020604051808303816000875af1158015611f01573d6000803e3d6000fd5b505050506040513d601f19601f82011682018060405250810190611f259190614dbb565b611f415760405162461bcd60e51b8152600401610b5e90614e01565b600101611d86565b505050611f566001606555565b505050505050565b6000611f6981613c4b565b611382613e0b565b611f79613ad1565b61015f54611f8f906001600160a01b0316613ca0565b6001600160a01b0316336001600160a01b0316146120065760405162461bcd60e51b815260206004820152602e60248201527f53656375726974697a6174696f6e506f6f6c3a204f6e6c79205365637572697460448201526d34bd30ba34b7b726b0b730b3b2b960911b6064820152608401610b5e565b600261016454600160a01b900460ff16600381111561202757612027614be9565b141580156120545750600361016454600160a01b900460ff16600381111561205157612051614be9565b14155b6120a05760405162461bcd60e51b815260206004820152601a60248201527f4e6f7420696e2069737375696e6720746f6b656e2073746167650000000000006044820152606401610b5e565b6001600160a01b038316158015906120c057506001600160a01b03821615155b61210c5760405162461bcd60e51b815260206004820181905260248201527f53656375726974697a6174696f6e506f6f6c3a2041646472657373207a65726f6044820152606401610b5e565b600081600181111561212057612120614be9565b0361215c5761016080546001600160a01b038086166001600160a01b03199283161790925561016280549285169290911691909117905561218f565b61016180546001600160a01b038086166001600160a01b0319928316179092556101638054928516929091169190911790555b5050610164805460ff60a01b1916600160a01b17905550565b6121b0613ad1565b6121b8613d67565b61015f546121ce906001600160a01b0316613e5d565b6001600160a01b0316336001600160a01b03161461224d5760405162461bcd60e51b815260206004820152603660248201527f53656375726974697a6174696f6e506f6f6c3a2043616c6c6572206d75737420604482015275626520446973747269627574696f6e5472616e63686560501b6064820152608401610b5e565b610162546001600160a01b03808516911603612292576001600160a01b038416600090815261017760205260408120805484929061228c908490614ce2565b90915550505b81610166546122a19190614cb9565b61016655801561230657604051630852cd8d60e31b8152600481018290526001600160a01b038416906342966c6890602401600060405180830381600087803b1580156122ed57600080fd5b505af1158015612301573d6000803e3d6000fd5b505050505b61230e611385565b61232a5760405162461bcd60e51b8152600401610b5e90614d6b565b61016454610178546040516323b872dd60e01b81526001600160a01b03928316926323b872dd926123649291169088908790600401614ddd565b6020604051808303816000875af1158015612383573d6000803e3d6000fd5b505050506040513d601f19601f820116820180604052508101906123a79190614dbb565b6124085760405162461bcd60e51b815260206004820152602c60248201527f53656375726974697a6174696f6e506f6f6c3a2063757272656e63792d74726160448201526b1b9cd9995c8b59985a5b195960a21b6064820152608401610b5e565b6124126001606555565b50505050565b612420613ad1565b61015f54612436906001600160a01b0316613cad565b6001600160a01b0316336001600160a01b0316146124665760405162461bcd60e51b8152600401610b5e90614e44565b6001600160a01b03808516600090815261016b6020908152604080832093871683529290522054612498908390614cb9565b6001600160a01b03808616600081815261016b602090815260408083209489168084529482528083209590955591815261016c825283812092815291905220546124e3908290614cb9565b6001600160a01b03808616600090815261016c602090815260408083209388168352929052205561016954612519908390614cb9565b610169556101685461252c908390614ce2565b610168556001600160a01b038416600090815261016a6020526040902054611a43908290614cb9565b60606101758054806020026020016040519081016040528092919081815260200182805480156125ae57602002820191906000526020600020905b81546001600160a01b03168152600190910190602001808311612590575b5050505050905090565b61017381815481106125c957600080fd5b60009182526020909120600290910201805460019091015463ffffffff8083169350640100000000808404821693600160401b8104831693600160601b8204841693600160801b8304811693600160a01b8404821693600160c01b8104831693600160e01b90910483169281811692909104168a565b600054610100900460ff161580801561265f5750600054600160ff909116105b806126795750303b158015612679575060005460ff166001145b6126dc5760405162461bcd60e51b815260206004820152602e60248201527f496e697469616c697a61626c653a20636f6e747261637420697320616c72656160448201526d191e481a5b9a5d1a585b1a5e995960921b6064820152608401610b5e565b6000805460ff1916600117905580156126ff576000805461ff0019166101001790555b61270c6127106064614ca2565b8263ffffffff16106127705760405162461bcd60e51b815260206004820152602760248201527f6d696e46697273744c6f737343757368696f6e20697320677265617465722074604482015266068616e203130360cc1b6064820152608401610b5e565b6001600160a01b0383166127d25760405162461bcd60e51b8152602060048201526024808201527f53656375726974697a6174696f6e506f6f6c3a20496e76616c69642063757272604482015263656e637960e01b6064820152608401610b5e565b6127db33613e6a565b61280160008051602061514f83398151915260008051602061512f833981519152613c55565b61015f80546001600160a01b038681166001600160a01b03199283161790925561016480549286166001600160a81b031990931683179055610172805463ffffffff86166401000000000267ffffffff000000001990911617905561017880549091163090811790915560405163095ea7b360e01b81526004810191909152600019602482015263095ea7b3906044016020604051808303816000875af11580156128b0573d6000803e3d6000fd5b505050506040513d601f19601f820116820180604052508101906128d49190614dbb565b6129355760405162461bcd60e51b815260206004820152602c60248201527f53656375726974697a6174696f6e506f6f6c3a2043757272656e63792061707060448201526b1c9bdd985b0819985a5b195960a21b6064820152608401610b5e565b61015f5461294b906001600160a01b0316613c3e565b61015f546001600160a01b039182169163a22cb4659161296b9116613e9a565b6040516001600160e01b031960e084901b1681526001600160a01b03909116600482015260016024820152604401600060405180830381600087803b1580156129b357600080fd5b505af11580156129c7573d6000803e3d6000fd5b505050508015612412576000805461ff0019169055604051600181527f7f26b83ff96e1f2b6a682f133852f6798a09c465da95921460cefb38474024989060200160405180910390a150505050565b610162546000906001600160a01b031615612afc5761016260009054906101000a90046001600160a01b03166001600160a01b03166318160ddd6040518163ffffffff1660e01b8152600401602060405180830381865afa158015612a7f573d6000803e3d6000fd5b505050506040513d601f19601f82011682018060405250810190612aa39190614da2565b15612afc5760405162461bcd60e51b8152602060048201526024808201527f53656375726974697a6174696f6e506f6f6c3a20534f54207374696c6c20726560448201526336b0b4b760e11b6064820152608401610b5e565b610163546001600160a01b031615612bdf5761016360009054906101000a90046001600160a01b03166001600160a01b03166318160ddd6040518163ffffffff1660e01b8152600401602060405180830381865afa158015612b62573d6000803e3d6000fd5b505050506040513d601f19601f82011682018060405250810190612b869190614da2565b15612bdf5760405162461bcd60e51b8152602060048201526024808201527f53656375726974697a6174696f6e506f6f6c3a204a4f54207374696c6c20726560448201526336b0b4b760e11b6064820152608401610b5e565b50600190565b6000600361016454600160a01b900460ff166003811115612c0857612c08614be9565b14905090565b612c16613ad1565b612c1e613d67565b60008051602061512f833981519152612c3681613c4b565b600261016454600160a01b900460ff166003811115612c5757612c57614be9565b14158015612c845750600361016454600160a01b900460ff166003811115612c8157612c81614be9565b14155b612cd05760405162461bcd60e51b815260206004820152601a60248201527f4e6f7420696e2069737375696e6720746f6b656e2073746167650000000000006044820152606401610b5e565b6000856001600160401b031611612d355760405162461bcd60e51b8152602060048201526024808201527f53656375726974697a6174696f6e506f6f6c3a205465726d206c656e677468206044820152630697320360e41b6064820152608401610b5e565b61016580546fffffffffffffffff00000000000000001916600160401b6001600160401b03881602179055610170849055610164805460ff60a01b1916600160a11b179055610160546001600160a01b031615612f5657610160546040516351c5295360e11b815263ffffffff851660048201526001600160401b038088166024830152841660448201526001600160a01b0390911690819063a38a52a690606401600060405180830381600087803b158015612df157600080fd5b505af1158015612e05573d6000803e3d6000fd5b50505050806001600160a01b031663b3f05b976040518163ffffffff1660e01b8152600401602060405180830381865afa158015612e47573d6000803e3d6000fd5b505050506040513d601f19601f82011682018060405250810190612e6b9190614dbb565b612ed75761017854604051632b8093bd60e01b8152600060048201526001600160a01b03918216602482015290821690632b8093bd90604401600060405180830381600087803b158015612ebe57600080fd5b505af1158015612ed2573d6000803e3d6000fd5b505050505b806001600160a01b0316631f0b10c56040518163ffffffff1660e01b8152600401602060405180830381865afa158015612f15573d6000803e3d6000fd5b505050506040513d601f19601f82011682018060405250810190612f399190614f4b565b610172805463ffffffff191663ffffffff92909216919091179055505b610161546001600160a01b0316156130b0576101615461017854604051632b8093bd60e01b8152600060048201526001600160a01b039182166024820152911690632b8093bd90604401600060405180830381600087803b158015612fba57600080fd5b505af1158015612fce573d6000803e3d6000fd5b5050505061016160009054906101000a90046001600160a01b03166001600160a01b031663b3f05b976040518163ffffffff1660e01b8152600401602060405180830381865afa158015613026573d6000803e3d6000fd5b505050506040513d601f19601f8201168201806040525081019061304a9190614dbb565b6130b05760405162461bcd60e51b815260206004820152603160248201527f53656375726974697a6174696f6e506f6f6c3a207365636f6e642073616c65206044820152706973207374696c6c206f6e20676f696e6760781b6064820152608401610b5e565b506124126001606555565b60006130c681613c4b565b611382613ea7565b6130d6613ad1565b6130de613d67565b60008051602061512f8339815191526130f681613c4b565b6130fe612a16565b6131625760405162461bcd60e51b815260206004820152602f60248201527f53656375726974697a6174696f6e506f6f6c3a20526564656d7074696f6e206860448201526e185cc81b9bdd08199a5b9a5cda1959608a1b6064820152608401610b5e565b61016454610178546040516370a0823160e01b81526001600160a01b0391821660048201819052919092169182916323b872dd91869084906370a0823190602401602060405180830381865afa1580156131c0573d6000803e3d6000fd5b505050506040513d601f19601f820116820180604052508101906131e49190614da2565b6040518463ffffffff1660e01b815260040161320293929190614ddd565b6020604051808303816000875af1158015613221573d6000803e3d6000fd5b505050506040513d601f19601f820116820180604052508101906132459190614dbb565b6132615760405162461bcd60e51b8152600401610b5e90614e01565b50506113826001606555565b600082815260fb602052604081206132859083613ee4565b9392505050565b613294613ad1565b61015f546132aa906001600160a01b0316613ef0565b6001600160a01b0316336001600160a01b03161461331f5760405162461bcd60e51b815260206004820152602c60248201527f53656375726974697a6174696f6e506f6f6c3a204f6e6c79204c6f616e52657060448201526b30bcb6b2b73a2937baba32b960a11b6064820152608401610b5e565b806101665461332e9190614ce2565b6101665561016d54613341908290614ce2565b61016d5550565b600091825260c9602090815260408084206001600160a01b0393909316845291905290205460ff1690565b61337b613ad1565b613383613d67565b60008051602061512f83398151915261339b81613c4b565b838681146133bb5760405162461bcd60e51b8152600401610b5e90614e91565b8683146133da5760405162461bcd60e51b8152600401610b5e90614eee565b60005b818110156134515761342d8989838181106133fa576133fa614ccc565b905060200201602081019061340f919061484f565b88888481811061342157613421614ccc565b90506020020135613efd565b6134495760405162461bcd60e51b8152600401610b5e90614f68565b6001016133dd565b5060005b81811015611f495788888281811061346f5761346f614ccc565b9050602002016020810190613484919061484f565b6001600160a01b03166342842e0e308787858181106134a5576134a5614ccc565b90506020020160208101906134ba919061484f565b8a8a868181106134cc576134cc614ccc565b905060200201356040518463ffffffff1660e01b81526004016134f193929190614ddd565b600060405180830381600087803b15801561350b57600080fd5b505af115801561351f573d6000803e3d6000fd5b5050505061352d8160010190565b9050613455565b61353c613ad1565b61015f54613552906001600160a01b0316613ca0565b6001600160a01b0316336001600160a01b03161480613597575061015f54613582906001600160a01b0316613cad565b6001600160a01b0316336001600160a01b0316145b6135b35760405162461bcd60e51b8152600401610b5e90614cf5565b806101665461135a9190614cb9565b6135ca613ad1565b610160546001600160a01b0316336001600160a01b0316146136475760405162461bcd60e51b815260206004820152603060248201527f53656375726974697a6174696f6e506f6f6c3a204f6e6c79207467652063616e60448201526f081d5c19185d19481a5b9d195c995cdd60821b6064820152608401610b5e565b610172805463ffffffff191663ffffffff92909216919091179055565b600081815260fb60205260408120610ae490613fa3565b600082815260c9602052604090206001015461369681613c4b565b6112c78383613de9565b61017581815481106136b157600080fd5b6000918252602090912001546001600160a01b0316905081565b6136d3613ad1565b6136db613d67565b6136e3612be5565b156137005760405162461bcd60e51b8152600401610b5e90614c44565b60008051602061512f83398151915261371881613c4b565b8160005b8181101561375e5761373a8786868481811061342157613421614ccc565b6137565760405162461bcd60e51b8152600401610b5e90614f68565b60010161371c565b5060005b818110156137f557866001600160a01b03166342842e0e308888888681811061378d5761378d614ccc565b905060200201356040518463ffffffff1660e01b81526004016137b293929190614ddd565b600060405180830381600087803b1580156137cc57600080fd5b505af11580156137e0573d6000803e3d6000fd5b505050506137ee8160010190565b9050613762565b5050506124126001606555565b61380a613ad1565b613812613d67565b61381a612be5565b156138375760405162461bcd60e51b8152600401610b5e90614c44565b60008051602061512f83398151915261384f81613c4b565b61386760008051602061512f83398151915283613348565b1561387157600080fd5b610178546001600160a01b038084169116036138e95760405162461bcd60e51b815260206004820152603160248201527f53656375726974697a6174696f6e506f6f6c3a2053616d652061646472657373604482015270081dda5d1a0818dd5c9c995b9d081c1bdd607a1b6064820152608401610b5e565b61017880546001600160a01b0319166001600160a01b0384169081179091553090036139e357610164546101785460405163095ea7b360e01b81526001600160a01b039182166004820152600019602482015291169063095ea7b3906044016020604051808303816000875af1158015613967573d6000803e3d6000fd5b505050506040513d601f19601f8201168201806040525081019061398b9190614dbb565b6139e35760405162461bcd60e51b8152602060048201526024808201527f53656375726974697a6174696f6e506f6f6c3a20506f74206e6f7420617070726044820152631bdd995960e21b6064820152608401610b5e565b61015f546139f9906001600160a01b0316613ca0565b6101785460405163dc90f9fd60e01b81526001600160a01b03918216600482015291169063dc90f9fd90602401600060405180830381600087803b158015613a4057600080fd5b505af1158015613a54573d6000803e3d6000fd5b50505050506113826001606555565b6101748181548110613a7457600080fd5b6000918252602090912060029091020180546001909101546001600160a01b03909116915082565b60006001600160e01b03198216637965db0b60e01b1480610ae457506301ffc9a760e01b6001600160e01b0319831614610ae4565b60335460ff1615610b6f5760405162461bcd60e51b815260206004820152601060248201526f14185d5cd8589b194e881c185d5cd95960821b6044820152606401610b5e565b610160546001600160a01b0316613b2a57565b6101605460408051639b52fe3360e01b815290516000926001600160a01b031691639b52fe339160048083019260209291908290030181865afa158015613b75573d6000803e3d6000fd5b505050506040513d601f19601f82011682018060405250810190613b999190614fb0565b610164549091506001600160401b03600160a81b909104811690821615801590613bcc57506000816001600160401b0316115b15611ae057816001600160401b0316816001600160401b03161115613c0e5761016580546001600160401b03831667ffffffffffffffff199091161790555050565b61016580546001600160401b03841667ffffffffffffffff199091161790555050565b6000610ae4826009613fad565b6000610ae4826008613fad565b6113828133614032565b600082815260c96020526040808220600101805490849055905190918391839186917fbd79b86ffe0ab8e8776151514217cd7cacd52c909f66475c3af44e129f0b00ff9190a4505050565b6000610ae4826000613fad565b6000610ae4826005613fad565b6000610ae4826011613fad565b6000610ae4826002613fad565b6001600160a01b0381166000908152610176602052604090205460ff16613d425761017580546001810182556000919091527f94b016e6b5eafb28c9d47c3523378ec087cc0ead8b7eff2840605504c1f1ac6f0180546001600160a01b0319166001600160a01b0383161790555b6001600160a01b0316600090815261017660205260409020805460ff19166001179055565b600260655403613db95760405162461bcd60e51b815260206004820152601f60248201527f5265656e7472616e637947756172643a207265656e7472616e742063616c6c006044820152606401610b5e565b6002606555565b6001606555565b613dd1828261408b565b600082815260fb602052604090206112c79082614111565b613df38282614126565b600082815260fb602052604090206112c7908261418d565b613e136141a2565b6033805460ff191690557f5db9ee0a495bf2e6ff9c91a7834c1ba4fdd244a5e8aa4e537bd38aeae4b073aa335b6040516001600160a01b03909116815260200160405180910390a1565b6000610ae4826007613fad565b600054610100900460ff16613e915760405162461bcd60e51b8152600401610b5e90614fcd565b611382816141eb565b6000610ae482600d613fad565b613eaf613ad1565b6033805460ff191660011790557f62e78cea01bee320cd4e420270b5ea74000d11b0c9f74754ebdbfc544b05a258613e403390565b60006132858383614276565b6000610ae482600c613fad565b61017454600090815b81811015613f9857846001600160a01b03166101748281548110613f2c57613f2c614ccc565b60009182526020909120600290910201546001600160a01b0316148015613f775750836101748281548110613f6357613f63614ccc565b906000526020600020906002020160010154145b15613f9057613f85816142a0565b600192505050610ae4565b600101613f06565b506000949350505050565b6000610ae4825490565b6000826001600160a01b031663bcaa0c55836019811115613fd057613fd0614be9565b6040516001600160e01b031960e084901b16815260ff9091166004820152602401602060405180830381865afa15801561400e573d6000803e3d6000fd5b505050506040513d601f19601f820116820180604052508101906132859190615018565b61403c8282613348565b611ae05761404981614359565b61405483602061436b565b604051602001614065929190615059565b60408051601f198184030181529082905262461bcd60e51b8252610b5e916004016150ce565b6140958282613348565b611ae057600082815260c9602090815260408083206001600160a01b03851684529091529020805460ff191660011790556140cd3390565b6001600160a01b0316816001600160a01b0316837f2f8788117e7eff1d82e926ec794901d17c78024a50270940304540a733656f0d60405160405180910390a45050565b6000613285836001600160a01b038416614506565b6141308282613348565b15611ae057600082815260c9602090815260408083206001600160a01b0385168085529252808320805460ff1916905551339285917ff6391f5c32d9c69d2a47ea670b442974b53935d1edc7fd64eb21e047a839171b9190a45050565b6000613285836001600160a01b038416614555565b60335460ff16610b6f5760405162461bcd60e51b815260206004820152601460248201527314185d5cd8589b194e881b9bdd081c185d5cd95960621b6044820152606401610b5e565b600054610100900460ff166142125760405162461bcd60e51b8152600401610b5e90614fcd565b61421a614648565b61422261467b565b61422a6146a2565b6001600160a01b03811661423b5750335b6142466000826146c9565b61425e60008051602061512f833981519152826146c9565b61138260008051602061512f83398151915280613c55565b600082600001828154811061428d5761428d614ccc565b9060005260206000200154905092915050565b61017480546142b190600190614cb9565b815481106142c1576142c1614ccc565b906000526020600020906002020161017482815481106142e3576142e3614ccc565b60009182526020909120825460029092020180546001600160a01b0319166001600160a01b0390921691909117815560019182015491015561017480548061432d5761432d615101565b60008281526020812060026000199093019283020180546001600160a01b031916815560010155905550565b6060610ae46001600160a01b03831660145b6060600061437a836002614ca2565b614385906002614ce2565b6001600160401b0381111561439c5761439c61475a565b6040519080825280601f01601f1916602001820160405280156143c6576020820181803683370190505b509050600360fc1b816000815181106143e1576143e1614ccc565b60200101906001600160f81b031916908160001a905350600f60fb1b8160018151811061441057614410614ccc565b60200101906001600160f81b031916908160001a9053506000614434846002614ca2565b61443f906001614ce2565b90505b60018111156144b7576f181899199a1a9b1b9c1cb0b131b232b360811b85600f166010811061447357614473614ccc565b1a60f81b82828151811061448957614489614ccc565b60200101906001600160f81b031916908160001a90535060049490941c936144b081615117565b9050614442565b5083156132855760405162461bcd60e51b815260206004820181905260248201527f537472696e67733a20686578206c656e67746820696e73756666696369656e746044820152606401610b5e565b600081815260018301602052604081205461454d57508154600181810184556000848152602080822090930184905584548482528286019093526040902091909155610ae4565b506000610ae4565b6000818152600183016020526040812054801561463e576000614579600183614cb9565b855490915060009061458d90600190614cb9565b90508181146145f25760008660000182815481106145ad576145ad614ccc565b90600052602060002001549050808760000184815481106145d0576145d0614ccc565b6000918252602080832090910192909255918252600188019052604090208390555b855486908061460357614603615101565b600190038181906000526020600020016000905590558560010160008681526020019081526020016000206000905560019350505050610ae4565b6000915050610ae4565b600054610100900460ff1661466f5760405162461bcd60e51b8152600401610b5e90614fcd565b6033805460ff19169055565b600054610100900460ff16613dc05760405162461bcd60e51b8152600401610b5e90614fcd565b600054610100900460ff16610b6f5760405162461bcd60e51b8152600401610b5e90614fcd565b611ae08282613dc7565b508054600082556002029060005260206000209081019061138291905b80821115614717576000815560018101805467ffffffffffffffff191690556002016146f0565b5090565b60006020828403121561472d57600080fd5b81356001600160e01b03198116811461328557600080fd5b6001600160a01b038116811461138257600080fd5b634e487b7160e01b600052604160045260246000fd5b6000806000806080858703121561478657600080fd5b843561479181614745565b935060208501356147a181614745565b92506040850135915060608501356001600160401b03808211156147c457600080fd5b818701915087601f8301126147d857600080fd5b8135818111156147ea576147ea61475a565b604051601f8201601f19908116603f011681019083821181831017156148125761481261475a565b816040528281528a602084870101111561482b57600080fd5b82602086016020830137600060208483010152809550505050505092959194509250565b60006020828403121561486157600080fd5b813561328581614745565b60008083601f84011261487e57600080fd5b5081356001600160401b0381111561489557600080fd5b6020830191508360208260051b85010111156148b057600080fd5b9250929050565b600080600080600080606087890312156148d057600080fd5b86356001600160401b03808211156148e757600080fd5b6148f38a838b0161486c565b9098509650602089013591508082111561490c57600080fd5b6149188a838b0161486c565b9096509450604089013591508082111561493157600080fd5b5061493e89828a0161486c565b979a9699509497509295939492505050565b6000806040838503121561496357600080fd5b50508035926020909101359150565b60006020828403121561498457600080fd5b5035919050565b6000806040838503121561499e57600080fd5b8235915060208301356149b081614745565b809150509250929050565b600080600080608085870312156149d157600080fd5b84356149dc81614745565b935060208501356149ec81614745565b93969395505050506040820135916060013590565b60008060008060608587031215614a1757600080fd5b8435614a2281614745565b93506020850135614a3281614745565b925060408501356001600160401b03811115614a4d57600080fd5b614a598782880161486c565b95989497509550505050565b600080600060608486031215614a7a57600080fd5b8335614a8581614745565b92506020840135614a9581614745565b9150604084013560028110614aa957600080fd5b809150509250925092565b6020808252825182820181905260009190848201906040850190845b81811015614af55783516001600160a01b031683529284019291840191600101614ad0565b50909695505050505050565b63ffffffff8116811461138257600080fd5b600080600060608486031215614b2857600080fd5b8335614b3381614745565b92506020840135614b4381614745565b91506040840135614aa981614b01565b60008060408385031215614b6657600080fd5b8235614b7181614745565b915060208301356149b081614745565b6001600160401b038116811461138257600080fd5b60008060008060808587031215614bac57600080fd5b8435614bb781614b81565b9350602085013592506040850135614bce81614b01565b91506060850135614bde81614b81565b939692955090935050565b634e487b7160e01b600052602160045260246000fd5b6020810160048310614c2157634e487b7160e01b600052602160045260246000fd5b91905290565b600060208284031215614c3957600080fd5b813561328581614b01565b60208082526028908201527f53656375726974697a6174696f6e506f6f6c3a20506f6f6c20696e20636c6f73604082015267656420737461746560c01b606082015260800190565b634e487b7160e01b600052601160045260246000fd5b8082028115828204841417610ae457610ae4614c8c565b81810381811115610ae457610ae4614c8c565b634e487b7160e01b600052603260045260246000fd5b80820180821115610ae457610ae4614c8c565b60208082526050908201527f53656375726974697a6174696f6e506f6f6c3a2043616c6c6572206d7573742060408201527f62652053656375726974697a6174696f6e4d616e61676572206f72204469737460608201526f3934b13aba34b7b727b832b930ba37b960811b608082015260a00190565b6020808252601d908201527f4d696e46697273744c6f7373206973206e6f7420736174697366696564000000604082015260600190565b600060208284031215614db457600080fd5b5051919050565b600060208284031215614dcd57600080fd5b8151801515811461328557600080fd5b6001600160a01b039384168152919092166020820152604081019190915260600190565b60208082526023908201527f53656375726974697a6174696f6e506f6f6c3a205472616e73666572206661696040820152621b195960ea1b606082015260800190565b6020808252602d908201527f53656375726974697a6174696f6e506f6f6c3a204f6e6c79204469737472696260408201526c3aba34b7b727b832b930ba37b960991b606082015260800190565b60208082526037908201527f746f6b656e416464726573736573206c656e67746820616e6420746f6b656e4960408201527f6473206c656e67746820617265206e6f7420657175616c000000000000000000606082015260800190565b60208082526039908201527f746f6b656e416464726573736573206c656e67746820616e642072656369706960408201527f656e7473206c656e67746820617265206e6f7420657175616c00000000000000606082015260800190565b600060208284031215614f5d57600080fd5b815161328581614b01565b60208082526028908201527f53656375726974697a6174696f6e506f6f6c3a20417373657420646f6573206e6040820152671bdd08195e1a5cdd60c21b606082015260800190565b600060208284031215614fc257600080fd5b815161328581614b81565b6020808252602b908201527f496e697469616c697a61626c653a20636f6e7472616374206973206e6f74206960408201526a6e697469616c697a696e6760a81b606082015260800190565b60006020828403121561502a57600080fd5b815161328581614745565b60005b83811015615050578181015183820152602001615038565b50506000910152565b7f416363657373436f6e74726f6c3a206163636f756e7420000000000000000000815260008351615091816017850160208801615035565b7001034b99036b4b9b9b4b733903937b6329607d1b60179184019182015283516150c2816028840160208801615035565b01602801949350505050565b60208152600082518060208401526150ed816040850160208701615035565b601f01601f19169190910160400192915050565b634e487b7160e01b600052603160045260246000fd5b60008161512657615126614c8c565b50600019019056feb19546dff01e856fb3f010c267a7b1c60363cf8a4664e21cc89c26224620214e59abfac6520ec36a6556b2a4dd949cc40007459bcd5cd2507f1e5cc77b6bc97ea2646970667358221220ed90a202ca3cb4c64406d6e8bb9bc54d858328b1e04501e29694030d24a7031064736f6c63430008130033"
}