{
  "address": "0x9A8CeA7BC5594e8C230fbbEAB2976618F6775360",
  "abi": [
    {
      "anonymous": false,
      "inputs": [
        {
          "indexed": false,
          "internalType": "uint8",
          "name": "version",
          "type": "uint8"
        }
      ],
      "name": "Initialized",
      "type": "event"
    },
    {
      "anonymous": false,
      "inputs": [
        {
          "indexed": false,
          "internalType": "address",
          "name": "account",
          "type": "address"
        }
      ],
      "name": "Paused",
      "type": "event"
    },
    {
      "anonymous": false,
      "inputs": [
        {
          "indexed": true,
          "internalType": "bytes32",
          "name": "role",
          "type": "bytes32"
        },
        {
          "indexed": true,
          "internalType": "bytes32",
          "name": "previousAdminRole",
          "type": "bytes32"
        },
        {
          "indexed": true,
          "internalType": "bytes32",
          "name": "newAdminRole",
          "type": "bytes32"
        }
      ],
      "name": "RoleAdminChanged",
      "type": "event"
    },
    {
      "anonymous": false,
      "inputs": [
        {
          "indexed": true,
          "internalType": "bytes32",
          "name": "role",
          "type": "bytes32"
        },
        {
          "indexed": true,
          "internalType": "address",
          "name": "account",
          "type": "address"
        },
        {
          "indexed": true,
          "internalType": "address",
          "name": "sender",
          "type": "address"
        }
      ],
      "name": "RoleGranted",
      "type": "event"
    },
    {
      "anonymous": false,
      "inputs": [
        {
          "indexed": true,
          "internalType": "bytes32",
          "name": "role",
          "type": "bytes32"
        },
        {
          "indexed": true,
          "internalType": "address",
          "name": "account",
          "type": "address"
        },
        {
          "indexed": true,
          "internalType": "address",
          "name": "sender",
          "type": "address"
        }
      ],
      "name": "RoleRevoked",
      "type": "event"
    },
    {
      "anonymous": false,
      "inputs": [
        {
          "indexed": false,
          "internalType": "address",
          "name": "account",
          "type": "address"
        }
      ],
      "name": "Unpaused",
      "type": "event"
    },
    {
      "anonymous": false,
      "inputs": [
        {
          "indexed": false,
          "internalType": "address",
          "name": "originatorAddress",
          "type": "address"
        },
        {
          "indexed": false,
          "internalType": "uint256",
          "name": "amount",
          "type": "uint256"
        }
      ],
      "name": "Withdraw",
      "type": "event"
    },
    {
      "inputs": [],
      "name": "DEFAULT_ADMIN_ROLE",
      "outputs": [
        {
          "internalType": "bytes32",
          "name": "",
          "type": "bytes32"
        }
      ],
      "stateMutability": "view",
      "type": "function"
    },
    {
      "inputs": [],
      "name": "ORIGINATOR_ROLE",
      "outputs": [
        {
          "internalType": "bytes32",
          "name": "",
          "type": "bytes32"
        }
      ],
      "stateMutability": "view",
      "type": "function"
    },
    {
      "inputs": [],
      "name": "OWNER_ROLE",
      "outputs": [
        {
          "internalType": "bytes32",
          "name": "",
          "type": "bytes32"
        }
      ],
      "stateMutability": "view",
      "type": "function"
    },
    {
      "inputs": [],
      "name": "RATE_SCALING_FACTOR",
      "outputs": [
        {
          "internalType": "uint256",
          "name": "",
          "type": "uint256"
        }
      ],
      "stateMutability": "view",
      "type": "function"
    },
    {
      "inputs": [],
      "name": "amountOwedToOriginator",
      "outputs": [
        {
          "internalType": "uint256",
          "name": "",
          "type": "uint256"
        }
      ],
      "stateMutability": "view",
      "type": "function"
    },
    {
      "inputs": [],
      "name": "checkMinFirstLost",
      "outputs": [
        {
          "internalType": "bool",
          "name": "",
          "type": "bool"
        }
      ],
      "stateMutability": "view",
      "type": "function"
    },
    {
      "inputs": [
        {
          "internalType": "address",
          "name": "recipientWallet",
          "type": "address"
        }
      ],
      "name": "claimCashRemain",
      "outputs": [],
      "stateMutability": "nonpayable",
      "type": "function"
    },
    {
      "inputs": [
        {
          "internalType": "address",
          "name": "tokenAddress",
          "type": "address"
        },
        {
          "internalType": "address",
          "name": "from",
          "type": "address"
        },
        {
          "internalType": "uint256[]",
          "name": "tokenIds",
          "type": "uint256[]"
        }
      ],
      "name": "collectAssets",
      "outputs": [],
      "stateMutability": "nonpayable",
      "type": "function"
    },
    {
      "inputs": [
        {
          "internalType": "address[]",
          "name": "tokenAddresses",
          "type": "address[]"
        },
        {
          "internalType": "address[]",
          "name": "senders",
          "type": "address[]"
        },
        {
          "internalType": "uint256[]",
          "name": "amounts",
          "type": "uint256[]"
        }
      ],
      "name": "collectERC20Assets",
      "outputs": [],
      "stateMutability": "nonpayable",
      "type": "function"
    },
    {
      "inputs": [
        {
          "internalType": "address",
          "name": "tokenAddress",
          "type": "address"
        },
        {
          "internalType": "address",
          "name": "investor",
          "type": "address"
        },
        {
          "internalType": "uint256",
          "name": "currency",
          "type": "uint256"
        },
        {
          "internalType": "uint256",
          "name": "token",
          "type": "uint256"
        }
      ],
      "name": "decreaseLockedDistributeBalance",
      "outputs": [],
      "stateMutability": "nonpayable",
      "type": "function"
    },
    {
      "inputs": [
        {
          "internalType": "uint256",
          "name": "currencyAmount",
          "type": "uint256"
        }
      ],
      "name": "decreaseReserve",
      "outputs": [],
      "stateMutability": "nonpayable",
      "type": "function"
    },
    {
      "inputs": [
        {
          "internalType": "address",
          "name": "",
          "type": "address"
        }
      ],
      "name": "existsTokenAssetAddress",
      "outputs": [
        {
          "internalType": "bool",
          "name": "",
          "type": "bool"
        }
      ],
      "stateMutability": "view",
      "type": "function"
    },
    {
      "inputs": [
        {
          "internalType": "address",
          "name": "tokenAddress",
          "type": "address"
        },
        {
          "internalType": "address",
          "name": "toPoolAddress",
          "type": "address"
        },
        {
          "internalType": "uint256[]",
          "name": "tokenIds",
          "type": "uint256[]"
        }
      ],
      "name": "exportAssets",
      "outputs": [],
      "stateMutability": "nonpayable",
      "type": "function"
    },
    {
      "inputs": [],
      "name": "firstAssetTimestamp",
      "outputs": [
        {
          "internalType": "uint64",
          "name": "",
          "type": "uint64"
        }
      ],
      "stateMutability": "view",
      "type": "function"
    },
    {
      "inputs": [],
      "name": "getNFTAssetsLength",
      "outputs": [
        {
          "internalType": "uint256",
          "name": "",
          "type": "uint256"
        }
      ],
      "stateMutability": "view",
      "type": "function"
    },
    {
      "inputs": [],
      "name": "getRiskScoresLength",
      "outputs": [
        {
          "internalType": "uint256",
          "name": "",
          "type": "uint256"
        }
      ],
      "stateMutability": "view",
      "type": "function"
    },
    {
      "inputs": [
        {
          "internalType": "bytes32",
          "name": "role",
          "type": "bytes32"
        }
      ],
      "name": "getRoleAdmin",
      "outputs": [
        {
          "internalType": "bytes32",
          "name": "",
          "type": "bytes32"
        }
      ],
      "stateMutability": "view",
      "type": "function"
    },
    {
      "inputs": [
        {
          "internalType": "bytes32",
          "name": "role",
          "type": "bytes32"
        },
        {
          "internalType": "uint256",
          "name": "index",
          "type": "uint256"
        }
      ],
      "name": "getRoleMember",
      "outputs": [
        {
          "internalType": "address",
          "name": "",
          "type": "address"
        }
      ],
      "stateMutability": "view",
      "type": "function"
    },
    {
      "inputs": [
        {
          "internalType": "bytes32",
          "name": "role",
          "type": "bytes32"
        }
      ],
      "name": "getRoleMemberCount",
      "outputs": [
        {
          "internalType": "uint256",
          "name": "",
          "type": "uint256"
        }
      ],
      "stateMutability": "view",
      "type": "function"
    },
    {
      "inputs": [],
      "name": "getTokenAssetAddresses",
      "outputs": [
        {
          "internalType": "address[]",
          "name": "",
          "type": "address[]"
        }
      ],
      "stateMutability": "view",
      "type": "function"
    },
    {
      "inputs": [],
      "name": "getTokenAssetAddressesLength",
      "outputs": [
        {
          "internalType": "uint256",
          "name": "",
          "type": "uint256"
        }
      ],
      "stateMutability": "view",
      "type": "function"
    },
    {
      "inputs": [
        {
          "internalType": "bytes32",
          "name": "role",
          "type": "bytes32"
        },
        {
          "internalType": "address",
          "name": "account",
          "type": "address"
        }
      ],
      "name": "grantRole",
      "outputs": [],
      "stateMutability": "nonpayable",
      "type": "function"
    },
    {
      "inputs": [],
      "name": "hasFinishedRedemption",
      "outputs": [
        {
          "internalType": "bool",
          "name": "",
          "type": "bool"
        }
      ],
      "stateMutability": "view",
      "type": "function"
    },
    {
      "inputs": [
        {
          "internalType": "bytes32",
          "name": "role",
          "type": "bytes32"
        },
        {
          "internalType": "address",
          "name": "account",
          "type": "address"
        }
      ],
      "name": "hasRole",
      "outputs": [
        {
          "internalType": "bool",
          "name": "",
          "type": "bool"
        }
      ],
      "stateMutability": "view",
      "type": "function"
    },
    {
      "inputs": [
        {
          "internalType": "address",
          "name": "tokenAddress",
          "type": "address"
        },
        {
          "internalType": "address",
          "name": "investor",
          "type": "address"
        },
        {
          "internalType": "uint256",
          "name": "currency",
          "type": "uint256"
        },
        {
          "internalType": "uint256",
          "name": "token",
          "type": "uint256"
        }
      ],
      "name": "increaseLockedDistributeBalance",
      "outputs": [],
      "stateMutability": "nonpayable",
      "type": "function"
    },
    {
      "inputs": [
        {
          "internalType": "uint256",
          "name": "currencyAmount",
          "type": "uint256"
        }
      ],
      "name": "increaseReserve",
      "outputs": [],
      "stateMutability": "nonpayable",
      "type": "function"
    },
    {
      "inputs": [
        {
          "internalType": "uint256",
          "name": "amount",
          "type": "uint256"
        }
      ],
      "name": "increaseTotalAssetRepaidCurrency",
      "outputs": [],
      "stateMutability": "nonpayable",
      "type": "function"
    },
    {
      "inputs": [
        {
          "internalType": "contract Registry",
          "name": "_registry",
          "type": "address"
        },
        {
          "internalType": "address",
          "name": "_currency",
          "type": "address"
        },
        {
          "internalType": "uint32",
          "name": "_minFirstLossCushion",
          "type": "uint32"
        }
      ],
      "name": "initialize",
      "outputs": [],
      "stateMutability": "nonpayable",
      "type": "function"
    },
    {
      "inputs": [
        {
          "internalType": "address",
          "name": "_tgeAddress",
          "type": "address"
        },
        {
          "internalType": "address",
          "name": "_tokenAddress",
          "type": "address"
        },
        {
          "internalType": "enum Configuration.NOTE_TOKEN_TYPE",
          "name": "_noteType",
          "type": "uint8"
        }
      ],
      "name": "injectTGEAddress",
      "outputs": [],
      "stateMutability": "nonpayable",
      "type": "function"
    },
    {
      "inputs": [],
      "name": "interestRateSOT",
      "outputs": [
        {
          "internalType": "uint32",
          "name": "",
          "type": "uint32"
        }
      ],
      "stateMutability": "view",
      "type": "function"
    },
    {
      "inputs": [],
      "name": "isClosedState",
      "outputs": [
        {
          "internalType": "bool",
          "name": "",
          "type": "bool"
        }
      ],
      "stateMutability": "view",
      "type": "function"
    },
    {
      "inputs": [],
      "name": "jotToken",
      "outputs": [
        {
          "internalType": "address",
          "name": "",
          "type": "address"
        }
      ],
      "stateMutability": "view",
      "type": "function"
    },
    {
      "inputs": [
        {
          "internalType": "address",
          "name": "",
          "type": "address"
        }
      ],
      "name": "lastRepayTimestampSOT",
      "outputs": [
        {
          "internalType": "uint256",
          "name": "",
          "type": "uint256"
        }
      ],
      "stateMutability": "view",
      "type": "function"
    },
    {
      "inputs": [
        {
          "internalType": "address",
          "name": "",
          "type": "address"
        },
        {
          "internalType": "address",
          "name": "",
          "type": "address"
        }
      ],
      "name": "lockedDistributeBalances",
      "outputs": [
        {
          "internalType": "uint256",
          "name": "",
          "type": "uint256"
        }
      ],
      "stateMutability": "view",
      "type": "function"
    },
    {
      "inputs": [
        {
          "internalType": "address",
          "name": "",
          "type": "address"
        },
        {
          "internalType": "address",
          "name": "",
          "type": "address"
        }
      ],
      "name": "lockedRedeemBalances",
      "outputs": [
        {
          "internalType": "uint256",
          "name": "",
          "type": "uint256"
        }
      ],
      "stateMutability": "view",
      "type": "function"
    },
    {
      "inputs": [],
      "name": "minFirstLossCushion",
      "outputs": [
        {
          "internalType": "uint32",
          "name": "",
          "type": "uint32"
        }
      ],
      "stateMutability": "view",
      "type": "function"
    },
    {
      "inputs": [
        {
          "internalType": "uint256",
          "name": "",
          "type": "uint256"
        }
      ],
      "name": "nftAssets",
      "outputs": [
        {
          "internalType": "address",
          "name": "tokenAddress",
          "type": "address"
        },
        {
          "internalType": "uint256",
          "name": "tokenId",
          "type": "uint256"
        }
      ],
      "stateMutability": "view",
      "type": "function"
    },
    {
      "inputs": [
        {
          "internalType": "address",
          "name": "",
          "type": "address"
        },
        {
          "internalType": "address",
          "name": "",
          "type": "address"
        },
        {
          "internalType": "uint256",
          "name": "tokenId",
          "type": "uint256"
        },
        {
          "internalType": "bytes",
          "name": "",
          "type": "bytes"
        }
      ],
      "name": "onERC721Received",
      "outputs": [
        {
          "internalType": "bytes4",
          "name": "",
          "type": "bytes4"
        }
      ],
      "stateMutability": "nonpayable",
      "type": "function"
    },
    {
      "inputs": [],
      "name": "openingBlockTimestamp",
      "outputs": [
        {
          "internalType": "uint64",
          "name": "",
          "type": "uint64"
        }
      ],
      "stateMutability": "view",
      "type": "function"
    },
    {
      "inputs": [
        {
          "internalType": "address",
          "name": "",
          "type": "address"
        }
      ],
      "name": "paidInterestAmountSOT",
      "outputs": [
        {
          "internalType": "uint256",
          "name": "",
          "type": "uint256"
        }
      ],
      "stateMutability": "view",
      "type": "function"
    },
    {
      "inputs": [],
      "name": "paidPrincipalAmountSOT",
      "outputs": [
        {
          "internalType": "uint256",
          "name": "",
          "type": "uint256"
        }
      ],
      "stateMutability": "view",
      "type": "function"
    },
    {
      "inputs": [
        {
          "internalType": "address",
          "name": "",
          "type": "address"
        }
      ],
      "name": "paidPrincipalAmountSOTByInvestor",
      "outputs": [
        {
          "internalType": "uint256",
          "name": "",
          "type": "uint256"
        }
      ],
      "stateMutability": "view",
      "type": "function"
    },
    {
      "inputs": [],
      "name": "pause",
      "outputs": [],
      "stateMutability": "nonpayable",
      "type": "function"
    },
    {
      "inputs": [],
      "name": "paused",
      "outputs": [
        {
          "internalType": "bool",
          "name": "",
          "type": "bool"
        }
      ],
      "stateMutability": "view",
      "type": "function"
    },
    {
      "inputs": [],
      "name": "pot",
      "outputs": [
        {
          "internalType": "address",
          "name": "",
          "type": "address"
        }
      ],
      "stateMutability": "view",
      "type": "function"
    },
    {
      "inputs": [],
      "name": "principalAmountSOT",
      "outputs": [
        {
          "internalType": "uint256",
          "name": "",
          "type": "uint256"
        }
      ],
      "stateMutability": "view",
      "type": "function"
    },
    {
      "inputs": [
        {
          "internalType": "address",
          "name": "usr",
          "type": "address"
        },
        {
          "internalType": "address",
          "name": "notesToken",
          "type": "address"
        },
        {
          "internalType": "uint256",
          "name": "currencyAmount",
          "type": "uint256"
        },
        {
          "internalType": "uint256",
          "name": "tokenAmount",
          "type": "uint256"
        }
      ],
      "name": "redeem",
      "outputs": [],
      "stateMutability": "nonpayable",
      "type": "function"
    },
    {
      "inputs": [],
      "name": "registry",
      "outputs": [
        {
          "internalType": "contract Registry",
          "name": "",
          "type": "address"
        }
      ],
      "stateMutability": "view",
      "type": "function"
    },
    {
      "inputs": [
        {
          "internalType": "bytes32",
          "name": "role",
          "type": "bytes32"
        },
        {
          "internalType": "address",
          "name": "account",
          "type": "address"
        }
      ],
      "name": "renounceRole",
      "outputs": [],
      "stateMutability": "nonpayable",
      "type": "function"
    },
    {
      "inputs": [],
      "name": "reserve",
      "outputs": [
        {
          "internalType": "uint256",
          "name": "",
          "type": "uint256"
        }
      ],
      "stateMutability": "view",
      "type": "function"
    },
    {
      "inputs": [
        {
          "internalType": "bytes32",
          "name": "role",
          "type": "bytes32"
        },
        {
          "internalType": "address",
          "name": "account",
          "type": "address"
        }
      ],
      "name": "revokeRole",
      "outputs": [],
      "stateMutability": "nonpayable",
      "type": "function"
    },
    {
      "inputs": [
        {
          "internalType": "uint256",
          "name": "",
          "type": "uint256"
        }
      ],
      "name": "riskScores",
      "outputs": [
        {
          "internalType": "uint32",
          "name": "daysPastDue",
          "type": "uint32"
        },
        {
          "internalType": "uint32",
          "name": "advanceRate",
          "type": "uint32"
        },
        {
          "internalType": "uint32",
          "name": "penaltyRate",
          "type": "uint32"
        },
        {
          "internalType": "uint32",
          "name": "interestRate",
          "type": "uint32"
        },
        {
          "internalType": "uint32",
          "name": "probabilityOfDefault",
          "type": "uint32"
        },
        {
          "internalType": "uint32",
          "name": "lossGivenDefault",
          "type": "uint32"
        },
        {
          "internalType": "uint32",
          "name": "gracePeriod",
          "type": "uint32"
        },
        {
          "internalType": "uint32",
          "name": "collectionPeriod",
          "type": "uint32"
        },
        {
          "internalType": "uint32",
          "name": "writeOffAfterGracePeriod",
          "type": "uint32"
        },
        {
          "internalType": "uint32",
          "name": "writeOffAfterCollectionPeriod",
          "type": "uint32"
        }
      ],
      "stateMutability": "view",
      "type": "function"
    },
    {
      "inputs": [],
      "name": "secondTGEAddress",
      "outputs": [
        {
          "internalType": "address",
          "name": "",
          "type": "address"
        }
      ],
      "stateMutability": "view",
      "type": "function"
    },
    {
      "inputs": [
        {
          "internalType": "uint32",
          "name": "_interestRateSOT",
          "type": "uint32"
        }
      ],
      "name": "setInterestRateForSOT",
      "outputs": [],
      "stateMutability": "nonpayable",
      "type": "function"
    },
    {
      "inputs": [
        {
          "internalType": "address",
          "name": "_pot",
          "type": "address"
        }
      ],
      "name": "setPot",
      "outputs": [],
      "stateMutability": "nonpayable",
      "type": "function"
    },
    {
      "inputs": [],
      "name": "setUpOpeningBlockTimestamp",
      "outputs": [],
      "stateMutability": "nonpayable",
      "type": "function"
    },
    {
      "inputs": [
        {
          "internalType": "uint32[]",
          "name": "_daysPastDues",
          "type": "uint32[]"
        },
        {
          "internalType": "uint32[]",
          "name": "_ratesAndDefaults",
          "type": "uint32[]"
        },
        {
          "internalType": "uint32[]",
          "name": "_periodsAndWriteOffs",
          "type": "uint32[]"
        }
      ],
      "name": "setupRiskScores",
      "outputs": [],
      "stateMutability": "nonpayable",
      "type": "function"
    },
    {
      "inputs": [],
      "name": "sotToken",
      "outputs": [
        {
          "internalType": "address",
          "name": "",
          "type": "address"
        }
      ],
      "stateMutability": "view",
      "type": "function"
    },
    {
      "inputs": [
        {
          "internalType": "uint64",
          "name": "_termLengthInSeconds",
          "type": "uint64"
        },
        {
          "internalType": "uint256",
          "name": "_principalAmountForSOT",
          "type": "uint256"
        },
        {
          "internalType": "uint32",
          "name": "_interestRateForSOT",
          "type": "uint32"
        },
        {
          "internalType": "uint64",
          "name": "_timeStartEarningInterest",
          "type": "uint64"
        }
      ],
      "name": "startCycle",
      "outputs": [],
      "stateMutability": "nonpayable",
      "type": "function"
    },
    {
      "inputs": [],
      "name": "state",
      "outputs": [
        {
          "internalType": "enum ISecuritizationPool.CycleState",
          "name": "",
          "type": "uint8"
        }
      ],
      "stateMutability": "view",
      "type": "function"
    },
    {
      "inputs": [
        {
          "internalType": "bytes4",
          "name": "interfaceId",
          "type": "bytes4"
        }
      ],
      "name": "supportsInterface",
      "outputs": [
        {
          "internalType": "bool",
          "name": "",
          "type": "bool"
        }
      ],
      "stateMutability": "view",
      "type": "function"
    },
    {
      "inputs": [],
      "name": "termLengthInSeconds",
      "outputs": [
        {
          "internalType": "uint64",
          "name": "",
          "type": "uint64"
        }
      ],
      "stateMutability": "view",
      "type": "function"
    },
    {
      "inputs": [],
      "name": "tgeAddress",
      "outputs": [
        {
          "internalType": "address",
          "name": "",
          "type": "address"
        }
      ],
      "stateMutability": "view",
      "type": "function"
    },
    {
      "inputs": [
        {
          "internalType": "uint256",
          "name": "",
          "type": "uint256"
        }
      ],
      "name": "tokenAssetAddresses",
      "outputs": [
        {
          "internalType": "address",
          "name": "",
          "type": "address"
        }
      ],
      "stateMutability": "view",
      "type": "function"
    },
    {
      "inputs": [],
      "name": "totalAssetRepaidCurrency",
      "outputs": [
        {
          "internalType": "uint256",
          "name": "",
          "type": "uint256"
        }
      ],
      "stateMutability": "view",
      "type": "function"
    },
    {
      "inputs": [],
      "name": "totalLockedDistributeBalance",
      "outputs": [
        {
          "internalType": "uint256",
          "name": "",
          "type": "uint256"
        }
      ],
      "stateMutability": "view",
      "type": "function"
    },
    {
      "inputs": [
        {
          "internalType": "address",
          "name": "",
          "type": "address"
        }
      ],
      "name": "totalLockedRedeemBalances",
      "outputs": [
        {
          "internalType": "uint256",
          "name": "",
          "type": "uint256"
        }
      ],
      "stateMutability": "view",
      "type": "function"
    },
    {
      "inputs": [],
      "name": "totalRedeemedCurrency",
      "outputs": [
        {
          "internalType": "uint256",
          "name": "",
          "type": "uint256"
        }
      ],
      "stateMutability": "view",
      "type": "function"
    },
    {
      "inputs": [],
      "name": "underlyingCurrency",
      "outputs": [
        {
          "internalType": "address",
          "name": "",
          "type": "address"
        }
      ],
      "stateMutability": "view",
      "type": "function"
    },
    {
      "inputs": [],
      "name": "unpause",
      "outputs": [],
      "stateMutability": "nonpayable",
      "type": "function"
    },
    {
      "inputs": [
        {
          "internalType": "uint256",
          "name": "amount",
          "type": "uint256"
        }
      ],
      "name": "withdraw",
      "outputs": [],
      "stateMutability": "nonpayable",
      "type": "function"
    },
    {
      "inputs": [
        {
          "internalType": "address[]",
          "name": "tokenAddresses",
          "type": "address[]"
        },
        {
          "internalType": "uint256[]",
          "name": "tokenIds",
          "type": "uint256[]"
        },
        {
          "internalType": "address[]",
          "name": "recipients",
          "type": "address[]"
        }
      ],
      "name": "withdrawAssets",
      "outputs": [],
      "stateMutability": "nonpayable",
      "type": "function"
    },
    {
      "inputs": [
        {
          "internalType": "address[]",
          "name": "tokenAddresses",
          "type": "address[]"
        },
        {
          "internalType": "address[]",
          "name": "recipients",
          "type": "address[]"
        },
        {
          "internalType": "uint256[]",
          "name": "amounts",
          "type": "uint256[]"
        }
      ],
      "name": "withdrawERC20Assets",
      "outputs": [],
      "stateMutability": "nonpayable",
      "type": "function"
    }
  ],
  "transactionHash": "0xbece29cb5027356fda830d0e6e98c8c907ed85ac682e7d47bc506ea09955b71d",
  "args": [],
  "numDeployments": 1,
  "solcInputHash": "99cb8a7fb5953c1431b6c2a83e8514a7",
  "bytecode": "0x608060405234801561001057600080fd5b50615178806100206000396000f3fe608060405234801561001057600080fd5b50600436106104335760003560e01c80636ee44c4c11610236578063ade0ea6d1161013b578063d2fad481116100c3578063e2eda54111610087578063e2eda54114610a2a578063e58378bb14610a33578063ed34889514610a48578063fa3908b114610a5b578063febd601814610a8d57600080fd5b8063d2fad481146109c7578063d547741f146109e8578063d8ba6f44146109fb578063dec2858714610a0e578063df076fe014610a2157600080fd5b8063c6cb67a61161010a578063c6cb67a614610983578063ca15c87314610996578063cb15a134146109a9578063cd3293de146109b3578063cee7b6a1146109bd57600080fd5b8063ade0ea6d1461093a578063b8cd9b0014610944578063bff8a36d1461094e578063c19d93fb1461096157600080fd5b80638fd6b71e116101be57806391d148541161018d57806391d14854146108cb578063a125142b146108de578063a217fddf146108f3578063a6c59547146108fb578063ac2a6a381461090e57600080fd5b80638fd6b71e1461087957806390071cf3146108925780639010d07c146108a557806390161705146108b857600080fd5b80637b103999116102055780637b103999146108145780637da220e6146108285780637dfbdae214610854578063815d6ddf1461085e5780638456cb591461087157600080fd5b80636ee44c4c146107c857806370d2f399146107e357806375b1bce71461080457806378d29d551461080c57600080fd5b8063357a03021161033c5780634ba2363a116102c45780635c975abb116102935780635c975abb1461070e5780636421cede14610719578063644b4ead1461072e5780636456a3ee146107a15780636ecf2b22146107b557600080fd5b80634ba2363a146106b05780634bb48586146106c45780634be47418146106e85780635b8e62e7146106fb57600080fd5b80633d79ab031161030b5780633d79ab031461062d5780633f4ba83a146106605780633ffebce414610668578063477035d1146106895780634b552a4a1461069d57600080fd5b8063357a0302146105e157806336568abe146105f457806338d9feac146106075780633bf4045f1461061a57600080fd5b8063206c1765116103bf5780632b71b4501161038e5780632b71b450146105785780632bb14ff01461058c5780632bcc3682146105b25780632e1a7d4d146105bb5780632f2ff15d146105ce57600080fd5b8063206c176514610526578063221dc5931461052e578063247fc36314610542578063248a9ca31461055557600080fd5b8063150b7a0211610406578063150b7a02146104a95780631ba6e957146104d55780631bf51b70146104f65780631fbf7c3e14610509578063205854081461051c57600080fd5b806301ffc9a71461043857806306aac7ec146104605780630b7792f11461046a5780630bc6bffc1461047d575b600080fd5b61044b6104463660046146ef565b610aa1565b60405190151581526020015b60405180910390f35b610468610acc565b005b610174545b604051908152602001610457565b61016454610491906001600160a01b031681565b6040516001600160a01b039091168152602001610457565b6104bc6104b7366004614744565b610b53565b6040516001600160e01b03199091168152602001610457565b61046f6104e3366004614823565b61016e6020526000908152604090205481565b61046861050436600461488b565b610c8b565b610468610517366004614924565b611294565b61046f6101685481565b61044b61134d565b61016154610491906001600160a01b031681565b61046861055036600461488b565b6113ed565b61046f610563366004614924565b600090815260c9602052604090206001015490565b61016354610491906001600160a01b031681565b6101725461059d9063ffffffff1681565b60405163ffffffff9091168152602001610457565b6101735461046f565b6104686105c9366004614924565b611750565b6104686105dc36600461493d565b6118bc565b6104686105ef36600461496d565b6118e6565b61046861060236600461493d565b611a33565b6104686106153660046149b3565b611ab1565b61046861062836600461488b565b611ce9565b6101645461064890600160a81b90046001600160401b031681565b6040516001600160401b039091168152602001610457565b610468611f2b565b61046f610676366004614823565b6101776020526000908152604090205481565b61016554610648906001600160401b031681565b6104686106ab366004614a17565b611f3e565b61017854610491906001600160a01b031681565b61044b6106d2366004614823565b6101766020526000908152604090205460ff1681565b6104686106f636600461496d565b612175565b61046861070936600461496d565b6123e5565b60335460ff1661044b565b610721612522565b6040516104579190614a66565b61074161073c366004614924565b612585565b6040805163ffffffff9b8c168152998b1660208b0152978a16978901979097529488166060880152928716608087015290861660a0860152851660c0850152841660e0840152831661010083015290911661012082015261014001610457565b61016054610491906001600160a01b031681565b6104686107c3366004614ac5565b61260c565b6101655461064890600160401b90046001600160401b031681565b61046f6107f1366004614823565b61016a6020526000908152604090205481565b61044b6129e3565b61044b612bb2565b61015f54610491906001600160a01b031681565b61046f610836366004614b05565b61016b60209081526000928352604080842090915290825290205481565b61046f6101695481565b61046861086c366004614b48565b612bdb565b61046861308f565b6101725461059d90640100000000900463ffffffff1681565b6104686108a0366004614823565b6130a2565b6104916108b3366004614b9b565b613241565b6104686108c6366004614924565b613260565b61044b6108d936600461493d565b61331c565b61046f60008051602061512383398151915281565b61046f600081565b61046861090936600461488b565b613347565b61046f61091c366004614b05565b61016c60209081526000928352604080842090915290825290205481565b61046f6101715481565b61046f6101705481565b61046861095c366004614924565b613508565b6101645461097690600160a01b900460ff1681565b6040516104579190614bd3565b610468610991366004614bfb565b613596565b61046f6109a4366004614924565b613638565b61046f6101675481565b61046f6101665481565b61046f61016d5481565b61046f6109d5366004614823565b61016f6020526000908152604090205481565b6104686109f636600461493d565b61364f565b610491610a09366004614924565b613674565b610468610a1c3660046149b3565b61369f565b6101755461046f565b61046f61271081565b61046f60008051602061510383398151915281565b610468610a56366004614823565b6137d6565b610a6e610a69366004614924565b613a37565b604080516001600160a01b039093168352602083019190915201610457565b61016254610491906001600160a01b031681565b60006001600160e01b03198216635a05180f60e01b1480610ac65750610ac682613a70565b92915050565b610ad4613aa5565b610160546001600160a01b0316336001600160a01b031614610b495760405162461bcd60e51b8152602060048201526024808201527f53656375726974697a6174696f6e506f6f6c3a204f6e6c7920746765206164646044820152637265737360e01b60648201526084015b60405180910390fd5b610b51613aeb565b565b61015f54600090610b6c906001600160a01b0316613c05565b6001600160a01b0316336001600160a01b03161480610bb1575061015f54610b9c906001600160a01b0316613c12565b6001600160a01b0316336001600160a01b0316145b610c1b5760405162461bcd60e51b815260206004820152603560248201527f53656375726974697a6174696f6e506f6f6c3a204d75737420626520746f6b656044820152741b881a5cdcdd595908189e48155b9d185b99db1959605a1b6064820152608401610b40565b6101746040518060400160405280610c303390565b6001600160a01b039081168252602091820187905283546001818101865560009586529483902084516002909202018054919092166001600160a01b031990911617815591015191015550630a85bd0160e11b949350505050565b610c93613aa5565b610c9b612bb2565b15610cb85760405162461bcd60e51b8152600401610b4090614c18565b600080516020615103833981519152610cd081613c1f565b8584610cdd826005614c76565b148015610cf3575082610cf1826004614c76565b145b610d655760405162461bcd60e51b815260206004820152603860248201527f53656375726974697a6174696f6e506f6f6c3a205269736b73636f726520706160448201527f72616d73206c656e677468206973206e6f7420657175616c00000000000000006064820152608401610b40565b610d7261017360006146a7565b60005b8181101561128957801580610deb57508888610d92600184614c8d565b818110610da157610da1614ca0565b9050602002016020810190610db69190614bfb565b63ffffffff16898983818110610dce57610dce614ca0565b9050602002016020810190610de39190614bfb565b63ffffffff16115b610e4e5760405162461bcd60e51b815260206004820152602e60248201527f53656375726974697a6174696f6e506f6f6c3a205269736b2073636f7265732060448201526d1b5d5cdd081899481cdbdc9d195960921b6064820152608401610b40565b6101736040518061014001604052808b8b85818110610e6f57610e6f614ca0565b9050602002016020810190610e849190614bfb565b63ffffffff168152602001898985818110610ea157610ea1614ca0565b9050602002016020810190610eb69190614bfb565b63ffffffff1681526020018989610ecd8787614cb6565b818110610edc57610edc614ca0565b9050602002016020810190610ef19190614bfb565b63ffffffff1681526020018989610f09876002614c76565b610f139087614cb6565b818110610f2257610f22614ca0565b9050602002016020810190610f379190614bfb565b63ffffffff1681526020018989610f4f876003614c76565b610f599087614cb6565b818110610f6857610f68614ca0565b9050602002016020810190610f7d9190614bfb565b63ffffffff1681526020018989610f95876004614c76565b610f9f9087614cb6565b818110610fae57610fae614ca0565b9050602002016020810190610fc39190614bfb565b63ffffffff168152602001878785818110610fe057610fe0614ca0565b9050602002016020810190610ff59190614bfb565b63ffffffff168152602001878761100c8787614cb6565b81811061101b5761101b614ca0565b90506020020160208101906110309190614bfb565b63ffffffff1681526020018787611048876002614c76565b6110529087614cb6565b81811061106157611061614ca0565b90506020020160208101906110769190614bfb565b63ffffffff168152602001878761108e876003614c76565b6110989087614cb6565b8181106110a7576110a7614ca0565b90506020020160208101906110bc9190614bfb565b63ffffffff16815250908060018154018082558091505060019003906000526020600020906002020160009091909190915060008201518160000160006101000a81548163ffffffff021916908363ffffffff16021790555060208201518160000160046101000a81548163ffffffff021916908363ffffffff16021790555060408201518160000160086101000a81548163ffffffff021916908363ffffffff160217905550606082015181600001600c6101000a81548163ffffffff021916908363ffffffff16021790555060808201518160000160106101000a81548163ffffffff021916908363ffffffff16021790555060a08201518160000160146101000a81548163ffffffff021916908363ffffffff16021790555060c08201518160000160186101000a81548163ffffffff021916908363ffffffff16021790555060e082015181600001601c6101000a81548163ffffffff021916908363ffffffff1602179055506101008201518160010160006101000a81548163ffffffff021916908363ffffffff1602179055506101208201518160010160046101000a81548163ffffffff021916908363ffffffff16021790555050506112828160010190565b9050610d75565b505050505050505050565b61129c613aa5565b61015f546112b2906001600160a01b0316613c29565b6001600160a01b0316336001600160a01b031614806112f7575061015f546112e2906001600160a01b0316613c36565b6001600160a01b0316336001600160a01b0316145b6113135760405162461bcd60e51b8152600401610b4090614cc9565b80610166546113229190614cb6565b6101665561132e61134d565b61134a5760405162461bcd60e51b8152600401610b4090614d3f565b50565b61015f546000908190611368906001600160a01b0316613c43565b604051630129ecc560e61b81523060048201529091506001600160a01b03821690634a7b314090602401602060405180830381865afa1580156113af573d6000803e3d6000fd5b505050506040513d601f19601f820116820180604052508101906113d39190614d76565b61017254640100000000900463ffffffff16111592915050565b6113f5613aa5565b6113fd612bb2565b1561141a5760405162461bcd60e51b8152600401610b4090614c18565b60008051602061512383398151915261143281613c1f565b85848114801561144157508483145b6114a55760405162461bcd60e51b815260206004820152602f60248201527f53656375726974697a6174696f6e506f6f6c3a20506172616d73206c656e677460448201526e1a08185c99481b9bdd08195c5d585b608a1b6064820152608401610b40565b60005b818110156115c95761015f546114c6906001600160a01b0316613c50565b6001600160a01b03166384933c0c8a8a848181106114e6576114e6614ca0565b90506020020160208101906114fb9190614823565b6040516001600160e01b031960e084901b1681526001600160a01b039091166004820152602401602060405180830381865afa15801561153f573d6000803e3d6000fd5b505050506040513d601f19601f820116820180604052508101906115639190614d8f565b6115c15760405162461bcd60e51b815260206004820152602960248201527f53656375726974697a6174696f6e506f6f6c3a20756e6b6e6f776e2d746f6b656044820152686e2d6164647265737360b81b6064820152608401610b40565b6001016114a8565b5060005b8181101561160c576116048989838181106115ea576115ea614ca0565b90506020020160208101906115ff9190614823565b613c5d565b6001016115cd565b5060005b818110156117135788888281811061162a5761162a614ca0565b905060200201602081019061163f9190614823565b6001600160a01b03166323b872dd88888481811061165f5761165f614ca0565b90506020020160208101906116749190614823565b3088888681811061168757611687614ca0565b905060200201356040518463ffffffff1660e01b81526004016116ac93929190614db1565b6020604051808303816000875af11580156116cb573d6000803e3d6000fd5b505050506040513d601f19601f820116820180604052508101906116ef9190614d8f565b61170b5760405162461bcd60e51b8152600401610b4090614dd5565b600101611610565b50610165546001600160401b031660000361174657610165805467ffffffffffffffff1916426001600160401b03161790555b5050505050505050565b611758613aa5565b611760613cf0565b60008051602061512383398151915261177881613c1f565b610167548083116117965761178d8382614c8d565b6101675561179d565b6000610167555b82610166546117ac9190614c8d565b610166556117b861134d565b6117d45760405162461bcd60e51b8152600401610b4090614d3f565b61016454610178546040516323b872dd60e01b81526001600160a01b03928316926323b872dd9261180e9291169033908890600401614db1565b6020604051808303816000875af115801561182d573d6000803e3d6000fd5b505050506040513d601f19601f820116820180604052508101906118519190614d8f565b61186d5760405162461bcd60e51b8152600401610b4090614dd5565b7f884edad9ce6fa2440d8a54cc123490eb96d2768479d49ff9c7366125a942436433604080516001600160a01b039092168252602082018690520160405180910390a1505061134a6001606555565b600082815260c960205260409020600101546118d781613c1f565b6118e18383613d50565b505050565b6118ee613aa5565b61015f54611904906001600160a01b0316613c36565b6001600160a01b0316336001600160a01b0316146119345760405162461bcd60e51b8152600401610b4090614e18565b6001600160a01b03808516600090815261016b6020908152604080832093871683529290522054611966908390614cb6565b6001600160a01b03808616600081815261016b602090815260408083209489168084529482528083209590955591815261016c825283812092815291905220546119b1908290614cb6565b6001600160a01b03808616600090815261016c6020908152604080832093881683529290522055610169546119e7908390614cb6565b610169556001600160a01b038416600090815261016a6020526040902054611a10908290614cb6565b6001600160a01b03909416600090815261016a6020526040902093909355505050565b6001600160a01b0381163314611aa35760405162461bcd60e51b815260206004820152602f60248201527f416363657373436f6e74726f6c3a2063616e206f6e6c792072656e6f756e636560448201526e103937b632b9903337b91039b2b63360891b6064820152608401610b40565b611aad8282613d72565b5050565b611ab9613aa5565b600080516020615123833981519152611ad181613c1f565b8160005b81811015611b6857866001600160a01b03166342842e0e8730888886818110611b0057611b00614ca0565b905060200201356040518463ffffffff1660e01b8152600401611b2593929190614db1565b600060405180830381600087803b158015611b3f57600080fd5b505af1158015611b53573d6000803e3d6000fd5b50505050611b618160010190565b9050611ad5565b5061015f546000908190611b84906001600160a01b0316613c43565b905060005b83811015611c4c57816001600160a01b03166319c03937308b8a8a86818110611bb457611bb4614ca0565b6040516001600160e01b031960e088901b1681526001600160a01b03958616600482015294909316602485015250602090910201356044820152426064820152608401602060405180830381865afa158015611c14573d6000803e3d6000fd5b505050506040513d601f19601f82011682018060405250810190611c389190614d76565b611c429084614cb6565b9250600101611b89565b50816101676000828254611c609190614cb6565b909155505061016454600160a81b90046001600160401b0316600003611cae57610164805467ffffffffffffffff60a81b1916600160a81b426001600160401b031602179055611cae613aeb565b610165546001600160401b0316600003611746575050610165805467ffffffffffffffff1916426001600160401b0316179055505050505050565b611cf1613aa5565b611cf9613cf0565b600080516020615103833981519152611d1181613c1f565b85848114611d315760405162461bcd60e51b8152600401610b4090614e65565b808314611d505760405162461bcd60e51b8152600401610b4090614ec2565b60005b81811015611f165761017660008a8a84818110611d7257611d72614ca0565b9050602002016020810190611d879190614823565b6001600160a01b0316815260208101919091526040016000205460ff16611e0c5760405162461bcd60e51b815260206004820152603360248201527f53656375726974697a6174696f6e506f6f6c3a206e6f746520746f6b656e20616044820152721cdcd95d08191bd95cc81b9bdd08195e1a5cdd606a1b6064820152608401610b40565b888882818110611e1e57611e1e614ca0565b9050602002016020810190611e339190614823565b6001600160a01b031663a9059cbb888884818110611e5357611e53614ca0565b9050602002016020810190611e689190614823565b878785818110611e7a57611e7a614ca0565b6040516001600160e01b031960e087901b1681526001600160a01b03909416600485015260200291909101356024830152506044016020604051808303816000875af1158015611ece573d6000803e3d6000fd5b505050506040513d601f19601f82011682018060405250810190611ef29190614d8f565b611f0e5760405162461bcd60e51b8152600401610b4090614dd5565b600101611d53565b505050611f236001606555565b505050505050565b6000611f3681613c1f565b61134a613d94565b611f46613aa5565b61015f54611f5c906001600160a01b0316613c29565b6001600160a01b0316336001600160a01b031614611fd35760405162461bcd60e51b815260206004820152602e60248201527f53656375726974697a6174696f6e506f6f6c3a204f6e6c79205365637572697460448201526d34bd30ba34b7b726b0b730b3b2b960911b6064820152608401610b40565b600261016454600160a01b900460ff166003811115611ff457611ff4614bbd565b141580156120215750600361016454600160a01b900460ff16600381111561201e5761201e614bbd565b14155b61206d5760405162461bcd60e51b815260206004820152601a60248201527f4e6f7420696e2069737375696e6720746f6b656e2073746167650000000000006044820152606401610b40565b6001600160a01b0383161580159061208d57506001600160a01b03821615155b6120d95760405162461bcd60e51b815260206004820181905260248201527f53656375726974697a6174696f6e506f6f6c3a2041646472657373207a65726f6044820152606401610b40565b60008160018111156120ed576120ed614bbd565b036121295761016080546001600160a01b038086166001600160a01b03199283161790925561016280549285169290911691909117905561215c565b61016180546001600160a01b038086166001600160a01b0319928316179092556101638054928516929091169190911790555b5050610164805460ff60a01b1916600160a01b17905550565b61217d613aa5565b612185613cf0565b61015f5461219b906001600160a01b0316613de6565b6001600160a01b0316336001600160a01b03161461221a5760405162461bcd60e51b815260206004820152603660248201527f53656375726974697a6174696f6e506f6f6c3a2043616c6c6572206d75737420604482015275626520446973747269627574696f6e5472616e63686560501b6064820152608401610b40565b610162546001600160a01b0380851691160361225f576001600160a01b0384166000908152610177602052604081208054849290612259908490614cb6565b90915550505b816101665461226e9190614c8d565b6101665580156122d357604051630852cd8d60e31b8152600481018290526001600160a01b038416906342966c6890602401600060405180830381600087803b1580156122ba57600080fd5b505af11580156122ce573d6000803e3d6000fd5b505050505b6122db61134d565b6122f75760405162461bcd60e51b8152600401610b4090614d3f565b61016454610178546040516323b872dd60e01b81526001600160a01b03928316926323b872dd926123319291169088908790600401614db1565b6020604051808303816000875af1158015612350573d6000803e3d6000fd5b505050506040513d601f19601f820116820180604052508101906123749190614d8f565b6123d55760405162461bcd60e51b815260206004820152602c60248201527f53656375726974697a6174696f6e506f6f6c3a2063757272656e63792d74726160448201526b1b9cd9995c8b59985a5b195960a21b6064820152608401610b40565b6123df6001606555565b50505050565b6123ed613aa5565b61015f54612403906001600160a01b0316613c36565b6001600160a01b0316336001600160a01b0316146124335760405162461bcd60e51b8152600401610b4090614e18565b6001600160a01b03808516600090815261016b6020908152604080832093871683529290522054612465908390614c8d565b6001600160a01b03808616600081815261016b602090815260408083209489168084529482528083209590955591815261016c825283812092815291905220546124b0908290614c8d565b6001600160a01b03808616600090815261016c6020908152604080832093881683529290522055610169546124e6908390614c8d565b61016955610168546124f9908390614cb6565b610168556001600160a01b038416600090815261016a6020526040902054611a10908290614c8d565b606061017580548060200260200160405190810160405280929190818152602001828054801561257b57602002820191906000526020600020905b81546001600160a01b0316815260019091019060200180831161255d575b5050505050905090565b610173818154811061259657600080fd5b60009182526020909120600290910201805460019091015463ffffffff8083169350640100000000808404821693600160401b8104831693600160601b8204841693600160801b8304811693600160a01b8404821693600160c01b8104831693600160e01b90910483169281811692909104168a565b600054610100900460ff161580801561262c5750600054600160ff909116105b806126465750303b158015612646575060005460ff166001145b6126a95760405162461bcd60e51b815260206004820152602e60248201527f496e697469616c697a61626c653a20636f6e747261637420697320616c72656160448201526d191e481a5b9a5d1a585b1a5e995960921b6064820152608401610b40565b6000805460ff1916600117905580156126cc576000805461ff0019166101001790555b6126d96127106064614c76565b8263ffffffff161061273d5760405162461bcd60e51b815260206004820152602760248201527f6d696e46697273744c6f737343757368696f6e20697320677265617465722074604482015266068616e203130360cc1b6064820152608401610b40565b6001600160a01b03831661279f5760405162461bcd60e51b8152602060048201526024808201527f53656375726974697a6174696f6e506f6f6c3a20496e76616c69642063757272604482015263656e637960e01b6064820152608401610b40565b6127a833613df3565b6127ce600080516020615123833981519152600080516020615103833981519152613e23565b61015f80546001600160a01b038681166001600160a01b03199283161790925561016480549286166001600160a81b031990931683179055610172805463ffffffff86166401000000000267ffffffff000000001990911617905561017880549091163090811790915560405163095ea7b360e01b81526004810191909152600019602482015263095ea7b3906044016020604051808303816000875af115801561287d573d6000803e3d6000fd5b505050506040513d601f19601f820116820180604052508101906128a19190614d8f565b6129025760405162461bcd60e51b815260206004820152602c60248201527f53656375726974697a6174696f6e506f6f6c3a2043757272656e63792061707060448201526b1c9bdd985b0819985a5b195960a21b6064820152608401610b40565b61015f54612918906001600160a01b0316613c12565b61015f546001600160a01b039182169163a22cb465916129389116613e6e565b6040516001600160e01b031960e084901b1681526001600160a01b03909116600482015260016024820152604401600060405180830381600087803b15801561298057600080fd5b505af1158015612994573d6000803e3d6000fd5b5050505080156123df576000805461ff0019169055604051600181527f7f26b83ff96e1f2b6a682f133852f6798a09c465da95921460cefb38474024989060200160405180910390a150505050565b610162546000906001600160a01b031615612ac95761016260009054906101000a90046001600160a01b03166001600160a01b03166318160ddd6040518163ffffffff1660e01b8152600401602060405180830381865afa158015612a4c573d6000803e3d6000fd5b505050506040513d601f19601f82011682018060405250810190612a709190614d76565b15612ac95760405162461bcd60e51b8152602060048201526024808201527f53656375726974697a6174696f6e506f6f6c3a20534f54207374696c6c20726560448201526336b0b4b760e11b6064820152608401610b40565b610163546001600160a01b031615612bac5761016360009054906101000a90046001600160a01b03166001600160a01b03166318160ddd6040518163ffffffff1660e01b8152600401602060405180830381865afa158015612b2f573d6000803e3d6000fd5b505050506040513d601f19601f82011682018060405250810190612b539190614d76565b15612bac5760405162461bcd60e51b8152602060048201526024808201527f53656375726974697a6174696f6e506f6f6c3a204a4f54207374696c6c20726560448201526336b0b4b760e11b6064820152608401610b40565b50600190565b6000600361016454600160a01b900460ff166003811115612bd557612bd5614bbd565b14905090565b612be3613aa5565b612beb613cf0565b600080516020615103833981519152612c0381613c1f565b600261016454600160a01b900460ff166003811115612c2457612c24614bbd565b14158015612c515750600361016454600160a01b900460ff166003811115612c4e57612c4e614bbd565b14155b612c9d5760405162461bcd60e51b815260206004820152601a60248201527f4e6f7420696e2069737375696e6720746f6b656e2073746167650000000000006044820152606401610b40565b6000856001600160401b031611612d025760405162461bcd60e51b8152602060048201526024808201527f53656375726974697a6174696f6e506f6f6c3a205465726d206c656e677468206044820152630697320360e41b6064820152608401610b40565b61016580546fffffffffffffffff00000000000000001916600160401b6001600160401b03881602179055610170849055610164805460ff60a01b1916600160a11b179055610160546001600160a01b031615612f2a57610160546040805163b3f05b9760e01b815290516001600160a01b0390921691829163b3f05b979160048083019260209291908290030181865afa158015612da5573d6000803e3d6000fd5b505050506040513d601f19601f82011682018060405250810190612dc99190614d8f565b612e355761017854604051632b8093bd60e01b8152600060048201526001600160a01b03918216602482015290821690632b8093bd90604401600060405180830381600087803b158015612e1c57600080fd5b505af1158015612e30573d6000803e3d6000fd5b505050505b6040516351c5295360e11b815263ffffffff851660048201526001600160401b038088166024830152841660448201526001600160a01b0382169063a38a52a690606401600060405180830381600087803b158015612e9357600080fd5b505af1158015612ea7573d6000803e3d6000fd5b50505050806001600160a01b0316631f0b10c56040518163ffffffff1660e01b8152600401602060405180830381865afa158015612ee9573d6000803e3d6000fd5b505050506040513d601f19601f82011682018060405250810190612f0d9190614f1f565b610172805463ffffffff191663ffffffff92909216919091179055505b610161546001600160a01b031615613084576101615461017854604051632b8093bd60e01b8152600060048201526001600160a01b039182166024820152911690632b8093bd90604401600060405180830381600087803b158015612f8e57600080fd5b505af1158015612fa2573d6000803e3d6000fd5b5050505061016160009054906101000a90046001600160a01b03166001600160a01b031663b3f05b976040518163ffffffff1660e01b8152600401602060405180830381865afa158015612ffa573d6000803e3d6000fd5b505050506040513d601f19601f8201168201806040525081019061301e9190614d8f565b6130845760405162461bcd60e51b815260206004820152603160248201527f53656375726974697a6174696f6e506f6f6c3a207365636f6e642073616c65206044820152706973207374696c6c206f6e20676f696e6760781b6064820152608401610b40565b506123df6001606555565b600061309a81613c1f565b61134a613e7b565b6130aa613aa5565b6130b2613cf0565b6000805160206151038339815191526130ca81613c1f565b6130d26129e3565b6131365760405162461bcd60e51b815260206004820152602f60248201527f53656375726974697a6174696f6e506f6f6c3a20526564656d7074696f6e206860448201526e185cc81b9bdd08199a5b9a5cda1959608a1b6064820152608401610b40565b61016454610178546040516370a0823160e01b81526001600160a01b0391821660048201819052919092169182916323b872dd91869084906370a0823190602401602060405180830381865afa158015613194573d6000803e3d6000fd5b505050506040513d601f19601f820116820180604052508101906131b89190614d76565b6040518463ffffffff1660e01b81526004016131d693929190614db1565b6020604051808303816000875af11580156131f5573d6000803e3d6000fd5b505050506040513d601f19601f820116820180604052508101906132199190614d8f565b6132355760405162461bcd60e51b8152600401610b4090614dd5565b505061134a6001606555565b600082815260fb602052604081206132599083613eb8565b9392505050565b613268613aa5565b61015f5461327e906001600160a01b0316613ec4565b6001600160a01b0316336001600160a01b0316146132f35760405162461bcd60e51b815260206004820152602c60248201527f53656375726974697a6174696f6e506f6f6c3a204f6e6c79204c6f616e52657060448201526b30bcb6b2b73a2937baba32b960a11b6064820152608401610b40565b80610166546133029190614cb6565b6101665561016d54613315908290614cb6565b61016d5550565b600091825260c9602090815260408084206001600160a01b0393909316845291905290205460ff1690565b61334f613aa5565b613357613cf0565b60008051602061510383398151915261336f81613c1f565b8386811461338f5760405162461bcd60e51b8152600401610b4090614e65565b8683146133ae5760405162461bcd60e51b8152600401610b4090614ec2565b60005b81811015613425576134018989838181106133ce576133ce614ca0565b90506020020160208101906133e39190614823565b8888848181106133f5576133f5614ca0565b90506020020135613ed1565b61341d5760405162461bcd60e51b8152600401610b4090614f3c565b6001016133b1565b5060005b81811015611f165788888281811061344357613443614ca0565b90506020020160208101906134589190614823565b6001600160a01b03166342842e0e3087878581811061347957613479614ca0565b905060200201602081019061348e9190614823565b8a8a868181106134a0576134a0614ca0565b905060200201356040518463ffffffff1660e01b81526004016134c593929190614db1565b600060405180830381600087803b1580156134df57600080fd5b505af11580156134f3573d6000803e3d6000fd5b505050506135018160010190565b9050613429565b613510613aa5565b61015f54613526906001600160a01b0316613c29565b6001600160a01b0316336001600160a01b0316148061356b575061015f54613556906001600160a01b0316613c36565b6001600160a01b0316336001600160a01b0316145b6135875760405162461bcd60e51b8152600401610b4090614cc9565b80610166546113229190614c8d565b61359e613aa5565b610160546001600160a01b0316336001600160a01b03161461361b5760405162461bcd60e51b815260206004820152603060248201527f53656375726974697a6174696f6e506f6f6c3a204f6e6c79207467652063616e60448201526f081d5c19185d19481a5b9d195c995cdd60821b6064820152608401610b40565b610172805463ffffffff191663ffffffff92909216919091179055565b600081815260fb60205260408120610ac690613f77565b600082815260c9602052604090206001015461366a81613c1f565b6118e18383613d72565b610175818154811061368557600080fd5b6000918252602090912001546001600160a01b0316905081565b6136a7613aa5565b6136af613cf0565b6136b7612bb2565b156136d45760405162461bcd60e51b8152600401610b4090614c18565b6000805160206151038339815191526136ec81613c1f565b8160005b818110156137325761370e878686848181106133f5576133f5614ca0565b61372a5760405162461bcd60e51b8152600401610b4090614f3c565b6001016136f0565b5060005b818110156137c957866001600160a01b03166342842e0e308888888681811061376157613761614ca0565b905060200201356040518463ffffffff1660e01b815260040161378693929190614db1565b600060405180830381600087803b1580156137a057600080fd5b505af11580156137b4573d6000803e3d6000fd5b505050506137c28160010190565b9050613736565b5050506123df6001606555565b6137de613aa5565b6137e6613cf0565b6137ee612bb2565b1561380b5760405162461bcd60e51b8152600401610b4090614c18565b60008051602061510383398151915261382381613c1f565b61383b6000805160206151038339815191528361331c565b1561384557600080fd5b610178546001600160a01b038084169116036138bd5760405162461bcd60e51b815260206004820152603160248201527f53656375726974697a6174696f6e506f6f6c3a2053616d652061646472657373604482015270081dda5d1a0818dd5c9c995b9d081c1bdd607a1b6064820152608401610b40565b61017880546001600160a01b0319166001600160a01b0384169081179091553090036139b757610164546101785460405163095ea7b360e01b81526001600160a01b039182166004820152600019602482015291169063095ea7b3906044016020604051808303816000875af115801561393b573d6000803e3d6000fd5b505050506040513d601f19601f8201168201806040525081019061395f9190614d8f565b6139b75760405162461bcd60e51b8152602060048201526024808201527f53656375726974697a6174696f6e506f6f6c3a20506f74206e6f7420617070726044820152631bdd995960e21b6064820152608401610b40565b61015f546139cd906001600160a01b0316613c29565b6101785460405163dc90f9fd60e01b81526001600160a01b03918216600482015291169063dc90f9fd90602401600060405180830381600087803b158015613a1457600080fd5b505af1158015613a28573d6000803e3d6000fd5b505050505061134a6001606555565b6101748181548110613a4857600080fd5b6000918252602090912060029091020180546001909101546001600160a01b03909116915082565b60006001600160e01b03198216637965db0b60e01b1480610ac657506301ffc9a760e01b6001600160e01b0319831614610ac6565b60335460ff1615610b515760405162461bcd60e51b815260206004820152601060248201526f14185d5cd8589b194e881c185d5cd95960821b6044820152606401610b40565b610160546001600160a01b0316613afe57565b6101605460408051639b52fe3360e01b815290516000926001600160a01b031691639b52fe339160048083019260209291908290030181865afa158015613b49573d6000803e3d6000fd5b505050506040513d601f19601f82011682018060405250810190613b6d9190614f84565b610164549091506001600160401b03600160a81b909104811690821615801590613ba057506000816001600160401b0316115b15611aad57816001600160401b0316816001600160401b03161115613be25761016580546001600160401b03831667ffffffffffffffff199091161790555050565b61016580546001600160401b03841667ffffffffffffffff199091161790555050565b6000610ac6826009613f81565b6000610ac6826008613f81565b61134a8133614006565b6000610ac6826000613f81565b6000610ac6826005613f81565b6000610ac6826011613f81565b6000610ac6826002613f81565b6001600160a01b0381166000908152610176602052604090205460ff16613ccb5761017580546001810182556000919091527f94b016e6b5eafb28c9d47c3523378ec087cc0ead8b7eff2840605504c1f1ac6f0180546001600160a01b0319166001600160a01b0383161790555b6001600160a01b0316600090815261017660205260409020805460ff19166001179055565b600260655403613d425760405162461bcd60e51b815260206004820152601f60248201527f5265656e7472616e637947756172643a207265656e7472616e742063616c6c006044820152606401610b40565b6002606555565b6001606555565b613d5a828261405f565b600082815260fb602052604090206118e190826140e5565b613d7c82826140fa565b600082815260fb602052604090206118e19082614161565b613d9c614176565b6033805460ff191690557f5db9ee0a495bf2e6ff9c91a7834c1ba4fdd244a5e8aa4e537bd38aeae4b073aa335b6040516001600160a01b03909116815260200160405180910390a1565b6000610ac6826007613f81565b600054610100900460ff16613e1a5760405162461bcd60e51b8152600401610b4090614fa1565b61134a816141bf565b600082815260c96020526040808220600101805490849055905190918391839186917fbd79b86ffe0ab8e8776151514217cd7cacd52c909f66475c3af44e129f0b00ff9190a4505050565b6000610ac682600d613f81565b613e83613aa5565b6033805460ff191660011790557f62e78cea01bee320cd4e420270b5ea74000d11b0c9f74754ebdbfc544b05a258613dc93390565b6000613259838361424a565b6000610ac682600c613f81565b61017454600090815b81811015613f6c57846001600160a01b03166101748281548110613f0057613f00614ca0565b60009182526020909120600290910201546001600160a01b0316148015613f4b5750836101748281548110613f3757613f37614ca0565b906000526020600020906002020160010154145b15613f6457613f5981614274565b600192505050610ac6565b600101613eda565b506000949350505050565b6000610ac6825490565b6000826001600160a01b031663bcaa0c55836019811115613fa457613fa4614bbd565b6040516001600160e01b031960e084901b16815260ff9091166004820152602401602060405180830381865afa158015613fe2573d6000803e3d6000fd5b505050506040513d601f19601f820116820180604052508101906132599190614fec565b614010828261331c565b611aad5761401d8161432d565b61402883602061433f565b60405160200161403992919061502d565b60408051601f198184030181529082905262461bcd60e51b8252610b40916004016150a2565b614069828261331c565b611aad57600082815260c9602090815260408083206001600160a01b03851684529091529020805460ff191660011790556140a13390565b6001600160a01b0316816001600160a01b0316837f2f8788117e7eff1d82e926ec794901d17c78024a50270940304540a733656f0d60405160405180910390a45050565b6000613259836001600160a01b0384166144da565b614104828261331c565b15611aad57600082815260c9602090815260408083206001600160a01b0385168085529252808320805460ff1916905551339285917ff6391f5c32d9c69d2a47ea670b442974b53935d1edc7fd64eb21e047a839171b9190a45050565b6000613259836001600160a01b038416614529565b60335460ff16610b515760405162461bcd60e51b815260206004820152601460248201527314185d5cd8589b194e881b9bdd081c185d5cd95960621b6044820152606401610b40565b600054610100900460ff166141e65760405162461bcd60e51b8152600401610b4090614fa1565b6141ee61461c565b6141f661464f565b6141fe614676565b6001600160a01b03811661420f5750335b61421a60008261469d565b6142326000805160206151038339815191528261469d565b61134a60008051602061510383398151915280613e23565b600082600001828154811061426157614261614ca0565b9060005260206000200154905092915050565b610174805461428590600190614c8d565b8154811061429557614295614ca0565b906000526020600020906002020161017482815481106142b7576142b7614ca0565b60009182526020909120825460029092020180546001600160a01b0319166001600160a01b03909216919091178155600191820154910155610174805480614301576143016150d5565b60008281526020812060026000199093019283020180546001600160a01b031916815560010155905550565b6060610ac66001600160a01b03831660145b6060600061434e836002614c76565b614359906002614cb6565b6001600160401b038111156143705761437061472e565b6040519080825280601f01601f19166020018201604052801561439a576020820181803683370190505b509050600360fc1b816000815181106143b5576143b5614ca0565b60200101906001600160f81b031916908160001a905350600f60fb1b816001815181106143e4576143e4614ca0565b60200101906001600160f81b031916908160001a9053506000614408846002614c76565b614413906001614cb6565b90505b600181111561448b576f181899199a1a9b1b9c1cb0b131b232b360811b85600f166010811061444757614447614ca0565b1a60f81b82828151811061445d5761445d614ca0565b60200101906001600160f81b031916908160001a90535060049490941c93614484816150eb565b9050614416565b5083156132595760405162461bcd60e51b815260206004820181905260248201527f537472696e67733a20686578206c656e67746820696e73756666696369656e746044820152606401610b40565b600081815260018301602052604081205461452157508154600181810184556000848152602080822090930184905584548482528286019093526040902091909155610ac6565b506000610ac6565b6000818152600183016020526040812054801561461257600061454d600183614c8d565b855490915060009061456190600190614c8d565b90508181146145c657600086600001828154811061458157614581614ca0565b90600052602060002001549050808760000184815481106145a4576145a4614ca0565b6000918252602080832090910192909255918252600188019052604090208390555b85548690806145d7576145d76150d5565b600190038181906000526020600020016000905590558560010160008681526020019081526020016000206000905560019350505050610ac6565b6000915050610ac6565b600054610100900460ff166146435760405162461bcd60e51b8152600401610b4090614fa1565b6033805460ff19169055565b600054610100900460ff16613d495760405162461bcd60e51b8152600401610b4090614fa1565b600054610100900460ff16610b515760405162461bcd60e51b8152600401610b4090614fa1565b611aad8282613d50565b508054600082556002029060005260206000209081019061134a91905b808211156146eb576000815560018101805467ffffffffffffffff191690556002016146c4565b5090565b60006020828403121561470157600080fd5b81356001600160e01b03198116811461325957600080fd5b6001600160a01b038116811461134a57600080fd5b634e487b7160e01b600052604160045260246000fd5b6000806000806080858703121561475a57600080fd5b843561476581614719565b9350602085013561477581614719565b92506040850135915060608501356001600160401b038082111561479857600080fd5b818701915087601f8301126147ac57600080fd5b8135818111156147be576147be61472e565b604051601f8201601f19908116603f011681019083821181831017156147e6576147e661472e565b816040528281528a60208487010111156147ff57600080fd5b82602086016020830137600060208483010152809550505050505092959194509250565b60006020828403121561483557600080fd5b813561325981614719565b60008083601f84011261485257600080fd5b5081356001600160401b0381111561486957600080fd5b6020830191508360208260051b850101111561488457600080fd5b9250929050565b600080600080600080606087890312156148a457600080fd5b86356001600160401b03808211156148bb57600080fd5b6148c78a838b01614840565b909850965060208901359150808211156148e057600080fd5b6148ec8a838b01614840565b9096509450604089013591508082111561490557600080fd5b5061491289828a01614840565b979a9699509497509295939492505050565b60006020828403121561493657600080fd5b5035919050565b6000806040838503121561495057600080fd5b82359150602083013561496281614719565b809150509250929050565b6000806000806080858703121561498357600080fd5b843561498e81614719565b9350602085013561499e81614719565b93969395505050506040820135916060013590565b600080600080606085870312156149c957600080fd5b84356149d481614719565b935060208501356149e481614719565b925060408501356001600160401b038111156149ff57600080fd5b614a0b87828801614840565b95989497509550505050565b600080600060608486031215614a2c57600080fd5b8335614a3781614719565b92506020840135614a4781614719565b9150604084013560028110614a5b57600080fd5b809150509250925092565b6020808252825182820181905260009190848201906040850190845b81811015614aa75783516001600160a01b031683529284019291840191600101614a82565b50909695505050505050565b63ffffffff8116811461134a57600080fd5b600080600060608486031215614ada57600080fd5b8335614ae581614719565b92506020840135614af581614719565b91506040840135614a5b81614ab3565b60008060408385031215614b1857600080fd5b8235614b2381614719565b9150602083013561496281614719565b6001600160401b038116811461134a57600080fd5b60008060008060808587031215614b5e57600080fd5b8435614b6981614b33565b9350602085013592506040850135614b8081614ab3565b91506060850135614b9081614b33565b939692955090935050565b60008060408385031215614bae57600080fd5b50508035926020909101359150565b634e487b7160e01b600052602160045260246000fd5b6020810160048310614bf557634e487b7160e01b600052602160045260246000fd5b91905290565b600060208284031215614c0d57600080fd5b813561325981614ab3565b60208082526028908201527f53656375726974697a6174696f6e506f6f6c3a20506f6f6c20696e20636c6f73604082015267656420737461746560c01b606082015260800190565b634e487b7160e01b600052601160045260246000fd5b8082028115828204841417610ac657610ac6614c60565b81810381811115610ac657610ac6614c60565b634e487b7160e01b600052603260045260246000fd5b80820180821115610ac657610ac6614c60565b60208082526050908201527f53656375726974697a6174696f6e506f6f6c3a2043616c6c6572206d7573742060408201527f62652053656375726974697a6174696f6e4d616e61676572206f72204469737460608201526f3934b13aba34b7b727b832b930ba37b960811b608082015260a00190565b6020808252601d908201527f4d696e46697273744c6f7373206973206e6f7420736174697366696564000000604082015260600190565b600060208284031215614d8857600080fd5b5051919050565b600060208284031215614da157600080fd5b8151801515811461325957600080fd5b6001600160a01b039384168152919092166020820152604081019190915260600190565b60208082526023908201527f53656375726974697a6174696f6e506f6f6c3a205472616e73666572206661696040820152621b195960ea1b606082015260800190565b6020808252602d908201527f53656375726974697a6174696f6e506f6f6c3a204f6e6c79204469737472696260408201526c3aba34b7b727b832b930ba37b960991b606082015260800190565b60208082526037908201527f746f6b656e416464726573736573206c656e67746820616e6420746f6b656e4960408201527f6473206c656e67746820617265206e6f7420657175616c000000000000000000606082015260800190565b60208082526039908201527f746f6b656e416464726573736573206c656e67746820616e642072656369706960408201527f656e7473206c656e67746820617265206e6f7420657175616c00000000000000606082015260800190565b600060208284031215614f3157600080fd5b815161325981614ab3565b60208082526028908201527f53656375726974697a6174696f6e506f6f6c3a20417373657420646f6573206e6040820152671bdd08195e1a5cdd60c21b606082015260800190565b600060208284031215614f9657600080fd5b815161325981614b33565b6020808252602b908201527f496e697469616c697a61626c653a20636f6e7472616374206973206e6f74206960408201526a6e697469616c697a696e6760a81b606082015260800190565b600060208284031215614ffe57600080fd5b815161325981614719565b60005b8381101561502457818101518382015260200161500c565b50506000910152565b7f416363657373436f6e74726f6c3a206163636f756e7420000000000000000000815260008351615065816017850160208801615009565b7001034b99036b4b9b9b4b733903937b6329607d1b6017918401918201528351615096816028840160208801615009565b01602801949350505050565b60208152600082518060208401526150c1816040850160208701615009565b601f01601f19169190910160400192915050565b634e487b7160e01b600052603160045260246000fd5b6000816150fa576150fa614c60565b50600019019056feb19546dff01e856fb3f010c267a7b1c60363cf8a4664e21cc89c26224620214e59abfac6520ec36a6556b2a4dd949cc40007459bcd5cd2507f1e5cc77b6bc97ea26469706673582212202822a6e9104ec6e2bb662a645a15e980374c78041a464f3353bdf93a5900c78164736f6c63430008130033"
}