{
  "address": "0x0a7a041479861365416Ee37B12e0d5DF171B7fE1",
  "abi": [
    {
      "inputs": [],
      "stateMutability": "nonpayable",
      "type": "constructor"
    },
    {
      "anonymous": false,
      "inputs": [
        {
          "indexed": false,
          "internalType": "address",
          "name": "token",
          "type": "address"
        }
      ],
      "name": "AddTokenAssetAddress",
      "type": "event"
    },
    {
      "anonymous": false,
      "inputs": [
        {
          "indexed": false,
          "internalType": "address",
          "name": "from",
          "type": "address"
        },
        {
          "indexed": false,
          "internalType": "uint256",
          "name": "value",
          "type": "uint256"
        }
      ],
      "name": "CollectAsset",
      "type": "event"
    },
    {
      "anonymous": false,
      "inputs": [
        {
          "indexed": false,
          "internalType": "uint8",
          "name": "version",
          "type": "uint8"
        }
      ],
      "name": "Initialized",
      "type": "event"
    },
    {
      "anonymous": false,
      "inputs": [
        {
          "indexed": false,
          "internalType": "address",
          "name": "token",
          "type": "address"
        },
        {
          "indexed": false,
          "internalType": "uint256",
          "name": "tokenId",
          "type": "uint256"
        }
      ],
      "name": "InsertNFTAsset",
      "type": "event"
    },
    {
      "anonymous": false,
      "inputs": [
        {
          "indexed": false,
          "internalType": "address",
          "name": "account",
          "type": "address"
        }
      ],
      "name": "Paused",
      "type": "event"
    },
    {
      "anonymous": false,
      "inputs": [
        {
          "indexed": false,
          "internalType": "address",
          "name": "token",
          "type": "address"
        },
        {
          "indexed": false,
          "internalType": "uint256",
          "name": "tokenId",
          "type": "uint256"
        }
      ],
      "name": "RemoveNFTAsset",
      "type": "event"
    },
    {
      "anonymous": false,
      "inputs": [
        {
          "indexed": true,
          "internalType": "bytes32",
          "name": "role",
          "type": "bytes32"
        },
        {
          "indexed": true,
          "internalType": "bytes32",
          "name": "previousAdminRole",
          "type": "bytes32"
        },
        {
          "indexed": true,
          "internalType": "bytes32",
          "name": "newAdminRole",
          "type": "bytes32"
        }
      ],
      "name": "RoleAdminChanged",
      "type": "event"
    },
    {
      "anonymous": false,
      "inputs": [
        {
          "indexed": true,
          "internalType": "bytes32",
          "name": "role",
          "type": "bytes32"
        },
        {
          "indexed": true,
          "internalType": "address",
          "name": "account",
          "type": "address"
        },
        {
          "indexed": true,
          "internalType": "address",
          "name": "sender",
          "type": "address"
        }
      ],
      "name": "RoleGranted",
      "type": "event"
    },
    {
      "anonymous": false,
      "inputs": [
        {
          "indexed": true,
          "internalType": "bytes32",
          "name": "role",
          "type": "bytes32"
        },
        {
          "indexed": true,
          "internalType": "address",
          "name": "account",
          "type": "address"
        },
        {
          "indexed": true,
          "internalType": "address",
          "name": "sender",
          "type": "address"
        }
      ],
      "name": "RoleRevoked",
      "type": "event"
    },
    {
      "anonymous": false,
      "inputs": [
        {
          "indexed": false,
          "internalType": "address",
          "name": "originatorAddress",
          "type": "address"
        },
        {
          "indexed": false,
          "internalType": "uint256",
          "name": "amount",
          "type": "uint256"
        }
      ],
      "name": "SecuritizationPoolWithdraw",
      "type": "event"
    },
    {
      "anonymous": false,
      "inputs": [
        {
          "indexed": false,
          "internalType": "address",
          "name": "account",
          "type": "address"
        }
      ],
      "name": "Unpaused",
      "type": "event"
    },
    {
      "anonymous": false,
      "inputs": [
        {
          "indexed": false,
          "internalType": "uint32",
          "name": "_interestRateSOT",
          "type": "uint32"
        }
      ],
      "name": "UpdateInterestRateSOT",
      "type": "event"
    },
    {
      "anonymous": false,
      "inputs": [
        {
          "indexed": true,
          "internalType": "address",
          "name": "tokenAddress",
          "type": "address"
        },
        {
          "indexed": true,
          "internalType": "address",
          "name": "investor",
          "type": "address"
        },
        {
          "indexed": false,
          "internalType": "uint256",
          "name": "lockedDistributeBalance",
          "type": "uint256"
        },
        {
          "indexed": false,
          "internalType": "uint256",
          "name": "lockedRedeemBalances",
          "type": "uint256"
        },
        {
          "indexed": false,
          "internalType": "uint256",
          "name": "totalLockedRedeemBalances",
          "type": "uint256"
        },
        {
          "indexed": false,
          "internalType": "uint256",
          "name": "totalLockedDistributeBalance",
          "type": "uint256"
        }
      ],
      "name": "UpdateLockedDistributeBalance",
      "type": "event"
    },
    {
      "anonymous": false,
      "inputs": [
        {
          "indexed": false,
          "internalType": "uint256",
          "name": "newTimestamp",
          "type": "uint256"
        }
      ],
      "name": "UpdateOpeningBlockTimestamp",
      "type": "event"
    },
    {
      "anonymous": false,
      "inputs": [
        {
          "indexed": true,
          "internalType": "address",
          "name": "user",
          "type": "address"
        },
        {
          "indexed": false,
          "internalType": "uint256",
          "name": "currencyAmount",
          "type": "uint256"
        }
      ],
      "name": "UpdatePaidPrincipalAmountSOTByInvestor",
      "type": "event"
    },
    {
      "anonymous": false,
      "inputs": [
        {
          "indexed": false,
          "internalType": "uint256",
          "name": "currencyAmount",
          "type": "uint256"
        }
      ],
      "name": "UpdateReserve",
      "type": "event"
    },
    {
      "anonymous": false,
      "inputs": [
        {
          "indexed": false,
          "internalType": "address",
          "name": "tge",
          "type": "address"
        },
        {
          "indexed": false,
          "internalType": "address",
          "name": "token",
          "type": "address"
        },
        {
          "indexed": false,
          "internalType": "enum Configuration.NOTE_TOKEN_TYPE",
          "name": "noteType",
          "type": "uint8"
        }
      ],
      "name": "UpdateTGEAddress",
      "type": "event"
    },
    {
      "inputs": [],
      "name": "DEFAULT_ADMIN_ROLE",
      "outputs": [
        {
          "internalType": "bytes32",
          "name": "",
          "type": "bytes32"
        }
      ],
      "stateMutability": "view",
      "type": "function"
    },
    {
      "inputs": [],
      "name": "ORIGINATOR_ROLE",
      "outputs": [
        {
          "internalType": "bytes32",
          "name": "",
          "type": "bytes32"
        }
      ],
      "stateMutability": "view",
      "type": "function"
    },
    {
      "inputs": [],
      "name": "OWNER_ROLE",
      "outputs": [
        {
          "internalType": "bytes32",
          "name": "",
          "type": "bytes32"
        }
      ],
      "stateMutability": "view",
      "type": "function"
    },
    {
      "inputs": [],
      "name": "RATE_SCALING_FACTOR",
      "outputs": [
        {
          "internalType": "uint256",
          "name": "",
          "type": "uint256"
        }
      ],
      "stateMutability": "view",
      "type": "function"
    },
    {
      "inputs": [],
      "name": "amountOwedToOriginator",
      "outputs": [
        {
          "internalType": "uint256",
          "name": "",
          "type": "uint256"
        }
      ],
      "stateMutability": "view",
      "type": "function"
    },
    {
      "inputs": [],
      "name": "checkMinFirstLost",
      "outputs": [
        {
          "internalType": "bool",
          "name": "",
          "type": "bool"
        }
      ],
      "stateMutability": "view",
      "type": "function"
    },
    {
      "inputs": [
        {
          "internalType": "address",
          "name": "recipientWallet",
          "type": "address"
        }
      ],
      "name": "claimCashRemain",
      "outputs": [],
      "stateMutability": "nonpayable",
      "type": "function"
    },
    {
      "inputs": [
        {
          "internalType": "address[]",
          "name": "tokenAddresses",
          "type": "address[]"
        },
        {
          "internalType": "address[]",
          "name": "senders",
          "type": "address[]"
        },
        {
          "internalType": "uint256[]",
          "name": "amounts",
          "type": "uint256[]"
        }
      ],
      "name": "collectERC20Assets",
      "outputs": [],
      "stateMutability": "nonpayable",
      "type": "function"
    },
    {
      "inputs": [
        {
          "internalType": "address",
          "name": "tokenAddress",
          "type": "address"
        },
        {
          "internalType": "address",
          "name": "investor",
          "type": "address"
        },
        {
          "internalType": "uint256",
          "name": "currency",
          "type": "uint256"
        },
        {
          "internalType": "uint256",
          "name": "token",
          "type": "uint256"
        }
      ],
      "name": "decreaseLockedDistributeBalance",
      "outputs": [],
      "stateMutability": "nonpayable",
      "type": "function"
    },
    {
      "inputs": [
        {
          "internalType": "uint256",
          "name": "currencyAmount",
          "type": "uint256"
        }
      ],
      "name": "decreaseReserve",
      "outputs": [],
      "stateMutability": "nonpayable",
      "type": "function"
    },
    {
      "inputs": [
        {
          "internalType": "address",
          "name": "",
          "type": "address"
        }
      ],
      "name": "existsTokenAssetAddress",
      "outputs": [
        {
          "internalType": "bool",
          "name": "",
          "type": "bool"
        }
      ],
      "stateMutability": "view",
      "type": "function"
    },
    {
      "inputs": [
        {
          "internalType": "address",
          "name": "tokenAddress",
          "type": "address"
        },
        {
          "internalType": "address",
          "name": "toPoolAddress",
          "type": "address"
        },
        {
          "internalType": "uint256[]",
          "name": "tokenIds",
          "type": "uint256[]"
        }
      ],
      "name": "exportAssets",
      "outputs": [],
      "stateMutability": "nonpayable",
      "type": "function"
    },
    {
      "inputs": [],
      "name": "firstAssetTimestamp",
      "outputs": [
        {
          "internalType": "uint64",
          "name": "",
          "type": "uint64"
        }
      ],
      "stateMutability": "view",
      "type": "function"
    },
    {
      "inputs": [],
      "name": "getInitializedVersion",
      "outputs": [
        {
          "internalType": "uint256",
          "name": "",
          "type": "uint256"
        }
      ],
      "stateMutability": "view",
      "type": "function"
    },
    {
      "inputs": [],
      "name": "getNFTAssetsLength",
      "outputs": [
        {
          "internalType": "uint256",
          "name": "",
          "type": "uint256"
        }
      ],
      "stateMutability": "view",
      "type": "function"
    },
    {
      "inputs": [],
      "name": "getRiskScoresLength",
      "outputs": [
        {
          "internalType": "uint256",
          "name": "",
          "type": "uint256"
        }
      ],
      "stateMutability": "view",
      "type": "function"
    },
    {
      "inputs": [
        {
          "internalType": "bytes32",
          "name": "role",
          "type": "bytes32"
        }
      ],
      "name": "getRoleAdmin",
      "outputs": [
        {
          "internalType": "bytes32",
          "name": "",
          "type": "bytes32"
        }
      ],
      "stateMutability": "view",
      "type": "function"
    },
    {
      "inputs": [
        {
          "internalType": "bytes32",
          "name": "role",
          "type": "bytes32"
        },
        {
          "internalType": "uint256",
          "name": "index",
          "type": "uint256"
        }
      ],
      "name": "getRoleMember",
      "outputs": [
        {
          "internalType": "address",
          "name": "",
          "type": "address"
        }
      ],
      "stateMutability": "view",
      "type": "function"
    },
    {
      "inputs": [
        {
          "internalType": "bytes32",
          "name": "role",
          "type": "bytes32"
        }
      ],
      "name": "getRoleMemberCount",
      "outputs": [
        {
          "internalType": "uint256",
          "name": "",
          "type": "uint256"
        }
      ],
      "stateMutability": "view",
      "type": "function"
    },
    {
      "inputs": [],
      "name": "getTokenAssetAddresses",
      "outputs": [
        {
          "internalType": "address[]",
          "name": "",
          "type": "address[]"
        }
      ],
      "stateMutability": "view",
      "type": "function"
    },
    {
      "inputs": [],
      "name": "getTokenAssetAddressesLength",
      "outputs": [
        {
          "internalType": "uint256",
          "name": "",
          "type": "uint256"
        }
      ],
      "stateMutability": "view",
      "type": "function"
    },
    {
      "inputs": [
        {
          "internalType": "bytes32",
          "name": "role",
          "type": "bytes32"
        },
        {
          "internalType": "address",
          "name": "account",
          "type": "address"
        }
      ],
      "name": "grantRole",
      "outputs": [],
      "stateMutability": "nonpayable",
      "type": "function"
    },
    {
      "inputs": [],
      "name": "hasFinishedRedemption",
      "outputs": [
        {
          "internalType": "bool",
          "name": "",
          "type": "bool"
        }
      ],
      "stateMutability": "view",
      "type": "function"
    },
    {
      "inputs": [
        {
          "internalType": "bytes32",
          "name": "role",
          "type": "bytes32"
        },
        {
          "internalType": "address",
          "name": "account",
          "type": "address"
        }
      ],
      "name": "hasRole",
      "outputs": [
        {
          "internalType": "bool",
          "name": "",
          "type": "bool"
        }
      ],
      "stateMutability": "view",
      "type": "function"
    },
    {
      "inputs": [
        {
          "internalType": "address",
          "name": "tokenAddress",
          "type": "address"
        },
        {
          "internalType": "address",
          "name": "investor",
          "type": "address"
        },
        {
          "internalType": "uint256",
          "name": "currency",
          "type": "uint256"
        },
        {
          "internalType": "uint256",
          "name": "token",
          "type": "uint256"
        }
      ],
      "name": "increaseLockedDistributeBalance",
      "outputs": [],
      "stateMutability": "nonpayable",
      "type": "function"
    },
    {
      "inputs": [
        {
          "internalType": "uint256",
          "name": "currencyAmount",
          "type": "uint256"
        }
      ],
      "name": "increaseReserve",
      "outputs": [],
      "stateMutability": "nonpayable",
      "type": "function"
    },
    {
      "inputs": [
        {
          "internalType": "uint256",
          "name": "amount",
          "type": "uint256"
        }
      ],
      "name": "increaseTotalAssetRepaidCurrency",
      "outputs": [],
      "stateMutability": "nonpayable",
      "type": "function"
    },
    {
      "inputs": [
        {
          "internalType": "contract Registry",
          "name": "_registry",
          "type": "address"
        },
        {
          "internalType": "bytes",
          "name": "params",
          "type": "bytes"
        }
      ],
      "name": "initialize",
      "outputs": [],
      "stateMutability": "nonpayable",
      "type": "function"
    },
    {
      "inputs": [
        {
          "internalType": "address",
          "name": "_tgeAddress",
          "type": "address"
        },
        {
          "internalType": "address",
          "name": "_tokenAddress",
          "type": "address"
        },
        {
          "internalType": "enum Configuration.NOTE_TOKEN_TYPE",
          "name": "_noteType",
          "type": "uint8"
        }
      ],
      "name": "injectTGEAddress",
      "outputs": [],
      "stateMutability": "nonpayable",
      "type": "function"
    },
    {
      "inputs": [],
      "name": "interestRateSOT",
      "outputs": [
        {
          "internalType": "uint32",
          "name": "",
          "type": "uint32"
        }
      ],
      "stateMutability": "view",
      "type": "function"
    },
    {
      "inputs": [],
      "name": "isAdmin",
      "outputs": [
        {
          "internalType": "bool",
          "name": "",
          "type": "bool"
        }
      ],
      "stateMutability": "view",
      "type": "function"
    },
    {
      "inputs": [],
      "name": "isClosedState",
      "outputs": [
        {
          "internalType": "bool",
          "name": "",
          "type": "bool"
        }
      ],
      "stateMutability": "view",
      "type": "function"
    },
    {
      "inputs": [],
      "name": "jotToken",
      "outputs": [
        {
          "internalType": "address",
          "name": "",
          "type": "address"
        }
      ],
      "stateMutability": "view",
      "type": "function"
    },
    {
      "inputs": [
        {
          "internalType": "address",
          "name": "",
          "type": "address"
        }
      ],
      "name": "lastRepayTimestampSOT",
      "outputs": [
        {
          "internalType": "uint256",
          "name": "",
          "type": "uint256"
        }
      ],
      "stateMutability": "view",
      "type": "function"
    },
    {
      "inputs": [
        {
          "internalType": "address",
          "name": "",
          "type": "address"
        },
        {
          "internalType": "address",
          "name": "",
          "type": "address"
        }
      ],
      "name": "lockedDistributeBalances",
      "outputs": [
        {
          "internalType": "uint256",
          "name": "",
          "type": "uint256"
        }
      ],
      "stateMutability": "view",
      "type": "function"
    },
    {
      "inputs": [
        {
          "internalType": "address",
          "name": "",
          "type": "address"
        },
        {
          "internalType": "address",
          "name": "",
          "type": "address"
        }
      ],
      "name": "lockedRedeemBalances",
      "outputs": [
        {
          "internalType": "uint256",
          "name": "",
          "type": "uint256"
        }
      ],
      "stateMutability": "view",
      "type": "function"
    },
    {
      "inputs": [],
      "name": "minFirstLossCushion",
      "outputs": [
        {
          "internalType": "uint32",
          "name": "",
          "type": "uint32"
        }
      ],
      "stateMutability": "view",
      "type": "function"
    },
    {
      "inputs": [
        {
          "internalType": "uint256",
          "name": "",
          "type": "uint256"
        }
      ],
      "name": "nftAssets",
      "outputs": [
        {
          "internalType": "address",
          "name": "tokenAddress",
          "type": "address"
        },
        {
          "internalType": "uint256",
          "name": "tokenId",
          "type": "uint256"
        }
      ],
      "stateMutability": "view",
      "type": "function"
    },
    {
      "inputs": [
        {
          "internalType": "address",
          "name": "",
          "type": "address"
        },
        {
          "internalType": "address",
          "name": "",
          "type": "address"
        },
        {
          "internalType": "uint256",
          "name": "tokenId",
          "type": "uint256"
        },
        {
          "internalType": "bytes",
          "name": "",
          "type": "bytes"
        }
      ],
      "name": "onERC721Received",
      "outputs": [
        {
          "internalType": "bytes4",
          "name": "",
          "type": "bytes4"
        }
      ],
      "stateMutability": "nonpayable",
      "type": "function"
    },
    {
      "inputs": [],
      "name": "openingBlockTimestamp",
      "outputs": [
        {
          "internalType": "uint64",
          "name": "",
          "type": "uint64"
        }
      ],
      "stateMutability": "view",
      "type": "function"
    },
    {
      "inputs": [
        {
          "internalType": "address",
          "name": "",
          "type": "address"
        }
      ],
      "name": "paidInterestAmountSOT",
      "outputs": [
        {
          "internalType": "uint256",
          "name": "",
          "type": "uint256"
        }
      ],
      "stateMutability": "view",
      "type": "function"
    },
    {
      "inputs": [],
      "name": "paidPrincipalAmountSOT",
      "outputs": [
        {
          "internalType": "uint256",
          "name": "",
          "type": "uint256"
        }
      ],
      "stateMutability": "view",
      "type": "function"
    },
    {
      "inputs": [
        {
          "internalType": "address",
          "name": "",
          "type": "address"
        }
      ],
      "name": "paidPrincipalAmountSOTByInvestor",
      "outputs": [
        {
          "internalType": "uint256",
          "name": "",
          "type": "uint256"
        }
      ],
      "stateMutability": "view",
      "type": "function"
    },
    {
      "inputs": [],
      "name": "pause",
      "outputs": [],
      "stateMutability": "nonpayable",
      "type": "function"
    },
    {
      "inputs": [],
      "name": "paused",
      "outputs": [
        {
          "internalType": "bool",
          "name": "",
          "type": "bool"
        }
      ],
      "stateMutability": "view",
      "type": "function"
    },
    {
      "inputs": [],
      "name": "pot",
      "outputs": [
        {
          "internalType": "address",
          "name": "",
          "type": "address"
        }
      ],
      "stateMutability": "view",
      "type": "function"
    },
    {
      "inputs": [],
      "name": "principalAmountSOT",
      "outputs": [
        {
          "internalType": "uint256",
          "name": "",
          "type": "uint256"
        }
      ],
      "stateMutability": "view",
      "type": "function"
    },
    {
      "inputs": [
        {
          "internalType": "address",
          "name": "usr",
          "type": "address"
        },
        {
          "internalType": "address",
          "name": "notesToken",
          "type": "address"
        },
        {
          "internalType": "uint256",
          "name": "currencyAmount",
          "type": "uint256"
        },
        {
          "internalType": "uint256",
          "name": "tokenAmount",
          "type": "uint256"
        }
      ],
      "name": "redeem",
      "outputs": [],
      "stateMutability": "nonpayable",
      "type": "function"
    },
    {
      "inputs": [],
      "name": "registry",
      "outputs": [
        {
          "internalType": "contract Registry",
          "name": "",
          "type": "address"
        }
      ],
      "stateMutability": "view",
      "type": "function"
    },
    {
      "inputs": [
        {
          "internalType": "bytes32",
          "name": "role",
          "type": "bytes32"
        },
        {
          "internalType": "address",
          "name": "account",
          "type": "address"
        }
      ],
      "name": "renounceRole",
      "outputs": [],
      "stateMutability": "nonpayable",
      "type": "function"
    },
    {
      "inputs": [],
      "name": "reserve",
      "outputs": [
        {
          "internalType": "uint256",
          "name": "",
          "type": "uint256"
        }
      ],
      "stateMutability": "view",
      "type": "function"
    },
    {
      "inputs": [
        {
          "internalType": "bytes32",
          "name": "role",
          "type": "bytes32"
        },
        {
          "internalType": "address",
          "name": "account",
          "type": "address"
        }
      ],
      "name": "revokeRole",
      "outputs": [],
      "stateMutability": "nonpayable",
      "type": "function"
    },
    {
      "inputs": [
        {
          "internalType": "uint256",
          "name": "",
          "type": "uint256"
        }
      ],
      "name": "riskScores",
      "outputs": [
        {
          "internalType": "uint32",
          "name": "daysPastDue",
          "type": "uint32"
        },
        {
          "internalType": "uint32",
          "name": "advanceRate",
          "type": "uint32"
        },
        {
          "internalType": "uint32",
          "name": "penaltyRate",
          "type": "uint32"
        },
        {
          "internalType": "uint32",
          "name": "interestRate",
          "type": "uint32"
        },
        {
          "internalType": "uint32",
          "name": "probabilityOfDefault",
          "type": "uint32"
        },
        {
          "internalType": "uint32",
          "name": "lossGivenDefault",
          "type": "uint32"
        },
        {
          "internalType": "uint32",
          "name": "gracePeriod",
          "type": "uint32"
        },
        {
          "internalType": "uint32",
          "name": "collectionPeriod",
          "type": "uint32"
        },
        {
          "internalType": "uint32",
          "name": "writeOffAfterGracePeriod",
          "type": "uint32"
        },
        {
          "internalType": "uint32",
          "name": "writeOffAfterCollectionPeriod",
          "type": "uint32"
        },
        {
          "internalType": "uint32",
          "name": "discountRate",
          "type": "uint32"
        }
      ],
      "stateMutability": "view",
      "type": "function"
    },
    {
      "inputs": [],
      "name": "secondTGEAddress",
      "outputs": [
        {
          "internalType": "address",
          "name": "",
          "type": "address"
        }
      ],
      "stateMutability": "view",
      "type": "function"
    },
    {
      "inputs": [
        {
          "internalType": "uint32",
          "name": "_interestRateSOT",
          "type": "uint32"
        }
      ],
      "name": "setInterestRateForSOT",
      "outputs": [],
      "stateMutability": "nonpayable",
      "type": "function"
    },
    {
      "inputs": [
        {
          "internalType": "address",
          "name": "_pot",
          "type": "address"
        }
      ],
      "name": "setPot",
      "outputs": [],
      "stateMutability": "nonpayable",
      "type": "function"
    },
    {
      "inputs": [
        {
          "internalType": "bytes32",
          "name": "role",
          "type": "bytes32"
        },
        {
          "internalType": "bytes32",
          "name": "adminRole",
          "type": "bytes32"
        }
      ],
      "name": "setRoleAdmin",
      "outputs": [],
      "stateMutability": "nonpayable",
      "type": "function"
    },
    {
      "inputs": [],
      "name": "setStartCollectAsset",
      "outputs": [],
      "stateMutability": "nonpayable",
      "type": "function"
    },
    {
      "inputs": [],
      "name": "setUpOpeningBlockTimestamp",
      "outputs": [],
      "stateMutability": "nonpayable",
      "type": "function"
    },
    {
      "inputs": [
        {
          "internalType": "uint32[]",
          "name": "_daysPastDues",
          "type": "uint32[]"
        },
        {
          "internalType": "uint32[]",
          "name": "_ratesAndDefaults",
          "type": "uint32[]"
        },
        {
          "internalType": "uint32[]",
          "name": "_periodsAndWriteOffs",
          "type": "uint32[]"
        }
      ],
      "name": "setupRiskScores",
      "outputs": [],
      "stateMutability": "nonpayable",
      "type": "function"
    },
    {
      "inputs": [],
      "name": "sotToken",
      "outputs": [
        {
          "internalType": "address",
          "name": "",
          "type": "address"
        }
      ],
      "stateMutability": "view",
      "type": "function"
    },
    {
      "inputs": [
        {
          "internalType": "uint64",
          "name": "_termLengthInSeconds",
          "type": "uint64"
        },
        {
          "internalType": "uint256",
          "name": "_principalAmountForSOT",
          "type": "uint256"
        },
        {
          "internalType": "uint32",
          "name": "_interestRateForSOT",
          "type": "uint32"
        },
        {
          "internalType": "uint64",
          "name": "_timeStartEarningInterest",
          "type": "uint64"
        }
      ],
      "name": "startCycle",
      "outputs": [],
      "stateMutability": "nonpayable",
      "type": "function"
    },
    {
      "inputs": [],
      "name": "state",
      "outputs": [
        {
          "internalType": "enum ISecuritizationPool.CycleState",
          "name": "",
          "type": "uint8"
        }
      ],
      "stateMutability": "view",
      "type": "function"
    },
    {
      "inputs": [
        {
          "internalType": "bytes4",
          "name": "interfaceId",
          "type": "bytes4"
        }
      ],
      "name": "supportsInterface",
      "outputs": [
        {
          "internalType": "bool",
          "name": "",
          "type": "bool"
        }
      ],
      "stateMutability": "view",
      "type": "function"
    },
    {
      "inputs": [],
      "name": "termLengthInSeconds",
      "outputs": [
        {
          "internalType": "uint64",
          "name": "",
          "type": "uint64"
        }
      ],
      "stateMutability": "view",
      "type": "function"
    },
    {
      "inputs": [],
      "name": "tgeAddress",
      "outputs": [
        {
          "internalType": "address",
          "name": "",
          "type": "address"
        }
      ],
      "stateMutability": "view",
      "type": "function"
    },
    {
      "inputs": [
        {
          "internalType": "uint256",
          "name": "",
          "type": "uint256"
        }
      ],
      "name": "tokenAssetAddresses",
      "outputs": [
        {
          "internalType": "address",
          "name": "",
          "type": "address"
        }
      ],
      "stateMutability": "view",
      "type": "function"
    },
    {
      "inputs": [],
      "name": "totalAssetRepaidCurrency",
      "outputs": [
        {
          "internalType": "uint256",
          "name": "",
          "type": "uint256"
        }
      ],
      "stateMutability": "view",
      "type": "function"
    },
    {
      "inputs": [],
      "name": "totalLockedDistributeBalance",
      "outputs": [
        {
          "internalType": "uint256",
          "name": "",
          "type": "uint256"
        }
      ],
      "stateMutability": "view",
      "type": "function"
    },
    {
      "inputs": [
        {
          "internalType": "address",
          "name": "",
          "type": "address"
        }
      ],
      "name": "totalLockedRedeemBalances",
      "outputs": [
        {
          "internalType": "uint256",
          "name": "",
          "type": "uint256"
        }
      ],
      "stateMutability": "view",
      "type": "function"
    },
    {
      "inputs": [],
      "name": "totalRedeemedCurrency",
      "outputs": [
        {
          "internalType": "uint256",
          "name": "",
          "type": "uint256"
        }
      ],
      "stateMutability": "view",
      "type": "function"
    },
    {
      "inputs": [],
      "name": "underlyingCurrency",
      "outputs": [
        {
          "internalType": "address",
          "name": "",
          "type": "address"
        }
      ],
      "stateMutability": "view",
      "type": "function"
    },
    {
      "inputs": [],
      "name": "unpause",
      "outputs": [],
      "stateMutability": "nonpayable",
      "type": "function"
    },
    {
      "inputs": [],
      "name": "validatorRequired",
      "outputs": [
        {
          "internalType": "bool",
          "name": "",
          "type": "bool"
        }
      ],
      "stateMutability": "view",
      "type": "function"
    },
    {
      "inputs": [
        {
          "internalType": "address",
          "name": "to",
          "type": "address"
        },
        {
          "internalType": "uint256",
          "name": "amount",
          "type": "uint256"
        }
      ],
      "name": "withdraw",
      "outputs": [],
      "stateMutability": "nonpayable",
      "type": "function"
    },
    {
      "inputs": [
        {
          "internalType": "address[]",
          "name": "tokenAddresses",
          "type": "address[]"
        },
        {
          "internalType": "uint256[]",
          "name": "tokenIds",
          "type": "uint256[]"
        },
        {
          "internalType": "address[]",
          "name": "recipients",
          "type": "address[]"
        }
      ],
      "name": "withdrawAssets",
      "outputs": [],
      "stateMutability": "nonpayable",
      "type": "function"
    },
    {
      "inputs": [
        {
          "internalType": "address[]",
          "name": "tokenAddresses",
          "type": "address[]"
        },
        {
          "internalType": "address[]",
          "name": "recipients",
          "type": "address[]"
        },
        {
          "internalType": "uint256[]",
          "name": "amounts",
          "type": "uint256[]"
        }
      ],
      "name": "withdrawERC20Assets",
      "outputs": [],
      "stateMutability": "nonpayable",
      "type": "function"
    }
  ],
  "transactionHash": "0xfbc77fe06fa19f111ac6fd3f1d4afa44a9e5e50184f9e652e4de66578e302edb",
  "args": [],
  "numDeployments": 12,
  "solcInputHash": "9d77aea4366a24aed595f3247eca4a26",
  "bytecode": "0x60806040523480156200001157600080fd5b506200001c62000022565b620000e3565b600054610100900460ff16156200008f5760405162461bcd60e51b815260206004820152602760248201527f496e697469616c697a61626c653a20636f6e747261637420697320696e697469604482015266616c697a696e6760c81b606482015260840160405180910390fd5b60005460ff90811614620000e1576000805460ff191660ff9081179091556040519081527f7f26b83ff96e1f2b6a682f133852f6798a09c465da95921460cefb38474024989060200160405180910390a15b565b615bf080620000f36000396000f3fe608060405234801561001057600080fd5b506004361061045f5760003560e01c806378d29d551161024c578063bff8a36d11610146578063d8ba6f44116100c3578063ed295bd411610087578063ed295bd414610a91578063ed34889514610a99578063f3fef3a314610aac578063fa3908b114610abf578063febd601814610af157600080fd5b8063d8ba6f4414610a44578063dec2858714610a57578063df076fe014610a6a578063e2eda54114610a73578063e58378bb14610a7c57600080fd5b8063cd3293de1161010a578063cd3293de146109e9578063cee7b6a1146109f3578063d1f57894146109fd578063d2fad48114610a10578063d547741f14610a3157600080fd5b8063bff8a36d14610984578063c19d93fb14610997578063c6cb67a6146109b9578063ca15c873146109cc578063cb15a134146109df57600080fd5b806390161705116101d4578063ac2a6a3811610198578063ac2a6a3814610931578063ade0ea6d1461095d578063b3c6501514610967578063b6db75a014610972578063b8cd9b001461097a57600080fd5b806390161705146108db57806391d14854146108ee578063a125142b14610901578063a217fddf14610916578063a6c595471461091e57600080fd5b8063815d6ddf1161021b578063815d6ddf146108815780638456cb59146108945780638fd6b71e1461089c57806390071cf3146108b55780639010d07c146108c857600080fd5b806378d29d551461082f5780637b103999146108375780637da220e61461084b5780637dfbdae21461087757600080fd5b806336568abe1161035d5780634bb48586116102e5578063644b4ead116102a9578063644b4ead1461075c5780636456a3ee146107d75780636ee44c4c146107eb57806370d2f3991461080657806375b1bce71461082757600080fd5b80634bb48586146106f25780634be47418146107165780635b8e62e7146107295780635c975abb1461073c5780636421cede1461074757600080fd5b80633ffebce41161032c5780633ffebce4146106815780634020c8d1146106a2578063477035d1146106b75780634b552a4a146106cb5780634ba2363a146106de57600080fd5b806336568abe146106205780633bf4045f146106335780633d79ab03146106465780633f4ba83a1461067957600080fd5b806320585408116103eb5780632b71b450116103af5780632b71b450146105b75780632bb14ff0146105cb5780632bcc3682146105f15780632f2ff15d146105fa578063357a03021461060d57600080fd5b8063205854081461055b578063206c176514610565578063221dc5931461056d578063247fc36314610581578063248a9ca31461059457600080fd5b8063150b7a0211610432578063150b7a02146104d55780631ba6e957146105015780631bf51b70146105225780631e4e0091146105355780631fbf7c3e1461054857600080fd5b806301ffc9a71461046457806306aac7ec1461048c5780630b7792f1146104965780630bc6bffc146104a9575b600080fd5b610477610472366004614fb9565b610b05565b60405190151581526020015b60405180910390f35b610494610b30565b005b610174545b604051908152602001610483565b610164546104bd906001600160a01b031681565b6040516001600160a01b039091168152602001610483565b6104e86104e336600461509a565b610bb7565b6040516001600160e01b03199091168152602001610483565b61049b61050f366004615105565b61016e6020526000908152604090205481565b61049461053036600461516d565b610d30565b610494610543366004615206565b61148a565b610494610556366004615228565b6114a4565b61049b6101685481565b610477611599565b610161546104bd906001600160a01b031681565b61049461058f36600461516d565b611639565b61049b6105a2366004615228565b600090815260c9602052604090206001015490565b610163546104bd906001600160a01b031681565b610172546105dc9063ffffffff1681565b60405163ffffffff9091168152602001610483565b6101735461049b565b610494610608366004615241565b6119dd565b61049461061b366004615271565b611a02565b61049461062e366004615241565b611bcd565b61049461064136600461516d565b611c4b565b6101645461066190600160a81b90046001600160401b031681565b6040516001600160401b039091168152602001610483565b610494611f50565b61049b61068f366004615105565b6101776020526000908152604090205481565b6101785461047790600160a01b900460ff1681565b61016554610661906001600160401b031681565b6104946106d93660046152b7565b612034565b610178546104bd906001600160a01b031681565b610477610700366004615105565b6101766020526000908152604090205460ff1681565b610494610724366004615271565b6122a7565b610494610737366004615271565b612591565b60335460ff16610477565b61074f6126ce565b6040516104839190615306565b61076f61076a366004615228565b612731565b6040805163ffffffff9c8d1681529a8c1660208c0152988b16988a01989098529589166060890152938816608088015291871660a0870152861660c0860152851660e08501528416610100840152831661012083015290911661014082015261016001610483565b610160546104bd906001600160a01b031681565b6101655461066190600160401b90046001600160401b031681565b61049b610814366004615105565b61016a6020526000908152604090205481565b6104776127bf565b61047761298e565b61015f546104bd906001600160a01b031681565b61049b610859366004615353565b61016b60209081526000928352604080842090915290825290205481565b61049b6101695481565b61049461088f3660046153a8565b6129b7565b610494612e64565b610172546105dc90640100000000900463ffffffff1681565b6104946108c3366004615105565b612f48565b6104bd6108d6366004615206565b6130d3565b6104946108e9366004615228565b6130f2565b6104776108fc366004615241565b6131df565b61049b600080516020615b9b83398151915281565b61049b600081565b61049461092c36600461516d565b61320a565b61049b61093f366004615353565b61016c60209081526000928352604080842090915290825290205481565b61049b6101715481565b60005460ff1661049b565b6104776133d8565b61049b6101705481565b610494610992366004615228565b6133f7565b610164546109ac90600160a01b900460ff1681565b6040516104839190615411565b6104946109c736600461542b565b613485565b61049b6109da366004615228565b613553565b61049b6101675481565b61049b6101665481565b61049b61016d5481565b610494610a0b366004615448565b61356a565b61049b610a1e366004615105565b61016f6020526000908152604090205481565b610494610a3f366004615241565b61397f565b6104bd610a52366004615228565b6139a4565b610494610a65366004615497565b6139cf565b6101755461049b565b61049b61271081565b61049b600080516020615b5b83398151915281565b610494613bc9565b610494610aa7366004615105565b613c93565b610494610aba3660046154fb565b613fba565b610ad2610acd366004615228565b6141fe565b604080516001600160a01b039093168352602083019190915201610483565b610162546104bd906001600160a01b031681565b6000634778bbbf60e01b6001600160e01b031983161480610b2a5750610b2a82614237565b92915050565b610b3861425c565b610160546001600160a01b0316336001600160a01b031614610bad5760405162461bcd60e51b8152602060048201526024808201527f53656375726974697a6174696f6e506f6f6c3a204f6e6c7920746765206164646044820152637265737360e01b60648201526084015b60405180910390fd5b610bb56142a2565b565b61015f546000903390610bd2906001600160a01b03166143f4565b6001600160a01b0316816001600160a01b031614610c505760405162461bcd60e51b815260206004820152603560248201527f53656375726974697a6174696f6e506f6f6c3a204d75737420626520746f6b656044820152741b881a5cdcdd595908189e48155b9d185b99db1959605a1b6064820152608401610ba4565b6040805180820182526001600160a01b038381168083526020808401898152610174805460018101825560009190915294517f19628ef4f1e52435a91694e0b17e2591e7982b96f1883cadfe58900fe74230c4600290960295860180546001600160a01b031916919095161790935591517f19628ef4f1e52435a91694e0b17e2591e7982b96f1883cadfe58900fe74230c590930192909255825191825281018690527ff1c19e8856063adce43b5f307c6ac9d0af46fd0787c590550c51d7cf02d2e5f4910160405180910390a150630a85bd0160e11b95945050505050565b610d3861425c565b610d4061298e565b15610d5d5760405162461bcd60e51b8152600401610ba490615527565b61015f54610d73906001600160a01b0316614401565b6001600160a01b03166391d14854600080516020615b7b833981519152336040516001600160e01b031960e085901b16815260048101929092526001600160a01b03166024820152604401602060405180830381865afa158015610ddb573d6000803e3d6000fd5b505050506040513d601f19601f82011682018060405250810190610dff9190615584565b610e595760405162461bcd60e51b815260206004820152602560248201527f53656375726974697a6174696f6e506f6f6c3a204e6f7420616e20706f6f6c2060448201526430b236b4b760d91b6064820152608401610ba4565b8483610e668260066155b5565b148015610e7c575081610e7a8260046155b5565b145b610eee5760405162461bcd60e51b815260206004820152603860248201527f53656375726974697a6174696f6e506f6f6c3a205269736b73636f726520706160448201527f72616d73206c656e677468206973206e6f7420657175616c00000000000000006064820152608401610ba4565b610efb6101736000614f6d565b60005b8181101561148057801580610f7457508787610f1b6001846155cc565b818110610f2a57610f2a6155df565b9050602002016020810190610f3f919061542b565b63ffffffff16888883818110610f5757610f576155df565b9050602002016020810190610f6c919061542b565b63ffffffff16115b610fd75760405162461bcd60e51b815260206004820152602e60248201527f53656375726974697a6174696f6e506f6f6c3a205269736b2073636f7265732060448201526d1b5d5cdd081899481cdbdc9d195960921b6064820152608401610ba4565b6101736040518061016001604052808a8a85818110610ff857610ff86155df565b905060200201602081019061100d919061542b565b63ffffffff16815260200188888581811061102a5761102a6155df565b905060200201602081019061103f919061542b565b63ffffffff168152602001888861105687876155f5565b818110611065576110656155df565b905060200201602081019061107a919061542b565b63ffffffff16815260200188886110928760026155b5565b61109c90876155f5565b8181106110ab576110ab6155df565b90506020020160208101906110c0919061542b565b63ffffffff16815260200188886110d88760036155b5565b6110e290876155f5565b8181106110f1576110f16155df565b9050602002016020810190611106919061542b565b63ffffffff168152602001888861111e8760046155b5565b61112890876155f5565b818110611137576111376155df565b905060200201602081019061114c919061542b565b63ffffffff168152602001868685818110611169576111696155df565b905060200201602081019061117e919061542b565b63ffffffff168152602001868661119587876155f5565b8181106111a4576111a46155df565b90506020020160208101906111b9919061542b565b63ffffffff16815260200186866111d18760026155b5565b6111db90876155f5565b8181106111ea576111ea6155df565b90506020020160208101906111ff919061542b565b63ffffffff16815260200186866112178760036155b5565b61122190876155f5565b818110611230576112306155df565b9050602002016020810190611245919061542b565b63ffffffff168152602001888861125d8760056155b5565b61126790876155f5565b818110611276576112766155df565b905060200201602081019061128b919061542b565b63ffffffff16815250908060018154018082558091505060019003906000526020600020906002020160009091909190915060008201518160000160006101000a81548163ffffffff021916908363ffffffff16021790555060208201518160000160046101000a81548163ffffffff021916908363ffffffff16021790555060408201518160000160086101000a81548163ffffffff021916908363ffffffff160217905550606082015181600001600c6101000a81548163ffffffff021916908363ffffffff16021790555060808201518160000160106101000a81548163ffffffff021916908363ffffffff16021790555060a08201518160000160146101000a81548163ffffffff021916908363ffffffff16021790555060c08201518160000160186101000a81548163ffffffff021916908363ffffffff16021790555060e082015181600001601c6101000a81548163ffffffff021916908363ffffffff1602179055506101008201518160010160006101000a81548163ffffffff021916908363ffffffff1602179055506101208201518160010160046101000a81548163ffffffff021916908363ffffffff1602179055506101408201518160010160086101000a81548163ffffffff021916908363ffffffff16021790555050506114798160010190565b9050610efe565b5050505050505050565b60006114958161440e565b61149f8383614418565b505050565b6114ac61425c565b61015f546114c2906001600160a01b0316614401565b6001600160a01b0316336001600160a01b03161480611507575061015f546114f2906001600160a01b0316614463565b6001600160a01b0316336001600160a01b0316145b6115235760405162461bcd60e51b8152600401610ba490615608565b806101665461153291906155f5565b6101665561153e611599565b61155a5760405162461bcd60e51b8152600401610ba49061567e565b7fb2209630cc27a5f36fad66f0e873c886ed480b2fb7613885f5914d723acd74726101665460405161158e91815260200190565b60405180910390a150565b61015f5460009081906115b4906001600160a01b0316614470565b604051630129ecc560e61b81523060048201529091506001600160a01b03821690634a7b314090602401602060405180830381865afa1580156115fb573d6000803e3d6000fd5b505050506040513d601f19601f8201168201806040525081019061161f91906156b5565b61017254640100000000900463ffffffff16111592915050565b61164161425c565b61164961298e565b156116665760405162461bcd60e51b8152600401610ba490615527565b600080516020615b9b83398151915261167e8161440e565b85848114801561168d57508483145b6116f15760405162461bcd60e51b815260206004820152602f60248201527f53656375726974697a6174696f6e506f6f6c3a20506172616d73206c656e677460448201526e1a08185c99481b9bdd08195c5d585b608a1b6064820152608401610ba4565b60005b818110156118155761015f54611712906001600160a01b031661447d565b6001600160a01b03166384933c0c8a8a84818110611732576117326155df565b90506020020160208101906117479190615105565b6040516001600160e01b031960e084901b1681526001600160a01b039091166004820152602401602060405180830381865afa15801561178b573d6000803e3d6000fd5b505050506040513d601f19601f820116820180604052508101906117af9190615584565b61180d5760405162461bcd60e51b815260206004820152602960248201527f53656375726974697a6174696f6e506f6f6c3a20756e6b6e6f776e2d746f6b656044820152686e2d6164647265737360b81b6064820152608401610ba4565b6001016116f4565b5060005b8181101561185857611850898983818110611836576118366155df565b905060200201602081019061184b9190615105565b61448a565b600101611819565b5060005b8181101561195f57888882818110611876576118766155df565b905060200201602081019061188b9190615105565b6001600160a01b03166323b872dd8888848181106118ab576118ab6155df565b90506020020160208101906118c09190615105565b308888868181106118d3576118d36155df565b905060200201356040518463ffffffff1660e01b81526004016118f8939291906156ce565b6020604051808303816000875af1158015611917573d6000803e3d6000fd5b505050506040513d601f19601f8201168201806040525081019061193b9190615584565b6119575760405162461bcd60e51b8152600401610ba4906156f2565b60010161185c565b50610165546001600160401b031660000361199257610165805467ffffffffffffffff1916426001600160401b03161790555b610165546040516001600160401b0390911681527faa8cf603b3be24f79f673495c449aa3a2fcec1f484210e1662a1374c3e7f33509060200160405180910390a15050505050505050565b600082815260c960205260409020600101546119f88161440e565b61149f838361454d565b611a0a61425c565b61015f54611a20906001600160a01b0316614463565b6001600160a01b0316336001600160a01b031614611a505760405162461bcd60e51b8152600401610ba490615735565b6001600160a01b03808516600090815261016b6020908152604080832093871683529290522054611a829083906155f5565b6001600160a01b03808616600081815261016b602090815260408083209489168084529482528083209590955591815261016c82528381209281529190522054611acd9082906155f5565b6001600160a01b03808616600090815261016c602090815260408083209388168352929052205561016954611b039083906155f5565b610169556001600160a01b038416600090815261016a6020526040902054611b2c9082906155f5565b6001600160a01b03858116600081815261016a6020818152604080842087905561016b8252808420958a168085529582528084205485855261016c8352818520878652835281852054948690529282526101695481519384529183019390935291810194909452606084015290917f39430af7b34e28c66cbb85c8f60111d96c000a66b7c66f2793709e7f0b9af2dd9060800160405180910390a350505050565b6001600160a01b0381163314611c3d5760405162461bcd60e51b815260206004820152602f60248201527f416363657373436f6e74726f6c3a2063616e206f6e6c792072656e6f756e636560448201526e103937b632b9903337b91039b2b63360891b6064820152608401610ba4565b611c47828261456f565b5050565b611c5361425c565b611c5b614591565b61015f54611c71906001600160a01b0316614401565b6001600160a01b03166391d14854600080516020615b7b833981519152336040516001600160e01b031960e085901b16815260048101929092526001600160a01b03166024820152604401602060405180830381865afa158015611cd9573d6000803e3d6000fd5b505050506040513d601f19601f82011682018060405250810190611cfd9190615584565b80611d1b5750611d1b600080516020615b5b833981519152336131df565b611d375760405162461bcd60e51b8152600401610ba490615782565b84838114611d575760405162461bcd60e51b8152600401610ba4906157d5565b808214611d765760405162461bcd60e51b8152600401610ba490615832565b60005b81811015611f3c576101766000898984818110611d9857611d986155df565b9050602002016020810190611dad9190615105565b6001600160a01b0316815260208101919091526040016000205460ff16611e325760405162461bcd60e51b815260206004820152603360248201527f53656375726974697a6174696f6e506f6f6c3a206e6f746520746f6b656e20616044820152721cdcd95d08191bd95cc81b9bdd08195e1a5cdd606a1b6064820152608401610ba4565b878782818110611e4457611e446155df565b9050602002016020810190611e599190615105565b6001600160a01b031663a9059cbb878784818110611e7957611e796155df565b9050602002016020810190611e8e9190615105565b868685818110611ea057611ea06155df565b6040516001600160e01b031960e087901b1681526001600160a01b03909416600485015260200291909101356024830152506044016020604051808303816000875af1158015611ef4573d6000803e3d6000fd5b505050506040513d601f19601f82011682018060405250810190611f189190615584565b611f345760405162461bcd60e51b8152600401610ba4906156f2565b600101611d79565b5050611f486001606555565b505050505050565b61015f54611f66906001600160a01b0316614401565b6001600160a01b03166391d14854600080516020615b7b833981519152336040516001600160e01b031960e085901b16815260048101929092526001600160a01b03166024820152604401602060405180830381865afa158015611fce573d6000803e3d6000fd5b505050506040513d601f19601f82011682018060405250810190611ff29190615584565b806120105750612010600080516020615b5b833981519152336131df565b61202c5760405162461bcd60e51b8152600401610ba490615782565b610bb56145f1565b61203c61425c565b61015f54612052906001600160a01b0316614401565b6001600160a01b0316336001600160a01b0316146120c95760405162461bcd60e51b815260206004820152602e60248201527f53656375726974697a6174696f6e506f6f6c3a204f6e6c79205365637572697460448201526d34bd30ba34b7b726b0b730b3b2b960911b6064820152608401610ba4565b600261016454600160a01b900460ff1660038111156120ea576120ea6153fb565b141580156121175750600361016454600160a01b900460ff166003811115612114576121146153fb565b14155b6121635760405162461bcd60e51b815260206004820152601a60248201527f4e6f7420696e2069737375696e6720746f6b656e2073746167650000000000006044820152606401610ba4565b6001600160a01b0383161580159061218357506001600160a01b03821615155b6121cf5760405162461bcd60e51b815260206004820181905260248201527f53656375726974697a6174696f6e506f6f6c3a2041646472657373207a65726f6044820152606401610ba4565b60008160018111156121e3576121e36153fb565b0361221f5761016080546001600160a01b038086166001600160a01b031992831617909255610162805492851692909116919091179055612252565b61016180546001600160a01b038086166001600160a01b0319928316179092556101638054928516929091169190911790555b610164805460ff60a01b1916600160a01b1790556040517fba1ffbd8eaf48d438173faf4a6bbea0b6d4af272704b2d21e5b7c46f9dd364339061229a9085908590859061588f565b60405180910390a1505050565b6122af61425c565b6122b7614591565b61015f546122cd906001600160a01b0316614643565b6001600160a01b0316336001600160a01b03161461234c5760405162461bcd60e51b815260206004820152603660248201527f53656375726974697a6174696f6e506f6f6c3a2043616c6c6572206d75737420604482015275626520446973747269627574696f6e5472616e63686560501b6064820152608401610ba4565b610162546001600160a01b038085169116036123cf576001600160a01b038416600090815261017760205260408120805484929061238b9084906155f5565b90915550506040518281526001600160a01b038516907fc0144ef36fd10fb8ddd0407064f49c178804e65e0be62a7ba62de079401baa189060200160405180910390a25b81610166546123de91906155cc565b61016655801561244357604051630852cd8d60e31b8152600481018290526001600160a01b038416906342966c6890602401600060405180830381600087803b15801561242a57600080fd5b505af115801561243e573d6000803e3d6000fd5b505050505b61244b611599565b6124675760405162461bcd60e51b8152600401610ba49061567e565b61016454610178546040516323b872dd60e01b81526001600160a01b03928316926323b872dd926124a192911690889087906004016156ce565b6020604051808303816000875af11580156124c0573d6000803e3d6000fd5b505050506040513d601f19601f820116820180604052508101906124e49190615584565b6125455760405162461bcd60e51b815260206004820152602c60248201527f53656375726974697a6174696f6e506f6f6c3a2063757272656e63792d74726160448201526b1b9cd9995c8b59985a5b195960a21b6064820152608401610ba4565b7fb2209630cc27a5f36fad66f0e873c886ed480b2fb7613885f5914d723acd74726101665460405161257991815260200190565b60405180910390a161258b6001606555565b50505050565b61259961425c565b61015f546125af906001600160a01b0316614463565b6001600160a01b0316336001600160a01b0316146125df5760405162461bcd60e51b8152600401610ba490615735565b6001600160a01b03808516600090815261016b60209081526040808320938716835292905220546126119083906155cc565b6001600160a01b03808616600081815261016b602090815260408083209489168084529482528083209590955591815261016c8252838120928152919052205461265c9082906155cc565b6001600160a01b03808616600090815261016c6020908152604080832093881683529290522055610169546126929083906155cc565b61016955610168546126a59083906155f5565b610168556001600160a01b038416600090815261016a6020526040902054611b2c9082906155cc565b606061017580548060200260200160405190810160405280929190818152602001828054801561272757602002820191906000526020600020905b81546001600160a01b03168152600190910190602001808311612709575b5050505050905090565b610173818154811061274257600080fd5b60009182526020909120600290910201805460019091015463ffffffff8083169350640100000000808404821693600160401b808204841694600160601b8304851694600160801b8404811694600160a01b8504821694600160c01b8104831694600160e01b90910483169380841693928104831692919004168b565b610162546000906001600160a01b0316156128a55761016260009054906101000a90046001600160a01b03166001600160a01b03166318160ddd6040518163ffffffff1660e01b8152600401602060405180830381865afa158015612828573d6000803e3d6000fd5b505050506040513d601f19601f8201168201806040525081019061284c91906156b5565b156128a55760405162461bcd60e51b8152602060048201526024808201527f53656375726974697a6174696f6e506f6f6c3a20534f54207374696c6c20726560448201526336b0b4b760e11b6064820152608401610ba4565b610163546001600160a01b0316156129885761016360009054906101000a90046001600160a01b03166001600160a01b03166318160ddd6040518163ffffffff1660e01b8152600401602060405180830381865afa15801561290b573d6000803e3d6000fd5b505050506040513d601f19601f8201168201806040525081019061292f91906156b5565b156129885760405162461bcd60e51b8152602060048201526024808201527f53656375726974697a6174696f6e506f6f6c3a204a4f54207374696c6c20726560448201526336b0b4b760e11b6064820152608401610ba4565b50600190565b6000600361016454600160a01b900460ff1660038111156129b1576129b16153fb565b14905090565b6129bf61425c565b6129c7614591565b600080516020615b5b8339815191526129df8161440e565b600261016454600160a01b900460ff166003811115612a0057612a006153fb565b14158015612a2d5750600361016454600160a01b900460ff166003811115612a2a57612a2a6153fb565b14155b612a795760405162461bcd60e51b815260206004820152601a60248201527f4e6f7420696e2069737375696e6720746f6b656e2073746167650000000000006044820152606401610ba4565b6000856001600160401b031611612ade5760405162461bcd60e51b8152602060048201526024808201527f53656375726974697a6174696f6e506f6f6c3a205465726d206c656e677468206044820152630697320360e41b6064820152608401610ba4565b61016580546fffffffffffffffff00000000000000001916600160401b6001600160401b03881602179055610170849055610164805460ff60a01b1916600160a11b179055610160546001600160a01b031615612cff57610160546040516351c5295360e11b815263ffffffff851660048201526001600160401b038088166024830152841660448201526001600160a01b0390911690819063a38a52a690606401600060405180830381600087803b158015612b9a57600080fd5b505af1158015612bae573d6000803e3d6000fd5b50505050806001600160a01b031663b3f05b976040518163ffffffff1660e01b8152600401602060405180830381865afa158015612bf0573d6000803e3d6000fd5b505050506040513d601f19601f82011682018060405250810190612c149190615584565b612c805761017854604051632b8093bd60e01b8152600060048201526001600160a01b03918216602482015290821690632b8093bd90604401600060405180830381600087803b158015612c6757600080fd5b505af1158015612c7b573d6000803e3d6000fd5b505050505b806001600160a01b0316631f0b10c56040518163ffffffff1660e01b8152600401602060405180830381865afa158015612cbe573d6000803e3d6000fd5b505050506040513d601f19601f82011682018060405250810190612ce291906158c5565b610172805463ffffffff191663ffffffff92909216919091179055505b610161546001600160a01b031615612e59576101615461017854604051632b8093bd60e01b8152600060048201526001600160a01b039182166024820152911690632b8093bd90604401600060405180830381600087803b158015612d6357600080fd5b505af1158015612d77573d6000803e3d6000fd5b5050505061016160009054906101000a90046001600160a01b03166001600160a01b031663b3f05b976040518163ffffffff1660e01b8152600401602060405180830381865afa158015612dcf573d6000803e3d6000fd5b505050506040513d601f19601f82011682018060405250810190612df39190615584565b612e595760405162461bcd60e51b815260206004820152603160248201527f53656375726974697a6174696f6e506f6f6c3a207365636f6e642073616c65206044820152706973207374696c6c206f6e20676f696e6760781b6064820152608401610ba4565b5061258b6001606555565b61015f54612e7a906001600160a01b0316614401565b6001600160a01b03166391d14854600080516020615b7b833981519152336040516001600160e01b031960e085901b16815260048101929092526001600160a01b03166024820152604401602060405180830381865afa158015612ee2573d6000803e3d6000fd5b505050506040513d601f19601f82011682018060405250810190612f069190615584565b80612f245750612f24600080516020615b5b833981519152336131df565b612f405760405162461bcd60e51b8152600401610ba490615782565b610bb5614650565b612f5061425c565b600080516020615b5b833981519152612f688161440e565b612f706127bf565b612fd45760405162461bcd60e51b815260206004820152602f60248201527f53656375726974697a6174696f6e506f6f6c3a20526564656d7074696f6e206860448201526e185cc81b9bdd08199a5b9a5cda1959608a1b6064820152608401610ba4565b61016454610178546040516370a0823160e01b81526001600160a01b0391821660048201819052919092169182916323b872dd91869084906370a0823190602401602060405180830381865afa158015613032573d6000803e3d6000fd5b505050506040513d601f19601f8201168201806040525081019061305691906156b5565b6040518463ffffffff1660e01b8152600401613074939291906156ce565b6020604051808303816000875af1158015613093573d6000803e3d6000fd5b505050506040513d601f19601f820116820180604052508101906130b79190615584565b61149f5760405162461bcd60e51b8152600401610ba4906156f2565b600082815260fb602052604081206130eb908361468d565b9392505050565b6130fa61425c565b61015f54613110906001600160a01b0316614699565b6001600160a01b0316336001600160a01b0316146131855760405162461bcd60e51b815260206004820152602c60248201527f53656375726974697a6174696f6e506f6f6c3a204f6e6c79204c6f616e52657060448201526b30bcb6b2b73a2937baba32b960a11b6064820152608401610ba4565b806101665461319491906155f5565b6101665561016d546131a79082906155f5565b61016d55610166546040519081527fb2209630cc27a5f36fad66f0e873c886ed480b2fb7613885f5914d723acd74729060200161158e565b600091825260c9602090815260408084206001600160a01b0393909316845291905290205460ff1690565b61321261425c565b61321a614591565b600080516020615b5b8339815191526132328161440e565b838681146132525760405162461bcd60e51b8152600401610ba4906157d5565b8683146132715760405162461bcd60e51b8152600401610ba490615832565b60005b818110156132e8576132c4898983818110613291576132916155df565b90506020020160208101906132a69190615105565b8888848181106132b8576132b86155df565b905060200201356146a6565b6132e05760405162461bcd60e51b8152600401610ba4906158e2565b600101613274565b5060005b818110156133cb57888882818110613306576133066155df565b905060200201602081019061331b9190615105565b6001600160a01b03166342842e0e3087878581811061333c5761333c6155df565b90506020020160208101906133519190615105565b8a8a86818110613363576133636155df565b905060200201356040518463ffffffff1660e01b8152600401613388939291906156ce565b600060405180830381600087803b1580156133a257600080fd5b505af11580156133b6573d6000803e3d6000fd5b505050506133c48160010190565b90506132ec565b505050611f486001606555565b60006133f2600080516020615b5b833981519152336131df565b905090565b6133ff61425c565b61015f54613415906001600160a01b0316614401565b6001600160a01b0316336001600160a01b0316148061345a575061015f54613445906001600160a01b0316614463565b6001600160a01b0316336001600160a01b0316145b6134765760405162461bcd60e51b8152600401610ba490615608565b806101665461153291906155cc565b61348d61425c565b610160546001600160a01b0316336001600160a01b03161461350a5760405162461bcd60e51b815260206004820152603060248201527f53656375726974697a6174696f6e506f6f6c3a204f6e6c79207467652063616e60448201526f081d5c19185d19481a5b9d195c995cdd60821b6064820152608401610ba4565b610172805463ffffffff191663ffffffff83169081179091556040519081527fe385e840d39f98b4644053fb8bba00d8b54f9bc4cdff1b3c4951aa22cb1fdb479060200161158e565b600081815260fb60205260408120610b2a9061474c565b600054610100900460ff161580801561358a5750600054600160ff909116105b806135a45750303b1580156135a4575060005460ff166001145b6136075760405162461bcd60e51b815260206004820152602e60248201527f496e697469616c697a61626c653a20636f6e747261637420697320616c72656160448201526d191e481a5b9a5d1a585b1a5e995960921b6064820152608401610ba4565b6000805460ff19166001179055801561362a576000805461ff0019166101001790555b600082806020019051810190613640919061592a565b905061364f61271060646155b5565b816020015163ffffffff16106136b75760405162461bcd60e51b815260206004820152602760248201527f6d696e46697273744c6f737343757368696f6e20697320677265617465722074604482015266068616e203130360cc1b6064820152608401610ba4565b80516001600160a01b031661371a5760405162461bcd60e51b8152602060048201526024808201527f53656375726974697a6174696f6e506f6f6c3a20496e76616c69642063757272604482015263656e637960e01b6064820152608401610ba4565b61372333614756565b613749600080516020615b9b833981519152600080516020615b5b833981519152614418565b61015f80546001600160a01b038681166001600160a01b0319909216919091179091556101648054835183166001600160a81b031991821681179092556020840151610172805463ffffffff9092166401000000000267ffffffff000000001990921691909117905561017880546040808701511515600160a01b023060ff60a01b191692909416919091179290921790819055905163095ea7b360e01b81529216600483015260001960248301529063095ea7b3906044016020604051808303816000875af1158015613821573d6000803e3d6000fd5b505050506040513d601f19601f820116820180604052508101906138459190615584565b6138a65760405162461bcd60e51b815260206004820152602c60248201527f53656375726974697a6174696f6e506f6f6c3a2043757272656e63792061707060448201526b1c9bdd985b0819985a5b195960a21b6064820152608401610ba4565b61015f546138bc906001600160a01b03166143f4565b61015f546001600160a01b039182169163a22cb465916138dc911661479e565b6040516001600160e01b031960e084901b1681526001600160a01b03909116600482015260016024820152604401600060405180830381600087803b15801561392457600080fd5b505af1158015613938573d6000803e3d6000fd5b5050505050801561149f576000805461ff0019169055604051600181527f7f26b83ff96e1f2b6a682f133852f6798a09c465da95921460cefb38474024989060200161229a565b600082815260c9602052604090206001015461399a8161440e565b61149f838361456f565b61017581815481106139b557600080fd5b6000918252602090912001546001600160a01b0316905081565b6139d761425c565b6139df614591565b6139e761298e565b15613a045760405162461bcd60e51b8152600401610ba490615527565b61015f54613a1a906001600160a01b0316614401565b6001600160a01b03166391d14854600080516020615b7b833981519152336040516001600160e01b031960e085901b16815260048101929092526001600160a01b03166024820152604401602060405180830381865afa158015613a82573d6000803e3d6000fd5b505050506040513d601f19601f82011682018060405250810190613aa69190615584565b80613ac45750613ac4600080516020615b5b833981519152336131df565b613ae05760405162461bcd60e51b8152600401610ba490615782565b8060005b81811015613b2657613b02868585848181106132b8576132b86155df565b613b1e5760405162461bcd60e51b8152600401610ba4906158e2565b600101613ae4565b5060005b81811015613bbd57856001600160a01b03166342842e0e3087878786818110613b5557613b556155df565b905060200201356040518463ffffffff1660e01b8152600401613b7a939291906156ce565b600060405180830381600087803b158015613b9457600080fd5b505af1158015613ba8573d6000803e3d6000fd5b50505050613bb68160010190565b9050613b2a565b505061258b6001606555565b613bd161425c565b61015f54613be7906001600160a01b031661479e565b6001600160a01b0316336001600160a01b031614613c175760405162461bcd60e51b8152600401610ba490615999565b61016454600160a81b90046001600160401b0316600003613c6057610164805467ffffffffffffffff60a81b1916600160a81b426001600160401b031602179055613c606142a2565b610165546001600160401b0316600003610bb557610165805467ffffffffffffffff1916426001600160401b0316179055565b613c9b61425c565b613ca3614591565b613cab61298e565b15613cc85760405162461bcd60e51b8152600401610ba490615527565b61015f54613cde906001600160a01b0316614401565b6001600160a01b03166391d14854600080516020615b7b833981519152336040516001600160e01b031960e085901b16815260048101929092526001600160a01b03166024820152604401602060405180830381865afa158015613d46573d6000803e3d6000fd5b505050506040513d601f19601f82011682018060405250810190613d6a9190615584565b80613d885750613d88600080516020615b5b833981519152336131df565b613da45760405162461bcd60e51b8152600401610ba490615782565b613dbc600080516020615b5b833981519152826131df565b15613dc657600080fd5b610178546001600160a01b03808316911603613e3e5760405162461bcd60e51b815260206004820152603160248201527f53656375726974697a6174696f6e506f6f6c3a2053616d652061646472657373604482015270081dda5d1a0818dd5c9c995b9d081c1bdd607a1b6064820152608401610ba4565b61017880546001600160a01b0319166001600160a01b038316908117909155309003613f3857610164546101785460405163095ea7b360e01b81526001600160a01b039182166004820152600019602482015291169063095ea7b3906044016020604051808303816000875af1158015613ebc573d6000803e3d6000fd5b505050506040513d601f19601f82011682018060405250810190613ee09190615584565b613f385760405162461bcd60e51b8152602060048201526024808201527f53656375726974697a6174696f6e506f6f6c3a20506f74206e6f7420617070726044820152631bdd995960e21b6064820152608401610ba4565b61015f54613f4e906001600160a01b0316614401565b6101785460405163dc90f9fd60e01b81526001600160a01b03918216600482015291169063dc90f9fd90602401600060405180830381600087803b158015613f9557600080fd5b505af1158015613fa9573d6000803e3d6000fd5b50505050613fb76001606555565b50565b613fc261425c565b61015f54613fd8906001600160a01b031661479e565b6001600160a01b0316336001600160a01b0316146140085760405162461bcd60e51b8152600401610ba490615999565b614020600080516020615b9b833981519152836131df565b6140855760405162461bcd60e51b815260206004820152603060248201527f53656375726974697a6174696f6e506f6f6c3a204f6e6c79204f726967696e6160448201526f3a37b91031b0b710323930bbb237bbb760811b6064820152608401610ba4565b806101665410156140e75760405162461bcd60e51b815260206004820152602660248201527f53656375726974697a6174696f6e506f6f6c3a206e6f7420656e6f756768207260448201526565736572766560d01b6064820152608401610ba4565b80610166546140f691906155cc565b61016655614102611599565b61411e5760405162461bcd60e51b8152600401610ba49061567e565b61016454610178546040516323b872dd60e01b81526001600160a01b03928316926323b872dd9261415892911690869086906004016156ce565b6020604051808303816000875af1158015614177573d6000803e3d6000fd5b505050506040513d601f19601f8201168201806040525081019061419b9190615584565b6141b75760405162461bcd60e51b8152600401610ba4906156f2565b604080516001600160a01b0384168152602081018390527ffee08df1f25a82253a2271c02aeff4af913b829c72151ff4dd48accff294a91591015b60405180910390a15050565b610174818154811061420f57600080fd5b6000918252602090912060029091020180546001909101546001600160a01b03909116915082565b60006001600160e01b03198216635a05180f60e01b1480610b2a5750610b2a826147ab565b60335460ff1615610bb55760405162461bcd60e51b815260206004820152601060248201526f14185d5cd8589b194e881c185d5cd95960821b6044820152606401610ba4565b610160546001600160a01b03166142b557565b6101605460408051639b52fe3360e01b815290516000926001600160a01b031691639b52fe339160048083019260209291908290030181865afa158015614300573d6000803e3d6000fd5b505050506040513d601f19601f8201168201806040525081019061432491906159dc565b610164549091506001600160401b03600160a81b90910481169082161580159061435757506000816001600160401b0316115b156143b657816001600160401b0316816001600160401b0316111561439857610165805467ffffffffffffffff19166001600160401b0383161790556143b6565b610165805467ffffffffffffffff19166001600160401b0384161790555b610165546040516001600160401b0390911681527faa8cf603b3be24f79f673495c449aa3a2fcec1f484210e1662a1374c3e7f3350906020016141f2565b6000610b2a8260086147e0565b6000610b2a8260006147e0565b613fb78133614865565b600082815260c96020526040808220600101805490849055905190918391839186917fbd79b86ffe0ab8e8776151514217cd7cacd52c909f66475c3af44e129f0b00ff9190a4505050565b6000610b2a8260056147e0565b6000610b2a8260116147e0565b6000610b2a8260026147e0565b6001600160a01b0381166000908152610176602052604090205460ff166144f85761017580546001810182556000919091527f94b016e6b5eafb28c9d47c3523378ec087cc0ead8b7eff2840605504c1f1ac6f0180546001600160a01b0319166001600160a01b0383161790555b6001600160a01b03811660008181526101766020908152604091829020805460ff1916600117905590519182527fa3087e474cce8eb102998561afda3e856fc0f9a515a80d128775eaa3c7269adc910161158e565b61455782826148be565b600082815260fb6020526040902061149f9082614944565b6145798282614959565b600082815260fb6020526040902061149f90826149c0565b6002606554036145e35760405162461bcd60e51b815260206004820152601f60248201527f5265656e7472616e637947756172643a207265656e7472616e742063616c6c006044820152606401610ba4565b6002606555565b6001606555565b6145f96149d5565b6033805460ff191690557f5db9ee0a495bf2e6ff9c91a7834c1ba4fdd244a5e8aa4e537bd38aeae4b073aa335b6040516001600160a01b03909116815260200160405180910390a1565b6000610b2a8260076147e0565b61465861425c565b6033805460ff191660011790557f62e78cea01bee320cd4e420270b5ea74000d11b0c9f74754ebdbfc544b05a2586146263390565b60006130eb8383614a1e565b6000610b2a82600c6147e0565b61017454600090815b8181101561474157846001600160a01b031661017482815481106146d5576146d56155df565b60009182526020909120600290910201546001600160a01b0316148015614720575083610174828154811061470c5761470c6155df565b906000526020600020906002020160010154145b156147395761472e81614a48565b600192505050610b2a565b6001016146af565b506000949350505050565b6000610b2a825490565b600054610100900460ff1661477d5760405162461bcd60e51b8152600401610ba4906159f9565b614785614b80565b61478d614bb3565b614795614bda565b613fb781614c01565b6000610b2a82600d6147e0565b60006001600160e01b03198216637965db0b60e01b1480610b2a57506301ffc9a760e01b6001600160e01b0319831614610b2a565b6000826001600160a01b031663bcaa0c55836019811115614803576148036153fb565b6040516001600160e01b031960e084901b16815260ff9091166004820152602401602060405180830381865afa158015614841573d6000803e3d6000fd5b505050506040513d601f19601f820116820180604052508101906130eb9190615a44565b61486f82826131df565b611c475761487c81614c74565b614887836020614c86565b604051602001614898929190615a85565b60408051601f198184030181529082905262461bcd60e51b8252610ba491600401615afa565b6148c882826131df565b611c4757600082815260c9602090815260408083206001600160a01b03851684529091529020805460ff191660011790556149003390565b6001600160a01b0316816001600160a01b0316837f2f8788117e7eff1d82e926ec794901d17c78024a50270940304540a733656f0d60405160405180910390a45050565b60006130eb836001600160a01b038416614e21565b61496382826131df565b15611c4757600082815260c9602090815260408083206001600160a01b0385168085529252808320805460ff1916905551339285917ff6391f5c32d9c69d2a47ea670b442974b53935d1edc7fd64eb21e047a839171b9190a45050565b60006130eb836001600160a01b038416614e70565b60335460ff16610bb55760405162461bcd60e51b815260206004820152601460248201527314185d5cd8589b194e881b9bdd081c185d5cd95960621b6044820152606401610ba4565b6000826000018281548110614a3557614a356155df565b9060005260206000200154905092915050565b6101748054614a59906001906155cc565b81548110614a6957614a696155df565b90600052602060002090600202016101748281548110614a8b57614a8b6155df565b600091825260208220835460029092020180546001600160a01b0319166001600160a01b0390921691909117815560019283015490830155610174805491929091614ad691906155cc565b81548110614ae657614ae66155df565b600091825260209182902060029091020180546001820154604080516001600160a01b039093168352938201529092507f2f2c2bbbba2dd1f6074fbdaeda0589f21b3082690049df4802b1d0ed745746e0910160405180910390a1610174805480614b5357614b53615b2d565b60008281526020812060026000199093019283020180546001600160a01b03191681556001015590555050565b600054610100900460ff16614ba75760405162461bcd60e51b8152600401610ba4906159f9565b6033805460ff19169055565b600054610100900460ff166145ea5760405162461bcd60e51b8152600401610ba4906159f9565b600054610100900460ff16610bb55760405162461bcd60e51b8152600401610ba4906159f9565b600054610100900460ff16614c285760405162461bcd60e51b8152600401610ba4906159f9565b6001600160a01b038116614c395750335b614c44600033614f63565b614c5c600080516020615b5b83398151915282614f63565b613fb7600080516020615b5b83398151915280614418565b6060610b2a6001600160a01b03831660145b60606000614c958360026155b5565b614ca09060026155f5565b6001600160401b03811115614cb757614cb7614ff8565b6040519080825280601f01601f191660200182016040528015614ce1576020820181803683370190505b509050600360fc1b81600081518110614cfc57614cfc6155df565b60200101906001600160f81b031916908160001a905350600f60fb1b81600181518110614d2b57614d2b6155df565b60200101906001600160f81b031916908160001a9053506000614d4f8460026155b5565b614d5a9060016155f5565b90505b6001811115614dd2576f181899199a1a9b1b9c1cb0b131b232b360811b85600f1660108110614d8e57614d8e6155df565b1a60f81b828281518110614da457614da46155df565b60200101906001600160f81b031916908160001a90535060049490941c93614dcb81615b43565b9050614d5d565b5083156130eb5760405162461bcd60e51b815260206004820181905260248201527f537472696e67733a20686578206c656e67746820696e73756666696369656e746044820152606401610ba4565b6000818152600183016020526040812054614e6857508154600181810184556000848152602080822090930184905584548482528286019093526040902091909155610b2a565b506000610b2a565b60008181526001830160205260408120548015614f59576000614e946001836155cc565b8554909150600090614ea8906001906155cc565b9050818114614f0d576000866000018281548110614ec857614ec86155df565b9060005260206000200154905080876000018481548110614eeb57614eeb6155df565b6000918252602080832090910192909255918252600188019052604090208390555b8554869080614f1e57614f1e615b2d565b600190038181906000526020600020016000905590558560010160008681526020019081526020016000206000905560019350505050610b2a565b6000915050610b2a565b611c47828261454d565b5080546000825560020290600052602060002090810190613fb791905b80821115614fb557600081556001810180546bffffffffffffffffffffffff19169055600201614f8a565b5090565b600060208284031215614fcb57600080fd5b81356001600160e01b0319811681146130eb57600080fd5b6001600160a01b0381168114613fb757600080fd5b634e487b7160e01b600052604160045260246000fd5b600082601f83011261501f57600080fd5b81356001600160401b038082111561503957615039614ff8565b604051601f8301601f19908116603f0116810190828211818310171561506157615061614ff8565b8160405283815286602085880101111561507a57600080fd5b836020870160208301376000602085830101528094505050505092915050565b600080600080608085870312156150b057600080fd5b84356150bb81614fe3565b935060208501356150cb81614fe3565b92506040850135915060608501356001600160401b038111156150ed57600080fd5b6150f98782880161500e565b91505092959194509250565b60006020828403121561511757600080fd5b81356130eb81614fe3565b60008083601f84011261513457600080fd5b5081356001600160401b0381111561514b57600080fd5b6020830191508360208260051b850101111561516657600080fd5b9250929050565b6000806000806000806060878903121561518657600080fd5b86356001600160401b038082111561519d57600080fd5b6151a98a838b01615122565b909850965060208901359150808211156151c257600080fd5b6151ce8a838b01615122565b909650945060408901359150808211156151e757600080fd5b506151f489828a01615122565b979a9699509497509295939492505050565b6000806040838503121561521957600080fd5b50508035926020909101359150565b60006020828403121561523a57600080fd5b5035919050565b6000806040838503121561525457600080fd5b82359150602083013561526681614fe3565b809150509250929050565b6000806000806080858703121561528757600080fd5b843561529281614fe3565b935060208501356152a281614fe3565b93969395505050506040820135916060013590565b6000806000606084860312156152cc57600080fd5b83356152d781614fe3565b925060208401356152e781614fe3565b91506040840135600281106152fb57600080fd5b809150509250925092565b6020808252825182820181905260009190848201906040850190845b818110156153475783516001600160a01b031683529284019291840191600101615322565b50909695505050505050565b6000806040838503121561536657600080fd5b823561537181614fe3565b9150602083013561526681614fe3565b6001600160401b0381168114613fb757600080fd5b63ffffffff81168114613fb757600080fd5b600080600080608085870312156153be57600080fd5b84356153c981615381565b93506020850135925060408501356153e081615396565b915060608501356153f081615381565b939692955090935050565b634e487b7160e01b600052602160045260246000fd5b6020810160048310615425576154256153fb565b91905290565b60006020828403121561543d57600080fd5b81356130eb81615396565b6000806040838503121561545b57600080fd5b823561546681614fe3565b915060208301356001600160401b0381111561548157600080fd5b61548d8582860161500e565b9150509250929050565b600080600080606085870312156154ad57600080fd5b84356154b881614fe3565b935060208501356154c881614fe3565b925060408501356001600160401b038111156154e357600080fd5b6154ef87828801615122565b95989497509550505050565b6000806040838503121561550e57600080fd5b823561551981614fe3565b946020939093013593505050565b60208082526028908201527f53656375726974697a6174696f6e506f6f6c3a20506f6f6c20696e20636c6f73604082015267656420737461746560c01b606082015260800190565b8051801515811461557f57600080fd5b919050565b60006020828403121561559657600080fd5b6130eb8261556f565b634e487b7160e01b600052601160045260246000fd5b8082028115828204841417610b2a57610b2a61559f565b81810381811115610b2a57610b2a61559f565b634e487b7160e01b600052603260045260246000fd5b80820180821115610b2a57610b2a61559f565b60208082526050908201527f53656375726974697a6174696f6e506f6f6c3a2043616c6c6572206d7573742060408201527f62652053656375726974697a6174696f6e4d616e61676572206f72204469737460608201526f3934b13aba34b7b727b832b930ba37b960811b608082015260a00190565b6020808252601d908201527f4d696e46697273744c6f7373206973206e6f7420736174697366696564000000604082015260600190565b6000602082840312156156c757600080fd5b5051919050565b6001600160a01b039384168152919092166020820152604081019190915260600190565b60208082526023908201527f53656375726974697a6174696f6e506f6f6c3a205472616e73666572206661696040820152621b195960ea1b606082015260800190565b6020808252602d908201527f53656375726974697a6174696f6e506f6f6c3a204f6e6c79204469737472696260408201526c3aba34b7b727b832b930ba37b960991b606082015260800190565b60208082526033908201527f53656375726974697a6174696f6e506f6f6c3a204e6f7420616e20706f6f6c2060408201527230b236b4b71037b9103837b7b61037bbb732b960691b606082015260800190565b60208082526037908201527f746f6b656e416464726573736573206c656e67746820616e6420746f6b656e4960408201527f6473206c656e67746820617265206e6f7420657175616c000000000000000000606082015260800190565b60208082526039908201527f746f6b656e416464726573736573206c656e67746820616e642072656369706960408201527f656e7473206c656e67746820617265206e6f7420657175616c00000000000000606082015260800190565b6001600160a01b0384811682528316602082015260608101600283106158b7576158b76153fb565b826040830152949350505050565b6000602082840312156158d757600080fd5b81516130eb81615396565b60208082526028908201527f53656375726974697a6174696f6e506f6f6c3a20417373657420646f6573206e6040820152671bdd08195e1a5cdd60c21b606082015260800190565b60006060828403121561593c57600080fd5b604051606081018181106001600160401b038211171561595e5761595e614ff8565b604052825161596c81614fe3565b8152602083015161597c81615396565b602082015261598d6040840161556f565b60408201529392505050565b60208082526023908201527f53656375726974697a6174696f6e506f6f6c3a204f6e6c79204c6f616e4b65726040820152621b995b60ea1b606082015260800190565b6000602082840312156159ee57600080fd5b81516130eb81615381565b6020808252602b908201527f496e697469616c697a61626c653a20636f6e7472616374206973206e6f74206960408201526a6e697469616c697a696e6760a81b606082015260800190565b600060208284031215615a5657600080fd5b81516130eb81614fe3565b60005b83811015615a7c578181015183820152602001615a64565b50506000910152565b7f416363657373436f6e74726f6c3a206163636f756e7420000000000000000000815260008351615abd816017850160208801615a61565b7001034b99036b4b9b9b4b733903937b6329607d1b6017918401918201528351615aee816028840160208801615a61565b01602801949350505050565b6020815260008251806020840152615b19816040850160208701615a61565b601f01601f19169190910160400192915050565b634e487b7160e01b600052603160045260246000fd5b600081615b5257615b5261559f565b50600019019056feb19546dff01e856fb3f010c267a7b1c60363cf8a4664e21cc89c26224620214e3e9c05fb0f9da4414e033bb9bf190a6e2072adf7e3077394fce683220513b8d759abfac6520ec36a6556b2a4dd949cc40007459bcd5cd2507f1e5cc77b6bc97ea2646970667358221220317f50c877bb27be492cd75a130f416bb5b833f51c7e5b81449cbe1494ccb87864736f6c63430008130033"
}