{
  "address": "0x656f4cf05DE56a4dAdc3E8AeCa4Be8305159dEa0",
  "abi": [
    {
      "inputs": [],
      "stateMutability": "nonpayable",
      "type": "constructor"
    },
    {
      "anonymous": false,
      "inputs": [
        {
          "indexed": false,
          "internalType": "address",
          "name": "token",
          "type": "address"
        }
      ],
      "name": "AddTokenAssetAddress",
      "type": "event"
    },
    {
      "anonymous": false,
      "inputs": [
        {
          "indexed": false,
          "internalType": "address",
          "name": "from",
          "type": "address"
        },
        {
          "indexed": false,
          "internalType": "uint256",
          "name": "value",
          "type": "uint256"
        }
      ],
      "name": "CollectAsset",
      "type": "event"
    },
    {
      "anonymous": false,
      "inputs": [
        {
          "indexed": false,
          "internalType": "uint8",
          "name": "version",
          "type": "uint8"
        }
      ],
      "name": "Initialized",
      "type": "event"
    },
    {
      "anonymous": false,
      "inputs": [
        {
          "indexed": false,
          "internalType": "address",
          "name": "token",
          "type": "address"
        },
        {
          "indexed": false,
          "internalType": "uint256",
          "name": "tokenId",
          "type": "uint256"
        }
      ],
      "name": "InsertNFTAsset",
      "type": "event"
    },
    {
      "anonymous": false,
      "inputs": [
        {
          "indexed": false,
          "internalType": "address",
          "name": "account",
          "type": "address"
        }
      ],
      "name": "Paused",
      "type": "event"
    },
    {
      "anonymous": false,
      "inputs": [
        {
          "indexed": false,
          "internalType": "address",
          "name": "token",
          "type": "address"
        },
        {
          "indexed": false,
          "internalType": "uint256",
          "name": "tokenId",
          "type": "uint256"
        }
      ],
      "name": "RemoveNFTAsset",
      "type": "event"
    },
    {
      "anonymous": false,
      "inputs": [
        {
          "indexed": true,
          "internalType": "bytes32",
          "name": "role",
          "type": "bytes32"
        },
        {
          "indexed": true,
          "internalType": "bytes32",
          "name": "previousAdminRole",
          "type": "bytes32"
        },
        {
          "indexed": true,
          "internalType": "bytes32",
          "name": "newAdminRole",
          "type": "bytes32"
        }
      ],
      "name": "RoleAdminChanged",
      "type": "event"
    },
    {
      "anonymous": false,
      "inputs": [
        {
          "indexed": true,
          "internalType": "bytes32",
          "name": "role",
          "type": "bytes32"
        },
        {
          "indexed": true,
          "internalType": "address",
          "name": "account",
          "type": "address"
        },
        {
          "indexed": true,
          "internalType": "address",
          "name": "sender",
          "type": "address"
        }
      ],
      "name": "RoleGranted",
      "type": "event"
    },
    {
      "anonymous": false,
      "inputs": [
        {
          "indexed": true,
          "internalType": "bytes32",
          "name": "role",
          "type": "bytes32"
        },
        {
          "indexed": true,
          "internalType": "address",
          "name": "account",
          "type": "address"
        },
        {
          "indexed": true,
          "internalType": "address",
          "name": "sender",
          "type": "address"
        }
      ],
      "name": "RoleRevoked",
      "type": "event"
    },
    {
      "anonymous": false,
      "inputs": [
        {
          "indexed": false,
          "internalType": "address",
          "name": "account",
          "type": "address"
        }
      ],
      "name": "Unpaused",
      "type": "event"
    },
    {
      "anonymous": false,
      "inputs": [
        {
          "indexed": false,
          "internalType": "uint32",
          "name": "_interestRateSOT",
          "type": "uint32"
        }
      ],
      "name": "UpdateInterestRateSOT",
      "type": "event"
    },
    {
      "anonymous": false,
      "inputs": [
        {
          "indexed": true,
          "internalType": "address",
          "name": "tokenAddress",
          "type": "address"
        },
        {
          "indexed": true,
          "internalType": "address",
          "name": "investor",
          "type": "address"
        },
        {
          "indexed": false,
          "internalType": "uint256",
          "name": "lockedDistributeBalance",
          "type": "uint256"
        },
        {
          "indexed": false,
          "internalType": "uint256",
          "name": "lockedRedeemBalances",
          "type": "uint256"
        },
        {
          "indexed": false,
          "internalType": "uint256",
          "name": "totalLockedRedeemBalances",
          "type": "uint256"
        },
        {
          "indexed": false,
          "internalType": "uint256",
          "name": "totalLockedDistributeBalance",
          "type": "uint256"
        }
      ],
      "name": "UpdateLockedDistributeBalance",
      "type": "event"
    },
    {
      "anonymous": false,
      "inputs": [
        {
          "indexed": false,
          "internalType": "uint256",
          "name": "newTimestamp",
          "type": "uint256"
        }
      ],
      "name": "UpdateOpeningBlockTimestamp",
      "type": "event"
    },
    {
      "anonymous": false,
      "inputs": [
        {
          "indexed": true,
          "internalType": "address",
          "name": "user",
          "type": "address"
        },
        {
          "indexed": false,
          "internalType": "uint256",
          "name": "currencyAmount",
          "type": "uint256"
        }
      ],
      "name": "UpdatePaidPrincipalAmountSOTByInvestor",
      "type": "event"
    },
    {
      "anonymous": false,
      "inputs": [
        {
          "indexed": false,
          "internalType": "uint256",
          "name": "currencyAmount",
          "type": "uint256"
        }
      ],
      "name": "UpdateReserve",
      "type": "event"
    },
    {
      "anonymous": false,
      "inputs": [
        {
          "indexed": false,
          "internalType": "address",
          "name": "tge",
          "type": "address"
        },
        {
          "indexed": false,
          "internalType": "address",
          "name": "token",
          "type": "address"
        },
        {
          "indexed": false,
          "internalType": "enum Configuration.NOTE_TOKEN_TYPE",
          "name": "noteType",
          "type": "uint8"
        }
      ],
      "name": "UpdateTGEAddress",
      "type": "event"
    },
    {
      "anonymous": false,
      "inputs": [
        {
          "indexed": false,
          "internalType": "address",
          "name": "originatorAddress",
          "type": "address"
        },
        {
          "indexed": false,
          "internalType": "uint256",
          "name": "amount",
          "type": "uint256"
        }
      ],
      "name": "Withdraw",
      "type": "event"
    },
    {
      "inputs": [],
      "name": "DEFAULT_ADMIN_ROLE",
      "outputs": [
        {
          "internalType": "bytes32",
          "name": "",
          "type": "bytes32"
        }
      ],
      "stateMutability": "view",
      "type": "function"
    },
    {
      "inputs": [],
      "name": "ORIGINATOR_ROLE",
      "outputs": [
        {
          "internalType": "bytes32",
          "name": "",
          "type": "bytes32"
        }
      ],
      "stateMutability": "view",
      "type": "function"
    },
    {
      "inputs": [],
      "name": "OWNER_ROLE",
      "outputs": [
        {
          "internalType": "bytes32",
          "name": "",
          "type": "bytes32"
        }
      ],
      "stateMutability": "view",
      "type": "function"
    },
    {
      "inputs": [],
      "name": "RATE_SCALING_FACTOR",
      "outputs": [
        {
          "internalType": "uint256",
          "name": "",
          "type": "uint256"
        }
      ],
      "stateMutability": "view",
      "type": "function"
    },
    {
      "inputs": [],
      "name": "amountOwedToOriginator",
      "outputs": [
        {
          "internalType": "uint256",
          "name": "",
          "type": "uint256"
        }
      ],
      "stateMutability": "view",
      "type": "function"
    },
    {
      "inputs": [],
      "name": "checkMinFirstLost",
      "outputs": [
        {
          "internalType": "bool",
          "name": "",
          "type": "bool"
        }
      ],
      "stateMutability": "view",
      "type": "function"
    },
    {
      "inputs": [
        {
          "internalType": "address",
          "name": "recipientWallet",
          "type": "address"
        }
      ],
      "name": "claimCashRemain",
      "outputs": [],
      "stateMutability": "nonpayable",
      "type": "function"
    },
    {
      "inputs": [
        {
          "internalType": "address",
          "name": "tokenAddress",
          "type": "address"
        },
        {
          "internalType": "address",
          "name": "from",
          "type": "address"
        },
        {
          "internalType": "uint256[]",
          "name": "tokenIds",
          "type": "uint256[]"
        }
      ],
      "name": "collectAssets",
      "outputs": [],
      "stateMutability": "nonpayable",
      "type": "function"
    },
    {
      "inputs": [
        {
          "internalType": "address[]",
          "name": "tokenAddresses",
          "type": "address[]"
        },
        {
          "internalType": "address[]",
          "name": "senders",
          "type": "address[]"
        },
        {
          "internalType": "uint256[]",
          "name": "amounts",
          "type": "uint256[]"
        }
      ],
      "name": "collectERC20Assets",
      "outputs": [],
      "stateMutability": "nonpayable",
      "type": "function"
    },
    {
      "inputs": [
        {
          "internalType": "address",
          "name": "tokenAddress",
          "type": "address"
        },
        {
          "internalType": "address",
          "name": "investor",
          "type": "address"
        },
        {
          "internalType": "uint256",
          "name": "currency",
          "type": "uint256"
        },
        {
          "internalType": "uint256",
          "name": "token",
          "type": "uint256"
        }
      ],
      "name": "decreaseLockedDistributeBalance",
      "outputs": [],
      "stateMutability": "nonpayable",
      "type": "function"
    },
    {
      "inputs": [
        {
          "internalType": "uint256",
          "name": "currencyAmount",
          "type": "uint256"
        }
      ],
      "name": "decreaseReserve",
      "outputs": [],
      "stateMutability": "nonpayable",
      "type": "function"
    },
    {
      "inputs": [
        {
          "internalType": "address",
          "name": "",
          "type": "address"
        }
      ],
      "name": "existsTokenAssetAddress",
      "outputs": [
        {
          "internalType": "bool",
          "name": "",
          "type": "bool"
        }
      ],
      "stateMutability": "view",
      "type": "function"
    },
    {
      "inputs": [
        {
          "internalType": "address",
          "name": "tokenAddress",
          "type": "address"
        },
        {
          "internalType": "address",
          "name": "toPoolAddress",
          "type": "address"
        },
        {
          "internalType": "uint256[]",
          "name": "tokenIds",
          "type": "uint256[]"
        }
      ],
      "name": "exportAssets",
      "outputs": [],
      "stateMutability": "nonpayable",
      "type": "function"
    },
    {
      "inputs": [],
      "name": "firstAssetTimestamp",
      "outputs": [
        {
          "internalType": "uint64",
          "name": "",
          "type": "uint64"
        }
      ],
      "stateMutability": "view",
      "type": "function"
    },
    {
      "inputs": [],
      "name": "getInitializedVersion",
      "outputs": [
        {
          "internalType": "uint256",
          "name": "",
          "type": "uint256"
        }
      ],
      "stateMutability": "view",
      "type": "function"
    },
    {
      "inputs": [],
      "name": "getNFTAssetsLength",
      "outputs": [
        {
          "internalType": "uint256",
          "name": "",
          "type": "uint256"
        }
      ],
      "stateMutability": "view",
      "type": "function"
    },
    {
      "inputs": [],
      "name": "getRiskScoresLength",
      "outputs": [
        {
          "internalType": "uint256",
          "name": "",
          "type": "uint256"
        }
      ],
      "stateMutability": "view",
      "type": "function"
    },
    {
      "inputs": [
        {
          "internalType": "bytes32",
          "name": "role",
          "type": "bytes32"
        }
      ],
      "name": "getRoleAdmin",
      "outputs": [
        {
          "internalType": "bytes32",
          "name": "",
          "type": "bytes32"
        }
      ],
      "stateMutability": "view",
      "type": "function"
    },
    {
      "inputs": [
        {
          "internalType": "bytes32",
          "name": "role",
          "type": "bytes32"
        },
        {
          "internalType": "uint256",
          "name": "index",
          "type": "uint256"
        }
      ],
      "name": "getRoleMember",
      "outputs": [
        {
          "internalType": "address",
          "name": "",
          "type": "address"
        }
      ],
      "stateMutability": "view",
      "type": "function"
    },
    {
      "inputs": [
        {
          "internalType": "bytes32",
          "name": "role",
          "type": "bytes32"
        }
      ],
      "name": "getRoleMemberCount",
      "outputs": [
        {
          "internalType": "uint256",
          "name": "",
          "type": "uint256"
        }
      ],
      "stateMutability": "view",
      "type": "function"
    },
    {
      "inputs": [],
      "name": "getTokenAssetAddresses",
      "outputs": [
        {
          "internalType": "address[]",
          "name": "",
          "type": "address[]"
        }
      ],
      "stateMutability": "view",
      "type": "function"
    },
    {
      "inputs": [],
      "name": "getTokenAssetAddressesLength",
      "outputs": [
        {
          "internalType": "uint256",
          "name": "",
          "type": "uint256"
        }
      ],
      "stateMutability": "view",
      "type": "function"
    },
    {
      "inputs": [
        {
          "internalType": "bytes32",
          "name": "role",
          "type": "bytes32"
        },
        {
          "internalType": "address",
          "name": "account",
          "type": "address"
        }
      ],
      "name": "grantRole",
      "outputs": [],
      "stateMutability": "nonpayable",
      "type": "function"
    },
    {
      "inputs": [],
      "name": "hasFinishedRedemption",
      "outputs": [
        {
          "internalType": "bool",
          "name": "",
          "type": "bool"
        }
      ],
      "stateMutability": "view",
      "type": "function"
    },
    {
      "inputs": [
        {
          "internalType": "bytes32",
          "name": "role",
          "type": "bytes32"
        },
        {
          "internalType": "address",
          "name": "account",
          "type": "address"
        }
      ],
      "name": "hasRole",
      "outputs": [
        {
          "internalType": "bool",
          "name": "",
          "type": "bool"
        }
      ],
      "stateMutability": "view",
      "type": "function"
    },
    {
      "inputs": [
        {
          "internalType": "address",
          "name": "tokenAddress",
          "type": "address"
        },
        {
          "internalType": "address",
          "name": "investor",
          "type": "address"
        },
        {
          "internalType": "uint256",
          "name": "currency",
          "type": "uint256"
        },
        {
          "internalType": "uint256",
          "name": "token",
          "type": "uint256"
        }
      ],
      "name": "increaseLockedDistributeBalance",
      "outputs": [],
      "stateMutability": "nonpayable",
      "type": "function"
    },
    {
      "inputs": [
        {
          "internalType": "uint256",
          "name": "currencyAmount",
          "type": "uint256"
        }
      ],
      "name": "increaseReserve",
      "outputs": [],
      "stateMutability": "nonpayable",
      "type": "function"
    },
    {
      "inputs": [
        {
          "internalType": "uint256",
          "name": "amount",
          "type": "uint256"
        }
      ],
      "name": "increaseTotalAssetRepaidCurrency",
      "outputs": [],
      "stateMutability": "nonpayable",
      "type": "function"
    },
    {
      "inputs": [
        {
          "internalType": "contract Registry",
          "name": "_registry",
          "type": "address"
        },
        {
          "internalType": "address",
          "name": "_currency",
          "type": "address"
        },
        {
          "internalType": "uint32",
          "name": "_minFirstLossCushion",
          "type": "uint32"
        }
      ],
      "name": "initialize",
      "outputs": [],
      "stateMutability": "nonpayable",
      "type": "function"
    },
    {
      "inputs": [
        {
          "internalType": "address",
          "name": "_tgeAddress",
          "type": "address"
        },
        {
          "internalType": "address",
          "name": "_tokenAddress",
          "type": "address"
        },
        {
          "internalType": "enum Configuration.NOTE_TOKEN_TYPE",
          "name": "_noteType",
          "type": "uint8"
        }
      ],
      "name": "injectTGEAddress",
      "outputs": [],
      "stateMutability": "nonpayable",
      "type": "function"
    },
    {
      "inputs": [],
      "name": "interestRateSOT",
      "outputs": [
        {
          "internalType": "uint32",
          "name": "",
          "type": "uint32"
        }
      ],
      "stateMutability": "view",
      "type": "function"
    },
    {
      "inputs": [],
      "name": "isAdmin",
      "outputs": [
        {
          "internalType": "bool",
          "name": "",
          "type": "bool"
        }
      ],
      "stateMutability": "view",
      "type": "function"
    },
    {
      "inputs": [],
      "name": "isClosedState",
      "outputs": [
        {
          "internalType": "bool",
          "name": "",
          "type": "bool"
        }
      ],
      "stateMutability": "view",
      "type": "function"
    },
    {
      "inputs": [],
      "name": "jotToken",
      "outputs": [
        {
          "internalType": "address",
          "name": "",
          "type": "address"
        }
      ],
      "stateMutability": "view",
      "type": "function"
    },
    {
      "inputs": [
        {
          "internalType": "address",
          "name": "",
          "type": "address"
        }
      ],
      "name": "lastRepayTimestampSOT",
      "outputs": [
        {
          "internalType": "uint256",
          "name": "",
          "type": "uint256"
        }
      ],
      "stateMutability": "view",
      "type": "function"
    },
    {
      "inputs": [
        {
          "internalType": "address",
          "name": "",
          "type": "address"
        },
        {
          "internalType": "address",
          "name": "",
          "type": "address"
        }
      ],
      "name": "lockedDistributeBalances",
      "outputs": [
        {
          "internalType": "uint256",
          "name": "",
          "type": "uint256"
        }
      ],
      "stateMutability": "view",
      "type": "function"
    },
    {
      "inputs": [
        {
          "internalType": "address",
          "name": "",
          "type": "address"
        },
        {
          "internalType": "address",
          "name": "",
          "type": "address"
        }
      ],
      "name": "lockedRedeemBalances",
      "outputs": [
        {
          "internalType": "uint256",
          "name": "",
          "type": "uint256"
        }
      ],
      "stateMutability": "view",
      "type": "function"
    },
    {
      "inputs": [],
      "name": "minFirstLossCushion",
      "outputs": [
        {
          "internalType": "uint32",
          "name": "",
          "type": "uint32"
        }
      ],
      "stateMutability": "view",
      "type": "function"
    },
    {
      "inputs": [
        {
          "internalType": "uint256",
          "name": "",
          "type": "uint256"
        }
      ],
      "name": "nftAssets",
      "outputs": [
        {
          "internalType": "address",
          "name": "tokenAddress",
          "type": "address"
        },
        {
          "internalType": "uint256",
          "name": "tokenId",
          "type": "uint256"
        }
      ],
      "stateMutability": "view",
      "type": "function"
    },
    {
      "inputs": [
        {
          "internalType": "address",
          "name": "",
          "type": "address"
        },
        {
          "internalType": "address",
          "name": "",
          "type": "address"
        },
        {
          "internalType": "uint256",
          "name": "tokenId",
          "type": "uint256"
        },
        {
          "internalType": "bytes",
          "name": "",
          "type": "bytes"
        }
      ],
      "name": "onERC721Received",
      "outputs": [
        {
          "internalType": "bytes4",
          "name": "",
          "type": "bytes4"
        }
      ],
      "stateMutability": "nonpayable",
      "type": "function"
    },
    {
      "inputs": [],
      "name": "openingBlockTimestamp",
      "outputs": [
        {
          "internalType": "uint64",
          "name": "",
          "type": "uint64"
        }
      ],
      "stateMutability": "view",
      "type": "function"
    },
    {
      "inputs": [
        {
          "internalType": "address",
          "name": "",
          "type": "address"
        }
      ],
      "name": "paidInterestAmountSOT",
      "outputs": [
        {
          "internalType": "uint256",
          "name": "",
          "type": "uint256"
        }
      ],
      "stateMutability": "view",
      "type": "function"
    },
    {
      "inputs": [],
      "name": "paidPrincipalAmountSOT",
      "outputs": [
        {
          "internalType": "uint256",
          "name": "",
          "type": "uint256"
        }
      ],
      "stateMutability": "view",
      "type": "function"
    },
    {
      "inputs": [
        {
          "internalType": "address",
          "name": "",
          "type": "address"
        }
      ],
      "name": "paidPrincipalAmountSOTByInvestor",
      "outputs": [
        {
          "internalType": "uint256",
          "name": "",
          "type": "uint256"
        }
      ],
      "stateMutability": "view",
      "type": "function"
    },
    {
      "inputs": [],
      "name": "pause",
      "outputs": [],
      "stateMutability": "nonpayable",
      "type": "function"
    },
    {
      "inputs": [],
      "name": "paused",
      "outputs": [
        {
          "internalType": "bool",
          "name": "",
          "type": "bool"
        }
      ],
      "stateMutability": "view",
      "type": "function"
    },
    {
      "inputs": [],
      "name": "pot",
      "outputs": [
        {
          "internalType": "address",
          "name": "",
          "type": "address"
        }
      ],
      "stateMutability": "view",
      "type": "function"
    },
    {
      "inputs": [],
      "name": "principalAmountSOT",
      "outputs": [
        {
          "internalType": "uint256",
          "name": "",
          "type": "uint256"
        }
      ],
      "stateMutability": "view",
      "type": "function"
    },
    {
      "inputs": [
        {
          "internalType": "address",
          "name": "usr",
          "type": "address"
        },
        {
          "internalType": "address",
          "name": "notesToken",
          "type": "address"
        },
        {
          "internalType": "uint256",
          "name": "currencyAmount",
          "type": "uint256"
        },
        {
          "internalType": "uint256",
          "name": "tokenAmount",
          "type": "uint256"
        }
      ],
      "name": "redeem",
      "outputs": [],
      "stateMutability": "nonpayable",
      "type": "function"
    },
    {
      "inputs": [],
      "name": "registry",
      "outputs": [
        {
          "internalType": "contract Registry",
          "name": "",
          "type": "address"
        }
      ],
      "stateMutability": "view",
      "type": "function"
    },
    {
      "inputs": [
        {
          "internalType": "bytes32",
          "name": "role",
          "type": "bytes32"
        },
        {
          "internalType": "address",
          "name": "account",
          "type": "address"
        }
      ],
      "name": "renounceRole",
      "outputs": [],
      "stateMutability": "nonpayable",
      "type": "function"
    },
    {
      "inputs": [],
      "name": "reserve",
      "outputs": [
        {
          "internalType": "uint256",
          "name": "",
          "type": "uint256"
        }
      ],
      "stateMutability": "view",
      "type": "function"
    },
    {
      "inputs": [
        {
          "internalType": "bytes32",
          "name": "role",
          "type": "bytes32"
        },
        {
          "internalType": "address",
          "name": "account",
          "type": "address"
        }
      ],
      "name": "revokeRole",
      "outputs": [],
      "stateMutability": "nonpayable",
      "type": "function"
    },
    {
      "inputs": [
        {
          "internalType": "uint256",
          "name": "",
          "type": "uint256"
        }
      ],
      "name": "riskScores",
      "outputs": [
        {
          "internalType": "uint32",
          "name": "daysPastDue",
          "type": "uint32"
        },
        {
          "internalType": "uint32",
          "name": "advanceRate",
          "type": "uint32"
        },
        {
          "internalType": "uint32",
          "name": "penaltyRate",
          "type": "uint32"
        },
        {
          "internalType": "uint32",
          "name": "interestRate",
          "type": "uint32"
        },
        {
          "internalType": "uint32",
          "name": "probabilityOfDefault",
          "type": "uint32"
        },
        {
          "internalType": "uint32",
          "name": "lossGivenDefault",
          "type": "uint32"
        },
        {
          "internalType": "uint32",
          "name": "gracePeriod",
          "type": "uint32"
        },
        {
          "internalType": "uint32",
          "name": "collectionPeriod",
          "type": "uint32"
        },
        {
          "internalType": "uint32",
          "name": "writeOffAfterGracePeriod",
          "type": "uint32"
        },
        {
          "internalType": "uint32",
          "name": "writeOffAfterCollectionPeriod",
          "type": "uint32"
        },
        {
          "internalType": "uint32",
          "name": "discountRate",
          "type": "uint32"
        }
      ],
      "stateMutability": "view",
      "type": "function"
    },
    {
      "inputs": [],
      "name": "secondTGEAddress",
      "outputs": [
        {
          "internalType": "address",
          "name": "",
          "type": "address"
        }
      ],
      "stateMutability": "view",
      "type": "function"
    },
    {
      "inputs": [
        {
          "internalType": "uint32",
          "name": "_interestRateSOT",
          "type": "uint32"
        }
      ],
      "name": "setInterestRateForSOT",
      "outputs": [],
      "stateMutability": "nonpayable",
      "type": "function"
    },
    {
      "inputs": [
        {
          "internalType": "address",
          "name": "_pot",
          "type": "address"
        }
      ],
      "name": "setPot",
      "outputs": [],
      "stateMutability": "nonpayable",
      "type": "function"
    },
    {
      "inputs": [
        {
          "internalType": "bytes32",
          "name": "role",
          "type": "bytes32"
        },
        {
          "internalType": "bytes32",
          "name": "adminRole",
          "type": "bytes32"
        }
      ],
      "name": "setRoleAdmin",
      "outputs": [],
      "stateMutability": "nonpayable",
      "type": "function"
    },
    {
      "inputs": [],
      "name": "setUpOpeningBlockTimestamp",
      "outputs": [],
      "stateMutability": "nonpayable",
      "type": "function"
    },
    {
      "inputs": [
        {
          "internalType": "uint32[]",
          "name": "_daysPastDues",
          "type": "uint32[]"
        },
        {
          "internalType": "uint32[]",
          "name": "_ratesAndDefaults",
          "type": "uint32[]"
        },
        {
          "internalType": "uint32[]",
          "name": "_periodsAndWriteOffs",
          "type": "uint32[]"
        }
      ],
      "name": "setupRiskScores",
      "outputs": [],
      "stateMutability": "nonpayable",
      "type": "function"
    },
    {
      "inputs": [],
      "name": "sotToken",
      "outputs": [
        {
          "internalType": "address",
          "name": "",
          "type": "address"
        }
      ],
      "stateMutability": "view",
      "type": "function"
    },
    {
      "inputs": [
        {
          "internalType": "uint64",
          "name": "_termLengthInSeconds",
          "type": "uint64"
        },
        {
          "internalType": "uint256",
          "name": "_principalAmountForSOT",
          "type": "uint256"
        },
        {
          "internalType": "uint32",
          "name": "_interestRateForSOT",
          "type": "uint32"
        },
        {
          "internalType": "uint64",
          "name": "_timeStartEarningInterest",
          "type": "uint64"
        }
      ],
      "name": "startCycle",
      "outputs": [],
      "stateMutability": "nonpayable",
      "type": "function"
    },
    {
      "inputs": [],
      "name": "state",
      "outputs": [
        {
          "internalType": "enum ISecuritizationPool.CycleState",
          "name": "",
          "type": "uint8"
        }
      ],
      "stateMutability": "view",
      "type": "function"
    },
    {
      "inputs": [
        {
          "internalType": "bytes4",
          "name": "interfaceId",
          "type": "bytes4"
        }
      ],
      "name": "supportsInterface",
      "outputs": [
        {
          "internalType": "bool",
          "name": "",
          "type": "bool"
        }
      ],
      "stateMutability": "view",
      "type": "function"
    },
    {
      "inputs": [],
      "name": "termLengthInSeconds",
      "outputs": [
        {
          "internalType": "uint64",
          "name": "",
          "type": "uint64"
        }
      ],
      "stateMutability": "view",
      "type": "function"
    },
    {
      "inputs": [],
      "name": "tgeAddress",
      "outputs": [
        {
          "internalType": "address",
          "name": "",
          "type": "address"
        }
      ],
      "stateMutability": "view",
      "type": "function"
    },
    {
      "inputs": [
        {
          "internalType": "uint256",
          "name": "",
          "type": "uint256"
        }
      ],
      "name": "tokenAssetAddresses",
      "outputs": [
        {
          "internalType": "address",
          "name": "",
          "type": "address"
        }
      ],
      "stateMutability": "view",
      "type": "function"
    },
    {
      "inputs": [],
      "name": "totalAssetRepaidCurrency",
      "outputs": [
        {
          "internalType": "uint256",
          "name": "",
          "type": "uint256"
        }
      ],
      "stateMutability": "view",
      "type": "function"
    },
    {
      "inputs": [],
      "name": "totalLockedDistributeBalance",
      "outputs": [
        {
          "internalType": "uint256",
          "name": "",
          "type": "uint256"
        }
      ],
      "stateMutability": "view",
      "type": "function"
    },
    {
      "inputs": [
        {
          "internalType": "address",
          "name": "",
          "type": "address"
        }
      ],
      "name": "totalLockedRedeemBalances",
      "outputs": [
        {
          "internalType": "uint256",
          "name": "",
          "type": "uint256"
        }
      ],
      "stateMutability": "view",
      "type": "function"
    },
    {
      "inputs": [],
      "name": "totalRedeemedCurrency",
      "outputs": [
        {
          "internalType": "uint256",
          "name": "",
          "type": "uint256"
        }
      ],
      "stateMutability": "view",
      "type": "function"
    },
    {
      "inputs": [],
      "name": "underlyingCurrency",
      "outputs": [
        {
          "internalType": "address",
          "name": "",
          "type": "address"
        }
      ],
      "stateMutability": "view",
      "type": "function"
    },
    {
      "inputs": [],
      "name": "unpause",
      "outputs": [],
      "stateMutability": "nonpayable",
      "type": "function"
    },
    {
      "inputs": [
        {
          "internalType": "uint256",
          "name": "amount",
          "type": "uint256"
        }
      ],
      "name": "withdraw",
      "outputs": [],
      "stateMutability": "nonpayable",
      "type": "function"
    },
    {
      "inputs": [
        {
          "internalType": "address[]",
          "name": "tokenAddresses",
          "type": "address[]"
        },
        {
          "internalType": "uint256[]",
          "name": "tokenIds",
          "type": "uint256[]"
        },
        {
          "internalType": "address[]",
          "name": "recipients",
          "type": "address[]"
        }
      ],
      "name": "withdrawAssets",
      "outputs": [],
      "stateMutability": "nonpayable",
      "type": "function"
    },
    {
      "inputs": [
        {
          "internalType": "address[]",
          "name": "tokenAddresses",
          "type": "address[]"
        },
        {
          "internalType": "address[]",
          "name": "recipients",
          "type": "address[]"
        },
        {
          "internalType": "uint256[]",
          "name": "amounts",
          "type": "uint256[]"
        }
      ],
      "name": "withdrawERC20Assets",
      "outputs": [],
      "stateMutability": "nonpayable",
      "type": "function"
    }
  ],
  "transactionHash": "0x27b158d3d24882fb27330c3f65aca1b2dbede616d465ecbc0acdd8a1f52a6882",
  "args": [],
  "numDeployments": 7,
  "solcInputHash": "8844d9e5bb88e6e53b5b2dc65282b975",
  "bytecode": "0x60806040523480156200001157600080fd5b506200001c62000022565b620000e3565b600054610100900460ff16156200008f5760405162461bcd60e51b815260206004820152602760248201527f496e697469616c697a61626c653a20636f6e747261637420697320696e697469604482015266616c697a696e6760c81b606482015260840160405180910390fd5b60005460ff90811614620000e1576000805460ff191660ff9081179091556040519081527f7f26b83ff96e1f2b6a682f133852f6798a09c465da95921460cefb38474024989060200160405180910390a15b565b615b3280620000f36000396000f3fe608060405234801561001057600080fd5b50600436106104545760003560e01c806370d2f39911610241578063b6db75a01161013b578063d2fad481116100c3578063e2eda54111610087578063e2eda54114610a79578063e58378bb14610a82578063ed34889514610a97578063fa3908b114610aaa578063febd601814610adc57600080fd5b8063d2fad48114610a16578063d547741f14610a37578063d8ba6f4414610a4a578063dec2858714610a5d578063df076fe014610a7057600080fd5b8063c6cb67a61161010a578063c6cb67a6146109d2578063ca15c873146109e5578063cb15a134146109f8578063cd3293de14610a02578063cee7b6a114610a0c57600080fd5b8063b6db75a01461098b578063b8cd9b0014610993578063bff8a36d1461099d578063c19d93fb146109b057600080fd5b806390071cf3116101c9578063a217fddf1161018d578063a217fddf1461092f578063a6c5954714610937578063ac2a6a381461094a578063ade0ea6d14610976578063b3c650151461098057600080fd5b806390071cf3146108ce5780639010d07c146108e157806390161705146108f457806391d1485414610907578063a125142b1461091a57600080fd5b80637da220e6116102105780637da220e6146108645780637dfbdae214610890578063815d6ddf1461089a5780638456cb59146108ad5780638fd6b71e146108b557600080fd5b806370d2f3991461081f57806375b1bce71461084057806378d29d55146108485780637b1039991461085057600080fd5b8063357a0302116103525780634ba2363a116102da5780636421cede1161029e5780636421cede1461074d578063644b4ead146107625780636456a3ee146107dd5780636ecf2b22146107f15780636ee44c4c1461080457600080fd5b80634ba2363a146106e45780634bb48586146106f85780634be474181461071c5780635b8e62e71461072f5780635c975abb1461074257600080fd5b80633d79ab03116103215780633d79ab03146106615780633f4ba83a146106945780633ffebce41461069c578063477035d1146106bd5780634b552a4a146106d157600080fd5b8063357a03021461061557806336568abe1461062857806338d9feac1461063b5780633bf4045f1461064e57600080fd5b806320585408116103e05780632b71b450116103a45780632b71b450146105ac5780632bb14ff0146105c05780632bcc3682146105e65780632e1a7d4d146105ef5780632f2ff15d1461060257600080fd5b80632058540814610550578063206c17651461055a578063221dc59314610562578063247fc36314610576578063248a9ca31461058957600080fd5b8063150b7a0211610427578063150b7a02146104ca5780631ba6e957146104f65780631bf51b70146105175780631e4e00911461052a5780631fbf7c3e1461053d57600080fd5b806301ffc9a71461045957806306aac7ec146104815780630b7792f11461048b5780630bc6bffc1461049e575b600080fd5b61046c61046736600461500e565b610af0565b60405190151581526020015b60405180910390f35b610489610b1b565b005b610174545b604051908152602001610478565b610164546104b2906001600160a01b031681565b6040516001600160a01b039091168152602001610478565b6104dd6104d8366004615063565b610ba2565b6040516001600160e01b03199091168152602001610478565b610490610504366004615142565b61016e6020526000908152604090205481565b6104896105253660046151aa565b610d4c565b610489610538366004615243565b611486565b61048961054b366004615265565b6114a0565b6104906101685481565b61046c611595565b610161546104b2906001600160a01b031681565b6104896105843660046151aa565b611635565b610490610597366004615265565b600090815260c9602052604090206001015490565b610163546104b2906001600160a01b031681565b610172546105d19063ffffffff1681565b60405163ffffffff9091168152602001610478565b61017354610490565b6104896105fd366004615265565b6119da565b61048961061036600461527e565b611b2e565b6104896106233660046152ae565b611b53565b61048961063636600461527e565b611d1e565b6104896106493660046152f4565b611d9c565b61048961065c3660046151aa565b61200a565b6101645461067c90600160a81b90046001600160401b031681565b6040516001600160401b039091168152602001610478565b61048961230f565b6104906106aa366004615142565b6101776020526000908152604090205481565b6101655461067c906001600160401b031681565b6104896106df366004615358565b6123f3565b610178546104b2906001600160a01b031681565b61046c610706366004615142565b6101766020526000908152604090205460ff1681565b61048961072a3660046152ae565b612659565b61048961073d3660046152ae565b612943565b60335460ff1661046c565b610755612a80565b60405161047891906153a7565b610775610770366004615265565b612ae3565b6040805163ffffffff9c8d1681529a8c1660208c0152988b16988a01989098529589166060890152938816608088015291871660a0870152861660c0860152851660e08501528416610100840152831661012083015290911661014082015261016001610478565b610160546104b2906001600160a01b031681565b6104896107ff366004615406565b612b71565b6101655461067c90600160401b90046001600160401b031681565b61049061082d366004615142565b61016a6020526000908152604090205481565b61046c612f48565b61046c613117565b61015f546104b2906001600160a01b031681565b610490610872366004615446565b61016b60209081526000928352604080842090915290825290205481565b6104906101695481565b6104896108a8366004615489565b613140565b6104896135ed565b610172546105d190640100000000900463ffffffff1681565b6104896108dc366004615142565b6136d1565b6104b26108ef366004615243565b61385c565b610489610902366004615265565b61387b565b61046c61091536600461527e565b613968565b610490600080516020615add83398151915281565b610490600081565b6104896109453660046151aa565b613993565b610490610958366004615446565b61016c60209081526000928352604080842090915290825290205481565b6104906101715481565b60005460ff16610490565b61046c613b61565b6104906101705481565b6104896109ab366004615265565b613b80565b610164546109c590600160a01b900460ff1681565b60405161047891906154f2565b6104896109e036600461550c565b613c0e565b6104906109f3366004615265565b613cdc565b6104906101675481565b6104906101665481565b61049061016d5481565b610490610a24366004615142565b61016f6020526000908152604090205481565b610489610a4536600461527e565b613cf3565b6104b2610a58366004615265565b613d18565b610489610a6b3660046152f4565b613d43565b61017554610490565b61049061271081565b610490600080516020615a9d83398151915281565b610489610aa5366004615142565b613f3d565b610abd610ab8366004615265565b614264565b604080516001600160a01b039093168352602083019190915201610478565b610162546104b2906001600160a01b031681565b60006001600160e01b03198216635a05180f60e01b1480610b155750610b158261429d565b92915050565b610b236142d2565b610160546001600160a01b0316336001600160a01b031614610b985760405162461bcd60e51b8152602060048201526024808201527f53656375726974697a6174696f6e506f6f6c3a204f6e6c7920746765206164646044820152637265737360e01b60648201526084015b60405180910390fd5b610ba0614318565b565b61015f546000903390610bbd906001600160a01b0316614471565b6001600160a01b0316816001600160a01b03161480610c02575061015f54610bed906001600160a01b031661447e565b6001600160a01b0316816001600160a01b0316145b610c6c5760405162461bcd60e51b815260206004820152603560248201527f53656375726974697a6174696f6e506f6f6c3a204d75737420626520746f6b656044820152741b881a5cdcdd595908189e48155b9d185b99db1959605a1b6064820152608401610b8f565b6040805180820182526001600160a01b038381168083526020808401898152610174805460018101825560009190915294517f19628ef4f1e52435a91694e0b17e2591e7982b96f1883cadfe58900fe74230c4600290960295860180546001600160a01b031916919095161790935591517f19628ef4f1e52435a91694e0b17e2591e7982b96f1883cadfe58900fe74230c590930192909255825191825281018690527ff1c19e8856063adce43b5f307c6ac9d0af46fd0787c590550c51d7cf02d2e5f4910160405180910390a150630a85bd0160e11b95945050505050565b610d546142d2565b610d5c613117565b15610d795760405162461bcd60e51b8152600401610b8f90615529565b61015f54610d8f906001600160a01b031661448b565b6001600160a01b03166391d14854600080516020615abd833981519152336040516001600160e01b031960e085901b16815260048101929092526001600160a01b03166024820152604401602060405180830381865afa158015610df7573d6000803e3d6000fd5b505050506040513d601f19601f82011682018060405250810190610e1b9190615571565b80610e395750610e39600080516020615a9d83398151915233613968565b610e555760405162461bcd60e51b8152600401610b8f90615593565b8483610e628260066155fc565b148015610e78575081610e768260046155fc565b145b610eea5760405162461bcd60e51b815260206004820152603860248201527f53656375726974697a6174696f6e506f6f6c3a205269736b73636f726520706160448201527f72616d73206c656e677468206973206e6f7420657175616c00000000000000006064820152608401610b8f565b610ef76101736000614fc2565b60005b8181101561147c57801580610f7057508787610f17600184615613565b818110610f2657610f26615626565b9050602002016020810190610f3b919061550c565b63ffffffff16888883818110610f5357610f53615626565b9050602002016020810190610f68919061550c565b63ffffffff16115b610fd35760405162461bcd60e51b815260206004820152602e60248201527f53656375726974697a6174696f6e506f6f6c3a205269736b2073636f7265732060448201526d1b5d5cdd081899481cdbdc9d195960921b6064820152608401610b8f565b6101736040518061016001604052808a8a85818110610ff457610ff4615626565b9050602002016020810190611009919061550c565b63ffffffff16815260200188888581811061102657611026615626565b905060200201602081019061103b919061550c565b63ffffffff1681526020018888611052878761563c565b81811061106157611061615626565b9050602002016020810190611076919061550c565b63ffffffff168152602001888861108e8760026155fc565b611098908761563c565b8181106110a7576110a7615626565b90506020020160208101906110bc919061550c565b63ffffffff16815260200188886110d48760036155fc565b6110de908761563c565b8181106110ed576110ed615626565b9050602002016020810190611102919061550c565b63ffffffff168152602001888861111a8760046155fc565b611124908761563c565b81811061113357611133615626565b9050602002016020810190611148919061550c565b63ffffffff16815260200186868581811061116557611165615626565b905060200201602081019061117a919061550c565b63ffffffff1681526020018686611191878761563c565b8181106111a0576111a0615626565b90506020020160208101906111b5919061550c565b63ffffffff16815260200186866111cd8760026155fc565b6111d7908761563c565b8181106111e6576111e6615626565b90506020020160208101906111fb919061550c565b63ffffffff16815260200186866112138760036155fc565b61121d908761563c565b81811061122c5761122c615626565b9050602002016020810190611241919061550c565b63ffffffff16815260200188886112598760056155fc565b611263908761563c565b81811061127257611272615626565b9050602002016020810190611287919061550c565b63ffffffff16815250908060018154018082558091505060019003906000526020600020906002020160009091909190915060008201518160000160006101000a81548163ffffffff021916908363ffffffff16021790555060208201518160000160046101000a81548163ffffffff021916908363ffffffff16021790555060408201518160000160086101000a81548163ffffffff021916908363ffffffff160217905550606082015181600001600c6101000a81548163ffffffff021916908363ffffffff16021790555060808201518160000160106101000a81548163ffffffff021916908363ffffffff16021790555060a08201518160000160146101000a81548163ffffffff021916908363ffffffff16021790555060c08201518160000160186101000a81548163ffffffff021916908363ffffffff16021790555060e082015181600001601c6101000a81548163ffffffff021916908363ffffffff1602179055506101008201518160010160006101000a81548163ffffffff021916908363ffffffff1602179055506101208201518160010160046101000a81548163ffffffff021916908363ffffffff1602179055506101408201518160010160086101000a81548163ffffffff021916908363ffffffff16021790555050506114758160010190565b9050610efa565b5050505050505050565b600061149181614498565b61149b83836144a2565b505050565b6114a86142d2565b61015f546114be906001600160a01b031661448b565b6001600160a01b0316336001600160a01b03161480611503575061015f546114ee906001600160a01b03166144ed565b6001600160a01b0316336001600160a01b0316145b61151f5760405162461bcd60e51b8152600401610b8f9061564f565b806101665461152e919061563c565b6101665561153a611595565b6115565760405162461bcd60e51b8152600401610b8f906156c5565b7fb2209630cc27a5f36fad66f0e873c886ed480b2fb7613885f5914d723acd74726101665460405161158a91815260200190565b60405180910390a150565b61015f5460009081906115b0906001600160a01b03166144fa565b604051630129ecc560e61b81523060048201529091506001600160a01b03821690634a7b314090602401602060405180830381865afa1580156115f7573d6000803e3d6000fd5b505050506040513d601f19601f8201168201806040525081019061161b91906156fc565b61017254640100000000900463ffffffff16111592915050565b61163d6142d2565b611645613117565b156116625760405162461bcd60e51b8152600401610b8f90615529565b600080516020615add83398151915261167a81614498565b85848114801561168957508483145b6116ed5760405162461bcd60e51b815260206004820152602f60248201527f53656375726974697a6174696f6e506f6f6c3a20506172616d73206c656e677460448201526e1a08185c99481b9bdd08195c5d585b608a1b6064820152608401610b8f565b60005b818110156118115761015f5461170e906001600160a01b0316614507565b6001600160a01b03166384933c0c8a8a8481811061172e5761172e615626565b90506020020160208101906117439190615142565b6040516001600160e01b031960e084901b1681526001600160a01b039091166004820152602401602060405180830381865afa158015611787573d6000803e3d6000fd5b505050506040513d601f19601f820116820180604052508101906117ab9190615571565b6118095760405162461bcd60e51b815260206004820152602960248201527f53656375726974697a6174696f6e506f6f6c3a20756e6b6e6f776e2d746f6b656044820152686e2d6164647265737360b81b6064820152608401610b8f565b6001016116f0565b5060005b818110156118545761184c89898381811061183257611832615626565b90506020020160208101906118479190615142565b614514565b600101611815565b5060005b8181101561195b5788888281811061187257611872615626565b90506020020160208101906118879190615142565b6001600160a01b03166323b872dd8888848181106118a7576118a7615626565b90506020020160208101906118bc9190615142565b308888868181106118cf576118cf615626565b905060200201356040518463ffffffff1660e01b81526004016118f493929190615715565b6020604051808303816000875af1158015611913573d6000803e3d6000fd5b505050506040513d601f19601f820116820180604052508101906119379190615571565b6119535760405162461bcd60e51b8152600401610b8f90615739565b600101611858565b50610165546001600160401b031660000361198e57610165805467ffffffffffffffff1916426001600160401b03161790555b610165546040516001600160401b0390911681527faa8cf603b3be24f79f673495c449aa3a2fcec1f484210e1662a1374c3e7f3350906020015b60405180910390a15050505050505050565b6119e26142d2565b600080516020615add8339815191526119fa81614498565b61016754808311611a1857611a0f8382615613565b61016755611a1f565b6000610167555b8261016654611a2e9190615613565b61016655611a3a611595565b611a565760405162461bcd60e51b8152600401610b8f906156c5565b61016454610178546040516323b872dd60e01b81526001600160a01b03928316926323b872dd92611a909291169033908890600401615715565b6020604051808303816000875af1158015611aaf573d6000803e3d6000fd5b505050506040513d601f19601f82011682018060405250810190611ad39190615571565b611aef5760405162461bcd60e51b8152600401610b8f90615739565b60408051338152602081018590527f884edad9ce6fa2440d8a54cc123490eb96d2768479d49ff9c7366125a942436491015b60405180910390a1505050565b600082815260c96020526040902060010154611b4981614498565b61149b83836145d7565b611b5b6142d2565b61015f54611b71906001600160a01b03166144ed565b6001600160a01b0316336001600160a01b031614611ba15760405162461bcd60e51b8152600401610b8f9061577c565b6001600160a01b03808516600090815261016b6020908152604080832093871683529290522054611bd390839061563c565b6001600160a01b03808616600081815261016b602090815260408083209489168084529482528083209590955591815261016c82528381209281529190522054611c1e90829061563c565b6001600160a01b03808616600090815261016c602090815260408083209388168352929052205561016954611c5490839061563c565b610169556001600160a01b038416600090815261016a6020526040902054611c7d90829061563c565b6001600160a01b03858116600081815261016a6020818152604080842087905561016b8252808420958a168085529582528084205485855261016c8352818520878652835281852054948690529282526101695481519384529183019390935291810194909452606084015290917f39430af7b34e28c66cbb85c8f60111d96c000a66b7c66f2793709e7f0b9af2dd9060800160405180910390a350505050565b6001600160a01b0381163314611d8e5760405162461bcd60e51b815260206004820152602f60248201527f416363657373436f6e74726f6c3a2063616e206f6e6c792072656e6f756e636560448201526e103937b632b9903337b91039b2b63360891b6064820152608401610b8f565b611d9882826145f9565b5050565b611da46142d2565b600080516020615add833981519152611dbc81614498565b8160005b81811015611e5357866001600160a01b03166342842e0e8730888886818110611deb57611deb615626565b905060200201356040518463ffffffff1660e01b8152600401611e1093929190615715565b600060405180830381600087803b158015611e2a57600080fd5b505af1158015611e3e573d6000803e3d6000fd5b50505050611e4c8160010190565b9050611dc0565b5061015f546000908190611e6f906001600160a01b03166144fa565b905060005b83811015611f3757816001600160a01b03166319c03937308b8a8a86818110611e9f57611e9f615626565b6040516001600160e01b031960e088901b1681526001600160a01b03958616600482015294909316602485015250602090910201356044820152426064820152608401602060405180830381865afa158015611eff573d6000803e3d6000fd5b505050506040513d601f19601f82011682018060405250810190611f2391906156fc565b611f2d908461563c565b9250600101611e74565b50816101676000828254611f4b919061563c565b909155505061016454600160a81b90046001600160401b0316600003611f9957610164805467ffffffffffffffff60a81b1916600160a81b426001600160401b031602179055611f99614318565b610165546001600160401b0316600003611fcb57610165805467ffffffffffffffff1916426001600160401b03161790555b604080516001600160a01b0389168152602081018490527f8fe20ffada4d9ccf074a33397d222919da2efb5f843f88fa560b4e00d6ad3a8d91016119c8565b6120126142d2565b61201a61461b565b61015f54612030906001600160a01b031661448b565b6001600160a01b03166391d14854600080516020615abd833981519152336040516001600160e01b031960e085901b16815260048101929092526001600160a01b03166024820152604401602060405180830381865afa158015612098573d6000803e3d6000fd5b505050506040513d601f19601f820116820180604052508101906120bc9190615571565b806120da57506120da600080516020615a9d83398151915233613968565b6120f65760405162461bcd60e51b8152600401610b8f90615593565b848381146121165760405162461bcd60e51b8152600401610b8f906157c9565b8082146121355760405162461bcd60e51b8152600401610b8f90615826565b60005b818110156122fb57610176600089898481811061215757612157615626565b905060200201602081019061216c9190615142565b6001600160a01b0316815260208101919091526040016000205460ff166121f15760405162461bcd60e51b815260206004820152603360248201527f53656375726974697a6174696f6e506f6f6c3a206e6f746520746f6b656e20616044820152721cdcd95d08191bd95cc81b9bdd08195e1a5cdd606a1b6064820152608401610b8f565b87878281811061220357612203615626565b90506020020160208101906122189190615142565b6001600160a01b031663a9059cbb87878481811061223857612238615626565b905060200201602081019061224d9190615142565b86868581811061225f5761225f615626565b6040516001600160e01b031960e087901b1681526001600160a01b03909416600485015260200291909101356024830152506044016020604051808303816000875af11580156122b3573d6000803e3d6000fd5b505050506040513d601f19601f820116820180604052508101906122d79190615571565b6122f35760405162461bcd60e51b8152600401610b8f90615739565b600101612138565b50506123076001606555565b505050505050565b61015f54612325906001600160a01b031661448b565b6001600160a01b03166391d14854600080516020615abd833981519152336040516001600160e01b031960e085901b16815260048101929092526001600160a01b03166024820152604401602060405180830381865afa15801561238d573d6000803e3d6000fd5b505050506040513d601f19601f820116820180604052508101906123b19190615571565b806123cf57506123cf600080516020615a9d83398151915233613968565b6123eb5760405162461bcd60e51b8152600401610b8f90615593565b610ba061467b565b6123fb6142d2565b61015f54612411906001600160a01b031661448b565b6001600160a01b0316336001600160a01b0316146124885760405162461bcd60e51b815260206004820152602e60248201527f53656375726974697a6174696f6e506f6f6c3a204f6e6c79205365637572697460448201526d34bd30ba34b7b726b0b730b3b2b960911b6064820152608401610b8f565b600261016454600160a01b900460ff1660038111156124a9576124a96154dc565b141580156124d65750600361016454600160a01b900460ff1660038111156124d3576124d36154dc565b14155b6125225760405162461bcd60e51b815260206004820152601a60248201527f4e6f7420696e2069737375696e6720746f6b656e2073746167650000000000006044820152606401610b8f565b6001600160a01b0383161580159061254257506001600160a01b03821615155b61258e5760405162461bcd60e51b815260206004820181905260248201527f53656375726974697a6174696f6e506f6f6c3a2041646472657373207a65726f6044820152606401610b8f565b60008160018111156125a2576125a26154dc565b036125de5761016080546001600160a01b038086166001600160a01b031992831617909255610162805492851692909116919091179055612611565b61016180546001600160a01b038086166001600160a01b0319928316179092556101638054928516929091169190911790555b610164805460ff60a01b1916600160a01b1790556040517fba1ffbd8eaf48d438173faf4a6bbea0b6d4af272704b2d21e5b7c46f9dd3643390611b2190859085908590615883565b6126616142d2565b61266961461b565b61015f5461267f906001600160a01b03166146cd565b6001600160a01b0316336001600160a01b0316146126fe5760405162461bcd60e51b815260206004820152603660248201527f53656375726974697a6174696f6e506f6f6c3a2043616c6c6572206d75737420604482015275626520446973747269627574696f6e5472616e63686560501b6064820152608401610b8f565b610162546001600160a01b03808516911603612781576001600160a01b038416600090815261017760205260408120805484929061273d90849061563c565b90915550506040518281526001600160a01b038516907fc0144ef36fd10fb8ddd0407064f49c178804e65e0be62a7ba62de079401baa189060200160405180910390a25b81610166546127909190615613565b6101665580156127f557604051630852cd8d60e31b8152600481018290526001600160a01b038416906342966c6890602401600060405180830381600087803b1580156127dc57600080fd5b505af11580156127f0573d6000803e3d6000fd5b505050505b6127fd611595565b6128195760405162461bcd60e51b8152600401610b8f906156c5565b61016454610178546040516323b872dd60e01b81526001600160a01b03928316926323b872dd926128539291169088908790600401615715565b6020604051808303816000875af1158015612872573d6000803e3d6000fd5b505050506040513d601f19601f820116820180604052508101906128969190615571565b6128f75760405162461bcd60e51b815260206004820152602c60248201527f53656375726974697a6174696f6e506f6f6c3a2063757272656e63792d74726160448201526b1b9cd9995c8b59985a5b195960a21b6064820152608401610b8f565b7fb2209630cc27a5f36fad66f0e873c886ed480b2fb7613885f5914d723acd74726101665460405161292b91815260200190565b60405180910390a161293d6001606555565b50505050565b61294b6142d2565b61015f54612961906001600160a01b03166144ed565b6001600160a01b0316336001600160a01b0316146129915760405162461bcd60e51b8152600401610b8f9061577c565b6001600160a01b03808516600090815261016b60209081526040808320938716835292905220546129c3908390615613565b6001600160a01b03808616600081815261016b602090815260408083209489168084529482528083209590955591815261016c82528381209281529190522054612a0e908290615613565b6001600160a01b03808616600090815261016c602090815260408083209388168352929052205561016954612a44908390615613565b6101695561016854612a5790839061563c565b610168556001600160a01b038416600090815261016a6020526040902054611c7d908290615613565b6060610175805480602002602001604051908101604052809291908181526020018280548015612ad957602002820191906000526020600020905b81546001600160a01b03168152600190910190602001808311612abb575b5050505050905090565b6101738181548110612af457600080fd5b60009182526020909120600290910201805460019091015463ffffffff8083169350640100000000808404821693600160401b808204841694600160601b8304851694600160801b8404811694600160a01b8504821694600160c01b8104831694600160e01b90910483169380841693928104831692919004168b565b600054610100900460ff1615808015612b915750600054600160ff909116105b80612bab5750303b158015612bab575060005460ff166001145b612c0e5760405162461bcd60e51b815260206004820152602e60248201527f496e697469616c697a61626c653a20636f6e747261637420697320616c72656160448201526d191e481a5b9a5d1a585b1a5e995960921b6064820152608401610b8f565b6000805460ff191660011790558015612c31576000805461ff0019166101001790555b612c3e61271060646155fc565b8263ffffffff1610612ca25760405162461bcd60e51b815260206004820152602760248201527f6d696e46697273744c6f737343757368696f6e20697320677265617465722074604482015266068616e203130360cc1b6064820152608401610b8f565b6001600160a01b038316612d045760405162461bcd60e51b8152602060048201526024808201527f53656375726974697a6174696f6e506f6f6c3a20496e76616c69642063757272604482015263656e637960e01b6064820152608401610b8f565b612d0d336146da565b612d33600080516020615add833981519152600080516020615a9d8339815191526144a2565b61015f80546001600160a01b038681166001600160a01b03199283161790925561016480549286166001600160a81b031990931683179055610172805463ffffffff86166401000000000267ffffffff000000001990911617905561017880549091163090811790915560405163095ea7b360e01b81526004810191909152600019602482015263095ea7b3906044016020604051808303816000875af1158015612de2573d6000803e3d6000fd5b505050506040513d601f19601f82011682018060405250810190612e069190615571565b612e675760405162461bcd60e51b815260206004820152602c60248201527f53656375726974697a6174696f6e506f6f6c3a2043757272656e63792061707060448201526b1c9bdd985b0819985a5b195960a21b6064820152608401610b8f565b61015f54612e7d906001600160a01b031661447e565b61015f546001600160a01b039182169163a22cb46591612e9d9116614722565b6040516001600160e01b031960e084901b1681526001600160a01b03909116600482015260016024820152604401600060405180830381600087803b158015612ee557600080fd5b505af1158015612ef9573d6000803e3d6000fd5b50505050801561293d576000805461ff0019169055604051600181527f7f26b83ff96e1f2b6a682f133852f6798a09c465da95921460cefb38474024989060200160405180910390a150505050565b610162546000906001600160a01b03161561302e5761016260009054906101000a90046001600160a01b03166001600160a01b03166318160ddd6040518163ffffffff1660e01b8152600401602060405180830381865afa158015612fb1573d6000803e3d6000fd5b505050506040513d601f19601f82011682018060405250810190612fd591906156fc565b1561302e5760405162461bcd60e51b8152602060048201526024808201527f53656375726974697a6174696f6e506f6f6c3a20534f54207374696c6c20726560448201526336b0b4b760e11b6064820152608401610b8f565b610163546001600160a01b0316156131115761016360009054906101000a90046001600160a01b03166001600160a01b03166318160ddd6040518163ffffffff1660e01b8152600401602060405180830381865afa158015613094573d6000803e3d6000fd5b505050506040513d601f19601f820116820180604052508101906130b891906156fc565b156131115760405162461bcd60e51b8152602060048201526024808201527f53656375726974697a6174696f6e506f6f6c3a204a4f54207374696c6c20726560448201526336b0b4b760e11b6064820152608401610b8f565b50600190565b6000600361016454600160a01b900460ff16600381111561313a5761313a6154dc565b14905090565b6131486142d2565b61315061461b565b600080516020615a9d83398151915261316881614498565b600261016454600160a01b900460ff166003811115613189576131896154dc565b141580156131b65750600361016454600160a01b900460ff1660038111156131b3576131b36154dc565b14155b6132025760405162461bcd60e51b815260206004820152601a60248201527f4e6f7420696e2069737375696e6720746f6b656e2073746167650000000000006044820152606401610b8f565b6000856001600160401b0316116132675760405162461bcd60e51b8152602060048201526024808201527f53656375726974697a6174696f6e506f6f6c3a205465726d206c656e677468206044820152630697320360e41b6064820152608401610b8f565b61016580546fffffffffffffffff00000000000000001916600160401b6001600160401b03881602179055610170849055610164805460ff60a01b1916600160a11b179055610160546001600160a01b03161561348857610160546040516351c5295360e11b815263ffffffff851660048201526001600160401b038088166024830152841660448201526001600160a01b0390911690819063a38a52a690606401600060405180830381600087803b15801561332357600080fd5b505af1158015613337573d6000803e3d6000fd5b50505050806001600160a01b031663b3f05b976040518163ffffffff1660e01b8152600401602060405180830381865afa158015613379573d6000803e3d6000fd5b505050506040513d601f19601f8201168201806040525081019061339d9190615571565b6134095761017854604051632b8093bd60e01b8152600060048201526001600160a01b03918216602482015290821690632b8093bd90604401600060405180830381600087803b1580156133f057600080fd5b505af1158015613404573d6000803e3d6000fd5b505050505b806001600160a01b0316631f0b10c56040518163ffffffff1660e01b8152600401602060405180830381865afa158015613447573d6000803e3d6000fd5b505050506040513d601f19601f8201168201806040525081019061346b91906158b9565b610172805463ffffffff191663ffffffff92909216919091179055505b610161546001600160a01b0316156135e2576101615461017854604051632b8093bd60e01b8152600060048201526001600160a01b039182166024820152911690632b8093bd90604401600060405180830381600087803b1580156134ec57600080fd5b505af1158015613500573d6000803e3d6000fd5b5050505061016160009054906101000a90046001600160a01b03166001600160a01b031663b3f05b976040518163ffffffff1660e01b8152600401602060405180830381865afa158015613558573d6000803e3d6000fd5b505050506040513d601f19601f8201168201806040525081019061357c9190615571565b6135e25760405162461bcd60e51b815260206004820152603160248201527f53656375726974697a6174696f6e506f6f6c3a207365636f6e642073616c65206044820152706973207374696c6c206f6e20676f696e6760781b6064820152608401610b8f565b5061293d6001606555565b61015f54613603906001600160a01b031661448b565b6001600160a01b03166391d14854600080516020615abd833981519152336040516001600160e01b031960e085901b16815260048101929092526001600160a01b03166024820152604401602060405180830381865afa15801561366b573d6000803e3d6000fd5b505050506040513d601f19601f8201168201806040525081019061368f9190615571565b806136ad57506136ad600080516020615a9d83398151915233613968565b6136c95760405162461bcd60e51b8152600401610b8f90615593565b610ba061472f565b6136d96142d2565b600080516020615a9d8339815191526136f181614498565b6136f9612f48565b61375d5760405162461bcd60e51b815260206004820152602f60248201527f53656375726974697a6174696f6e506f6f6c3a20526564656d7074696f6e206860448201526e185cc81b9bdd08199a5b9a5cda1959608a1b6064820152608401610b8f565b61016454610178546040516370a0823160e01b81526001600160a01b0391821660048201819052919092169182916323b872dd91869084906370a0823190602401602060405180830381865afa1580156137bb573d6000803e3d6000fd5b505050506040513d601f19601f820116820180604052508101906137df91906156fc565b6040518463ffffffff1660e01b81526004016137fd93929190615715565b6020604051808303816000875af115801561381c573d6000803e3d6000fd5b505050506040513d601f19601f820116820180604052508101906138409190615571565b61149b5760405162461bcd60e51b8152600401610b8f90615739565b600082815260fb60205260408120613874908361476c565b9392505050565b6138836142d2565b61015f54613899906001600160a01b0316614778565b6001600160a01b0316336001600160a01b03161461390e5760405162461bcd60e51b815260206004820152602c60248201527f53656375726974697a6174696f6e506f6f6c3a204f6e6c79204c6f616e52657060448201526b30bcb6b2b73a2937baba32b960a11b6064820152608401610b8f565b806101665461391d919061563c565b6101665561016d5461393090829061563c565b61016d55610166546040519081527fb2209630cc27a5f36fad66f0e873c886ed480b2fb7613885f5914d723acd74729060200161158a565b600091825260c9602090815260408084206001600160a01b0393909316845291905290205460ff1690565b61399b6142d2565b6139a361461b565b600080516020615a9d8339815191526139bb81614498565b838681146139db5760405162461bcd60e51b8152600401610b8f906157c9565b8683146139fa5760405162461bcd60e51b8152600401610b8f90615826565b60005b81811015613a7157613a4d898983818110613a1a57613a1a615626565b9050602002016020810190613a2f9190615142565b888884818110613a4157613a41615626565b90506020020135614785565b613a695760405162461bcd60e51b8152600401610b8f906158d6565b6001016139fd565b5060005b81811015613b5457888882818110613a8f57613a8f615626565b9050602002016020810190613aa49190615142565b6001600160a01b03166342842e0e30878785818110613ac557613ac5615626565b9050602002016020810190613ada9190615142565b8a8a86818110613aec57613aec615626565b905060200201356040518463ffffffff1660e01b8152600401613b1193929190615715565b600060405180830381600087803b158015613b2b57600080fd5b505af1158015613b3f573d6000803e3d6000fd5b50505050613b4d8160010190565b9050613a75565b5050506123076001606555565b6000613b7b600080516020615a9d83398151915233613968565b905090565b613b886142d2565b61015f54613b9e906001600160a01b031661448b565b6001600160a01b0316336001600160a01b03161480613be3575061015f54613bce906001600160a01b03166144ed565b6001600160a01b0316336001600160a01b0316145b613bff5760405162461bcd60e51b8152600401610b8f9061564f565b806101665461152e9190615613565b613c166142d2565b610160546001600160a01b0316336001600160a01b031614613c935760405162461bcd60e51b815260206004820152603060248201527f53656375726974697a6174696f6e506f6f6c3a204f6e6c79207467652063616e60448201526f081d5c19185d19481a5b9d195c995cdd60821b6064820152608401610b8f565b610172805463ffffffff191663ffffffff83169081179091556040519081527fe385e840d39f98b4644053fb8bba00d8b54f9bc4cdff1b3c4951aa22cb1fdb479060200161158a565b600081815260fb60205260408120610b159061482b565b600082815260c96020526040902060010154613d0e81614498565b61149b83836145f9565b6101758181548110613d2957600080fd5b6000918252602090912001546001600160a01b0316905081565b613d4b6142d2565b613d5361461b565b613d5b613117565b15613d785760405162461bcd60e51b8152600401610b8f90615529565b61015f54613d8e906001600160a01b031661448b565b6001600160a01b03166391d14854600080516020615abd833981519152336040516001600160e01b031960e085901b16815260048101929092526001600160a01b03166024820152604401602060405180830381865afa158015613df6573d6000803e3d6000fd5b505050506040513d601f19601f82011682018060405250810190613e1a9190615571565b80613e385750613e38600080516020615a9d83398151915233613968565b613e545760405162461bcd60e51b8152600401610b8f90615593565b8060005b81811015613e9a57613e7686858584818110613a4157613a41615626565b613e925760405162461bcd60e51b8152600401610b8f906158d6565b600101613e58565b5060005b81811015613f3157856001600160a01b03166342842e0e3087878786818110613ec957613ec9615626565b905060200201356040518463ffffffff1660e01b8152600401613eee93929190615715565b600060405180830381600087803b158015613f0857600080fd5b505af1158015613f1c573d6000803e3d6000fd5b50505050613f2a8160010190565b9050613e9e565b505061293d6001606555565b613f456142d2565b613f4d61461b565b613f55613117565b15613f725760405162461bcd60e51b8152600401610b8f90615529565b61015f54613f88906001600160a01b031661448b565b6001600160a01b03166391d14854600080516020615abd833981519152336040516001600160e01b031960e085901b16815260048101929092526001600160a01b03166024820152604401602060405180830381865afa158015613ff0573d6000803e3d6000fd5b505050506040513d601f19601f820116820180604052508101906140149190615571565b806140325750614032600080516020615a9d83398151915233613968565b61404e5760405162461bcd60e51b8152600401610b8f90615593565b614066600080516020615a9d83398151915282613968565b1561407057600080fd5b610178546001600160a01b038083169116036140e85760405162461bcd60e51b815260206004820152603160248201527f53656375726974697a6174696f6e506f6f6c3a2053616d652061646472657373604482015270081dda5d1a0818dd5c9c995b9d081c1bdd607a1b6064820152608401610b8f565b61017880546001600160a01b0319166001600160a01b0383169081179091553090036141e257610164546101785460405163095ea7b360e01b81526001600160a01b039182166004820152600019602482015291169063095ea7b3906044016020604051808303816000875af1158015614166573d6000803e3d6000fd5b505050506040513d601f19601f8201168201806040525081019061418a9190615571565b6141e25760405162461bcd60e51b8152602060048201526024808201527f53656375726974697a6174696f6e506f6f6c3a20506f74206e6f7420617070726044820152631bdd995960e21b6064820152608401610b8f565b61015f546141f8906001600160a01b031661448b565b6101785460405163dc90f9fd60e01b81526001600160a01b03918216600482015291169063dc90f9fd90602401600060405180830381600087803b15801561423f57600080fd5b505af1158015614253573d6000803e3d6000fd5b505050506142616001606555565b50565b610174818154811061427557600080fd5b6000918252602090912060029091020180546001909101546001600160a01b03909116915082565b60006001600160e01b03198216637965db0b60e01b1480610b1557506301ffc9a760e01b6001600160e01b0319831614610b15565b60335460ff1615610ba05760405162461bcd60e51b815260206004820152601060248201526f14185d5cd8589b194e881c185d5cd95960821b6044820152606401610b8f565b610160546001600160a01b031661432b57565b6101605460408051639b52fe3360e01b815290516000926001600160a01b031691639b52fe339160048083019260209291908290030181865afa158015614376573d6000803e3d6000fd5b505050506040513d601f19601f8201168201806040525081019061439a919061591e565b610164549091506001600160401b03600160a81b9091048116908216158015906143cd57506000816001600160401b0316115b1561442c57816001600160401b0316816001600160401b0316111561440e57610165805467ffffffffffffffff19166001600160401b03831617905561442c565b610165805467ffffffffffffffff19166001600160401b0384161790555b610165546040516001600160401b0390911681527faa8cf603b3be24f79f673495c449aa3a2fcec1f484210e1662a1374c3e7f33509060200160405180910390a15050565b6000610b15826009614835565b6000610b15826008614835565b6000610b15826000614835565b61426181336148ba565b600082815260c96020526040808220600101805490849055905190918391839186917fbd79b86ffe0ab8e8776151514217cd7cacd52c909f66475c3af44e129f0b00ff9190a4505050565b6000610b15826005614835565b6000610b15826011614835565b6000610b15826002614835565b6001600160a01b0381166000908152610176602052604090205460ff166145825761017580546001810182556000919091527f94b016e6b5eafb28c9d47c3523378ec087cc0ead8b7eff2840605504c1f1ac6f0180546001600160a01b0319166001600160a01b0383161790555b6001600160a01b03811660008181526101766020908152604091829020805460ff1916600117905590519182527fa3087e474cce8eb102998561afda3e856fc0f9a515a80d128775eaa3c7269adc910161158a565b6145e18282614913565b600082815260fb6020526040902061149b9082614999565b61460382826149ae565b600082815260fb6020526040902061149b9082614a15565b60026065540361466d5760405162461bcd60e51b815260206004820152601f60248201527f5265656e7472616e637947756172643a207265656e7472616e742063616c6c006044820152606401610b8f565b6002606555565b6001606555565b614683614a2a565b6033805460ff191690557f5db9ee0a495bf2e6ff9c91a7834c1ba4fdd244a5e8aa4e537bd38aeae4b073aa335b6040516001600160a01b03909116815260200160405180910390a1565b6000610b15826007614835565b600054610100900460ff166147015760405162461bcd60e51b8152600401610b8f9061593b565b614709614a73565b614711614aa6565b614719614acd565b61426181614af4565b6000610b1582600d614835565b6147376142d2565b6033805460ff191660011790557f62e78cea01bee320cd4e420270b5ea74000d11b0c9f74754ebdbfc544b05a2586146b03390565b60006138748383614b67565b6000610b1582600c614835565b61017454600090815b8181101561482057846001600160a01b031661017482815481106147b4576147b4615626565b60009182526020909120600290910201546001600160a01b03161480156147ff57508361017482815481106147eb576147eb615626565b906000526020600020906002020160010154145b156148185761480d81614b91565b600192505050610b15565b60010161478e565b506000949350505050565b6000610b15825490565b6000826001600160a01b031663bcaa0c55836019811115614858576148586154dc565b6040516001600160e01b031960e084901b16815260ff9091166004820152602401602060405180830381865afa158015614896573d6000803e3d6000fd5b505050506040513d601f19601f820116820180604052508101906138749190615986565b6148c48282613968565b611d98576148d181614cc9565b6148dc836020614cdb565b6040516020016148ed9291906159c7565b60408051601f198184030181529082905262461bcd60e51b8252610b8f91600401615a3c565b61491d8282613968565b611d9857600082815260c9602090815260408083206001600160a01b03851684529091529020805460ff191660011790556149553390565b6001600160a01b0316816001600160a01b0316837f2f8788117e7eff1d82e926ec794901d17c78024a50270940304540a733656f0d60405160405180910390a45050565b6000613874836001600160a01b038416614e76565b6149b88282613968565b15611d9857600082815260c9602090815260408083206001600160a01b0385168085529252808320805460ff1916905551339285917ff6391f5c32d9c69d2a47ea670b442974b53935d1edc7fd64eb21e047a839171b9190a45050565b6000613874836001600160a01b038416614ec5565b60335460ff16610ba05760405162461bcd60e51b815260206004820152601460248201527314185d5cd8589b194e881b9bdd081c185d5cd95960621b6044820152606401610b8f565b600054610100900460ff16614a9a5760405162461bcd60e51b8152600401610b8f9061593b565b6033805460ff19169055565b600054610100900460ff166146745760405162461bcd60e51b8152600401610b8f9061593b565b600054610100900460ff16610ba05760405162461bcd60e51b8152600401610b8f9061593b565b600054610100900460ff16614b1b5760405162461bcd60e51b8152600401610b8f9061593b565b6001600160a01b038116614b2c5750335b614b37600033614fb8565b614b4f600080516020615a9d83398151915282614fb8565b614261600080516020615a9d833981519152806144a2565b6000826000018281548110614b7e57614b7e615626565b9060005260206000200154905092915050565b6101748054614ba290600190615613565b81548110614bb257614bb2615626565b90600052602060002090600202016101748281548110614bd457614bd4615626565b600091825260208220835460029092020180546001600160a01b0319166001600160a01b0390921691909117815560019283015490830155610174805491929091614c1f9190615613565b81548110614c2f57614c2f615626565b600091825260209182902060029091020180546001820154604080516001600160a01b039093168352938201529092507f2f2c2bbbba2dd1f6074fbdaeda0589f21b3082690049df4802b1d0ed745746e0910160405180910390a1610174805480614c9c57614c9c615a6f565b60008281526020812060026000199093019283020180546001600160a01b03191681556001015590555050565b6060610b156001600160a01b03831660145b60606000614cea8360026155fc565b614cf590600261563c565b6001600160401b03811115614d0c57614d0c61504d565b6040519080825280601f01601f191660200182016040528015614d36576020820181803683370190505b509050600360fc1b81600081518110614d5157614d51615626565b60200101906001600160f81b031916908160001a905350600f60fb1b81600181518110614d8057614d80615626565b60200101906001600160f81b031916908160001a9053506000614da48460026155fc565b614daf90600161563c565b90505b6001811115614e27576f181899199a1a9b1b9c1cb0b131b232b360811b85600f1660108110614de357614de3615626565b1a60f81b828281518110614df957614df9615626565b60200101906001600160f81b031916908160001a90535060049490941c93614e2081615a85565b9050614db2565b5083156138745760405162461bcd60e51b815260206004820181905260248201527f537472696e67733a20686578206c656e67746820696e73756666696369656e746044820152606401610b8f565b6000818152600183016020526040812054614ebd57508154600181810184556000848152602080822090930184905584548482528286019093526040902091909155610b15565b506000610b15565b60008181526001830160205260408120548015614fae576000614ee9600183615613565b8554909150600090614efd90600190615613565b9050818114614f62576000866000018281548110614f1d57614f1d615626565b9060005260206000200154905080876000018481548110614f4057614f40615626565b6000918252602080832090910192909255918252600188019052604090208390555b8554869080614f7357614f73615a6f565b600190038181906000526020600020016000905590558560010160008681526020019081526020016000206000905560019350505050610b15565b6000915050610b15565b611d9882826145d7565b508054600082556002029060005260206000209081019061426191905b8082111561500a57600081556001810180546bffffffffffffffffffffffff19169055600201614fdf565b5090565b60006020828403121561502057600080fd5b81356001600160e01b03198116811461387457600080fd5b6001600160a01b038116811461426157600080fd5b634e487b7160e01b600052604160045260246000fd5b6000806000806080858703121561507957600080fd5b843561508481615038565b9350602085013561509481615038565b92506040850135915060608501356001600160401b03808211156150b757600080fd5b818701915087601f8301126150cb57600080fd5b8135818111156150dd576150dd61504d565b604051601f8201601f19908116603f011681019083821181831017156151055761510561504d565b816040528281528a602084870101111561511e57600080fd5b82602086016020830137600060208483010152809550505050505092959194509250565b60006020828403121561515457600080fd5b813561387481615038565b60008083601f84011261517157600080fd5b5081356001600160401b0381111561518857600080fd5b6020830191508360208260051b85010111156151a357600080fd5b9250929050565b600080600080600080606087890312156151c357600080fd5b86356001600160401b03808211156151da57600080fd5b6151e68a838b0161515f565b909850965060208901359150808211156151ff57600080fd5b61520b8a838b0161515f565b9096509450604089013591508082111561522457600080fd5b5061523189828a0161515f565b979a9699509497509295939492505050565b6000806040838503121561525657600080fd5b50508035926020909101359150565b60006020828403121561527757600080fd5b5035919050565b6000806040838503121561529157600080fd5b8235915060208301356152a381615038565b809150509250929050565b600080600080608085870312156152c457600080fd5b84356152cf81615038565b935060208501356152df81615038565b93969395505050506040820135916060013590565b6000806000806060858703121561530a57600080fd5b843561531581615038565b9350602085013561532581615038565b925060408501356001600160401b0381111561534057600080fd5b61534c8782880161515f565b95989497509550505050565b60008060006060848603121561536d57600080fd5b833561537881615038565b9250602084013561538881615038565b915060408401356002811061539c57600080fd5b809150509250925092565b6020808252825182820181905260009190848201906040850190845b818110156153e85783516001600160a01b0316835292840192918401916001016153c3565b50909695505050505050565b63ffffffff8116811461426157600080fd5b60008060006060848603121561541b57600080fd5b833561542681615038565b9250602084013561543681615038565b9150604084013561539c816153f4565b6000806040838503121561545957600080fd5b823561546481615038565b915060208301356152a381615038565b6001600160401b038116811461426157600080fd5b6000806000806080858703121561549f57600080fd5b84356154aa81615474565b93506020850135925060408501356154c1816153f4565b915060608501356154d181615474565b939692955090935050565b634e487b7160e01b600052602160045260246000fd5b6020810160048310615506576155066154dc565b91905290565b60006020828403121561551e57600080fd5b8135613874816153f4565b60208082526028908201527f53656375726974697a6174696f6e506f6f6c3a20506f6f6c20696e20636c6f73604082015267656420737461746560c01b606082015260800190565b60006020828403121561558357600080fd5b8151801515811461387457600080fd5b60208082526033908201527f53656375726974697a6174696f6e506f6f6c3a204e6f7420616e20706f6f6c2060408201527230b236b4b71037b9103837b7b61037bbb732b960691b606082015260800190565b634e487b7160e01b600052601160045260246000fd5b8082028115828204841417610b1557610b156155e6565b81810381811115610b1557610b156155e6565b634e487b7160e01b600052603260045260246000fd5b80820180821115610b1557610b156155e6565b60208082526050908201527f53656375726974697a6174696f6e506f6f6c3a2043616c6c6572206d7573742060408201527f62652053656375726974697a6174696f6e4d616e61676572206f72204469737460608201526f3934b13aba34b7b727b832b930ba37b960811b608082015260a00190565b6020808252601d908201527f4d696e46697273744c6f7373206973206e6f7420736174697366696564000000604082015260600190565b60006020828403121561570e57600080fd5b5051919050565b6001600160a01b039384168152919092166020820152604081019190915260600190565b60208082526023908201527f53656375726974697a6174696f6e506f6f6c3a205472616e73666572206661696040820152621b195960ea1b606082015260800190565b6020808252602d908201527f53656375726974697a6174696f6e506f6f6c3a204f6e6c79204469737472696260408201526c3aba34b7b727b832b930ba37b960991b606082015260800190565b60208082526037908201527f746f6b656e416464726573736573206c656e67746820616e6420746f6b656e4960408201527f6473206c656e67746820617265206e6f7420657175616c000000000000000000606082015260800190565b60208082526039908201527f746f6b656e416464726573736573206c656e67746820616e642072656369706960408201527f656e7473206c656e67746820617265206e6f7420657175616c00000000000000606082015260800190565b6001600160a01b0384811682528316602082015260608101600283106158ab576158ab6154dc565b826040830152949350505050565b6000602082840312156158cb57600080fd5b8151613874816153f4565b60208082526028908201527f53656375726974697a6174696f6e506f6f6c3a20417373657420646f6573206e6040820152671bdd08195e1a5cdd60c21b606082015260800190565b60006020828403121561593057600080fd5b815161387481615474565b6020808252602b908201527f496e697469616c697a61626c653a20636f6e7472616374206973206e6f74206960408201526a6e697469616c697a696e6760a81b606082015260800190565b60006020828403121561599857600080fd5b815161387481615038565b60005b838110156159be5781810151838201526020016159a6565b50506000910152565b7f416363657373436f6e74726f6c3a206163636f756e74200000000000000000008152600083516159ff8160178501602088016159a3565b7001034b99036b4b9b9b4b733903937b6329607d1b6017918401918201528351615a308160288401602088016159a3565b01602801949350505050565b6020815260008251806020840152615a5b8160408501602087016159a3565b601f01601f19169190910160400192915050565b634e487b7160e01b600052603160045260246000fd5b600081615a9457615a946155e6565b50600019019056feb19546dff01e856fb3f010c267a7b1c60363cf8a4664e21cc89c26224620214e3e9c05fb0f9da4414e033bb9bf190a6e2072adf7e3077394fce683220513b8d759abfac6520ec36a6556b2a4dd949cc40007459bcd5cd2507f1e5cc77b6bc97ea2646970667358221220e027aea7276d4a104a75c55983b4993d0982c2a814eae8937ab781cd566a77ee64736f6c63430008130033"
}