{
  "address": "0x6D4AB593EAc19AbE2221EfFA6322945255aa219D",
  "abi": [
    {
      "inputs": [],
      "stateMutability": "nonpayable",
      "type": "constructor"
    },
    {
      "anonymous": false,
      "inputs": [
        {
          "indexed": false,
          "internalType": "address",
          "name": "token",
          "type": "address"
        }
      ],
      "name": "AddTokenAssetAddress",
      "type": "event"
    },
    {
      "anonymous": false,
      "inputs": [
        {
          "indexed": false,
          "internalType": "address",
          "name": "from",
          "type": "address"
        },
        {
          "indexed": false,
          "internalType": "uint256",
          "name": "value",
          "type": "uint256"
        }
      ],
      "name": "CollectAsset",
      "type": "event"
    },
    {
      "anonymous": false,
      "inputs": [
        {
          "indexed": false,
          "internalType": "uint8",
          "name": "version",
          "type": "uint8"
        }
      ],
      "name": "Initialized",
      "type": "event"
    },
    {
      "anonymous": false,
      "inputs": [
        {
          "indexed": false,
          "internalType": "address",
          "name": "token",
          "type": "address"
        },
        {
          "indexed": false,
          "internalType": "uint256",
          "name": "tokenId",
          "type": "uint256"
        }
      ],
      "name": "InsertNFTAsset",
      "type": "event"
    },
    {
      "anonymous": false,
      "inputs": [
        {
          "indexed": false,
          "internalType": "address",
          "name": "account",
          "type": "address"
        }
      ],
      "name": "Paused",
      "type": "event"
    },
    {
      "anonymous": false,
      "inputs": [
        {
          "indexed": false,
          "internalType": "address",
          "name": "token",
          "type": "address"
        },
        {
          "indexed": false,
          "internalType": "uint256",
          "name": "tokenId",
          "type": "uint256"
        }
      ],
      "name": "RemoveNFTAsset",
      "type": "event"
    },
    {
      "anonymous": false,
      "inputs": [
        {
          "indexed": true,
          "internalType": "bytes32",
          "name": "role",
          "type": "bytes32"
        },
        {
          "indexed": true,
          "internalType": "bytes32",
          "name": "previousAdminRole",
          "type": "bytes32"
        },
        {
          "indexed": true,
          "internalType": "bytes32",
          "name": "newAdminRole",
          "type": "bytes32"
        }
      ],
      "name": "RoleAdminChanged",
      "type": "event"
    },
    {
      "anonymous": false,
      "inputs": [
        {
          "indexed": true,
          "internalType": "bytes32",
          "name": "role",
          "type": "bytes32"
        },
        {
          "indexed": true,
          "internalType": "address",
          "name": "account",
          "type": "address"
        },
        {
          "indexed": true,
          "internalType": "address",
          "name": "sender",
          "type": "address"
        }
      ],
      "name": "RoleGranted",
      "type": "event"
    },
    {
      "anonymous": false,
      "inputs": [
        {
          "indexed": true,
          "internalType": "bytes32",
          "name": "role",
          "type": "bytes32"
        },
        {
          "indexed": true,
          "internalType": "address",
          "name": "account",
          "type": "address"
        },
        {
          "indexed": true,
          "internalType": "address",
          "name": "sender",
          "type": "address"
        }
      ],
      "name": "RoleRevoked",
      "type": "event"
    },
    {
      "anonymous": false,
      "inputs": [
        {
          "indexed": false,
          "internalType": "address",
          "name": "account",
          "type": "address"
        }
      ],
      "name": "Unpaused",
      "type": "event"
    },
    {
      "anonymous": false,
      "inputs": [
        {
          "indexed": false,
          "internalType": "uint32",
          "name": "_interestRateSOT",
          "type": "uint32"
        }
      ],
      "name": "UpdateInterestRateSOT",
      "type": "event"
    },
    {
      "anonymous": false,
      "inputs": [
        {
          "indexed": true,
          "internalType": "address",
          "name": "tokenAddress",
          "type": "address"
        },
        {
          "indexed": true,
          "internalType": "address",
          "name": "investor",
          "type": "address"
        },
        {
          "indexed": false,
          "internalType": "uint256",
          "name": "lockedDistributeBalance",
          "type": "uint256"
        },
        {
          "indexed": false,
          "internalType": "uint256",
          "name": "lockedRedeemBalances",
          "type": "uint256"
        },
        {
          "indexed": false,
          "internalType": "uint256",
          "name": "totalLockedRedeemBalances",
          "type": "uint256"
        },
        {
          "indexed": false,
          "internalType": "uint256",
          "name": "totalLockedDistributeBalance",
          "type": "uint256"
        }
      ],
      "name": "UpdateLockedDistributeBalance",
      "type": "event"
    },
    {
      "anonymous": false,
      "inputs": [
        {
          "indexed": false,
          "internalType": "uint256",
          "name": "newTimestamp",
          "type": "uint256"
        }
      ],
      "name": "UpdateOpeningBlockTimestamp",
      "type": "event"
    },
    {
      "anonymous": false,
      "inputs": [
        {
          "indexed": true,
          "internalType": "address",
          "name": "user",
          "type": "address"
        },
        {
          "indexed": false,
          "internalType": "uint256",
          "name": "currencyAmount",
          "type": "uint256"
        }
      ],
      "name": "UpdatePaidPrincipalAmountSOTByInvestor",
      "type": "event"
    },
    {
      "anonymous": false,
      "inputs": [
        {
          "indexed": false,
          "internalType": "uint256",
          "name": "currencyAmount",
          "type": "uint256"
        }
      ],
      "name": "UpdateReserve",
      "type": "event"
    },
    {
      "anonymous": false,
      "inputs": [
        {
          "indexed": false,
          "internalType": "address",
          "name": "tge",
          "type": "address"
        },
        {
          "indexed": false,
          "internalType": "address",
          "name": "token",
          "type": "address"
        },
        {
          "indexed": false,
          "internalType": "enum Configuration.NOTE_TOKEN_TYPE",
          "name": "noteType",
          "type": "uint8"
        }
      ],
      "name": "UpdateTGEAddress",
      "type": "event"
    },
    {
      "anonymous": false,
      "inputs": [
        {
          "indexed": false,
          "internalType": "address",
          "name": "originatorAddress",
          "type": "address"
        },
        {
          "indexed": false,
          "internalType": "uint256",
          "name": "amount",
          "type": "uint256"
        }
      ],
      "name": "Withdraw",
      "type": "event"
    },
    {
      "inputs": [],
      "name": "DEFAULT_ADMIN_ROLE",
      "outputs": [
        {
          "internalType": "bytes32",
          "name": "",
          "type": "bytes32"
        }
      ],
      "stateMutability": "view",
      "type": "function"
    },
    {
      "inputs": [],
      "name": "ORIGINATOR_ROLE",
      "outputs": [
        {
          "internalType": "bytes32",
          "name": "",
          "type": "bytes32"
        }
      ],
      "stateMutability": "view",
      "type": "function"
    },
    {
      "inputs": [],
      "name": "OWNER_ROLE",
      "outputs": [
        {
          "internalType": "bytes32",
          "name": "",
          "type": "bytes32"
        }
      ],
      "stateMutability": "view",
      "type": "function"
    },
    {
      "inputs": [],
      "name": "RATE_SCALING_FACTOR",
      "outputs": [
        {
          "internalType": "uint256",
          "name": "",
          "type": "uint256"
        }
      ],
      "stateMutability": "view",
      "type": "function"
    },
    {
      "inputs": [],
      "name": "amountOwedToOriginator",
      "outputs": [
        {
          "internalType": "uint256",
          "name": "",
          "type": "uint256"
        }
      ],
      "stateMutability": "view",
      "type": "function"
    },
    {
      "inputs": [],
      "name": "checkMinFirstLost",
      "outputs": [
        {
          "internalType": "bool",
          "name": "",
          "type": "bool"
        }
      ],
      "stateMutability": "view",
      "type": "function"
    },
    {
      "inputs": [
        {
          "internalType": "address",
          "name": "recipientWallet",
          "type": "address"
        }
      ],
      "name": "claimCashRemain",
      "outputs": [],
      "stateMutability": "nonpayable",
      "type": "function"
    },
    {
      "inputs": [
        {
          "internalType": "address",
          "name": "tokenAddress",
          "type": "address"
        },
        {
          "internalType": "address",
          "name": "from",
          "type": "address"
        },
        {
          "internalType": "uint256[]",
          "name": "tokenIds",
          "type": "uint256[]"
        }
      ],
      "name": "collectAssets",
      "outputs": [],
      "stateMutability": "nonpayable",
      "type": "function"
    },
    {
      "inputs": [
        {
          "internalType": "address[]",
          "name": "tokenAddresses",
          "type": "address[]"
        },
        {
          "internalType": "address[]",
          "name": "senders",
          "type": "address[]"
        },
        {
          "internalType": "uint256[]",
          "name": "amounts",
          "type": "uint256[]"
        }
      ],
      "name": "collectERC20Assets",
      "outputs": [],
      "stateMutability": "nonpayable",
      "type": "function"
    },
    {
      "inputs": [
        {
          "internalType": "address",
          "name": "tokenAddress",
          "type": "address"
        },
        {
          "internalType": "address",
          "name": "investor",
          "type": "address"
        },
        {
          "internalType": "uint256",
          "name": "currency",
          "type": "uint256"
        },
        {
          "internalType": "uint256",
          "name": "token",
          "type": "uint256"
        }
      ],
      "name": "decreaseLockedDistributeBalance",
      "outputs": [],
      "stateMutability": "nonpayable",
      "type": "function"
    },
    {
      "inputs": [
        {
          "internalType": "uint256",
          "name": "currencyAmount",
          "type": "uint256"
        }
      ],
      "name": "decreaseReserve",
      "outputs": [],
      "stateMutability": "nonpayable",
      "type": "function"
    },
    {
      "inputs": [
        {
          "internalType": "address",
          "name": "",
          "type": "address"
        }
      ],
      "name": "existsTokenAssetAddress",
      "outputs": [
        {
          "internalType": "bool",
          "name": "",
          "type": "bool"
        }
      ],
      "stateMutability": "view",
      "type": "function"
    },
    {
      "inputs": [
        {
          "internalType": "address",
          "name": "tokenAddress",
          "type": "address"
        },
        {
          "internalType": "address",
          "name": "toPoolAddress",
          "type": "address"
        },
        {
          "internalType": "uint256[]",
          "name": "tokenIds",
          "type": "uint256[]"
        }
      ],
      "name": "exportAssets",
      "outputs": [],
      "stateMutability": "nonpayable",
      "type": "function"
    },
    {
      "inputs": [],
      "name": "firstAssetTimestamp",
      "outputs": [
        {
          "internalType": "uint64",
          "name": "",
          "type": "uint64"
        }
      ],
      "stateMutability": "view",
      "type": "function"
    },
    {
      "inputs": [],
      "name": "getInitializedVersion",
      "outputs": [
        {
          "internalType": "uint256",
          "name": "",
          "type": "uint256"
        }
      ],
      "stateMutability": "view",
      "type": "function"
    },
    {
      "inputs": [],
      "name": "getNFTAssetsLength",
      "outputs": [
        {
          "internalType": "uint256",
          "name": "",
          "type": "uint256"
        }
      ],
      "stateMutability": "view",
      "type": "function"
    },
    {
      "inputs": [],
      "name": "getRiskScoresLength",
      "outputs": [
        {
          "internalType": "uint256",
          "name": "",
          "type": "uint256"
        }
      ],
      "stateMutability": "view",
      "type": "function"
    },
    {
      "inputs": [
        {
          "internalType": "bytes32",
          "name": "role",
          "type": "bytes32"
        }
      ],
      "name": "getRoleAdmin",
      "outputs": [
        {
          "internalType": "bytes32",
          "name": "",
          "type": "bytes32"
        }
      ],
      "stateMutability": "view",
      "type": "function"
    },
    {
      "inputs": [
        {
          "internalType": "bytes32",
          "name": "role",
          "type": "bytes32"
        },
        {
          "internalType": "uint256",
          "name": "index",
          "type": "uint256"
        }
      ],
      "name": "getRoleMember",
      "outputs": [
        {
          "internalType": "address",
          "name": "",
          "type": "address"
        }
      ],
      "stateMutability": "view",
      "type": "function"
    },
    {
      "inputs": [
        {
          "internalType": "bytes32",
          "name": "role",
          "type": "bytes32"
        }
      ],
      "name": "getRoleMemberCount",
      "outputs": [
        {
          "internalType": "uint256",
          "name": "",
          "type": "uint256"
        }
      ],
      "stateMutability": "view",
      "type": "function"
    },
    {
      "inputs": [],
      "name": "getTokenAssetAddresses",
      "outputs": [
        {
          "internalType": "address[]",
          "name": "",
          "type": "address[]"
        }
      ],
      "stateMutability": "view",
      "type": "function"
    },
    {
      "inputs": [],
      "name": "getTokenAssetAddressesLength",
      "outputs": [
        {
          "internalType": "uint256",
          "name": "",
          "type": "uint256"
        }
      ],
      "stateMutability": "view",
      "type": "function"
    },
    {
      "inputs": [
        {
          "internalType": "bytes32",
          "name": "role",
          "type": "bytes32"
        },
        {
          "internalType": "address",
          "name": "account",
          "type": "address"
        }
      ],
      "name": "grantRole",
      "outputs": [],
      "stateMutability": "nonpayable",
      "type": "function"
    },
    {
      "inputs": [],
      "name": "hasFinishedRedemption",
      "outputs": [
        {
          "internalType": "bool",
          "name": "",
          "type": "bool"
        }
      ],
      "stateMutability": "view",
      "type": "function"
    },
    {
      "inputs": [
        {
          "internalType": "bytes32",
          "name": "role",
          "type": "bytes32"
        },
        {
          "internalType": "address",
          "name": "account",
          "type": "address"
        }
      ],
      "name": "hasRole",
      "outputs": [
        {
          "internalType": "bool",
          "name": "",
          "type": "bool"
        }
      ],
      "stateMutability": "view",
      "type": "function"
    },
    {
      "inputs": [
        {
          "internalType": "address",
          "name": "tokenAddress",
          "type": "address"
        },
        {
          "internalType": "address",
          "name": "investor",
          "type": "address"
        },
        {
          "internalType": "uint256",
          "name": "currency",
          "type": "uint256"
        },
        {
          "internalType": "uint256",
          "name": "token",
          "type": "uint256"
        }
      ],
      "name": "increaseLockedDistributeBalance",
      "outputs": [],
      "stateMutability": "nonpayable",
      "type": "function"
    },
    {
      "inputs": [
        {
          "internalType": "uint256",
          "name": "currencyAmount",
          "type": "uint256"
        }
      ],
      "name": "increaseReserve",
      "outputs": [],
      "stateMutability": "nonpayable",
      "type": "function"
    },
    {
      "inputs": [
        {
          "internalType": "uint256",
          "name": "amount",
          "type": "uint256"
        }
      ],
      "name": "increaseTotalAssetRepaidCurrency",
      "outputs": [],
      "stateMutability": "nonpayable",
      "type": "function"
    },
    {
      "inputs": [
        {
          "internalType": "contract Registry",
          "name": "_registry",
          "type": "address"
        },
        {
          "internalType": "bytes",
          "name": "params",
          "type": "bytes"
        }
      ],
      "name": "initialize",
      "outputs": [],
      "stateMutability": "nonpayable",
      "type": "function"
    },
    {
      "inputs": [
        {
          "internalType": "address",
          "name": "_tgeAddress",
          "type": "address"
        },
        {
          "internalType": "address",
          "name": "_tokenAddress",
          "type": "address"
        },
        {
          "internalType": "enum Configuration.NOTE_TOKEN_TYPE",
          "name": "_noteType",
          "type": "uint8"
        }
      ],
      "name": "injectTGEAddress",
      "outputs": [],
      "stateMutability": "nonpayable",
      "type": "function"
    },
    {
      "inputs": [],
      "name": "interestRateSOT",
      "outputs": [
        {
          "internalType": "uint32",
          "name": "",
          "type": "uint32"
        }
      ],
      "stateMutability": "view",
      "type": "function"
    },
    {
      "inputs": [],
      "name": "isAdmin",
      "outputs": [
        {
          "internalType": "bool",
          "name": "",
          "type": "bool"
        }
      ],
      "stateMutability": "view",
      "type": "function"
    },
    {
      "inputs": [],
      "name": "isClosedState",
      "outputs": [
        {
          "internalType": "bool",
          "name": "",
          "type": "bool"
        }
      ],
      "stateMutability": "view",
      "type": "function"
    },
    {
      "inputs": [],
      "name": "jotToken",
      "outputs": [
        {
          "internalType": "address",
          "name": "",
          "type": "address"
        }
      ],
      "stateMutability": "view",
      "type": "function"
    },
    {
      "inputs": [
        {
          "internalType": "address",
          "name": "",
          "type": "address"
        }
      ],
      "name": "lastRepayTimestampSOT",
      "outputs": [
        {
          "internalType": "uint256",
          "name": "",
          "type": "uint256"
        }
      ],
      "stateMutability": "view",
      "type": "function"
    },
    {
      "inputs": [
        {
          "internalType": "address",
          "name": "",
          "type": "address"
        },
        {
          "internalType": "address",
          "name": "",
          "type": "address"
        }
      ],
      "name": "lockedDistributeBalances",
      "outputs": [
        {
          "internalType": "uint256",
          "name": "",
          "type": "uint256"
        }
      ],
      "stateMutability": "view",
      "type": "function"
    },
    {
      "inputs": [
        {
          "internalType": "address",
          "name": "",
          "type": "address"
        },
        {
          "internalType": "address",
          "name": "",
          "type": "address"
        }
      ],
      "name": "lockedRedeemBalances",
      "outputs": [
        {
          "internalType": "uint256",
          "name": "",
          "type": "uint256"
        }
      ],
      "stateMutability": "view",
      "type": "function"
    },
    {
      "inputs": [],
      "name": "minFirstLossCushion",
      "outputs": [
        {
          "internalType": "uint32",
          "name": "",
          "type": "uint32"
        }
      ],
      "stateMutability": "view",
      "type": "function"
    },
    {
      "inputs": [
        {
          "internalType": "uint256",
          "name": "",
          "type": "uint256"
        }
      ],
      "name": "nftAssets",
      "outputs": [
        {
          "internalType": "address",
          "name": "tokenAddress",
          "type": "address"
        },
        {
          "internalType": "uint256",
          "name": "tokenId",
          "type": "uint256"
        }
      ],
      "stateMutability": "view",
      "type": "function"
    },
    {
      "inputs": [
        {
          "internalType": "address",
          "name": "",
          "type": "address"
        },
        {
          "internalType": "address",
          "name": "",
          "type": "address"
        },
        {
          "internalType": "uint256",
          "name": "tokenId",
          "type": "uint256"
        },
        {
          "internalType": "bytes",
          "name": "",
          "type": "bytes"
        }
      ],
      "name": "onERC721Received",
      "outputs": [
        {
          "internalType": "bytes4",
          "name": "",
          "type": "bytes4"
        }
      ],
      "stateMutability": "nonpayable",
      "type": "function"
    },
    {
      "inputs": [],
      "name": "openingBlockTimestamp",
      "outputs": [
        {
          "internalType": "uint64",
          "name": "",
          "type": "uint64"
        }
      ],
      "stateMutability": "view",
      "type": "function"
    },
    {
      "inputs": [
        {
          "internalType": "address",
          "name": "",
          "type": "address"
        }
      ],
      "name": "paidInterestAmountSOT",
      "outputs": [
        {
          "internalType": "uint256",
          "name": "",
          "type": "uint256"
        }
      ],
      "stateMutability": "view",
      "type": "function"
    },
    {
      "inputs": [],
      "name": "paidPrincipalAmountSOT",
      "outputs": [
        {
          "internalType": "uint256",
          "name": "",
          "type": "uint256"
        }
      ],
      "stateMutability": "view",
      "type": "function"
    },
    {
      "inputs": [
        {
          "internalType": "address",
          "name": "",
          "type": "address"
        }
      ],
      "name": "paidPrincipalAmountSOTByInvestor",
      "outputs": [
        {
          "internalType": "uint256",
          "name": "",
          "type": "uint256"
        }
      ],
      "stateMutability": "view",
      "type": "function"
    },
    {
      "inputs": [],
      "name": "pause",
      "outputs": [],
      "stateMutability": "nonpayable",
      "type": "function"
    },
    {
      "inputs": [],
      "name": "paused",
      "outputs": [
        {
          "internalType": "bool",
          "name": "",
          "type": "bool"
        }
      ],
      "stateMutability": "view",
      "type": "function"
    },
    {
      "inputs": [],
      "name": "pot",
      "outputs": [
        {
          "internalType": "address",
          "name": "",
          "type": "address"
        }
      ],
      "stateMutability": "view",
      "type": "function"
    },
    {
      "inputs": [],
      "name": "principalAmountSOT",
      "outputs": [
        {
          "internalType": "uint256",
          "name": "",
          "type": "uint256"
        }
      ],
      "stateMutability": "view",
      "type": "function"
    },
    {
      "inputs": [
        {
          "internalType": "address",
          "name": "usr",
          "type": "address"
        },
        {
          "internalType": "address",
          "name": "notesToken",
          "type": "address"
        },
        {
          "internalType": "uint256",
          "name": "currencyAmount",
          "type": "uint256"
        },
        {
          "internalType": "uint256",
          "name": "tokenAmount",
          "type": "uint256"
        }
      ],
      "name": "redeem",
      "outputs": [],
      "stateMutability": "nonpayable",
      "type": "function"
    },
    {
      "inputs": [],
      "name": "registry",
      "outputs": [
        {
          "internalType": "contract Registry",
          "name": "",
          "type": "address"
        }
      ],
      "stateMutability": "view",
      "type": "function"
    },
    {
      "inputs": [
        {
          "internalType": "bytes32",
          "name": "role",
          "type": "bytes32"
        },
        {
          "internalType": "address",
          "name": "account",
          "type": "address"
        }
      ],
      "name": "renounceRole",
      "outputs": [],
      "stateMutability": "nonpayable",
      "type": "function"
    },
    {
      "inputs": [],
      "name": "reserve",
      "outputs": [
        {
          "internalType": "uint256",
          "name": "",
          "type": "uint256"
        }
      ],
      "stateMutability": "view",
      "type": "function"
    },
    {
      "inputs": [
        {
          "internalType": "bytes32",
          "name": "role",
          "type": "bytes32"
        },
        {
          "internalType": "address",
          "name": "account",
          "type": "address"
        }
      ],
      "name": "revokeRole",
      "outputs": [],
      "stateMutability": "nonpayable",
      "type": "function"
    },
    {
      "inputs": [
        {
          "internalType": "uint256",
          "name": "",
          "type": "uint256"
        }
      ],
      "name": "riskScores",
      "outputs": [
        {
          "internalType": "uint32",
          "name": "daysPastDue",
          "type": "uint32"
        },
        {
          "internalType": "uint32",
          "name": "advanceRate",
          "type": "uint32"
        },
        {
          "internalType": "uint32",
          "name": "penaltyRate",
          "type": "uint32"
        },
        {
          "internalType": "uint32",
          "name": "interestRate",
          "type": "uint32"
        },
        {
          "internalType": "uint32",
          "name": "probabilityOfDefault",
          "type": "uint32"
        },
        {
          "internalType": "uint32",
          "name": "lossGivenDefault",
          "type": "uint32"
        },
        {
          "internalType": "uint32",
          "name": "gracePeriod",
          "type": "uint32"
        },
        {
          "internalType": "uint32",
          "name": "collectionPeriod",
          "type": "uint32"
        },
        {
          "internalType": "uint32",
          "name": "writeOffAfterGracePeriod",
          "type": "uint32"
        },
        {
          "internalType": "uint32",
          "name": "writeOffAfterCollectionPeriod",
          "type": "uint32"
        },
        {
          "internalType": "uint32",
          "name": "discountRate",
          "type": "uint32"
        }
      ],
      "stateMutability": "view",
      "type": "function"
    },
    {
      "inputs": [],
      "name": "secondTGEAddress",
      "outputs": [
        {
          "internalType": "address",
          "name": "",
          "type": "address"
        }
      ],
      "stateMutability": "view",
      "type": "function"
    },
    {
      "inputs": [
        {
          "internalType": "uint32",
          "name": "_interestRateSOT",
          "type": "uint32"
        }
      ],
      "name": "setInterestRateForSOT",
      "outputs": [],
      "stateMutability": "nonpayable",
      "type": "function"
    },
    {
      "inputs": [
        {
          "internalType": "address",
          "name": "_pot",
          "type": "address"
        }
      ],
      "name": "setPot",
      "outputs": [],
      "stateMutability": "nonpayable",
      "type": "function"
    },
    {
      "inputs": [
        {
          "internalType": "bytes32",
          "name": "role",
          "type": "bytes32"
        },
        {
          "internalType": "bytes32",
          "name": "adminRole",
          "type": "bytes32"
        }
      ],
      "name": "setRoleAdmin",
      "outputs": [],
      "stateMutability": "nonpayable",
      "type": "function"
    },
    {
      "inputs": [],
      "name": "setUpOpeningBlockTimestamp",
      "outputs": [],
      "stateMutability": "nonpayable",
      "type": "function"
    },
    {
      "inputs": [
        {
          "internalType": "uint32[]",
          "name": "_daysPastDues",
          "type": "uint32[]"
        },
        {
          "internalType": "uint32[]",
          "name": "_ratesAndDefaults",
          "type": "uint32[]"
        },
        {
          "internalType": "uint32[]",
          "name": "_periodsAndWriteOffs",
          "type": "uint32[]"
        }
      ],
      "name": "setupRiskScores",
      "outputs": [],
      "stateMutability": "nonpayable",
      "type": "function"
    },
    {
      "inputs": [],
      "name": "sotToken",
      "outputs": [
        {
          "internalType": "address",
          "name": "",
          "type": "address"
        }
      ],
      "stateMutability": "view",
      "type": "function"
    },
    {
      "inputs": [
        {
          "internalType": "uint64",
          "name": "_termLengthInSeconds",
          "type": "uint64"
        },
        {
          "internalType": "uint256",
          "name": "_principalAmountForSOT",
          "type": "uint256"
        },
        {
          "internalType": "uint32",
          "name": "_interestRateForSOT",
          "type": "uint32"
        },
        {
          "internalType": "uint64",
          "name": "_timeStartEarningInterest",
          "type": "uint64"
        }
      ],
      "name": "startCycle",
      "outputs": [],
      "stateMutability": "nonpayable",
      "type": "function"
    },
    {
      "inputs": [],
      "name": "state",
      "outputs": [
        {
          "internalType": "enum ISecuritizationPool.CycleState",
          "name": "",
          "type": "uint8"
        }
      ],
      "stateMutability": "view",
      "type": "function"
    },
    {
      "inputs": [
        {
          "internalType": "bytes4",
          "name": "interfaceId",
          "type": "bytes4"
        }
      ],
      "name": "supportsInterface",
      "outputs": [
        {
          "internalType": "bool",
          "name": "",
          "type": "bool"
        }
      ],
      "stateMutability": "view",
      "type": "function"
    },
    {
      "inputs": [],
      "name": "termLengthInSeconds",
      "outputs": [
        {
          "internalType": "uint64",
          "name": "",
          "type": "uint64"
        }
      ],
      "stateMutability": "view",
      "type": "function"
    },
    {
      "inputs": [],
      "name": "tgeAddress",
      "outputs": [
        {
          "internalType": "address",
          "name": "",
          "type": "address"
        }
      ],
      "stateMutability": "view",
      "type": "function"
    },
    {
      "inputs": [
        {
          "internalType": "uint256",
          "name": "",
          "type": "uint256"
        }
      ],
      "name": "tokenAssetAddresses",
      "outputs": [
        {
          "internalType": "address",
          "name": "",
          "type": "address"
        }
      ],
      "stateMutability": "view",
      "type": "function"
    },
    {
      "inputs": [],
      "name": "totalAssetRepaidCurrency",
      "outputs": [
        {
          "internalType": "uint256",
          "name": "",
          "type": "uint256"
        }
      ],
      "stateMutability": "view",
      "type": "function"
    },
    {
      "inputs": [],
      "name": "totalLockedDistributeBalance",
      "outputs": [
        {
          "internalType": "uint256",
          "name": "",
          "type": "uint256"
        }
      ],
      "stateMutability": "view",
      "type": "function"
    },
    {
      "inputs": [
        {
          "internalType": "address",
          "name": "",
          "type": "address"
        }
      ],
      "name": "totalLockedRedeemBalances",
      "outputs": [
        {
          "internalType": "uint256",
          "name": "",
          "type": "uint256"
        }
      ],
      "stateMutability": "view",
      "type": "function"
    },
    {
      "inputs": [],
      "name": "totalRedeemedCurrency",
      "outputs": [
        {
          "internalType": "uint256",
          "name": "",
          "type": "uint256"
        }
      ],
      "stateMutability": "view",
      "type": "function"
    },
    {
      "inputs": [],
      "name": "underlyingCurrency",
      "outputs": [
        {
          "internalType": "address",
          "name": "",
          "type": "address"
        }
      ],
      "stateMutability": "view",
      "type": "function"
    },
    {
      "inputs": [],
      "name": "unpause",
      "outputs": [],
      "stateMutability": "nonpayable",
      "type": "function"
    },
    {
      "inputs": [],
      "name": "validatorRequired",
      "outputs": [
        {
          "internalType": "bool",
          "name": "",
          "type": "bool"
        }
      ],
      "stateMutability": "view",
      "type": "function"
    },
    {
      "inputs": [
        {
          "internalType": "uint256",
          "name": "amount",
          "type": "uint256"
        }
      ],
      "name": "withdraw",
      "outputs": [],
      "stateMutability": "nonpayable",
      "type": "function"
    },
    {
      "inputs": [
        {
          "internalType": "address[]",
          "name": "tokenAddresses",
          "type": "address[]"
        },
        {
          "internalType": "uint256[]",
          "name": "tokenIds",
          "type": "uint256[]"
        },
        {
          "internalType": "address[]",
          "name": "recipients",
          "type": "address[]"
        }
      ],
      "name": "withdrawAssets",
      "outputs": [],
      "stateMutability": "nonpayable",
      "type": "function"
    },
    {
      "inputs": [
        {
          "internalType": "address[]",
          "name": "tokenAddresses",
          "type": "address[]"
        },
        {
          "internalType": "address[]",
          "name": "recipients",
          "type": "address[]"
        },
        {
          "internalType": "uint256[]",
          "name": "amounts",
          "type": "uint256[]"
        }
      ],
      "name": "withdrawERC20Assets",
      "outputs": [],
      "stateMutability": "nonpayable",
      "type": "function"
    }
  ],
  "transactionHash": "0x4e727fada7952c95b0df96322b4e8243240faf02140766ef5622158dcb53d500",
  "args": [],
  "numDeployments": 10,
  "solcInputHash": "171de3b43b6f2d4201c93580fddd4c03",
  "bytecode": "0x60806040523480156200001157600080fd5b506200001c62000022565b620000e3565b600054610100900460ff16156200008f5760405162461bcd60e51b815260206004820152602760248201527f496e697469616c697a61626c653a20636f6e747261637420697320696e697469604482015266616c697a696e6760c81b606482015260840160405180910390fd5b60005460ff90811614620000e1576000805460ff191660ff9081179091556040519081527f7f26b83ff96e1f2b6a682f133852f6798a09c465da95921460cefb38474024989060200160405180910390a15b565b615c3b80620000f36000396000f3fe608060405234801561001057600080fd5b506004361061045f5760003560e01c806370d2f3991161024c578063b6db75a011610146578063d2fad481116100c3578063e2eda54111610087578063e2eda54114610a99578063e58378bb14610aa2578063ed34889514610ab7578063fa3908b114610aca578063febd601814610afc57600080fd5b8063d2fad48114610a36578063d547741f14610a57578063d8ba6f4414610a6a578063dec2858714610a7d578063df076fe014610a9057600080fd5b8063ca15c8731161010a578063ca15c873146109f2578063cb15a13414610a05578063cd3293de14610a0f578063cee7b6a114610a19578063d1f5789414610a2357600080fd5b8063b6db75a014610998578063b8cd9b00146109a0578063bff8a36d146109aa578063c19d93fb146109bd578063c6cb67a6146109df57600080fd5b806390071cf3116101d4578063a217fddf11610198578063a217fddf1461093c578063a6c5954714610944578063ac2a6a3814610957578063ade0ea6d14610983578063b3c650151461098d57600080fd5b806390071cf3146108db5780639010d07c146108ee578063901617051461090157806391d1485414610914578063a125142b1461092757600080fd5b80637da220e61161021b5780637da220e6146108715780637dfbdae21461089d578063815d6ddf146108a75780638456cb59146108ba5780638fd6b71e146108c257600080fd5b806370d2f3991461082c57806375b1bce71461084d57806378d29d55146108555780637b1039991461085d57600080fd5b8063357a03021161035d5780634b552a4a116102e55780635c975abb116102a95780635c975abb146107625780636421cede1461076d578063644b4ead146107825780636456a3ee146107fd5780636ee44c4c1461081157600080fd5b80634b552a4a146106f15780634ba2363a146107045780634bb48586146107185780634be474181461073c5780635b8e62e71461074f57600080fd5b80633d79ab031161032c5780633d79ab031461066c5780633f4ba83a1461069f5780633ffebce4146106a75780634020c8d1146106c8578063477035d1146106dd57600080fd5b8063357a03021461062057806336568abe1461063357806338d9feac146106465780633bf4045f1461065957600080fd5b806320585408116103eb5780632b71b450116103af5780632b71b450146105b75780632bb14ff0146105cb5780632bcc3682146105f15780632e1a7d4d146105fa5780632f2ff15d1461060d57600080fd5b8063205854081461055b578063206c176514610565578063221dc5931461056d578063247fc36314610581578063248a9ca31461059457600080fd5b8063150b7a0211610432578063150b7a02146104d55780631ba6e957146105015780631bf51b70146105225780631e4e0091146105355780631fbf7c3e1461054857600080fd5b806301ffc9a71461046457806306aac7ec1461048c5780630b7792f1146104965780630bc6bffc146104a9575b600080fd5b610477610472366004615073565b610b10565b60405190151581526020015b60405180910390f35b610494610b3b565b005b610174545b604051908152602001610483565b610164546104bd906001600160a01b031681565b6040516001600160a01b039091168152602001610483565b6104e86104e3366004615154565b610bc2565b6040516001600160e01b03199091168152602001610483565b61049b61050f3660046151bf565b61016e6020526000908152604090205481565b610494610530366004615227565b610d3b565b6104946105433660046152c0565b611495565b6104946105563660046152e2565b6114af565b61049b6101685481565b6104776115a4565b610161546104bd906001600160a01b031681565b61049461058f366004615227565b611644565b61049b6105a23660046152e2565b600090815260c9602052604090206001015490565b610163546104bd906001600160a01b031681565b610172546105dc9063ffffffff1681565b60405163ffffffff9091168152602001610483565b6101735461049b565b6104946106083660046152e2565b6119e9565b61049461061b3660046152fb565b611b3d565b61049461062e36600461532b565b611b62565b6104946106413660046152fb565b611d2d565b610494610654366004615371565b611dab565b610494610667366004615227565b612019565b6101645461068790600160a81b90046001600160401b031681565b6040516001600160401b039091168152602001610483565b61049461231e565b61049b6106b53660046151bf565b6101776020526000908152604090205481565b6101785461047790600160a01b900460ff1681565b61016554610687906001600160401b031681565b6104946106ff3660046153d5565b612402565b610178546104bd906001600160a01b031681565b6104776107263660046151bf565b6101766020526000908152604090205460ff1681565b61049461074a36600461532b565b612668565b61049461075d36600461532b565b612952565b60335460ff16610477565b610775612a8f565b6040516104839190615424565b6107956107903660046152e2565b612af2565b6040805163ffffffff9c8d1681529a8c1660208c0152988b16988a01989098529589166060890152938816608088015291871660a0870152861660c0860152851660e08501528416610100840152831661012083015290911661014082015261016001610483565b610160546104bd906001600160a01b031681565b6101655461068790600160401b90046001600160401b031681565b61049b61083a3660046151bf565b61016a6020526000908152604090205481565b610477612b80565b610477612d4f565b61015f546104bd906001600160a01b031681565b61049b61087f366004615471565b61016b60209081526000928352604080842090915290825290205481565b61049b6101695481565b6104946108b53660046154c6565b612d78565b610494613225565b610172546105dc90640100000000900463ffffffff1681565b6104946108e93660046151bf565b613309565b6104bd6108fc3660046152c0565b613494565b61049461090f3660046152e2565b6134b3565b6104776109223660046152fb565b6135a0565b61049b600080516020615be683398151915281565b61049b600081565b610494610952366004615227565b6135cb565b61049b610965366004615471565b61016c60209081526000928352604080842090915290825290205481565b61049b6101715481565b60005460ff1661049b565b610477613799565b61049b6101705481565b6104946109b83660046152e2565b6137b8565b610164546109d290600160a01b900460ff1681565b604051610483919061552f565b6104946109ed366004615549565b613846565b61049b610a003660046152e2565b613914565b61049b6101675481565b61049b6101665481565b61049b61016d5481565b610494610a31366004615566565b61392b565b61049b610a443660046151bf565b61016f6020526000908152604090205481565b610494610a653660046152fb565b613d40565b6104bd610a783660046152e2565b613d65565b610494610a8b366004615371565b613d90565b6101755461049b565b61049b61271081565b61049b600080516020615ba683398151915281565b610494610ac53660046151bf565b613f8a565b610add610ad83660046152e2565b6142b1565b604080516001600160a01b039093168352602083019190915201610483565b610162546104bd906001600160a01b031681565b6000634f6c902960e01b6001600160e01b031983161480610b355750610b35826142ea565b92915050565b610b4361430f565b610160546001600160a01b0316336001600160a01b031614610bb85760405162461bcd60e51b8152602060048201526024808201527f53656375726974697a6174696f6e506f6f6c3a204f6e6c7920746765206164646044820152637265737360e01b60648201526084015b60405180910390fd5b610bc0614355565b565b61015f546000903390610bdd906001600160a01b03166144ae565b6001600160a01b0316816001600160a01b031614610c5b5760405162461bcd60e51b815260206004820152603560248201527f53656375726974697a6174696f6e506f6f6c3a204d75737420626520746f6b656044820152741b881a5cdcdd595908189e48155b9d185b99db1959605a1b6064820152608401610baf565b6040805180820182526001600160a01b038381168083526020808401898152610174805460018101825560009190915294517f19628ef4f1e52435a91694e0b17e2591e7982b96f1883cadfe58900fe74230c4600290960295860180546001600160a01b031916919095161790935591517f19628ef4f1e52435a91694e0b17e2591e7982b96f1883cadfe58900fe74230c590930192909255825191825281018690527ff1c19e8856063adce43b5f307c6ac9d0af46fd0787c590550c51d7cf02d2e5f4910160405180910390a150630a85bd0160e11b95945050505050565b610d4361430f565b610d4b612d4f565b15610d685760405162461bcd60e51b8152600401610baf906155b5565b61015f54610d7e906001600160a01b03166144bb565b6001600160a01b03166391d14854600080516020615bc6833981519152336040516001600160e01b031960e085901b16815260048101929092526001600160a01b03166024820152604401602060405180830381865afa158015610de6573d6000803e3d6000fd5b505050506040513d601f19601f82011682018060405250810190610e0a9190615612565b610e645760405162461bcd60e51b815260206004820152602560248201527f53656375726974697a6174696f6e506f6f6c3a204e6f7420616e20706f6f6c2060448201526430b236b4b760d91b6064820152608401610baf565b8483610e71826006615643565b148015610e87575081610e85826004615643565b145b610ef95760405162461bcd60e51b815260206004820152603860248201527f53656375726974697a6174696f6e506f6f6c3a205269736b73636f726520706160448201527f72616d73206c656e677468206973206e6f7420657175616c00000000000000006064820152608401610baf565b610f066101736000615027565b60005b8181101561148b57801580610f7f57508787610f2660018461565a565b818110610f3557610f3561566d565b9050602002016020810190610f4a9190615549565b63ffffffff16888883818110610f6257610f6261566d565b9050602002016020810190610f779190615549565b63ffffffff16115b610fe25760405162461bcd60e51b815260206004820152602e60248201527f53656375726974697a6174696f6e506f6f6c3a205269736b2073636f7265732060448201526d1b5d5cdd081899481cdbdc9d195960921b6064820152608401610baf565b6101736040518061016001604052808a8a858181106110035761100361566d565b90506020020160208101906110189190615549565b63ffffffff1681526020018888858181106110355761103561566d565b905060200201602081019061104a9190615549565b63ffffffff16815260200188886110618787615683565b8181106110705761107061566d565b90506020020160208101906110859190615549565b63ffffffff168152602001888861109d876002615643565b6110a79087615683565b8181106110b6576110b661566d565b90506020020160208101906110cb9190615549565b63ffffffff16815260200188886110e3876003615643565b6110ed9087615683565b8181106110fc576110fc61566d565b90506020020160208101906111119190615549565b63ffffffff1681526020018888611129876004615643565b6111339087615683565b8181106111425761114261566d565b90506020020160208101906111579190615549565b63ffffffff1681526020018686858181106111745761117461566d565b90506020020160208101906111899190615549565b63ffffffff16815260200186866111a08787615683565b8181106111af576111af61566d565b90506020020160208101906111c49190615549565b63ffffffff16815260200186866111dc876002615643565b6111e69087615683565b8181106111f5576111f561566d565b905060200201602081019061120a9190615549565b63ffffffff1681526020018686611222876003615643565b61122c9087615683565b81811061123b5761123b61566d565b90506020020160208101906112509190615549565b63ffffffff1681526020018888611268876005615643565b6112729087615683565b8181106112815761128161566d565b90506020020160208101906112969190615549565b63ffffffff16815250908060018154018082558091505060019003906000526020600020906002020160009091909190915060008201518160000160006101000a81548163ffffffff021916908363ffffffff16021790555060208201518160000160046101000a81548163ffffffff021916908363ffffffff16021790555060408201518160000160086101000a81548163ffffffff021916908363ffffffff160217905550606082015181600001600c6101000a81548163ffffffff021916908363ffffffff16021790555060808201518160000160106101000a81548163ffffffff021916908363ffffffff16021790555060a08201518160000160146101000a81548163ffffffff021916908363ffffffff16021790555060c08201518160000160186101000a81548163ffffffff021916908363ffffffff16021790555060e082015181600001601c6101000a81548163ffffffff021916908363ffffffff1602179055506101008201518160010160006101000a81548163ffffffff021916908363ffffffff1602179055506101208201518160010160046101000a81548163ffffffff021916908363ffffffff1602179055506101408201518160010160086101000a81548163ffffffff021916908363ffffffff16021790555050506114848160010190565b9050610f09565b5050505050505050565b60006114a0816144c8565b6114aa83836144d2565b505050565b6114b761430f565b61015f546114cd906001600160a01b03166144bb565b6001600160a01b0316336001600160a01b03161480611512575061015f546114fd906001600160a01b031661451d565b6001600160a01b0316336001600160a01b0316145b61152e5760405162461bcd60e51b8152600401610baf90615696565b806101665461153d9190615683565b610166556115496115a4565b6115655760405162461bcd60e51b8152600401610baf9061570c565b7fb2209630cc27a5f36fad66f0e873c886ed480b2fb7613885f5914d723acd74726101665460405161159991815260200190565b60405180910390a150565b61015f5460009081906115bf906001600160a01b031661452a565b604051630129ecc560e61b81523060048201529091506001600160a01b03821690634a7b314090602401602060405180830381865afa158015611606573d6000803e3d6000fd5b505050506040513d601f19601f8201168201806040525081019061162a9190615743565b61017254640100000000900463ffffffff16111592915050565b61164c61430f565b611654612d4f565b156116715760405162461bcd60e51b8152600401610baf906155b5565b600080516020615be6833981519152611689816144c8565b85848114801561169857508483145b6116fc5760405162461bcd60e51b815260206004820152602f60248201527f53656375726974697a6174696f6e506f6f6c3a20506172616d73206c656e677460448201526e1a08185c99481b9bdd08195c5d585b608a1b6064820152608401610baf565b60005b818110156118205761015f5461171d906001600160a01b0316614537565b6001600160a01b03166384933c0c8a8a8481811061173d5761173d61566d565b905060200201602081019061175291906151bf565b6040516001600160e01b031960e084901b1681526001600160a01b039091166004820152602401602060405180830381865afa158015611796573d6000803e3d6000fd5b505050506040513d601f19601f820116820180604052508101906117ba9190615612565b6118185760405162461bcd60e51b815260206004820152602960248201527f53656375726974697a6174696f6e506f6f6c3a20756e6b6e6f776e2d746f6b656044820152686e2d6164647265737360b81b6064820152608401610baf565b6001016116ff565b5060005b818110156118635761185b8989838181106118415761184161566d565b905060200201602081019061185691906151bf565b614544565b600101611824565b5060005b8181101561196a578888828181106118815761188161566d565b905060200201602081019061189691906151bf565b6001600160a01b03166323b872dd8888848181106118b6576118b661566d565b90506020020160208101906118cb91906151bf565b308888868181106118de576118de61566d565b905060200201356040518463ffffffff1660e01b81526004016119039392919061575c565b6020604051808303816000875af1158015611922573d6000803e3d6000fd5b505050506040513d601f19601f820116820180604052508101906119469190615612565b6119625760405162461bcd60e51b8152600401610baf90615780565b600101611867565b50610165546001600160401b031660000361199d57610165805467ffffffffffffffff1916426001600160401b03161790555b610165546040516001600160401b0390911681527faa8cf603b3be24f79f673495c449aa3a2fcec1f484210e1662a1374c3e7f3350906020015b60405180910390a15050505050505050565b6119f161430f565b600080516020615be6833981519152611a09816144c8565b61016754808311611a2757611a1e838261565a565b61016755611a2e565b6000610167555b8261016654611a3d919061565a565b61016655611a496115a4565b611a655760405162461bcd60e51b8152600401610baf9061570c565b61016454610178546040516323b872dd60e01b81526001600160a01b03928316926323b872dd92611a9f929116903390889060040161575c565b6020604051808303816000875af1158015611abe573d6000803e3d6000fd5b505050506040513d601f19601f82011682018060405250810190611ae29190615612565b611afe5760405162461bcd60e51b8152600401610baf90615780565b60408051338152602081018590527f884edad9ce6fa2440d8a54cc123490eb96d2768479d49ff9c7366125a942436491015b60405180910390a1505050565b600082815260c96020526040902060010154611b58816144c8565b6114aa8383614607565b611b6a61430f565b61015f54611b80906001600160a01b031661451d565b6001600160a01b0316336001600160a01b031614611bb05760405162461bcd60e51b8152600401610baf906157c3565b6001600160a01b03808516600090815261016b6020908152604080832093871683529290522054611be2908390615683565b6001600160a01b03808616600081815261016b602090815260408083209489168084529482528083209590955591815261016c82528381209281529190522054611c2d908290615683565b6001600160a01b03808616600090815261016c602090815260408083209388168352929052205561016954611c63908390615683565b610169556001600160a01b038416600090815261016a6020526040902054611c8c908290615683565b6001600160a01b03858116600081815261016a6020818152604080842087905561016b8252808420958a168085529582528084205485855261016c8352818520878652835281852054948690529282526101695481519384529183019390935291810194909452606084015290917f39430af7b34e28c66cbb85c8f60111d96c000a66b7c66f2793709e7f0b9af2dd9060800160405180910390a350505050565b6001600160a01b0381163314611d9d5760405162461bcd60e51b815260206004820152602f60248201527f416363657373436f6e74726f6c3a2063616e206f6e6c792072656e6f756e636560448201526e103937b632b9903337b91039b2b63360891b6064820152608401610baf565b611da78282614629565b5050565b611db361430f565b600080516020615be6833981519152611dcb816144c8565b8160005b81811015611e6257866001600160a01b03166342842e0e8730888886818110611dfa57611dfa61566d565b905060200201356040518463ffffffff1660e01b8152600401611e1f9392919061575c565b600060405180830381600087803b158015611e3957600080fd5b505af1158015611e4d573d6000803e3d6000fd5b50505050611e5b8160010190565b9050611dcf565b5061015f546000908190611e7e906001600160a01b031661452a565b905060005b83811015611f4657816001600160a01b03166319c03937308b8a8a86818110611eae57611eae61566d565b6040516001600160e01b031960e088901b1681526001600160a01b03958616600482015294909316602485015250602090910201356044820152426064820152608401602060405180830381865afa158015611f0e573d6000803e3d6000fd5b505050506040513d601f19601f82011682018060405250810190611f329190615743565b611f3c9084615683565b9250600101611e83565b50816101676000828254611f5a9190615683565b909155505061016454600160a81b90046001600160401b0316600003611fa857610164805467ffffffffffffffff60a81b1916600160a81b426001600160401b031602179055611fa8614355565b610165546001600160401b0316600003611fda57610165805467ffffffffffffffff1916426001600160401b03161790555b604080516001600160a01b0389168152602081018490527f8fe20ffada4d9ccf074a33397d222919da2efb5f843f88fa560b4e00d6ad3a8d91016119d7565b61202161430f565b61202961464b565b61015f5461203f906001600160a01b03166144bb565b6001600160a01b03166391d14854600080516020615bc6833981519152336040516001600160e01b031960e085901b16815260048101929092526001600160a01b03166024820152604401602060405180830381865afa1580156120a7573d6000803e3d6000fd5b505050506040513d601f19601f820116820180604052508101906120cb9190615612565b806120e957506120e9600080516020615ba6833981519152336135a0565b6121055760405162461bcd60e51b8152600401610baf90615810565b848381146121255760405162461bcd60e51b8152600401610baf90615863565b8082146121445760405162461bcd60e51b8152600401610baf906158c0565b60005b8181101561230a5761017660008989848181106121665761216661566d565b905060200201602081019061217b91906151bf565b6001600160a01b0316815260208101919091526040016000205460ff166122005760405162461bcd60e51b815260206004820152603360248201527f53656375726974697a6174696f6e506f6f6c3a206e6f746520746f6b656e20616044820152721cdcd95d08191bd95cc81b9bdd08195e1a5cdd606a1b6064820152608401610baf565b8787828181106122125761221261566d565b905060200201602081019061222791906151bf565b6001600160a01b031663a9059cbb8787848181106122475761224761566d565b905060200201602081019061225c91906151bf565b86868581811061226e5761226e61566d565b6040516001600160e01b031960e087901b1681526001600160a01b03909416600485015260200291909101356024830152506044016020604051808303816000875af11580156122c2573d6000803e3d6000fd5b505050506040513d601f19601f820116820180604052508101906122e69190615612565b6123025760405162461bcd60e51b8152600401610baf90615780565b600101612147565b50506123166001606555565b505050505050565b61015f54612334906001600160a01b03166144bb565b6001600160a01b03166391d14854600080516020615bc6833981519152336040516001600160e01b031960e085901b16815260048101929092526001600160a01b03166024820152604401602060405180830381865afa15801561239c573d6000803e3d6000fd5b505050506040513d601f19601f820116820180604052508101906123c09190615612565b806123de57506123de600080516020615ba6833981519152336135a0565b6123fa5760405162461bcd60e51b8152600401610baf90615810565b610bc06146ab565b61240a61430f565b61015f54612420906001600160a01b03166144bb565b6001600160a01b0316336001600160a01b0316146124975760405162461bcd60e51b815260206004820152602e60248201527f53656375726974697a6174696f6e506f6f6c3a204f6e6c79205365637572697460448201526d34bd30ba34b7b726b0b730b3b2b960911b6064820152608401610baf565b600261016454600160a01b900460ff1660038111156124b8576124b8615519565b141580156124e55750600361016454600160a01b900460ff1660038111156124e2576124e2615519565b14155b6125315760405162461bcd60e51b815260206004820152601a60248201527f4e6f7420696e2069737375696e6720746f6b656e2073746167650000000000006044820152606401610baf565b6001600160a01b0383161580159061255157506001600160a01b03821615155b61259d5760405162461bcd60e51b815260206004820181905260248201527f53656375726974697a6174696f6e506f6f6c3a2041646472657373207a65726f6044820152606401610baf565b60008160018111156125b1576125b1615519565b036125ed5761016080546001600160a01b038086166001600160a01b031992831617909255610162805492851692909116919091179055612620565b61016180546001600160a01b038086166001600160a01b0319928316179092556101638054928516929091169190911790555b610164805460ff60a01b1916600160a01b1790556040517fba1ffbd8eaf48d438173faf4a6bbea0b6d4af272704b2d21e5b7c46f9dd3643390611b309085908590859061591d565b61267061430f565b61267861464b565b61015f5461268e906001600160a01b03166146fd565b6001600160a01b0316336001600160a01b03161461270d5760405162461bcd60e51b815260206004820152603660248201527f53656375726974697a6174696f6e506f6f6c3a2043616c6c6572206d75737420604482015275626520446973747269627574696f6e5472616e63686560501b6064820152608401610baf565b610162546001600160a01b03808516911603612790576001600160a01b038416600090815261017760205260408120805484929061274c908490615683565b90915550506040518281526001600160a01b038516907fc0144ef36fd10fb8ddd0407064f49c178804e65e0be62a7ba62de079401baa189060200160405180910390a25b816101665461279f919061565a565b61016655801561280457604051630852cd8d60e31b8152600481018290526001600160a01b038416906342966c6890602401600060405180830381600087803b1580156127eb57600080fd5b505af11580156127ff573d6000803e3d6000fd5b505050505b61280c6115a4565b6128285760405162461bcd60e51b8152600401610baf9061570c565b61016454610178546040516323b872dd60e01b81526001600160a01b03928316926323b872dd92612862929116908890879060040161575c565b6020604051808303816000875af1158015612881573d6000803e3d6000fd5b505050506040513d601f19601f820116820180604052508101906128a59190615612565b6129065760405162461bcd60e51b815260206004820152602c60248201527f53656375726974697a6174696f6e506f6f6c3a2063757272656e63792d74726160448201526b1b9cd9995c8b59985a5b195960a21b6064820152608401610baf565b7fb2209630cc27a5f36fad66f0e873c886ed480b2fb7613885f5914d723acd74726101665460405161293a91815260200190565b60405180910390a161294c6001606555565b50505050565b61295a61430f565b61015f54612970906001600160a01b031661451d565b6001600160a01b0316336001600160a01b0316146129a05760405162461bcd60e51b8152600401610baf906157c3565b6001600160a01b03808516600090815261016b60209081526040808320938716835292905220546129d290839061565a565b6001600160a01b03808616600081815261016b602090815260408083209489168084529482528083209590955591815261016c82528381209281529190522054612a1d90829061565a565b6001600160a01b03808616600090815261016c602090815260408083209388168352929052205561016954612a5390839061565a565b6101695561016854612a66908390615683565b610168556001600160a01b038416600090815261016a6020526040902054611c8c90829061565a565b6060610175805480602002602001604051908101604052809291908181526020018280548015612ae857602002820191906000526020600020905b81546001600160a01b03168152600190910190602001808311612aca575b5050505050905090565b6101738181548110612b0357600080fd5b60009182526020909120600290910201805460019091015463ffffffff8083169350640100000000808404821693600160401b808204841694600160601b8304851694600160801b8404811694600160a01b8504821694600160c01b8104831694600160e01b90910483169380841693928104831692919004168b565b610162546000906001600160a01b031615612c665761016260009054906101000a90046001600160a01b03166001600160a01b03166318160ddd6040518163ffffffff1660e01b8152600401602060405180830381865afa158015612be9573d6000803e3d6000fd5b505050506040513d601f19601f82011682018060405250810190612c0d9190615743565b15612c665760405162461bcd60e51b8152602060048201526024808201527f53656375726974697a6174696f6e506f6f6c3a20534f54207374696c6c20726560448201526336b0b4b760e11b6064820152608401610baf565b610163546001600160a01b031615612d495761016360009054906101000a90046001600160a01b03166001600160a01b03166318160ddd6040518163ffffffff1660e01b8152600401602060405180830381865afa158015612ccc573d6000803e3d6000fd5b505050506040513d601f19601f82011682018060405250810190612cf09190615743565b15612d495760405162461bcd60e51b8152602060048201526024808201527f53656375726974697a6174696f6e506f6f6c3a204a4f54207374696c6c20726560448201526336b0b4b760e11b6064820152608401610baf565b50600190565b6000600361016454600160a01b900460ff166003811115612d7257612d72615519565b14905090565b612d8061430f565b612d8861464b565b600080516020615ba6833981519152612da0816144c8565b600261016454600160a01b900460ff166003811115612dc157612dc1615519565b14158015612dee5750600361016454600160a01b900460ff166003811115612deb57612deb615519565b14155b612e3a5760405162461bcd60e51b815260206004820152601a60248201527f4e6f7420696e2069737375696e6720746f6b656e2073746167650000000000006044820152606401610baf565b6000856001600160401b031611612e9f5760405162461bcd60e51b8152602060048201526024808201527f53656375726974697a6174696f6e506f6f6c3a205465726d206c656e677468206044820152630697320360e41b6064820152608401610baf565b61016580546fffffffffffffffff00000000000000001916600160401b6001600160401b03881602179055610170849055610164805460ff60a01b1916600160a11b179055610160546001600160a01b0316156130c057610160546040516351c5295360e11b815263ffffffff851660048201526001600160401b038088166024830152841660448201526001600160a01b0390911690819063a38a52a690606401600060405180830381600087803b158015612f5b57600080fd5b505af1158015612f6f573d6000803e3d6000fd5b50505050806001600160a01b031663b3f05b976040518163ffffffff1660e01b8152600401602060405180830381865afa158015612fb1573d6000803e3d6000fd5b505050506040513d601f19601f82011682018060405250810190612fd59190615612565b6130415761017854604051632b8093bd60e01b8152600060048201526001600160a01b03918216602482015290821690632b8093bd90604401600060405180830381600087803b15801561302857600080fd5b505af115801561303c573d6000803e3d6000fd5b505050505b806001600160a01b0316631f0b10c56040518163ffffffff1660e01b8152600401602060405180830381865afa15801561307f573d6000803e3d6000fd5b505050506040513d601f19601f820116820180604052508101906130a39190615953565b610172805463ffffffff191663ffffffff92909216919091179055505b610161546001600160a01b03161561321a576101615461017854604051632b8093bd60e01b8152600060048201526001600160a01b039182166024820152911690632b8093bd90604401600060405180830381600087803b15801561312457600080fd5b505af1158015613138573d6000803e3d6000fd5b5050505061016160009054906101000a90046001600160a01b03166001600160a01b031663b3f05b976040518163ffffffff1660e01b8152600401602060405180830381865afa158015613190573d6000803e3d6000fd5b505050506040513d601f19601f820116820180604052508101906131b49190615612565b61321a5760405162461bcd60e51b815260206004820152603160248201527f53656375726974697a6174696f6e506f6f6c3a207365636f6e642073616c65206044820152706973207374696c6c206f6e20676f696e6760781b6064820152608401610baf565b5061294c6001606555565b61015f5461323b906001600160a01b03166144bb565b6001600160a01b03166391d14854600080516020615bc6833981519152336040516001600160e01b031960e085901b16815260048101929092526001600160a01b03166024820152604401602060405180830381865afa1580156132a3573d6000803e3d6000fd5b505050506040513d601f19601f820116820180604052508101906132c79190615612565b806132e557506132e5600080516020615ba6833981519152336135a0565b6133015760405162461bcd60e51b8152600401610baf90615810565b610bc061470a565b61331161430f565b600080516020615ba6833981519152613329816144c8565b613331612b80565b6133955760405162461bcd60e51b815260206004820152602f60248201527f53656375726974697a6174696f6e506f6f6c3a20526564656d7074696f6e206860448201526e185cc81b9bdd08199a5b9a5cda1959608a1b6064820152608401610baf565b61016454610178546040516370a0823160e01b81526001600160a01b0391821660048201819052919092169182916323b872dd91869084906370a0823190602401602060405180830381865afa1580156133f3573d6000803e3d6000fd5b505050506040513d601f19601f820116820180604052508101906134179190615743565b6040518463ffffffff1660e01b81526004016134359392919061575c565b6020604051808303816000875af1158015613454573d6000803e3d6000fd5b505050506040513d601f19601f820116820180604052508101906134789190615612565b6114aa5760405162461bcd60e51b8152600401610baf90615780565b600082815260fb602052604081206134ac9083614747565b9392505050565b6134bb61430f565b61015f546134d1906001600160a01b0316614753565b6001600160a01b0316336001600160a01b0316146135465760405162461bcd60e51b815260206004820152602c60248201527f53656375726974697a6174696f6e506f6f6c3a204f6e6c79204c6f616e52657060448201526b30bcb6b2b73a2937baba32b960a11b6064820152608401610baf565b80610166546135559190615683565b6101665561016d54613568908290615683565b61016d55610166546040519081527fb2209630cc27a5f36fad66f0e873c886ed480b2fb7613885f5914d723acd747290602001611599565b600091825260c9602090815260408084206001600160a01b0393909316845291905290205460ff1690565b6135d361430f565b6135db61464b565b600080516020615ba68339815191526135f3816144c8565b838681146136135760405162461bcd60e51b8152600401610baf90615863565b8683146136325760405162461bcd60e51b8152600401610baf906158c0565b60005b818110156136a9576136858989838181106136525761365261566d565b905060200201602081019061366791906151bf565b8888848181106136795761367961566d565b90506020020135614760565b6136a15760405162461bcd60e51b8152600401610baf90615970565b600101613635565b5060005b8181101561378c578888828181106136c7576136c761566d565b90506020020160208101906136dc91906151bf565b6001600160a01b03166342842e0e308787858181106136fd576136fd61566d565b905060200201602081019061371291906151bf565b8a8a868181106137245761372461566d565b905060200201356040518463ffffffff1660e01b81526004016137499392919061575c565b600060405180830381600087803b15801561376357600080fd5b505af1158015613777573d6000803e3d6000fd5b505050506137858160010190565b90506136ad565b5050506123166001606555565b60006137b3600080516020615ba6833981519152336135a0565b905090565b6137c061430f565b61015f546137d6906001600160a01b03166144bb565b6001600160a01b0316336001600160a01b0316148061381b575061015f54613806906001600160a01b031661451d565b6001600160a01b0316336001600160a01b0316145b6138375760405162461bcd60e51b8152600401610baf90615696565b806101665461153d919061565a565b61384e61430f565b610160546001600160a01b0316336001600160a01b0316146138cb5760405162461bcd60e51b815260206004820152603060248201527f53656375726974697a6174696f6e506f6f6c3a204f6e6c79207467652063616e60448201526f081d5c19185d19481a5b9d195c995cdd60821b6064820152608401610baf565b610172805463ffffffff191663ffffffff83169081179091556040519081527fe385e840d39f98b4644053fb8bba00d8b54f9bc4cdff1b3c4951aa22cb1fdb4790602001611599565b600081815260fb60205260408120610b3590614806565b600054610100900460ff161580801561394b5750600054600160ff909116105b806139655750303b158015613965575060005460ff166001145b6139c85760405162461bcd60e51b815260206004820152602e60248201527f496e697469616c697a61626c653a20636f6e747261637420697320616c72656160448201526d191e481a5b9a5d1a585b1a5e995960921b6064820152608401610baf565b6000805460ff1916600117905580156139eb576000805461ff0019166101001790555b600082806020019051810190613a0191906159b8565b9050613a106127106064615643565b816020015163ffffffff1610613a785760405162461bcd60e51b815260206004820152602760248201527f6d696e46697273744c6f737343757368696f6e20697320677265617465722074604482015266068616e203130360cc1b6064820152608401610baf565b80516001600160a01b0316613adb5760405162461bcd60e51b8152602060048201526024808201527f53656375726974697a6174696f6e506f6f6c3a20496e76616c69642063757272604482015263656e637960e01b6064820152608401610baf565b613ae433614810565b613b0a600080516020615be6833981519152600080516020615ba68339815191526144d2565b61015f80546001600160a01b038681166001600160a01b0319909216919091179091556101648054835183166001600160a81b031991821681179092556020840151610172805463ffffffff9092166401000000000267ffffffff000000001990921691909117905561017880546040808701511515600160a01b023060ff60a01b191692909416919091179290921790819055905163095ea7b360e01b81529216600483015260001960248301529063095ea7b3906044016020604051808303816000875af1158015613be2573d6000803e3d6000fd5b505050506040513d601f19601f82011682018060405250810190613c069190615612565b613c675760405162461bcd60e51b815260206004820152602c60248201527f53656375726974697a6174696f6e506f6f6c3a2043757272656e63792061707060448201526b1c9bdd985b0819985a5b195960a21b6064820152608401610baf565b61015f54613c7d906001600160a01b03166144ae565b61015f546001600160a01b039182169163a22cb46591613c9d9116614858565b6040516001600160e01b031960e084901b1681526001600160a01b03909116600482015260016024820152604401600060405180830381600087803b158015613ce557600080fd5b505af1158015613cf9573d6000803e3d6000fd5b505050505080156114aa576000805461ff0019169055604051600181527f7f26b83ff96e1f2b6a682f133852f6798a09c465da95921460cefb384740249890602001611b30565b600082815260c96020526040902060010154613d5b816144c8565b6114aa8383614629565b6101758181548110613d7657600080fd5b6000918252602090912001546001600160a01b0316905081565b613d9861430f565b613da061464b565b613da8612d4f565b15613dc55760405162461bcd60e51b8152600401610baf906155b5565b61015f54613ddb906001600160a01b03166144bb565b6001600160a01b03166391d14854600080516020615bc6833981519152336040516001600160e01b031960e085901b16815260048101929092526001600160a01b03166024820152604401602060405180830381865afa158015613e43573d6000803e3d6000fd5b505050506040513d601f19601f82011682018060405250810190613e679190615612565b80613e855750613e85600080516020615ba6833981519152336135a0565b613ea15760405162461bcd60e51b8152600401610baf90615810565b8060005b81811015613ee757613ec3868585848181106136795761367961566d565b613edf5760405162461bcd60e51b8152600401610baf90615970565b600101613ea5565b5060005b81811015613f7e57856001600160a01b03166342842e0e3087878786818110613f1657613f1661566d565b905060200201356040518463ffffffff1660e01b8152600401613f3b9392919061575c565b600060405180830381600087803b158015613f5557600080fd5b505af1158015613f69573d6000803e3d6000fd5b50505050613f778160010190565b9050613eeb565b505061294c6001606555565b613f9261430f565b613f9a61464b565b613fa2612d4f565b15613fbf5760405162461bcd60e51b8152600401610baf906155b5565b61015f54613fd5906001600160a01b03166144bb565b6001600160a01b03166391d14854600080516020615bc6833981519152336040516001600160e01b031960e085901b16815260048101929092526001600160a01b03166024820152604401602060405180830381865afa15801561403d573d6000803e3d6000fd5b505050506040513d601f19601f820116820180604052508101906140619190615612565b8061407f575061407f600080516020615ba6833981519152336135a0565b61409b5760405162461bcd60e51b8152600401610baf90615810565b6140b3600080516020615ba6833981519152826135a0565b156140bd57600080fd5b610178546001600160a01b038083169116036141355760405162461bcd60e51b815260206004820152603160248201527f53656375726974697a6174696f6e506f6f6c3a2053616d652061646472657373604482015270081dda5d1a0818dd5c9c995b9d081c1bdd607a1b6064820152608401610baf565b61017880546001600160a01b0319166001600160a01b03831690811790915530900361422f57610164546101785460405163095ea7b360e01b81526001600160a01b039182166004820152600019602482015291169063095ea7b3906044016020604051808303816000875af11580156141b3573d6000803e3d6000fd5b505050506040513d601f19601f820116820180604052508101906141d79190615612565b61422f5760405162461bcd60e51b8152602060048201526024808201527f53656375726974697a6174696f6e506f6f6c3a20506f74206e6f7420617070726044820152631bdd995960e21b6064820152608401610baf565b61015f54614245906001600160a01b03166144bb565b6101785460405163dc90f9fd60e01b81526001600160a01b03918216600482015291169063dc90f9fd90602401600060405180830381600087803b15801561428c57600080fd5b505af11580156142a0573d6000803e3d6000fd5b505050506142ae6001606555565b50565b61017481815481106142c257600080fd5b6000918252602090912060029091020180546001909101546001600160a01b03909116915082565b60006001600160e01b03198216635a05180f60e01b1480610b355750610b3582614865565b60335460ff1615610bc05760405162461bcd60e51b815260206004820152601060248201526f14185d5cd8589b194e881c185d5cd95960821b6044820152606401610baf565b610160546001600160a01b031661436857565b6101605460408051639b52fe3360e01b815290516000926001600160a01b031691639b52fe339160048083019260209291908290030181865afa1580156143b3573d6000803e3d6000fd5b505050506040513d601f19601f820116820180604052508101906143d79190615a27565b610164549091506001600160401b03600160a81b90910481169082161580159061440a57506000816001600160401b0316115b1561446957816001600160401b0316816001600160401b0316111561444b57610165805467ffffffffffffffff19166001600160401b038316179055614469565b610165805467ffffffffffffffff19166001600160401b0384161790555b610165546040516001600160401b0390911681527faa8cf603b3be24f79f673495c449aa3a2fcec1f484210e1662a1374c3e7f33509060200160405180910390a15050565b6000610b3582600861489a565b6000610b3582600061489a565b6142ae813361491f565b600082815260c96020526040808220600101805490849055905190918391839186917fbd79b86ffe0ab8e8776151514217cd7cacd52c909f66475c3af44e129f0b00ff9190a4505050565b6000610b3582600561489a565b6000610b3582601161489a565b6000610b3582600261489a565b6001600160a01b0381166000908152610176602052604090205460ff166145b25761017580546001810182556000919091527f94b016e6b5eafb28c9d47c3523378ec087cc0ead8b7eff2840605504c1f1ac6f0180546001600160a01b0319166001600160a01b0383161790555b6001600160a01b03811660008181526101766020908152604091829020805460ff1916600117905590519182527fa3087e474cce8eb102998561afda3e856fc0f9a515a80d128775eaa3c7269adc9101611599565b6146118282614978565b600082815260fb602052604090206114aa90826149fe565b6146338282614a13565b600082815260fb602052604090206114aa9082614a7a565b60026065540361469d5760405162461bcd60e51b815260206004820152601f60248201527f5265656e7472616e637947756172643a207265656e7472616e742063616c6c006044820152606401610baf565b6002606555565b6001606555565b6146b3614a8f565b6033805460ff191690557f5db9ee0a495bf2e6ff9c91a7834c1ba4fdd244a5e8aa4e537bd38aeae4b073aa335b6040516001600160a01b03909116815260200160405180910390a1565b6000610b3582600761489a565b61471261430f565b6033805460ff191660011790557f62e78cea01bee320cd4e420270b5ea74000d11b0c9f74754ebdbfc544b05a2586146e03390565b60006134ac8383614ad8565b6000610b3582600c61489a565b61017454600090815b818110156147fb57846001600160a01b0316610174828154811061478f5761478f61566d565b60009182526020909120600290910201546001600160a01b03161480156147da57508361017482815481106147c6576147c661566d565b906000526020600020906002020160010154145b156147f3576147e881614b02565b600192505050610b35565b600101614769565b506000949350505050565b6000610b35825490565b600054610100900460ff166148375760405162461bcd60e51b8152600401610baf90615a44565b61483f614c3a565b614847614c6d565b61484f614c94565b6142ae81614cbb565b6000610b3582600d61489a565b60006001600160e01b03198216637965db0b60e01b1480610b3557506301ffc9a760e01b6001600160e01b0319831614610b35565b6000826001600160a01b031663bcaa0c558360198111156148bd576148bd615519565b6040516001600160e01b031960e084901b16815260ff9091166004820152602401602060405180830381865afa1580156148fb573d6000803e3d6000fd5b505050506040513d601f19601f820116820180604052508101906134ac9190615a8f565b61492982826135a0565b611da75761493681614d2e565b614941836020614d40565b604051602001614952929190615ad0565b60408051601f198184030181529082905262461bcd60e51b8252610baf91600401615b45565b61498282826135a0565b611da757600082815260c9602090815260408083206001600160a01b03851684529091529020805460ff191660011790556149ba3390565b6001600160a01b0316816001600160a01b0316837f2f8788117e7eff1d82e926ec794901d17c78024a50270940304540a733656f0d60405160405180910390a45050565b60006134ac836001600160a01b038416614edb565b614a1d82826135a0565b15611da757600082815260c9602090815260408083206001600160a01b0385168085529252808320805460ff1916905551339285917ff6391f5c32d9c69d2a47ea670b442974b53935d1edc7fd64eb21e047a839171b9190a45050565b60006134ac836001600160a01b038416614f2a565b60335460ff16610bc05760405162461bcd60e51b815260206004820152601460248201527314185d5cd8589b194e881b9bdd081c185d5cd95960621b6044820152606401610baf565b6000826000018281548110614aef57614aef61566d565b9060005260206000200154905092915050565b6101748054614b139060019061565a565b81548110614b2357614b2361566d565b90600052602060002090600202016101748281548110614b4557614b4561566d565b600091825260208220835460029092020180546001600160a01b0319166001600160a01b0390921691909117815560019283015490830155610174805491929091614b90919061565a565b81548110614ba057614ba061566d565b600091825260209182902060029091020180546001820154604080516001600160a01b039093168352938201529092507f2f2c2bbbba2dd1f6074fbdaeda0589f21b3082690049df4802b1d0ed745746e0910160405180910390a1610174805480614c0d57614c0d615b78565b60008281526020812060026000199093019283020180546001600160a01b03191681556001015590555050565b600054610100900460ff16614c615760405162461bcd60e51b8152600401610baf90615a44565b6033805460ff19169055565b600054610100900460ff166146a45760405162461bcd60e51b8152600401610baf90615a44565b600054610100900460ff16610bc05760405162461bcd60e51b8152600401610baf90615a44565b600054610100900460ff16614ce25760405162461bcd60e51b8152600401610baf90615a44565b6001600160a01b038116614cf35750335b614cfe60003361501d565b614d16600080516020615ba68339815191528261501d565b6142ae600080516020615ba6833981519152806144d2565b6060610b356001600160a01b03831660145b60606000614d4f836002615643565b614d5a906002615683565b6001600160401b03811115614d7157614d716150b2565b6040519080825280601f01601f191660200182016040528015614d9b576020820181803683370190505b509050600360fc1b81600081518110614db657614db661566d565b60200101906001600160f81b031916908160001a905350600f60fb1b81600181518110614de557614de561566d565b60200101906001600160f81b031916908160001a9053506000614e09846002615643565b614e14906001615683565b90505b6001811115614e8c576f181899199a1a9b1b9c1cb0b131b232b360811b85600f1660108110614e4857614e4861566d565b1a60f81b828281518110614e5e57614e5e61566d565b60200101906001600160f81b031916908160001a90535060049490941c93614e8581615b8e565b9050614e17565b5083156134ac5760405162461bcd60e51b815260206004820181905260248201527f537472696e67733a20686578206c656e67746820696e73756666696369656e746044820152606401610baf565b6000818152600183016020526040812054614f2257508154600181810184556000848152602080822090930184905584548482528286019093526040902091909155610b35565b506000610b35565b60008181526001830160205260408120548015615013576000614f4e60018361565a565b8554909150600090614f629060019061565a565b9050818114614fc7576000866000018281548110614f8257614f8261566d565b9060005260206000200154905080876000018481548110614fa557614fa561566d565b6000918252602080832090910192909255918252600188019052604090208390555b8554869080614fd857614fd8615b78565b600190038181906000526020600020016000905590558560010160008681526020019081526020016000206000905560019350505050610b35565b6000915050610b35565b611da78282614607565b50805460008255600202906000526020600020908101906142ae91905b8082111561506f57600081556001810180546bffffffffffffffffffffffff19169055600201615044565b5090565b60006020828403121561508557600080fd5b81356001600160e01b0319811681146134ac57600080fd5b6001600160a01b03811681146142ae57600080fd5b634e487b7160e01b600052604160045260246000fd5b600082601f8301126150d957600080fd5b81356001600160401b03808211156150f3576150f36150b2565b604051601f8301601f19908116603f0116810190828211818310171561511b5761511b6150b2565b8160405283815286602085880101111561513457600080fd5b836020870160208301376000602085830101528094505050505092915050565b6000806000806080858703121561516a57600080fd5b84356151758161509d565b935060208501356151858161509d565b92506040850135915060608501356001600160401b038111156151a757600080fd5b6151b3878288016150c8565b91505092959194509250565b6000602082840312156151d157600080fd5b81356134ac8161509d565b60008083601f8401126151ee57600080fd5b5081356001600160401b0381111561520557600080fd5b6020830191508360208260051b850101111561522057600080fd5b9250929050565b6000806000806000806060878903121561524057600080fd5b86356001600160401b038082111561525757600080fd5b6152638a838b016151dc565b9098509650602089013591508082111561527c57600080fd5b6152888a838b016151dc565b909650945060408901359150808211156152a157600080fd5b506152ae89828a016151dc565b979a9699509497509295939492505050565b600080604083850312156152d357600080fd5b50508035926020909101359150565b6000602082840312156152f457600080fd5b5035919050565b6000806040838503121561530e57600080fd5b8235915060208301356153208161509d565b809150509250929050565b6000806000806080858703121561534157600080fd5b843561534c8161509d565b9350602085013561535c8161509d565b93969395505050506040820135916060013590565b6000806000806060858703121561538757600080fd5b84356153928161509d565b935060208501356153a28161509d565b925060408501356001600160401b038111156153bd57600080fd5b6153c9878288016151dc565b95989497509550505050565b6000806000606084860312156153ea57600080fd5b83356153f58161509d565b925060208401356154058161509d565b915060408401356002811061541957600080fd5b809150509250925092565b6020808252825182820181905260009190848201906040850190845b818110156154655783516001600160a01b031683529284019291840191600101615440565b50909695505050505050565b6000806040838503121561548457600080fd5b823561548f8161509d565b915060208301356153208161509d565b6001600160401b03811681146142ae57600080fd5b63ffffffff811681146142ae57600080fd5b600080600080608085870312156154dc57600080fd5b84356154e78161549f565b93506020850135925060408501356154fe816154b4565b9150606085013561550e8161549f565b939692955090935050565b634e487b7160e01b600052602160045260246000fd5b602081016004831061554357615543615519565b91905290565b60006020828403121561555b57600080fd5b81356134ac816154b4565b6000806040838503121561557957600080fd5b82356155848161509d565b915060208301356001600160401b0381111561559f57600080fd5b6155ab858286016150c8565b9150509250929050565b60208082526028908201527f53656375726974697a6174696f6e506f6f6c3a20506f6f6c20696e20636c6f73604082015267656420737461746560c01b606082015260800190565b8051801515811461560d57600080fd5b919050565b60006020828403121561562457600080fd5b6134ac826155fd565b634e487b7160e01b600052601160045260246000fd5b8082028115828204841417610b3557610b3561562d565b81810381811115610b3557610b3561562d565b634e487b7160e01b600052603260045260246000fd5b80820180821115610b3557610b3561562d565b60208082526050908201527f53656375726974697a6174696f6e506f6f6c3a2043616c6c6572206d7573742060408201527f62652053656375726974697a6174696f6e4d616e61676572206f72204469737460608201526f3934b13aba34b7b727b832b930ba37b960811b608082015260a00190565b6020808252601d908201527f4d696e46697273744c6f7373206973206e6f7420736174697366696564000000604082015260600190565b60006020828403121561575557600080fd5b5051919050565b6001600160a01b039384168152919092166020820152604081019190915260600190565b60208082526023908201527f53656375726974697a6174696f6e506f6f6c3a205472616e73666572206661696040820152621b195960ea1b606082015260800190565b6020808252602d908201527f53656375726974697a6174696f6e506f6f6c3a204f6e6c79204469737472696260408201526c3aba34b7b727b832b930ba37b960991b606082015260800190565b60208082526033908201527f53656375726974697a6174696f6e506f6f6c3a204e6f7420616e20706f6f6c2060408201527230b236b4b71037b9103837b7b61037bbb732b960691b606082015260800190565b60208082526037908201527f746f6b656e416464726573736573206c656e67746820616e6420746f6b656e4960408201527f6473206c656e67746820617265206e6f7420657175616c000000000000000000606082015260800190565b60208082526039908201527f746f6b656e416464726573736573206c656e67746820616e642072656369706960408201527f656e7473206c656e67746820617265206e6f7420657175616c00000000000000606082015260800190565b6001600160a01b03848116825283166020820152606081016002831061594557615945615519565b826040830152949350505050565b60006020828403121561596557600080fd5b81516134ac816154b4565b60208082526028908201527f53656375726974697a6174696f6e506f6f6c3a20417373657420646f6573206e6040820152671bdd08195e1a5cdd60c21b606082015260800190565b6000606082840312156159ca57600080fd5b604051606081018181106001600160401b03821117156159ec576159ec6150b2565b60405282516159fa8161509d565b81526020830151615a0a816154b4565b6020820152615a1b604084016155fd565b60408201529392505050565b600060208284031215615a3957600080fd5b81516134ac8161549f565b6020808252602b908201527f496e697469616c697a61626c653a20636f6e7472616374206973206e6f74206960408201526a6e697469616c697a696e6760a81b606082015260800190565b600060208284031215615aa157600080fd5b81516134ac8161509d565b60005b83811015615ac7578181015183820152602001615aaf565b50506000910152565b7f416363657373436f6e74726f6c3a206163636f756e7420000000000000000000815260008351615b08816017850160208801615aac565b7001034b99036b4b9b9b4b733903937b6329607d1b6017918401918201528351615b39816028840160208801615aac565b01602801949350505050565b6020815260008251806020840152615b64816040850160208701615aac565b601f01601f19169190910160400192915050565b634e487b7160e01b600052603160045260246000fd5b600081615b9d57615b9d61562d565b50600019019056feb19546dff01e856fb3f010c267a7b1c60363cf8a4664e21cc89c26224620214e3e9c05fb0f9da4414e033bb9bf190a6e2072adf7e3077394fce683220513b8d759abfac6520ec36a6556b2a4dd949cc40007459bcd5cd2507f1e5cc77b6bc97ea2646970667358221220830984040ea2f9f50c44f619efe4adf4d03601a69092b950d146504fd1afaae664736f6c63430008130033"
}