{
  "address": "0x80A7B2C22a888cA59b874307c1F25e49D4E359E0",
  "abi": [
    {
      "inputs": [],
      "stateMutability": "nonpayable",
      "type": "constructor"
    },
    {
      "anonymous": false,
      "inputs": [
        {
          "indexed": false,
          "internalType": "address",
          "name": "token",
          "type": "address"
        }
      ],
      "name": "AddTokenAssetAddress",
      "type": "event"
    },
    {
      "anonymous": false,
      "inputs": [
        {
          "indexed": false,
          "internalType": "address",
          "name": "from",
          "type": "address"
        },
        {
          "indexed": false,
          "internalType": "uint256",
          "name": "value",
          "type": "uint256"
        }
      ],
      "name": "CollectAsset",
      "type": "event"
    },
    {
      "anonymous": false,
      "inputs": [
        {
          "indexed": false,
          "internalType": "uint8",
          "name": "version",
          "type": "uint8"
        }
      ],
      "name": "Initialized",
      "type": "event"
    },
    {
      "anonymous": false,
      "inputs": [
        {
          "indexed": false,
          "internalType": "address",
          "name": "token",
          "type": "address"
        },
        {
          "indexed": false,
          "internalType": "uint256",
          "name": "tokenId",
          "type": "uint256"
        }
      ],
      "name": "InsertNFTAsset",
      "type": "event"
    },
    {
      "anonymous": false,
      "inputs": [
        {
          "indexed": false,
          "internalType": "address",
          "name": "account",
          "type": "address"
        }
      ],
      "name": "Paused",
      "type": "event"
    },
    {
      "anonymous": false,
      "inputs": [
        {
          "indexed": false,
          "internalType": "address",
          "name": "token",
          "type": "address"
        },
        {
          "indexed": false,
          "internalType": "uint256",
          "name": "tokenId",
          "type": "uint256"
        }
      ],
      "name": "RemoveNFTAsset",
      "type": "event"
    },
    {
      "anonymous": false,
      "inputs": [
        {
          "indexed": true,
          "internalType": "bytes32",
          "name": "role",
          "type": "bytes32"
        },
        {
          "indexed": true,
          "internalType": "bytes32",
          "name": "previousAdminRole",
          "type": "bytes32"
        },
        {
          "indexed": true,
          "internalType": "bytes32",
          "name": "newAdminRole",
          "type": "bytes32"
        }
      ],
      "name": "RoleAdminChanged",
      "type": "event"
    },
    {
      "anonymous": false,
      "inputs": [
        {
          "indexed": true,
          "internalType": "bytes32",
          "name": "role",
          "type": "bytes32"
        },
        {
          "indexed": true,
          "internalType": "address",
          "name": "account",
          "type": "address"
        },
        {
          "indexed": true,
          "internalType": "address",
          "name": "sender",
          "type": "address"
        }
      ],
      "name": "RoleGranted",
      "type": "event"
    },
    {
      "anonymous": false,
      "inputs": [
        {
          "indexed": true,
          "internalType": "bytes32",
          "name": "role",
          "type": "bytes32"
        },
        {
          "indexed": true,
          "internalType": "address",
          "name": "account",
          "type": "address"
        },
        {
          "indexed": true,
          "internalType": "address",
          "name": "sender",
          "type": "address"
        }
      ],
      "name": "RoleRevoked",
      "type": "event"
    },
    {
      "anonymous": false,
      "inputs": [
        {
          "indexed": false,
          "internalType": "address",
          "name": "account",
          "type": "address"
        }
      ],
      "name": "Unpaused",
      "type": "event"
    },
    {
      "anonymous": false,
      "inputs": [
        {
          "indexed": false,
          "internalType": "uint32",
          "name": "_interestRateSOT",
          "type": "uint32"
        }
      ],
      "name": "UpdateInterestRateSOT",
      "type": "event"
    },
    {
      "anonymous": false,
      "inputs": [
        {
          "indexed": true,
          "internalType": "address",
          "name": "tokenAddress",
          "type": "address"
        },
        {
          "indexed": true,
          "internalType": "address",
          "name": "investor",
          "type": "address"
        },
        {
          "indexed": false,
          "internalType": "uint256",
          "name": "lockedDistributeBalance",
          "type": "uint256"
        },
        {
          "indexed": false,
          "internalType": "uint256",
          "name": "lockedRedeemBalances",
          "type": "uint256"
        },
        {
          "indexed": false,
          "internalType": "uint256",
          "name": "totalLockedRedeemBalances",
          "type": "uint256"
        },
        {
          "indexed": false,
          "internalType": "uint256",
          "name": "totalLockedDistributeBalance",
          "type": "uint256"
        }
      ],
      "name": "UpdateLockedDistributeBalance",
      "type": "event"
    },
    {
      "anonymous": false,
      "inputs": [
        {
          "indexed": false,
          "internalType": "uint256",
          "name": "newTimestamp",
          "type": "uint256"
        }
      ],
      "name": "UpdateOpeningBlockTimestamp",
      "type": "event"
    },
    {
      "anonymous": false,
      "inputs": [
        {
          "indexed": true,
          "internalType": "address",
          "name": "user",
          "type": "address"
        },
        {
          "indexed": false,
          "internalType": "uint256",
          "name": "currencyAmount",
          "type": "uint256"
        }
      ],
      "name": "UpdatePaidPrincipalAmountSOTByInvestor",
      "type": "event"
    },
    {
      "anonymous": false,
      "inputs": [
        {
          "indexed": false,
          "internalType": "uint256",
          "name": "currencyAmount",
          "type": "uint256"
        }
      ],
      "name": "UpdateReserve",
      "type": "event"
    },
    {
      "anonymous": false,
      "inputs": [
        {
          "indexed": false,
          "internalType": "address",
          "name": "tge",
          "type": "address"
        },
        {
          "indexed": false,
          "internalType": "address",
          "name": "token",
          "type": "address"
        },
        {
          "indexed": false,
          "internalType": "enum Configuration.NOTE_TOKEN_TYPE",
          "name": "noteType",
          "type": "uint8"
        }
      ],
      "name": "UpdateTGEAddress",
      "type": "event"
    },
    {
      "anonymous": false,
      "inputs": [
        {
          "indexed": false,
          "internalType": "address",
          "name": "originatorAddress",
          "type": "address"
        },
        {
          "indexed": false,
          "internalType": "uint256",
          "name": "amount",
          "type": "uint256"
        }
      ],
      "name": "Withdraw",
      "type": "event"
    },
    {
      "inputs": [],
      "name": "DEFAULT_ADMIN_ROLE",
      "outputs": [
        {
          "internalType": "bytes32",
          "name": "",
          "type": "bytes32"
        }
      ],
      "stateMutability": "view",
      "type": "function"
    },
    {
      "inputs": [],
      "name": "ORIGINATOR_ROLE",
      "outputs": [
        {
          "internalType": "bytes32",
          "name": "",
          "type": "bytes32"
        }
      ],
      "stateMutability": "view",
      "type": "function"
    },
    {
      "inputs": [],
      "name": "OWNER_ROLE",
      "outputs": [
        {
          "internalType": "bytes32",
          "name": "",
          "type": "bytes32"
        }
      ],
      "stateMutability": "view",
      "type": "function"
    },
    {
      "inputs": [],
      "name": "RATE_SCALING_FACTOR",
      "outputs": [
        {
          "internalType": "uint256",
          "name": "",
          "type": "uint256"
        }
      ],
      "stateMutability": "view",
      "type": "function"
    },
    {
      "inputs": [],
      "name": "amountOwedToOriginator",
      "outputs": [
        {
          "internalType": "uint256",
          "name": "",
          "type": "uint256"
        }
      ],
      "stateMutability": "view",
      "type": "function"
    },
    {
      "inputs": [],
      "name": "checkMinFirstLost",
      "outputs": [
        {
          "internalType": "bool",
          "name": "",
          "type": "bool"
        }
      ],
      "stateMutability": "view",
      "type": "function"
    },
    {
      "inputs": [
        {
          "internalType": "address",
          "name": "recipientWallet",
          "type": "address"
        }
      ],
      "name": "claimCashRemain",
      "outputs": [],
      "stateMutability": "nonpayable",
      "type": "function"
    },
    {
      "inputs": [
        {
          "internalType": "address",
          "name": "tokenAddress",
          "type": "address"
        },
        {
          "internalType": "address",
          "name": "from",
          "type": "address"
        },
        {
          "internalType": "uint256[]",
          "name": "tokenIds",
          "type": "uint256[]"
        }
      ],
      "name": "collectAssets",
      "outputs": [],
      "stateMutability": "nonpayable",
      "type": "function"
    },
    {
      "inputs": [
        {
          "internalType": "address[]",
          "name": "tokenAddresses",
          "type": "address[]"
        },
        {
          "internalType": "address[]",
          "name": "senders",
          "type": "address[]"
        },
        {
          "internalType": "uint256[]",
          "name": "amounts",
          "type": "uint256[]"
        }
      ],
      "name": "collectERC20Assets",
      "outputs": [],
      "stateMutability": "nonpayable",
      "type": "function"
    },
    {
      "inputs": [
        {
          "internalType": "address",
          "name": "tokenAddress",
          "type": "address"
        },
        {
          "internalType": "address",
          "name": "investor",
          "type": "address"
        },
        {
          "internalType": "uint256",
          "name": "currency",
          "type": "uint256"
        },
        {
          "internalType": "uint256",
          "name": "token",
          "type": "uint256"
        }
      ],
      "name": "decreaseLockedDistributeBalance",
      "outputs": [],
      "stateMutability": "nonpayable",
      "type": "function"
    },
    {
      "inputs": [
        {
          "internalType": "uint256",
          "name": "currencyAmount",
          "type": "uint256"
        }
      ],
      "name": "decreaseReserve",
      "outputs": [],
      "stateMutability": "nonpayable",
      "type": "function"
    },
    {
      "inputs": [
        {
          "internalType": "address",
          "name": "",
          "type": "address"
        }
      ],
      "name": "existsTokenAssetAddress",
      "outputs": [
        {
          "internalType": "bool",
          "name": "",
          "type": "bool"
        }
      ],
      "stateMutability": "view",
      "type": "function"
    },
    {
      "inputs": [
        {
          "internalType": "address",
          "name": "tokenAddress",
          "type": "address"
        },
        {
          "internalType": "address",
          "name": "toPoolAddress",
          "type": "address"
        },
        {
          "internalType": "uint256[]",
          "name": "tokenIds",
          "type": "uint256[]"
        }
      ],
      "name": "exportAssets",
      "outputs": [],
      "stateMutability": "nonpayable",
      "type": "function"
    },
    {
      "inputs": [],
      "name": "firstAssetTimestamp",
      "outputs": [
        {
          "internalType": "uint64",
          "name": "",
          "type": "uint64"
        }
      ],
      "stateMutability": "view",
      "type": "function"
    },
    {
      "inputs": [],
      "name": "getInitializedVersion",
      "outputs": [
        {
          "internalType": "uint256",
          "name": "",
          "type": "uint256"
        }
      ],
      "stateMutability": "view",
      "type": "function"
    },
    {
      "inputs": [],
      "name": "getNFTAssetsLength",
      "outputs": [
        {
          "internalType": "uint256",
          "name": "",
          "type": "uint256"
        }
      ],
      "stateMutability": "view",
      "type": "function"
    },
    {
      "inputs": [],
      "name": "getRiskScoresLength",
      "outputs": [
        {
          "internalType": "uint256",
          "name": "",
          "type": "uint256"
        }
      ],
      "stateMutability": "view",
      "type": "function"
    },
    {
      "inputs": [
        {
          "internalType": "bytes32",
          "name": "role",
          "type": "bytes32"
        }
      ],
      "name": "getRoleAdmin",
      "outputs": [
        {
          "internalType": "bytes32",
          "name": "",
          "type": "bytes32"
        }
      ],
      "stateMutability": "view",
      "type": "function"
    },
    {
      "inputs": [
        {
          "internalType": "bytes32",
          "name": "role",
          "type": "bytes32"
        },
        {
          "internalType": "uint256",
          "name": "index",
          "type": "uint256"
        }
      ],
      "name": "getRoleMember",
      "outputs": [
        {
          "internalType": "address",
          "name": "",
          "type": "address"
        }
      ],
      "stateMutability": "view",
      "type": "function"
    },
    {
      "inputs": [
        {
          "internalType": "bytes32",
          "name": "role",
          "type": "bytes32"
        }
      ],
      "name": "getRoleMemberCount",
      "outputs": [
        {
          "internalType": "uint256",
          "name": "",
          "type": "uint256"
        }
      ],
      "stateMutability": "view",
      "type": "function"
    },
    {
      "inputs": [],
      "name": "getTokenAssetAddresses",
      "outputs": [
        {
          "internalType": "address[]",
          "name": "",
          "type": "address[]"
        }
      ],
      "stateMutability": "view",
      "type": "function"
    },
    {
      "inputs": [],
      "name": "getTokenAssetAddressesLength",
      "outputs": [
        {
          "internalType": "uint256",
          "name": "",
          "type": "uint256"
        }
      ],
      "stateMutability": "view",
      "type": "function"
    },
    {
      "inputs": [
        {
          "internalType": "bytes32",
          "name": "role",
          "type": "bytes32"
        },
        {
          "internalType": "address",
          "name": "account",
          "type": "address"
        }
      ],
      "name": "grantRole",
      "outputs": [],
      "stateMutability": "nonpayable",
      "type": "function"
    },
    {
      "inputs": [],
      "name": "hasFinishedRedemption",
      "outputs": [
        {
          "internalType": "bool",
          "name": "",
          "type": "bool"
        }
      ],
      "stateMutability": "view",
      "type": "function"
    },
    {
      "inputs": [
        {
          "internalType": "bytes32",
          "name": "role",
          "type": "bytes32"
        },
        {
          "internalType": "address",
          "name": "account",
          "type": "address"
        }
      ],
      "name": "hasRole",
      "outputs": [
        {
          "internalType": "bool",
          "name": "",
          "type": "bool"
        }
      ],
      "stateMutability": "view",
      "type": "function"
    },
    {
      "inputs": [
        {
          "internalType": "address",
          "name": "tokenAddress",
          "type": "address"
        },
        {
          "internalType": "address",
          "name": "investor",
          "type": "address"
        },
        {
          "internalType": "uint256",
          "name": "currency",
          "type": "uint256"
        },
        {
          "internalType": "uint256",
          "name": "token",
          "type": "uint256"
        }
      ],
      "name": "increaseLockedDistributeBalance",
      "outputs": [],
      "stateMutability": "nonpayable",
      "type": "function"
    },
    {
      "inputs": [
        {
          "internalType": "uint256",
          "name": "currencyAmount",
          "type": "uint256"
        }
      ],
      "name": "increaseReserve",
      "outputs": [],
      "stateMutability": "nonpayable",
      "type": "function"
    },
    {
      "inputs": [
        {
          "internalType": "uint256",
          "name": "amount",
          "type": "uint256"
        }
      ],
      "name": "increaseTotalAssetRepaidCurrency",
      "outputs": [],
      "stateMutability": "nonpayable",
      "type": "function"
    },
    {
      "inputs": [
        {
          "internalType": "contract Registry",
          "name": "_registry",
          "type": "address"
        },
        {
          "internalType": "bytes",
          "name": "params",
          "type": "bytes"
        }
      ],
      "name": "initialize",
      "outputs": [],
      "stateMutability": "nonpayable",
      "type": "function"
    },
    {
      "inputs": [
        {
          "internalType": "address",
          "name": "_tgeAddress",
          "type": "address"
        },
        {
          "internalType": "address",
          "name": "_tokenAddress",
          "type": "address"
        },
        {
          "internalType": "enum Configuration.NOTE_TOKEN_TYPE",
          "name": "_noteType",
          "type": "uint8"
        }
      ],
      "name": "injectTGEAddress",
      "outputs": [],
      "stateMutability": "nonpayable",
      "type": "function"
    },
    {
      "inputs": [],
      "name": "interestRateSOT",
      "outputs": [
        {
          "internalType": "uint32",
          "name": "",
          "type": "uint32"
        }
      ],
      "stateMutability": "view",
      "type": "function"
    },
    {
      "inputs": [],
      "name": "isAdmin",
      "outputs": [
        {
          "internalType": "bool",
          "name": "",
          "type": "bool"
        }
      ],
      "stateMutability": "view",
      "type": "function"
    },
    {
      "inputs": [],
      "name": "isClosedState",
      "outputs": [
        {
          "internalType": "bool",
          "name": "",
          "type": "bool"
        }
      ],
      "stateMutability": "view",
      "type": "function"
    },
    {
      "inputs": [],
      "name": "jotToken",
      "outputs": [
        {
          "internalType": "address",
          "name": "",
          "type": "address"
        }
      ],
      "stateMutability": "view",
      "type": "function"
    },
    {
      "inputs": [
        {
          "internalType": "address",
          "name": "",
          "type": "address"
        }
      ],
      "name": "lastRepayTimestampSOT",
      "outputs": [
        {
          "internalType": "uint256",
          "name": "",
          "type": "uint256"
        }
      ],
      "stateMutability": "view",
      "type": "function"
    },
    {
      "inputs": [
        {
          "internalType": "address",
          "name": "",
          "type": "address"
        },
        {
          "internalType": "address",
          "name": "",
          "type": "address"
        }
      ],
      "name": "lockedDistributeBalances",
      "outputs": [
        {
          "internalType": "uint256",
          "name": "",
          "type": "uint256"
        }
      ],
      "stateMutability": "view",
      "type": "function"
    },
    {
      "inputs": [
        {
          "internalType": "address",
          "name": "",
          "type": "address"
        },
        {
          "internalType": "address",
          "name": "",
          "type": "address"
        }
      ],
      "name": "lockedRedeemBalances",
      "outputs": [
        {
          "internalType": "uint256",
          "name": "",
          "type": "uint256"
        }
      ],
      "stateMutability": "view",
      "type": "function"
    },
    {
      "inputs": [],
      "name": "minFirstLossCushion",
      "outputs": [
        {
          "internalType": "uint32",
          "name": "",
          "type": "uint32"
        }
      ],
      "stateMutability": "view",
      "type": "function"
    },
    {
      "inputs": [
        {
          "internalType": "uint256",
          "name": "",
          "type": "uint256"
        }
      ],
      "name": "nftAssets",
      "outputs": [
        {
          "internalType": "address",
          "name": "tokenAddress",
          "type": "address"
        },
        {
          "internalType": "uint256",
          "name": "tokenId",
          "type": "uint256"
        }
      ],
      "stateMutability": "view",
      "type": "function"
    },
    {
      "inputs": [
        {
          "internalType": "address",
          "name": "",
          "type": "address"
        },
        {
          "internalType": "address",
          "name": "",
          "type": "address"
        },
        {
          "internalType": "uint256",
          "name": "tokenId",
          "type": "uint256"
        },
        {
          "internalType": "bytes",
          "name": "",
          "type": "bytes"
        }
      ],
      "name": "onERC721Received",
      "outputs": [
        {
          "internalType": "bytes4",
          "name": "",
          "type": "bytes4"
        }
      ],
      "stateMutability": "nonpayable",
      "type": "function"
    },
    {
      "inputs": [],
      "name": "openingBlockTimestamp",
      "outputs": [
        {
          "internalType": "uint64",
          "name": "",
          "type": "uint64"
        }
      ],
      "stateMutability": "view",
      "type": "function"
    },
    {
      "inputs": [
        {
          "internalType": "address",
          "name": "",
          "type": "address"
        }
      ],
      "name": "paidInterestAmountSOT",
      "outputs": [
        {
          "internalType": "uint256",
          "name": "",
          "type": "uint256"
        }
      ],
      "stateMutability": "view",
      "type": "function"
    },
    {
      "inputs": [],
      "name": "paidPrincipalAmountSOT",
      "outputs": [
        {
          "internalType": "uint256",
          "name": "",
          "type": "uint256"
        }
      ],
      "stateMutability": "view",
      "type": "function"
    },
    {
      "inputs": [
        {
          "internalType": "address",
          "name": "",
          "type": "address"
        }
      ],
      "name": "paidPrincipalAmountSOTByInvestor",
      "outputs": [
        {
          "internalType": "uint256",
          "name": "",
          "type": "uint256"
        }
      ],
      "stateMutability": "view",
      "type": "function"
    },
    {
      "inputs": [],
      "name": "pause",
      "outputs": [],
      "stateMutability": "nonpayable",
      "type": "function"
    },
    {
      "inputs": [],
      "name": "paused",
      "outputs": [
        {
          "internalType": "bool",
          "name": "",
          "type": "bool"
        }
      ],
      "stateMutability": "view",
      "type": "function"
    },
    {
      "inputs": [],
      "name": "pot",
      "outputs": [
        {
          "internalType": "address",
          "name": "",
          "type": "address"
        }
      ],
      "stateMutability": "view",
      "type": "function"
    },
    {
      "inputs": [],
      "name": "principalAmountSOT",
      "outputs": [
        {
          "internalType": "uint256",
          "name": "",
          "type": "uint256"
        }
      ],
      "stateMutability": "view",
      "type": "function"
    },
    {
      "inputs": [
        {
          "internalType": "address",
          "name": "usr",
          "type": "address"
        },
        {
          "internalType": "address",
          "name": "notesToken",
          "type": "address"
        },
        {
          "internalType": "uint256",
          "name": "currencyAmount",
          "type": "uint256"
        },
        {
          "internalType": "uint256",
          "name": "tokenAmount",
          "type": "uint256"
        }
      ],
      "name": "redeem",
      "outputs": [],
      "stateMutability": "nonpayable",
      "type": "function"
    },
    {
      "inputs": [],
      "name": "registry",
      "outputs": [
        {
          "internalType": "contract Registry",
          "name": "",
          "type": "address"
        }
      ],
      "stateMutability": "view",
      "type": "function"
    },
    {
      "inputs": [
        {
          "internalType": "bytes32",
          "name": "role",
          "type": "bytes32"
        },
        {
          "internalType": "address",
          "name": "account",
          "type": "address"
        }
      ],
      "name": "renounceRole",
      "outputs": [],
      "stateMutability": "nonpayable",
      "type": "function"
    },
    {
      "inputs": [],
      "name": "reserve",
      "outputs": [
        {
          "internalType": "uint256",
          "name": "",
          "type": "uint256"
        }
      ],
      "stateMutability": "view",
      "type": "function"
    },
    {
      "inputs": [
        {
          "internalType": "bytes32",
          "name": "role",
          "type": "bytes32"
        },
        {
          "internalType": "address",
          "name": "account",
          "type": "address"
        }
      ],
      "name": "revokeRole",
      "outputs": [],
      "stateMutability": "nonpayable",
      "type": "function"
    },
    {
      "inputs": [
        {
          "internalType": "uint256",
          "name": "",
          "type": "uint256"
        }
      ],
      "name": "riskScores",
      "outputs": [
        {
          "internalType": "uint32",
          "name": "daysPastDue",
          "type": "uint32"
        },
        {
          "internalType": "uint32",
          "name": "advanceRate",
          "type": "uint32"
        },
        {
          "internalType": "uint32",
          "name": "penaltyRate",
          "type": "uint32"
        },
        {
          "internalType": "uint32",
          "name": "interestRate",
          "type": "uint32"
        },
        {
          "internalType": "uint32",
          "name": "probabilityOfDefault",
          "type": "uint32"
        },
        {
          "internalType": "uint32",
          "name": "lossGivenDefault",
          "type": "uint32"
        },
        {
          "internalType": "uint32",
          "name": "gracePeriod",
          "type": "uint32"
        },
        {
          "internalType": "uint32",
          "name": "collectionPeriod",
          "type": "uint32"
        },
        {
          "internalType": "uint32",
          "name": "writeOffAfterGracePeriod",
          "type": "uint32"
        },
        {
          "internalType": "uint32",
          "name": "writeOffAfterCollectionPeriod",
          "type": "uint32"
        },
        {
          "internalType": "uint32",
          "name": "discountRate",
          "type": "uint32"
        }
      ],
      "stateMutability": "view",
      "type": "function"
    },
    {
      "inputs": [],
      "name": "secondTGEAddress",
      "outputs": [
        {
          "internalType": "address",
          "name": "",
          "type": "address"
        }
      ],
      "stateMutability": "view",
      "type": "function"
    },
    {
      "inputs": [
        {
          "internalType": "uint32",
          "name": "_interestRateSOT",
          "type": "uint32"
        }
      ],
      "name": "setInterestRateForSOT",
      "outputs": [],
      "stateMutability": "nonpayable",
      "type": "function"
    },
    {
      "inputs": [
        {
          "internalType": "address",
          "name": "_pot",
          "type": "address"
        }
      ],
      "name": "setPot",
      "outputs": [],
      "stateMutability": "nonpayable",
      "type": "function"
    },
    {
      "inputs": [
        {
          "internalType": "bytes32",
          "name": "role",
          "type": "bytes32"
        },
        {
          "internalType": "bytes32",
          "name": "adminRole",
          "type": "bytes32"
        }
      ],
      "name": "setRoleAdmin",
      "outputs": [],
      "stateMutability": "nonpayable",
      "type": "function"
    },
    {
      "inputs": [],
      "name": "setUpOpeningBlockTimestamp",
      "outputs": [],
      "stateMutability": "nonpayable",
      "type": "function"
    },
    {
      "inputs": [
        {
          "internalType": "uint32[]",
          "name": "_daysPastDues",
          "type": "uint32[]"
        },
        {
          "internalType": "uint32[]",
          "name": "_ratesAndDefaults",
          "type": "uint32[]"
        },
        {
          "internalType": "uint32[]",
          "name": "_periodsAndWriteOffs",
          "type": "uint32[]"
        }
      ],
      "name": "setupRiskScores",
      "outputs": [],
      "stateMutability": "nonpayable",
      "type": "function"
    },
    {
      "inputs": [],
      "name": "sotToken",
      "outputs": [
        {
          "internalType": "address",
          "name": "",
          "type": "address"
        }
      ],
      "stateMutability": "view",
      "type": "function"
    },
    {
      "inputs": [
        {
          "internalType": "uint64",
          "name": "_termLengthInSeconds",
          "type": "uint64"
        },
        {
          "internalType": "uint256",
          "name": "_principalAmountForSOT",
          "type": "uint256"
        },
        {
          "internalType": "uint32",
          "name": "_interestRateForSOT",
          "type": "uint32"
        },
        {
          "internalType": "uint64",
          "name": "_timeStartEarningInterest",
          "type": "uint64"
        }
      ],
      "name": "startCycle",
      "outputs": [],
      "stateMutability": "nonpayable",
      "type": "function"
    },
    {
      "inputs": [],
      "name": "state",
      "outputs": [
        {
          "internalType": "enum ISecuritizationPool.CycleState",
          "name": "",
          "type": "uint8"
        }
      ],
      "stateMutability": "view",
      "type": "function"
    },
    {
      "inputs": [
        {
          "internalType": "bytes4",
          "name": "interfaceId",
          "type": "bytes4"
        }
      ],
      "name": "supportsInterface",
      "outputs": [
        {
          "internalType": "bool",
          "name": "",
          "type": "bool"
        }
      ],
      "stateMutability": "view",
      "type": "function"
    },
    {
      "inputs": [],
      "name": "termLengthInSeconds",
      "outputs": [
        {
          "internalType": "uint64",
          "name": "",
          "type": "uint64"
        }
      ],
      "stateMutability": "view",
      "type": "function"
    },
    {
      "inputs": [],
      "name": "tgeAddress",
      "outputs": [
        {
          "internalType": "address",
          "name": "",
          "type": "address"
        }
      ],
      "stateMutability": "view",
      "type": "function"
    },
    {
      "inputs": [
        {
          "internalType": "uint256",
          "name": "",
          "type": "uint256"
        }
      ],
      "name": "tokenAssetAddresses",
      "outputs": [
        {
          "internalType": "address",
          "name": "",
          "type": "address"
        }
      ],
      "stateMutability": "view",
      "type": "function"
    },
    {
      "inputs": [],
      "name": "totalAssetRepaidCurrency",
      "outputs": [
        {
          "internalType": "uint256",
          "name": "",
          "type": "uint256"
        }
      ],
      "stateMutability": "view",
      "type": "function"
    },
    {
      "inputs": [],
      "name": "totalLockedDistributeBalance",
      "outputs": [
        {
          "internalType": "uint256",
          "name": "",
          "type": "uint256"
        }
      ],
      "stateMutability": "view",
      "type": "function"
    },
    {
      "inputs": [
        {
          "internalType": "address",
          "name": "",
          "type": "address"
        }
      ],
      "name": "totalLockedRedeemBalances",
      "outputs": [
        {
          "internalType": "uint256",
          "name": "",
          "type": "uint256"
        }
      ],
      "stateMutability": "view",
      "type": "function"
    },
    {
      "inputs": [],
      "name": "totalRedeemedCurrency",
      "outputs": [
        {
          "internalType": "uint256",
          "name": "",
          "type": "uint256"
        }
      ],
      "stateMutability": "view",
      "type": "function"
    },
    {
      "inputs": [],
      "name": "underlyingCurrency",
      "outputs": [
        {
          "internalType": "address",
          "name": "",
          "type": "address"
        }
      ],
      "stateMutability": "view",
      "type": "function"
    },
    {
      "inputs": [],
      "name": "unpause",
      "outputs": [],
      "stateMutability": "nonpayable",
      "type": "function"
    },
    {
      "inputs": [],
      "name": "validatorRequired",
      "outputs": [
        {
          "internalType": "bool",
          "name": "",
          "type": "bool"
        }
      ],
      "stateMutability": "view",
      "type": "function"
    },
    {
      "inputs": [
        {
          "internalType": "uint256",
          "name": "amount",
          "type": "uint256"
        }
      ],
      "name": "withdraw",
      "outputs": [],
      "stateMutability": "nonpayable",
      "type": "function"
    },
    {
      "inputs": [
        {
          "internalType": "address[]",
          "name": "tokenAddresses",
          "type": "address[]"
        },
        {
          "internalType": "uint256[]",
          "name": "tokenIds",
          "type": "uint256[]"
        },
        {
          "internalType": "address[]",
          "name": "recipients",
          "type": "address[]"
        }
      ],
      "name": "withdrawAssets",
      "outputs": [],
      "stateMutability": "nonpayable",
      "type": "function"
    },
    {
      "inputs": [
        {
          "internalType": "address[]",
          "name": "tokenAddresses",
          "type": "address[]"
        },
        {
          "internalType": "address[]",
          "name": "recipients",
          "type": "address[]"
        },
        {
          "internalType": "uint256[]",
          "name": "amounts",
          "type": "uint256[]"
        }
      ],
      "name": "withdrawERC20Assets",
      "outputs": [],
      "stateMutability": "nonpayable",
      "type": "function"
    }
  ],
  "transactionHash": "0x908be600dbf8b7cf0106f52b23dc4b55ad89575873cb6fcc838ac9383b493703",
  "args": [],
  "numDeployments": 1,
  "solcInputHash": "5b516db49a50ba69c1306e409486646b",
  "bytecode": "0x60806040523480156200001157600080fd5b506200001c62000022565b620000e3565b600054610100900460ff16156200008f5760405162461bcd60e51b815260206004820152602760248201527f496e697469616c697a61626c653a20636f6e747261637420697320696e697469604482015266616c697a696e6760c81b606482015260840160405180910390fd5b60005460ff90811614620000e1576000805460ff191660ff9081179091556040519081527f7f26b83ff96e1f2b6a682f133852f6798a09c465da95921460cefb38474024989060200160405180910390a15b565b615c7980620000f36000396000f3fe608060405234801561001057600080fd5b506004361061045f5760003560e01c806370d2f3991161024c578063b6db75a011610146578063d2fad481116100c3578063e2eda54111610087578063e2eda54114610a99578063e58378bb14610aa2578063ed34889514610ab7578063fa3908b114610aca578063febd601814610afc57600080fd5b8063d2fad48114610a36578063d547741f14610a57578063d8ba6f4414610a6a578063dec2858714610a7d578063df076fe014610a9057600080fd5b8063ca15c8731161010a578063ca15c873146109f2578063cb15a13414610a05578063cd3293de14610a0f578063cee7b6a114610a19578063d1f5789414610a2357600080fd5b8063b6db75a014610998578063b8cd9b00146109a0578063bff8a36d146109aa578063c19d93fb146109bd578063c6cb67a6146109df57600080fd5b806390071cf3116101d4578063a217fddf11610198578063a217fddf1461093c578063a6c5954714610944578063ac2a6a3814610957578063ade0ea6d14610983578063b3c650151461098d57600080fd5b806390071cf3146108db5780639010d07c146108ee578063901617051461090157806391d1485414610914578063a125142b1461092757600080fd5b80637da220e61161021b5780637da220e6146108715780637dfbdae21461089d578063815d6ddf146108a75780638456cb59146108ba5780638fd6b71e146108c257600080fd5b806370d2f3991461082c57806375b1bce71461084d57806378d29d55146108555780637b1039991461085d57600080fd5b8063357a03021161035d5780634b552a4a116102e55780635c975abb116102a95780635c975abb146107625780636421cede1461076d578063644b4ead146107825780636456a3ee146107fd5780636ee44c4c1461081157600080fd5b80634b552a4a146106f15780634ba2363a146107045780634bb48586146107185780634be474181461073c5780635b8e62e71461074f57600080fd5b80633d79ab031161032c5780633d79ab031461066c5780633f4ba83a1461069f5780633ffebce4146106a75780634020c8d1146106c8578063477035d1146106dd57600080fd5b8063357a03021461062057806336568abe1461063357806338d9feac146106465780633bf4045f1461065957600080fd5b806320585408116103eb5780632b71b450116103af5780632b71b450146105b75780632bb14ff0146105cb5780632bcc3682146105f15780632e1a7d4d146105fa5780632f2ff15d1461060d57600080fd5b8063205854081461055b578063206c176514610565578063221dc5931461056d578063247fc36314610581578063248a9ca31461059457600080fd5b8063150b7a0211610432578063150b7a02146104d55780631ba6e957146105015780631bf51b70146105225780631e4e0091146105355780631fbf7c3e1461054857600080fd5b806301ffc9a71461046457806306aac7ec1461048c5780630b7792f1146104965780630bc6bffc146104a9575b600080fd5b6104776104723660046150b1565b610b10565b60405190151581526020015b60405180910390f35b610494610b3b565b005b610174545b604051908152602001610483565b610164546104bd906001600160a01b031681565b6040516001600160a01b039091168152602001610483565b6104e86104e3366004615192565b610bc2565b6040516001600160e01b03199091168152602001610483565b61049b61050f3660046151fd565b61016e6020526000908152604090205481565b610494610530366004615265565b610d6c565b6104946105433660046152fe565b6114c6565b610494610556366004615320565b6114e0565b61049b6101685481565b6104776115d5565b610161546104bd906001600160a01b031681565b61049461058f366004615265565b611675565b61049b6105a2366004615320565b600090815260c9602052604090206001015490565b610163546104bd906001600160a01b031681565b610172546105dc9063ffffffff1681565b60405163ffffffff9091168152602001610483565b6101735461049b565b610494610608366004615320565b611a1a565b61049461061b366004615339565b611b6e565b61049461062e366004615369565b611b93565b610494610641366004615339565b611d5e565b6104946106543660046153af565b611ddc565b610494610667366004615265565b61204a565b6101645461068790600160a81b90046001600160401b031681565b6040516001600160401b039091168152602001610483565b61049461234f565b61049b6106b53660046151fd565b6101776020526000908152604090205481565b6101785461047790600160a01b900460ff1681565b61016554610687906001600160401b031681565b6104946106ff366004615413565b612433565b610178546104bd906001600160a01b031681565b6104776107263660046151fd565b6101766020526000908152604090205460ff1681565b61049461074a366004615369565b612699565b61049461075d366004615369565b612983565b60335460ff16610477565b610775612ac0565b6040516104839190615462565b610795610790366004615320565b612b23565b6040805163ffffffff9c8d1681529a8c1660208c0152988b16988a01989098529589166060890152938816608088015291871660a0870152861660c0860152851660e08501528416610100840152831661012083015290911661014082015261016001610483565b610160546104bd906001600160a01b031681565b6101655461068790600160401b90046001600160401b031681565b61049b61083a3660046151fd565b61016a6020526000908152604090205481565b610477612bb1565b610477612d80565b61015f546104bd906001600160a01b031681565b61049b61087f3660046154af565b61016b60209081526000928352604080842090915290825290205481565b61049b6101695481565b6104946108b5366004615504565b612da9565b610494613256565b610172546105dc90640100000000900463ffffffff1681565b6104946108e93660046151fd565b61333a565b6104bd6108fc3660046152fe565b6134c5565b61049461090f366004615320565b6134e4565b610477610922366004615339565b6135d1565b61049b600080516020615c2483398151915281565b61049b600081565b610494610952366004615265565b6135fc565b61049b6109653660046154af565b61016c60209081526000928352604080842090915290825290205481565b61049b6101715481565b60005460ff1661049b565b6104776137ca565b61049b6101705481565b6104946109b8366004615320565b6137e9565b610164546109d290600160a01b900460ff1681565b604051610483919061556d565b6104946109ed366004615587565b613877565b61049b610a00366004615320565b613945565b61049b6101675481565b61049b6101665481565b61049b61016d5481565b610494610a313660046155a4565b61395c565b61049b610a443660046151fd565b61016f6020526000908152604090205481565b610494610a65366004615339565b613d71565b6104bd610a78366004615320565b613d96565b610494610a8b3660046153af565b613dc1565b6101755461049b565b61049b61271081565b61049b600080516020615be483398151915281565b610494610ac53660046151fd565b613fbb565b610add610ad8366004615320565b6142e2565b604080516001600160a01b039093168352602083019190915201610483565b610162546104bd906001600160a01b031681565b6000634f6c902960e01b6001600160e01b031983161480610b355750610b358261431b565b92915050565b610b43614340565b610160546001600160a01b0316336001600160a01b031614610bb85760405162461bcd60e51b8152602060048201526024808201527f53656375726974697a6174696f6e506f6f6c3a204f6e6c7920746765206164646044820152637265737360e01b60648201526084015b60405180910390fd5b610bc0614386565b565b61015f546000903390610bdd906001600160a01b03166144df565b6001600160a01b0316816001600160a01b03161480610c22575061015f54610c0d906001600160a01b03166144ec565b6001600160a01b0316816001600160a01b0316145b610c8c5760405162461bcd60e51b815260206004820152603560248201527f53656375726974697a6174696f6e506f6f6c3a204d75737420626520746f6b656044820152741b881a5cdcdd595908189e48155b9d185b99db1959605a1b6064820152608401610baf565b6040805180820182526001600160a01b038381168083526020808401898152610174805460018101825560009190915294517f19628ef4f1e52435a91694e0b17e2591e7982b96f1883cadfe58900fe74230c4600290960295860180546001600160a01b031916919095161790935591517f19628ef4f1e52435a91694e0b17e2591e7982b96f1883cadfe58900fe74230c590930192909255825191825281018690527ff1c19e8856063adce43b5f307c6ac9d0af46fd0787c590550c51d7cf02d2e5f4910160405180910390a150630a85bd0160e11b95945050505050565b610d74614340565b610d7c612d80565b15610d995760405162461bcd60e51b8152600401610baf906155f3565b61015f54610daf906001600160a01b03166144f9565b6001600160a01b03166391d14854600080516020615c04833981519152336040516001600160e01b031960e085901b16815260048101929092526001600160a01b03166024820152604401602060405180830381865afa158015610e17573d6000803e3d6000fd5b505050506040513d601f19601f82011682018060405250810190610e3b9190615650565b610e955760405162461bcd60e51b815260206004820152602560248201527f53656375726974697a6174696f6e506f6f6c3a204e6f7420616e20706f6f6c2060448201526430b236b4b760d91b6064820152608401610baf565b8483610ea2826006615681565b148015610eb8575081610eb6826004615681565b145b610f2a5760405162461bcd60e51b815260206004820152603860248201527f53656375726974697a6174696f6e506f6f6c3a205269736b73636f726520706160448201527f72616d73206c656e677468206973206e6f7420657175616c00000000000000006064820152608401610baf565b610f376101736000615065565b60005b818110156114bc57801580610fb057508787610f57600184615698565b818110610f6657610f666156ab565b9050602002016020810190610f7b9190615587565b63ffffffff16888883818110610f9357610f936156ab565b9050602002016020810190610fa89190615587565b63ffffffff16115b6110135760405162461bcd60e51b815260206004820152602e60248201527f53656375726974697a6174696f6e506f6f6c3a205269736b2073636f7265732060448201526d1b5d5cdd081899481cdbdc9d195960921b6064820152608401610baf565b6101736040518061016001604052808a8a85818110611034576110346156ab565b90506020020160208101906110499190615587565b63ffffffff168152602001888885818110611066576110666156ab565b905060200201602081019061107b9190615587565b63ffffffff168152602001888861109287876156c1565b8181106110a1576110a16156ab565b90506020020160208101906110b69190615587565b63ffffffff16815260200188886110ce876002615681565b6110d890876156c1565b8181106110e7576110e76156ab565b90506020020160208101906110fc9190615587565b63ffffffff1681526020018888611114876003615681565b61111e90876156c1565b81811061112d5761112d6156ab565b90506020020160208101906111429190615587565b63ffffffff168152602001888861115a876004615681565b61116490876156c1565b818110611173576111736156ab565b90506020020160208101906111889190615587565b63ffffffff1681526020018686858181106111a5576111a56156ab565b90506020020160208101906111ba9190615587565b63ffffffff16815260200186866111d187876156c1565b8181106111e0576111e06156ab565b90506020020160208101906111f59190615587565b63ffffffff168152602001868661120d876002615681565b61121790876156c1565b818110611226576112266156ab565b905060200201602081019061123b9190615587565b63ffffffff1681526020018686611253876003615681565b61125d90876156c1565b81811061126c5761126c6156ab565b90506020020160208101906112819190615587565b63ffffffff1681526020018888611299876005615681565b6112a390876156c1565b8181106112b2576112b26156ab565b90506020020160208101906112c79190615587565b63ffffffff16815250908060018154018082558091505060019003906000526020600020906002020160009091909190915060008201518160000160006101000a81548163ffffffff021916908363ffffffff16021790555060208201518160000160046101000a81548163ffffffff021916908363ffffffff16021790555060408201518160000160086101000a81548163ffffffff021916908363ffffffff160217905550606082015181600001600c6101000a81548163ffffffff021916908363ffffffff16021790555060808201518160000160106101000a81548163ffffffff021916908363ffffffff16021790555060a08201518160000160146101000a81548163ffffffff021916908363ffffffff16021790555060c08201518160000160186101000a81548163ffffffff021916908363ffffffff16021790555060e082015181600001601c6101000a81548163ffffffff021916908363ffffffff1602179055506101008201518160010160006101000a81548163ffffffff021916908363ffffffff1602179055506101208201518160010160046101000a81548163ffffffff021916908363ffffffff1602179055506101408201518160010160086101000a81548163ffffffff021916908363ffffffff16021790555050506114b58160010190565b9050610f3a565b5050505050505050565b60006114d181614506565b6114db8383614510565b505050565b6114e8614340565b61015f546114fe906001600160a01b03166144f9565b6001600160a01b0316336001600160a01b03161480611543575061015f5461152e906001600160a01b031661455b565b6001600160a01b0316336001600160a01b0316145b61155f5760405162461bcd60e51b8152600401610baf906156d4565b806101665461156e91906156c1565b6101665561157a6115d5565b6115965760405162461bcd60e51b8152600401610baf9061574a565b7fb2209630cc27a5f36fad66f0e873c886ed480b2fb7613885f5914d723acd7472610166546040516115ca91815260200190565b60405180910390a150565b61015f5460009081906115f0906001600160a01b0316614568565b604051630129ecc560e61b81523060048201529091506001600160a01b03821690634a7b314090602401602060405180830381865afa158015611637573d6000803e3d6000fd5b505050506040513d601f19601f8201168201806040525081019061165b9190615781565b61017254640100000000900463ffffffff16111592915050565b61167d614340565b611685612d80565b156116a25760405162461bcd60e51b8152600401610baf906155f3565b600080516020615c248339815191526116ba81614506565b8584811480156116c957508483145b61172d5760405162461bcd60e51b815260206004820152602f60248201527f53656375726974697a6174696f6e506f6f6c3a20506172616d73206c656e677460448201526e1a08185c99481b9bdd08195c5d585b608a1b6064820152608401610baf565b60005b818110156118515761015f5461174e906001600160a01b0316614575565b6001600160a01b03166384933c0c8a8a8481811061176e5761176e6156ab565b905060200201602081019061178391906151fd565b6040516001600160e01b031960e084901b1681526001600160a01b039091166004820152602401602060405180830381865afa1580156117c7573d6000803e3d6000fd5b505050506040513d601f19601f820116820180604052508101906117eb9190615650565b6118495760405162461bcd60e51b815260206004820152602960248201527f53656375726974697a6174696f6e506f6f6c3a20756e6b6e6f776e2d746f6b656044820152686e2d6164647265737360b81b6064820152608401610baf565b600101611730565b5060005b818110156118945761188c898983818110611872576118726156ab565b905060200201602081019061188791906151fd565b614582565b600101611855565b5060005b8181101561199b578888828181106118b2576118b26156ab565b90506020020160208101906118c791906151fd565b6001600160a01b03166323b872dd8888848181106118e7576118e76156ab565b90506020020160208101906118fc91906151fd565b3088888681811061190f5761190f6156ab565b905060200201356040518463ffffffff1660e01b81526004016119349392919061579a565b6020604051808303816000875af1158015611953573d6000803e3d6000fd5b505050506040513d601f19601f820116820180604052508101906119779190615650565b6119935760405162461bcd60e51b8152600401610baf906157be565b600101611898565b50610165546001600160401b03166000036119ce57610165805467ffffffffffffffff1916426001600160401b03161790555b610165546040516001600160401b0390911681527faa8cf603b3be24f79f673495c449aa3a2fcec1f484210e1662a1374c3e7f3350906020015b60405180910390a15050505050505050565b611a22614340565b600080516020615c24833981519152611a3a81614506565b61016754808311611a5857611a4f8382615698565b61016755611a5f565b6000610167555b8261016654611a6e9190615698565b61016655611a7a6115d5565b611a965760405162461bcd60e51b8152600401610baf9061574a565b61016454610178546040516323b872dd60e01b81526001600160a01b03928316926323b872dd92611ad0929116903390889060040161579a565b6020604051808303816000875af1158015611aef573d6000803e3d6000fd5b505050506040513d601f19601f82011682018060405250810190611b139190615650565b611b2f5760405162461bcd60e51b8152600401610baf906157be565b60408051338152602081018590527f884edad9ce6fa2440d8a54cc123490eb96d2768479d49ff9c7366125a942436491015b60405180910390a1505050565b600082815260c96020526040902060010154611b8981614506565b6114db8383614645565b611b9b614340565b61015f54611bb1906001600160a01b031661455b565b6001600160a01b0316336001600160a01b031614611be15760405162461bcd60e51b8152600401610baf90615801565b6001600160a01b03808516600090815261016b6020908152604080832093871683529290522054611c139083906156c1565b6001600160a01b03808616600081815261016b602090815260408083209489168084529482528083209590955591815261016c82528381209281529190522054611c5e9082906156c1565b6001600160a01b03808616600090815261016c602090815260408083209388168352929052205561016954611c949083906156c1565b610169556001600160a01b038416600090815261016a6020526040902054611cbd9082906156c1565b6001600160a01b03858116600081815261016a6020818152604080842087905561016b8252808420958a168085529582528084205485855261016c8352818520878652835281852054948690529282526101695481519384529183019390935291810194909452606084015290917f39430af7b34e28c66cbb85c8f60111d96c000a66b7c66f2793709e7f0b9af2dd9060800160405180910390a350505050565b6001600160a01b0381163314611dce5760405162461bcd60e51b815260206004820152602f60248201527f416363657373436f6e74726f6c3a2063616e206f6e6c792072656e6f756e636560448201526e103937b632b9903337b91039b2b63360891b6064820152608401610baf565b611dd88282614667565b5050565b611de4614340565b600080516020615c24833981519152611dfc81614506565b8160005b81811015611e9357866001600160a01b03166342842e0e8730888886818110611e2b57611e2b6156ab565b905060200201356040518463ffffffff1660e01b8152600401611e509392919061579a565b600060405180830381600087803b158015611e6a57600080fd5b505af1158015611e7e573d6000803e3d6000fd5b50505050611e8c8160010190565b9050611e00565b5061015f546000908190611eaf906001600160a01b0316614568565b905060005b83811015611f7757816001600160a01b03166319c03937308b8a8a86818110611edf57611edf6156ab565b6040516001600160e01b031960e088901b1681526001600160a01b03958616600482015294909316602485015250602090910201356044820152426064820152608401602060405180830381865afa158015611f3f573d6000803e3d6000fd5b505050506040513d601f19601f82011682018060405250810190611f639190615781565b611f6d90846156c1565b9250600101611eb4565b50816101676000828254611f8b91906156c1565b909155505061016454600160a81b90046001600160401b0316600003611fd957610164805467ffffffffffffffff60a81b1916600160a81b426001600160401b031602179055611fd9614386565b610165546001600160401b031660000361200b57610165805467ffffffffffffffff1916426001600160401b03161790555b604080516001600160a01b0389168152602081018490527f8fe20ffada4d9ccf074a33397d222919da2efb5f843f88fa560b4e00d6ad3a8d9101611a08565b612052614340565b61205a614689565b61015f54612070906001600160a01b03166144f9565b6001600160a01b03166391d14854600080516020615c04833981519152336040516001600160e01b031960e085901b16815260048101929092526001600160a01b03166024820152604401602060405180830381865afa1580156120d8573d6000803e3d6000fd5b505050506040513d601f19601f820116820180604052508101906120fc9190615650565b8061211a575061211a600080516020615be4833981519152336135d1565b6121365760405162461bcd60e51b8152600401610baf9061584e565b848381146121565760405162461bcd60e51b8152600401610baf906158a1565b8082146121755760405162461bcd60e51b8152600401610baf906158fe565b60005b8181101561233b576101766000898984818110612197576121976156ab565b90506020020160208101906121ac91906151fd565b6001600160a01b0316815260208101919091526040016000205460ff166122315760405162461bcd60e51b815260206004820152603360248201527f53656375726974697a6174696f6e506f6f6c3a206e6f746520746f6b656e20616044820152721cdcd95d08191bd95cc81b9bdd08195e1a5cdd606a1b6064820152608401610baf565b878782818110612243576122436156ab565b905060200201602081019061225891906151fd565b6001600160a01b031663a9059cbb878784818110612278576122786156ab565b905060200201602081019061228d91906151fd565b86868581811061229f5761229f6156ab565b6040516001600160e01b031960e087901b1681526001600160a01b03909416600485015260200291909101356024830152506044016020604051808303816000875af11580156122f3573d6000803e3d6000fd5b505050506040513d601f19601f820116820180604052508101906123179190615650565b6123335760405162461bcd60e51b8152600401610baf906157be565b600101612178565b50506123476001606555565b505050505050565b61015f54612365906001600160a01b03166144f9565b6001600160a01b03166391d14854600080516020615c04833981519152336040516001600160e01b031960e085901b16815260048101929092526001600160a01b03166024820152604401602060405180830381865afa1580156123cd573d6000803e3d6000fd5b505050506040513d601f19601f820116820180604052508101906123f19190615650565b8061240f575061240f600080516020615be4833981519152336135d1565b61242b5760405162461bcd60e51b8152600401610baf9061584e565b610bc06146e9565b61243b614340565b61015f54612451906001600160a01b03166144f9565b6001600160a01b0316336001600160a01b0316146124c85760405162461bcd60e51b815260206004820152602e60248201527f53656375726974697a6174696f6e506f6f6c3a204f6e6c79205365637572697460448201526d34bd30ba34b7b726b0b730b3b2b960911b6064820152608401610baf565b600261016454600160a01b900460ff1660038111156124e9576124e9615557565b141580156125165750600361016454600160a01b900460ff16600381111561251357612513615557565b14155b6125625760405162461bcd60e51b815260206004820152601a60248201527f4e6f7420696e2069737375696e6720746f6b656e2073746167650000000000006044820152606401610baf565b6001600160a01b0383161580159061258257506001600160a01b03821615155b6125ce5760405162461bcd60e51b815260206004820181905260248201527f53656375726974697a6174696f6e506f6f6c3a2041646472657373207a65726f6044820152606401610baf565b60008160018111156125e2576125e2615557565b0361261e5761016080546001600160a01b038086166001600160a01b031992831617909255610162805492851692909116919091179055612651565b61016180546001600160a01b038086166001600160a01b0319928316179092556101638054928516929091169190911790555b610164805460ff60a01b1916600160a01b1790556040517fba1ffbd8eaf48d438173faf4a6bbea0b6d4af272704b2d21e5b7c46f9dd3643390611b619085908590859061595b565b6126a1614340565b6126a9614689565b61015f546126bf906001600160a01b031661473b565b6001600160a01b0316336001600160a01b03161461273e5760405162461bcd60e51b815260206004820152603660248201527f53656375726974697a6174696f6e506f6f6c3a2043616c6c6572206d75737420604482015275626520446973747269627574696f6e5472616e63686560501b6064820152608401610baf565b610162546001600160a01b038085169116036127c1576001600160a01b038416600090815261017760205260408120805484929061277d9084906156c1565b90915550506040518281526001600160a01b038516907fc0144ef36fd10fb8ddd0407064f49c178804e65e0be62a7ba62de079401baa189060200160405180910390a25b81610166546127d09190615698565b61016655801561283557604051630852cd8d60e31b8152600481018290526001600160a01b038416906342966c6890602401600060405180830381600087803b15801561281c57600080fd5b505af1158015612830573d6000803e3d6000fd5b505050505b61283d6115d5565b6128595760405162461bcd60e51b8152600401610baf9061574a565b61016454610178546040516323b872dd60e01b81526001600160a01b03928316926323b872dd92612893929116908890879060040161579a565b6020604051808303816000875af11580156128b2573d6000803e3d6000fd5b505050506040513d601f19601f820116820180604052508101906128d69190615650565b6129375760405162461bcd60e51b815260206004820152602c60248201527f53656375726974697a6174696f6e506f6f6c3a2063757272656e63792d74726160448201526b1b9cd9995c8b59985a5b195960a21b6064820152608401610baf565b7fb2209630cc27a5f36fad66f0e873c886ed480b2fb7613885f5914d723acd74726101665460405161296b91815260200190565b60405180910390a161297d6001606555565b50505050565b61298b614340565b61015f546129a1906001600160a01b031661455b565b6001600160a01b0316336001600160a01b0316146129d15760405162461bcd60e51b8152600401610baf90615801565b6001600160a01b03808516600090815261016b6020908152604080832093871683529290522054612a03908390615698565b6001600160a01b03808616600081815261016b602090815260408083209489168084529482528083209590955591815261016c82528381209281529190522054612a4e908290615698565b6001600160a01b03808616600090815261016c602090815260408083209388168352929052205561016954612a84908390615698565b6101695561016854612a979083906156c1565b610168556001600160a01b038416600090815261016a6020526040902054611cbd908290615698565b6060610175805480602002602001604051908101604052809291908181526020018280548015612b1957602002820191906000526020600020905b81546001600160a01b03168152600190910190602001808311612afb575b5050505050905090565b6101738181548110612b3457600080fd5b60009182526020909120600290910201805460019091015463ffffffff8083169350640100000000808404821693600160401b808204841694600160601b8304851694600160801b8404811694600160a01b8504821694600160c01b8104831694600160e01b90910483169380841693928104831692919004168b565b610162546000906001600160a01b031615612c975761016260009054906101000a90046001600160a01b03166001600160a01b03166318160ddd6040518163ffffffff1660e01b8152600401602060405180830381865afa158015612c1a573d6000803e3d6000fd5b505050506040513d601f19601f82011682018060405250810190612c3e9190615781565b15612c975760405162461bcd60e51b8152602060048201526024808201527f53656375726974697a6174696f6e506f6f6c3a20534f54207374696c6c20726560448201526336b0b4b760e11b6064820152608401610baf565b610163546001600160a01b031615612d7a5761016360009054906101000a90046001600160a01b03166001600160a01b03166318160ddd6040518163ffffffff1660e01b8152600401602060405180830381865afa158015612cfd573d6000803e3d6000fd5b505050506040513d601f19601f82011682018060405250810190612d219190615781565b15612d7a5760405162461bcd60e51b8152602060048201526024808201527f53656375726974697a6174696f6e506f6f6c3a204a4f54207374696c6c20726560448201526336b0b4b760e11b6064820152608401610baf565b50600190565b6000600361016454600160a01b900460ff166003811115612da357612da3615557565b14905090565b612db1614340565b612db9614689565b600080516020615be4833981519152612dd181614506565b600261016454600160a01b900460ff166003811115612df257612df2615557565b14158015612e1f5750600361016454600160a01b900460ff166003811115612e1c57612e1c615557565b14155b612e6b5760405162461bcd60e51b815260206004820152601a60248201527f4e6f7420696e2069737375696e6720746f6b656e2073746167650000000000006044820152606401610baf565b6000856001600160401b031611612ed05760405162461bcd60e51b8152602060048201526024808201527f53656375726974697a6174696f6e506f6f6c3a205465726d206c656e677468206044820152630697320360e41b6064820152608401610baf565b61016580546fffffffffffffffff00000000000000001916600160401b6001600160401b03881602179055610170849055610164805460ff60a01b1916600160a11b179055610160546001600160a01b0316156130f157610160546040516351c5295360e11b815263ffffffff851660048201526001600160401b038088166024830152841660448201526001600160a01b0390911690819063a38a52a690606401600060405180830381600087803b158015612f8c57600080fd5b505af1158015612fa0573d6000803e3d6000fd5b50505050806001600160a01b031663b3f05b976040518163ffffffff1660e01b8152600401602060405180830381865afa158015612fe2573d6000803e3d6000fd5b505050506040513d601f19601f820116820180604052508101906130069190615650565b6130725761017854604051632b8093bd60e01b8152600060048201526001600160a01b03918216602482015290821690632b8093bd90604401600060405180830381600087803b15801561305957600080fd5b505af115801561306d573d6000803e3d6000fd5b505050505b806001600160a01b0316631f0b10c56040518163ffffffff1660e01b8152600401602060405180830381865afa1580156130b0573d6000803e3d6000fd5b505050506040513d601f19601f820116820180604052508101906130d49190615991565b610172805463ffffffff191663ffffffff92909216919091179055505b610161546001600160a01b03161561324b576101615461017854604051632b8093bd60e01b8152600060048201526001600160a01b039182166024820152911690632b8093bd90604401600060405180830381600087803b15801561315557600080fd5b505af1158015613169573d6000803e3d6000fd5b5050505061016160009054906101000a90046001600160a01b03166001600160a01b031663b3f05b976040518163ffffffff1660e01b8152600401602060405180830381865afa1580156131c1573d6000803e3d6000fd5b505050506040513d601f19601f820116820180604052508101906131e59190615650565b61324b5760405162461bcd60e51b815260206004820152603160248201527f53656375726974697a6174696f6e506f6f6c3a207365636f6e642073616c65206044820152706973207374696c6c206f6e20676f696e6760781b6064820152608401610baf565b5061297d6001606555565b61015f5461326c906001600160a01b03166144f9565b6001600160a01b03166391d14854600080516020615c04833981519152336040516001600160e01b031960e085901b16815260048101929092526001600160a01b03166024820152604401602060405180830381865afa1580156132d4573d6000803e3d6000fd5b505050506040513d601f19601f820116820180604052508101906132f89190615650565b806133165750613316600080516020615be4833981519152336135d1565b6133325760405162461bcd60e51b8152600401610baf9061584e565b610bc0614748565b613342614340565b600080516020615be483398151915261335a81614506565b613362612bb1565b6133c65760405162461bcd60e51b815260206004820152602f60248201527f53656375726974697a6174696f6e506f6f6c3a20526564656d7074696f6e206860448201526e185cc81b9bdd08199a5b9a5cda1959608a1b6064820152608401610baf565b61016454610178546040516370a0823160e01b81526001600160a01b0391821660048201819052919092169182916323b872dd91869084906370a0823190602401602060405180830381865afa158015613424573d6000803e3d6000fd5b505050506040513d601f19601f820116820180604052508101906134489190615781565b6040518463ffffffff1660e01b81526004016134669392919061579a565b6020604051808303816000875af1158015613485573d6000803e3d6000fd5b505050506040513d601f19601f820116820180604052508101906134a99190615650565b6114db5760405162461bcd60e51b8152600401610baf906157be565b600082815260fb602052604081206134dd9083614785565b9392505050565b6134ec614340565b61015f54613502906001600160a01b0316614791565b6001600160a01b0316336001600160a01b0316146135775760405162461bcd60e51b815260206004820152602c60248201527f53656375726974697a6174696f6e506f6f6c3a204f6e6c79204c6f616e52657060448201526b30bcb6b2b73a2937baba32b960a11b6064820152608401610baf565b806101665461358691906156c1565b6101665561016d546135999082906156c1565b61016d55610166546040519081527fb2209630cc27a5f36fad66f0e873c886ed480b2fb7613885f5914d723acd7472906020016115ca565b600091825260c9602090815260408084206001600160a01b0393909316845291905290205460ff1690565b613604614340565b61360c614689565b600080516020615be483398151915261362481614506565b838681146136445760405162461bcd60e51b8152600401610baf906158a1565b8683146136635760405162461bcd60e51b8152600401610baf906158fe565b60005b818110156136da576136b6898983818110613683576136836156ab565b905060200201602081019061369891906151fd565b8888848181106136aa576136aa6156ab565b9050602002013561479e565b6136d25760405162461bcd60e51b8152600401610baf906159ae565b600101613666565b5060005b818110156137bd578888828181106136f8576136f86156ab565b905060200201602081019061370d91906151fd565b6001600160a01b03166342842e0e3087878581811061372e5761372e6156ab565b905060200201602081019061374391906151fd565b8a8a86818110613755576137556156ab565b905060200201356040518463ffffffff1660e01b815260040161377a9392919061579a565b600060405180830381600087803b15801561379457600080fd5b505af11580156137a8573d6000803e3d6000fd5b505050506137b68160010190565b90506136de565b5050506123476001606555565b60006137e4600080516020615be4833981519152336135d1565b905090565b6137f1614340565b61015f54613807906001600160a01b03166144f9565b6001600160a01b0316336001600160a01b0316148061384c575061015f54613837906001600160a01b031661455b565b6001600160a01b0316336001600160a01b0316145b6138685760405162461bcd60e51b8152600401610baf906156d4565b806101665461156e9190615698565b61387f614340565b610160546001600160a01b0316336001600160a01b0316146138fc5760405162461bcd60e51b815260206004820152603060248201527f53656375726974697a6174696f6e506f6f6c3a204f6e6c79207467652063616e60448201526f081d5c19185d19481a5b9d195c995cdd60821b6064820152608401610baf565b610172805463ffffffff191663ffffffff83169081179091556040519081527fe385e840d39f98b4644053fb8bba00d8b54f9bc4cdff1b3c4951aa22cb1fdb47906020016115ca565b600081815260fb60205260408120610b3590614844565b600054610100900460ff161580801561397c5750600054600160ff909116105b806139965750303b158015613996575060005460ff166001145b6139f95760405162461bcd60e51b815260206004820152602e60248201527f496e697469616c697a61626c653a20636f6e747261637420697320616c72656160448201526d191e481a5b9a5d1a585b1a5e995960921b6064820152608401610baf565b6000805460ff191660011790558015613a1c576000805461ff0019166101001790555b600082806020019051810190613a3291906159f6565b9050613a416127106064615681565b816020015163ffffffff1610613aa95760405162461bcd60e51b815260206004820152602760248201527f6d696e46697273744c6f737343757368696f6e20697320677265617465722074604482015266068616e203130360cc1b6064820152608401610baf565b80516001600160a01b0316613b0c5760405162461bcd60e51b8152602060048201526024808201527f53656375726974697a6174696f6e506f6f6c3a20496e76616c69642063757272604482015263656e637960e01b6064820152608401610baf565b613b153361484e565b613b3b600080516020615c24833981519152600080516020615be4833981519152614510565b61015f80546001600160a01b038681166001600160a01b0319909216919091179091556101648054835183166001600160a81b031991821681179092556020840151610172805463ffffffff9092166401000000000267ffffffff000000001990921691909117905561017880546040808701511515600160a01b023060ff60a01b191692909416919091179290921790819055905163095ea7b360e01b81529216600483015260001960248301529063095ea7b3906044016020604051808303816000875af1158015613c13573d6000803e3d6000fd5b505050506040513d601f19601f82011682018060405250810190613c379190615650565b613c985760405162461bcd60e51b815260206004820152602c60248201527f53656375726974697a6174696f6e506f6f6c3a2043757272656e63792061707060448201526b1c9bdd985b0819985a5b195960a21b6064820152608401610baf565b61015f54613cae906001600160a01b03166144ec565b61015f546001600160a01b039182169163a22cb46591613cce9116614896565b6040516001600160e01b031960e084901b1681526001600160a01b03909116600482015260016024820152604401600060405180830381600087803b158015613d1657600080fd5b505af1158015613d2a573d6000803e3d6000fd5b505050505080156114db576000805461ff0019169055604051600181527f7f26b83ff96e1f2b6a682f133852f6798a09c465da95921460cefb384740249890602001611b61565b600082815260c96020526040902060010154613d8c81614506565b6114db8383614667565b6101758181548110613da757600080fd5b6000918252602090912001546001600160a01b0316905081565b613dc9614340565b613dd1614689565b613dd9612d80565b15613df65760405162461bcd60e51b8152600401610baf906155f3565b61015f54613e0c906001600160a01b03166144f9565b6001600160a01b03166391d14854600080516020615c04833981519152336040516001600160e01b031960e085901b16815260048101929092526001600160a01b03166024820152604401602060405180830381865afa158015613e74573d6000803e3d6000fd5b505050506040513d601f19601f82011682018060405250810190613e989190615650565b80613eb65750613eb6600080516020615be4833981519152336135d1565b613ed25760405162461bcd60e51b8152600401610baf9061584e565b8060005b81811015613f1857613ef4868585848181106136aa576136aa6156ab565b613f105760405162461bcd60e51b8152600401610baf906159ae565b600101613ed6565b5060005b81811015613faf57856001600160a01b03166342842e0e3087878786818110613f4757613f476156ab565b905060200201356040518463ffffffff1660e01b8152600401613f6c9392919061579a565b600060405180830381600087803b158015613f8657600080fd5b505af1158015613f9a573d6000803e3d6000fd5b50505050613fa88160010190565b9050613f1c565b505061297d6001606555565b613fc3614340565b613fcb614689565b613fd3612d80565b15613ff05760405162461bcd60e51b8152600401610baf906155f3565b61015f54614006906001600160a01b03166144f9565b6001600160a01b03166391d14854600080516020615c04833981519152336040516001600160e01b031960e085901b16815260048101929092526001600160a01b03166024820152604401602060405180830381865afa15801561406e573d6000803e3d6000fd5b505050506040513d601f19601f820116820180604052508101906140929190615650565b806140b057506140b0600080516020615be4833981519152336135d1565b6140cc5760405162461bcd60e51b8152600401610baf9061584e565b6140e4600080516020615be4833981519152826135d1565b156140ee57600080fd5b610178546001600160a01b038083169116036141665760405162461bcd60e51b815260206004820152603160248201527f53656375726974697a6174696f6e506f6f6c3a2053616d652061646472657373604482015270081dda5d1a0818dd5c9c995b9d081c1bdd607a1b6064820152608401610baf565b61017880546001600160a01b0319166001600160a01b03831690811790915530900361426057610164546101785460405163095ea7b360e01b81526001600160a01b039182166004820152600019602482015291169063095ea7b3906044016020604051808303816000875af11580156141e4573d6000803e3d6000fd5b505050506040513d601f19601f820116820180604052508101906142089190615650565b6142605760405162461bcd60e51b8152602060048201526024808201527f53656375726974697a6174696f6e506f6f6c3a20506f74206e6f7420617070726044820152631bdd995960e21b6064820152608401610baf565b61015f54614276906001600160a01b03166144f9565b6101785460405163dc90f9fd60e01b81526001600160a01b03918216600482015291169063dc90f9fd90602401600060405180830381600087803b1580156142bd57600080fd5b505af11580156142d1573d6000803e3d6000fd5b505050506142df6001606555565b50565b61017481815481106142f357600080fd5b6000918252602090912060029091020180546001909101546001600160a01b03909116915082565b60006001600160e01b03198216635a05180f60e01b1480610b355750610b35826148a3565b60335460ff1615610bc05760405162461bcd60e51b815260206004820152601060248201526f14185d5cd8589b194e881c185d5cd95960821b6044820152606401610baf565b610160546001600160a01b031661439957565b6101605460408051639b52fe3360e01b815290516000926001600160a01b031691639b52fe339160048083019260209291908290030181865afa1580156143e4573d6000803e3d6000fd5b505050506040513d601f19601f820116820180604052508101906144089190615a65565b610164549091506001600160401b03600160a81b90910481169082161580159061443b57506000816001600160401b0316115b1561449a57816001600160401b0316816001600160401b0316111561447c57610165805467ffffffffffffffff19166001600160401b03831617905561449a565b610165805467ffffffffffffffff19166001600160401b0384161790555b610165546040516001600160401b0390911681527faa8cf603b3be24f79f673495c449aa3a2fcec1f484210e1662a1374c3e7f33509060200160405180910390a15050565b6000610b358260096148d8565b6000610b358260086148d8565b6000610b358260006148d8565b6142df813361495d565b600082815260c96020526040808220600101805490849055905190918391839186917fbd79b86ffe0ab8e8776151514217cd7cacd52c909f66475c3af44e129f0b00ff9190a4505050565b6000610b358260056148d8565b6000610b358260116148d8565b6000610b358260026148d8565b6001600160a01b0381166000908152610176602052604090205460ff166145f05761017580546001810182556000919091527f94b016e6b5eafb28c9d47c3523378ec087cc0ead8b7eff2840605504c1f1ac6f0180546001600160a01b0319166001600160a01b0383161790555b6001600160a01b03811660008181526101766020908152604091829020805460ff1916600117905590519182527fa3087e474cce8eb102998561afda3e856fc0f9a515a80d128775eaa3c7269adc91016115ca565b61464f82826149b6565b600082815260fb602052604090206114db9082614a3c565b6146718282614a51565b600082815260fb602052604090206114db9082614ab8565b6002606554036146db5760405162461bcd60e51b815260206004820152601f60248201527f5265656e7472616e637947756172643a207265656e7472616e742063616c6c006044820152606401610baf565b6002606555565b6001606555565b6146f1614acd565b6033805460ff191690557f5db9ee0a495bf2e6ff9c91a7834c1ba4fdd244a5e8aa4e537bd38aeae4b073aa335b6040516001600160a01b03909116815260200160405180910390a1565b6000610b358260076148d8565b614750614340565b6033805460ff191660011790557f62e78cea01bee320cd4e420270b5ea74000d11b0c9f74754ebdbfc544b05a25861471e3390565b60006134dd8383614b16565b6000610b3582600c6148d8565b61017454600090815b8181101561483957846001600160a01b031661017482815481106147cd576147cd6156ab565b60009182526020909120600290910201546001600160a01b03161480156148185750836101748281548110614804576148046156ab565b906000526020600020906002020160010154145b156148315761482681614b40565b600192505050610b35565b6001016147a7565b506000949350505050565b6000610b35825490565b600054610100900460ff166148755760405162461bcd60e51b8152600401610baf90615a82565b61487d614c78565b614885614cab565b61488d614cd2565b6142df81614cf9565b6000610b3582600d6148d8565b60006001600160e01b03198216637965db0b60e01b1480610b3557506301ffc9a760e01b6001600160e01b0319831614610b35565b6000826001600160a01b031663bcaa0c558360198111156148fb576148fb615557565b6040516001600160e01b031960e084901b16815260ff9091166004820152602401602060405180830381865afa158015614939573d6000803e3d6000fd5b505050506040513d601f19601f820116820180604052508101906134dd9190615acd565b61496782826135d1565b611dd85761497481614d6c565b61497f836020614d7e565b604051602001614990929190615b0e565b60408051601f198184030181529082905262461bcd60e51b8252610baf91600401615b83565b6149c082826135d1565b611dd857600082815260c9602090815260408083206001600160a01b03851684529091529020805460ff191660011790556149f83390565b6001600160a01b0316816001600160a01b0316837f2f8788117e7eff1d82e926ec794901d17c78024a50270940304540a733656f0d60405160405180910390a45050565b60006134dd836001600160a01b038416614f19565b614a5b82826135d1565b15611dd857600082815260c9602090815260408083206001600160a01b0385168085529252808320805460ff1916905551339285917ff6391f5c32d9c69d2a47ea670b442974b53935d1edc7fd64eb21e047a839171b9190a45050565b60006134dd836001600160a01b038416614f68565b60335460ff16610bc05760405162461bcd60e51b815260206004820152601460248201527314185d5cd8589b194e881b9bdd081c185d5cd95960621b6044820152606401610baf565b6000826000018281548110614b2d57614b2d6156ab565b9060005260206000200154905092915050565b6101748054614b5190600190615698565b81548110614b6157614b616156ab565b90600052602060002090600202016101748281548110614b8357614b836156ab565b600091825260208220835460029092020180546001600160a01b0319166001600160a01b0390921691909117815560019283015490830155610174805491929091614bce9190615698565b81548110614bde57614bde6156ab565b600091825260209182902060029091020180546001820154604080516001600160a01b039093168352938201529092507f2f2c2bbbba2dd1f6074fbdaeda0589f21b3082690049df4802b1d0ed745746e0910160405180910390a1610174805480614c4b57614c4b615bb6565b60008281526020812060026000199093019283020180546001600160a01b03191681556001015590555050565b600054610100900460ff16614c9f5760405162461bcd60e51b8152600401610baf90615a82565b6033805460ff19169055565b600054610100900460ff166146e25760405162461bcd60e51b8152600401610baf90615a82565b600054610100900460ff16610bc05760405162461bcd60e51b8152600401610baf90615a82565b600054610100900460ff16614d205760405162461bcd60e51b8152600401610baf90615a82565b6001600160a01b038116614d315750335b614d3c60003361505b565b614d54600080516020615be48339815191528261505b565b6142df600080516020615be483398151915280614510565b6060610b356001600160a01b03831660145b60606000614d8d836002615681565b614d989060026156c1565b6001600160401b03811115614daf57614daf6150f0565b6040519080825280601f01601f191660200182016040528015614dd9576020820181803683370190505b509050600360fc1b81600081518110614df457614df46156ab565b60200101906001600160f81b031916908160001a905350600f60fb1b81600181518110614e2357614e236156ab565b60200101906001600160f81b031916908160001a9053506000614e47846002615681565b614e529060016156c1565b90505b6001811115614eca576f181899199a1a9b1b9c1cb0b131b232b360811b85600f1660108110614e8657614e866156ab565b1a60f81b828281518110614e9c57614e9c6156ab565b60200101906001600160f81b031916908160001a90535060049490941c93614ec381615bcc565b9050614e55565b5083156134dd5760405162461bcd60e51b815260206004820181905260248201527f537472696e67733a20686578206c656e67746820696e73756666696369656e746044820152606401610baf565b6000818152600183016020526040812054614f6057508154600181810184556000848152602080822090930184905584548482528286019093526040902091909155610b35565b506000610b35565b60008181526001830160205260408120548015615051576000614f8c600183615698565b8554909150600090614fa090600190615698565b9050818114615005576000866000018281548110614fc057614fc06156ab565b9060005260206000200154905080876000018481548110614fe357614fe36156ab565b6000918252602080832090910192909255918252600188019052604090208390555b855486908061501657615016615bb6565b600190038181906000526020600020016000905590558560010160008681526020019081526020016000206000905560019350505050610b35565b6000915050610b35565b611dd88282614645565b50805460008255600202906000526020600020908101906142df91905b808211156150ad57600081556001810180546bffffffffffffffffffffffff19169055600201615082565b5090565b6000602082840312156150c357600080fd5b81356001600160e01b0319811681146134dd57600080fd5b6001600160a01b03811681146142df57600080fd5b634e487b7160e01b600052604160045260246000fd5b600082601f83011261511757600080fd5b81356001600160401b0380821115615131576151316150f0565b604051601f8301601f19908116603f01168101908282118183101715615159576151596150f0565b8160405283815286602085880101111561517257600080fd5b836020870160208301376000602085830101528094505050505092915050565b600080600080608085870312156151a857600080fd5b84356151b3816150db565b935060208501356151c3816150db565b92506040850135915060608501356001600160401b038111156151e557600080fd5b6151f187828801615106565b91505092959194509250565b60006020828403121561520f57600080fd5b81356134dd816150db565b60008083601f84011261522c57600080fd5b5081356001600160401b0381111561524357600080fd5b6020830191508360208260051b850101111561525e57600080fd5b9250929050565b6000806000806000806060878903121561527e57600080fd5b86356001600160401b038082111561529557600080fd5b6152a18a838b0161521a565b909850965060208901359150808211156152ba57600080fd5b6152c68a838b0161521a565b909650945060408901359150808211156152df57600080fd5b506152ec89828a0161521a565b979a9699509497509295939492505050565b6000806040838503121561531157600080fd5b50508035926020909101359150565b60006020828403121561533257600080fd5b5035919050565b6000806040838503121561534c57600080fd5b82359150602083013561535e816150db565b809150509250929050565b6000806000806080858703121561537f57600080fd5b843561538a816150db565b9350602085013561539a816150db565b93969395505050506040820135916060013590565b600080600080606085870312156153c557600080fd5b84356153d0816150db565b935060208501356153e0816150db565b925060408501356001600160401b038111156153fb57600080fd5b6154078782880161521a565b95989497509550505050565b60008060006060848603121561542857600080fd5b8335615433816150db565b92506020840135615443816150db565b915060408401356002811061545757600080fd5b809150509250925092565b6020808252825182820181905260009190848201906040850190845b818110156154a35783516001600160a01b03168352928401929184019160010161547e565b50909695505050505050565b600080604083850312156154c257600080fd5b82356154cd816150db565b9150602083013561535e816150db565b6001600160401b03811681146142df57600080fd5b63ffffffff811681146142df57600080fd5b6000806000806080858703121561551a57600080fd5b8435615525816154dd565b935060208501359250604085013561553c816154f2565b9150606085013561554c816154dd565b939692955090935050565b634e487b7160e01b600052602160045260246000fd5b602081016004831061558157615581615557565b91905290565b60006020828403121561559957600080fd5b81356134dd816154f2565b600080604083850312156155b757600080fd5b82356155c2816150db565b915060208301356001600160401b038111156155dd57600080fd5b6155e985828601615106565b9150509250929050565b60208082526028908201527f53656375726974697a6174696f6e506f6f6c3a20506f6f6c20696e20636c6f73604082015267656420737461746560c01b606082015260800190565b8051801515811461564b57600080fd5b919050565b60006020828403121561566257600080fd5b6134dd8261563b565b634e487b7160e01b600052601160045260246000fd5b8082028115828204841417610b3557610b3561566b565b81810381811115610b3557610b3561566b565b634e487b7160e01b600052603260045260246000fd5b80820180821115610b3557610b3561566b565b60208082526050908201527f53656375726974697a6174696f6e506f6f6c3a2043616c6c6572206d7573742060408201527f62652053656375726974697a6174696f6e4d616e61676572206f72204469737460608201526f3934b13aba34b7b727b832b930ba37b960811b608082015260a00190565b6020808252601d908201527f4d696e46697273744c6f7373206973206e6f7420736174697366696564000000604082015260600190565b60006020828403121561579357600080fd5b5051919050565b6001600160a01b039384168152919092166020820152604081019190915260600190565b60208082526023908201527f53656375726974697a6174696f6e506f6f6c3a205472616e73666572206661696040820152621b195960ea1b606082015260800190565b6020808252602d908201527f53656375726974697a6174696f6e506f6f6c3a204f6e6c79204469737472696260408201526c3aba34b7b727b832b930ba37b960991b606082015260800190565b60208082526033908201527f53656375726974697a6174696f6e506f6f6c3a204e6f7420616e20706f6f6c2060408201527230b236b4b71037b9103837b7b61037bbb732b960691b606082015260800190565b60208082526037908201527f746f6b656e416464726573736573206c656e67746820616e6420746f6b656e4960408201527f6473206c656e67746820617265206e6f7420657175616c000000000000000000606082015260800190565b60208082526039908201527f746f6b656e416464726573736573206c656e67746820616e642072656369706960408201527f656e7473206c656e67746820617265206e6f7420657175616c00000000000000606082015260800190565b6001600160a01b03848116825283166020820152606081016002831061598357615983615557565b826040830152949350505050565b6000602082840312156159a357600080fd5b81516134dd816154f2565b60208082526028908201527f53656375726974697a6174696f6e506f6f6c3a20417373657420646f6573206e6040820152671bdd08195e1a5cdd60c21b606082015260800190565b600060608284031215615a0857600080fd5b604051606081018181106001600160401b0382111715615a2a57615a2a6150f0565b6040528251615a38816150db565b81526020830151615a48816154f2565b6020820152615a596040840161563b565b60408201529392505050565b600060208284031215615a7757600080fd5b81516134dd816154dd565b6020808252602b908201527f496e697469616c697a61626c653a20636f6e7472616374206973206e6f74206960408201526a6e697469616c697a696e6760a81b606082015260800190565b600060208284031215615adf57600080fd5b81516134dd816150db565b60005b83811015615b05578181015183820152602001615aed565b50506000910152565b7f416363657373436f6e74726f6c3a206163636f756e7420000000000000000000815260008351615b46816017850160208801615aea565b7001034b99036b4b9b9b4b733903937b6329607d1b6017918401918201528351615b77816028840160208801615aea565b01602801949350505050565b6020815260008251806020840152615ba2816040850160208701615aea565b601f01601f19169190910160400192915050565b634e487b7160e01b600052603160045260246000fd5b600081615bdb57615bdb61566b565b50600019019056feb19546dff01e856fb3f010c267a7b1c60363cf8a4664e21cc89c26224620214e3e9c05fb0f9da4414e033bb9bf190a6e2072adf7e3077394fce683220513b8d759abfac6520ec36a6556b2a4dd949cc40007459bcd5cd2507f1e5cc77b6bc97ea26469706673582212204efade905e26bf538e98c4684ed9955b300323900e830f721d398f58c3ef5a9564736f6c63430008130033"
}