{
  "address": "0x2DC4000bb9c1FF9024Aef5ef6c1277F00251Da00",
  "abi": [
    {
      "anonymous": false,
      "inputs": [
        {
          "indexed": false,
          "internalType": "uint8",
          "name": "version",
          "type": "uint8"
        }
      ],
      "name": "Initialized",
      "type": "event"
    },
    {
      "anonymous": false,
      "inputs": [
        {
          "indexed": false,
          "internalType": "address",
          "name": "account",
          "type": "address"
        }
      ],
      "name": "Paused",
      "type": "event"
    },
    {
      "anonymous": false,
      "inputs": [
        {
          "indexed": true,
          "internalType": "bytes32",
          "name": "role",
          "type": "bytes32"
        },
        {
          "indexed": true,
          "internalType": "bytes32",
          "name": "previousAdminRole",
          "type": "bytes32"
        },
        {
          "indexed": true,
          "internalType": "bytes32",
          "name": "newAdminRole",
          "type": "bytes32"
        }
      ],
      "name": "RoleAdminChanged",
      "type": "event"
    },
    {
      "anonymous": false,
      "inputs": [
        {
          "indexed": true,
          "internalType": "bytes32",
          "name": "role",
          "type": "bytes32"
        },
        {
          "indexed": true,
          "internalType": "address",
          "name": "account",
          "type": "address"
        },
        {
          "indexed": true,
          "internalType": "address",
          "name": "sender",
          "type": "address"
        }
      ],
      "name": "RoleGranted",
      "type": "event"
    },
    {
      "anonymous": false,
      "inputs": [
        {
          "indexed": true,
          "internalType": "bytes32",
          "name": "role",
          "type": "bytes32"
        },
        {
          "indexed": true,
          "internalType": "address",
          "name": "account",
          "type": "address"
        },
        {
          "indexed": true,
          "internalType": "address",
          "name": "sender",
          "type": "address"
        }
      ],
      "name": "RoleRevoked",
      "type": "event"
    },
    {
      "anonymous": false,
      "inputs": [
        {
          "indexed": true,
          "internalType": "address",
          "name": "tgeInstance",
          "type": "address"
        }
      ],
      "name": "TokenGenerationEventCreated",
      "type": "event"
    },
    {
      "anonymous": false,
      "inputs": [
        {
          "indexed": false,
          "internalType": "address",
          "name": "account",
          "type": "address"
        }
      ],
      "name": "Unpaused",
      "type": "event"
    },
    {
      "inputs": [],
      "name": "DEFAULT_ADMIN_ROLE",
      "outputs": [
        {
          "internalType": "bytes32",
          "name": "",
          "type": "bytes32"
        }
      ],
      "stateMutability": "view",
      "type": "function"
    },
    {
      "inputs": [],
      "name": "OWNER_ROLE",
      "outputs": [
        {
          "internalType": "bytes32",
          "name": "",
          "type": "bytes32"
        }
      ],
      "stateMutability": "view",
      "type": "function"
    },
    {
      "inputs": [
        {
          "internalType": "address",
          "name": "issuerTokenController",
          "type": "address"
        },
        {
          "internalType": "address",
          "name": "pool",
          "type": "address"
        },
        {
          "internalType": "address",
          "name": "token",
          "type": "address"
        },
        {
          "internalType": "address",
          "name": "currency",
          "type": "address"
        },
        {
          "internalType": "uint8",
          "name": "saleType",
          "type": "uint8"
        },
        {
          "internalType": "bool",
          "name": "longSale",
          "type": "bool"
        }
      ],
      "name": "createNewSaleInstance",
      "outputs": [
        {
          "internalType": "address",
          "name": "",
          "type": "address"
        }
      ],
      "stateMutability": "nonpayable",
      "type": "function"
    },
    {
      "inputs": [],
      "name": "factoryAdmin",
      "outputs": [
        {
          "internalType": "address",
          "name": "",
          "type": "address"
        }
      ],
      "stateMutability": "view",
      "type": "function"
    },
    {
      "inputs": [
        {
          "internalType": "bytes32",
          "name": "role",
          "type": "bytes32"
        }
      ],
      "name": "getRoleAdmin",
      "outputs": [
        {
          "internalType": "bytes32",
          "name": "",
          "type": "bytes32"
        }
      ],
      "stateMutability": "view",
      "type": "function"
    },
    {
      "inputs": [
        {
          "internalType": "bytes32",
          "name": "role",
          "type": "bytes32"
        },
        {
          "internalType": "uint256",
          "name": "index",
          "type": "uint256"
        }
      ],
      "name": "getRoleMember",
      "outputs": [
        {
          "internalType": "address",
          "name": "",
          "type": "address"
        }
      ],
      "stateMutability": "view",
      "type": "function"
    },
    {
      "inputs": [
        {
          "internalType": "bytes32",
          "name": "role",
          "type": "bytes32"
        }
      ],
      "name": "getRoleMemberCount",
      "outputs": [
        {
          "internalType": "uint256",
          "name": "",
          "type": "uint256"
        }
      ],
      "stateMutability": "view",
      "type": "function"
    },
    {
      "inputs": [
        {
          "internalType": "bytes32",
          "name": "role",
          "type": "bytes32"
        },
        {
          "internalType": "address",
          "name": "account",
          "type": "address"
        }
      ],
      "name": "grantRole",
      "outputs": [],
      "stateMutability": "nonpayable",
      "type": "function"
    },
    {
      "inputs": [
        {
          "internalType": "bytes32",
          "name": "role",
          "type": "bytes32"
        },
        {
          "internalType": "address",
          "name": "account",
          "type": "address"
        }
      ],
      "name": "hasRole",
      "outputs": [
        {
          "internalType": "bool",
          "name": "",
          "type": "bool"
        }
      ],
      "stateMutability": "view",
      "type": "function"
    },
    {
      "inputs": [
        {
          "internalType": "contract Registry",
          "name": "_registry",
          "type": "address"
        },
        {
          "internalType": "address",
          "name": "_factoryAdmin",
          "type": "address"
        }
      ],
      "name": "initialize",
      "outputs": [],
      "stateMutability": "nonpayable",
      "type": "function"
    },
    {
      "inputs": [
        {
          "internalType": "address",
          "name": "",
          "type": "address"
        }
      ],
      "name": "isExistingTge",
      "outputs": [
        {
          "internalType": "bool",
          "name": "",
          "type": "bool"
        }
      ],
      "stateMutability": "view",
      "type": "function"
    },
    {
      "inputs": [],
      "name": "pause",
      "outputs": [],
      "stateMutability": "nonpayable",
      "type": "function"
    },
    {
      "inputs": [],
      "name": "pauseUnpauseAllTges",
      "outputs": [],
      "stateMutability": "nonpayable",
      "type": "function"
    },
    {
      "inputs": [
        {
          "internalType": "address",
          "name": "tgeAdress",
          "type": "address"
        }
      ],
      "name": "pauseUnpauseTge",
      "outputs": [],
      "stateMutability": "nonpayable",
      "type": "function"
    },
    {
      "inputs": [],
      "name": "paused",
      "outputs": [
        {
          "internalType": "bool",
          "name": "",
          "type": "bool"
        }
      ],
      "stateMutability": "view",
      "type": "function"
    },
    {
      "inputs": [],
      "name": "registry",
      "outputs": [
        {
          "internalType": "contract Registry",
          "name": "",
          "type": "address"
        }
      ],
      "stateMutability": "view",
      "type": "function"
    },
    {
      "inputs": [
        {
          "internalType": "bytes32",
          "name": "role",
          "type": "bytes32"
        },
        {
          "internalType": "address",
          "name": "account",
          "type": "address"
        }
      ],
      "name": "renounceRole",
      "outputs": [],
      "stateMutability": "nonpayable",
      "type": "function"
    },
    {
      "inputs": [
        {
          "internalType": "bytes32",
          "name": "role",
          "type": "bytes32"
        },
        {
          "internalType": "address",
          "name": "account",
          "type": "address"
        }
      ],
      "name": "revokeRole",
      "outputs": [],
      "stateMutability": "nonpayable",
      "type": "function"
    },
    {
      "inputs": [
        {
          "internalType": "address",
          "name": "_factoryAdmin",
          "type": "address"
        }
      ],
      "name": "setFactoryAdmin",
      "outputs": [],
      "stateMutability": "nonpayable",
      "type": "function"
    },
    {
      "inputs": [
        {
          "internalType": "bytes32",
          "name": "role",
          "type": "bytes32"
        },
        {
          "internalType": "bytes32",
          "name": "adminRole",
          "type": "bytes32"
        }
      ],
      "name": "setRoleAdmin",
      "outputs": [],
      "stateMutability": "nonpayable",
      "type": "function"
    },
    {
      "inputs": [
        {
          "internalType": "bytes4",
          "name": "interfaceId",
          "type": "bytes4"
        }
      ],
      "name": "supportsInterface",
      "outputs": [
        {
          "internalType": "bool",
          "name": "",
          "type": "bool"
        }
      ],
      "stateMutability": "view",
      "type": "function"
    },
    {
      "inputs": [
        {
          "internalType": "uint256",
          "name": "",
          "type": "uint256"
        }
      ],
      "name": "tgeAddresses",
      "outputs": [
        {
          "internalType": "address",
          "name": "",
          "type": "address"
        }
      ],
      "stateMutability": "view",
      "type": "function"
    },
    {
      "inputs": [],
      "name": "unpause",
      "outputs": [],
      "stateMutability": "nonpayable",
      "type": "function"
    }
  ],
  "transactionHash": "0x3a6773c98864f1406c693175788170d7e5d0f0c1938b874305c046ef2988f551",
  "args": [],
  "numDeployments": 2,
  "solcInputHash": "d6ec43a384ba198556c10b12c14f1936",
  "bytecode": "0x608060405234801561001057600080fd5b50612c00806100206000396000f3fe60806040523480156200001157600080fd5b5060043610620001695760003560e01c80635c975abb11620000d3578063a217fddf1162000086578063a217fddf1462000328578063ca15c8731462000331578063d1b05cf41462000348578063d547741f1462000352578063e58378bb1462000369578063f75de405146200039157600080fd5b80635c975abb14620002b95780637b10399914620002c55780638456cb5914620002d95780638f450ec514620002e35780639010d07c14620002fa57806391d14854146200031157600080fd5b806329b0028d116200012c57806329b0028d146200022d5780632f2ff15d146200024457806336568abe146200025b5780633f4ba83a146200027257806341b28855146200027c578063485cc95514620002a257600080fd5b806301ffc9a7146200016e57806305dfd86f146200019a57806317d8ec7f14620001b35780631e4e009114620001e1578063248a9ca314620001f8575b600080fd5b620001856200017f3660046200192c565b620003a8565b60405190151581526020015b60405180910390f35b620001b1620001ab3660046200196e565b620003d6565b005b61019154620001c8906001600160a01b031681565b6040516001600160a01b03909116815260200162000191565b620001b1620001f23660046200198e565b620003f2565b6200021e62000209366004620019b1565b600090815260fb602052604090206001015490565b60405190815260200162000191565b620001b16200023e3660046200196e565b62000410565b620001b162000255366004620019cb565b620005e8565b620001b16200026c366004620019cb565b62000611565b620001b16200068f565b620001856200028d3660046200196e565b60026020526000908152604090205460ff1681565b620001b1620002b3366004620019fe565b620006a6565b60655460ff1662000185565b600054620001c8906001600160a01b031681565b620001b1620007e8565b620001c8620002f436600462001a40565b620007ff565b620001c86200030b3660046200198e565b62000945565b6200018562000322366004620019cb565b62000967565b6200021e600081565b6200021e62000342366004620019b1565b62000992565b620001b1620009ac565b620001b162000363366004620019cb565b62000b3d565b6200021e7fb19546dff01e856fb3f010c267a7b1c60363cf8a4664e21cc89c26224620214e81565b620001c8620003a2366004620019b1565b62000b66565b60006001600160e01b03198216635a05180f60e01b1480620003d05750620003d08262000b91565b92915050565b6000620003e38162000bc8565b620003ee8262000bd4565b5050565b6000620003ff8162000bc8565b6200040b838362000bf7565b505050565b6200041a62000c42565b6200042462000c8a565b6000620004318162000bc8565b6001600160a01b03821660009081526002602052604090205460ff16620004b75760405162461bcd60e51b815260206004820152602f60248201527f546f6b656e47656e65726174696f6e4576656e74466163746f72793a2074676560448201526e08191bd95cc81b9bdd08195e1a5cdd608a1b60648201526084015b60405180910390fd5b6000829050806001600160a01b0316635c975abb6040518163ffffffff1660e01b8152600401602060405180830381865afa158015620004fb573d6000803e3d6000fd5b505050506040513d601f19601f8201168201806040525081019062000521919062001ad4565b156200058257806001600160a01b0316633f4ba83a6040518163ffffffff1660e01b8152600401600060405180830381600087803b1580156200056357600080fd5b505af115801562000578573d6000803e3d6000fd5b50505050620005d8565b806001600160a01b0316638456cb596040518163ffffffff1660e01b8152600401600060405180830381600087803b158015620005be57600080fd5b505af1158015620005d3573d6000803e3d6000fd5b505050505b5050620005e56001609755565b50565b600082815260fb6020526040902060010154620006058162000bc8565b6200040b838362000cec565b6001600160a01b0381163314620006835760405162461bcd60e51b815260206004820152602f60248201527f416363657373436f6e74726f6c3a2063616e206f6e6c792072656e6f756e636560448201526e103937b632b9903337b91039b2b63360891b6064820152608401620004ae565b620003ee828262000d13565b60006200069c8162000bc8565b620005e562000d3a565b603254610100900460ff1615808015620006c75750603254600160ff909116105b80620006e35750303b158015620006e3575060325460ff166001145b620007485760405162461bcd60e51b815260206004820152602e60248201527f496e697469616c697a61626c653a20636f6e747261637420697320616c72656160448201526d191e481a5b9a5d1a585b1a5e995960921b6064820152608401620004ae565b6032805460ff1916600117905580156200076c576032805461ff0019166101001790555b620007773362000d8e565b620007828262000dc3565b600080546001600160a01b0319166001600160a01b03851617905580156200040b576032805461ff0019169055604051600181527f7f26b83ff96e1f2b6a682f133852f6798a09c465da95921460cefb38474024989060200160405180910390a1505050565b6000620007f58162000bc8565b620005e562000df8565b60006200080b62000c8a565b60005462000822906001600160a01b031662000e38565b6001600160a01b0316336001600160a01b0316146200089b5760405162461bcd60e51b815260206004820152602e60248201527f53656375726974697a6174696f6e506f6f6c3a204f6e6c79205365637572697460448201526d34bd30ba34b7b726b0b730b3b2b960911b6064820152608401620004ae565b60ff8316620008bb57620008b3878787878662000e47565b905062000930565b60001960ff841601620008d757620008b3878787878662001149565b60011960ff841601620008f357620008b3878787878662001149565b60405162461bcd60e51b8152602060048201526011602482015270556e6b6e6f776e2073616c65207479706560781b6044820152606401620004ae565b6200093b6001609755565b9695505050505050565b600082815261012d6020526040812062000960908362001163565b9392505050565b600091825260fb602090815260408084206001600160a01b0393909316845291905290205460ff1690565b600081815261012d60205260408120620003d09062001171565b620009b662000c42565b620009c062000c8a565b6000620009cd8162000bc8565b60015460005b8181101562000b2d57600060018281548110620009f457620009f462001b0a565b6000918252602091829020015460408051635c975abb60e01b815290516001600160a01b0390921693508392635c975abb926004808401938290030181865afa15801562000a46573d6000803e3d6000fd5b505050506040513d601f19601f8201168201806040525081019062000a6c919062001ad4565b1562000acd57806001600160a01b0316633f4ba83a6040518163ffffffff1660e01b8152600401600060405180830381600087803b15801562000aae57600080fd5b505af115801562000ac3573d6000803e3d6000fd5b5050505062000b23565b806001600160a01b0316638456cb596040518163ffffffff1660e01b8152600401600060405180830381600087803b15801562000b0957600080fd5b505af115801562000b1e573d6000803e3d6000fd5b505050505b50600101620009d3565b50505062000b3b6001609755565b565b600082815260fb602052604090206001015462000b5a8162000bc8565b6200040b838362000d13565b6001818154811062000b7757600080fd5b6000918252602090912001546001600160a01b0316905081565b60006001600160e01b03198216637965db0b60e01b1480620003d057506301ffc9a760e01b6001600160e01b0319831614620003d0565b620005e581336200117c565b61019180546001600160a01b0319166001600160a01b0392909216919091179055565b600082815260fb6020526040808220600101805490849055905190918391839186917fbd79b86ffe0ab8e8776151514217cd7cacd52c909f66475c3af44e129f0b00ff9190a4505050565b60655460ff161562000b3b5760405162461bcd60e51b815260206004820152601060248201526f14185d5cd8589b194e881c185d5cd95960821b6044820152606401620004ae565b60026097540362000cde5760405162461bcd60e51b815260206004820152601f60248201527f5265656e7472616e637947756172643a207265656e7472616e742063616c6c006044820152606401620004ae565b6002609755565b6001609755565b62000cf88282620011e0565b600082815261012d602052604090206200040b90826200126a565b62000d1f828262001281565b600082815261012d602052604090206200040b9082620012eb565b62000d4462001302565b6065805460ff191690557f5db9ee0a495bf2e6ff9c91a7834c1ba4fdd244a5e8aa4e537bd38aeae4b073aa335b6040516001600160a01b03909116815260200160405180910390a1565b603254610100900460ff1662000db85760405162461bcd60e51b8152600401620004ae9062001b20565b620005e5816200134d565b603254610100900460ff1662000ded5760405162461bcd60e51b8152600401620004ae9062001b20565b620005e5816200140c565b62000e0262000c42565b6065805460ff191660011790557f62e78cea01bee320cd4e420270b5ea74000d11b0c9f74754ebdbfc544b05a25862000d713390565b6000620003d082600062001436565b60008054819062000e61906001600160a01b0316620014c1565b9050600062000e8e60405180606001604052806030815260200162002b9b60309139805160209091012090565b6000546040516001600160a01b03918216602482015289821660448201528882166064820152908716608482015285151560a482015260c40160408051601f198184030181529190526020810180516001600160e01b03166001600160e01b0319909316929092179091529050600062000f098383620014d0565b90506000819050806001600160a01b0316632f2ff15d826001600160a01b031663e58378bb6040518163ffffffff1660e01b8152600401602060405180830381865afa15801562000f5e573d6000803e3d6000fd5b505050506040513d601f19601f8201168201806040525081019062000f84919062001b6b565b6040516001600160e01b031960e084901b16815260048101919091526001600160a01b038d166024820152604401600060405180830381600087803b15801562000fcd57600080fd5b505af115801562000fe2573d6000803e3d6000fd5b50505050806001600160a01b03166336568abe826001600160a01b031663e58378bb6040518163ffffffff1660e01b8152600401602060405180830381865afa15801562001034573d6000803e3d6000fd5b505050506040513d601f19601f820116820180604052508101906200105a919062001b6b565b6040516001600160e01b031960e084901b1681526004810191909152306024820152604401600060405180830381600087803b1580156200109a57600080fd5b505af1158015620010af573d6000803e3d6000fd5b50506001805480820182557fb10e2d527612073b26eecdfd717e6a320cf44b4afac2b0732d9fcbe2b7fa0cf60180546001600160a01b0319166001600160a01b038716908117909155600081815260026020526040808220805460ff191690941790935591519093507f144df689b47f4d4c0b35b1640c74b30c370a540aedb8252e40f254170a82ecb39250a25098975050505050505050565b60008054819062000e61906001600160a01b031662001529565b600062000960838362001538565b6000620003d0825490565b62001188828262000967565b620003ee57620011988162001565565b620011a583602062001578565b604051602001620011b892919062001bab565b60408051601f198184030181529082905262461bcd60e51b8252620004ae9160040162001c52565b620011ec828262000967565b620003ee57600082815260fb602090815260408083206001600160a01b03851684529091529020805460ff19166001179055620012263390565b6001600160a01b0316816001600160a01b0316837f2f8788117e7eff1d82e926ec794901d17c78024a50270940304540a733656f0d60405160405180910390a45050565b600062000960836001600160a01b03841662001732565b6200128d828262000967565b15620003ee57600082815260fb602090815260408083206001600160a01b0385168085529252808320805460ff1916905551339285917ff6391f5c32d9c69d2a47ea670b442974b53935d1edc7fd64eb21e047a839171b9190a45050565b600062000960836001600160a01b03841662001784565b60655460ff1662000b3b5760405162461bcd60e51b815260206004820152601460248201527314185d5cd8589b194e881b9bdd081c185d5cd95960621b6044820152606401620004ae565b603254610100900460ff16620013775760405162461bcd60e51b8152600401620004ae9062001b20565b6200138162001888565b6200138b620018be565b62001395620018e8565b6001600160a01b038116620013a75750335b620013b460008262001912565b620013e07fb19546dff01e856fb3f010c267a7b1c60363cf8a4664e21cc89c26224620214e8262001912565b620005e57fb19546dff01e856fb3f010c267a7b1c60363cf8a4664e21cc89c26224620214e8062000bf7565b603254610100900460ff1662000bd45760405162461bcd60e51b8152600401620004ae9062001b20565b6000826001600160a01b031663bcaa0c558360198111156200145c576200145c62001af4565b6040516001600160e01b031960e084901b16815260ff9091166004820152602401602060405180830381865afa1580156200149b573d6000803e3d6000fd5b505050506040513d601f19601f8201168201806040525081019062000960919062001c67565b6000620003d082601262001436565b61019154604051600091829185916001600160a01b0316908590620014f5906200191e565b620015039392919062001c87565b604051809103906000f08015801562001520573d6000803e3d6000fd5b50949350505050565b6000620003d082601362001436565b600082600001828154811062001552576200155262001b0a565b9060005260206000200154905092915050565b6060620003d06001600160a01b03831660145b606060006200158983600262001cd4565b6200159690600262001cee565b67ffffffffffffffff811115620015b157620015b162001d04565b6040519080825280601f01601f191660200182016040528015620015dc576020820181803683370190505b509050600360fc1b81600081518110620015fa57620015fa62001b0a565b60200101906001600160f81b031916908160001a905350600f60fb1b816001815181106200162c576200162c62001b0a565b60200101906001600160f81b031916908160001a90535060006200165284600262001cd4565b6200165f90600162001cee565b90505b6001811115620016e1576f181899199a1a9b1b9c1cb0b131b232b360811b85600f166010811062001697576200169762001b0a565b1a60f81b828281518110620016b057620016b062001b0a565b60200101906001600160f81b031916908160001a90535060049490941c93620016d98162001d1a565b905062001662565b508315620009605760405162461bcd60e51b815260206004820181905260248201527f537472696e67733a20686578206c656e67746820696e73756666696369656e746044820152606401620004ae565b60008181526001830160205260408120546200177b57508154600181810184556000848152602080822090930184905584548482528286019093526040902091909155620003d0565b506000620003d0565b600081815260018301602052604081205480156200187d576000620017ab60018362001d34565b8554909150600090620017c19060019062001d34565b90508181146200182d576000866000018281548110620017e557620017e562001b0a565b90600052602060002001549050808760000184815481106200180b576200180b62001b0a565b6000918252602080832090910192909255918252600188019052604090208390555b855486908062001841576200184162001d4a565b600190038181906000526020600020016000905590558560010160008681526020019081526020016000206000905560019350505050620003d0565b6000915050620003d0565b603254610100900460ff16620018b25760405162461bcd60e51b8152600401620004ae9062001b20565b6065805460ff19169055565b603254610100900460ff1662000ce55760405162461bcd60e51b8152600401620004ae9062001b20565b603254610100900460ff1662000b3b5760405162461bcd60e51b8152600401620004ae9062001b20565b620003ee828262000cec565b610e3a8062001d6183390190565b6000602082840312156200193f57600080fd5b81356001600160e01b0319811681146200096057600080fd5b6001600160a01b0381168114620005e557600080fd5b6000602082840312156200198157600080fd5b8135620009608162001958565b60008060408385031215620019a257600080fd5b50508035926020909101359150565b600060208284031215620019c457600080fd5b5035919050565b60008060408385031215620019df57600080fd5b823591506020830135620019f38162001958565b809150509250929050565b6000806040838503121562001a1257600080fd5b823562001a1f8162001958565b91506020830135620019f38162001958565b8015158114620005e557600080fd5b60008060008060008060c0878903121562001a5a57600080fd5b863562001a678162001958565b9550602087013562001a798162001958565b9450604087013562001a8b8162001958565b9350606087013562001a9d8162001958565b9250608087013560ff8116811462001ab457600080fd5b915060a087013562001ac68162001a31565b809150509295509295509295565b60006020828403121562001ae757600080fd5b8151620009608162001a31565b634e487b7160e01b600052602160045260246000fd5b634e487b7160e01b600052603260045260246000fd5b6020808252602b908201527f496e697469616c697a61626c653a20636f6e7472616374206973206e6f74206960408201526a6e697469616c697a696e6760a81b606082015260800190565b60006020828403121562001b7e57600080fd5b5051919050565b60005b8381101562001ba257818101518382015260200162001b88565b50506000910152565b7f416363657373436f6e74726f6c3a206163636f756e742000000000000000000081526000835162001be581601785016020880162001b85565b7001034b99036b4b9b9b4b733903937b6329607d1b601791840191820152835162001c1881602884016020880162001b85565b01602801949350505050565b6000815180845262001c3e81602086016020860162001b85565b601f01601f19169290920160200192915050565b60208152600062000960602083018462001c24565b60006020828403121562001c7a57600080fd5b8151620009608162001958565b6001600160a01b0384811682528316602082015260606040820181905260009062001cb59083018462001c24565b95945050505050565b634e487b7160e01b600052601160045260246000fd5b8082028115828204841417620003d057620003d062001cbe565b80820180821115620003d057620003d062001cbe565b634e487b7160e01b600052604160045260246000fd5b60008162001d2c5762001d2c62001cbe565b506000190190565b81810381811115620003d057620003d062001cbe565b634e487b7160e01b600052603160045260246000fdfe608060405260405162000e3a38038062000e3a833981016040819052620000269162000424565b828162000036828260006200004d565b50620000449050826200007f565b50505062000557565b6200005883620000f1565b600082511180620000665750805b156200007a5762000078838362000133565b505b505050565b7f7e644d79422f17c01e4894b5f4f588d331ebfa28653d42ae832dc59e38c9798f620000c160008051602062000df3833981519152546001600160a01b031690565b604080516001600160a01b03928316815291841660208301520160405180910390a1620000ee8162000162565b50565b620000fc8162000200565b6040516001600160a01b038216907fbc7cd75a20ee27fd9adebab32041f755214dbc6bffa90cc0225b39da2e5c2d3b90600090a250565b60606200015b838360405180606001604052806027815260200162000e136027913962000297565b9392505050565b6001600160a01b038116620001cd5760405162461bcd60e51b815260206004820152602660248201527f455243313936373a206e65772061646d696e20697320746865207a65726f206160448201526564647265737360d01b60648201526084015b60405180910390fd5b8060008051602062000df38339815191525b80546001600160a01b0319166001600160a01b039290921691909117905550565b6001600160a01b0381163b6200026f5760405162461bcd60e51b815260206004820152602d60248201527f455243313936373a206e657720696d706c656d656e746174696f6e206973206e60448201526c1bdd08184818dbdb9d1c9858dd609a1b6064820152608401620001c4565b807f360894a13ba1a3210667c828492db98dca3e2076cc3735a920a3ca505d382bbc620001df565b6060600080856001600160a01b031685604051620002b6919062000504565b600060405180830381855af49150503d8060008114620002f3576040519150601f19603f3d011682016040523d82523d6000602084013e620002f8565b606091505b5090925090506200030c8683838762000316565b9695505050505050565b606083156200038a57825160000362000382576001600160a01b0385163b620003825760405162461bcd60e51b815260206004820152601d60248201527f416464726573733a2063616c6c20746f206e6f6e2d636f6e74726163740000006044820152606401620001c4565b508162000396565b6200039683836200039e565b949350505050565b815115620003af5781518083602001fd5b8060405162461bcd60e51b8152600401620001c4919062000522565b80516001600160a01b0381168114620003e357600080fd5b919050565b634e487b7160e01b600052604160045260246000fd5b60005b838110156200041b57818101518382015260200162000401565b50506000910152565b6000806000606084860312156200043a57600080fd5b6200044584620003cb565b92506200045560208501620003cb565b60408501519092506001600160401b03808211156200047357600080fd5b818601915086601f8301126200048857600080fd5b8151818111156200049d576200049d620003e8565b604051601f8201601f19908116603f01168101908382118183101715620004c857620004c8620003e8565b81604052828152896020848701011115620004e257600080fd5b620004f5836020830160208801620003fe565b80955050505050509250925092565b6000825162000518818460208701620003fe565b9190910192915050565b602081526000825180602084015262000543816040850160208701620003fe565b601f01601f19169190910160400192915050565b61088c80620005676000396000f3fe60806040523661001357610011610017565b005b6100115b61001f610169565b6001600160a01b0316330361015f5760606001600160e01b0319600035166364d3180d60e11b810161005a5761005361019c565b9150610157565b63587086bd60e11b6001600160e01b031982160161007a576100536101f3565b63070d7c6960e41b6001600160e01b031982160161009a57610053610239565b621eb96f60e61b6001600160e01b03198216016100b95761005361026a565b63a39f25e560e01b6001600160e01b03198216016100d9576100536102aa565b60405162461bcd60e51b815260206004820152604260248201527f5472616e73706172656e745570677261646561626c6550726f78793a2061646d60448201527f696e2063616e6e6f742066616c6c6261636b20746f2070726f78792074617267606482015261195d60f21b608482015260a4015b60405180910390fd5b815160208301f35b6101676102be565b565b60007fb53127684a568b3173ae13b9f8a6016e243e63b6e8ee1178d6a717850b5d61035b546001600160a01b0316919050565b60606101a66102ce565b60006101b53660048184610683565b8101906101c291906106c9565b90506101df816040518060200160405280600081525060006102d9565b505060408051602081019091526000815290565b60606000806102053660048184610683565b81019061021291906106fa565b91509150610222828260016102d9565b604051806020016040528060008152509250505090565b60606102436102ce565b60006102523660048184610683565b81019061025f91906106c9565b90506101df81610305565b60606102746102ce565b600061027e610169565b604080516001600160a01b03831660208201529192500160405160208183030381529060405291505090565b60606102b46102ce565b600061027e61035c565b6101676102c961035c565b61036b565b341561016757600080fd5b6102e28361038f565b6000825111806102ef5750805b15610300576102fe83836103cf565b505b505050565b7f7e644d79422f17c01e4894b5f4f588d331ebfa28653d42ae832dc59e38c9798f61032e610169565b604080516001600160a01b03928316815291841660208301520160405180910390a1610359816103fb565b50565b60006103666104a4565b905090565b3660008037600080366000845af43d6000803e80801561038a573d6000f35b3d6000fd5b610398816104cc565b6040516001600160a01b038216907fbc7cd75a20ee27fd9adebab32041f755214dbc6bffa90cc0225b39da2e5c2d3b90600090a250565b60606103f4838360405180606001604052806027815260200161083060279139610560565b9392505050565b6001600160a01b0381166104605760405162461bcd60e51b815260206004820152602660248201527f455243313936373a206e65772061646d696e20697320746865207a65726f206160448201526564647265737360d01b606482015260840161014e565b807fb53127684a568b3173ae13b9f8a6016e243e63b6e8ee1178d6a717850b5d61035b80546001600160a01b0319166001600160a01b039290921691909117905550565b60007f360894a13ba1a3210667c828492db98dca3e2076cc3735a920a3ca505d382bbc61018d565b6001600160a01b0381163b6105395760405162461bcd60e51b815260206004820152602d60248201527f455243313936373a206e657720696d706c656d656e746174696f6e206973206e60448201526c1bdd08184818dbdb9d1c9858dd609a1b606482015260840161014e565b807f360894a13ba1a3210667c828492db98dca3e2076cc3735a920a3ca505d382bbc610483565b6060600080856001600160a01b03168560405161057d91906107e0565b600060405180830381855af49150503d80600081146105b8576040519150601f19603f3d011682016040523d82523d6000602084013e6105bd565b606091505b50915091506105ce868383876105d8565b9695505050505050565b60608315610647578251600003610640576001600160a01b0385163b6106405760405162461bcd60e51b815260206004820152601d60248201527f416464726573733a2063616c6c20746f206e6f6e2d636f6e7472616374000000604482015260640161014e565b5081610651565b6106518383610659565b949350505050565b8151156106695781518083602001fd5b8060405162461bcd60e51b815260040161014e91906107fc565b6000808585111561069357600080fd5b838611156106a057600080fd5b5050820193919092039150565b80356001600160a01b03811681146106c457600080fd5b919050565b6000602082840312156106db57600080fd5b6103f4826106ad565b634e487b7160e01b600052604160045260246000fd5b6000806040838503121561070d57600080fd5b610716836106ad565b9150602083013567ffffffffffffffff8082111561073357600080fd5b818501915085601f83011261074757600080fd5b813581811115610759576107596106e4565b604051601f8201601f19908116603f01168101908382118183101715610781576107816106e4565b8160405282815288602084870101111561079a57600080fd5b8260208601602083013760006020848301015280955050505050509250929050565b60005b838110156107d75781810151838201526020016107bf565b50506000910152565b600082516107f28184602087016107bc565b9190910192915050565b602081526000825180602084015261081b8160408501602087016107bc565b601f01601f1916919091016040019291505056fe416464726573733a206c6f772d6c6576656c2064656c65676174652063616c6c206661696c6564a26469706673582212203ee2f73ab410cffabdfe09f9ebcfce29461addacfddf586afaf2ba05c7d1b40864736f6c63430008130033b53127684a568b3173ae13b9f8a6016e243e63b6e8ee1178d6a717850b5d6103416464726573733a206c6f772d6c6576656c2064656c65676174652063616c6c206661696c6564696e697469616c697a6528616464726573732c616464726573732c616464726573732c616464726573732c626f6f6c29a2646970667358221220ef2e86e8b2edd6fe27cfbae3287dd5d8932ed75f1fc8c24e93f96edeae11b7d864736f6c63430008130033",
  "devdoc": {
    "events": {
      "Initialized(uint8)": {
        "details": "Triggered when the contract has been initialized or reinitialized."
      },
      "Paused(address)": {
        "details": "Emitted when the pause is triggered by `account`."
      },
      "RoleAdminChanged(bytes32,bytes32,bytes32)": {
        "details": "Emitted when `newAdminRole` is set as ``role``'s admin role, replacing `previousAdminRole` `DEFAULT_ADMIN_ROLE` is the starting admin for all roles, despite {RoleAdminChanged} not being emitted signaling this. _Available since v3.1._"
      },
      "RoleGranted(bytes32,address,address)": {
        "details": "Emitted when `account` is granted `role`. `sender` is the account that originated the contract call, an admin role bearer except when using {AccessControl-_setupRole}."
      },
      "RoleRevoked(bytes32,address,address)": {
        "details": "Emitted when `account` is revoked `role`. `sender` is the account that originated the contract call:   - if using `revokeRole`, it is the admin role bearer   - if using `renounceRole`, it is the role bearer (i.e. `account`)"
      },
      "Unpaused(address)": {
        "details": "Emitted when the pause is lifted by `account`."
      }
    },
    "kind": "dev",
    "methods": {
      "getRoleAdmin(bytes32)": {
        "details": "Returns the admin role that controls `role`. See {grantRole} and {revokeRole}. To change a role's admin, use {_setRoleAdmin}."
      },
      "getRoleMember(bytes32,uint256)": {
        "details": "Returns one of the accounts that have `role`. `index` must be a value between 0 and {getRoleMemberCount}, non-inclusive. Role bearers are not sorted in any particular way, and their ordering may change at any point. WARNING: When using {getRoleMember} and {getRoleMemberCount}, make sure you perform all queries on the same block. See the following https://forum.openzeppelin.com/t/iterating-over-elements-on-enumerableset-in-openzeppelin-contracts/2296[forum post] for more information."
      },
      "getRoleMemberCount(bytes32)": {
        "details": "Returns the number of accounts that have `role`. Can be used together with {getRoleMember} to enumerate all bearers of a role."
      },
      "grantRole(bytes32,address)": {
        "details": "Grants `role` to `account`. If `account` had not been already granted `role`, emits a {RoleGranted} event. Requirements: - the caller must have ``role``'s admin role. May emit a {RoleGranted} event."
      },
      "hasRole(bytes32,address)": {
        "details": "Returns `true` if `account` has been granted `role`."
      },
      "paused()": {
        "details": "Returns true if the contract is paused, and false otherwise."
      },
      "renounceRole(bytes32,address)": {
        "details": "Revokes `role` from the calling account. Roles are often managed via {grantRole} and {revokeRole}: this function's purpose is to provide a mechanism for accounts to lose their privileges if they are compromised (such as when a trusted device is misplaced). If the calling account had been revoked `role`, emits a {RoleRevoked} event. Requirements: - the caller must be `account`. May emit a {RoleRevoked} event."
      },
      "revokeRole(bytes32,address)": {
        "details": "Revokes `role` from `account`. If `account` had been granted `role`, emits a {RoleRevoked} event. Requirements: - the caller must have ``role``'s admin role. May emit a {RoleRevoked} event."
      },
      "supportsInterface(bytes4)": {
        "details": "See {IERC165-supportsInterface}."
      }
    },
    "version": 1
  },
  "userdoc": {
    "kind": "user",
    "methods": {
      "createNewSaleInstance(address,address,address,address,uint8,bool)": {
        "notice": "creates a new TGE instance based on the provided parameters and the sale type"
      }
    },
    "version": 1
  },
  "storageLayout": {
    "storage": [
      {
        "astId": 12603,
        "contract": "contracts/protocol/note-sale/fab/TokenGenerationEventFactory.sol:TokenGenerationEventFactory",
        "label": "registry",
        "offset": 0,
        "slot": "0",
        "type": "t_contract(Registry)17051"
      },
      {
        "astId": 12610,
        "contract": "contracts/protocol/note-sale/fab/TokenGenerationEventFactory.sol:TokenGenerationEventFactory",
        "label": "tgeAddresses",
        "offset": 0,
        "slot": "1",
        "type": "t_array(t_address)dyn_storage"
      },
      {
        "astId": 12614,
        "contract": "contracts/protocol/note-sale/fab/TokenGenerationEventFactory.sol:TokenGenerationEventFactory",
        "label": "isExistingTge",
        "offset": 0,
        "slot": "2",
        "type": "t_mapping(t_address,t_bool)"
      },
      {
        "astId": 12636,
        "contract": "contracts/protocol/note-sale/fab/TokenGenerationEventFactory.sol:TokenGenerationEventFactory",
        "label": "__gap",
        "offset": 0,
        "slot": "3",
        "type": "t_array(t_uint256)47_storage"
      },
      {
        "astId": 717,
        "contract": "contracts/protocol/note-sale/fab/TokenGenerationEventFactory.sol:TokenGenerationEventFactory",
        "label": "_initialized",
        "offset": 0,
        "slot": "50",
        "type": "t_uint8"
      },
      {
        "astId": 720,
        "contract": "contracts/protocol/note-sale/fab/TokenGenerationEventFactory.sol:TokenGenerationEventFactory",
        "label": "_initializing",
        "offset": 1,
        "slot": "50",
        "type": "t_bool"
      },
      {
        "astId": 4474,
        "contract": "contracts/protocol/note-sale/fab/TokenGenerationEventFactory.sol:TokenGenerationEventFactory",
        "label": "__gap",
        "offset": 0,
        "slot": "51",
        "type": "t_array(t_uint256)50_storage"
      },
      {
        "astId": 900,
        "contract": "contracts/protocol/note-sale/fab/TokenGenerationEventFactory.sol:TokenGenerationEventFactory",
        "label": "_paused",
        "offset": 0,
        "slot": "101",
        "type": "t_bool"
      },
      {
        "astId": 1005,
        "contract": "contracts/protocol/note-sale/fab/TokenGenerationEventFactory.sol:TokenGenerationEventFactory",
        "label": "__gap",
        "offset": 0,
        "slot": "102",
        "type": "t_array(t_uint256)49_storage"
      },
      {
        "astId": 1020,
        "contract": "contracts/protocol/note-sale/fab/TokenGenerationEventFactory.sol:TokenGenerationEventFactory",
        "label": "_status",
        "offset": 0,
        "slot": "151",
        "type": "t_uint256"
      },
      {
        "astId": 1089,
        "contract": "contracts/protocol/note-sale/fab/TokenGenerationEventFactory.sol:TokenGenerationEventFactory",
        "label": "__gap",
        "offset": 0,
        "slot": "152",
        "type": "t_array(t_uint256)49_storage"
      },
      {
        "astId": 4821,
        "contract": "contracts/protocol/note-sale/fab/TokenGenerationEventFactory.sol:TokenGenerationEventFactory",
        "label": "__gap",
        "offset": 0,
        "slot": "201",
        "type": "t_array(t_uint256)50_storage"
      },
      {
        "astId": 184,
        "contract": "contracts/protocol/note-sale/fab/TokenGenerationEventFactory.sol:TokenGenerationEventFactory",
        "label": "_roles",
        "offset": 0,
        "slot": "251",
        "type": "t_mapping(t_bytes32,t_struct(RoleData)179_storage)"
      },
      {
        "astId": 479,
        "contract": "contracts/protocol/note-sale/fab/TokenGenerationEventFactory.sol:TokenGenerationEventFactory",
        "label": "__gap",
        "offset": 0,
        "slot": "252",
        "type": "t_array(t_uint256)49_storage"
      },
      {
        "astId": 33,
        "contract": "contracts/protocol/note-sale/fab/TokenGenerationEventFactory.sol:TokenGenerationEventFactory",
        "label": "_roleMembers",
        "offset": 0,
        "slot": "301",
        "type": "t_mapping(t_bytes32,t_struct(AddressSet)6131_storage)"
      },
      {
        "astId": 143,
        "contract": "contracts/protocol/note-sale/fab/TokenGenerationEventFactory.sol:TokenGenerationEventFactory",
        "label": "__gap",
        "offset": 0,
        "slot": "302",
        "type": "t_array(t_uint256)49_storage"
      },
      {
        "astId": 11252,
        "contract": "contracts/protocol/note-sale/fab/TokenGenerationEventFactory.sol:TokenGenerationEventFactory",
        "label": "__gap",
        "offset": 0,
        "slot": "351",
        "type": "t_array(t_uint256)50_storage"
      },
      {
        "astId": 11051,
        "contract": "contracts/protocol/note-sale/fab/TokenGenerationEventFactory.sol:TokenGenerationEventFactory",
        "label": "factoryAdmin",
        "offset": 0,
        "slot": "401",
        "type": "t_address"
      },
      {
        "astId": 11133,
        "contract": "contracts/protocol/note-sale/fab/TokenGenerationEventFactory.sol:TokenGenerationEventFactory",
        "label": "__gap",
        "offset": 0,
        "slot": "402",
        "type": "t_array(t_uint256)50_storage"
      },
      {
        "astId": 15530,
        "contract": "contracts/protocol/note-sale/fab/TokenGenerationEventFactory.sol:TokenGenerationEventFactory",
        "label": "__gap",
        "offset": 0,
        "slot": "452",
        "type": "t_array(t_uint256)50_storage"
      }
    ],
    "types": {
      "t_address": {
        "encoding": "inplace",
        "label": "address",
        "numberOfBytes": "20"
      },
      "t_array(t_address)dyn_storage": {
        "base": "t_address",
        "encoding": "dynamic_array",
        "label": "address[]",
        "numberOfBytes": "32"
      },
      "t_array(t_bytes32)dyn_storage": {
        "base": "t_bytes32",
        "encoding": "dynamic_array",
        "label": "bytes32[]",
        "numberOfBytes": "32"
      },
      "t_array(t_uint256)47_storage": {
        "base": "t_uint256",
        "encoding": "inplace",
        "label": "uint256[47]",
        "numberOfBytes": "1504"
      },
      "t_array(t_uint256)49_storage": {
        "base": "t_uint256",
        "encoding": "inplace",
        "label": "uint256[49]",
        "numberOfBytes": "1568"
      },
      "t_array(t_uint256)50_storage": {
        "base": "t_uint256",
        "encoding": "inplace",
        "label": "uint256[50]",
        "numberOfBytes": "1600"
      },
      "t_bool": {
        "encoding": "inplace",
        "label": "bool",
        "numberOfBytes": "1"
      },
      "t_bytes32": {
        "encoding": "inplace",
        "label": "bytes32",
        "numberOfBytes": "32"
      },
      "t_contract(Registry)17051": {
        "encoding": "inplace",
        "label": "contract Registry",
        "numberOfBytes": "20"
      },
      "t_mapping(t_address,t_bool)": {
        "encoding": "mapping",
        "key": "t_address",
        "label": "mapping(address => bool)",
        "numberOfBytes": "32",
        "value": "t_bool"
      },
      "t_mapping(t_bytes32,t_struct(AddressSet)6131_storage)": {
        "encoding": "mapping",
        "key": "t_bytes32",
        "label": "mapping(bytes32 => struct EnumerableSetUpgradeable.AddressSet)",
        "numberOfBytes": "32",
        "value": "t_struct(AddressSet)6131_storage"
      },
      "t_mapping(t_bytes32,t_struct(RoleData)179_storage)": {
        "encoding": "mapping",
        "key": "t_bytes32",
        "label": "mapping(bytes32 => struct AccessControlUpgradeable.RoleData)",
        "numberOfBytes": "32",
        "value": "t_struct(RoleData)179_storage"
      },
      "t_mapping(t_bytes32,t_uint256)": {
        "encoding": "mapping",
        "key": "t_bytes32",
        "label": "mapping(bytes32 => uint256)",
        "numberOfBytes": "32",
        "value": "t_uint256"
      },
      "t_struct(AddressSet)6131_storage": {
        "encoding": "inplace",
        "label": "struct EnumerableSetUpgradeable.AddressSet",
        "members": [
          {
            "astId": 6130,
            "contract": "contracts/protocol/note-sale/fab/TokenGenerationEventFactory.sol:TokenGenerationEventFactory",
            "label": "_inner",
            "offset": 0,
            "slot": "0",
            "type": "t_struct(Set)5816_storage"
          }
        ],
        "numberOfBytes": "64"
      },
      "t_struct(RoleData)179_storage": {
        "encoding": "inplace",
        "label": "struct AccessControlUpgradeable.RoleData",
        "members": [
          {
            "astId": 176,
            "contract": "contracts/protocol/note-sale/fab/TokenGenerationEventFactory.sol:TokenGenerationEventFactory",
            "label": "members",
            "offset": 0,
            "slot": "0",
            "type": "t_mapping(t_address,t_bool)"
          },
          {
            "astId": 178,
            "contract": "contracts/protocol/note-sale/fab/TokenGenerationEventFactory.sol:TokenGenerationEventFactory",
            "label": "adminRole",
            "offset": 0,
            "slot": "1",
            "type": "t_bytes32"
          }
        ],
        "numberOfBytes": "64"
      },
      "t_struct(Set)5816_storage": {
        "encoding": "inplace",
        "label": "struct EnumerableSetUpgradeable.Set",
        "members": [
          {
            "astId": 5811,
            "contract": "contracts/protocol/note-sale/fab/TokenGenerationEventFactory.sol:TokenGenerationEventFactory",
            "label": "_values",
            "offset": 0,
            "slot": "0",
            "type": "t_array(t_bytes32)dyn_storage"
          },
          {
            "astId": 5815,
            "contract": "contracts/protocol/note-sale/fab/TokenGenerationEventFactory.sol:TokenGenerationEventFactory",
            "label": "_indexes",
            "offset": 0,
            "slot": "1",
            "type": "t_mapping(t_bytes32,t_uint256)"
          }
        ],
        "numberOfBytes": "64"
      },
      "t_uint256": {
        "encoding": "inplace",
        "label": "uint256",
        "numberOfBytes": "32"
      },
      "t_uint8": {
        "encoding": "inplace",
        "label": "uint8",
        "numberOfBytes": "1"
      }
    }
  }
}