{
  "address": "0x4d92A613352E013943c4270295B72aF518A49ef5",
  "abi": [
    {
      "anonymous": false,
      "inputs": [
        {
          "indexed": false,
          "internalType": "uint8",
          "name": "version",
          "type": "uint8"
        }
      ],
      "name": "Initialized",
      "type": "event"
    },
    {
      "anonymous": false,
      "inputs": [
        {
          "indexed": false,
          "internalType": "address",
          "name": "account",
          "type": "address"
        }
      ],
      "name": "Paused",
      "type": "event"
    },
    {
      "anonymous": false,
      "inputs": [
        {
          "indexed": true,
          "internalType": "bytes32",
          "name": "role",
          "type": "bytes32"
        },
        {
          "indexed": true,
          "internalType": "bytes32",
          "name": "previousAdminRole",
          "type": "bytes32"
        },
        {
          "indexed": true,
          "internalType": "bytes32",
          "name": "newAdminRole",
          "type": "bytes32"
        }
      ],
      "name": "RoleAdminChanged",
      "type": "event"
    },
    {
      "anonymous": false,
      "inputs": [
        {
          "indexed": true,
          "internalType": "bytes32",
          "name": "role",
          "type": "bytes32"
        },
        {
          "indexed": true,
          "internalType": "address",
          "name": "account",
          "type": "address"
        },
        {
          "indexed": true,
          "internalType": "address",
          "name": "sender",
          "type": "address"
        }
      ],
      "name": "RoleGranted",
      "type": "event"
    },
    {
      "anonymous": false,
      "inputs": [
        {
          "indexed": true,
          "internalType": "bytes32",
          "name": "role",
          "type": "bytes32"
        },
        {
          "indexed": true,
          "internalType": "address",
          "name": "account",
          "type": "address"
        },
        {
          "indexed": true,
          "internalType": "address",
          "name": "sender",
          "type": "address"
        }
      ],
      "name": "RoleRevoked",
      "type": "event"
    },
    {
      "anonymous": false,
      "inputs": [
        {
          "indexed": false,
          "internalType": "address",
          "name": "account",
          "type": "address"
        }
      ],
      "name": "Unpaused",
      "type": "event"
    },
    {
      "inputs": [],
      "name": "CCIP_RECEIVER_ROLE",
      "outputs": [
        {
          "internalType": "bytes32",
          "name": "",
          "type": "bytes32"
        }
      ],
      "stateMutability": "view",
      "type": "function"
    },
    {
      "inputs": [],
      "name": "DEFAULT_ADMIN_ROLE",
      "outputs": [
        {
          "internalType": "bytes32",
          "name": "",
          "type": "bytes32"
        }
      ],
      "stateMutability": "view",
      "type": "function"
    },
    {
      "inputs": [],
      "name": "OWNER_ROLE",
      "outputs": [
        {
          "internalType": "bytes32",
          "name": "",
          "type": "bytes32"
        }
      ],
      "stateMutability": "view",
      "type": "function"
    },
    {
      "inputs": [
        {
          "internalType": "bytes32",
          "name": "role",
          "type": "bytes32"
        }
      ],
      "name": "getRoleAdmin",
      "outputs": [
        {
          "internalType": "bytes32",
          "name": "",
          "type": "bytes32"
        }
      ],
      "stateMutability": "view",
      "type": "function"
    },
    {
      "inputs": [
        {
          "internalType": "bytes32",
          "name": "role",
          "type": "bytes32"
        },
        {
          "internalType": "uint256",
          "name": "index",
          "type": "uint256"
        }
      ],
      "name": "getRoleMember",
      "outputs": [
        {
          "internalType": "address",
          "name": "",
          "type": "address"
        }
      ],
      "stateMutability": "view",
      "type": "function"
    },
    {
      "inputs": [
        {
          "internalType": "bytes32",
          "name": "role",
          "type": "bytes32"
        }
      ],
      "name": "getRoleMemberCount",
      "outputs": [
        {
          "internalType": "uint256",
          "name": "",
          "type": "uint256"
        }
      ],
      "stateMutability": "view",
      "type": "function"
    },
    {
      "inputs": [
        {
          "internalType": "bytes32",
          "name": "role",
          "type": "bytes32"
        },
        {
          "internalType": "address",
          "name": "account",
          "type": "address"
        }
      ],
      "name": "grantRole",
      "outputs": [],
      "stateMutability": "nonpayable",
      "type": "function"
    },
    {
      "inputs": [
        {
          "internalType": "bytes32",
          "name": "role",
          "type": "bytes32"
        },
        {
          "internalType": "address",
          "name": "account",
          "type": "address"
        }
      ],
      "name": "hasRole",
      "outputs": [
        {
          "internalType": "bool",
          "name": "",
          "type": "bool"
        }
      ],
      "stateMutability": "view",
      "type": "function"
    },
    {
      "inputs": [
        {
          "internalType": "address",
          "name": "owner",
          "type": "address"
        }
      ],
      "name": "initialize",
      "outputs": [],
      "stateMutability": "nonpayable",
      "type": "function"
    },
    {
      "inputs": [],
      "name": "pause",
      "outputs": [],
      "stateMutability": "nonpayable",
      "type": "function"
    },
    {
      "inputs": [],
      "name": "paused",
      "outputs": [
        {
          "internalType": "bool",
          "name": "",
          "type": "bool"
        }
      ],
      "stateMutability": "view",
      "type": "function"
    },
    {
      "inputs": [
        {
          "internalType": "enum MessageType",
          "name": "messageType",
          "type": "uint8"
        },
        {
          "internalType": "bytes",
          "name": "data",
          "type": "bytes"
        }
      ],
      "name": "processMessage",
      "outputs": [],
      "stateMutability": "nonpayable",
      "type": "function"
    },
    {
      "inputs": [
        {
          "internalType": "bytes32",
          "name": "role",
          "type": "bytes32"
        },
        {
          "internalType": "address",
          "name": "account",
          "type": "address"
        }
      ],
      "name": "renounceRole",
      "outputs": [],
      "stateMutability": "nonpayable",
      "type": "function"
    },
    {
      "inputs": [
        {
          "internalType": "bytes32",
          "name": "role",
          "type": "bytes32"
        },
        {
          "internalType": "address",
          "name": "account",
          "type": "address"
        }
      ],
      "name": "revokeRole",
      "outputs": [],
      "stateMutability": "nonpayable",
      "type": "function"
    },
    {
      "inputs": [
        {
          "internalType": "bytes4",
          "name": "interfaceId",
          "type": "bytes4"
        }
      ],
      "name": "supportsInterface",
      "outputs": [
        {
          "internalType": "bool",
          "name": "",
          "type": "bool"
        }
      ],
      "stateMutability": "view",
      "type": "function"
    },
    {
      "inputs": [],
      "name": "unpause",
      "outputs": [],
      "stateMutability": "nonpayable",
      "type": "function"
    }
  ],
  "transactionHash": "0x5ff167d81b85b7c061ae1e1384b81d9e4be77f73bb6e4eda4c6f3972a90fb5d4",
  "args": [],
  "numDeployments": 1,
  "solcInputHash": "2767157c586a93aee7333a443bf2b310",
  "bytecode": "0x608060405234801561001057600080fd5b5061108d806100206000396000f3fe608060405234801561001057600080fd5b50600436106101005760003560e01c80639010d07c11610097578063c4d66de811610066578063c4d66de814610221578063ca15c87314610234578063d547741f14610247578063e58378bb1461025a57600080fd5b80639010d07c146101b457806391d14854146101df578063a217fddf146101f2578063b7b6b86a146101fa57600080fd5b806337972416116100d357806337972416146101865780633f4ba83a146101995780635c975abb146101a15780638456cb59146101ac57600080fd5b806301ffc9a714610105578063248a9ca31461012d5780632f2ff15d1461015e57806336568abe14610173575b600080fd5b610118610113366004610d43565b610281565b60405190151581526020015b60405180910390f35b61015061013b366004610d6d565b600090815260c9602052604090206001015490565b604051908152602001610124565b61017161016c366004610da2565b6102ac565b005b610171610181366004610da2565b6102d6565b610171610194366004610dce565b610359565b610171610389565b60335460ff16610118565b61017161039f565b6101c76101c2366004610e57565b6103b2565b6040516001600160a01b039091168152602001610124565b6101186101ed366004610da2565b6103d1565b610150600081565b6101507f40c9f3039121156094d205fc9e8752882a377a6f1b16a7d618e028e52897bc3881565b61017161022f366004610e79565b6103fc565b610150610242366004610d6d565b610538565b610171610255366004610da2565b61054f565b6101507fb19546dff01e856fb3f010c267a7b1c60363cf8a4664e21cc89c26224620214e81565b60006001600160e01b03198216635a05180f60e01b14806102a657506102a682610574565b92915050565b600082815260c960205260409020600101546102c7816105a9565b6102d183836105b3565b505050565b6001600160a01b038116331461034b5760405162461bcd60e51b815260206004820152602f60248201527f416363657373436f6e74726f6c3a2063616e206f6e6c792072656e6f756e636560448201526e103937b632b9903337b91039b2b63360891b60648201526084015b60405180910390fd5b61035582826105d5565b5050565b7f40c9f3039121156094d205fc9e8752882a377a6f1b16a7d618e028e52897bc38610383816105a9565b50505050565b6000610394816105a9565b61039c6105f7565b50565b60006103aa816105a9565b61039c610649565b600082815260fb602052604081206103ca9083610686565b9392505050565b600091825260c9602090815260408084206001600160a01b0393909316845291905290205460ff1690565b600054610100900460ff161580801561041c5750600054600160ff909116105b806104365750303b158015610436575060005460ff166001145b6104995760405162461bcd60e51b815260206004820152602e60248201527f496e697469616c697a61626c653a20636f6e747261637420697320616c72656160448201526d191e481a5b9a5d1a585b1a5e995960921b6064820152608401610342565b6000805460ff1916600117905580156104bc576000805461ff0019166101001790555b6104c533610692565b6104ef7f40c9f3039121156094d205fc9e8752882a377a6f1b16a7d618e028e52897bc3883610741565b8015610355576000805461ff0019169055604051600181527f7f26b83ff96e1f2b6a682f133852f6798a09c465da95921460cefb38474024989060200160405180910390a15050565b600081815260fb602052604081206102a69061074b565b600082815260c9602052604090206001015461056a816105a9565b6102d183836105d5565b60006001600160e01b03198216637965db0b60e01b14806102a657506301ffc9a760e01b6001600160e01b03198316146102a6565b61039c8133610755565b6105bd82826107ae565b600082815260fb602052604090206102d19082610834565b6105df8282610849565b600082815260fb602052604090206102d190826108b0565b6105ff6108c5565b6033805460ff191690557f5db9ee0a495bf2e6ff9c91a7834c1ba4fdd244a5e8aa4e537bd38aeae4b073aa335b6040516001600160a01b03909116815260200160405180910390a1565b610651610910565b6033805460ff191660011790557f62e78cea01bee320cd4e420270b5ea74000d11b0c9f74754ebdbfc544b05a25861062c3390565b60006103ca8383610956565b600054610100900460ff166106b95760405162461bcd60e51b815260040161034290610e94565b6106c1610980565b6106c96109b3565b6106d16109e1565b6001600160a01b0381166106e25750335b6106ed600082610741565b6107177fb19546dff01e856fb3f010c267a7b1c60363cf8a4664e21cc89c26224620214e82610741565b61039c7fb19546dff01e856fb3f010c267a7b1c60363cf8a4664e21cc89c26224620214e80610a08565b61035582826105b3565b60006102a6825490565b61075f82826103d1565b6103555761076c81610a53565b610777836020610a65565b604051602001610788929190610f03565b60408051601f198184030181529082905262461bcd60e51b825261034291600401610f78565b6107b882826103d1565b61035557600082815260c9602090815260408083206001600160a01b03851684529091529020805460ff191660011790556107f03390565b6001600160a01b0316816001600160a01b0316837f2f8788117e7eff1d82e926ec794901d17c78024a50270940304540a733656f0d60405160405180910390a45050565b60006103ca836001600160a01b038416610c01565b61085382826103d1565b1561035557600082815260c9602090815260408083206001600160a01b0385168085529252808320805460ff1916905551339285917ff6391f5c32d9c69d2a47ea670b442974b53935d1edc7fd64eb21e047a839171b9190a45050565b60006103ca836001600160a01b038416610c50565b60335460ff1661090e5760405162461bcd60e51b815260206004820152601460248201527314185d5cd8589b194e881b9bdd081c185d5cd95960621b6044820152606401610342565b565b60335460ff161561090e5760405162461bcd60e51b815260206004820152601060248201526f14185d5cd8589b194e881c185d5cd95960821b6044820152606401610342565b600082600001828154811061096d5761096d610fab565b9060005260206000200154905092915050565b600054610100900460ff166109a75760405162461bcd60e51b815260040161034290610e94565b6033805460ff19169055565b600054610100900460ff166109da5760405162461bcd60e51b815260040161034290610e94565b6001606555565b600054610100900460ff1661090e5760405162461bcd60e51b815260040161034290610e94565b600082815260c96020526040808220600101805490849055905190918391839186917fbd79b86ffe0ab8e8776151514217cd7cacd52c909f66475c3af44e129f0b00ff9190a4505050565b60606102a66001600160a01b03831660145b60606000610a74836002610fd7565b610a7f906002610fee565b67ffffffffffffffff811115610a9757610a97611001565b6040519080825280601f01601f191660200182016040528015610ac1576020820181803683370190505b509050600360fc1b81600081518110610adc57610adc610fab565b60200101906001600160f81b031916908160001a905350600f60fb1b81600181518110610b0b57610b0b610fab565b60200101906001600160f81b031916908160001a9053506000610b2f846002610fd7565b610b3a906001610fee565b90505b6001811115610bb2576f181899199a1a9b1b9c1cb0b131b232b360811b85600f1660108110610b6e57610b6e610fab565b1a60f81b828281518110610b8457610b84610fab565b60200101906001600160f81b031916908160001a90535060049490941c93610bab81611017565b9050610b3d565b5083156103ca5760405162461bcd60e51b815260206004820181905260248201527f537472696e67733a20686578206c656e67746820696e73756666696369656e746044820152606401610342565b6000818152600183016020526040812054610c48575081546001818101845560008481526020808220909301849055845484825282860190935260409020919091556102a6565b5060006102a6565b60008181526001830160205260408120548015610d39576000610c7460018361102e565b8554909150600090610c889060019061102e565b9050818114610ced576000866000018281548110610ca857610ca8610fab565b9060005260206000200154905080876000018481548110610ccb57610ccb610fab565b6000918252602080832090910192909255918252600188019052604090208390555b8554869080610cfe57610cfe611041565b6001900381819060005260206000200160009055905585600101600086815260200190815260200160002060009055600193505050506102a6565b60009150506102a6565b600060208284031215610d5557600080fd5b81356001600160e01b0319811681146103ca57600080fd5b600060208284031215610d7f57600080fd5b5035919050565b80356001600160a01b0381168114610d9d57600080fd5b919050565b60008060408385031215610db557600080fd5b82359150610dc560208401610d86565b90509250929050565b600080600060408486031215610de357600080fd5b833560018110610df257600080fd5b9250602084013567ffffffffffffffff80821115610e0f57600080fd5b818601915086601f830112610e2357600080fd5b813581811115610e3257600080fd5b876020828501011115610e4457600080fd5b6020830194508093505050509250925092565b60008060408385031215610e6a57600080fd5b50508035926020909101359150565b600060208284031215610e8b57600080fd5b6103ca82610d86565b6020808252602b908201527f496e697469616c697a61626c653a20636f6e7472616374206973206e6f74206960408201526a6e697469616c697a696e6760a81b606082015260800190565b60005b83811015610efa578181015183820152602001610ee2565b50506000910152565b7f416363657373436f6e74726f6c3a206163636f756e7420000000000000000000815260008351610f3b816017850160208801610edf565b7001034b99036b4b9b9b4b733903937b6329607d1b6017918401918201528351610f6c816028840160208801610edf565b01602801949350505050565b6020815260008251806020840152610f97816040850160208701610edf565b601f01601f19169190910160400192915050565b634e487b7160e01b600052603260045260246000fd5b634e487b7160e01b600052601160045260246000fd5b80820281158282048414176102a6576102a6610fc1565b808201808211156102a6576102a6610fc1565b634e487b7160e01b600052604160045260246000fd5b60008161102657611026610fc1565b506000190190565b818103818111156102a6576102a6610fc1565b634e487b7160e01b600052603160045260246000fdfea26469706673582212201b5307b3aca32e8017804ebdac198c9285ee12824413f0809948ee9577d8691364736f6c63430008130033",
  "devdoc": {
    "events": {
      "Initialized(uint8)": {
        "details": "Triggered when the contract has been initialized or reinitialized."
      },
      "Paused(address)": {
        "details": "Emitted when the pause is triggered by `account`."
      },
      "RoleAdminChanged(bytes32,bytes32,bytes32)": {
        "details": "Emitted when `newAdminRole` is set as ``role``'s admin role, replacing `previousAdminRole` `DEFAULT_ADMIN_ROLE` is the starting admin for all roles, despite {RoleAdminChanged} not being emitted signaling this. _Available since v3.1._"
      },
      "RoleGranted(bytes32,address,address)": {
        "details": "Emitted when `account` is granted `role`. `sender` is the account that originated the contract call, an admin role bearer except when using {AccessControl-_setupRole}."
      },
      "RoleRevoked(bytes32,address,address)": {
        "details": "Emitted when `account` is revoked `role`. `sender` is the account that originated the contract call:   - if using `revokeRole`, it is the admin role bearer   - if using `renounceRole`, it is the role bearer (i.e. `account`)"
      },
      "Unpaused(address)": {
        "details": "Emitted when the pause is lifted by `account`."
      }
    },
    "kind": "dev",
    "methods": {
      "getRoleAdmin(bytes32)": {
        "details": "Returns the admin role that controls `role`. See {grantRole} and {revokeRole}. To change a role's admin, use {_setRoleAdmin}."
      },
      "getRoleMember(bytes32,uint256)": {
        "details": "Returns one of the accounts that have `role`. `index` must be a value between 0 and {getRoleMemberCount}, non-inclusive. Role bearers are not sorted in any particular way, and their ordering may change at any point. WARNING: When using {getRoleMember} and {getRoleMemberCount}, make sure you perform all queries on the same block. See the following https://forum.openzeppelin.com/t/iterating-over-elements-on-enumerableset-in-openzeppelin-contracts/2296[forum post] for more information."
      },
      "getRoleMemberCount(bytes32)": {
        "details": "Returns the number of accounts that have `role`. Can be used together with {getRoleMember} to enumerate all bearers of a role."
      },
      "grantRole(bytes32,address)": {
        "details": "Grants `role` to `account`. If `account` had not been already granted `role`, emits a {RoleGranted} event. Requirements: - the caller must have ``role``'s admin role. May emit a {RoleGranted} event."
      },
      "hasRole(bytes32,address)": {
        "details": "Returns `true` if `account` has been granted `role`."
      },
      "paused()": {
        "details": "Returns true if the contract is paused, and false otherwise."
      },
      "renounceRole(bytes32,address)": {
        "details": "Revokes `role` from the calling account. Roles are often managed via {grantRole} and {revokeRole}: this function's purpose is to provide a mechanism for accounts to lose their privileges if they are compromised (such as when a trusted device is misplaced). If the calling account had been revoked `role`, emits a {RoleRevoked} event. Requirements: - the caller must be `account`. May emit a {RoleRevoked} event."
      },
      "revokeRole(bytes32,address)": {
        "details": "Revokes `role` from `account`. If `account` had been granted `role`, emits a {RoleRevoked} event. Requirements: - the caller must have ``role``'s admin role. May emit a {RoleRevoked} event."
      },
      "supportsInterface(bytes4)": {
        "details": "See {IERC165-supportsInterface}."
      }
    },
    "version": 1
  },
  "userdoc": {
    "kind": "user",
    "methods": {},
    "version": 1
  },
  "storageLayout": {
    "storage": [
      {
        "astId": 1151,
        "contract": "contracts/protocol/ccip/UntangledBridgeRouter.sol:UntangledBridgeRouter",
        "label": "_initialized",
        "offset": 0,
        "slot": "0",
        "type": "t_uint8"
      },
      {
        "astId": 1154,
        "contract": "contracts/protocol/ccip/UntangledBridgeRouter.sol:UntangledBridgeRouter",
        "label": "_initializing",
        "offset": 1,
        "slot": "0",
        "type": "t_bool"
      },
      {
        "astId": 5261,
        "contract": "contracts/protocol/ccip/UntangledBridgeRouter.sol:UntangledBridgeRouter",
        "label": "__gap",
        "offset": 0,
        "slot": "1",
        "type": "t_array(t_uint256)50_storage"
      },
      {
        "astId": 1334,
        "contract": "contracts/protocol/ccip/UntangledBridgeRouter.sol:UntangledBridgeRouter",
        "label": "_paused",
        "offset": 0,
        "slot": "51",
        "type": "t_bool"
      },
      {
        "astId": 1439,
        "contract": "contracts/protocol/ccip/UntangledBridgeRouter.sol:UntangledBridgeRouter",
        "label": "__gap",
        "offset": 0,
        "slot": "52",
        "type": "t_array(t_uint256)49_storage"
      },
      {
        "astId": 1454,
        "contract": "contracts/protocol/ccip/UntangledBridgeRouter.sol:UntangledBridgeRouter",
        "label": "_status",
        "offset": 0,
        "slot": "101",
        "type": "t_uint256"
      },
      {
        "astId": 1523,
        "contract": "contracts/protocol/ccip/UntangledBridgeRouter.sol:UntangledBridgeRouter",
        "label": "__gap",
        "offset": 0,
        "slot": "102",
        "type": "t_array(t_uint256)49_storage"
      },
      {
        "astId": 5974,
        "contract": "contracts/protocol/ccip/UntangledBridgeRouter.sol:UntangledBridgeRouter",
        "label": "__gap",
        "offset": 0,
        "slot": "151",
        "type": "t_array(t_uint256)50_storage"
      },
      {
        "astId": 615,
        "contract": "contracts/protocol/ccip/UntangledBridgeRouter.sol:UntangledBridgeRouter",
        "label": "_roles",
        "offset": 0,
        "slot": "201",
        "type": "t_mapping(t_bytes32,t_struct(RoleData)610_storage)"
      },
      {
        "astId": 910,
        "contract": "contracts/protocol/ccip/UntangledBridgeRouter.sol:UntangledBridgeRouter",
        "label": "__gap",
        "offset": 0,
        "slot": "202",
        "type": "t_array(t_uint256)49_storage"
      },
      {
        "astId": 464,
        "contract": "contracts/protocol/ccip/UntangledBridgeRouter.sol:UntangledBridgeRouter",
        "label": "_roleMembers",
        "offset": 0,
        "slot": "251",
        "type": "t_mapping(t_bytes32,t_struct(AddressSet)7284_storage)"
      },
      {
        "astId": 574,
        "contract": "contracts/protocol/ccip/UntangledBridgeRouter.sol:UntangledBridgeRouter",
        "label": "__gap",
        "offset": 0,
        "slot": "252",
        "type": "t_array(t_uint256)49_storage"
      },
      {
        "astId": 11126,
        "contract": "contracts/protocol/ccip/UntangledBridgeRouter.sol:UntangledBridgeRouter",
        "label": "__gap",
        "offset": 0,
        "slot": "301",
        "type": "t_array(t_uint256)50_storage"
      }
    ],
    "types": {
      "t_address": {
        "encoding": "inplace",
        "label": "address",
        "numberOfBytes": "20"
      },
      "t_array(t_bytes32)dyn_storage": {
        "base": "t_bytes32",
        "encoding": "dynamic_array",
        "label": "bytes32[]",
        "numberOfBytes": "32"
      },
      "t_array(t_uint256)49_storage": {
        "base": "t_uint256",
        "encoding": "inplace",
        "label": "uint256[49]",
        "numberOfBytes": "1568"
      },
      "t_array(t_uint256)50_storage": {
        "base": "t_uint256",
        "encoding": "inplace",
        "label": "uint256[50]",
        "numberOfBytes": "1600"
      },
      "t_bool": {
        "encoding": "inplace",
        "label": "bool",
        "numberOfBytes": "1"
      },
      "t_bytes32": {
        "encoding": "inplace",
        "label": "bytes32",
        "numberOfBytes": "32"
      },
      "t_mapping(t_address,t_bool)": {
        "encoding": "mapping",
        "key": "t_address",
        "label": "mapping(address => bool)",
        "numberOfBytes": "32",
        "value": "t_bool"
      },
      "t_mapping(t_bytes32,t_struct(AddressSet)7284_storage)": {
        "encoding": "mapping",
        "key": "t_bytes32",
        "label": "mapping(bytes32 => struct EnumerableSetUpgradeable.AddressSet)",
        "numberOfBytes": "32",
        "value": "t_struct(AddressSet)7284_storage"
      },
      "t_mapping(t_bytes32,t_struct(RoleData)610_storage)": {
        "encoding": "mapping",
        "key": "t_bytes32",
        "label": "mapping(bytes32 => struct AccessControlUpgradeable.RoleData)",
        "numberOfBytes": "32",
        "value": "t_struct(RoleData)610_storage"
      },
      "t_mapping(t_bytes32,t_uint256)": {
        "encoding": "mapping",
        "key": "t_bytes32",
        "label": "mapping(bytes32 => uint256)",
        "numberOfBytes": "32",
        "value": "t_uint256"
      },
      "t_struct(AddressSet)7284_storage": {
        "encoding": "inplace",
        "label": "struct EnumerableSetUpgradeable.AddressSet",
        "members": [
          {
            "astId": 7283,
            "contract": "contracts/protocol/ccip/UntangledBridgeRouter.sol:UntangledBridgeRouter",
            "label": "_inner",
            "offset": 0,
            "slot": "0",
            "type": "t_struct(Set)6969_storage"
          }
        ],
        "numberOfBytes": "64"
      },
      "t_struct(RoleData)610_storage": {
        "encoding": "inplace",
        "label": "struct AccessControlUpgradeable.RoleData",
        "members": [
          {
            "astId": 607,
            "contract": "contracts/protocol/ccip/UntangledBridgeRouter.sol:UntangledBridgeRouter",
            "label": "members",
            "offset": 0,
            "slot": "0",
            "type": "t_mapping(t_address,t_bool)"
          },
          {
            "astId": 609,
            "contract": "contracts/protocol/ccip/UntangledBridgeRouter.sol:UntangledBridgeRouter",
            "label": "adminRole",
            "offset": 0,
            "slot": "1",
            "type": "t_bytes32"
          }
        ],
        "numberOfBytes": "64"
      },
      "t_struct(Set)6969_storage": {
        "encoding": "inplace",
        "label": "struct EnumerableSetUpgradeable.Set",
        "members": [
          {
            "astId": 6964,
            "contract": "contracts/protocol/ccip/UntangledBridgeRouter.sol:UntangledBridgeRouter",
            "label": "_values",
            "offset": 0,
            "slot": "0",
            "type": "t_array(t_bytes32)dyn_storage"
          },
          {
            "astId": 6968,
            "contract": "contracts/protocol/ccip/UntangledBridgeRouter.sol:UntangledBridgeRouter",
            "label": "_indexes",
            "offset": 0,
            "slot": "1",
            "type": "t_mapping(t_bytes32,t_uint256)"
          }
        ],
        "numberOfBytes": "64"
      },
      "t_uint256": {
        "encoding": "inplace",
        "label": "uint256",
        "numberOfBytes": "32"
      },
      "t_uint8": {
        "encoding": "inplace",
        "label": "uint8",
        "numberOfBytes": "1"
      }
    }
  }
}